{
	"contracts/block/block.sol": {
		"BancorConverterRegistry": {
			"abi": [
				{
					"constant": false,
					"inputs": [
						{
							"name": "_token",
							"type": "address"
						},
						{
							"name": "_index",
							"type": "uint32"
						}
					],
					"name": "unregisterConverter",
					"outputs": [],
					"payable": false,
					"stateMutability": "nonpayable",
					"type": "function"
				},
				{
					"constant": true,
					"inputs": [
						{
							"name": "",
							"type": "uint256"
						}
					],
					"name": "tokens",
					"outputs": [
						{
							"name": "",
							"type": "address"
						}
					],
					"payable": false,
					"stateMutability": "view",
					"type": "function"
				},
				{
					"constant": false,
					"inputs": [],
					"name": "acceptOwnership",
					"outputs": [],
					"payable": false,
					"stateMutability": "nonpayable",
					"type": "function"
				},
				{
					"constant": true,
					"inputs": [],
					"name": "owner",
					"outputs": [
						{
							"name": "",
							"type": "address"
						}
					],
					"payable": false,
					"stateMutability": "view",
					"type": "function"
				},
				{
					"constant": true,
					"inputs": [
						{
							"name": "_token",
							"type": "address"
						},
						{
							"name": "_index",
							"type": "uint32"
						}
					],
					"name": "converterAddress",
					"outputs": [
						{
							"name": "",
							"type": "address"
						}
					],
					"payable": false,
					"stateMutability": "view",
					"type": "function"
				},
				{
					"constant": true,
					"inputs": [
						{
							"name": "_converter",
							"type": "address"
						}
					],
					"name": "tokenAddress",
					"outputs": [
						{
							"name": "",
							"type": "address"
						}
					],
					"payable": false,
					"stateMutability": "view",
					"type": "function"
				},
				{
					"constant": true,
					"inputs": [],
					"name": "tokenCount",
					"outputs": [
						{
							"name": "",
							"type": "uint256"
						}
					],
					"payable": false,
					"stateMutability": "view",
					"type": "function"
				},
				{
					"constant": true,
					"inputs": [
						{
							"name": "_token",
							"type": "address"
						}
					],
					"name": "converterCount",
					"outputs": [
						{
							"name": "",
							"type": "uint256"
						}
					],
					"payable": false,
					"stateMutability": "view",
					"type": "function"
				},
				{
					"constant": false,
					"inputs": [
						{
							"name": "_token",
							"type": "address"
						},
						{
							"name": "_converter",
							"type": "address"
						}
					],
					"name": "registerConverter",
					"outputs": [],
					"payable": false,
					"stateMutability": "nonpayable",
					"type": "function"
				},
				{
					"constant": true,
					"inputs": [],
					"name": "newOwner",
					"outputs": [
						{
							"name": "",
							"type": "address"
						}
					],
					"payable": false,
					"stateMutability": "view",
					"type": "function"
				},
				{
					"constant": false,
					"inputs": [
						{
							"name": "_newOwner",
							"type": "address"
						}
					],
					"name": "transferOwnership",
					"outputs": [],
					"payable": false,
					"stateMutability": "nonpayable",
					"type": "function"
				},
				{
					"inputs": [],
					"payable": false,
					"stateMutability": "nonpayable",
					"type": "constructor"
				},
				{
					"anonymous": false,
					"inputs": [
						{
							"indexed": true,
							"name": "_token",
							"type": "address"
						},
						{
							"indexed": false,
							"name": "_address",
							"type": "address"
						}
					],
					"name": "ConverterAddition",
					"type": "event"
				},
				{
					"anonymous": false,
					"inputs": [
						{
							"indexed": true,
							"name": "_token",
							"type": "address"
						},
						{
							"indexed": false,
							"name": "_address",
							"type": "address"
						}
					],
					"name": "ConverterRemoval",
					"type": "event"
				},
				{
					"anonymous": false,
					"inputs": [
						{
							"indexed": true,
							"name": "_prevOwner",
							"type": "address"
						},
						{
							"indexed": true,
							"name": "_newOwner",
							"type": "address"
						}
					],
					"name": "OwnerUpdate",
					"type": "event"
				}
			],
			"devdoc": {
				"methods": {
					"acceptOwnership()": {
						"details": "used by a new owner to accept an ownership transfer"
					},
					"converterAddress(address,uint32)": {
						"details": "returns the converter address associated with the given token or zero address if no such converter exists",
						"params": {
							"_index": "converter index",
							"_token": "token address"
						},
						"return": "converter address"
					},
					"converterCount(address)": {
						"details": "returns the number of converters associated with the given token or 0 if the token isn't registered",
						"params": {
							"_token": "token address"
						},
						"return": "number of converters"
					},
					"registerConverter(address,address)": {
						"details": "adds a new converter address for a given token to the registry throws if the converter is already registered",
						"params": {
							"_converter": "converter address",
							"_token": "token address"
						}
					},
					"tokenAddress(address)": {
						"details": "returns the token address associated with the given converter or zero address if no such converter exists",
						"params": {
							"_converter": "converter address"
						},
						"return": "token address"
					},
					"tokenCount()": {
						"details": "returns the number of tokens in the registry",
						"return": "number of tokens"
					},
					"transferOwnership(address)": {
						"details": "allows transferring the contract ownership the new owner still needs to accept the transfer can only be called by the contract owner",
						"params": {
							"_newOwner": "new contract owner"
						}
					},
					"unregisterConverter(address,uint32)": {
						"details": "removes an existing converter from the registry note that the function doesn't scale and might be needed to be called multiple times when removing an older converter from a large converter list",
						"params": {
							"_index": "converter index",
							"_token": "token address"
						}
					}
				}
			},
			"evm": {
				"assembly": "    /* \"contracts/block/block.sol\":2852:7044  contract BancorConverterRegistry is Owned, Utils {... */\n  mstore(0x40, 0x80)\n    /* \"contracts/block/block.sol\":3616:3644  constructor() public {... */\n  callvalue\n    /* \"--CODEGEN--\":8:17   */\n  dup1\n    /* \"--CODEGEN--\":5:7   */\n  iszero\n  tag_1\n  jumpi\n    /* \"--CODEGEN--\":30:31   */\n  0x0\n    /* \"--CODEGEN--\":27:28   */\n  dup1\n    /* \"--CODEGEN--\":20:32   */\n  revert\n    /* \"--CODEGEN--\":5:7   */\ntag_1:\n  pop\n    /* \"contracts/block/block.sol\":831:836  owner */\n  0x0\n    /* \"contracts/block/block.sol\":831:849  owner = msg.sender */\n  dup1\n  sload\n  not(sub(exp(0x2, 0xa0), 0x1))\n  and\n    /* \"contracts/block/block.sol\":839:849  msg.sender */\n  caller\n    /* \"contracts/block/block.sol\":831:849  owner = msg.sender */\n  or\n  swap1\n  sstore\n    /* \"contracts/block/block.sol\":2852:7044  contract BancorConverterRegistry is Owned, Utils {... */\n  dataSize(sub_0)\n  dup1\n  dataOffset(sub_0)\n  0x0\n  codecopy\n  0x0\n  return\nstop\n\nsub_0: assembly {\n        /* \"contracts/block/block.sol\":2852:7044  contract BancorConverterRegistry is Owned, Utils {... */\n      mstore(0x40, 0x80)\n      jumpi(tag_1, lt(calldatasize, 0x4))\n      and(div(calldataload(0x0), 0x100000000000000000000000000000000000000000000000000000000), 0xffffffff)\n      0x38cb066f\n      dup2\n      eq\n      tag_2\n      jumpi\n      dup1\n      0x4f64b2be\n      eq\n      tag_3\n      jumpi\n      dup1\n      0x79ba5097\n      eq\n      tag_4\n      jumpi\n      dup1\n      0x8da5cb5b\n      eq\n      tag_5\n      jumpi\n      dup1\n      0x90ab3106\n      eq\n      tag_6\n      jumpi\n      dup1\n      0x9884e801\n      eq\n      tag_7\n      jumpi\n      dup1\n      0x9f181b5e\n      eq\n      tag_8\n      jumpi\n      dup1\n      0xcd9d4d66\n      eq\n      tag_9\n      jumpi\n      dup1\n      0xd26a8d2e\n      eq\n      tag_10\n      jumpi\n      dup1\n      0xd4ee1d90\n      eq\n      tag_11\n      jumpi\n      dup1\n      0xf2fde38b\n      eq\n      tag_12\n      jumpi\n    tag_1:\n      0x0\n      dup1\n      revert\n        /* \"contracts/block/block.sol\":6217:7042  function unregisterConverter(address _token, uint32 _index)... */\n    tag_2:\n      callvalue\n        /* \"--CODEGEN--\":8:17   */\n      dup1\n        /* \"--CODEGEN--\":5:7   */\n      iszero\n      tag_13\n      jumpi\n        /* \"--CODEGEN--\":30:31   */\n      0x0\n        /* \"--CODEGEN--\":27:28   */\n      dup1\n        /* \"--CODEGEN--\":20:32   */\n      revert\n        /* \"--CODEGEN--\":5:7   */\n    tag_13:\n      pop\n        /* \"contracts/block/block.sol\":6217:7042  function unregisterConverter(address _token, uint32 _index)... */\n      tag_14\n      and(calldataload(0x4), sub(exp(0x2, 0xa0), 0x1))\n      and(calldataload(0x24), 0xffffffff)\n      jump(tag_15)\n    tag_14:\n      stop\n        /* \"contracts/block/block.sol\":3215:3238  address[] public tokens */\n    tag_3:\n      callvalue\n        /* \"--CODEGEN--\":8:17   */\n      dup1\n        /* \"--CODEGEN--\":5:7   */\n      iszero\n      tag_16\n      jumpi\n        /* \"--CODEGEN--\":30:31   */\n      0x0\n        /* \"--CODEGEN--\":27:28   */\n      dup1\n        /* \"--CODEGEN--\":20:32   */\n      revert\n        /* \"--CODEGEN--\":5:7   */\n    tag_16:\n      pop\n        /* \"contracts/block/block.sol\":3215:3238  address[] public tokens */\n      tag_17\n      calldataload(0x4)\n      jump(tag_18)\n    tag_17:\n      0x40\n      dup1\n      mload\n      sub(exp(0x2, 0xa0), 0x1)\n      swap1\n      swap3\n      and\n      dup3\n      mstore\n      mload\n      swap1\n      dup2\n      swap1\n      sub\n      0x20\n      add\n      swap1\n      return\n        /* \"contracts/block/block.sol\":1433:1615  function acceptOwnership() public {... */\n    tag_4:\n      callvalue\n        /* \"--CODEGEN--\":8:17   */\n      dup1\n        /* \"--CODEGEN--\":5:7   */\n      iszero\n      tag_19\n      jumpi\n        /* \"--CODEGEN--\":30:31   */\n      0x0\n        /* \"--CODEGEN--\":27:28   */\n      dup1\n        /* \"--CODEGEN--\":20:32   */\n      revert\n        /* \"--CODEGEN--\":5:7   */\n    tag_19:\n        /* \"contracts/block/block.sol\":1433:1615  function acceptOwnership() public {... */\n      pop\n      tag_14\n      jump(tag_21)\n        /* \"contracts/block/block.sol\":625:645  address public owner */\n    tag_5:\n      callvalue\n        /* \"--CODEGEN--\":8:17   */\n      dup1\n        /* \"--CODEGEN--\":5:7   */\n      iszero\n      tag_22\n      jumpi\n        /* \"--CODEGEN--\":30:31   */\n      0x0\n        /* \"--CODEGEN--\":27:28   */\n      dup1\n        /* \"--CODEGEN--\":20:32   */\n      revert\n        /* \"--CODEGEN--\":5:7   */\n    tag_22:\n        /* \"contracts/block/block.sol\":625:645  address public owner */\n      pop\n      tag_17\n      jump(tag_24)\n        /* \"contracts/block/block.sol\":4454:4688  function converterAddress(address _token, uint32 _index) public view returns (address) {... */\n    tag_6:\n      callvalue\n        /* \"--CODEGEN--\":8:17   */\n      dup1\n        /* \"--CODEGEN--\":5:7   */\n      iszero\n      tag_25\n      jumpi\n        /* \"--CODEGEN--\":30:31   */\n      0x0\n        /* \"--CODEGEN--\":27:28   */\n      dup1\n        /* \"--CODEGEN--\":20:32   */\n      revert\n        /* \"--CODEGEN--\":5:7   */\n    tag_25:\n      pop\n        /* \"contracts/block/block.sol\":4454:4688  function converterAddress(address _token, uint32 _index) public view returns (address) {... */\n      tag_17\n      and(calldataload(0x4), sub(exp(0x2, 0xa0), 0x1))\n      and(calldataload(0x24), 0xffffffff)\n      jump(tag_27)\n        /* \"contracts/block/block.sol\":4914:5040  function tokenAddress(address _converter) public view returns (address) {... */\n    tag_7:\n      callvalue\n        /* \"--CODEGEN--\":8:17   */\n      dup1\n        /* \"--CODEGEN--\":5:7   */\n      iszero\n      tag_28\n      jumpi\n        /* \"--CODEGEN--\":30:31   */\n      0x0\n        /* \"--CODEGEN--\":27:28   */\n      dup1\n        /* \"--CODEGEN--\":20:32   */\n      revert\n        /* \"--CODEGEN--\":5:7   */\n    tag_28:\n      pop\n        /* \"contracts/block/block.sol\":4914:5040  function tokenAddress(address _converter) public view returns (address) {... */\n      tag_17\n      and(calldataload(0x4), sub(exp(0x2, 0xa0), 0x1))\n      jump(tag_30)\n        /* \"contracts/block/block.sol\":3757:3846  function tokenCount() public view returns (uint256) {... */\n    tag_8:\n      callvalue\n        /* \"--CODEGEN--\":8:17   */\n      dup1\n        /* \"--CODEGEN--\":5:7   */\n      iszero\n      tag_31\n      jumpi\n        /* \"--CODEGEN--\":30:31   */\n      0x0\n        /* \"--CODEGEN--\":27:28   */\n      dup1\n        /* \"--CODEGEN--\":20:32   */\n      revert\n        /* \"--CODEGEN--\":5:7   */\n    tag_31:\n        /* \"contracts/block/block.sol\":3757:3846  function tokenCount() public view returns (uint256) {... */\n      pop\n      tag_32\n      jump(tag_33)\n    tag_32:\n      0x40\n      dup1\n      mload\n      swap2\n      dup3\n      mstore\n      mload\n      swap1\n      dup2\n      swap1\n      sub\n      0x20\n      add\n      swap1\n      return\n        /* \"contracts/block/block.sol\":4065:4192  function converterCount(address _token) public view returns (uint256) {... */\n    tag_9:\n      callvalue\n        /* \"--CODEGEN--\":8:17   */\n      dup1\n        /* \"--CODEGEN--\":5:7   */\n      iszero\n      tag_34\n      jumpi\n        /* \"--CODEGEN--\":30:31   */\n      0x0\n        /* \"--CODEGEN--\":27:28   */\n      dup1\n        /* \"--CODEGEN--\":20:32   */\n      revert\n        /* \"--CODEGEN--\":5:7   */\n    tag_34:\n      pop\n        /* \"contracts/block/block.sol\":4065:4192  function converterCount(address _token) public view returns (uint256) {... */\n      tag_32\n      and(calldataload(0x4), sub(exp(0x2, 0xa0), 0x1))\n      jump(tag_36)\n        /* \"contracts/block/block.sol\":5280:5894  function registerConverter(address _token, address _converter)... */\n    tag_10:\n      callvalue\n        /* \"--CODEGEN--\":8:17   */\n      dup1\n        /* \"--CODEGEN--\":5:7   */\n      iszero\n      tag_37\n      jumpi\n        /* \"--CODEGEN--\":30:31   */\n      0x0\n        /* \"--CODEGEN--\":27:28   */\n      dup1\n        /* \"--CODEGEN--\":20:32   */\n      revert\n        /* \"--CODEGEN--\":5:7   */\n    tag_37:\n      pop\n        /* \"contracts/block/block.sol\":5280:5894  function registerConverter(address _token, address _converter)... */\n      tag_14\n      sub(exp(0x2, 0xa0), 0x1)\n      calldataload(0x4)\n      dup2\n      and\n      swap1\n      calldataload(0x24)\n      and\n      jump(tag_39)\n        /* \"contracts/block/block.sol\":651:674  address public newOwner */\n    tag_11:\n      callvalue\n        /* \"--CODEGEN--\":8:17   */\n      dup1\n        /* \"--CODEGEN--\":5:7   */\n      iszero\n      tag_40\n      jumpi\n        /* \"--CODEGEN--\":30:31   */\n      0x0\n        /* \"--CODEGEN--\":27:28   */\n      dup1\n        /* \"--CODEGEN--\":20:32   */\n      revert\n        /* \"--CODEGEN--\":5:7   */\n    tag_40:\n        /* \"contracts/block/block.sol\":651:674  address public newOwner */\n      pop\n      tag_17\n      jump(tag_42)\n        /* \"contracts/block/block.sol\":1210:1347  function transferOwnership(address _newOwner) public ownerOnly {... */\n    tag_12:\n      callvalue\n        /* \"--CODEGEN--\":8:17   */\n      dup1\n        /* \"--CODEGEN--\":5:7   */\n      iszero\n      tag_43\n      jumpi\n        /* \"--CODEGEN--\":30:31   */\n      0x0\n        /* \"--CODEGEN--\":27:28   */\n      dup1\n        /* \"--CODEGEN--\":20:32   */\n      revert\n        /* \"--CODEGEN--\":5:7   */\n    tag_43:\n      pop\n        /* \"contracts/block/block.sol\":1210:1347  function transferOwnership(address _newOwner) public ownerOnly {... */\n      tag_14\n      and(calldataload(0x4), sub(exp(0x2, 0xa0), 0x1))\n      jump(tag_45)\n        /* \"contracts/block/block.sol\":6217:7042  function unregisterConverter(address _token, uint32 _index)... */\n    tag_15:\n        /* \"contracts/block/block.sol\":6415:6432  address converter */\n      0x0\n        /* \"contracts/block/block.sol\":955:960  owner */\n      dup1\n      sload\n        /* \"contracts/block/block.sol\":6415:6432  address converter */\n      dup2\n      swap1\n      sub(exp(0x2, 0xa0), 0x1)\n        /* \"contracts/block/block.sol\":955:960  owner */\n      and\n        /* \"contracts/block/block.sol\":941:951  msg.sender */\n      caller\n        /* \"contracts/block/block.sol\":941:960  msg.sender == owner */\n      eq\n        /* \"contracts/block/block.sol\":933:961  require(msg.sender == owner) */\n      tag_47\n      jumpi\n      0x0\n      dup1\n      revert\n    tag_47:\n        /* \"contracts/block/block.sol\":6331:6337  _token */\n      dup4\n      sub(exp(0x2, 0xa0), 0x1)\n        /* \"contracts/block/block.sol\":2089:2111  _address != address(0) */\n      dup2\n      and\n      iszero\n      iszero\n        /* \"contracts/block/block.sol\":2081:2112  require(_address != address(0)) */\n      tag_49\n      jumpi\n      0x0\n      dup1\n      revert\n    tag_49:\n      sub(exp(0x2, 0xa0), 0x1)\n        /* \"contracts/block/block.sol\":6370:6396  tokensToConverters[_token] */\n      dup6\n      and\n      0x0\n      swap1\n      dup2\n      mstore\n        /* \"contracts/block/block.sol\":6370:6388  tokensToConverters */\n      0x3\n        /* \"contracts/block/block.sol\":6370:6396  tokensToConverters[_token] */\n      0x20\n      mstore\n      0x40\n      swap1\n      keccak256\n        /* \"contracts/block/block.sol\":6370:6403  tokensToConverters[_token].length */\n      sload\n        /* \"contracts/block/block.sol\":6361:6403  _index < tokensToConverters[_token].length */\n      0xffffffff\n      dup6\n      and\n      lt\n        /* \"contracts/block/block.sol\":6353:6404  require(_index < tokensToConverters[_token].length) */\n      tag_51\n      jumpi\n      0x0\n      dup1\n      revert\n    tag_51:\n      sub(exp(0x2, 0xa0), 0x1)\n        /* \"contracts/block/block.sol\":6435:6461  tokensToConverters[_token] */\n      dup6\n      and\n      0x0\n      swap1\n      dup2\n      mstore\n        /* \"contracts/block/block.sol\":6435:6453  tokensToConverters */\n      0x3\n        /* \"contracts/block/block.sol\":6435:6461  tokensToConverters[_token] */\n      0x20\n      mstore\n      0x40\n      swap1\n      keccak256\n        /* \"contracts/block/block.sol\":6435:6469  tokensToConverters[_token][_index] */\n      dup1\n      sload\n      0xffffffff\n      dup7\n      and\n      swap1\n      dup2\n      lt\n      tag_52\n      jumpi\n      invalid\n    tag_52:\n      0x0\n      swap2\n      dup3\n      mstore\n      0x20\n      swap1\n      swap2\n      keccak256\n      add\n      sload\n      sub(exp(0x2, 0xa0), 0x1)\n      and\n      swap3\n      pop\n      0x1\n        /* \"contracts/block/block.sol\":6550:6560  _index + 1 */\n      dup5\n      add\n      swap2\n      pop\n        /* \"contracts/block/block.sol\":6534:6696  for (uint32 i = _index + 1; i < tokensToConverters[_token].length; i++) {... */\n    tag_54:\n      sub(exp(0x2, 0xa0), 0x1)\n        /* \"contracts/block/block.sol\":6566:6592  tokensToConverters[_token] */\n      dup6\n      and\n      0x0\n      swap1\n      dup2\n      mstore\n        /* \"contracts/block/block.sol\":6566:6584  tokensToConverters */\n      0x3\n        /* \"contracts/block/block.sol\":6566:6592  tokensToConverters[_token] */\n      0x20\n      mstore\n      0x40\n      swap1\n      keccak256\n        /* \"contracts/block/block.sol\":6566:6599  tokensToConverters[_token].length */\n      sload\n        /* \"contracts/block/block.sol\":6562:6599  i < tokensToConverters[_token].length */\n      0xffffffff\n      dup4\n      and\n      lt\n        /* \"contracts/block/block.sol\":6534:6696  for (uint32 i = _index + 1; i < tokensToConverters[_token].length; i++) {... */\n      iszero\n      tag_55\n      jumpi\n      sub(exp(0x2, 0xa0), 0x1)\n        /* \"contracts/block/block.sol\":6656:6682  tokensToConverters[_token] */\n      dup6\n      and\n      0x0\n      swap1\n      dup2\n      mstore\n        /* \"contracts/block/block.sol\":6656:6674  tokensToConverters */\n      0x3\n        /* \"contracts/block/block.sol\":6656:6682  tokensToConverters[_token] */\n      0x20\n      mstore\n      0x40\n      swap1\n      keccak256\n        /* \"contracts/block/block.sol\":6656:6685  tokensToConverters[_token][i] */\n      dup1\n      sload\n      0xffffffff\n      dup5\n      and\n      swap1\n      dup2\n      lt\n      tag_57\n      jumpi\n      invalid\n    tag_57:\n      0x0\n      swap2\n      dup3\n      mstore\n      0x20\n      dup1\n      dup4\n      keccak256\n      swap1\n      swap2\n      add\n      sload\n      sub(exp(0x2, 0xa0), 0x1)\n        /* \"contracts/block/block.sol\":6620:6646  tokensToConverters[_token] */\n      dup9\n      dup2\n      and\n      dup5\n      mstore\n        /* \"contracts/block/block.sol\":6620:6638  tokensToConverters */\n      0x3\n        /* \"contracts/block/block.sol\":6620:6646  tokensToConverters[_token] */\n      swap1\n      swap3\n      mstore\n      0x40\n      swap1\n      swap3\n      keccak256\n        /* \"contracts/block/block.sol\":6620:6653  tokensToConverters[_token][i - 1] */\n      dup1\n      sload\n        /* \"contracts/block/block.sol\":6656:6685  tokensToConverters[_token][i] */\n      swap2\n      swap1\n      swap3\n      and\n      swap2\n        /* \"contracts/block/block.sol\":6620:6646  tokensToConverters[_token] */\n      swap1\n        /* \"contracts/block/block.sol\":6620:6653  tokensToConverters[_token][i - 1] */\n      0xffffffff\n      not(0x0)\n        /* \"contracts/block/block.sol\":6647:6652  i - 1 */\n      dup7\n      add\n        /* \"contracts/block/block.sol\":6620:6653  tokensToConverters[_token][i - 1] */\n      and\n      swap1\n      dup2\n      lt\n      tag_59\n      jumpi\n      invalid\n    tag_59:\n      0x0\n      swap2\n      dup3\n      mstore\n      0x20\n      swap1\n      swap2\n      keccak256\n      add\n        /* \"contracts/block/block.sol\":6620:6685  tokensToConverters[_token][i - 1] = tokensToConverters[_token][i] */\n      dup1\n      sload\n      not(0xffffffffffffffffffffffffffffffffffffffff)\n      and\n      sub(exp(0x2, 0xa0), 0x1)\n      swap3\n      swap1\n      swap3\n      and\n      swap2\n      swap1\n      swap2\n      or\n      swap1\n      sstore\n      0x1\n        /* \"contracts/block/block.sol\":6601:6604  i++ */\n      swap2\n      swap1\n      swap2\n      add\n      swap1\n        /* \"contracts/block/block.sol\":6534:6696  for (uint32 i = _index + 1; i < tokensToConverters[_token].length; i++) {... */\n      jump(tag_54)\n    tag_55:\n      sub(exp(0x2, 0xa0), 0x1)\n        /* \"contracts/block/block.sol\":6778:6804  tokensToConverters[_token] */\n      dup6\n      and\n      0x0\n      swap1\n      dup2\n      mstore\n        /* \"contracts/block/block.sol\":6778:6796  tokensToConverters */\n      0x3\n        /* \"contracts/block/block.sol\":6778:6804  tokensToConverters[_token] */\n      0x20\n      mstore\n      0x40\n      swap1\n      keccak256\n        /* \"contracts/block/block.sol\":6778:6813  tokensToConverters[_token].length-- */\n      dup1\n      sload\n      swap1\n      tag_61\n      swap1\n      not(0x0)\n      dup4\n      add\n      jump\t// in(tag_62)\n    tag_61:\n      pop\n      sub(exp(0x2, 0xa0), 0x1)\n        /* \"contracts/block/block.sol\":6907:6936  convertersToTokens[converter] */\n      dup1\n      dup5\n      and\n      0x0\n      dup2\n      dup2\n      mstore\n        /* \"contracts/block/block.sol\":6907:6925  convertersToTokens */\n      0x4\n        /* \"contracts/block/block.sol\":6907:6936  convertersToTokens[converter] */\n      0x20\n      swap1\n      dup2\n      mstore\n      0x40\n      swap2\n      dup3\n      swap1\n      keccak256\n        /* \"contracts/block/block.sol\":6900:6936  delete convertersToTokens[converter] */\n      dup1\n      sload\n      not(0xffffffffffffffffffffffffffffffffffffffff)\n      and\n      swap1\n      sstore\n        /* \"contracts/block/block.sol\":7000:7035  ConverterRemoval(_token, converter) */\n      dup2\n      mload\n      swap3\n      dup4\n      mstore\n      swap1\n      mload\n      swap3\n      dup9\n      and\n      swap3\n      0xc3b25a6c3b7509edde0f2e6cc317b5820a901fa82ac554709206e1d7237fe294\n      swap3\n      dup2\n      swap1\n      sub\n      swap1\n      swap2\n      add\n      swap1\n      log2\n        /* \"contracts/block/block.sol\":971:972  _ */\n      pop\n        /* \"contracts/block/block.sol\":6217:7042  function unregisterConverter(address _token, uint32 _index)... */\n      pop\n      pop\n      pop\n      pop\n      jump\t// out\n        /* \"contracts/block/block.sol\":3215:3238  address[] public tokens */\n    tag_18:\n      0x5\n      dup1\n      sload\n      dup3\n      swap1\n      dup2\n      lt\n      tag_63\n      jumpi\n      invalid\n    tag_63:\n      0x0\n      swap2\n      dup3\n      mstore\n      0x20\n      swap1\n      swap2\n      keccak256\n      add\n      sload\n      sub(exp(0x2, 0xa0), 0x1)\n      and\n      swap1\n      pop\n      dup2\n      jump\t// out\n        /* \"contracts/block/block.sol\":1433:1615  function acceptOwnership() public {... */\n    tag_21:\n        /* \"contracts/block/block.sol\":1499:1507  newOwner */\n      and(sub(exp(0x2, 0xa0), 0x1), sload(0x1))\n        /* \"contracts/block/block.sol\":1485:1495  msg.sender */\n      caller\n        /* \"contracts/block/block.sol\":1485:1507  msg.sender == newOwner */\n      eq\n        /* \"contracts/block/block.sol\":1477:1508  require(msg.sender == newOwner) */\n      tag_66\n      jumpi\n      0x0\n      dup1\n      revert\n    tag_66:\n        /* \"contracts/block/block.sol\":1542:1550  newOwner */\n      sload(0x1)\n      0x0\n        /* \"contracts/block/block.sol\":1535:1540  owner */\n      dup1\n      sload\n        /* \"contracts/block/block.sol\":1523:1551  OwnerUpdate(owner, newOwner) */\n      mload(0x40)\n      sub(exp(0x2, 0xa0), 0x1)\n        /* \"contracts/block/block.sol\":1542:1550  newOwner */\n      swap4\n      dup5\n      and\n      swap4\n        /* \"contracts/block/block.sol\":1535:1540  owner */\n      swap1\n      swap2\n      and\n      swap2\n        /* \"contracts/block/block.sol\":1523:1551  OwnerUpdate(owner, newOwner) */\n      0x343765429aea5a34b3ff6a3785a98a5abb2597aca87bfbb58632c173d585373a\n      swap2\n      log3\n        /* \"contracts/block/block.sol\":1569:1577  newOwner */\n      0x1\n      dup1\n      sload\n      0x0\n        /* \"contracts/block/block.sol\":1561:1577  owner = newOwner */\n      dup1\n      sload\n      not(0xffffffffffffffffffffffffffffffffffffffff)\n      swap1\n      dup2\n      and\n      sub(exp(0x2, 0xa0), 0x1)\n        /* \"contracts/block/block.sol\":1569:1577  newOwner */\n      dup5\n      and\n        /* \"contracts/block/block.sol\":1561:1577  owner = newOwner */\n      or\n      swap1\n      swap2\n      sstore\n        /* \"contracts/block/block.sol\":1587:1608  newOwner = address(0) */\n      and\n      swap1\n      sstore\n        /* \"contracts/block/block.sol\":1433:1615  function acceptOwnership() public {... */\n      jump\t// out\n        /* \"contracts/block/block.sol\":625:645  address public owner */\n    tag_24:\n      and(sub(exp(0x2, 0xa0), 0x1), sload(0x0))\n      dup2\n      jump\t// out\n        /* \"contracts/block/block.sol\":4454:4688  function converterAddress(address _token, uint32 _index) public view returns (address) {... */\n    tag_27:\n      sub(exp(0x2, 0xa0), 0x1)\n        /* \"contracts/block/block.sol\":4565:4591  tokensToConverters[_token] */\n      dup3\n      and\n        /* \"contracts/block/block.sol\":4532:4539  address */\n      0x0\n        /* \"contracts/block/block.sol\":4565:4591  tokensToConverters[_token] */\n      swap1\n      dup2\n      mstore\n        /* \"contracts/block/block.sol\":4565:4583  tokensToConverters */\n      0x3\n        /* \"contracts/block/block.sol\":4565:4591  tokensToConverters[_token] */\n      0x20\n      mstore\n      0x40\n      dup2\n      keccak256\n        /* \"contracts/block/block.sol\":4565:4598  tokensToConverters[_token].length */\n      sload\n        /* \"contracts/block/block.sol\":4555:4598  _index >= tokensToConverters[_token].length */\n      0xffffffff\n      dup4\n      and\n      lt\n        /* \"contracts/block/block.sol\":4551:4629  if (_index >= tokensToConverters[_token].length)... */\n      tag_68\n      jumpi\n      pop\n        /* \"contracts/block/block.sol\":4627:4628  0 */\n      0x0\n        /* \"contracts/block/block.sol\":4612:4629  return address(0) */\n      jump(tag_67)\n        /* \"contracts/block/block.sol\":4551:4629  if (_index >= tokensToConverters[_token].length)... */\n    tag_68:\n      sub(exp(0x2, 0xa0), 0x1)\n        /* \"contracts/block/block.sol\":4647:4673  tokensToConverters[_token] */\n      dup4\n      and\n      0x0\n      swap1\n      dup2\n      mstore\n        /* \"contracts/block/block.sol\":4647:4665  tokensToConverters */\n      0x3\n        /* \"contracts/block/block.sol\":4647:4673  tokensToConverters[_token] */\n      0x20\n      mstore\n      0x40\n      swap1\n      keccak256\n        /* \"contracts/block/block.sol\":4647:4681  tokensToConverters[_token][_index] */\n      dup1\n      sload\n      0xffffffff\n      dup5\n      and\n      swap1\n      dup2\n      lt\n      tag_69\n      jumpi\n      invalid\n    tag_69:\n      0x0\n      swap2\n      dup3\n      mstore\n      0x20\n      swap1\n      swap2\n      keccak256\n      add\n      sload\n      sub(exp(0x2, 0xa0), 0x1)\n      and\n      swap1\n      pop\n        /* \"contracts/block/block.sol\":4454:4688  function converterAddress(address _token, uint32 _index) public view returns (address) {... */\n    tag_67:\n      swap3\n      swap2\n      pop\n      pop\n      jump\t// out\n        /* \"contracts/block/block.sol\":4914:5040  function tokenAddress(address _converter) public view returns (address) {... */\n    tag_30:\n      sub(exp(0x2, 0xa0), 0x1)\n        /* \"contracts/block/block.sol\":5003:5033  convertersToTokens[_converter] */\n      swap1\n      dup2\n      and\n        /* \"contracts/block/block.sol\":4977:4984  address */\n      0x0\n        /* \"contracts/block/block.sol\":5003:5033  convertersToTokens[_converter] */\n      swap1\n      dup2\n      mstore\n        /* \"contracts/block/block.sol\":5003:5021  convertersToTokens */\n      0x4\n        /* \"contracts/block/block.sol\":5003:5033  convertersToTokens[_converter] */\n      0x20\n      mstore\n      0x40\n      swap1\n      keccak256\n      sload\n      and\n      swap1\n        /* \"contracts/block/block.sol\":4914:5040  function tokenAddress(address _converter) public view returns (address) {... */\n      jump\t// out\n        /* \"contracts/block/block.sol\":3757:3846  function tokenCount() public view returns (uint256) {... */\n    tag_33:\n        /* \"contracts/block/block.sol\":3826:3832  tokens */\n      0x5\n        /* \"contracts/block/block.sol\":3826:3839  tokens.length */\n      sload\n        /* \"contracts/block/block.sol\":3757:3846  function tokenCount() public view returns (uint256) {... */\n    tag_72:\n      swap1\n      jump\t// out\n        /* \"contracts/block/block.sol\":4065:4192  function converterCount(address _token) public view returns (uint256) {... */\n    tag_36:\n      sub(exp(0x2, 0xa0), 0x1)\n        /* \"contracts/block/block.sol\":4152:4178  tokensToConverters[_token] */\n      and\n        /* \"contracts/block/block.sol\":4126:4133  uint256 */\n      0x0\n        /* \"contracts/block/block.sol\":4152:4178  tokensToConverters[_token] */\n      swap1\n      dup2\n      mstore\n        /* \"contracts/block/block.sol\":4152:4170  tokensToConverters */\n      0x3\n        /* \"contracts/block/block.sol\":4152:4178  tokensToConverters[_token] */\n      0x20\n      mstore\n      0x40\n      swap1\n      keccak256\n        /* \"contracts/block/block.sol\":4152:4185  tokensToConverters[_token].length */\n      sload\n      swap1\n        /* \"contracts/block/block.sol\":4065:4192  function converterCount(address _token) public view returns (uint256) {... */\n      jump\t// out\n        /* \"contracts/block/block.sol\":5280:5894  function registerConverter(address _token, address _converter)... */\n    tag_39:\n        /* \"contracts/block/block.sol\":955:960  owner */\n      and(sub(exp(0x2, 0xa0), 0x1), sload(0x0))\n        /* \"contracts/block/block.sol\":941:951  msg.sender */\n      caller\n        /* \"contracts/block/block.sol\":941:960  msg.sender == owner */\n      eq\n        /* \"contracts/block/block.sol\":933:961  require(msg.sender == owner) */\n      tag_75\n      jumpi\n      0x0\n      dup1\n      revert\n    tag_75:\n        /* \"contracts/block/block.sol\":5397:5403  _token */\n      dup2\n      sub(exp(0x2, 0xa0), 0x1)\n        /* \"contracts/block/block.sol\":2089:2111  _address != address(0) */\n      dup2\n      and\n      iszero\n      iszero\n        /* \"contracts/block/block.sol\":2081:2112  require(_address != address(0)) */\n      tag_77\n      jumpi\n      0x0\n      dup1\n      revert\n    tag_77:\n        /* \"contracts/block/block.sol\":5426:5436  _converter */\n      dup2\n      sub(exp(0x2, 0xa0), 0x1)\n        /* \"contracts/block/block.sol\":2089:2111  _address != address(0) */\n      dup2\n      and\n      iszero\n      iszero\n        /* \"contracts/block/block.sol\":2081:2112  require(_address != address(0)) */\n      tag_79\n      jumpi\n      0x0\n      dup1\n      revert\n    tag_79:\n      sub(exp(0x2, 0xa0), 0x1)\n        /* \"contracts/block/block.sol\":5460:5490  convertersToTokens[_converter] */\n      dup4\n      dup2\n      and\n        /* \"contracts/block/block.sol\":5502:5503  0 */\n      0x0\n        /* \"contracts/block/block.sol\":5460:5490  convertersToTokens[_converter] */\n      swap1\n      dup2\n      mstore\n        /* \"contracts/block/block.sol\":5460:5478  convertersToTokens */\n      0x4\n        /* \"contracts/block/block.sol\":5460:5490  convertersToTokens[_converter] */\n      0x20\n      mstore\n      0x40\n      swap1\n      keccak256\n      sload\n      and\n        /* \"contracts/block/block.sol\":5460:5504  convertersToTokens[_converter] == address(0) */\n      iszero\n        /* \"contracts/block/block.sol\":5452:5505  require(convertersToTokens[_converter] == address(0)) */\n      tag_81\n      jumpi\n      0x0\n      dup1\n      revert\n    tag_81:\n      sub(exp(0x2, 0xa0), 0x1)\n        /* \"contracts/block/block.sol\":5568:5592  tokensRegistered[_token] */\n      dup5\n      and\n      0x0\n      swap1\n      dup2\n      mstore\n        /* \"contracts/block/block.sol\":5568:5584  tokensRegistered */\n      0x2\n        /* \"contracts/block/block.sol\":5568:5592  tokensRegistered[_token] */\n      0x20\n      mstore\n      0x40\n      swap1\n      keccak256\n      sload\n      0xff\n      and\n        /* \"contracts/block/block.sol\":5567:5592  !tokensRegistered[_token] */\n      iszero\n        /* \"contracts/block/block.sol\":5563:5683  if (!tokensRegistered[_token]) {... */\n      iszero\n      tag_82\n      jumpi\n        /* \"contracts/block/block.sol\":5608:5614  tokens */\n      0x5\n        /* \"--CODEGEN--\":27:37   */\n      dup1\n      sload\n        /* \"--CODEGEN--\":39:40   */\n      0x1\n        /* \"--CODEGEN--\":23:41   */\n      dup1\n      dup3\n      add\n        /* \"--CODEGEN--\":45:68   */\n      swap1\n      swap3\n      sstore\n        /* \"contracts/block/block.sol\":5608:5627  tokens.push(_token) */\n      0x36b6384b5eca791c62761152d0c79bb0604c104a5fb6f4eb0703f3154bb3db0\n      add\n      dup1\n      sload\n      not(0xffffffffffffffffffffffffffffffffffffffff)\n      and\n      sub(exp(0x2, 0xa0), 0x1)\n      dup8\n      and\n      swap1\n      dup2\n      or\n      swap1\n      swap2\n      sstore\n      0x0\n        /* \"contracts/block/block.sol\":5641:5665  tokensRegistered[_token] */\n      swap1\n      dup2\n      mstore\n        /* \"contracts/block/block.sol\":5641:5657  tokensRegistered */\n      0x2\n        /* \"contracts/block/block.sol\":5608:5627  tokens.push(_token) */\n      0x20\n        /* \"contracts/block/block.sol\":5641:5665  tokensRegistered[_token] */\n      mstore\n      0x40\n      swap1\n      keccak256\n        /* \"contracts/block/block.sol\":5641:5672  tokensRegistered[_token] = true */\n      dup1\n      sload\n      not(0xff)\n      and\n      swap1\n      swap2\n      or\n      swap1\n      sstore\n        /* \"contracts/block/block.sol\":5563:5683  if (!tokensRegistered[_token]) {... */\n    tag_82:\n      sub(exp(0x2, 0xa0), 0x1)\n        /* \"contracts/block/block.sol\":5693:5719  tokensToConverters[_token] */\n      dup1\n      dup6\n      and\n      0x0\n      dup2\n      dup2\n      mstore\n        /* \"contracts/block/block.sol\":5693:5711  tokensToConverters */\n      0x3\n        /* \"contracts/block/block.sol\":5693:5719  tokensToConverters[_token] */\n      0x20\n      swap1\n      dup2\n      mstore\n      0x40\n      dup1\n      dup4\n      keccak256\n        /* \"--CODEGEN--\":27:37   */\n      dup1\n      sload\n        /* \"--CODEGEN--\":39:40   */\n      0x1\n        /* \"--CODEGEN--\":23:41   */\n      dup2\n      add\n        /* \"--CODEGEN--\":45:68   */\n      dup3\n      sstore\n        /* \"contracts/block/block.sol\":5693:5736  tokensToConverters[_token].push(_converter) */\n      swap1\n      dup5\n      mstore\n      dup3\n      dup5\n      keccak256\n      add\n      dup1\n      sload\n      swap6\n      dup10\n      and\n      not(0xffffffffffffffffffffffffffffffffffffffff)\n      swap7\n      dup8\n      and\n      dup2\n      or\n      swap1\n      swap2\n      sstore\n        /* \"contracts/block/block.sol\":5746:5776  convertersToTokens[_converter] */\n      dup1\n      dup5\n      mstore\n        /* \"contracts/block/block.sol\":5746:5764  convertersToTokens */\n      0x4\n        /* \"contracts/block/block.sol\":5746:5776  convertersToTokens[_converter] */\n      dup4\n      mstore\n      swap3\n      dup2\n      swap1\n      keccak256\n        /* \"contracts/block/block.sol\":5746:5785  convertersToTokens[_converter] = _token */\n      dup1\n      sload\n      swap1\n      swap6\n      and\n      dup5\n      or\n      swap1\n      swap5\n      sstore\n        /* \"contracts/block/block.sol\":5850:5887  ConverterAddition(_token, _converter) */\n      dup4\n      mload\n      swap2\n      dup3\n      mstore\n      swap3\n      mload\n        /* \"contracts/block/block.sol\":5693:5719  tokensToConverters[_token] */\n      swap2\n      swap3\n        /* \"contracts/block/block.sol\":5850:5887  ConverterAddition(_token, _converter) */\n      0x229aec2ec4b21e700d6daf13a894e7b38c18b844b021f2eee263f04af3ea6f00\n      swap3\n      swap2\n      dup3\n      swap1\n      sub\n      add\n      swap1\n      log2\n        /* \"contracts/block/block.sol\":2122:2123  _ */\n      pop\n        /* \"contracts/block/block.sol\":971:972  _ */\n      pop\n        /* \"contracts/block/block.sol\":5280:5894  function registerConverter(address _token, address _converter)... */\n      pop\n      pop\n      jump\t// out\n        /* \"contracts/block/block.sol\":651:674  address public newOwner */\n    tag_42:\n      and(sub(exp(0x2, 0xa0), 0x1), sload(0x1))\n      dup2\n      jump\t// out\n        /* \"contracts/block/block.sol\":1210:1347  function transferOwnership(address _newOwner) public ownerOnly {... */\n    tag_45:\n        /* \"contracts/block/block.sol\":955:960  owner */\n      and(sub(exp(0x2, 0xa0), 0x1), sload(0x0))\n        /* \"contracts/block/block.sol\":941:951  msg.sender */\n      caller\n        /* \"contracts/block/block.sol\":941:960  msg.sender == owner */\n      eq\n        /* \"contracts/block/block.sol\":933:961  require(msg.sender == owner) */\n      tag_86\n      jumpi\n      0x0\n      dup1\n      revert\n    tag_86:\n        /* \"contracts/block/block.sol\":1304:1309  owner */\n      sload(0x0)\n      sub(exp(0x2, 0xa0), 0x1)\n        /* \"contracts/block/block.sol\":1291:1309  _newOwner != owner */\n      dup3\n      dup2\n      and\n        /* \"contracts/block/block.sol\":1304:1309  owner */\n      swap2\n      and\n        /* \"contracts/block/block.sol\":1291:1309  _newOwner != owner */\n      eq\n      iszero\n        /* \"contracts/block/block.sol\":1283:1310  require(_newOwner != owner) */\n      tag_88\n      jumpi\n      0x0\n      dup1\n      revert\n    tag_88:\n        /* \"contracts/block/block.sol\":1320:1328  newOwner */\n      0x1\n        /* \"contracts/block/block.sol\":1320:1340  newOwner = _newOwner */\n      dup1\n      sload\n      not(0xffffffffffffffffffffffffffffffffffffffff)\n      and\n      sub(exp(0x2, 0xa0), 0x1)\n      swap3\n      swap1\n      swap3\n      and\n      swap2\n      swap1\n      swap2\n      or\n      swap1\n      sstore\n        /* \"contracts/block/block.sol\":1210:1347  function transferOwnership(address _newOwner) public ownerOnly {... */\n      jump\t// out\n        /* \"contracts/block/block.sol\":2852:7044  contract BancorConverterRegistry is Owned, Utils {... */\n    tag_62:\n      dup2\n      sload\n      dup2\n      dup4\n      sstore\n      dup2\n      dup2\n      gt\n      iszero\n      tag_90\n      jumpi\n      0x0\n      dup4\n      dup2\n      mstore\n      0x20\n      swap1\n      keccak256\n      tag_90\n      swap2\n      dup2\n      add\n      swap1\n      dup4\n      add\n      jump\t// in(tag_91)\n    tag_90:\n      pop\n      pop\n      pop\n      jump\t// out\n    tag_91:\n      tag_72\n      swap2\n      swap1\n    tag_93:\n      dup1\n      dup3\n      gt\n      iszero\n      tag_94\n      jumpi\n      0x0\n      dup2\n      sstore\n      0x1\n      add\n      jump(tag_93)\n    tag_94:\n      pop\n      swap1\n      jump\n\n    auxdata: 0xa165627a7a7230582070d758e09e417d821b68905effc1f2ab2274830f1741898190463af90ca0673c0029\n}\n",
				"bytecode": {
					"linkReferences": {},
					"object": "608060405234801561001057600080fd5b5060008054600160a060020a0319163317905561082d806100326000396000f3006080604052600436106100ae5763ffffffff7c010000000000000000000000000000000000000000000000000000000060003504166338cb066f81146100b35780634f64b2be146100df57806379ba5097146101135780638da5cb5b1461012857806390ab31061461013d5780639884e801146101675780639f181b5e14610188578063cd9d4d66146101af578063d26a8d2e146101d0578063d4ee1d90146101f7578063f2fde38b1461020c575b600080fd5b3480156100bf57600080fd5b506100dd600160a060020a036004351663ffffffff6024351661022d565b005b3480156100eb57600080fd5b506100f7600435610440565b60408051600160a060020a039092168252519081900360200190f35b34801561011f57600080fd5b506100dd610468565b34801561013457600080fd5b506100f76104f0565b34801561014957600080fd5b506100f7600160a060020a036004351663ffffffff602435166104ff565b34801561017357600080fd5b506100f7600160a060020a0360043516610574565b34801561019457600080fd5b5061019d610592565b60408051918252519081900360200190f35b3480156101bb57600080fd5b5061019d600160a060020a0360043516610599565b3480156101dc57600080fd5b506100dd600160a060020a03600435811690602435166105b4565b34801561020357600080fd5b506100f761074a565b34801561021857600080fd5b506100dd600160a060020a0360043516610759565b600080548190600160a060020a0316331461024757600080fd5b83600160a060020a038116151561025d57600080fd5b600160a060020a03851660009081526003602052604090205463ffffffff85161061028757600080fd5b600160a060020a0385166000908152600360205260409020805463ffffffff86169081106102b157fe5b600091825260209091200154600160a060020a031692506001840191505b600160a060020a03851660009081526003602052604090205463ffffffff831610156103a257600160a060020a0385166000908152600360205260409020805463ffffffff841690811061031f57fe5b6000918252602080832090910154600160a060020a03888116845260039092526040909220805491909216919063ffffffff60001986011690811061036057fe5b6000918252602090912001805473ffffffffffffffffffffffffffffffffffffffff1916600160a060020a0392909216919091179055600191909101906102cf565b600160a060020a03851660009081526003602052604090208054906103cb9060001983016107ba565b50600160a060020a03808416600081815260046020908152604091829020805473ffffffffffffffffffffffffffffffffffffffff1916905581519283529051928816927fc3b25a6c3b7509edde0f2e6cc317b5820a901fa82ac554709206e1d7237fe2949281900390910190a25050505050565b600580548290811061044e57fe5b600091825260209091200154600160a060020a0316905081565b600154600160a060020a0316331461047f57600080fd5b60015460008054604051600160a060020a0393841693909116917f343765429aea5a34b3ff6a3785a98a5abb2597aca87bfbb58632c173d585373a91a3600180546000805473ffffffffffffffffffffffffffffffffffffffff19908116600160a060020a03841617909155169055565b600054600160a060020a031681565b600160a060020a03821660009081526003602052604081205463ffffffff83161061052c5750600061056e565b600160a060020a0383166000908152600360205260409020805463ffffffff841690811061055657fe5b600091825260209091200154600160a060020a031690505b92915050565b600160a060020a039081166000908152600460205260409020541690565b6005545b90565b600160a060020a031660009081526003602052604090205490565b600054600160a060020a031633146105cb57600080fd5b81600160a060020a03811615156105e157600080fd5b81600160a060020a03811615156105f757600080fd5b600160a060020a03838116600090815260046020526040902054161561061c57600080fd5b600160a060020a03841660009081526002602052604090205460ff1615156106af576005805460018082019092557f036b6384b5eca791c62761152d0c79bb0604c104a5fb6f4eb0703f3154bb3db001805473ffffffffffffffffffffffffffffffffffffffff1916600160a060020a0387169081179091556000908152600260205260409020805460ff191690911790555b600160a060020a038085166000818152600360209081526040808320805460018101825590845282842001805495891673ffffffffffffffffffffffffffffffffffffffff1996871681179091558084526004835292819020805490951684179094558351918252925191927f229aec2ec4b21e700d6daf13a894e7b38c18b844b021f2eee263f04af3ea6f0092918290030190a250505050565b600154600160a060020a031681565b600054600160a060020a0316331461077057600080fd5b600054600160a060020a038281169116141561078b57600080fd5b6001805473ffffffffffffffffffffffffffffffffffffffff1916600160a060020a0392909216919091179055565b8154818355818111156107de576000838152602090206107de9181019083016107e3565b505050565b61059691905b808211156107fd57600081556001016107e9565b50905600a165627a7a7230582070d758e09e417d821b68905effc1f2ab2274830f1741898190463af90ca0673c0029",
					"opcodes": "PUSH1 0x80 PUSH1 0x40 MSTORE CALLVALUE DUP1 ISZERO PUSH2 0x10 JUMPI PUSH1 0x0 DUP1 REVERT JUMPDEST POP PUSH1 0x0 DUP1 SLOAD PUSH1 0x1 PUSH1 0xA0 PUSH1 0x2 EXP SUB NOT AND CALLER OR SWAP1 SSTORE PUSH2 0x82D DUP1 PUSH2 0x32 PUSH1 0x0 CODECOPY PUSH1 0x0 RETURN STOP PUSH1 0x80 PUSH1 0x40 MSTORE PUSH1 0x4 CALLDATASIZE LT PUSH2 0xAE JUMPI PUSH4 0xFFFFFFFF PUSH29 0x100000000000000000000000000000000000000000000000000000000 PUSH1 0x0 CALLDATALOAD DIV AND PUSH4 0x38CB066F DUP2 EQ PUSH2 0xB3 JUMPI DUP1 PUSH4 0x4F64B2BE EQ PUSH2 0xDF JUMPI DUP1 PUSH4 0x79BA5097 EQ PUSH2 0x113 JUMPI DUP1 PUSH4 0x8DA5CB5B EQ PUSH2 0x128 JUMPI DUP1 PUSH4 0x90AB3106 EQ PUSH2 0x13D JUMPI DUP1 PUSH4 0x9884E801 EQ PUSH2 0x167 JUMPI DUP1 PUSH4 0x9F181B5E EQ PUSH2 0x188 JUMPI DUP1 PUSH4 0xCD9D4D66 EQ PUSH2 0x1AF JUMPI DUP1 PUSH4 0xD26A8D2E EQ PUSH2 0x1D0 JUMPI DUP1 PUSH4 0xD4EE1D90 EQ PUSH2 0x1F7 JUMPI DUP1 PUSH4 0xF2FDE38B EQ PUSH2 0x20C JUMPI JUMPDEST PUSH1 0x0 DUP1 REVERT JUMPDEST CALLVALUE DUP1 ISZERO PUSH2 0xBF JUMPI PUSH1 0x0 DUP1 REVERT JUMPDEST POP PUSH2 0xDD PUSH1 0x1 PUSH1 0xA0 PUSH1 0x2 EXP SUB PUSH1 0x4 CALLDATALOAD AND PUSH4 0xFFFFFFFF PUSH1 0x24 CALLDATALOAD AND PUSH2 0x22D JUMP JUMPDEST STOP JUMPDEST CALLVALUE DUP1 ISZERO PUSH2 0xEB JUMPI PUSH1 0x0 DUP1 REVERT JUMPDEST POP PUSH2 0xF7 PUSH1 0x4 CALLDATALOAD PUSH2 0x440 JUMP JUMPDEST PUSH1 0x40 DUP1 MLOAD PUSH1 0x1 PUSH1 0xA0 PUSH1 0x2 EXP SUB SWAP1 SWAP3 AND DUP3 MSTORE MLOAD SWAP1 DUP2 SWAP1 SUB PUSH1 0x20 ADD SWAP1 RETURN JUMPDEST CALLVALUE DUP1 ISZERO PUSH2 0x11F JUMPI PUSH1 0x0 DUP1 REVERT JUMPDEST POP PUSH2 0xDD PUSH2 0x468 JUMP JUMPDEST CALLVALUE DUP1 ISZERO PUSH2 0x134 JUMPI PUSH1 0x0 DUP1 REVERT JUMPDEST POP PUSH2 0xF7 PUSH2 0x4F0 JUMP JUMPDEST CALLVALUE DUP1 ISZERO PUSH2 0x149 JUMPI PUSH1 0x0 DUP1 REVERT JUMPDEST POP PUSH2 0xF7 PUSH1 0x1 PUSH1 0xA0 PUSH1 0x2 EXP SUB PUSH1 0x4 CALLDATALOAD AND PUSH4 0xFFFFFFFF PUSH1 0x24 CALLDATALOAD AND PUSH2 0x4FF JUMP JUMPDEST CALLVALUE DUP1 ISZERO PUSH2 0x173 JUMPI PUSH1 0x0 DUP1 REVERT JUMPDEST POP PUSH2 0xF7 PUSH1 0x1 PUSH1 0xA0 PUSH1 0x2 EXP SUB PUSH1 0x4 CALLDATALOAD AND PUSH2 0x574 JUMP JUMPDEST CALLVALUE DUP1 ISZERO PUSH2 0x194 JUMPI PUSH1 0x0 DUP1 REVERT JUMPDEST POP PUSH2 0x19D PUSH2 0x592 JUMP JUMPDEST PUSH1 0x40 DUP1 MLOAD SWAP2 DUP3 MSTORE MLOAD SWAP1 DUP2 SWAP1 SUB PUSH1 0x20 ADD SWAP1 RETURN JUMPDEST CALLVALUE DUP1 ISZERO PUSH2 0x1BB JUMPI PUSH1 0x0 DUP1 REVERT JUMPDEST POP PUSH2 0x19D PUSH1 0x1 PUSH1 0xA0 PUSH1 0x2 EXP SUB PUSH1 0x4 CALLDATALOAD AND PUSH2 0x599 JUMP JUMPDEST CALLVALUE DUP1 ISZERO PUSH2 0x1DC JUMPI PUSH1 0x0 DUP1 REVERT JUMPDEST POP PUSH2 0xDD PUSH1 0x1 PUSH1 0xA0 PUSH1 0x2 EXP SUB PUSH1 0x4 CALLDATALOAD DUP2 AND SWAP1 PUSH1 0x24 CALLDATALOAD AND PUSH2 0x5B4 JUMP JUMPDEST CALLVALUE DUP1 ISZERO PUSH2 0x203 JUMPI PUSH1 0x0 DUP1 REVERT JUMPDEST POP PUSH2 0xF7 PUSH2 0x74A JUMP JUMPDEST CALLVALUE DUP1 ISZERO PUSH2 0x218 JUMPI PUSH1 0x0 DUP1 REVERT JUMPDEST POP PUSH2 0xDD PUSH1 0x1 PUSH1 0xA0 PUSH1 0x2 EXP SUB PUSH1 0x4 CALLDATALOAD AND PUSH2 0x759 JUMP JUMPDEST PUSH1 0x0 DUP1 SLOAD DUP2 SWAP1 PUSH1 0x1 PUSH1 0xA0 PUSH1 0x2 EXP SUB AND CALLER EQ PUSH2 0x247 JUMPI PUSH1 0x0 DUP1 REVERT JUMPDEST DUP4 PUSH1 0x1 PUSH1 0xA0 PUSH1 0x2 EXP SUB DUP2 AND ISZERO ISZERO PUSH2 0x25D JUMPI PUSH1 0x0 DUP1 REVERT JUMPDEST PUSH1 0x1 PUSH1 0xA0 PUSH1 0x2 EXP SUB DUP6 AND PUSH1 0x0 SWAP1 DUP2 MSTORE PUSH1 0x3 PUSH1 0x20 MSTORE PUSH1 0x40 SWAP1 KECCAK256 SLOAD PUSH4 0xFFFFFFFF DUP6 AND LT PUSH2 0x287 JUMPI PUSH1 0x0 DUP1 REVERT JUMPDEST PUSH1 0x1 PUSH1 0xA0 PUSH1 0x2 EXP SUB DUP6 AND PUSH1 0x0 SWAP1 DUP2 MSTORE PUSH1 0x3 PUSH1 0x20 MSTORE PUSH1 0x40 SWAP1 KECCAK256 DUP1 SLOAD PUSH4 0xFFFFFFFF DUP7 AND SWAP1 DUP2 LT PUSH2 0x2B1 JUMPI INVALID JUMPDEST PUSH1 0x0 SWAP2 DUP3 MSTORE PUSH1 0x20 SWAP1 SWAP2 KECCAK256 ADD SLOAD PUSH1 0x1 PUSH1 0xA0 PUSH1 0x2 EXP SUB AND SWAP3 POP PUSH1 0x1 DUP5 ADD SWAP2 POP JUMPDEST PUSH1 0x1 PUSH1 0xA0 PUSH1 0x2 EXP SUB DUP6 AND PUSH1 0x0 SWAP1 DUP2 MSTORE PUSH1 0x3 PUSH1 0x20 MSTORE PUSH1 0x40 SWAP1 KECCAK256 SLOAD PUSH4 0xFFFFFFFF DUP4 AND LT ISZERO PUSH2 0x3A2 JUMPI PUSH1 0x1 PUSH1 0xA0 PUSH1 0x2 EXP SUB DUP6 AND PUSH1 0x0 SWAP1 DUP2 MSTORE PUSH1 0x3 PUSH1 0x20 MSTORE PUSH1 0x40 SWAP1 KECCAK256 DUP1 SLOAD PUSH4 0xFFFFFFFF DUP5 AND SWAP1 DUP2 LT PUSH2 0x31F JUMPI INVALID JUMPDEST PUSH1 0x0 SWAP2 DUP3 MSTORE PUSH1 0x20 DUP1 DUP4 KECCAK256 SWAP1 SWAP2 ADD SLOAD PUSH1 0x1 PUSH1 0xA0 PUSH1 0x2 EXP SUB DUP9 DUP2 AND DUP5 MSTORE PUSH1 0x3 SWAP1 SWAP3 MSTORE PUSH1 0x40 SWAP1 SWAP3 KECCAK256 DUP1 SLOAD SWAP2 SWAP1 SWAP3 AND SWAP2 SWAP1 PUSH4 0xFFFFFFFF PUSH1 0x0 NOT DUP7 ADD AND SWAP1 DUP2 LT PUSH2 0x360 JUMPI INVALID JUMPDEST PUSH1 0x0 SWAP2 DUP3 MSTORE PUSH1 0x20 SWAP1 SWAP2 KECCAK256 ADD DUP1 SLOAD PUSH20 0xFFFFFFFFFFFFFFFFFFFFFFFFFFFFFFFFFFFFFFFF NOT AND PUSH1 0x1 PUSH1 0xA0 PUSH1 0x2 EXP SUB SWAP3 SWAP1 SWAP3 AND SWAP2 SWAP1 SWAP2 OR SWAP1 SSTORE PUSH1 0x1 SWAP2 SWAP1 SWAP2 ADD SWAP1 PUSH2 0x2CF JUMP JUMPDEST PUSH1 0x1 PUSH1 0xA0 PUSH1 0x2 EXP SUB DUP6 AND PUSH1 0x0 SWAP1 DUP2 MSTORE PUSH1 0x3 PUSH1 0x20 MSTORE PUSH1 0x40 SWAP1 KECCAK256 DUP1 SLOAD SWAP1 PUSH2 0x3CB SWAP1 PUSH1 0x0 NOT DUP4 ADD PUSH2 0x7BA JUMP JUMPDEST POP PUSH1 0x1 PUSH1 0xA0 PUSH1 0x2 EXP SUB DUP1 DUP5 AND PUSH1 0x0 DUP2 DUP2 MSTORE PUSH1 0x4 PUSH1 0x20 SWAP1 DUP2 MSTORE PUSH1 0x40 SWAP2 DUP3 SWAP1 KECCAK256 DUP1 SLOAD PUSH20 0xFFFFFFFFFFFFFFFFFFFFFFFFFFFFFFFFFFFFFFFF NOT AND SWAP1 SSTORE DUP2 MLOAD SWAP3 DUP4 MSTORE SWAP1 MLOAD SWAP3 DUP9 AND SWAP3 PUSH32 0xC3B25A6C3B7509EDDE0F2E6CC317B5820A901FA82AC554709206E1D7237FE294 SWAP3 DUP2 SWAP1 SUB SWAP1 SWAP2 ADD SWAP1 LOG2 POP POP POP POP POP JUMP JUMPDEST PUSH1 0x5 DUP1 SLOAD DUP3 SWAP1 DUP2 LT PUSH2 0x44E JUMPI INVALID JUMPDEST PUSH1 0x0 SWAP2 DUP3 MSTORE PUSH1 0x20 SWAP1 SWAP2 KECCAK256 ADD SLOAD PUSH1 0x1 PUSH1 0xA0 PUSH1 0x2 EXP SUB AND SWAP1 POP DUP2 JUMP JUMPDEST PUSH1 0x1 SLOAD PUSH1 0x1 PUSH1 0xA0 PUSH1 0x2 EXP SUB AND CALLER EQ PUSH2 0x47F JUMPI PUSH1 0x0 DUP1 REVERT JUMPDEST PUSH1 0x1 SLOAD PUSH1 0x0 DUP1 SLOAD PUSH1 0x40 MLOAD PUSH1 0x1 PUSH1 0xA0 PUSH1 0x2 EXP SUB SWAP4 DUP5 AND SWAP4 SWAP1 SWAP2 AND SWAP2 PUSH32 0x343765429AEA5A34B3FF6A3785A98A5ABB2597ACA87BFBB58632C173D585373A SWAP2 LOG3 PUSH1 0x1 DUP1 SLOAD PUSH1 0x0 DUP1 SLOAD PUSH20 0xFFFFFFFFFFFFFFFFFFFFFFFFFFFFFFFFFFFFFFFF NOT SWAP1 DUP2 AND PUSH1 0x1 PUSH1 0xA0 PUSH1 0x2 EXP SUB DUP5 AND OR SWAP1 SWAP2 SSTORE AND SWAP1 SSTORE JUMP JUMPDEST PUSH1 0x0 SLOAD PUSH1 0x1 PUSH1 0xA0 PUSH1 0x2 EXP SUB AND DUP2 JUMP JUMPDEST PUSH1 0x1 PUSH1 0xA0 PUSH1 0x2 EXP SUB DUP3 AND PUSH1 0x0 SWAP1 DUP2 MSTORE PUSH1 0x3 PUSH1 0x20 MSTORE PUSH1 0x40 DUP2 KECCAK256 SLOAD PUSH4 0xFFFFFFFF DUP4 AND LT PUSH2 0x52C JUMPI POP PUSH1 0x0 PUSH2 0x56E JUMP JUMPDEST PUSH1 0x1 PUSH1 0xA0 PUSH1 0x2 EXP SUB DUP4 AND PUSH1 0x0 SWAP1 DUP2 MSTORE PUSH1 0x3 PUSH1 0x20 MSTORE PUSH1 0x40 SWAP1 KECCAK256 DUP1 SLOAD PUSH4 0xFFFFFFFF DUP5 AND SWAP1 DUP2 LT PUSH2 0x556 JUMPI INVALID JUMPDEST PUSH1 0x0 SWAP2 DUP3 MSTORE PUSH1 0x20 SWAP1 SWAP2 KECCAK256 ADD SLOAD PUSH1 0x1 PUSH1 0xA0 PUSH1 0x2 EXP SUB AND SWAP1 POP JUMPDEST SWAP3 SWAP2 POP POP JUMP JUMPDEST PUSH1 0x1 PUSH1 0xA0 PUSH1 0x2 EXP SUB SWAP1 DUP2 AND PUSH1 0x0 SWAP1 DUP2 MSTORE PUSH1 0x4 PUSH1 0x20 MSTORE PUSH1 0x40 SWAP1 KECCAK256 SLOAD AND SWAP1 JUMP JUMPDEST PUSH1 0x5 SLOAD JUMPDEST SWAP1 JUMP JUMPDEST PUSH1 0x1 PUSH1 0xA0 PUSH1 0x2 EXP SUB AND PUSH1 0x0 SWAP1 DUP2 MSTORE PUSH1 0x3 PUSH1 0x20 MSTORE PUSH1 0x40 SWAP1 KECCAK256 SLOAD SWAP1 JUMP JUMPDEST PUSH1 0x0 SLOAD PUSH1 0x1 PUSH1 0xA0 PUSH1 0x2 EXP SUB AND CALLER EQ PUSH2 0x5CB JUMPI PUSH1 0x0 DUP1 REVERT JUMPDEST DUP2 PUSH1 0x1 PUSH1 0xA0 PUSH1 0x2 EXP SUB DUP2 AND ISZERO ISZERO PUSH2 0x5E1 JUMPI PUSH1 0x0 DUP1 REVERT JUMPDEST DUP2 PUSH1 0x1 PUSH1 0xA0 PUSH1 0x2 EXP SUB DUP2 AND ISZERO ISZERO PUSH2 0x5F7 JUMPI PUSH1 0x0 DUP1 REVERT JUMPDEST PUSH1 0x1 PUSH1 0xA0 PUSH1 0x2 EXP SUB DUP4 DUP2 AND PUSH1 0x0 SWAP1 DUP2 MSTORE PUSH1 0x4 PUSH1 0x20 MSTORE PUSH1 0x40 SWAP1 KECCAK256 SLOAD AND ISZERO PUSH2 0x61C JUMPI PUSH1 0x0 DUP1 REVERT JUMPDEST PUSH1 0x1 PUSH1 0xA0 PUSH1 0x2 EXP SUB DUP5 AND PUSH1 0x0 SWAP1 DUP2 MSTORE PUSH1 0x2 PUSH1 0x20 MSTORE PUSH1 0x40 SWAP1 KECCAK256 SLOAD PUSH1 0xFF AND ISZERO ISZERO PUSH2 0x6AF JUMPI PUSH1 0x5 DUP1 SLOAD PUSH1 0x1 DUP1 DUP3 ADD SWAP1 SWAP3 SSTORE PUSH32 0x36B6384B5ECA791C62761152D0C79BB0604C104A5FB6F4EB0703F3154BB3DB0 ADD DUP1 SLOAD PUSH20 0xFFFFFFFFFFFFFFFFFFFFFFFFFFFFFFFFFFFFFFFF NOT AND PUSH1 0x1 PUSH1 0xA0 PUSH1 0x2 EXP SUB DUP8 AND SWAP1 DUP2 OR SWAP1 SWAP2 SSTORE PUSH1 0x0 SWAP1 DUP2 MSTORE PUSH1 0x2 PUSH1 0x20 MSTORE PUSH1 0x40 SWAP1 KECCAK256 DUP1 SLOAD PUSH1 0xFF NOT AND SWAP1 SWAP2 OR SWAP1 SSTORE JUMPDEST PUSH1 0x1 PUSH1 0xA0 PUSH1 0x2 EXP SUB DUP1 DUP6 AND PUSH1 0x0 DUP2 DUP2 MSTORE PUSH1 0x3 PUSH1 0x20 SWAP1 DUP2 MSTORE PUSH1 0x40 DUP1 DUP4 KECCAK256 DUP1 SLOAD PUSH1 0x1 DUP2 ADD DUP3 SSTORE SWAP1 DUP5 MSTORE DUP3 DUP5 KECCAK256 ADD DUP1 SLOAD SWAP6 DUP10 AND PUSH20 0xFFFFFFFFFFFFFFFFFFFFFFFFFFFFFFFFFFFFFFFF NOT SWAP7 DUP8 AND DUP2 OR SWAP1 SWAP2 SSTORE DUP1 DUP5 MSTORE PUSH1 0x4 DUP4 MSTORE SWAP3 DUP2 SWAP1 KECCAK256 DUP1 SLOAD SWAP1 SWAP6 AND DUP5 OR SWAP1 SWAP5 SSTORE DUP4 MLOAD SWAP2 DUP3 MSTORE SWAP3 MLOAD SWAP2 SWAP3 PUSH32 0x229AEC2EC4B21E700D6DAF13A894E7B38C18B844B021F2EEE263F04AF3EA6F00 SWAP3 SWAP2 DUP3 SWAP1 SUB ADD SWAP1 LOG2 POP POP POP POP JUMP JUMPDEST PUSH1 0x1 SLOAD PUSH1 0x1 PUSH1 0xA0 PUSH1 0x2 EXP SUB AND DUP2 JUMP JUMPDEST PUSH1 0x0 SLOAD PUSH1 0x1 PUSH1 0xA0 PUSH1 0x2 EXP SUB AND CALLER EQ PUSH2 0x770 JUMPI PUSH1 0x0 DUP1 REVERT JUMPDEST PUSH1 0x0 SLOAD PUSH1 0x1 PUSH1 0xA0 PUSH1 0x2 EXP SUB DUP3 DUP2 AND SWAP2 AND EQ ISZERO PUSH2 0x78B JUMPI PUSH1 0x0 DUP1 REVERT JUMPDEST PUSH1 0x1 DUP1 SLOAD PUSH20 0xFFFFFFFFFFFFFFFFFFFFFFFFFFFFFFFFFFFFFFFF NOT AND PUSH1 0x1 PUSH1 0xA0 PUSH1 0x2 EXP SUB SWAP3 SWAP1 SWAP3 AND SWAP2 SWAP1 SWAP2 OR SWAP1 SSTORE JUMP JUMPDEST DUP2 SLOAD DUP2 DUP4 SSTORE DUP2 DUP2 GT ISZERO PUSH2 0x7DE JUMPI PUSH1 0x0 DUP4 DUP2 MSTORE PUSH1 0x20 SWAP1 KECCAK256 PUSH2 0x7DE SWAP2 DUP2 ADD SWAP1 DUP4 ADD PUSH2 0x7E3 JUMP JUMPDEST POP POP POP JUMP JUMPDEST PUSH2 0x596 SWAP2 SWAP1 JUMPDEST DUP1 DUP3 GT ISZERO PUSH2 0x7FD JUMPI PUSH1 0x0 DUP2 SSTORE PUSH1 0x1 ADD PUSH2 0x7E9 JUMP JUMPDEST POP SWAP1 JUMP STOP LOG1 PUSH6 0x627A7A723058 KECCAK256 PUSH17 0xD758E09E417D821B68905EFFC1F2AB2274 DUP4 0xf OR COINBASE DUP10 DUP2 SWAP1 0x46 GASPRICE 0xf9 0xc LOG0 PUSH8 0x3C00290000000000 "
				},
				"gasEstimates": {
					"creation": {
						"codeDepositCost": "418600",
						"executionCost": "20747",
						"totalCost": "439347"
					},
					"external": {
						"acceptOwnership()": "43008",
						"converterAddress(address,uint32)": "1543",
						"converterCount(address)": "760",
						"newOwner()": "735",
						"owner()": "603",
						"registerConverter(address,address)": "124878",
						"tokenAddress(address)": "803",
						"tokenCount()": "517",
						"tokens(uint256)": "859",
						"transferOwnership(address)": "21352",
						"unregisterConverter(address,uint32)": "infinite"
					}
				},
				"methodIdentifiers": {
					"acceptOwnership()": "79ba5097",
					"converterAddress(address,uint32)": "90ab3106",
					"converterCount(address)": "cd9d4d66",
					"newOwner()": "d4ee1d90",
					"owner()": "8da5cb5b",
					"registerConverter(address,address)": "d26a8d2e",
					"tokenAddress(address)": "9884e801",
					"tokenCount()": "9f181b5e",
					"tokens(uint256)": "4f64b2be",
					"transferOwnership(address)": "f2fde38b",
					"unregisterConverter(address,uint32)": "38cb066f"
				}
			},
			"userdoc": {
				"methods": {}
			}
		}
	}
}