{
	"data": {
		"bytecode": {
			"linkReferences": {},
			"object": "60c06040526013805460ff191660011790553480156200001e57600080fd5b5060405162003ecc38038062003ecc833981016040819052620000419162000187565b6001600160a01b03821660a052600a80546001600160a01b03191633179055437f17ef568e3e12ab5b9c7254a8d58478811de00f9e6eb34345acd53bf8fd09d3ee55427f17ef568e3e12ab5b9c7254a8d58478811de00f9e6eb34345acd53bf8fd09d3ed5560126020527f6afebfa21c417411ab7392a59bbb98ec35612153c5e8aeb3f64f4e016707b77a805460ff1990811660019081179092557fdf428ce7b59746cf2e618e63c6311d427105f2c3dc163ff0902907dea1728df58054821683179055635b5e139f60e01b60009081527fc0e00dda16840520b43384d85650edbbad8e5afcb041d20f42eb5aea304558cd805490921690921790556080829052600b546040519091309160008051602062003eac833981519152908290a4600b54604051600090309060008051602062003eac833981519152908390a45050620001c3565b600080604083850312156200019b57600080fd5b82516001600160a01b0381168114620001b357600080fd5b6020939093015192949293505050565b60805160a051613c8b620002216000396000818161087a01528181610bf501526128fd01526000818161125801528181611c8601528181611ccc01528181612171015281816123580152818161237901526123c40152613c8b6000f3fe608060405234801561001057600080fd5b506004361061030c5760003560e01c8063711974841161019d578063c2c4c5c1116100e9578063e441135c116100a2578063ee99fe281161007c578063ee99fe281461083e578063f8a0576314610851578063fc0c546a14610875578063fd4a77f11461089c57600080fd5b8063e441135c146107cf578063e7e242d4146107ef578063e985e9c51461080257600080fd5b8063c2c4c5c11461073d578063c87b56dd14610745578063d1c2babb14610758578063d1febfb91461076b578063d4e54c3b146107a9578063e0514aba146107bc57600080fd5b8063986b7d8a11610156578063a4d855df11610130578063a4d855df146106bc578063b45a3c0e146106cf578063b88d4fde14610717578063c1f0fb9f1461072a57600080fd5b8063986b7d8a14610683578063a183af5214610696578063a22cb465146106a957600080fd5b8063711974841461060e5780638c2c9baf146106315780638fbb38ff14610644578063900cf0cf1461066757806395d89b411461037f578063981b24d01461067057600080fd5b80632f745c591161025c5780634bc2a6571161021557806365fc3873116101ef57806365fc3873146105b55780636f548837146105c857806370a08231146105e85780637116c60c146105fb57600080fd5b80634bc2a6571461055557806354fd4d50146105685780636352211e1461058c57600080fd5b80632f745c59146104a6578063313ce567146104dc57806342842e0e146104f6578063430c208114610509578063461f711c1461051c57806346c96aac1461054257600080fd5b80630d6a2033116102c95780631c984bc3116102a35780631c984bc31461046757806323b872dd1461047a57806325a58b561461048d5780632e1a7d4d1461049357600080fd5b80630d6a2033146104045780631376f3da1461042457806318160ddd1461045f57600080fd5b806301ffc9a714610311578063020fe6e514610353578063047fc9aa1461036857806306fdde031461037f578063081812fc146103b0578063095ea7b3146103f1575b600080fd5b61033e61031f366004613126565b6001600160e01b03191660009081526012602052604090205460ff1690565b60405190151581526020015b60405180910390f35b610366610361366004613143565b6108af565b005b61037160005481565b60405190815260200161034a565b6103a3604051806040016040528060058152602001641d9953919560da1b81525081565b60405161034a91906131b4565b6103d96103be366004613143565b6000908152600d60205260409020546001600160a01b031690565b6040516001600160a01b03909116815260200161034a565b6103666103ff3660046131e3565b6108da565b610371610412366004613143565b60086020526000908152604090205481565b61043761043236600461320d565b6109c3565b60408051600f95860b81529390940b602084015292820152606081019190915260800161034a565b610371610a0a565b61037161047536600461320d565b610a1a565b61036661048836600461322f565b610a4d565b43610371565b6103666104a1366004613143565b610a5e565b6103716104b43660046131e3565b6001600160a01b03919091166000908152600f60209081526040808320938352929052205490565b6104e4601281565b60405160ff909116815260200161034a565b61036661050436600461322f565b610d18565b61033e6105173660046131e3565b610d33565b61052f61052a366004613143565b610d46565b604051600f9190910b815260200161034a565b600a546103d9906001600160a01b031681565b61036661056336600461326b565b610d89565b6103a3604051806040016040528060058152602001640312e302e360dc1b81525081565b6103d961059a366004613143565b6000908152600c60205260409020546001600160a01b031690565b6103716105c336600461320d565b610dc2565b6103716105d6366004613143565b60026020526000908152604090205481565b6103716105f636600461326b565b610e04565b610371610609366004613143565b610e22565b61052f61061c366004613143565b600760205260009081526040902054600f0b81565b61037161063f36600461320d565b610e82565b61033e610652366004613143565b60096020526000908152604090205460ff1681565b61037160035481565b61037161067e366004613143565b610e8e565b610366610691366004613143565b611030565b6103666106a436600461320d565b611074565b6103666106b7366004613294565b611173565b6103666106ca36600461320d565b6111f8565b6106fd6106dd366004613143565b60016020819052600091825260409091208054910154600f9190910b9082565b60408051600f9390930b835260208301919091520161034a565b6103666107253660046132e1565b6113f7565b610366610738366004613143565b611524565b610366611553565b6103a3610753366004613143565b611593565b61036661076636600461320d565b611640565b610437610779366004613143565b600460205260009081526040902080546001820154600290920154600f82810b93600160801b909304900b919084565b6103716107b73660046133bd565b6117ab565b6103716107ca36600461320d565b6117ee565b6103716107dd366004613143565b60066020526000908152604090205481565b6103716107fd366004613143565b6117fa565b61033e6108103660046133f2565b6001600160a01b03918216600090815260116020908152604080832093909416825291909152205460ff1690565b61036661084c36600461320d565b611822565b61037161085f366004613143565b6000908152600160208190526040909120015490565b6103d97f000000000000000000000000000000000000000000000000000000000000000081565b6103666108aa366004613143565b6118f6565b600a546001600160a01b031633146108c657600080fd5b600090815260086020526040902060019055565b6000818152600c60205260409020546001600160a01b0316806108fc57600080fd5b806001600160a01b0316836001600160a01b0316141561091b57600080fd5b6000828152600c60209081526040808320546001600160a01b0385811685526011845282852033808752945291909320549216149060ff16818061095c5750805b61096557600080fd5b6000848152600d602052604080822080546001600160a01b0319166001600160a01b0389811691821790925591518793918716917f8c5be1e5ebec7d5bd14f71427d1e84f3dd0314c0f7b2291e5b200ac8c7c3b92591a45050505050565b600560205281600052604060002081633b9aca0081106109e257600080fd5b6003020180546001820154600290920154600f82810b9550600160801b90920490910b925084565b6000610a1542610e22565b905090565b600082815260056020526040812082633b9aca008110610a3c57610a3c613425565b600302016001015490505b92915050565b610a5983838333611928565b505050565b60135460ff16600114610a7057600080fd5b6013805460ff19166002179055610a8733826119ee565b610a9357610a9361343b565b600081815260086020526040902054158015610abe575060008181526009602052604090205460ff16155b610ae35760405162461bcd60e51b8152600401610ada90613451565b60405180910390fd5b60008181526001602081815260409283902083518085019094528054600f0b845290910154908201819052421015610b565760405162461bcd60e51b8152602060048201526016602482015275546865206c6f636b206469646e27742065787069726560501b6044820152606401610ada565b805160408051808201825260008082526020808301828152878352600191829052938220925183546001600160801b0319166001600160801b039091161783559251919092015554600f9190910b90610baf8282613489565b600081905550610bd9848460405180604001604052806000600f0b81526020016000815250611a54565b60405163a9059cbb60e01b8152336004820152602481018390527f00000000000000000000000000000000000000000000000000000000000000006001600160a01b03169063a9059cbb906044016020604051808303816000875af1158015610c46573d6000803e3d6000fd5b505050506040513d601f19601f82011682018060405250810190610c6a91906134a0565b610c7657610c7661343b565b610c7f846120ad565b60408051858152602081018490524281830152905133917f02f25270a4d87bea75db541cdfe559334a275b4a233520ed6c0a2429667cca94919081900360600190a27f5e2aa66efd74cce82b21852e317e5490d9ecc9e6bb953ae24d90851258cc2f5c81610ced8482613489565b6040805192835260208301919091520160405180910390a150506013805460ff191660011790555050565b610a59838383604051806020016040528060008152506113f7565b6000610d3f83836119ee565b9392505050565b6000818152600660209081526040808320546005909252822081633b9aca008110610d7357610d73613425565b6003020154600160801b9004600f0b9392505050565b600a546001600160a01b03163314610da057600080fd5b600a80546001600160a01b0319166001600160a01b0392909216919091179055565b60135460009060ff16600114610dd757600080fd5b6013805460ff19166002179055610def83833361216c565b90506013805460ff1916600117905592915050565b6001600160a01b0381166000908152600e6020526040812054610a47565b600354600081815260046020908152604080832081516080810183528154600f81810b8352600160801b909104900b93810193909352600181015491830191909152600201546060820152909190610e7a818561234e565b949350505050565b6000610d3f83836124aa565b600043821115610ea057610ea061343b565b6003546000610eaf8483612782565b600081815260046020908152604080832081516080810183528154600f81810b8352600160801b909104900b9381019390935260018101549183019190915260020154606082015291925083831015610fbe576000600481610f128660016134bd565b8152602080820192909252604090810160002081516080810183528154600f81810b8352600160801b909104900b9381019390935260018101549183019190915260020154606080830182905285015191925014610fb85782606001518160600151610f7e9190613489565b83604001518260400151610f929190613489565b6060850151610fa1908a613489565b610fab91906134d5565b610fb5919061350a565b91505b5061100d565b4382606001511461100d576060820151610fd89043613489565b6040830151610fe79042613489565b6060840151610ff69089613489565b61100091906134d5565b61100a919061350a565b90505b6110268282846040015161102191906134bd565b61234e565b9695505050505050565b600a546001600160a01b0316331461104757600080fd5b60008181526008602052604090205461106290600190613489565b60009182526008602052604090912055565b60135460ff1660011461108657600080fd5b6013805460ff1916600217905561109d33836119ee565b6110a9576110a961343b565b60008281526001602081815260409283902083518085019094528054600f0b84529091015490820152816110df576110df61343b565b60008160000151600f0b1361112f5760405162461bcd60e51b8152602060048201526016602482015275139bc8195e1a5cdd1a5b99c81b1bd8dac8199bdd5b9960521b6044820152606401610ada565b428160200151116111525760405162461bcd60e51b8152600401610ada9061351e565b6111618383600084600261280c565b50506013805460ff1916600117905550565b6001600160a01b03821633141561118c5761118c61343b565b3360008181526011602090815260408083206001600160a01b03871680855290835292819020805460ff191686151590811790915590519081529192917f17307eab39ab6107e8899845ad3d59bd9653f200f220920489ca2b5937696c31910160405180910390a35050565b60135460ff1660011461120a57600080fd5b6013805460ff1916600217905561122133836119ee565b61122d5761122d61343b565b600082815260016020818152604080842081518083019092528054600f0b82529092015490820152907f00000000000000000000000000000000000000000000000000000000000000008061128285426134bd565b61128c919061350a565b61129691906134d5565b9050428260200151116112da5760405162461bcd60e51b815260206004820152600c60248201526b131bd8dac8195e1c1a5c995960a21b6044820152606401610ada565b60008260000151600f0b136113255760405162461bcd60e51b8152602060048201526011602482015270139bdd1a1a5b99c81a5cc81b1bd8dad959607a1b6044820152606401610ada565b816020015181116113785760405162461bcd60e51b815260206004820152601f60248201527f43616e206f6e6c7920696e637265617365206c6f636b206475726174696f6e006044820152606401610ada565b611386630784ce00426134bd565b8111156113d55760405162461bcd60e51b815260206004820152601e60248201527f566f74696e67206c6f636b2063616e2062652034207965617273206d617800006044820152606401610ada565b6113e48460008385600361280c565b50506013805460ff191660011790555050565b61140384848433611928565b823b1561151e57604051630a85bd0160e11b81526001600160a01b0384169063150b7a029061143c903390889087908790600401613562565b6020604051808303816000875af1925050508015611477575060408051601f3d908101601f1916820190925261147491810190613595565b60015b61151c573d8080156114a5576040519150601f19603f3d011682016040523d82523d6000602084013e6114aa565b606091505b5080516115145760405162461bcd60e51b815260206004820152603260248201527f4552433732313a207472616e7366657220746f206e6f6e20455243373231526560448201527131b2b4bb32b91034b6b83632b6b2b73a32b960711b6064820152608401610ada565b805181602001fd5b505b50505050565b600a546001600160a01b0316331461153b57600080fd5b6000908152600960205260409020805460ff19169055565b611591600060405180604001604052806000600f0b8152602001600081525060405180604001604052806000600f0b81526020016000815250611a54565b565b6000818152600c60205260409020546060906001600160a01b03166115fa5760405162461bcd60e51b815260206004820152601b60248201527f517565727920666f72206e6f6e6578697374656e7420746f6b656e00000000006044820152606401610ada565b60008281526001602081815260409283902083518085019094528054600f0b84529091015490820152610d3f836116318142612a11565b60208401518451600f0b612ae3565b60008281526008602052604090205415801561166b575060008281526009602052604090205460ff16155b6116875760405162461bcd60e51b8152600401610ada90613451565b8082141561169457600080fd5b61169e33836119ee565b6116a757600080fd5b6116b133826119ee565b6116ba57600080fd5b6000828152600160208181526040808420815180830183528154600f90810b82529185015481850190815287875285855283872084518086019095528054840b855290950154938301849052805194519095929490910b921115611722578260200151611728565b83602001515b604080518082018252600080825260208083018281528b83526001808352858420945185546001600160801b0319166001600160801b03909116178555905193019290925582518084019093528083529082015290915061178c9087908690611a54565b611795866120ad565b6117a385838386600461280c565b505050505050565b60135460009060ff166001146117c057600080fd5b6013805460ff191660021790556117d884848461216c565b90506013805460ff191660011790559392505050565b6000610d3f8383612a11565b60008181526002602052604081205443141561181857506000919050565b610a478242612a11565b60135460ff1660011461183457600080fd5b6013805460ff1916600217905560008281526001602081815260409283902083518085019094528054600f0b845290910154908201528161187457600080fd5b60008160000151600f0b136118c45760405162461bcd60e51b8152602060048201526016602482015275139bc8195e1a5cdd1a5b99c81b1bd8dac8199bdd5b9960521b6044820152606401610ada565b428160200151116118e75760405162461bcd60e51b8152600401610ada9061351e565b6111618383600084600061280c565b600a546001600160a01b0316331461190d57600080fd5b6000908152600960205260409020805460ff19166001179055565b600082815260086020526040902054158015611953575060008281526009602052604090205460ff16155b61196f5760405162461bcd60e51b8152600401610ada90613451565b61197981836119ee565b61198257600080fd5b61198c8483612c1a565b6119968483612c81565b6119a08383612d02565b6000828152600260205260408082204390555183916001600160a01b0380871692908816917fddf252ad1be2c89b69c2b068fc378daa952ba7f163c4a11628f55a4df523b3ef91a450505050565b6000818152600c6020908152604080832054600d8352818420546001600160a01b039182168086526011855283862088841680885295529285205492938085149392909116149060ff168280611a415750815b80611a495750805b979650505050505050565b60408051608081018252600080825260208201819052918101829052606081019190915260408051608081018252600080825260208201819052918101829052606081019190915260035460009081908715611bc057428760200151118015611ac4575060008760000151600f0b135b15611b09578651611ada90630784ce00906135b2565b600f0b602080870191909152870151611af4904290613489565b8560200151611b0391906135f0565b600f0b85525b428660200151118015611b23575060008660000151600f0b135b15611b68578551611b3990630784ce00906135b2565b600f0b602080860191909152860151611b53904290613489565b8460200151611b6291906135f0565b600f0b84525b602080880151600090815260078252604090205490870151600f9190910b935015611bc057866020015186602001511415611ba557829150611bc0565b602080870151600090815260079091526040902054600f0b91505b604080516080810182526000808252602082015242918101919091524360608201528115611c35575060008181526004602090815260409182902082516080810184528154600f81810b8352600160801b909104900b9281019290925260018101549282019290925260029091015460608201525b604081015181600042831015611c82576040840151611c549042613489565b6060850151611c639043613489565b611c7590670de0b6b3a76400006134d5565b611c7f919061350a565b90505b60007f0000000000000000000000000000000000000000000000000000000000000000611caf818661350a565b611cb991906134d5565b905060005b60ff811015611e5157611cf17f0000000000000000000000000000000000000000000000000000000000000000836134bd565b9150600042831115611d0557429250611d19565b50600082815260076020526040902054600f0b5b611d238684613489565b8760200151611d3291906135f0565b87518890611d41908390613685565b600f0b905250602087018051829190611d5b9083906136d5565b600f90810b90915288516000910b12159050611d7657600087525b60008760200151600f0b1215611d8e57600060208801525b60408088018490528501519295508592670de0b6b3a764000090611db29085613489565b611dbc90866134d5565b611dc6919061350a565b8560600151611dd591906134bd565b6060880152611de56001896134bd565b975042831415611dfb5750436060870152611e51565b6000888152600460209081526040918290208951918a01516001600160801b03908116600160801b029216919091178155908801516001820155606088015160029091015550611e4a81613724565b9050611cbe565b505060038590558b15611edc5788602001518860200151611e729190613685565b84602001818151611e8391906136d5565b600f0b90525088518851611e979190613685565b84518590611ea69083906136d5565b600f90810b90915260208601516000910b12159050611ec757600060208501525b60008460000151600f0b1215611edc57600084525b6000858152600460209081526040918290208651918701516001600160801b03908116600160801b02921691909117815590850151600182015560608501516002909101558b1561209f57428b602001511115611f94576020890151611f4290886136d5565b96508a602001518a602001511415611f66576020880151611f639088613685565b96505b60208b810151600090815260079091526040902080546001600160801b0319166001600160801b0389161790555b428a602001511115611fef578a602001518a602001511115611fef576020880151611fbf9087613685565b60208b810151600090815260079091526040902080546001600160801b0319166001600160801b03831617905595505b60008c8152600660205260408120546120099060016134bd565b905080600660008f815260200190815260200160002081905550428960400181815250504389606001818152505088600560008f815260200190815260200160002082633b9aca00811061205f5761205f613425565b825160208401516001600160801b03908116600160801b029116176003919091029190910190815560408201516001820155606090910151600290910155505b505050505050505050505050565b6120b733826119ee565b6121035760405162461bcd60e51b815260206004820181905260248201527f63616c6c6572206973206e6f74206f776e6572206e6f7220617070726f7665646044820152606401610ada565b6000818152600c60205260408120546001600160a01b03169061212690836108da565b6121303383612c81565b60405182906000906001600160a01b038416907fddf252ad1be2c89b69c2b068fc378daa952ba7f163c4a11628f55a4df523b3ef908390a45050565b6000807f00000000000000000000000000000000000000000000000000000000000000008061219b86426134bd565b6121a5919061350a565b6121af91906134d5565b9050600085116121ea5760405162461bcd60e51b8152600401610ada90602080825260049082015263076203e360e41b604082015260600190565b6121f383610e04565b156122325760405162461bcd60e51b815260206004820152600f60248201526e1b195cdcc81d1a185b880c481b999d608a1b6044820152606401610ada565b4281116122905760405162461bcd60e51b815260206004820152602660248201527f43616e206f6e6c79206c6f636b20756e74696c2074696d6520696e207468652060448201526566757475726560d01b6064820152608401610ada565b61229e630784ce00426134bd565b8111156122ed5760405162461bcd60e51b815260206004820152601e60248201527f566f74696e67206c6f636b2063616e2062652034207965617273206d617800006044820152606401610ada565b600b600081546122fc90613724565b90915550600b5461230d8482612d98565b5060008181526001602081815260409283902083518085019094528054600f0b8452820154908301526123459183918991869161280c565b95945050505050565b60008083905060007f00000000000000000000000000000000000000000000000000000000000000007f000000000000000000000000000000000000000000000000000000000000000083604001516123a7919061350a565b6123b191906134d5565b905060005b60ff811015612482576123e97f0000000000000000000000000000000000000000000000000000000000000000836134bd565b91506000858311156123fd57859250612411565b50600082815260076020526040902054600f0b5b60408401516124209084613489565b846020015161242f91906135f0565b8451859061243e908390613685565b600f0b905250828614156124525750612482565b808460200181815161246491906136d5565b600f0b905250506040830182905261247b81613724565b90506123b6565b5060008260000151600f0b121561249857600082525b50516001600160801b03169392505050565b6000438211156124bc576124bc61343b565b600083815260066020526040812054815b6080811015612560578183106124e257612560565b600060026124f084866134bd565b6124fb9060016134bd565b612505919061350a565b6000888152600560205260409020909150869082633b9aca00811061252c5761252c613425565b6003020160020154116125415780935061254f565b61254c600182613489565b92505b5061255981613724565b90506124cd565b50600085815260056020526040812083633b9aca00811061258357612583613425565b604080516080810182526003928302939093018054600f81810b8652600160801b909104900b60208501526001810154918401919091526002015460608301525490915060006125d38783612782565b600081815260046020908152604080832081516080810183528154600f81810b8352600160801b909104900b9381019390935260018101549183019190915260020154606082015291925080848410156126b25760006004816126378760016134bd565b8152602080820192909252604090810160002081516080810183528154600f81810b8352600160801b909104900b938101939093526001810154918301919091526002015460608083018290528601519192506126949190613489565b9250836040015181604001516126aa9190613489565b9150506126d6565b60608301516126c19043613489565b91508260400151426126d39190613489565b90505b60408301518215612713578284606001518c6126f29190613489565b6126fc90846134d5565b612706919061350a565b61271090826134bd565b90505b60408701516127229082613489565b876020015161273191906135f0565b87518890612740908390613685565b600f90810b90915288516000910b12905061277057505093516001600160801b03169650610a4795505050505050565b60009950505050505050505050610a47565b60008082815b60808110156128025781831061279d57612802565b600060026127ab84866134bd565b6127b69060016134bd565b6127c0919061350a565b60008181526004602052604090206002015490915087106127e3578093506127f1565b6127ee600182613489565b92505b506127fb81613724565b9050612788565b5090949350505050565b600054829061281b86826134bd565b6000908155604080518082019091528181526020810191909152825160208085015190830152600f0b81528251879084906128579083906136d5565b600f0b905250851561286b57602083018690525b6000888152600160208181526040909220855181546001600160801b0319166001600160801b03909116178155918501519101556128aa888285611a54565b3387158015906128cc575060048560048111156128c9576128c961373f565b14155b15612976576040516323b872dd60e01b81526001600160a01b038281166004830152306024830152604482018a90527f000000000000000000000000000000000000000000000000000000000000000016906323b872dd906064016020604051808303816000875af1158015612946573d6000803e3d6000fd5b505050506040513d601f19601f8201168201806040525081019061296a91906134a0565b6129765761297661343b565b8360200151816001600160a01b03167fff04ccafc360e16b67d682d17bd9503c4c6b9a131f6be6325762dc9ffc7de6248b8b89426040516129ba9493929190613755565b60405180910390a37f5e2aa66efd74cce82b21852e317e5490d9ecc9e6bb953ae24d90851258cc2f5c836129ee8a826134bd565b6040805192835260208301919091520160405180910390a1505050505050505050565b60008281526006602052604081205480612a2f576000915050610a47565b600084815260056020526040812082633b9aca008110612a5157612a51613425565b60408051608081018252600392909202929092018054600f81810b8452600160801b909104900b602083015260018101549282018390526002015460608201529150612a9d9085613793565b8160200151612aac91906135f0565b81518290612abb908390613685565b600f90810b90915282516000910b12159050612ad657600081525b51600f0b9150610a479050565b606060405180610120016040528060fd8152602001613b1960fd9139905080612b0b86612dfb565b604051602001612b1c9291906137d2565b604051602081830303815290604052905080612b3785612dfb565b604051602001612b4892919061384e565b604051602081830303815290604052905080612b6384612dfb565b604051602001612b749291906138ce565b604051602081830303815290604052905080612b8f83612dfb565b604051602001612ba092919061394f565b60405160208183030381529060405290506000612bed612bbf87612dfb565b612bc884612ef9565b604051602001612bd99291906139aa565b604051602081830303815290604052612ef9565b905080604051602001612c009190613abf565b604051602081830303815290604052915050949350505050565b6000818152600c60205260409020546001600160a01b03838116911614612c4357612c4361343b565b6000818152600d60205260409020546001600160a01b031615612c7d576000818152600d6020526040902080546001600160a01b03191690555b5050565b6000818152600c60205260409020546001600160a01b03838116911614612caa57612caa61343b565b6000818152600c6020526040902080546001600160a01b0319169055612cd0828261304d565b6001600160a01b0382166000908152600e60205260408120805460019290612cf9908490613489565b90915550505050565b6000818152600c60205260409020546001600160a01b031615612d2757612d2761343b565b6000818152600c6020908152604080832080546001600160a01b0319166001600160a01b038716908117909155808452600e8084528285208054600f865284872081885286528487208890558787526010865293862093909355908452909152805460019290612cf99084906134bd565b60006001600160a01b038316612db057612db061343b565b612dba8383612d02565b60405182906001600160a01b038516906000907fddf252ad1be2c89b69c2b068fc378daa952ba7f163c4a11628f55a4df523b3ef908290a450600192915050565b606081612e1f5750506040805180820190915260018152600360fc1b602082015290565b8160005b8115612e495780612e3381613724565b9150612e429050600a8361350a565b9150612e23565b60008167ffffffffffffffff811115612e6457612e646132cb565b6040519080825280601f01601f191660200182016040528015612e8e576020820181803683370190505b5090505b8415610e7a57612ea3600183613489565b9150612eb0600a86613b04565b612ebb9060306134bd565b60f81b818381518110612ed057612ed0613425565b60200101906001600160f81b031916908160001a905350612ef2600a8661350a565b9450612e92565b6060815160001415612f1957505060408051602081019091526000815290565b6000604051806060016040528060408152602001613c166040913990506000600384516002612f4891906134bd565b612f52919061350a565b612f5d9060046134d5565b67ffffffffffffffff811115612f7557612f756132cb565b6040519080825280601f01601f191660200182016040528015612f9f576020820181803683370190505b509050600182016020820185865187015b8082101561300b576003820191508151603f8160121c168501518453600184019350603f81600c1c168501518453600184019350603f8160061c168501518453600184019350603f8116850151845350600183019250612fb0565b5050600386510660018114613027576002811461303a57613042565b603d6001830353603d6002830353613042565b603d60018303535b509195945050505050565b6001600160a01b0382166000908152600e602052604081205461307290600190613489565b600083815260106020526040902054909150808214156130c2576001600160a01b0384166000908152600f602090815260408083208584528252808320839055858352601090915281205561151e565b6001600160a01b03939093166000908152600f602090815260408083209383529281528282208054868452848420819055835260109091528282209490945592839055908252812055565b6001600160e01b03198116811461312357600080fd5b50565b60006020828403121561313857600080fd5b8135610d3f8161310d565b60006020828403121561315557600080fd5b5035919050565b60005b8381101561317757818101518382015260200161315f565b8381111561151e5750506000910152565b600081518084526131a081602086016020860161315c565b601f01601f19169290920160200192915050565b602081526000610d3f6020830184613188565b80356001600160a01b03811681146131de57600080fd5b919050565b600080604083850312156131f657600080fd5b6131ff836131c7565b946020939093013593505050565b6000806040838503121561322057600080fd5b50508035926020909101359150565b60008060006060848603121561324457600080fd5b61324d846131c7565b925061325b602085016131c7565b9150604084013590509250925092565b60006020828403121561327d57600080fd5b610d3f826131c7565b801515811461312357600080fd5b600080604083850312156132a757600080fd5b6132b0836131c7565b915060208301356132c081613286565b809150509250929050565b634e487b7160e01b600052604160045260246000fd5b600080600080608085870312156132f757600080fd5b613300856131c7565b935061330e602086016131c7565b925060408501359150606085013567ffffffffffffffff8082111561333257600080fd5b818701915087601f83011261334657600080fd5b813581811115613358576133586132cb565b604051601f8201601f19908116603f01168101908382118183101715613380576133806132cb565b816040528281528a602084870101111561339957600080fd5b82602086016020830137600060208483010152809550505050505092959194509250565b6000806000606084860312156133d257600080fd5b83359250602084013591506133e9604085016131c7565b90509250925092565b6000806040838503121561340557600080fd5b61340e836131c7565b915061341c602084016131c7565b90509250929050565b634e487b7160e01b600052603260045260246000fd5b634e487b7160e01b600052600160045260246000fd5b602080825260089082015267185d1d1858da195960c21b604082015260600190565b634e487b7160e01b600052601160045260246000fd5b60008282101561349b5761349b613473565b500390565b6000602082840312156134b257600080fd5b8151610d3f81613286565b600082198211156134d0576134d0613473565b500190565b60008160001904831182151516156134ef576134ef613473565b500290565b634e487b7160e01b600052601260045260246000fd5b600082613519576135196134f4565b500490565b60208082526024908201527f43616e6e6f742061646420746f2065787069726564206c6f636b2e20576974686040820152636472617760e01b606082015260800190565b6001600160a01b038581168252841660208201526040810183905260806060820181905260009061102690830184613188565b6000602082840312156135a757600080fd5b8151610d3f8161310d565b600081600f0b83600f0b806135c9576135c96134f4565b60016001607f1b03198214600019821416156135e7576135e7613473565b90059392505050565b600081600f0b83600f0b60016001607f1b0360008213600084138383048511828216161561362057613620613473565b60016001607f1b0319600085128281168783058712161561364357613643613473565b6000871292508582058712848416161561365f5761365f613473565b8585058712818416161561367557613675613473565b5050509290910295945050505050565b600081600f0b83600f0b600081128160016001607f1b0319018312811516156136b0576136b0613473565b8160016001607f1b030183138116156136cb576136cb613473565b5090039392505050565b600081600f0b83600f0b600082128260016001607f1b03038213811516156136ff576136ff613473565b8260016001607f1b031903821281161561371b5761371b613473565b50019392505050565b600060001982141561373857613738613473565b5060010190565b634e487b7160e01b600052602160045260246000fd5b84815260208101849052608081016005841061378157634e487b7160e01b600052602160045260246000fd5b60408201939093526060015292915050565b60008083128015600160ff1b8501841216156137b1576137b1613473565b6001600160ff1b03840183138116156137cc576137cc613473565b50500390565b600083516137e481846020880161315c565b6503a37b5b2b7160d51b908301908152835161380781600684016020880161315c565b7f3c2f746578743e3c7465787420783d2231302220793d2234302220636c61737360069290910191820152671e913130b9b2911f60c11b6026820152602e01949350505050565b6000835161386081846020880161315c565b6903130b630b731b2a7b3160b51b908301908152835161388781600a84016020880161315c565b7f3c2f746578743e3c7465787420783d2231302220793d2236302220636c617373600a9290910191820152671e913130b9b2911f60c11b602a820152603201949350505050565b600083516138e081846020880161315c565b6a03637b1b5b2b22fb2b732160ad1b908301908152835161390881600b84016020880161315c565b7f3c2f746578743e3c7465787420783d2231302220793d2238302220636c617373600b9290910191820152671e913130b9b2911f60c11b602b820152603301949350505050565b6000835161396181846020880161315c565b6503b30b63ab2960d51b908301908152835161398481600684016020880161315c565b6c1e17ba32bc3a1f1e17b9bb339f60991b60069290910191820152601301949350505050565b6f7b226e616d65223a20226c6f636b202360801b815282516000906139d681601085016020880161315c565b7f222c20226465736372697074696f6e223a2022536f6c69646c79206c6f636b736010918401918201527f2c2063616e206265207573656420746f20626f6f73742067617567652079696560308201527f6c64732c20766f7465206f6e20746f6b656e20656d697373696f6e2c20616e6460508201527f207265636569766520627269626573222c2022696d616765223a2022646174616070820152750e9a5b5859d94bdcdd99cade1b5b0ed8985cd94d8d0b60521b60908201528351613aa48160a684016020880161315c565b61227d60f01b60a6929091019182015260a801949350505050565b7f646174613a6170706c69636174696f6e2f6a736f6e3b6261736536342c000000815260008251613af781601d85016020870161315c565b91909101601d0192915050565b600082613b1357613b136134f4565b50069056fe3c73766720786d6c6e733d22687474703a2f2f7777772e77332e6f72672f323030302f73766722207072657365727665417370656374526174696f3d22784d696e594d696e206d656574222076696577426f783d223020302033353020333530223e3c7374796c653e2e62617365207b2066696c6c3a2077686974653b20666f6e742d66616d696c793a2073657269663b20666f6e742d73697a653a20313470783b207d3c2f7374796c653e3c726563742077696474683d223130302522206865696768743d2231303025222066696c6c3d22626c61636b22202f3e3c7465787420783d2231302220793d2232302220636c6173733d2262617365223e4142434445464748494a4b4c4d4e4f505152535455565758595a6162636465666768696a6b6c6d6e6f707172737475767778797a303132333435363738392b2fa2646970667358221220e3bcff1972e0a3769cde634ef1d1bba8f5efba68c8a99b65c77722d005a68cfb64736f6c634300080a0033ddf252ad1be2c89b69c2b068fc378daa952ba7f163c4a11628f55a4df523b3ef",
			"opcodes": "PUSH1 0xC0 PUSH1 0x40 MSTORE PUSH1 0x13 DUP1 SLOAD PUSH1 0xFF NOT AND PUSH1 0x1 OR SWAP1 SSTORE CALLVALUE DUP1 ISZERO PUSH3 0x1E JUMPI PUSH1 0x0 DUP1 REVERT JUMPDEST POP PUSH1 0x40 MLOAD PUSH3 0x3ECC CODESIZE SUB DUP1 PUSH3 0x3ECC DUP4 CODECOPY DUP2 ADD PUSH1 0x40 DUP2 SWAP1 MSTORE PUSH3 0x41 SWAP2 PUSH3 0x187 JUMP JUMPDEST PUSH1 0x1 PUSH1 0x1 PUSH1 0xA0 SHL SUB DUP3 AND PUSH1 0xA0 MSTORE PUSH1 0xA DUP1 SLOAD PUSH1 0x1 PUSH1 0x1 PUSH1 0xA0 SHL SUB NOT AND CALLER OR SWAP1 SSTORE NUMBER PUSH32 0x17EF568E3E12AB5B9C7254A8D58478811DE00F9E6EB34345ACD53BF8FD09D3EE SSTORE TIMESTAMP PUSH32 0x17EF568E3E12AB5B9C7254A8D58478811DE00F9E6EB34345ACD53BF8FD09D3ED SSTORE PUSH1 0x12 PUSH1 0x20 MSTORE PUSH32 0x6AFEBFA21C417411AB7392A59BBB98EC35612153C5E8AEB3F64F4E016707B77A DUP1 SLOAD PUSH1 0xFF NOT SWAP1 DUP2 AND PUSH1 0x1 SWAP1 DUP2 OR SWAP1 SWAP3 SSTORE PUSH32 0xDF428CE7B59746CF2E618E63C6311D427105F2C3DC163FF0902907DEA1728DF5 DUP1 SLOAD DUP3 AND DUP4 OR SWAP1 SSTORE PUSH4 0x5B5E139F PUSH1 0xE0 SHL PUSH1 0x0 SWAP1 DUP2 MSTORE PUSH32 0xC0E00DDA16840520B43384D85650EDBBAD8E5AFCB041D20F42EB5AEA304558CD DUP1 SLOAD SWAP1 SWAP3 AND SWAP1 SWAP3 OR SWAP1 SSTORE PUSH1 0x80 DUP3 SWAP1 MSTORE PUSH1 0xB SLOAD PUSH1 0x40 MLOAD SWAP1 SWAP2 ADDRESS SWAP2 PUSH1 0x0 DUP1 MLOAD PUSH1 0x20 PUSH3 0x3EAC DUP4 CODECOPY DUP2 MLOAD SWAP2 MSTORE SWAP1 DUP3 SWAP1 LOG4 PUSH1 0xB SLOAD PUSH1 0x40 MLOAD PUSH1 0x0 SWAP1 ADDRESS SWAP1 PUSH1 0x0 DUP1 MLOAD PUSH1 0x20 PUSH3 0x3EAC DUP4 CODECOPY DUP2 MLOAD SWAP2 MSTORE SWAP1 DUP4 SWAP1 LOG4 POP POP PUSH3 0x1C3 JUMP JUMPDEST PUSH1 0x0 DUP1 PUSH1 0x40 DUP4 DUP6 SUB SLT ISZERO PUSH3 0x19B JUMPI PUSH1 0x0 DUP1 REVERT JUMPDEST DUP3 MLOAD PUSH1 0x1 PUSH1 0x1 PUSH1 0xA0 SHL SUB DUP2 AND DUP2 EQ PUSH3 0x1B3 JUMPI PUSH1 0x0 DUP1 REVERT JUMPDEST PUSH1 0x20 SWAP4 SWAP1 SWAP4 ADD MLOAD SWAP3 SWAP5 SWAP3 SWAP4 POP POP POP JUMP JUMPDEST PUSH1 0x80 MLOAD PUSH1 0xA0 MLOAD PUSH2 0x3C8B PUSH3 0x221 PUSH1 0x0 CODECOPY PUSH1 0x0 DUP2 DUP2 PUSH2 0x87A ADD MSTORE DUP2 DUP2 PUSH2 0xBF5 ADD MSTORE PUSH2 0x28FD ADD MSTORE PUSH1 0x0 DUP2 DUP2 PUSH2 0x1258 ADD MSTORE DUP2 DUP2 PUSH2 0x1C86 ADD MSTORE DUP2 DUP2 PUSH2 0x1CCC ADD MSTORE DUP2 DUP2 PUSH2 0x2171 ADD MSTORE DUP2 DUP2 PUSH2 0x2358 ADD MSTORE DUP2 DUP2 PUSH2 0x2379 ADD MSTORE PUSH2 0x23C4 ADD MSTORE PUSH2 0x3C8B PUSH1 0x0 RETURN INVALID PUSH1 0x80 PUSH1 0x40 MSTORE CALLVALUE DUP1 ISZERO PUSH2 0x10 JUMPI PUSH1 0x0 DUP1 REVERT JUMPDEST POP PUSH1 0x4 CALLDATASIZE LT PUSH2 0x30C JUMPI PUSH1 0x0 CALLDATALOAD PUSH1 0xE0 SHR DUP1 PUSH4 0x71197484 GT PUSH2 0x19D JUMPI DUP1 PUSH4 0xC2C4C5C1 GT PUSH2 0xE9 JUMPI DUP1 PUSH4 0xE441135C GT PUSH2 0xA2 JUMPI DUP1 PUSH4 0xEE99FE28 GT PUSH2 0x7C JUMPI DUP1 PUSH4 0xEE99FE28 EQ PUSH2 0x83E JUMPI DUP1 PUSH4 0xF8A05763 EQ PUSH2 0x851 JUMPI DUP1 PUSH4 0xFC0C546A EQ PUSH2 0x875 JUMPI DUP1 PUSH4 0xFD4A77F1 EQ PUSH2 0x89C JUMPI PUSH1 0x0 DUP1 REVERT JUMPDEST DUP1 PUSH4 0xE441135C EQ PUSH2 0x7CF JUMPI DUP1 PUSH4 0xE7E242D4 EQ PUSH2 0x7EF JUMPI DUP1 PUSH4 0xE985E9C5 EQ PUSH2 0x802 JUMPI PUSH1 0x0 DUP1 REVERT JUMPDEST DUP1 PUSH4 0xC2C4C5C1 EQ PUSH2 0x73D JUMPI DUP1 PUSH4 0xC87B56DD EQ PUSH2 0x745 JUMPI DUP1 PUSH4 0xD1C2BABB EQ PUSH2 0x758 JUMPI DUP1 PUSH4 0xD1FEBFB9 EQ PUSH2 0x76B JUMPI DUP1 PUSH4 0xD4E54C3B EQ PUSH2 0x7A9 JUMPI DUP1 PUSH4 0xE0514ABA EQ PUSH2 0x7BC JUMPI PUSH1 0x0 DUP1 REVERT JUMPDEST DUP1 PUSH4 0x986B7D8A GT PUSH2 0x156 JUMPI DUP1 PUSH4 0xA4D855DF GT PUSH2 0x130 JUMPI DUP1 PUSH4 0xA4D855DF EQ PUSH2 0x6BC JUMPI DUP1 PUSH4 0xB45A3C0E EQ PUSH2 0x6CF JUMPI DUP1 PUSH4 0xB88D4FDE EQ PUSH2 0x717 JUMPI DUP1 PUSH4 0xC1F0FB9F EQ PUSH2 0x72A JUMPI PUSH1 0x0 DUP1 REVERT JUMPDEST DUP1 PUSH4 0x986B7D8A EQ PUSH2 0x683 JUMPI DUP1 PUSH4 0xA183AF52 EQ PUSH2 0x696 JUMPI DUP1 PUSH4 0xA22CB465 EQ PUSH2 0x6A9 JUMPI PUSH1 0x0 DUP1 REVERT JUMPDEST DUP1 PUSH4 0x71197484 EQ PUSH2 0x60E JUMPI DUP1 PUSH4 0x8C2C9BAF EQ PUSH2 0x631 JUMPI DUP1 PUSH4 0x8FBB38FF EQ PUSH2 0x644 JUMPI DUP1 PUSH4 0x900CF0CF EQ PUSH2 0x667 JUMPI DUP1 PUSH4 0x95D89B41 EQ PUSH2 0x37F JUMPI DUP1 PUSH4 0x981B24D0 EQ PUSH2 0x670 JUMPI PUSH1 0x0 DUP1 REVERT JUMPDEST DUP1 PUSH4 0x2F745C59 GT PUSH2 0x25C JUMPI DUP1 PUSH4 0x4BC2A657 GT PUSH2 0x215 JUMPI DUP1 PUSH4 0x65FC3873 GT PUSH2 0x1EF JUMPI DUP1 PUSH4 0x65FC3873 EQ PUSH2 0x5B5 JUMPI DUP1 PUSH4 0x6F548837 EQ PUSH2 0x5C8 JUMPI DUP1 PUSH4 0x70A08231 EQ PUSH2 0x5E8 JUMPI DUP1 PUSH4 0x7116C60C EQ PUSH2 0x5FB JUMPI PUSH1 0x0 DUP1 REVERT JUMPDEST DUP1 PUSH4 0x4BC2A657 EQ PUSH2 0x555 JUMPI DUP1 PUSH4 0x54FD4D50 EQ PUSH2 0x568 JUMPI DUP1 PUSH4 0x6352211E EQ PUSH2 0x58C JUMPI PUSH1 0x0 DUP1 REVERT JUMPDEST DUP1 PUSH4 0x2F745C59 EQ PUSH2 0x4A6 JUMPI DUP1 PUSH4 0x313CE567 EQ PUSH2 0x4DC JUMPI DUP1 PUSH4 0x42842E0E EQ PUSH2 0x4F6 JUMPI DUP1 PUSH4 0x430C2081 EQ PUSH2 0x509 JUMPI DUP1 PUSH4 0x461F711C EQ PUSH2 0x51C JUMPI DUP1 PUSH4 0x46C96AAC EQ PUSH2 0x542 JUMPI PUSH1 0x0 DUP1 REVERT JUMPDEST DUP1 PUSH4 0xD6A2033 GT PUSH2 0x2C9 JUMPI DUP1 PUSH4 0x1C984BC3 GT PUSH2 0x2A3 JUMPI DUP1 PUSH4 0x1C984BC3 EQ PUSH2 0x467 JUMPI DUP1 PUSH4 0x23B872DD EQ PUSH2 0x47A JUMPI DUP1 PUSH4 0x25A58B56 EQ PUSH2 0x48D JUMPI DUP1 PUSH4 0x2E1A7D4D EQ PUSH2 0x493 JUMPI PUSH1 0x0 DUP1 REVERT JUMPDEST DUP1 PUSH4 0xD6A2033 EQ PUSH2 0x404 JUMPI DUP1 PUSH4 0x1376F3DA EQ PUSH2 0x424 JUMPI DUP1 PUSH4 0x18160DDD EQ PUSH2 0x45F JUMPI PUSH1 0x0 DUP1 REVERT JUMPDEST DUP1 PUSH4 0x1FFC9A7 EQ PUSH2 0x311 JUMPI DUP1 PUSH4 0x20FE6E5 EQ PUSH2 0x353 JUMPI DUP1 PUSH4 0x47FC9AA EQ PUSH2 0x368 JUMPI DUP1 PUSH4 0x6FDDE03 EQ PUSH2 0x37F JUMPI DUP1 PUSH4 0x81812FC EQ PUSH2 0x3B0 JUMPI DUP1 PUSH4 0x95EA7B3 EQ PUSH2 0x3F1 JUMPI JUMPDEST PUSH1 0x0 DUP1 REVERT JUMPDEST PUSH2 0x33E PUSH2 0x31F CALLDATASIZE PUSH1 0x4 PUSH2 0x3126 JUMP JUMPDEST PUSH1 0x1 PUSH1 0x1 PUSH1 0xE0 SHL SUB NOT AND PUSH1 0x0 SWAP1 DUP2 MSTORE PUSH1 0x12 PUSH1 0x20 MSTORE PUSH1 0x40 SWAP1 KECCAK256 SLOAD PUSH1 0xFF AND SWAP1 JUMP JUMPDEST PUSH1 0x40 MLOAD SWAP1 ISZERO ISZERO DUP2 MSTORE PUSH1 0x20 ADD JUMPDEST PUSH1 0x40 MLOAD DUP1 SWAP2 SUB SWAP1 RETURN JUMPDEST PUSH2 0x366 PUSH2 0x361 CALLDATASIZE PUSH1 0x4 PUSH2 0x3143 JUMP JUMPDEST PUSH2 0x8AF JUMP JUMPDEST STOP JUMPDEST PUSH2 0x371 PUSH1 0x0 SLOAD DUP2 JUMP JUMPDEST PUSH1 0x40 MLOAD SWAP1 DUP2 MSTORE PUSH1 0x20 ADD PUSH2 0x34A JUMP JUMPDEST PUSH2 0x3A3 PUSH1 0x40 MLOAD DUP1 PUSH1 0x40 ADD PUSH1 0x40 MSTORE DUP1 PUSH1 0x5 DUP2 MSTORE PUSH1 0x20 ADD PUSH5 0x1D99539195 PUSH1 0xDA SHL DUP2 MSTORE POP DUP2 JUMP JUMPDEST PUSH1 0x40 MLOAD PUSH2 0x34A SWAP2 SWAP1 PUSH2 0x31B4 JUMP JUMPDEST PUSH2 0x3D9 PUSH2 0x3BE CALLDATASIZE PUSH1 0x4 PUSH2 0x3143 JUMP JUMPDEST PUSH1 0x0 SWAP1 DUP2 MSTORE PUSH1 0xD PUSH1 0x20 MSTORE PUSH1 0x40 SWAP1 KECCAK256 SLOAD PUSH1 0x1 PUSH1 0x1 PUSH1 0xA0 SHL SUB AND SWAP1 JUMP JUMPDEST PUSH1 0x40 MLOAD PUSH1 0x1 PUSH1 0x1 PUSH1 0xA0 SHL SUB SWAP1 SWAP2 AND DUP2 MSTORE PUSH1 0x20 ADD PUSH2 0x34A JUMP JUMPDEST PUSH2 0x366 PUSH2 0x3FF CALLDATASIZE PUSH1 0x4 PUSH2 0x31E3 JUMP JUMPDEST PUSH2 0x8DA JUMP JUMPDEST PUSH2 0x371 PUSH2 0x412 CALLDATASIZE PUSH1 0x4 PUSH2 0x3143 JUMP JUMPDEST PUSH1 0x8 PUSH1 0x20 MSTORE PUSH1 0x0 SWAP1 DUP2 MSTORE PUSH1 0x40 SWAP1 KECCAK256 SLOAD DUP2 JUMP JUMPDEST PUSH2 0x437 PUSH2 0x432 CALLDATASIZE PUSH1 0x4 PUSH2 0x320D JUMP JUMPDEST PUSH2 0x9C3 JUMP JUMPDEST PUSH1 0x40 DUP1 MLOAD PUSH1 0xF SWAP6 DUP7 SIGNEXTEND DUP2 MSTORE SWAP4 SWAP1 SWAP5 SIGNEXTEND PUSH1 0x20 DUP5 ADD MSTORE SWAP3 DUP3 ADD MSTORE PUSH1 0x60 DUP2 ADD SWAP2 SWAP1 SWAP2 MSTORE PUSH1 0x80 ADD PUSH2 0x34A JUMP JUMPDEST PUSH2 0x371 PUSH2 0xA0A JUMP JUMPDEST PUSH2 0x371 PUSH2 0x475 CALLDATASIZE PUSH1 0x4 PUSH2 0x320D JUMP JUMPDEST PUSH2 0xA1A JUMP JUMPDEST PUSH2 0x366 PUSH2 0x488 CALLDATASIZE PUSH1 0x4 PUSH2 0x322F JUMP JUMPDEST PUSH2 0xA4D JUMP JUMPDEST NUMBER PUSH2 0x371 JUMP JUMPDEST PUSH2 0x366 PUSH2 0x4A1 CALLDATASIZE PUSH1 0x4 PUSH2 0x3143 JUMP JUMPDEST PUSH2 0xA5E JUMP JUMPDEST PUSH2 0x371 PUSH2 0x4B4 CALLDATASIZE PUSH1 0x4 PUSH2 0x31E3 JUMP JUMPDEST PUSH1 0x1 PUSH1 0x1 PUSH1 0xA0 SHL SUB SWAP2 SWAP1 SWAP2 AND PUSH1 0x0 SWAP1 DUP2 MSTORE PUSH1 0xF PUSH1 0x20 SWAP1 DUP2 MSTORE PUSH1 0x40 DUP1 DUP4 KECCAK256 SWAP4 DUP4 MSTORE SWAP3 SWAP1 MSTORE KECCAK256 SLOAD SWAP1 JUMP JUMPDEST PUSH2 0x4E4 PUSH1 0x12 DUP2 JUMP JUMPDEST PUSH1 0x40 MLOAD PUSH1 0xFF SWAP1 SWAP2 AND DUP2 MSTORE PUSH1 0x20 ADD PUSH2 0x34A JUMP JUMPDEST PUSH2 0x366 PUSH2 0x504 CALLDATASIZE PUSH1 0x4 PUSH2 0x322F JUMP JUMPDEST PUSH2 0xD18 JUMP JUMPDEST PUSH2 0x33E PUSH2 0x517 CALLDATASIZE PUSH1 0x4 PUSH2 0x31E3 JUMP JUMPDEST PUSH2 0xD33 JUMP JUMPDEST PUSH2 0x52F PUSH2 0x52A CALLDATASIZE PUSH1 0x4 PUSH2 0x3143 JUMP JUMPDEST PUSH2 0xD46 JUMP JUMPDEST PUSH1 0x40 MLOAD PUSH1 0xF SWAP2 SWAP1 SWAP2 SIGNEXTEND DUP2 MSTORE PUSH1 0x20 ADD PUSH2 0x34A JUMP JUMPDEST PUSH1 0xA SLOAD PUSH2 0x3D9 SWAP1 PUSH1 0x1 PUSH1 0x1 PUSH1 0xA0 SHL SUB AND DUP2 JUMP JUMPDEST PUSH2 0x366 PUSH2 0x563 CALLDATASIZE PUSH1 0x4 PUSH2 0x326B JUMP JUMPDEST PUSH2 0xD89 JUMP JUMPDEST PUSH2 0x3A3 PUSH1 0x40 MLOAD DUP1 PUSH1 0x40 ADD PUSH1 0x40 MSTORE DUP1 PUSH1 0x5 DUP2 MSTORE PUSH1 0x20 ADD PUSH5 0x312E302E3 PUSH1 0xDC SHL DUP2 MSTORE POP DUP2 JUMP JUMPDEST PUSH2 0x3D9 PUSH2 0x59A CALLDATASIZE PUSH1 0x4 PUSH2 0x3143 JUMP JUMPDEST PUSH1 0x0 SWAP1 DUP2 MSTORE PUSH1 0xC PUSH1 0x20 MSTORE PUSH1 0x40 SWAP1 KECCAK256 SLOAD PUSH1 0x1 PUSH1 0x1 PUSH1 0xA0 SHL SUB AND SWAP1 JUMP JUMPDEST PUSH2 0x371 PUSH2 0x5C3 CALLDATASIZE PUSH1 0x4 PUSH2 0x320D JUMP JUMPDEST PUSH2 0xDC2 JUMP JUMPDEST PUSH2 0x371 PUSH2 0x5D6 CALLDATASIZE PUSH1 0x4 PUSH2 0x3143 JUMP JUMPDEST PUSH1 0x2 PUSH1 0x20 MSTORE PUSH1 0x0 SWAP1 DUP2 MSTORE PUSH1 0x40 SWAP1 KECCAK256 SLOAD DUP2 JUMP JUMPDEST PUSH2 0x371 PUSH2 0x5F6 CALLDATASIZE PUSH1 0x4 PUSH2 0x326B JUMP JUMPDEST PUSH2 0xE04 JUMP JUMPDEST PUSH2 0x371 PUSH2 0x609 CALLDATASIZE PUSH1 0x4 PUSH2 0x3143 JUMP JUMPDEST PUSH2 0xE22 JUMP JUMPDEST PUSH2 0x52F PUSH2 0x61C CALLDATASIZE PUSH1 0x4 PUSH2 0x3143 JUMP JUMPDEST PUSH1 0x7 PUSH1 0x20 MSTORE PUSH1 0x0 SWAP1 DUP2 MSTORE PUSH1 0x40 SWAP1 KECCAK256 SLOAD PUSH1 0xF SIGNEXTEND DUP2 JUMP JUMPDEST PUSH2 0x371 PUSH2 0x63F CALLDATASIZE PUSH1 0x4 PUSH2 0x320D JUMP JUMPDEST PUSH2 0xE82 JUMP JUMPDEST PUSH2 0x33E PUSH2 0x652 CALLDATASIZE PUSH1 0x4 PUSH2 0x3143 JUMP JUMPDEST PUSH1 0x9 PUSH1 0x20 MSTORE PUSH1 0x0 SWAP1 DUP2 MSTORE PUSH1 0x40 SWAP1 KECCAK256 SLOAD PUSH1 0xFF AND DUP2 JUMP JUMPDEST PUSH2 0x371 PUSH1 0x3 SLOAD DUP2 JUMP JUMPDEST PUSH2 0x371 PUSH2 0x67E CALLDATASIZE PUSH1 0x4 PUSH2 0x3143 JUMP JUMPDEST PUSH2 0xE8E JUMP JUMPDEST PUSH2 0x366 PUSH2 0x691 CALLDATASIZE PUSH1 0x4 PUSH2 0x3143 JUMP JUMPDEST PUSH2 0x1030 JUMP JUMPDEST PUSH2 0x366 PUSH2 0x6A4 CALLDATASIZE PUSH1 0x4 PUSH2 0x320D JUMP JUMPDEST PUSH2 0x1074 JUMP JUMPDEST PUSH2 0x366 PUSH2 0x6B7 CALLDATASIZE PUSH1 0x4 PUSH2 0x3294 JUMP JUMPDEST PUSH2 0x1173 JUMP JUMPDEST PUSH2 0x366 PUSH2 0x6CA CALLDATASIZE PUSH1 0x4 PUSH2 0x320D JUMP JUMPDEST PUSH2 0x11F8 JUMP JUMPDEST PUSH2 0x6FD PUSH2 0x6DD CALLDATASIZE PUSH1 0x4 PUSH2 0x3143 JUMP JUMPDEST PUSH1 0x1 PUSH1 0x20 DUP2 SWAP1 MSTORE PUSH1 0x0 SWAP2 DUP3 MSTORE PUSH1 0x40 SWAP1 SWAP2 KECCAK256 DUP1 SLOAD SWAP2 ADD SLOAD PUSH1 0xF SWAP2 SWAP1 SWAP2 SIGNEXTEND SWAP1 DUP3 JUMP JUMPDEST PUSH1 0x40 DUP1 MLOAD PUSH1 0xF SWAP4 SWAP1 SWAP4 SIGNEXTEND DUP4 MSTORE PUSH1 0x20 DUP4 ADD SWAP2 SWAP1 SWAP2 MSTORE ADD PUSH2 0x34A JUMP JUMPDEST PUSH2 0x366 PUSH2 0x725 CALLDATASIZE PUSH1 0x4 PUSH2 0x32E1 JUMP JUMPDEST PUSH2 0x13F7 JUMP JUMPDEST PUSH2 0x366 PUSH2 0x738 CALLDATASIZE PUSH1 0x4 PUSH2 0x3143 JUMP JUMPDEST PUSH2 0x1524 JUMP JUMPDEST PUSH2 0x366 PUSH2 0x1553 JUMP JUMPDEST PUSH2 0x3A3 PUSH2 0x753 CALLDATASIZE PUSH1 0x4 PUSH2 0x3143 JUMP JUMPDEST PUSH2 0x1593 JUMP JUMPDEST PUSH2 0x366 PUSH2 0x766 CALLDATASIZE PUSH1 0x4 PUSH2 0x320D JUMP JUMPDEST PUSH2 0x1640 JUMP JUMPDEST PUSH2 0x437 PUSH2 0x779 CALLDATASIZE PUSH1 0x4 PUSH2 0x3143 JUMP JUMPDEST PUSH1 0x4 PUSH1 0x20 MSTORE PUSH1 0x0 SWAP1 DUP2 MSTORE PUSH1 0x40 SWAP1 KECCAK256 DUP1 SLOAD PUSH1 0x1 DUP3 ADD SLOAD PUSH1 0x2 SWAP1 SWAP3 ADD SLOAD PUSH1 0xF DUP3 DUP2 SIGNEXTEND SWAP4 PUSH1 0x1 PUSH1 0x80 SHL SWAP1 SWAP4 DIV SWAP1 SIGNEXTEND SWAP2 SWAP1 DUP5 JUMP JUMPDEST PUSH2 0x371 PUSH2 0x7B7 CALLDATASIZE PUSH1 0x4 PUSH2 0x33BD JUMP JUMPDEST PUSH2 0x17AB JUMP JUMPDEST PUSH2 0x371 PUSH2 0x7CA CALLDATASIZE PUSH1 0x4 PUSH2 0x320D JUMP JUMPDEST PUSH2 0x17EE JUMP JUMPDEST PUSH2 0x371 PUSH2 0x7DD CALLDATASIZE PUSH1 0x4 PUSH2 0x3143 JUMP JUMPDEST PUSH1 0x6 PUSH1 0x20 MSTORE PUSH1 0x0 SWAP1 DUP2 MSTORE PUSH1 0x40 SWAP1 KECCAK256 SLOAD DUP2 JUMP JUMPDEST PUSH2 0x371 PUSH2 0x7FD CALLDATASIZE PUSH1 0x4 PUSH2 0x3143 JUMP JUMPDEST PUSH2 0x17FA JUMP JUMPDEST PUSH2 0x33E PUSH2 0x810 CALLDATASIZE PUSH1 0x4 PUSH2 0x33F2 JUMP JUMPDEST PUSH1 0x1 PUSH1 0x1 PUSH1 0xA0 SHL SUB SWAP2 DUP3 AND PUSH1 0x0 SWAP1 DUP2 MSTORE PUSH1 0x11 PUSH1 0x20 SWAP1 DUP2 MSTORE PUSH1 0x40 DUP1 DUP4 KECCAK256 SWAP4 SWAP1 SWAP5 AND DUP3 MSTORE SWAP2 SWAP1 SWAP2 MSTORE KECCAK256 SLOAD PUSH1 0xFF AND SWAP1 JUMP JUMPDEST PUSH2 0x366 PUSH2 0x84C CALLDATASIZE PUSH1 0x4 PUSH2 0x320D JUMP JUMPDEST PUSH2 0x1822 JUMP JUMPDEST PUSH2 0x371 PUSH2 0x85F CALLDATASIZE PUSH1 0x4 PUSH2 0x3143 JUMP JUMPDEST PUSH1 0x0 SWAP1 DUP2 MSTORE PUSH1 0x1 PUSH1 0x20 DUP2 SWAP1 MSTORE PUSH1 0x40 SWAP1 SWAP2 KECCAK256 ADD SLOAD SWAP1 JUMP JUMPDEST PUSH2 0x3D9 PUSH32 0x0 DUP2 JUMP JUMPDEST PUSH2 0x366 PUSH2 0x8AA CALLDATASIZE PUSH1 0x4 PUSH2 0x3143 JUMP JUMPDEST PUSH2 0x18F6 JUMP JUMPDEST PUSH1 0xA SLOAD PUSH1 0x1 PUSH1 0x1 PUSH1 0xA0 SHL SUB AND CALLER EQ PUSH2 0x8C6 JUMPI PUSH1 0x0 DUP1 REVERT JUMPDEST PUSH1 0x0 SWAP1 DUP2 MSTORE PUSH1 0x8 PUSH1 0x20 MSTORE PUSH1 0x40 SWAP1 KECCAK256 PUSH1 0x1 SWAP1 SSTORE JUMP JUMPDEST PUSH1 0x0 DUP2 DUP2 MSTORE PUSH1 0xC PUSH1 0x20 MSTORE PUSH1 0x40 SWAP1 KECCAK256 SLOAD PUSH1 0x1 PUSH1 0x1 PUSH1 0xA0 SHL SUB AND DUP1 PUSH2 0x8FC JUMPI PUSH1 0x0 DUP1 REVERT JUMPDEST DUP1 PUSH1 0x1 PUSH1 0x1 PUSH1 0xA0 SHL SUB AND DUP4 PUSH1 0x1 PUSH1 0x1 PUSH1 0xA0 SHL SUB AND EQ ISZERO PUSH2 0x91B JUMPI PUSH1 0x0 DUP1 REVERT JUMPDEST PUSH1 0x0 DUP3 DUP2 MSTORE PUSH1 0xC PUSH1 0x20 SWAP1 DUP2 MSTORE PUSH1 0x40 DUP1 DUP4 KECCAK256 SLOAD PUSH1 0x1 PUSH1 0x1 PUSH1 0xA0 SHL SUB DUP6 DUP2 AND DUP6 MSTORE PUSH1 0x11 DUP5 MSTORE DUP3 DUP6 KECCAK256 CALLER DUP1 DUP8 MSTORE SWAP5 MSTORE SWAP2 SWAP1 SWAP4 KECCAK256 SLOAD SWAP3 AND EQ SWAP1 PUSH1 0xFF AND DUP2 DUP1 PUSH2 0x95C JUMPI POP DUP1 JUMPDEST PUSH2 0x965 JUMPI PUSH1 0x0 DUP1 REVERT JUMPDEST PUSH1 0x0 DUP5 DUP2 MSTORE PUSH1 0xD PUSH1 0x20 MSTORE PUSH1 0x40 DUP1 DUP3 KECCAK256 DUP1 SLOAD PUSH1 0x1 PUSH1 0x1 PUSH1 0xA0 SHL SUB NOT AND PUSH1 0x1 PUSH1 0x1 PUSH1 0xA0 SHL SUB DUP10 DUP2 AND SWAP2 DUP3 OR SWAP1 SWAP3 SSTORE SWAP2 MLOAD DUP8 SWAP4 SWAP2 DUP8 AND SWAP2 PUSH32 0x8C5BE1E5EBEC7D5BD14F71427D1E84F3DD0314C0F7B2291E5B200AC8C7C3B925 SWAP2 LOG4 POP POP POP POP POP JUMP JUMPDEST PUSH1 0x5 PUSH1 0x20 MSTORE DUP2 PUSH1 0x0 MSTORE PUSH1 0x40 PUSH1 0x0 KECCAK256 DUP2 PUSH4 0x3B9ACA00 DUP2 LT PUSH2 0x9E2 JUMPI PUSH1 0x0 DUP1 REVERT JUMPDEST PUSH1 0x3 MUL ADD DUP1 SLOAD PUSH1 0x1 DUP3 ADD SLOAD PUSH1 0x2 SWAP1 SWAP3 ADD SLOAD PUSH1 0xF DUP3 DUP2 SIGNEXTEND SWAP6 POP PUSH1 0x1 PUSH1 0x80 SHL SWAP1 SWAP3 DIV SWAP1 SWAP2 SIGNEXTEND SWAP3 POP DUP5 JUMP JUMPDEST PUSH1 0x0 PUSH2 0xA15 TIMESTAMP PUSH2 0xE22 JUMP JUMPDEST SWAP1 POP SWAP1 JUMP JUMPDEST PUSH1 0x0 DUP3 DUP2 MSTORE PUSH1 0x5 PUSH1 0x20 MSTORE PUSH1 0x40 DUP2 KECCAK256 DUP3 PUSH4 0x3B9ACA00 DUP2 LT PUSH2 0xA3C JUMPI PUSH2 0xA3C PUSH2 0x3425 JUMP JUMPDEST PUSH1 0x3 MUL ADD PUSH1 0x1 ADD SLOAD SWAP1 POP JUMPDEST SWAP3 SWAP2 POP POP JUMP JUMPDEST PUSH2 0xA59 DUP4 DUP4 DUP4 CALLER PUSH2 0x1928 JUMP JUMPDEST POP POP POP JUMP JUMPDEST PUSH1 0x13 SLOAD PUSH1 0xFF AND PUSH1 0x1 EQ PUSH2 0xA70 JUMPI PUSH1 0x0 DUP1 REVERT JUMPDEST PUSH1 0x13 DUP1 SLOAD PUSH1 0xFF NOT AND PUSH1 0x2 OR SWAP1 SSTORE PUSH2 0xA87 CALLER DUP3 PUSH2 0x19EE JUMP JUMPDEST PUSH2 0xA93 JUMPI PUSH2 0xA93 PUSH2 0x343B JUMP JUMPDEST PUSH1 0x0 DUP2 DUP2 MSTORE PUSH1 0x8 PUSH1 0x20 MSTORE PUSH1 0x40 SWAP1 KECCAK256 SLOAD ISZERO DUP1 ISZERO PUSH2 0xABE JUMPI POP PUSH1 0x0 DUP2 DUP2 MSTORE PUSH1 0x9 PUSH1 0x20 MSTORE PUSH1 0x40 SWAP1 KECCAK256 SLOAD PUSH1 0xFF AND ISZERO JUMPDEST PUSH2 0xAE3 JUMPI PUSH1 0x40 MLOAD PUSH3 0x461BCD PUSH1 0xE5 SHL DUP2 MSTORE PUSH1 0x4 ADD PUSH2 0xADA SWAP1 PUSH2 0x3451 JUMP JUMPDEST PUSH1 0x40 MLOAD DUP1 SWAP2 SUB SWAP1 REVERT JUMPDEST PUSH1 0x0 DUP2 DUP2 MSTORE PUSH1 0x1 PUSH1 0x20 DUP2 DUP2 MSTORE PUSH1 0x40 SWAP3 DUP4 SWAP1 KECCAK256 DUP4 MLOAD DUP1 DUP6 ADD SWAP1 SWAP5 MSTORE DUP1 SLOAD PUSH1 0xF SIGNEXTEND DUP5 MSTORE SWAP1 SWAP2 ADD SLOAD SWAP1 DUP3 ADD DUP2 SWAP1 MSTORE TIMESTAMP LT ISZERO PUSH2 0xB56 JUMPI PUSH1 0x40 MLOAD PUSH3 0x461BCD PUSH1 0xE5 SHL DUP2 MSTORE PUSH1 0x20 PUSH1 0x4 DUP3 ADD MSTORE PUSH1 0x16 PUSH1 0x24 DUP3 ADD MSTORE PUSH22 0x546865206C6F636B206469646E277420657870697265 PUSH1 0x50 SHL PUSH1 0x44 DUP3 ADD MSTORE PUSH1 0x64 ADD PUSH2 0xADA JUMP JUMPDEST DUP1 MLOAD PUSH1 0x40 DUP1 MLOAD DUP1 DUP3 ADD DUP3 MSTORE PUSH1 0x0 DUP1 DUP3 MSTORE PUSH1 0x20 DUP1 DUP4 ADD DUP3 DUP2 MSTORE DUP8 DUP4 MSTORE PUSH1 0x1 SWAP2 DUP3 SWAP1 MSTORE SWAP4 DUP3 KECCAK256 SWAP3 MLOAD DUP4 SLOAD PUSH1 0x1 PUSH1 0x1 PUSH1 0x80 SHL SUB NOT AND PUSH1 0x1 PUSH1 0x1 PUSH1 0x80 SHL SUB SWAP1 SWAP2 AND OR DUP4 SSTORE SWAP3 MLOAD SWAP2 SWAP1 SWAP3 ADD SSTORE SLOAD PUSH1 0xF SWAP2 SWAP1 SWAP2 SIGNEXTEND SWAP1 PUSH2 0xBAF DUP3 DUP3 PUSH2 0x3489 JUMP JUMPDEST PUSH1 0x0 DUP2 SWAP1 SSTORE POP PUSH2 0xBD9 DUP5 DUP5 PUSH1 0x40 MLOAD DUP1 PUSH1 0x40 ADD PUSH1 0x40 MSTORE DUP1 PUSH1 0x0 PUSH1 0xF SIGNEXTEND DUP2 MSTORE PUSH1 0x20 ADD PUSH1 0x0 DUP2 MSTORE POP PUSH2 0x1A54 JUMP JUMPDEST PUSH1 0x40 MLOAD PUSH4 0xA9059CBB PUSH1 0xE0 SHL DUP2 MSTORE CALLER PUSH1 0x4 DUP3 ADD MSTORE PUSH1 0x24 DUP2 ADD DUP4 SWAP1 MSTORE PUSH32 0x0 PUSH1 0x1 PUSH1 0x1 PUSH1 0xA0 SHL SUB AND SWAP1 PUSH4 0xA9059CBB SWAP1 PUSH1 0x44 ADD PUSH1 0x20 PUSH1 0x40 MLOAD DUP1 DUP4 SUB DUP2 PUSH1 0x0 DUP8 GAS CALL ISZERO DUP1 ISZERO PUSH2 0xC46 JUMPI RETURNDATASIZE PUSH1 0x0 DUP1 RETURNDATACOPY RETURNDATASIZE PUSH1 0x0 REVERT JUMPDEST POP POP POP POP PUSH1 0x40 MLOAD RETURNDATASIZE PUSH1 0x1F NOT PUSH1 0x1F DUP3 ADD AND DUP3 ADD DUP1 PUSH1 0x40 MSTORE POP DUP2 ADD SWAP1 PUSH2 0xC6A SWAP2 SWAP1 PUSH2 0x34A0 JUMP JUMPDEST PUSH2 0xC76 JUMPI PUSH2 0xC76 PUSH2 0x343B JUMP JUMPDEST PUSH2 0xC7F DUP5 PUSH2 0x20AD JUMP JUMPDEST PUSH1 0x40 DUP1 MLOAD DUP6 DUP2 MSTORE PUSH1 0x20 DUP2 ADD DUP5 SWAP1 MSTORE TIMESTAMP DUP2 DUP4 ADD MSTORE SWAP1 MLOAD CALLER SWAP2 PUSH32 0x2F25270A4D87BEA75DB541CDFE559334A275B4A233520ED6C0A2429667CCA94 SWAP2 SWAP1 DUP2 SWAP1 SUB PUSH1 0x60 ADD SWAP1 LOG2 PUSH32 0x5E2AA66EFD74CCE82B21852E317E5490D9ECC9E6BB953AE24D90851258CC2F5C DUP2 PUSH2 0xCED DUP5 DUP3 PUSH2 0x3489 JUMP JUMPDEST PUSH1 0x40 DUP1 MLOAD SWAP3 DUP4 MSTORE PUSH1 0x20 DUP4 ADD SWAP2 SWAP1 SWAP2 MSTORE ADD PUSH1 0x40 MLOAD DUP1 SWAP2 SUB SWAP1 LOG1 POP POP PUSH1 0x13 DUP1 SLOAD PUSH1 0xFF NOT AND PUSH1 0x1 OR SWAP1 SSTORE POP POP JUMP JUMPDEST PUSH2 0xA59 DUP4 DUP4 DUP4 PUSH1 0x40 MLOAD DUP1 PUSH1 0x20 ADD PUSH1 0x40 MSTORE DUP1 PUSH1 0x0 DUP2 MSTORE POP PUSH2 0x13F7 JUMP JUMPDEST PUSH1 0x0 PUSH2 0xD3F DUP4 DUP4 PUSH2 0x19EE JUMP JUMPDEST SWAP4 SWAP3 POP POP POP JUMP JUMPDEST PUSH1 0x0 DUP2 DUP2 MSTORE PUSH1 0x6 PUSH1 0x20 SWAP1 DUP2 MSTORE PUSH1 0x40 DUP1 DUP4 KECCAK256 SLOAD PUSH1 0x5 SWAP1 SWAP3 MSTORE DUP3 KECCAK256 DUP2 PUSH4 0x3B9ACA00 DUP2 LT PUSH2 0xD73 JUMPI PUSH2 0xD73 PUSH2 0x3425 JUMP JUMPDEST PUSH1 0x3 MUL ADD SLOAD PUSH1 0x1 PUSH1 0x80 SHL SWAP1 DIV PUSH1 0xF SIGNEXTEND SWAP4 SWAP3 POP POP POP JUMP JUMPDEST PUSH1 0xA SLOAD PUSH1 0x1 PUSH1 0x1 PUSH1 0xA0 SHL SUB AND CALLER EQ PUSH2 0xDA0 JUMPI PUSH1 0x0 DUP1 REVERT JUMPDEST PUSH1 0xA DUP1 SLOAD PUSH1 0x1 PUSH1 0x1 PUSH1 0xA0 SHL SUB NOT AND PUSH1 0x1 PUSH1 0x1 PUSH1 0xA0 SHL SUB SWAP3 SWAP1 SWAP3 AND SWAP2 SWAP1 SWAP2 OR SWAP1 SSTORE JUMP JUMPDEST PUSH1 0x13 SLOAD PUSH1 0x0 SWAP1 PUSH1 0xFF AND PUSH1 0x1 EQ PUSH2 0xDD7 JUMPI PUSH1 0x0 DUP1 REVERT JUMPDEST PUSH1 0x13 DUP1 SLOAD PUSH1 0xFF NOT AND PUSH1 0x2 OR SWAP1 SSTORE PUSH2 0xDEF DUP4 DUP4 CALLER PUSH2 0x216C JUMP JUMPDEST SWAP1 POP PUSH1 0x13 DUP1 SLOAD PUSH1 0xFF NOT AND PUSH1 0x1 OR SWAP1 SSTORE SWAP3 SWAP2 POP POP JUMP JUMPDEST PUSH1 0x1 PUSH1 0x1 PUSH1 0xA0 SHL SUB DUP2 AND PUSH1 0x0 SWAP1 DUP2 MSTORE PUSH1 0xE PUSH1 0x20 MSTORE PUSH1 0x40 DUP2 KECCAK256 SLOAD PUSH2 0xA47 JUMP JUMPDEST PUSH1 0x3 SLOAD PUSH1 0x0 DUP2 DUP2 MSTORE PUSH1 0x4 PUSH1 0x20 SWAP1 DUP2 MSTORE PUSH1 0x40 DUP1 DUP4 KECCAK256 DUP2 MLOAD PUSH1 0x80 DUP2 ADD DUP4 MSTORE DUP2 SLOAD PUSH1 0xF DUP2 DUP2 SIGNEXTEND DUP4 MSTORE PUSH1 0x1 PUSH1 0x80 SHL SWAP1 SWAP2 DIV SWAP1 SIGNEXTEND SWAP4 DUP2 ADD SWAP4 SWAP1 SWAP4 MSTORE PUSH1 0x1 DUP2 ADD SLOAD SWAP2 DUP4 ADD SWAP2 SWAP1 SWAP2 MSTORE PUSH1 0x2 ADD SLOAD PUSH1 0x60 DUP3 ADD MSTORE SWAP1 SWAP2 SWAP1 PUSH2 0xE7A DUP2 DUP6 PUSH2 0x234E JUMP JUMPDEST SWAP5 SWAP4 POP POP POP POP JUMP JUMPDEST PUSH1 0x0 PUSH2 0xD3F DUP4 DUP4 PUSH2 0x24AA JUMP JUMPDEST PUSH1 0x0 NUMBER DUP3 GT ISZERO PUSH2 0xEA0 JUMPI PUSH2 0xEA0 PUSH2 0x343B JUMP JUMPDEST PUSH1 0x3 SLOAD PUSH1 0x0 PUSH2 0xEAF DUP5 DUP4 PUSH2 0x2782 JUMP JUMPDEST PUSH1 0x0 DUP2 DUP2 MSTORE PUSH1 0x4 PUSH1 0x20 SWAP1 DUP2 MSTORE PUSH1 0x40 DUP1 DUP4 KECCAK256 DUP2 MLOAD PUSH1 0x80 DUP2 ADD DUP4 MSTORE DUP2 SLOAD PUSH1 0xF DUP2 DUP2 SIGNEXTEND DUP4 MSTORE PUSH1 0x1 PUSH1 0x80 SHL SWAP1 SWAP2 DIV SWAP1 SIGNEXTEND SWAP4 DUP2 ADD SWAP4 SWAP1 SWAP4 MSTORE PUSH1 0x1 DUP2 ADD SLOAD SWAP2 DUP4 ADD SWAP2 SWAP1 SWAP2 MSTORE PUSH1 0x2 ADD SLOAD PUSH1 0x60 DUP3 ADD MSTORE SWAP2 SWAP3 POP DUP4 DUP4 LT ISZERO PUSH2 0xFBE JUMPI PUSH1 0x0 PUSH1 0x4 DUP2 PUSH2 0xF12 DUP7 PUSH1 0x1 PUSH2 0x34BD JUMP JUMPDEST DUP2 MSTORE PUSH1 0x20 DUP1 DUP3 ADD SWAP3 SWAP1 SWAP3 MSTORE PUSH1 0x40 SWAP1 DUP2 ADD PUSH1 0x0 KECCAK256 DUP2 MLOAD PUSH1 0x80 DUP2 ADD DUP4 MSTORE DUP2 SLOAD PUSH1 0xF DUP2 DUP2 SIGNEXTEND DUP4 MSTORE PUSH1 0x1 PUSH1 0x80 SHL SWAP1 SWAP2 DIV SWAP1 SIGNEXTEND SWAP4 DUP2 ADD SWAP4 SWAP1 SWAP4 MSTORE PUSH1 0x1 DUP2 ADD SLOAD SWAP2 DUP4 ADD SWAP2 SWAP1 SWAP2 MSTORE PUSH1 0x2 ADD SLOAD PUSH1 0x60 DUP1 DUP4 ADD DUP3 SWAP1 MSTORE DUP6 ADD MLOAD SWAP2 SWAP3 POP EQ PUSH2 0xFB8 JUMPI DUP3 PUSH1 0x60 ADD MLOAD DUP2 PUSH1 0x60 ADD MLOAD PUSH2 0xF7E SWAP2 SWAP1 PUSH2 0x3489 JUMP JUMPDEST DUP4 PUSH1 0x40 ADD MLOAD DUP3 PUSH1 0x40 ADD MLOAD PUSH2 0xF92 SWAP2 SWAP1 PUSH2 0x3489 JUMP JUMPDEST PUSH1 0x60 DUP6 ADD MLOAD PUSH2 0xFA1 SWAP1 DUP11 PUSH2 0x3489 JUMP JUMPDEST PUSH2 0xFAB SWAP2 SWAP1 PUSH2 0x34D5 JUMP JUMPDEST PUSH2 0xFB5 SWAP2 SWAP1 PUSH2 0x350A JUMP JUMPDEST SWAP2 POP JUMPDEST POP PUSH2 0x100D JUMP JUMPDEST NUMBER DUP3 PUSH1 0x60 ADD MLOAD EQ PUSH2 0x100D JUMPI PUSH1 0x60 DUP3 ADD MLOAD PUSH2 0xFD8 SWAP1 NUMBER PUSH2 0x3489 JUMP JUMPDEST PUSH1 0x40 DUP4 ADD MLOAD PUSH2 0xFE7 SWAP1 TIMESTAMP PUSH2 0x3489 JUMP JUMPDEST PUSH1 0x60 DUP5 ADD MLOAD PUSH2 0xFF6 SWAP1 DUP10 PUSH2 0x3489 JUMP JUMPDEST PUSH2 0x1000 SWAP2 SWAP1 PUSH2 0x34D5 JUMP JUMPDEST PUSH2 0x100A SWAP2 SWAP1 PUSH2 0x350A JUMP JUMPDEST SWAP1 POP JUMPDEST PUSH2 0x1026 DUP3 DUP3 DUP5 PUSH1 0x40 ADD MLOAD PUSH2 0x1021 SWAP2 SWAP1 PUSH2 0x34BD JUMP JUMPDEST PUSH2 0x234E JUMP JUMPDEST SWAP7 SWAP6 POP POP POP POP POP POP JUMP JUMPDEST PUSH1 0xA SLOAD PUSH1 0x1 PUSH1 0x1 PUSH1 0xA0 SHL SUB AND CALLER EQ PUSH2 0x1047 JUMPI PUSH1 0x0 DUP1 REVERT JUMPDEST PUSH1 0x0 DUP2 DUP2 MSTORE PUSH1 0x8 PUSH1 0x20 MSTORE PUSH1 0x40 SWAP1 KECCAK256 SLOAD PUSH2 0x1062 SWAP1 PUSH1 0x1 SWAP1 PUSH2 0x3489 JUMP JUMPDEST PUSH1 0x0 SWAP2 DUP3 MSTORE PUSH1 0x8 PUSH1 0x20 MSTORE PUSH1 0x40 SWAP1 SWAP2 KECCAK256 SSTORE JUMP JUMPDEST PUSH1 0x13 SLOAD PUSH1 0xFF AND PUSH1 0x1 EQ PUSH2 0x1086 JUMPI PUSH1 0x0 DUP1 REVERT JUMPDEST PUSH1 0x13 DUP1 SLOAD PUSH1 0xFF NOT AND PUSH1 0x2 OR SWAP1 SSTORE PUSH2 0x109D CALLER DUP4 PUSH2 0x19EE JUMP JUMPDEST PUSH2 0x10A9 JUMPI PUSH2 0x10A9 PUSH2 0x343B JUMP JUMPDEST PUSH1 0x0 DUP3 DUP2 MSTORE PUSH1 0x1 PUSH1 0x20 DUP2 DUP2 MSTORE PUSH1 0x40 SWAP3 DUP4 SWAP1 KECCAK256 DUP4 MLOAD DUP1 DUP6 ADD SWAP1 SWAP5 MSTORE DUP1 SLOAD PUSH1 0xF SIGNEXTEND DUP5 MSTORE SWAP1 SWAP2 ADD SLOAD SWAP1 DUP3 ADD MSTORE DUP2 PUSH2 0x10DF JUMPI PUSH2 0x10DF PUSH2 0x343B JUMP JUMPDEST PUSH1 0x0 DUP2 PUSH1 0x0 ADD MLOAD PUSH1 0xF SIGNEXTEND SGT PUSH2 0x112F JUMPI PUSH1 0x40 MLOAD PUSH3 0x461BCD PUSH1 0xE5 SHL DUP2 MSTORE PUSH1 0x20 PUSH1 0x4 DUP3 ADD MSTORE PUSH1 0x16 PUSH1 0x24 DUP3 ADD MSTORE PUSH22 0x139BC8195E1A5CDD1A5B99C81B1BD8DAC8199BDD5B99 PUSH1 0x52 SHL PUSH1 0x44 DUP3 ADD MSTORE PUSH1 0x64 ADD PUSH2 0xADA JUMP JUMPDEST TIMESTAMP DUP2 PUSH1 0x20 ADD MLOAD GT PUSH2 0x1152 JUMPI PUSH1 0x40 MLOAD PUSH3 0x461BCD PUSH1 0xE5 SHL DUP2 MSTORE PUSH1 0x4 ADD PUSH2 0xADA SWAP1 PUSH2 0x351E JUMP JUMPDEST PUSH2 0x1161 DUP4 DUP4 PUSH1 0x0 DUP5 PUSH1 0x2 PUSH2 0x280C JUMP JUMPDEST POP POP PUSH1 0x13 DUP1 SLOAD PUSH1 0xFF NOT AND PUSH1 0x1 OR SWAP1 SSTORE POP JUMP JUMPDEST PUSH1 0x1 PUSH1 0x1 PUSH1 0xA0 SHL SUB DUP3 AND CALLER EQ ISZERO PUSH2 0x118C JUMPI PUSH2 0x118C PUSH2 0x343B JUMP JUMPDEST CALLER PUSH1 0x0 DUP2 DUP2 MSTORE PUSH1 0x11 PUSH1 0x20 SWAP1 DUP2 MSTORE PUSH1 0x40 DUP1 DUP4 KECCAK256 PUSH1 0x1 PUSH1 0x1 PUSH1 0xA0 SHL SUB DUP8 AND DUP1 DUP6 MSTORE SWAP1 DUP4 MSTORE SWAP3 DUP2 SWAP1 KECCAK256 DUP1 SLOAD PUSH1 0xFF NOT AND DUP7 ISZERO ISZERO SWAP1 DUP2 OR SWAP1 SWAP2 SSTORE SWAP1 MLOAD SWAP1 DUP2 MSTORE SWAP2 SWAP3 SWAP2 PUSH32 0x17307EAB39AB6107E8899845AD3D59BD9653F200F220920489CA2B5937696C31 SWAP2 ADD PUSH1 0x40 MLOAD DUP1 SWAP2 SUB SWAP1 LOG3 POP POP JUMP JUMPDEST PUSH1 0x13 SLOAD PUSH1 0xFF AND PUSH1 0x1 EQ PUSH2 0x120A JUMPI PUSH1 0x0 DUP1 REVERT JUMPDEST PUSH1 0x13 DUP1 SLOAD PUSH1 0xFF NOT AND PUSH1 0x2 OR SWAP1 SSTORE PUSH2 0x1221 CALLER DUP4 PUSH2 0x19EE JUMP JUMPDEST PUSH2 0x122D JUMPI PUSH2 0x122D PUSH2 0x343B JUMP JUMPDEST PUSH1 0x0 DUP3 DUP2 MSTORE PUSH1 0x1 PUSH1 0x20 DUP2 DUP2 MSTORE PUSH1 0x40 DUP1 DUP5 KECCAK256 DUP2 MLOAD DUP1 DUP4 ADD SWAP1 SWAP3 MSTORE DUP1 SLOAD PUSH1 0xF SIGNEXTEND DUP3 MSTORE SWAP1 SWAP3 ADD SLOAD SWAP1 DUP3 ADD MSTORE SWAP1 PUSH32 0x0 DUP1 PUSH2 0x1282 DUP6 TIMESTAMP PUSH2 0x34BD JUMP JUMPDEST PUSH2 0x128C SWAP2 SWAP1 PUSH2 0x350A JUMP JUMPDEST PUSH2 0x1296 SWAP2 SWAP1 PUSH2 0x34D5 JUMP JUMPDEST SWAP1 POP TIMESTAMP DUP3 PUSH1 0x20 ADD MLOAD GT PUSH2 0x12DA JUMPI PUSH1 0x40 MLOAD PUSH3 0x461BCD PUSH1 0xE5 SHL DUP2 MSTORE PUSH1 0x20 PUSH1 0x4 DUP3 ADD MSTORE PUSH1 0xC PUSH1 0x24 DUP3 ADD MSTORE PUSH12 0x131BD8DAC8195E1C1A5C9959 PUSH1 0xA2 SHL PUSH1 0x44 DUP3 ADD MSTORE PUSH1 0x64 ADD PUSH2 0xADA JUMP JUMPDEST PUSH1 0x0 DUP3 PUSH1 0x0 ADD MLOAD PUSH1 0xF SIGNEXTEND SGT PUSH2 0x1325 JUMPI PUSH1 0x40 MLOAD PUSH3 0x461BCD PUSH1 0xE5 SHL DUP2 MSTORE PUSH1 0x20 PUSH1 0x4 DUP3 ADD MSTORE PUSH1 0x11 PUSH1 0x24 DUP3 ADD MSTORE PUSH17 0x139BDD1A1A5B99C81A5CC81B1BD8DAD959 PUSH1 0x7A SHL PUSH1 0x44 DUP3 ADD MSTORE PUSH1 0x64 ADD PUSH2 0xADA JUMP JUMPDEST DUP2 PUSH1 0x20 ADD MLOAD DUP2 GT PUSH2 0x1378 JUMPI PUSH1 0x40 MLOAD PUSH3 0x461BCD PUSH1 0xE5 SHL DUP2 MSTORE PUSH1 0x20 PUSH1 0x4 DUP3 ADD MSTORE PUSH1 0x1F PUSH1 0x24 DUP3 ADD MSTORE PUSH32 0x43616E206F6E6C7920696E637265617365206C6F636B206475726174696F6E00 PUSH1 0x44 DUP3 ADD MSTORE PUSH1 0x64 ADD PUSH2 0xADA JUMP JUMPDEST PUSH2 0x1386 PUSH4 0x784CE00 TIMESTAMP PUSH2 0x34BD JUMP JUMPDEST DUP2 GT ISZERO PUSH2 0x13D5 JUMPI PUSH1 0x40 MLOAD PUSH3 0x461BCD PUSH1 0xE5 SHL DUP2 MSTORE PUSH1 0x20 PUSH1 0x4 DUP3 ADD MSTORE PUSH1 0x1E PUSH1 0x24 DUP3 ADD MSTORE PUSH32 0x566F74696E67206C6F636B2063616E2062652034207965617273206D61780000 PUSH1 0x44 DUP3 ADD MSTORE PUSH1 0x64 ADD PUSH2 0xADA JUMP JUMPDEST PUSH2 0x13E4 DUP5 PUSH1 0x0 DUP4 DUP6 PUSH1 0x3 PUSH2 0x280C JUMP JUMPDEST POP POP PUSH1 0x13 DUP1 SLOAD PUSH1 0xFF NOT AND PUSH1 0x1 OR SWAP1 SSTORE POP POP JUMP JUMPDEST PUSH2 0x1403 DUP5 DUP5 DUP5 CALLER PUSH2 0x1928 JUMP JUMPDEST DUP3 EXTCODESIZE ISZERO PUSH2 0x151E JUMPI PUSH1 0x40 MLOAD PUSH4 0xA85BD01 PUSH1 0xE1 SHL DUP2 MSTORE PUSH1 0x1 PUSH1 0x1 PUSH1 0xA0 SHL SUB DUP5 AND SWAP1 PUSH4 0x150B7A02 SWAP1 PUSH2 0x143C SWAP1 CALLER SWAP1 DUP9 SWAP1 DUP8 SWAP1 DUP8 SWAP1 PUSH1 0x4 ADD PUSH2 0x3562 JUMP JUMPDEST PUSH1 0x20 PUSH1 0x40 MLOAD DUP1 DUP4 SUB DUP2 PUSH1 0x0 DUP8 GAS CALL SWAP3 POP POP POP DUP1 ISZERO PUSH2 0x1477 JUMPI POP PUSH1 0x40 DUP1 MLOAD PUSH1 0x1F RETURNDATASIZE SWAP1 DUP2 ADD PUSH1 0x1F NOT AND DUP3 ADD SWAP1 SWAP3 MSTORE PUSH2 0x1474 SWAP2 DUP2 ADD SWAP1 PUSH2 0x3595 JUMP JUMPDEST PUSH1 0x1 JUMPDEST PUSH2 0x151C JUMPI RETURNDATASIZE DUP1 DUP1 ISZERO PUSH2 0x14A5 JUMPI PUSH1 0x40 MLOAD SWAP2 POP PUSH1 0x1F NOT PUSH1 0x3F RETURNDATASIZE ADD AND DUP3 ADD PUSH1 0x40 MSTORE RETURNDATASIZE DUP3 MSTORE RETURNDATASIZE PUSH1 0x0 PUSH1 0x20 DUP5 ADD RETURNDATACOPY PUSH2 0x14AA JUMP JUMPDEST PUSH1 0x60 SWAP2 POP JUMPDEST POP DUP1 MLOAD PUSH2 0x1514 JUMPI PUSH1 0x40 MLOAD PUSH3 0x461BCD PUSH1 0xE5 SHL DUP2 MSTORE PUSH1 0x20 PUSH1 0x4 DUP3 ADD MSTORE PUSH1 0x32 PUSH1 0x24 DUP3 ADD MSTORE PUSH32 0x4552433732313A207472616E7366657220746F206E6F6E204552433732315265 PUSH1 0x44 DUP3 ADD MSTORE PUSH18 0x31B2B4BB32B91034B6B83632B6B2B73A32B9 PUSH1 0x71 SHL PUSH1 0x64 DUP3 ADD MSTORE PUSH1 0x84 ADD PUSH2 0xADA JUMP JUMPDEST DUP1 MLOAD DUP2 PUSH1 0x20 ADD REVERT JUMPDEST POP JUMPDEST POP POP POP POP JUMP JUMPDEST PUSH1 0xA SLOAD PUSH1 0x1 PUSH1 0x1 PUSH1 0xA0 SHL SUB AND CALLER EQ PUSH2 0x153B JUMPI PUSH1 0x0 DUP1 REVERT JUMPDEST PUSH1 0x0 SWAP1 DUP2 MSTORE PUSH1 0x9 PUSH1 0x20 MSTORE PUSH1 0x40 SWAP1 KECCAK256 DUP1 SLOAD PUSH1 0xFF NOT AND SWAP1 SSTORE JUMP JUMPDEST PUSH2 0x1591 PUSH1 0x0 PUSH1 0x40 MLOAD DUP1 PUSH1 0x40 ADD PUSH1 0x40 MSTORE DUP1 PUSH1 0x0 PUSH1 0xF SIGNEXTEND DUP2 MSTORE PUSH1 0x20 ADD PUSH1 0x0 DUP2 MSTORE POP PUSH1 0x40 MLOAD DUP1 PUSH1 0x40 ADD PUSH1 0x40 MSTORE DUP1 PUSH1 0x0 PUSH1 0xF SIGNEXTEND DUP2 MSTORE PUSH1 0x20 ADD PUSH1 0x0 DUP2 MSTORE POP PUSH2 0x1A54 JUMP JUMPDEST JUMP JUMPDEST PUSH1 0x0 DUP2 DUP2 MSTORE PUSH1 0xC PUSH1 0x20 MSTORE PUSH1 0x40 SWAP1 KECCAK256 SLOAD PUSH1 0x60 SWAP1 PUSH1 0x1 PUSH1 0x1 PUSH1 0xA0 SHL SUB AND PUSH2 0x15FA JUMPI PUSH1 0x40 MLOAD PUSH3 0x461BCD PUSH1 0xE5 SHL DUP2 MSTORE PUSH1 0x20 PUSH1 0x4 DUP3 ADD MSTORE PUSH1 0x1B PUSH1 0x24 DUP3 ADD MSTORE PUSH32 0x517565727920666F72206E6F6E6578697374656E7420746F6B656E0000000000 PUSH1 0x44 DUP3 ADD MSTORE PUSH1 0x64 ADD PUSH2 0xADA JUMP JUMPDEST PUSH1 0x0 DUP3 DUP2 MSTORE PUSH1 0x1 PUSH1 0x20 DUP2 DUP2 MSTORE PUSH1 0x40 SWAP3 DUP4 SWAP1 KECCAK256 DUP4 MLOAD DUP1 DUP6 ADD SWAP1 SWAP5 MSTORE DUP1 SLOAD PUSH1 0xF SIGNEXTEND DUP5 MSTORE SWAP1 SWAP2 ADD SLOAD SWAP1 DUP3 ADD MSTORE PUSH2 0xD3F DUP4 PUSH2 0x1631 DUP2 TIMESTAMP PUSH2 0x2A11 JUMP JUMPDEST PUSH1 0x20 DUP5 ADD MLOAD DUP5 MLOAD PUSH1 0xF SIGNEXTEND PUSH2 0x2AE3 JUMP JUMPDEST PUSH1 0x0 DUP3 DUP2 MSTORE PUSH1 0x8 PUSH1 0x20 MSTORE PUSH1 0x40 SWAP1 KECCAK256 SLOAD ISZERO DUP1 ISZERO PUSH2 0x166B JUMPI POP PUSH1 0x0 DUP3 DUP2 MSTORE PUSH1 0x9 PUSH1 0x20 MSTORE PUSH1 0x40 SWAP1 KECCAK256 SLOAD PUSH1 0xFF AND ISZERO JUMPDEST PUSH2 0x1687 JUMPI PUSH1 0x40 MLOAD PUSH3 0x461BCD PUSH1 0xE5 SHL DUP2 MSTORE PUSH1 0x4 ADD PUSH2 0xADA SWAP1 PUSH2 0x3451 JUMP JUMPDEST DUP1 DUP3 EQ ISZERO PUSH2 0x1694 JUMPI PUSH1 0x0 DUP1 REVERT JUMPDEST PUSH2 0x169E CALLER DUP4 PUSH2 0x19EE JUMP JUMPDEST PUSH2 0x16A7 JUMPI PUSH1 0x0 DUP1 REVERT JUMPDEST PUSH2 0x16B1 CALLER DUP3 PUSH2 0x19EE JUMP JUMPDEST PUSH2 0x16BA JUMPI PUSH1 0x0 DUP1 REVERT JUMPDEST PUSH1 0x0 DUP3 DUP2 MSTORE PUSH1 0x1 PUSH1 0x20 DUP2 DUP2 MSTORE PUSH1 0x40 DUP1 DUP5 KECCAK256 DUP2 MLOAD DUP1 DUP4 ADD DUP4 MSTORE DUP2 SLOAD PUSH1 0xF SWAP1 DUP2 SIGNEXTEND DUP3 MSTORE SWAP2 DUP6 ADD SLOAD DUP2 DUP6 ADD SWAP1 DUP2 MSTORE DUP8 DUP8 MSTORE DUP6 DUP6 MSTORE DUP4 DUP8 KECCAK256 DUP5 MLOAD DUP1 DUP7 ADD SWAP1 SWAP6 MSTORE DUP1 SLOAD DUP5 SIGNEXTEND DUP6 MSTORE SWAP1 SWAP6 ADD SLOAD SWAP4 DUP4 ADD DUP5 SWAP1 MSTORE DUP1 MLOAD SWAP5 MLOAD SWAP1 SWAP6 SWAP3 SWAP5 SWAP1 SWAP2 SIGNEXTEND SWAP3 GT ISZERO PUSH2 0x1722 JUMPI DUP3 PUSH1 0x20 ADD MLOAD PUSH2 0x1728 JUMP JUMPDEST DUP4 PUSH1 0x20 ADD MLOAD JUMPDEST PUSH1 0x40 DUP1 MLOAD DUP1 DUP3 ADD DUP3 MSTORE PUSH1 0x0 DUP1 DUP3 MSTORE PUSH1 0x20 DUP1 DUP4 ADD DUP3 DUP2 MSTORE DUP12 DUP4 MSTORE PUSH1 0x1 DUP1 DUP4 MSTORE DUP6 DUP5 KECCAK256 SWAP5 MLOAD DUP6 SLOAD PUSH1 0x1 PUSH1 0x1 PUSH1 0x80 SHL SUB NOT AND PUSH1 0x1 PUSH1 0x1 PUSH1 0x80 SHL SUB SWAP1 SWAP2 AND OR DUP6 SSTORE SWAP1 MLOAD SWAP4 ADD SWAP3 SWAP1 SWAP3 SSTORE DUP3 MLOAD DUP1 DUP5 ADD SWAP1 SWAP4 MSTORE DUP1 DUP4 MSTORE SWAP1 DUP3 ADD MSTORE SWAP1 SWAP2 POP PUSH2 0x178C SWAP1 DUP8 SWAP1 DUP7 SWAP1 PUSH2 0x1A54 JUMP JUMPDEST PUSH2 0x1795 DUP7 PUSH2 0x20AD JUMP JUMPDEST PUSH2 0x17A3 DUP6 DUP4 DUP4 DUP7 PUSH1 0x4 PUSH2 0x280C JUMP JUMPDEST POP POP POP POP POP POP JUMP JUMPDEST PUSH1 0x13 SLOAD PUSH1 0x0 SWAP1 PUSH1 0xFF AND PUSH1 0x1 EQ PUSH2 0x17C0 JUMPI PUSH1 0x0 DUP1 REVERT JUMPDEST PUSH1 0x13 DUP1 SLOAD PUSH1 0xFF NOT AND PUSH1 0x2 OR SWAP1 SSTORE PUSH2 0x17D8 DUP5 DUP5 DUP5 PUSH2 0x216C JUMP JUMPDEST SWAP1 POP PUSH1 0x13 DUP1 SLOAD PUSH1 0xFF NOT AND PUSH1 0x1 OR SWAP1 SSTORE SWAP4 SWAP3 POP POP POP JUMP JUMPDEST PUSH1 0x0 PUSH2 0xD3F DUP4 DUP4 PUSH2 0x2A11 JUMP JUMPDEST PUSH1 0x0 DUP2 DUP2 MSTORE PUSH1 0x2 PUSH1 0x20 MSTORE PUSH1 0x40 DUP2 KECCAK256 SLOAD NUMBER EQ ISZERO PUSH2 0x1818 JUMPI POP PUSH1 0x0 SWAP2 SWAP1 POP JUMP JUMPDEST PUSH2 0xA47 DUP3 TIMESTAMP PUSH2 0x2A11 JUMP JUMPDEST PUSH1 0x13 SLOAD PUSH1 0xFF AND PUSH1 0x1 EQ PUSH2 0x1834 JUMPI PUSH1 0x0 DUP1 REVERT JUMPDEST PUSH1 0x13 DUP1 SLOAD PUSH1 0xFF NOT AND PUSH1 0x2 OR SWAP1 SSTORE PUSH1 0x0 DUP3 DUP2 MSTORE PUSH1 0x1 PUSH1 0x20 DUP2 DUP2 MSTORE PUSH1 0x40 SWAP3 DUP4 SWAP1 KECCAK256 DUP4 MLOAD DUP1 DUP6 ADD SWAP1 SWAP5 MSTORE DUP1 SLOAD PUSH1 0xF SIGNEXTEND DUP5 MSTORE SWAP1 SWAP2 ADD SLOAD SWAP1 DUP3 ADD MSTORE DUP2 PUSH2 0x1874 JUMPI PUSH1 0x0 DUP1 REVERT JUMPDEST PUSH1 0x0 DUP2 PUSH1 0x0 ADD MLOAD PUSH1 0xF SIGNEXTEND SGT PUSH2 0x18C4 JUMPI PUSH1 0x40 MLOAD PUSH3 0x461BCD PUSH1 0xE5 SHL DUP2 MSTORE PUSH1 0x20 PUSH1 0x4 DUP3 ADD MSTORE PUSH1 0x16 PUSH1 0x24 DUP3 ADD MSTORE PUSH22 0x139BC8195E1A5CDD1A5B99C81B1BD8DAC8199BDD5B99 PUSH1 0x52 SHL PUSH1 0x44 DUP3 ADD MSTORE PUSH1 0x64 ADD PUSH2 0xADA JUMP JUMPDEST TIMESTAMP DUP2 PUSH1 0x20 ADD MLOAD GT PUSH2 0x18E7 JUMPI PUSH1 0x40 MLOAD PUSH3 0x461BCD PUSH1 0xE5 SHL DUP2 MSTORE PUSH1 0x4 ADD PUSH2 0xADA SWAP1 PUSH2 0x351E JUMP JUMPDEST PUSH2 0x1161 DUP4 DUP4 PUSH1 0x0 DUP5 PUSH1 0x0 PUSH2 0x280C JUMP JUMPDEST PUSH1 0xA SLOAD PUSH1 0x1 PUSH1 0x1 PUSH1 0xA0 SHL SUB AND CALLER EQ PUSH2 0x190D JUMPI PUSH1 0x0 DUP1 REVERT JUMPDEST PUSH1 0x0 SWAP1 DUP2 MSTORE PUSH1 0x9 PUSH1 0x20 MSTORE PUSH1 0x40 SWAP1 KECCAK256 DUP1 SLOAD PUSH1 0xFF NOT AND PUSH1 0x1 OR SWAP1 SSTORE JUMP JUMPDEST PUSH1 0x0 DUP3 DUP2 MSTORE PUSH1 0x8 PUSH1 0x20 MSTORE PUSH1 0x40 SWAP1 KECCAK256 SLOAD ISZERO DUP1 ISZERO PUSH2 0x1953 JUMPI POP PUSH1 0x0 DUP3 DUP2 MSTORE PUSH1 0x9 PUSH1 0x20 MSTORE PUSH1 0x40 SWAP1 KECCAK256 SLOAD PUSH1 0xFF AND ISZERO JUMPDEST PUSH2 0x196F JUMPI PUSH1 0x40 MLOAD PUSH3 0x461BCD PUSH1 0xE5 SHL DUP2 MSTORE PUSH1 0x4 ADD PUSH2 0xADA SWAP1 PUSH2 0x3451 JUMP JUMPDEST PUSH2 0x1979 DUP2 DUP4 PUSH2 0x19EE JUMP JUMPDEST PUSH2 0x1982 JUMPI PUSH1 0x0 DUP1 REVERT JUMPDEST PUSH2 0x198C DUP5 DUP4 PUSH2 0x2C1A JUMP JUMPDEST PUSH2 0x1996 DUP5 DUP4 PUSH2 0x2C81 JUMP JUMPDEST PUSH2 0x19A0 DUP4 DUP4 PUSH2 0x2D02 JUMP JUMPDEST PUSH1 0x0 DUP3 DUP2 MSTORE PUSH1 0x2 PUSH1 0x20 MSTORE PUSH1 0x40 DUP1 DUP3 KECCAK256 NUMBER SWAP1 SSTORE MLOAD DUP4 SWAP2 PUSH1 0x1 PUSH1 0x1 PUSH1 0xA0 SHL SUB DUP1 DUP8 AND SWAP3 SWAP1 DUP9 AND SWAP2 PUSH32 0xDDF252AD1BE2C89B69C2B068FC378DAA952BA7F163C4A11628F55A4DF523B3EF SWAP2 LOG4 POP POP POP POP JUMP JUMPDEST PUSH1 0x0 DUP2 DUP2 MSTORE PUSH1 0xC PUSH1 0x20 SWAP1 DUP2 MSTORE PUSH1 0x40 DUP1 DUP4 KECCAK256 SLOAD PUSH1 0xD DUP4 MSTORE DUP2 DUP5 KECCAK256 SLOAD PUSH1 0x1 PUSH1 0x1 PUSH1 0xA0 SHL SUB SWAP2 DUP3 AND DUP1 DUP7 MSTORE PUSH1 0x11 DUP6 MSTORE DUP4 DUP7 KECCAK256 DUP9 DUP5 AND DUP1 DUP9 MSTORE SWAP6 MSTORE SWAP3 DUP6 KECCAK256 SLOAD SWAP3 SWAP4 DUP1 DUP6 EQ SWAP4 SWAP3 SWAP1 SWAP2 AND EQ SWAP1 PUSH1 0xFF AND DUP3 DUP1 PUSH2 0x1A41 JUMPI POP DUP2 JUMPDEST DUP1 PUSH2 0x1A49 JUMPI POP DUP1 JUMPDEST SWAP8 SWAP7 POP POP POP POP POP POP POP JUMP JUMPDEST PUSH1 0x40 DUP1 MLOAD PUSH1 0x80 DUP2 ADD DUP3 MSTORE PUSH1 0x0 DUP1 DUP3 MSTORE PUSH1 0x20 DUP3 ADD DUP2 SWAP1 MSTORE SWAP2 DUP2 ADD DUP3 SWAP1 MSTORE PUSH1 0x60 DUP2 ADD SWAP2 SWAP1 SWAP2 MSTORE PUSH1 0x40 DUP1 MLOAD PUSH1 0x80 DUP2 ADD DUP3 MSTORE PUSH1 0x0 DUP1 DUP3 MSTORE PUSH1 0x20 DUP3 ADD DUP2 SWAP1 MSTORE SWAP2 DUP2 ADD DUP3 SWAP1 MSTORE PUSH1 0x60 DUP2 ADD SWAP2 SWAP1 SWAP2 MSTORE PUSH1 0x3 SLOAD PUSH1 0x0 SWAP1 DUP2 SWAP1 DUP8 ISZERO PUSH2 0x1BC0 JUMPI TIMESTAMP DUP8 PUSH1 0x20 ADD MLOAD GT DUP1 ISZERO PUSH2 0x1AC4 JUMPI POP PUSH1 0x0 DUP8 PUSH1 0x0 ADD MLOAD PUSH1 0xF SIGNEXTEND SGT JUMPDEST ISZERO PUSH2 0x1B09 JUMPI DUP7 MLOAD PUSH2 0x1ADA SWAP1 PUSH4 0x784CE00 SWAP1 PUSH2 0x35B2 JUMP JUMPDEST PUSH1 0xF SIGNEXTEND PUSH1 0x20 DUP1 DUP8 ADD SWAP2 SWAP1 SWAP2 MSTORE DUP8 ADD MLOAD PUSH2 0x1AF4 SWAP1 TIMESTAMP SWAP1 PUSH2 0x3489 JUMP JUMPDEST DUP6 PUSH1 0x20 ADD MLOAD PUSH2 0x1B03 SWAP2 SWAP1 PUSH2 0x35F0 JUMP JUMPDEST PUSH1 0xF SIGNEXTEND DUP6 MSTORE JUMPDEST TIMESTAMP DUP7 PUSH1 0x20 ADD MLOAD GT DUP1 ISZERO PUSH2 0x1B23 JUMPI POP PUSH1 0x0 DUP7 PUSH1 0x0 ADD MLOAD PUSH1 0xF SIGNEXTEND SGT JUMPDEST ISZERO PUSH2 0x1B68 JUMPI DUP6 MLOAD PUSH2 0x1B39 SWAP1 PUSH4 0x784CE00 SWAP1 PUSH2 0x35B2 JUMP JUMPDEST PUSH1 0xF SIGNEXTEND PUSH1 0x20 DUP1 DUP7 ADD SWAP2 SWAP1 SWAP2 MSTORE DUP7 ADD MLOAD PUSH2 0x1B53 SWAP1 TIMESTAMP SWAP1 PUSH2 0x3489 JUMP JUMPDEST DUP5 PUSH1 0x20 ADD MLOAD PUSH2 0x1B62 SWAP2 SWAP1 PUSH2 0x35F0 JUMP JUMPDEST PUSH1 0xF SIGNEXTEND DUP5 MSTORE JUMPDEST PUSH1 0x20 DUP1 DUP9 ADD MLOAD PUSH1 0x0 SWAP1 DUP2 MSTORE PUSH1 0x7 DUP3 MSTORE PUSH1 0x40 SWAP1 KECCAK256 SLOAD SWAP1 DUP8 ADD MLOAD PUSH1 0xF SWAP2 SWAP1 SWAP2 SIGNEXTEND SWAP4 POP ISZERO PUSH2 0x1BC0 JUMPI DUP7 PUSH1 0x20 ADD MLOAD DUP7 PUSH1 0x20 ADD MLOAD EQ ISZERO PUSH2 0x1BA5 JUMPI DUP3 SWAP2 POP PUSH2 0x1BC0 JUMP JUMPDEST PUSH1 0x20 DUP1 DUP8 ADD MLOAD PUSH1 0x0 SWAP1 DUP2 MSTORE PUSH1 0x7 SWAP1 SWAP2 MSTORE PUSH1 0x40 SWAP1 KECCAK256 SLOAD PUSH1 0xF SIGNEXTEND SWAP2 POP JUMPDEST PUSH1 0x40 DUP1 MLOAD PUSH1 0x80 DUP2 ADD DUP3 MSTORE PUSH1 0x0 DUP1 DUP3 MSTORE PUSH1 0x20 DUP3 ADD MSTORE TIMESTAMP SWAP2 DUP2 ADD SWAP2 SWAP1 SWAP2 MSTORE NUMBER PUSH1 0x60 DUP3 ADD MSTORE DUP2 ISZERO PUSH2 0x1C35 JUMPI POP PUSH1 0x0 DUP2 DUP2 MSTORE PUSH1 0x4 PUSH1 0x20 SWAP1 DUP2 MSTORE PUSH1 0x40 SWAP2 DUP3 SWAP1 KECCAK256 DUP3 MLOAD PUSH1 0x80 DUP2 ADD DUP5 MSTORE DUP2 SLOAD PUSH1 0xF DUP2 DUP2 SIGNEXTEND DUP4 MSTORE PUSH1 0x1 PUSH1 0x80 SHL SWAP1 SWAP2 DIV SWAP1 SIGNEXTEND SWAP3 DUP2 ADD SWAP3 SWAP1 SWAP3 MSTORE PUSH1 0x1 DUP2 ADD SLOAD SWAP3 DUP3 ADD SWAP3 SWAP1 SWAP3 MSTORE PUSH1 0x2 SWAP1 SWAP2 ADD SLOAD PUSH1 0x60 DUP3 ADD MSTORE JUMPDEST PUSH1 0x40 DUP2 ADD MLOAD DUP2 PUSH1 0x0 TIMESTAMP DUP4 LT ISZERO PUSH2 0x1C82 JUMPI PUSH1 0x40 DUP5 ADD MLOAD PUSH2 0x1C54 SWAP1 TIMESTAMP PUSH2 0x3489 JUMP JUMPDEST PUSH1 0x60 DUP6 ADD MLOAD PUSH2 0x1C63 SWAP1 NUMBER PUSH2 0x3489 JUMP JUMPDEST PUSH2 0x1C75 SWAP1 PUSH8 0xDE0B6B3A7640000 PUSH2 0x34D5 JUMP JUMPDEST PUSH2 0x1C7F SWAP2 SWAP1 PUSH2 0x350A JUMP JUMPDEST SWAP1 POP JUMPDEST PUSH1 0x0 PUSH32 0x0 PUSH2 0x1CAF DUP2 DUP7 PUSH2 0x350A JUMP JUMPDEST PUSH2 0x1CB9 SWAP2 SWAP1 PUSH2 0x34D5 JUMP JUMPDEST SWAP1 POP PUSH1 0x0 JUMPDEST PUSH1 0xFF DUP2 LT ISZERO PUSH2 0x1E51 JUMPI PUSH2 0x1CF1 PUSH32 0x0 DUP4 PUSH2 0x34BD JUMP JUMPDEST SWAP2 POP PUSH1 0x0 TIMESTAMP DUP4 GT ISZERO PUSH2 0x1D05 JUMPI TIMESTAMP SWAP3 POP PUSH2 0x1D19 JUMP JUMPDEST POP PUSH1 0x0 DUP3 DUP2 MSTORE PUSH1 0x7 PUSH1 0x20 MSTORE PUSH1 0x40 SWAP1 KECCAK256 SLOAD PUSH1 0xF SIGNEXTEND JUMPDEST PUSH2 0x1D23 DUP7 DUP5 PUSH2 0x3489 JUMP JUMPDEST DUP8 PUSH1 0x20 ADD MLOAD PUSH2 0x1D32 SWAP2 SWAP1 PUSH2 0x35F0 JUMP JUMPDEST DUP8 MLOAD DUP9 SWAP1 PUSH2 0x1D41 SWAP1 DUP4 SWAP1 PUSH2 0x3685 JUMP JUMPDEST PUSH1 0xF SIGNEXTEND SWAP1 MSTORE POP PUSH1 0x20 DUP8 ADD DUP1 MLOAD DUP3 SWAP2 SWAP1 PUSH2 0x1D5B SWAP1 DUP4 SWAP1 PUSH2 0x36D5 JUMP JUMPDEST PUSH1 0xF SWAP1 DUP2 SIGNEXTEND SWAP1 SWAP2 MSTORE DUP9 MLOAD PUSH1 0x0 SWAP2 SIGNEXTEND SLT ISZERO SWAP1 POP PUSH2 0x1D76 JUMPI PUSH1 0x0 DUP8 MSTORE JUMPDEST PUSH1 0x0 DUP8 PUSH1 0x20 ADD MLOAD PUSH1 0xF SIGNEXTEND SLT ISZERO PUSH2 0x1D8E JUMPI PUSH1 0x0 PUSH1 0x20 DUP9 ADD MSTORE JUMPDEST PUSH1 0x40 DUP1 DUP9 ADD DUP5 SWAP1 MSTORE DUP6 ADD MLOAD SWAP3 SWAP6 POP DUP6 SWAP3 PUSH8 0xDE0B6B3A7640000 SWAP1 PUSH2 0x1DB2 SWAP1 DUP6 PUSH2 0x3489 JUMP JUMPDEST PUSH2 0x1DBC SWAP1 DUP7 PUSH2 0x34D5 JUMP JUMPDEST PUSH2 0x1DC6 SWAP2 SWAP1 PUSH2 0x350A JUMP JUMPDEST DUP6 PUSH1 0x60 ADD MLOAD PUSH2 0x1DD5 SWAP2 SWAP1 PUSH2 0x34BD JUMP JUMPDEST PUSH1 0x60 DUP9 ADD MSTORE PUSH2 0x1DE5 PUSH1 0x1 DUP10 PUSH2 0x34BD JUMP JUMPDEST SWAP8 POP TIMESTAMP DUP4 EQ ISZERO PUSH2 0x1DFB JUMPI POP NUMBER PUSH1 0x60 DUP8 ADD MSTORE PUSH2 0x1E51 JUMP JUMPDEST PUSH1 0x0 DUP9 DUP2 MSTORE PUSH1 0x4 PUSH1 0x20 SWAP1 DUP2 MSTORE PUSH1 0x40 SWAP2 DUP3 SWAP1 KECCAK256 DUP10 MLOAD SWAP2 DUP11 ADD MLOAD PUSH1 0x1 PUSH1 0x1 PUSH1 0x80 SHL SUB SWAP1 DUP2 AND PUSH1 0x1 PUSH1 0x80 SHL MUL SWAP3 AND SWAP2 SWAP1 SWAP2 OR DUP2 SSTORE SWAP1 DUP9 ADD MLOAD PUSH1 0x1 DUP3 ADD SSTORE PUSH1 0x60 DUP9 ADD MLOAD PUSH1 0x2 SWAP1 SWAP2 ADD SSTORE POP PUSH2 0x1E4A DUP2 PUSH2 0x3724 JUMP JUMPDEST SWAP1 POP PUSH2 0x1CBE JUMP JUMPDEST POP POP PUSH1 0x3 DUP6 SWAP1 SSTORE DUP12 ISZERO PUSH2 0x1EDC JUMPI DUP9 PUSH1 0x20 ADD MLOAD DUP9 PUSH1 0x20 ADD MLOAD PUSH2 0x1E72 SWAP2 SWAP1 PUSH2 0x3685 JUMP JUMPDEST DUP5 PUSH1 0x20 ADD DUP2 DUP2 MLOAD PUSH2 0x1E83 SWAP2 SWAP1 PUSH2 0x36D5 JUMP JUMPDEST PUSH1 0xF SIGNEXTEND SWAP1 MSTORE POP DUP9 MLOAD DUP9 MLOAD PUSH2 0x1E97 SWAP2 SWAP1 PUSH2 0x3685 JUMP JUMPDEST DUP5 MLOAD DUP6 SWAP1 PUSH2 0x1EA6 SWAP1 DUP4 SWAP1 PUSH2 0x36D5 JUMP JUMPDEST PUSH1 0xF SWAP1 DUP2 SIGNEXTEND SWAP1 SWAP2 MSTORE PUSH1 0x20 DUP7 ADD MLOAD PUSH1 0x0 SWAP2 SIGNEXTEND SLT ISZERO SWAP1 POP PUSH2 0x1EC7 JUMPI PUSH1 0x0 PUSH1 0x20 DUP6 ADD MSTORE JUMPDEST PUSH1 0x0 DUP5 PUSH1 0x0 ADD MLOAD PUSH1 0xF SIGNEXTEND SLT ISZERO PUSH2 0x1EDC JUMPI PUSH1 0x0 DUP5 MSTORE JUMPDEST PUSH1 0x0 DUP6 DUP2 MSTORE PUSH1 0x4 PUSH1 0x20 SWAP1 DUP2 MSTORE PUSH1 0x40 SWAP2 DUP3 SWAP1 KECCAK256 DUP7 MLOAD SWAP2 DUP8 ADD MLOAD PUSH1 0x1 PUSH1 0x1 PUSH1 0x80 SHL SUB SWAP1 DUP2 AND PUSH1 0x1 PUSH1 0x80 SHL MUL SWAP3 AND SWAP2 SWAP1 SWAP2 OR DUP2 SSTORE SWAP1 DUP6 ADD MLOAD PUSH1 0x1 DUP3 ADD SSTORE PUSH1 0x60 DUP6 ADD MLOAD PUSH1 0x2 SWAP1 SWAP2 ADD SSTORE DUP12 ISZERO PUSH2 0x209F JUMPI TIMESTAMP DUP12 PUSH1 0x20 ADD MLOAD GT ISZERO PUSH2 0x1F94 JUMPI PUSH1 0x20 DUP10 ADD MLOAD PUSH2 0x1F42 SWAP1 DUP9 PUSH2 0x36D5 JUMP JUMPDEST SWAP7 POP DUP11 PUSH1 0x20 ADD MLOAD DUP11 PUSH1 0x20 ADD MLOAD EQ ISZERO PUSH2 0x1F66 JUMPI PUSH1 0x20 DUP9 ADD MLOAD PUSH2 0x1F63 SWAP1 DUP9 PUSH2 0x3685 JUMP JUMPDEST SWAP7 POP JUMPDEST PUSH1 0x20 DUP12 DUP2 ADD MLOAD PUSH1 0x0 SWAP1 DUP2 MSTORE PUSH1 0x7 SWAP1 SWAP2 MSTORE PUSH1 0x40 SWAP1 KECCAK256 DUP1 SLOAD PUSH1 0x1 PUSH1 0x1 PUSH1 0x80 SHL SUB NOT AND PUSH1 0x1 PUSH1 0x1 PUSH1 0x80 SHL SUB DUP10 AND OR SWAP1 SSTORE JUMPDEST TIMESTAMP DUP11 PUSH1 0x20 ADD MLOAD GT ISZERO PUSH2 0x1FEF JUMPI DUP11 PUSH1 0x20 ADD MLOAD DUP11 PUSH1 0x20 ADD MLOAD GT ISZERO PUSH2 0x1FEF JUMPI PUSH1 0x20 DUP9 ADD MLOAD PUSH2 0x1FBF SWAP1 DUP8 PUSH2 0x3685 JUMP JUMPDEST PUSH1 0x20 DUP12 DUP2 ADD MLOAD PUSH1 0x0 SWAP1 DUP2 MSTORE PUSH1 0x7 SWAP1 SWAP2 MSTORE PUSH1 0x40 SWAP1 KECCAK256 DUP1 SLOAD PUSH1 0x1 PUSH1 0x1 PUSH1 0x80 SHL SUB NOT AND PUSH1 0x1 PUSH1 0x1 PUSH1 0x80 SHL SUB DUP4 AND OR SWAP1 SSTORE SWAP6 POP JUMPDEST PUSH1 0x0 DUP13 DUP2 MSTORE PUSH1 0x6 PUSH1 0x20 MSTORE PUSH1 0x40 DUP2 KECCAK256 SLOAD PUSH2 0x2009 SWAP1 PUSH1 0x1 PUSH2 0x34BD JUMP JUMPDEST SWAP1 POP DUP1 PUSH1 0x6 PUSH1 0x0 DUP16 DUP2 MSTORE PUSH1 0x20 ADD SWAP1 DUP2 MSTORE PUSH1 0x20 ADD PUSH1 0x0 KECCAK256 DUP2 SWAP1 SSTORE POP TIMESTAMP DUP10 PUSH1 0x40 ADD DUP2 DUP2 MSTORE POP POP NUMBER DUP10 PUSH1 0x60 ADD DUP2 DUP2 MSTORE POP POP DUP9 PUSH1 0x5 PUSH1 0x0 DUP16 DUP2 MSTORE PUSH1 0x20 ADD SWAP1 DUP2 MSTORE PUSH1 0x20 ADD PUSH1 0x0 KECCAK256 DUP3 PUSH4 0x3B9ACA00 DUP2 LT PUSH2 0x205F JUMPI PUSH2 0x205F PUSH2 0x3425 JUMP JUMPDEST DUP3 MLOAD PUSH1 0x20 DUP5 ADD MLOAD PUSH1 0x1 PUSH1 0x1 PUSH1 0x80 SHL SUB SWAP1 DUP2 AND PUSH1 0x1 PUSH1 0x80 SHL MUL SWAP2 AND OR PUSH1 0x3 SWAP2 SWAP1 SWAP2 MUL SWAP2 SWAP1 SWAP2 ADD SWAP1 DUP2 SSTORE PUSH1 0x40 DUP3 ADD MLOAD PUSH1 0x1 DUP3 ADD SSTORE PUSH1 0x60 SWAP1 SWAP2 ADD MLOAD PUSH1 0x2 SWAP1 SWAP2 ADD SSTORE POP JUMPDEST POP POP POP POP POP POP POP POP POP POP POP POP JUMP JUMPDEST PUSH2 0x20B7 CALLER DUP3 PUSH2 0x19EE JUMP JUMPDEST PUSH2 0x2103 JUMPI PUSH1 0x40 MLOAD PUSH3 0x461BCD PUSH1 0xE5 SHL DUP2 MSTORE PUSH1 0x20 PUSH1 0x4 DUP3 ADD DUP2 SWAP1 MSTORE PUSH1 0x24 DUP3 ADD MSTORE PUSH32 0x63616C6C6572206973206E6F74206F776E6572206E6F7220617070726F766564 PUSH1 0x44 DUP3 ADD MSTORE PUSH1 0x64 ADD PUSH2 0xADA JUMP JUMPDEST PUSH1 0x0 DUP2 DUP2 MSTORE PUSH1 0xC PUSH1 0x20 MSTORE PUSH1 0x40 DUP2 KECCAK256 SLOAD PUSH1 0x1 PUSH1 0x1 PUSH1 0xA0 SHL SUB AND SWAP1 PUSH2 0x2126 SWAP1 DUP4 PUSH2 0x8DA JUMP JUMPDEST PUSH2 0x2130 CALLER DUP4 PUSH2 0x2C81 JUMP JUMPDEST PUSH1 0x40 MLOAD DUP3 SWAP1 PUSH1 0x0 SWAP1 PUSH1 0x1 PUSH1 0x1 PUSH1 0xA0 SHL SUB DUP5 AND SWAP1 PUSH32 0xDDF252AD1BE2C89B69C2B068FC378DAA952BA7F163C4A11628F55A4DF523B3EF SWAP1 DUP4 SWAP1 LOG4 POP POP JUMP JUMPDEST PUSH1 0x0 DUP1 PUSH32 0x0 DUP1 PUSH2 0x219B DUP7 TIMESTAMP PUSH2 0x34BD JUMP JUMPDEST PUSH2 0x21A5 SWAP2 SWAP1 PUSH2 0x350A JUMP JUMPDEST PUSH2 0x21AF SWAP2 SWAP1 PUSH2 0x34D5 JUMP JUMPDEST SWAP1 POP PUSH1 0x0 DUP6 GT PUSH2 0x21EA JUMPI PUSH1 0x40 MLOAD PUSH3 0x461BCD PUSH1 0xE5 SHL DUP2 MSTORE PUSH1 0x4 ADD PUSH2 0xADA SWAP1 PUSH1 0x20 DUP1 DUP3 MSTORE PUSH1 0x4 SWAP1 DUP3 ADD MSTORE PUSH4 0x76203E3 PUSH1 0xE4 SHL PUSH1 0x40 DUP3 ADD MSTORE PUSH1 0x60 ADD SWAP1 JUMP JUMPDEST PUSH2 0x21F3 DUP4 PUSH2 0xE04 JUMP JUMPDEST ISZERO PUSH2 0x2232 JUMPI PUSH1 0x40 MLOAD PUSH3 0x461BCD PUSH1 0xE5 SHL DUP2 MSTORE PUSH1 0x20 PUSH1 0x4 DUP3 ADD MSTORE PUSH1 0xF PUSH1 0x24 DUP3 ADD MSTORE PUSH15 0x1B195CDCC81D1A185B880C481B999D PUSH1 0x8A SHL PUSH1 0x44 DUP3 ADD MSTORE PUSH1 0x64 ADD PUSH2 0xADA JUMP JUMPDEST TIMESTAMP DUP2 GT PUSH2 0x2290 JUMPI PUSH1 0x40 MLOAD PUSH3 0x461BCD PUSH1 0xE5 SHL DUP2 MSTORE PUSH1 0x20 PUSH1 0x4 DUP3 ADD MSTORE PUSH1 0x26 PUSH1 0x24 DUP3 ADD MSTORE PUSH32 0x43616E206F6E6C79206C6F636B20756E74696C2074696D6520696E2074686520 PUSH1 0x44 DUP3 ADD MSTORE PUSH6 0x667574757265 PUSH1 0xD0 SHL PUSH1 0x64 DUP3 ADD MSTORE PUSH1 0x84 ADD PUSH2 0xADA JUMP JUMPDEST PUSH2 0x229E PUSH4 0x784CE00 TIMESTAMP PUSH2 0x34BD JUMP JUMPDEST DUP2 GT ISZERO PUSH2 0x22ED JUMPI PUSH1 0x40 MLOAD PUSH3 0x461BCD PUSH1 0xE5 SHL DUP2 MSTORE PUSH1 0x20 PUSH1 0x4 DUP3 ADD MSTORE PUSH1 0x1E PUSH1 0x24 DUP3 ADD MSTORE PUSH32 0x566F74696E67206C6F636B2063616E2062652034207965617273206D61780000 PUSH1 0x44 DUP3 ADD MSTORE PUSH1 0x64 ADD PUSH2 0xADA JUMP JUMPDEST PUSH1 0xB PUSH1 0x0 DUP2 SLOAD PUSH2 0x22FC SWAP1 PUSH2 0x3724 JUMP JUMPDEST SWAP1 SWAP2 SSTORE POP PUSH1 0xB SLOAD PUSH2 0x230D DUP5 DUP3 PUSH2 0x2D98 JUMP JUMPDEST POP PUSH1 0x0 DUP2 DUP2 MSTORE PUSH1 0x1 PUSH1 0x20 DUP2 DUP2 MSTORE PUSH1 0x40 SWAP3 DUP4 SWAP1 KECCAK256 DUP4 MLOAD DUP1 DUP6 ADD SWAP1 SWAP5 MSTORE DUP1 SLOAD PUSH1 0xF SIGNEXTEND DUP5 MSTORE DUP3 ADD SLOAD SWAP1 DUP4 ADD MSTORE PUSH2 0x2345 SWAP2 DUP4 SWAP2 DUP10 SWAP2 DUP7 SWAP2 PUSH2 0x280C JUMP JUMPDEST SWAP6 SWAP5 POP POP POP POP POP JUMP JUMPDEST PUSH1 0x0 DUP1 DUP4 SWAP1 POP PUSH1 0x0 PUSH32 0x0 PUSH32 0x0 DUP4 PUSH1 0x40 ADD MLOAD PUSH2 0x23A7 SWAP2 SWAP1 PUSH2 0x350A JUMP JUMPDEST PUSH2 0x23B1 SWAP2 SWAP1 PUSH2 0x34D5 JUMP JUMPDEST SWAP1 POP PUSH1 0x0 JUMPDEST PUSH1 0xFF DUP2 LT ISZERO PUSH2 0x2482 JUMPI PUSH2 0x23E9 PUSH32 0x0 DUP4 PUSH2 0x34BD JUMP JUMPDEST SWAP2 POP PUSH1 0x0 DUP6 DUP4 GT ISZERO PUSH2 0x23FD JUMPI DUP6 SWAP3 POP PUSH2 0x2411 JUMP JUMPDEST POP PUSH1 0x0 DUP3 DUP2 MSTORE PUSH1 0x7 PUSH1 0x20 MSTORE PUSH1 0x40 SWAP1 KECCAK256 SLOAD PUSH1 0xF SIGNEXTEND JUMPDEST PUSH1 0x40 DUP5 ADD MLOAD PUSH2 0x2420 SWAP1 DUP5 PUSH2 0x3489 JUMP JUMPDEST DUP5 PUSH1 0x20 ADD MLOAD PUSH2 0x242F SWAP2 SWAP1 PUSH2 0x35F0 JUMP JUMPDEST DUP5 MLOAD DUP6 SWAP1 PUSH2 0x243E SWAP1 DUP4 SWAP1 PUSH2 0x3685 JUMP JUMPDEST PUSH1 0xF SIGNEXTEND SWAP1 MSTORE POP DUP3 DUP7 EQ ISZERO PUSH2 0x2452 JUMPI POP PUSH2 0x2482 JUMP JUMPDEST DUP1 DUP5 PUSH1 0x20 ADD DUP2 DUP2 MLOAD PUSH2 0x2464 SWAP2 SWAP1 PUSH2 0x36D5 JUMP JUMPDEST PUSH1 0xF SIGNEXTEND SWAP1 MSTORE POP POP PUSH1 0x40 DUP4 ADD DUP3 SWAP1 MSTORE PUSH2 0x247B DUP2 PUSH2 0x3724 JUMP JUMPDEST SWAP1 POP PUSH2 0x23B6 JUMP JUMPDEST POP PUSH1 0x0 DUP3 PUSH1 0x0 ADD MLOAD PUSH1 0xF SIGNEXTEND SLT ISZERO PUSH2 0x2498 JUMPI PUSH1 0x0 DUP3 MSTORE JUMPDEST POP MLOAD PUSH1 0x1 PUSH1 0x1 PUSH1 0x80 SHL SUB AND SWAP4 SWAP3 POP POP POP JUMP JUMPDEST PUSH1 0x0 NUMBER DUP3 GT ISZERO PUSH2 0x24BC JUMPI PUSH2 0x24BC PUSH2 0x343B JUMP JUMPDEST PUSH1 0x0 DUP4 DUP2 MSTORE PUSH1 0x6 PUSH1 0x20 MSTORE PUSH1 0x40 DUP2 KECCAK256 SLOAD DUP2 JUMPDEST PUSH1 0x80 DUP2 LT ISZERO PUSH2 0x2560 JUMPI DUP2 DUP4 LT PUSH2 0x24E2 JUMPI PUSH2 0x2560 JUMP JUMPDEST PUSH1 0x0 PUSH1 0x2 PUSH2 0x24F0 DUP5 DUP7 PUSH2 0x34BD JUMP JUMPDEST PUSH2 0x24FB SWAP1 PUSH1 0x1 PUSH2 0x34BD JUMP JUMPDEST PUSH2 0x2505 SWAP2 SWAP1 PUSH2 0x350A JUMP JUMPDEST PUSH1 0x0 DUP9 DUP2 MSTORE PUSH1 0x5 PUSH1 0x20 MSTORE PUSH1 0x40 SWAP1 KECCAK256 SWAP1 SWAP2 POP DUP7 SWAP1 DUP3 PUSH4 0x3B9ACA00 DUP2 LT PUSH2 0x252C JUMPI PUSH2 0x252C PUSH2 0x3425 JUMP JUMPDEST PUSH1 0x3 MUL ADD PUSH1 0x2 ADD SLOAD GT PUSH2 0x2541 JUMPI DUP1 SWAP4 POP PUSH2 0x254F JUMP JUMPDEST PUSH2 0x254C PUSH1 0x1 DUP3 PUSH2 0x3489 JUMP JUMPDEST SWAP3 POP JUMPDEST POP PUSH2 0x2559 DUP2 PUSH2 0x3724 JUMP JUMPDEST SWAP1 POP PUSH2 0x24CD JUMP JUMPDEST POP PUSH1 0x0 DUP6 DUP2 MSTORE PUSH1 0x5 PUSH1 0x20 MSTORE PUSH1 0x40 DUP2 KECCAK256 DUP4 PUSH4 0x3B9ACA00 DUP2 LT PUSH2 0x2583 JUMPI PUSH2 0x2583 PUSH2 0x3425 JUMP JUMPDEST PUSH1 0x40 DUP1 MLOAD PUSH1 0x80 DUP2 ADD DUP3 MSTORE PUSH1 0x3 SWAP3 DUP4 MUL SWAP4 SWAP1 SWAP4 ADD DUP1 SLOAD PUSH1 0xF DUP2 DUP2 SIGNEXTEND DUP7 MSTORE PUSH1 0x1 PUSH1 0x80 SHL SWAP1 SWAP2 DIV SWAP1 SIGNEXTEND PUSH1 0x20 DUP6 ADD MSTORE PUSH1 0x1 DUP2 ADD SLOAD SWAP2 DUP5 ADD SWAP2 SWAP1 SWAP2 MSTORE PUSH1 0x2 ADD SLOAD PUSH1 0x60 DUP4 ADD MSTORE SLOAD SWAP1 SWAP2 POP PUSH1 0x0 PUSH2 0x25D3 DUP8 DUP4 PUSH2 0x2782 JUMP JUMPDEST PUSH1 0x0 DUP2 DUP2 MSTORE PUSH1 0x4 PUSH1 0x20 SWAP1 DUP2 MSTORE PUSH1 0x40 DUP1 DUP4 KECCAK256 DUP2 MLOAD PUSH1 0x80 DUP2 ADD DUP4 MSTORE DUP2 SLOAD PUSH1 0xF DUP2 DUP2 SIGNEXTEND DUP4 MSTORE PUSH1 0x1 PUSH1 0x80 SHL SWAP1 SWAP2 DIV SWAP1 SIGNEXTEND SWAP4 DUP2 ADD SWAP4 SWAP1 SWAP4 MSTORE PUSH1 0x1 DUP2 ADD SLOAD SWAP2 DUP4 ADD SWAP2 SWAP1 SWAP2 MSTORE PUSH1 0x2 ADD SLOAD PUSH1 0x60 DUP3 ADD MSTORE SWAP2 SWAP3 POP DUP1 DUP5 DUP5 LT ISZERO PUSH2 0x26B2 JUMPI PUSH1 0x0 PUSH1 0x4 DUP2 PUSH2 0x2637 DUP8 PUSH1 0x1 PUSH2 0x34BD JUMP JUMPDEST DUP2 MSTORE PUSH1 0x20 DUP1 DUP3 ADD SWAP3 SWAP1 SWAP3 MSTORE PUSH1 0x40 SWAP1 DUP2 ADD PUSH1 0x0 KECCAK256 DUP2 MLOAD PUSH1 0x80 DUP2 ADD DUP4 MSTORE DUP2 SLOAD PUSH1 0xF DUP2 DUP2 SIGNEXTEND DUP4 MSTORE PUSH1 0x1 PUSH1 0x80 SHL SWAP1 SWAP2 DIV SWAP1 SIGNEXTEND SWAP4 DUP2 ADD SWAP4 SWAP1 SWAP4 MSTORE PUSH1 0x1 DUP2 ADD SLOAD SWAP2 DUP4 ADD SWAP2 SWAP1 SWAP2 MSTORE PUSH1 0x2 ADD SLOAD PUSH1 0x60 DUP1 DUP4 ADD DUP3 SWAP1 MSTORE DUP7 ADD MLOAD SWAP2 SWAP3 POP PUSH2 0x2694 SWAP2 SWAP1 PUSH2 0x3489 JUMP JUMPDEST SWAP3 POP DUP4 PUSH1 0x40 ADD MLOAD DUP2 PUSH1 0x40 ADD MLOAD PUSH2 0x26AA SWAP2 SWAP1 PUSH2 0x3489 JUMP JUMPDEST SWAP2 POP POP PUSH2 0x26D6 JUMP JUMPDEST PUSH1 0x60 DUP4 ADD MLOAD PUSH2 0x26C1 SWAP1 NUMBER PUSH2 0x3489 JUMP JUMPDEST SWAP2 POP DUP3 PUSH1 0x40 ADD MLOAD TIMESTAMP PUSH2 0x26D3 SWAP2 SWAP1 PUSH2 0x3489 JUMP JUMPDEST SWAP1 POP JUMPDEST PUSH1 0x40 DUP4 ADD MLOAD DUP3 ISZERO PUSH2 0x2713 JUMPI DUP3 DUP5 PUSH1 0x60 ADD MLOAD DUP13 PUSH2 0x26F2 SWAP2 SWAP1 PUSH2 0x3489 JUMP JUMPDEST PUSH2 0x26FC SWAP1 DUP5 PUSH2 0x34D5 JUMP JUMPDEST PUSH2 0x2706 SWAP2 SWAP1 PUSH2 0x350A JUMP JUMPDEST PUSH2 0x2710 SWAP1 DUP3 PUSH2 0x34BD JUMP JUMPDEST SWAP1 POP JUMPDEST PUSH1 0x40 DUP8 ADD MLOAD PUSH2 0x2722 SWAP1 DUP3 PUSH2 0x3489 JUMP JUMPDEST DUP8 PUSH1 0x20 ADD MLOAD PUSH2 0x2731 SWAP2 SWAP1 PUSH2 0x35F0 JUMP JUMPDEST DUP8 MLOAD DUP9 SWAP1 PUSH2 0x2740 SWAP1 DUP4 SWAP1 PUSH2 0x3685 JUMP JUMPDEST PUSH1 0xF SWAP1 DUP2 SIGNEXTEND SWAP1 SWAP2 MSTORE DUP9 MLOAD PUSH1 0x0 SWAP2 SIGNEXTEND SLT SWAP1 POP PUSH2 0x2770 JUMPI POP POP SWAP4 MLOAD PUSH1 0x1 PUSH1 0x1 PUSH1 0x80 SHL SUB AND SWAP7 POP PUSH2 0xA47 SWAP6 POP POP POP POP POP POP JUMP JUMPDEST PUSH1 0x0 SWAP10 POP POP POP POP POP POP POP POP POP POP PUSH2 0xA47 JUMP JUMPDEST PUSH1 0x0 DUP1 DUP3 DUP2 JUMPDEST PUSH1 0x80 DUP2 LT ISZERO PUSH2 0x2802 JUMPI DUP2 DUP4 LT PUSH2 0x279D JUMPI PUSH2 0x2802 JUMP JUMPDEST PUSH1 0x0 PUSH1 0x2 PUSH2 0x27AB DUP5 DUP7 PUSH2 0x34BD JUMP JUMPDEST PUSH2 0x27B6 SWAP1 PUSH1 0x1 PUSH2 0x34BD JUMP JUMPDEST PUSH2 0x27C0 SWAP2 SWAP1 PUSH2 0x350A JUMP JUMPDEST PUSH1 0x0 DUP2 DUP2 MSTORE PUSH1 0x4 PUSH1 0x20 MSTORE PUSH1 0x40 SWAP1 KECCAK256 PUSH1 0x2 ADD SLOAD SWAP1 SWAP2 POP DUP8 LT PUSH2 0x27E3 JUMPI DUP1 SWAP4 POP PUSH2 0x27F1 JUMP JUMPDEST PUSH2 0x27EE PUSH1 0x1 DUP3 PUSH2 0x3489 JUMP JUMPDEST SWAP3 POP JUMPDEST POP PUSH2 0x27FB DUP2 PUSH2 0x3724 JUMP JUMPDEST SWAP1 POP PUSH2 0x2788 JUMP JUMPDEST POP SWAP1 SWAP5 SWAP4 POP POP POP POP JUMP JUMPDEST PUSH1 0x0 SLOAD DUP3 SWAP1 PUSH2 0x281B DUP7 DUP3 PUSH2 0x34BD JUMP JUMPDEST PUSH1 0x0 SWAP1 DUP2 SSTORE PUSH1 0x40 DUP1 MLOAD DUP1 DUP3 ADD SWAP1 SWAP2 MSTORE DUP2 DUP2 MSTORE PUSH1 0x20 DUP2 ADD SWAP2 SWAP1 SWAP2 MSTORE DUP3 MLOAD PUSH1 0x20 DUP1 DUP6 ADD MLOAD SWAP1 DUP4 ADD MSTORE PUSH1 0xF SIGNEXTEND DUP2 MSTORE DUP3 MLOAD DUP8 SWAP1 DUP5 SWAP1 PUSH2 0x2857 SWAP1 DUP4 SWAP1 PUSH2 0x36D5 JUMP JUMPDEST PUSH1 0xF SIGNEXTEND SWAP1 MSTORE POP DUP6 ISZERO PUSH2 0x286B JUMPI PUSH1 0x20 DUP4 ADD DUP7 SWAP1 MSTORE JUMPDEST PUSH1 0x0 DUP9 DUP2 MSTORE PUSH1 0x1 PUSH1 0x20 DUP2 DUP2 MSTORE PUSH1 0x40 SWAP1 SWAP3 KECCAK256 DUP6 MLOAD DUP2 SLOAD PUSH1 0x1 PUSH1 0x1 PUSH1 0x80 SHL SUB NOT AND PUSH1 0x1 PUSH1 0x1 PUSH1 0x80 SHL SUB SWAP1 SWAP2 AND OR DUP2 SSTORE SWAP2 DUP6 ADD MLOAD SWAP2 ADD SSTORE PUSH2 0x28AA DUP9 DUP3 DUP6 PUSH2 0x1A54 JUMP JUMPDEST CALLER DUP8 ISZERO DUP1 ISZERO SWAP1 PUSH2 0x28CC JUMPI POP PUSH1 0x4 DUP6 PUSH1 0x4 DUP2 GT ISZERO PUSH2 0x28C9 JUMPI PUSH2 0x28C9 PUSH2 0x373F JUMP JUMPDEST EQ ISZERO JUMPDEST ISZERO PUSH2 0x2976 JUMPI PUSH1 0x40 MLOAD PUSH4 0x23B872DD PUSH1 0xE0 SHL DUP2 MSTORE PUSH1 0x1 PUSH1 0x1 PUSH1 0xA0 SHL SUB DUP3 DUP2 AND PUSH1 0x4 DUP4 ADD MSTORE ADDRESS PUSH1 0x24 DUP4 ADD MSTORE PUSH1 0x44 DUP3 ADD DUP11 SWAP1 MSTORE PUSH32 0x0 AND SWAP1 PUSH4 0x23B872DD SWAP1 PUSH1 0x64 ADD PUSH1 0x20 PUSH1 0x40 MLOAD DUP1 DUP4 SUB DUP2 PUSH1 0x0 DUP8 GAS CALL ISZERO DUP1 ISZERO PUSH2 0x2946 JUMPI RETURNDATASIZE PUSH1 0x0 DUP1 RETURNDATACOPY RETURNDATASIZE PUSH1 0x0 REVERT JUMPDEST POP POP POP POP PUSH1 0x40 MLOAD RETURNDATASIZE PUSH1 0x1F NOT PUSH1 0x1F DUP3 ADD AND DUP3 ADD DUP1 PUSH1 0x40 MSTORE POP DUP2 ADD SWAP1 PUSH2 0x296A SWAP2 SWAP1 PUSH2 0x34A0 JUMP JUMPDEST PUSH2 0x2976 JUMPI PUSH2 0x2976 PUSH2 0x343B JUMP JUMPDEST DUP4 PUSH1 0x20 ADD MLOAD DUP2 PUSH1 0x1 PUSH1 0x1 PUSH1 0xA0 SHL SUB AND PUSH32 0xFF04CCAFC360E16B67D682D17BD9503C4C6B9A131F6BE6325762DC9FFC7DE624 DUP12 DUP12 DUP10 TIMESTAMP PUSH1 0x40 MLOAD PUSH2 0x29BA SWAP5 SWAP4 SWAP3 SWAP2 SWAP1 PUSH2 0x3755 JUMP JUMPDEST PUSH1 0x40 MLOAD DUP1 SWAP2 SUB SWAP1 LOG3 PUSH32 0x5E2AA66EFD74CCE82B21852E317E5490D9ECC9E6BB953AE24D90851258CC2F5C DUP4 PUSH2 0x29EE DUP11 DUP3 PUSH2 0x34BD JUMP JUMPDEST PUSH1 0x40 DUP1 MLOAD SWAP3 DUP4 MSTORE PUSH1 0x20 DUP4 ADD SWAP2 SWAP1 SWAP2 MSTORE ADD PUSH1 0x40 MLOAD DUP1 SWAP2 SUB SWAP1 LOG1 POP POP POP POP POP POP POP POP POP JUMP JUMPDEST PUSH1 0x0 DUP3 DUP2 MSTORE PUSH1 0x6 PUSH1 0x20 MSTORE PUSH1 0x40 DUP2 KECCAK256 SLOAD DUP1 PUSH2 0x2A2F JUMPI PUSH1 0x0 SWAP2 POP POP PUSH2 0xA47 JUMP JUMPDEST PUSH1 0x0 DUP5 DUP2 MSTORE PUSH1 0x5 PUSH1 0x20 MSTORE PUSH1 0x40 DUP2 KECCAK256 DUP3 PUSH4 0x3B9ACA00 DUP2 LT PUSH2 0x2A51 JUMPI PUSH2 0x2A51 PUSH2 0x3425 JUMP JUMPDEST PUSH1 0x40 DUP1 MLOAD PUSH1 0x80 DUP2 ADD DUP3 MSTORE PUSH1 0x3 SWAP3 SWAP1 SWAP3 MUL SWAP3 SWAP1 SWAP3 ADD DUP1 SLOAD PUSH1 0xF DUP2 DUP2 SIGNEXTEND DUP5 MSTORE PUSH1 0x1 PUSH1 0x80 SHL SWAP1 SWAP2 DIV SWAP1 SIGNEXTEND PUSH1 0x20 DUP4 ADD MSTORE PUSH1 0x1 DUP2 ADD SLOAD SWAP3 DUP3 ADD DUP4 SWAP1 MSTORE PUSH1 0x2 ADD SLOAD PUSH1 0x60 DUP3 ADD MSTORE SWAP2 POP PUSH2 0x2A9D SWAP1 DUP6 PUSH2 0x3793 JUMP JUMPDEST DUP2 PUSH1 0x20 ADD MLOAD PUSH2 0x2AAC SWAP2 SWAP1 PUSH2 0x35F0 JUMP JUMPDEST DUP2 MLOAD DUP3 SWAP1 PUSH2 0x2ABB SWAP1 DUP4 SWAP1 PUSH2 0x3685 JUMP JUMPDEST PUSH1 0xF SWAP1 DUP2 SIGNEXTEND SWAP1 SWAP2 MSTORE DUP3 MLOAD PUSH1 0x0 SWAP2 SIGNEXTEND SLT ISZERO SWAP1 POP PUSH2 0x2AD6 JUMPI PUSH1 0x0 DUP2 MSTORE JUMPDEST MLOAD PUSH1 0xF SIGNEXTEND SWAP2 POP PUSH2 0xA47 SWAP1 POP JUMP JUMPDEST PUSH1 0x60 PUSH1 0x40 MLOAD DUP1 PUSH2 0x120 ADD PUSH1 0x40 MSTORE DUP1 PUSH1 0xFD DUP2 MSTORE PUSH1 0x20 ADD PUSH2 0x3B19 PUSH1 0xFD SWAP2 CODECOPY SWAP1 POP DUP1 PUSH2 0x2B0B DUP7 PUSH2 0x2DFB JUMP JUMPDEST PUSH1 0x40 MLOAD PUSH1 0x20 ADD PUSH2 0x2B1C SWAP3 SWAP2 SWAP1 PUSH2 0x37D2 JUMP JUMPDEST PUSH1 0x40 MLOAD PUSH1 0x20 DUP2 DUP4 SUB SUB DUP2 MSTORE SWAP1 PUSH1 0x40 MSTORE SWAP1 POP DUP1 PUSH2 0x2B37 DUP6 PUSH2 0x2DFB JUMP JUMPDEST PUSH1 0x40 MLOAD PUSH1 0x20 ADD PUSH2 0x2B48 SWAP3 SWAP2 SWAP1 PUSH2 0x384E JUMP JUMPDEST PUSH1 0x40 MLOAD PUSH1 0x20 DUP2 DUP4 SUB SUB DUP2 MSTORE SWAP1 PUSH1 0x40 MSTORE SWAP1 POP DUP1 PUSH2 0x2B63 DUP5 PUSH2 0x2DFB JUMP JUMPDEST PUSH1 0x40 MLOAD PUSH1 0x20 ADD PUSH2 0x2B74 SWAP3 SWAP2 SWAP1 PUSH2 0x38CE JUMP JUMPDEST PUSH1 0x40 MLOAD PUSH1 0x20 DUP2 DUP4 SUB SUB DUP2 MSTORE SWAP1 PUSH1 0x40 MSTORE SWAP1 POP DUP1 PUSH2 0x2B8F DUP4 PUSH2 0x2DFB JUMP JUMPDEST PUSH1 0x40 MLOAD PUSH1 0x20 ADD PUSH2 0x2BA0 SWAP3 SWAP2 SWAP1 PUSH2 0x394F JUMP JUMPDEST PUSH1 0x40 MLOAD PUSH1 0x20 DUP2 DUP4 SUB SUB DUP2 MSTORE SWAP1 PUSH1 0x40 MSTORE SWAP1 POP PUSH1 0x0 PUSH2 0x2BED PUSH2 0x2BBF DUP8 PUSH2 0x2DFB JUMP JUMPDEST PUSH2 0x2BC8 DUP5 PUSH2 0x2EF9 JUMP JUMPDEST PUSH1 0x40 MLOAD PUSH1 0x20 ADD PUSH2 0x2BD9 SWAP3 SWAP2 SWAP1 PUSH2 0x39AA JUMP JUMPDEST PUSH1 0x40 MLOAD PUSH1 0x20 DUP2 DUP4 SUB SUB DUP2 MSTORE SWAP1 PUSH1 0x40 MSTORE PUSH2 0x2EF9 JUMP JUMPDEST SWAP1 POP DUP1 PUSH1 0x40 MLOAD PUSH1 0x20 ADD PUSH2 0x2C00 SWAP2 SWAP1 PUSH2 0x3ABF JUMP JUMPDEST PUSH1 0x40 MLOAD PUSH1 0x20 DUP2 DUP4 SUB SUB DUP2 MSTORE SWAP1 PUSH1 0x40 MSTORE SWAP2 POP POP SWAP5 SWAP4 POP POP POP POP JUMP JUMPDEST PUSH1 0x0 DUP2 DUP2 MSTORE PUSH1 0xC PUSH1 0x20 MSTORE PUSH1 0x40 SWAP1 KECCAK256 SLOAD PUSH1 0x1 PUSH1 0x1 PUSH1 0xA0 SHL SUB DUP4 DUP2 AND SWAP2 AND EQ PUSH2 0x2C43 JUMPI PUSH2 0x2C43 PUSH2 0x343B JUMP JUMPDEST PUSH1 0x0 DUP2 DUP2 MSTORE PUSH1 0xD PUSH1 0x20 MSTORE PUSH1 0x40 SWAP1 KECCAK256 SLOAD PUSH1 0x1 PUSH1 0x1 PUSH1 0xA0 SHL SUB AND ISZERO PUSH2 0x2C7D JUMPI PUSH1 0x0 DUP2 DUP2 MSTORE PUSH1 0xD PUSH1 0x20 MSTORE PUSH1 0x40 SWAP1 KECCAK256 DUP1 SLOAD PUSH1 0x1 PUSH1 0x1 PUSH1 0xA0 SHL SUB NOT AND SWAP1 SSTORE JUMPDEST POP POP JUMP JUMPDEST PUSH1 0x0 DUP2 DUP2 MSTORE PUSH1 0xC PUSH1 0x20 MSTORE PUSH1 0x40 SWAP1 KECCAK256 SLOAD PUSH1 0x1 PUSH1 0x1 PUSH1 0xA0 SHL SUB DUP4 DUP2 AND SWAP2 AND EQ PUSH2 0x2CAA JUMPI PUSH2 0x2CAA PUSH2 0x343B JUMP JUMPDEST PUSH1 0x0 DUP2 DUP2 MSTORE PUSH1 0xC PUSH1 0x20 MSTORE PUSH1 0x40 SWAP1 KECCAK256 DUP1 SLOAD PUSH1 0x1 PUSH1 0x1 PUSH1 0xA0 SHL SUB NOT AND SWAP1 SSTORE PUSH2 0x2CD0 DUP3 DUP3 PUSH2 0x304D JUMP JUMPDEST PUSH1 0x1 PUSH1 0x1 PUSH1 0xA0 SHL SUB DUP3 AND PUSH1 0x0 SWAP1 DUP2 MSTORE PUSH1 0xE PUSH1 0x20 MSTORE PUSH1 0x40 DUP2 KECCAK256 DUP1 SLOAD PUSH1 0x1 SWAP3 SWAP1 PUSH2 0x2CF9 SWAP1 DUP5 SWAP1 PUSH2 0x3489 JUMP JUMPDEST SWAP1 SWAP2 SSTORE POP POP POP POP JUMP JUMPDEST PUSH1 0x0 DUP2 DUP2 MSTORE PUSH1 0xC PUSH1 0x20 MSTORE PUSH1 0x40 SWAP1 KECCAK256 SLOAD PUSH1 0x1 PUSH1 0x1 PUSH1 0xA0 SHL SUB AND ISZERO PUSH2 0x2D27 JUMPI PUSH2 0x2D27 PUSH2 0x343B JUMP JUMPDEST PUSH1 0x0 DUP2 DUP2 MSTORE PUSH1 0xC PUSH1 0x20 SWAP1 DUP2 MSTORE PUSH1 0x40 DUP1 DUP4 KECCAK256 DUP1 SLOAD PUSH1 0x1 PUSH1 0x1 PUSH1 0xA0 SHL SUB NOT AND PUSH1 0x1 PUSH1 0x1 PUSH1 0xA0 SHL SUB DUP8 AND SWAP1 DUP2 OR SWAP1 SWAP2 SSTORE DUP1 DUP5 MSTORE PUSH1 0xE DUP1 DUP5 MSTORE DUP3 DUP6 KECCAK256 DUP1 SLOAD PUSH1 0xF DUP7 MSTORE DUP5 DUP8 KECCAK256 DUP2 DUP9 MSTORE DUP7 MSTORE DUP5 DUP8 KECCAK256 DUP9 SWAP1 SSTORE DUP8 DUP8 MSTORE PUSH1 0x10 DUP7 MSTORE SWAP4 DUP7 KECCAK256 SWAP4 SWAP1 SWAP4 SSTORE SWAP1 DUP5 MSTORE SWAP1 SWAP2 MSTORE DUP1 SLOAD PUSH1 0x1 SWAP3 SWAP1 PUSH2 0x2CF9 SWAP1 DUP5 SWAP1 PUSH2 0x34BD JUMP JUMPDEST PUSH1 0x0 PUSH1 0x1 PUSH1 0x1 PUSH1 0xA0 SHL SUB DUP4 AND PUSH2 0x2DB0 JUMPI PUSH2 0x2DB0 PUSH2 0x343B JUMP JUMPDEST PUSH2 0x2DBA DUP4 DUP4 PUSH2 0x2D02 JUMP JUMPDEST PUSH1 0x40 MLOAD DUP3 SWAP1 PUSH1 0x1 PUSH1 0x1 PUSH1 0xA0 SHL SUB DUP6 AND SWAP1 PUSH1 0x0 SWAP1 PUSH32 0xDDF252AD1BE2C89B69C2B068FC378DAA952BA7F163C4A11628F55A4DF523B3EF SWAP1 DUP3 SWAP1 LOG4 POP PUSH1 0x1 SWAP3 SWAP2 POP POP JUMP JUMPDEST PUSH1 0x60 DUP2 PUSH2 0x2E1F JUMPI POP POP PUSH1 0x40 DUP1 MLOAD DUP1 DUP3 ADD SWAP1 SWAP2 MSTORE PUSH1 0x1 DUP2 MSTORE PUSH1 0x3 PUSH1 0xFC SHL PUSH1 0x20 DUP3 ADD MSTORE SWAP1 JUMP JUMPDEST DUP2 PUSH1 0x0 JUMPDEST DUP2 ISZERO PUSH2 0x2E49 JUMPI DUP1 PUSH2 0x2E33 DUP2 PUSH2 0x3724 JUMP JUMPDEST SWAP2 POP PUSH2 0x2E42 SWAP1 POP PUSH1 0xA DUP4 PUSH2 0x350A JUMP JUMPDEST SWAP2 POP PUSH2 0x2E23 JUMP JUMPDEST PUSH1 0x0 DUP2 PUSH8 0xFFFFFFFFFFFFFFFF DUP2 GT ISZERO PUSH2 0x2E64 JUMPI PUSH2 0x2E64 PUSH2 0x32CB JUMP JUMPDEST PUSH1 0x40 MLOAD SWAP1 DUP1 DUP3 MSTORE DUP1 PUSH1 0x1F ADD PUSH1 0x1F NOT AND PUSH1 0x20 ADD DUP3 ADD PUSH1 0x40 MSTORE DUP1 ISZERO PUSH2 0x2E8E JUMPI PUSH1 0x20 DUP3 ADD DUP2 DUP1 CALLDATASIZE DUP4 CALLDATACOPY ADD SWAP1 POP JUMPDEST POP SWAP1 POP JUMPDEST DUP5 ISZERO PUSH2 0xE7A JUMPI PUSH2 0x2EA3 PUSH1 0x1 DUP4 PUSH2 0x3489 JUMP JUMPDEST SWAP2 POP PUSH2 0x2EB0 PUSH1 0xA DUP7 PUSH2 0x3B04 JUMP JUMPDEST PUSH2 0x2EBB SWAP1 PUSH1 0x30 PUSH2 0x34BD JUMP JUMPDEST PUSH1 0xF8 SHL DUP2 DUP4 DUP2 MLOAD DUP2 LT PUSH2 0x2ED0 JUMPI PUSH2 0x2ED0 PUSH2 0x3425 JUMP JUMPDEST PUSH1 0x20 ADD ADD SWAP1 PUSH1 0x1 PUSH1 0x1 PUSH1 0xF8 SHL SUB NOT AND SWAP1 DUP2 PUSH1 0x0 BYTE SWAP1 MSTORE8 POP PUSH2 0x2EF2 PUSH1 0xA DUP7 PUSH2 0x350A JUMP JUMPDEST SWAP5 POP PUSH2 0x2E92 JUMP JUMPDEST PUSH1 0x60 DUP2 MLOAD PUSH1 0x0 EQ ISZERO PUSH2 0x2F19 JUMPI POP POP PUSH1 0x40 DUP1 MLOAD PUSH1 0x20 DUP2 ADD SWAP1 SWAP2 MSTORE PUSH1 0x0 DUP2 MSTORE SWAP1 JUMP JUMPDEST PUSH1 0x0 PUSH1 0x40 MLOAD DUP1 PUSH1 0x60 ADD PUSH1 0x40 MSTORE DUP1 PUSH1 0x40 DUP2 MSTORE PUSH1 0x20 ADD PUSH2 0x3C16 PUSH1 0x40 SWAP2 CODECOPY SWAP1 POP PUSH1 0x0 PUSH1 0x3 DUP5 MLOAD PUSH1 0x2 PUSH2 0x2F48 SWAP2 SWAP1 PUSH2 0x34BD JUMP JUMPDEST PUSH2 0x2F52 SWAP2 SWAP1 PUSH2 0x350A JUMP JUMPDEST PUSH2 0x2F5D SWAP1 PUSH1 0x4 PUSH2 0x34D5 JUMP JUMPDEST PUSH8 0xFFFFFFFFFFFFFFFF DUP2 GT ISZERO PUSH2 0x2F75 JUMPI PUSH2 0x2F75 PUSH2 0x32CB JUMP JUMPDEST PUSH1 0x40 MLOAD SWAP1 DUP1 DUP3 MSTORE DUP1 PUSH1 0x1F ADD PUSH1 0x1F NOT AND PUSH1 0x20 ADD DUP3 ADD PUSH1 0x40 MSTORE DUP1 ISZERO PUSH2 0x2F9F JUMPI PUSH1 0x20 DUP3 ADD DUP2 DUP1 CALLDATASIZE DUP4 CALLDATACOPY ADD SWAP1 POP JUMPDEST POP SWAP1 POP PUSH1 0x1 DUP3 ADD PUSH1 0x20 DUP3 ADD DUP6 DUP7 MLOAD DUP8 ADD JUMPDEST DUP1 DUP3 LT ISZERO PUSH2 0x300B JUMPI PUSH1 0x3 DUP3 ADD SWAP2 POP DUP2 MLOAD PUSH1 0x3F DUP2 PUSH1 0x12 SHR AND DUP6 ADD MLOAD DUP5 MSTORE8 PUSH1 0x1 DUP5 ADD SWAP4 POP PUSH1 0x3F DUP2 PUSH1 0xC SHR AND DUP6 ADD MLOAD DUP5 MSTORE8 PUSH1 0x1 DUP5 ADD SWAP4 POP PUSH1 0x3F DUP2 PUSH1 0x6 SHR AND DUP6 ADD MLOAD DUP5 MSTORE8 PUSH1 0x1 DUP5 ADD SWAP4 POP PUSH1 0x3F DUP2 AND DUP6 ADD MLOAD DUP5 MSTORE8 POP PUSH1 0x1 DUP4 ADD SWAP3 POP PUSH2 0x2FB0 JUMP JUMPDEST POP POP PUSH1 0x3 DUP7 MLOAD MOD PUSH1 0x1 DUP2 EQ PUSH2 0x3027 JUMPI PUSH1 0x2 DUP2 EQ PUSH2 0x303A JUMPI PUSH2 0x3042 JUMP JUMPDEST PUSH1 0x3D PUSH1 0x1 DUP4 SUB MSTORE8 PUSH1 0x3D PUSH1 0x2 DUP4 SUB MSTORE8 PUSH2 0x3042 JUMP JUMPDEST PUSH1 0x3D PUSH1 0x1 DUP4 SUB MSTORE8 JUMPDEST POP SWAP2 SWAP6 SWAP5 POP POP POP POP POP JUMP JUMPDEST PUSH1 0x1 PUSH1 0x1 PUSH1 0xA0 SHL SUB DUP3 AND PUSH1 0x0 SWAP1 DUP2 MSTORE PUSH1 0xE PUSH1 0x20 MSTORE PUSH1 0x40 DUP2 KECCAK256 SLOAD PUSH2 0x3072 SWAP1 PUSH1 0x1 SWAP1 PUSH2 0x3489 JUMP JUMPDEST PUSH1 0x0 DUP4 DUP2 MSTORE PUSH1 0x10 PUSH1 0x20 MSTORE PUSH1 0x40 SWAP1 KECCAK256 SLOAD SWAP1 SWAP2 POP DUP1 DUP3 EQ ISZERO PUSH2 0x30C2 JUMPI PUSH1 0x1 PUSH1 0x1 PUSH1 0xA0 SHL SUB DUP5 AND PUSH1 0x0 SWAP1 DUP2 MSTORE PUSH1 0xF PUSH1 0x20 SWAP1 DUP2 MSTORE PUSH1 0x40 DUP1 DUP4 KECCAK256 DUP6 DUP5 MSTORE DUP3 MSTORE DUP1 DUP4 KECCAK256 DUP4 SWAP1 SSTORE DUP6 DUP4 MSTORE PUSH1 0x10 SWAP1 SWAP2 MSTORE DUP2 KECCAK256 SSTORE PUSH2 0x151E JUMP JUMPDEST PUSH1 0x1 PUSH1 0x1 PUSH1 0xA0 SHL SUB SWAP4 SWAP1 SWAP4 AND PUSH1 0x0 SWAP1 DUP2 MSTORE PUSH1 0xF PUSH1 0x20 SWAP1 DUP2 MSTORE PUSH1 0x40 DUP1 DUP4 KECCAK256 SWAP4 DUP4 MSTORE SWAP3 DUP2 MSTORE DUP3 DUP3 KECCAK256 DUP1 SLOAD DUP7 DUP5 MSTORE DUP5 DUP5 KECCAK256 DUP2 SWAP1 SSTORE DUP4 MSTORE PUSH1 0x10 SWAP1 SWAP2 MSTORE DUP3 DUP3 KECCAK256 SWAP5 SWAP1 SWAP5 SSTORE SWAP3 DUP4 SWAP1 SSTORE SWAP1 DUP3 MSTORE DUP2 KECCAK256 SSTORE JUMP JUMPDEST PUSH1 0x1 PUSH1 0x1 PUSH1 0xE0 SHL SUB NOT DUP2 AND DUP2 EQ PUSH2 0x3123 JUMPI PUSH1 0x0 DUP1 REVERT JUMPDEST POP JUMP JUMPDEST PUSH1 0x0 PUSH1 0x20 DUP3 DUP5 SUB SLT ISZERO PUSH2 0x3138 JUMPI PUSH1 0x0 DUP1 REVERT JUMPDEST DUP2 CALLDATALOAD PUSH2 0xD3F DUP2 PUSH2 0x310D JUMP JUMPDEST PUSH1 0x0 PUSH1 0x20 DUP3 DUP5 SUB SLT ISZERO PUSH2 0x3155 JUMPI PUSH1 0x0 DUP1 REVERT JUMPDEST POP CALLDATALOAD SWAP2 SWAP1 POP JUMP JUMPDEST PUSH1 0x0 JUMPDEST DUP4 DUP2 LT ISZERO PUSH2 0x3177 JUMPI DUP2 DUP2 ADD MLOAD DUP4 DUP3 ADD MSTORE PUSH1 0x20 ADD PUSH2 0x315F JUMP JUMPDEST DUP4 DUP2 GT ISZERO PUSH2 0x151E JUMPI POP POP PUSH1 0x0 SWAP2 ADD MSTORE JUMP JUMPDEST PUSH1 0x0 DUP2 MLOAD DUP1 DUP5 MSTORE PUSH2 0x31A0 DUP2 PUSH1 0x20 DUP7 ADD PUSH1 0x20 DUP7 ADD PUSH2 0x315C JUMP JUMPDEST PUSH1 0x1F ADD PUSH1 0x1F NOT AND SWAP3 SWAP1 SWAP3 ADD PUSH1 0x20 ADD SWAP3 SWAP2 POP POP JUMP JUMPDEST PUSH1 0x20 DUP2 MSTORE PUSH1 0x0 PUSH2 0xD3F PUSH1 0x20 DUP4 ADD DUP5 PUSH2 0x3188 JUMP JUMPDEST DUP1 CALLDATALOAD PUSH1 0x1 PUSH1 0x1 PUSH1 0xA0 SHL SUB DUP2 AND DUP2 EQ PUSH2 0x31DE JUMPI PUSH1 0x0 DUP1 REVERT JUMPDEST SWAP2 SWAP1 POP JUMP JUMPDEST PUSH1 0x0 DUP1 PUSH1 0x40 DUP4 DUP6 SUB SLT ISZERO PUSH2 0x31F6 JUMPI PUSH1 0x0 DUP1 REVERT JUMPDEST PUSH2 0x31FF DUP4 PUSH2 0x31C7 JUMP JUMPDEST SWAP5 PUSH1 0x20 SWAP4 SWAP1 SWAP4 ADD CALLDATALOAD SWAP4 POP POP POP JUMP JUMPDEST PUSH1 0x0 DUP1 PUSH1 0x40 DUP4 DUP6 SUB SLT ISZERO PUSH2 0x3220 JUMPI PUSH1 0x0 DUP1 REVERT JUMPDEST POP POP DUP1 CALLDATALOAD SWAP3 PUSH1 0x20 SWAP1 SWAP2 ADD CALLDATALOAD SWAP2 POP JUMP JUMPDEST PUSH1 0x0 DUP1 PUSH1 0x0 PUSH1 0x60 DUP5 DUP7 SUB SLT ISZERO PUSH2 0x3244 JUMPI PUSH1 0x0 DUP1 REVERT JUMPDEST PUSH2 0x324D DUP5 PUSH2 0x31C7 JUMP JUMPDEST SWAP3 POP PUSH2 0x325B PUSH1 0x20 DUP6 ADD PUSH2 0x31C7 JUMP JUMPDEST SWAP2 POP PUSH1 0x40 DUP5 ADD CALLDATALOAD SWAP1 POP SWAP3 POP SWAP3 POP SWAP3 JUMP JUMPDEST PUSH1 0x0 PUSH1 0x20 DUP3 DUP5 SUB SLT ISZERO PUSH2 0x327D JUMPI PUSH1 0x0 DUP1 REVERT JUMPDEST PUSH2 0xD3F DUP3 PUSH2 0x31C7 JUMP JUMPDEST DUP1 ISZERO ISZERO DUP2 EQ PUSH2 0x3123 JUMPI PUSH1 0x0 DUP1 REVERT JUMPDEST PUSH1 0x0 DUP1 PUSH1 0x40 DUP4 DUP6 SUB SLT ISZERO PUSH2 0x32A7 JUMPI PUSH1 0x0 DUP1 REVERT JUMPDEST PUSH2 0x32B0 DUP4 PUSH2 0x31C7 JUMP JUMPDEST SWAP2 POP PUSH1 0x20 DUP4 ADD CALLDATALOAD PUSH2 0x32C0 DUP2 PUSH2 0x3286 JUMP JUMPDEST DUP1 SWAP2 POP POP SWAP3 POP SWAP3 SWAP1 POP JUMP JUMPDEST PUSH4 0x4E487B71 PUSH1 0xE0 SHL PUSH1 0x0 MSTORE PUSH1 0x41 PUSH1 0x4 MSTORE PUSH1 0x24 PUSH1 0x0 REVERT JUMPDEST PUSH1 0x0 DUP1 PUSH1 0x0 DUP1 PUSH1 0x80 DUP6 DUP8 SUB SLT ISZERO PUSH2 0x32F7 JUMPI PUSH1 0x0 DUP1 REVERT JUMPDEST PUSH2 0x3300 DUP6 PUSH2 0x31C7 JUMP JUMPDEST SWAP4 POP PUSH2 0x330E PUSH1 0x20 DUP7 ADD PUSH2 0x31C7 JUMP JUMPDEST SWAP3 POP PUSH1 0x40 DUP6 ADD CALLDATALOAD SWAP2 POP PUSH1 0x60 DUP6 ADD CALLDATALOAD PUSH8 0xFFFFFFFFFFFFFFFF DUP1 DUP3 GT ISZERO PUSH2 0x3332 JUMPI PUSH1 0x0 DUP1 REVERT JUMPDEST DUP2 DUP8 ADD SWAP2 POP DUP8 PUSH1 0x1F DUP4 ADD SLT PUSH2 0x3346 JUMPI PUSH1 0x0 DUP1 REVERT JUMPDEST DUP2 CALLDATALOAD DUP2 DUP2 GT ISZERO PUSH2 0x3358 JUMPI PUSH2 0x3358 PUSH2 0x32CB JUMP JUMPDEST PUSH1 0x40 MLOAD PUSH1 0x1F DUP3 ADD PUSH1 0x1F NOT SWAP1 DUP2 AND PUSH1 0x3F ADD AND DUP2 ADD SWAP1 DUP4 DUP3 GT DUP2 DUP4 LT OR ISZERO PUSH2 0x3380 JUMPI PUSH2 0x3380 PUSH2 0x32CB JUMP JUMPDEST DUP2 PUSH1 0x40 MSTORE DUP3 DUP2 MSTORE DUP11 PUSH1 0x20 DUP5 DUP8 ADD ADD GT ISZERO PUSH2 0x3399 JUMPI PUSH1 0x0 DUP1 REVERT JUMPDEST DUP3 PUSH1 0x20 DUP7 ADD PUSH1 0x20 DUP4 ADD CALLDATACOPY PUSH1 0x0 PUSH1 0x20 DUP5 DUP4 ADD ADD MSTORE DUP1 SWAP6 POP POP POP POP POP POP SWAP3 SWAP6 SWAP2 SWAP5 POP SWAP3 POP JUMP JUMPDEST PUSH1 0x0 DUP1 PUSH1 0x0 PUSH1 0x60 DUP5 DUP7 SUB SLT ISZERO PUSH2 0x33D2 JUMPI PUSH1 0x0 DUP1 REVERT JUMPDEST DUP4 CALLDATALOAD SWAP3 POP PUSH1 0x20 DUP5 ADD CALLDATALOAD SWAP2 POP PUSH2 0x33E9 PUSH1 0x40 DUP6 ADD PUSH2 0x31C7 JUMP JUMPDEST SWAP1 POP SWAP3 POP SWAP3 POP SWAP3 JUMP JUMPDEST PUSH1 0x0 DUP1 PUSH1 0x40 DUP4 DUP6 SUB SLT ISZERO PUSH2 0x3405 JUMPI PUSH1 0x0 DUP1 REVERT JUMPDEST PUSH2 0x340E DUP4 PUSH2 0x31C7 JUMP JUMPDEST SWAP2 POP PUSH2 0x341C PUSH1 0x20 DUP5 ADD PUSH2 0x31C7 JUMP JUMPDEST SWAP1 POP SWAP3 POP SWAP3 SWAP1 POP JUMP JUMPDEST PUSH4 0x4E487B71 PUSH1 0xE0 SHL PUSH1 0x0 MSTORE PUSH1 0x32 PUSH1 0x4 MSTORE PUSH1 0x24 PUSH1 0x0 REVERT JUMPDEST PUSH4 0x4E487B71 PUSH1 0xE0 SHL PUSH1 0x0 MSTORE PUSH1 0x1 PUSH1 0x4 MSTORE PUSH1 0x24 PUSH1 0x0 REVERT JUMPDEST PUSH1 0x20 DUP1 DUP3 MSTORE PUSH1 0x8 SWAP1 DUP3 ADD MSTORE PUSH8 0x185D1D1858DA1959 PUSH1 0xC2 SHL PUSH1 0x40 DUP3 ADD MSTORE PUSH1 0x60 ADD SWAP1 JUMP JUMPDEST PUSH4 0x4E487B71 PUSH1 0xE0 SHL PUSH1 0x0 MSTORE PUSH1 0x11 PUSH1 0x4 MSTORE PUSH1 0x24 PUSH1 0x0 REVERT JUMPDEST PUSH1 0x0 DUP3 DUP3 LT ISZERO PUSH2 0x349B JUMPI PUSH2 0x349B PUSH2 0x3473 JUMP JUMPDEST POP SUB SWAP1 JUMP JUMPDEST PUSH1 0x0 PUSH1 0x20 DUP3 DUP5 SUB SLT ISZERO PUSH2 0x34B2 JUMPI PUSH1 0x0 DUP1 REVERT JUMPDEST DUP2 MLOAD PUSH2 0xD3F DUP2 PUSH2 0x3286 JUMP JUMPDEST PUSH1 0x0 DUP3 NOT DUP3 GT ISZERO PUSH2 0x34D0 JUMPI PUSH2 0x34D0 PUSH2 0x3473 JUMP JUMPDEST POP ADD SWAP1 JUMP JUMPDEST PUSH1 0x0 DUP2 PUSH1 0x0 NOT DIV DUP4 GT DUP3 ISZERO ISZERO AND ISZERO PUSH2 0x34EF JUMPI PUSH2 0x34EF PUSH2 0x3473 JUMP JUMPDEST POP MUL SWAP1 JUMP JUMPDEST PUSH4 0x4E487B71 PUSH1 0xE0 SHL PUSH1 0x0 MSTORE PUSH1 0x12 PUSH1 0x4 MSTORE PUSH1 0x24 PUSH1 0x0 REVERT JUMPDEST PUSH1 0x0 DUP3 PUSH2 0x3519 JUMPI PUSH2 0x3519 PUSH2 0x34F4 JUMP JUMPDEST POP DIV SWAP1 JUMP JUMPDEST PUSH1 0x20 DUP1 DUP3 MSTORE PUSH1 0x24 SWAP1 DUP3 ADD MSTORE PUSH32 0x43616E6E6F742061646420746F2065787069726564206C6F636B2E2057697468 PUSH1 0x40 DUP3 ADD MSTORE PUSH4 0x64726177 PUSH1 0xE0 SHL PUSH1 0x60 DUP3 ADD MSTORE PUSH1 0x80 ADD SWAP1 JUMP JUMPDEST PUSH1 0x1 PUSH1 0x1 PUSH1 0xA0 SHL SUB DUP6 DUP2 AND DUP3 MSTORE DUP5 AND PUSH1 0x20 DUP3 ADD MSTORE PUSH1 0x40 DUP2 ADD DUP4 SWAP1 MSTORE PUSH1 0x80 PUSH1 0x60 DUP3 ADD DUP2 SWAP1 MSTORE PUSH1 0x0 SWAP1 PUSH2 0x1026 SWAP1 DUP4 ADD DUP5 PUSH2 0x3188 JUMP JUMPDEST PUSH1 0x0 PUSH1 0x20 DUP3 DUP5 SUB SLT ISZERO PUSH2 0x35A7 JUMPI PUSH1 0x0 DUP1 REVERT JUMPDEST DUP2 MLOAD PUSH2 0xD3F DUP2 PUSH2 0x310D JUMP JUMPDEST PUSH1 0x0 DUP2 PUSH1 0xF SIGNEXTEND DUP4 PUSH1 0xF SIGNEXTEND DUP1 PUSH2 0x35C9 JUMPI PUSH2 0x35C9 PUSH2 0x34F4 JUMP JUMPDEST PUSH1 0x1 PUSH1 0x1 PUSH1 0x7F SHL SUB NOT DUP3 EQ PUSH1 0x0 NOT DUP3 EQ AND ISZERO PUSH2 0x35E7 JUMPI PUSH2 0x35E7 PUSH2 0x3473 JUMP JUMPDEST SWAP1 SDIV SWAP4 SWAP3 POP POP POP JUMP JUMPDEST PUSH1 0x0 DUP2 PUSH1 0xF SIGNEXTEND DUP4 PUSH1 0xF SIGNEXTEND PUSH1 0x1 PUSH1 0x1 PUSH1 0x7F SHL SUB PUSH1 0x0 DUP3 SGT PUSH1 0x0 DUP5 SGT DUP4 DUP4 DIV DUP6 GT DUP3 DUP3 AND AND ISZERO PUSH2 0x3620 JUMPI PUSH2 0x3620 PUSH2 0x3473 JUMP JUMPDEST PUSH1 0x1 PUSH1 0x1 PUSH1 0x7F SHL SUB NOT PUSH1 0x0 DUP6 SLT DUP3 DUP2 AND DUP8 DUP4 SDIV DUP8 SLT AND ISZERO PUSH2 0x3643 JUMPI PUSH2 0x3643 PUSH2 0x3473 JUMP JUMPDEST PUSH1 0x0 DUP8 SLT SWAP3 POP DUP6 DUP3 SDIV DUP8 SLT DUP5 DUP5 AND AND ISZERO PUSH2 0x365F JUMPI PUSH2 0x365F PUSH2 0x3473 JUMP JUMPDEST DUP6 DUP6 SDIV DUP8 SLT DUP2 DUP5 AND AND ISZERO PUSH2 0x3675 JUMPI PUSH2 0x3675 PUSH2 0x3473 JUMP JUMPDEST POP POP POP SWAP3 SWAP1 SWAP2 MUL SWAP6 SWAP5 POP POP POP POP POP JUMP JUMPDEST PUSH1 0x0 DUP2 PUSH1 0xF SIGNEXTEND DUP4 PUSH1 0xF SIGNEXTEND PUSH1 0x0 DUP2 SLT DUP2 PUSH1 0x1 PUSH1 0x1 PUSH1 0x7F SHL SUB NOT ADD DUP4 SLT DUP2 ISZERO AND ISZERO PUSH2 0x36B0 JUMPI PUSH2 0x36B0 PUSH2 0x3473 JUMP JUMPDEST DUP2 PUSH1 0x1 PUSH1 0x1 PUSH1 0x7F SHL SUB ADD DUP4 SGT DUP2 AND ISZERO PUSH2 0x36CB JUMPI PUSH2 0x36CB PUSH2 0x3473 JUMP JUMPDEST POP SWAP1 SUB SWAP4 SWAP3 POP POP POP JUMP JUMPDEST PUSH1 0x0 DUP2 PUSH1 0xF SIGNEXTEND DUP4 PUSH1 0xF SIGNEXTEND PUSH1 0x0 DUP3 SLT DUP3 PUSH1 0x1 PUSH1 0x1 PUSH1 0x7F SHL SUB SUB DUP3 SGT DUP2 ISZERO AND ISZERO PUSH2 0x36FF JUMPI PUSH2 0x36FF PUSH2 0x3473 JUMP JUMPDEST DUP3 PUSH1 0x1 PUSH1 0x1 PUSH1 0x7F SHL SUB NOT SUB DUP3 SLT DUP2 AND ISZERO PUSH2 0x371B JUMPI PUSH2 0x371B PUSH2 0x3473 JUMP JUMPDEST POP ADD SWAP4 SWAP3 POP POP POP JUMP JUMPDEST PUSH1 0x0 PUSH1 0x0 NOT DUP3 EQ ISZERO PUSH2 0x3738 JUMPI PUSH2 0x3738 PUSH2 0x3473 JUMP JUMPDEST POP PUSH1 0x1 ADD SWAP1 JUMP JUMPDEST PUSH4 0x4E487B71 PUSH1 0xE0 SHL PUSH1 0x0 MSTORE PUSH1 0x21 PUSH1 0x4 MSTORE PUSH1 0x24 PUSH1 0x0 REVERT JUMPDEST DUP5 DUP2 MSTORE PUSH1 0x20 DUP2 ADD DUP5 SWAP1 MSTORE PUSH1 0x80 DUP2 ADD PUSH1 0x5 DUP5 LT PUSH2 0x3781 JUMPI PUSH4 0x4E487B71 PUSH1 0xE0 SHL PUSH1 0x0 MSTORE PUSH1 0x21 PUSH1 0x4 MSTORE PUSH1 0x24 PUSH1 0x0 REVERT JUMPDEST PUSH1 0x40 DUP3 ADD SWAP4 SWAP1 SWAP4 MSTORE PUSH1 0x60 ADD MSTORE SWAP3 SWAP2 POP POP JUMP JUMPDEST PUSH1 0x0 DUP1 DUP4 SLT DUP1 ISZERO PUSH1 0x1 PUSH1 0xFF SHL DUP6 ADD DUP5 SLT AND ISZERO PUSH2 0x37B1 JUMPI PUSH2 0x37B1 PUSH2 0x3473 JUMP JUMPDEST PUSH1 0x1 PUSH1 0x1 PUSH1 0xFF SHL SUB DUP5 ADD DUP4 SGT DUP2 AND ISZERO PUSH2 0x37CC JUMPI PUSH2 0x37CC PUSH2 0x3473 JUMP JUMPDEST POP POP SUB SWAP1 JUMP JUMPDEST PUSH1 0x0 DUP4 MLOAD PUSH2 0x37E4 DUP2 DUP5 PUSH1 0x20 DUP9 ADD PUSH2 0x315C JUMP JUMPDEST PUSH6 0x3A37B5B2B71 PUSH1 0xD5 SHL SWAP1 DUP4 ADD SWAP1 DUP2 MSTORE DUP4 MLOAD PUSH2 0x3807 DUP2 PUSH1 0x6 DUP5 ADD PUSH1 0x20 DUP9 ADD PUSH2 0x315C JUMP JUMPDEST PUSH32 0x3C2F746578743E3C7465787420783D2231302220793D2234302220636C617373 PUSH1 0x6 SWAP3 SWAP1 SWAP2 ADD SWAP2 DUP3 ADD MSTORE PUSH8 0x1E913130B9B2911F PUSH1 0xC1 SHL PUSH1 0x26 DUP3 ADD MSTORE PUSH1 0x2E ADD SWAP5 SWAP4 POP POP POP POP JUMP JUMPDEST PUSH1 0x0 DUP4 MLOAD PUSH2 0x3860 DUP2 DUP5 PUSH1 0x20 DUP9 ADD PUSH2 0x315C JUMP JUMPDEST PUSH10 0x3130B630B731B2A7B31 PUSH1 0xB5 SHL SWAP1 DUP4 ADD SWAP1 DUP2 MSTORE DUP4 MLOAD PUSH2 0x3887 DUP2 PUSH1 0xA DUP5 ADD PUSH1 0x20 DUP9 ADD PUSH2 0x315C JUMP JUMPDEST PUSH32 0x3C2F746578743E3C7465787420783D2231302220793D2236302220636C617373 PUSH1 0xA SWAP3 SWAP1 SWAP2 ADD SWAP2 DUP3 ADD MSTORE PUSH8 0x1E913130B9B2911F PUSH1 0xC1 SHL PUSH1 0x2A DUP3 ADD MSTORE PUSH1 0x32 ADD SWAP5 SWAP4 POP POP POP POP JUMP JUMPDEST PUSH1 0x0 DUP4 MLOAD PUSH2 0x38E0 DUP2 DUP5 PUSH1 0x20 DUP9 ADD PUSH2 0x315C JUMP JUMPDEST PUSH11 0x3637B1B5B2B22FB2B7321 PUSH1 0xAD SHL SWAP1 DUP4 ADD SWAP1 DUP2 MSTORE DUP4 MLOAD PUSH2 0x3908 DUP2 PUSH1 0xB DUP5 ADD PUSH1 0x20 DUP9 ADD PUSH2 0x315C JUMP JUMPDEST PUSH32 0x3C2F746578743E3C7465787420783D2231302220793D2238302220636C617373 PUSH1 0xB SWAP3 SWAP1 SWAP2 ADD SWAP2 DUP3 ADD MSTORE PUSH8 0x1E913130B9B2911F PUSH1 0xC1 SHL PUSH1 0x2B DUP3 ADD MSTORE PUSH1 0x33 ADD SWAP5 SWAP4 POP POP POP POP JUMP JUMPDEST PUSH1 0x0 DUP4 MLOAD PUSH2 0x3961 DUP2 DUP5 PUSH1 0x20 DUP9 ADD PUSH2 0x315C JUMP JUMPDEST PUSH6 0x3B30B63AB29 PUSH1 0xD5 SHL SWAP1 DUP4 ADD SWAP1 DUP2 MSTORE DUP4 MLOAD PUSH2 0x3984 DUP2 PUSH1 0x6 DUP5 ADD PUSH1 0x20 DUP9 ADD PUSH2 0x315C JUMP JUMPDEST PUSH13 0x1E17BA32BC3A1F1E17B9BB339F PUSH1 0x99 SHL PUSH1 0x6 SWAP3 SWAP1 SWAP2 ADD SWAP2 DUP3 ADD MSTORE PUSH1 0x13 ADD SWAP5 SWAP4 POP POP POP POP JUMP JUMPDEST PUSH16 0x7B226E616D65223A20226C6F636B2023 PUSH1 0x80 SHL DUP2 MSTORE DUP3 MLOAD PUSH1 0x0 SWAP1 PUSH2 0x39D6 DUP2 PUSH1 0x10 DUP6 ADD PUSH1 0x20 DUP9 ADD PUSH2 0x315C JUMP JUMPDEST PUSH32 0x222C20226465736372697074696F6E223A2022536F6C69646C79206C6F636B73 PUSH1 0x10 SWAP2 DUP5 ADD SWAP2 DUP3 ADD MSTORE PUSH32 0x2C2063616E206265207573656420746F20626F6F737420676175676520796965 PUSH1 0x30 DUP3 ADD MSTORE PUSH32 0x6C64732C20766F7465206F6E20746F6B656E20656D697373696F6E2C20616E64 PUSH1 0x50 DUP3 ADD MSTORE PUSH32 0x207265636569766520627269626573222C2022696D616765223A202264617461 PUSH1 0x70 DUP3 ADD MSTORE PUSH22 0xE9A5B5859D94BDCDD99CADE1B5B0ED8985CD94D8D0B PUSH1 0x52 SHL PUSH1 0x90 DUP3 ADD MSTORE DUP4 MLOAD PUSH2 0x3AA4 DUP2 PUSH1 0xA6 DUP5 ADD PUSH1 0x20 DUP9 ADD PUSH2 0x315C JUMP JUMPDEST PUSH2 0x227D PUSH1 0xF0 SHL PUSH1 0xA6 SWAP3 SWAP1 SWAP2 ADD SWAP2 DUP3 ADD MSTORE PUSH1 0xA8 ADD SWAP5 SWAP4 POP POP POP POP JUMP JUMPDEST PUSH32 0x646174613A6170706C69636174696F6E2F6A736F6E3B6261736536342C000000 DUP2 MSTORE PUSH1 0x0 DUP3 MLOAD PUSH2 0x3AF7 DUP2 PUSH1 0x1D DUP6 ADD PUSH1 0x20 DUP8 ADD PUSH2 0x315C JUMP JUMPDEST SWAP2 SWAP1 SWAP2 ADD PUSH1 0x1D ADD SWAP3 SWAP2 POP POP JUMP JUMPDEST PUSH1 0x0 DUP3 PUSH2 0x3B13 JUMPI PUSH2 0x3B13 PUSH2 0x34F4 JUMP JUMPDEST POP MOD SWAP1 JUMP INVALID EXTCODECOPY PUSH20 0x766720786D6C6E733D22687474703A2F2F777777 0x2E PUSH24 0x332E6F72672F323030302F73766722207072657365727665 COINBASE PUSH20 0x70656374526174696F3D22784D696E594D696E20 PUSH14 0x656574222076696577426F783D22 ADDRESS KECCAK256 ADDRESS KECCAK256 CALLER CALLDATALOAD ADDRESS KECCAK256 CALLER CALLDATALOAD ADDRESS 0x22 RETURNDATACOPY EXTCODECOPY PUSH20 0x74796C653E2E62617365207B2066696C6C3A2077 PUSH9 0x6974653B20666F6E74 0x2D PUSH7 0x616D696C793A20 PUSH20 0x657269663B20666F6E742D73697A653A20313470 PUSH25 0x3B207D3C2F7374796C653E3C726563742077696474683D2231 ADDRESS ADDRESS 0x25 0x22 KECCAK256 PUSH9 0x65696768743D223130 ADDRESS 0x25 0x22 KECCAK256 PUSH7 0x696C6C3D22626C PUSH2 0x636B 0x22 KECCAK256 0x2F RETURNDATACOPY EXTCODECOPY PUSH21 0x65787420783D2231302220793D2232302220636C61 PUSH20 0x733D2262617365223E4142434445464748494A4B 0x4C 0x4D 0x4E 0x4F POP MLOAD MSTORE MSTORE8 SLOAD SSTORE JUMP JUMPI PC MSIZE GAS PUSH2 0x6263 PUSH5 0x6566676869 PUSH11 0x6B6C6D6E6F707172737475 PUSH23 0x7778797A303132333435363738392B2FA2646970667358 0x22 SLT KECCAK256 0xE3 0xBC SELFDESTRUCT NOT PUSH19 0xE0A3769CDE634EF1D1BBA8F5EFBA68C8A99B65 0xC7 PUSH24 0x22D005A68CFB64736F6C634300080A0033DDF252AD1BE2C8 SWAP12 PUSH10 0xC2B068FC378DAA952BA7 CALL PUSH4 0xC4A11628 CREATE2 GAS 0x4D CREATE2 0x23 0xB3 0xEF "
		},
		"gasEstimates": {
			"creation": {
				"codeDepositCost": "3099800",
				"executionCost": "infinite",
				"totalCost": "infinite"
			},
			"external": {
				"abstain(uint256)": "26778",
				"approve(address,uint256)": "33486",
				"attachments(uint256)": "2507",
				"balanceOf(address)": "2682",
				"balanceOfAtNFT(uint256,uint256)": "infinite",
				"balanceOfNFT(uint256)": "infinite",
				"balanceOfNFTAt(uint256,uint256)": "10092",
				"block_number()": "303",
				"checkpoint()": "infinite",
				"create_lock(uint256,uint256)": "infinite",
				"create_lock_for(uint256,uint256,address)": "infinite",
				"decimals()": "272",
				"deposit_for(uint256,uint256)": "infinite",
				"detach(uint256)": "26840",
				"epoch()": "2407",
				"getApproved(uint256)": "2612",
				"get_last_user_slope(uint256)": "4835",
				"increase_amount(uint256,uint256)": "infinite",
				"increase_unlock_time(uint256,uint256)": "infinite",
				"isApprovedForAll(address,address)": "infinite",
				"isApprovedOrOwner(address,uint256)": "7238",
				"locked(uint256)": "4703",
				"locked__end(uint256)": "2538",
				"merge(uint256,uint256)": "infinite",
				"name()": "infinite",
				"ownerOf(uint256)": "2589",
				"ownership_change(uint256)": "2527",
				"point_history(uint256)": "6906",
				"safeTransferFrom(address,address,uint256)": "infinite",
				"safeTransferFrom(address,address,uint256,bytes)": "infinite",
				"setApprovalForAll(address,bool)": "26769",
				"setVoter(address)": "26779",
				"slope_changes(uint256)": "2506",
				"supply()": "2386",
				"supportsInterface(bytes4)": "2585",
				"symbol()": "infinite",
				"token()": "infinite",
				"tokenOfOwnerByIndex(address,uint256)": "2682",
				"tokenURI(uint256)": "infinite",
				"totalSupply()": "infinite",
				"totalSupplyAt(uint256)": "infinite",
				"totalSupplyAtT(uint256)": "infinite",
				"transferFrom(address,address,uint256)": "infinite",
				"used(uint256)": "24605",
				"user_point_epoch(uint256)": "2505",
				"user_point_history(uint256,uint256)": "6959",
				"user_point_history__ts(uint256,uint256)": "2597",
				"version()": "infinite",
				"voted(uint256)": "2529",
				"voter()": "2493",
				"voting(uint256)": "26783",
				"withdraw(uint256)": "infinite"
			},
			"internal": {
				"_addTokenTo(address,uint256)": "97447",
				"_addTokenToOwnerList(address,uint256)": "infinite",
				"_balance(address)": "infinite",
				"_balanceOfAtNFT(uint256,uint256)": "infinite",
				"_balanceOfNFT(uint256,uint256)": "infinite",
				"_burn(uint256)": "infinite",
				"_checkpoint(uint256,struct Locker.LockedBalance memory,struct Locker.LockedBalance memory)": "infinite",
				"_clearApproval(address,uint256)": "28735",
				"_create_lock(uint256,uint256,address)": "infinite",
				"_deposit_for(uint256,uint256,uint256,struct Locker.LockedBalance memory,enum Locker.DepositType)": "infinite",
				"_find_block_epoch(uint256,uint256)": "infinite",
				"_isApprovedOrOwner(address,uint256)": "6721",
				"_isContract(address)": "infinite",
				"_mint(address,uint256)": "99462",
				"_removeTokenFrom(address,uint256)": "infinite",
				"_removeTokenFromOwnerList(address,uint256)": "61153",
				"_supply_at(struct Locker.Point memory,uint256)": "infinite",
				"_tokenURI(uint256,uint256,uint256,uint256)": "infinite",
				"_transferFrom(address,address,uint256,address)": "infinite",
				"toString(uint256)": "infinite"
			}
		},
		"methodIdentifiers": {
			"abstain(uint256)": "c1f0fb9f",
			"approve(address,uint256)": "095ea7b3",
			"attachments(uint256)": "0d6a2033",
			"balanceOf(address)": "70a08231",
			"balanceOfAtNFT(uint256,uint256)": "8c2c9baf",
			"balanceOfNFT(uint256)": "e7e242d4",
			"balanceOfNFTAt(uint256,uint256)": "e0514aba",
			"block_number()": "25a58b56",
			"checkpoint()": "c2c4c5c1",
			"create_lock(uint256,uint256)": "65fc3873",
			"create_lock_for(uint256,uint256,address)": "d4e54c3b",
			"decimals()": "313ce567",
			"deposit_for(uint256,uint256)": "ee99fe28",
			"detach(uint256)": "986b7d8a",
			"epoch()": "900cf0cf",
			"getApproved(uint256)": "081812fc",
			"get_last_user_slope(uint256)": "461f711c",
			"increase_amount(uint256,uint256)": "a183af52",
			"increase_unlock_time(uint256,uint256)": "a4d855df",
			"isApprovedForAll(address,address)": "e985e9c5",
			"isApprovedOrOwner(address,uint256)": "430c2081",
			"locked(uint256)": "b45a3c0e",
			"locked__end(uint256)": "f8a05763",
			"merge(uint256,uint256)": "d1c2babb",
			"name()": "06fdde03",
			"ownerOf(uint256)": "6352211e",
			"ownership_change(uint256)": "6f548837",
			"point_history(uint256)": "d1febfb9",
			"safeTransferFrom(address,address,uint256)": "42842e0e",
			"safeTransferFrom(address,address,uint256,bytes)": "b88d4fde",
			"setApprovalForAll(address,bool)": "a22cb465",
			"setVoter(address)": "4bc2a657",
			"slope_changes(uint256)": "71197484",
			"supply()": "047fc9aa",
			"supportsInterface(bytes4)": "01ffc9a7",
			"symbol()": "95d89b41",
			"token()": "fc0c546a",
			"tokenOfOwnerByIndex(address,uint256)": "2f745c59",
			"tokenURI(uint256)": "c87b56dd",
			"totalSupply()": "18160ddd",
			"totalSupplyAt(uint256)": "981b24d0",
			"totalSupplyAtT(uint256)": "7116c60c",
			"transferFrom(address,address,uint256)": "23b872dd",
			"used(uint256)": "020fe6e5",
			"user_point_epoch(uint256)": "e441135c",
			"user_point_history(uint256,uint256)": "1376f3da",
			"user_point_history__ts(uint256,uint256)": "1c984bc3",
			"version()": "54fd4d50",
			"voted(uint256)": "8fbb38ff",
			"voter()": "46c96aac",
			"voting(uint256)": "fd4a77f1",
			"withdraw(uint256)": "2e1a7d4d"
		}
	},
	"abi": [
		{
			"inputs": [
				{
					"internalType": "address",
					"name": "tokenAddr",
					"type": "address"
				},
				{
					"internalType": "uint256",
					"name": "_duration",
					"type": "uint256"
				}
			],
			"stateMutability": "nonpayable",
			"type": "constructor"
		},
		{
			"anonymous": false,
			"inputs": [
				{
					"indexed": true,
					"internalType": "address",
					"name": "owner",
					"type": "address"
				},
				{
					"indexed": true,
					"internalType": "address",
					"name": "approved",
					"type": "address"
				},
				{
					"indexed": true,
					"internalType": "uint256",
					"name": "tokenId",
					"type": "uint256"
				}
			],
			"name": "Approval",
			"type": "event"
		},
		{
			"anonymous": false,
			"inputs": [
				{
					"indexed": true,
					"internalType": "address",
					"name": "owner",
					"type": "address"
				},
				{
					"indexed": true,
					"internalType": "address",
					"name": "operator",
					"type": "address"
				},
				{
					"indexed": false,
					"internalType": "bool",
					"name": "approved",
					"type": "bool"
				}
			],
			"name": "ApprovalForAll",
			"type": "event"
		},
		{
			"anonymous": false,
			"inputs": [
				{
					"indexed": true,
					"internalType": "address",
					"name": "provider",
					"type": "address"
				},
				{
					"indexed": false,
					"internalType": "uint256",
					"name": "tokenId",
					"type": "uint256"
				},
				{
					"indexed": false,
					"internalType": "uint256",
					"name": "value",
					"type": "uint256"
				},
				{
					"indexed": true,
					"internalType": "uint256",
					"name": "locktime",
					"type": "uint256"
				},
				{
					"indexed": false,
					"internalType": "enum Locker.DepositType",
					"name": "deposit_type",
					"type": "uint8"
				},
				{
					"indexed": false,
					"internalType": "uint256",
					"name": "ts",
					"type": "uint256"
				}
			],
			"name": "Deposit",
			"type": "event"
		},
		{
			"anonymous": false,
			"inputs": [
				{
					"indexed": false,
					"internalType": "uint256",
					"name": "prevSupply",
					"type": "uint256"
				},
				{
					"indexed": false,
					"internalType": "uint256",
					"name": "supply",
					"type": "uint256"
				}
			],
			"name": "Supply",
			"type": "event"
		},
		{
			"anonymous": false,
			"inputs": [
				{
					"indexed": true,
					"internalType": "address",
					"name": "from",
					"type": "address"
				},
				{
					"indexed": true,
					"internalType": "address",
					"name": "to",
					"type": "address"
				},
				{
					"indexed": true,
					"internalType": "uint256",
					"name": "tokenId",
					"type": "uint256"
				}
			],
			"name": "Transfer",
			"type": "event"
		},
		{
			"anonymous": false,
			"inputs": [
				{
					"indexed": true,
					"internalType": "address",
					"name": "provider",
					"type": "address"
				},
				{
					"indexed": false,
					"internalType": "uint256",
					"name": "tokenId",
					"type": "uint256"
				},
				{
					"indexed": false,
					"internalType": "uint256",
					"name": "value",
					"type": "uint256"
				},
				{
					"indexed": false,
					"internalType": "uint256",
					"name": "ts",
					"type": "uint256"
				}
			],
			"name": "Withdraw",
			"type": "event"
		},
		{
			"inputs": [
				{
					"internalType": "uint256",
					"name": "_tokenId",
					"type": "uint256"
				}
			],
			"name": "abstain",
			"outputs": [],
			"stateMutability": "nonpayable",
			"type": "function"
		},
		{
			"inputs": [
				{
					"internalType": "address",
					"name": "_approved",
					"type": "address"
				},
				{
					"internalType": "uint256",
					"name": "_tokenId",
					"type": "uint256"
				}
			],
			"name": "approve",
			"outputs": [],
			"stateMutability": "nonpayable",
			"type": "function"
		},
		{
			"inputs": [
				{
					"internalType": "uint256",
					"name": "",
					"type": "uint256"
				}
			],
			"name": "attachments",
			"outputs": [
				{
					"internalType": "uint256",
					"name": "",
					"type": "uint256"
				}
			],
			"stateMutability": "view",
			"type": "function"
		},
		{
			"inputs": [
				{
					"internalType": "address",
					"name": "_owner",
					"type": "address"
				}
			],
			"name": "balanceOf",
			"outputs": [
				{
					"internalType": "uint256",
					"name": "",
					"type": "uint256"
				}
			],
			"stateMutability": "view",
			"type": "function"
		},
		{
			"inputs": [
				{
					"internalType": "uint256",
					"name": "_tokenId",
					"type": "uint256"
				},
				{
					"internalType": "uint256",
					"name": "_block",
					"type": "uint256"
				}
			],
			"name": "balanceOfAtNFT",
			"outputs": [
				{
					"internalType": "uint256",
					"name": "",
					"type": "uint256"
				}
			],
			"stateMutability": "view",
			"type": "function"
		},
		{
			"inputs": [
				{
					"internalType": "uint256",
					"name": "_tokenId",
					"type": "uint256"
				}
			],
			"name": "balanceOfNFT",
			"outputs": [
				{
					"internalType": "uint256",
					"name": "",
					"type": "uint256"
				}
			],
			"stateMutability": "view",
			"type": "function"
		},
		{
			"inputs": [
				{
					"internalType": "uint256",
					"name": "_tokenId",
					"type": "uint256"
				},
				{
					"internalType": "uint256",
					"name": "_t",
					"type": "uint256"
				}
			],
			"name": "balanceOfNFTAt",
			"outputs": [
				{
					"internalType": "uint256",
					"name": "",
					"type": "uint256"
				}
			],
			"stateMutability": "view",
			"type": "function"
		},
		{
			"inputs": [],
			"name": "block_number",
			"outputs": [
				{
					"internalType": "uint256",
					"name": "",
					"type": "uint256"
				}
			],
			"stateMutability": "view",
			"type": "function"
		},
		{
			"inputs": [],
			"name": "checkpoint",
			"outputs": [],
			"stateMutability": "nonpayable",
			"type": "function"
		},
		{
			"inputs": [
				{
					"internalType": "uint256",
					"name": "_value",
					"type": "uint256"
				},
				{
					"internalType": "uint256",
					"name": "_lock_duration",
					"type": "uint256"
				}
			],
			"name": "create_lock",
			"outputs": [
				{
					"internalType": "uint256",
					"name": "",
					"type": "uint256"
				}
			],
			"stateMutability": "nonpayable",
			"type": "function"
		},
		{
			"inputs": [
				{
					"internalType": "uint256",
					"name": "_value",
					"type": "uint256"
				},
				{
					"internalType": "uint256",
					"name": "_lock_duration",
					"type": "uint256"
				},
				{
					"internalType": "address",
					"name": "_to",
					"type": "address"
				}
			],
			"name": "create_lock_for",
			"outputs": [
				{
					"internalType": "uint256",
					"name": "",
					"type": "uint256"
				}
			],
			"stateMutability": "nonpayable",
			"type": "function"
		},
		{
			"inputs": [],
			"name": "decimals",
			"outputs": [
				{
					"internalType": "uint8",
					"name": "",
					"type": "uint8"
				}
			],
			"stateMutability": "view",
			"type": "function"
		},
		{
			"inputs": [
				{
					"internalType": "uint256",
					"name": "_tokenId",
					"type": "uint256"
				},
				{
					"internalType": "uint256",
					"name": "_value",
					"type": "uint256"
				}
			],
			"name": "deposit_for",
			"outputs": [],
			"stateMutability": "nonpayable",
			"type": "function"
		},
		{
			"inputs": [
				{
					"internalType": "uint256",
					"name": "_tokenId",
					"type": "uint256"
				}
			],
			"name": "detach",
			"outputs": [],
			"stateMutability": "nonpayable",
			"type": "function"
		},
		{
			"inputs": [],
			"name": "epoch",
			"outputs": [
				{
					"internalType": "uint256",
					"name": "",
					"type": "uint256"
				}
			],
			"stateMutability": "view",
			"type": "function"
		},
		{
			"inputs": [
				{
					"internalType": "uint256",
					"name": "_tokenId",
					"type": "uint256"
				}
			],
			"name": "getApproved",
			"outputs": [
				{
					"internalType": "address",
					"name": "",
					"type": "address"
				}
			],
			"stateMutability": "view",
			"type": "function"
		},
		{
			"inputs": [
				{
					"internalType": "uint256",
					"name": "_tokenId",
					"type": "uint256"
				}
			],
			"name": "get_last_user_slope",
			"outputs": [
				{
					"internalType": "int128",
					"name": "",
					"type": "int128"
				}
			],
			"stateMutability": "view",
			"type": "function"
		},
		{
			"inputs": [
				{
					"internalType": "uint256",
					"name": "_tokenId",
					"type": "uint256"
				},
				{
					"internalType": "uint256",
					"name": "_value",
					"type": "uint256"
				}
			],
			"name": "increase_amount",
			"outputs": [],
			"stateMutability": "nonpayable",
			"type": "function"
		},
		{
			"inputs": [
				{
					"internalType": "uint256",
					"name": "_tokenId",
					"type": "uint256"
				},
				{
					"internalType": "uint256",
					"name": "_lock_duration",
					"type": "uint256"
				}
			],
			"name": "increase_unlock_time",
			"outputs": [],
			"stateMutability": "nonpayable",
			"type": "function"
		},
		{
			"inputs": [
				{
					"internalType": "address",
					"name": "_owner",
					"type": "address"
				},
				{
					"internalType": "address",
					"name": "_operator",
					"type": "address"
				}
			],
			"name": "isApprovedForAll",
			"outputs": [
				{
					"internalType": "bool",
					"name": "",
					"type": "bool"
				}
			],
			"stateMutability": "view",
			"type": "function"
		},
		{
			"inputs": [
				{
					"internalType": "address",
					"name": "_spender",
					"type": "address"
				},
				{
					"internalType": "uint256",
					"name": "_tokenId",
					"type": "uint256"
				}
			],
			"name": "isApprovedOrOwner",
			"outputs": [
				{
					"internalType": "bool",
					"name": "",
					"type": "bool"
				}
			],
			"stateMutability": "view",
			"type": "function"
		},
		{
			"inputs": [
				{
					"internalType": "uint256",
					"name": "",
					"type": "uint256"
				}
			],
			"name": "locked",
			"outputs": [
				{
					"internalType": "int128",
					"name": "amount",
					"type": "int128"
				},
				{
					"internalType": "uint256",
					"name": "end",
					"type": "uint256"
				}
			],
			"stateMutability": "view",
			"type": "function"
		},
		{
			"inputs": [
				{
					"internalType": "uint256",
					"name": "_tokenId",
					"type": "uint256"
				}
			],
			"name": "locked__end",
			"outputs": [
				{
					"internalType": "uint256",
					"name": "",
					"type": "uint256"
				}
			],
			"stateMutability": "view",
			"type": "function"
		},
		{
			"inputs": [
				{
					"internalType": "uint256",
					"name": "_from",
					"type": "uint256"
				},
				{
					"internalType": "uint256",
					"name": "_to",
					"type": "uint256"
				}
			],
			"name": "merge",
			"outputs": [],
			"stateMutability": "nonpayable",
			"type": "function"
		},
		{
			"inputs": [],
			"name": "name",
			"outputs": [
				{
					"internalType": "string",
					"name": "",
					"type": "string"
				}
			],
			"stateMutability": "view",
			"type": "function"
		},
		{
			"inputs": [
				{
					"internalType": "uint256",
					"name": "_tokenId",
					"type": "uint256"
				}
			],
			"name": "ownerOf",
			"outputs": [
				{
					"internalType": "address",
					"name": "",
					"type": "address"
				}
			],
			"stateMutability": "view",
			"type": "function"
		},
		{
			"inputs": [
				{
					"internalType": "uint256",
					"name": "",
					"type": "uint256"
				}
			],
			"name": "ownership_change",
			"outputs": [
				{
					"internalType": "uint256",
					"name": "",
					"type": "uint256"
				}
			],
			"stateMutability": "view",
			"type": "function"
		},
		{
			"inputs": [
				{
					"internalType": "uint256",
					"name": "",
					"type": "uint256"
				}
			],
			"name": "point_history",
			"outputs": [
				{
					"internalType": "int128",
					"name": "bias",
					"type": "int128"
				},
				{
					"internalType": "int128",
					"name": "slope",
					"type": "int128"
				},
				{
					"internalType": "uint256",
					"name": "ts",
					"type": "uint256"
				},
				{
					"internalType": "uint256",
					"name": "blk",
					"type": "uint256"
				}
			],
			"stateMutability": "view",
			"type": "function"
		},
		{
			"inputs": [
				{
					"internalType": "address",
					"name": "_from",
					"type": "address"
				},
				{
					"internalType": "address",
					"name": "_to",
					"type": "address"
				},
				{
					"internalType": "uint256",
					"name": "_tokenId",
					"type": "uint256"
				}
			],
			"name": "safeTransferFrom",
			"outputs": [],
			"stateMutability": "nonpayable",
			"type": "function"
		},
		{
			"inputs": [
				{
					"internalType": "address",
					"name": "_from",
					"type": "address"
				},
				{
					"internalType": "address",
					"name": "_to",
					"type": "address"
				},
				{
					"internalType": "uint256",
					"name": "_tokenId",
					"type": "uint256"
				},
				{
					"internalType": "bytes",
					"name": "_data",
					"type": "bytes"
				}
			],
			"name": "safeTransferFrom",
			"outputs": [],
			"stateMutability": "nonpayable",
			"type": "function"
		},
		{
			"inputs": [
				{
					"internalType": "address",
					"name": "_operator",
					"type": "address"
				},
				{
					"internalType": "bool",
					"name": "_approved",
					"type": "bool"
				}
			],
			"name": "setApprovalForAll",
			"outputs": [],
			"stateMutability": "nonpayable",
			"type": "function"
		},
		{
			"inputs": [
				{
					"internalType": "address",
					"name": "_voter",
					"type": "address"
				}
			],
			"name": "setVoter",
			"outputs": [],
			"stateMutability": "nonpayable",
			"type": "function"
		},
		{
			"inputs": [
				{
					"internalType": "uint256",
					"name": "",
					"type": "uint256"
				}
			],
			"name": "slope_changes",
			"outputs": [
				{
					"internalType": "int128",
					"name": "",
					"type": "int128"
				}
			],
			"stateMutability": "view",
			"type": "function"
		},
		{
			"inputs": [],
			"name": "supply",
			"outputs": [
				{
					"internalType": "uint256",
					"name": "",
					"type": "uint256"
				}
			],
			"stateMutability": "view",
			"type": "function"
		},
		{
			"inputs": [
				{
					"internalType": "bytes4",
					"name": "_interfaceID",
					"type": "bytes4"
				}
			],
			"name": "supportsInterface",
			"outputs": [
				{
					"internalType": "bool",
					"name": "",
					"type": "bool"
				}
			],
			"stateMutability": "view",
			"type": "function"
		},
		{
			"inputs": [],
			"name": "symbol",
			"outputs": [
				{
					"internalType": "string",
					"name": "",
					"type": "string"
				}
			],
			"stateMutability": "view",
			"type": "function"
		},
		{
			"inputs": [],
			"name": "token",
			"outputs": [
				{
					"internalType": "address",
					"name": "",
					"type": "address"
				}
			],
			"stateMutability": "view",
			"type": "function"
		},
		{
			"inputs": [
				{
					"internalType": "address",
					"name": "_owner",
					"type": "address"
				},
				{
					"internalType": "uint256",
					"name": "_tokenIndex",
					"type": "uint256"
				}
			],
			"name": "tokenOfOwnerByIndex",
			"outputs": [
				{
					"internalType": "uint256",
					"name": "",
					"type": "uint256"
				}
			],
			"stateMutability": "view",
			"type": "function"
		},
		{
			"inputs": [
				{
					"internalType": "uint256",
					"name": "_tokenId",
					"type": "uint256"
				}
			],
			"name": "tokenURI",
			"outputs": [
				{
					"internalType": "string",
					"name": "",
					"type": "string"
				}
			],
			"stateMutability": "view",
			"type": "function"
		},
		{
			"inputs": [],
			"name": "totalSupply",
			"outputs": [
				{
					"internalType": "uint256",
					"name": "",
					"type": "uint256"
				}
			],
			"stateMutability": "view",
			"type": "function"
		},
		{
			"inputs": [
				{
					"internalType": "uint256",
					"name": "_block",
					"type": "uint256"
				}
			],
			"name": "totalSupplyAt",
			"outputs": [
				{
					"internalType": "uint256",
					"name": "",
					"type": "uint256"
				}
			],
			"stateMutability": "view",
			"type": "function"
		},
		{
			"inputs": [
				{
					"internalType": "uint256",
					"name": "t",
					"type": "uint256"
				}
			],
			"name": "totalSupplyAtT",
			"outputs": [
				{
					"internalType": "uint256",
					"name": "",
					"type": "uint256"
				}
			],
			"stateMutability": "view",
			"type": "function"
		},
		{
			"inputs": [
				{
					"internalType": "address",
					"name": "_from",
					"type": "address"
				},
				{
					"internalType": "address",
					"name": "_to",
					"type": "address"
				},
				{
					"internalType": "uint256",
					"name": "_tokenId",
					"type": "uint256"
				}
			],
			"name": "transferFrom",
			"outputs": [],
			"stateMutability": "nonpayable",
			"type": "function"
		},
		{
			"inputs": [
				{
					"internalType": "uint256",
					"name": "_tokenId",
					"type": "uint256"
				}
			],
			"name": "used",
			"outputs": [],
			"stateMutability": "nonpayable",
			"type": "function"
		},
		{
			"inputs": [
				{
					"internalType": "uint256",
					"name": "",
					"type": "uint256"
				}
			],
			"name": "user_point_epoch",
			"outputs": [
				{
					"internalType": "uint256",
					"name": "",
					"type": "uint256"
				}
			],
			"stateMutability": "view",
			"type": "function"
		},
		{
			"inputs": [
				{
					"internalType": "uint256",
					"name": "",
					"type": "uint256"
				},
				{
					"internalType": "uint256",
					"name": "",
					"type": "uint256"
				}
			],
			"name": "user_point_history",
			"outputs": [
				{
					"internalType": "int128",
					"name": "bias",
					"type": "int128"
				},
				{
					"internalType": "int128",
					"name": "slope",
					"type": "int128"
				},
				{
					"internalType": "uint256",
					"name": "ts",
					"type": "uint256"
				},
				{
					"internalType": "uint256",
					"name": "blk",
					"type": "uint256"
				}
			],
			"stateMutability": "view",
			"type": "function"
		},
		{
			"inputs": [
				{
					"internalType": "uint256",
					"name": "_tokenId",
					"type": "uint256"
				},
				{
					"internalType": "uint256",
					"name": "_idx",
					"type": "uint256"
				}
			],
			"name": "user_point_history__ts",
			"outputs": [
				{
					"internalType": "uint256",
					"name": "",
					"type": "uint256"
				}
			],
			"stateMutability": "view",
			"type": "function"
		},
		{
			"inputs": [],
			"name": "version",
			"outputs": [
				{
					"internalType": "string",
					"name": "",
					"type": "string"
				}
			],
			"stateMutability": "view",
			"type": "function"
		},
		{
			"inputs": [
				{
					"internalType": "uint256",
					"name": "",
					"type": "uint256"
				}
			],
			"name": "voted",
			"outputs": [
				{
					"internalType": "bool",
					"name": "",
					"type": "bool"
				}
			],
			"stateMutability": "view",
			"type": "function"
		},
		{
			"inputs": [],
			"name": "voter",
			"outputs": [
				{
					"internalType": "address",
					"name": "",
					"type": "address"
				}
			],
			"stateMutability": "view",
			"type": "function"
		},
		{
			"inputs": [
				{
					"internalType": "uint256",
					"name": "_tokenId",
					"type": "uint256"
				}
			],
			"name": "voting",
			"outputs": [],
			"stateMutability": "nonpayable",
			"type": "function"
		},
		{
			"inputs": [
				{
					"internalType": "uint256",
					"name": "_tokenId",
					"type": "uint256"
				}
			],
			"name": "withdraw",
			"outputs": [],
			"stateMutability": "nonpayable",
			"type": "function"
		}
	]
}