{
	"contracts/Gauge.sol": {
		"Gauge": {
			"abi": [
				{
					"inputs": [
						{
							"internalType": "address",
							"name": "_stake",
							"type": "address"
						},
						{
							"internalType": "address",
							"name": "__ve",
							"type": "address"
						},
						{
							"internalType": "address",
							"name": "_boost",
							"type": "address"
						}
					],
					"stateMutability": "nonpayable",
					"type": "constructor"
				},
				{
					"anonymous": false,
					"inputs": [
						{
							"indexed": true,
							"internalType": "address",
							"name": "from",
							"type": "address"
						},
						{
							"indexed": true,
							"internalType": "address",
							"name": "reward",
							"type": "address"
						},
						{
							"indexed": false,
							"internalType": "uint256",
							"name": "amount",
							"type": "uint256"
						}
					],
					"name": "ClaimRewards",
					"type": "event"
				},
				{
					"anonymous": false,
					"inputs": [
						{
							"indexed": true,
							"internalType": "address",
							"name": "from",
							"type": "address"
						},
						{
							"indexed": false,
							"internalType": "uint256",
							"name": "tokenId",
							"type": "uint256"
						},
						{
							"indexed": false,
							"internalType": "uint256",
							"name": "amount",
							"type": "uint256"
						}
					],
					"name": "Deposit",
					"type": "event"
				},
				{
					"anonymous": false,
					"inputs": [
						{
							"indexed": true,
							"internalType": "address",
							"name": "from",
							"type": "address"
						},
						{
							"indexed": true,
							"internalType": "address",
							"name": "reward",
							"type": "address"
						},
						{
							"indexed": false,
							"internalType": "uint256",
							"name": "rewardRate",
							"type": "uint256"
						}
					],
					"name": "NotifyReward",
					"type": "event"
				},
				{
					"anonymous": false,
					"inputs": [
						{
							"indexed": true,
							"internalType": "address",
							"name": "from",
							"type": "address"
						},
						{
							"indexed": false,
							"internalType": "uint256",
							"name": "tokenId",
							"type": "uint256"
						},
						{
							"indexed": false,
							"internalType": "uint256",
							"name": "amount",
							"type": "uint256"
						}
					],
					"name": "Withdraw",
					"type": "event"
				},
				{
					"inputs": [
						{
							"internalType": "address",
							"name": "",
							"type": "address"
						}
					],
					"name": "balanceOf",
					"outputs": [
						{
							"internalType": "uint256",
							"name": "",
							"type": "uint256"
						}
					],
					"stateMutability": "view",
					"type": "function"
				},
				{
					"inputs": [
						{
							"internalType": "address",
							"name": "token",
							"type": "address"
						},
						{
							"internalType": "uint256",
							"name": "maxRuns",
							"type": "uint256"
						}
					],
					"name": "batchRewardPerToken",
					"outputs": [],
					"stateMutability": "nonpayable",
					"type": "function"
				},
				{
					"inputs": [],
					"name": "boost",
					"outputs": [
						{
							"internalType": "address",
							"name": "",
							"type": "address"
						}
					],
					"stateMutability": "view",
					"type": "function"
				},
				{
					"inputs": [
						{
							"internalType": "address",
							"name": "",
							"type": "address"
						},
						{
							"internalType": "uint256",
							"name": "",
							"type": "uint256"
						}
					],
					"name": "checkpoints",
					"outputs": [
						{
							"internalType": "uint256",
							"name": "timestamp",
							"type": "uint256"
						},
						{
							"internalType": "uint256",
							"name": "balanceOf",
							"type": "uint256"
						}
					],
					"stateMutability": "view",
					"type": "function"
				},
				{
					"inputs": [
						{
							"internalType": "uint256",
							"name": "amount",
							"type": "uint256"
						},
						{
							"internalType": "uint256",
							"name": "tokenId",
							"type": "uint256"
						}
					],
					"name": "deposit",
					"outputs": [],
					"stateMutability": "nonpayable",
					"type": "function"
				},
				{
					"inputs": [
						{
							"internalType": "uint256",
							"name": "tokenId",
							"type": "uint256"
						}
					],
					"name": "depositAll",
					"outputs": [],
					"stateMutability": "nonpayable",
					"type": "function"
				},
				{
					"inputs": [
						{
							"internalType": "address",
							"name": "account",
							"type": "address"
						}
					],
					"name": "derivedBalance",
					"outputs": [
						{
							"internalType": "uint256",
							"name": "",
							"type": "uint256"
						}
					],
					"stateMutability": "view",
					"type": "function"
				},
				{
					"inputs": [
						{
							"internalType": "address",
							"name": "",
							"type": "address"
						}
					],
					"name": "derivedBalances",
					"outputs": [
						{
							"internalType": "uint256",
							"name": "",
							"type": "uint256"
						}
					],
					"stateMutability": "view",
					"type": "function"
				},
				{
					"inputs": [],
					"name": "derivedSupply",
					"outputs": [
						{
							"internalType": "uint256",
							"name": "",
							"type": "uint256"
						}
					],
					"stateMutability": "view",
					"type": "function"
				},
				{
					"inputs": [
						{
							"internalType": "address",
							"name": "token",
							"type": "address"
						},
						{
							"internalType": "address",
							"name": "account",
							"type": "address"
						}
					],
					"name": "earned",
					"outputs": [
						{
							"internalType": "uint256",
							"name": "",
							"type": "uint256"
						}
					],
					"stateMutability": "view",
					"type": "function"
				},
				{
					"inputs": [
						{
							"internalType": "address",
							"name": "account",
							"type": "address"
						},
						{
							"internalType": "uint256",
							"name": "timestamp",
							"type": "uint256"
						}
					],
					"name": "getPriorBalanceIndex",
					"outputs": [
						{
							"internalType": "uint256",
							"name": "",
							"type": "uint256"
						}
					],
					"stateMutability": "view",
					"type": "function"
				},
				{
					"inputs": [
						{
							"internalType": "address",
							"name": "token",
							"type": "address"
						},
						{
							"internalType": "uint256",
							"name": "timestamp",
							"type": "uint256"
						}
					],
					"name": "getPriorRewardPerToken",
					"outputs": [
						{
							"internalType": "uint256",
							"name": "",
							"type": "uint256"
						},
						{
							"internalType": "uint256",
							"name": "",
							"type": "uint256"
						}
					],
					"stateMutability": "view",
					"type": "function"
				},
				{
					"inputs": [
						{
							"internalType": "uint256",
							"name": "timestamp",
							"type": "uint256"
						}
					],
					"name": "getPriorSupplyIndex",
					"outputs": [
						{
							"internalType": "uint256",
							"name": "",
							"type": "uint256"
						}
					],
					"stateMutability": "view",
					"type": "function"
				},
				{
					"inputs": [
						{
							"internalType": "address",
							"name": "account",
							"type": "address"
						},
						{
							"internalType": "address[]",
							"name": "tokens",
							"type": "address[]"
						}
					],
					"name": "getReward",
					"outputs": [],
					"stateMutability": "nonpayable",
					"type": "function"
				},
				{
					"inputs": [
						{
							"internalType": "address",
							"name": "",
							"type": "address"
						}
					],
					"name": "isReward",
					"outputs": [
						{
							"internalType": "bool",
							"name": "",
							"type": "bool"
						}
					],
					"stateMutability": "view",
					"type": "function"
				},
				{
					"inputs": [
						{
							"internalType": "address",
							"name": "",
							"type": "address"
						},
						{
							"internalType": "address",
							"name": "",
							"type": "address"
						}
					],
					"name": "lastEarn",
					"outputs": [
						{
							"internalType": "uint256",
							"name": "",
							"type": "uint256"
						}
					],
					"stateMutability": "view",
					"type": "function"
				},
				{
					"inputs": [
						{
							"internalType": "address",
							"name": "token",
							"type": "address"
						}
					],
					"name": "lastTimeRewardApplicable",
					"outputs": [
						{
							"internalType": "uint256",
							"name": "",
							"type": "uint256"
						}
					],
					"stateMutability": "view",
					"type": "function"
				},
				{
					"inputs": [
						{
							"internalType": "address",
							"name": "",
							"type": "address"
						}
					],
					"name": "lastUpdateTime",
					"outputs": [
						{
							"internalType": "uint256",
							"name": "",
							"type": "uint256"
						}
					],
					"stateMutability": "view",
					"type": "function"
				},
				{
					"inputs": [
						{
							"internalType": "address",
							"name": "token",
							"type": "address"
						},
						{
							"internalType": "uint256",
							"name": "_rewardRate",
							"type": "uint256"
						}
					],
					"name": "notifyRewardAmount",
					"outputs": [],
					"stateMutability": "nonpayable",
					"type": "function"
				},
				{
					"inputs": [
						{
							"internalType": "address",
							"name": "",
							"type": "address"
						}
					],
					"name": "numCheckpoints",
					"outputs": [
						{
							"internalType": "uint256",
							"name": "",
							"type": "uint256"
						}
					],
					"stateMutability": "view",
					"type": "function"
				},
				{
					"inputs": [
						{
							"internalType": "address",
							"name": "token",
							"type": "address"
						}
					],
					"name": "rewardPerToken",
					"outputs": [
						{
							"internalType": "uint256",
							"name": "",
							"type": "uint256"
						}
					],
					"stateMutability": "view",
					"type": "function"
				},
				{
					"inputs": [
						{
							"internalType": "address",
							"name": "",
							"type": "address"
						},
						{
							"internalType": "uint256",
							"name": "",
							"type": "uint256"
						}
					],
					"name": "rewardPerTokenCheckpoints",
					"outputs": [
						{
							"internalType": "uint256",
							"name": "timestamp",
							"type": "uint256"
						},
						{
							"internalType": "uint256",
							"name": "rewardPerToken",
							"type": "uint256"
						}
					],
					"stateMutability": "view",
					"type": "function"
				},
				{
					"inputs": [
						{
							"internalType": "address",
							"name": "",
							"type": "address"
						}
					],
					"name": "rewardPerTokenNumCheckpoints",
					"outputs": [
						{
							"internalType": "uint256",
							"name": "",
							"type": "uint256"
						}
					],
					"stateMutability": "view",
					"type": "function"
				},
				{
					"inputs": [
						{
							"internalType": "address",
							"name": "",
							"type": "address"
						}
					],
					"name": "rewardPerTokenStored",
					"outputs": [
						{
							"internalType": "uint256",
							"name": "",
							"type": "uint256"
						}
					],
					"stateMutability": "view",
					"type": "function"
				},
				{
					"inputs": [
						{
							"internalType": "address",
							"name": "",
							"type": "address"
						}
					],
					"name": "rewardRate",
					"outputs": [
						{
							"internalType": "uint256",
							"name": "",
							"type": "uint256"
						}
					],
					"stateMutability": "view",
					"type": "function"
				},
				{
					"inputs": [
						{
							"internalType": "uint256",
							"name": "",
							"type": "uint256"
						}
					],
					"name": "rewards",
					"outputs": [
						{
							"internalType": "address",
							"name": "",
							"type": "address"
						}
					],
					"stateMutability": "view",
					"type": "function"
				},
				{
					"inputs": [],
					"name": "rewardsListLength",
					"outputs": [
						{
							"internalType": "uint256",
							"name": "",
							"type": "uint256"
						}
					],
					"stateMutability": "view",
					"type": "function"
				},
				{
					"inputs": [],
					"name": "stake",
					"outputs": [
						{
							"internalType": "address",
							"name": "",
							"type": "address"
						}
					],
					"stateMutability": "view",
					"type": "function"
				},
				{
					"inputs": [
						{
							"internalType": "uint256",
							"name": "",
							"type": "uint256"
						}
					],
					"name": "supplyCheckpoints",
					"outputs": [
						{
							"internalType": "uint256",
							"name": "timestamp",
							"type": "uint256"
						},
						{
							"internalType": "uint256",
							"name": "supply",
							"type": "uint256"
						}
					],
					"stateMutability": "view",
					"type": "function"
				},
				{
					"inputs": [],
					"name": "supplyNumCheckpoints",
					"outputs": [
						{
							"internalType": "uint256",
							"name": "",
							"type": "uint256"
						}
					],
					"stateMutability": "view",
					"type": "function"
				},
				{
					"inputs": [
						{
							"internalType": "address",
							"name": "",
							"type": "address"
						}
					],
					"name": "tokenIds",
					"outputs": [
						{
							"internalType": "uint256",
							"name": "",
							"type": "uint256"
						}
					],
					"stateMutability": "view",
					"type": "function"
				},
				{
					"inputs": [],
					"name": "totalSupply",
					"outputs": [
						{
							"internalType": "uint256",
							"name": "",
							"type": "uint256"
						}
					],
					"stateMutability": "view",
					"type": "function"
				},
				{
					"inputs": [
						{
							"internalType": "address",
							"name": "",
							"type": "address"
						},
						{
							"internalType": "address",
							"name": "",
							"type": "address"
						}
					],
					"name": "userRewardPerTokenStored",
					"outputs": [
						{
							"internalType": "uint256",
							"name": "",
							"type": "uint256"
						}
					],
					"stateMutability": "view",
					"type": "function"
				},
				{
					"inputs": [],
					"name": "veToken",
					"outputs": [
						{
							"internalType": "address",
							"name": "",
							"type": "address"
						}
					],
					"stateMutability": "view",
					"type": "function"
				},
				{
					"inputs": [
						{
							"internalType": "uint256",
							"name": "amount",
							"type": "uint256"
						}
					],
					"name": "withdraw",
					"outputs": [],
					"stateMutability": "nonpayable",
					"type": "function"
				},
				{
					"inputs": [],
					"name": "withdrawAll",
					"outputs": [],
					"stateMutability": "nonpayable",
					"type": "function"
				},
				{
					"inputs": [
						{
							"internalType": "uint256",
							"name": "amount",
							"type": "uint256"
						},
						{
							"internalType": "uint256",
							"name": "tokenId",
							"type": "uint256"
						}
					],
					"name": "withdrawToken",
					"outputs": [],
					"stateMutability": "nonpayable",
					"type": "function"
				}
			],
			"devdoc": {
				"kind": "dev",
				"methods": {},
				"version": 1
			},
			"evm": {
				"assembly": "    /* \"contracts/Gauge.sol\":9834:27524  contract Gauge is ReentrancyGuard {... */\n  mstore(0x40, 0xe0)\n    /* \"contracts/Gauge.sol\":11734:11871  constructor(address _stake, address __ve, address _boost) {... */\n  callvalue\n  dup1\n  iszero\n  tag_1\n  jumpi\n  0x00\n  dup1\n  revert\ntag_1:\n  pop\n  mload(0x40)\n  sub(codesize, bytecodeSize)\n  dup1\n  bytecodeSize\n  dup4\n  codecopy\n  dup2\n  dup2\n  add\n  0x40\n  mstore\n  dup2\n  add\n  swap1\n  tag_2\n  swap2\n  swap1\n  tag_3\n  jump\t// in\ntag_2:\n    /* \"contracts/Gauge.sol\":3090:3091  1 */\n  0x01\n    /* \"contracts/Gauge.sol\":3195:3202  _status */\n  0x00\n    /* \"contracts/Gauge.sol\":3195:3217  _status = _NOT_ENTERED */\n  dup2\n  swap1\n  sstore\n  pop\n    /* \"contracts/Gauge.sol\":11810:11816  _stake */\n  dup3\n    /* \"contracts/Gauge.sol\":11802:11816  stake = _stake */\n  0xffffffffffffffffffffffffffffffffffffffff\n  and\n  0x80\n  dup2\n  0xffffffffffffffffffffffffffffffffffffffff\n  and\n  dup2\n  mstore\n  pop\n  pop\n    /* \"contracts/Gauge.sol\":11836:11840  __ve */\n  dup2\n    /* \"contracts/Gauge.sol\":11826:11840  veToken = __ve */\n  0xffffffffffffffffffffffffffffffffffffffff\n  and\n  0xa0\n  dup2\n  0xffffffffffffffffffffffffffffffffffffffff\n  and\n  dup2\n  mstore\n  pop\n  pop\n    /* \"contracts/Gauge.sol\":11858:11864  _boost */\n  dup1\n    /* \"contracts/Gauge.sol\":11850:11864  boost = _boost */\n  0xffffffffffffffffffffffffffffffffffffffff\n  and\n  0xc0\n  dup2\n  0xffffffffffffffffffffffffffffffffffffffff\n  and\n  dup2\n  mstore\n  pop\n  pop\n    /* \"contracts/Gauge.sol\":11734:11871  constructor(address _stake, address __ve, address _boost) {... */\n  pop\n  pop\n  pop\n    /* \"contracts/Gauge.sol\":9834:27524  contract Gauge is ReentrancyGuard {... */\n  jump(tag_8)\n    /* \"#utility.yul\":88:205   */\ntag_10:\n    /* \"#utility.yul\":197:198   */\n  0x00\n    /* \"#utility.yul\":194:195   */\n  dup1\n    /* \"#utility.yul\":187:199   */\n  revert\n    /* \"#utility.yul\":334:460   */\ntag_12:\n    /* \"#utility.yul\":371:378   */\n  0x00\n    /* \"#utility.yul\":411:453   */\n  0xffffffffffffffffffffffffffffffffffffffff\n    /* \"#utility.yul\":404:409   */\n  dup3\n    /* \"#utility.yul\":400:454   */\n  and\n    /* \"#utility.yul\":389:454   */\n  swap1\n  pop\n    /* \"#utility.yul\":334:460   */\n  swap2\n  swap1\n  pop\n  jump\t// out\n    /* \"#utility.yul\":466:562   */\ntag_13:\n    /* \"#utility.yul\":503:510   */\n  0x00\n    /* \"#utility.yul\":532:556   */\n  tag_22\n    /* \"#utility.yul\":550:555   */\n  dup3\n    /* \"#utility.yul\":532:556   */\n  tag_12\n  jump\t// in\ntag_22:\n    /* \"#utility.yul\":521:556   */\n  swap1\n  pop\n    /* \"#utility.yul\":466:562   */\n  swap2\n  swap1\n  pop\n  jump\t// out\n    /* \"#utility.yul\":568:690   */\ntag_14:\n    /* \"#utility.yul\":641:665   */\n  tag_24\n    /* \"#utility.yul\":659:664   */\n  dup2\n    /* \"#utility.yul\":641:665   */\n  tag_13\n  jump\t// in\ntag_24:\n    /* \"#utility.yul\":634:639   */\n  dup2\n    /* \"#utility.yul\":631:666   */\n  eq\n    /* \"#utility.yul\":621:684   */\n  tag_25\n  jumpi\n    /* \"#utility.yul\":680:681   */\n  0x00\n    /* \"#utility.yul\":677:678   */\n  dup1\n    /* \"#utility.yul\":670:682   */\n  revert\n    /* \"#utility.yul\":621:684   */\ntag_25:\n    /* \"#utility.yul\":568:690   */\n  pop\n  jump\t// out\n    /* \"#utility.yul\":696:839   */\ntag_15:\n    /* \"#utility.yul\":753:758   */\n  0x00\n    /* \"#utility.yul\":784:790   */\n  dup2\n    /* \"#utility.yul\":778:791   */\n  mload\n    /* \"#utility.yul\":769:791   */\n  swap1\n  pop\n    /* \"#utility.yul\":800:833   */\n  tag_27\n    /* \"#utility.yul\":827:832   */\n  dup2\n    /* \"#utility.yul\":800:833   */\n  tag_14\n  jump\t// in\ntag_27:\n    /* \"#utility.yul\":696:839   */\n  swap3\n  swap2\n  pop\n  pop\n  jump\t// out\n    /* \"#utility.yul\":845:1508   */\ntag_3:\n    /* \"#utility.yul\":933:939   */\n  0x00\n    /* \"#utility.yul\":941:947   */\n  dup1\n    /* \"#utility.yul\":949:955   */\n  0x00\n    /* \"#utility.yul\":998:1000   */\n  0x60\n    /* \"#utility.yul\":986:995   */\n  dup5\n    /* \"#utility.yul\":977:984   */\n  dup7\n    /* \"#utility.yul\":973:996   */\n  sub\n    /* \"#utility.yul\":969:1001   */\n  slt\n    /* \"#utility.yul\":966:1085   */\n  iszero\n  tag_29\n  jumpi\n    /* \"#utility.yul\":1004:1083   */\n  tag_30\n  tag_10\n  jump\t// in\ntag_30:\n    /* \"#utility.yul\":966:1085   */\ntag_29:\n    /* \"#utility.yul\":1124:1125   */\n  0x00\n    /* \"#utility.yul\":1149:1213   */\n  tag_31\n    /* \"#utility.yul\":1205:1212   */\n  dup7\n    /* \"#utility.yul\":1196:1202   */\n  dup3\n    /* \"#utility.yul\":1185:1194   */\n  dup8\n    /* \"#utility.yul\":1181:1203   */\n  add\n    /* \"#utility.yul\":1149:1213   */\n  tag_15\n  jump\t// in\ntag_31:\n    /* \"#utility.yul\":1139:1213   */\n  swap4\n  pop\n    /* \"#utility.yul\":1095:1223   */\n  pop\n    /* \"#utility.yul\":1262:1264   */\n  0x20\n    /* \"#utility.yul\":1288:1352   */\n  tag_32\n    /* \"#utility.yul\":1344:1351   */\n  dup7\n    /* \"#utility.yul\":1335:1341   */\n  dup3\n    /* \"#utility.yul\":1324:1333   */\n  dup8\n    /* \"#utility.yul\":1320:1342   */\n  add\n    /* \"#utility.yul\":1288:1352   */\n  tag_15\n  jump\t// in\ntag_32:\n    /* \"#utility.yul\":1278:1352   */\n  swap3\n  pop\n    /* \"#utility.yul\":1233:1362   */\n  pop\n    /* \"#utility.yul\":1401:1403   */\n  0x40\n    /* \"#utility.yul\":1427:1491   */\n  tag_33\n    /* \"#utility.yul\":1483:1490   */\n  dup7\n    /* \"#utility.yul\":1474:1480   */\n  dup3\n    /* \"#utility.yul\":1463:1472   */\n  dup8\n    /* \"#utility.yul\":1459:1481   */\n  add\n    /* \"#utility.yul\":1427:1491   */\n  tag_15\n  jump\t// in\ntag_33:\n    /* \"#utility.yul\":1417:1491   */\n  swap2\n  pop\n    /* \"#utility.yul\":1372:1501   */\n  pop\n    /* \"#utility.yul\":845:1508   */\n  swap3\n  pop\n  swap3\n  pop\n  swap3\n  jump\t// out\n    /* \"contracts/Gauge.sol\":9834:27524  contract Gauge is ReentrancyGuard {... */\ntag_8:\n  mload(0x80)\n  mload(0xa0)\n  mload(0xc0)\n  codecopy(0x00, dataOffset(sub_0), dataSize(sub_0))\n  0x00\n  assignImmutable(\"0x8e831a88d8106460d1544aa376ec6155091b50c6145ad03273db7938ca17c5b1\")\n  0x00\n  assignImmutable(\"0xf149c9166005b187f5af29ceb397e7b9b5ab7e3a911adc91a9ebb826b208930e\")\n  0x00\n  assignImmutable(\"0xd094ef07eef1924f3d7fe3d896f6ebece97bd5683077be90743b91a72d59db67\")\n  return(0x00, dataSize(sub_0))\nstop\n\nsub_0: assembly {\n        /* \"contracts/Gauge.sol\":9834:27524  contract Gauge is ReentrancyGuard {... */\n      mstore(0x40, 0x80)\n      callvalue\n      dup1\n      iszero\n      tag_1\n      jumpi\n      0x00\n      dup1\n      revert\n    tag_1:\n      pop\n      jumpi(tag_2, lt(calldatasize, 0x04))\n      shr(0xe0, calldataload(0x00))\n      dup1\n      0x76f4be36\n      gt\n      tag_40\n      jumpi\n      dup1\n      0xd7da4bb0\n      gt\n      tag_41\n      jumpi\n      dup1\n      0xf301af42\n      gt\n      tag_42\n      jumpi\n      dup1\n      0xf301af42\n      eq\n      tag_35\n      jumpi\n      dup1\n      0xf7412baf\n      eq\n      tag_36\n      jumpi\n      dup1\n      0xfc97a303\n      eq\n      tag_37\n      jumpi\n      dup1\n      0xfd314098\n      eq\n      tag_38\n      jumpi\n      dup1\n      0xfdb483c7\n      eq\n      tag_39\n      jumpi\n      jump(tag_2)\n    tag_42:\n      dup1\n      0xd7da4bb0\n      eq\n      tag_30\n      jumpi\n      dup1\n      0xe2bbb158\n      eq\n      tag_31\n      jumpi\n      dup1\n      0xe6886396\n      eq\n      tag_32\n      jumpi\n      dup1\n      0xe8111a12\n      eq\n      tag_33\n      jumpi\n      dup1\n      0xf1229777\n      eq\n      tag_34\n      jumpi\n      jump(tag_2)\n    tag_41:\n      dup1\n      0xa66f42c0\n      gt\n      tag_43\n      jumpi\n      dup1\n      0xa66f42c0\n      eq\n      tag_25\n      jumpi\n      dup1\n      0xaa479652\n      eq\n      tag_26\n      jumpi\n      dup1\n      0xb66503cf\n      eq\n      tag_27\n      jumpi\n      dup1\n      0xc6f678bd\n      eq\n      tag_28\n      jumpi\n      dup1\n      0xd35e2544\n      eq\n      tag_29\n      jumpi\n      jump(tag_2)\n    tag_43:\n      dup1\n      0x76f4be36\n      eq\n      tag_21\n      jumpi\n      dup1\n      0x853828b6\n      eq\n      tag_22\n      jumpi\n      dup1\n      0x9ce43f90\n      eq\n      tag_23\n      jumpi\n      dup1\n      0xa495e5b5\n      eq\n      tag_24\n      jumpi\n      jump(tag_2)\n    tag_40:\n      dup1\n      0x3a4b66f1\n      gt\n      tag_44\n      jumpi\n      dup1\n      0x5a45d052\n      gt\n      tag_45\n      jumpi\n      dup1\n      0x5a45d052\n      eq\n      tag_16\n      jumpi\n      dup1\n      0x638634ee\n      eq\n      tag_17\n      jumpi\n      dup1\n      0x63fb415b\n      eq\n      tag_18\n      jumpi\n      dup1\n      0x6fcfff45\n      eq\n      tag_19\n      jumpi\n      dup1\n      0x70a08231\n      eq\n      tag_20\n      jumpi\n      jump(tag_2)\n    tag_45:\n      dup1\n      0x3a4b66f1\n      eq\n      tag_12\n      jumpi\n      dup1\n      0x3b92eb23\n      eq\n      tag_13\n      jumpi\n      dup1\n      0x3ca068b6\n      eq\n      tag_14\n      jumpi\n      dup1\n      0x4d5ce038\n      eq\n      tag_15\n      jumpi\n      jump(tag_2)\n    tag_44:\n      dup1\n      0x211dc32d\n      gt\n      tag_46\n      jumpi\n      dup1\n      0x211dc32d\n      eq\n      tag_7\n      jumpi\n      dup1\n      0x221ca18c\n      eq\n      tag_8\n      jumpi\n      dup1\n      0x2ce9aead\n      eq\n      tag_9\n      jumpi\n      dup1\n      0x2e1a7d4d\n      eq\n      tag_10\n      jumpi\n      dup1\n      0x31279d3d\n      eq\n      tag_11\n      jumpi\n      jump(tag_2)\n    tag_46:\n      dup1\n      0x01316ddf\n      eq\n      tag_3\n      jumpi\n      dup1\n      0x0cdfebfa\n      eq\n      tag_4\n      jumpi\n      dup1\n      0x115c6f39\n      eq\n      tag_5\n      jumpi\n      dup1\n      0x18160ddd\n      eq\n      tag_6\n      jumpi\n    tag_2:\n      0x00\n      dup1\n      revert\n        /* \"contracts/Gauge.sol\":11567:11661  mapping(address => mapping(uint => RewardPerTokenCheckpoint)) public rewardPerTokenCheckpoints */\n    tag_3:\n      tag_47\n      0x04\n      dup1\n      calldatasize\n      sub\n      dup2\n      add\n      swap1\n      tag_48\n      swap2\n      swap1\n      tag_49\n      jump\t// in\n    tag_48:\n      tag_50\n      jump\t// in\n    tag_47:\n      mload(0x40)\n      tag_51\n      swap3\n      swap2\n      swap1\n      tag_52\n      jump\t// in\n    tag_51:\n      mload(0x40)\n      dup1\n      swap2\n      sub\n      swap1\n      return\n        /* \"contracts/Gauge.sol\":11337:11403  mapping(address => mapping(uint => Checkpoint)) public checkpoints */\n    tag_4:\n      tag_53\n      0x04\n      dup1\n      calldatasize\n      sub\n      dup2\n      add\n      swap1\n      tag_54\n      swap2\n      swap1\n      tag_49\n      jump\t// in\n    tag_54:\n      tag_55\n      jump\t// in\n    tag_53:\n      mload(0x40)\n      tag_56\n      swap3\n      swap2\n      swap1\n      tag_52\n      jump\t// in\n    tag_56:\n      mload(0x40)\n      dup1\n      swap2\n      sub\n      swap1\n      return\n        /* \"contracts/Gauge.sol\":11877:12917  function getPriorBalanceIndex(address account, uint timestamp) public view returns (uint) {... */\n    tag_5:\n      tag_57\n      0x04\n      dup1\n      calldatasize\n      sub\n      dup2\n      add\n      swap1\n      tag_58\n      swap2\n      swap1\n      tag_49\n      jump\t// in\n    tag_58:\n      tag_59\n      jump\t// in\n    tag_57:\n      mload(0x40)\n      tag_60\n      swap2\n      swap1\n      tag_61\n      jump\t// in\n    tag_60:\n      mload(0x40)\n      dup1\n      swap2\n      sub\n      swap1\n      return\n        /* \"contracts/Gauge.sol\":10921:10944  uint public totalSupply */\n    tag_6:\n      tag_62\n      tag_63\n      jump\t// in\n    tag_62:\n      mload(0x40)\n      tag_64\n      swap2\n      swap1\n      tag_61\n      jump\t// in\n    tag_64:\n      mload(0x40)\n      dup1\n      swap2\n      sub\n      swap1\n      return\n        /* \"contracts/Gauge.sol\":23159:24469  function earned(address token, address account) public view returns (uint) {... */\n    tag_7:\n      tag_65\n      0x04\n      dup1\n      calldatasize\n      sub\n      dup2\n      add\n      swap1\n      tag_66\n      swap2\n      swap1\n      tag_67\n      jump\t// in\n    tag_66:\n      tag_68\n      jump\t// in\n    tag_65:\n      mload(0x40)\n      tag_69\n      swap2\n      swap1\n      tag_61\n      jump\t// in\n    tag_69:\n      mload(0x40)\n      dup1\n      swap2\n      sub\n      swap1\n      return\n        /* \"contracts/Gauge.sol\":10566:10608  mapping(address => uint) public rewardRate */\n    tag_8:\n      tag_70\n      0x04\n      dup1\n      calldatasize\n      sub\n      dup2\n      add\n      swap1\n      tag_71\n      swap2\n      swap1\n      tag_72\n      jump\t// in\n    tag_71:\n      tag_73\n      jump\t// in\n    tag_70:\n      mload(0x40)\n      tag_74\n      swap2\n      swap1\n      tag_61\n      jump\t// in\n    tag_74:\n      mload(0x40)\n      dup1\n      swap2\n      sub\n      swap1\n      return\n        /* \"contracts/Gauge.sol\":10614:10660  mapping(address => uint) public lastUpdateTime */\n    tag_9:\n      tag_75\n      0x04\n      dup1\n      calldatasize\n      sub\n      dup2\n      add\n      swap1\n      tag_76\n      swap2\n      swap1\n      tag_72\n      jump\t// in\n    tag_76:\n      tag_77\n      jump\t// in\n    tag_75:\n      mload(0x40)\n      tag_78\n      swap2\n      swap1\n      tag_61\n      jump\t// in\n    tag_78:\n      mload(0x40)\n      dup1\n      swap2\n      sub\n      swap1\n      return\n        /* \"contracts/Gauge.sol\":25804:26016  function withdraw(uint amount) public {... */\n    tag_10:\n      tag_79\n      0x04\n      dup1\n      calldatasize\n      sub\n      dup2\n      add\n      swap1\n      tag_80\n      swap2\n      swap1\n      tag_81\n      jump\t// in\n    tag_80:\n      tag_82\n      jump\t// in\n    tag_79:\n      stop\n        /* \"contracts/Gauge.sol\":17810:18905  function getReward(address account, address[] memory tokens) external nonReentrant {... */\n    tag_11:\n      tag_83\n      0x04\n      dup1\n      calldatasize\n      sub\n      dup2\n      add\n      swap1\n      tag_84\n      swap2\n      swap1\n      tag_85\n      jump\t// in\n    tag_84:\n      tag_86\n      jump\t// in\n    tag_83:\n      stop\n        /* \"contracts/Gauge.sol\":10185:10215  address public immutable stake */\n    tag_12:\n      tag_87\n      tag_88\n      jump\t// in\n    tag_87:\n      mload(0x40)\n      tag_89\n      swap2\n      swap1\n      tag_90\n      jump\t// in\n    tag_89:\n      mload(0x40)\n      dup1\n      swap2\n      sub\n      swap1\n      return\n        /* \"contracts/Gauge.sol\":10273:10305  address public immutable veToken */\n    tag_13:\n      tag_91\n      tag_92\n      jump\t// in\n    tag_91:\n      mload(0x40)\n      tag_93\n      swap2\n      swap1\n      tag_90\n      jump\t// in\n    tag_93:\n      mload(0x40)\n      dup1\n      swap2\n      sub\n      swap1\n      return\n        /* \"contracts/Gauge.sol\":10791:10867  mapping(address => mapping(address => uint)) public userRewardPerTokenStored */\n    tag_14:\n      tag_94\n      0x04\n      dup1\n      calldatasize\n      sub\n      dup2\n      add\n      swap1\n      tag_95\n      swap2\n      swap1\n      tag_67\n      jump\t// in\n    tag_95:\n      tag_96\n      jump\t// in\n    tag_94:\n      mload(0x40)\n      tag_97\n      swap2\n      swap1\n      tag_61\n      jump\t// in\n    tag_97:\n      mload(0x40)\n      dup1\n      swap2\n      sub\n      swap1\n      return\n        /* \"contracts/Gauge.sol\":11028:11068  mapping(address => bool) public isReward */\n    tag_15:\n      tag_98\n      0x04\n      dup1\n      calldatasize\n      sub\n      dup2\n      add\n      swap1\n      tag_99\n      swap2\n      swap1\n      tag_72\n      jump\t// in\n    tag_99:\n      tag_100\n      jump\t// in\n    tag_98:\n      mload(0x40)\n      tag_101\n      swap2\n      swap1\n      tag_102\n      jump\t// in\n    tag_101:\n      mload(0x40)\n      dup1\n      swap2\n      sub\n      swap1\n      return\n        /* \"contracts/Gauge.sol\":19811:19986  function batchRewardPerToken(address token, uint maxRuns) external {... */\n    tag_16:\n      tag_103\n      0x04\n      dup1\n      calldatasize\n      sub\n      dup2\n      add\n      swap1\n      tag_104\n      swap2\n      swap1\n      tag_49\n      jump\t// in\n    tag_104:\n      tag_105\n      jump\t// in\n    tag_103:\n      stop\n        /* \"contracts/Gauge.sol\":17091:17206  function lastTimeRewardApplicable(address token) public view returns (uint) {... */\n    tag_17:\n      tag_106\n      0x04\n      dup1\n      calldatasize\n      sub\n      dup2\n      add\n      swap1\n      tag_107\n      swap2\n      swap1\n      tag_72\n      jump\t// in\n    tag_107:\n      tag_108\n      jump\t// in\n    tag_106:\n      mload(0x40)\n      tag_109\n      swap2\n      swap1\n      tag_61\n      jump\t// in\n    tag_109:\n      mload(0x40)\n      dup1\n      swap2\n      sub\n      swap1\n      return\n        /* \"contracts/Gauge.sol\":10411:10458  mapping(address => uint) public derivedBalances */\n    tag_18:\n      tag_110\n      0x04\n      dup1\n      calldatasize\n      sub\n      dup2\n      add\n      swap1\n      tag_111\n      swap2\n      swap1\n      tag_72\n      jump\t// in\n    tag_111:\n      tag_112\n      jump\t// in\n    tag_110:\n      mload(0x40)\n      tag_113\n      swap2\n      swap1\n      tag_61\n      jump\t// in\n    tag_113:\n      mload(0x40)\n      dup1\n      swap2\n      sub\n      swap1\n      return\n        /* \"contracts/Gauge.sol\":11410:11456  mapping(address => uint) public numCheckpoints */\n    tag_19:\n      tag_114\n      0x04\n      dup1\n      calldatasize\n      sub\n      dup2\n      add\n      swap1\n      tag_115\n      swap2\n      swap1\n      tag_72\n      jump\t// in\n    tag_115:\n      tag_116\n      jump\t// in\n    tag_114:\n      mload(0x40)\n      tag_117\n      swap2\n      swap1\n      tag_61\n      jump\t// in\n    tag_117:\n      mload(0x40)\n      dup1\n      swap2\n      sub\n      swap1\n      return\n        /* \"contracts/Gauge.sol\":10950:10991  mapping(address => uint) public balanceOf */\n    tag_20:\n      tag_118\n      0x04\n      dup1\n      calldatasize\n      sub\n      dup2\n      add\n      swap1\n      tag_119\n      swap2\n      swap1\n      tag_72\n      jump\t// in\n    tag_119:\n      tag_120\n      jump\t// in\n    tag_118:\n      mload(0x40)\n      tag_121\n      swap2\n      swap1\n      tag_61\n      jump\t// in\n    tag_121:\n      mload(0x40)\n      dup1\n      swap2\n      sub\n      swap1\n      return\n        /* \"contracts/Gauge.sol\":12923:13939  function getPriorSupplyIndex(uint timestamp) public view returns (uint) {... */\n    tag_21:\n      tag_122\n      0x04\n      dup1\n      calldatasize\n      sub\n      dup2\n      add\n      swap1\n      tag_123\n      swap2\n      swap1\n      tag_81\n      jump\t// in\n    tag_123:\n      tag_124\n      jump\t// in\n    tag_122:\n      mload(0x40)\n      tag_125\n      swap2\n      swap1\n      tag_61\n      jump\t// in\n    tag_125:\n      mload(0x40)\n      dup1\n      swap2\n      sub\n      swap1\n      return\n        /* \"contracts/Gauge.sol\":25718:25798  function withdrawAll() external {... */\n    tag_22:\n      tag_126\n      tag_127\n      jump\t// in\n    tag_126:\n      stop\n        /* \"contracts/Gauge.sol\":10666:10718  mapping(address => uint) public rewardPerTokenStored */\n    tag_23:\n      tag_128\n      0x04\n      dup1\n      calldatasize\n      sub\n      dup2\n      add\n      swap1\n      tag_129\n      swap2\n      swap1\n      tag_72\n      jump\t// in\n    tag_129:\n      tag_130\n      jump\t// in\n    tag_128:\n      mload(0x40)\n      tag_131\n      swap2\n      swap1\n      tag_61\n      jump\t// in\n    tag_131:\n      mload(0x40)\n      dup1\n      swap2\n      sub\n      swap1\n      return\n        /* \"contracts/Gauge.sol\":10725:10785  mapping(address => mapping(address => uint)) public lastEarn */\n    tag_24:\n      tag_132\n      0x04\n      dup1\n      calldatasize\n      sub\n      dup2\n      add\n      swap1\n      tag_133\n      swap2\n      swap1\n      tag_67\n      jump\t// in\n    tag_133:\n      tag_134\n      jump\t// in\n    tag_132:\n      mload(0x40)\n      tag_135\n      swap2\n      swap1\n      tag_61\n      jump\t// in\n    tag_135:\n      mload(0x40)\n      dup1\n      swap2\n      sub\n      swap1\n      return\n        /* \"contracts/Gauge.sol\":10343:10373  address public immutable boost */\n    tag_25:\n      tag_136\n      tag_137\n      jump\t// in\n    tag_136:\n      mload(0x40)\n      tag_138\n      swap2\n      swap1\n      tag_90\n      jump\t// in\n    tag_138:\n      mload(0x40)\n      dup1\n      swap2\n      sub\n      swap1\n      return\n        /* \"contracts/Gauge.sol\":11667:11727  mapping(address => uint) public rewardPerTokenNumCheckpoints */\n    tag_26:\n      tag_139\n      0x04\n      dup1\n      calldatasize\n      sub\n      dup2\n      add\n      swap1\n      tag_140\n      swap2\n      swap1\n      tag_72\n      jump\t// in\n    tag_140:\n      tag_141\n      jump\t// in\n    tag_139:\n      mload(0x40)\n      tag_142\n      swap2\n      swap1\n      tag_61\n      jump\t// in\n    tag_142:\n      mload(0x40)\n      dup1\n      swap2\n      sub\n      swap1\n      return\n        /* \"contracts/Gauge.sol\":26975:27521  function notifyRewardAmount(address token, uint _rewardRate) external  {... */\n    tag_27:\n      tag_143\n      0x04\n      dup1\n      calldatasize\n      sub\n      dup2\n      add\n      swap1\n      tag_144\n      swap2\n      swap1\n      tag_49\n      jump\t// in\n    tag_144:\n      tag_145\n      jump\t// in\n    tag_143:\n      stop\n        /* \"contracts/Gauge.sol\":24475:24588  function depositAll(uint tokenId) external {... */\n    tag_28:\n      tag_146\n      0x04\n      dup1\n      calldatasize\n      sub\n      dup2\n      add\n      swap1\n      tag_147\n      swap2\n      swap1\n      tag_81\n      jump\t// in\n    tag_147:\n      tag_148\n      jump\t// in\n    tag_146:\n      stop\n        /* \"contracts/Gauge.sol\":19237:19805  function derivedBalance(address account) public view returns (uint) {... */\n    tag_29:\n      tag_149\n      0x04\n      dup1\n      calldatasize\n      sub\n      dup2\n      add\n      swap1\n      tag_150\n      swap2\n      swap1\n      tag_72\n      jump\t// in\n    tag_150:\n      tag_151\n      jump\t// in\n    tag_149:\n      mload(0x40)\n      tag_152\n      swap2\n      swap1\n      tag_61\n      jump\t// in\n    tag_152:\n      mload(0x40)\n      dup1\n      swap2\n      sub\n      swap1\n      return\n        /* \"contracts/Gauge.sol\":10380:10405  uint public derivedSupply */\n    tag_30:\n      tag_153\n      tag_154\n      jump\t// in\n    tag_153:\n      mload(0x40)\n      tag_155\n      swap2\n      swap1\n      tag_61\n      jump\t// in\n    tag_155:\n      mload(0x40)\n      dup1\n      swap2\n      sub\n      swap1\n      return\n        /* \"contracts/Gauge.sol\":24594:25712  function deposit(uint amount, uint tokenId) public nonReentrant {... */\n    tag_31:\n      tag_156\n      0x04\n      dup1\n      calldatasize\n      sub\n      dup2\n      add\n      swap1\n      tag_157\n      swap2\n      swap1\n      tag_158\n      jump\t// in\n    tag_157:\n      tag_159\n      jump\t// in\n    tag_156:\n      stop\n        /* \"contracts/Gauge.sol\":16896:16992  function rewardsListLength() external view returns (uint) {... */\n    tag_32:\n      tag_160\n      tag_161\n      jump\t// in\n    tag_160:\n      mload(0x40)\n      tag_162\n      swap2\n      swap1\n      tag_61\n      jump\t// in\n    tag_162:\n      mload(0x40)\n      dup1\n      swap2\n      sub\n      swap1\n      return\n        /* \"contracts/Gauge.sol\":11528:11560  uint public supplyNumCheckpoints */\n    tag_33:\n      tag_163\n      tag_164\n      jump\t// in\n    tag_163:\n      mload(0x40)\n      tag_165\n      swap2\n      swap1\n      tag_61\n      jump\t// in\n    tag_165:\n      mload(0x40)\n      dup1\n      swap2\n      sub\n      swap1\n      return\n        /* \"contracts/Gauge.sol\":18912:19231  function rewardPerToken(address token) public view returns (uint) {... */\n    tag_34:\n      tag_166\n      0x04\n      dup1\n      calldatasize\n      sub\n      dup2\n      add\n      swap1\n      tag_167\n      swap2\n      swap1\n      tag_72\n      jump\t// in\n    tag_167:\n      tag_168\n      jump\t// in\n    tag_166:\n      mload(0x40)\n      tag_169\n      swap2\n      swap1\n      tag_61\n      jump\t// in\n    tag_169:\n      mload(0x40)\n      dup1\n      swap2\n      sub\n      swap1\n      return\n        /* \"contracts/Gauge.sol\":10998:11022  address[] public rewards */\n    tag_35:\n      tag_170\n      0x04\n      dup1\n      calldatasize\n      sub\n      dup2\n      add\n      swap1\n      tag_171\n      swap2\n      swap1\n      tag_81\n      jump\t// in\n    tag_171:\n      tag_172\n      jump\t// in\n    tag_170:\n      mload(0x40)\n      tag_173\n      swap2\n      swap1\n      tag_90\n      jump\t// in\n    tag_173:\n      mload(0x40)\n      dup1\n      swap2\n      sub\n      swap1\n      return\n        /* \"contracts/Gauge.sol\":11463:11521  mapping(uint => SupplyCheckpoint) public supplyCheckpoints */\n    tag_36:\n      tag_174\n      0x04\n      dup1\n      calldatasize\n      sub\n      dup2\n      add\n      swap1\n      tag_175\n      swap2\n      swap1\n      tag_81\n      jump\t// in\n    tag_175:\n      tag_176\n      jump\t// in\n    tag_174:\n      mload(0x40)\n      tag_177\n      swap3\n      swap2\n      swap1\n      tag_52\n      jump\t// in\n    tag_177:\n      mload(0x40)\n      dup1\n      swap2\n      sub\n      swap1\n      return\n        /* \"contracts/Gauge.sol\":10874:10914  mapping(address => uint) public tokenIds */\n    tag_37:\n      tag_178\n      0x04\n      dup1\n      calldatasize\n      sub\n      dup2\n      add\n      swap1\n      tag_179\n      swap2\n      swap1\n      tag_72\n      jump\t// in\n    tag_179:\n      tag_180\n      jump\t// in\n    tag_178:\n      mload(0x40)\n      tag_181\n      swap2\n      swap1\n      tag_61\n      jump\t// in\n    tag_181:\n      mload(0x40)\n      dup1\n      swap2\n      sub\n      swap1\n      return\n        /* \"contracts/Gauge.sol\":13945:15303  function getPriorRewardPerToken(address token, uint timestamp) public view returns (uint, uint) {... */\n    tag_38:\n      tag_182\n      0x04\n      dup1\n      calldatasize\n      sub\n      dup2\n      add\n      swap1\n      tag_183\n      swap2\n      swap1\n      tag_49\n      jump\t// in\n    tag_183:\n      tag_184\n      jump\t// in\n    tag_182:\n      mload(0x40)\n      tag_185\n      swap3\n      swap2\n      swap1\n      tag_52\n      jump\t// in\n    tag_185:\n      mload(0x40)\n      dup1\n      swap2\n      sub\n      swap1\n      return\n        /* \"contracts/Gauge.sol\":26022:26969  function withdrawToken(uint amount, uint tokenId) public nonReentrant {... */\n    tag_39:\n      tag_186\n      0x04\n      dup1\n      calldatasize\n      sub\n      dup2\n      add\n      swap1\n      tag_187\n      swap2\n      swap1\n      tag_158\n      jump\t// in\n    tag_187:\n      tag_188\n      jump\t// in\n    tag_186:\n      stop\n        /* \"contracts/Gauge.sol\":11567:11661  mapping(address => mapping(uint => RewardPerTokenCheckpoint)) public rewardPerTokenCheckpoints */\n    tag_50:\n      mstore(0x20, 0x11)\n      dup2\n      0x00\n      mstore\n      mstore(0x20, keccak256(0x00, 0x40))\n      dup1\n      0x00\n      mstore\n      keccak256(0x00, 0x40)\n      0x00\n      swap2\n      pop\n      swap2\n      pop\n      pop\n      dup1\n      0x00\n      add\n      sload\n      swap1\n      dup1\n      0x01\n      add\n      sload\n      swap1\n      pop\n      dup3\n      jump\t// out\n        /* \"contracts/Gauge.sol\":11337:11403  mapping(address => mapping(uint => Checkpoint)) public checkpoints */\n    tag_55:\n      mstore(0x20, 0x0d)\n      dup2\n      0x00\n      mstore\n      mstore(0x20, keccak256(0x00, 0x40))\n      dup1\n      0x00\n      mstore\n      keccak256(0x00, 0x40)\n      0x00\n      swap2\n      pop\n      swap2\n      pop\n      pop\n      dup1\n      0x00\n      add\n      sload\n      swap1\n      dup1\n      0x01\n      add\n      sload\n      swap1\n      pop\n      dup3\n      jump\t// out\n        /* \"contracts/Gauge.sol\":11877:12917  function getPriorBalanceIndex(address account, uint timestamp) public view returns (uint) {... */\n    tag_59:\n        /* \"contracts/Gauge.sol\":11961:11965  uint */\n      0x00\n        /* \"contracts/Gauge.sol\":11977:11994  uint nCheckpoints */\n      dup1\n        /* \"contracts/Gauge.sol\":11997:12011  numCheckpoints */\n      0x0e\n        /* \"contracts/Gauge.sol\":11997:12020  numCheckpoints[account] */\n      0x00\n        /* \"contracts/Gauge.sol\":12012:12019  account */\n      dup6\n        /* \"contracts/Gauge.sol\":11997:12020  numCheckpoints[account] */\n      0xffffffffffffffffffffffffffffffffffffffff\n      and\n      0xffffffffffffffffffffffffffffffffffffffff\n      and\n      dup2\n      mstore\n      0x20\n      add\n      swap1\n      dup2\n      mstore\n      0x20\n      add\n      0x00\n      keccak256\n      sload\n        /* \"contracts/Gauge.sol\":11977:12020  uint nCheckpoints = numCheckpoints[account] */\n      swap1\n      pop\n        /* \"contracts/Gauge.sol\":12050:12051  0 */\n      0x00\n        /* \"contracts/Gauge.sol\":12034:12046  nCheckpoints */\n      dup2\n        /* \"contracts/Gauge.sol\":12034:12051  nCheckpoints == 0 */\n      eq\n        /* \"contracts/Gauge.sol\":12030:12086  if (nCheckpoints == 0) {... */\n      iszero\n      tag_190\n      jumpi\n        /* \"contracts/Gauge.sol\":12074:12075  0 */\n      0x00\n        /* \"contracts/Gauge.sol\":12067:12075  return 0 */\n      swap2\n      pop\n      pop\n      jump(tag_189)\n        /* \"contracts/Gauge.sol\":12030:12086  if (nCheckpoints == 0) {... */\n    tag_190:\n        /* \"contracts/Gauge.sol\":12195:12204  timestamp */\n      dup3\n        /* \"contracts/Gauge.sol\":12143:12154  checkpoints */\n      0x0d\n        /* \"contracts/Gauge.sol\":12143:12163  checkpoints[account] */\n      0x00\n        /* \"contracts/Gauge.sol\":12155:12162  account */\n      dup7\n        /* \"contracts/Gauge.sol\":12143:12163  checkpoints[account] */\n      0xffffffffffffffffffffffffffffffffffffffff\n      and\n      0xffffffffffffffffffffffffffffffffffffffff\n      and\n      dup2\n      mstore\n      0x20\n      add\n      swap1\n      dup2\n      mstore\n      0x20\n      add\n      0x00\n      keccak256\n        /* \"contracts/Gauge.sol\":12143:12181  checkpoints[account][nCheckpoints - 1] */\n      0x00\n        /* \"contracts/Gauge.sol\":12179:12180  1 */\n      0x01\n        /* \"contracts/Gauge.sol\":12164:12176  nCheckpoints */\n      dup5\n        /* \"contracts/Gauge.sol\":12164:12180  nCheckpoints - 1 */\n      tag_191\n      swap2\n      swap1\n      tag_192\n      jump\t// in\n    tag_191:\n        /* \"contracts/Gauge.sol\":12143:12181  checkpoints[account][nCheckpoints - 1] */\n      dup2\n      mstore\n      0x20\n      add\n      swap1\n      dup2\n      mstore\n      0x20\n      add\n      0x00\n      keccak256\n        /* \"contracts/Gauge.sol\":12143:12191  checkpoints[account][nCheckpoints - 1].timestamp */\n      0x00\n      add\n      sload\n        /* \"contracts/Gauge.sol\":12143:12204  checkpoints[account][nCheckpoints - 1].timestamp <= timestamp */\n      gt\n        /* \"contracts/Gauge.sol\":12139:12256  if (checkpoints[account][nCheckpoints - 1].timestamp <= timestamp) {... */\n      tag_193\n      jumpi\n        /* \"contracts/Gauge.sol\":12243:12244  1 */\n      0x01\n        /* \"contracts/Gauge.sol\":12228:12240  nCheckpoints */\n      dup2\n        /* \"contracts/Gauge.sol\":12228:12244  nCheckpoints - 1 */\n      tag_194\n      swap2\n      swap1\n      tag_192\n      jump\t// in\n    tag_194:\n        /* \"contracts/Gauge.sol\":12220:12245  return (nCheckpoints - 1) */\n      swap2\n      pop\n      pop\n      jump(tag_189)\n        /* \"contracts/Gauge.sol\":12139:12256  if (checkpoints[account][nCheckpoints - 1].timestamp <= timestamp) {... */\n    tag_193:\n        /* \"contracts/Gauge.sol\":12350:12359  timestamp */\n      dup3\n        /* \"contracts/Gauge.sol\":12314:12325  checkpoints */\n      0x0d\n        /* \"contracts/Gauge.sol\":12314:12334  checkpoints[account] */\n      0x00\n        /* \"contracts/Gauge.sol\":12326:12333  account */\n      dup7\n        /* \"contracts/Gauge.sol\":12314:12334  checkpoints[account] */\n      0xffffffffffffffffffffffffffffffffffffffff\n      and\n      0xffffffffffffffffffffffffffffffffffffffff\n      and\n      dup2\n      mstore\n      0x20\n      add\n      swap1\n      dup2\n      mstore\n      0x20\n      add\n      0x00\n      keccak256\n        /* \"contracts/Gauge.sol\":12314:12337  checkpoints[account][0] */\n      0x00\n        /* \"contracts/Gauge.sol\":12335:12336  0 */\n      dup1\n        /* \"contracts/Gauge.sol\":12314:12337  checkpoints[account][0] */\n      dup2\n      mstore\n      0x20\n      add\n      swap1\n      dup2\n      mstore\n      0x20\n      add\n      0x00\n      keccak256\n        /* \"contracts/Gauge.sol\":12314:12347  checkpoints[account][0].timestamp */\n      0x00\n      add\n      sload\n        /* \"contracts/Gauge.sol\":12314:12359  checkpoints[account][0].timestamp > timestamp */\n      gt\n        /* \"contracts/Gauge.sol\":12310:12394  if (checkpoints[account][0].timestamp > timestamp) {... */\n      iszero\n      tag_195\n      jumpi\n        /* \"contracts/Gauge.sol\":12382:12383  0 */\n      0x00\n        /* \"contracts/Gauge.sol\":12375:12383  return 0 */\n      swap2\n      pop\n      pop\n      jump(tag_189)\n        /* \"contracts/Gauge.sol\":12310:12394  if (checkpoints[account][0].timestamp > timestamp) {... */\n    tag_195:\n        /* \"contracts/Gauge.sol\":12404:12414  uint lower */\n      0x00\n        /* \"contracts/Gauge.sol\":12428:12438  uint upper */\n      dup1\n        /* \"contracts/Gauge.sol\":12456:12457  1 */\n      0x01\n        /* \"contracts/Gauge.sol\":12441:12453  nCheckpoints */\n      dup4\n        /* \"contracts/Gauge.sol\":12441:12457  nCheckpoints - 1 */\n      tag_196\n      swap2\n      swap1\n      tag_192\n      jump\t// in\n    tag_196:\n        /* \"contracts/Gauge.sol\":12428:12457  uint upper = nCheckpoints - 1 */\n      swap1\n      pop\n        /* \"contracts/Gauge.sol\":12467:12889  while (upper > lower) {... */\n    tag_197:\n        /* \"contracts/Gauge.sol\":12482:12487  lower */\n      dup2\n        /* \"contracts/Gauge.sol\":12474:12479  upper */\n      dup2\n        /* \"contracts/Gauge.sol\":12474:12487  upper > lower */\n      gt\n        /* \"contracts/Gauge.sol\":12467:12889  while (upper > lower) {... */\n      iszero\n      tag_198\n      jumpi\n        /* \"contracts/Gauge.sol\":12503:12514  uint center */\n      0x00\n        /* \"contracts/Gauge.sol\":12543:12544  2 */\n      0x02\n        /* \"contracts/Gauge.sol\":12534:12539  lower */\n      dup4\n        /* \"contracts/Gauge.sol\":12526:12531  upper */\n      dup4\n        /* \"contracts/Gauge.sol\":12526:12539  upper - lower */\n      tag_199\n      swap2\n      swap1\n      tag_192\n      jump\t// in\n    tag_199:\n        /* \"contracts/Gauge.sol\":12525:12544  (upper - lower) / 2 */\n      tag_200\n      swap2\n      swap1\n      tag_201\n      jump\t// in\n    tag_200:\n        /* \"contracts/Gauge.sol\":12517:12522  upper */\n      dup3\n        /* \"contracts/Gauge.sol\":12517:12544  upper - (upper - lower) / 2 */\n      tag_202\n      swap2\n      swap1\n      tag_192\n      jump\t// in\n    tag_202:\n        /* \"contracts/Gauge.sol\":12503:12544  uint center = upper - (upper - lower) / 2 */\n      swap1\n      pop\n        /* \"contracts/Gauge.sol\":12597:12617  Checkpoint memory cp */\n      0x00\n        /* \"contracts/Gauge.sol\":12620:12631  checkpoints */\n      0x0d\n        /* \"contracts/Gauge.sol\":12620:12640  checkpoints[account] */\n      0x00\n        /* \"contracts/Gauge.sol\":12632:12639  account */\n      dup10\n        /* \"contracts/Gauge.sol\":12620:12640  checkpoints[account] */\n      0xffffffffffffffffffffffffffffffffffffffff\n      and\n      0xffffffffffffffffffffffffffffffffffffffff\n      and\n      dup2\n      mstore\n      0x20\n      add\n      swap1\n      dup2\n      mstore\n      0x20\n      add\n      0x00\n      keccak256\n        /* \"contracts/Gauge.sol\":12620:12648  checkpoints[account][center] */\n      0x00\n        /* \"contracts/Gauge.sol\":12641:12647  center */\n      dup4\n        /* \"contracts/Gauge.sol\":12620:12648  checkpoints[account][center] */\n      dup2\n      mstore\n      0x20\n      add\n      swap1\n      dup2\n      mstore\n      0x20\n      add\n      0x00\n      keccak256\n        /* \"contracts/Gauge.sol\":12597:12648  Checkpoint memory cp = checkpoints[account][center] */\n      mload(0x40)\n      dup1\n      0x40\n      add\n      0x40\n      mstore\n      swap1\n      dup2\n      0x00\n      dup3\n      add\n      sload\n      dup2\n      mstore\n      0x20\n      add\n      0x01\n      dup3\n      add\n      sload\n      dup2\n      mstore\n      pop\n      pop\n      swap1\n      pop\n        /* \"contracts/Gauge.sol\":12682:12691  timestamp */\n      dup7\n        /* \"contracts/Gauge.sol\":12666:12668  cp */\n      dup2\n        /* \"contracts/Gauge.sol\":12666:12678  cp.timestamp */\n      0x00\n      add\n      mload\n        /* \"contracts/Gauge.sol\":12666:12691  cp.timestamp == timestamp */\n      eq\n        /* \"contracts/Gauge.sol\":12662:12879  if (cp.timestamp == timestamp) {... */\n      iszero\n      tag_203\n      jumpi\n        /* \"contracts/Gauge.sol\":12718:12724  center */\n      dup2\n        /* \"contracts/Gauge.sol\":12711:12724  return center */\n      swap6\n      pop\n      pop\n      pop\n      pop\n      pop\n      pop\n      jump(tag_189)\n        /* \"contracts/Gauge.sol\":12662:12879  if (cp.timestamp == timestamp) {... */\n    tag_203:\n        /* \"contracts/Gauge.sol\":12764:12773  timestamp */\n      dup7\n        /* \"contracts/Gauge.sol\":12749:12751  cp */\n      dup2\n        /* \"contracts/Gauge.sol\":12749:12761  cp.timestamp */\n      0x00\n      add\n      mload\n        /* \"contracts/Gauge.sol\":12749:12773  cp.timestamp < timestamp */\n      lt\n        /* \"contracts/Gauge.sol\":12745:12879  if (cp.timestamp < timestamp) {... */\n      iszero\n      tag_205\n      jumpi\n        /* \"contracts/Gauge.sol\":12801:12807  center */\n      dup2\n        /* \"contracts/Gauge.sol\":12793:12807  lower = center */\n      swap4\n      pop\n        /* \"contracts/Gauge.sol\":12745:12879  if (cp.timestamp < timestamp) {... */\n      jump(tag_206)\n    tag_205:\n        /* \"contracts/Gauge.sol\":12863:12864  1 */\n      0x01\n        /* \"contracts/Gauge.sol\":12854:12860  center */\n      dup3\n        /* \"contracts/Gauge.sol\":12854:12864  center - 1 */\n      tag_207\n      swap2\n      swap1\n      tag_192\n      jump\t// in\n    tag_207:\n        /* \"contracts/Gauge.sol\":12846:12864  upper = center - 1 */\n      swap3\n      pop\n        /* \"contracts/Gauge.sol\":12745:12879  if (cp.timestamp < timestamp) {... */\n    tag_206:\n        /* \"contracts/Gauge.sol\":12489:12889  {... */\n      pop\n      pop\n        /* \"contracts/Gauge.sol\":12467:12889  while (upper > lower) {... */\n      jump(tag_197)\n    tag_198:\n        /* \"contracts/Gauge.sol\":12905:12910  lower */\n      dup2\n        /* \"contracts/Gauge.sol\":12898:12910  return lower */\n      swap4\n      pop\n      pop\n      pop\n      pop\n        /* \"contracts/Gauge.sol\":11877:12917  function getPriorBalanceIndex(address account, uint timestamp) public view returns (uint) {... */\n    tag_189:\n      swap3\n      swap2\n      pop\n      pop\n      jump\t// out\n        /* \"contracts/Gauge.sol\":10921:10944  uint public totalSupply */\n    tag_63:\n      sload(0x09)\n      dup2\n      jump\t// out\n        /* \"contracts/Gauge.sol\":23159:24469  function earned(address token, address account) public view returns (uint) {... */\n    tag_68:\n        /* \"contracts/Gauge.sol\":23228:23232  uint */\n      0x00\n        /* \"contracts/Gauge.sol\":23244:23264  uint _startTimestamp */\n      dup1\n        /* \"contracts/Gauge.sol\":23267:23348  Math.max(lastEarn[token][account], rewardPerTokenCheckpoints[token][0].timestamp) */\n      tag_209\n        /* \"contracts/Gauge.sol\":23276:23284  lastEarn */\n      0x06\n        /* \"contracts/Gauge.sol\":23276:23291  lastEarn[token] */\n      0x00\n        /* \"contracts/Gauge.sol\":23285:23290  token */\n      dup7\n        /* \"contracts/Gauge.sol\":23276:23291  lastEarn[token] */\n      0xffffffffffffffffffffffffffffffffffffffff\n      and\n      0xffffffffffffffffffffffffffffffffffffffff\n      and\n      dup2\n      mstore\n      0x20\n      add\n      swap1\n      dup2\n      mstore\n      0x20\n      add\n      0x00\n      keccak256\n        /* \"contracts/Gauge.sol\":23276:23300  lastEarn[token][account] */\n      0x00\n        /* \"contracts/Gauge.sol\":23292:23299  account */\n      dup6\n        /* \"contracts/Gauge.sol\":23276:23300  lastEarn[token][account] */\n      0xffffffffffffffffffffffffffffffffffffffff\n      and\n      0xffffffffffffffffffffffffffffffffffffffff\n      and\n      dup2\n      mstore\n      0x20\n      add\n      swap1\n      dup2\n      mstore\n      0x20\n      add\n      0x00\n      keccak256\n      sload\n        /* \"contracts/Gauge.sol\":23302:23327  rewardPerTokenCheckpoints */\n      0x11\n        /* \"contracts/Gauge.sol\":23302:23334  rewardPerTokenCheckpoints[token] */\n      0x00\n        /* \"contracts/Gauge.sol\":23328:23333  token */\n      dup8\n        /* \"contracts/Gauge.sol\":23302:23334  rewardPerTokenCheckpoints[token] */\n      0xffffffffffffffffffffffffffffffffffffffff\n      and\n      0xffffffffffffffffffffffffffffffffffffffff\n      and\n      dup2\n      mstore\n      0x20\n      add\n      swap1\n      dup2\n      mstore\n      0x20\n      add\n      0x00\n      keccak256\n        /* \"contracts/Gauge.sol\":23302:23337  rewardPerTokenCheckpoints[token][0] */\n      0x00\n        /* \"contracts/Gauge.sol\":23335:23336  0 */\n      dup1\n        /* \"contracts/Gauge.sol\":23302:23337  rewardPerTokenCheckpoints[token][0] */\n      dup2\n      mstore\n      0x20\n      add\n      swap1\n      dup2\n      mstore\n      0x20\n      add\n      0x00\n      keccak256\n        /* \"contracts/Gauge.sol\":23302:23347  rewardPerTokenCheckpoints[token][0].timestamp */\n      0x00\n      add\n      sload\n        /* \"contracts/Gauge.sol\":23267:23275  Math.max */\n      tag_210\n        /* \"contracts/Gauge.sol\":23267:23348  Math.max(lastEarn[token][account], rewardPerTokenCheckpoints[token][0].timestamp) */\n      jump\t// in\n    tag_209:\n        /* \"contracts/Gauge.sol\":23244:23348  uint _startTimestamp = Math.max(lastEarn[token][account], rewardPerTokenCheckpoints[token][0].timestamp) */\n      swap1\n      pop\n        /* \"contracts/Gauge.sol\":23389:23390  0 */\n      0x00\n        /* \"contracts/Gauge.sol\":23362:23376  numCheckpoints */\n      0x0e\n        /* \"contracts/Gauge.sol\":23362:23385  numCheckpoints[account] */\n      0x00\n        /* \"contracts/Gauge.sol\":23377:23384  account */\n      dup6\n        /* \"contracts/Gauge.sol\":23362:23385  numCheckpoints[account] */\n      0xffffffffffffffffffffffffffffffffffffffff\n      and\n      0xffffffffffffffffffffffffffffffffffffffff\n      and\n      dup2\n      mstore\n      0x20\n      add\n      swap1\n      dup2\n      mstore\n      0x20\n      add\n      0x00\n      keccak256\n      sload\n        /* \"contracts/Gauge.sol\":23362:23390  numCheckpoints[account] == 0 */\n      eq\n        /* \"contracts/Gauge.sol\":23358:23425  if (numCheckpoints[account] == 0) {... */\n      iszero\n      tag_211\n      jumpi\n        /* \"contracts/Gauge.sol\":23413:23414  0 */\n      0x00\n        /* \"contracts/Gauge.sol\":23406:23414  return 0 */\n      swap2\n      pop\n      pop\n      jump(tag_208)\n        /* \"contracts/Gauge.sol\":23358:23425  if (numCheckpoints[account] == 0) {... */\n    tag_211:\n        /* \"contracts/Gauge.sol\":23435:23451  uint _startIndex */\n      0x00\n        /* \"contracts/Gauge.sol\":23454:23500  getPriorBalanceIndex(account, _startTimestamp) */\n      tag_212\n        /* \"contracts/Gauge.sol\":23475:23482  account */\n      dup5\n        /* \"contracts/Gauge.sol\":23484:23499  _startTimestamp */\n      dup4\n        /* \"contracts/Gauge.sol\":23454:23474  getPriorBalanceIndex */\n      tag_59\n        /* \"contracts/Gauge.sol\":23454:23500  getPriorBalanceIndex(account, _startTimestamp) */\n      jump\t// in\n    tag_212:\n        /* \"contracts/Gauge.sol\":23435:23500  uint _startIndex = getPriorBalanceIndex(account, _startTimestamp) */\n      swap1\n      pop\n        /* \"contracts/Gauge.sol\":23510:23524  uint _endIndex */\n      0x00\n        /* \"contracts/Gauge.sol\":23553:23554  1 */\n      0x01\n        /* \"contracts/Gauge.sol\":23527:23541  numCheckpoints */\n      0x0e\n        /* \"contracts/Gauge.sol\":23527:23550  numCheckpoints[account] */\n      0x00\n        /* \"contracts/Gauge.sol\":23542:23549  account */\n      dup8\n        /* \"contracts/Gauge.sol\":23527:23550  numCheckpoints[account] */\n      0xffffffffffffffffffffffffffffffffffffffff\n      and\n      0xffffffffffffffffffffffffffffffffffffffff\n      and\n      dup2\n      mstore\n      0x20\n      add\n      swap1\n      dup2\n      mstore\n      0x20\n      add\n      0x00\n      keccak256\n      sload\n        /* \"contracts/Gauge.sol\":23527:23554  numCheckpoints[account] - 1 */\n      tag_213\n      swap2\n      swap1\n      tag_192\n      jump\t// in\n    tag_213:\n        /* \"contracts/Gauge.sol\":23510:23554  uint _endIndex = numCheckpoints[account] - 1 */\n      swap1\n      pop\n        /* \"contracts/Gauge.sol\":23565:23576  uint reward */\n      0x00\n        /* \"contracts/Gauge.sol\":23621:23622  1 */\n      0x01\n        /* \"contracts/Gauge.sol\":23607:23618  _startIndex */\n      dup4\n        /* \"contracts/Gauge.sol\":23595:23604  _endIndex */\n      dup4\n        /* \"contracts/Gauge.sol\":23595:23618  _endIndex - _startIndex */\n      tag_214\n      swap2\n      swap1\n      tag_192\n      jump\t// in\n    tag_214:\n        /* \"contracts/Gauge.sol\":23595:23622  _endIndex - _startIndex > 1 */\n      gt\n        /* \"contracts/Gauge.sol\":23591:24143  if (_endIndex - _startIndex > 1) {... */\n      iszero\n      tag_215\n      jumpi\n        /* \"contracts/Gauge.sol\":23643:23649  uint i */\n      0x00\n        /* \"contracts/Gauge.sol\":23652:23663  _startIndex */\n      dup4\n        /* \"contracts/Gauge.sol\":23643:23663  uint i = _startIndex */\n      swap1\n      pop\n        /* \"contracts/Gauge.sol\":23638:24133  for (uint i = _startIndex; i < _endIndex - 1; i++) {... */\n    tag_216:\n        /* \"contracts/Gauge.sol\":23681:23682  1 */\n      0x01\n        /* \"contracts/Gauge.sol\":23669:23678  _endIndex */\n      dup4\n        /* \"contracts/Gauge.sol\":23669:23682  _endIndex - 1 */\n      tag_219\n      swap2\n      swap1\n      tag_192\n      jump\t// in\n    tag_219:\n        /* \"contracts/Gauge.sol\":23665:23666  i */\n      dup2\n        /* \"contracts/Gauge.sol\":23665:23682  i < _endIndex - 1 */\n      lt\n        /* \"contracts/Gauge.sol\":23638:24133  for (uint i = _startIndex; i < _endIndex - 1; i++) {... */\n      iszero\n      tag_217\n      jumpi\n        /* \"contracts/Gauge.sol\":23707:23728  Checkpoint memory cp0 */\n      0x00\n        /* \"contracts/Gauge.sol\":23731:23742  checkpoints */\n      0x0d\n        /* \"contracts/Gauge.sol\":23731:23751  checkpoints[account] */\n      0x00\n        /* \"contracts/Gauge.sol\":23743:23750  account */\n      dup10\n        /* \"contracts/Gauge.sol\":23731:23751  checkpoints[account] */\n      0xffffffffffffffffffffffffffffffffffffffff\n      and\n      0xffffffffffffffffffffffffffffffffffffffff\n      and\n      dup2\n      mstore\n      0x20\n      add\n      swap1\n      dup2\n      mstore\n      0x20\n      add\n      0x00\n      keccak256\n        /* \"contracts/Gauge.sol\":23731:23754  checkpoints[account][i] */\n      0x00\n        /* \"contracts/Gauge.sol\":23752:23753  i */\n      dup4\n        /* \"contracts/Gauge.sol\":23731:23754  checkpoints[account][i] */\n      dup2\n      mstore\n      0x20\n      add\n      swap1\n      dup2\n      mstore\n      0x20\n      add\n      0x00\n      keccak256\n        /* \"contracts/Gauge.sol\":23707:23754  Checkpoint memory cp0 = checkpoints[account][i] */\n      mload(0x40)\n      dup1\n      0x40\n      add\n      0x40\n      mstore\n      swap1\n      dup2\n      0x00\n      dup3\n      add\n      sload\n      dup2\n      mstore\n      0x20\n      add\n      0x01\n      dup3\n      add\n      sload\n      dup2\n      mstore\n      pop\n      pop\n      swap1\n      pop\n        /* \"contracts/Gauge.sol\":23772:23793  Checkpoint memory cp1 */\n      0x00\n        /* \"contracts/Gauge.sol\":23796:23807  checkpoints */\n      0x0d\n        /* \"contracts/Gauge.sol\":23796:23816  checkpoints[account] */\n      0x00\n        /* \"contracts/Gauge.sol\":23808:23815  account */\n      dup11\n        /* \"contracts/Gauge.sol\":23796:23816  checkpoints[account] */\n      0xffffffffffffffffffffffffffffffffffffffff\n      and\n      0xffffffffffffffffffffffffffffffffffffffff\n      and\n      dup2\n      mstore\n      0x20\n      add\n      swap1\n      dup2\n      mstore\n      0x20\n      add\n      0x00\n      keccak256\n        /* \"contracts/Gauge.sol\":23796:23823  checkpoints[account][i + 1] */\n      0x00\n        /* \"contracts/Gauge.sol\":23821:23822  1 */\n      0x01\n        /* \"contracts/Gauge.sol\":23817:23818  i */\n      dup6\n        /* \"contracts/Gauge.sol\":23817:23822  i + 1 */\n      tag_220\n      swap2\n      swap1\n      tag_221\n      jump\t// in\n    tag_220:\n        /* \"contracts/Gauge.sol\":23796:23823  checkpoints[account][i + 1] */\n      dup2\n      mstore\n      0x20\n      add\n      swap1\n      dup2\n      mstore\n      0x20\n      add\n      0x00\n      keccak256\n        /* \"contracts/Gauge.sol\":23772:23823  Checkpoint memory cp1 = checkpoints[account][i + 1] */\n      mload(0x40)\n      dup1\n      0x40\n      add\n      0x40\n      mstore\n      swap1\n      dup2\n      0x00\n      dup3\n      add\n      sload\n      dup2\n      mstore\n      0x20\n      add\n      0x01\n      dup3\n      add\n      sload\n      dup2\n      mstore\n      pop\n      pop\n      swap1\n      pop\n        /* \"contracts/Gauge.sol\":23842:23869  uint _rewardPerTokenStored0 */\n      0x00\n        /* \"contracts/Gauge.sol\":23874:23918  getPriorRewardPerToken(token, cp0.timestamp) */\n      tag_222\n        /* \"contracts/Gauge.sol\":23897:23902  token */\n      dup12\n        /* \"contracts/Gauge.sol\":23904:23907  cp0 */\n      dup5\n        /* \"contracts/Gauge.sol\":23904:23917  cp0.timestamp */\n      0x00\n      add\n      mload\n        /* \"contracts/Gauge.sol\":23874:23896  getPriorRewardPerToken */\n      tag_184\n        /* \"contracts/Gauge.sol\":23874:23918  getPriorRewardPerToken(token, cp0.timestamp) */\n      jump\t// in\n    tag_222:\n        /* \"contracts/Gauge.sol\":23841:23918  (uint _rewardPerTokenStored0,) = getPriorRewardPerToken(token, cp0.timestamp) */\n      pop\n      swap1\n      pop\n        /* \"contracts/Gauge.sol\":23937:23964  uint _rewardPerTokenStored1 */\n      0x00\n        /* \"contracts/Gauge.sol\":23969:24013  getPriorRewardPerToken(token, cp1.timestamp) */\n      tag_223\n        /* \"contracts/Gauge.sol\":23992:23997  token */\n      dup13\n        /* \"contracts/Gauge.sol\":23999:24002  cp1 */\n      dup5\n        /* \"contracts/Gauge.sol\":23999:24012  cp1.timestamp */\n      0x00\n      add\n      mload\n        /* \"contracts/Gauge.sol\":23969:23991  getPriorRewardPerToken */\n      tag_184\n        /* \"contracts/Gauge.sol\":23969:24013  getPriorRewardPerToken(token, cp1.timestamp) */\n      jump\t// in\n    tag_223:\n        /* \"contracts/Gauge.sol\":23936:24013  (uint _rewardPerTokenStored1,) = getPriorRewardPerToken(token, cp1.timestamp) */\n      pop\n      swap1\n      pop\n        /* \"contracts/Gauge.sol\":10500:10508  10 ** 18 */\n      0x0de0b6b3a7640000\n        /* \"contracts/Gauge.sol\":24083:24105  _rewardPerTokenStored0 */\n      dup3\n        /* \"contracts/Gauge.sol\":24058:24080  _rewardPerTokenStored1 */\n      dup3\n        /* \"contracts/Gauge.sol\":24058:24105  _rewardPerTokenStored1 - _rewardPerTokenStored0 */\n      tag_224\n      swap2\n      swap1\n      tag_192\n      jump\t// in\n    tag_224:\n        /* \"contracts/Gauge.sol\":24041:24044  cp0 */\n      dup6\n        /* \"contracts/Gauge.sol\":24041:24054  cp0.balanceOf */\n      0x20\n      add\n      mload\n        /* \"contracts/Gauge.sol\":24041:24106  cp0.balanceOf * (_rewardPerTokenStored1 - _rewardPerTokenStored0) */\n      tag_225\n      swap2\n      swap1\n      tag_226\n      jump\t// in\n    tag_225:\n        /* \"contracts/Gauge.sol\":24041:24118  cp0.balanceOf * (_rewardPerTokenStored1 - _rewardPerTokenStored0) / PRECISION */\n      tag_227\n      swap2\n      swap1\n      tag_201\n      jump\t// in\n    tag_227:\n        /* \"contracts/Gauge.sol\":24031:24118  reward += cp0.balanceOf * (_rewardPerTokenStored1 - _rewardPerTokenStored0) / PRECISION */\n      dup7\n      tag_228\n      swap2\n      swap1\n      tag_221\n      jump\t// in\n    tag_228:\n      swap6\n      pop\n        /* \"contracts/Gauge.sol\":23689:24133  {... */\n      pop\n      pop\n      pop\n      pop\n        /* \"contracts/Gauge.sol\":23684:23687  i++ */\n      dup1\n      dup1\n      tag_229\n      swap1\n      tag_230\n      jump\t// in\n    tag_229:\n      swap2\n      pop\n      pop\n        /* \"contracts/Gauge.sol\":23638:24133  for (uint i = _startIndex; i < _endIndex - 1; i++) {... */\n      jump(tag_216)\n    tag_217:\n      pop\n        /* \"contracts/Gauge.sol\":23591:24143  if (_endIndex - _startIndex > 1) {... */\n    tag_215:\n        /* \"contracts/Gauge.sol\":24153:24173  Checkpoint memory cp */\n      0x00\n        /* \"contracts/Gauge.sol\":24176:24187  checkpoints */\n      0x0d\n        /* \"contracts/Gauge.sol\":24176:24196  checkpoints[account] */\n      0x00\n        /* \"contracts/Gauge.sol\":24188:24195  account */\n      dup9\n        /* \"contracts/Gauge.sol\":24176:24196  checkpoints[account] */\n      0xffffffffffffffffffffffffffffffffffffffff\n      and\n      0xffffffffffffffffffffffffffffffffffffffff\n      and\n      dup2\n      mstore\n      0x20\n      add\n      swap1\n      dup2\n      mstore\n      0x20\n      add\n      0x00\n      keccak256\n        /* \"contracts/Gauge.sol\":24176:24207  checkpoints[account][_endIndex] */\n      0x00\n        /* \"contracts/Gauge.sol\":24197:24206  _endIndex */\n      dup5\n        /* \"contracts/Gauge.sol\":24176:24207  checkpoints[account][_endIndex] */\n      dup2\n      mstore\n      0x20\n      add\n      swap1\n      dup2\n      mstore\n      0x20\n      add\n      0x00\n      keccak256\n        /* \"contracts/Gauge.sol\":24153:24207  Checkpoint memory cp = checkpoints[account][_endIndex] */\n      mload(0x40)\n      dup1\n      0x40\n      add\n      0x40\n      mstore\n      swap1\n      dup2\n      0x00\n      dup3\n      add\n      sload\n      dup2\n      mstore\n      0x20\n      add\n      0x01\n      dup3\n      add\n      sload\n      dup2\n      mstore\n      pop\n      pop\n      swap1\n      pop\n        /* \"contracts/Gauge.sol\":24218:24244  uint _rewardPerTokenStored */\n      0x00\n        /* \"contracts/Gauge.sol\":24249:24292  getPriorRewardPerToken(token, cp.timestamp) */\n      tag_231\n        /* \"contracts/Gauge.sol\":24272:24277  token */\n      dup10\n        /* \"contracts/Gauge.sol\":24279:24281  cp */\n      dup4\n        /* \"contracts/Gauge.sol\":24279:24291  cp.timestamp */\n      0x00\n      add\n      mload\n        /* \"contracts/Gauge.sol\":24249:24271  getPriorRewardPerToken */\n      tag_184\n        /* \"contracts/Gauge.sol\":24249:24292  getPriorRewardPerToken(token, cp.timestamp) */\n      jump\t// in\n    tag_231:\n        /* \"contracts/Gauge.sol\":24217:24292  (uint _rewardPerTokenStored,) = getPriorRewardPerToken(token, cp.timestamp) */\n      pop\n      swap1\n      pop\n        /* \"contracts/Gauge.sol\":10500:10508  10 ** 18 */\n      0x0de0b6b3a7640000\n        /* \"contracts/Gauge.sol\":24352:24425  Math.max(_rewardPerTokenStored, userRewardPerTokenStored[token][account]) */\n      tag_232\n        /* \"contracts/Gauge.sol\":24361:24382  _rewardPerTokenStored */\n      dup3\n        /* \"contracts/Gauge.sol\":24384:24408  userRewardPerTokenStored */\n      0x07\n        /* \"contracts/Gauge.sol\":24384:24415  userRewardPerTokenStored[token] */\n      0x00\n        /* \"contracts/Gauge.sol\":24409:24414  token */\n      dup14\n        /* \"contracts/Gauge.sol\":24384:24415  userRewardPerTokenStored[token] */\n      0xffffffffffffffffffffffffffffffffffffffff\n      and\n      0xffffffffffffffffffffffffffffffffffffffff\n      and\n      dup2\n      mstore\n      0x20\n      add\n      swap1\n      dup2\n      mstore\n      0x20\n      add\n      0x00\n      keccak256\n        /* \"contracts/Gauge.sol\":24384:24424  userRewardPerTokenStored[token][account] */\n      0x00\n        /* \"contracts/Gauge.sol\":24416:24423  account */\n      dup13\n        /* \"contracts/Gauge.sol\":24384:24424  userRewardPerTokenStored[token][account] */\n      0xffffffffffffffffffffffffffffffffffffffff\n      and\n      0xffffffffffffffffffffffffffffffffffffffff\n      and\n      dup2\n      mstore\n      0x20\n      add\n      swap1\n      dup2\n      mstore\n      0x20\n      add\n      0x00\n      keccak256\n      sload\n        /* \"contracts/Gauge.sol\":24352:24360  Math.max */\n      tag_210\n        /* \"contracts/Gauge.sol\":24352:24425  Math.max(_rewardPerTokenStored, userRewardPerTokenStored[token][account]) */\n      jump\t// in\n    tag_232:\n        /* \"contracts/Gauge.sol\":24328:24349  rewardPerToken(token) */\n      tag_233\n        /* \"contracts/Gauge.sol\":24343:24348  token */\n      dup12\n        /* \"contracts/Gauge.sol\":24328:24342  rewardPerToken */\n      tag_168\n        /* \"contracts/Gauge.sol\":24328:24349  rewardPerToken(token) */\n      jump\t// in\n    tag_233:\n        /* \"contracts/Gauge.sol\":24328:24425  rewardPerToken(token) - Math.max(_rewardPerTokenStored, userRewardPerTokenStored[token][account]) */\n      tag_234\n      swap2\n      swap1\n      tag_192\n      jump\t// in\n    tag_234:\n        /* \"contracts/Gauge.sol\":24312:24314  cp */\n      dup4\n        /* \"contracts/Gauge.sol\":24312:24324  cp.balanceOf */\n      0x20\n      add\n      mload\n        /* \"contracts/Gauge.sol\":24312:24426  cp.balanceOf * (rewardPerToken(token) - Math.max(_rewardPerTokenStored, userRewardPerTokenStored[token][account])) */\n      tag_235\n      swap2\n      swap1\n      tag_226\n      jump\t// in\n    tag_235:\n        /* \"contracts/Gauge.sol\":24312:24438  cp.balanceOf * (rewardPerToken(token) - Math.max(_rewardPerTokenStored, userRewardPerTokenStored[token][account])) / PRECISION */\n      tag_236\n      swap2\n      swap1\n      tag_201\n      jump\t// in\n    tag_236:\n        /* \"contracts/Gauge.sol\":24302:24438  reward += cp.balanceOf * (rewardPerToken(token) - Math.max(_rewardPerTokenStored, userRewardPerTokenStored[token][account])) / PRECISION */\n      dup4\n      tag_237\n      swap2\n      swap1\n      tag_221\n      jump\t// in\n    tag_237:\n      swap3\n      pop\n        /* \"contracts/Gauge.sol\":24456:24462  reward */\n      dup3\n        /* \"contracts/Gauge.sol\":24449:24462  return reward */\n      swap7\n      pop\n      pop\n      pop\n      pop\n      pop\n      pop\n      pop\n        /* \"contracts/Gauge.sol\":23159:24469  function earned(address token, address account) public view returns (uint) {... */\n    tag_208:\n      swap3\n      swap2\n      pop\n      pop\n      jump\t// out\n        /* \"contracts/Gauge.sol\":10566:10608  mapping(address => uint) public rewardRate */\n    tag_73:\n      mstore(0x20, 0x03)\n      dup1\n      0x00\n      mstore\n      keccak256(0x00, 0x40)\n      0x00\n      swap2\n      pop\n      swap1\n      pop\n      sload\n      dup2\n      jump\t// out\n        /* \"contracts/Gauge.sol\":10614:10660  mapping(address => uint) public lastUpdateTime */\n    tag_77:\n      mstore(0x20, 0x04)\n      dup1\n      0x00\n      mstore\n      keccak256(0x00, 0x40)\n      0x00\n      swap2\n      pop\n      swap1\n      pop\n      sload\n      dup2\n      jump\t// out\n        /* \"contracts/Gauge.sol\":25804:26016  function withdraw(uint amount) public {... */\n    tag_82:\n        /* \"contracts/Gauge.sol\":25852:25864  uint tokenId */\n      0x00\n        /* \"contracts/Gauge.sol\":25892:25901  balanceOf */\n      0x0a\n        /* \"contracts/Gauge.sol\":25892:25913  balanceOf[msg.sender] */\n      0x00\n        /* \"contracts/Gauge.sol\":25902:25912  msg.sender */\n      caller\n        /* \"contracts/Gauge.sol\":25892:25913  balanceOf[msg.sender] */\n      0xffffffffffffffffffffffffffffffffffffffff\n      and\n      0xffffffffffffffffffffffffffffffffffffffff\n      and\n      dup2\n      mstore\n      0x20\n      add\n      swap1\n      dup2\n      mstore\n      0x20\n      add\n      0x00\n      keccak256\n      sload\n        /* \"contracts/Gauge.sol\":25882:25888  amount */\n      dup3\n        /* \"contracts/Gauge.sol\":25882:25913  amount == balanceOf[msg.sender] */\n      eq\n        /* \"contracts/Gauge.sol\":25878:25970  if (amount == balanceOf[msg.sender]) {... */\n      iszero\n      tag_239\n      jumpi\n        /* \"contracts/Gauge.sol\":25939:25947  tokenIds */\n      0x08\n        /* \"contracts/Gauge.sol\":25939:25959  tokenIds[msg.sender] */\n      0x00\n        /* \"contracts/Gauge.sol\":25948:25958  msg.sender */\n      caller\n        /* \"contracts/Gauge.sol\":25939:25959  tokenIds[msg.sender] */\n      0xffffffffffffffffffffffffffffffffffffffff\n      and\n      0xffffffffffffffffffffffffffffffffffffffff\n      and\n      dup2\n      mstore\n      0x20\n      add\n      swap1\n      dup2\n      mstore\n      0x20\n      add\n      0x00\n      keccak256\n      sload\n        /* \"contracts/Gauge.sol\":25929:25959  tokenId = tokenIds[msg.sender] */\n      swap1\n      pop\n        /* \"contracts/Gauge.sol\":25878:25970  if (amount == balanceOf[msg.sender]) {... */\n    tag_239:\n        /* \"contracts/Gauge.sol\":25979:26009  withdrawToken(amount, tokenId) */\n      tag_240\n        /* \"contracts/Gauge.sol\":25993:25999  amount */\n      dup3\n        /* \"contracts/Gauge.sol\":26001:26008  tokenId */\n      dup3\n        /* \"contracts/Gauge.sol\":25979:25992  withdrawToken */\n      tag_188\n        /* \"contracts/Gauge.sol\":25979:26009  withdrawToken(amount, tokenId) */\n      jump\t// in\n    tag_240:\n        /* \"contracts/Gauge.sol\":25842:26016  {... */\n      pop\n        /* \"contracts/Gauge.sol\":25804:26016  function withdraw(uint amount) public {... */\n      pop\n      jump\t// out\n        /* \"contracts/Gauge.sol\":17810:18905  function getReward(address account, address[] memory tokens) external nonReentrant {... */\n    tag_86:\n        /* \"contracts/Gauge.sol\":3133:3134  2 */\n      0x02\n        /* \"contracts/Gauge.sol\":3714:3721  _status */\n      sload(0x00)\n        /* \"contracts/Gauge.sol\":3714:3733  _status != _ENTERED */\n      eq\n      iszero\n        /* \"contracts/Gauge.sol\":3706:3769  require(_status != _ENTERED, \"ReentrancyGuard: reentrant call\") */\n      tag_242\n      jumpi\n      mload(0x40)\n      0x08c379a000000000000000000000000000000000000000000000000000000000\n      dup2\n      mstore\n      0x04\n      add\n      tag_243\n      swap1\n      tag_244\n      jump\t// in\n    tag_243:\n      mload(0x40)\n      dup1\n      swap2\n      sub\n      swap1\n      revert\n    tag_242:\n        /* \"contracts/Gauge.sol\":3133:3134  2 */\n      0x02\n        /* \"contracts/Gauge.sol\":3844:3851  _status */\n      0x00\n        /* \"contracts/Gauge.sol\":3844:3862  _status = _ENTERED */\n      dup2\n      swap1\n      sstore\n      pop\n        /* \"contracts/Gauge.sol\":17925:17932  account */\n      dup2\n        /* \"contracts/Gauge.sol\":17911:17932  msg.sender == account */\n      0xffffffffffffffffffffffffffffffffffffffff\n      and\n        /* \"contracts/Gauge.sol\":17911:17921  msg.sender */\n      caller\n        /* \"contracts/Gauge.sol\":17911:17932  msg.sender == account */\n      0xffffffffffffffffffffffffffffffffffffffff\n      and\n      eq\n        /* \"contracts/Gauge.sol\":17911:17955  msg.sender == account || msg.sender == boost */\n      dup1\n      tag_246\n      jumpi\n      pop\n        /* \"contracts/Gauge.sol\":17950:17955  boost */\n      immutable(\"0x8e831a88d8106460d1544aa376ec6155091b50c6145ad03273db7938ca17c5b1\")\n        /* \"contracts/Gauge.sol\":17936:17955  msg.sender == boost */\n      0xffffffffffffffffffffffffffffffffffffffff\n      and\n        /* \"contracts/Gauge.sol\":17936:17946  msg.sender */\n      caller\n        /* \"contracts/Gauge.sol\":17936:17955  msg.sender == boost */\n      0xffffffffffffffffffffffffffffffffffffffff\n      and\n      eq\n        /* \"contracts/Gauge.sol\":17911:17955  msg.sender == account || msg.sender == boost */\n    tag_246:\n        /* \"contracts/Gauge.sol\":17903:17956  require(msg.sender == account || msg.sender == boost) */\n      tag_247\n      jumpi\n      0x00\n      dup1\n      revert\n    tag_247:\n        /* \"contracts/Gauge.sol\":17973:17978  boost */\n      immutable(\"0x8e831a88d8106460d1544aa376ec6155091b50c6145ad03273db7938ca17c5b1\")\n        /* \"contracts/Gauge.sol\":17966:17990  IBoost(boost).distribute */\n      0xffffffffffffffffffffffffffffffffffffffff\n      and\n      0x63453ae1\n        /* \"contracts/Gauge.sol\":17999:18003  this */\n      address\n        /* \"contracts/Gauge.sol\":17966:18005  IBoost(boost).distribute(address(this)) */\n      mload(0x40)\n      dup3\n      0xffffffff\n      and\n      0xe0\n      shl\n      dup2\n      mstore\n      0x04\n      add\n      tag_248\n      swap2\n      swap1\n      tag_90\n      jump\t// in\n    tag_248:\n      0x00\n      mload(0x40)\n      dup1\n      dup4\n      sub\n      dup2\n      0x00\n      dup8\n      dup1\n      extcodesize\n      iszero\n      dup1\n      iszero\n      tag_249\n      jumpi\n      0x00\n      dup1\n      revert\n    tag_249:\n      pop\n      gas\n      call\n      iszero\n      dup1\n      iszero\n      tag_251\n      jumpi\n      returndatasize\n      0x00\n      dup1\n      returndatacopy\n      revert(0x00, returndatasize)\n    tag_251:\n      pop\n      pop\n      pop\n      pop\n        /* \"contracts/Gauge.sol\":18021:18027  uint i */\n      0x00\n        /* \"contracts/Gauge.sol\":18016:18558  for (uint i = 0; i < tokens.length; i++) {... */\n    tag_252:\n        /* \"contracts/Gauge.sol\":18037:18043  tokens */\n      dup2\n        /* \"contracts/Gauge.sol\":18037:18050  tokens.length */\n      mload\n        /* \"contracts/Gauge.sol\":18033:18034  i */\n      dup2\n        /* \"contracts/Gauge.sol\":18033:18050  i < tokens.length */\n      lt\n        /* \"contracts/Gauge.sol\":18016:18558  for (uint i = 0; i < tokens.length; i++) {... */\n      iszero\n      tag_253\n      jumpi\n        /* \"contracts/Gauge.sol\":18134:18166  _updateRewardPerToken(tokens[i]) */\n      tag_255\n        /* \"contracts/Gauge.sol\":18156:18162  tokens */\n      dup3\n        /* \"contracts/Gauge.sol\":18163:18164  i */\n      dup3\n        /* \"contracts/Gauge.sol\":18156:18165  tokens[i] */\n      dup2\n      mload\n      dup2\n      lt\n      tag_256\n      jumpi\n      tag_257\n      tag_258\n      jump\t// in\n    tag_257:\n    tag_256:\n      0x20\n      mul\n      0x20\n      add\n      add\n      mload\n        /* \"contracts/Gauge.sol\":18134:18155  _updateRewardPerToken */\n      tag_259\n        /* \"contracts/Gauge.sol\":18134:18166  _updateRewardPerToken(tokens[i]) */\n      jump\t// in\n    tag_255:\n        /* \"contracts/Gauge.sol\":18072:18092  rewardPerTokenStored */\n      0x05\n        /* \"contracts/Gauge.sol\":18072:18103  rewardPerTokenStored[tokens[i]] */\n      0x00\n        /* \"contracts/Gauge.sol\":18093:18099  tokens */\n      dup6\n        /* \"contracts/Gauge.sol\":18100:18101  i */\n      dup6\n        /* \"contracts/Gauge.sol\":18093:18102  tokens[i] */\n      dup2\n      mload\n      dup2\n      lt\n      tag_260\n      jumpi\n      tag_261\n      tag_258\n      jump\t// in\n    tag_261:\n    tag_260:\n      0x20\n      mul\n      0x20\n      add\n      add\n      mload\n        /* \"contracts/Gauge.sol\":18072:18103  rewardPerTokenStored[tokens[i]] */\n      0xffffffffffffffffffffffffffffffffffffffff\n      and\n      0xffffffffffffffffffffffffffffffffffffffff\n      and\n      dup2\n      mstore\n      0x20\n      add\n      swap1\n      dup2\n      mstore\n      0x20\n      add\n      0x00\n      keccak256\n      0x00\n        /* \"contracts/Gauge.sol\":18105:18119  lastUpdateTime */\n      0x04\n        /* \"contracts/Gauge.sol\":18105:18130  lastUpdateTime[tokens[i]] */\n      0x00\n        /* \"contracts/Gauge.sol\":18120:18126  tokens */\n      dup8\n        /* \"contracts/Gauge.sol\":18127:18128  i */\n      dup8\n        /* \"contracts/Gauge.sol\":18120:18129  tokens[i] */\n      dup2\n      mload\n      dup2\n      lt\n      tag_262\n      jumpi\n      tag_263\n      tag_258\n      jump\t// in\n    tag_263:\n    tag_262:\n      0x20\n      mul\n      0x20\n      add\n      add\n      mload\n        /* \"contracts/Gauge.sol\":18105:18130  lastUpdateTime[tokens[i]] */\n      0xffffffffffffffffffffffffffffffffffffffff\n      and\n      0xffffffffffffffffffffffffffffffffffffffff\n      and\n      dup2\n      mstore\n      0x20\n      add\n      swap1\n      dup2\n      mstore\n      0x20\n      add\n      0x00\n      keccak256\n      0x00\n        /* \"contracts/Gauge.sol\":18071:18166  (rewardPerTokenStored[tokens[i]], lastUpdateTime[tokens[i]]) = _updateRewardPerToken(tokens[i]) */\n      dup5\n      swap2\n      swap1\n      pop\n      sstore\n      dup4\n      swap2\n      swap1\n      pop\n      sstore\n      pop\n      pop\n        /* \"contracts/Gauge.sol\":18181:18193  uint _reward */\n      0x00\n        /* \"contracts/Gauge.sol\":18196:18222  earned(tokens[i], account) */\n      tag_264\n        /* \"contracts/Gauge.sol\":18203:18209  tokens */\n      dup4\n        /* \"contracts/Gauge.sol\":18210:18211  i */\n      dup4\n        /* \"contracts/Gauge.sol\":18203:18212  tokens[i] */\n      dup2\n      mload\n      dup2\n      lt\n      tag_265\n      jumpi\n      tag_266\n      tag_258\n      jump\t// in\n    tag_266:\n    tag_265:\n      0x20\n      mul\n      0x20\n      add\n      add\n      mload\n        /* \"contracts/Gauge.sol\":18214:18221  account */\n      dup6\n        /* \"contracts/Gauge.sol\":18196:18202  earned */\n      tag_68\n        /* \"contracts/Gauge.sol\":18196:18222  earned(tokens[i], account) */\n      jump\t// in\n    tag_264:\n        /* \"contracts/Gauge.sol\":18181:18222  uint _reward = earned(tokens[i], account) */\n      swap1\n      pop\n        /* \"contracts/Gauge.sol\":18267:18282  block.timestamp */\n      timestamp\n        /* \"contracts/Gauge.sol\":18236:18244  lastEarn */\n      0x06\n        /* \"contracts/Gauge.sol\":18236:18255  lastEarn[tokens[i]] */\n      0x00\n        /* \"contracts/Gauge.sol\":18245:18251  tokens */\n      dup6\n        /* \"contracts/Gauge.sol\":18252:18253  i */\n      dup6\n        /* \"contracts/Gauge.sol\":18245:18254  tokens[i] */\n      dup2\n      mload\n      dup2\n      lt\n      tag_267\n      jumpi\n      tag_268\n      tag_258\n      jump\t// in\n    tag_268:\n    tag_267:\n      0x20\n      mul\n      0x20\n      add\n      add\n      mload\n        /* \"contracts/Gauge.sol\":18236:18255  lastEarn[tokens[i]] */\n      0xffffffffffffffffffffffffffffffffffffffff\n      and\n      0xffffffffffffffffffffffffffffffffffffffff\n      and\n      dup2\n      mstore\n      0x20\n      add\n      swap1\n      dup2\n      mstore\n      0x20\n      add\n      0x00\n      keccak256\n        /* \"contracts/Gauge.sol\":18236:18264  lastEarn[tokens[i]][account] */\n      0x00\n        /* \"contracts/Gauge.sol\":18256:18263  account */\n      dup7\n        /* \"contracts/Gauge.sol\":18236:18264  lastEarn[tokens[i]][account] */\n      0xffffffffffffffffffffffffffffffffffffffff\n      and\n      0xffffffffffffffffffffffffffffffffffffffff\n      and\n      dup2\n      mstore\n      0x20\n      add\n      swap1\n      dup2\n      mstore\n      0x20\n      add\n      0x00\n      keccak256\n        /* \"contracts/Gauge.sol\":18236:18282  lastEarn[tokens[i]][account] = block.timestamp */\n      dup2\n      swap1\n      sstore\n      pop\n        /* \"contracts/Gauge.sol\":18343:18363  rewardPerTokenStored */\n      0x05\n        /* \"contracts/Gauge.sol\":18343:18374  rewardPerTokenStored[tokens[i]] */\n      0x00\n        /* \"contracts/Gauge.sol\":18364:18370  tokens */\n      dup5\n        /* \"contracts/Gauge.sol\":18371:18372  i */\n      dup5\n        /* \"contracts/Gauge.sol\":18364:18373  tokens[i] */\n      dup2\n      mload\n      dup2\n      lt\n      tag_269\n      jumpi\n      tag_270\n      tag_258\n      jump\t// in\n    tag_270:\n    tag_269:\n      0x20\n      mul\n      0x20\n      add\n      add\n      mload\n        /* \"contracts/Gauge.sol\":18343:18374  rewardPerTokenStored[tokens[i]] */\n      0xffffffffffffffffffffffffffffffffffffffff\n      and\n      0xffffffffffffffffffffffffffffffffffffffff\n      and\n      dup2\n      mstore\n      0x20\n      add\n      swap1\n      dup2\n      mstore\n      0x20\n      add\n      0x00\n      keccak256\n      sload\n        /* \"contracts/Gauge.sol\":18296:18320  userRewardPerTokenStored */\n      0x07\n        /* \"contracts/Gauge.sol\":18296:18331  userRewardPerTokenStored[tokens[i]] */\n      0x00\n        /* \"contracts/Gauge.sol\":18321:18327  tokens */\n      dup6\n        /* \"contracts/Gauge.sol\":18328:18329  i */\n      dup6\n        /* \"contracts/Gauge.sol\":18321:18330  tokens[i] */\n      dup2\n      mload\n      dup2\n      lt\n      tag_271\n      jumpi\n      tag_272\n      tag_258\n      jump\t// in\n    tag_272:\n    tag_271:\n      0x20\n      mul\n      0x20\n      add\n      add\n      mload\n        /* \"contracts/Gauge.sol\":18296:18331  userRewardPerTokenStored[tokens[i]] */\n      0xffffffffffffffffffffffffffffffffffffffff\n      and\n      0xffffffffffffffffffffffffffffffffffffffff\n      and\n      dup2\n      mstore\n      0x20\n      add\n      swap1\n      dup2\n      mstore\n      0x20\n      add\n      0x00\n      keccak256\n        /* \"contracts/Gauge.sol\":18296:18340  userRewardPerTokenStored[tokens[i]][account] */\n      0x00\n        /* \"contracts/Gauge.sol\":18332:18339  account */\n      dup7\n        /* \"contracts/Gauge.sol\":18296:18340  userRewardPerTokenStored[tokens[i]][account] */\n      0xffffffffffffffffffffffffffffffffffffffff\n      and\n      0xffffffffffffffffffffffffffffffffffffffff\n      and\n      dup2\n      mstore\n      0x20\n      add\n      swap1\n      dup2\n      mstore\n      0x20\n      add\n      0x00\n      keccak256\n        /* \"contracts/Gauge.sol\":18296:18374  userRewardPerTokenStored[tokens[i]][account] = rewardPerTokenStored[tokens[i]] */\n      dup2\n      swap1\n      sstore\n      pop\n        /* \"contracts/Gauge.sol\":18402:18403  0 */\n      0x00\n        /* \"contracts/Gauge.sol\":18392:18399  _reward */\n      dup2\n        /* \"contracts/Gauge.sol\":18392:18403  _reward > 0 */\n      gt\n        /* \"contracts/Gauge.sol\":18388:18485  if (_reward > 0) {... */\n      iszero\n      tag_273\n      jumpi\n        /* \"contracts/Gauge.sol\":18423:18470  _safeTokenTransfer(tokens[i], account, _reward) */\n      tag_274\n        /* \"contracts/Gauge.sol\":18442:18448  tokens */\n      dup4\n        /* \"contracts/Gauge.sol\":18449:18450  i */\n      dup4\n        /* \"contracts/Gauge.sol\":18442:18451  tokens[i] */\n      dup2\n      mload\n      dup2\n      lt\n      tag_275\n      jumpi\n      tag_276\n      tag_258\n      jump\t// in\n    tag_276:\n    tag_275:\n      0x20\n      mul\n      0x20\n      add\n      add\n      mload\n        /* \"contracts/Gauge.sol\":18453:18460  account */\n      dup6\n        /* \"contracts/Gauge.sol\":18462:18469  _reward */\n      dup4\n        /* \"contracts/Gauge.sol\":18423:18441  _safeTokenTransfer */\n      tag_277\n        /* \"contracts/Gauge.sol\":18423:18470  _safeTokenTransfer(tokens[i], account, _reward) */\n      jump\t// in\n    tag_274:\n        /* \"contracts/Gauge.sol\":18388:18485  if (_reward > 0) {... */\n    tag_273:\n        /* \"contracts/Gauge.sol\":18528:18534  tokens */\n      dup3\n        /* \"contracts/Gauge.sol\":18535:18536  i */\n      dup3\n        /* \"contracts/Gauge.sol\":18528:18537  tokens[i] */\n      dup2\n      mload\n      dup2\n      lt\n      tag_278\n      jumpi\n      tag_279\n      tag_258\n      jump\t// in\n    tag_279:\n    tag_278:\n      0x20\n      mul\n      0x20\n      add\n      add\n      mload\n        /* \"contracts/Gauge.sol\":18503:18547  ClaimRewards(msg.sender, tokens[i], _reward) */\n      0xffffffffffffffffffffffffffffffffffffffff\n      and\n        /* \"contracts/Gauge.sol\":18516:18526  msg.sender */\n      caller\n        /* \"contracts/Gauge.sol\":18503:18547  ClaimRewards(msg.sender, tokens[i], _reward) */\n      0xffffffffffffffffffffffffffffffffffffffff\n      and\n      0x9aa05b3d70a9e3e2f004f039648839560576334fb45c81f91b6db03ad9e2efc9\n        /* \"contracts/Gauge.sol\":18539:18546  _reward */\n      dup4\n        /* \"contracts/Gauge.sol\":18503:18547  ClaimRewards(msg.sender, tokens[i], _reward) */\n      mload(0x40)\n      tag_280\n      swap2\n      swap1\n      tag_61\n      jump\t// in\n    tag_280:\n      mload(0x40)\n      dup1\n      swap2\n      sub\n      swap1\n      log3\n        /* \"contracts/Gauge.sol\":18057:18558  {... */\n      pop\n        /* \"contracts/Gauge.sol\":18052:18055  i++ */\n      dup1\n      dup1\n      tag_281\n      swap1\n      tag_230\n      jump\t// in\n    tag_281:\n      swap2\n      pop\n      pop\n        /* \"contracts/Gauge.sol\":18016:18558  for (uint i = 0; i < tokens.length; i++) {... */\n      jump(tag_252)\n    tag_253:\n      pop\n        /* \"contracts/Gauge.sol\":18568:18588  uint _derivedBalance */\n      0x00\n        /* \"contracts/Gauge.sol\":18591:18606  derivedBalances */\n      0x02\n        /* \"contracts/Gauge.sol\":18591:18615  derivedBalances[account] */\n      0x00\n        /* \"contracts/Gauge.sol\":18607:18614  account */\n      dup5\n        /* \"contracts/Gauge.sol\":18591:18615  derivedBalances[account] */\n      0xffffffffffffffffffffffffffffffffffffffff\n      and\n      0xffffffffffffffffffffffffffffffffffffffff\n      and\n      dup2\n      mstore\n      0x20\n      add\n      swap1\n      dup2\n      mstore\n      0x20\n      add\n      0x00\n      keccak256\n      sload\n        /* \"contracts/Gauge.sol\":18568:18615  uint _derivedBalance = derivedBalances[account] */\n      swap1\n      pop\n        /* \"contracts/Gauge.sol\":18642:18657  _derivedBalance */\n      dup1\n        /* \"contracts/Gauge.sol\":18625:18638  derivedSupply */\n      0x01\n      0x00\n        /* \"contracts/Gauge.sol\":18625:18657  derivedSupply -= _derivedBalance */\n      dup3\n      dup3\n      sload\n      tag_282\n      swap2\n      swap1\n      tag_192\n      jump\t// in\n    tag_282:\n      swap3\n      pop\n      pop\n      dup2\n      swap1\n      sstore\n      pop\n        /* \"contracts/Gauge.sol\":18685:18708  derivedBalance(account) */\n      tag_283\n        /* \"contracts/Gauge.sol\":18700:18707  account */\n      dup4\n        /* \"contracts/Gauge.sol\":18685:18699  derivedBalance */\n      tag_151\n        /* \"contracts/Gauge.sol\":18685:18708  derivedBalance(account) */\n      jump\t// in\n    tag_283:\n        /* \"contracts/Gauge.sol\":18667:18708  _derivedBalance = derivedBalance(account) */\n      swap1\n      pop\n        /* \"contracts/Gauge.sol\":18745:18760  _derivedBalance */\n      dup1\n        /* \"contracts/Gauge.sol\":18718:18733  derivedBalances */\n      0x02\n        /* \"contracts/Gauge.sol\":18718:18742  derivedBalances[account] */\n      0x00\n        /* \"contracts/Gauge.sol\":18734:18741  account */\n      dup6\n        /* \"contracts/Gauge.sol\":18718:18742  derivedBalances[account] */\n      0xffffffffffffffffffffffffffffffffffffffff\n      and\n      0xffffffffffffffffffffffffffffffffffffffff\n      and\n      dup2\n      mstore\n      0x20\n      add\n      swap1\n      dup2\n      mstore\n      0x20\n      add\n      0x00\n      keccak256\n        /* \"contracts/Gauge.sol\":18718:18760  derivedBalances[account] = _derivedBalance */\n      dup2\n      swap1\n      sstore\n      pop\n        /* \"contracts/Gauge.sol\":18787:18802  _derivedBalance */\n      dup1\n        /* \"contracts/Gauge.sol\":18770:18783  derivedSupply */\n      0x01\n      0x00\n        /* \"contracts/Gauge.sol\":18770:18802  derivedSupply += _derivedBalance */\n      dup3\n      dup3\n      sload\n      tag_284\n      swap2\n      swap1\n      tag_221\n      jump\t// in\n    tag_284:\n      swap3\n      pop\n      pop\n      dup2\n      swap1\n      sstore\n      pop\n        /* \"contracts/Gauge.sol\":18813:18864  _writeCheckpoint(account, derivedBalances[account]) */\n      tag_285\n        /* \"contracts/Gauge.sol\":18830:18837  account */\n      dup4\n        /* \"contracts/Gauge.sol\":18839:18854  derivedBalances */\n      0x02\n        /* \"contracts/Gauge.sol\":18839:18863  derivedBalances[account] */\n      0x00\n        /* \"contracts/Gauge.sol\":18855:18862  account */\n      dup7\n        /* \"contracts/Gauge.sol\":18839:18863  derivedBalances[account] */\n      0xffffffffffffffffffffffffffffffffffffffff\n      and\n      0xffffffffffffffffffffffffffffffffffffffff\n      and\n      dup2\n      mstore\n      0x20\n      add\n      swap1\n      dup2\n      mstore\n      0x20\n      add\n      0x00\n      keccak256\n      sload\n        /* \"contracts/Gauge.sol\":18813:18829  _writeCheckpoint */\n      tag_286\n        /* \"contracts/Gauge.sol\":18813:18864  _writeCheckpoint(account, derivedBalances[account]) */\n      jump\t// in\n    tag_285:\n        /* \"contracts/Gauge.sol\":18874:18898  _writeSupplyCheckpoint() */\n      tag_287\n        /* \"contracts/Gauge.sol\":18874:18896  _writeSupplyCheckpoint */\n      tag_288\n        /* \"contracts/Gauge.sol\":18874:18898  _writeSupplyCheckpoint() */\n      jump\t// in\n    tag_287:\n        /* \"contracts/Gauge.sol\":17893:18905  {... */\n      pop\n        /* \"contracts/Gauge.sol\":3090:3091  1 */\n      0x01\n        /* \"contracts/Gauge.sol\":4017:4024  _status */\n      0x00\n        /* \"contracts/Gauge.sol\":4017:4039  _status = _NOT_ENTERED */\n      dup2\n      swap1\n      sstore\n      pop\n        /* \"contracts/Gauge.sol\":17810:18905  function getReward(address account, address[] memory tokens) external nonReentrant {... */\n      pop\n      pop\n      jump\t// out\n        /* \"contracts/Gauge.sol\":10185:10215  address public immutable stake */\n    tag_88:\n      immutable(\"0xd094ef07eef1924f3d7fe3d896f6ebece97bd5683077be90743b91a72d59db67\")\n      dup2\n      jump\t// out\n        /* \"contracts/Gauge.sol\":10273:10305  address public immutable veToken */\n    tag_92:\n      immutable(\"0xf149c9166005b187f5af29ceb397e7b9b5ab7e3a911adc91a9ebb826b208930e\")\n      dup2\n      jump\t// out\n        /* \"contracts/Gauge.sol\":10791:10867  mapping(address => mapping(address => uint)) public userRewardPerTokenStored */\n    tag_96:\n      mstore(0x20, 0x07)\n      dup2\n      0x00\n      mstore\n      mstore(0x20, keccak256(0x00, 0x40))\n      dup1\n      0x00\n      mstore\n      keccak256(0x00, 0x40)\n      0x00\n      swap2\n      pop\n      swap2\n      pop\n      pop\n      sload\n      dup2\n      jump\t// out\n        /* \"contracts/Gauge.sol\":11028:11068  mapping(address => bool) public isReward */\n    tag_100:\n      mstore(0x20, 0x0c)\n      dup1\n      0x00\n      mstore\n      keccak256(0x00, 0x40)\n      0x00\n      swap2\n      pop\n      sload\n      swap1\n      0x0100\n      exp\n      swap1\n      div\n      0xff\n      and\n      dup2\n      jump\t// out\n        /* \"contracts/Gauge.sol\":19811:19986  function batchRewardPerToken(address token, uint maxRuns) external {... */\n    tag_105:\n        /* \"contracts/Gauge.sol\":19943:19979  _batchRewardPerToken(token, maxRuns) */\n      tag_290\n        /* \"contracts/Gauge.sol\":19964:19969  token */\n      dup3\n        /* \"contracts/Gauge.sol\":19971:19978  maxRuns */\n      dup3\n        /* \"contracts/Gauge.sol\":19943:19963  _batchRewardPerToken */\n      tag_291\n        /* \"contracts/Gauge.sol\":19943:19979  _batchRewardPerToken(token, maxRuns) */\n      jump\t// in\n    tag_290:\n        /* \"contracts/Gauge.sol\":19889:19909  rewardPerTokenStored */\n      0x05\n        /* \"contracts/Gauge.sol\":19889:19916  rewardPerTokenStored[token] */\n      0x00\n        /* \"contracts/Gauge.sol\":19910:19915  token */\n      dup6\n        /* \"contracts/Gauge.sol\":19889:19916  rewardPerTokenStored[token] */\n      0xffffffffffffffffffffffffffffffffffffffff\n      and\n      0xffffffffffffffffffffffffffffffffffffffff\n      and\n      dup2\n      mstore\n      0x20\n      add\n      swap1\n      dup2\n      mstore\n      0x20\n      add\n      0x00\n      keccak256\n      0x00\n        /* \"contracts/Gauge.sol\":19918:19932  lastUpdateTime */\n      0x04\n        /* \"contracts/Gauge.sol\":19918:19939  lastUpdateTime[token] */\n      0x00\n        /* \"contracts/Gauge.sol\":19933:19938  token */\n      dup8\n        /* \"contracts/Gauge.sol\":19918:19939  lastUpdateTime[token] */\n      0xffffffffffffffffffffffffffffffffffffffff\n      and\n      0xffffffffffffffffffffffffffffffffffffffff\n      and\n      dup2\n      mstore\n      0x20\n      add\n      swap1\n      dup2\n      mstore\n      0x20\n      add\n      0x00\n      keccak256\n      0x00\n        /* \"contracts/Gauge.sol\":19888:19979  (rewardPerTokenStored[token], lastUpdateTime[token]) = _batchRewardPerToken(token, maxRuns) */\n      dup5\n      swap2\n      swap1\n      pop\n      sstore\n      dup4\n      swap2\n      swap1\n      pop\n      sstore\n      pop\n      pop\n        /* \"contracts/Gauge.sol\":19811:19986  function batchRewardPerToken(address token, uint maxRuns) external {... */\n      pop\n      pop\n      jump\t// out\n        /* \"contracts/Gauge.sol\":17091:17206  function lastTimeRewardApplicable(address token) public view returns (uint) {... */\n    tag_108:\n        /* \"contracts/Gauge.sol\":17161:17165  uint */\n      0x00\n        /* \"contracts/Gauge.sol\":17184:17199  block.timestamp */\n      timestamp\n        /* \"contracts/Gauge.sol\":17177:17199  return block.timestamp */\n      swap1\n      pop\n        /* \"contracts/Gauge.sol\":17091:17206  function lastTimeRewardApplicable(address token) public view returns (uint) {... */\n      swap2\n      swap1\n      pop\n      jump\t// out\n        /* \"contracts/Gauge.sol\":10411:10458  mapping(address => uint) public derivedBalances */\n    tag_112:\n      mstore(0x20, 0x02)\n      dup1\n      0x00\n      mstore\n      keccak256(0x00, 0x40)\n      0x00\n      swap2\n      pop\n      swap1\n      pop\n      sload\n      dup2\n      jump\t// out\n        /* \"contracts/Gauge.sol\":11410:11456  mapping(address => uint) public numCheckpoints */\n    tag_116:\n      mstore(0x20, 0x0e)\n      dup1\n      0x00\n      mstore\n      keccak256(0x00, 0x40)\n      0x00\n      swap2\n      pop\n      swap1\n      pop\n      sload\n      dup2\n      jump\t// out\n        /* \"contracts/Gauge.sol\":10950:10991  mapping(address => uint) public balanceOf */\n    tag_120:\n      mstore(0x20, 0x0a)\n      dup1\n      0x00\n      mstore\n      keccak256(0x00, 0x40)\n      0x00\n      swap2\n      pop\n      swap1\n      pop\n      sload\n      dup2\n      jump\t// out\n        /* \"contracts/Gauge.sol\":12923:13939  function getPriorSupplyIndex(uint timestamp) public view returns (uint) {... */\n    tag_124:\n        /* \"contracts/Gauge.sol\":12989:12993  uint */\n      0x00\n        /* \"contracts/Gauge.sol\":13005:13022  uint nCheckpoints */\n      dup1\n        /* \"contracts/Gauge.sol\":13025:13045  supplyNumCheckpoints */\n      sload(0x10)\n        /* \"contracts/Gauge.sol\":13005:13045  uint nCheckpoints = supplyNumCheckpoints */\n      swap1\n      pop\n        /* \"contracts/Gauge.sol\":13075:13076  0 */\n      0x00\n        /* \"contracts/Gauge.sol\":13059:13071  nCheckpoints */\n      dup2\n        /* \"contracts/Gauge.sol\":13059:13076  nCheckpoints == 0 */\n      eq\n        /* \"contracts/Gauge.sol\":13055:13111  if (nCheckpoints == 0) {... */\n      iszero\n      tag_294\n      jumpi\n        /* \"contracts/Gauge.sol\":13099:13100  0 */\n      0x00\n        /* \"contracts/Gauge.sol\":13092:13100  return 0 */\n      swap2\n      pop\n      pop\n      jump(tag_293)\n        /* \"contracts/Gauge.sol\":13055:13111  if (nCheckpoints == 0) {... */\n    tag_294:\n        /* \"contracts/Gauge.sol\":13217:13226  timestamp */\n      dup3\n        /* \"contracts/Gauge.sol\":13168:13185  supplyCheckpoints */\n      0x0f\n        /* \"contracts/Gauge.sol\":13168:13203  supplyCheckpoints[nCheckpoints - 1] */\n      0x00\n        /* \"contracts/Gauge.sol\":13201:13202  1 */\n      0x01\n        /* \"contracts/Gauge.sol\":13186:13198  nCheckpoints */\n      dup5\n        /* \"contracts/Gauge.sol\":13186:13202  nCheckpoints - 1 */\n      tag_295\n      swap2\n      swap1\n      tag_192\n      jump\t// in\n    tag_295:\n        /* \"contracts/Gauge.sol\":13168:13203  supplyCheckpoints[nCheckpoints - 1] */\n      dup2\n      mstore\n      0x20\n      add\n      swap1\n      dup2\n      mstore\n      0x20\n      add\n      0x00\n      keccak256\n        /* \"contracts/Gauge.sol\":13168:13213  supplyCheckpoints[nCheckpoints - 1].timestamp */\n      0x00\n      add\n      sload\n        /* \"contracts/Gauge.sol\":13168:13226  supplyCheckpoints[nCheckpoints - 1].timestamp <= timestamp */\n      gt\n        /* \"contracts/Gauge.sol\":13164:13278  if (supplyCheckpoints[nCheckpoints - 1].timestamp <= timestamp) {... */\n      tag_296\n      jumpi\n        /* \"contracts/Gauge.sol\":13265:13266  1 */\n      0x01\n        /* \"contracts/Gauge.sol\":13250:13262  nCheckpoints */\n      dup2\n        /* \"contracts/Gauge.sol\":13250:13266  nCheckpoints - 1 */\n      tag_297\n      swap2\n      swap1\n      tag_192\n      jump\t// in\n    tag_297:\n        /* \"contracts/Gauge.sol\":13242:13267  return (nCheckpoints - 1) */\n      swap2\n      pop\n      pop\n      jump(tag_293)\n        /* \"contracts/Gauge.sol\":13164:13278  if (supplyCheckpoints[nCheckpoints - 1].timestamp <= timestamp) {... */\n    tag_296:\n        /* \"contracts/Gauge.sol\":13369:13378  timestamp */\n      dup3\n        /* \"contracts/Gauge.sol\":13336:13353  supplyCheckpoints */\n      0x0f\n        /* \"contracts/Gauge.sol\":13336:13356  supplyCheckpoints[0] */\n      0x00\n        /* \"contracts/Gauge.sol\":13354:13355  0 */\n      dup1\n        /* \"contracts/Gauge.sol\":13336:13356  supplyCheckpoints[0] */\n      dup2\n      mstore\n      0x20\n      add\n      swap1\n      dup2\n      mstore\n      0x20\n      add\n      0x00\n      keccak256\n        /* \"contracts/Gauge.sol\":13336:13366  supplyCheckpoints[0].timestamp */\n      0x00\n      add\n      sload\n        /* \"contracts/Gauge.sol\":13336:13378  supplyCheckpoints[0].timestamp > timestamp */\n      gt\n        /* \"contracts/Gauge.sol\":13332:13413  if (supplyCheckpoints[0].timestamp > timestamp) {... */\n      iszero\n      tag_298\n      jumpi\n        /* \"contracts/Gauge.sol\":13401:13402  0 */\n      0x00\n        /* \"contracts/Gauge.sol\":13394:13402  return 0 */\n      swap2\n      pop\n      pop\n      jump(tag_293)\n        /* \"contracts/Gauge.sol\":13332:13413  if (supplyCheckpoints[0].timestamp > timestamp) {... */\n    tag_298:\n        /* \"contracts/Gauge.sol\":13423:13433  uint lower */\n      0x00\n        /* \"contracts/Gauge.sol\":13447:13457  uint upper */\n      dup1\n        /* \"contracts/Gauge.sol\":13475:13476  1 */\n      0x01\n        /* \"contracts/Gauge.sol\":13460:13472  nCheckpoints */\n      dup4\n        /* \"contracts/Gauge.sol\":13460:13476  nCheckpoints - 1 */\n      tag_299\n      swap2\n      swap1\n      tag_192\n      jump\t// in\n    tag_299:\n        /* \"contracts/Gauge.sol\":13447:13476  uint upper = nCheckpoints - 1 */\n      swap1\n      pop\n        /* \"contracts/Gauge.sol\":13486:13911  while (upper > lower) {... */\n    tag_300:\n        /* \"contracts/Gauge.sol\":13501:13506  lower */\n      dup2\n        /* \"contracts/Gauge.sol\":13493:13498  upper */\n      dup2\n        /* \"contracts/Gauge.sol\":13493:13506  upper > lower */\n      gt\n        /* \"contracts/Gauge.sol\":13486:13911  while (upper > lower) {... */\n      iszero\n      tag_301\n      jumpi\n        /* \"contracts/Gauge.sol\":13522:13533  uint center */\n      0x00\n        /* \"contracts/Gauge.sol\":13562:13563  2 */\n      0x02\n        /* \"contracts/Gauge.sol\":13553:13558  lower */\n      dup4\n        /* \"contracts/Gauge.sol\":13545:13550  upper */\n      dup4\n        /* \"contracts/Gauge.sol\":13545:13558  upper - lower */\n      tag_302\n      swap2\n      swap1\n      tag_192\n      jump\t// in\n    tag_302:\n        /* \"contracts/Gauge.sol\":13544:13563  (upper - lower) / 2 */\n      tag_303\n      swap2\n      swap1\n      tag_201\n      jump\t// in\n    tag_303:\n        /* \"contracts/Gauge.sol\":13536:13541  upper */\n      dup3\n        /* \"contracts/Gauge.sol\":13536:13563  upper - (upper - lower) / 2 */\n      tag_304\n      swap2\n      swap1\n      tag_192\n      jump\t// in\n    tag_304:\n        /* \"contracts/Gauge.sol\":13522:13563  uint center = upper - (upper - lower) / 2 */\n      swap1\n      pop\n        /* \"contracts/Gauge.sol\":13616:13642  SupplyCheckpoint memory cp */\n      0x00\n        /* \"contracts/Gauge.sol\":13645:13662  supplyCheckpoints */\n      0x0f\n        /* \"contracts/Gauge.sol\":13645:13670  supplyCheckpoints[center] */\n      0x00\n        /* \"contracts/Gauge.sol\":13663:13669  center */\n      dup4\n        /* \"contracts/Gauge.sol\":13645:13670  supplyCheckpoints[center] */\n      dup2\n      mstore\n      0x20\n      add\n      swap1\n      dup2\n      mstore\n      0x20\n      add\n      0x00\n      keccak256\n        /* \"contracts/Gauge.sol\":13616:13670  SupplyCheckpoint memory cp = supplyCheckpoints[center] */\n      mload(0x40)\n      dup1\n      0x40\n      add\n      0x40\n      mstore\n      swap1\n      dup2\n      0x00\n      dup3\n      add\n      sload\n      dup2\n      mstore\n      0x20\n      add\n      0x01\n      dup3\n      add\n      sload\n      dup2\n      mstore\n      pop\n      pop\n      swap1\n      pop\n        /* \"contracts/Gauge.sol\":13704:13713  timestamp */\n      dup7\n        /* \"contracts/Gauge.sol\":13688:13690  cp */\n      dup2\n        /* \"contracts/Gauge.sol\":13688:13700  cp.timestamp */\n      0x00\n      add\n      mload\n        /* \"contracts/Gauge.sol\":13688:13713  cp.timestamp == timestamp */\n      eq\n        /* \"contracts/Gauge.sol\":13684:13901  if (cp.timestamp == timestamp) {... */\n      iszero\n      tag_305\n      jumpi\n        /* \"contracts/Gauge.sol\":13740:13746  center */\n      dup2\n        /* \"contracts/Gauge.sol\":13733:13746  return center */\n      swap6\n      pop\n      pop\n      pop\n      pop\n      pop\n      pop\n      jump(tag_293)\n        /* \"contracts/Gauge.sol\":13684:13901  if (cp.timestamp == timestamp) {... */\n    tag_305:\n        /* \"contracts/Gauge.sol\":13786:13795  timestamp */\n      dup7\n        /* \"contracts/Gauge.sol\":13771:13773  cp */\n      dup2\n        /* \"contracts/Gauge.sol\":13771:13783  cp.timestamp */\n      0x00\n      add\n      mload\n        /* \"contracts/Gauge.sol\":13771:13795  cp.timestamp < timestamp */\n      lt\n        /* \"contracts/Gauge.sol\":13767:13901  if (cp.timestamp < timestamp) {... */\n      iszero\n      tag_307\n      jumpi\n        /* \"contracts/Gauge.sol\":13823:13829  center */\n      dup2\n        /* \"contracts/Gauge.sol\":13815:13829  lower = center */\n      swap4\n      pop\n        /* \"contracts/Gauge.sol\":13767:13901  if (cp.timestamp < timestamp) {... */\n      jump(tag_308)\n    tag_307:\n        /* \"contracts/Gauge.sol\":13885:13886  1 */\n      0x01\n        /* \"contracts/Gauge.sol\":13876:13882  center */\n      dup3\n        /* \"contracts/Gauge.sol\":13876:13886  center - 1 */\n      tag_309\n      swap2\n      swap1\n      tag_192\n      jump\t// in\n    tag_309:\n        /* \"contracts/Gauge.sol\":13868:13886  upper = center - 1 */\n      swap3\n      pop\n        /* \"contracts/Gauge.sol\":13767:13901  if (cp.timestamp < timestamp) {... */\n    tag_308:\n        /* \"contracts/Gauge.sol\":13508:13911  {... */\n      pop\n      pop\n        /* \"contracts/Gauge.sol\":13486:13911  while (upper > lower) {... */\n      jump(tag_300)\n    tag_301:\n        /* \"contracts/Gauge.sol\":13927:13932  lower */\n      dup2\n        /* \"contracts/Gauge.sol\":13920:13932  return lower */\n      swap4\n      pop\n      pop\n      pop\n      pop\n        /* \"contracts/Gauge.sol\":12923:13939  function getPriorSupplyIndex(uint timestamp) public view returns (uint) {... */\n    tag_293:\n      swap2\n      swap1\n      pop\n      jump\t// out\n        /* \"contracts/Gauge.sol\":25718:25798  function withdrawAll() external {... */\n    tag_127:\n        /* \"contracts/Gauge.sol\":25760:25791  withdraw(balanceOf[msg.sender]) */\n      tag_311\n        /* \"contracts/Gauge.sol\":25769:25778  balanceOf */\n      0x0a\n        /* \"contracts/Gauge.sol\":25769:25790  balanceOf[msg.sender] */\n      0x00\n        /* \"contracts/Gauge.sol\":25779:25789  msg.sender */\n      caller\n        /* \"contracts/Gauge.sol\":25769:25790  balanceOf[msg.sender] */\n      0xffffffffffffffffffffffffffffffffffffffff\n      and\n      0xffffffffffffffffffffffffffffffffffffffff\n      and\n      dup2\n      mstore\n      0x20\n      add\n      swap1\n      dup2\n      mstore\n      0x20\n      add\n      0x00\n      keccak256\n      sload\n        /* \"contracts/Gauge.sol\":25760:25768  withdraw */\n      tag_82\n        /* \"contracts/Gauge.sol\":25760:25791  withdraw(balanceOf[msg.sender]) */\n      jump\t// in\n    tag_311:\n        /* \"contracts/Gauge.sol\":25718:25798  function withdrawAll() external {... */\n      jump\t// out\n        /* \"contracts/Gauge.sol\":10666:10718  mapping(address => uint) public rewardPerTokenStored */\n    tag_130:\n      mstore(0x20, 0x05)\n      dup1\n      0x00\n      mstore\n      keccak256(0x00, 0x40)\n      0x00\n      swap2\n      pop\n      swap1\n      pop\n      sload\n      dup2\n      jump\t// out\n        /* \"contracts/Gauge.sol\":10725:10785  mapping(address => mapping(address => uint)) public lastEarn */\n    tag_134:\n      mstore(0x20, 0x06)\n      dup2\n      0x00\n      mstore\n      mstore(0x20, keccak256(0x00, 0x40))\n      dup1\n      0x00\n      mstore\n      keccak256(0x00, 0x40)\n      0x00\n      swap2\n      pop\n      swap2\n      pop\n      pop\n      sload\n      dup2\n      jump\t// out\n        /* \"contracts/Gauge.sol\":10343:10373  address public immutable boost */\n    tag_137:\n      immutable(\"0x8e831a88d8106460d1544aa376ec6155091b50c6145ad03273db7938ca17c5b1\")\n      dup2\n      jump\t// out\n        /* \"contracts/Gauge.sol\":11667:11727  mapping(address => uint) public rewardPerTokenNumCheckpoints */\n    tag_141:\n      mstore(0x20, 0x12)\n      dup1\n      0x00\n      mstore\n      keccak256(0x00, 0x40)\n      0x00\n      swap2\n      pop\n      swap1\n      pop\n      sload\n      dup2\n      jump\t// out\n        /* \"contracts/Gauge.sol\":26975:27521  function notifyRewardAmount(address token, uint _rewardRate) external  {... */\n    tag_145:\n        /* \"contracts/Gauge.sol\":27073:27078  stake */\n      immutable(\"0xd094ef07eef1924f3d7fe3d896f6ebece97bd5683077be90743b91a72d59db67\")\n        /* \"contracts/Gauge.sol\":27064:27078  token != stake */\n      0xffffffffffffffffffffffffffffffffffffffff\n      and\n        /* \"contracts/Gauge.sol\":27064:27069  token */\n      dup3\n        /* \"contracts/Gauge.sol\":27064:27078  token != stake */\n      0xffffffffffffffffffffffffffffffffffffffff\n      and\n      eq\n      iszero\n        /* \"contracts/Gauge.sol\":27056:27091  require(token != stake, \"no stake\") */\n      tag_313\n      jumpi\n      mload(0x40)\n      0x08c379a000000000000000000000000000000000000000000000000000000000\n      dup2\n      mstore\n      0x04\n      add\n      tag_314\n      swap1\n      tag_315\n      jump\t// in\n    tag_314:\n      mload(0x40)\n      dup1\n      swap2\n      sub\n      swap1\n      revert\n    tag_313:\n        /* \"contracts/Gauge.sol\":27126:27127  0 */\n      0x00\n        /* \"contracts/Gauge.sol\":27105:27115  rewardRate */\n      0x03\n        /* \"contracts/Gauge.sol\":27105:27122  rewardRate[token] */\n      0x00\n        /* \"contracts/Gauge.sol\":27116:27121  token */\n      dup5\n        /* \"contracts/Gauge.sol\":27105:27122  rewardRate[token] */\n      0xffffffffffffffffffffffffffffffffffffffff\n      and\n      0xffffffffffffffffffffffffffffffffffffffff\n      and\n      dup2\n      mstore\n      0x20\n      add\n      swap1\n      dup2\n      mstore\n      0x20\n      add\n      0x00\n      keccak256\n      sload\n        /* \"contracts/Gauge.sol\":27105:27127  rewardRate[token] == 0 */\n      eq\n        /* \"contracts/Gauge.sol\":27101:27211  if (rewardRate[token] == 0) {... */\n      iszero\n      tag_316\n      jumpi\n        /* \"contracts/Gauge.sol\":27143:27200  _writeRewardPerTokenCheckpoint(token, 0, block.timestamp) */\n      tag_317\n        /* \"contracts/Gauge.sol\":27174:27179  token */\n      dup3\n        /* \"contracts/Gauge.sol\":27181:27182  0 */\n      0x00\n        /* \"contracts/Gauge.sol\":27184:27199  block.timestamp */\n      timestamp\n        /* \"contracts/Gauge.sol\":27143:27173  _writeRewardPerTokenCheckpoint */\n      tag_318\n        /* \"contracts/Gauge.sol\":27143:27200  _writeRewardPerTokenCheckpoint(token, 0, block.timestamp) */\n      jump\t// in\n    tag_317:\n        /* \"contracts/Gauge.sol\":27101:27211  if (rewardRate[token] == 0) {... */\n    tag_316:\n        /* \"contracts/Gauge.sol\":27275:27303  _updateRewardPerToken(token) */\n      tag_319\n        /* \"contracts/Gauge.sol\":27297:27302  token */\n      dup3\n        /* \"contracts/Gauge.sol\":27275:27296  _updateRewardPerToken */\n      tag_259\n        /* \"contracts/Gauge.sol\":27275:27303  _updateRewardPerToken(token) */\n      jump\t// in\n    tag_319:\n        /* \"contracts/Gauge.sol\":27221:27241  rewardPerTokenStored */\n      0x05\n        /* \"contracts/Gauge.sol\":27221:27248  rewardPerTokenStored[token] */\n      0x00\n        /* \"contracts/Gauge.sol\":27242:27247  token */\n      dup6\n        /* \"contracts/Gauge.sol\":27221:27248  rewardPerTokenStored[token] */\n      0xffffffffffffffffffffffffffffffffffffffff\n      and\n      0xffffffffffffffffffffffffffffffffffffffff\n      and\n      dup2\n      mstore\n      0x20\n      add\n      swap1\n      dup2\n      mstore\n      0x20\n      add\n      0x00\n      keccak256\n      0x00\n        /* \"contracts/Gauge.sol\":27250:27264  lastUpdateTime */\n      0x04\n        /* \"contracts/Gauge.sol\":27250:27271  lastUpdateTime[token] */\n      0x00\n        /* \"contracts/Gauge.sol\":27265:27270  token */\n      dup8\n        /* \"contracts/Gauge.sol\":27250:27271  lastUpdateTime[token] */\n      0xffffffffffffffffffffffffffffffffffffffff\n      and\n      0xffffffffffffffffffffffffffffffffffffffff\n      and\n      dup2\n      mstore\n      0x20\n      add\n      swap1\n      dup2\n      mstore\n      0x20\n      add\n      0x00\n      keccak256\n      0x00\n        /* \"contracts/Gauge.sol\":27220:27303  (rewardPerTokenStored[token], lastUpdateTime[token]) = _updateRewardPerToken(token) */\n      dup5\n      swap2\n      swap1\n      pop\n      sstore\n      dup4\n      swap2\n      swap1\n      pop\n      sstore\n      pop\n      pop\n        /* \"contracts/Gauge.sol\":27333:27344  _rewardRate */\n      dup1\n        /* \"contracts/Gauge.sol\":27313:27323  rewardRate */\n      0x03\n        /* \"contracts/Gauge.sol\":27313:27330  rewardRate[token] */\n      0x00\n        /* \"contracts/Gauge.sol\":27324:27329  token */\n      dup5\n        /* \"contracts/Gauge.sol\":27313:27330  rewardRate[token] */\n      0xffffffffffffffffffffffffffffffffffffffff\n      and\n      0xffffffffffffffffffffffffffffffffffffffff\n      and\n      dup2\n      mstore\n      0x20\n      add\n      swap1\n      dup2\n      mstore\n      0x20\n      add\n      0x00\n      keccak256\n        /* \"contracts/Gauge.sol\":27313:27344  rewardRate[token] = _rewardRate */\n      dup2\n      swap1\n      sstore\n      pop\n        /* \"contracts/Gauge.sol\":27359:27367  isReward */\n      0x0c\n        /* \"contracts/Gauge.sol\":27359:27374  isReward[token] */\n      0x00\n        /* \"contracts/Gauge.sol\":27368:27373  token */\n      dup4\n        /* \"contracts/Gauge.sol\":27359:27374  isReward[token] */\n      0xffffffffffffffffffffffffffffffffffffffff\n      and\n      0xffffffffffffffffffffffffffffffffffffffff\n      and\n      dup2\n      mstore\n      0x20\n      add\n      swap1\n      dup2\n      mstore\n      0x20\n      add\n      0x00\n      keccak256\n      0x00\n      swap1\n      sload\n      swap1\n      0x0100\n      exp\n      swap1\n      div\n      0xff\n      and\n        /* \"contracts/Gauge.sol\":27354:27456  if (!isReward[token]) {... */\n      tag_320\n      jumpi\n        /* \"contracts/Gauge.sol\":27408:27412  true */\n      0x01\n        /* \"contracts/Gauge.sol\":27390:27398  isReward */\n      0x0c\n        /* \"contracts/Gauge.sol\":27390:27405  isReward[token] */\n      0x00\n        /* \"contracts/Gauge.sol\":27399:27404  token */\n      dup5\n        /* \"contracts/Gauge.sol\":27390:27405  isReward[token] */\n      0xffffffffffffffffffffffffffffffffffffffff\n      and\n      0xffffffffffffffffffffffffffffffffffffffff\n      and\n      dup2\n      mstore\n      0x20\n      add\n      swap1\n      dup2\n      mstore\n      0x20\n      add\n      0x00\n      keccak256\n      0x00\n        /* \"contracts/Gauge.sol\":27390:27412  isReward[token] = true */\n      0x0100\n      exp\n      dup2\n      sload\n      dup2\n      0xff\n      mul\n      not\n      and\n      swap1\n      dup4\n      iszero\n      iszero\n      mul\n      or\n      swap1\n      sstore\n      pop\n        /* \"contracts/Gauge.sol\":27426:27433  rewards */\n      0x0b\n        /* \"contracts/Gauge.sol\":27439:27444  token */\n      dup3\n        /* \"contracts/Gauge.sol\":27426:27445  rewards.push(token) */\n      swap1\n      dup1\n      0x01\n      dup2\n      sload\n      add\n      dup1\n      dup3\n      sstore\n      dup1\n      swap2\n      pop\n      pop\n      0x01\n      swap1\n      sub\n      swap1\n      0x00\n      mstore\n      keccak256(0x00, 0x20)\n      add\n      0x00\n      swap1\n      swap2\n      swap1\n      swap2\n      swap1\n      swap2\n      0x0100\n      exp\n      dup2\n      sload\n      dup2\n      0xffffffffffffffffffffffffffffffffffffffff\n      mul\n      not\n      and\n      swap1\n      dup4\n      0xffffffffffffffffffffffffffffffffffffffff\n      and\n      mul\n      or\n      swap1\n      sstore\n      pop\n        /* \"contracts/Gauge.sol\":27354:27456  if (!isReward[token]) {... */\n    tag_320:\n        /* \"contracts/Gauge.sol\":27495:27500  token */\n      dup2\n        /* \"contracts/Gauge.sol\":27470:27514  NotifyReward(msg.sender, token, _rewardRate) */\n      0xffffffffffffffffffffffffffffffffffffffff\n      and\n        /* \"contracts/Gauge.sol\":27483:27493  msg.sender */\n      caller\n        /* \"contracts/Gauge.sol\":27470:27514  NotifyReward(msg.sender, token, _rewardRate) */\n      0xffffffffffffffffffffffffffffffffffffffff\n      and\n      0xf70d5c697de7ea828df48e5c4573cb2194c659f1901f70110c52b066dcf50826\n        /* \"contracts/Gauge.sol\":27502:27513  _rewardRate */\n      dup4\n        /* \"contracts/Gauge.sol\":27470:27514  NotifyReward(msg.sender, token, _rewardRate) */\n      mload(0x40)\n      tag_322\n      swap2\n      swap1\n      tag_61\n      jump\t// in\n    tag_322:\n      mload(0x40)\n      dup1\n      swap2\n      sub\n      swap1\n      log3\n        /* \"contracts/Gauge.sol\":26975:27521  function notifyRewardAmount(address token, uint _rewardRate) external  {... */\n      pop\n      pop\n      jump\t// out\n        /* \"contracts/Gauge.sol\":24475:24588  function depositAll(uint tokenId) external {... */\n    tag_148:\n        /* \"contracts/Gauge.sol\":24528:24581  deposit(IERC20(stake).balanceOf(msg.sender), tokenId) */\n      tag_324\n        /* \"contracts/Gauge.sol\":24543:24548  stake */\n      immutable(\"0xd094ef07eef1924f3d7fe3d896f6ebece97bd5683077be90743b91a72d59db67\")\n        /* \"contracts/Gauge.sol\":24536:24559  IERC20(stake).balanceOf */\n      0xffffffffffffffffffffffffffffffffffffffff\n      and\n      0x70a08231\n        /* \"contracts/Gauge.sol\":24560:24570  msg.sender */\n      caller\n        /* \"contracts/Gauge.sol\":24536:24571  IERC20(stake).balanceOf(msg.sender) */\n      mload(0x40)\n      dup3\n      0xffffffff\n      and\n      0xe0\n      shl\n      dup2\n      mstore\n      0x04\n      add\n      tag_325\n      swap2\n      swap1\n      tag_90\n      jump\t// in\n    tag_325:\n      0x20\n      mload(0x40)\n      dup1\n      dup4\n      sub\n      dup2\n      dup7\n      gas\n      staticcall\n      iszero\n      dup1\n      iszero\n      tag_327\n      jumpi\n      returndatasize\n      0x00\n      dup1\n      returndatacopy\n      revert(0x00, returndatasize)\n    tag_327:\n      pop\n      pop\n      pop\n      pop\n      mload(0x40)\n      returndatasize\n      not(0x1f)\n      0x1f\n      dup3\n      add\n      and\n      dup3\n      add\n      dup1\n      0x40\n      mstore\n      pop\n      dup2\n      add\n      swap1\n      tag_328\n      swap2\n      swap1\n      tag_329\n      jump\t// in\n    tag_328:\n        /* \"contracts/Gauge.sol\":24573:24580  tokenId */\n      dup3\n        /* \"contracts/Gauge.sol\":24528:24535  deposit */\n      tag_159\n        /* \"contracts/Gauge.sol\":24528:24581  deposit(IERC20(stake).balanceOf(msg.sender), tokenId) */\n      jump\t// in\n    tag_324:\n        /* \"contracts/Gauge.sol\":24475:24588  function depositAll(uint tokenId) external {... */\n      pop\n      jump\t// out\n        /* \"contracts/Gauge.sol\":19237:19805  function derivedBalance(address account) public view returns (uint) {... */\n    tag_151:\n        /* \"contracts/Gauge.sol\":19299:19303  uint */\n      0x00\n        /* \"contracts/Gauge.sol\":19315:19328  uint _tokenId */\n      dup1\n        /* \"contracts/Gauge.sol\":19331:19339  tokenIds */\n      0x08\n        /* \"contracts/Gauge.sol\":19331:19348  tokenIds[account] */\n      0x00\n        /* \"contracts/Gauge.sol\":19340:19347  account */\n      dup5\n        /* \"contracts/Gauge.sol\":19331:19348  tokenIds[account] */\n      0xffffffffffffffffffffffffffffffffffffffff\n      and\n      0xffffffffffffffffffffffffffffffffffffffff\n      and\n      dup2\n      mstore\n      0x20\n      add\n      swap1\n      dup2\n      mstore\n      0x20\n      add\n      0x00\n      keccak256\n      sload\n        /* \"contracts/Gauge.sol\":19315:19348  uint _tokenId = tokenIds[account] */\n      swap1\n      pop\n        /* \"contracts/Gauge.sol\":19358:19371  uint _balance */\n      0x00\n        /* \"contracts/Gauge.sol\":19374:19383  balanceOf */\n      0x0a\n        /* \"contracts/Gauge.sol\":19374:19392  balanceOf[account] */\n      0x00\n        /* \"contracts/Gauge.sol\":19384:19391  account */\n      dup6\n        /* \"contracts/Gauge.sol\":19374:19392  balanceOf[account] */\n      0xffffffffffffffffffffffffffffffffffffffff\n      and\n      0xffffffffffffffffffffffffffffffffffffffff\n      and\n      dup2\n      mstore\n      0x20\n      add\n      swap1\n      dup2\n      mstore\n      0x20\n      add\n      0x00\n      keccak256\n      sload\n        /* \"contracts/Gauge.sol\":19358:19392  uint _balance = balanceOf[account] */\n      swap1\n      pop\n        /* \"contracts/Gauge.sol\":19402:19415  uint _derived */\n      0x00\n        /* \"contracts/Gauge.sol\":19434:19437  100 */\n      0x64\n        /* \"contracts/Gauge.sol\":19429:19431  30 */\n      0x1e\n        /* \"contracts/Gauge.sol\":19418:19426  _balance */\n      dup4\n        /* \"contracts/Gauge.sol\":19418:19431  _balance * 30 */\n      tag_331\n      swap2\n      swap1\n      tag_226\n      jump\t// in\n    tag_331:\n        /* \"contracts/Gauge.sol\":19418:19437  _balance * 30 / 100 */\n      tag_332\n      swap2\n      swap1\n      tag_201\n      jump\t// in\n    tag_332:\n        /* \"contracts/Gauge.sol\":19402:19437  uint _derived = _balance * 30 / 100 */\n      swap1\n      pop\n        /* \"contracts/Gauge.sol\":19447:19461  uint _adjusted */\n      0x00\n        /* \"contracts/Gauge.sol\":19475:19487  uint _supply */\n      dup1\n        /* \"contracts/Gauge.sol\":19497:19502  boost */\n      immutable(\"0x8e831a88d8106460d1544aa376ec6155091b50c6145ad03273db7938ca17c5b1\")\n        /* \"contracts/Gauge.sol\":19490:19511  IBoost(boost).weights */\n      0xffffffffffffffffffffffffffffffffffffffff\n      and\n      0xa7cac846\n        /* \"contracts/Gauge.sol\":19512:19517  stake */\n      immutable(\"0xd094ef07eef1924f3d7fe3d896f6ebece97bd5683077be90743b91a72d59db67\")\n        /* \"contracts/Gauge.sol\":19490:19518  IBoost(boost).weights(stake) */\n      mload(0x40)\n      dup3\n      0xffffffff\n      and\n      0xe0\n      shl\n      dup2\n      mstore\n      0x04\n      add\n      tag_333\n      swap2\n      swap1\n      tag_90\n      jump\t// in\n    tag_333:\n      0x20\n      mload(0x40)\n      dup1\n      dup4\n      sub\n      dup2\n      dup7\n      gas\n      staticcall\n      iszero\n      dup1\n      iszero\n      tag_335\n      jumpi\n      returndatasize\n      0x00\n      dup1\n      returndatacopy\n      revert(0x00, returndatasize)\n    tag_335:\n      pop\n      pop\n      pop\n      pop\n      mload(0x40)\n      returndatasize\n      not(0x1f)\n      0x1f\n      dup3\n      add\n      and\n      dup3\n      add\n      dup1\n      0x40\n      mstore\n      pop\n      dup2\n      add\n      swap1\n      tag_336\n      swap2\n      swap1\n      tag_329\n      jump\t// in\n    tag_336:\n        /* \"contracts/Gauge.sol\":19475:19518  uint _supply = IBoost(boost).weights(stake) */\n      swap1\n      pop\n        /* \"contracts/Gauge.sol\":19552:19559  veToken */\n      immutable(\"0xf149c9166005b187f5af29ceb397e7b9b5ab7e3a911adc91a9ebb826b208930e\")\n        /* \"contracts/Gauge.sol\":19543:19568  IVeToken(veToken).ownerOf */\n      0xffffffffffffffffffffffffffffffffffffffff\n      and\n      0x6352211e\n        /* \"contracts/Gauge.sol\":19569:19577  _tokenId */\n      dup7\n        /* \"contracts/Gauge.sol\":19543:19578  IVeToken(veToken).ownerOf(_tokenId) */\n      mload(0x40)\n      dup3\n      0xffffffff\n      and\n      0xe0\n      shl\n      dup2\n      mstore\n      0x04\n      add\n      tag_337\n      swap2\n      swap1\n      tag_61\n      jump\t// in\n    tag_337:\n      0x20\n      mload(0x40)\n      dup1\n      dup4\n      sub\n      dup2\n      dup7\n      gas\n      staticcall\n      iszero\n      dup1\n      iszero\n      tag_339\n      jumpi\n      returndatasize\n      0x00\n      dup1\n      returndatacopy\n      revert(0x00, returndatasize)\n    tag_339:\n      pop\n      pop\n      pop\n      pop\n      mload(0x40)\n      returndatasize\n      not(0x1f)\n      0x1f\n      dup3\n      add\n      and\n      dup3\n      add\n      dup1\n      0x40\n      mstore\n      pop\n      dup2\n      add\n      swap1\n      tag_340\n      swap2\n      swap1\n      tag_341\n      jump\t// in\n    tag_340:\n        /* \"contracts/Gauge.sol\":19532:19578  account == IVeToken(veToken).ownerOf(_tokenId) */\n      0xffffffffffffffffffffffffffffffffffffffff\n      and\n        /* \"contracts/Gauge.sol\":19532:19539  account */\n      dup8\n        /* \"contracts/Gauge.sol\":19532:19578  account == IVeToken(veToken).ownerOf(_tokenId) */\n      0xffffffffffffffffffffffffffffffffffffffff\n      and\n      eq\n        /* \"contracts/Gauge.sol\":19532:19593  account == IVeToken(veToken).ownerOf(_tokenId) && _supply > 0 */\n      dup1\n      iszero\n      tag_342\n      jumpi\n      pop\n        /* \"contracts/Gauge.sol\":19592:19593  0 */\n      0x00\n        /* \"contracts/Gauge.sol\":19582:19589  _supply */\n      dup2\n        /* \"contracts/Gauge.sol\":19582:19593  _supply > 0 */\n      gt\n        /* \"contracts/Gauge.sol\":19532:19593  account == IVeToken(veToken).ownerOf(_tokenId) && _supply > 0 */\n    tag_342:\n        /* \"contracts/Gauge.sol\":19528:19740  if (account == IVeToken(veToken).ownerOf(_tokenId) && _supply > 0) {... */\n      iszero\n      tag_343\n      jumpi\n        /* \"contracts/Gauge.sol\":19628:19633  boost */\n      immutable(\"0x8e831a88d8106460d1544aa376ec6155091b50c6145ad03273db7938ca17c5b1\")\n        /* \"contracts/Gauge.sol\":19621:19640  IBoost(boost).votes */\n      0xffffffffffffffffffffffffffffffffffffffff\n      and\n      0xd23254b4\n        /* \"contracts/Gauge.sol\":19641:19649  _tokenId */\n      dup7\n        /* \"contracts/Gauge.sol\":19651:19656  stake */\n      immutable(\"0xd094ef07eef1924f3d7fe3d896f6ebece97bd5683077be90743b91a72d59db67\")\n        /* \"contracts/Gauge.sol\":19621:19657  IBoost(boost).votes(_tokenId, stake) */\n      mload(0x40)\n      dup4\n      0xffffffff\n      and\n      0xe0\n      shl\n      dup2\n      mstore\n      0x04\n      add\n      tag_344\n      swap3\n      swap2\n      swap1\n      tag_345\n      jump\t// in\n    tag_344:\n      0x20\n      mload(0x40)\n      dup1\n      dup4\n      sub\n      dup2\n      dup7\n      gas\n      staticcall\n      iszero\n      dup1\n      iszero\n      tag_347\n      jumpi\n      returndatasize\n      0x00\n      dup1\n      returndatacopy\n      revert(0x00, returndatasize)\n    tag_347:\n      pop\n      pop\n      pop\n      pop\n      mload(0x40)\n      returndatasize\n      not(0x1f)\n      0x1f\n      dup3\n      add\n      and\n      dup3\n      add\n      dup1\n      0x40\n      mstore\n      pop\n      dup2\n      add\n      swap1\n      tag_348\n      swap2\n      swap1\n      tag_329\n      jump\t// in\n    tag_348:\n        /* \"contracts/Gauge.sol\":19609:19657  _adjusted = IBoost(boost).votes(_tokenId, stake) */\n      swap2\n      pop\n        /* \"contracts/Gauge.sol\":19726:19729  100 */\n      0x64\n        /* \"contracts/Gauge.sol\":19721:19723  70 */\n      0x46\n        /* \"contracts/Gauge.sol\":19710:19717  _supply */\n      dup3\n        /* \"contracts/Gauge.sol\":19698:19707  _adjusted */\n      dup5\n        /* \"contracts/Gauge.sol\":19684:19695  totalSupply */\n      sload(0x09)\n        /* \"contracts/Gauge.sol\":19684:19707  totalSupply * _adjusted */\n      tag_349\n      swap2\n      swap1\n      tag_226\n      jump\t// in\n    tag_349:\n        /* \"contracts/Gauge.sol\":19684:19717  totalSupply * _adjusted / _supply */\n      tag_350\n      swap2\n      swap1\n      tag_201\n      jump\t// in\n    tag_350:\n        /* \"contracts/Gauge.sol\":19683:19723  (totalSupply * _adjusted / _supply) * 70 */\n      tag_351\n      swap2\n      swap1\n      tag_226\n      jump\t// in\n    tag_351:\n        /* \"contracts/Gauge.sol\":19683:19729  (totalSupply * _adjusted / _supply) * 70 / 100 */\n      tag_352\n      swap2\n      swap1\n      tag_201\n      jump\t// in\n    tag_352:\n        /* \"contracts/Gauge.sol\":19671:19729  _adjusted = (totalSupply * _adjusted / _supply) * 70 / 100 */\n      swap2\n      pop\n        /* \"contracts/Gauge.sol\":19528:19740  if (account == IVeToken(veToken).ownerOf(_tokenId) && _supply > 0) {... */\n    tag_343:\n        /* \"contracts/Gauge.sol\":19756:19798  Math.min((_derived + _adjusted), _balance) */\n      tag_353\n        /* \"contracts/Gauge.sol\":19777:19786  _adjusted */\n      dup3\n        /* \"contracts/Gauge.sol\":19766:19774  _derived */\n      dup5\n        /* \"contracts/Gauge.sol\":19766:19786  _derived + _adjusted */\n      tag_354\n      swap2\n      swap1\n      tag_221\n      jump\t// in\n    tag_354:\n        /* \"contracts/Gauge.sol\":19789:19797  _balance */\n      dup6\n        /* \"contracts/Gauge.sol\":19756:19764  Math.min */\n      tag_355\n        /* \"contracts/Gauge.sol\":19756:19798  Math.min((_derived + _adjusted), _balance) */\n      jump\t// in\n    tag_353:\n        /* \"contracts/Gauge.sol\":19749:19798  return Math.min((_derived + _adjusted), _balance) */\n      swap6\n      pop\n      pop\n      pop\n      pop\n      pop\n      pop\n        /* \"contracts/Gauge.sol\":19237:19805  function derivedBalance(address account) public view returns (uint) {... */\n      swap2\n      swap1\n      pop\n      jump\t// out\n        /* \"contracts/Gauge.sol\":10380:10405  uint public derivedSupply */\n    tag_154:\n      sload(0x01)\n      dup2\n      jump\t// out\n        /* \"contracts/Gauge.sol\":24594:25712  function deposit(uint amount, uint tokenId) public nonReentrant {... */\n    tag_159:\n        /* \"contracts/Gauge.sol\":3133:3134  2 */\n      0x02\n        /* \"contracts/Gauge.sol\":3714:3721  _status */\n      sload(0x00)\n        /* \"contracts/Gauge.sol\":3714:3733  _status != _ENTERED */\n      eq\n      iszero\n        /* \"contracts/Gauge.sol\":3706:3769  require(_status != _ENTERED, \"ReentrancyGuard: reentrant call\") */\n      tag_357\n      jumpi\n      mload(0x40)\n      0x08c379a000000000000000000000000000000000000000000000000000000000\n      dup2\n      mstore\n      0x04\n      add\n      tag_358\n      swap1\n      tag_244\n      jump\t// in\n    tag_358:\n      mload(0x40)\n      dup1\n      swap2\n      sub\n      swap1\n      revert\n    tag_357:\n        /* \"contracts/Gauge.sol\":3133:3134  2 */\n      0x02\n        /* \"contracts/Gauge.sol\":3844:3851  _status */\n      0x00\n        /* \"contracts/Gauge.sol\":3844:3862  _status = _ENTERED */\n      dup2\n      swap1\n      sstore\n      pop\n        /* \"contracts/Gauge.sol\":24685:24686  0 */\n      0x00\n        /* \"contracts/Gauge.sol\":24676:24682  amount */\n      dup3\n        /* \"contracts/Gauge.sol\":24676:24686  amount > 0 */\n      gt\n        /* \"contracts/Gauge.sol\":24668:24687  require(amount > 0) */\n      tag_360\n      jumpi\n      0x00\n      dup1\n      revert\n    tag_360:\n        /* \"contracts/Gauge.sol\":24698:24771  TransferHelper.safeTransferFrom(stake, msg.sender, address(this), amount) */\n      tag_361\n        /* \"contracts/Gauge.sol\":24730:24735  stake */\n      immutable(\"0xd094ef07eef1924f3d7fe3d896f6ebece97bd5683077be90743b91a72d59db67\")\n        /* \"contracts/Gauge.sol\":24737:24747  msg.sender */\n      caller\n        /* \"contracts/Gauge.sol\":24757:24761  this */\n      address\n        /* \"contracts/Gauge.sol\":24764:24770  amount */\n      dup6\n        /* \"contracts/Gauge.sol\":24698:24729  TransferHelper.safeTransferFrom */\n      tag_362\n        /* \"contracts/Gauge.sol\":24698:24771  TransferHelper.safeTransferFrom(stake, msg.sender, address(this), amount) */\n      jump\t// in\n    tag_361:\n        /* \"contracts/Gauge.sol\":24796:24802  amount */\n      dup2\n        /* \"contracts/Gauge.sol\":24781:24792  totalSupply */\n      0x09\n      0x00\n        /* \"contracts/Gauge.sol\":24781:24802  totalSupply += amount */\n      dup3\n      dup3\n      sload\n      tag_363\n      swap2\n      swap1\n      tag_221\n      jump\t// in\n    tag_363:\n      swap3\n      pop\n      pop\n      dup2\n      swap1\n      sstore\n      pop\n        /* \"contracts/Gauge.sol\":24837:24843  amount */\n      dup2\n        /* \"contracts/Gauge.sol\":24812:24821  balanceOf */\n      0x0a\n        /* \"contracts/Gauge.sol\":24812:24833  balanceOf[msg.sender] */\n      0x00\n        /* \"contracts/Gauge.sol\":24822:24832  msg.sender */\n      caller\n        /* \"contracts/Gauge.sol\":24812:24833  balanceOf[msg.sender] */\n      0xffffffffffffffffffffffffffffffffffffffff\n      and\n      0xffffffffffffffffffffffffffffffffffffffff\n      and\n      dup2\n      mstore\n      0x20\n      add\n      swap1\n      dup2\n      mstore\n      0x20\n      add\n      0x00\n      keccak256\n      0x00\n        /* \"contracts/Gauge.sol\":24812:24843  balanceOf[msg.sender] += amount */\n      dup3\n      dup3\n      sload\n      tag_364\n      swap2\n      swap1\n      tag_221\n      jump\t// in\n    tag_364:\n      swap3\n      pop\n      pop\n      dup2\n      swap1\n      sstore\n      pop\n        /* \"contracts/Gauge.sol\":24868:24869  0 */\n      0x00\n        /* \"contracts/Gauge.sol\":24858:24865  tokenId */\n      dup2\n        /* \"contracts/Gauge.sol\":24858:24869  tokenId > 0 */\n      gt\n        /* \"contracts/Gauge.sol\":24854:25246  if (tokenId > 0) {... */\n      iszero\n      tag_365\n      jumpi\n        /* \"contracts/Gauge.sol\":24931:24941  msg.sender */\n      caller\n        /* \"contracts/Gauge.sol\":24893:24941  IVeToken(veToken).ownerOf(tokenId) == msg.sender */\n      0xffffffffffffffffffffffffffffffffffffffff\n      and\n        /* \"contracts/Gauge.sol\":24902:24909  veToken */\n      immutable(\"0xf149c9166005b187f5af29ceb397e7b9b5ab7e3a911adc91a9ebb826b208930e\")\n        /* \"contracts/Gauge.sol\":24893:24918  IVeToken(veToken).ownerOf */\n      0xffffffffffffffffffffffffffffffffffffffff\n      and\n      0x6352211e\n        /* \"contracts/Gauge.sol\":24919:24926  tokenId */\n      dup4\n        /* \"contracts/Gauge.sol\":24893:24927  IVeToken(veToken).ownerOf(tokenId) */\n      mload(0x40)\n      dup3\n      0xffffffff\n      and\n      0xe0\n      shl\n      dup2\n      mstore\n      0x04\n      add\n      tag_366\n      swap2\n      swap1\n      tag_61\n      jump\t// in\n    tag_366:\n      0x20\n      mload(0x40)\n      dup1\n      dup4\n      sub\n      dup2\n      dup7\n      gas\n      staticcall\n      iszero\n      dup1\n      iszero\n      tag_368\n      jumpi\n      returndatasize\n      0x00\n      dup1\n      returndatacopy\n      revert(0x00, returndatasize)\n    tag_368:\n      pop\n      pop\n      pop\n      pop\n      mload(0x40)\n      returndatasize\n      not(0x1f)\n      0x1f\n      dup3\n      add\n      and\n      dup3\n      add\n      dup1\n      0x40\n      mstore\n      pop\n      dup2\n      add\n      swap1\n      tag_369\n      swap2\n      swap1\n      tag_341\n      jump\t// in\n    tag_369:\n        /* \"contracts/Gauge.sol\":24893:24941  IVeToken(veToken).ownerOf(tokenId) == msg.sender */\n      0xffffffffffffffffffffffffffffffffffffffff\n      and\n      eq\n        /* \"contracts/Gauge.sol\":24885:24942  require(IVeToken(veToken).ownerOf(tokenId) == msg.sender) */\n      tag_370\n      jumpi\n      0x00\n      dup1\n      revert\n    tag_370:\n        /* \"contracts/Gauge.sol\":24984:24985  0 */\n      0x00\n        /* \"contracts/Gauge.sol\":24960:24968  tokenIds */\n      0x08\n        /* \"contracts/Gauge.sol\":24960:24980  tokenIds[msg.sender] */\n      0x00\n        /* \"contracts/Gauge.sol\":24969:24979  msg.sender */\n      caller\n        /* \"contracts/Gauge.sol\":24960:24980  tokenIds[msg.sender] */\n      0xffffffffffffffffffffffffffffffffffffffff\n      and\n      0xffffffffffffffffffffffffffffffffffffffff\n      and\n      dup2\n      mstore\n      0x20\n      add\n      swap1\n      dup2\n      mstore\n      0x20\n      add\n      0x00\n      keccak256\n      sload\n        /* \"contracts/Gauge.sol\":24960:24985  tokenIds[msg.sender] == 0 */\n      eq\n        /* \"contracts/Gauge.sol\":24956:25121  if (tokenIds[msg.sender] == 0) {... */\n      iszero\n      tag_371\n      jumpi\n        /* \"contracts/Gauge.sol\":25028:25035  tokenId */\n      dup1\n        /* \"contracts/Gauge.sol\":25005:25013  tokenIds */\n      0x08\n        /* \"contracts/Gauge.sol\":25005:25025  tokenIds[msg.sender] */\n      0x00\n        /* \"contracts/Gauge.sol\":25014:25024  msg.sender */\n      caller\n        /* \"contracts/Gauge.sol\":25005:25025  tokenIds[msg.sender] */\n      0xffffffffffffffffffffffffffffffffffffffff\n      and\n      0xffffffffffffffffffffffffffffffffffffffff\n      and\n      dup2\n      mstore\n      0x20\n      add\n      swap1\n      dup2\n      mstore\n      0x20\n      add\n      0x00\n      keccak256\n        /* \"contracts/Gauge.sol\":25005:25035  tokenIds[msg.sender] = tokenId */\n      dup2\n      swap1\n      sstore\n      pop\n        /* \"contracts/Gauge.sol\":25060:25065  boost */\n      immutable(\"0x8e831a88d8106460d1544aa376ec6155091b50c6145ad03273db7938ca17c5b1\")\n        /* \"contracts/Gauge.sol\":25053:25085  IBoost(boost).attachTokenToGauge */\n      0xffffffffffffffffffffffffffffffffffffffff\n      and\n      0x698473e3\n        /* \"contracts/Gauge.sol\":25086:25093  tokenId */\n      dup3\n        /* \"contracts/Gauge.sol\":25095:25105  msg.sender */\n      caller\n        /* \"contracts/Gauge.sol\":25053:25106  IBoost(boost).attachTokenToGauge(tokenId, msg.sender) */\n      mload(0x40)\n      dup4\n      0xffffffff\n      and\n      0xe0\n      shl\n      dup2\n      mstore\n      0x04\n      add\n      tag_372\n      swap3\n      swap2\n      swap1\n      tag_345\n      jump\t// in\n    tag_372:\n      0x00\n      mload(0x40)\n      dup1\n      dup4\n      sub\n      dup2\n      0x00\n      dup8\n      dup1\n      extcodesize\n      iszero\n      dup1\n      iszero\n      tag_373\n      jumpi\n      0x00\n      dup1\n      revert\n    tag_373:\n      pop\n      gas\n      call\n      iszero\n      dup1\n      iszero\n      tag_375\n      jumpi\n      returndatasize\n      0x00\n      dup1\n      returndatacopy\n      revert(0x00, returndatasize)\n    tag_375:\n      pop\n      pop\n      pop\n      pop\n        /* \"contracts/Gauge.sol\":24956:25121  if (tokenIds[msg.sender] == 0) {... */\n    tag_371:\n        /* \"contracts/Gauge.sol\":25166:25173  tokenId */\n      dup1\n        /* \"contracts/Gauge.sol\":25142:25150  tokenIds */\n      0x08\n        /* \"contracts/Gauge.sol\":25142:25162  tokenIds[msg.sender] */\n      0x00\n        /* \"contracts/Gauge.sol\":25151:25161  msg.sender */\n      caller\n        /* \"contracts/Gauge.sol\":25142:25162  tokenIds[msg.sender] */\n      0xffffffffffffffffffffffffffffffffffffffff\n      and\n      0xffffffffffffffffffffffffffffffffffffffff\n      and\n      dup2\n      mstore\n      0x20\n      add\n      swap1\n      dup2\n      mstore\n      0x20\n      add\n      0x00\n      keccak256\n      sload\n        /* \"contracts/Gauge.sol\":25142:25173  tokenIds[msg.sender] == tokenId */\n      eq\n        /* \"contracts/Gauge.sol\":25134:25174  require(tokenIds[msg.sender] == tokenId) */\n      tag_376\n      jumpi\n      0x00\n      dup1\n      revert\n    tag_376:\n        /* \"contracts/Gauge.sol\":24854:25246  if (tokenId > 0) {... */\n      jump(tag_377)\n    tag_365:\n        /* \"contracts/Gauge.sol\":25215:25223  tokenIds */\n      0x08\n        /* \"contracts/Gauge.sol\":25215:25235  tokenIds[msg.sender] */\n      0x00\n        /* \"contracts/Gauge.sol\":25224:25234  msg.sender */\n      caller\n        /* \"contracts/Gauge.sol\":25215:25235  tokenIds[msg.sender] */\n      0xffffffffffffffffffffffffffffffffffffffff\n      and\n      0xffffffffffffffffffffffffffffffffffffffff\n      and\n      dup2\n      mstore\n      0x20\n      add\n      swap1\n      dup2\n      mstore\n      0x20\n      add\n      0x00\n      keccak256\n      sload\n        /* \"contracts/Gauge.sol\":25205:25235  tokenId = tokenIds[msg.sender] */\n      swap1\n      pop\n        /* \"contracts/Gauge.sol\":24854:25246  if (tokenId > 0) {... */\n    tag_377:\n        /* \"contracts/Gauge.sol\":25256:25276  uint _derivedBalance */\n      0x00\n        /* \"contracts/Gauge.sol\":25279:25294  derivedBalances */\n      0x02\n        /* \"contracts/Gauge.sol\":25279:25306  derivedBalances[msg.sender] */\n      0x00\n        /* \"contracts/Gauge.sol\":25295:25305  msg.sender */\n      caller\n        /* \"contracts/Gauge.sol\":25279:25306  derivedBalances[msg.sender] */\n      0xffffffffffffffffffffffffffffffffffffffff\n      and\n      0xffffffffffffffffffffffffffffffffffffffff\n      and\n      dup2\n      mstore\n      0x20\n      add\n      swap1\n      dup2\n      mstore\n      0x20\n      add\n      0x00\n      keccak256\n      sload\n        /* \"contracts/Gauge.sol\":25256:25306  uint _derivedBalance = derivedBalances[msg.sender] */\n      swap1\n      pop\n        /* \"contracts/Gauge.sol\":25333:25348  _derivedBalance */\n      dup1\n        /* \"contracts/Gauge.sol\":25316:25329  derivedSupply */\n      0x01\n      0x00\n        /* \"contracts/Gauge.sol\":25316:25348  derivedSupply -= _derivedBalance */\n      dup3\n      dup3\n      sload\n      tag_378\n      swap2\n      swap1\n      tag_192\n      jump\t// in\n    tag_378:\n      swap3\n      pop\n      pop\n      dup2\n      swap1\n      sstore\n      pop\n        /* \"contracts/Gauge.sol\":25376:25402  derivedBalance(msg.sender) */\n      tag_379\n        /* \"contracts/Gauge.sol\":25391:25401  msg.sender */\n      caller\n        /* \"contracts/Gauge.sol\":25376:25390  derivedBalance */\n      tag_151\n        /* \"contracts/Gauge.sol\":25376:25402  derivedBalance(msg.sender) */\n      jump\t// in\n    tag_379:\n        /* \"contracts/Gauge.sol\":25358:25402  _derivedBalance = derivedBalance(msg.sender) */\n      swap1\n      pop\n        /* \"contracts/Gauge.sol\":25442:25457  _derivedBalance */\n      dup1\n        /* \"contracts/Gauge.sol\":25412:25427  derivedBalances */\n      0x02\n        /* \"contracts/Gauge.sol\":25412:25439  derivedBalances[msg.sender] */\n      0x00\n        /* \"contracts/Gauge.sol\":25428:25438  msg.sender */\n      caller\n        /* \"contracts/Gauge.sol\":25412:25439  derivedBalances[msg.sender] */\n      0xffffffffffffffffffffffffffffffffffffffff\n      and\n      0xffffffffffffffffffffffffffffffffffffffff\n      and\n      dup2\n      mstore\n      0x20\n      add\n      swap1\n      dup2\n      mstore\n      0x20\n      add\n      0x00\n      keccak256\n        /* \"contracts/Gauge.sol\":25412:25457  derivedBalances[msg.sender] = _derivedBalance */\n      dup2\n      swap1\n      sstore\n      pop\n        /* \"contracts/Gauge.sol\":25484:25499  _derivedBalance */\n      dup1\n        /* \"contracts/Gauge.sol\":25467:25480  derivedSupply */\n      0x01\n      0x00\n        /* \"contracts/Gauge.sol\":25467:25499  derivedSupply += _derivedBalance */\n      dup3\n      dup3\n      sload\n      tag_380\n      swap2\n      swap1\n      tag_221\n      jump\t// in\n    tag_380:\n      swap3\n      pop\n      pop\n      dup2\n      swap1\n      sstore\n      pop\n        /* \"contracts/Gauge.sol\":25510:25555  _writeCheckpoint(msg.sender, _derivedBalance) */\n      tag_381\n        /* \"contracts/Gauge.sol\":25527:25537  msg.sender */\n      caller\n        /* \"contracts/Gauge.sol\":25539:25554  _derivedBalance */\n      dup3\n        /* \"contracts/Gauge.sol\":25510:25526  _writeCheckpoint */\n      tag_286\n        /* \"contracts/Gauge.sol\":25510:25555  _writeCheckpoint(msg.sender, _derivedBalance) */\n      jump\t// in\n    tag_381:\n        /* \"contracts/Gauge.sol\":25565:25589  _writeSupplyCheckpoint() */\n      tag_382\n        /* \"contracts/Gauge.sol\":25565:25587  _writeSupplyCheckpoint */\n      tag_288\n        /* \"contracts/Gauge.sol\":25565:25589  _writeSupplyCheckpoint() */\n      jump\t// in\n    tag_382:\n        /* \"contracts/Gauge.sol\":25607:25612  boost */\n      immutable(\"0x8e831a88d8106460d1544aa376ec6155091b50c6145ad03273db7938ca17c5b1\")\n        /* \"contracts/Gauge.sol\":25600:25625  IBoost(boost).emitDeposit */\n      0xffffffffffffffffffffffffffffffffffffffff\n      and\n      0xa61c713a\n        /* \"contracts/Gauge.sol\":25626:25633  tokenId */\n      dup4\n        /* \"contracts/Gauge.sol\":25635:25645  msg.sender */\n      caller\n        /* \"contracts/Gauge.sol\":25647:25653  amount */\n      dup7\n        /* \"contracts/Gauge.sol\":25600:25654  IBoost(boost).emitDeposit(tokenId, msg.sender, amount) */\n      mload(0x40)\n      dup5\n      0xffffffff\n      and\n      0xe0\n      shl\n      dup2\n      mstore\n      0x04\n      add\n      tag_383\n      swap4\n      swap3\n      swap2\n      swap1\n      tag_384\n      jump\t// in\n    tag_383:\n      0x00\n      mload(0x40)\n      dup1\n      dup4\n      sub\n      dup2\n      0x00\n      dup8\n      dup1\n      extcodesize\n      iszero\n      dup1\n      iszero\n      tag_385\n      jumpi\n      0x00\n      dup1\n      revert\n    tag_385:\n      pop\n      gas\n      call\n      iszero\n      dup1\n      iszero\n      tag_387\n      jumpi\n      returndatasize\n      0x00\n      dup1\n      returndatacopy\n      revert(0x00, returndatasize)\n    tag_387:\n      pop\n      pop\n      pop\n      pop\n        /* \"contracts/Gauge.sol\":25677:25687  msg.sender */\n      caller\n        /* \"contracts/Gauge.sol\":25669:25705  Deposit(msg.sender, tokenId, amount) */\n      0xffffffffffffffffffffffffffffffffffffffff\n      and\n      0x90890809c654f11d6e72a28fa60149770a0d11ec6c92319d6ceb2bb0a4ea1a15\n        /* \"contracts/Gauge.sol\":25689:25696  tokenId */\n      dup4\n        /* \"contracts/Gauge.sol\":25698:25704  amount */\n      dup6\n        /* \"contracts/Gauge.sol\":25669:25705  Deposit(msg.sender, tokenId, amount) */\n      mload(0x40)\n      tag_388\n      swap3\n      swap2\n      swap1\n      tag_52\n      jump\t// in\n    tag_388:\n      mload(0x40)\n      dup1\n      swap2\n      sub\n      swap1\n      log2\n        /* \"contracts/Gauge.sol\":24658:25712  {... */\n      pop\n        /* \"contracts/Gauge.sol\":3090:3091  1 */\n      0x01\n        /* \"contracts/Gauge.sol\":4017:4024  _status */\n      0x00\n        /* \"contracts/Gauge.sol\":4017:4039  _status = _NOT_ENTERED */\n      dup2\n      swap1\n      sstore\n      pop\n        /* \"contracts/Gauge.sol\":24594:25712  function deposit(uint amount, uint tokenId) public nonReentrant {... */\n      pop\n      pop\n      jump\t// out\n        /* \"contracts/Gauge.sol\":16896:16992  function rewardsListLength() external view returns (uint) {... */\n    tag_161:\n        /* \"contracts/Gauge.sol\":16948:16952  uint */\n      0x00\n        /* \"contracts/Gauge.sol\":16971:16978  rewards */\n      0x0b\n        /* \"contracts/Gauge.sol\":16971:16985  rewards.length */\n      dup1\n      sload\n      swap1\n      pop\n        /* \"contracts/Gauge.sol\":16964:16985  return rewards.length */\n      swap1\n      pop\n        /* \"contracts/Gauge.sol\":16896:16992  function rewardsListLength() external view returns (uint) {... */\n      swap1\n      jump\t// out\n        /* \"contracts/Gauge.sol\":11528:11560  uint public supplyNumCheckpoints */\n    tag_164:\n      sload(0x10)\n      dup2\n      jump\t// out\n        /* \"contracts/Gauge.sol\":18912:19231  function rewardPerToken(address token) public view returns (uint) {... */\n    tag_168:\n        /* \"contracts/Gauge.sol\":18972:18976  uint */\n      0x00\n        /* \"contracts/Gauge.sol\":19009:19010  0 */\n      dup1\n        /* \"contracts/Gauge.sol\":18992:19005  derivedSupply */\n      sload(0x01)\n        /* \"contracts/Gauge.sol\":18992:19010  derivedSupply == 0 */\n      eq\n        /* \"contracts/Gauge.sol\":18988:19071  if (derivedSupply == 0) {... */\n      iszero\n      tag_391\n      jumpi\n        /* \"contracts/Gauge.sol\":19033:19053  rewardPerTokenStored */\n      0x05\n        /* \"contracts/Gauge.sol\":19033:19060  rewardPerTokenStored[token] */\n      0x00\n        /* \"contracts/Gauge.sol\":19054:19059  token */\n      dup4\n        /* \"contracts/Gauge.sol\":19033:19060  rewardPerTokenStored[token] */\n      0xffffffffffffffffffffffffffffffffffffffff\n      and\n      0xffffffffffffffffffffffffffffffffffffffff\n      and\n      dup2\n      mstore\n      0x20\n      add\n      swap1\n      dup2\n      mstore\n      0x20\n      add\n      0x00\n      keccak256\n      sload\n        /* \"contracts/Gauge.sol\":19026:19060  return rewardPerTokenStored[token] */\n      swap1\n      pop\n      jump(tag_390)\n        /* \"contracts/Gauge.sol\":18988:19071  if (derivedSupply == 0) {... */\n    tag_391:\n        /* \"contracts/Gauge.sol\":19210:19223  derivedSupply */\n      sload(0x01)\n        /* \"contracts/Gauge.sol\":10500:10508  10 ** 18 */\n      0x0de0b6b3a7640000\n        /* \"contracts/Gauge.sol\":19178:19188  rewardRate */\n      0x03\n        /* \"contracts/Gauge.sol\":19178:19195  rewardRate[token] */\n      0x00\n        /* \"contracts/Gauge.sol\":19189:19194  token */\n      dup6\n        /* \"contracts/Gauge.sol\":19178:19195  rewardRate[token] */\n      0xffffffffffffffffffffffffffffffffffffffff\n      and\n      0xffffffffffffffffffffffffffffffffffffffff\n      and\n      dup2\n      mstore\n      0x20\n      add\n      swap1\n      dup2\n      mstore\n      0x20\n      add\n      0x00\n      keccak256\n      sload\n        /* \"contracts/Gauge.sol\":19153:19167  lastUpdateTime */\n      0x04\n        /* \"contracts/Gauge.sol\":19153:19174  lastUpdateTime[token] */\n      0x00\n        /* \"contracts/Gauge.sol\":19168:19173  token */\n      dup7\n        /* \"contracts/Gauge.sol\":19153:19174  lastUpdateTime[token] */\n      0xffffffffffffffffffffffffffffffffffffffff\n      and\n      0xffffffffffffffffffffffffffffffffffffffff\n      and\n      dup2\n      mstore\n      0x20\n      add\n      swap1\n      dup2\n      mstore\n      0x20\n      add\n      0x00\n      keccak256\n      sload\n        /* \"contracts/Gauge.sol\":19119:19150  lastTimeRewardApplicable(token) */\n      tag_392\n        /* \"contracts/Gauge.sol\":19144:19149  token */\n      dup7\n        /* \"contracts/Gauge.sol\":19119:19143  lastTimeRewardApplicable */\n      tag_108\n        /* \"contracts/Gauge.sol\":19119:19150  lastTimeRewardApplicable(token) */\n      jump\t// in\n    tag_392:\n        /* \"contracts/Gauge.sol\":19119:19174  lastTimeRewardApplicable(token) - lastUpdateTime[token] */\n      tag_393\n      swap2\n      swap1\n      tag_192\n      jump\t// in\n    tag_393:\n        /* \"contracts/Gauge.sol\":19118:19195  (lastTimeRewardApplicable(token) - lastUpdateTime[token]) * rewardRate[token] */\n      tag_394\n      swap2\n      swap1\n      tag_226\n      jump\t// in\n    tag_394:\n        /* \"contracts/Gauge.sol\":19118:19207  (lastTimeRewardApplicable(token) - lastUpdateTime[token]) * rewardRate[token] * PRECISION */\n      tag_395\n      swap2\n      swap1\n      tag_226\n      jump\t// in\n    tag_395:\n        /* \"contracts/Gauge.sol\":19118:19223  (lastTimeRewardApplicable(token) - lastUpdateTime[token]) * rewardRate[token] * PRECISION / derivedSupply */\n      tag_396\n      swap2\n      swap1\n      tag_201\n      jump\t// in\n    tag_396:\n        /* \"contracts/Gauge.sol\":19087:19107  rewardPerTokenStored */\n      0x05\n        /* \"contracts/Gauge.sol\":19087:19114  rewardPerTokenStored[token] */\n      0x00\n        /* \"contracts/Gauge.sol\":19108:19113  token */\n      dup5\n        /* \"contracts/Gauge.sol\":19087:19114  rewardPerTokenStored[token] */\n      0xffffffffffffffffffffffffffffffffffffffff\n      and\n      0xffffffffffffffffffffffffffffffffffffffff\n      and\n      dup2\n      mstore\n      0x20\n      add\n      swap1\n      dup2\n      mstore\n      0x20\n      add\n      0x00\n      keccak256\n      sload\n        /* \"contracts/Gauge.sol\":19087:19224  rewardPerTokenStored[token] + ((lastTimeRewardApplicable(token) - lastUpdateTime[token]) * rewardRate[token] * PRECISION / derivedSupply) */\n      tag_397\n      swap2\n      swap1\n      tag_221\n      jump\t// in\n    tag_397:\n        /* \"contracts/Gauge.sol\":19080:19224  return rewardPerTokenStored[token] + ((lastTimeRewardApplicable(token) - lastUpdateTime[token]) * rewardRate[token] * PRECISION / derivedSupply) */\n      swap1\n      pop\n        /* \"contracts/Gauge.sol\":18912:19231  function rewardPerToken(address token) public view returns (uint) {... */\n    tag_390:\n      swap2\n      swap1\n      pop\n      jump\t// out\n        /* \"contracts/Gauge.sol\":10998:11022  address[] public rewards */\n    tag_172:\n      0x0b\n      dup2\n      dup2\n      sload\n      dup2\n      lt\n      tag_398\n      jumpi\n      0x00\n      dup1\n      revert\n    tag_398:\n      swap1\n      0x00\n      mstore\n      keccak256(0x00, 0x20)\n      add\n      0x00\n      swap2\n      pop\n      sload\n      swap1\n      0x0100\n      exp\n      swap1\n      div\n      0xffffffffffffffffffffffffffffffffffffffff\n      and\n      dup2\n      jump\t// out\n        /* \"contracts/Gauge.sol\":11463:11521  mapping(uint => SupplyCheckpoint) public supplyCheckpoints */\n    tag_176:\n      mstore(0x20, 0x0f)\n      dup1\n      0x00\n      mstore\n      keccak256(0x00, 0x40)\n      0x00\n      swap2\n      pop\n      swap1\n      pop\n      dup1\n      0x00\n      add\n      sload\n      swap1\n      dup1\n      0x01\n      add\n      sload\n      swap1\n      pop\n      dup3\n      jump\t// out\n        /* \"contracts/Gauge.sol\":10874:10914  mapping(address => uint) public tokenIds */\n    tag_180:\n      mstore(0x20, 0x08)\n      dup1\n      0x00\n      mstore\n      keccak256(0x00, 0x40)\n      0x00\n      swap2\n      pop\n      swap1\n      pop\n      sload\n      dup2\n      jump\t// out\n        /* \"contracts/Gauge.sol\":13945:15303  function getPriorRewardPerToken(address token, uint timestamp) public view returns (uint, uint) {... */\n    tag_184:\n        /* \"contracts/Gauge.sol\":14029:14033  uint */\n      0x00\n        /* \"contracts/Gauge.sol\":14035:14039  uint */\n      dup1\n        /* \"contracts/Gauge.sol\":14051:14068  uint nCheckpoints */\n      0x00\n        /* \"contracts/Gauge.sol\":14071:14099  rewardPerTokenNumCheckpoints */\n      0x12\n        /* \"contracts/Gauge.sol\":14071:14106  rewardPerTokenNumCheckpoints[token] */\n      0x00\n        /* \"contracts/Gauge.sol\":14100:14105  token */\n      dup7\n        /* \"contracts/Gauge.sol\":14071:14106  rewardPerTokenNumCheckpoints[token] */\n      0xffffffffffffffffffffffffffffffffffffffff\n      and\n      0xffffffffffffffffffffffffffffffffffffffff\n      and\n      dup2\n      mstore\n      0x20\n      add\n      swap1\n      dup2\n      mstore\n      0x20\n      add\n      0x00\n      keccak256\n      sload\n        /* \"contracts/Gauge.sol\":14051:14106  uint nCheckpoints = rewardPerTokenNumCheckpoints[token] */\n      swap1\n      pop\n        /* \"contracts/Gauge.sol\":14136:14137  0 */\n      0x00\n        /* \"contracts/Gauge.sol\":14120:14132  nCheckpoints */\n      dup2\n        /* \"contracts/Gauge.sol\":14120:14137  nCheckpoints == 0 */\n      eq\n        /* \"contracts/Gauge.sol\":14116:14177  if (nCheckpoints == 0) {... */\n      iszero\n      tag_401\n      jumpi\n        /* \"contracts/Gauge.sol\":14161:14162  0 */\n      0x00\n        /* \"contracts/Gauge.sol\":14164:14165  0 */\n      dup1\n        /* \"contracts/Gauge.sol\":14153:14166  return (0, 0) */\n      swap3\n      pop\n      swap3\n      pop\n      pop\n      jump(tag_400)\n        /* \"contracts/Gauge.sol\":14116:14177  if (nCheckpoints == 0) {... */\n    tag_401:\n        /* \"contracts/Gauge.sol\":14298:14307  timestamp */\n      dup4\n        /* \"contracts/Gauge.sol\":14234:14259  rewardPerTokenCheckpoints */\n      0x11\n        /* \"contracts/Gauge.sol\":14234:14266  rewardPerTokenCheckpoints[token] */\n      0x00\n        /* \"contracts/Gauge.sol\":14260:14265  token */\n      dup8\n        /* \"contracts/Gauge.sol\":14234:14266  rewardPerTokenCheckpoints[token] */\n      0xffffffffffffffffffffffffffffffffffffffff\n      and\n      0xffffffffffffffffffffffffffffffffffffffff\n      and\n      dup2\n      mstore\n      0x20\n      add\n      swap1\n      dup2\n      mstore\n      0x20\n      add\n      0x00\n      keccak256\n        /* \"contracts/Gauge.sol\":14234:14284  rewardPerTokenCheckpoints[token][nCheckpoints - 1] */\n      0x00\n        /* \"contracts/Gauge.sol\":14282:14283  1 */\n      0x01\n        /* \"contracts/Gauge.sol\":14267:14279  nCheckpoints */\n      dup5\n        /* \"contracts/Gauge.sol\":14267:14283  nCheckpoints - 1 */\n      tag_402\n      swap2\n      swap1\n      tag_192\n      jump\t// in\n    tag_402:\n        /* \"contracts/Gauge.sol\":14234:14284  rewardPerTokenCheckpoints[token][nCheckpoints - 1] */\n      dup2\n      mstore\n      0x20\n      add\n      swap1\n      dup2\n      mstore\n      0x20\n      add\n      0x00\n      keccak256\n        /* \"contracts/Gauge.sol\":14234:14294  rewardPerTokenCheckpoints[token][nCheckpoints - 1].timestamp */\n      0x00\n      add\n      sload\n        /* \"contracts/Gauge.sol\":14234:14307  rewardPerTokenCheckpoints[token][nCheckpoints - 1].timestamp <= timestamp */\n      gt\n        /* \"contracts/Gauge.sol\":14230:14470  if (rewardPerTokenCheckpoints[token][nCheckpoints - 1].timestamp <= timestamp) {... */\n      tag_403\n      jumpi\n        /* \"contracts/Gauge.sol\":14331:14356  rewardPerTokenCheckpoints */\n      0x11\n        /* \"contracts/Gauge.sol\":14331:14363  rewardPerTokenCheckpoints[token] */\n      0x00\n        /* \"contracts/Gauge.sol\":14357:14362  token */\n      dup7\n        /* \"contracts/Gauge.sol\":14331:14363  rewardPerTokenCheckpoints[token] */\n      0xffffffffffffffffffffffffffffffffffffffff\n      and\n      0xffffffffffffffffffffffffffffffffffffffff\n      and\n      dup2\n      mstore\n      0x20\n      add\n      swap1\n      dup2\n      mstore\n      0x20\n      add\n      0x00\n      keccak256\n        /* \"contracts/Gauge.sol\":14331:14381  rewardPerTokenCheckpoints[token][nCheckpoints - 1] */\n      0x00\n        /* \"contracts/Gauge.sol\":14379:14380  1 */\n      0x01\n        /* \"contracts/Gauge.sol\":14364:14376  nCheckpoints */\n      dup4\n        /* \"contracts/Gauge.sol\":14364:14380  nCheckpoints - 1 */\n      tag_404\n      swap2\n      swap1\n      tag_192\n      jump\t// in\n    tag_404:\n        /* \"contracts/Gauge.sol\":14331:14381  rewardPerTokenCheckpoints[token][nCheckpoints - 1] */\n      dup2\n      mstore\n      0x20\n      add\n      swap1\n      dup2\n      mstore\n      0x20\n      add\n      0x00\n      keccak256\n        /* \"contracts/Gauge.sol\":14331:14396  rewardPerTokenCheckpoints[token][nCheckpoints - 1].rewardPerToken */\n      0x01\n      add\n      sload\n        /* \"contracts/Gauge.sol\":14398:14423  rewardPerTokenCheckpoints */\n      0x11\n        /* \"contracts/Gauge.sol\":14398:14430  rewardPerTokenCheckpoints[token] */\n      0x00\n        /* \"contracts/Gauge.sol\":14424:14429  token */\n      dup8\n        /* \"contracts/Gauge.sol\":14398:14430  rewardPerTokenCheckpoints[token] */\n      0xffffffffffffffffffffffffffffffffffffffff\n      and\n      0xffffffffffffffffffffffffffffffffffffffff\n      and\n      dup2\n      mstore\n      0x20\n      add\n      swap1\n      dup2\n      mstore\n      0x20\n      add\n      0x00\n      keccak256\n        /* \"contracts/Gauge.sol\":14398:14448  rewardPerTokenCheckpoints[token][nCheckpoints - 1] */\n      0x00\n        /* \"contracts/Gauge.sol\":14446:14447  1 */\n      0x01\n        /* \"contracts/Gauge.sol\":14431:14443  nCheckpoints */\n      dup5\n        /* \"contracts/Gauge.sol\":14431:14447  nCheckpoints - 1 */\n      tag_405\n      swap2\n      swap1\n      tag_192\n      jump\t// in\n    tag_405:\n        /* \"contracts/Gauge.sol\":14398:14448  rewardPerTokenCheckpoints[token][nCheckpoints - 1] */\n      dup2\n      mstore\n      0x20\n      add\n      swap1\n      dup2\n      mstore\n      0x20\n      add\n      0x00\n      keccak256\n        /* \"contracts/Gauge.sol\":14398:14458  rewardPerTokenCheckpoints[token][nCheckpoints - 1].timestamp */\n      0x00\n      add\n      sload\n        /* \"contracts/Gauge.sol\":14323:14459  return (rewardPerTokenCheckpoints[token][nCheckpoints - 1].rewardPerToken, rewardPerTokenCheckpoints[token][nCheckpoints - 1].timestamp) */\n      swap3\n      pop\n      swap3\n      pop\n      pop\n      jump(tag_400)\n        /* \"contracts/Gauge.sol\":14230:14470  if (rewardPerTokenCheckpoints[token][nCheckpoints - 1].timestamp <= timestamp) {... */\n    tag_403:\n        /* \"contracts/Gauge.sol\":14576:14585  timestamp */\n      dup4\n        /* \"contracts/Gauge.sol\":14528:14553  rewardPerTokenCheckpoints */\n      0x11\n        /* \"contracts/Gauge.sol\":14528:14560  rewardPerTokenCheckpoints[token] */\n      0x00\n        /* \"contracts/Gauge.sol\":14554:14559  token */\n      dup8\n        /* \"contracts/Gauge.sol\":14528:14560  rewardPerTokenCheckpoints[token] */\n      0xffffffffffffffffffffffffffffffffffffffff\n      and\n      0xffffffffffffffffffffffffffffffffffffffff\n      and\n      dup2\n      mstore\n      0x20\n      add\n      swap1\n      dup2\n      mstore\n      0x20\n      add\n      0x00\n      keccak256\n        /* \"contracts/Gauge.sol\":14528:14563  rewardPerTokenCheckpoints[token][0] */\n      0x00\n        /* \"contracts/Gauge.sol\":14561:14562  0 */\n      dup1\n        /* \"contracts/Gauge.sol\":14528:14563  rewardPerTokenCheckpoints[token][0] */\n      dup2\n      mstore\n      0x20\n      add\n      swap1\n      dup2\n      mstore\n      0x20\n      add\n      0x00\n      keccak256\n        /* \"contracts/Gauge.sol\":14528:14573  rewardPerTokenCheckpoints[token][0].timestamp */\n      0x00\n      add\n      sload\n        /* \"contracts/Gauge.sol\":14528:14585  rewardPerTokenCheckpoints[token][0].timestamp > timestamp */\n      gt\n        /* \"contracts/Gauge.sol\":14524:14625  if (rewardPerTokenCheckpoints[token][0].timestamp > timestamp) {... */\n      iszero\n      tag_406\n      jumpi\n        /* \"contracts/Gauge.sol\":14609:14610  0 */\n      0x00\n        /* \"contracts/Gauge.sol\":14612:14613  0 */\n      dup1\n        /* \"contracts/Gauge.sol\":14601:14614  return (0, 0) */\n      swap3\n      pop\n      swap3\n      pop\n      pop\n      jump(tag_400)\n        /* \"contracts/Gauge.sol\":14524:14625  if (rewardPerTokenCheckpoints[token][0].timestamp > timestamp) {... */\n    tag_406:\n        /* \"contracts/Gauge.sol\":14635:14645  uint lower */\n      0x00\n        /* \"contracts/Gauge.sol\":14659:14669  uint upper */\n      dup1\n        /* \"contracts/Gauge.sol\":14687:14688  1 */\n      0x01\n        /* \"contracts/Gauge.sol\":14672:14684  nCheckpoints */\n      dup4\n        /* \"contracts/Gauge.sol\":14672:14688  nCheckpoints - 1 */\n      tag_407\n      swap2\n      swap1\n      tag_192\n      jump\t// in\n    tag_407:\n        /* \"contracts/Gauge.sol\":14659:14688  uint upper = nCheckpoints - 1 */\n      swap1\n      pop\n        /* \"contracts/Gauge.sol\":14698:15173  while (upper > lower) {... */\n    tag_408:\n        /* \"contracts/Gauge.sol\":14713:14718  lower */\n      dup2\n        /* \"contracts/Gauge.sol\":14705:14710  upper */\n      dup2\n        /* \"contracts/Gauge.sol\":14705:14718  upper > lower */\n      gt\n        /* \"contracts/Gauge.sol\":14698:15173  while (upper > lower) {... */\n      iszero\n      tag_409\n      jumpi\n        /* \"contracts/Gauge.sol\":14734:14745  uint center */\n      0x00\n        /* \"contracts/Gauge.sol\":14774:14775  2 */\n      0x02\n        /* \"contracts/Gauge.sol\":14765:14770  lower */\n      dup4\n        /* \"contracts/Gauge.sol\":14757:14762  upper */\n      dup4\n        /* \"contracts/Gauge.sol\":14757:14770  upper - lower */\n      tag_410\n      swap2\n      swap1\n      tag_192\n      jump\t// in\n    tag_410:\n        /* \"contracts/Gauge.sol\":14756:14775  (upper - lower) / 2 */\n      tag_411\n      swap2\n      swap1\n      tag_201\n      jump\t// in\n    tag_411:\n        /* \"contracts/Gauge.sol\":14748:14753  upper */\n      dup3\n        /* \"contracts/Gauge.sol\":14748:14775  upper - (upper - lower) / 2 */\n      tag_412\n      swap2\n      swap1\n      tag_192\n      jump\t// in\n    tag_412:\n        /* \"contracts/Gauge.sol\":14734:14775  uint center = upper - (upper - lower) / 2 */\n      swap1\n      pop\n        /* \"contracts/Gauge.sol\":14828:14862  RewardPerTokenCheckpoint memory cp */\n      0x00\n        /* \"contracts/Gauge.sol\":14865:14890  rewardPerTokenCheckpoints */\n      0x11\n        /* \"contracts/Gauge.sol\":14865:14897  rewardPerTokenCheckpoints[token] */\n      0x00\n        /* \"contracts/Gauge.sol\":14891:14896  token */\n      dup11\n        /* \"contracts/Gauge.sol\":14865:14897  rewardPerTokenCheckpoints[token] */\n      0xffffffffffffffffffffffffffffffffffffffff\n      and\n      0xffffffffffffffffffffffffffffffffffffffff\n      and\n      dup2\n      mstore\n      0x20\n      add\n      swap1\n      dup2\n      mstore\n      0x20\n      add\n      0x00\n      keccak256\n        /* \"contracts/Gauge.sol\":14865:14905  rewardPerTokenCheckpoints[token][center] */\n      0x00\n        /* \"contracts/Gauge.sol\":14898:14904  center */\n      dup4\n        /* \"contracts/Gauge.sol\":14865:14905  rewardPerTokenCheckpoints[token][center] */\n      dup2\n      mstore\n      0x20\n      add\n      swap1\n      dup2\n      mstore\n      0x20\n      add\n      0x00\n      keccak256\n        /* \"contracts/Gauge.sol\":14828:14905  RewardPerTokenCheckpoint memory cp = rewardPerTokenCheckpoints[token][center] */\n      mload(0x40)\n      dup1\n      0x40\n      add\n      0x40\n      mstore\n      swap1\n      dup2\n      0x00\n      dup3\n      add\n      sload\n      dup2\n      mstore\n      0x20\n      add\n      0x01\n      dup3\n      add\n      sload\n      dup2\n      mstore\n      pop\n      pop\n      swap1\n      pop\n        /* \"contracts/Gauge.sol\":14939:14948  timestamp */\n      dup8\n        /* \"contracts/Gauge.sol\":14923:14925  cp */\n      dup2\n        /* \"contracts/Gauge.sol\":14923:14935  cp.timestamp */\n      0x00\n      add\n      mload\n        /* \"contracts/Gauge.sol\":14923:14948  cp.timestamp == timestamp */\n      eq\n        /* \"contracts/Gauge.sol\":14919:15163  if (cp.timestamp == timestamp) {... */\n      iszero\n      tag_413\n      jumpi\n        /* \"contracts/Gauge.sol\":14976:14978  cp */\n      dup1\n        /* \"contracts/Gauge.sol\":14976:14993  cp.rewardPerToken */\n      0x20\n      add\n      mload\n        /* \"contracts/Gauge.sol\":14995:14997  cp */\n      dup2\n        /* \"contracts/Gauge.sol\":14995:15007  cp.timestamp */\n      0x00\n      add\n      mload\n        /* \"contracts/Gauge.sol\":14968:15008  return (cp.rewardPerToken, cp.timestamp) */\n      swap7\n      pop\n      swap7\n      pop\n      pop\n      pop\n      pop\n      pop\n      pop\n      jump(tag_400)\n        /* \"contracts/Gauge.sol\":14919:15163  if (cp.timestamp == timestamp) {... */\n    tag_413:\n        /* \"contracts/Gauge.sol\":15048:15057  timestamp */\n      dup8\n        /* \"contracts/Gauge.sol\":15033:15035  cp */\n      dup2\n        /* \"contracts/Gauge.sol\":15033:15045  cp.timestamp */\n      0x00\n      add\n      mload\n        /* \"contracts/Gauge.sol\":15033:15057  cp.timestamp < timestamp */\n      lt\n        /* \"contracts/Gauge.sol\":15029:15163  if (cp.timestamp < timestamp) {... */\n      iszero\n      tag_415\n      jumpi\n        /* \"contracts/Gauge.sol\":15085:15091  center */\n      dup2\n        /* \"contracts/Gauge.sol\":15077:15091  lower = center */\n      swap4\n      pop\n        /* \"contracts/Gauge.sol\":15029:15163  if (cp.timestamp < timestamp) {... */\n      jump(tag_416)\n    tag_415:\n        /* \"contracts/Gauge.sol\":15147:15148  1 */\n      0x01\n        /* \"contracts/Gauge.sol\":15138:15144  center */\n      dup3\n        /* \"contracts/Gauge.sol\":15138:15148  center - 1 */\n      tag_417\n      swap2\n      swap1\n      tag_192\n      jump\t// in\n    tag_417:\n        /* \"contracts/Gauge.sol\":15130:15148  upper = center - 1 */\n      swap3\n      pop\n        /* \"contracts/Gauge.sol\":15029:15163  if (cp.timestamp < timestamp) {... */\n    tag_416:\n        /* \"contracts/Gauge.sol\":14720:15173  {... */\n      pop\n      pop\n        /* \"contracts/Gauge.sol\":14698:15173  while (upper > lower) {... */\n      jump(tag_408)\n    tag_409:\n        /* \"contracts/Gauge.sol\":15190:15215  rewardPerTokenCheckpoints */\n      0x11\n        /* \"contracts/Gauge.sol\":15190:15222  rewardPerTokenCheckpoints[token] */\n      0x00\n        /* \"contracts/Gauge.sol\":15216:15221  token */\n      dup9\n        /* \"contracts/Gauge.sol\":15190:15222  rewardPerTokenCheckpoints[token] */\n      0xffffffffffffffffffffffffffffffffffffffff\n      and\n      0xffffffffffffffffffffffffffffffffffffffff\n      and\n      dup2\n      mstore\n      0x20\n      add\n      swap1\n      dup2\n      mstore\n      0x20\n      add\n      0x00\n      keccak256\n        /* \"contracts/Gauge.sol\":15190:15229  rewardPerTokenCheckpoints[token][lower] */\n      0x00\n        /* \"contracts/Gauge.sol\":15223:15228  lower */\n      dup4\n        /* \"contracts/Gauge.sol\":15190:15229  rewardPerTokenCheckpoints[token][lower] */\n      dup2\n      mstore\n      0x20\n      add\n      swap1\n      dup2\n      mstore\n      0x20\n      add\n      0x00\n      keccak256\n        /* \"contracts/Gauge.sol\":15190:15244  rewardPerTokenCheckpoints[token][lower].rewardPerToken */\n      0x01\n      add\n      sload\n        /* \"contracts/Gauge.sol\":15246:15271  rewardPerTokenCheckpoints */\n      0x11\n        /* \"contracts/Gauge.sol\":15246:15278  rewardPerTokenCheckpoints[token] */\n      0x00\n        /* \"contracts/Gauge.sol\":15272:15277  token */\n      dup10\n        /* \"contracts/Gauge.sol\":15246:15278  rewardPerTokenCheckpoints[token] */\n      0xffffffffffffffffffffffffffffffffffffffff\n      and\n      0xffffffffffffffffffffffffffffffffffffffff\n      and\n      dup2\n      mstore\n      0x20\n      add\n      swap1\n      dup2\n      mstore\n      0x20\n      add\n      0x00\n      keccak256\n        /* \"contracts/Gauge.sol\":15246:15285  rewardPerTokenCheckpoints[token][lower] */\n      0x00\n        /* \"contracts/Gauge.sol\":15279:15284  lower */\n      dup5\n        /* \"contracts/Gauge.sol\":15246:15285  rewardPerTokenCheckpoints[token][lower] */\n      dup2\n      mstore\n      0x20\n      add\n      swap1\n      dup2\n      mstore\n      0x20\n      add\n      0x00\n      keccak256\n        /* \"contracts/Gauge.sol\":15246:15295  rewardPerTokenCheckpoints[token][lower].timestamp */\n      0x00\n      add\n      sload\n        /* \"contracts/Gauge.sol\":15182:15296  return (rewardPerTokenCheckpoints[token][lower].rewardPerToken, rewardPerTokenCheckpoints[token][lower].timestamp) */\n      swap5\n      pop\n      swap5\n      pop\n      pop\n      pop\n      pop\n        /* \"contracts/Gauge.sol\":13945:15303  function getPriorRewardPerToken(address token, uint timestamp) public view returns (uint, uint) {... */\n    tag_400:\n      swap3\n      pop\n      swap3\n      swap1\n      pop\n      jump\t// out\n        /* \"contracts/Gauge.sol\":26022:26969  function withdrawToken(uint amount, uint tokenId) public nonReentrant {... */\n    tag_188:\n        /* \"contracts/Gauge.sol\":3133:3134  2 */\n      0x02\n        /* \"contracts/Gauge.sol\":3714:3721  _status */\n      sload(0x00)\n        /* \"contracts/Gauge.sol\":3714:3733  _status != _ENTERED */\n      eq\n      iszero\n        /* \"contracts/Gauge.sol\":3706:3769  require(_status != _ENTERED, \"ReentrancyGuard: reentrant call\") */\n      tag_419\n      jumpi\n      mload(0x40)\n      0x08c379a000000000000000000000000000000000000000000000000000000000\n      dup2\n      mstore\n      0x04\n      add\n      tag_420\n      swap1\n      tag_244\n      jump\t// in\n    tag_420:\n      mload(0x40)\n      dup1\n      swap2\n      sub\n      swap1\n      revert\n    tag_419:\n        /* \"contracts/Gauge.sol\":3133:3134  2 */\n      0x02\n        /* \"contracts/Gauge.sol\":3844:3851  _status */\n      0x00\n        /* \"contracts/Gauge.sol\":3844:3862  _status = _ENTERED */\n      dup2\n      swap1\n      sstore\n      pop\n        /* \"contracts/Gauge.sol\":26117:26123  amount */\n      dup2\n        /* \"contracts/Gauge.sol\":26102:26113  totalSupply */\n      0x09\n      0x00\n        /* \"contracts/Gauge.sol\":26102:26123  totalSupply -= amount */\n      dup3\n      dup3\n      sload\n      tag_422\n      swap2\n      swap1\n      tag_192\n      jump\t// in\n    tag_422:\n      swap3\n      pop\n      pop\n      dup2\n      swap1\n      sstore\n      pop\n        /* \"contracts/Gauge.sol\":26158:26164  amount */\n      dup2\n        /* \"contracts/Gauge.sol\":26133:26142  balanceOf */\n      0x0a\n        /* \"contracts/Gauge.sol\":26133:26154  balanceOf[msg.sender] */\n      0x00\n        /* \"contracts/Gauge.sol\":26143:26153  msg.sender */\n      caller\n        /* \"contracts/Gauge.sol\":26133:26154  balanceOf[msg.sender] */\n      0xffffffffffffffffffffffffffffffffffffffff\n      and\n      0xffffffffffffffffffffffffffffffffffffffff\n      and\n      dup2\n      mstore\n      0x20\n      add\n      swap1\n      dup2\n      mstore\n      0x20\n      add\n      0x00\n      keccak256\n      0x00\n        /* \"contracts/Gauge.sol\":26133:26164  balanceOf[msg.sender] -= amount */\n      dup3\n      dup3\n      sload\n      tag_423\n      swap2\n      swap1\n      tag_192\n      jump\t// in\n    tag_423:\n      swap3\n      pop\n      pop\n      dup2\n      swap1\n      sstore\n      pop\n        /* \"contracts/Gauge.sol\":26174:26228  TransferHelper.safeTransfer(stake, msg.sender, amount) */\n      tag_424\n        /* \"contracts/Gauge.sol\":26202:26207  stake */\n      immutable(\"0xd094ef07eef1924f3d7fe3d896f6ebece97bd5683077be90743b91a72d59db67\")\n        /* \"contracts/Gauge.sol\":26209:26219  msg.sender */\n      caller\n        /* \"contracts/Gauge.sol\":26221:26227  amount */\n      dup5\n        /* \"contracts/Gauge.sol\":26174:26201  TransferHelper.safeTransfer */\n      tag_425\n        /* \"contracts/Gauge.sol\":26174:26228  TransferHelper.safeTransfer(stake, msg.sender, amount) */\n      jump\t// in\n    tag_424:\n        /* \"contracts/Gauge.sol\":26253:26254  0 */\n      0x00\n        /* \"contracts/Gauge.sol\":26243:26250  tokenId */\n      dup2\n        /* \"contracts/Gauge.sol\":26243:26254  tokenId > 0 */\n      gt\n        /* \"contracts/Gauge.sol\":26239:26489  if (tokenId > 0) {... */\n      iszero\n      tag_426\n      jumpi\n        /* \"contracts/Gauge.sol\":26289:26297  tokenIds */\n      0x08\n        /* \"contracts/Gauge.sol\":26289:26309  tokenIds[msg.sender] */\n      0x00\n        /* \"contracts/Gauge.sol\":26298:26308  msg.sender */\n      caller\n        /* \"contracts/Gauge.sol\":26289:26309  tokenIds[msg.sender] */\n      0xffffffffffffffffffffffffffffffffffffffff\n      and\n      0xffffffffffffffffffffffffffffffffffffffff\n      and\n      dup2\n      mstore\n      0x20\n      add\n      swap1\n      dup2\n      mstore\n      0x20\n      add\n      0x00\n      keccak256\n      sload\n        /* \"contracts/Gauge.sol\":26278:26285  tokenId */\n      dup2\n        /* \"contracts/Gauge.sol\":26278:26309  tokenId == tokenIds[msg.sender] */\n      eq\n        /* \"contracts/Gauge.sol\":26270:26310  require(tokenId == tokenIds[msg.sender]) */\n      tag_427\n      jumpi\n      0x00\n      dup1\n      revert\n    tag_427:\n        /* \"contracts/Gauge.sol\":26347:26348  0 */\n      0x00\n        /* \"contracts/Gauge.sol\":26324:26332  tokenIds */\n      0x08\n        /* \"contracts/Gauge.sol\":26324:26344  tokenIds[msg.sender] */\n      0x00\n        /* \"contracts/Gauge.sol\":26333:26343  msg.sender */\n      caller\n        /* \"contracts/Gauge.sol\":26324:26344  tokenIds[msg.sender] */\n      0xffffffffffffffffffffffffffffffffffffffff\n      and\n      0xffffffffffffffffffffffffffffffffffffffff\n      and\n      dup2\n      mstore\n      0x20\n      add\n      swap1\n      dup2\n      mstore\n      0x20\n      add\n      0x00\n      keccak256\n        /* \"contracts/Gauge.sol\":26324:26348  tokenIds[msg.sender] = 0 */\n      dup2\n      swap1\n      sstore\n      pop\n        /* \"contracts/Gauge.sol\":26369:26374  boost */\n      immutable(\"0x8e831a88d8106460d1544aa376ec6155091b50c6145ad03273db7938ca17c5b1\")\n        /* \"contracts/Gauge.sol\":26362:26396  IBoost(boost).detachTokenFromGauge */\n      0xffffffffffffffffffffffffffffffffffffffff\n      and\n      0x411b1f77\n        /* \"contracts/Gauge.sol\":26397:26404  tokenId */\n      dup3\n        /* \"contracts/Gauge.sol\":26406:26416  msg.sender */\n      caller\n        /* \"contracts/Gauge.sol\":26362:26417  IBoost(boost).detachTokenFromGauge(tokenId, msg.sender) */\n      mload(0x40)\n      dup4\n      0xffffffff\n      and\n      0xe0\n      shl\n      dup2\n      mstore\n      0x04\n      add\n      tag_428\n      swap3\n      swap2\n      swap1\n      tag_345\n      jump\t// in\n    tag_428:\n      0x00\n      mload(0x40)\n      dup1\n      dup4\n      sub\n      dup2\n      0x00\n      dup8\n      dup1\n      extcodesize\n      iszero\n      dup1\n      iszero\n      tag_429\n      jumpi\n      0x00\n      dup1\n      revert\n    tag_429:\n      pop\n      gas\n      call\n      iszero\n      dup1\n      iszero\n      tag_431\n      jumpi\n      returndatasize\n      0x00\n      dup1\n      returndatacopy\n      revert(0x00, returndatasize)\n    tag_431:\n      pop\n      pop\n      pop\n      pop\n        /* \"contracts/Gauge.sol\":26239:26489  if (tokenId > 0) {... */\n      jump(tag_432)\n    tag_426:\n        /* \"contracts/Gauge.sol\":26458:26466  tokenIds */\n      0x08\n        /* \"contracts/Gauge.sol\":26458:26478  tokenIds[msg.sender] */\n      0x00\n        /* \"contracts/Gauge.sol\":26467:26477  msg.sender */\n      caller\n        /* \"contracts/Gauge.sol\":26458:26478  tokenIds[msg.sender] */\n      0xffffffffffffffffffffffffffffffffffffffff\n      and\n      0xffffffffffffffffffffffffffffffffffffffff\n      and\n      dup2\n      mstore\n      0x20\n      add\n      swap1\n      dup2\n      mstore\n      0x20\n      add\n      0x00\n      keccak256\n      sload\n        /* \"contracts/Gauge.sol\":26448:26478  tokenId = tokenIds[msg.sender] */\n      swap1\n      pop\n        /* \"contracts/Gauge.sol\":26239:26489  if (tokenId > 0) {... */\n    tag_432:\n        /* \"contracts/Gauge.sol\":26499:26519  uint _derivedBalance */\n      0x00\n        /* \"contracts/Gauge.sol\":26522:26537  derivedBalances */\n      0x02\n        /* \"contracts/Gauge.sol\":26522:26549  derivedBalances[msg.sender] */\n      0x00\n        /* \"contracts/Gauge.sol\":26538:26548  msg.sender */\n      caller\n        /* \"contracts/Gauge.sol\":26522:26549  derivedBalances[msg.sender] */\n      0xffffffffffffffffffffffffffffffffffffffff\n      and\n      0xffffffffffffffffffffffffffffffffffffffff\n      and\n      dup2\n      mstore\n      0x20\n      add\n      swap1\n      dup2\n      mstore\n      0x20\n      add\n      0x00\n      keccak256\n      sload\n        /* \"contracts/Gauge.sol\":26499:26549  uint _derivedBalance = derivedBalances[msg.sender] */\n      swap1\n      pop\n        /* \"contracts/Gauge.sol\":26576:26591  _derivedBalance */\n      dup1\n        /* \"contracts/Gauge.sol\":26559:26572  derivedSupply */\n      0x01\n      0x00\n        /* \"contracts/Gauge.sol\":26559:26591  derivedSupply -= _derivedBalance */\n      dup3\n      dup3\n      sload\n      tag_433\n      swap2\n      swap1\n      tag_192\n      jump\t// in\n    tag_433:\n      swap3\n      pop\n      pop\n      dup2\n      swap1\n      sstore\n      pop\n        /* \"contracts/Gauge.sol\":26619:26645  derivedBalance(msg.sender) */\n      tag_434\n        /* \"contracts/Gauge.sol\":26634:26644  msg.sender */\n      caller\n        /* \"contracts/Gauge.sol\":26619:26633  derivedBalance */\n      tag_151\n        /* \"contracts/Gauge.sol\":26619:26645  derivedBalance(msg.sender) */\n      jump\t// in\n    tag_434:\n        /* \"contracts/Gauge.sol\":26601:26645  _derivedBalance = derivedBalance(msg.sender) */\n      swap1\n      pop\n        /* \"contracts/Gauge.sol\":26685:26700  _derivedBalance */\n      dup1\n        /* \"contracts/Gauge.sol\":26655:26670  derivedBalances */\n      0x02\n        /* \"contracts/Gauge.sol\":26655:26682  derivedBalances[msg.sender] */\n      0x00\n        /* \"contracts/Gauge.sol\":26671:26681  msg.sender */\n      caller\n        /* \"contracts/Gauge.sol\":26655:26682  derivedBalances[msg.sender] */\n      0xffffffffffffffffffffffffffffffffffffffff\n      and\n      0xffffffffffffffffffffffffffffffffffffffff\n      and\n      dup2\n      mstore\n      0x20\n      add\n      swap1\n      dup2\n      mstore\n      0x20\n      add\n      0x00\n      keccak256\n        /* \"contracts/Gauge.sol\":26655:26700  derivedBalances[msg.sender] = _derivedBalance */\n      dup2\n      swap1\n      sstore\n      pop\n        /* \"contracts/Gauge.sol\":26727:26742  _derivedBalance */\n      dup1\n        /* \"contracts/Gauge.sol\":26710:26723  derivedSupply */\n      0x01\n      0x00\n        /* \"contracts/Gauge.sol\":26710:26742  derivedSupply += _derivedBalance */\n      dup3\n      dup3\n      sload\n      tag_435\n      swap2\n      swap1\n      tag_221\n      jump\t// in\n    tag_435:\n      swap3\n      pop\n      pop\n      dup2\n      swap1\n      sstore\n      pop\n        /* \"contracts/Gauge.sol\":26753:26810  _writeCheckpoint(msg.sender, derivedBalances[msg.sender]) */\n      tag_436\n        /* \"contracts/Gauge.sol\":26770:26780  msg.sender */\n      caller\n        /* \"contracts/Gauge.sol\":26782:26797  derivedBalances */\n      0x02\n        /* \"contracts/Gauge.sol\":26782:26809  derivedBalances[msg.sender] */\n      0x00\n        /* \"contracts/Gauge.sol\":26798:26808  msg.sender */\n      caller\n        /* \"contracts/Gauge.sol\":26782:26809  derivedBalances[msg.sender] */\n      0xffffffffffffffffffffffffffffffffffffffff\n      and\n      0xffffffffffffffffffffffffffffffffffffffff\n      and\n      dup2\n      mstore\n      0x20\n      add\n      swap1\n      dup2\n      mstore\n      0x20\n      add\n      0x00\n      keccak256\n      sload\n        /* \"contracts/Gauge.sol\":26753:26769  _writeCheckpoint */\n      tag_286\n        /* \"contracts/Gauge.sol\":26753:26810  _writeCheckpoint(msg.sender, derivedBalances[msg.sender]) */\n      jump\t// in\n    tag_436:\n        /* \"contracts/Gauge.sol\":26820:26844  _writeSupplyCheckpoint() */\n      tag_437\n        /* \"contracts/Gauge.sol\":26820:26842  _writeSupplyCheckpoint */\n      tag_288\n        /* \"contracts/Gauge.sol\":26820:26844  _writeSupplyCheckpoint() */\n      jump\t// in\n    tag_437:\n        /* \"contracts/Gauge.sol\":26862:26867  boost */\n      immutable(\"0x8e831a88d8106460d1544aa376ec6155091b50c6145ad03273db7938ca17c5b1\")\n        /* \"contracts/Gauge.sol\":26855:26881  IBoost(boost).emitWithdraw */\n      0xffffffffffffffffffffffffffffffffffffffff\n      and\n      0xea94ee44\n        /* \"contracts/Gauge.sol\":26882:26889  tokenId */\n      dup4\n        /* \"contracts/Gauge.sol\":26891:26901  msg.sender */\n      caller\n        /* \"contracts/Gauge.sol\":26903:26909  amount */\n      dup7\n        /* \"contracts/Gauge.sol\":26855:26910  IBoost(boost).emitWithdraw(tokenId, msg.sender, amount) */\n      mload(0x40)\n      dup5\n      0xffffffff\n      and\n      0xe0\n      shl\n      dup2\n      mstore\n      0x04\n      add\n      tag_438\n      swap4\n      swap3\n      swap2\n      swap1\n      tag_384\n      jump\t// in\n    tag_438:\n      0x00\n      mload(0x40)\n      dup1\n      dup4\n      sub\n      dup2\n      0x00\n      dup8\n      dup1\n      extcodesize\n      iszero\n      dup1\n      iszero\n      tag_439\n      jumpi\n      0x00\n      dup1\n      revert\n    tag_439:\n      pop\n      gas\n      call\n      iszero\n      dup1\n      iszero\n      tag_441\n      jumpi\n      returndatasize\n      0x00\n      dup1\n      returndatacopy\n      revert(0x00, returndatasize)\n    tag_441:\n      pop\n      pop\n      pop\n      pop\n        /* \"contracts/Gauge.sol\":26934:26944  msg.sender */\n      caller\n        /* \"contracts/Gauge.sol\":26925:26962  Withdraw(msg.sender, tokenId, amount) */\n      0xffffffffffffffffffffffffffffffffffffffff\n      and\n      0xf279e6a1f5e320cca91135676d9cb6e44ca8a08c0b88342bcdb1144f6511b568\n        /* \"contracts/Gauge.sol\":26946:26953  tokenId */\n      dup4\n        /* \"contracts/Gauge.sol\":26955:26961  amount */\n      dup6\n        /* \"contracts/Gauge.sol\":26925:26962  Withdraw(msg.sender, tokenId, amount) */\n      mload(0x40)\n      tag_442\n      swap3\n      swap2\n      swap1\n      tag_52\n      jump\t// in\n    tag_442:\n      mload(0x40)\n      dup1\n      swap2\n      sub\n      swap1\n      log2\n        /* \"contracts/Gauge.sol\":26092:26969  {... */\n      pop\n        /* \"contracts/Gauge.sol\":3090:3091  1 */\n      0x01\n        /* \"contracts/Gauge.sol\":4017:4024  _status */\n      0x00\n        /* \"contracts/Gauge.sol\":4017:4039  _status = _NOT_ENTERED */\n      dup2\n      swap1\n      sstore\n      pop\n        /* \"contracts/Gauge.sol\":26022:26969  function withdrawToken(uint amount, uint tokenId) public nonReentrant {... */\n      pop\n      pop\n      jump\t// out\n        /* \"contracts/Gauge.sol\":407:512  function max(uint256 a, uint256 b) internal pure returns (uint256) {... */\n    tag_210:\n        /* \"contracts/Gauge.sol\":465:472  uint256 */\n      0x00\n        /* \"contracts/Gauge.sol\":496:497  b */\n      dup2\n        /* \"contracts/Gauge.sol\":491:492  a */\n      dup4\n        /* \"contracts/Gauge.sol\":491:497  a >= b */\n      lt\n      iszero\n        /* \"contracts/Gauge.sol\":491:505  a >= b ? a : b */\n      tag_444\n      jumpi\n        /* \"contracts/Gauge.sol\":504:505  b */\n      dup2\n        /* \"contracts/Gauge.sol\":491:505  a >= b ? a : b */\n      jump(tag_445)\n    tag_444:\n        /* \"contracts/Gauge.sol\":500:501  a */\n      dup3\n        /* \"contracts/Gauge.sol\":491:505  a >= b ? a : b */\n    tag_445:\n        /* \"contracts/Gauge.sol\":484:505  return a >= b ? a : b */\n      swap1\n      pop\n        /* \"contracts/Gauge.sol\":407:512  function max(uint256 a, uint256 b) internal pure returns (uint256) {... */\n      swap3\n      swap2\n      pop\n      pop\n      jump\t// out\n        /* \"contracts/Gauge.sol\":21450:23048  function _updateRewardPerToken(address token) internal returns (uint, uint) {... */\n    tag_259:\n        /* \"contracts/Gauge.sol\":21514:21518  uint */\n      0x00\n        /* \"contracts/Gauge.sol\":21520:21524  uint */\n      dup1\n        /* \"contracts/Gauge.sol\":21536:21556  uint _startTimestamp */\n      0x00\n        /* \"contracts/Gauge.sol\":21559:21573  lastUpdateTime */\n      0x04\n        /* \"contracts/Gauge.sol\":21559:21580  lastUpdateTime[token] */\n      0x00\n        /* \"contracts/Gauge.sol\":21574:21579  token */\n      dup6\n        /* \"contracts/Gauge.sol\":21559:21580  lastUpdateTime[token] */\n      0xffffffffffffffffffffffffffffffffffffffff\n      and\n      0xffffffffffffffffffffffffffffffffffffffff\n      and\n      dup2\n      mstore\n      0x20\n      add\n      swap1\n      dup2\n      mstore\n      0x20\n      add\n      0x00\n      keccak256\n      sload\n        /* \"contracts/Gauge.sol\":21536:21580  uint _startTimestamp = lastUpdateTime[token] */\n      swap1\n      pop\n        /* \"contracts/Gauge.sol\":21590:21601  uint reward */\n      0x00\n        /* \"contracts/Gauge.sol\":21604:21624  rewardPerTokenStored */\n      0x05\n        /* \"contracts/Gauge.sol\":21604:21631  rewardPerTokenStored[token] */\n      0x00\n        /* \"contracts/Gauge.sol\":21625:21630  token */\n      dup7\n        /* \"contracts/Gauge.sol\":21604:21631  rewardPerTokenStored[token] */\n      0xffffffffffffffffffffffffffffffffffffffff\n      and\n      0xffffffffffffffffffffffffffffffffffffffff\n      and\n      dup2\n      mstore\n      0x20\n      add\n      swap1\n      dup2\n      mstore\n      0x20\n      add\n      0x00\n      keccak256\n      sload\n        /* \"contracts/Gauge.sol\":21590:21631  uint reward = rewardPerTokenStored[token] */\n      swap1\n      pop\n        /* \"contracts/Gauge.sol\":21670:21671  0 */\n      0x00\n        /* \"contracts/Gauge.sol\":21646:21666  supplyNumCheckpoints */\n      sload(0x10)\n        /* \"contracts/Gauge.sol\":21646:21671  supplyNumCheckpoints == 0 */\n      eq\n        /* \"contracts/Gauge.sol\":21642:21730  if (supplyNumCheckpoints == 0) {... */\n      iszero\n      tag_447\n      jumpi\n        /* \"contracts/Gauge.sol\":21695:21701  reward */\n      dup1\n        /* \"contracts/Gauge.sol\":21703:21718  _startTimestamp */\n      dup3\n        /* \"contracts/Gauge.sol\":21687:21719  return (reward, _startTimestamp) */\n      swap4\n      pop\n      swap4\n      pop\n      pop\n      pop\n      jump(tag_446)\n        /* \"contracts/Gauge.sol\":21642:21730  if (supplyNumCheckpoints == 0) {... */\n    tag_447:\n        /* \"contracts/Gauge.sol\":21765:21766  0 */\n      0x00\n        /* \"contracts/Gauge.sol\":21744:21754  rewardRate */\n      0x03\n        /* \"contracts/Gauge.sol\":21744:21761  rewardRate[token] */\n      0x00\n        /* \"contracts/Gauge.sol\":21755:21760  token */\n      dup8\n        /* \"contracts/Gauge.sol\":21744:21761  rewardRate[token] */\n      0xffffffffffffffffffffffffffffffffffffffff\n      and\n      0xffffffffffffffffffffffffffffffffffffffff\n      and\n      dup2\n      mstore\n      0x20\n      add\n      swap1\n      dup2\n      mstore\n      0x20\n      add\n      0x00\n      keccak256\n      sload\n        /* \"contracts/Gauge.sol\":21744:21766  rewardRate[token] == 0 */\n      eq\n        /* \"contracts/Gauge.sol\":21740:21825  if (rewardRate[token] == 0) {... */\n      iszero\n      tag_448\n      jumpi\n        /* \"contracts/Gauge.sol\":21790:21796  reward */\n      dup1\n        /* \"contracts/Gauge.sol\":21798:21813  block.timestamp */\n      timestamp\n        /* \"contracts/Gauge.sol\":21782:21814  return (reward, block.timestamp) */\n      swap4\n      pop\n      swap4\n      pop\n      pop\n      pop\n      jump(tag_446)\n        /* \"contracts/Gauge.sol\":21740:21825  if (rewardRate[token] == 0) {... */\n    tag_448:\n        /* \"contracts/Gauge.sol\":21835:21851  uint _startIndex */\n      0x00\n        /* \"contracts/Gauge.sol\":21854:21890  getPriorSupplyIndex(_startTimestamp) */\n      tag_449\n        /* \"contracts/Gauge.sol\":21874:21889  _startTimestamp */\n      dup4\n        /* \"contracts/Gauge.sol\":21854:21873  getPriorSupplyIndex */\n      tag_124\n        /* \"contracts/Gauge.sol\":21854:21890  getPriorSupplyIndex(_startTimestamp) */\n      jump\t// in\n    tag_449:\n        /* \"contracts/Gauge.sol\":21835:21890  uint _startIndex = getPriorSupplyIndex(_startTimestamp) */\n      swap1\n      pop\n        /* \"contracts/Gauge.sol\":21900:21914  uint _endIndex */\n      0x00\n        /* \"contracts/Gauge.sol\":21940:21941  1 */\n      0x01\n        /* \"contracts/Gauge.sol\":21917:21937  supplyNumCheckpoints */\n      sload(0x10)\n        /* \"contracts/Gauge.sol\":21917:21941  supplyNumCheckpoints - 1 */\n      tag_450\n      swap2\n      swap1\n      tag_192\n      jump\t// in\n    tag_450:\n        /* \"contracts/Gauge.sol\":21900:21941  uint _endIndex = supplyNumCheckpoints - 1 */\n      swap1\n      pop\n        /* \"contracts/Gauge.sol\":21982:21983  1 */\n      0x01\n        /* \"contracts/Gauge.sol\":21968:21979  _startIndex */\n      dup3\n        /* \"contracts/Gauge.sol\":21956:21965  _endIndex */\n      dup3\n        /* \"contracts/Gauge.sol\":21956:21979  _endIndex - _startIndex */\n      tag_451\n      swap2\n      swap1\n      tag_192\n      jump\t// in\n    tag_451:\n        /* \"contracts/Gauge.sol\":21956:21983  _endIndex - _startIndex > 1 */\n      gt\n        /* \"contracts/Gauge.sol\":21952:22578  if (_endIndex - _startIndex > 1) {... */\n      iszero\n      tag_452\n      jumpi\n        /* \"contracts/Gauge.sol\":22004:22010  uint i */\n      0x00\n        /* \"contracts/Gauge.sol\":22013:22024  _startIndex */\n      dup3\n        /* \"contracts/Gauge.sol\":22004:22024  uint i = _startIndex */\n      swap1\n      pop\n        /* \"contracts/Gauge.sol\":21999:22568  for (uint i = _startIndex; i < _endIndex - 1; i++) {... */\n    tag_453:\n        /* \"contracts/Gauge.sol\":22042:22043  1 */\n      0x01\n        /* \"contracts/Gauge.sol\":22030:22039  _endIndex */\n      dup3\n        /* \"contracts/Gauge.sol\":22030:22043  _endIndex - 1 */\n      tag_456\n      swap2\n      swap1\n      tag_192\n      jump\t// in\n    tag_456:\n        /* \"contracts/Gauge.sol\":22026:22027  i */\n      dup2\n        /* \"contracts/Gauge.sol\":22026:22043  i < _endIndex - 1 */\n      lt\n        /* \"contracts/Gauge.sol\":21999:22568  for (uint i = _startIndex; i < _endIndex - 1; i++) {... */\n      iszero\n      tag_454\n      jumpi\n        /* \"contracts/Gauge.sol\":22068:22095  SupplyCheckpoint memory sp0 */\n      0x00\n        /* \"contracts/Gauge.sol\":22098:22115  supplyCheckpoints */\n      0x0f\n        /* \"contracts/Gauge.sol\":22098:22118  supplyCheckpoints[i] */\n      0x00\n        /* \"contracts/Gauge.sol\":22116:22117  i */\n      dup4\n        /* \"contracts/Gauge.sol\":22098:22118  supplyCheckpoints[i] */\n      dup2\n      mstore\n      0x20\n      add\n      swap1\n      dup2\n      mstore\n      0x20\n      add\n      0x00\n      keccak256\n        /* \"contracts/Gauge.sol\":22068:22118  SupplyCheckpoint memory sp0 = supplyCheckpoints[i] */\n      mload(0x40)\n      dup1\n      0x40\n      add\n      0x40\n      mstore\n      swap1\n      dup2\n      0x00\n      dup3\n      add\n      sload\n      dup2\n      mstore\n      0x20\n      add\n      0x01\n      dup3\n      add\n      sload\n      dup2\n      mstore\n      pop\n      pop\n      swap1\n      pop\n        /* \"contracts/Gauge.sol\":22153:22154  0 */\n      0x00\n        /* \"contracts/Gauge.sol\":22140:22143  sp0 */\n      dup2\n        /* \"contracts/Gauge.sol\":22140:22150  sp0.supply */\n      0x20\n      add\n      mload\n        /* \"contracts/Gauge.sol\":22140:22154  sp0.supply > 0 */\n      gt\n        /* \"contracts/Gauge.sol\":22136:22554  if (sp0.supply > 0) {... */\n      iszero\n      tag_457\n      jumpi\n        /* \"contracts/Gauge.sol\":22178:22205  SupplyCheckpoint memory sp1 */\n      0x00\n        /* \"contracts/Gauge.sol\":22208:22225  supplyCheckpoints */\n      0x0f\n        /* \"contracts/Gauge.sol\":22208:22232  supplyCheckpoints[i + 1] */\n      0x00\n        /* \"contracts/Gauge.sol\":22230:22231  1 */\n      0x01\n        /* \"contracts/Gauge.sol\":22226:22227  i */\n      dup6\n        /* \"contracts/Gauge.sol\":22226:22231  i + 1 */\n      tag_458\n      swap2\n      swap1\n      tag_221\n      jump\t// in\n    tag_458:\n        /* \"contracts/Gauge.sol\":22208:22232  supplyCheckpoints[i + 1] */\n      dup2\n      mstore\n      0x20\n      add\n      swap1\n      dup2\n      mstore\n      0x20\n      add\n      0x00\n      keccak256\n        /* \"contracts/Gauge.sol\":22178:22232  SupplyCheckpoint memory sp1 = supplyCheckpoints[i + 1] */\n      mload(0x40)\n      dup1\n      0x40\n      add\n      0x40\n      mstore\n      swap1\n      dup2\n      0x00\n      dup3\n      add\n      sload\n      dup2\n      mstore\n      0x20\n      add\n      0x01\n      dup3\n      add\n      sload\n      dup2\n      mstore\n      pop\n      pop\n      swap1\n      pop\n        /* \"contracts/Gauge.sol\":22255:22267  uint _reward */\n      0x00\n        /* \"contracts/Gauge.sol\":22269:22282  uint _endTime */\n      dup1\n        /* \"contracts/Gauge.sol\":22286:22371  _calcRewardPerToken(token, sp1.timestamp, sp0.timestamp, sp0.supply, _startTimestamp) */\n      tag_459\n        /* \"contracts/Gauge.sol\":22306:22311  token */\n      dup13\n        /* \"contracts/Gauge.sol\":22313:22316  sp1 */\n      dup5\n        /* \"contracts/Gauge.sol\":22313:22326  sp1.timestamp */\n      0x00\n      add\n      mload\n        /* \"contracts/Gauge.sol\":22328:22331  sp0 */\n      dup7\n        /* \"contracts/Gauge.sol\":22328:22341  sp0.timestamp */\n      0x00\n      add\n      mload\n        /* \"contracts/Gauge.sol\":22343:22346  sp0 */\n      dup8\n        /* \"contracts/Gauge.sol\":22343:22353  sp0.supply */\n      0x20\n      add\n      mload\n        /* \"contracts/Gauge.sol\":22355:22370  _startTimestamp */\n      dup14\n        /* \"contracts/Gauge.sol\":22286:22305  _calcRewardPerToken */\n      tag_460\n        /* \"contracts/Gauge.sol\":22286:22371  _calcRewardPerToken(token, sp1.timestamp, sp0.timestamp, sp0.supply, _startTimestamp) */\n      jump\t// in\n    tag_459:\n        /* \"contracts/Gauge.sol\":22254:22371  (uint _reward, uint _endTime) = _calcRewardPerToken(token, sp1.timestamp, sp0.timestamp, sp0.supply, _startTimestamp) */\n      swap2\n      pop\n      swap2\n      pop\n        /* \"contracts/Gauge.sol\":22403:22410  _reward */\n      dup2\n        /* \"contracts/Gauge.sol\":22393:22410  reward += _reward */\n      dup9\n      tag_461\n      swap2\n      swap1\n      tag_221\n      jump\t// in\n    tag_461:\n      swap8\n      pop\n        /* \"contracts/Gauge.sol\":22432:22487  _writeRewardPerTokenCheckpoint(token, reward, _endTime) */\n      tag_462\n        /* \"contracts/Gauge.sol\":22463:22468  token */\n      dup13\n        /* \"contracts/Gauge.sol\":22470:22476  reward */\n      dup10\n        /* \"contracts/Gauge.sol\":22478:22486  _endTime */\n      dup4\n        /* \"contracts/Gauge.sol\":22432:22462  _writeRewardPerTokenCheckpoint */\n      tag_318\n        /* \"contracts/Gauge.sol\":22432:22487  _writeRewardPerTokenCheckpoint(token, reward, _endTime) */\n      jump\t// in\n    tag_462:\n        /* \"contracts/Gauge.sol\":22527:22535  _endTime */\n      dup1\n        /* \"contracts/Gauge.sol\":22509:22535  _startTimestamp = _endTime */\n      swap9\n      pop\n        /* \"contracts/Gauge.sol\":22156:22554  {... */\n      pop\n      pop\n      pop\n        /* \"contracts/Gauge.sol\":22136:22554  if (sp0.supply > 0) {... */\n    tag_457:\n        /* \"contracts/Gauge.sol\":22050:22568  {... */\n      pop\n        /* \"contracts/Gauge.sol\":22045:22048  i++ */\n      dup1\n      dup1\n      tag_463\n      swap1\n      tag_230\n      jump\t// in\n    tag_463:\n      swap2\n      pop\n      pop\n        /* \"contracts/Gauge.sol\":21999:22568  for (uint i = _startIndex; i < _endIndex - 1; i++) {... */\n      jump(tag_453)\n    tag_454:\n      pop\n        /* \"contracts/Gauge.sol\":21952:22578  if (_endIndex - _startIndex > 1) {... */\n    tag_452:\n        /* \"contracts/Gauge.sol\":22588:22614  SupplyCheckpoint memory sp */\n      0x00\n        /* \"contracts/Gauge.sol\":22617:22634  supplyCheckpoints */\n      0x0f\n        /* \"contracts/Gauge.sol\":22617:22645  supplyCheckpoints[_endIndex] */\n      0x00\n        /* \"contracts/Gauge.sol\":22635:22644  _endIndex */\n      dup4\n        /* \"contracts/Gauge.sol\":22617:22645  supplyCheckpoints[_endIndex] */\n      dup2\n      mstore\n      0x20\n      add\n      swap1\n      dup2\n      mstore\n      0x20\n      add\n      0x00\n      keccak256\n        /* \"contracts/Gauge.sol\":22588:22645  SupplyCheckpoint memory sp = supplyCheckpoints[_endIndex] */\n      mload(0x40)\n      dup1\n      0x40\n      add\n      0x40\n      mstore\n      swap1\n      dup2\n      0x00\n      dup3\n      add\n      sload\n      dup2\n      mstore\n      0x20\n      add\n      0x01\n      dup3\n      add\n      sload\n      dup2\n      mstore\n      pop\n      pop\n      swap1\n      pop\n        /* \"contracts/Gauge.sol\":22671:22672  0 */\n      0x00\n        /* \"contracts/Gauge.sol\":22659:22661  sp */\n      dup2\n        /* \"contracts/Gauge.sol\":22659:22668  sp.supply */\n      0x20\n      add\n      mload\n        /* \"contracts/Gauge.sol\":22659:22672  sp.supply > 0 */\n      gt\n        /* \"contracts/Gauge.sol\":22655:22999  if (sp.supply > 0) {... */\n      iszero\n      tag_464\n      jumpi\n        /* \"contracts/Gauge.sol\":22689:22701  uint _reward */\n      0x00\n        /* \"contracts/Gauge.sol\":22706:22834  _calcRewardPerToken(token, lastTimeRewardApplicable(token), Math.max(sp.timestamp, _startTimestamp), sp.supply, _startTimestamp) */\n      tag_465\n        /* \"contracts/Gauge.sol\":22726:22731  token */\n      dup10\n        /* \"contracts/Gauge.sol\":22733:22764  lastTimeRewardApplicable(token) */\n      tag_466\n        /* \"contracts/Gauge.sol\":22758:22763  token */\n      dup12\n        /* \"contracts/Gauge.sol\":22733:22757  lastTimeRewardApplicable */\n      tag_108\n        /* \"contracts/Gauge.sol\":22733:22764  lastTimeRewardApplicable(token) */\n      jump\t// in\n    tag_466:\n        /* \"contracts/Gauge.sol\":22766:22805  Math.max(sp.timestamp, _startTimestamp) */\n      tag_467\n        /* \"contracts/Gauge.sol\":22775:22777  sp */\n      dup6\n        /* \"contracts/Gauge.sol\":22775:22787  sp.timestamp */\n      0x00\n      add\n      mload\n        /* \"contracts/Gauge.sol\":22789:22804  _startTimestamp */\n      dup11\n        /* \"contracts/Gauge.sol\":22766:22774  Math.max */\n      tag_210\n        /* \"contracts/Gauge.sol\":22766:22805  Math.max(sp.timestamp, _startTimestamp) */\n      jump\t// in\n    tag_467:\n        /* \"contracts/Gauge.sol\":22807:22809  sp */\n      dup6\n        /* \"contracts/Gauge.sol\":22807:22816  sp.supply */\n      0x20\n      add\n      mload\n        /* \"contracts/Gauge.sol\":22818:22833  _startTimestamp */\n      dup11\n        /* \"contracts/Gauge.sol\":22706:22725  _calcRewardPerToken */\n      tag_460\n        /* \"contracts/Gauge.sol\":22706:22834  _calcRewardPerToken(token, lastTimeRewardApplicable(token), Math.max(sp.timestamp, _startTimestamp), sp.supply, _startTimestamp) */\n      jump\t// in\n    tag_465:\n        /* \"contracts/Gauge.sol\":22688:22834  (uint _reward,) = _calcRewardPerToken(token, lastTimeRewardApplicable(token), Math.max(sp.timestamp, _startTimestamp), sp.supply, _startTimestamp) */\n      pop\n      swap1\n      pop\n        /* \"contracts/Gauge.sol\":22858:22865  _reward */\n      dup1\n        /* \"contracts/Gauge.sol\":22848:22865  reward += _reward */\n      dup6\n      tag_468\n      swap2\n      swap1\n      tag_221\n      jump\t// in\n    tag_468:\n      swap5\n      pop\n        /* \"contracts/Gauge.sol\":22879:22941  _writeRewardPerTokenCheckpoint(token, reward, block.timestamp) */\n      tag_469\n        /* \"contracts/Gauge.sol\":22910:22915  token */\n      dup10\n        /* \"contracts/Gauge.sol\":22917:22923  reward */\n      dup7\n        /* \"contracts/Gauge.sol\":22925:22940  block.timestamp */\n      timestamp\n        /* \"contracts/Gauge.sol\":22879:22909  _writeRewardPerTokenCheckpoint */\n      tag_318\n        /* \"contracts/Gauge.sol\":22879:22941  _writeRewardPerTokenCheckpoint(token, reward, block.timestamp) */\n      jump\t// in\n    tag_469:\n        /* \"contracts/Gauge.sol\":22973:22988  block.timestamp */\n      timestamp\n        /* \"contracts/Gauge.sol\":22955:22988  _startTimestamp = block.timestamp */\n      swap6\n      pop\n        /* \"contracts/Gauge.sol\":22674:22999  {... */\n      pop\n        /* \"contracts/Gauge.sol\":22655:22999  if (sp.supply > 0) {... */\n    tag_464:\n        /* \"contracts/Gauge.sol\":23017:23023  reward */\n      dup4\n        /* \"contracts/Gauge.sol\":23025:23040  _startTimestamp */\n      dup6\n        /* \"contracts/Gauge.sol\":23009:23041  return (reward, _startTimestamp) */\n      swap7\n      pop\n      swap7\n      pop\n      pop\n      pop\n      pop\n      pop\n      pop\n        /* \"contracts/Gauge.sol\":21450:23048  function _updateRewardPerToken(address token) internal returns (uint, uint) {... */\n    tag_446:\n      swap2\n      pop\n      swap2\n      jump\t// out\n        /* \"contracts/Gauge.sol\":17481:17804  function _safeTokenTransfer(address token, address _to, uint256 _amount) internal {... */\n    tag_277:\n        /* \"contracts/Gauge.sol\":17573:17611  _safeTransferFromToken(token, _amount) */\n      tag_471\n        /* \"contracts/Gauge.sol\":17596:17601  token */\n      dup4\n        /* \"contracts/Gauge.sol\":17603:17610  _amount */\n      dup3\n        /* \"contracts/Gauge.sol\":17573:17595  _safeTransferFromToken */\n      tag_472\n        /* \"contracts/Gauge.sol\":17573:17611  _safeTransferFromToken(token, _amount) */\n      jump\t// in\n    tag_471:\n        /* \"contracts/Gauge.sol\":17621:17632  uint256 bal */\n      0x00\n        /* \"contracts/Gauge.sol\":17642:17647  token */\n      dup4\n        /* \"contracts/Gauge.sol\":17635:17658  IERC20(token).balanceOf */\n      0xffffffffffffffffffffffffffffffffffffffff\n      and\n      0x70a08231\n        /* \"contracts/Gauge.sol\":17667:17671  this */\n      address\n        /* \"contracts/Gauge.sol\":17635:17673  IERC20(token).balanceOf(address(this)) */\n      mload(0x40)\n      dup3\n      0xffffffff\n      and\n      0xe0\n      shl\n      dup2\n      mstore\n      0x04\n      add\n      tag_473\n      swap2\n      swap1\n      tag_90\n      jump\t// in\n    tag_473:\n      0x20\n      mload(0x40)\n      dup1\n      dup4\n      sub\n      dup2\n      dup7\n      gas\n      staticcall\n      iszero\n      dup1\n      iszero\n      tag_475\n      jumpi\n      returndatasize\n      0x00\n      dup1\n      returndatacopy\n      revert(0x00, returndatasize)\n    tag_475:\n      pop\n      pop\n      pop\n      pop\n      mload(0x40)\n      returndatasize\n      not(0x1f)\n      0x1f\n      dup3\n      add\n      and\n      dup3\n      add\n      dup1\n      0x40\n      mstore\n      pop\n      dup2\n      add\n      swap1\n      tag_476\n      swap2\n      swap1\n      tag_329\n      jump\t// in\n    tag_476:\n        /* \"contracts/Gauge.sol\":17621:17673  uint256 bal = IERC20(token).balanceOf(address(this)) */\n      swap1\n      pop\n        /* \"contracts/Gauge.sol\":17697:17700  bal */\n      dup1\n        /* \"contracts/Gauge.sol\":17687:17694  _amount */\n      dup3\n        /* \"contracts/Gauge.sol\":17687:17700  _amount > bal */\n      gt\n        /* \"contracts/Gauge.sol\":17683:17740  if (_amount > bal) {... */\n      iszero\n      tag_477\n      jumpi\n        /* \"contracts/Gauge.sol\":17726:17729  bal */\n      dup1\n        /* \"contracts/Gauge.sol\":17716:17729  _amount = bal */\n      swap2\n      pop\n        /* \"contracts/Gauge.sol\":17683:17740  if (_amount > bal) {... */\n    tag_477:\n        /* \"contracts/Gauge.sol\":17749:17797  TransferHelper.safeTransfer(token, _to, _amount) */\n      tag_478\n        /* \"contracts/Gauge.sol\":17777:17782  token */\n      dup5\n        /* \"contracts/Gauge.sol\":17784:17787  _to */\n      dup5\n        /* \"contracts/Gauge.sol\":17789:17796  _amount */\n      dup5\n        /* \"contracts/Gauge.sol\":17749:17776  TransferHelper.safeTransfer */\n      tag_425\n        /* \"contracts/Gauge.sol\":17749:17797  TransferHelper.safeTransfer(token, _to, _amount) */\n      jump\t// in\n    tag_478:\n        /* \"contracts/Gauge.sol\":17563:17804  {... */\n      pop\n        /* \"contracts/Gauge.sol\":17481:17804  function _safeTokenTransfer(address token, address _to, uint256 _amount) internal {... */\n      pop\n      pop\n      pop\n      jump\t// out\n        /* \"contracts/Gauge.sol\":15309:15820  function _writeCheckpoint(address account, uint balance) internal {... */\n    tag_286:\n        /* \"contracts/Gauge.sol\":15385:15400  uint _timestamp */\n      0x00\n        /* \"contracts/Gauge.sol\":15403:15418  block.timestamp */\n      timestamp\n        /* \"contracts/Gauge.sol\":15385:15418  uint _timestamp = block.timestamp */\n      swap1\n      pop\n        /* \"contracts/Gauge.sol\":15428:15446  uint _nCheckPoints */\n      0x00\n        /* \"contracts/Gauge.sol\":15449:15463  numCheckpoints */\n      0x0e\n        /* \"contracts/Gauge.sol\":15449:15472  numCheckpoints[account] */\n      0x00\n        /* \"contracts/Gauge.sol\":15464:15471  account */\n      dup6\n        /* \"contracts/Gauge.sol\":15449:15472  numCheckpoints[account] */\n      0xffffffffffffffffffffffffffffffffffffffff\n      and\n      0xffffffffffffffffffffffffffffffffffffffff\n      and\n      dup2\n      mstore\n      0x20\n      add\n      swap1\n      dup2\n      mstore\n      0x20\n      add\n      0x00\n      keccak256\n      sload\n        /* \"contracts/Gauge.sol\":15428:15472  uint _nCheckPoints = numCheckpoints[account] */\n      swap1\n      pop\n        /* \"contracts/Gauge.sol\":15503:15504  0 */\n      0x00\n        /* \"contracts/Gauge.sol\":15487:15500  _nCheckPoints */\n      dup2\n        /* \"contracts/Gauge.sol\":15487:15504  _nCheckPoints > 0 */\n      gt\n        /* \"contracts/Gauge.sol\":15487:15571  _nCheckPoints > 0 && checkpoints[account][_nCheckPoints - 1].timestamp == _timestamp */\n      dup1\n      iszero\n      tag_480\n      jumpi\n      pop\n        /* \"contracts/Gauge.sol\":15561:15571  _timestamp */\n      dup2\n        /* \"contracts/Gauge.sol\":15508:15519  checkpoints */\n      0x0d\n        /* \"contracts/Gauge.sol\":15508:15528  checkpoints[account] */\n      0x00\n        /* \"contracts/Gauge.sol\":15520:15527  account */\n      dup7\n        /* \"contracts/Gauge.sol\":15508:15528  checkpoints[account] */\n      0xffffffffffffffffffffffffffffffffffffffff\n      and\n      0xffffffffffffffffffffffffffffffffffffffff\n      and\n      dup2\n      mstore\n      0x20\n      add\n      swap1\n      dup2\n      mstore\n      0x20\n      add\n      0x00\n      keccak256\n        /* \"contracts/Gauge.sol\":15508:15547  checkpoints[account][_nCheckPoints - 1] */\n      0x00\n        /* \"contracts/Gauge.sol\":15545:15546  1 */\n      0x01\n        /* \"contracts/Gauge.sol\":15529:15542  _nCheckPoints */\n      dup5\n        /* \"contracts/Gauge.sol\":15529:15546  _nCheckPoints - 1 */\n      tag_481\n      swap2\n      swap1\n      tag_192\n      jump\t// in\n    tag_481:\n        /* \"contracts/Gauge.sol\":15508:15547  checkpoints[account][_nCheckPoints - 1] */\n      dup2\n      mstore\n      0x20\n      add\n      swap1\n      dup2\n      mstore\n      0x20\n      add\n      0x00\n      keccak256\n        /* \"contracts/Gauge.sol\":15508:15557  checkpoints[account][_nCheckPoints - 1].timestamp */\n      0x00\n      add\n      sload\n        /* \"contracts/Gauge.sol\":15508:15571  checkpoints[account][_nCheckPoints - 1].timestamp == _timestamp */\n      eq\n        /* \"contracts/Gauge.sol\":15487:15571  _nCheckPoints > 0 && checkpoints[account][_nCheckPoints - 1].timestamp == _timestamp */\n    tag_480:\n        /* \"contracts/Gauge.sol\":15483:15814  if (_nCheckPoints > 0 && checkpoints[account][_nCheckPoints - 1].timestamp == _timestamp) {... */\n      iszero\n      tag_482\n      jumpi\n        /* \"contracts/Gauge.sol\":15639:15646  balance */\n      dup3\n        /* \"contracts/Gauge.sol\":15587:15598  checkpoints */\n      0x0d\n        /* \"contracts/Gauge.sol\":15587:15607  checkpoints[account] */\n      0x00\n        /* \"contracts/Gauge.sol\":15599:15606  account */\n      dup7\n        /* \"contracts/Gauge.sol\":15587:15607  checkpoints[account] */\n      0xffffffffffffffffffffffffffffffffffffffff\n      and\n      0xffffffffffffffffffffffffffffffffffffffff\n      and\n      dup2\n      mstore\n      0x20\n      add\n      swap1\n      dup2\n      mstore\n      0x20\n      add\n      0x00\n      keccak256\n        /* \"contracts/Gauge.sol\":15587:15626  checkpoints[account][_nCheckPoints - 1] */\n      0x00\n        /* \"contracts/Gauge.sol\":15624:15625  1 */\n      0x01\n        /* \"contracts/Gauge.sol\":15608:15621  _nCheckPoints */\n      dup5\n        /* \"contracts/Gauge.sol\":15608:15625  _nCheckPoints - 1 */\n      tag_483\n      swap2\n      swap1\n      tag_192\n      jump\t// in\n    tag_483:\n        /* \"contracts/Gauge.sol\":15587:15626  checkpoints[account][_nCheckPoints - 1] */\n      dup2\n      mstore\n      0x20\n      add\n      swap1\n      dup2\n      mstore\n      0x20\n      add\n      0x00\n      keccak256\n        /* \"contracts/Gauge.sol\":15587:15636  checkpoints[account][_nCheckPoints - 1].balanceOf */\n      0x01\n      add\n        /* \"contracts/Gauge.sol\":15587:15646  checkpoints[account][_nCheckPoints - 1].balanceOf = balance */\n      dup2\n      swap1\n      sstore\n      pop\n        /* \"contracts/Gauge.sol\":15483:15814  if (_nCheckPoints > 0 && checkpoints[account][_nCheckPoints - 1].timestamp == _timestamp) {... */\n      jump(tag_484)\n    tag_482:\n        /* \"contracts/Gauge.sol\":15715:15746  Checkpoint(_timestamp, balance) */\n      mload(0x40)\n      dup1\n      0x40\n      add\n      0x40\n      mstore\n      dup1\n        /* \"contracts/Gauge.sol\":15726:15736  _timestamp */\n      dup4\n        /* \"contracts/Gauge.sol\":15715:15746  Checkpoint(_timestamp, balance) */\n      dup2\n      mstore\n      0x20\n      add\n        /* \"contracts/Gauge.sol\":15738:15745  balance */\n      dup5\n        /* \"contracts/Gauge.sol\":15715:15746  Checkpoint(_timestamp, balance) */\n      dup2\n      mstore\n      pop\n        /* \"contracts/Gauge.sol\":15677:15688  checkpoints */\n      0x0d\n        /* \"contracts/Gauge.sol\":15677:15697  checkpoints[account] */\n      0x00\n        /* \"contracts/Gauge.sol\":15689:15696  account */\n      dup7\n        /* \"contracts/Gauge.sol\":15677:15697  checkpoints[account] */\n      0xffffffffffffffffffffffffffffffffffffffff\n      and\n      0xffffffffffffffffffffffffffffffffffffffff\n      and\n      dup2\n      mstore\n      0x20\n      add\n      swap1\n      dup2\n      mstore\n      0x20\n      add\n      0x00\n      keccak256\n        /* \"contracts/Gauge.sol\":15677:15712  checkpoints[account][_nCheckPoints] */\n      0x00\n        /* \"contracts/Gauge.sol\":15698:15711  _nCheckPoints */\n      dup4\n        /* \"contracts/Gauge.sol\":15677:15712  checkpoints[account][_nCheckPoints] */\n      dup2\n      mstore\n      0x20\n      add\n      swap1\n      dup2\n      mstore\n      0x20\n      add\n      0x00\n      keccak256\n        /* \"contracts/Gauge.sol\":15677:15746  checkpoints[account][_nCheckPoints] = Checkpoint(_timestamp, balance) */\n      0x00\n      dup3\n      add\n      mload\n      dup2\n      0x00\n      add\n      sstore\n      0x20\n      dup3\n      add\n      mload\n      dup2\n      0x01\n      add\n      sstore\n      swap1\n      pop\n      pop\n        /* \"contracts/Gauge.sol\":15802:15803  1 */\n      0x01\n        /* \"contracts/Gauge.sol\":15786:15799  _nCheckPoints */\n      dup2\n        /* \"contracts/Gauge.sol\":15786:15803  _nCheckPoints + 1 */\n      tag_485\n      swap2\n      swap1\n      tag_221\n      jump\t// in\n    tag_485:\n        /* \"contracts/Gauge.sol\":15760:15774  numCheckpoints */\n      0x0e\n        /* \"contracts/Gauge.sol\":15760:15783  numCheckpoints[account] */\n      0x00\n        /* \"contracts/Gauge.sol\":15775:15782  account */\n      dup7\n        /* \"contracts/Gauge.sol\":15760:15783  numCheckpoints[account] */\n      0xffffffffffffffffffffffffffffffffffffffff\n      and\n      0xffffffffffffffffffffffffffffffffffffffff\n      and\n      dup2\n      mstore\n      0x20\n      add\n      swap1\n      dup2\n      mstore\n      0x20\n      add\n      0x00\n      keccak256\n        /* \"contracts/Gauge.sol\":15760:15803  numCheckpoints[account] = _nCheckPoints + 1 */\n      dup2\n      swap1\n      sstore\n      pop\n        /* \"contracts/Gauge.sol\":15483:15814  if (_nCheckPoints > 0 && checkpoints[account][_nCheckPoints - 1].timestamp == _timestamp) {... */\n    tag_484:\n        /* \"contracts/Gauge.sol\":15375:15820  {... */\n      pop\n      pop\n        /* \"contracts/Gauge.sol\":15309:15820  function _writeCheckpoint(address account, uint balance) internal {... */\n      pop\n      pop\n      jump\t// out\n        /* \"contracts/Gauge.sol\":16402:16890  function _writeSupplyCheckpoint() internal {... */\n    tag_288:\n        /* \"contracts/Gauge.sol\":16455:16473  uint _nCheckPoints */\n      0x00\n        /* \"contracts/Gauge.sol\":16476:16496  supplyNumCheckpoints */\n      sload(0x10)\n        /* \"contracts/Gauge.sol\":16455:16496  uint _nCheckPoints = supplyNumCheckpoints */\n      swap1\n      pop\n        /* \"contracts/Gauge.sol\":16506:16521  uint _timestamp */\n      0x00\n        /* \"contracts/Gauge.sol\":16524:16539  block.timestamp */\n      timestamp\n        /* \"contracts/Gauge.sol\":16506:16539  uint _timestamp = block.timestamp */\n      swap1\n      pop\n        /* \"contracts/Gauge.sol\":16570:16571  0 */\n      0x00\n        /* \"contracts/Gauge.sol\":16554:16567  _nCheckPoints */\n      dup3\n        /* \"contracts/Gauge.sol\":16554:16571  _nCheckPoints > 0 */\n      gt\n        /* \"contracts/Gauge.sol\":16554:16635  _nCheckPoints > 0 && supplyCheckpoints[_nCheckPoints - 1].timestamp == _timestamp */\n      dup1\n      iszero\n      tag_487\n      jumpi\n      pop\n        /* \"contracts/Gauge.sol\":16625:16635  _timestamp */\n      dup1\n        /* \"contracts/Gauge.sol\":16575:16592  supplyCheckpoints */\n      0x0f\n        /* \"contracts/Gauge.sol\":16575:16611  supplyCheckpoints[_nCheckPoints - 1] */\n      0x00\n        /* \"contracts/Gauge.sol\":16609:16610  1 */\n      0x01\n        /* \"contracts/Gauge.sol\":16593:16606  _nCheckPoints */\n      dup6\n        /* \"contracts/Gauge.sol\":16593:16610  _nCheckPoints - 1 */\n      tag_488\n      swap2\n      swap1\n      tag_192\n      jump\t// in\n    tag_488:\n        /* \"contracts/Gauge.sol\":16575:16611  supplyCheckpoints[_nCheckPoints - 1] */\n      dup2\n      mstore\n      0x20\n      add\n      swap1\n      dup2\n      mstore\n      0x20\n      add\n      0x00\n      keccak256\n        /* \"contracts/Gauge.sol\":16575:16621  supplyCheckpoints[_nCheckPoints - 1].timestamp */\n      0x00\n      add\n      sload\n        /* \"contracts/Gauge.sol\":16575:16635  supplyCheckpoints[_nCheckPoints - 1].timestamp == _timestamp */\n      eq\n        /* \"contracts/Gauge.sol\":16554:16635  _nCheckPoints > 0 && supplyCheckpoints[_nCheckPoints - 1].timestamp == _timestamp */\n    tag_487:\n        /* \"contracts/Gauge.sol\":16550:16884  if (_nCheckPoints > 0 && supplyCheckpoints[_nCheckPoints - 1].timestamp == _timestamp) {... */\n      iszero\n      tag_489\n      jumpi\n        /* \"contracts/Gauge.sol\":16697:16710  derivedSupply */\n      sload(0x01)\n        /* \"contracts/Gauge.sol\":16651:16668  supplyCheckpoints */\n      0x0f\n        /* \"contracts/Gauge.sol\":16651:16687  supplyCheckpoints[_nCheckPoints - 1] */\n      0x00\n        /* \"contracts/Gauge.sol\":16685:16686  1 */\n      0x01\n        /* \"contracts/Gauge.sol\":16669:16682  _nCheckPoints */\n      dup6\n        /* \"contracts/Gauge.sol\":16669:16686  _nCheckPoints - 1 */\n      tag_490\n      swap2\n      swap1\n      tag_192\n      jump\t// in\n    tag_490:\n        /* \"contracts/Gauge.sol\":16651:16687  supplyCheckpoints[_nCheckPoints - 1] */\n      dup2\n      mstore\n      0x20\n      add\n      swap1\n      dup2\n      mstore\n      0x20\n      add\n      0x00\n      keccak256\n        /* \"contracts/Gauge.sol\":16651:16694  supplyCheckpoints[_nCheckPoints - 1].supply */\n      0x01\n      add\n        /* \"contracts/Gauge.sol\":16651:16710  supplyCheckpoints[_nCheckPoints - 1].supply = derivedSupply */\n      dup2\n      swap1\n      sstore\n      pop\n        /* \"contracts/Gauge.sol\":16550:16884  if (_nCheckPoints > 0 && supplyCheckpoints[_nCheckPoints - 1].timestamp == _timestamp) {... */\n      jump(tag_491)\n    tag_489:\n        /* \"contracts/Gauge.sol\":16776:16819  SupplyCheckpoint(_timestamp, derivedSupply) */\n      mload(0x40)\n      dup1\n      0x40\n      add\n      0x40\n      mstore\n      dup1\n        /* \"contracts/Gauge.sol\":16793:16803  _timestamp */\n      dup3\n        /* \"contracts/Gauge.sol\":16776:16819  SupplyCheckpoint(_timestamp, derivedSupply) */\n      dup2\n      mstore\n      0x20\n      add\n        /* \"contracts/Gauge.sol\":16805:16818  derivedSupply */\n      sload(0x01)\n        /* \"contracts/Gauge.sol\":16776:16819  SupplyCheckpoint(_timestamp, derivedSupply) */\n      dup2\n      mstore\n      pop\n        /* \"contracts/Gauge.sol\":16741:16758  supplyCheckpoints */\n      0x0f\n        /* \"contracts/Gauge.sol\":16741:16773  supplyCheckpoints[_nCheckPoints] */\n      0x00\n        /* \"contracts/Gauge.sol\":16759:16772  _nCheckPoints */\n      dup5\n        /* \"contracts/Gauge.sol\":16741:16773  supplyCheckpoints[_nCheckPoints] */\n      dup2\n      mstore\n      0x20\n      add\n      swap1\n      dup2\n      mstore\n      0x20\n      add\n      0x00\n      keccak256\n        /* \"contracts/Gauge.sol\":16741:16819  supplyCheckpoints[_nCheckPoints] = SupplyCheckpoint(_timestamp, derivedSupply) */\n      0x00\n      dup3\n      add\n      mload\n      dup2\n      0x00\n      add\n      sstore\n      0x20\n      dup3\n      add\n      mload\n      dup2\n      0x01\n      add\n      sstore\n      swap1\n      pop\n      pop\n        /* \"contracts/Gauge.sol\":16872:16873  1 */\n      0x01\n        /* \"contracts/Gauge.sol\":16856:16869  _nCheckPoints */\n      dup3\n        /* \"contracts/Gauge.sol\":16856:16873  _nCheckPoints + 1 */\n      tag_492\n      swap2\n      swap1\n      tag_221\n      jump\t// in\n    tag_492:\n        /* \"contracts/Gauge.sol\":16833:16853  supplyNumCheckpoints */\n      0x10\n        /* \"contracts/Gauge.sol\":16833:16873  supplyNumCheckpoints = _nCheckPoints + 1 */\n      dup2\n      swap1\n      sstore\n      pop\n        /* \"contracts/Gauge.sol\":16550:16884  if (_nCheckPoints > 0 && supplyCheckpoints[_nCheckPoints - 1].timestamp == _timestamp) {... */\n    tag_491:\n        /* \"contracts/Gauge.sol\":16445:16890  {... */\n      pop\n      pop\n        /* \"contracts/Gauge.sol\":16402:16890  function _writeSupplyCheckpoint() internal {... */\n      jump\t// out\n        /* \"contracts/Gauge.sol\":19992:21104  function _batchRewardPerToken(address token, uint maxRuns) internal returns (uint, uint) {... */\n    tag_291:\n        /* \"contracts/Gauge.sol\":20069:20073  uint */\n      0x00\n        /* \"contracts/Gauge.sol\":20075:20079  uint */\n      dup1\n        /* \"contracts/Gauge.sol\":20091:20111  uint _startTimestamp */\n      0x00\n        /* \"contracts/Gauge.sol\":20114:20128  lastUpdateTime */\n      0x04\n        /* \"contracts/Gauge.sol\":20114:20135  lastUpdateTime[token] */\n      0x00\n        /* \"contracts/Gauge.sol\":20129:20134  token */\n      dup7\n        /* \"contracts/Gauge.sol\":20114:20135  lastUpdateTime[token] */\n      0xffffffffffffffffffffffffffffffffffffffff\n      and\n      0xffffffffffffffffffffffffffffffffffffffff\n      and\n      dup2\n      mstore\n      0x20\n      add\n      swap1\n      dup2\n      mstore\n      0x20\n      add\n      0x00\n      keccak256\n      sload\n        /* \"contracts/Gauge.sol\":20091:20135  uint _startTimestamp = lastUpdateTime[token] */\n      swap1\n      pop\n        /* \"contracts/Gauge.sol\":20145:20156  uint reward */\n      0x00\n        /* \"contracts/Gauge.sol\":20159:20179  rewardPerTokenStored */\n      0x05\n        /* \"contracts/Gauge.sol\":20159:20186  rewardPerTokenStored[token] */\n      0x00\n        /* \"contracts/Gauge.sol\":20180:20185  token */\n      dup8\n        /* \"contracts/Gauge.sol\":20159:20186  rewardPerTokenStored[token] */\n      0xffffffffffffffffffffffffffffffffffffffff\n      and\n      0xffffffffffffffffffffffffffffffffffffffff\n      and\n      dup2\n      mstore\n      0x20\n      add\n      swap1\n      dup2\n      mstore\n      0x20\n      add\n      0x00\n      keccak256\n      sload\n        /* \"contracts/Gauge.sol\":20145:20186  uint reward = rewardPerTokenStored[token] */\n      swap1\n      pop\n        /* \"contracts/Gauge.sol\":20225:20226  0 */\n      0x00\n        /* \"contracts/Gauge.sol\":20201:20221  supplyNumCheckpoints */\n      sload(0x10)\n        /* \"contracts/Gauge.sol\":20201:20226  supplyNumCheckpoints == 0 */\n      eq\n        /* \"contracts/Gauge.sol\":20197:20285  if (supplyNumCheckpoints == 0) {... */\n      iszero\n      tag_494\n      jumpi\n        /* \"contracts/Gauge.sol\":20250:20256  reward */\n      dup1\n        /* \"contracts/Gauge.sol\":20258:20273  _startTimestamp */\n      dup3\n        /* \"contracts/Gauge.sol\":20242:20274  return (reward, _startTimestamp) */\n      swap4\n      pop\n      swap4\n      pop\n      pop\n      pop\n      jump(tag_493)\n        /* \"contracts/Gauge.sol\":20197:20285  if (supplyNumCheckpoints == 0) {... */\n    tag_494:\n        /* \"contracts/Gauge.sol\":20320:20321  0 */\n      0x00\n        /* \"contracts/Gauge.sol\":20299:20309  rewardRate */\n      0x03\n        /* \"contracts/Gauge.sol\":20299:20316  rewardRate[token] */\n      0x00\n        /* \"contracts/Gauge.sol\":20310:20315  token */\n      dup9\n        /* \"contracts/Gauge.sol\":20299:20316  rewardRate[token] */\n      0xffffffffffffffffffffffffffffffffffffffff\n      and\n      0xffffffffffffffffffffffffffffffffffffffff\n      and\n      dup2\n      mstore\n      0x20\n      add\n      swap1\n      dup2\n      mstore\n      0x20\n      add\n      0x00\n      keccak256\n      sload\n        /* \"contracts/Gauge.sol\":20299:20321  rewardRate[token] == 0 */\n      eq\n        /* \"contracts/Gauge.sol\":20295:20380  if (rewardRate[token] == 0) {... */\n      iszero\n      tag_495\n      jumpi\n        /* \"contracts/Gauge.sol\":20345:20351  reward */\n      dup1\n        /* \"contracts/Gauge.sol\":20353:20368  block.timestamp */\n      timestamp\n        /* \"contracts/Gauge.sol\":20337:20369  return (reward, block.timestamp) */\n      swap4\n      pop\n      swap4\n      pop\n      pop\n      pop\n      jump(tag_493)\n        /* \"contracts/Gauge.sol\":20295:20380  if (rewardRate[token] == 0) {... */\n    tag_495:\n        /* \"contracts/Gauge.sol\":20390:20406  uint _startIndex */\n      0x00\n        /* \"contracts/Gauge.sol\":20409:20445  getPriorSupplyIndex(_startTimestamp) */\n      tag_496\n        /* \"contracts/Gauge.sol\":20429:20444  _startTimestamp */\n      dup4\n        /* \"contracts/Gauge.sol\":20409:20428  getPriorSupplyIndex */\n      tag_124\n        /* \"contracts/Gauge.sol\":20409:20445  getPriorSupplyIndex(_startTimestamp) */\n      jump\t// in\n    tag_496:\n        /* \"contracts/Gauge.sol\":20390:20445  uint _startIndex = getPriorSupplyIndex(_startTimestamp) */\n      swap1\n      pop\n        /* \"contracts/Gauge.sol\":20455:20469  uint _endIndex */\n      0x00\n        /* \"contracts/Gauge.sol\":20472:20515  Math.min(supplyNumCheckpoints - 1, maxRuns) */\n      tag_497\n        /* \"contracts/Gauge.sol\":20504:20505  1 */\n      0x01\n        /* \"contracts/Gauge.sol\":20481:20501  supplyNumCheckpoints */\n      sload(0x10)\n        /* \"contracts/Gauge.sol\":20481:20505  supplyNumCheckpoints - 1 */\n      tag_498\n      swap2\n      swap1\n      tag_192\n      jump\t// in\n    tag_498:\n        /* \"contracts/Gauge.sol\":20507:20514  maxRuns */\n      dup9\n        /* \"contracts/Gauge.sol\":20472:20480  Math.min */\n      tag_355\n        /* \"contracts/Gauge.sol\":20472:20515  Math.min(supplyNumCheckpoints - 1, maxRuns) */\n      jump\t// in\n    tag_497:\n        /* \"contracts/Gauge.sol\":20455:20515  uint _endIndex = Math.min(supplyNumCheckpoints - 1, maxRuns) */\n      swap1\n      pop\n        /* \"contracts/Gauge.sol\":20531:20537  uint i */\n      0x00\n        /* \"contracts/Gauge.sol\":20540:20551  _startIndex */\n      dup3\n        /* \"contracts/Gauge.sol\":20531:20551  uint i = _startIndex */\n      swap1\n      pop\n        /* \"contracts/Gauge.sol\":20526:21055  for (uint i = _startIndex; i < _endIndex; i++) {... */\n    tag_499:\n        /* \"contracts/Gauge.sol\":20557:20566  _endIndex */\n      dup2\n        /* \"contracts/Gauge.sol\":20553:20554  i */\n      dup2\n        /* \"contracts/Gauge.sol\":20553:20566  i < _endIndex */\n      lt\n        /* \"contracts/Gauge.sol\":20526:21055  for (uint i = _startIndex; i < _endIndex; i++) {... */\n      iszero\n      tag_500\n      jumpi\n        /* \"contracts/Gauge.sol\":20587:20614  SupplyCheckpoint memory sp0 */\n      0x00\n        /* \"contracts/Gauge.sol\":20617:20634  supplyCheckpoints */\n      0x0f\n        /* \"contracts/Gauge.sol\":20617:20637  supplyCheckpoints[i] */\n      0x00\n        /* \"contracts/Gauge.sol\":20635:20636  i */\n      dup4\n        /* \"contracts/Gauge.sol\":20617:20637  supplyCheckpoints[i] */\n      dup2\n      mstore\n      0x20\n      add\n      swap1\n      dup2\n      mstore\n      0x20\n      add\n      0x00\n      keccak256\n        /* \"contracts/Gauge.sol\":20587:20637  SupplyCheckpoint memory sp0 = supplyCheckpoints[i] */\n      mload(0x40)\n      dup1\n      0x40\n      add\n      0x40\n      mstore\n      swap1\n      dup2\n      0x00\n      dup3\n      add\n      sload\n      dup2\n      mstore\n      0x20\n      add\n      0x01\n      dup3\n      add\n      sload\n      dup2\n      mstore\n      pop\n      pop\n      swap1\n      pop\n        /* \"contracts/Gauge.sol\":20668:20669  0 */\n      0x00\n        /* \"contracts/Gauge.sol\":20655:20658  sp0 */\n      dup2\n        /* \"contracts/Gauge.sol\":20655:20665  sp0.supply */\n      0x20\n      add\n      mload\n        /* \"contracts/Gauge.sol\":20655:20669  sp0.supply > 0 */\n      gt\n        /* \"contracts/Gauge.sol\":20651:21045  if (sp0.supply > 0) {... */\n      iszero\n      tag_502\n      jumpi\n        /* \"contracts/Gauge.sol\":20689:20716  SupplyCheckpoint memory sp1 */\n      0x00\n        /* \"contracts/Gauge.sol\":20719:20736  supplyCheckpoints */\n      0x0f\n        /* \"contracts/Gauge.sol\":20719:20743  supplyCheckpoints[i + 1] */\n      0x00\n        /* \"contracts/Gauge.sol\":20741:20742  1 */\n      0x01\n        /* \"contracts/Gauge.sol\":20737:20738  i */\n      dup6\n        /* \"contracts/Gauge.sol\":20737:20742  i + 1 */\n      tag_503\n      swap2\n      swap1\n      tag_221\n      jump\t// in\n    tag_503:\n        /* \"contracts/Gauge.sol\":20719:20743  supplyCheckpoints[i + 1] */\n      dup2\n      mstore\n      0x20\n      add\n      swap1\n      dup2\n      mstore\n      0x20\n      add\n      0x00\n      keccak256\n        /* \"contracts/Gauge.sol\":20689:20743  SupplyCheckpoint memory sp1 = supplyCheckpoints[i + 1] */\n      mload(0x40)\n      dup1\n      0x40\n      add\n      0x40\n      mstore\n      swap1\n      dup2\n      0x00\n      dup3\n      add\n      sload\n      dup2\n      mstore\n      0x20\n      add\n      0x01\n      dup3\n      add\n      sload\n      dup2\n      mstore\n      pop\n      pop\n      swap1\n      pop\n        /* \"contracts/Gauge.sol\":20762:20774  uint _reward */\n      0x00\n        /* \"contracts/Gauge.sol\":20776:20789  uint _endTime */\n      dup1\n        /* \"contracts/Gauge.sol\":20793:20878  _calcRewardPerToken(token, sp1.timestamp, sp0.timestamp, sp0.supply, _startTimestamp) */\n      tag_504\n        /* \"contracts/Gauge.sol\":20813:20818  token */\n      dup14\n        /* \"contracts/Gauge.sol\":20820:20823  sp1 */\n      dup5\n        /* \"contracts/Gauge.sol\":20820:20833  sp1.timestamp */\n      0x00\n      add\n      mload\n        /* \"contracts/Gauge.sol\":20835:20838  sp0 */\n      dup7\n        /* \"contracts/Gauge.sol\":20835:20848  sp0.timestamp */\n      0x00\n      add\n      mload\n        /* \"contracts/Gauge.sol\":20850:20853  sp0 */\n      dup8\n        /* \"contracts/Gauge.sol\":20850:20860  sp0.supply */\n      0x20\n      add\n      mload\n        /* \"contracts/Gauge.sol\":20862:20877  _startTimestamp */\n      dup14\n        /* \"contracts/Gauge.sol\":20793:20812  _calcRewardPerToken */\n      tag_460\n        /* \"contracts/Gauge.sol\":20793:20878  _calcRewardPerToken(token, sp1.timestamp, sp0.timestamp, sp0.supply, _startTimestamp) */\n      jump\t// in\n    tag_504:\n        /* \"contracts/Gauge.sol\":20761:20878  (uint _reward, uint _endTime) = _calcRewardPerToken(token, sp1.timestamp, sp0.timestamp, sp0.supply, _startTimestamp) */\n      swap2\n      pop\n      swap2\n      pop\n        /* \"contracts/Gauge.sol\":20906:20913  _reward */\n      dup2\n        /* \"contracts/Gauge.sol\":20896:20913  reward += _reward */\n      dup9\n      tag_505\n      swap2\n      swap1\n      tag_221\n      jump\t// in\n    tag_505:\n      swap8\n      pop\n        /* \"contracts/Gauge.sol\":20931:20986  _writeRewardPerTokenCheckpoint(token, reward, _endTime) */\n      tag_506\n        /* \"contracts/Gauge.sol\":20962:20967  token */\n      dup14\n        /* \"contracts/Gauge.sol\":20969:20975  reward */\n      dup10\n        /* \"contracts/Gauge.sol\":20977:20985  _endTime */\n      dup4\n        /* \"contracts/Gauge.sol\":20931:20961  _writeRewardPerTokenCheckpoint */\n      tag_318\n        /* \"contracts/Gauge.sol\":20931:20986  _writeRewardPerTokenCheckpoint(token, reward, _endTime) */\n      jump\t// in\n    tag_506:\n        /* \"contracts/Gauge.sol\":21022:21030  _endTime */\n      dup1\n        /* \"contracts/Gauge.sol\":21004:21030  _startTimestamp = _endTime */\n      swap9\n      pop\n        /* \"contracts/Gauge.sol\":20671:21045  {... */\n      pop\n      pop\n      pop\n        /* \"contracts/Gauge.sol\":20651:21045  if (sp0.supply > 0) {... */\n    tag_502:\n        /* \"contracts/Gauge.sol\":20573:21055  {... */\n      pop\n        /* \"contracts/Gauge.sol\":20568:20571  i++ */\n      dup1\n      dup1\n      tag_507\n      swap1\n      tag_230\n      jump\t// in\n    tag_507:\n      swap2\n      pop\n      pop\n        /* \"contracts/Gauge.sol\":20526:21055  for (uint i = _startIndex; i < _endIndex; i++) {... */\n      jump(tag_499)\n    tag_500:\n      pop\n        /* \"contracts/Gauge.sol\":21073:21079  reward */\n      dup3\n        /* \"contracts/Gauge.sol\":21081:21096  _startTimestamp */\n      dup5\n        /* \"contracts/Gauge.sol\":21065:21097  return (reward, _startTimestamp) */\n      swap6\n      pop\n      swap6\n      pop\n      pop\n      pop\n      pop\n      pop\n        /* \"contracts/Gauge.sol\":19992:21104  function _batchRewardPerToken(address token, uint maxRuns) internal returns (uint, uint) {... */\n    tag_493:\n      swap3\n      pop\n      swap3\n      swap1\n      pop\n      jump\t// out\n        /* \"contracts/Gauge.sol\":15826:16396  function _writeRewardPerTokenCheckpoint(address token, uint reward, uint timestamp) internal {... */\n    tag_318:\n        /* \"contracts/Gauge.sol\":15929:15947  uint _nCheckPoints */\n      0x00\n        /* \"contracts/Gauge.sol\":15950:15978  rewardPerTokenNumCheckpoints */\n      0x12\n        /* \"contracts/Gauge.sol\":15950:15985  rewardPerTokenNumCheckpoints[token] */\n      0x00\n        /* \"contracts/Gauge.sol\":15979:15984  token */\n      dup6\n        /* \"contracts/Gauge.sol\":15950:15985  rewardPerTokenNumCheckpoints[token] */\n      0xffffffffffffffffffffffffffffffffffffffff\n      and\n      0xffffffffffffffffffffffffffffffffffffffff\n      and\n      dup2\n      mstore\n      0x20\n      add\n      swap1\n      dup2\n      mstore\n      0x20\n      add\n      0x00\n      keccak256\n      sload\n        /* \"contracts/Gauge.sol\":15929:15985  uint _nCheckPoints = rewardPerTokenNumCheckpoints[token] */\n      swap1\n      pop\n        /* \"contracts/Gauge.sol\":16016:16017  0 */\n      0x00\n        /* \"contracts/Gauge.sol\":16000:16013  _nCheckPoints */\n      dup2\n        /* \"contracts/Gauge.sol\":16000:16017  _nCheckPoints > 0 */\n      gt\n        /* \"contracts/Gauge.sol\":16000:16095  _nCheckPoints > 0 && rewardPerTokenCheckpoints[token][_nCheckPoints - 1].timestamp == timestamp */\n      dup1\n      iszero\n      tag_509\n      jumpi\n      pop\n        /* \"contracts/Gauge.sol\":16086:16095  timestamp */\n      dup2\n        /* \"contracts/Gauge.sol\":16021:16046  rewardPerTokenCheckpoints */\n      0x11\n        /* \"contracts/Gauge.sol\":16021:16053  rewardPerTokenCheckpoints[token] */\n      0x00\n        /* \"contracts/Gauge.sol\":16047:16052  token */\n      dup7\n        /* \"contracts/Gauge.sol\":16021:16053  rewardPerTokenCheckpoints[token] */\n      0xffffffffffffffffffffffffffffffffffffffff\n      and\n      0xffffffffffffffffffffffffffffffffffffffff\n      and\n      dup2\n      mstore\n      0x20\n      add\n      swap1\n      dup2\n      mstore\n      0x20\n      add\n      0x00\n      keccak256\n        /* \"contracts/Gauge.sol\":16021:16072  rewardPerTokenCheckpoints[token][_nCheckPoints - 1] */\n      0x00\n        /* \"contracts/Gauge.sol\":16070:16071  1 */\n      0x01\n        /* \"contracts/Gauge.sol\":16054:16067  _nCheckPoints */\n      dup5\n        /* \"contracts/Gauge.sol\":16054:16071  _nCheckPoints - 1 */\n      tag_510\n      swap2\n      swap1\n      tag_192\n      jump\t// in\n    tag_510:\n        /* \"contracts/Gauge.sol\":16021:16072  rewardPerTokenCheckpoints[token][_nCheckPoints - 1] */\n      dup2\n      mstore\n      0x20\n      add\n      swap1\n      dup2\n      mstore\n      0x20\n      add\n      0x00\n      keccak256\n        /* \"contracts/Gauge.sol\":16021:16082  rewardPerTokenCheckpoints[token][_nCheckPoints - 1].timestamp */\n      0x00\n      add\n      sload\n        /* \"contracts/Gauge.sol\":16021:16095  rewardPerTokenCheckpoints[token][_nCheckPoints - 1].timestamp == timestamp */\n      eq\n        /* \"contracts/Gauge.sol\":16000:16095  _nCheckPoints > 0 && rewardPerTokenCheckpoints[token][_nCheckPoints - 1].timestamp == timestamp */\n    tag_509:\n        /* \"contracts/Gauge.sol\":15996:16390  if (_nCheckPoints > 0 && rewardPerTokenCheckpoints[token][_nCheckPoints - 1].timestamp == timestamp) {... */\n      iszero\n      tag_511\n      jumpi\n        /* \"contracts/Gauge.sol\":16180:16186  reward */\n      dup3\n        /* \"contracts/Gauge.sol\":16111:16136  rewardPerTokenCheckpoints */\n      0x11\n        /* \"contracts/Gauge.sol\":16111:16143  rewardPerTokenCheckpoints[token] */\n      0x00\n        /* \"contracts/Gauge.sol\":16137:16142  token */\n      dup7\n        /* \"contracts/Gauge.sol\":16111:16143  rewardPerTokenCheckpoints[token] */\n      0xffffffffffffffffffffffffffffffffffffffff\n      and\n      0xffffffffffffffffffffffffffffffffffffffff\n      and\n      dup2\n      mstore\n      0x20\n      add\n      swap1\n      dup2\n      mstore\n      0x20\n      add\n      0x00\n      keccak256\n        /* \"contracts/Gauge.sol\":16111:16162  rewardPerTokenCheckpoints[token][_nCheckPoints - 1] */\n      0x00\n        /* \"contracts/Gauge.sol\":16160:16161  1 */\n      0x01\n        /* \"contracts/Gauge.sol\":16144:16157  _nCheckPoints */\n      dup5\n        /* \"contracts/Gauge.sol\":16144:16161  _nCheckPoints - 1 */\n      tag_512\n      swap2\n      swap1\n      tag_192\n      jump\t// in\n    tag_512:\n        /* \"contracts/Gauge.sol\":16111:16162  rewardPerTokenCheckpoints[token][_nCheckPoints - 1] */\n      dup2\n      mstore\n      0x20\n      add\n      swap1\n      dup2\n      mstore\n      0x20\n      add\n      0x00\n      keccak256\n        /* \"contracts/Gauge.sol\":16111:16177  rewardPerTokenCheckpoints[token][_nCheckPoints - 1].rewardPerToken */\n      0x01\n      add\n        /* \"contracts/Gauge.sol\":16111:16186  rewardPerTokenCheckpoints[token][_nCheckPoints - 1].rewardPerToken = reward */\n      dup2\n      swap1\n      sstore\n      pop\n        /* \"contracts/Gauge.sol\":15996:16390  if (_nCheckPoints > 0 && rewardPerTokenCheckpoints[token][_nCheckPoints - 1].timestamp == timestamp) {... */\n      jump(tag_513)\n    tag_511:\n        /* \"contracts/Gauge.sol\":16267:16310  RewardPerTokenCheckpoint(timestamp, reward) */\n      mload(0x40)\n      dup1\n      0x40\n      add\n      0x40\n      mstore\n      dup1\n        /* \"contracts/Gauge.sol\":16292:16301  timestamp */\n      dup4\n        /* \"contracts/Gauge.sol\":16267:16310  RewardPerTokenCheckpoint(timestamp, reward) */\n      dup2\n      mstore\n      0x20\n      add\n        /* \"contracts/Gauge.sol\":16303:16309  reward */\n      dup5\n        /* \"contracts/Gauge.sol\":16267:16310  RewardPerTokenCheckpoint(timestamp, reward) */\n      dup2\n      mstore\n      pop\n        /* \"contracts/Gauge.sol\":16217:16242  rewardPerTokenCheckpoints */\n      0x11\n        /* \"contracts/Gauge.sol\":16217:16249  rewardPerTokenCheckpoints[token] */\n      0x00\n        /* \"contracts/Gauge.sol\":16243:16248  token */\n      dup7\n        /* \"contracts/Gauge.sol\":16217:16249  rewardPerTokenCheckpoints[token] */\n      0xffffffffffffffffffffffffffffffffffffffff\n      and\n      0xffffffffffffffffffffffffffffffffffffffff\n      and\n      dup2\n      mstore\n      0x20\n      add\n      swap1\n      dup2\n      mstore\n      0x20\n      add\n      0x00\n      keccak256\n        /* \"contracts/Gauge.sol\":16217:16264  rewardPerTokenCheckpoints[token][_nCheckPoints] */\n      0x00\n        /* \"contracts/Gauge.sol\":16250:16263  _nCheckPoints */\n      dup4\n        /* \"contracts/Gauge.sol\":16217:16264  rewardPerTokenCheckpoints[token][_nCheckPoints] */\n      dup2\n      mstore\n      0x20\n      add\n      swap1\n      dup2\n      mstore\n      0x20\n      add\n      0x00\n      keccak256\n        /* \"contracts/Gauge.sol\":16217:16310  rewardPerTokenCheckpoints[token][_nCheckPoints] = RewardPerTokenCheckpoint(timestamp, reward) */\n      0x00\n      dup3\n      add\n      mload\n      dup2\n      0x00\n      add\n      sstore\n      0x20\n      dup3\n      add\n      mload\n      dup2\n      0x01\n      add\n      sstore\n      swap1\n      pop\n      pop\n        /* \"contracts/Gauge.sol\":16378:16379  1 */\n      0x01\n        /* \"contracts/Gauge.sol\":16362:16375  _nCheckPoints */\n      dup2\n        /* \"contracts/Gauge.sol\":16362:16379  _nCheckPoints + 1 */\n      tag_514\n      swap2\n      swap1\n      tag_221\n      jump\t// in\n    tag_514:\n        /* \"contracts/Gauge.sol\":16324:16352  rewardPerTokenNumCheckpoints */\n      0x12\n        /* \"contracts/Gauge.sol\":16324:16359  rewardPerTokenNumCheckpoints[token] */\n      0x00\n        /* \"contracts/Gauge.sol\":16353:16358  token */\n      dup7\n        /* \"contracts/Gauge.sol\":16324:16359  rewardPerTokenNumCheckpoints[token] */\n      0xffffffffffffffffffffffffffffffffffffffff\n      and\n      0xffffffffffffffffffffffffffffffffffffffff\n      and\n      dup2\n      mstore\n      0x20\n      add\n      swap1\n      dup2\n      mstore\n      0x20\n      add\n      0x00\n      keccak256\n        /* \"contracts/Gauge.sol\":16324:16379  rewardPerTokenNumCheckpoints[token] = _nCheckPoints + 1 */\n      dup2\n      swap1\n      sstore\n      pop\n        /* \"contracts/Gauge.sol\":15996:16390  if (_nCheckPoints > 0 && rewardPerTokenCheckpoints[token][_nCheckPoints - 1].timestamp == timestamp) {... */\n    tag_513:\n        /* \"contracts/Gauge.sol\":15919:16396  {... */\n      pop\n        /* \"contracts/Gauge.sol\":15826:16396  function _writeRewardPerTokenCheckpoint(address token, uint reward, uint timestamp) internal {... */\n      pop\n      pop\n      pop\n      jump\t// out\n        /* \"contracts/Gauge.sol\":583:687  function min(uint256 a, uint256 b) internal pure returns (uint256) {... */\n    tag_355:\n        /* \"contracts/Gauge.sol\":641:648  uint256 */\n      0x00\n        /* \"contracts/Gauge.sol\":671:672  b */\n      dup2\n        /* \"contracts/Gauge.sol\":667:668  a */\n      dup4\n        /* \"contracts/Gauge.sol\":667:672  a < b */\n      lt\n        /* \"contracts/Gauge.sol\":667:680  a < b ? a : b */\n      tag_516\n      jumpi\n        /* \"contracts/Gauge.sol\":679:680  b */\n      dup2\n        /* \"contracts/Gauge.sol\":667:680  a < b ? a : b */\n      jump(tag_517)\n    tag_516:\n        /* \"contracts/Gauge.sol\":675:676  a */\n      dup3\n        /* \"contracts/Gauge.sol\":667:680  a < b ? a : b */\n    tag_517:\n        /* \"contracts/Gauge.sol\":660:680  return a < b ? a : b */\n      swap1\n      pop\n        /* \"contracts/Gauge.sol\":583:687  function min(uint256 a, uint256 b) internal pure returns (uint256) {... */\n      swap3\n      swap2\n      pop\n      pop\n      jump\t// out\n        /* \"contracts/Gauge.sol\":9072:9470  function safeTransferFrom(address token, address from, address to, uint value) internal {... */\n    tag_362:\n        /* \"contracts/Gauge.sol\":9249:9261  bool success */\n      0x00\n        /* \"contracts/Gauge.sol\":9263:9280  bytes memory data */\n      dup1\n        /* \"contracts/Gauge.sol\":9284:9289  token */\n      dup6\n        /* \"contracts/Gauge.sol\":9284:9294  token.call */\n      0xffffffffffffffffffffffffffffffffffffffff\n      and\n        /* \"contracts/Gauge.sol\":9318:9328  0x23b872dd */\n      0x23b872dd\n        /* \"contracts/Gauge.sol\":9330:9334  from */\n      dup7\n        /* \"contracts/Gauge.sol\":9336:9338  to */\n      dup7\n        /* \"contracts/Gauge.sol\":9340:9345  value */\n      dup7\n        /* \"contracts/Gauge.sol\":9295:9346  abi.encodeWithSelector(0x23b872dd, from, to, value) */\n      add(0x24, mload(0x40))\n      tag_519\n      swap4\n      swap3\n      swap2\n      swap1\n      tag_520\n      jump\t// in\n    tag_519:\n      mload(0x40)\n      0x20\n      dup2\n      dup4\n      sub\n      sub\n      dup2\n      mstore\n      swap1\n      0x40\n      mstore\n      swap1\n      0xe0\n      shl\n      0x20\n      dup3\n      add\n      dup1\n      mload\n      0xffffffffffffffffffffffffffffffffffffffffffffffffffffffff\n      dup4\n      dup2\n      dup4\n      and\n      or\n      dup4\n      mstore\n      pop\n      pop\n      pop\n      pop\n        /* \"contracts/Gauge.sol\":9284:9347  token.call(abi.encodeWithSelector(0x23b872dd, from, to, value)) */\n      mload(0x40)\n      tag_521\n      swap2\n      swap1\n      tag_522\n      jump\t// in\n    tag_521:\n      0x00\n      mload(0x40)\n      dup1\n      dup4\n      sub\n      dup2\n      0x00\n      dup7\n      gas\n      call\n      swap2\n      pop\n      pop\n      returndatasize\n      dup1\n      0x00\n      dup2\n      eq\n      tag_525\n      jumpi\n      mload(0x40)\n      swap2\n      pop\n      and(add(returndatasize, 0x3f), not(0x1f))\n      dup3\n      add\n      0x40\n      mstore\n      returndatasize\n      dup3\n      mstore\n      returndatasize\n      0x00\n      0x20\n      dup5\n      add\n      returndatacopy\n      jump(tag_524)\n    tag_525:\n      0x60\n      swap2\n      pop\n    tag_524:\n      pop\n        /* \"contracts/Gauge.sol\":9248:9347  (bool success, bytes memory data) = token.call(abi.encodeWithSelector(0x23b872dd, from, to, value)) */\n      swap2\n      pop\n      swap2\n      pop\n        /* \"contracts/Gauge.sol\":9365:9372  success */\n      dup2\n        /* \"contracts/Gauge.sol\":9365:9422  success && (data.length == 0 || abi.decode(data, (bool))) */\n      dup1\n      iszero\n      tag_526\n      jumpi\n      pop\n        /* \"contracts/Gauge.sol\":9392:9393  0 */\n      0x00\n        /* \"contracts/Gauge.sol\":9377:9381  data */\n      dup2\n        /* \"contracts/Gauge.sol\":9377:9388  data.length */\n      mload\n        /* \"contracts/Gauge.sol\":9377:9393  data.length == 0 */\n      eq\n        /* \"contracts/Gauge.sol\":9377:9421  data.length == 0 || abi.decode(data, (bool)) */\n      dup1\n      tag_527\n      jumpi\n      pop\n        /* \"contracts/Gauge.sol\":9408:9412  data */\n      dup1\n        /* \"contracts/Gauge.sol\":9397:9421  abi.decode(data, (bool)) */\n      dup1\n      0x20\n      add\n      swap1\n      mload\n      dup2\n      add\n      swap1\n      tag_528\n      swap2\n      swap1\n      tag_529\n      jump\t// in\n    tag_528:\n        /* \"contracts/Gauge.sol\":9377:9421  data.length == 0 || abi.decode(data, (bool)) */\n    tag_527:\n        /* \"contracts/Gauge.sol\":9365:9422  success && (data.length == 0 || abi.decode(data, (bool))) */\n    tag_526:\n        /* \"contracts/Gauge.sol\":9357:9463  require(success && (data.length == 0 || abi.decode(data, (bool))), 'TransferHelper: TRANSFER_FROM_FAILED') */\n      tag_530\n      jumpi\n      mload(0x40)\n      0x08c379a000000000000000000000000000000000000000000000000000000000\n      dup2\n      mstore\n      0x04\n      add\n      tag_531\n      swap1\n      tag_532\n      jump\t// in\n    tag_531:\n      mload(0x40)\n      dup1\n      swap2\n      sub\n      swap1\n      revert\n    tag_530:\n        /* \"contracts/Gauge.sol\":9160:9470  {... */\n      pop\n      pop\n        /* \"contracts/Gauge.sol\":9072:9470  function safeTransferFrom(address token, address from, address to, uint value) internal {... */\n      pop\n      pop\n      pop\n      pop\n      jump\t// out\n        /* \"contracts/Gauge.sol\":8709:9066  function safeTransfer(address token, address to, uint value) internal {... */\n    tag_425:\n        /* \"contracts/Gauge.sol\":8856:8868  bool success */\n      0x00\n        /* \"contracts/Gauge.sol\":8870:8887  bytes memory data */\n      dup1\n        /* \"contracts/Gauge.sol\":8891:8896  token */\n      dup5\n        /* \"contracts/Gauge.sol\":8891:8901  token.call */\n      0xffffffffffffffffffffffffffffffffffffffff\n      and\n        /* \"contracts/Gauge.sol\":8925:8935  0xa9059cbb */\n      0xa9059cbb\n        /* \"contracts/Gauge.sol\":8937:8939  to */\n      dup6\n        /* \"contracts/Gauge.sol\":8941:8946  value */\n      dup6\n        /* \"contracts/Gauge.sol\":8902:8947  abi.encodeWithSelector(0xa9059cbb, to, value) */\n      add(0x24, mload(0x40))\n      tag_534\n      swap3\n      swap2\n      swap1\n      tag_535\n      jump\t// in\n    tag_534:\n      mload(0x40)\n      0x20\n      dup2\n      dup4\n      sub\n      sub\n      dup2\n      mstore\n      swap1\n      0x40\n      mstore\n      swap1\n      0xe0\n      shl\n      0x20\n      dup3\n      add\n      dup1\n      mload\n      0xffffffffffffffffffffffffffffffffffffffffffffffffffffffff\n      dup4\n      dup2\n      dup4\n      and\n      or\n      dup4\n      mstore\n      pop\n      pop\n      pop\n      pop\n        /* \"contracts/Gauge.sol\":8891:8948  token.call(abi.encodeWithSelector(0xa9059cbb, to, value)) */\n      mload(0x40)\n      tag_536\n      swap2\n      swap1\n      tag_522\n      jump\t// in\n    tag_536:\n      0x00\n      mload(0x40)\n      dup1\n      dup4\n      sub\n      dup2\n      0x00\n      dup7\n      gas\n      call\n      swap2\n      pop\n      pop\n      returndatasize\n      dup1\n      0x00\n      dup2\n      eq\n      tag_539\n      jumpi\n      mload(0x40)\n      swap2\n      pop\n      and(add(returndatasize, 0x3f), not(0x1f))\n      dup3\n      add\n      0x40\n      mstore\n      returndatasize\n      dup3\n      mstore\n      returndatasize\n      0x00\n      0x20\n      dup5\n      add\n      returndatacopy\n      jump(tag_538)\n    tag_539:\n      0x60\n      swap2\n      pop\n    tag_538:\n      pop\n        /* \"contracts/Gauge.sol\":8855:8948  (bool success, bytes memory data) = token.call(abi.encodeWithSelector(0xa9059cbb, to, value)) */\n      swap2\n      pop\n      swap2\n      pop\n        /* \"contracts/Gauge.sol\":8966:8973  success */\n      dup2\n        /* \"contracts/Gauge.sol\":8966:9023  success && (data.length == 0 || abi.decode(data, (bool))) */\n      dup1\n      iszero\n      tag_540\n      jumpi\n      pop\n        /* \"contracts/Gauge.sol\":8993:8994  0 */\n      0x00\n        /* \"contracts/Gauge.sol\":8978:8982  data */\n      dup2\n        /* \"contracts/Gauge.sol\":8978:8989  data.length */\n      mload\n        /* \"contracts/Gauge.sol\":8978:8994  data.length == 0 */\n      eq\n        /* \"contracts/Gauge.sol\":8978:9022  data.length == 0 || abi.decode(data, (bool)) */\n      dup1\n      tag_541\n      jumpi\n      pop\n        /* \"contracts/Gauge.sol\":9009:9013  data */\n      dup1\n        /* \"contracts/Gauge.sol\":8998:9022  abi.decode(data, (bool)) */\n      dup1\n      0x20\n      add\n      swap1\n      mload\n      dup2\n      add\n      swap1\n      tag_542\n      swap2\n      swap1\n      tag_529\n      jump\t// in\n    tag_542:\n        /* \"contracts/Gauge.sol\":8978:9022  data.length == 0 || abi.decode(data, (bool)) */\n    tag_541:\n        /* \"contracts/Gauge.sol\":8966:9023  success && (data.length == 0 || abi.decode(data, (bool))) */\n    tag_540:\n        /* \"contracts/Gauge.sol\":8958:9059  require(success && (data.length == 0 || abi.decode(data, (bool))), 'TransferHelper: TRANSFER_FAILED') */\n      tag_543\n      jumpi\n      mload(0x40)\n      0x08c379a000000000000000000000000000000000000000000000000000000000\n      dup2\n      mstore\n      0x04\n      add\n      tag_544\n      swap1\n      tag_545\n      jump\t// in\n    tag_544:\n      mload(0x40)\n      dup1\n      swap2\n      sub\n      swap1\n      revert\n    tag_543:\n        /* \"contracts/Gauge.sol\":8779:9066  {... */\n      pop\n      pop\n        /* \"contracts/Gauge.sol\":8709:9066  function safeTransfer(address token, address to, uint value) internal {... */\n      pop\n      pop\n      pop\n      jump\t// out\n        /* \"contracts/Gauge.sol\":21110:21444  function _calcRewardPerToken(address token, uint timestamp1, uint timestamp0, uint supply, uint startTimestamp) internal view returns (uint, uint) {... */\n    tag_460:\n        /* \"contracts/Gauge.sol\":21245:21249  uint */\n      0x00\n        /* \"contracts/Gauge.sol\":21251:21255  uint */\n      dup1\n        /* \"contracts/Gauge.sol\":21267:21279  uint endTime */\n      0x00\n        /* \"contracts/Gauge.sol\":21282:21318  Math.max(timestamp1, startTimestamp) */\n      tag_547\n        /* \"contracts/Gauge.sol\":21291:21301  timestamp1 */\n      dup8\n        /* \"contracts/Gauge.sol\":21303:21317  startTimestamp */\n      dup6\n        /* \"contracts/Gauge.sol\":21282:21290  Math.max */\n      tag_210\n        /* \"contracts/Gauge.sol\":21282:21318  Math.max(timestamp1, startTimestamp) */\n      jump\t// in\n    tag_547:\n        /* \"contracts/Gauge.sol\":21267:21318  uint endTime = Math.max(timestamp1, startTimestamp) */\n      swap1\n      pop\n        /* \"contracts/Gauge.sol\":21420:21426  supply */\n      dup5\n        /* \"contracts/Gauge.sol\":10500:10508  10 ** 18 */\n      0x0de0b6b3a7640000\n        /* \"contracts/Gauge.sol\":21388:21398  rewardRate */\n      0x03\n        /* \"contracts/Gauge.sol\":21388:21405  rewardRate[token] */\n      0x00\n        /* \"contracts/Gauge.sol\":21399:21404  token */\n      dup12\n        /* \"contracts/Gauge.sol\":21388:21405  rewardRate[token] */\n      0xffffffffffffffffffffffffffffffffffffffff\n      and\n      0xffffffffffffffffffffffffffffffffffffffff\n      and\n      dup2\n      mstore\n      0x20\n      add\n      swap1\n      dup2\n      mstore\n      0x20\n      add\n      0x00\n      keccak256\n      sload\n        /* \"contracts/Gauge.sol\":21348:21384  Math.max(timestamp0, startTimestamp) */\n      tag_548\n        /* \"contracts/Gauge.sol\":21357:21367  timestamp0 */\n      dup10\n        /* \"contracts/Gauge.sol\":21369:21383  startTimestamp */\n      dup9\n        /* \"contracts/Gauge.sol\":21348:21356  Math.max */\n      tag_210\n        /* \"contracts/Gauge.sol\":21348:21384  Math.max(timestamp0, startTimestamp) */\n      jump\t// in\n    tag_548:\n        /* \"contracts/Gauge.sol\":21338:21345  endTime */\n      dup5\n        /* \"contracts/Gauge.sol\":21338:21384  endTime - Math.max(timestamp0, startTimestamp) */\n      tag_549\n      swap2\n      swap1\n      tag_192\n      jump\t// in\n    tag_549:\n        /* \"contracts/Gauge.sol\":21337:21405  (endTime - Math.max(timestamp0, startTimestamp)) * rewardRate[token] */\n      tag_550\n      swap2\n      swap1\n      tag_226\n      jump\t// in\n    tag_550:\n        /* \"contracts/Gauge.sol\":21337:21417  (endTime - Math.max(timestamp0, startTimestamp)) * rewardRate[token] * PRECISION */\n      tag_551\n      swap2\n      swap1\n      tag_226\n      jump\t// in\n    tag_551:\n        /* \"contracts/Gauge.sol\":21337:21426  (endTime - Math.max(timestamp0, startTimestamp)) * rewardRate[token] * PRECISION / supply */\n      tag_552\n      swap2\n      swap1\n      tag_201\n      jump\t// in\n    tag_552:\n        /* \"contracts/Gauge.sol\":21429:21436  endTime */\n      dup2\n        /* \"contracts/Gauge.sol\":21328:21437  return (((endTime - Math.max(timestamp0, startTimestamp)) * rewardRate[token] * PRECISION / supply), endTime) */\n      swap3\n      pop\n      swap3\n      pop\n      pop\n        /* \"contracts/Gauge.sol\":21110:21444  function _calcRewardPerToken(address token, uint timestamp1, uint timestamp0, uint supply, uint startTimestamp) internal view returns (uint, uint) {... */\n      swap6\n      pop\n      swap6\n      swap4\n      pop\n      pop\n      pop\n      pop\n      jump\t// out\n        /* \"contracts/Gauge.sol\":17212:17475  function _safeTransferFromToken(address token, uint256 _amount) private {... */\n    tag_472:\n        /* \"contracts/Gauge.sol\":17294:17305  uint256 bal */\n      0x00\n        /* \"contracts/Gauge.sol\":17315:17320  token */\n      dup3\n        /* \"contracts/Gauge.sol\":17308:17331  IERC20(token).balanceOf */\n      0xffffffffffffffffffffffffffffffffffffffff\n      and\n      0x70a08231\n        /* \"contracts/Gauge.sol\":17340:17344  this */\n      address\n        /* \"contracts/Gauge.sol\":17308:17346  IERC20(token).balanceOf(address(this)) */\n      mload(0x40)\n      dup3\n      0xffffffff\n      and\n      0xe0\n      shl\n      dup2\n      mstore\n      0x04\n      add\n      tag_554\n      swap2\n      swap1\n      tag_90\n      jump\t// in\n    tag_554:\n      0x20\n      mload(0x40)\n      dup1\n      dup4\n      sub\n      dup2\n      dup7\n      gas\n      staticcall\n      iszero\n      dup1\n      iszero\n      tag_556\n      jumpi\n      returndatasize\n      0x00\n      dup1\n      returndatacopy\n      revert(0x00, returndatasize)\n    tag_556:\n      pop\n      pop\n      pop\n      pop\n      mload(0x40)\n      returndatasize\n      not(0x1f)\n      0x1f\n      dup3\n      add\n      and\n      dup3\n      add\n      dup1\n      0x40\n      mstore\n      pop\n      dup2\n      add\n      swap1\n      tag_557\n      swap2\n      swap1\n      tag_329\n      jump\t// in\n    tag_557:\n        /* \"contracts/Gauge.sol\":17294:17346  uint256 bal = IERC20(token).balanceOf(address(this)) */\n      swap1\n      pop\n        /* \"contracts/Gauge.sol\":17366:17373  _amount */\n      dup2\n        /* \"contracts/Gauge.sol\":17360:17363  bal */\n      dup2\n        /* \"contracts/Gauge.sol\":17360:17373  bal < _amount */\n      lt\n        /* \"contracts/Gauge.sol\":17356:17469  if (bal < _amount) {... */\n      iszero\n      tag_558\n      jumpi\n        /* \"contracts/Gauge.sol\":17389:17458  TransferHelper.safeTransferFrom(token, boost, address(this), _amount) */\n      tag_559\n        /* \"contracts/Gauge.sol\":17421:17426  token */\n      dup4\n        /* \"contracts/Gauge.sol\":17428:17433  boost */\n      immutable(\"0x8e831a88d8106460d1544aa376ec6155091b50c6145ad03273db7938ca17c5b1\")\n        /* \"contracts/Gauge.sol\":17443:17447  this */\n      address\n        /* \"contracts/Gauge.sol\":17450:17457  _amount */\n      dup6\n        /* \"contracts/Gauge.sol\":17389:17420  TransferHelper.safeTransferFrom */\n      tag_362\n        /* \"contracts/Gauge.sol\":17389:17458  TransferHelper.safeTransferFrom(token, boost, address(this), _amount) */\n      jump\t// in\n    tag_559:\n        /* \"contracts/Gauge.sol\":17356:17469  if (bal < _amount) {... */\n    tag_558:\n        /* \"contracts/Gauge.sol\":17284:17475  {... */\n      pop\n        /* \"contracts/Gauge.sol\":17212:17475  function _safeTransferFromToken(address token, uint256 _amount) private {... */\n      pop\n      pop\n      jump\t// out\n        /* \"#utility.yul\":7:82   */\n    tag_560:\n        /* \"#utility.yul\":40:46   */\n      0x00\n        /* \"#utility.yul\":73:75   */\n      0x40\n        /* \"#utility.yul\":67:76   */\n      mload\n        /* \"#utility.yul\":57:76   */\n      swap1\n      pop\n        /* \"#utility.yul\":7:82   */\n      swap1\n      jump\t// out\n        /* \"#utility.yul\":88:205   */\n    tag_561:\n        /* \"#utility.yul\":197:198   */\n      0x00\n        /* \"#utility.yul\":194:195   */\n      dup1\n        /* \"#utility.yul\":187:199   */\n      revert\n        /* \"#utility.yul\":211:328   */\n    tag_562:\n        /* \"#utility.yul\":320:321   */\n      0x00\n        /* \"#utility.yul\":317:318   */\n      dup1\n        /* \"#utility.yul\":310:322   */\n      revert\n        /* \"#utility.yul\":334:460   */\n    tag_563:\n        /* \"#utility.yul\":371:378   */\n      0x00\n        /* \"#utility.yul\":411:453   */\n      0xffffffffffffffffffffffffffffffffffffffff\n        /* \"#utility.yul\":404:409   */\n      dup3\n        /* \"#utility.yul\":400:454   */\n      and\n        /* \"#utility.yul\":389:454   */\n      swap1\n      pop\n        /* \"#utility.yul\":334:460   */\n      swap2\n      swap1\n      pop\n      jump\t// out\n        /* \"#utility.yul\":466:562   */\n    tag_564:\n        /* \"#utility.yul\":503:510   */\n      0x00\n        /* \"#utility.yul\":532:556   */\n      tag_608\n        /* \"#utility.yul\":550:555   */\n      dup3\n        /* \"#utility.yul\":532:556   */\n      tag_563\n      jump\t// in\n    tag_608:\n        /* \"#utility.yul\":521:556   */\n      swap1\n      pop\n        /* \"#utility.yul\":466:562   */\n      swap2\n      swap1\n      pop\n      jump\t// out\n        /* \"#utility.yul\":568:690   */\n    tag_565:\n        /* \"#utility.yul\":641:665   */\n      tag_610\n        /* \"#utility.yul\":659:664   */\n      dup2\n        /* \"#utility.yul\":641:665   */\n      tag_564\n      jump\t// in\n    tag_610:\n        /* \"#utility.yul\":634:639   */\n      dup2\n        /* \"#utility.yul\":631:666   */\n      eq\n        /* \"#utility.yul\":621:684   */\n      tag_611\n      jumpi\n        /* \"#utility.yul\":680:681   */\n      0x00\n        /* \"#utility.yul\":677:678   */\n      dup1\n        /* \"#utility.yul\":670:682   */\n      revert\n        /* \"#utility.yul\":621:684   */\n    tag_611:\n        /* \"#utility.yul\":568:690   */\n      pop\n      jump\t// out\n        /* \"#utility.yul\":696:835   */\n    tag_566:\n        /* \"#utility.yul\":742:747   */\n      0x00\n        /* \"#utility.yul\":780:786   */\n      dup2\n        /* \"#utility.yul\":767:787   */\n      calldataload\n        /* \"#utility.yul\":758:787   */\n      swap1\n      pop\n        /* \"#utility.yul\":796:829   */\n      tag_613\n        /* \"#utility.yul\":823:828   */\n      dup2\n        /* \"#utility.yul\":796:829   */\n      tag_565\n      jump\t// in\n    tag_613:\n        /* \"#utility.yul\":696:835   */\n      swap3\n      swap2\n      pop\n      pop\n      jump\t// out\n        /* \"#utility.yul\":841:918   */\n    tag_567:\n        /* \"#utility.yul\":878:885   */\n      0x00\n        /* \"#utility.yul\":907:912   */\n      dup2\n        /* \"#utility.yul\":896:912   */\n      swap1\n      pop\n        /* \"#utility.yul\":841:918   */\n      swap2\n      swap1\n      pop\n      jump\t// out\n        /* \"#utility.yul\":924:1046   */\n    tag_568:\n        /* \"#utility.yul\":997:1021   */\n      tag_616\n        /* \"#utility.yul\":1015:1020   */\n      dup2\n        /* \"#utility.yul\":997:1021   */\n      tag_567\n      jump\t// in\n    tag_616:\n        /* \"#utility.yul\":990:995   */\n      dup2\n        /* \"#utility.yul\":987:1022   */\n      eq\n        /* \"#utility.yul\":977:1040   */\n      tag_617\n      jumpi\n        /* \"#utility.yul\":1036:1037   */\n      0x00\n        /* \"#utility.yul\":1033:1034   */\n      dup1\n        /* \"#utility.yul\":1026:1038   */\n      revert\n        /* \"#utility.yul\":977:1040   */\n    tag_617:\n        /* \"#utility.yul\":924:1046   */\n      pop\n      jump\t// out\n        /* \"#utility.yul\":1052:1191   */\n    tag_569:\n        /* \"#utility.yul\":1098:1103   */\n      0x00\n        /* \"#utility.yul\":1136:1142   */\n      dup2\n        /* \"#utility.yul\":1123:1143   */\n      calldataload\n        /* \"#utility.yul\":1114:1143   */\n      swap1\n      pop\n        /* \"#utility.yul\":1152:1185   */\n      tag_619\n        /* \"#utility.yul\":1179:1184   */\n      dup2\n        /* \"#utility.yul\":1152:1185   */\n      tag_568\n      jump\t// in\n    tag_619:\n        /* \"#utility.yul\":1052:1191   */\n      swap3\n      swap2\n      pop\n      pop\n      jump\t// out\n        /* \"#utility.yul\":1197:1671   */\n    tag_49:\n        /* \"#utility.yul\":1265:1271   */\n      0x00\n        /* \"#utility.yul\":1273:1279   */\n      dup1\n        /* \"#utility.yul\":1322:1324   */\n      0x40\n        /* \"#utility.yul\":1310:1319   */\n      dup4\n        /* \"#utility.yul\":1301:1308   */\n      dup6\n        /* \"#utility.yul\":1297:1320   */\n      sub\n        /* \"#utility.yul\":1293:1325   */\n      slt\n        /* \"#utility.yul\":1290:1409   */\n      iszero\n      tag_621\n      jumpi\n        /* \"#utility.yul\":1328:1407   */\n      tag_622\n      tag_561\n      jump\t// in\n    tag_622:\n        /* \"#utility.yul\":1290:1409   */\n    tag_621:\n        /* \"#utility.yul\":1448:1449   */\n      0x00\n        /* \"#utility.yul\":1473:1526   */\n      tag_623\n        /* \"#utility.yul\":1518:1525   */\n      dup6\n        /* \"#utility.yul\":1509:1515   */\n      dup3\n        /* \"#utility.yul\":1498:1507   */\n      dup7\n        /* \"#utility.yul\":1494:1516   */\n      add\n        /* \"#utility.yul\":1473:1526   */\n      tag_566\n      jump\t// in\n    tag_623:\n        /* \"#utility.yul\":1463:1526   */\n      swap3\n      pop\n        /* \"#utility.yul\":1419:1536   */\n      pop\n        /* \"#utility.yul\":1575:1577   */\n      0x20\n        /* \"#utility.yul\":1601:1654   */\n      tag_624\n        /* \"#utility.yul\":1646:1653   */\n      dup6\n        /* \"#utility.yul\":1637:1643   */\n      dup3\n        /* \"#utility.yul\":1626:1635   */\n      dup7\n        /* \"#utility.yul\":1622:1644   */\n      add\n        /* \"#utility.yul\":1601:1654   */\n      tag_569\n      jump\t// in\n    tag_624:\n        /* \"#utility.yul\":1591:1654   */\n      swap2\n      pop\n        /* \"#utility.yul\":1546:1664   */\n      pop\n        /* \"#utility.yul\":1197:1671   */\n      swap3\n      pop\n      swap3\n      swap1\n      pop\n      jump\t// out\n        /* \"#utility.yul\":1677:1795   */\n    tag_570:\n        /* \"#utility.yul\":1764:1788   */\n      tag_626\n        /* \"#utility.yul\":1782:1787   */\n      dup2\n        /* \"#utility.yul\":1764:1788   */\n      tag_567\n      jump\t// in\n    tag_626:\n        /* \"#utility.yul\":1759:1762   */\n      dup3\n        /* \"#utility.yul\":1752:1789   */\n      mstore\n        /* \"#utility.yul\":1677:1795   */\n      pop\n      pop\n      jump\t// out\n        /* \"#utility.yul\":1801:2133   */\n    tag_52:\n        /* \"#utility.yul\":1922:1926   */\n      0x00\n        /* \"#utility.yul\":1960:1962   */\n      0x40\n        /* \"#utility.yul\":1949:1958   */\n      dup3\n        /* \"#utility.yul\":1945:1963   */\n      add\n        /* \"#utility.yul\":1937:1963   */\n      swap1\n      pop\n        /* \"#utility.yul\":1973:2044   */\n      tag_628\n        /* \"#utility.yul\":2041:2042   */\n      0x00\n        /* \"#utility.yul\":2030:2039   */\n      dup4\n        /* \"#utility.yul\":2026:2043   */\n      add\n        /* \"#utility.yul\":2017:2023   */\n      dup6\n        /* \"#utility.yul\":1973:2044   */\n      tag_570\n      jump\t// in\n    tag_628:\n        /* \"#utility.yul\":2054:2126   */\n      tag_629\n        /* \"#utility.yul\":2122:2124   */\n      0x20\n        /* \"#utility.yul\":2111:2120   */\n      dup4\n        /* \"#utility.yul\":2107:2125   */\n      add\n        /* \"#utility.yul\":2098:2104   */\n      dup5\n        /* \"#utility.yul\":2054:2126   */\n      tag_570\n      jump\t// in\n    tag_629:\n        /* \"#utility.yul\":1801:2133   */\n      swap4\n      swap3\n      pop\n      pop\n      pop\n      jump\t// out\n        /* \"#utility.yul\":2139:2361   */\n    tag_61:\n        /* \"#utility.yul\":2232:2236   */\n      0x00\n        /* \"#utility.yul\":2270:2272   */\n      0x20\n        /* \"#utility.yul\":2259:2268   */\n      dup3\n        /* \"#utility.yul\":2255:2273   */\n      add\n        /* \"#utility.yul\":2247:2273   */\n      swap1\n      pop\n        /* \"#utility.yul\":2283:2354   */\n      tag_631\n        /* \"#utility.yul\":2351:2352   */\n      0x00\n        /* \"#utility.yul\":2340:2349   */\n      dup4\n        /* \"#utility.yul\":2336:2353   */\n      add\n        /* \"#utility.yul\":2327:2333   */\n      dup5\n        /* \"#utility.yul\":2283:2354   */\n      tag_570\n      jump\t// in\n    tag_631:\n        /* \"#utility.yul\":2139:2361   */\n      swap3\n      swap2\n      pop\n      pop\n      jump\t// out\n        /* \"#utility.yul\":2367:2841   */\n    tag_67:\n        /* \"#utility.yul\":2435:2441   */\n      0x00\n        /* \"#utility.yul\":2443:2449   */\n      dup1\n        /* \"#utility.yul\":2492:2494   */\n      0x40\n        /* \"#utility.yul\":2480:2489   */\n      dup4\n        /* \"#utility.yul\":2471:2478   */\n      dup6\n        /* \"#utility.yul\":2467:2490   */\n      sub\n        /* \"#utility.yul\":2463:2495   */\n      slt\n        /* \"#utility.yul\":2460:2579   */\n      iszero\n      tag_633\n      jumpi\n        /* \"#utility.yul\":2498:2577   */\n      tag_634\n      tag_561\n      jump\t// in\n    tag_634:\n        /* \"#utility.yul\":2460:2579   */\n    tag_633:\n        /* \"#utility.yul\":2618:2619   */\n      0x00\n        /* \"#utility.yul\":2643:2696   */\n      tag_635\n        /* \"#utility.yul\":2688:2695   */\n      dup6\n        /* \"#utility.yul\":2679:2685   */\n      dup3\n        /* \"#utility.yul\":2668:2677   */\n      dup7\n        /* \"#utility.yul\":2664:2686   */\n      add\n        /* \"#utility.yul\":2643:2696   */\n      tag_566\n      jump\t// in\n    tag_635:\n        /* \"#utility.yul\":2633:2696   */\n      swap3\n      pop\n        /* \"#utility.yul\":2589:2706   */\n      pop\n        /* \"#utility.yul\":2745:2747   */\n      0x20\n        /* \"#utility.yul\":2771:2824   */\n      tag_636\n        /* \"#utility.yul\":2816:2823   */\n      dup6\n        /* \"#utility.yul\":2807:2813   */\n      dup3\n        /* \"#utility.yul\":2796:2805   */\n      dup7\n        /* \"#utility.yul\":2792:2814   */\n      add\n        /* \"#utility.yul\":2771:2824   */\n      tag_566\n      jump\t// in\n    tag_636:\n        /* \"#utility.yul\":2761:2824   */\n      swap2\n      pop\n        /* \"#utility.yul\":2716:2834   */\n      pop\n        /* \"#utility.yul\":2367:2841   */\n      swap3\n      pop\n      swap3\n      swap1\n      pop\n      jump\t// out\n        /* \"#utility.yul\":2847:3176   */\n    tag_72:\n        /* \"#utility.yul\":2906:2912   */\n      0x00\n        /* \"#utility.yul\":2955:2957   */\n      0x20\n        /* \"#utility.yul\":2943:2952   */\n      dup3\n        /* \"#utility.yul\":2934:2941   */\n      dup5\n        /* \"#utility.yul\":2930:2953   */\n      sub\n        /* \"#utility.yul\":2926:2958   */\n      slt\n        /* \"#utility.yul\":2923:3042   */\n      iszero\n      tag_638\n      jumpi\n        /* \"#utility.yul\":2961:3040   */\n      tag_639\n      tag_561\n      jump\t// in\n    tag_639:\n        /* \"#utility.yul\":2923:3042   */\n    tag_638:\n        /* \"#utility.yul\":3081:3082   */\n      0x00\n        /* \"#utility.yul\":3106:3159   */\n      tag_640\n        /* \"#utility.yul\":3151:3158   */\n      dup5\n        /* \"#utility.yul\":3142:3148   */\n      dup3\n        /* \"#utility.yul\":3131:3140   */\n      dup6\n        /* \"#utility.yul\":3127:3149   */\n      add\n        /* \"#utility.yul\":3106:3159   */\n      tag_566\n      jump\t// in\n    tag_640:\n        /* \"#utility.yul\":3096:3159   */\n      swap2\n      pop\n        /* \"#utility.yul\":3052:3169   */\n      pop\n        /* \"#utility.yul\":2847:3176   */\n      swap3\n      swap2\n      pop\n      pop\n      jump\t// out\n        /* \"#utility.yul\":3182:3511   */\n    tag_81:\n        /* \"#utility.yul\":3241:3247   */\n      0x00\n        /* \"#utility.yul\":3290:3292   */\n      0x20\n        /* \"#utility.yul\":3278:3287   */\n      dup3\n        /* \"#utility.yul\":3269:3276   */\n      dup5\n        /* \"#utility.yul\":3265:3288   */\n      sub\n        /* \"#utility.yul\":3261:3293   */\n      slt\n        /* \"#utility.yul\":3258:3377   */\n      iszero\n      tag_642\n      jumpi\n        /* \"#utility.yul\":3296:3375   */\n      tag_643\n      tag_561\n      jump\t// in\n    tag_643:\n        /* \"#utility.yul\":3258:3377   */\n    tag_642:\n        /* \"#utility.yul\":3416:3417   */\n      0x00\n        /* \"#utility.yul\":3441:3494   */\n      tag_644\n        /* \"#utility.yul\":3486:3493   */\n      dup5\n        /* \"#utility.yul\":3477:3483   */\n      dup3\n        /* \"#utility.yul\":3466:3475   */\n      dup6\n        /* \"#utility.yul\":3462:3484   */\n      add\n        /* \"#utility.yul\":3441:3494   */\n      tag_569\n      jump\t// in\n    tag_644:\n        /* \"#utility.yul\":3431:3494   */\n      swap2\n      pop\n        /* \"#utility.yul\":3387:3504   */\n      pop\n        /* \"#utility.yul\":3182:3511   */\n      swap3\n      swap2\n      pop\n      pop\n      jump\t// out\n        /* \"#utility.yul\":3517:3634   */\n    tag_571:\n        /* \"#utility.yul\":3626:3627   */\n      0x00\n        /* \"#utility.yul\":3623:3624   */\n      dup1\n        /* \"#utility.yul\":3616:3628   */\n      revert\n        /* \"#utility.yul\":3640:3742   */\n    tag_572:\n        /* \"#utility.yul\":3681:3687   */\n      0x00\n        /* \"#utility.yul\":3732:3734   */\n      0x1f\n        /* \"#utility.yul\":3728:3735   */\n      not\n        /* \"#utility.yul\":3723:3725   */\n      0x1f\n        /* \"#utility.yul\":3716:3721   */\n      dup4\n        /* \"#utility.yul\":3712:3726   */\n      add\n        /* \"#utility.yul\":3708:3736   */\n      and\n        /* \"#utility.yul\":3698:3736   */\n      swap1\n      pop\n        /* \"#utility.yul\":3640:3742   */\n      swap2\n      swap1\n      pop\n      jump\t// out\n        /* \"#utility.yul\":3748:3928   */\n    tag_573:\n        /* \"#utility.yul\":3796:3873   */\n      0x4e487b7100000000000000000000000000000000000000000000000000000000\n        /* \"#utility.yul\":3793:3794   */\n      0x00\n        /* \"#utility.yul\":3786:3874   */\n      mstore\n        /* \"#utility.yul\":3893:3897   */\n      0x41\n        /* \"#utility.yul\":3890:3891   */\n      0x04\n        /* \"#utility.yul\":3883:3898   */\n      mstore\n        /* \"#utility.yul\":3917:3921   */\n      0x24\n        /* \"#utility.yul\":3914:3915   */\n      0x00\n        /* \"#utility.yul\":3907:3922   */\n      revert\n        /* \"#utility.yul\":3934:4215   */\n    tag_574:\n        /* \"#utility.yul\":4017:4044   */\n      tag_649\n        /* \"#utility.yul\":4039:4043   */\n      dup3\n        /* \"#utility.yul\":4017:4044   */\n      tag_572\n      jump\t// in\n    tag_649:\n        /* \"#utility.yul\":4009:4015   */\n      dup2\n        /* \"#utility.yul\":4005:4045   */\n      add\n        /* \"#utility.yul\":4147:4153   */\n      dup2\n        /* \"#utility.yul\":4135:4145   */\n      dup2\n        /* \"#utility.yul\":4132:4154   */\n      lt\n        /* \"#utility.yul\":4111:4129   */\n      0xffffffffffffffff\n        /* \"#utility.yul\":4099:4109   */\n      dup3\n        /* \"#utility.yul\":4096:4130   */\n      gt\n        /* \"#utility.yul\":4093:4155   */\n      or\n        /* \"#utility.yul\":4090:4178   */\n      iszero\n      tag_650\n      jumpi\n        /* \"#utility.yul\":4158:4176   */\n      tag_651\n      tag_573\n      jump\t// in\n    tag_651:\n        /* \"#utility.yul\":4090:4178   */\n    tag_650:\n        /* \"#utility.yul\":4198:4208   */\n      dup1\n        /* \"#utility.yul\":4194:4196   */\n      0x40\n        /* \"#utility.yul\":4187:4209   */\n      mstore\n        /* \"#utility.yul\":3977:4215   */\n      pop\n        /* \"#utility.yul\":3934:4215   */\n      pop\n      pop\n      jump\t// out\n        /* \"#utility.yul\":4221:4350   */\n    tag_575:\n        /* \"#utility.yul\":4255:4261   */\n      0x00\n        /* \"#utility.yul\":4282:4302   */\n      tag_653\n      tag_560\n      jump\t// in\n    tag_653:\n        /* \"#utility.yul\":4272:4302   */\n      swap1\n      pop\n        /* \"#utility.yul\":4311:4344   */\n      tag_654\n        /* \"#utility.yul\":4339:4343   */\n      dup3\n        /* \"#utility.yul\":4331:4337   */\n      dup3\n        /* \"#utility.yul\":4311:4344   */\n      tag_574\n      jump\t// in\n    tag_654:\n        /* \"#utility.yul\":4221:4350   */\n      swap2\n      swap1\n      pop\n      jump\t// out\n        /* \"#utility.yul\":4356:4667   */\n    tag_576:\n        /* \"#utility.yul\":4433:4437   */\n      0x00\n        /* \"#utility.yul\":4523:4541   */\n      0xffffffffffffffff\n        /* \"#utility.yul\":4515:4521   */\n      dup3\n        /* \"#utility.yul\":4512:4542   */\n      gt\n        /* \"#utility.yul\":4509:4565   */\n      iszero\n      tag_656\n      jumpi\n        /* \"#utility.yul\":4545:4563   */\n      tag_657\n      tag_573\n      jump\t// in\n    tag_657:\n        /* \"#utility.yul\":4509:4565   */\n    tag_656:\n        /* \"#utility.yul\":4595:4599   */\n      0x20\n        /* \"#utility.yul\":4587:4593   */\n      dup3\n        /* \"#utility.yul\":4583:4600   */\n      mul\n        /* \"#utility.yul\":4575:4600   */\n      swap1\n      pop\n        /* \"#utility.yul\":4655:4659   */\n      0x20\n        /* \"#utility.yul\":4649:4653   */\n      dup2\n        /* \"#utility.yul\":4645:4660   */\n      add\n        /* \"#utility.yul\":4637:4660   */\n      swap1\n      pop\n        /* \"#utility.yul\":4356:4667   */\n      swap2\n      swap1\n      pop\n      jump\t// out\n        /* \"#utility.yul\":4673:4790   */\n    tag_577:\n        /* \"#utility.yul\":4782:4783   */\n      0x00\n        /* \"#utility.yul\":4779:4780   */\n      dup1\n        /* \"#utility.yul\":4772:4784   */\n      revert\n        /* \"#utility.yul\":4813:5523   */\n    tag_578:\n        /* \"#utility.yul\":4909:4914   */\n      0x00\n        /* \"#utility.yul\":4934:5015   */\n      tag_660\n        /* \"#utility.yul\":4950:5014   */\n      tag_661\n        /* \"#utility.yul\":5007:5013   */\n      dup5\n        /* \"#utility.yul\":4950:5014   */\n      tag_576\n      jump\t// in\n    tag_661:\n        /* \"#utility.yul\":4934:5015   */\n      tag_575\n      jump\t// in\n    tag_660:\n        /* \"#utility.yul\":4925:5015   */\n      swap1\n      pop\n        /* \"#utility.yul\":5035:5040   */\n      dup1\n        /* \"#utility.yul\":5064:5070   */\n      dup4\n        /* \"#utility.yul\":5057:5062   */\n      dup3\n        /* \"#utility.yul\":5050:5071   */\n      mstore\n        /* \"#utility.yul\":5098:5102   */\n      0x20\n        /* \"#utility.yul\":5091:5096   */\n      dup3\n        /* \"#utility.yul\":5087:5103   */\n      add\n        /* \"#utility.yul\":5080:5103   */\n      swap1\n      pop\n        /* \"#utility.yul\":5151:5155   */\n      0x20\n        /* \"#utility.yul\":5143:5149   */\n      dup5\n        /* \"#utility.yul\":5139:5156   */\n      mul\n        /* \"#utility.yul\":5131:5137   */\n      dup4\n        /* \"#utility.yul\":5127:5157   */\n      add\n        /* \"#utility.yul\":5180:5183   */\n      dup6\n        /* \"#utility.yul\":5172:5178   */\n      dup2\n        /* \"#utility.yul\":5169:5184   */\n      gt\n        /* \"#utility.yul\":5166:5288   */\n      iszero\n      tag_662\n      jumpi\n        /* \"#utility.yul\":5199:5278   */\n      tag_663\n      tag_577\n      jump\t// in\n    tag_663:\n        /* \"#utility.yul\":5166:5288   */\n    tag_662:\n        /* \"#utility.yul\":5314:5320   */\n      dup4\n        /* \"#utility.yul\":5297:5517   */\n    tag_664:\n        /* \"#utility.yul\":5331:5337   */\n      dup2\n        /* \"#utility.yul\":5326:5329   */\n      dup2\n        /* \"#utility.yul\":5323:5338   */\n      lt\n        /* \"#utility.yul\":5297:5517   */\n      iszero\n      tag_666\n      jumpi\n        /* \"#utility.yul\":5406:5409   */\n      dup1\n        /* \"#utility.yul\":5435:5472   */\n      tag_667\n        /* \"#utility.yul\":5468:5471   */\n      dup9\n        /* \"#utility.yul\":5456:5466   */\n      dup3\n        /* \"#utility.yul\":5435:5472   */\n      tag_566\n      jump\t// in\n    tag_667:\n        /* \"#utility.yul\":5430:5433   */\n      dup5\n        /* \"#utility.yul\":5423:5473   */\n      mstore\n        /* \"#utility.yul\":5502:5506   */\n      0x20\n        /* \"#utility.yul\":5497:5500   */\n      dup5\n        /* \"#utility.yul\":5493:5507   */\n      add\n        /* \"#utility.yul\":5486:5507   */\n      swap4\n      pop\n        /* \"#utility.yul\":5373:5517   */\n      pop\n        /* \"#utility.yul\":5357:5361   */\n      0x20\n        /* \"#utility.yul\":5352:5355   */\n      dup2\n        /* \"#utility.yul\":5348:5362   */\n      add\n        /* \"#utility.yul\":5341:5362   */\n      swap1\n      pop\n        /* \"#utility.yul\":5297:5517   */\n      jump(tag_664)\n    tag_666:\n        /* \"#utility.yul\":5301:5322   */\n      pop\n        /* \"#utility.yul\":4915:5523   */\n      pop\n      pop\n        /* \"#utility.yul\":4813:5523   */\n      swap4\n      swap3\n      pop\n      pop\n      pop\n      jump\t// out\n        /* \"#utility.yul\":5546:5916   */\n    tag_579:\n        /* \"#utility.yul\":5617:5622   */\n      0x00\n        /* \"#utility.yul\":5666:5669   */\n      dup3\n        /* \"#utility.yul\":5659:5663   */\n      0x1f\n        /* \"#utility.yul\":5651:5657   */\n      dup4\n        /* \"#utility.yul\":5647:5664   */\n      add\n        /* \"#utility.yul\":5643:5670   */\n      slt\n        /* \"#utility.yul\":5633:5755   */\n      tag_669\n      jumpi\n        /* \"#utility.yul\":5674:5753   */\n      tag_670\n      tag_571\n      jump\t// in\n    tag_670:\n        /* \"#utility.yul\":5633:5755   */\n    tag_669:\n        /* \"#utility.yul\":5791:5797   */\n      dup2\n        /* \"#utility.yul\":5778:5798   */\n      calldataload\n        /* \"#utility.yul\":5816:5910   */\n      tag_671\n        /* \"#utility.yul\":5906:5909   */\n      dup5\n        /* \"#utility.yul\":5898:5904   */\n      dup3\n        /* \"#utility.yul\":5891:5895   */\n      0x20\n        /* \"#utility.yul\":5883:5889   */\n      dup7\n        /* \"#utility.yul\":5879:5896   */\n      add\n        /* \"#utility.yul\":5816:5910   */\n      tag_578\n      jump\t// in\n    tag_671:\n        /* \"#utility.yul\":5807:5910   */\n      swap2\n      pop\n        /* \"#utility.yul\":5623:5916   */\n      pop\n        /* \"#utility.yul\":5546:5916   */\n      swap3\n      swap2\n      pop\n      pop\n      jump\t// out\n        /* \"#utility.yul\":5922:6606   */\n    tag_85:\n        /* \"#utility.yul\":6015:6021   */\n      0x00\n        /* \"#utility.yul\":6023:6029   */\n      dup1\n        /* \"#utility.yul\":6072:6074   */\n      0x40\n        /* \"#utility.yul\":6060:6069   */\n      dup4\n        /* \"#utility.yul\":6051:6058   */\n      dup6\n        /* \"#utility.yul\":6047:6070   */\n      sub\n        /* \"#utility.yul\":6043:6075   */\n      slt\n        /* \"#utility.yul\":6040:6159   */\n      iszero\n      tag_673\n      jumpi\n        /* \"#utility.yul\":6078:6157   */\n      tag_674\n      tag_561\n      jump\t// in\n    tag_674:\n        /* \"#utility.yul\":6040:6159   */\n    tag_673:\n        /* \"#utility.yul\":6198:6199   */\n      0x00\n        /* \"#utility.yul\":6223:6276   */\n      tag_675\n        /* \"#utility.yul\":6268:6275   */\n      dup6\n        /* \"#utility.yul\":6259:6265   */\n      dup3\n        /* \"#utility.yul\":6248:6257   */\n      dup7\n        /* \"#utility.yul\":6244:6266   */\n      add\n        /* \"#utility.yul\":6223:6276   */\n      tag_566\n      jump\t// in\n    tag_675:\n        /* \"#utility.yul\":6213:6276   */\n      swap3\n      pop\n        /* \"#utility.yul\":6169:6286   */\n      pop\n        /* \"#utility.yul\":6353:6355   */\n      0x20\n        /* \"#utility.yul\":6342:6351   */\n      dup4\n        /* \"#utility.yul\":6338:6356   */\n      add\n        /* \"#utility.yul\":6325:6357   */\n      calldataload\n        /* \"#utility.yul\":6384:6402   */\n      0xffffffffffffffff\n        /* \"#utility.yul\":6376:6382   */\n      dup2\n        /* \"#utility.yul\":6373:6403   */\n      gt\n        /* \"#utility.yul\":6370:6487   */\n      iszero\n      tag_676\n      jumpi\n        /* \"#utility.yul\":6406:6485   */\n      tag_677\n      tag_562\n      jump\t// in\n    tag_677:\n        /* \"#utility.yul\":6370:6487   */\n    tag_676:\n        /* \"#utility.yul\":6511:6589   */\n      tag_678\n        /* \"#utility.yul\":6581:6588   */\n      dup6\n        /* \"#utility.yul\":6572:6578   */\n      dup3\n        /* \"#utility.yul\":6561:6570   */\n      dup7\n        /* \"#utility.yul\":6557:6579   */\n      add\n        /* \"#utility.yul\":6511:6589   */\n      tag_579\n      jump\t// in\n    tag_678:\n        /* \"#utility.yul\":6501:6589   */\n      swap2\n      pop\n        /* \"#utility.yul\":6296:6599   */\n      pop\n        /* \"#utility.yul\":5922:6606   */\n      swap3\n      pop\n      swap3\n      swap1\n      pop\n      jump\t// out\n        /* \"#utility.yul\":6612:6730   */\n    tag_580:\n        /* \"#utility.yul\":6699:6723   */\n      tag_680\n        /* \"#utility.yul\":6717:6722   */\n      dup2\n        /* \"#utility.yul\":6699:6723   */\n      tag_564\n      jump\t// in\n    tag_680:\n        /* \"#utility.yul\":6694:6697   */\n      dup3\n        /* \"#utility.yul\":6687:6724   */\n      mstore\n        /* \"#utility.yul\":6612:6730   */\n      pop\n      pop\n      jump\t// out\n        /* \"#utility.yul\":6736:6958   */\n    tag_90:\n        /* \"#utility.yul\":6829:6833   */\n      0x00\n        /* \"#utility.yul\":6867:6869   */\n      0x20\n        /* \"#utility.yul\":6856:6865   */\n      dup3\n        /* \"#utility.yul\":6852:6870   */\n      add\n        /* \"#utility.yul\":6844:6870   */\n      swap1\n      pop\n        /* \"#utility.yul\":6880:6951   */\n      tag_682\n        /* \"#utility.yul\":6948:6949   */\n      0x00\n        /* \"#utility.yul\":6937:6946   */\n      dup4\n        /* \"#utility.yul\":6933:6950   */\n      add\n        /* \"#utility.yul\":6924:6930   */\n      dup5\n        /* \"#utility.yul\":6880:6951   */\n      tag_580\n      jump\t// in\n    tag_682:\n        /* \"#utility.yul\":6736:6958   */\n      swap3\n      swap2\n      pop\n      pop\n      jump\t// out\n        /* \"#utility.yul\":6964:7054   */\n    tag_581:\n        /* \"#utility.yul\":6998:7005   */\n      0x00\n        /* \"#utility.yul\":7041:7046   */\n      dup2\n        /* \"#utility.yul\":7034:7047   */\n      iszero\n        /* \"#utility.yul\":7027:7048   */\n      iszero\n        /* \"#utility.yul\":7016:7048   */\n      swap1\n      pop\n        /* \"#utility.yul\":6964:7054   */\n      swap2\n      swap1\n      pop\n      jump\t// out\n        /* \"#utility.yul\":7060:7169   */\n    tag_582:\n        /* \"#utility.yul\":7141:7162   */\n      tag_685\n        /* \"#utility.yul\":7156:7161   */\n      dup2\n        /* \"#utility.yul\":7141:7162   */\n      tag_581\n      jump\t// in\n    tag_685:\n        /* \"#utility.yul\":7136:7139   */\n      dup3\n        /* \"#utility.yul\":7129:7163   */\n      mstore\n        /* \"#utility.yul\":7060:7169   */\n      pop\n      pop\n      jump\t// out\n        /* \"#utility.yul\":7175:7385   */\n    tag_102:\n        /* \"#utility.yul\":7262:7266   */\n      0x00\n        /* \"#utility.yul\":7300:7302   */\n      0x20\n        /* \"#utility.yul\":7289:7298   */\n      dup3\n        /* \"#utility.yul\":7285:7303   */\n      add\n        /* \"#utility.yul\":7277:7303   */\n      swap1\n      pop\n        /* \"#utility.yul\":7313:7378   */\n      tag_687\n        /* \"#utility.yul\":7375:7376   */\n      0x00\n        /* \"#utility.yul\":7364:7373   */\n      dup4\n        /* \"#utility.yul\":7360:7377   */\n      add\n        /* \"#utility.yul\":7351:7357   */\n      dup5\n        /* \"#utility.yul\":7313:7378   */\n      tag_582\n      jump\t// in\n    tag_687:\n        /* \"#utility.yul\":7175:7385   */\n      swap3\n      swap2\n      pop\n      pop\n      jump\t// out\n        /* \"#utility.yul\":7391:7865   */\n    tag_158:\n        /* \"#utility.yul\":7459:7465   */\n      0x00\n        /* \"#utility.yul\":7467:7473   */\n      dup1\n        /* \"#utility.yul\":7516:7518   */\n      0x40\n        /* \"#utility.yul\":7504:7513   */\n      dup4\n        /* \"#utility.yul\":7495:7502   */\n      dup6\n        /* \"#utility.yul\":7491:7514   */\n      sub\n        /* \"#utility.yul\":7487:7519   */\n      slt\n        /* \"#utility.yul\":7484:7603   */\n      iszero\n      tag_689\n      jumpi\n        /* \"#utility.yul\":7522:7601   */\n      tag_690\n      tag_561\n      jump\t// in\n    tag_690:\n        /* \"#utility.yul\":7484:7603   */\n    tag_689:\n        /* \"#utility.yul\":7642:7643   */\n      0x00\n        /* \"#utility.yul\":7667:7720   */\n      tag_691\n        /* \"#utility.yul\":7712:7719   */\n      dup6\n        /* \"#utility.yul\":7703:7709   */\n      dup3\n        /* \"#utility.yul\":7692:7701   */\n      dup7\n        /* \"#utility.yul\":7688:7710   */\n      add\n        /* \"#utility.yul\":7667:7720   */\n      tag_569\n      jump\t// in\n    tag_691:\n        /* \"#utility.yul\":7657:7720   */\n      swap3\n      pop\n        /* \"#utility.yul\":7613:7730   */\n      pop\n        /* \"#utility.yul\":7769:7771   */\n      0x20\n        /* \"#utility.yul\":7795:7848   */\n      tag_692\n        /* \"#utility.yul\":7840:7847   */\n      dup6\n        /* \"#utility.yul\":7831:7837   */\n      dup3\n        /* \"#utility.yul\":7820:7829   */\n      dup7\n        /* \"#utility.yul\":7816:7838   */\n      add\n        /* \"#utility.yul\":7795:7848   */\n      tag_569\n      jump\t// in\n    tag_692:\n        /* \"#utility.yul\":7785:7848   */\n      swap2\n      pop\n        /* \"#utility.yul\":7740:7858   */\n      pop\n        /* \"#utility.yul\":7391:7865   */\n      swap3\n      pop\n      swap3\n      swap1\n      pop\n      jump\t// out\n        /* \"#utility.yul\":7871:8051   */\n    tag_583:\n        /* \"#utility.yul\":7919:7996   */\n      0x4e487b7100000000000000000000000000000000000000000000000000000000\n        /* \"#utility.yul\":7916:7917   */\n      0x00\n        /* \"#utility.yul\":7909:7997   */\n      mstore\n        /* \"#utility.yul\":8016:8020   */\n      0x11\n        /* \"#utility.yul\":8013:8014   */\n      0x04\n        /* \"#utility.yul\":8006:8021   */\n      mstore\n        /* \"#utility.yul\":8040:8044   */\n      0x24\n        /* \"#utility.yul\":8037:8038   */\n      0x00\n        /* \"#utility.yul\":8030:8045   */\n      revert\n        /* \"#utility.yul\":8057:8248   */\n    tag_192:\n        /* \"#utility.yul\":8097:8101   */\n      0x00\n        /* \"#utility.yul\":8117:8137   */\n      tag_695\n        /* \"#utility.yul\":8135:8136   */\n      dup3\n        /* \"#utility.yul\":8117:8137   */\n      tag_567\n      jump\t// in\n    tag_695:\n        /* \"#utility.yul\":8112:8137   */\n      swap2\n      pop\n        /* \"#utility.yul\":8151:8171   */\n      tag_696\n        /* \"#utility.yul\":8169:8170   */\n      dup4\n        /* \"#utility.yul\":8151:8171   */\n      tag_567\n      jump\t// in\n    tag_696:\n        /* \"#utility.yul\":8146:8171   */\n      swap3\n      pop\n        /* \"#utility.yul\":8190:8191   */\n      dup3\n        /* \"#utility.yul\":8187:8188   */\n      dup3\n        /* \"#utility.yul\":8184:8192   */\n      lt\n        /* \"#utility.yul\":8181:8215   */\n      iszero\n      tag_697\n      jumpi\n        /* \"#utility.yul\":8195:8213   */\n      tag_698\n      tag_583\n      jump\t// in\n    tag_698:\n        /* \"#utility.yul\":8181:8215   */\n    tag_697:\n        /* \"#utility.yul\":8240:8241   */\n      dup3\n        /* \"#utility.yul\":8237:8238   */\n      dup3\n        /* \"#utility.yul\":8233:8242   */\n      sub\n        /* \"#utility.yul\":8225:8242   */\n      swap1\n      pop\n        /* \"#utility.yul\":8057:8248   */\n      swap3\n      swap2\n      pop\n      pop\n      jump\t// out\n        /* \"#utility.yul\":8254:8434   */\n    tag_584:\n        /* \"#utility.yul\":8302:8379   */\n      0x4e487b7100000000000000000000000000000000000000000000000000000000\n        /* \"#utility.yul\":8299:8300   */\n      0x00\n        /* \"#utility.yul\":8292:8380   */\n      mstore\n        /* \"#utility.yul\":8399:8403   */\n      0x12\n        /* \"#utility.yul\":8396:8397   */\n      0x04\n        /* \"#utility.yul\":8389:8404   */\n      mstore\n        /* \"#utility.yul\":8423:8427   */\n      0x24\n        /* \"#utility.yul\":8420:8421   */\n      0x00\n        /* \"#utility.yul\":8413:8428   */\n      revert\n        /* \"#utility.yul\":8440:8625   */\n    tag_201:\n        /* \"#utility.yul\":8480:8481   */\n      0x00\n        /* \"#utility.yul\":8497:8517   */\n      tag_701\n        /* \"#utility.yul\":8515:8516   */\n      dup3\n        /* \"#utility.yul\":8497:8517   */\n      tag_567\n      jump\t// in\n    tag_701:\n        /* \"#utility.yul\":8492:8517   */\n      swap2\n      pop\n        /* \"#utility.yul\":8531:8551   */\n      tag_702\n        /* \"#utility.yul\":8549:8550   */\n      dup4\n        /* \"#utility.yul\":8531:8551   */\n      tag_567\n      jump\t// in\n    tag_702:\n        /* \"#utility.yul\":8526:8551   */\n      swap3\n      pop\n        /* \"#utility.yul\":8570:8571   */\n      dup3\n        /* \"#utility.yul\":8560:8595   */\n      tag_703\n      jumpi\n        /* \"#utility.yul\":8575:8593   */\n      tag_704\n      tag_584\n      jump\t// in\n    tag_704:\n        /* \"#utility.yul\":8560:8595   */\n    tag_703:\n        /* \"#utility.yul\":8617:8618   */\n      dup3\n        /* \"#utility.yul\":8614:8615   */\n      dup3\n        /* \"#utility.yul\":8610:8619   */\n      div\n        /* \"#utility.yul\":8605:8619   */\n      swap1\n      pop\n        /* \"#utility.yul\":8440:8625   */\n      swap3\n      swap2\n      pop\n      pop\n      jump\t// out\n        /* \"#utility.yul\":8631:8936   */\n    tag_221:\n        /* \"#utility.yul\":8671:8674   */\n      0x00\n        /* \"#utility.yul\":8690:8710   */\n      tag_706\n        /* \"#utility.yul\":8708:8709   */\n      dup3\n        /* \"#utility.yul\":8690:8710   */\n      tag_567\n      jump\t// in\n    tag_706:\n        /* \"#utility.yul\":8685:8710   */\n      swap2\n      pop\n        /* \"#utility.yul\":8724:8744   */\n      tag_707\n        /* \"#utility.yul\":8742:8743   */\n      dup4\n        /* \"#utility.yul\":8724:8744   */\n      tag_567\n      jump\t// in\n    tag_707:\n        /* \"#utility.yul\":8719:8744   */\n      swap3\n      pop\n        /* \"#utility.yul\":8878:8879   */\n      dup3\n        /* \"#utility.yul\":8810:8876   */\n      0xffffffffffffffffffffffffffffffffffffffffffffffffffffffffffffffff\n        /* \"#utility.yul\":8806:8880   */\n      sub\n        /* \"#utility.yul\":8803:8804   */\n      dup3\n        /* \"#utility.yul\":8800:8881   */\n      gt\n        /* \"#utility.yul\":8797:8904   */\n      iszero\n      tag_708\n      jumpi\n        /* \"#utility.yul\":8884:8902   */\n      tag_709\n      tag_583\n      jump\t// in\n    tag_709:\n        /* \"#utility.yul\":8797:8904   */\n    tag_708:\n        /* \"#utility.yul\":8928:8929   */\n      dup3\n        /* \"#utility.yul\":8925:8926   */\n      dup3\n        /* \"#utility.yul\":8921:8930   */\n      add\n        /* \"#utility.yul\":8914:8930   */\n      swap1\n      pop\n        /* \"#utility.yul\":8631:8936   */\n      swap3\n      swap2\n      pop\n      pop\n      jump\t// out\n        /* \"#utility.yul\":8942:9290   */\n    tag_226:\n        /* \"#utility.yul\":8982:8989   */\n      0x00\n        /* \"#utility.yul\":9005:9025   */\n      tag_711\n        /* \"#utility.yul\":9023:9024   */\n      dup3\n        /* \"#utility.yul\":9005:9025   */\n      tag_567\n      jump\t// in\n    tag_711:\n        /* \"#utility.yul\":9000:9025   */\n      swap2\n      pop\n        /* \"#utility.yul\":9039:9059   */\n      tag_712\n        /* \"#utility.yul\":9057:9058   */\n      dup4\n        /* \"#utility.yul\":9039:9059   */\n      tag_567\n      jump\t// in\n    tag_712:\n        /* \"#utility.yul\":9034:9059   */\n      swap3\n      pop\n        /* \"#utility.yul\":9227:9228   */\n      dup2\n        /* \"#utility.yul\":9159:9225   */\n      0xffffffffffffffffffffffffffffffffffffffffffffffffffffffffffffffff\n        /* \"#utility.yul\":9155:9229   */\n      div\n        /* \"#utility.yul\":9152:9153   */\n      dup4\n        /* \"#utility.yul\":9149:9230   */\n      gt\n        /* \"#utility.yul\":9144:9145   */\n      dup3\n        /* \"#utility.yul\":9137:9146   */\n      iszero\n        /* \"#utility.yul\":9130:9147   */\n      iszero\n        /* \"#utility.yul\":9126:9231   */\n      and\n        /* \"#utility.yul\":9123:9254   */\n      iszero\n      tag_713\n      jumpi\n        /* \"#utility.yul\":9234:9252   */\n      tag_714\n      tag_583\n      jump\t// in\n    tag_714:\n        /* \"#utility.yul\":9123:9254   */\n    tag_713:\n        /* \"#utility.yul\":9282:9283   */\n      dup3\n        /* \"#utility.yul\":9279:9280   */\n      dup3\n        /* \"#utility.yul\":9275:9284   */\n      mul\n        /* \"#utility.yul\":9264:9284   */\n      swap1\n      pop\n        /* \"#utility.yul\":8942:9290   */\n      swap3\n      swap2\n      pop\n      pop\n      jump\t// out\n        /* \"#utility.yul\":9296:9529   */\n    tag_230:\n        /* \"#utility.yul\":9335:9338   */\n      0x00\n        /* \"#utility.yul\":9358:9382   */\n      tag_716\n        /* \"#utility.yul\":9376:9381   */\n      dup3\n        /* \"#utility.yul\":9358:9382   */\n      tag_567\n      jump\t// in\n    tag_716:\n        /* \"#utility.yul\":9349:9382   */\n      swap2\n      pop\n        /* \"#utility.yul\":9404:9470   */\n      0xffffffffffffffffffffffffffffffffffffffffffffffffffffffffffffffff\n        /* \"#utility.yul\":9397:9402   */\n      dup3\n        /* \"#utility.yul\":9394:9471   */\n      eq\n        /* \"#utility.yul\":9391:9494   */\n      iszero\n      tag_717\n      jumpi\n        /* \"#utility.yul\":9474:9492   */\n      tag_718\n      tag_583\n      jump\t// in\n    tag_718:\n        /* \"#utility.yul\":9391:9494   */\n    tag_717:\n        /* \"#utility.yul\":9521:9522   */\n      0x01\n        /* \"#utility.yul\":9514:9519   */\n      dup3\n        /* \"#utility.yul\":9510:9523   */\n      add\n        /* \"#utility.yul\":9503:9523   */\n      swap1\n      pop\n        /* \"#utility.yul\":9296:9529   */\n      swap2\n      swap1\n      pop\n      jump\t// out\n        /* \"#utility.yul\":9535:9704   */\n    tag_585:\n        /* \"#utility.yul\":9619:9630   */\n      0x00\n        /* \"#utility.yul\":9653:9659   */\n      dup3\n        /* \"#utility.yul\":9648:9651   */\n      dup3\n        /* \"#utility.yul\":9641:9660   */\n      mstore\n        /* \"#utility.yul\":9693:9697   */\n      0x20\n        /* \"#utility.yul\":9688:9691   */\n      dup3\n        /* \"#utility.yul\":9684:9698   */\n      add\n        /* \"#utility.yul\":9669:9698   */\n      swap1\n      pop\n        /* \"#utility.yul\":9535:9704   */\n      swap3\n      swap2\n      pop\n      pop\n      jump\t// out\n        /* \"#utility.yul\":9710:9891   */\n    tag_586:\n        /* \"#utility.yul\":9850:9883   */\n      0x5265656e7472616e637947756172643a207265656e7472616e742063616c6c00\n        /* \"#utility.yul\":9846:9847   */\n      0x00\n        /* \"#utility.yul\":9838:9844   */\n      dup3\n        /* \"#utility.yul\":9834:9848   */\n      add\n        /* \"#utility.yul\":9827:9884   */\n      mstore\n        /* \"#utility.yul\":9710:9891   */\n      pop\n      jump\t// out\n        /* \"#utility.yul\":9897:10263   */\n    tag_587:\n        /* \"#utility.yul\":10039:10042   */\n      0x00\n        /* \"#utility.yul\":10060:10127   */\n      tag_722\n        /* \"#utility.yul\":10124:10126   */\n      0x1f\n        /* \"#utility.yul\":10119:10122   */\n      dup4\n        /* \"#utility.yul\":10060:10127   */\n      tag_585\n      jump\t// in\n    tag_722:\n        /* \"#utility.yul\":10053:10127   */\n      swap2\n      pop\n        /* \"#utility.yul\":10136:10229   */\n      tag_723\n        /* \"#utility.yul\":10225:10228   */\n      dup3\n        /* \"#utility.yul\":10136:10229   */\n      tag_586\n      jump\t// in\n    tag_723:\n        /* \"#utility.yul\":10254:10256   */\n      0x20\n        /* \"#utility.yul\":10249:10252   */\n      dup3\n        /* \"#utility.yul\":10245:10257   */\n      add\n        /* \"#utility.yul\":10238:10257   */\n      swap1\n      pop\n        /* \"#utility.yul\":9897:10263   */\n      swap2\n      swap1\n      pop\n      jump\t// out\n        /* \"#utility.yul\":10269:10688   */\n    tag_244:\n        /* \"#utility.yul\":10435:10439   */\n      0x00\n        /* \"#utility.yul\":10473:10475   */\n      0x20\n        /* \"#utility.yul\":10462:10471   */\n      dup3\n        /* \"#utility.yul\":10458:10476   */\n      add\n        /* \"#utility.yul\":10450:10476   */\n      swap1\n      pop\n        /* \"#utility.yul\":10522:10531   */\n      dup2\n        /* \"#utility.yul\":10516:10520   */\n      dup2\n        /* \"#utility.yul\":10512:10532   */\n      sub\n        /* \"#utility.yul\":10508:10509   */\n      0x00\n        /* \"#utility.yul\":10497:10506   */\n      dup4\n        /* \"#utility.yul\":10493:10510   */\n      add\n        /* \"#utility.yul\":10486:10533   */\n      mstore\n        /* \"#utility.yul\":10550:10681   */\n      tag_725\n        /* \"#utility.yul\":10676:10680   */\n      dup2\n        /* \"#utility.yul\":10550:10681   */\n      tag_587\n      jump\t// in\n    tag_725:\n        /* \"#utility.yul\":10542:10681   */\n      swap1\n      pop\n        /* \"#utility.yul\":10269:10688   */\n      swap2\n      swap1\n      pop\n      jump\t// out\n        /* \"#utility.yul\":10694:10874   */\n    tag_258:\n        /* \"#utility.yul\":10742:10819   */\n      0x4e487b7100000000000000000000000000000000000000000000000000000000\n        /* \"#utility.yul\":10739:10740   */\n      0x00\n        /* \"#utility.yul\":10732:10820   */\n      mstore\n        /* \"#utility.yul\":10839:10843   */\n      0x32\n        /* \"#utility.yul\":10836:10837   */\n      0x04\n        /* \"#utility.yul\":10829:10844   */\n      mstore\n        /* \"#utility.yul\":10863:10867   */\n      0x24\n        /* \"#utility.yul\":10860:10861   */\n      0x00\n        /* \"#utility.yul\":10853:10868   */\n      revert\n        /* \"#utility.yul\":10880:11038   */\n    tag_588:\n        /* \"#utility.yul\":11020:11030   */\n      0x6e6f207374616b65000000000000000000000000000000000000000000000000\n        /* \"#utility.yul\":11016:11017   */\n      0x00\n        /* \"#utility.yul\":11008:11014   */\n      dup3\n        /* \"#utility.yul\":11004:11018   */\n      add\n        /* \"#utility.yul\":10997:11031   */\n      mstore\n        /* \"#utility.yul\":10880:11038   */\n      pop\n      jump\t// out\n        /* \"#utility.yul\":11044:11409   */\n    tag_589:\n        /* \"#utility.yul\":11186:11189   */\n      0x00\n        /* \"#utility.yul\":11207:11273   */\n      tag_729\n        /* \"#utility.yul\":11271:11272   */\n      0x08\n        /* \"#utility.yul\":11266:11269   */\n      dup4\n        /* \"#utility.yul\":11207:11273   */\n      tag_585\n      jump\t// in\n    tag_729:\n        /* \"#utility.yul\":11200:11273   */\n      swap2\n      pop\n        /* \"#utility.yul\":11282:11375   */\n      tag_730\n        /* \"#utility.yul\":11371:11374   */\n      dup3\n        /* \"#utility.yul\":11282:11375   */\n      tag_588\n      jump\t// in\n    tag_730:\n        /* \"#utility.yul\":11400:11402   */\n      0x20\n        /* \"#utility.yul\":11395:11398   */\n      dup3\n        /* \"#utility.yul\":11391:11403   */\n      add\n        /* \"#utility.yul\":11384:11403   */\n      swap1\n      pop\n        /* \"#utility.yul\":11044:11409   */\n      swap2\n      swap1\n      pop\n      jump\t// out\n        /* \"#utility.yul\":11415:11834   */\n    tag_315:\n        /* \"#utility.yul\":11581:11585   */\n      0x00\n        /* \"#utility.yul\":11619:11621   */\n      0x20\n        /* \"#utility.yul\":11608:11617   */\n      dup3\n        /* \"#utility.yul\":11604:11622   */\n      add\n        /* \"#utility.yul\":11596:11622   */\n      swap1\n      pop\n        /* \"#utility.yul\":11668:11677   */\n      dup2\n        /* \"#utility.yul\":11662:11666   */\n      dup2\n        /* \"#utility.yul\":11658:11678   */\n      sub\n        /* \"#utility.yul\":11654:11655   */\n      0x00\n        /* \"#utility.yul\":11643:11652   */\n      dup4\n        /* \"#utility.yul\":11639:11656   */\n      add\n        /* \"#utility.yul\":11632:11679   */\n      mstore\n        /* \"#utility.yul\":11696:11827   */\n      tag_732\n        /* \"#utility.yul\":11822:11826   */\n      dup2\n        /* \"#utility.yul\":11696:11827   */\n      tag_589\n      jump\t// in\n    tag_732:\n        /* \"#utility.yul\":11688:11827   */\n      swap1\n      pop\n        /* \"#utility.yul\":11415:11834   */\n      swap2\n      swap1\n      pop\n      jump\t// out\n        /* \"#utility.yul\":11840:11983   */\n    tag_590:\n        /* \"#utility.yul\":11897:11902   */\n      0x00\n        /* \"#utility.yul\":11928:11934   */\n      dup2\n        /* \"#utility.yul\":11922:11935   */\n      mload\n        /* \"#utility.yul\":11913:11935   */\n      swap1\n      pop\n        /* \"#utility.yul\":11944:11977   */\n      tag_734\n        /* \"#utility.yul\":11971:11976   */\n      dup2\n        /* \"#utility.yul\":11944:11977   */\n      tag_568\n      jump\t// in\n    tag_734:\n        /* \"#utility.yul\":11840:11983   */\n      swap3\n      swap2\n      pop\n      pop\n      jump\t// out\n        /* \"#utility.yul\":11989:12340   */\n    tag_329:\n        /* \"#utility.yul\":12059:12065   */\n      0x00\n        /* \"#utility.yul\":12108:12110   */\n      0x20\n        /* \"#utility.yul\":12096:12105   */\n      dup3\n        /* \"#utility.yul\":12087:12094   */\n      dup5\n        /* \"#utility.yul\":12083:12106   */\n      sub\n        /* \"#utility.yul\":12079:12111   */\n      slt\n        /* \"#utility.yul\":12076:12195   */\n      iszero\n      tag_736\n      jumpi\n        /* \"#utility.yul\":12114:12193   */\n      tag_737\n      tag_561\n      jump\t// in\n    tag_737:\n        /* \"#utility.yul\":12076:12195   */\n    tag_736:\n        /* \"#utility.yul\":12234:12235   */\n      0x00\n        /* \"#utility.yul\":12259:12323   */\n      tag_738\n        /* \"#utility.yul\":12315:12322   */\n      dup5\n        /* \"#utility.yul\":12306:12312   */\n      dup3\n        /* \"#utility.yul\":12295:12304   */\n      dup6\n        /* \"#utility.yul\":12291:12313   */\n      add\n        /* \"#utility.yul\":12259:12323   */\n      tag_590\n      jump\t// in\n    tag_738:\n        /* \"#utility.yul\":12249:12323   */\n      swap2\n      pop\n        /* \"#utility.yul\":12205:12333   */\n      pop\n        /* \"#utility.yul\":11989:12340   */\n      swap3\n      swap2\n      pop\n      pop\n      jump\t// out\n        /* \"#utility.yul\":12346:12489   */\n    tag_591:\n        /* \"#utility.yul\":12403:12408   */\n      0x00\n        /* \"#utility.yul\":12434:12440   */\n      dup2\n        /* \"#utility.yul\":12428:12441   */\n      mload\n        /* \"#utility.yul\":12419:12441   */\n      swap1\n      pop\n        /* \"#utility.yul\":12450:12483   */\n      tag_740\n        /* \"#utility.yul\":12477:12482   */\n      dup2\n        /* \"#utility.yul\":12450:12483   */\n      tag_565\n      jump\t// in\n    tag_740:\n        /* \"#utility.yul\":12346:12489   */\n      swap3\n      swap2\n      pop\n      pop\n      jump\t// out\n        /* \"#utility.yul\":12495:12846   */\n    tag_341:\n        /* \"#utility.yul\":12565:12571   */\n      0x00\n        /* \"#utility.yul\":12614:12616   */\n      0x20\n        /* \"#utility.yul\":12602:12611   */\n      dup3\n        /* \"#utility.yul\":12593:12600   */\n      dup5\n        /* \"#utility.yul\":12589:12612   */\n      sub\n        /* \"#utility.yul\":12585:12617   */\n      slt\n        /* \"#utility.yul\":12582:12701   */\n      iszero\n      tag_742\n      jumpi\n        /* \"#utility.yul\":12620:12699   */\n      tag_743\n      tag_561\n      jump\t// in\n    tag_743:\n        /* \"#utility.yul\":12582:12701   */\n    tag_742:\n        /* \"#utility.yul\":12740:12741   */\n      0x00\n        /* \"#utility.yul\":12765:12829   */\n      tag_744\n        /* \"#utility.yul\":12821:12828   */\n      dup5\n        /* \"#utility.yul\":12812:12818   */\n      dup3\n        /* \"#utility.yul\":12801:12810   */\n      dup6\n        /* \"#utility.yul\":12797:12819   */\n      add\n        /* \"#utility.yul\":12765:12829   */\n      tag_591\n      jump\t// in\n    tag_744:\n        /* \"#utility.yul\":12755:12829   */\n      swap2\n      pop\n        /* \"#utility.yul\":12711:12839   */\n      pop\n        /* \"#utility.yul\":12495:12846   */\n      swap3\n      swap2\n      pop\n      pop\n      jump\t// out\n        /* \"#utility.yul\":12852:13184   */\n    tag_345:\n        /* \"#utility.yul\":12973:12977   */\n      0x00\n        /* \"#utility.yul\":13011:13013   */\n      0x40\n        /* \"#utility.yul\":13000:13009   */\n      dup3\n        /* \"#utility.yul\":12996:13014   */\n      add\n        /* \"#utility.yul\":12988:13014   */\n      swap1\n      pop\n        /* \"#utility.yul\":13024:13095   */\n      tag_746\n        /* \"#utility.yul\":13092:13093   */\n      0x00\n        /* \"#utility.yul\":13081:13090   */\n      dup4\n        /* \"#utility.yul\":13077:13094   */\n      add\n        /* \"#utility.yul\":13068:13074   */\n      dup6\n        /* \"#utility.yul\":13024:13095   */\n      tag_570\n      jump\t// in\n    tag_746:\n        /* \"#utility.yul\":13105:13177   */\n      tag_747\n        /* \"#utility.yul\":13173:13175   */\n      0x20\n        /* \"#utility.yul\":13162:13171   */\n      dup4\n        /* \"#utility.yul\":13158:13176   */\n      add\n        /* \"#utility.yul\":13149:13155   */\n      dup5\n        /* \"#utility.yul\":13105:13177   */\n      tag_580\n      jump\t// in\n    tag_747:\n        /* \"#utility.yul\":12852:13184   */\n      swap4\n      swap3\n      pop\n      pop\n      pop\n      jump\t// out\n        /* \"#utility.yul\":13190:13632   */\n    tag_384:\n        /* \"#utility.yul\":13339:13343   */\n      0x00\n        /* \"#utility.yul\":13377:13379   */\n      0x60\n        /* \"#utility.yul\":13366:13375   */\n      dup3\n        /* \"#utility.yul\":13362:13380   */\n      add\n        /* \"#utility.yul\":13354:13380   */\n      swap1\n      pop\n        /* \"#utility.yul\":13390:13461   */\n      tag_749\n        /* \"#utility.yul\":13458:13459   */\n      0x00\n        /* \"#utility.yul\":13447:13456   */\n      dup4\n        /* \"#utility.yul\":13443:13460   */\n      add\n        /* \"#utility.yul\":13434:13440   */\n      dup7\n        /* \"#utility.yul\":13390:13461   */\n      tag_570\n      jump\t// in\n    tag_749:\n        /* \"#utility.yul\":13471:13543   */\n      tag_750\n        /* \"#utility.yul\":13539:13541   */\n      0x20\n        /* \"#utility.yul\":13528:13537   */\n      dup4\n        /* \"#utility.yul\":13524:13542   */\n      add\n        /* \"#utility.yul\":13515:13521   */\n      dup6\n        /* \"#utility.yul\":13471:13543   */\n      tag_580\n      jump\t// in\n    tag_750:\n        /* \"#utility.yul\":13553:13625   */\n      tag_751\n        /* \"#utility.yul\":13621:13623   */\n      0x40\n        /* \"#utility.yul\":13610:13619   */\n      dup4\n        /* \"#utility.yul\":13606:13624   */\n      add\n        /* \"#utility.yul\":13597:13603   */\n      dup5\n        /* \"#utility.yul\":13553:13625   */\n      tag_570\n      jump\t// in\n    tag_751:\n        /* \"#utility.yul\":13190:13632   */\n      swap5\n      swap4\n      pop\n      pop\n      pop\n      pop\n      jump\t// out\n        /* \"#utility.yul\":13638:14080   */\n    tag_520:\n        /* \"#utility.yul\":13787:13791   */\n      0x00\n        /* \"#utility.yul\":13825:13827   */\n      0x60\n        /* \"#utility.yul\":13814:13823   */\n      dup3\n        /* \"#utility.yul\":13810:13828   */\n      add\n        /* \"#utility.yul\":13802:13828   */\n      swap1\n      pop\n        /* \"#utility.yul\":13838:13909   */\n      tag_753\n        /* \"#utility.yul\":13906:13907   */\n      0x00\n        /* \"#utility.yul\":13895:13904   */\n      dup4\n        /* \"#utility.yul\":13891:13908   */\n      add\n        /* \"#utility.yul\":13882:13888   */\n      dup7\n        /* \"#utility.yul\":13838:13909   */\n      tag_580\n      jump\t// in\n    tag_753:\n        /* \"#utility.yul\":13919:13991   */\n      tag_754\n        /* \"#utility.yul\":13987:13989   */\n      0x20\n        /* \"#utility.yul\":13976:13985   */\n      dup4\n        /* \"#utility.yul\":13972:13990   */\n      add\n        /* \"#utility.yul\":13963:13969   */\n      dup6\n        /* \"#utility.yul\":13919:13991   */\n      tag_580\n      jump\t// in\n    tag_754:\n        /* \"#utility.yul\":14001:14073   */\n      tag_755\n        /* \"#utility.yul\":14069:14071   */\n      0x40\n        /* \"#utility.yul\":14058:14067   */\n      dup4\n        /* \"#utility.yul\":14054:14072   */\n      add\n        /* \"#utility.yul\":14045:14051   */\n      dup5\n        /* \"#utility.yul\":14001:14073   */\n      tag_570\n      jump\t// in\n    tag_755:\n        /* \"#utility.yul\":13638:14080   */\n      swap5\n      swap4\n      pop\n      pop\n      pop\n      pop\n      jump\t// out\n        /* \"#utility.yul\":14086:14184   */\n    tag_592:\n        /* \"#utility.yul\":14137:14143   */\n      0x00\n        /* \"#utility.yul\":14171:14176   */\n      dup2\n        /* \"#utility.yul\":14165:14177   */\n      mload\n        /* \"#utility.yul\":14155:14177   */\n      swap1\n      pop\n        /* \"#utility.yul\":14086:14184   */\n      swap2\n      swap1\n      pop\n      jump\t// out\n        /* \"#utility.yul\":14190:14337   */\n    tag_593:\n        /* \"#utility.yul\":14291:14302   */\n      0x00\n        /* \"#utility.yul\":14328:14331   */\n      dup2\n        /* \"#utility.yul\":14313:14331   */\n      swap1\n      pop\n        /* \"#utility.yul\":14190:14337   */\n      swap3\n      swap2\n      pop\n      pop\n      jump\t// out\n        /* \"#utility.yul\":14343:14650   */\n    tag_594:\n        /* \"#utility.yul\":14411:14412   */\n      0x00\n        /* \"#utility.yul\":14421:14534   */\n    tag_759:\n        /* \"#utility.yul\":14435:14441   */\n      dup4\n        /* \"#utility.yul\":14432:14433   */\n      dup2\n        /* \"#utility.yul\":14429:14442   */\n      lt\n        /* \"#utility.yul\":14421:14534   */\n      iszero\n      tag_761\n      jumpi\n        /* \"#utility.yul\":14520:14521   */\n      dup1\n        /* \"#utility.yul\":14515:14518   */\n      dup3\n        /* \"#utility.yul\":14511:14522   */\n      add\n        /* \"#utility.yul\":14505:14523   */\n      mload\n        /* \"#utility.yul\":14501:14502   */\n      dup2\n        /* \"#utility.yul\":14496:14499   */\n      dup5\n        /* \"#utility.yul\":14492:14503   */\n      add\n        /* \"#utility.yul\":14485:14524   */\n      mstore\n        /* \"#utility.yul\":14457:14459   */\n      0x20\n        /* \"#utility.yul\":14454:14455   */\n      dup2\n        /* \"#utility.yul\":14450:14460   */\n      add\n        /* \"#utility.yul\":14445:14460   */\n      swap1\n      pop\n        /* \"#utility.yul\":14421:14534   */\n      jump(tag_759)\n    tag_761:\n        /* \"#utility.yul\":14552:14558   */\n      dup4\n        /* \"#utility.yul\":14549:14550   */\n      dup2\n        /* \"#utility.yul\":14546:14559   */\n      gt\n        /* \"#utility.yul\":14543:14644   */\n      iszero\n      tag_762\n      jumpi\n        /* \"#utility.yul\":14632:14633   */\n      0x00\n        /* \"#utility.yul\":14623:14629   */\n      dup5\n        /* \"#utility.yul\":14618:14621   */\n      dup5\n        /* \"#utility.yul\":14614:14630   */\n      add\n        /* \"#utility.yul\":14607:14634   */\n      mstore\n        /* \"#utility.yul\":14543:14644   */\n    tag_762:\n        /* \"#utility.yul\":14392:14650   */\n      pop\n        /* \"#utility.yul\":14343:14650   */\n      pop\n      pop\n      pop\n      jump\t// out\n        /* \"#utility.yul\":14656:15029   */\n    tag_595:\n        /* \"#utility.yul\":14760:14763   */\n      0x00\n        /* \"#utility.yul\":14788:14826   */\n      tag_764\n        /* \"#utility.yul\":14820:14825   */\n      dup3\n        /* \"#utility.yul\":14788:14826   */\n      tag_592\n      jump\t// in\n    tag_764:\n        /* \"#utility.yul\":14842:14930   */\n      tag_765\n        /* \"#utility.yul\":14923:14929   */\n      dup2\n        /* \"#utility.yul\":14918:14921   */\n      dup6\n        /* \"#utility.yul\":14842:14930   */\n      tag_593\n      jump\t// in\n    tag_765:\n        /* \"#utility.yul\":14835:14930   */\n      swap4\n      pop\n        /* \"#utility.yul\":14939:14991   */\n      tag_766\n        /* \"#utility.yul\":14984:14990   */\n      dup2\n        /* \"#utility.yul\":14979:14982   */\n      dup6\n        /* \"#utility.yul\":14972:14976   */\n      0x20\n        /* \"#utility.yul\":14965:14970   */\n      dup7\n        /* \"#utility.yul\":14961:14977   */\n      add\n        /* \"#utility.yul\":14939:14991   */\n      tag_594\n      jump\t// in\n    tag_766:\n        /* \"#utility.yul\":15016:15022   */\n      dup1\n        /* \"#utility.yul\":15011:15014   */\n      dup5\n        /* \"#utility.yul\":15007:15023   */\n      add\n        /* \"#utility.yul\":15000:15023   */\n      swap2\n      pop\n        /* \"#utility.yul\":14764:15029   */\n      pop\n        /* \"#utility.yul\":14656:15029   */\n      swap3\n      swap2\n      pop\n      pop\n      jump\t// out\n        /* \"#utility.yul\":15035:15306   */\n    tag_522:\n        /* \"#utility.yul\":15165:15168   */\n      0x00\n        /* \"#utility.yul\":15187:15280   */\n      tag_768\n        /* \"#utility.yul\":15276:15279   */\n      dup3\n        /* \"#utility.yul\":15267:15273   */\n      dup5\n        /* \"#utility.yul\":15187:15280   */\n      tag_595\n      jump\t// in\n    tag_768:\n        /* \"#utility.yul\":15180:15280   */\n      swap2\n      pop\n        /* \"#utility.yul\":15297:15300   */\n      dup2\n        /* \"#utility.yul\":15290:15300   */\n      swap1\n      pop\n        /* \"#utility.yul\":15035:15306   */\n      swap3\n      swap2\n      pop\n      pop\n      jump\t// out\n        /* \"#utility.yul\":15312:15428   */\n    tag_596:\n        /* \"#utility.yul\":15382:15403   */\n      tag_770\n        /* \"#utility.yul\":15397:15402   */\n      dup2\n        /* \"#utility.yul\":15382:15403   */\n      tag_581\n      jump\t// in\n    tag_770:\n        /* \"#utility.yul\":15375:15380   */\n      dup2\n        /* \"#utility.yul\":15372:15404   */\n      eq\n        /* \"#utility.yul\":15362:15422   */\n      tag_771\n      jumpi\n        /* \"#utility.yul\":15418:15419   */\n      0x00\n        /* \"#utility.yul\":15415:15416   */\n      dup1\n        /* \"#utility.yul\":15408:15420   */\n      revert\n        /* \"#utility.yul\":15362:15422   */\n    tag_771:\n        /* \"#utility.yul\":15312:15428   */\n      pop\n      jump\t// out\n        /* \"#utility.yul\":15434:15571   */\n    tag_597:\n        /* \"#utility.yul\":15488:15493   */\n      0x00\n        /* \"#utility.yul\":15519:15525   */\n      dup2\n        /* \"#utility.yul\":15513:15526   */\n      mload\n        /* \"#utility.yul\":15504:15526   */\n      swap1\n      pop\n        /* \"#utility.yul\":15535:15565   */\n      tag_773\n        /* \"#utility.yul\":15559:15564   */\n      dup2\n        /* \"#utility.yul\":15535:15565   */\n      tag_596\n      jump\t// in\n    tag_773:\n        /* \"#utility.yul\":15434:15571   */\n      swap3\n      swap2\n      pop\n      pop\n      jump\t// out\n        /* \"#utility.yul\":15577:15922   */\n    tag_529:\n        /* \"#utility.yul\":15644:15650   */\n      0x00\n        /* \"#utility.yul\":15693:15695   */\n      0x20\n        /* \"#utility.yul\":15681:15690   */\n      dup3\n        /* \"#utility.yul\":15672:15679   */\n      dup5\n        /* \"#utility.yul\":15668:15691   */\n      sub\n        /* \"#utility.yul\":15664:15696   */\n      slt\n        /* \"#utility.yul\":15661:15780   */\n      iszero\n      tag_775\n      jumpi\n        /* \"#utility.yul\":15699:15778   */\n      tag_776\n      tag_561\n      jump\t// in\n    tag_776:\n        /* \"#utility.yul\":15661:15780   */\n    tag_775:\n        /* \"#utility.yul\":15819:15820   */\n      0x00\n        /* \"#utility.yul\":15844:15905   */\n      tag_777\n        /* \"#utility.yul\":15897:15904   */\n      dup5\n        /* \"#utility.yul\":15888:15894   */\n      dup3\n        /* \"#utility.yul\":15877:15886   */\n      dup6\n        /* \"#utility.yul\":15873:15895   */\n      add\n        /* \"#utility.yul\":15844:15905   */\n      tag_597\n      jump\t// in\n    tag_777:\n        /* \"#utility.yul\":15834:15905   */\n      swap2\n      pop\n        /* \"#utility.yul\":15790:15915   */\n      pop\n        /* \"#utility.yul\":15577:15922   */\n      swap3\n      swap2\n      pop\n      pop\n      jump\t// out\n        /* \"#utility.yul\":15928:16151   */\n    tag_598:\n        /* \"#utility.yul\":16068:16102   */\n      0x5472616e7366657248656c7065723a205452414e534645525f46524f4d5f4641\n        /* \"#utility.yul\":16064:16065   */\n      0x00\n        /* \"#utility.yul\":16056:16062   */\n      dup3\n        /* \"#utility.yul\":16052:16066   */\n      add\n        /* \"#utility.yul\":16045:16103   */\n      mstore\n        /* \"#utility.yul\":16137:16143   */\n      0x494c454400000000000000000000000000000000000000000000000000000000\n        /* \"#utility.yul\":16132:16134   */\n      0x20\n        /* \"#utility.yul\":16124:16130   */\n      dup3\n        /* \"#utility.yul\":16120:16135   */\n      add\n        /* \"#utility.yul\":16113:16144   */\n      mstore\n        /* \"#utility.yul\":15928:16151   */\n      pop\n      jump\t// out\n        /* \"#utility.yul\":16157:16523   */\n    tag_599:\n        /* \"#utility.yul\":16299:16302   */\n      0x00\n        /* \"#utility.yul\":16320:16387   */\n      tag_780\n        /* \"#utility.yul\":16384:16386   */\n      0x24\n        /* \"#utility.yul\":16379:16382   */\n      dup4\n        /* \"#utility.yul\":16320:16387   */\n      tag_585\n      jump\t// in\n    tag_780:\n        /* \"#utility.yul\":16313:16387   */\n      swap2\n      pop\n        /* \"#utility.yul\":16396:16489   */\n      tag_781\n        /* \"#utility.yul\":16485:16488   */\n      dup3\n        /* \"#utility.yul\":16396:16489   */\n      tag_598\n      jump\t// in\n    tag_781:\n        /* \"#utility.yul\":16514:16516   */\n      0x40\n        /* \"#utility.yul\":16509:16512   */\n      dup3\n        /* \"#utility.yul\":16505:16517   */\n      add\n        /* \"#utility.yul\":16498:16517   */\n      swap1\n      pop\n        /* \"#utility.yul\":16157:16523   */\n      swap2\n      swap1\n      pop\n      jump\t// out\n        /* \"#utility.yul\":16529:16948   */\n    tag_532:\n        /* \"#utility.yul\":16695:16699   */\n      0x00\n        /* \"#utility.yul\":16733:16735   */\n      0x20\n        /* \"#utility.yul\":16722:16731   */\n      dup3\n        /* \"#utility.yul\":16718:16736   */\n      add\n        /* \"#utility.yul\":16710:16736   */\n      swap1\n      pop\n        /* \"#utility.yul\":16782:16791   */\n      dup2\n        /* \"#utility.yul\":16776:16780   */\n      dup2\n        /* \"#utility.yul\":16772:16792   */\n      sub\n        /* \"#utility.yul\":16768:16769   */\n      0x00\n        /* \"#utility.yul\":16757:16766   */\n      dup4\n        /* \"#utility.yul\":16753:16770   */\n      add\n        /* \"#utility.yul\":16746:16793   */\n      mstore\n        /* \"#utility.yul\":16810:16941   */\n      tag_783\n        /* \"#utility.yul\":16936:16940   */\n      dup2\n        /* \"#utility.yul\":16810:16941   */\n      tag_599\n      jump\t// in\n    tag_783:\n        /* \"#utility.yul\":16802:16941   */\n      swap1\n      pop\n        /* \"#utility.yul\":16529:16948   */\n      swap2\n      swap1\n      pop\n      jump\t// out\n        /* \"#utility.yul\":16954:17286   */\n    tag_535:\n        /* \"#utility.yul\":17075:17079   */\n      0x00\n        /* \"#utility.yul\":17113:17115   */\n      0x40\n        /* \"#utility.yul\":17102:17111   */\n      dup3\n        /* \"#utility.yul\":17098:17116   */\n      add\n        /* \"#utility.yul\":17090:17116   */\n      swap1\n      pop\n        /* \"#utility.yul\":17126:17197   */\n      tag_785\n        /* \"#utility.yul\":17194:17195   */\n      0x00\n        /* \"#utility.yul\":17183:17192   */\n      dup4\n        /* \"#utility.yul\":17179:17196   */\n      add\n        /* \"#utility.yul\":17170:17176   */\n      dup6\n        /* \"#utility.yul\":17126:17197   */\n      tag_580\n      jump\t// in\n    tag_785:\n        /* \"#utility.yul\":17207:17279   */\n      tag_786\n        /* \"#utility.yul\":17275:17277   */\n      0x20\n        /* \"#utility.yul\":17264:17273   */\n      dup4\n        /* \"#utility.yul\":17260:17278   */\n      add\n        /* \"#utility.yul\":17251:17257   */\n      dup5\n        /* \"#utility.yul\":17207:17279   */\n      tag_570\n      jump\t// in\n    tag_786:\n        /* \"#utility.yul\":16954:17286   */\n      swap4\n      swap3\n      pop\n      pop\n      pop\n      jump\t// out\n        /* \"#utility.yul\":17292:17473   */\n    tag_600:\n        /* \"#utility.yul\":17432:17465   */\n      0x5472616e7366657248656c7065723a205452414e534645525f4641494c454400\n        /* \"#utility.yul\":17428:17429   */\n      0x00\n        /* \"#utility.yul\":17420:17426   */\n      dup3\n        /* \"#utility.yul\":17416:17430   */\n      add\n        /* \"#utility.yul\":17409:17466   */\n      mstore\n        /* \"#utility.yul\":17292:17473   */\n      pop\n      jump\t// out\n        /* \"#utility.yul\":17479:17845   */\n    tag_601:\n        /* \"#utility.yul\":17621:17624   */\n      0x00\n        /* \"#utility.yul\":17642:17709   */\n      tag_789\n        /* \"#utility.yul\":17706:17708   */\n      0x1f\n        /* \"#utility.yul\":17701:17704   */\n      dup4\n        /* \"#utility.yul\":17642:17709   */\n      tag_585\n      jump\t// in\n    tag_789:\n        /* \"#utility.yul\":17635:17709   */\n      swap2\n      pop\n        /* \"#utility.yul\":17718:17811   */\n      tag_790\n        /* \"#utility.yul\":17807:17810   */\n      dup3\n        /* \"#utility.yul\":17718:17811   */\n      tag_600\n      jump\t// in\n    tag_790:\n        /* \"#utility.yul\":17836:17838   */\n      0x20\n        /* \"#utility.yul\":17831:17834   */\n      dup3\n        /* \"#utility.yul\":17827:17839   */\n      add\n        /* \"#utility.yul\":17820:17839   */\n      swap1\n      pop\n        /* \"#utility.yul\":17479:17845   */\n      swap2\n      swap1\n      pop\n      jump\t// out\n        /* \"#utility.yul\":17851:18270   */\n    tag_545:\n        /* \"#utility.yul\":18017:18021   */\n      0x00\n        /* \"#utility.yul\":18055:18057   */\n      0x20\n        /* \"#utility.yul\":18044:18053   */\n      dup3\n        /* \"#utility.yul\":18040:18058   */\n      add\n        /* \"#utility.yul\":18032:18058   */\n      swap1\n      pop\n        /* \"#utility.yul\":18104:18113   */\n      dup2\n        /* \"#utility.yul\":18098:18102   */\n      dup2\n        /* \"#utility.yul\":18094:18114   */\n      sub\n        /* \"#utility.yul\":18090:18091   */\n      0x00\n        /* \"#utility.yul\":18079:18088   */\n      dup4\n        /* \"#utility.yul\":18075:18092   */\n      add\n        /* \"#utility.yul\":18068:18115   */\n      mstore\n        /* \"#utility.yul\":18132:18263   */\n      tag_792\n        /* \"#utility.yul\":18258:18262   */\n      dup2\n        /* \"#utility.yul\":18132:18263   */\n      tag_601\n      jump\t// in\n    tag_792:\n        /* \"#utility.yul\":18124:18263   */\n      swap1\n      pop\n        /* \"#utility.yul\":17851:18270   */\n      swap2\n      swap1\n      pop\n      jump\t// out\n\n    auxdata: 0xa264697066735822122015033e9a04653ce6b0551a62e1b6be869f8e43f9f56386a1c48daa8988cdfc4e64736f6c634300080a0033\n}\n",
				"bytecode": {
					"linkReferences": {},
					"object": "60e06040523480156200001157600080fd5b5060405162004aa938038062004aa983398181016040528101906200003791906200014e565b60016000819055508273ffffffffffffffffffffffffffffffffffffffff1660808173ffffffffffffffffffffffffffffffffffffffff16815250508173ffffffffffffffffffffffffffffffffffffffff1660a08173ffffffffffffffffffffffffffffffffffffffff16815250508073ffffffffffffffffffffffffffffffffffffffff1660c08173ffffffffffffffffffffffffffffffffffffffff1681525050505050620001aa565b600080fd5b600073ffffffffffffffffffffffffffffffffffffffff82169050919050565b60006200011682620000e9565b9050919050565b620001288162000109565b81146200013457600080fd5b50565b60008151905062000148816200011d565b92915050565b6000806000606084860312156200016a5762000169620000e4565b5b60006200017a8682870162000137565b93505060206200018d8682870162000137565b9250506040620001a08682870162000137565b9150509250925092565b60805160a05160c051614858620002516000396000818161106d015281816110c60152818161192a01528181611dea01528181611f7f015281816122f4015281816124ec01528181612cf901528181612ee40152613dcc01526000818161160301528181611ea601526121ae0152600081816115df0152818161196601528181611c9e01528181611e2601528181611fbc015281816120f60152612c3801526148586000f3fe608060405234801561001057600080fd5b50600436106102275760003560e01c806376f4be3611610130578063d7da4bb0116100b8578063f301af421161007c578063f301af4214610712578063f7412baf14610742578063fc97a30314610773578063fd314098146107a3578063fdb483c7146107d457610227565b8063d7da4bb01461066c578063e2bbb1581461068a578063e6886396146106a6578063e8111a12146106c4578063f1229777146106e257610227565b8063a66f42c0116100ff578063a66f42c0146105b6578063aa479652146105d4578063b66503cf14610604578063c6f678bd14610620578063d35e25441461063c57610227565b806376f4be361461051c578063853828b61461054c5780639ce43f9014610556578063a495e5b51461058657610227565b80633a4b66f1116101b35780635a45d052116101825780635a45d05214610440578063638634ee1461045c57806363fb415b1461048c5780636fcfff45146104bc57806370a08231146104ec57610227565b80633a4b66f1146103a45780633b92eb23146103c25780633ca068b6146103e05780634d5ce0381461041057610227565b8063211dc32d116101fa578063211dc32d146102dc578063221ca18c1461030c5780632ce9aead1461033c5780632e1a7d4d1461036c57806331279d3d1461038857610227565b806301316ddf1461022c5780630cdfebfa1461025d578063115c6f391461028e57806318160ddd146102be575b600080fd5b61024660048036038101906102419190613ea0565b6107f0565b604051610254929190613eef565b60405180910390f35b61027760048036038101906102729190613ea0565b610821565b604051610285929190613eef565b60405180910390f35b6102a860048036038101906102a39190613ea0565b610852565b6040516102b59190613f18565b60405180910390f35b6102c6610a90565b6040516102d39190613f18565b60405180910390f35b6102f660048036038101906102f19190613f33565b610a96565b6040516103039190613f18565b60405180910390f35b61032660048036038101906103219190613f73565b610f1e565b6040516103339190613f18565b60405180910390f35b61035660048036038101906103519190613f73565b610f36565b6040516103639190613f18565b60405180910390f35b61038660048036038101906103819190613fa0565b610f4e565b005b6103a2600480360381019061039d9190614126565b610fe8565b005b6103ac6115dd565b6040516103b99190614191565b60405180910390f35b6103ca611601565b6040516103d79190614191565b60405180910390f35b6103fa60048036038101906103f59190613f33565b611625565b6040516104079190613f18565b60405180910390f35b61042a60048036038101906104259190613f73565b61164a565b60405161043791906141c7565b60405180910390f35b61045a60048036038101906104559190613ea0565b61166a565b005b61047660048036038101906104719190613f73565b611706565b6040516104839190613f18565b60405180910390f35b6104a660048036038101906104a19190613f73565b611710565b6040516104b39190613f18565b60405180910390f35b6104d660048036038101906104d19190613f73565b611728565b6040516104e39190613f18565b60405180910390f35b61050660048036038101906105019190613f73565b611740565b6040516105139190613f18565b60405180910390f35b61053660048036038101906105319190613fa0565b611758565b6040516105439190613f18565b60405180910390f35b6105546118a1565b005b610570600480360381019061056b9190613f73565b6118eb565b60405161057d9190613f18565b60405180910390f35b6105a0600480360381019061059b9190613f33565b611903565b6040516105ad9190613f18565b60405180910390f35b6105be611928565b6040516105cb9190614191565b60405180910390f35b6105ee60048036038101906105e99190613f73565b61194c565b6040516105fb9190613f18565b60405180910390f35b61061e60048036038101906106199190613ea0565b611964565b005b61063a60048036038101906106359190613fa0565b611c99565b005b61065660048036038101906106519190613f73565b611d3f565b6040516106639190613f18565b60405180910390f35b610674612090565b6040516106819190613f18565b60405180910390f35b6106a4600480360381019061069f91906141e2565b612096565b005b6106ae6125d6565b6040516106bb9190613f18565b60405180910390f35b6106cc6125e3565b6040516106d99190613f18565b60405180910390f35b6106fc60048036038101906106f79190613f73565b6125e9565b6040516107099190613f18565b60405180910390f35b61072c60048036038101906107279190613fa0565b61274b565b6040516107399190614191565b60405180910390f35b61075c60048036038101906107579190613fa0565b61278a565b60405161076a929190613eef565b60405180910390f35b61078d60048036038101906107889190613f73565b6127ae565b60405161079a9190613f18565b60405180910390f35b6107bd60048036038101906107b89190613ea0565b6127c6565b6040516107cb929190613eef565b60405180910390f35b6107ee60048036038101906107e991906141e2565b612b76565b005b6011602052816000526040600020602052806000526040600020600091509150508060000154908060010154905082565b600d602052816000526040600020602052806000526040600020600091509150508060000154908060010154905082565b600080600e60008573ffffffffffffffffffffffffffffffffffffffff1673ffffffffffffffffffffffffffffffffffffffff16815260200190815260200160002054905060008114156108aa576000915050610a8a565b82600d60008673ffffffffffffffffffffffffffffffffffffffff1673ffffffffffffffffffffffffffffffffffffffff16815260200190815260200160002060006001846108f99190614251565b815260200190815260200160002060000154116109255760018161091d9190614251565b915050610a8a565b82600d60008673ffffffffffffffffffffffffffffffffffffffff1673ffffffffffffffffffffffffffffffffffffffff168152602001908152602001600020600080815260200190815260200160002060000154111561098a576000915050610a8a565b60008060018361099a9190614251565b90505b81811115610a83576000600283836109b59190614251565b6109bf91906142b4565b826109ca9190614251565b90506000600d60008973ffffffffffffffffffffffffffffffffffffffff1673ffffffffffffffffffffffffffffffffffffffff16815260200190815260200160002060008381526020019081526020016000206040518060400160405290816000820154815260200160018201548152505090508681600001511415610a58578195505050505050610a8a565b8681600001511015610a6c57819350610a7c565b600182610a799190614251565b92505b505061099d565b8193505050505b92915050565b60095481565b600080610b72600660008673ffffffffffffffffffffffffffffffffffffffff1673ffffffffffffffffffffffffffffffffffffffff16815260200190815260200160002060008573ffffffffffffffffffffffffffffffffffffffff1673ffffffffffffffffffffffffffffffffffffffff16815260200190815260200160002054601160008773ffffffffffffffffffffffffffffffffffffffff1673ffffffffffffffffffffffffffffffffffffffff168152602001908152602001600020600080815260200190815260200160002060000154612fce565b90506000600e60008573ffffffffffffffffffffffffffffffffffffffff1673ffffffffffffffffffffffffffffffffffffffff168152602001908152602001600020541415610bc6576000915050610f18565b6000610bd28483610852565b905060006001600e60008773ffffffffffffffffffffffffffffffffffffffff1673ffffffffffffffffffffffffffffffffffffffff16815260200190815260200160002054610c229190614251565b9050600060018383610c349190614251565b1115610dc05760008390505b600183610c4d9190614251565b811015610dbe576000600d60008973ffffffffffffffffffffffffffffffffffffffff1673ffffffffffffffffffffffffffffffffffffffff16815260200190815260200160002060008381526020019081526020016000206040518060400160405290816000820154815260200160018201548152505090506000600d60008a73ffffffffffffffffffffffffffffffffffffffff1673ffffffffffffffffffffffffffffffffffffffff1681526020019081526020016000206000600185610d1791906142e5565b81526020019081526020016000206040518060400160405290816000820154815260200160018201548152505090506000610d568b84600001516127c6565b5090506000610d698c84600001516127c6565b509050670de0b6b3a76400008282610d819190614251565b8560200151610d90919061433b565b610d9a91906142b4565b86610da591906142e5565b9550505050508080610db690614395565b915050610c40565b505b6000600d60008873ffffffffffffffffffffffffffffffffffffffff1673ffffffffffffffffffffffffffffffffffffffff16815260200190815260200160002060008481526020019081526020016000206040518060400160405290816000820154815260200160018201548152505090506000610e438983600001516127c6565b509050670de0b6b3a7640000610ed582600760008d73ffffffffffffffffffffffffffffffffffffffff1673ffffffffffffffffffffffffffffffffffffffff16815260200190815260200160002060008c73ffffffffffffffffffffffffffffffffffffffff1673ffffffffffffffffffffffffffffffffffffffff16815260200190815260200160002054612fce565b610ede8b6125e9565b610ee89190614251565b8360200151610ef7919061433b565b610f0191906142b4565b83610f0c91906142e5565b92508296505050505050505b92915050565b60036020528060005260406000206000915090505481565b60046020528060005260406000206000915090505481565b6000600a60003373ffffffffffffffffffffffffffffffffffffffff1673ffffffffffffffffffffffffffffffffffffffff16815260200190815260200160002054821415610fda57600860003373ffffffffffffffffffffffffffffffffffffffff1673ffffffffffffffffffffffffffffffffffffffff1681526020019081526020016000205490505b610fe48282612b76565b5050565b6002600054141561102e576040517f08c379a00000000000000000000000000000000000000000000000000000000081526004016110259061443b565b60405180910390fd5b60026000819055508173ffffffffffffffffffffffffffffffffffffffff163373ffffffffffffffffffffffffffffffffffffffff1614806110bb57507f000000000000000000000000000000000000000000000000000000000000000073ffffffffffffffffffffffffffffffffffffffff163373ffffffffffffffffffffffffffffffffffffffff16145b6110c457600080fd5b7f000000000000000000000000000000000000000000000000000000000000000073ffffffffffffffffffffffffffffffffffffffff166363453ae1306040518263ffffffff1660e01b815260040161111d9190614191565b600060405180830381600087803b15801561113757600080fd5b505af115801561114b573d6000803e3d6000fd5b5050505060005b81518110156114b95761117e8282815181106111715761117061445b565b5b6020026020010151612fe8565b600560008585815181106111955761119461445b565b5b602002602001015173ffffffffffffffffffffffffffffffffffffffff1673ffffffffffffffffffffffffffffffffffffffff1681526020019081526020016000206000600460008787815181106111f0576111ef61445b565b5b602002602001015173ffffffffffffffffffffffffffffffffffffffff1673ffffffffffffffffffffffffffffffffffffffff168152602001908152602001600020600084919050558391905055505060006112668383815181106112585761125761445b565b5b602002602001015185610a96565b905042600660008585815181106112805761127f61445b565b5b602002602001015173ffffffffffffffffffffffffffffffffffffffff1673ffffffffffffffffffffffffffffffffffffffff16815260200190815260200160002060008673ffffffffffffffffffffffffffffffffffffffff1673ffffffffffffffffffffffffffffffffffffffff168152602001908152602001600020819055506005600084848151811061131a5761131961445b565b5b602002602001015173ffffffffffffffffffffffffffffffffffffffff1673ffffffffffffffffffffffffffffffffffffffff16815260200190815260200160002054600760008585815181106113745761137361445b565b5b602002602001015173ffffffffffffffffffffffffffffffffffffffff1673ffffffffffffffffffffffffffffffffffffffff16815260200190815260200160002060008673ffffffffffffffffffffffffffffffffffffffff1673ffffffffffffffffffffffffffffffffffffffff168152602001908152602001600020819055506000811115611426576114258383815181106114165761141561445b565b5b602002602001015185836132a6565b5b8282815181106114395761143861445b565b5b602002602001015173ffffffffffffffffffffffffffffffffffffffff163373ffffffffffffffffffffffffffffffffffffffff167f9aa05b3d70a9e3e2f004f039648839560576334fb45c81f91b6db03ad9e2efc98360405161149d9190613f18565b60405180910390a35080806114b190614395565b915050611152565b506000600260008473ffffffffffffffffffffffffffffffffffffffff1673ffffffffffffffffffffffffffffffffffffffff16815260200190815260200160002054905080600160008282546115109190614251565b9250508190555061152083611d3f565b905080600260008573ffffffffffffffffffffffffffffffffffffffff1673ffffffffffffffffffffffffffffffffffffffff16815260200190815260200160002081905550806001600082825461157891906142e5565b925050819055506115c883600260008673ffffffffffffffffffffffffffffffffffffffff1673ffffffffffffffffffffffffffffffffffffffff1681526020019081526020016000205461334b565b6115d0613543565b5060016000819055505050565b7f000000000000000000000000000000000000000000000000000000000000000081565b7f000000000000000000000000000000000000000000000000000000000000000081565b6007602052816000526040600020602052806000526040600020600091509150505481565b600c6020528060005260406000206000915054906101000a900460ff1681565b611674828261360c565b600560008573ffffffffffffffffffffffffffffffffffffffff1673ffffffffffffffffffffffffffffffffffffffff1681526020019081526020016000206000600460008773ffffffffffffffffffffffffffffffffffffffff1673ffffffffffffffffffffffffffffffffffffffff16815260200190815260200160002060008491905055839190505550505050565b6000429050919050565b60026020528060005260406000206000915090505481565b600e6020528060005260406000206000915090505481565b600a6020528060005260406000206000915090505481565b6000806010549050600081141561177357600091505061189c565b82600f60006001846117859190614251565b815260200190815260200160002060000154116117b1576001816117a99190614251565b91505061189c565b82600f60008081526020019081526020016000206000015411156117d957600091505061189c565b6000806001836117e99190614251565b90505b81811115611895576000600283836118049190614251565b61180e91906142b4565b826118199190614251565b90506000600f6000838152602001908152602001600020604051806040016040529081600082015481526020016001820154815250509050868160000151141561186a57819550505050505061189c565b868160000151101561187e5781935061188e565b60018261188b9190614251565b92505b50506117ec565b8193505050505b919050565b6118e9600a60003373ffffffffffffffffffffffffffffffffffffffff1673ffffffffffffffffffffffffffffffffffffffff16815260200190815260200160002054610f4e565b565b60056020528060005260406000206000915090505481565b6006602052816000526040600020602052806000526040600020600091509150505481565b7f000000000000000000000000000000000000000000000000000000000000000081565b60126020528060005260406000206000915090505481565b7f000000000000000000000000000000000000000000000000000000000000000073ffffffffffffffffffffffffffffffffffffffff168273ffffffffffffffffffffffffffffffffffffffff1614156119f3576040517f08c379a00000000000000000000000000000000000000000000000000000000081526004016119ea906144d6565b60405180910390fd5b6000600360008473ffffffffffffffffffffffffffffffffffffffff1673ffffffffffffffffffffffffffffffffffffffff168152602001908152602001600020541415611a4857611a4782600042613827565b5b611a5182612fe8565b600560008573ffffffffffffffffffffffffffffffffffffffff1673ffffffffffffffffffffffffffffffffffffffff1681526020019081526020016000206000600460008773ffffffffffffffffffffffffffffffffffffffff1673ffffffffffffffffffffffffffffffffffffffff168152602001908152602001600020600084919050558391905055505080600360008473ffffffffffffffffffffffffffffffffffffffff1673ffffffffffffffffffffffffffffffffffffffff16815260200190815260200160002081905550600c60008373ffffffffffffffffffffffffffffffffffffffff1673ffffffffffffffffffffffffffffffffffffffff16815260200190815260200160002060009054906101000a900460ff16611c30576001600c60008473ffffffffffffffffffffffffffffffffffffffff1673ffffffffffffffffffffffffffffffffffffffff16815260200190815260200160002060006101000a81548160ff021916908315150217905550600b829080600181540180825580915050600190039060005260206000200160009091909190916101000a81548173ffffffffffffffffffffffffffffffffffffffff021916908373ffffffffffffffffffffffffffffffffffffffff1602179055505b8173ffffffffffffffffffffffffffffffffffffffff163373ffffffffffffffffffffffffffffffffffffffff167ff70d5c697de7ea828df48e5c4573cb2194c659f1901f70110c52b066dcf5082683604051611c8d9190613f18565b60405180910390a35050565b611d3c7f000000000000000000000000000000000000000000000000000000000000000073ffffffffffffffffffffffffffffffffffffffff166370a08231336040518263ffffffff1660e01b8152600401611cf59190614191565b602060405180830381865afa158015611d12573d6000803e3d6000fd5b505050506040513d601f19601f82011682018060405250810190611d36919061450b565b82612096565b50565b600080600860008473ffffffffffffffffffffffffffffffffffffffff1673ffffffffffffffffffffffffffffffffffffffff1681526020019081526020016000205490506000600a60008573ffffffffffffffffffffffffffffffffffffffff1673ffffffffffffffffffffffffffffffffffffffff16815260200190815260200160002054905060006064601e83611dd9919061433b565b611de391906142b4565b90506000807f000000000000000000000000000000000000000000000000000000000000000073ffffffffffffffffffffffffffffffffffffffff1663a7cac8467f00000000000000000000000000000000000000000000000000000000000000006040518263ffffffff1660e01b8152600401611e619190614191565b602060405180830381865afa158015611e7e573d6000803e3d6000fd5b505050506040513d601f19601f82011682018060405250810190611ea2919061450b565b90507f000000000000000000000000000000000000000000000000000000000000000073ffffffffffffffffffffffffffffffffffffffff16636352211e866040518263ffffffff1660e01b8152600401611efd9190613f18565b602060405180830381865afa158015611f1a573d6000803e3d6000fd5b505050506040513d601f19601f82011682018060405250810190611f3e919061454d565b73ffffffffffffffffffffffffffffffffffffffff168773ffffffffffffffffffffffffffffffffffffffff16148015611f785750600081115b1561206f577f000000000000000000000000000000000000000000000000000000000000000073ffffffffffffffffffffffffffffffffffffffff1663d23254b4867f00000000000000000000000000000000000000000000000000000000000000006040518363ffffffff1660e01b8152600401611ff892919061457a565b602060405180830381865afa158015612015573d6000803e3d6000fd5b505050506040513d601f19601f82011682018060405250810190612039919061450b565b915060646046828460095461204e919061433b565b61205891906142b4565b612062919061433b565b61206c91906142b4565b91505b612084828461207e91906142e5565b85613a1a565b95505050505050919050565b60015481565b600260005414156120dc576040517f08c379a00000000000000000000000000000000000000000000000000000000081526004016120d39061443b565b60405180910390fd5b6002600081905550600082116120f157600080fd5b61211d7f0000000000000000000000000000000000000000000000000000000000000000333085613a33565b816009600082825461212f91906142e5565b9250508190555081600a60003373ffffffffffffffffffffffffffffffffffffffff1673ffffffffffffffffffffffffffffffffffffffff168152602001908152602001600020600082825461218591906142e5565b9250508190555060008111156123d0573373ffffffffffffffffffffffffffffffffffffffff167f000000000000000000000000000000000000000000000000000000000000000073ffffffffffffffffffffffffffffffffffffffff16636352211e836040518263ffffffff1660e01b81526004016122059190613f18565b602060405180830381865afa158015612222573d6000803e3d6000fd5b505050506040513d601f19601f82011682018060405250810190612246919061454d565b73ffffffffffffffffffffffffffffffffffffffff161461226657600080fd5b6000600860003373ffffffffffffffffffffffffffffffffffffffff1673ffffffffffffffffffffffffffffffffffffffff1681526020019081526020016000205414156123805780600860003373ffffffffffffffffffffffffffffffffffffffff1673ffffffffffffffffffffffffffffffffffffffff168152602001908152602001600020819055507f000000000000000000000000000000000000000000000000000000000000000073ffffffffffffffffffffffffffffffffffffffff1663698473e382336040518363ffffffff1660e01b815260040161234d92919061457a565b600060405180830381600087803b15801561236757600080fd5b505af115801561237b573d6000803e3d6000fd5b505050505b80600860003373ffffffffffffffffffffffffffffffffffffffff1673ffffffffffffffffffffffffffffffffffffffff16815260200190815260200160002054146123cb57600080fd5b612413565b600860003373ffffffffffffffffffffffffffffffffffffffff1673ffffffffffffffffffffffffffffffffffffffff1681526020019081526020016000205490505b6000600260003373ffffffffffffffffffffffffffffffffffffffff1673ffffffffffffffffffffffffffffffffffffffff16815260200190815260200160002054905080600160008282546124699190614251565b9250508190555061247933611d3f565b905080600260003373ffffffffffffffffffffffffffffffffffffffff1673ffffffffffffffffffffffffffffffffffffffff1681526020019081526020016000208190555080600160008282546124d191906142e5565b925050819055506124e2338261334b565b6124ea613543565b7f000000000000000000000000000000000000000000000000000000000000000073ffffffffffffffffffffffffffffffffffffffff1663a61c713a8333866040518463ffffffff1660e01b8152600401612547939291906145a3565b600060405180830381600087803b15801561256157600080fd5b505af1158015612575573d6000803e3d6000fd5b505050503373ffffffffffffffffffffffffffffffffffffffff167f90890809c654f11d6e72a28fa60149770a0d11ec6c92319d6ceb2bb0a4ea1a1583856040516125c1929190613eef565b60405180910390a25060016000819055505050565b6000600b80549050905090565b60105481565b600080600154141561263c57600560008373ffffffffffffffffffffffffffffffffffffffff1673ffffffffffffffffffffffffffffffffffffffff168152602001908152602001600020549050612746565b600154670de0b6b3a7640000600360008573ffffffffffffffffffffffffffffffffffffffff1673ffffffffffffffffffffffffffffffffffffffff16815260200190815260200160002054600460008673ffffffffffffffffffffffffffffffffffffffff1673ffffffffffffffffffffffffffffffffffffffff168152602001908152602001600020546126d186611706565b6126db9190614251565b6126e5919061433b565b6126ef919061433b565b6126f991906142b4565b600560008473ffffffffffffffffffffffffffffffffffffffff1673ffffffffffffffffffffffffffffffffffffffff1681526020019081526020016000205461274391906142e5565b90505b919050565b600b818154811061275b57600080fd5b906000526020600020016000915054906101000a900473ffffffffffffffffffffffffffffffffffffffff1681565b600f6020528060005260406000206000915090508060000154908060010154905082565b60086020528060005260406000206000915090505481565b6000806000601260008673ffffffffffffffffffffffffffffffffffffffff1673ffffffffffffffffffffffffffffffffffffffff1681526020019081526020016000205490506000811415612823576000809250925050612b6f565b83601160008773ffffffffffffffffffffffffffffffffffffffff1673ffffffffffffffffffffffffffffffffffffffff16815260200190815260200160002060006001846128729190614251565b8152602001908152602001600020600001541161295357601160008673ffffffffffffffffffffffffffffffffffffffff1673ffffffffffffffffffffffffffffffffffffffff16815260200190815260200160002060006001836128d79190614251565b815260200190815260200160002060010154601160008773ffffffffffffffffffffffffffffffffffffffff1673ffffffffffffffffffffffffffffffffffffffff16815260200190815260200160002060006001846129379190614251565b8152602001908152602001600020600001549250925050612b6f565b83601160008773ffffffffffffffffffffffffffffffffffffffff1673ffffffffffffffffffffffffffffffffffffffff16815260200190815260200160002060008081526020019081526020016000206000015411156129bb576000809250925050612b6f565b6000806001836129cb9190614251565b90505b81811115612abf576000600283836129e69190614251565b6129f091906142b4565b826129fb9190614251565b90506000601160008a73ffffffffffffffffffffffffffffffffffffffff1673ffffffffffffffffffffffffffffffffffffffff16815260200190815260200160002060008381526020019081526020016000206040518060400160405290816000820154815260200160018201548152505090508781600001511415612a945780602001518160000151965096505050505050612b6f565b8781600001511015612aa857819350612ab8565b600182612ab59190614251565b92505b50506129ce565b601160008873ffffffffffffffffffffffffffffffffffffffff1673ffffffffffffffffffffffffffffffffffffffff168152602001908152602001600020600083815260200190815260200160002060010154601160008973ffffffffffffffffffffffffffffffffffffffff1673ffffffffffffffffffffffffffffffffffffffff168152602001908152602001600020600084815260200190815260200160002060000154945094505050505b9250929050565b60026000541415612bbc576040517f08c379a0000000000000000000000000000000000000000000000000000000008152600401612bb39061443b565b60405180910390fd5b60026000819055508160096000828254612bd69190614251565b9250508190555081600a60003373ffffffffffffffffffffffffffffffffffffffff1673ffffffffffffffffffffffffffffffffffffffff1681526020019081526020016000206000828254612c2c9190614251565b92505081905550612c5e7f00000000000000000000000000000000000000000000000000000000000000003384613b6c565b6000811115612d8957600860003373ffffffffffffffffffffffffffffffffffffffff1673ffffffffffffffffffffffffffffffffffffffff168152602001908152602001600020548114612cb257600080fd5b6000600860003373ffffffffffffffffffffffffffffffffffffffff1673ffffffffffffffffffffffffffffffffffffffff168152602001908152602001600020819055507f000000000000000000000000000000000000000000000000000000000000000073ffffffffffffffffffffffffffffffffffffffff1663411b1f7782336040518363ffffffff1660e01b8152600401612d5292919061457a565b600060405180830381600087803b158015612d6c57600080fd5b505af1158015612d80573d6000803e3d6000fd5b50505050612dcc565b600860003373ffffffffffffffffffffffffffffffffffffffff1673ffffffffffffffffffffffffffffffffffffffff1681526020019081526020016000205490505b6000600260003373ffffffffffffffffffffffffffffffffffffffff1673ffffffffffffffffffffffffffffffffffffffff1681526020019081526020016000205490508060016000828254612e229190614251565b92505081905550612e3233611d3f565b905080600260003373ffffffffffffffffffffffffffffffffffffffff1673ffffffffffffffffffffffffffffffffffffffff168152602001908152602001600020819055508060016000828254612e8a91906142e5565b92505081905550612eda33600260003373ffffffffffffffffffffffffffffffffffffffff1673ffffffffffffffffffffffffffffffffffffffff1681526020019081526020016000205461334b565b612ee2613543565b7f000000000000000000000000000000000000000000000000000000000000000073ffffffffffffffffffffffffffffffffffffffff1663ea94ee448333866040518463ffffffff1660e01b8152600401612f3f939291906145a3565b600060405180830381600087803b158015612f5957600080fd5b505af1158015612f6d573d6000803e3d6000fd5b505050503373ffffffffffffffffffffffffffffffffffffffff167ff279e6a1f5e320cca91135676d9cb6e44ca8a08c0b88342bcdb1144f6511b5688385604051612fb9929190613eef565b60405180910390a25060016000819055505050565b600081831015612fde5781612fe0565b825b905092915050565b6000806000600460008573ffffffffffffffffffffffffffffffffffffffff1673ffffffffffffffffffffffffffffffffffffffff1681526020019081526020016000205490506000600560008673ffffffffffffffffffffffffffffffffffffffff1673ffffffffffffffffffffffffffffffffffffffff1681526020019081526020016000205490506000601054141561308b5780829350935050506132a1565b6000600360008773ffffffffffffffffffffffffffffffffffffffff1673ffffffffffffffffffffffffffffffffffffffff1681526020019081526020016000205414156130e05780429350935050506132a1565b60006130eb83611758565b9050600060016010546130fe9190614251565b90506001828261310e9190614251565b11156132095760008290505b6001826131279190614251565b811015613207576000600f60008381526020019081526020016000206040518060400160405290816000820154815260200160018201548152505090506000816020015111156131f3576000600f600060018561318491906142e5565b81526020019081526020016000206040518060400160405290816000820154815260200160018201548152505090506000806131cf8c8460000151866000015187602001518d613ca2565b9150915081886131df91906142e5565b97506131ec8c8983613827565b8098505050505b5080806131ff90614395565b91505061311a565b505b6000600f60008381526020019081526020016000206040518060400160405290816000820154815260200160018201548152505090506000816020015111156132955760006132748961325b8b611706565b61326985600001518a612fce565b85602001518a613ca2565b509050808561328391906142e5565b9450613290898642613827565b429550505b83859650965050505050505b915091565b6132b08382613d40565b60008373ffffffffffffffffffffffffffffffffffffffff166370a08231306040518263ffffffff1660e01b81526004016132eb9190614191565b602060405180830381865afa158015613308573d6000803e3d6000fd5b505050506040513d601f19601f8201168201806040525081019061332c919061450b565b90508082111561333a578091505b613345848484613b6c565b50505050565b60004290506000600e60008573ffffffffffffffffffffffffffffffffffffffff1673ffffffffffffffffffffffffffffffffffffffff168152602001908152602001600020549050600081118015613402575081600d60008673ffffffffffffffffffffffffffffffffffffffff1673ffffffffffffffffffffffffffffffffffffffff16815260200190815260200160002060006001846133ee9190614251565b815260200190815260200160002060000154145b156134705782600d60008673ffffffffffffffffffffffffffffffffffffffff1673ffffffffffffffffffffffffffffffffffffffff16815260200190815260200160002060006001846134569190614251565b81526020019081526020016000206001018190555061353d565b604051806040016040528083815260200184815250600d60008673ffffffffffffffffffffffffffffffffffffffff1673ffffffffffffffffffffffffffffffffffffffff168152602001908152602001600020600083815260200190815260200160002060008201518160000155602082015181600101559050506001816134f991906142e5565b600e60008673ffffffffffffffffffffffffffffffffffffffff1673ffffffffffffffffffffffffffffffffffffffff168152602001908152602001600020819055505b50505050565b600060105490506000429050600082118015613580575080600f600060018561356c9190614251565b815260200190815260200160002060000154145b156135b357600154600f60006001856135999190614251565b815260200190815260200160002060010181905550613608565b6040518060400160405280828152602001600154815250600f6000848152602001908152602001600020600082015181600001556020820151816001015590505060018261360191906142e5565b6010819055505b5050565b6000806000600460008673ffffffffffffffffffffffffffffffffffffffff1673ffffffffffffffffffffffffffffffffffffffff1681526020019081526020016000205490506000600560008773ffffffffffffffffffffffffffffffffffffffff1673ffffffffffffffffffffffffffffffffffffffff168152602001908152602001600020549050600060105414156136af578082935093505050613820565b6000600360008873ffffffffffffffffffffffffffffffffffffffff1673ffffffffffffffffffffffffffffffffffffffff168152602001908152602001600020541415613704578042935093505050613820565b600061370f83611758565b9050600061372b60016010546137259190614251565b88613a1a565b905060008290505b81811015613814576000600f6000838152602001908152602001600020604051806040016040529081600082015481526020016001820154815250509050600081602001511115613800576000600f600060018561379191906142e5565b81526020019081526020016000206040518060400160405290816000820154815260200160018201548152505090506000806137dc8d8460000151866000015187602001518d613ca2565b9150915081886137ec91906142e5565b97506137f98d8983613827565b8098505050505b50808061380c90614395565b915050613733565b50828495509550505050505b9250929050565b6000601260008573ffffffffffffffffffffffffffffffffffffffff1673ffffffffffffffffffffffffffffffffffffffff1681526020019081526020016000205490506000811180156138d9575081601160008673ffffffffffffffffffffffffffffffffffffffff1673ffffffffffffffffffffffffffffffffffffffff16815260200190815260200160002060006001846138c59190614251565b815260200190815260200160002060000154145b156139475782601160008673ffffffffffffffffffffffffffffffffffffffff1673ffffffffffffffffffffffffffffffffffffffff168152602001908152602001600020600060018461392d9190614251565b815260200190815260200160002060010181905550613a14565b604051806040016040528083815260200184815250601160008673ffffffffffffffffffffffffffffffffffffffff1673ffffffffffffffffffffffffffffffffffffffff168152602001908152602001600020600083815260200190815260200160002060008201518160000155602082015181600101559050506001816139d091906142e5565b601260008673ffffffffffffffffffffffffffffffffffffffff1673ffffffffffffffffffffffffffffffffffffffff168152602001908152602001600020819055505b50505050565b6000818310613a295781613a2b565b825b905092915050565b6000808573ffffffffffffffffffffffffffffffffffffffff166323b872dd868686604051602401613a67939291906145da565b6040516020818303038152906040529060e01b6020820180517bffffffffffffffffffffffffffffffffffffffffffffffffffffffff8381831617835250505050604051613ab5919061468b565b6000604051808303816000865af19150503d8060008114613af2576040519150601f19603f3d011682016040523d82523d6000602084013e613af7565b606091505b5091509150818015613b255750600081511480613b24575080806020019051810190613b2391906146ce565b5b5b613b64576040517f08c379a0000000000000000000000000000000000000000000000000000000008152600401613b5b9061476d565b60405180910390fd5b505050505050565b6000808473ffffffffffffffffffffffffffffffffffffffff1663a9059cbb8585604051602401613b9e92919061478d565b6040516020818303038152906040529060e01b6020820180517bffffffffffffffffffffffffffffffffffffffffffffffffffffffff8381831617835250505050604051613bec919061468b565b6000604051808303816000865af19150503d8060008114613c29576040519150601f19603f3d011682016040523d82523d6000602084013e613c2e565b606091505b5091509150818015613c5c5750600081511480613c5b575080806020019051810190613c5a91906146ce565b5b5b613c9b576040517f08c379a0000000000000000000000000000000000000000000000000000000008152600401613c9290614802565b60405180910390fd5b5050505050565b6000806000613cb18785612fce565b905084670de0b6b3a7640000600360008b73ffffffffffffffffffffffffffffffffffffffff1673ffffffffffffffffffffffffffffffffffffffff16815260200190815260200160002054613d078988612fce565b84613d129190614251565b613d1c919061433b565b613d26919061433b565b613d3091906142b4565b8192509250509550959350505050565b60008273ffffffffffffffffffffffffffffffffffffffff166370a08231306040518263ffffffff1660e01b8152600401613d7b9190614191565b602060405180830381865afa158015613d98573d6000803e3d6000fd5b505050506040513d601f19601f82011682018060405250810190613dbc919061450b565b905081811015613df357613df2837f00000000000000000000000000000000000000000000000000000000000000003085613a33565b5b505050565b6000604051905090565b600080fd5b600080fd5b600073ffffffffffffffffffffffffffffffffffffffff82169050919050565b6000613e3782613e0c565b9050919050565b613e4781613e2c565b8114613e5257600080fd5b50565b600081359050613e6481613e3e565b92915050565b6000819050919050565b613e7d81613e6a565b8114613e8857600080fd5b50565b600081359050613e9a81613e74565b92915050565b60008060408385031215613eb757613eb6613e02565b5b6000613ec585828601613e55565b9250506020613ed685828601613e8b565b9150509250929050565b613ee981613e6a565b82525050565b6000604082019050613f046000830185613ee0565b613f116020830184613ee0565b9392505050565b6000602082019050613f2d6000830184613ee0565b92915050565b60008060408385031215613f4a57613f49613e02565b5b6000613f5885828601613e55565b9250506020613f6985828601613e55565b9150509250929050565b600060208284031215613f8957613f88613e02565b5b6000613f9784828501613e55565b91505092915050565b600060208284031215613fb657613fb5613e02565b5b6000613fc484828501613e8b565b91505092915050565b600080fd5b6000601f19601f8301169050919050565b7f4e487b7100000000000000000000000000000000000000000000000000000000600052604160045260246000fd5b61401b82613fd2565b810181811067ffffffffffffffff8211171561403a57614039613fe3565b5b80604052505050565b600061404d613df8565b90506140598282614012565b919050565b600067ffffffffffffffff82111561407957614078613fe3565b5b602082029050602081019050919050565b600080fd5b60006140a261409d8461405e565b614043565b905080838252602082019050602084028301858111156140c5576140c461408a565b5b835b818110156140ee57806140da8882613e55565b8452602084019350506020810190506140c7565b5050509392505050565b600082601f83011261410d5761410c613fcd565b5b813561411d84826020860161408f565b91505092915050565b6000806040838503121561413d5761413c613e02565b5b600061414b85828601613e55565b925050602083013567ffffffffffffffff81111561416c5761416b613e07565b5b614178858286016140f8565b9150509250929050565b61418b81613e2c565b82525050565b60006020820190506141a66000830184614182565b92915050565b60008115159050919050565b6141c1816141ac565b82525050565b60006020820190506141dc60008301846141b8565b92915050565b600080604083850312156141f9576141f8613e02565b5b600061420785828601613e8b565b925050602061421885828601613e8b565b9150509250929050565b7f4e487b7100000000000000000000000000000000000000000000000000000000600052601160045260246000fd5b600061425c82613e6a565b915061426783613e6a565b92508282101561427a57614279614222565b5b828203905092915050565b7f4e487b7100000000000000000000000000000000000000000000000000000000600052601260045260246000fd5b60006142bf82613e6a565b91506142ca83613e6a565b9250826142da576142d9614285565b5b828204905092915050565b60006142f082613e6a565b91506142fb83613e6a565b9250827fffffffffffffffffffffffffffffffffffffffffffffffffffffffffffffffff038211156143305761432f614222565b5b828201905092915050565b600061434682613e6a565b915061435183613e6a565b9250817fffffffffffffffffffffffffffffffffffffffffffffffffffffffffffffffff048311821515161561438a57614389614222565b5b828202905092915050565b60006143a082613e6a565b91507fffffffffffffffffffffffffffffffffffffffffffffffffffffffffffffffff8214156143d3576143d2614222565b5b600182019050919050565b600082825260208201905092915050565b7f5265656e7472616e637947756172643a207265656e7472616e742063616c6c00600082015250565b6000614425601f836143de565b9150614430826143ef565b602082019050919050565b6000602082019050818103600083015261445481614418565b9050919050565b7f4e487b7100000000000000000000000000000000000000000000000000000000600052603260045260246000fd5b7f6e6f207374616b65000000000000000000000000000000000000000000000000600082015250565b60006144c06008836143de565b91506144cb8261448a565b602082019050919050565b600060208201905081810360008301526144ef816144b3565b9050919050565b60008151905061450581613e74565b92915050565b60006020828403121561452157614520613e02565b5b600061452f848285016144f6565b91505092915050565b60008151905061454781613e3e565b92915050565b60006020828403121561456357614562613e02565b5b600061457184828501614538565b91505092915050565b600060408201905061458f6000830185613ee0565b61459c6020830184614182565b9392505050565b60006060820190506145b86000830186613ee0565b6145c56020830185614182565b6145d26040830184613ee0565b949350505050565b60006060820190506145ef6000830186614182565b6145fc6020830185614182565b6146096040830184613ee0565b949350505050565b600081519050919050565b600081905092915050565b60005b8381101561464557808201518184015260208101905061462a565b83811115614654576000848401525b50505050565b600061466582614611565b61466f818561461c565b935061467f818560208601614627565b80840191505092915050565b6000614697828461465a565b915081905092915050565b6146ab816141ac565b81146146b657600080fd5b50565b6000815190506146c8816146a2565b92915050565b6000602082840312156146e4576146e3613e02565b5b60006146f2848285016146b9565b91505092915050565b7f5472616e7366657248656c7065723a205452414e534645525f46524f4d5f464160008201527f494c454400000000000000000000000000000000000000000000000000000000602082015250565b60006147576024836143de565b9150614762826146fb565b604082019050919050565b600060208201905081810360008301526147868161474a565b9050919050565b60006040820190506147a26000830185614182565b6147af6020830184613ee0565b9392505050565b7f5472616e7366657248656c7065723a205452414e534645525f4641494c454400600082015250565b60006147ec601f836143de565b91506147f7826147b6565b602082019050919050565b6000602082019050818103600083015261481b816147df565b905091905056fea264697066735822122015033e9a04653ce6b0551a62e1b6be869f8e43f9f56386a1c48daa8988cdfc4e64736f6c634300080a0033",
					"opcodes": "PUSH1 0xE0 PUSH1 0x40 MSTORE CALLVALUE DUP1 ISZERO PUSH3 0x11 JUMPI PUSH1 0x0 DUP1 REVERT JUMPDEST POP PUSH1 0x40 MLOAD PUSH3 0x4AA9 CODESIZE SUB DUP1 PUSH3 0x4AA9 DUP4 CODECOPY DUP2 DUP2 ADD PUSH1 0x40 MSTORE DUP2 ADD SWAP1 PUSH3 0x37 SWAP2 SWAP1 PUSH3 0x14E JUMP JUMPDEST PUSH1 0x1 PUSH1 0x0 DUP2 SWAP1 SSTORE POP DUP3 PUSH20 0xFFFFFFFFFFFFFFFFFFFFFFFFFFFFFFFFFFFFFFFF AND PUSH1 0x80 DUP2 PUSH20 0xFFFFFFFFFFFFFFFFFFFFFFFFFFFFFFFFFFFFFFFF AND DUP2 MSTORE POP POP DUP2 PUSH20 0xFFFFFFFFFFFFFFFFFFFFFFFFFFFFFFFFFFFFFFFF AND PUSH1 0xA0 DUP2 PUSH20 0xFFFFFFFFFFFFFFFFFFFFFFFFFFFFFFFFFFFFFFFF AND DUP2 MSTORE POP POP DUP1 PUSH20 0xFFFFFFFFFFFFFFFFFFFFFFFFFFFFFFFFFFFFFFFF AND PUSH1 0xC0 DUP2 PUSH20 0xFFFFFFFFFFFFFFFFFFFFFFFFFFFFFFFFFFFFFFFF AND DUP2 MSTORE POP POP POP POP POP PUSH3 0x1AA JUMP JUMPDEST PUSH1 0x0 DUP1 REVERT JUMPDEST PUSH1 0x0 PUSH20 0xFFFFFFFFFFFFFFFFFFFFFFFFFFFFFFFFFFFFFFFF DUP3 AND SWAP1 POP SWAP2 SWAP1 POP JUMP JUMPDEST PUSH1 0x0 PUSH3 0x116 DUP3 PUSH3 0xE9 JUMP JUMPDEST SWAP1 POP SWAP2 SWAP1 POP JUMP JUMPDEST PUSH3 0x128 DUP2 PUSH3 0x109 JUMP JUMPDEST DUP2 EQ PUSH3 0x134 JUMPI PUSH1 0x0 DUP1 REVERT JUMPDEST POP JUMP JUMPDEST PUSH1 0x0 DUP2 MLOAD SWAP1 POP PUSH3 0x148 DUP2 PUSH3 0x11D JUMP JUMPDEST SWAP3 SWAP2 POP POP JUMP JUMPDEST PUSH1 0x0 DUP1 PUSH1 0x0 PUSH1 0x60 DUP5 DUP7 SUB SLT ISZERO PUSH3 0x16A JUMPI PUSH3 0x169 PUSH3 0xE4 JUMP JUMPDEST JUMPDEST PUSH1 0x0 PUSH3 0x17A DUP7 DUP3 DUP8 ADD PUSH3 0x137 JUMP JUMPDEST SWAP4 POP POP PUSH1 0x20 PUSH3 0x18D DUP7 DUP3 DUP8 ADD PUSH3 0x137 JUMP JUMPDEST SWAP3 POP POP PUSH1 0x40 PUSH3 0x1A0 DUP7 DUP3 DUP8 ADD PUSH3 0x137 JUMP JUMPDEST SWAP2 POP POP SWAP3 POP SWAP3 POP SWAP3 JUMP JUMPDEST PUSH1 0x80 MLOAD PUSH1 0xA0 MLOAD PUSH1 0xC0 MLOAD PUSH2 0x4858 PUSH3 0x251 PUSH1 0x0 CODECOPY PUSH1 0x0 DUP2 DUP2 PUSH2 0x106D ADD MSTORE DUP2 DUP2 PUSH2 0x10C6 ADD MSTORE DUP2 DUP2 PUSH2 0x192A ADD MSTORE DUP2 DUP2 PUSH2 0x1DEA ADD MSTORE DUP2 DUP2 PUSH2 0x1F7F ADD MSTORE DUP2 DUP2 PUSH2 0x22F4 ADD MSTORE DUP2 DUP2 PUSH2 0x24EC ADD MSTORE DUP2 DUP2 PUSH2 0x2CF9 ADD MSTORE DUP2 DUP2 PUSH2 0x2EE4 ADD MSTORE PUSH2 0x3DCC ADD MSTORE PUSH1 0x0 DUP2 DUP2 PUSH2 0x1603 ADD MSTORE DUP2 DUP2 PUSH2 0x1EA6 ADD MSTORE PUSH2 0x21AE ADD MSTORE PUSH1 0x0 DUP2 DUP2 PUSH2 0x15DF ADD MSTORE DUP2 DUP2 PUSH2 0x1966 ADD MSTORE DUP2 DUP2 PUSH2 0x1C9E ADD MSTORE DUP2 DUP2 PUSH2 0x1E26 ADD MSTORE DUP2 DUP2 PUSH2 0x1FBC ADD MSTORE DUP2 DUP2 PUSH2 0x20F6 ADD MSTORE PUSH2 0x2C38 ADD MSTORE PUSH2 0x4858 PUSH1 0x0 RETURN INVALID PUSH1 0x80 PUSH1 0x40 MSTORE CALLVALUE DUP1 ISZERO PUSH2 0x10 JUMPI PUSH1 0x0 DUP1 REVERT JUMPDEST POP PUSH1 0x4 CALLDATASIZE LT PUSH2 0x227 JUMPI PUSH1 0x0 CALLDATALOAD PUSH1 0xE0 SHR DUP1 PUSH4 0x76F4BE36 GT PUSH2 0x130 JUMPI DUP1 PUSH4 0xD7DA4BB0 GT PUSH2 0xB8 JUMPI DUP1 PUSH4 0xF301AF42 GT PUSH2 0x7C JUMPI DUP1 PUSH4 0xF301AF42 EQ PUSH2 0x712 JUMPI DUP1 PUSH4 0xF7412BAF EQ PUSH2 0x742 JUMPI DUP1 PUSH4 0xFC97A303 EQ PUSH2 0x773 JUMPI DUP1 PUSH4 0xFD314098 EQ PUSH2 0x7A3 JUMPI DUP1 PUSH4 0xFDB483C7 EQ PUSH2 0x7D4 JUMPI PUSH2 0x227 JUMP JUMPDEST DUP1 PUSH4 0xD7DA4BB0 EQ PUSH2 0x66C JUMPI DUP1 PUSH4 0xE2BBB158 EQ PUSH2 0x68A JUMPI DUP1 PUSH4 0xE6886396 EQ PUSH2 0x6A6 JUMPI DUP1 PUSH4 0xE8111A12 EQ PUSH2 0x6C4 JUMPI DUP1 PUSH4 0xF1229777 EQ PUSH2 0x6E2 JUMPI PUSH2 0x227 JUMP JUMPDEST DUP1 PUSH4 0xA66F42C0 GT PUSH2 0xFF JUMPI DUP1 PUSH4 0xA66F42C0 EQ PUSH2 0x5B6 JUMPI DUP1 PUSH4 0xAA479652 EQ PUSH2 0x5D4 JUMPI DUP1 PUSH4 0xB66503CF EQ PUSH2 0x604 JUMPI DUP1 PUSH4 0xC6F678BD EQ PUSH2 0x620 JUMPI DUP1 PUSH4 0xD35E2544 EQ PUSH2 0x63C JUMPI PUSH2 0x227 JUMP JUMPDEST DUP1 PUSH4 0x76F4BE36 EQ PUSH2 0x51C JUMPI DUP1 PUSH4 0x853828B6 EQ PUSH2 0x54C JUMPI DUP1 PUSH4 0x9CE43F90 EQ PUSH2 0x556 JUMPI DUP1 PUSH4 0xA495E5B5 EQ PUSH2 0x586 JUMPI PUSH2 0x227 JUMP JUMPDEST DUP1 PUSH4 0x3A4B66F1 GT PUSH2 0x1B3 JUMPI DUP1 PUSH4 0x5A45D052 GT PUSH2 0x182 JUMPI DUP1 PUSH4 0x5A45D052 EQ PUSH2 0x440 JUMPI DUP1 PUSH4 0x638634EE EQ PUSH2 0x45C JUMPI DUP1 PUSH4 0x63FB415B EQ PUSH2 0x48C JUMPI DUP1 PUSH4 0x6FCFFF45 EQ PUSH2 0x4BC JUMPI DUP1 PUSH4 0x70A08231 EQ PUSH2 0x4EC JUMPI PUSH2 0x227 JUMP JUMPDEST DUP1 PUSH4 0x3A4B66F1 EQ PUSH2 0x3A4 JUMPI DUP1 PUSH4 0x3B92EB23 EQ PUSH2 0x3C2 JUMPI DUP1 PUSH4 0x3CA068B6 EQ PUSH2 0x3E0 JUMPI DUP1 PUSH4 0x4D5CE038 EQ PUSH2 0x410 JUMPI PUSH2 0x227 JUMP JUMPDEST DUP1 PUSH4 0x211DC32D GT PUSH2 0x1FA JUMPI DUP1 PUSH4 0x211DC32D EQ PUSH2 0x2DC JUMPI DUP1 PUSH4 0x221CA18C EQ PUSH2 0x30C JUMPI DUP1 PUSH4 0x2CE9AEAD EQ PUSH2 0x33C JUMPI DUP1 PUSH4 0x2E1A7D4D EQ PUSH2 0x36C JUMPI DUP1 PUSH4 0x31279D3D EQ PUSH2 0x388 JUMPI PUSH2 0x227 JUMP JUMPDEST DUP1 PUSH4 0x1316DDF EQ PUSH2 0x22C JUMPI DUP1 PUSH4 0xCDFEBFA EQ PUSH2 0x25D JUMPI DUP1 PUSH4 0x115C6F39 EQ PUSH2 0x28E JUMPI DUP1 PUSH4 0x18160DDD EQ PUSH2 0x2BE JUMPI JUMPDEST PUSH1 0x0 DUP1 REVERT JUMPDEST PUSH2 0x246 PUSH1 0x4 DUP1 CALLDATASIZE SUB DUP2 ADD SWAP1 PUSH2 0x241 SWAP2 SWAP1 PUSH2 0x3EA0 JUMP JUMPDEST PUSH2 0x7F0 JUMP JUMPDEST PUSH1 0x40 MLOAD PUSH2 0x254 SWAP3 SWAP2 SWAP1 PUSH2 0x3EEF JUMP JUMPDEST PUSH1 0x40 MLOAD DUP1 SWAP2 SUB SWAP1 RETURN JUMPDEST PUSH2 0x277 PUSH1 0x4 DUP1 CALLDATASIZE SUB DUP2 ADD SWAP1 PUSH2 0x272 SWAP2 SWAP1 PUSH2 0x3EA0 JUMP JUMPDEST PUSH2 0x821 JUMP JUMPDEST PUSH1 0x40 MLOAD PUSH2 0x285 SWAP3 SWAP2 SWAP1 PUSH2 0x3EEF JUMP JUMPDEST PUSH1 0x40 MLOAD DUP1 SWAP2 SUB SWAP1 RETURN JUMPDEST PUSH2 0x2A8 PUSH1 0x4 DUP1 CALLDATASIZE SUB DUP2 ADD SWAP1 PUSH2 0x2A3 SWAP2 SWAP1 PUSH2 0x3EA0 JUMP JUMPDEST PUSH2 0x852 JUMP JUMPDEST PUSH1 0x40 MLOAD PUSH2 0x2B5 SWAP2 SWAP1 PUSH2 0x3F18 JUMP JUMPDEST PUSH1 0x40 MLOAD DUP1 SWAP2 SUB SWAP1 RETURN JUMPDEST PUSH2 0x2C6 PUSH2 0xA90 JUMP JUMPDEST PUSH1 0x40 MLOAD PUSH2 0x2D3 SWAP2 SWAP1 PUSH2 0x3F18 JUMP JUMPDEST PUSH1 0x40 MLOAD DUP1 SWAP2 SUB SWAP1 RETURN JUMPDEST PUSH2 0x2F6 PUSH1 0x4 DUP1 CALLDATASIZE SUB DUP2 ADD SWAP1 PUSH2 0x2F1 SWAP2 SWAP1 PUSH2 0x3F33 JUMP JUMPDEST PUSH2 0xA96 JUMP JUMPDEST PUSH1 0x40 MLOAD PUSH2 0x303 SWAP2 SWAP1 PUSH2 0x3F18 JUMP JUMPDEST PUSH1 0x40 MLOAD DUP1 SWAP2 SUB SWAP1 RETURN JUMPDEST PUSH2 0x326 PUSH1 0x4 DUP1 CALLDATASIZE SUB DUP2 ADD SWAP1 PUSH2 0x321 SWAP2 SWAP1 PUSH2 0x3F73 JUMP JUMPDEST PUSH2 0xF1E JUMP JUMPDEST PUSH1 0x40 MLOAD PUSH2 0x333 SWAP2 SWAP1 PUSH2 0x3F18 JUMP JUMPDEST PUSH1 0x40 MLOAD DUP1 SWAP2 SUB SWAP1 RETURN JUMPDEST PUSH2 0x356 PUSH1 0x4 DUP1 CALLDATASIZE SUB DUP2 ADD SWAP1 PUSH2 0x351 SWAP2 SWAP1 PUSH2 0x3F73 JUMP JUMPDEST PUSH2 0xF36 JUMP JUMPDEST PUSH1 0x40 MLOAD PUSH2 0x363 SWAP2 SWAP1 PUSH2 0x3F18 JUMP JUMPDEST PUSH1 0x40 MLOAD DUP1 SWAP2 SUB SWAP1 RETURN JUMPDEST PUSH2 0x386 PUSH1 0x4 DUP1 CALLDATASIZE SUB DUP2 ADD SWAP1 PUSH2 0x381 SWAP2 SWAP1 PUSH2 0x3FA0 JUMP JUMPDEST PUSH2 0xF4E JUMP JUMPDEST STOP JUMPDEST PUSH2 0x3A2 PUSH1 0x4 DUP1 CALLDATASIZE SUB DUP2 ADD SWAP1 PUSH2 0x39D SWAP2 SWAP1 PUSH2 0x4126 JUMP JUMPDEST PUSH2 0xFE8 JUMP JUMPDEST STOP JUMPDEST PUSH2 0x3AC PUSH2 0x15DD JUMP JUMPDEST PUSH1 0x40 MLOAD PUSH2 0x3B9 SWAP2 SWAP1 PUSH2 0x4191 JUMP JUMPDEST PUSH1 0x40 MLOAD DUP1 SWAP2 SUB SWAP1 RETURN JUMPDEST PUSH2 0x3CA PUSH2 0x1601 JUMP JUMPDEST PUSH1 0x40 MLOAD PUSH2 0x3D7 SWAP2 SWAP1 PUSH2 0x4191 JUMP JUMPDEST PUSH1 0x40 MLOAD DUP1 SWAP2 SUB SWAP1 RETURN JUMPDEST PUSH2 0x3FA PUSH1 0x4 DUP1 CALLDATASIZE SUB DUP2 ADD SWAP1 PUSH2 0x3F5 SWAP2 SWAP1 PUSH2 0x3F33 JUMP JUMPDEST PUSH2 0x1625 JUMP JUMPDEST PUSH1 0x40 MLOAD PUSH2 0x407 SWAP2 SWAP1 PUSH2 0x3F18 JUMP JUMPDEST PUSH1 0x40 MLOAD DUP1 SWAP2 SUB SWAP1 RETURN JUMPDEST PUSH2 0x42A PUSH1 0x4 DUP1 CALLDATASIZE SUB DUP2 ADD SWAP1 PUSH2 0x425 SWAP2 SWAP1 PUSH2 0x3F73 JUMP JUMPDEST PUSH2 0x164A JUMP JUMPDEST PUSH1 0x40 MLOAD PUSH2 0x437 SWAP2 SWAP1 PUSH2 0x41C7 JUMP JUMPDEST PUSH1 0x40 MLOAD DUP1 SWAP2 SUB SWAP1 RETURN JUMPDEST PUSH2 0x45A PUSH1 0x4 DUP1 CALLDATASIZE SUB DUP2 ADD SWAP1 PUSH2 0x455 SWAP2 SWAP1 PUSH2 0x3EA0 JUMP JUMPDEST PUSH2 0x166A JUMP JUMPDEST STOP JUMPDEST PUSH2 0x476 PUSH1 0x4 DUP1 CALLDATASIZE SUB DUP2 ADD SWAP1 PUSH2 0x471 SWAP2 SWAP1 PUSH2 0x3F73 JUMP JUMPDEST PUSH2 0x1706 JUMP JUMPDEST PUSH1 0x40 MLOAD PUSH2 0x483 SWAP2 SWAP1 PUSH2 0x3F18 JUMP JUMPDEST PUSH1 0x40 MLOAD DUP1 SWAP2 SUB SWAP1 RETURN JUMPDEST PUSH2 0x4A6 PUSH1 0x4 DUP1 CALLDATASIZE SUB DUP2 ADD SWAP1 PUSH2 0x4A1 SWAP2 SWAP1 PUSH2 0x3F73 JUMP JUMPDEST PUSH2 0x1710 JUMP JUMPDEST PUSH1 0x40 MLOAD PUSH2 0x4B3 SWAP2 SWAP1 PUSH2 0x3F18 JUMP JUMPDEST PUSH1 0x40 MLOAD DUP1 SWAP2 SUB SWAP1 RETURN JUMPDEST PUSH2 0x4D6 PUSH1 0x4 DUP1 CALLDATASIZE SUB DUP2 ADD SWAP1 PUSH2 0x4D1 SWAP2 SWAP1 PUSH2 0x3F73 JUMP JUMPDEST PUSH2 0x1728 JUMP JUMPDEST PUSH1 0x40 MLOAD PUSH2 0x4E3 SWAP2 SWAP1 PUSH2 0x3F18 JUMP JUMPDEST PUSH1 0x40 MLOAD DUP1 SWAP2 SUB SWAP1 RETURN JUMPDEST PUSH2 0x506 PUSH1 0x4 DUP1 CALLDATASIZE SUB DUP2 ADD SWAP1 PUSH2 0x501 SWAP2 SWAP1 PUSH2 0x3F73 JUMP JUMPDEST PUSH2 0x1740 JUMP JUMPDEST PUSH1 0x40 MLOAD PUSH2 0x513 SWAP2 SWAP1 PUSH2 0x3F18 JUMP JUMPDEST PUSH1 0x40 MLOAD DUP1 SWAP2 SUB SWAP1 RETURN JUMPDEST PUSH2 0x536 PUSH1 0x4 DUP1 CALLDATASIZE SUB DUP2 ADD SWAP1 PUSH2 0x531 SWAP2 SWAP1 PUSH2 0x3FA0 JUMP JUMPDEST PUSH2 0x1758 JUMP JUMPDEST PUSH1 0x40 MLOAD PUSH2 0x543 SWAP2 SWAP1 PUSH2 0x3F18 JUMP JUMPDEST PUSH1 0x40 MLOAD DUP1 SWAP2 SUB SWAP1 RETURN JUMPDEST PUSH2 0x554 PUSH2 0x18A1 JUMP JUMPDEST STOP JUMPDEST PUSH2 0x570 PUSH1 0x4 DUP1 CALLDATASIZE SUB DUP2 ADD SWAP1 PUSH2 0x56B SWAP2 SWAP1 PUSH2 0x3F73 JUMP JUMPDEST PUSH2 0x18EB JUMP JUMPDEST PUSH1 0x40 MLOAD PUSH2 0x57D SWAP2 SWAP1 PUSH2 0x3F18 JUMP JUMPDEST PUSH1 0x40 MLOAD DUP1 SWAP2 SUB SWAP1 RETURN JUMPDEST PUSH2 0x5A0 PUSH1 0x4 DUP1 CALLDATASIZE SUB DUP2 ADD SWAP1 PUSH2 0x59B SWAP2 SWAP1 PUSH2 0x3F33 JUMP JUMPDEST PUSH2 0x1903 JUMP JUMPDEST PUSH1 0x40 MLOAD PUSH2 0x5AD SWAP2 SWAP1 PUSH2 0x3F18 JUMP JUMPDEST PUSH1 0x40 MLOAD DUP1 SWAP2 SUB SWAP1 RETURN JUMPDEST PUSH2 0x5BE PUSH2 0x1928 JUMP JUMPDEST PUSH1 0x40 MLOAD PUSH2 0x5CB SWAP2 SWAP1 PUSH2 0x4191 JUMP JUMPDEST PUSH1 0x40 MLOAD DUP1 SWAP2 SUB SWAP1 RETURN JUMPDEST PUSH2 0x5EE PUSH1 0x4 DUP1 CALLDATASIZE SUB DUP2 ADD SWAP1 PUSH2 0x5E9 SWAP2 SWAP1 PUSH2 0x3F73 JUMP JUMPDEST PUSH2 0x194C JUMP JUMPDEST PUSH1 0x40 MLOAD PUSH2 0x5FB SWAP2 SWAP1 PUSH2 0x3F18 JUMP JUMPDEST PUSH1 0x40 MLOAD DUP1 SWAP2 SUB SWAP1 RETURN JUMPDEST PUSH2 0x61E PUSH1 0x4 DUP1 CALLDATASIZE SUB DUP2 ADD SWAP1 PUSH2 0x619 SWAP2 SWAP1 PUSH2 0x3EA0 JUMP JUMPDEST PUSH2 0x1964 JUMP JUMPDEST STOP JUMPDEST PUSH2 0x63A PUSH1 0x4 DUP1 CALLDATASIZE SUB DUP2 ADD SWAP1 PUSH2 0x635 SWAP2 SWAP1 PUSH2 0x3FA0 JUMP JUMPDEST PUSH2 0x1C99 JUMP JUMPDEST STOP JUMPDEST PUSH2 0x656 PUSH1 0x4 DUP1 CALLDATASIZE SUB DUP2 ADD SWAP1 PUSH2 0x651 SWAP2 SWAP1 PUSH2 0x3F73 JUMP JUMPDEST PUSH2 0x1D3F JUMP JUMPDEST PUSH1 0x40 MLOAD PUSH2 0x663 SWAP2 SWAP1 PUSH2 0x3F18 JUMP JUMPDEST PUSH1 0x40 MLOAD DUP1 SWAP2 SUB SWAP1 RETURN JUMPDEST PUSH2 0x674 PUSH2 0x2090 JUMP JUMPDEST PUSH1 0x40 MLOAD PUSH2 0x681 SWAP2 SWAP1 PUSH2 0x3F18 JUMP JUMPDEST PUSH1 0x40 MLOAD DUP1 SWAP2 SUB SWAP1 RETURN JUMPDEST PUSH2 0x6A4 PUSH1 0x4 DUP1 CALLDATASIZE SUB DUP2 ADD SWAP1 PUSH2 0x69F SWAP2 SWAP1 PUSH2 0x41E2 JUMP JUMPDEST PUSH2 0x2096 JUMP JUMPDEST STOP JUMPDEST PUSH2 0x6AE PUSH2 0x25D6 JUMP JUMPDEST PUSH1 0x40 MLOAD PUSH2 0x6BB SWAP2 SWAP1 PUSH2 0x3F18 JUMP JUMPDEST PUSH1 0x40 MLOAD DUP1 SWAP2 SUB SWAP1 RETURN JUMPDEST PUSH2 0x6CC PUSH2 0x25E3 JUMP JUMPDEST PUSH1 0x40 MLOAD PUSH2 0x6D9 SWAP2 SWAP1 PUSH2 0x3F18 JUMP JUMPDEST PUSH1 0x40 MLOAD DUP1 SWAP2 SUB SWAP1 RETURN JUMPDEST PUSH2 0x6FC PUSH1 0x4 DUP1 CALLDATASIZE SUB DUP2 ADD SWAP1 PUSH2 0x6F7 SWAP2 SWAP1 PUSH2 0x3F73 JUMP JUMPDEST PUSH2 0x25E9 JUMP JUMPDEST PUSH1 0x40 MLOAD PUSH2 0x709 SWAP2 SWAP1 PUSH2 0x3F18 JUMP JUMPDEST PUSH1 0x40 MLOAD DUP1 SWAP2 SUB SWAP1 RETURN JUMPDEST PUSH2 0x72C PUSH1 0x4 DUP1 CALLDATASIZE SUB DUP2 ADD SWAP1 PUSH2 0x727 SWAP2 SWAP1 PUSH2 0x3FA0 JUMP JUMPDEST PUSH2 0x274B JUMP JUMPDEST PUSH1 0x40 MLOAD PUSH2 0x739 SWAP2 SWAP1 PUSH2 0x4191 JUMP JUMPDEST PUSH1 0x40 MLOAD DUP1 SWAP2 SUB SWAP1 RETURN JUMPDEST PUSH2 0x75C PUSH1 0x4 DUP1 CALLDATASIZE SUB DUP2 ADD SWAP1 PUSH2 0x757 SWAP2 SWAP1 PUSH2 0x3FA0 JUMP JUMPDEST PUSH2 0x278A JUMP JUMPDEST PUSH1 0x40 MLOAD PUSH2 0x76A SWAP3 SWAP2 SWAP1 PUSH2 0x3EEF JUMP JUMPDEST PUSH1 0x40 MLOAD DUP1 SWAP2 SUB SWAP1 RETURN JUMPDEST PUSH2 0x78D PUSH1 0x4 DUP1 CALLDATASIZE SUB DUP2 ADD SWAP1 PUSH2 0x788 SWAP2 SWAP1 PUSH2 0x3F73 JUMP JUMPDEST PUSH2 0x27AE JUMP JUMPDEST PUSH1 0x40 MLOAD PUSH2 0x79A SWAP2 SWAP1 PUSH2 0x3F18 JUMP JUMPDEST PUSH1 0x40 MLOAD DUP1 SWAP2 SUB SWAP1 RETURN JUMPDEST PUSH2 0x7BD PUSH1 0x4 DUP1 CALLDATASIZE SUB DUP2 ADD SWAP1 PUSH2 0x7B8 SWAP2 SWAP1 PUSH2 0x3EA0 JUMP JUMPDEST PUSH2 0x27C6 JUMP JUMPDEST PUSH1 0x40 MLOAD PUSH2 0x7CB SWAP3 SWAP2 SWAP1 PUSH2 0x3EEF JUMP JUMPDEST PUSH1 0x40 MLOAD DUP1 SWAP2 SUB SWAP1 RETURN JUMPDEST PUSH2 0x7EE PUSH1 0x4 DUP1 CALLDATASIZE SUB DUP2 ADD SWAP1 PUSH2 0x7E9 SWAP2 SWAP1 PUSH2 0x41E2 JUMP JUMPDEST PUSH2 0x2B76 JUMP JUMPDEST STOP JUMPDEST PUSH1 0x11 PUSH1 0x20 MSTORE DUP2 PUSH1 0x0 MSTORE PUSH1 0x40 PUSH1 0x0 KECCAK256 PUSH1 0x20 MSTORE DUP1 PUSH1 0x0 MSTORE PUSH1 0x40 PUSH1 0x0 KECCAK256 PUSH1 0x0 SWAP2 POP SWAP2 POP POP DUP1 PUSH1 0x0 ADD SLOAD SWAP1 DUP1 PUSH1 0x1 ADD SLOAD SWAP1 POP DUP3 JUMP JUMPDEST PUSH1 0xD PUSH1 0x20 MSTORE DUP2 PUSH1 0x0 MSTORE PUSH1 0x40 PUSH1 0x0 KECCAK256 PUSH1 0x20 MSTORE DUP1 PUSH1 0x0 MSTORE PUSH1 0x40 PUSH1 0x0 KECCAK256 PUSH1 0x0 SWAP2 POP SWAP2 POP POP DUP1 PUSH1 0x0 ADD SLOAD SWAP1 DUP1 PUSH1 0x1 ADD SLOAD SWAP1 POP DUP3 JUMP JUMPDEST PUSH1 0x0 DUP1 PUSH1 0xE PUSH1 0x0 DUP6 PUSH20 0xFFFFFFFFFFFFFFFFFFFFFFFFFFFFFFFFFFFFFFFF AND PUSH20 0xFFFFFFFFFFFFFFFFFFFFFFFFFFFFFFFFFFFFFFFF AND DUP2 MSTORE PUSH1 0x20 ADD SWAP1 DUP2 MSTORE PUSH1 0x20 ADD PUSH1 0x0 KECCAK256 SLOAD SWAP1 POP PUSH1 0x0 DUP2 EQ ISZERO PUSH2 0x8AA JUMPI PUSH1 0x0 SWAP2 POP POP PUSH2 0xA8A JUMP JUMPDEST DUP3 PUSH1 0xD PUSH1 0x0 DUP7 PUSH20 0xFFFFFFFFFFFFFFFFFFFFFFFFFFFFFFFFFFFFFFFF AND PUSH20 0xFFFFFFFFFFFFFFFFFFFFFFFFFFFFFFFFFFFFFFFF AND DUP2 MSTORE PUSH1 0x20 ADD SWAP1 DUP2 MSTORE PUSH1 0x20 ADD PUSH1 0x0 KECCAK256 PUSH1 0x0 PUSH1 0x1 DUP5 PUSH2 0x8F9 SWAP2 SWAP1 PUSH2 0x4251 JUMP JUMPDEST DUP2 MSTORE PUSH1 0x20 ADD SWAP1 DUP2 MSTORE PUSH1 0x20 ADD PUSH1 0x0 KECCAK256 PUSH1 0x0 ADD SLOAD GT PUSH2 0x925 JUMPI PUSH1 0x1 DUP2 PUSH2 0x91D SWAP2 SWAP1 PUSH2 0x4251 JUMP JUMPDEST SWAP2 POP POP PUSH2 0xA8A JUMP JUMPDEST DUP3 PUSH1 0xD PUSH1 0x0 DUP7 PUSH20 0xFFFFFFFFFFFFFFFFFFFFFFFFFFFFFFFFFFFFFFFF AND PUSH20 0xFFFFFFFFFFFFFFFFFFFFFFFFFFFFFFFFFFFFFFFF AND DUP2 MSTORE PUSH1 0x20 ADD SWAP1 DUP2 MSTORE PUSH1 0x20 ADD PUSH1 0x0 KECCAK256 PUSH1 0x0 DUP1 DUP2 MSTORE PUSH1 0x20 ADD SWAP1 DUP2 MSTORE PUSH1 0x20 ADD PUSH1 0x0 KECCAK256 PUSH1 0x0 ADD SLOAD GT ISZERO PUSH2 0x98A JUMPI PUSH1 0x0 SWAP2 POP POP PUSH2 0xA8A JUMP JUMPDEST PUSH1 0x0 DUP1 PUSH1 0x1 DUP4 PUSH2 0x99A SWAP2 SWAP1 PUSH2 0x4251 JUMP JUMPDEST SWAP1 POP JUMPDEST DUP2 DUP2 GT ISZERO PUSH2 0xA83 JUMPI PUSH1 0x0 PUSH1 0x2 DUP4 DUP4 PUSH2 0x9B5 SWAP2 SWAP1 PUSH2 0x4251 JUMP JUMPDEST PUSH2 0x9BF SWAP2 SWAP1 PUSH2 0x42B4 JUMP JUMPDEST DUP3 PUSH2 0x9CA SWAP2 SWAP1 PUSH2 0x4251 JUMP JUMPDEST SWAP1 POP PUSH1 0x0 PUSH1 0xD PUSH1 0x0 DUP10 PUSH20 0xFFFFFFFFFFFFFFFFFFFFFFFFFFFFFFFFFFFFFFFF AND PUSH20 0xFFFFFFFFFFFFFFFFFFFFFFFFFFFFFFFFFFFFFFFF AND DUP2 MSTORE PUSH1 0x20 ADD SWAP1 DUP2 MSTORE PUSH1 0x20 ADD PUSH1 0x0 KECCAK256 PUSH1 0x0 DUP4 DUP2 MSTORE PUSH1 0x20 ADD SWAP1 DUP2 MSTORE PUSH1 0x20 ADD PUSH1 0x0 KECCAK256 PUSH1 0x40 MLOAD DUP1 PUSH1 0x40 ADD PUSH1 0x40 MSTORE SWAP1 DUP2 PUSH1 0x0 DUP3 ADD SLOAD DUP2 MSTORE PUSH1 0x20 ADD PUSH1 0x1 DUP3 ADD SLOAD DUP2 MSTORE POP POP SWAP1 POP DUP7 DUP2 PUSH1 0x0 ADD MLOAD EQ ISZERO PUSH2 0xA58 JUMPI DUP2 SWAP6 POP POP POP POP POP POP PUSH2 0xA8A JUMP JUMPDEST DUP7 DUP2 PUSH1 0x0 ADD MLOAD LT ISZERO PUSH2 0xA6C JUMPI DUP2 SWAP4 POP PUSH2 0xA7C JUMP JUMPDEST PUSH1 0x1 DUP3 PUSH2 0xA79 SWAP2 SWAP1 PUSH2 0x4251 JUMP JUMPDEST SWAP3 POP JUMPDEST POP POP PUSH2 0x99D JUMP JUMPDEST DUP2 SWAP4 POP POP POP POP JUMPDEST SWAP3 SWAP2 POP POP JUMP JUMPDEST PUSH1 0x9 SLOAD DUP2 JUMP JUMPDEST PUSH1 0x0 DUP1 PUSH2 0xB72 PUSH1 0x6 PUSH1 0x0 DUP7 PUSH20 0xFFFFFFFFFFFFFFFFFFFFFFFFFFFFFFFFFFFFFFFF AND PUSH20 0xFFFFFFFFFFFFFFFFFFFFFFFFFFFFFFFFFFFFFFFF AND DUP2 MSTORE PUSH1 0x20 ADD SWAP1 DUP2 MSTORE PUSH1 0x20 ADD PUSH1 0x0 KECCAK256 PUSH1 0x0 DUP6 PUSH20 0xFFFFFFFFFFFFFFFFFFFFFFFFFFFFFFFFFFFFFFFF AND PUSH20 0xFFFFFFFFFFFFFFFFFFFFFFFFFFFFFFFFFFFFFFFF AND DUP2 MSTORE PUSH1 0x20 ADD SWAP1 DUP2 MSTORE PUSH1 0x20 ADD PUSH1 0x0 KECCAK256 SLOAD PUSH1 0x11 PUSH1 0x0 DUP8 PUSH20 0xFFFFFFFFFFFFFFFFFFFFFFFFFFFFFFFFFFFFFFFF AND PUSH20 0xFFFFFFFFFFFFFFFFFFFFFFFFFFFFFFFFFFFFFFFF AND DUP2 MSTORE PUSH1 0x20 ADD SWAP1 DUP2 MSTORE PUSH1 0x20 ADD PUSH1 0x0 KECCAK256 PUSH1 0x0 DUP1 DUP2 MSTORE PUSH1 0x20 ADD SWAP1 DUP2 MSTORE PUSH1 0x20 ADD PUSH1 0x0 KECCAK256 PUSH1 0x0 ADD SLOAD PUSH2 0x2FCE JUMP JUMPDEST SWAP1 POP PUSH1 0x0 PUSH1 0xE PUSH1 0x0 DUP6 PUSH20 0xFFFFFFFFFFFFFFFFFFFFFFFFFFFFFFFFFFFFFFFF AND PUSH20 0xFFFFFFFFFFFFFFFFFFFFFFFFFFFFFFFFFFFFFFFF AND DUP2 MSTORE PUSH1 0x20 ADD SWAP1 DUP2 MSTORE PUSH1 0x20 ADD PUSH1 0x0 KECCAK256 SLOAD EQ ISZERO PUSH2 0xBC6 JUMPI PUSH1 0x0 SWAP2 POP POP PUSH2 0xF18 JUMP JUMPDEST PUSH1 0x0 PUSH2 0xBD2 DUP5 DUP4 PUSH2 0x852 JUMP JUMPDEST SWAP1 POP PUSH1 0x0 PUSH1 0x1 PUSH1 0xE PUSH1 0x0 DUP8 PUSH20 0xFFFFFFFFFFFFFFFFFFFFFFFFFFFFFFFFFFFFFFFF AND PUSH20 0xFFFFFFFFFFFFFFFFFFFFFFFFFFFFFFFFFFFFFFFF AND DUP2 MSTORE PUSH1 0x20 ADD SWAP1 DUP2 MSTORE PUSH1 0x20 ADD PUSH1 0x0 KECCAK256 SLOAD PUSH2 0xC22 SWAP2 SWAP1 PUSH2 0x4251 JUMP JUMPDEST SWAP1 POP PUSH1 0x0 PUSH1 0x1 DUP4 DUP4 PUSH2 0xC34 SWAP2 SWAP1 PUSH2 0x4251 JUMP JUMPDEST GT ISZERO PUSH2 0xDC0 JUMPI PUSH1 0x0 DUP4 SWAP1 POP JUMPDEST PUSH1 0x1 DUP4 PUSH2 0xC4D SWAP2 SWAP1 PUSH2 0x4251 JUMP JUMPDEST DUP2 LT ISZERO PUSH2 0xDBE JUMPI PUSH1 0x0 PUSH1 0xD PUSH1 0x0 DUP10 PUSH20 0xFFFFFFFFFFFFFFFFFFFFFFFFFFFFFFFFFFFFFFFF AND PUSH20 0xFFFFFFFFFFFFFFFFFFFFFFFFFFFFFFFFFFFFFFFF AND DUP2 MSTORE PUSH1 0x20 ADD SWAP1 DUP2 MSTORE PUSH1 0x20 ADD PUSH1 0x0 KECCAK256 PUSH1 0x0 DUP4 DUP2 MSTORE PUSH1 0x20 ADD SWAP1 DUP2 MSTORE PUSH1 0x20 ADD PUSH1 0x0 KECCAK256 PUSH1 0x40 MLOAD DUP1 PUSH1 0x40 ADD PUSH1 0x40 MSTORE SWAP1 DUP2 PUSH1 0x0 DUP3 ADD SLOAD DUP2 MSTORE PUSH1 0x20 ADD PUSH1 0x1 DUP3 ADD SLOAD DUP2 MSTORE POP POP SWAP1 POP PUSH1 0x0 PUSH1 0xD PUSH1 0x0 DUP11 PUSH20 0xFFFFFFFFFFFFFFFFFFFFFFFFFFFFFFFFFFFFFFFF AND PUSH20 0xFFFFFFFFFFFFFFFFFFFFFFFFFFFFFFFFFFFFFFFF AND DUP2 MSTORE PUSH1 0x20 ADD SWAP1 DUP2 MSTORE PUSH1 0x20 ADD PUSH1 0x0 KECCAK256 PUSH1 0x0 PUSH1 0x1 DUP6 PUSH2 0xD17 SWAP2 SWAP1 PUSH2 0x42E5 JUMP JUMPDEST DUP2 MSTORE PUSH1 0x20 ADD SWAP1 DUP2 MSTORE PUSH1 0x20 ADD PUSH1 0x0 KECCAK256 PUSH1 0x40 MLOAD DUP1 PUSH1 0x40 ADD PUSH1 0x40 MSTORE SWAP1 DUP2 PUSH1 0x0 DUP3 ADD SLOAD DUP2 MSTORE PUSH1 0x20 ADD PUSH1 0x1 DUP3 ADD SLOAD DUP2 MSTORE POP POP SWAP1 POP PUSH1 0x0 PUSH2 0xD56 DUP12 DUP5 PUSH1 0x0 ADD MLOAD PUSH2 0x27C6 JUMP JUMPDEST POP SWAP1 POP PUSH1 0x0 PUSH2 0xD69 DUP13 DUP5 PUSH1 0x0 ADD MLOAD PUSH2 0x27C6 JUMP JUMPDEST POP SWAP1 POP PUSH8 0xDE0B6B3A7640000 DUP3 DUP3 PUSH2 0xD81 SWAP2 SWAP1 PUSH2 0x4251 JUMP JUMPDEST DUP6 PUSH1 0x20 ADD MLOAD PUSH2 0xD90 SWAP2 SWAP1 PUSH2 0x433B JUMP JUMPDEST PUSH2 0xD9A SWAP2 SWAP1 PUSH2 0x42B4 JUMP JUMPDEST DUP7 PUSH2 0xDA5 SWAP2 SWAP1 PUSH2 0x42E5 JUMP JUMPDEST SWAP6 POP POP POP POP POP DUP1 DUP1 PUSH2 0xDB6 SWAP1 PUSH2 0x4395 JUMP JUMPDEST SWAP2 POP POP PUSH2 0xC40 JUMP JUMPDEST POP JUMPDEST PUSH1 0x0 PUSH1 0xD PUSH1 0x0 DUP9 PUSH20 0xFFFFFFFFFFFFFFFFFFFFFFFFFFFFFFFFFFFFFFFF AND PUSH20 0xFFFFFFFFFFFFFFFFFFFFFFFFFFFFFFFFFFFFFFFF AND DUP2 MSTORE PUSH1 0x20 ADD SWAP1 DUP2 MSTORE PUSH1 0x20 ADD PUSH1 0x0 KECCAK256 PUSH1 0x0 DUP5 DUP2 MSTORE PUSH1 0x20 ADD SWAP1 DUP2 MSTORE PUSH1 0x20 ADD PUSH1 0x0 KECCAK256 PUSH1 0x40 MLOAD DUP1 PUSH1 0x40 ADD PUSH1 0x40 MSTORE SWAP1 DUP2 PUSH1 0x0 DUP3 ADD SLOAD DUP2 MSTORE PUSH1 0x20 ADD PUSH1 0x1 DUP3 ADD SLOAD DUP2 MSTORE POP POP SWAP1 POP PUSH1 0x0 PUSH2 0xE43 DUP10 DUP4 PUSH1 0x0 ADD MLOAD PUSH2 0x27C6 JUMP JUMPDEST POP SWAP1 POP PUSH8 0xDE0B6B3A7640000 PUSH2 0xED5 DUP3 PUSH1 0x7 PUSH1 0x0 DUP14 PUSH20 0xFFFFFFFFFFFFFFFFFFFFFFFFFFFFFFFFFFFFFFFF AND PUSH20 0xFFFFFFFFFFFFFFFFFFFFFFFFFFFFFFFFFFFFFFFF AND DUP2 MSTORE PUSH1 0x20 ADD SWAP1 DUP2 MSTORE PUSH1 0x20 ADD PUSH1 0x0 KECCAK256 PUSH1 0x0 DUP13 PUSH20 0xFFFFFFFFFFFFFFFFFFFFFFFFFFFFFFFFFFFFFFFF AND PUSH20 0xFFFFFFFFFFFFFFFFFFFFFFFFFFFFFFFFFFFFFFFF AND DUP2 MSTORE PUSH1 0x20 ADD SWAP1 DUP2 MSTORE PUSH1 0x20 ADD PUSH1 0x0 KECCAK256 SLOAD PUSH2 0x2FCE JUMP JUMPDEST PUSH2 0xEDE DUP12 PUSH2 0x25E9 JUMP JUMPDEST PUSH2 0xEE8 SWAP2 SWAP1 PUSH2 0x4251 JUMP JUMPDEST DUP4 PUSH1 0x20 ADD MLOAD PUSH2 0xEF7 SWAP2 SWAP1 PUSH2 0x433B JUMP JUMPDEST PUSH2 0xF01 SWAP2 SWAP1 PUSH2 0x42B4 JUMP JUMPDEST DUP4 PUSH2 0xF0C SWAP2 SWAP1 PUSH2 0x42E5 JUMP JUMPDEST SWAP3 POP DUP3 SWAP7 POP POP POP POP POP POP POP JUMPDEST SWAP3 SWAP2 POP POP JUMP JUMPDEST PUSH1 0x3 PUSH1 0x20 MSTORE DUP1 PUSH1 0x0 MSTORE PUSH1 0x40 PUSH1 0x0 KECCAK256 PUSH1 0x0 SWAP2 POP SWAP1 POP SLOAD DUP2 JUMP JUMPDEST PUSH1 0x4 PUSH1 0x20 MSTORE DUP1 PUSH1 0x0 MSTORE PUSH1 0x40 PUSH1 0x0 KECCAK256 PUSH1 0x0 SWAP2 POP SWAP1 POP SLOAD DUP2 JUMP JUMPDEST PUSH1 0x0 PUSH1 0xA PUSH1 0x0 CALLER PUSH20 0xFFFFFFFFFFFFFFFFFFFFFFFFFFFFFFFFFFFFFFFF AND PUSH20 0xFFFFFFFFFFFFFFFFFFFFFFFFFFFFFFFFFFFFFFFF AND DUP2 MSTORE PUSH1 0x20 ADD SWAP1 DUP2 MSTORE PUSH1 0x20 ADD PUSH1 0x0 KECCAK256 SLOAD DUP3 EQ ISZERO PUSH2 0xFDA JUMPI PUSH1 0x8 PUSH1 0x0 CALLER PUSH20 0xFFFFFFFFFFFFFFFFFFFFFFFFFFFFFFFFFFFFFFFF AND PUSH20 0xFFFFFFFFFFFFFFFFFFFFFFFFFFFFFFFFFFFFFFFF AND DUP2 MSTORE PUSH1 0x20 ADD SWAP1 DUP2 MSTORE PUSH1 0x20 ADD PUSH1 0x0 KECCAK256 SLOAD SWAP1 POP JUMPDEST PUSH2 0xFE4 DUP3 DUP3 PUSH2 0x2B76 JUMP JUMPDEST POP POP JUMP JUMPDEST PUSH1 0x2 PUSH1 0x0 SLOAD EQ ISZERO PUSH2 0x102E JUMPI PUSH1 0x40 MLOAD PUSH32 0x8C379A000000000000000000000000000000000000000000000000000000000 DUP2 MSTORE PUSH1 0x4 ADD PUSH2 0x1025 SWAP1 PUSH2 0x443B JUMP JUMPDEST PUSH1 0x40 MLOAD DUP1 SWAP2 SUB SWAP1 REVERT JUMPDEST PUSH1 0x2 PUSH1 0x0 DUP2 SWAP1 SSTORE POP DUP2 PUSH20 0xFFFFFFFFFFFFFFFFFFFFFFFFFFFFFFFFFFFFFFFF AND CALLER PUSH20 0xFFFFFFFFFFFFFFFFFFFFFFFFFFFFFFFFFFFFFFFF AND EQ DUP1 PUSH2 0x10BB JUMPI POP PUSH32 0x0 PUSH20 0xFFFFFFFFFFFFFFFFFFFFFFFFFFFFFFFFFFFFFFFF AND CALLER PUSH20 0xFFFFFFFFFFFFFFFFFFFFFFFFFFFFFFFFFFFFFFFF AND EQ JUMPDEST PUSH2 0x10C4 JUMPI PUSH1 0x0 DUP1 REVERT JUMPDEST PUSH32 0x0 PUSH20 0xFFFFFFFFFFFFFFFFFFFFFFFFFFFFFFFFFFFFFFFF AND PUSH4 0x63453AE1 ADDRESS PUSH1 0x40 MLOAD DUP3 PUSH4 0xFFFFFFFF AND PUSH1 0xE0 SHL DUP2 MSTORE PUSH1 0x4 ADD PUSH2 0x111D SWAP2 SWAP1 PUSH2 0x4191 JUMP JUMPDEST PUSH1 0x0 PUSH1 0x40 MLOAD DUP1 DUP4 SUB DUP2 PUSH1 0x0 DUP8 DUP1 EXTCODESIZE ISZERO DUP1 ISZERO PUSH2 0x1137 JUMPI PUSH1 0x0 DUP1 REVERT JUMPDEST POP GAS CALL ISZERO DUP1 ISZERO PUSH2 0x114B JUMPI RETURNDATASIZE PUSH1 0x0 DUP1 RETURNDATACOPY RETURNDATASIZE PUSH1 0x0 REVERT JUMPDEST POP POP POP POP PUSH1 0x0 JUMPDEST DUP2 MLOAD DUP2 LT ISZERO PUSH2 0x14B9 JUMPI PUSH2 0x117E DUP3 DUP3 DUP2 MLOAD DUP2 LT PUSH2 0x1171 JUMPI PUSH2 0x1170 PUSH2 0x445B JUMP JUMPDEST JUMPDEST PUSH1 0x20 MUL PUSH1 0x20 ADD ADD MLOAD PUSH2 0x2FE8 JUMP JUMPDEST PUSH1 0x5 PUSH1 0x0 DUP6 DUP6 DUP2 MLOAD DUP2 LT PUSH2 0x1195 JUMPI PUSH2 0x1194 PUSH2 0x445B JUMP JUMPDEST JUMPDEST PUSH1 0x20 MUL PUSH1 0x20 ADD ADD MLOAD PUSH20 0xFFFFFFFFFFFFFFFFFFFFFFFFFFFFFFFFFFFFFFFF AND PUSH20 0xFFFFFFFFFFFFFFFFFFFFFFFFFFFFFFFFFFFFFFFF AND DUP2 MSTORE PUSH1 0x20 ADD SWAP1 DUP2 MSTORE PUSH1 0x20 ADD PUSH1 0x0 KECCAK256 PUSH1 0x0 PUSH1 0x4 PUSH1 0x0 DUP8 DUP8 DUP2 MLOAD DUP2 LT PUSH2 0x11F0 JUMPI PUSH2 0x11EF PUSH2 0x445B JUMP JUMPDEST JUMPDEST PUSH1 0x20 MUL PUSH1 0x20 ADD ADD MLOAD PUSH20 0xFFFFFFFFFFFFFFFFFFFFFFFFFFFFFFFFFFFFFFFF AND PUSH20 0xFFFFFFFFFFFFFFFFFFFFFFFFFFFFFFFFFFFFFFFF AND DUP2 MSTORE PUSH1 0x20 ADD SWAP1 DUP2 MSTORE PUSH1 0x20 ADD PUSH1 0x0 KECCAK256 PUSH1 0x0 DUP5 SWAP2 SWAP1 POP SSTORE DUP4 SWAP2 SWAP1 POP SSTORE POP POP PUSH1 0x0 PUSH2 0x1266 DUP4 DUP4 DUP2 MLOAD DUP2 LT PUSH2 0x1258 JUMPI PUSH2 0x1257 PUSH2 0x445B JUMP JUMPDEST JUMPDEST PUSH1 0x20 MUL PUSH1 0x20 ADD ADD MLOAD DUP6 PUSH2 0xA96 JUMP JUMPDEST SWAP1 POP TIMESTAMP PUSH1 0x6 PUSH1 0x0 DUP6 DUP6 DUP2 MLOAD DUP2 LT PUSH2 0x1280 JUMPI PUSH2 0x127F PUSH2 0x445B JUMP JUMPDEST JUMPDEST PUSH1 0x20 MUL PUSH1 0x20 ADD ADD MLOAD PUSH20 0xFFFFFFFFFFFFFFFFFFFFFFFFFFFFFFFFFFFFFFFF AND PUSH20 0xFFFFFFFFFFFFFFFFFFFFFFFFFFFFFFFFFFFFFFFF AND DUP2 MSTORE PUSH1 0x20 ADD SWAP1 DUP2 MSTORE PUSH1 0x20 ADD PUSH1 0x0 KECCAK256 PUSH1 0x0 DUP7 PUSH20 0xFFFFFFFFFFFFFFFFFFFFFFFFFFFFFFFFFFFFFFFF AND PUSH20 0xFFFFFFFFFFFFFFFFFFFFFFFFFFFFFFFFFFFFFFFF AND DUP2 MSTORE PUSH1 0x20 ADD SWAP1 DUP2 MSTORE PUSH1 0x20 ADD PUSH1 0x0 KECCAK256 DUP2 SWAP1 SSTORE POP PUSH1 0x5 PUSH1 0x0 DUP5 DUP5 DUP2 MLOAD DUP2 LT PUSH2 0x131A JUMPI PUSH2 0x1319 PUSH2 0x445B JUMP JUMPDEST JUMPDEST PUSH1 0x20 MUL PUSH1 0x20 ADD ADD MLOAD PUSH20 0xFFFFFFFFFFFFFFFFFFFFFFFFFFFFFFFFFFFFFFFF AND PUSH20 0xFFFFFFFFFFFFFFFFFFFFFFFFFFFFFFFFFFFFFFFF AND DUP2 MSTORE PUSH1 0x20 ADD SWAP1 DUP2 MSTORE PUSH1 0x20 ADD PUSH1 0x0 KECCAK256 SLOAD PUSH1 0x7 PUSH1 0x0 DUP6 DUP6 DUP2 MLOAD DUP2 LT PUSH2 0x1374 JUMPI PUSH2 0x1373 PUSH2 0x445B JUMP JUMPDEST JUMPDEST PUSH1 0x20 MUL PUSH1 0x20 ADD ADD MLOAD PUSH20 0xFFFFFFFFFFFFFFFFFFFFFFFFFFFFFFFFFFFFFFFF AND PUSH20 0xFFFFFFFFFFFFFFFFFFFFFFFFFFFFFFFFFFFFFFFF AND DUP2 MSTORE PUSH1 0x20 ADD SWAP1 DUP2 MSTORE PUSH1 0x20 ADD PUSH1 0x0 KECCAK256 PUSH1 0x0 DUP7 PUSH20 0xFFFFFFFFFFFFFFFFFFFFFFFFFFFFFFFFFFFFFFFF AND PUSH20 0xFFFFFFFFFFFFFFFFFFFFFFFFFFFFFFFFFFFFFFFF AND DUP2 MSTORE PUSH1 0x20 ADD SWAP1 DUP2 MSTORE PUSH1 0x20 ADD PUSH1 0x0 KECCAK256 DUP2 SWAP1 SSTORE POP PUSH1 0x0 DUP2 GT ISZERO PUSH2 0x1426 JUMPI PUSH2 0x1425 DUP4 DUP4 DUP2 MLOAD DUP2 LT PUSH2 0x1416 JUMPI PUSH2 0x1415 PUSH2 0x445B JUMP JUMPDEST JUMPDEST PUSH1 0x20 MUL PUSH1 0x20 ADD ADD MLOAD DUP6 DUP4 PUSH2 0x32A6 JUMP JUMPDEST JUMPDEST DUP3 DUP3 DUP2 MLOAD DUP2 LT PUSH2 0x1439 JUMPI PUSH2 0x1438 PUSH2 0x445B JUMP JUMPDEST JUMPDEST PUSH1 0x20 MUL PUSH1 0x20 ADD ADD MLOAD PUSH20 0xFFFFFFFFFFFFFFFFFFFFFFFFFFFFFFFFFFFFFFFF AND CALLER PUSH20 0xFFFFFFFFFFFFFFFFFFFFFFFFFFFFFFFFFFFFFFFF AND PUSH32 0x9AA05B3D70A9E3E2F004F039648839560576334FB45C81F91B6DB03AD9E2EFC9 DUP4 PUSH1 0x40 MLOAD PUSH2 0x149D SWAP2 SWAP1 PUSH2 0x3F18 JUMP JUMPDEST PUSH1 0x40 MLOAD DUP1 SWAP2 SUB SWAP1 LOG3 POP DUP1 DUP1 PUSH2 0x14B1 SWAP1 PUSH2 0x4395 JUMP JUMPDEST SWAP2 POP POP PUSH2 0x1152 JUMP JUMPDEST POP PUSH1 0x0 PUSH1 0x2 PUSH1 0x0 DUP5 PUSH20 0xFFFFFFFFFFFFFFFFFFFFFFFFFFFFFFFFFFFFFFFF AND PUSH20 0xFFFFFFFFFFFFFFFFFFFFFFFFFFFFFFFFFFFFFFFF AND DUP2 MSTORE PUSH1 0x20 ADD SWAP1 DUP2 MSTORE PUSH1 0x20 ADD PUSH1 0x0 KECCAK256 SLOAD SWAP1 POP DUP1 PUSH1 0x1 PUSH1 0x0 DUP3 DUP3 SLOAD PUSH2 0x1510 SWAP2 SWAP1 PUSH2 0x4251 JUMP JUMPDEST SWAP3 POP POP DUP2 SWAP1 SSTORE POP PUSH2 0x1520 DUP4 PUSH2 0x1D3F JUMP JUMPDEST SWAP1 POP DUP1 PUSH1 0x2 PUSH1 0x0 DUP6 PUSH20 0xFFFFFFFFFFFFFFFFFFFFFFFFFFFFFFFFFFFFFFFF AND PUSH20 0xFFFFFFFFFFFFFFFFFFFFFFFFFFFFFFFFFFFFFFFF AND DUP2 MSTORE PUSH1 0x20 ADD SWAP1 DUP2 MSTORE PUSH1 0x20 ADD PUSH1 0x0 KECCAK256 DUP2 SWAP1 SSTORE POP DUP1 PUSH1 0x1 PUSH1 0x0 DUP3 DUP3 SLOAD PUSH2 0x1578 SWAP2 SWAP1 PUSH2 0x42E5 JUMP JUMPDEST SWAP3 POP POP DUP2 SWAP1 SSTORE POP PUSH2 0x15C8 DUP4 PUSH1 0x2 PUSH1 0x0 DUP7 PUSH20 0xFFFFFFFFFFFFFFFFFFFFFFFFFFFFFFFFFFFFFFFF AND PUSH20 0xFFFFFFFFFFFFFFFFFFFFFFFFFFFFFFFFFFFFFFFF AND DUP2 MSTORE PUSH1 0x20 ADD SWAP1 DUP2 MSTORE PUSH1 0x20 ADD PUSH1 0x0 KECCAK256 SLOAD PUSH2 0x334B JUMP JUMPDEST PUSH2 0x15D0 PUSH2 0x3543 JUMP JUMPDEST POP PUSH1 0x1 PUSH1 0x0 DUP2 SWAP1 SSTORE POP POP POP JUMP JUMPDEST PUSH32 0x0 DUP2 JUMP JUMPDEST PUSH32 0x0 DUP2 JUMP JUMPDEST PUSH1 0x7 PUSH1 0x20 MSTORE DUP2 PUSH1 0x0 MSTORE PUSH1 0x40 PUSH1 0x0 KECCAK256 PUSH1 0x20 MSTORE DUP1 PUSH1 0x0 MSTORE PUSH1 0x40 PUSH1 0x0 KECCAK256 PUSH1 0x0 SWAP2 POP SWAP2 POP POP SLOAD DUP2 JUMP JUMPDEST PUSH1 0xC PUSH1 0x20 MSTORE DUP1 PUSH1 0x0 MSTORE PUSH1 0x40 PUSH1 0x0 KECCAK256 PUSH1 0x0 SWAP2 POP SLOAD SWAP1 PUSH2 0x100 EXP SWAP1 DIV PUSH1 0xFF AND DUP2 JUMP JUMPDEST PUSH2 0x1674 DUP3 DUP3 PUSH2 0x360C JUMP JUMPDEST PUSH1 0x5 PUSH1 0x0 DUP6 PUSH20 0xFFFFFFFFFFFFFFFFFFFFFFFFFFFFFFFFFFFFFFFF AND PUSH20 0xFFFFFFFFFFFFFFFFFFFFFFFFFFFFFFFFFFFFFFFF AND DUP2 MSTORE PUSH1 0x20 ADD SWAP1 DUP2 MSTORE PUSH1 0x20 ADD PUSH1 0x0 KECCAK256 PUSH1 0x0 PUSH1 0x4 PUSH1 0x0 DUP8 PUSH20 0xFFFFFFFFFFFFFFFFFFFFFFFFFFFFFFFFFFFFFFFF AND PUSH20 0xFFFFFFFFFFFFFFFFFFFFFFFFFFFFFFFFFFFFFFFF AND DUP2 MSTORE PUSH1 0x20 ADD SWAP1 DUP2 MSTORE PUSH1 0x20 ADD PUSH1 0x0 KECCAK256 PUSH1 0x0 DUP5 SWAP2 SWAP1 POP SSTORE DUP4 SWAP2 SWAP1 POP SSTORE POP POP POP POP JUMP JUMPDEST PUSH1 0x0 TIMESTAMP SWAP1 POP SWAP2 SWAP1 POP JUMP JUMPDEST PUSH1 0x2 PUSH1 0x20 MSTORE DUP1 PUSH1 0x0 MSTORE PUSH1 0x40 PUSH1 0x0 KECCAK256 PUSH1 0x0 SWAP2 POP SWAP1 POP SLOAD DUP2 JUMP JUMPDEST PUSH1 0xE PUSH1 0x20 MSTORE DUP1 PUSH1 0x0 MSTORE PUSH1 0x40 PUSH1 0x0 KECCAK256 PUSH1 0x0 SWAP2 POP SWAP1 POP SLOAD DUP2 JUMP JUMPDEST PUSH1 0xA PUSH1 0x20 MSTORE DUP1 PUSH1 0x0 MSTORE PUSH1 0x40 PUSH1 0x0 KECCAK256 PUSH1 0x0 SWAP2 POP SWAP1 POP SLOAD DUP2 JUMP JUMPDEST PUSH1 0x0 DUP1 PUSH1 0x10 SLOAD SWAP1 POP PUSH1 0x0 DUP2 EQ ISZERO PUSH2 0x1773 JUMPI PUSH1 0x0 SWAP2 POP POP PUSH2 0x189C JUMP JUMPDEST DUP3 PUSH1 0xF PUSH1 0x0 PUSH1 0x1 DUP5 PUSH2 0x1785 SWAP2 SWAP1 PUSH2 0x4251 JUMP JUMPDEST DUP2 MSTORE PUSH1 0x20 ADD SWAP1 DUP2 MSTORE PUSH1 0x20 ADD PUSH1 0x0 KECCAK256 PUSH1 0x0 ADD SLOAD GT PUSH2 0x17B1 JUMPI PUSH1 0x1 DUP2 PUSH2 0x17A9 SWAP2 SWAP1 PUSH2 0x4251 JUMP JUMPDEST SWAP2 POP POP PUSH2 0x189C JUMP JUMPDEST DUP3 PUSH1 0xF PUSH1 0x0 DUP1 DUP2 MSTORE PUSH1 0x20 ADD SWAP1 DUP2 MSTORE PUSH1 0x20 ADD PUSH1 0x0 KECCAK256 PUSH1 0x0 ADD SLOAD GT ISZERO PUSH2 0x17D9 JUMPI PUSH1 0x0 SWAP2 POP POP PUSH2 0x189C JUMP JUMPDEST PUSH1 0x0 DUP1 PUSH1 0x1 DUP4 PUSH2 0x17E9 SWAP2 SWAP1 PUSH2 0x4251 JUMP JUMPDEST SWAP1 POP JUMPDEST DUP2 DUP2 GT ISZERO PUSH2 0x1895 JUMPI PUSH1 0x0 PUSH1 0x2 DUP4 DUP4 PUSH2 0x1804 SWAP2 SWAP1 PUSH2 0x4251 JUMP JUMPDEST PUSH2 0x180E SWAP2 SWAP1 PUSH2 0x42B4 JUMP JUMPDEST DUP3 PUSH2 0x1819 SWAP2 SWAP1 PUSH2 0x4251 JUMP JUMPDEST SWAP1 POP PUSH1 0x0 PUSH1 0xF PUSH1 0x0 DUP4 DUP2 MSTORE PUSH1 0x20 ADD SWAP1 DUP2 MSTORE PUSH1 0x20 ADD PUSH1 0x0 KECCAK256 PUSH1 0x40 MLOAD DUP1 PUSH1 0x40 ADD PUSH1 0x40 MSTORE SWAP1 DUP2 PUSH1 0x0 DUP3 ADD SLOAD DUP2 MSTORE PUSH1 0x20 ADD PUSH1 0x1 DUP3 ADD SLOAD DUP2 MSTORE POP POP SWAP1 POP DUP7 DUP2 PUSH1 0x0 ADD MLOAD EQ ISZERO PUSH2 0x186A JUMPI DUP2 SWAP6 POP POP POP POP POP POP PUSH2 0x189C JUMP JUMPDEST DUP7 DUP2 PUSH1 0x0 ADD MLOAD LT ISZERO PUSH2 0x187E JUMPI DUP2 SWAP4 POP PUSH2 0x188E JUMP JUMPDEST PUSH1 0x1 DUP3 PUSH2 0x188B SWAP2 SWAP1 PUSH2 0x4251 JUMP JUMPDEST SWAP3 POP JUMPDEST POP POP PUSH2 0x17EC JUMP JUMPDEST DUP2 SWAP4 POP POP POP POP JUMPDEST SWAP2 SWAP1 POP JUMP JUMPDEST PUSH2 0x18E9 PUSH1 0xA PUSH1 0x0 CALLER PUSH20 0xFFFFFFFFFFFFFFFFFFFFFFFFFFFFFFFFFFFFFFFF AND PUSH20 0xFFFFFFFFFFFFFFFFFFFFFFFFFFFFFFFFFFFFFFFF AND DUP2 MSTORE PUSH1 0x20 ADD SWAP1 DUP2 MSTORE PUSH1 0x20 ADD PUSH1 0x0 KECCAK256 SLOAD PUSH2 0xF4E JUMP JUMPDEST JUMP JUMPDEST PUSH1 0x5 PUSH1 0x20 MSTORE DUP1 PUSH1 0x0 MSTORE PUSH1 0x40 PUSH1 0x0 KECCAK256 PUSH1 0x0 SWAP2 POP SWAP1 POP SLOAD DUP2 JUMP JUMPDEST PUSH1 0x6 PUSH1 0x20 MSTORE DUP2 PUSH1 0x0 MSTORE PUSH1 0x40 PUSH1 0x0 KECCAK256 PUSH1 0x20 MSTORE DUP1 PUSH1 0x0 MSTORE PUSH1 0x40 PUSH1 0x0 KECCAK256 PUSH1 0x0 SWAP2 POP SWAP2 POP POP SLOAD DUP2 JUMP JUMPDEST PUSH32 0x0 DUP2 JUMP JUMPDEST PUSH1 0x12 PUSH1 0x20 MSTORE DUP1 PUSH1 0x0 MSTORE PUSH1 0x40 PUSH1 0x0 KECCAK256 PUSH1 0x0 SWAP2 POP SWAP1 POP SLOAD DUP2 JUMP JUMPDEST PUSH32 0x0 PUSH20 0xFFFFFFFFFFFFFFFFFFFFFFFFFFFFFFFFFFFFFFFF AND DUP3 PUSH20 0xFFFFFFFFFFFFFFFFFFFFFFFFFFFFFFFFFFFFFFFF AND EQ ISZERO PUSH2 0x19F3 JUMPI PUSH1 0x40 MLOAD PUSH32 0x8C379A000000000000000000000000000000000000000000000000000000000 DUP2 MSTORE PUSH1 0x4 ADD PUSH2 0x19EA SWAP1 PUSH2 0x44D6 JUMP JUMPDEST PUSH1 0x40 MLOAD DUP1 SWAP2 SUB SWAP1 REVERT JUMPDEST PUSH1 0x0 PUSH1 0x3 PUSH1 0x0 DUP5 PUSH20 0xFFFFFFFFFFFFFFFFFFFFFFFFFFFFFFFFFFFFFFFF AND PUSH20 0xFFFFFFFFFFFFFFFFFFFFFFFFFFFFFFFFFFFFFFFF AND DUP2 MSTORE PUSH1 0x20 ADD SWAP1 DUP2 MSTORE PUSH1 0x20 ADD PUSH1 0x0 KECCAK256 SLOAD EQ ISZERO PUSH2 0x1A48 JUMPI PUSH2 0x1A47 DUP3 PUSH1 0x0 TIMESTAMP PUSH2 0x3827 JUMP JUMPDEST JUMPDEST PUSH2 0x1A51 DUP3 PUSH2 0x2FE8 JUMP JUMPDEST PUSH1 0x5 PUSH1 0x0 DUP6 PUSH20 0xFFFFFFFFFFFFFFFFFFFFFFFFFFFFFFFFFFFFFFFF AND PUSH20 0xFFFFFFFFFFFFFFFFFFFFFFFFFFFFFFFFFFFFFFFF AND DUP2 MSTORE PUSH1 0x20 ADD SWAP1 DUP2 MSTORE PUSH1 0x20 ADD PUSH1 0x0 KECCAK256 PUSH1 0x0 PUSH1 0x4 PUSH1 0x0 DUP8 PUSH20 0xFFFFFFFFFFFFFFFFFFFFFFFFFFFFFFFFFFFFFFFF AND PUSH20 0xFFFFFFFFFFFFFFFFFFFFFFFFFFFFFFFFFFFFFFFF AND DUP2 MSTORE PUSH1 0x20 ADD SWAP1 DUP2 MSTORE PUSH1 0x20 ADD PUSH1 0x0 KECCAK256 PUSH1 0x0 DUP5 SWAP2 SWAP1 POP SSTORE DUP4 SWAP2 SWAP1 POP SSTORE POP POP DUP1 PUSH1 0x3 PUSH1 0x0 DUP5 PUSH20 0xFFFFFFFFFFFFFFFFFFFFFFFFFFFFFFFFFFFFFFFF AND PUSH20 0xFFFFFFFFFFFFFFFFFFFFFFFFFFFFFFFFFFFFFFFF AND DUP2 MSTORE PUSH1 0x20 ADD SWAP1 DUP2 MSTORE PUSH1 0x20 ADD PUSH1 0x0 KECCAK256 DUP2 SWAP1 SSTORE POP PUSH1 0xC PUSH1 0x0 DUP4 PUSH20 0xFFFFFFFFFFFFFFFFFFFFFFFFFFFFFFFFFFFFFFFF AND PUSH20 0xFFFFFFFFFFFFFFFFFFFFFFFFFFFFFFFFFFFFFFFF AND DUP2 MSTORE PUSH1 0x20 ADD SWAP1 DUP2 MSTORE PUSH1 0x20 ADD PUSH1 0x0 KECCAK256 PUSH1 0x0 SWAP1 SLOAD SWAP1 PUSH2 0x100 EXP SWAP1 DIV PUSH1 0xFF AND PUSH2 0x1C30 JUMPI PUSH1 0x1 PUSH1 0xC PUSH1 0x0 DUP5 PUSH20 0xFFFFFFFFFFFFFFFFFFFFFFFFFFFFFFFFFFFFFFFF AND PUSH20 0xFFFFFFFFFFFFFFFFFFFFFFFFFFFFFFFFFFFFFFFF AND DUP2 MSTORE PUSH1 0x20 ADD SWAP1 DUP2 MSTORE PUSH1 0x20 ADD PUSH1 0x0 KECCAK256 PUSH1 0x0 PUSH2 0x100 EXP DUP2 SLOAD DUP2 PUSH1 0xFF MUL NOT AND SWAP1 DUP4 ISZERO ISZERO MUL OR SWAP1 SSTORE POP PUSH1 0xB DUP3 SWAP1 DUP1 PUSH1 0x1 DUP2 SLOAD ADD DUP1 DUP3 SSTORE DUP1 SWAP2 POP POP PUSH1 0x1 SWAP1 SUB SWAP1 PUSH1 0x0 MSTORE PUSH1 0x20 PUSH1 0x0 KECCAK256 ADD PUSH1 0x0 SWAP1 SWAP2 SWAP1 SWAP2 SWAP1 SWAP2 PUSH2 0x100 EXP DUP2 SLOAD DUP2 PUSH20 0xFFFFFFFFFFFFFFFFFFFFFFFFFFFFFFFFFFFFFFFF MUL NOT AND SWAP1 DUP4 PUSH20 0xFFFFFFFFFFFFFFFFFFFFFFFFFFFFFFFFFFFFFFFF AND MUL OR SWAP1 SSTORE POP JUMPDEST DUP2 PUSH20 0xFFFFFFFFFFFFFFFFFFFFFFFFFFFFFFFFFFFFFFFF AND CALLER PUSH20 0xFFFFFFFFFFFFFFFFFFFFFFFFFFFFFFFFFFFFFFFF AND PUSH32 0xF70D5C697DE7EA828DF48E5C4573CB2194C659F1901F70110C52B066DCF50826 DUP4 PUSH1 0x40 MLOAD PUSH2 0x1C8D SWAP2 SWAP1 PUSH2 0x3F18 JUMP JUMPDEST PUSH1 0x40 MLOAD DUP1 SWAP2 SUB SWAP1 LOG3 POP POP JUMP JUMPDEST PUSH2 0x1D3C PUSH32 0x0 PUSH20 0xFFFFFFFFFFFFFFFFFFFFFFFFFFFFFFFFFFFFFFFF AND PUSH4 0x70A08231 CALLER PUSH1 0x40 MLOAD DUP3 PUSH4 0xFFFFFFFF AND PUSH1 0xE0 SHL DUP2 MSTORE PUSH1 0x4 ADD PUSH2 0x1CF5 SWAP2 SWAP1 PUSH2 0x4191 JUMP JUMPDEST PUSH1 0x20 PUSH1 0x40 MLOAD DUP1 DUP4 SUB DUP2 DUP7 GAS STATICCALL ISZERO DUP1 ISZERO PUSH2 0x1D12 JUMPI RETURNDATASIZE PUSH1 0x0 DUP1 RETURNDATACOPY RETURNDATASIZE PUSH1 0x0 REVERT JUMPDEST POP POP POP POP PUSH1 0x40 MLOAD RETURNDATASIZE PUSH1 0x1F NOT PUSH1 0x1F DUP3 ADD AND DUP3 ADD DUP1 PUSH1 0x40 MSTORE POP DUP2 ADD SWAP1 PUSH2 0x1D36 SWAP2 SWAP1 PUSH2 0x450B JUMP JUMPDEST DUP3 PUSH2 0x2096 JUMP JUMPDEST POP JUMP JUMPDEST PUSH1 0x0 DUP1 PUSH1 0x8 PUSH1 0x0 DUP5 PUSH20 0xFFFFFFFFFFFFFFFFFFFFFFFFFFFFFFFFFFFFFFFF AND PUSH20 0xFFFFFFFFFFFFFFFFFFFFFFFFFFFFFFFFFFFFFFFF AND DUP2 MSTORE PUSH1 0x20 ADD SWAP1 DUP2 MSTORE PUSH1 0x20 ADD PUSH1 0x0 KECCAK256 SLOAD SWAP1 POP PUSH1 0x0 PUSH1 0xA PUSH1 0x0 DUP6 PUSH20 0xFFFFFFFFFFFFFFFFFFFFFFFFFFFFFFFFFFFFFFFF AND PUSH20 0xFFFFFFFFFFFFFFFFFFFFFFFFFFFFFFFFFFFFFFFF AND DUP2 MSTORE PUSH1 0x20 ADD SWAP1 DUP2 MSTORE PUSH1 0x20 ADD PUSH1 0x0 KECCAK256 SLOAD SWAP1 POP PUSH1 0x0 PUSH1 0x64 PUSH1 0x1E DUP4 PUSH2 0x1DD9 SWAP2 SWAP1 PUSH2 0x433B JUMP JUMPDEST PUSH2 0x1DE3 SWAP2 SWAP1 PUSH2 0x42B4 JUMP JUMPDEST SWAP1 POP PUSH1 0x0 DUP1 PUSH32 0x0 PUSH20 0xFFFFFFFFFFFFFFFFFFFFFFFFFFFFFFFFFFFFFFFF AND PUSH4 0xA7CAC846 PUSH32 0x0 PUSH1 0x40 MLOAD DUP3 PUSH4 0xFFFFFFFF AND PUSH1 0xE0 SHL DUP2 MSTORE PUSH1 0x4 ADD PUSH2 0x1E61 SWAP2 SWAP1 PUSH2 0x4191 JUMP JUMPDEST PUSH1 0x20 PUSH1 0x40 MLOAD DUP1 DUP4 SUB DUP2 DUP7 GAS STATICCALL ISZERO DUP1 ISZERO PUSH2 0x1E7E JUMPI RETURNDATASIZE PUSH1 0x0 DUP1 RETURNDATACOPY RETURNDATASIZE PUSH1 0x0 REVERT JUMPDEST POP POP POP POP PUSH1 0x40 MLOAD RETURNDATASIZE PUSH1 0x1F NOT PUSH1 0x1F DUP3 ADD AND DUP3 ADD DUP1 PUSH1 0x40 MSTORE POP DUP2 ADD SWAP1 PUSH2 0x1EA2 SWAP2 SWAP1 PUSH2 0x450B JUMP JUMPDEST SWAP1 POP PUSH32 0x0 PUSH20 0xFFFFFFFFFFFFFFFFFFFFFFFFFFFFFFFFFFFFFFFF AND PUSH4 0x6352211E DUP7 PUSH1 0x40 MLOAD DUP3 PUSH4 0xFFFFFFFF AND PUSH1 0xE0 SHL DUP2 MSTORE PUSH1 0x4 ADD PUSH2 0x1EFD SWAP2 SWAP1 PUSH2 0x3F18 JUMP JUMPDEST PUSH1 0x20 PUSH1 0x40 MLOAD DUP1 DUP4 SUB DUP2 DUP7 GAS STATICCALL ISZERO DUP1 ISZERO PUSH2 0x1F1A JUMPI RETURNDATASIZE PUSH1 0x0 DUP1 RETURNDATACOPY RETURNDATASIZE PUSH1 0x0 REVERT JUMPDEST POP POP POP POP PUSH1 0x40 MLOAD RETURNDATASIZE PUSH1 0x1F NOT PUSH1 0x1F DUP3 ADD AND DUP3 ADD DUP1 PUSH1 0x40 MSTORE POP DUP2 ADD SWAP1 PUSH2 0x1F3E SWAP2 SWAP1 PUSH2 0x454D JUMP JUMPDEST PUSH20 0xFFFFFFFFFFFFFFFFFFFFFFFFFFFFFFFFFFFFFFFF AND DUP8 PUSH20 0xFFFFFFFFFFFFFFFFFFFFFFFFFFFFFFFFFFFFFFFF AND EQ DUP1 ISZERO PUSH2 0x1F78 JUMPI POP PUSH1 0x0 DUP2 GT JUMPDEST ISZERO PUSH2 0x206F JUMPI PUSH32 0x0 PUSH20 0xFFFFFFFFFFFFFFFFFFFFFFFFFFFFFFFFFFFFFFFF AND PUSH4 0xD23254B4 DUP7 PUSH32 0x0 PUSH1 0x40 MLOAD DUP4 PUSH4 0xFFFFFFFF AND PUSH1 0xE0 SHL DUP2 MSTORE PUSH1 0x4 ADD PUSH2 0x1FF8 SWAP3 SWAP2 SWAP1 PUSH2 0x457A JUMP JUMPDEST PUSH1 0x20 PUSH1 0x40 MLOAD DUP1 DUP4 SUB DUP2 DUP7 GAS STATICCALL ISZERO DUP1 ISZERO PUSH2 0x2015 JUMPI RETURNDATASIZE PUSH1 0x0 DUP1 RETURNDATACOPY RETURNDATASIZE PUSH1 0x0 REVERT JUMPDEST POP POP POP POP PUSH1 0x40 MLOAD RETURNDATASIZE PUSH1 0x1F NOT PUSH1 0x1F DUP3 ADD AND DUP3 ADD DUP1 PUSH1 0x40 MSTORE POP DUP2 ADD SWAP1 PUSH2 0x2039 SWAP2 SWAP1 PUSH2 0x450B JUMP JUMPDEST SWAP2 POP PUSH1 0x64 PUSH1 0x46 DUP3 DUP5 PUSH1 0x9 SLOAD PUSH2 0x204E SWAP2 SWAP1 PUSH2 0x433B JUMP JUMPDEST PUSH2 0x2058 SWAP2 SWAP1 PUSH2 0x42B4 JUMP JUMPDEST PUSH2 0x2062 SWAP2 SWAP1 PUSH2 0x433B JUMP JUMPDEST PUSH2 0x206C SWAP2 SWAP1 PUSH2 0x42B4 JUMP JUMPDEST SWAP2 POP JUMPDEST PUSH2 0x2084 DUP3 DUP5 PUSH2 0x207E SWAP2 SWAP1 PUSH2 0x42E5 JUMP JUMPDEST DUP6 PUSH2 0x3A1A JUMP JUMPDEST SWAP6 POP POP POP POP POP POP SWAP2 SWAP1 POP JUMP JUMPDEST PUSH1 0x1 SLOAD DUP2 JUMP JUMPDEST PUSH1 0x2 PUSH1 0x0 SLOAD EQ ISZERO PUSH2 0x20DC JUMPI PUSH1 0x40 MLOAD PUSH32 0x8C379A000000000000000000000000000000000000000000000000000000000 DUP2 MSTORE PUSH1 0x4 ADD PUSH2 0x20D3 SWAP1 PUSH2 0x443B JUMP JUMPDEST PUSH1 0x40 MLOAD DUP1 SWAP2 SUB SWAP1 REVERT JUMPDEST PUSH1 0x2 PUSH1 0x0 DUP2 SWAP1 SSTORE POP PUSH1 0x0 DUP3 GT PUSH2 0x20F1 JUMPI PUSH1 0x0 DUP1 REVERT JUMPDEST PUSH2 0x211D PUSH32 0x0 CALLER ADDRESS DUP6 PUSH2 0x3A33 JUMP JUMPDEST DUP2 PUSH1 0x9 PUSH1 0x0 DUP3 DUP3 SLOAD PUSH2 0x212F SWAP2 SWAP1 PUSH2 0x42E5 JUMP JUMPDEST SWAP3 POP POP DUP2 SWAP1 SSTORE POP DUP2 PUSH1 0xA PUSH1 0x0 CALLER PUSH20 0xFFFFFFFFFFFFFFFFFFFFFFFFFFFFFFFFFFFFFFFF AND PUSH20 0xFFFFFFFFFFFFFFFFFFFFFFFFFFFFFFFFFFFFFFFF AND DUP2 MSTORE PUSH1 0x20 ADD SWAP1 DUP2 MSTORE PUSH1 0x20 ADD PUSH1 0x0 KECCAK256 PUSH1 0x0 DUP3 DUP3 SLOAD PUSH2 0x2185 SWAP2 SWAP1 PUSH2 0x42E5 JUMP JUMPDEST SWAP3 POP POP DUP2 SWAP1 SSTORE POP PUSH1 0x0 DUP2 GT ISZERO PUSH2 0x23D0 JUMPI CALLER PUSH20 0xFFFFFFFFFFFFFFFFFFFFFFFFFFFFFFFFFFFFFFFF AND PUSH32 0x0 PUSH20 0xFFFFFFFFFFFFFFFFFFFFFFFFFFFFFFFFFFFFFFFF AND PUSH4 0x6352211E DUP4 PUSH1 0x40 MLOAD DUP3 PUSH4 0xFFFFFFFF AND PUSH1 0xE0 SHL DUP2 MSTORE PUSH1 0x4 ADD PUSH2 0x2205 SWAP2 SWAP1 PUSH2 0x3F18 JUMP JUMPDEST PUSH1 0x20 PUSH1 0x40 MLOAD DUP1 DUP4 SUB DUP2 DUP7 GAS STATICCALL ISZERO DUP1 ISZERO PUSH2 0x2222 JUMPI RETURNDATASIZE PUSH1 0x0 DUP1 RETURNDATACOPY RETURNDATASIZE PUSH1 0x0 REVERT JUMPDEST POP POP POP POP PUSH1 0x40 MLOAD RETURNDATASIZE PUSH1 0x1F NOT PUSH1 0x1F DUP3 ADD AND DUP3 ADD DUP1 PUSH1 0x40 MSTORE POP DUP2 ADD SWAP1 PUSH2 0x2246 SWAP2 SWAP1 PUSH2 0x454D JUMP JUMPDEST PUSH20 0xFFFFFFFFFFFFFFFFFFFFFFFFFFFFFFFFFFFFFFFF AND EQ PUSH2 0x2266 JUMPI PUSH1 0x0 DUP1 REVERT JUMPDEST PUSH1 0x0 PUSH1 0x8 PUSH1 0x0 CALLER PUSH20 0xFFFFFFFFFFFFFFFFFFFFFFFFFFFFFFFFFFFFFFFF AND PUSH20 0xFFFFFFFFFFFFFFFFFFFFFFFFFFFFFFFFFFFFFFFF AND DUP2 MSTORE PUSH1 0x20 ADD SWAP1 DUP2 MSTORE PUSH1 0x20 ADD PUSH1 0x0 KECCAK256 SLOAD EQ ISZERO PUSH2 0x2380 JUMPI DUP1 PUSH1 0x8 PUSH1 0x0 CALLER PUSH20 0xFFFFFFFFFFFFFFFFFFFFFFFFFFFFFFFFFFFFFFFF AND PUSH20 0xFFFFFFFFFFFFFFFFFFFFFFFFFFFFFFFFFFFFFFFF AND DUP2 MSTORE PUSH1 0x20 ADD SWAP1 DUP2 MSTORE PUSH1 0x20 ADD PUSH1 0x0 KECCAK256 DUP2 SWAP1 SSTORE POP PUSH32 0x0 PUSH20 0xFFFFFFFFFFFFFFFFFFFFFFFFFFFFFFFFFFFFFFFF AND PUSH4 0x698473E3 DUP3 CALLER PUSH1 0x40 MLOAD DUP4 PUSH4 0xFFFFFFFF AND PUSH1 0xE0 SHL DUP2 MSTORE PUSH1 0x4 ADD PUSH2 0x234D SWAP3 SWAP2 SWAP1 PUSH2 0x457A JUMP JUMPDEST PUSH1 0x0 PUSH1 0x40 MLOAD DUP1 DUP4 SUB DUP2 PUSH1 0x0 DUP8 DUP1 EXTCODESIZE ISZERO DUP1 ISZERO PUSH2 0x2367 JUMPI PUSH1 0x0 DUP1 REVERT JUMPDEST POP GAS CALL ISZERO DUP1 ISZERO PUSH2 0x237B JUMPI RETURNDATASIZE PUSH1 0x0 DUP1 RETURNDATACOPY RETURNDATASIZE PUSH1 0x0 REVERT JUMPDEST POP POP POP POP JUMPDEST DUP1 PUSH1 0x8 PUSH1 0x0 CALLER PUSH20 0xFFFFFFFFFFFFFFFFFFFFFFFFFFFFFFFFFFFFFFFF AND PUSH20 0xFFFFFFFFFFFFFFFFFFFFFFFFFFFFFFFFFFFFFFFF AND DUP2 MSTORE PUSH1 0x20 ADD SWAP1 DUP2 MSTORE PUSH1 0x20 ADD PUSH1 0x0 KECCAK256 SLOAD EQ PUSH2 0x23CB JUMPI PUSH1 0x0 DUP1 REVERT JUMPDEST PUSH2 0x2413 JUMP JUMPDEST PUSH1 0x8 PUSH1 0x0 CALLER PUSH20 0xFFFFFFFFFFFFFFFFFFFFFFFFFFFFFFFFFFFFFFFF AND PUSH20 0xFFFFFFFFFFFFFFFFFFFFFFFFFFFFFFFFFFFFFFFF AND DUP2 MSTORE PUSH1 0x20 ADD SWAP1 DUP2 MSTORE PUSH1 0x20 ADD PUSH1 0x0 KECCAK256 SLOAD SWAP1 POP JUMPDEST PUSH1 0x0 PUSH1 0x2 PUSH1 0x0 CALLER PUSH20 0xFFFFFFFFFFFFFFFFFFFFFFFFFFFFFFFFFFFFFFFF AND PUSH20 0xFFFFFFFFFFFFFFFFFFFFFFFFFFFFFFFFFFFFFFFF AND DUP2 MSTORE PUSH1 0x20 ADD SWAP1 DUP2 MSTORE PUSH1 0x20 ADD PUSH1 0x0 KECCAK256 SLOAD SWAP1 POP DUP1 PUSH1 0x1 PUSH1 0x0 DUP3 DUP3 SLOAD PUSH2 0x2469 SWAP2 SWAP1 PUSH2 0x4251 JUMP JUMPDEST SWAP3 POP POP DUP2 SWAP1 SSTORE POP PUSH2 0x2479 CALLER PUSH2 0x1D3F JUMP JUMPDEST SWAP1 POP DUP1 PUSH1 0x2 PUSH1 0x0 CALLER PUSH20 0xFFFFFFFFFFFFFFFFFFFFFFFFFFFFFFFFFFFFFFFF AND PUSH20 0xFFFFFFFFFFFFFFFFFFFFFFFFFFFFFFFFFFFFFFFF AND DUP2 MSTORE PUSH1 0x20 ADD SWAP1 DUP2 MSTORE PUSH1 0x20 ADD PUSH1 0x0 KECCAK256 DUP2 SWAP1 SSTORE POP DUP1 PUSH1 0x1 PUSH1 0x0 DUP3 DUP3 SLOAD PUSH2 0x24D1 SWAP2 SWAP1 PUSH2 0x42E5 JUMP JUMPDEST SWAP3 POP POP DUP2 SWAP1 SSTORE POP PUSH2 0x24E2 CALLER DUP3 PUSH2 0x334B JUMP JUMPDEST PUSH2 0x24EA PUSH2 0x3543 JUMP JUMPDEST PUSH32 0x0 PUSH20 0xFFFFFFFFFFFFFFFFFFFFFFFFFFFFFFFFFFFFFFFF AND PUSH4 0xA61C713A DUP4 CALLER DUP7 PUSH1 0x40 MLOAD DUP5 PUSH4 0xFFFFFFFF AND PUSH1 0xE0 SHL DUP2 MSTORE PUSH1 0x4 ADD PUSH2 0x2547 SWAP4 SWAP3 SWAP2 SWAP1 PUSH2 0x45A3 JUMP JUMPDEST PUSH1 0x0 PUSH1 0x40 MLOAD DUP1 DUP4 SUB DUP2 PUSH1 0x0 DUP8 DUP1 EXTCODESIZE ISZERO DUP1 ISZERO PUSH2 0x2561 JUMPI PUSH1 0x0 DUP1 REVERT JUMPDEST POP GAS CALL ISZERO DUP1 ISZERO PUSH2 0x2575 JUMPI RETURNDATASIZE PUSH1 0x0 DUP1 RETURNDATACOPY RETURNDATASIZE PUSH1 0x0 REVERT JUMPDEST POP POP POP POP CALLER PUSH20 0xFFFFFFFFFFFFFFFFFFFFFFFFFFFFFFFFFFFFFFFF AND PUSH32 0x90890809C654F11D6E72A28FA60149770A0D11EC6C92319D6CEB2BB0A4EA1A15 DUP4 DUP6 PUSH1 0x40 MLOAD PUSH2 0x25C1 SWAP3 SWAP2 SWAP1 PUSH2 0x3EEF JUMP JUMPDEST PUSH1 0x40 MLOAD DUP1 SWAP2 SUB SWAP1 LOG2 POP PUSH1 0x1 PUSH1 0x0 DUP2 SWAP1 SSTORE POP POP POP JUMP JUMPDEST PUSH1 0x0 PUSH1 0xB DUP1 SLOAD SWAP1 POP SWAP1 POP SWAP1 JUMP JUMPDEST PUSH1 0x10 SLOAD DUP2 JUMP JUMPDEST PUSH1 0x0 DUP1 PUSH1 0x1 SLOAD EQ ISZERO PUSH2 0x263C JUMPI PUSH1 0x5 PUSH1 0x0 DUP4 PUSH20 0xFFFFFFFFFFFFFFFFFFFFFFFFFFFFFFFFFFFFFFFF AND PUSH20 0xFFFFFFFFFFFFFFFFFFFFFFFFFFFFFFFFFFFFFFFF AND DUP2 MSTORE PUSH1 0x20 ADD SWAP1 DUP2 MSTORE PUSH1 0x20 ADD PUSH1 0x0 KECCAK256 SLOAD SWAP1 POP PUSH2 0x2746 JUMP JUMPDEST PUSH1 0x1 SLOAD PUSH8 0xDE0B6B3A7640000 PUSH1 0x3 PUSH1 0x0 DUP6 PUSH20 0xFFFFFFFFFFFFFFFFFFFFFFFFFFFFFFFFFFFFFFFF AND PUSH20 0xFFFFFFFFFFFFFFFFFFFFFFFFFFFFFFFFFFFFFFFF AND DUP2 MSTORE PUSH1 0x20 ADD SWAP1 DUP2 MSTORE PUSH1 0x20 ADD PUSH1 0x0 KECCAK256 SLOAD PUSH1 0x4 PUSH1 0x0 DUP7 PUSH20 0xFFFFFFFFFFFFFFFFFFFFFFFFFFFFFFFFFFFFFFFF AND PUSH20 0xFFFFFFFFFFFFFFFFFFFFFFFFFFFFFFFFFFFFFFFF AND DUP2 MSTORE PUSH1 0x20 ADD SWAP1 DUP2 MSTORE PUSH1 0x20 ADD PUSH1 0x0 KECCAK256 SLOAD PUSH2 0x26D1 DUP7 PUSH2 0x1706 JUMP JUMPDEST PUSH2 0x26DB SWAP2 SWAP1 PUSH2 0x4251 JUMP JUMPDEST PUSH2 0x26E5 SWAP2 SWAP1 PUSH2 0x433B JUMP JUMPDEST PUSH2 0x26EF SWAP2 SWAP1 PUSH2 0x433B JUMP JUMPDEST PUSH2 0x26F9 SWAP2 SWAP1 PUSH2 0x42B4 JUMP JUMPDEST PUSH1 0x5 PUSH1 0x0 DUP5 PUSH20 0xFFFFFFFFFFFFFFFFFFFFFFFFFFFFFFFFFFFFFFFF AND PUSH20 0xFFFFFFFFFFFFFFFFFFFFFFFFFFFFFFFFFFFFFFFF AND DUP2 MSTORE PUSH1 0x20 ADD SWAP1 DUP2 MSTORE PUSH1 0x20 ADD PUSH1 0x0 KECCAK256 SLOAD PUSH2 0x2743 SWAP2 SWAP1 PUSH2 0x42E5 JUMP JUMPDEST SWAP1 POP JUMPDEST SWAP2 SWAP1 POP JUMP JUMPDEST PUSH1 0xB DUP2 DUP2 SLOAD DUP2 LT PUSH2 0x275B JUMPI PUSH1 0x0 DUP1 REVERT JUMPDEST SWAP1 PUSH1 0x0 MSTORE PUSH1 0x20 PUSH1 0x0 KECCAK256 ADD PUSH1 0x0 SWAP2 POP SLOAD SWAP1 PUSH2 0x100 EXP SWAP1 DIV PUSH20 0xFFFFFFFFFFFFFFFFFFFFFFFFFFFFFFFFFFFFFFFF AND DUP2 JUMP JUMPDEST PUSH1 0xF PUSH1 0x20 MSTORE DUP1 PUSH1 0x0 MSTORE PUSH1 0x40 PUSH1 0x0 KECCAK256 PUSH1 0x0 SWAP2 POP SWAP1 POP DUP1 PUSH1 0x0 ADD SLOAD SWAP1 DUP1 PUSH1 0x1 ADD SLOAD SWAP1 POP DUP3 JUMP JUMPDEST PUSH1 0x8 PUSH1 0x20 MSTORE DUP1 PUSH1 0x0 MSTORE PUSH1 0x40 PUSH1 0x0 KECCAK256 PUSH1 0x0 SWAP2 POP SWAP1 POP SLOAD DUP2 JUMP JUMPDEST PUSH1 0x0 DUP1 PUSH1 0x0 PUSH1 0x12 PUSH1 0x0 DUP7 PUSH20 0xFFFFFFFFFFFFFFFFFFFFFFFFFFFFFFFFFFFFFFFF AND PUSH20 0xFFFFFFFFFFFFFFFFFFFFFFFFFFFFFFFFFFFFFFFF AND DUP2 MSTORE PUSH1 0x20 ADD SWAP1 DUP2 MSTORE PUSH1 0x20 ADD PUSH1 0x0 KECCAK256 SLOAD SWAP1 POP PUSH1 0x0 DUP2 EQ ISZERO PUSH2 0x2823 JUMPI PUSH1 0x0 DUP1 SWAP3 POP SWAP3 POP POP PUSH2 0x2B6F JUMP JUMPDEST DUP4 PUSH1 0x11 PUSH1 0x0 DUP8 PUSH20 0xFFFFFFFFFFFFFFFFFFFFFFFFFFFFFFFFFFFFFFFF AND PUSH20 0xFFFFFFFFFFFFFFFFFFFFFFFFFFFFFFFFFFFFFFFF AND DUP2 MSTORE PUSH1 0x20 ADD SWAP1 DUP2 MSTORE PUSH1 0x20 ADD PUSH1 0x0 KECCAK256 PUSH1 0x0 PUSH1 0x1 DUP5 PUSH2 0x2872 SWAP2 SWAP1 PUSH2 0x4251 JUMP JUMPDEST DUP2 MSTORE PUSH1 0x20 ADD SWAP1 DUP2 MSTORE PUSH1 0x20 ADD PUSH1 0x0 KECCAK256 PUSH1 0x0 ADD SLOAD GT PUSH2 0x2953 JUMPI PUSH1 0x11 PUSH1 0x0 DUP7 PUSH20 0xFFFFFFFFFFFFFFFFFFFFFFFFFFFFFFFFFFFFFFFF AND PUSH20 0xFFFFFFFFFFFFFFFFFFFFFFFFFFFFFFFFFFFFFFFF AND DUP2 MSTORE PUSH1 0x20 ADD SWAP1 DUP2 MSTORE PUSH1 0x20 ADD PUSH1 0x0 KECCAK256 PUSH1 0x0 PUSH1 0x1 DUP4 PUSH2 0x28D7 SWAP2 SWAP1 PUSH2 0x4251 JUMP JUMPDEST DUP2 MSTORE PUSH1 0x20 ADD SWAP1 DUP2 MSTORE PUSH1 0x20 ADD PUSH1 0x0 KECCAK256 PUSH1 0x1 ADD SLOAD PUSH1 0x11 PUSH1 0x0 DUP8 PUSH20 0xFFFFFFFFFFFFFFFFFFFFFFFFFFFFFFFFFFFFFFFF AND PUSH20 0xFFFFFFFFFFFFFFFFFFFFFFFFFFFFFFFFFFFFFFFF AND DUP2 MSTORE PUSH1 0x20 ADD SWAP1 DUP2 MSTORE PUSH1 0x20 ADD PUSH1 0x0 KECCAK256 PUSH1 0x0 PUSH1 0x1 DUP5 PUSH2 0x2937 SWAP2 SWAP1 PUSH2 0x4251 JUMP JUMPDEST DUP2 MSTORE PUSH1 0x20 ADD SWAP1 DUP2 MSTORE PUSH1 0x20 ADD PUSH1 0x0 KECCAK256 PUSH1 0x0 ADD SLOAD SWAP3 POP SWAP3 POP POP PUSH2 0x2B6F JUMP JUMPDEST DUP4 PUSH1 0x11 PUSH1 0x0 DUP8 PUSH20 0xFFFFFFFFFFFFFFFFFFFFFFFFFFFFFFFFFFFFFFFF AND PUSH20 0xFFFFFFFFFFFFFFFFFFFFFFFFFFFFFFFFFFFFFFFF AND DUP2 MSTORE PUSH1 0x20 ADD SWAP1 DUP2 MSTORE PUSH1 0x20 ADD PUSH1 0x0 KECCAK256 PUSH1 0x0 DUP1 DUP2 MSTORE PUSH1 0x20 ADD SWAP1 DUP2 MSTORE PUSH1 0x20 ADD PUSH1 0x0 KECCAK256 PUSH1 0x0 ADD SLOAD GT ISZERO PUSH2 0x29BB JUMPI PUSH1 0x0 DUP1 SWAP3 POP SWAP3 POP POP PUSH2 0x2B6F JUMP JUMPDEST PUSH1 0x0 DUP1 PUSH1 0x1 DUP4 PUSH2 0x29CB SWAP2 SWAP1 PUSH2 0x4251 JUMP JUMPDEST SWAP1 POP JUMPDEST DUP2 DUP2 GT ISZERO PUSH2 0x2ABF JUMPI PUSH1 0x0 PUSH1 0x2 DUP4 DUP4 PUSH2 0x29E6 SWAP2 SWAP1 PUSH2 0x4251 JUMP JUMPDEST PUSH2 0x29F0 SWAP2 SWAP1 PUSH2 0x42B4 JUMP JUMPDEST DUP3 PUSH2 0x29FB SWAP2 SWAP1 PUSH2 0x4251 JUMP JUMPDEST SWAP1 POP PUSH1 0x0 PUSH1 0x11 PUSH1 0x0 DUP11 PUSH20 0xFFFFFFFFFFFFFFFFFFFFFFFFFFFFFFFFFFFFFFFF AND PUSH20 0xFFFFFFFFFFFFFFFFFFFFFFFFFFFFFFFFFFFFFFFF AND DUP2 MSTORE PUSH1 0x20 ADD SWAP1 DUP2 MSTORE PUSH1 0x20 ADD PUSH1 0x0 KECCAK256 PUSH1 0x0 DUP4 DUP2 MSTORE PUSH1 0x20 ADD SWAP1 DUP2 MSTORE PUSH1 0x20 ADD PUSH1 0x0 KECCAK256 PUSH1 0x40 MLOAD DUP1 PUSH1 0x40 ADD PUSH1 0x40 MSTORE SWAP1 DUP2 PUSH1 0x0 DUP3 ADD SLOAD DUP2 MSTORE PUSH1 0x20 ADD PUSH1 0x1 DUP3 ADD SLOAD DUP2 MSTORE POP POP SWAP1 POP DUP8 DUP2 PUSH1 0x0 ADD MLOAD EQ ISZERO PUSH2 0x2A94 JUMPI DUP1 PUSH1 0x20 ADD MLOAD DUP2 PUSH1 0x0 ADD MLOAD SWAP7 POP SWAP7 POP POP POP POP POP POP PUSH2 0x2B6F JUMP JUMPDEST DUP8 DUP2 PUSH1 0x0 ADD MLOAD LT ISZERO PUSH2 0x2AA8 JUMPI DUP2 SWAP4 POP PUSH2 0x2AB8 JUMP JUMPDEST PUSH1 0x1 DUP3 PUSH2 0x2AB5 SWAP2 SWAP1 PUSH2 0x4251 JUMP JUMPDEST SWAP3 POP JUMPDEST POP POP PUSH2 0x29CE JUMP JUMPDEST PUSH1 0x11 PUSH1 0x0 DUP9 PUSH20 0xFFFFFFFFFFFFFFFFFFFFFFFFFFFFFFFFFFFFFFFF AND PUSH20 0xFFFFFFFFFFFFFFFFFFFFFFFFFFFFFFFFFFFFFFFF AND DUP2 MSTORE PUSH1 0x20 ADD SWAP1 DUP2 MSTORE PUSH1 0x20 ADD PUSH1 0x0 KECCAK256 PUSH1 0x0 DUP4 DUP2 MSTORE PUSH1 0x20 ADD SWAP1 DUP2 MSTORE PUSH1 0x20 ADD PUSH1 0x0 KECCAK256 PUSH1 0x1 ADD SLOAD PUSH1 0x11 PUSH1 0x0 DUP10 PUSH20 0xFFFFFFFFFFFFFFFFFFFFFFFFFFFFFFFFFFFFFFFF AND PUSH20 0xFFFFFFFFFFFFFFFFFFFFFFFFFFFFFFFFFFFFFFFF AND DUP2 MSTORE PUSH1 0x20 ADD SWAP1 DUP2 MSTORE PUSH1 0x20 ADD PUSH1 0x0 KECCAK256 PUSH1 0x0 DUP5 DUP2 MSTORE PUSH1 0x20 ADD SWAP1 DUP2 MSTORE PUSH1 0x20 ADD PUSH1 0x0 KECCAK256 PUSH1 0x0 ADD SLOAD SWAP5 POP SWAP5 POP POP POP POP JUMPDEST SWAP3 POP SWAP3 SWAP1 POP JUMP JUMPDEST PUSH1 0x2 PUSH1 0x0 SLOAD EQ ISZERO PUSH2 0x2BBC JUMPI PUSH1 0x40 MLOAD PUSH32 0x8C379A000000000000000000000000000000000000000000000000000000000 DUP2 MSTORE PUSH1 0x4 ADD PUSH2 0x2BB3 SWAP1 PUSH2 0x443B JUMP JUMPDEST PUSH1 0x40 MLOAD DUP1 SWAP2 SUB SWAP1 REVERT JUMPDEST PUSH1 0x2 PUSH1 0x0 DUP2 SWAP1 SSTORE POP DUP2 PUSH1 0x9 PUSH1 0x0 DUP3 DUP3 SLOAD PUSH2 0x2BD6 SWAP2 SWAP1 PUSH2 0x4251 JUMP JUMPDEST SWAP3 POP POP DUP2 SWAP1 SSTORE POP DUP2 PUSH1 0xA PUSH1 0x0 CALLER PUSH20 0xFFFFFFFFFFFFFFFFFFFFFFFFFFFFFFFFFFFFFFFF AND PUSH20 0xFFFFFFFFFFFFFFFFFFFFFFFFFFFFFFFFFFFFFFFF AND DUP2 MSTORE PUSH1 0x20 ADD SWAP1 DUP2 MSTORE PUSH1 0x20 ADD PUSH1 0x0 KECCAK256 PUSH1 0x0 DUP3 DUP3 SLOAD PUSH2 0x2C2C SWAP2 SWAP1 PUSH2 0x4251 JUMP JUMPDEST SWAP3 POP POP DUP2 SWAP1 SSTORE POP PUSH2 0x2C5E PUSH32 0x0 CALLER DUP5 PUSH2 0x3B6C JUMP JUMPDEST PUSH1 0x0 DUP2 GT ISZERO PUSH2 0x2D89 JUMPI PUSH1 0x8 PUSH1 0x0 CALLER PUSH20 0xFFFFFFFFFFFFFFFFFFFFFFFFFFFFFFFFFFFFFFFF AND PUSH20 0xFFFFFFFFFFFFFFFFFFFFFFFFFFFFFFFFFFFFFFFF AND DUP2 MSTORE PUSH1 0x20 ADD SWAP1 DUP2 MSTORE PUSH1 0x20 ADD PUSH1 0x0 KECCAK256 SLOAD DUP2 EQ PUSH2 0x2CB2 JUMPI PUSH1 0x0 DUP1 REVERT JUMPDEST PUSH1 0x0 PUSH1 0x8 PUSH1 0x0 CALLER PUSH20 0xFFFFFFFFFFFFFFFFFFFFFFFFFFFFFFFFFFFFFFFF AND PUSH20 0xFFFFFFFFFFFFFFFFFFFFFFFFFFFFFFFFFFFFFFFF AND DUP2 MSTORE PUSH1 0x20 ADD SWAP1 DUP2 MSTORE PUSH1 0x20 ADD PUSH1 0x0 KECCAK256 DUP2 SWAP1 SSTORE POP PUSH32 0x0 PUSH20 0xFFFFFFFFFFFFFFFFFFFFFFFFFFFFFFFFFFFFFFFF AND PUSH4 0x411B1F77 DUP3 CALLER PUSH1 0x40 MLOAD DUP4 PUSH4 0xFFFFFFFF AND PUSH1 0xE0 SHL DUP2 MSTORE PUSH1 0x4 ADD PUSH2 0x2D52 SWAP3 SWAP2 SWAP1 PUSH2 0x457A JUMP JUMPDEST PUSH1 0x0 PUSH1 0x40 MLOAD DUP1 DUP4 SUB DUP2 PUSH1 0x0 DUP8 DUP1 EXTCODESIZE ISZERO DUP1 ISZERO PUSH2 0x2D6C JUMPI PUSH1 0x0 DUP1 REVERT JUMPDEST POP GAS CALL ISZERO DUP1 ISZERO PUSH2 0x2D80 JUMPI RETURNDATASIZE PUSH1 0x0 DUP1 RETURNDATACOPY RETURNDATASIZE PUSH1 0x0 REVERT JUMPDEST POP POP POP POP PUSH2 0x2DCC JUMP JUMPDEST PUSH1 0x8 PUSH1 0x0 CALLER PUSH20 0xFFFFFFFFFFFFFFFFFFFFFFFFFFFFFFFFFFFFFFFF AND PUSH20 0xFFFFFFFFFFFFFFFFFFFFFFFFFFFFFFFFFFFFFFFF AND DUP2 MSTORE PUSH1 0x20 ADD SWAP1 DUP2 MSTORE PUSH1 0x20 ADD PUSH1 0x0 KECCAK256 SLOAD SWAP1 POP JUMPDEST PUSH1 0x0 PUSH1 0x2 PUSH1 0x0 CALLER PUSH20 0xFFFFFFFFFFFFFFFFFFFFFFFFFFFFFFFFFFFFFFFF AND PUSH20 0xFFFFFFFFFFFFFFFFFFFFFFFFFFFFFFFFFFFFFFFF AND DUP2 MSTORE PUSH1 0x20 ADD SWAP1 DUP2 MSTORE PUSH1 0x20 ADD PUSH1 0x0 KECCAK256 SLOAD SWAP1 POP DUP1 PUSH1 0x1 PUSH1 0x0 DUP3 DUP3 SLOAD PUSH2 0x2E22 SWAP2 SWAP1 PUSH2 0x4251 JUMP JUMPDEST SWAP3 POP POP DUP2 SWAP1 SSTORE POP PUSH2 0x2E32 CALLER PUSH2 0x1D3F JUMP JUMPDEST SWAP1 POP DUP1 PUSH1 0x2 PUSH1 0x0 CALLER PUSH20 0xFFFFFFFFFFFFFFFFFFFFFFFFFFFFFFFFFFFFFFFF AND PUSH20 0xFFFFFFFFFFFFFFFFFFFFFFFFFFFFFFFFFFFFFFFF AND DUP2 MSTORE PUSH1 0x20 ADD SWAP1 DUP2 MSTORE PUSH1 0x20 ADD PUSH1 0x0 KECCAK256 DUP2 SWAP1 SSTORE POP DUP1 PUSH1 0x1 PUSH1 0x0 DUP3 DUP3 SLOAD PUSH2 0x2E8A SWAP2 SWAP1 PUSH2 0x42E5 JUMP JUMPDEST SWAP3 POP POP DUP2 SWAP1 SSTORE POP PUSH2 0x2EDA CALLER PUSH1 0x2 PUSH1 0x0 CALLER PUSH20 0xFFFFFFFFFFFFFFFFFFFFFFFFFFFFFFFFFFFFFFFF AND PUSH20 0xFFFFFFFFFFFFFFFFFFFFFFFFFFFFFFFFFFFFFFFF AND DUP2 MSTORE PUSH1 0x20 ADD SWAP1 DUP2 MSTORE PUSH1 0x20 ADD PUSH1 0x0 KECCAK256 SLOAD PUSH2 0x334B JUMP JUMPDEST PUSH2 0x2EE2 PUSH2 0x3543 JUMP JUMPDEST PUSH32 0x0 PUSH20 0xFFFFFFFFFFFFFFFFFFFFFFFFFFFFFFFFFFFFFFFF AND PUSH4 0xEA94EE44 DUP4 CALLER DUP7 PUSH1 0x40 MLOAD DUP5 PUSH4 0xFFFFFFFF AND PUSH1 0xE0 SHL DUP2 MSTORE PUSH1 0x4 ADD PUSH2 0x2F3F SWAP4 SWAP3 SWAP2 SWAP1 PUSH2 0x45A3 JUMP JUMPDEST PUSH1 0x0 PUSH1 0x40 MLOAD DUP1 DUP4 SUB DUP2 PUSH1 0x0 DUP8 DUP1 EXTCODESIZE ISZERO DUP1 ISZERO PUSH2 0x2F59 JUMPI PUSH1 0x0 DUP1 REVERT JUMPDEST POP GAS CALL ISZERO DUP1 ISZERO PUSH2 0x2F6D JUMPI RETURNDATASIZE PUSH1 0x0 DUP1 RETURNDATACOPY RETURNDATASIZE PUSH1 0x0 REVERT JUMPDEST POP POP POP POP CALLER PUSH20 0xFFFFFFFFFFFFFFFFFFFFFFFFFFFFFFFFFFFFFFFF AND PUSH32 0xF279E6A1F5E320CCA91135676D9CB6E44CA8A08C0B88342BCDB1144F6511B568 DUP4 DUP6 PUSH1 0x40 MLOAD PUSH2 0x2FB9 SWAP3 SWAP2 SWAP1 PUSH2 0x3EEF JUMP JUMPDEST PUSH1 0x40 MLOAD DUP1 SWAP2 SUB SWAP1 LOG2 POP PUSH1 0x1 PUSH1 0x0 DUP2 SWAP1 SSTORE POP POP POP JUMP JUMPDEST PUSH1 0x0 DUP2 DUP4 LT ISZERO PUSH2 0x2FDE JUMPI DUP2 PUSH2 0x2FE0 JUMP JUMPDEST DUP3 JUMPDEST SWAP1 POP SWAP3 SWAP2 POP POP JUMP JUMPDEST PUSH1 0x0 DUP1 PUSH1 0x0 PUSH1 0x4 PUSH1 0x0 DUP6 PUSH20 0xFFFFFFFFFFFFFFFFFFFFFFFFFFFFFFFFFFFFFFFF AND PUSH20 0xFFFFFFFFFFFFFFFFFFFFFFFFFFFFFFFFFFFFFFFF AND DUP2 MSTORE PUSH1 0x20 ADD SWAP1 DUP2 MSTORE PUSH1 0x20 ADD PUSH1 0x0 KECCAK256 SLOAD SWAP1 POP PUSH1 0x0 PUSH1 0x5 PUSH1 0x0 DUP7 PUSH20 0xFFFFFFFFFFFFFFFFFFFFFFFFFFFFFFFFFFFFFFFF AND PUSH20 0xFFFFFFFFFFFFFFFFFFFFFFFFFFFFFFFFFFFFFFFF AND DUP2 MSTORE PUSH1 0x20 ADD SWAP1 DUP2 MSTORE PUSH1 0x20 ADD PUSH1 0x0 KECCAK256 SLOAD SWAP1 POP PUSH1 0x0 PUSH1 0x10 SLOAD EQ ISZERO PUSH2 0x308B JUMPI DUP1 DUP3 SWAP4 POP SWAP4 POP POP POP PUSH2 0x32A1 JUMP JUMPDEST PUSH1 0x0 PUSH1 0x3 PUSH1 0x0 DUP8 PUSH20 0xFFFFFFFFFFFFFFFFFFFFFFFFFFFFFFFFFFFFFFFF AND PUSH20 0xFFFFFFFFFFFFFFFFFFFFFFFFFFFFFFFFFFFFFFFF AND DUP2 MSTORE PUSH1 0x20 ADD SWAP1 DUP2 MSTORE PUSH1 0x20 ADD PUSH1 0x0 KECCAK256 SLOAD EQ ISZERO PUSH2 0x30E0 JUMPI DUP1 TIMESTAMP SWAP4 POP SWAP4 POP POP POP PUSH2 0x32A1 JUMP JUMPDEST PUSH1 0x0 PUSH2 0x30EB DUP4 PUSH2 0x1758 JUMP JUMPDEST SWAP1 POP PUSH1 0x0 PUSH1 0x1 PUSH1 0x10 SLOAD PUSH2 0x30FE SWAP2 SWAP1 PUSH2 0x4251 JUMP JUMPDEST SWAP1 POP PUSH1 0x1 DUP3 DUP3 PUSH2 0x310E SWAP2 SWAP1 PUSH2 0x4251 JUMP JUMPDEST GT ISZERO PUSH2 0x3209 JUMPI PUSH1 0x0 DUP3 SWAP1 POP JUMPDEST PUSH1 0x1 DUP3 PUSH2 0x3127 SWAP2 SWAP1 PUSH2 0x4251 JUMP JUMPDEST DUP2 LT ISZERO PUSH2 0x3207 JUMPI PUSH1 0x0 PUSH1 0xF PUSH1 0x0 DUP4 DUP2 MSTORE PUSH1 0x20 ADD SWAP1 DUP2 MSTORE PUSH1 0x20 ADD PUSH1 0x0 KECCAK256 PUSH1 0x40 MLOAD DUP1 PUSH1 0x40 ADD PUSH1 0x40 MSTORE SWAP1 DUP2 PUSH1 0x0 DUP3 ADD SLOAD DUP2 MSTORE PUSH1 0x20 ADD PUSH1 0x1 DUP3 ADD SLOAD DUP2 MSTORE POP POP SWAP1 POP PUSH1 0x0 DUP2 PUSH1 0x20 ADD MLOAD GT ISZERO PUSH2 0x31F3 JUMPI PUSH1 0x0 PUSH1 0xF PUSH1 0x0 PUSH1 0x1 DUP6 PUSH2 0x3184 SWAP2 SWAP1 PUSH2 0x42E5 JUMP JUMPDEST DUP2 MSTORE PUSH1 0x20 ADD SWAP1 DUP2 MSTORE PUSH1 0x20 ADD PUSH1 0x0 KECCAK256 PUSH1 0x40 MLOAD DUP1 PUSH1 0x40 ADD PUSH1 0x40 MSTORE SWAP1 DUP2 PUSH1 0x0 DUP3 ADD SLOAD DUP2 MSTORE PUSH1 0x20 ADD PUSH1 0x1 DUP3 ADD SLOAD DUP2 MSTORE POP POP SWAP1 POP PUSH1 0x0 DUP1 PUSH2 0x31CF DUP13 DUP5 PUSH1 0x0 ADD MLOAD DUP7 PUSH1 0x0 ADD MLOAD DUP8 PUSH1 0x20 ADD MLOAD DUP14 PUSH2 0x3CA2 JUMP JUMPDEST SWAP2 POP SWAP2 POP DUP2 DUP9 PUSH2 0x31DF SWAP2 SWAP1 PUSH2 0x42E5 JUMP JUMPDEST SWAP8 POP PUSH2 0x31EC DUP13 DUP10 DUP4 PUSH2 0x3827 JUMP JUMPDEST DUP1 SWAP9 POP POP POP POP JUMPDEST POP DUP1 DUP1 PUSH2 0x31FF SWAP1 PUSH2 0x4395 JUMP JUMPDEST SWAP2 POP POP PUSH2 0x311A JUMP JUMPDEST POP JUMPDEST PUSH1 0x0 PUSH1 0xF PUSH1 0x0 DUP4 DUP2 MSTORE PUSH1 0x20 ADD SWAP1 DUP2 MSTORE PUSH1 0x20 ADD PUSH1 0x0 KECCAK256 PUSH1 0x40 MLOAD DUP1 PUSH1 0x40 ADD PUSH1 0x40 MSTORE SWAP1 DUP2 PUSH1 0x0 DUP3 ADD SLOAD DUP2 MSTORE PUSH1 0x20 ADD PUSH1 0x1 DUP3 ADD SLOAD DUP2 MSTORE POP POP SWAP1 POP PUSH1 0x0 DUP2 PUSH1 0x20 ADD MLOAD GT ISZERO PUSH2 0x3295 JUMPI PUSH1 0x0 PUSH2 0x3274 DUP10 PUSH2 0x325B DUP12 PUSH2 0x1706 JUMP JUMPDEST PUSH2 0x3269 DUP6 PUSH1 0x0 ADD MLOAD DUP11 PUSH2 0x2FCE JUMP JUMPDEST DUP6 PUSH1 0x20 ADD MLOAD DUP11 PUSH2 0x3CA2 JUMP JUMPDEST POP SWAP1 POP DUP1 DUP6 PUSH2 0x3283 SWAP2 SWAP1 PUSH2 0x42E5 JUMP JUMPDEST SWAP5 POP PUSH2 0x3290 DUP10 DUP7 TIMESTAMP PUSH2 0x3827 JUMP JUMPDEST TIMESTAMP SWAP6 POP POP JUMPDEST DUP4 DUP6 SWAP7 POP SWAP7 POP POP POP POP POP POP JUMPDEST SWAP2 POP SWAP2 JUMP JUMPDEST PUSH2 0x32B0 DUP4 DUP3 PUSH2 0x3D40 JUMP JUMPDEST PUSH1 0x0 DUP4 PUSH20 0xFFFFFFFFFFFFFFFFFFFFFFFFFFFFFFFFFFFFFFFF AND PUSH4 0x70A08231 ADDRESS PUSH1 0x40 MLOAD DUP3 PUSH4 0xFFFFFFFF AND PUSH1 0xE0 SHL DUP2 MSTORE PUSH1 0x4 ADD PUSH2 0x32EB SWAP2 SWAP1 PUSH2 0x4191 JUMP JUMPDEST PUSH1 0x20 PUSH1 0x40 MLOAD DUP1 DUP4 SUB DUP2 DUP7 GAS STATICCALL ISZERO DUP1 ISZERO PUSH2 0x3308 JUMPI RETURNDATASIZE PUSH1 0x0 DUP1 RETURNDATACOPY RETURNDATASIZE PUSH1 0x0 REVERT JUMPDEST POP POP POP POP PUSH1 0x40 MLOAD RETURNDATASIZE PUSH1 0x1F NOT PUSH1 0x1F DUP3 ADD AND DUP3 ADD DUP1 PUSH1 0x40 MSTORE POP DUP2 ADD SWAP1 PUSH2 0x332C SWAP2 SWAP1 PUSH2 0x450B JUMP JUMPDEST SWAP1 POP DUP1 DUP3 GT ISZERO PUSH2 0x333A JUMPI DUP1 SWAP2 POP JUMPDEST PUSH2 0x3345 DUP5 DUP5 DUP5 PUSH2 0x3B6C JUMP JUMPDEST POP POP POP POP JUMP JUMPDEST PUSH1 0x0 TIMESTAMP SWAP1 POP PUSH1 0x0 PUSH1 0xE PUSH1 0x0 DUP6 PUSH20 0xFFFFFFFFFFFFFFFFFFFFFFFFFFFFFFFFFFFFFFFF AND PUSH20 0xFFFFFFFFFFFFFFFFFFFFFFFFFFFFFFFFFFFFFFFF AND DUP2 MSTORE PUSH1 0x20 ADD SWAP1 DUP2 MSTORE PUSH1 0x20 ADD PUSH1 0x0 KECCAK256 SLOAD SWAP1 POP PUSH1 0x0 DUP2 GT DUP1 ISZERO PUSH2 0x3402 JUMPI POP DUP2 PUSH1 0xD PUSH1 0x0 DUP7 PUSH20 0xFFFFFFFFFFFFFFFFFFFFFFFFFFFFFFFFFFFFFFFF AND PUSH20 0xFFFFFFFFFFFFFFFFFFFFFFFFFFFFFFFFFFFFFFFF AND DUP2 MSTORE PUSH1 0x20 ADD SWAP1 DUP2 MSTORE PUSH1 0x20 ADD PUSH1 0x0 KECCAK256 PUSH1 0x0 PUSH1 0x1 DUP5 PUSH2 0x33EE SWAP2 SWAP1 PUSH2 0x4251 JUMP JUMPDEST DUP2 MSTORE PUSH1 0x20 ADD SWAP1 DUP2 MSTORE PUSH1 0x20 ADD PUSH1 0x0 KECCAK256 PUSH1 0x0 ADD SLOAD EQ JUMPDEST ISZERO PUSH2 0x3470 JUMPI DUP3 PUSH1 0xD PUSH1 0x0 DUP7 PUSH20 0xFFFFFFFFFFFFFFFFFFFFFFFFFFFFFFFFFFFFFFFF AND PUSH20 0xFFFFFFFFFFFFFFFFFFFFFFFFFFFFFFFFFFFFFFFF AND DUP2 MSTORE PUSH1 0x20 ADD SWAP1 DUP2 MSTORE PUSH1 0x20 ADD PUSH1 0x0 KECCAK256 PUSH1 0x0 PUSH1 0x1 DUP5 PUSH2 0x3456 SWAP2 SWAP1 PUSH2 0x4251 JUMP JUMPDEST DUP2 MSTORE PUSH1 0x20 ADD SWAP1 DUP2 MSTORE PUSH1 0x20 ADD PUSH1 0x0 KECCAK256 PUSH1 0x1 ADD DUP2 SWAP1 SSTORE POP PUSH2 0x353D JUMP JUMPDEST PUSH1 0x40 MLOAD DUP1 PUSH1 0x40 ADD PUSH1 0x40 MSTORE DUP1 DUP4 DUP2 MSTORE PUSH1 0x20 ADD DUP5 DUP2 MSTORE POP PUSH1 0xD PUSH1 0x0 DUP7 PUSH20 0xFFFFFFFFFFFFFFFFFFFFFFFFFFFFFFFFFFFFFFFF AND PUSH20 0xFFFFFFFFFFFFFFFFFFFFFFFFFFFFFFFFFFFFFFFF AND DUP2 MSTORE PUSH1 0x20 ADD SWAP1 DUP2 MSTORE PUSH1 0x20 ADD PUSH1 0x0 KECCAK256 PUSH1 0x0 DUP4 DUP2 MSTORE PUSH1 0x20 ADD SWAP1 DUP2 MSTORE PUSH1 0x20 ADD PUSH1 0x0 KECCAK256 PUSH1 0x0 DUP3 ADD MLOAD DUP2 PUSH1 0x0 ADD SSTORE PUSH1 0x20 DUP3 ADD MLOAD DUP2 PUSH1 0x1 ADD SSTORE SWAP1 POP POP PUSH1 0x1 DUP2 PUSH2 0x34F9 SWAP2 SWAP1 PUSH2 0x42E5 JUMP JUMPDEST PUSH1 0xE PUSH1 0x0 DUP7 PUSH20 0xFFFFFFFFFFFFFFFFFFFFFFFFFFFFFFFFFFFFFFFF AND PUSH20 0xFFFFFFFFFFFFFFFFFFFFFFFFFFFFFFFFFFFFFFFF AND DUP2 MSTORE PUSH1 0x20 ADD SWAP1 DUP2 MSTORE PUSH1 0x20 ADD PUSH1 0x0 KECCAK256 DUP2 SWAP1 SSTORE POP JUMPDEST POP POP POP POP JUMP JUMPDEST PUSH1 0x0 PUSH1 0x10 SLOAD SWAP1 POP PUSH1 0x0 TIMESTAMP SWAP1 POP PUSH1 0x0 DUP3 GT DUP1 ISZERO PUSH2 0x3580 JUMPI POP DUP1 PUSH1 0xF PUSH1 0x0 PUSH1 0x1 DUP6 PUSH2 0x356C SWAP2 SWAP1 PUSH2 0x4251 JUMP JUMPDEST DUP2 MSTORE PUSH1 0x20 ADD SWAP1 DUP2 MSTORE PUSH1 0x20 ADD PUSH1 0x0 KECCAK256 PUSH1 0x0 ADD SLOAD EQ JUMPDEST ISZERO PUSH2 0x35B3 JUMPI PUSH1 0x1 SLOAD PUSH1 0xF PUSH1 0x0 PUSH1 0x1 DUP6 PUSH2 0x3599 SWAP2 SWAP1 PUSH2 0x4251 JUMP JUMPDEST DUP2 MSTORE PUSH1 0x20 ADD SWAP1 DUP2 MSTORE PUSH1 0x20 ADD PUSH1 0x0 KECCAK256 PUSH1 0x1 ADD DUP2 SWAP1 SSTORE POP PUSH2 0x3608 JUMP JUMPDEST PUSH1 0x40 MLOAD DUP1 PUSH1 0x40 ADD PUSH1 0x40 MSTORE DUP1 DUP3 DUP2 MSTORE PUSH1 0x20 ADD PUSH1 0x1 SLOAD DUP2 MSTORE POP PUSH1 0xF PUSH1 0x0 DUP5 DUP2 MSTORE PUSH1 0x20 ADD SWAP1 DUP2 MSTORE PUSH1 0x20 ADD PUSH1 0x0 KECCAK256 PUSH1 0x0 DUP3 ADD MLOAD DUP2 PUSH1 0x0 ADD SSTORE PUSH1 0x20 DUP3 ADD MLOAD DUP2 PUSH1 0x1 ADD SSTORE SWAP1 POP POP PUSH1 0x1 DUP3 PUSH2 0x3601 SWAP2 SWAP1 PUSH2 0x42E5 JUMP JUMPDEST PUSH1 0x10 DUP2 SWAP1 SSTORE POP JUMPDEST POP POP JUMP JUMPDEST PUSH1 0x0 DUP1 PUSH1 0x0 PUSH1 0x4 PUSH1 0x0 DUP7 PUSH20 0xFFFFFFFFFFFFFFFFFFFFFFFFFFFFFFFFFFFFFFFF AND PUSH20 0xFFFFFFFFFFFFFFFFFFFFFFFFFFFFFFFFFFFFFFFF AND DUP2 MSTORE PUSH1 0x20 ADD SWAP1 DUP2 MSTORE PUSH1 0x20 ADD PUSH1 0x0 KECCAK256 SLOAD SWAP1 POP PUSH1 0x0 PUSH1 0x5 PUSH1 0x0 DUP8 PUSH20 0xFFFFFFFFFFFFFFFFFFFFFFFFFFFFFFFFFFFFFFFF AND PUSH20 0xFFFFFFFFFFFFFFFFFFFFFFFFFFFFFFFFFFFFFFFF AND DUP2 MSTORE PUSH1 0x20 ADD SWAP1 DUP2 MSTORE PUSH1 0x20 ADD PUSH1 0x0 KECCAK256 SLOAD SWAP1 POP PUSH1 0x0 PUSH1 0x10 SLOAD EQ ISZERO PUSH2 0x36AF JUMPI DUP1 DUP3 SWAP4 POP SWAP4 POP POP POP PUSH2 0x3820 JUMP JUMPDEST PUSH1 0x0 PUSH1 0x3 PUSH1 0x0 DUP9 PUSH20 0xFFFFFFFFFFFFFFFFFFFFFFFFFFFFFFFFFFFFFFFF AND PUSH20 0xFFFFFFFFFFFFFFFFFFFFFFFFFFFFFFFFFFFFFFFF AND DUP2 MSTORE PUSH1 0x20 ADD SWAP1 DUP2 MSTORE PUSH1 0x20 ADD PUSH1 0x0 KECCAK256 SLOAD EQ ISZERO PUSH2 0x3704 JUMPI DUP1 TIMESTAMP SWAP4 POP SWAP4 POP POP POP PUSH2 0x3820 JUMP JUMPDEST PUSH1 0x0 PUSH2 0x370F DUP4 PUSH2 0x1758 JUMP JUMPDEST SWAP1 POP PUSH1 0x0 PUSH2 0x372B PUSH1 0x1 PUSH1 0x10 SLOAD PUSH2 0x3725 SWAP2 SWAP1 PUSH2 0x4251 JUMP JUMPDEST DUP9 PUSH2 0x3A1A JUMP JUMPDEST SWAP1 POP PUSH1 0x0 DUP3 SWAP1 POP JUMPDEST DUP2 DUP2 LT ISZERO PUSH2 0x3814 JUMPI PUSH1 0x0 PUSH1 0xF PUSH1 0x0 DUP4 DUP2 MSTORE PUSH1 0x20 ADD SWAP1 DUP2 MSTORE PUSH1 0x20 ADD PUSH1 0x0 KECCAK256 PUSH1 0x40 MLOAD DUP1 PUSH1 0x40 ADD PUSH1 0x40 MSTORE SWAP1 DUP2 PUSH1 0x0 DUP3 ADD SLOAD DUP2 MSTORE PUSH1 0x20 ADD PUSH1 0x1 DUP3 ADD SLOAD DUP2 MSTORE POP POP SWAP1 POP PUSH1 0x0 DUP2 PUSH1 0x20 ADD MLOAD GT ISZERO PUSH2 0x3800 JUMPI PUSH1 0x0 PUSH1 0xF PUSH1 0x0 PUSH1 0x1 DUP6 PUSH2 0x3791 SWAP2 SWAP1 PUSH2 0x42E5 JUMP JUMPDEST DUP2 MSTORE PUSH1 0x20 ADD SWAP1 DUP2 MSTORE PUSH1 0x20 ADD PUSH1 0x0 KECCAK256 PUSH1 0x40 MLOAD DUP1 PUSH1 0x40 ADD PUSH1 0x40 MSTORE SWAP1 DUP2 PUSH1 0x0 DUP3 ADD SLOAD DUP2 MSTORE PUSH1 0x20 ADD PUSH1 0x1 DUP3 ADD SLOAD DUP2 MSTORE POP POP SWAP1 POP PUSH1 0x0 DUP1 PUSH2 0x37DC DUP14 DUP5 PUSH1 0x0 ADD MLOAD DUP7 PUSH1 0x0 ADD MLOAD DUP8 PUSH1 0x20 ADD MLOAD DUP14 PUSH2 0x3CA2 JUMP JUMPDEST SWAP2 POP SWAP2 POP DUP2 DUP9 PUSH2 0x37EC SWAP2 SWAP1 PUSH2 0x42E5 JUMP JUMPDEST SWAP8 POP PUSH2 0x37F9 DUP14 DUP10 DUP4 PUSH2 0x3827 JUMP JUMPDEST DUP1 SWAP9 POP POP POP POP JUMPDEST POP DUP1 DUP1 PUSH2 0x380C SWAP1 PUSH2 0x4395 JUMP JUMPDEST SWAP2 POP POP PUSH2 0x3733 JUMP JUMPDEST POP DUP3 DUP5 SWAP6 POP SWAP6 POP POP POP POP POP JUMPDEST SWAP3 POP SWAP3 SWAP1 POP JUMP JUMPDEST PUSH1 0x0 PUSH1 0x12 PUSH1 0x0 DUP6 PUSH20 0xFFFFFFFFFFFFFFFFFFFFFFFFFFFFFFFFFFFFFFFF AND PUSH20 0xFFFFFFFFFFFFFFFFFFFFFFFFFFFFFFFFFFFFFFFF AND DUP2 MSTORE PUSH1 0x20 ADD SWAP1 DUP2 MSTORE PUSH1 0x20 ADD PUSH1 0x0 KECCAK256 SLOAD SWAP1 POP PUSH1 0x0 DUP2 GT DUP1 ISZERO PUSH2 0x38D9 JUMPI POP DUP2 PUSH1 0x11 PUSH1 0x0 DUP7 PUSH20 0xFFFFFFFFFFFFFFFFFFFFFFFFFFFFFFFFFFFFFFFF AND PUSH20 0xFFFFFFFFFFFFFFFFFFFFFFFFFFFFFFFFFFFFFFFF AND DUP2 MSTORE PUSH1 0x20 ADD SWAP1 DUP2 MSTORE PUSH1 0x20 ADD PUSH1 0x0 KECCAK256 PUSH1 0x0 PUSH1 0x1 DUP5 PUSH2 0x38C5 SWAP2 SWAP1 PUSH2 0x4251 JUMP JUMPDEST DUP2 MSTORE PUSH1 0x20 ADD SWAP1 DUP2 MSTORE PUSH1 0x20 ADD PUSH1 0x0 KECCAK256 PUSH1 0x0 ADD SLOAD EQ JUMPDEST ISZERO PUSH2 0x3947 JUMPI DUP3 PUSH1 0x11 PUSH1 0x0 DUP7 PUSH20 0xFFFFFFFFFFFFFFFFFFFFFFFFFFFFFFFFFFFFFFFF AND PUSH20 0xFFFFFFFFFFFFFFFFFFFFFFFFFFFFFFFFFFFFFFFF AND DUP2 MSTORE PUSH1 0x20 ADD SWAP1 DUP2 MSTORE PUSH1 0x20 ADD PUSH1 0x0 KECCAK256 PUSH1 0x0 PUSH1 0x1 DUP5 PUSH2 0x392D SWAP2 SWAP1 PUSH2 0x4251 JUMP JUMPDEST DUP2 MSTORE PUSH1 0x20 ADD SWAP1 DUP2 MSTORE PUSH1 0x20 ADD PUSH1 0x0 KECCAK256 PUSH1 0x1 ADD DUP2 SWAP1 SSTORE POP PUSH2 0x3A14 JUMP JUMPDEST PUSH1 0x40 MLOAD DUP1 PUSH1 0x40 ADD PUSH1 0x40 MSTORE DUP1 DUP4 DUP2 MSTORE PUSH1 0x20 ADD DUP5 DUP2 MSTORE POP PUSH1 0x11 PUSH1 0x0 DUP7 PUSH20 0xFFFFFFFFFFFFFFFFFFFFFFFFFFFFFFFFFFFFFFFF AND PUSH20 0xFFFFFFFFFFFFFFFFFFFFFFFFFFFFFFFFFFFFFFFF AND DUP2 MSTORE PUSH1 0x20 ADD SWAP1 DUP2 MSTORE PUSH1 0x20 ADD PUSH1 0x0 KECCAK256 PUSH1 0x0 DUP4 DUP2 MSTORE PUSH1 0x20 ADD SWAP1 DUP2 MSTORE PUSH1 0x20 ADD PUSH1 0x0 KECCAK256 PUSH1 0x0 DUP3 ADD MLOAD DUP2 PUSH1 0x0 ADD SSTORE PUSH1 0x20 DUP3 ADD MLOAD DUP2 PUSH1 0x1 ADD SSTORE SWAP1 POP POP PUSH1 0x1 DUP2 PUSH2 0x39D0 SWAP2 SWAP1 PUSH2 0x42E5 JUMP JUMPDEST PUSH1 0x12 PUSH1 0x0 DUP7 PUSH20 0xFFFFFFFFFFFFFFFFFFFFFFFFFFFFFFFFFFFFFFFF AND PUSH20 0xFFFFFFFFFFFFFFFFFFFFFFFFFFFFFFFFFFFFFFFF AND DUP2 MSTORE PUSH1 0x20 ADD SWAP1 DUP2 MSTORE PUSH1 0x20 ADD PUSH1 0x0 KECCAK256 DUP2 SWAP1 SSTORE POP JUMPDEST POP POP POP POP JUMP JUMPDEST PUSH1 0x0 DUP2 DUP4 LT PUSH2 0x3A29 JUMPI DUP2 PUSH2 0x3A2B JUMP JUMPDEST DUP3 JUMPDEST SWAP1 POP SWAP3 SWAP2 POP POP JUMP JUMPDEST PUSH1 0x0 DUP1 DUP6 PUSH20 0xFFFFFFFFFFFFFFFFFFFFFFFFFFFFFFFFFFFFFFFF AND PUSH4 0x23B872DD DUP7 DUP7 DUP7 PUSH1 0x40 MLOAD PUSH1 0x24 ADD PUSH2 0x3A67 SWAP4 SWAP3 SWAP2 SWAP1 PUSH2 0x45DA JUMP JUMPDEST PUSH1 0x40 MLOAD PUSH1 0x20 DUP2 DUP4 SUB SUB DUP2 MSTORE SWAP1 PUSH1 0x40 MSTORE SWAP1 PUSH1 0xE0 SHL PUSH1 0x20 DUP3 ADD DUP1 MLOAD PUSH28 0xFFFFFFFFFFFFFFFFFFFFFFFFFFFFFFFFFFFFFFFFFFFFFFFFFFFFFFFF DUP4 DUP2 DUP4 AND OR DUP4 MSTORE POP POP POP POP PUSH1 0x40 MLOAD PUSH2 0x3AB5 SWAP2 SWAP1 PUSH2 0x468B JUMP JUMPDEST PUSH1 0x0 PUSH1 0x40 MLOAD DUP1 DUP4 SUB DUP2 PUSH1 0x0 DUP7 GAS CALL SWAP2 POP POP RETURNDATASIZE DUP1 PUSH1 0x0 DUP2 EQ PUSH2 0x3AF2 JUMPI PUSH1 0x40 MLOAD SWAP2 POP PUSH1 0x1F NOT PUSH1 0x3F RETURNDATASIZE ADD AND DUP3 ADD PUSH1 0x40 MSTORE RETURNDATASIZE DUP3 MSTORE RETURNDATASIZE PUSH1 0x0 PUSH1 0x20 DUP5 ADD RETURNDATACOPY PUSH2 0x3AF7 JUMP JUMPDEST PUSH1 0x60 SWAP2 POP JUMPDEST POP SWAP2 POP SWAP2 POP DUP2 DUP1 ISZERO PUSH2 0x3B25 JUMPI POP PUSH1 0x0 DUP2 MLOAD EQ DUP1 PUSH2 0x3B24 JUMPI POP DUP1 DUP1 PUSH1 0x20 ADD SWAP1 MLOAD DUP2 ADD SWAP1 PUSH2 0x3B23 SWAP2 SWAP1 PUSH2 0x46CE JUMP JUMPDEST JUMPDEST JUMPDEST PUSH2 0x3B64 JUMPI PUSH1 0x40 MLOAD PUSH32 0x8C379A000000000000000000000000000000000000000000000000000000000 DUP2 MSTORE PUSH1 0x4 ADD PUSH2 0x3B5B SWAP1 PUSH2 0x476D JUMP JUMPDEST PUSH1 0x40 MLOAD DUP1 SWAP2 SUB SWAP1 REVERT JUMPDEST POP POP POP POP POP POP JUMP JUMPDEST PUSH1 0x0 DUP1 DUP5 PUSH20 0xFFFFFFFFFFFFFFFFFFFFFFFFFFFFFFFFFFFFFFFF AND PUSH4 0xA9059CBB DUP6 DUP6 PUSH1 0x40 MLOAD PUSH1 0x24 ADD PUSH2 0x3B9E SWAP3 SWAP2 SWAP1 PUSH2 0x478D JUMP JUMPDEST PUSH1 0x40 MLOAD PUSH1 0x20 DUP2 DUP4 SUB SUB DUP2 MSTORE SWAP1 PUSH1 0x40 MSTORE SWAP1 PUSH1 0xE0 SHL PUSH1 0x20 DUP3 ADD DUP1 MLOAD PUSH28 0xFFFFFFFFFFFFFFFFFFFFFFFFFFFFFFFFFFFFFFFFFFFFFFFFFFFFFFFF DUP4 DUP2 DUP4 AND OR DUP4 MSTORE POP POP POP POP PUSH1 0x40 MLOAD PUSH2 0x3BEC SWAP2 SWAP1 PUSH2 0x468B JUMP JUMPDEST PUSH1 0x0 PUSH1 0x40 MLOAD DUP1 DUP4 SUB DUP2 PUSH1 0x0 DUP7 GAS CALL SWAP2 POP POP RETURNDATASIZE DUP1 PUSH1 0x0 DUP2 EQ PUSH2 0x3C29 JUMPI PUSH1 0x40 MLOAD SWAP2 POP PUSH1 0x1F NOT PUSH1 0x3F RETURNDATASIZE ADD AND DUP3 ADD PUSH1 0x40 MSTORE RETURNDATASIZE DUP3 MSTORE RETURNDATASIZE PUSH1 0x0 PUSH1 0x20 DUP5 ADD RETURNDATACOPY PUSH2 0x3C2E JUMP JUMPDEST PUSH1 0x60 SWAP2 POP JUMPDEST POP SWAP2 POP SWAP2 POP DUP2 DUP1 ISZERO PUSH2 0x3C5C JUMPI POP PUSH1 0x0 DUP2 MLOAD EQ DUP1 PUSH2 0x3C5B JUMPI POP DUP1 DUP1 PUSH1 0x20 ADD SWAP1 MLOAD DUP2 ADD SWAP1 PUSH2 0x3C5A SWAP2 SWAP1 PUSH2 0x46CE JUMP JUMPDEST JUMPDEST JUMPDEST PUSH2 0x3C9B JUMPI PUSH1 0x40 MLOAD PUSH32 0x8C379A000000000000000000000000000000000000000000000000000000000 DUP2 MSTORE PUSH1 0x4 ADD PUSH2 0x3C92 SWAP1 PUSH2 0x4802 JUMP JUMPDEST PUSH1 0x40 MLOAD DUP1 SWAP2 SUB SWAP1 REVERT JUMPDEST POP POP POP POP POP JUMP JUMPDEST PUSH1 0x0 DUP1 PUSH1 0x0 PUSH2 0x3CB1 DUP8 DUP6 PUSH2 0x2FCE JUMP JUMPDEST SWAP1 POP DUP5 PUSH8 0xDE0B6B3A7640000 PUSH1 0x3 PUSH1 0x0 DUP12 PUSH20 0xFFFFFFFFFFFFFFFFFFFFFFFFFFFFFFFFFFFFFFFF AND PUSH20 0xFFFFFFFFFFFFFFFFFFFFFFFFFFFFFFFFFFFFFFFF AND DUP2 MSTORE PUSH1 0x20 ADD SWAP1 DUP2 MSTORE PUSH1 0x20 ADD PUSH1 0x0 KECCAK256 SLOAD PUSH2 0x3D07 DUP10 DUP9 PUSH2 0x2FCE JUMP JUMPDEST DUP5 PUSH2 0x3D12 SWAP2 SWAP1 PUSH2 0x4251 JUMP JUMPDEST PUSH2 0x3D1C SWAP2 SWAP1 PUSH2 0x433B JUMP JUMPDEST PUSH2 0x3D26 SWAP2 SWAP1 PUSH2 0x433B JUMP JUMPDEST PUSH2 0x3D30 SWAP2 SWAP1 PUSH2 0x42B4 JUMP JUMPDEST DUP2 SWAP3 POP SWAP3 POP POP SWAP6 POP SWAP6 SWAP4 POP POP POP POP JUMP JUMPDEST PUSH1 0x0 DUP3 PUSH20 0xFFFFFFFFFFFFFFFFFFFFFFFFFFFFFFFFFFFFFFFF AND PUSH4 0x70A08231 ADDRESS PUSH1 0x40 MLOAD DUP3 PUSH4 0xFFFFFFFF AND PUSH1 0xE0 SHL DUP2 MSTORE PUSH1 0x4 ADD PUSH2 0x3D7B SWAP2 SWAP1 PUSH2 0x4191 JUMP JUMPDEST PUSH1 0x20 PUSH1 0x40 MLOAD DUP1 DUP4 SUB DUP2 DUP7 GAS STATICCALL ISZERO DUP1 ISZERO PUSH2 0x3D98 JUMPI RETURNDATASIZE PUSH1 0x0 DUP1 RETURNDATACOPY RETURNDATASIZE PUSH1 0x0 REVERT JUMPDEST POP POP POP POP PUSH1 0x40 MLOAD RETURNDATASIZE PUSH1 0x1F NOT PUSH1 0x1F DUP3 ADD AND DUP3 ADD DUP1 PUSH1 0x40 MSTORE POP DUP2 ADD SWAP1 PUSH2 0x3DBC SWAP2 SWAP1 PUSH2 0x450B JUMP JUMPDEST SWAP1 POP DUP2 DUP2 LT ISZERO PUSH2 0x3DF3 JUMPI PUSH2 0x3DF2 DUP4 PUSH32 0x0 ADDRESS DUP6 PUSH2 0x3A33 JUMP JUMPDEST JUMPDEST POP POP POP JUMP JUMPDEST PUSH1 0x0 PUSH1 0x40 MLOAD SWAP1 POP SWAP1 JUMP JUMPDEST PUSH1 0x0 DUP1 REVERT JUMPDEST PUSH1 0x0 DUP1 REVERT JUMPDEST PUSH1 0x0 PUSH20 0xFFFFFFFFFFFFFFFFFFFFFFFFFFFFFFFFFFFFFFFF DUP3 AND SWAP1 POP SWAP2 SWAP1 POP JUMP JUMPDEST PUSH1 0x0 PUSH2 0x3E37 DUP3 PUSH2 0x3E0C JUMP JUMPDEST SWAP1 POP SWAP2 SWAP1 POP JUMP JUMPDEST PUSH2 0x3E47 DUP2 PUSH2 0x3E2C JUMP JUMPDEST DUP2 EQ PUSH2 0x3E52 JUMPI PUSH1 0x0 DUP1 REVERT JUMPDEST POP JUMP JUMPDEST PUSH1 0x0 DUP2 CALLDATALOAD SWAP1 POP PUSH2 0x3E64 DUP2 PUSH2 0x3E3E JUMP JUMPDEST SWAP3 SWAP2 POP POP JUMP JUMPDEST PUSH1 0x0 DUP2 SWAP1 POP SWAP2 SWAP1 POP JUMP JUMPDEST PUSH2 0x3E7D DUP2 PUSH2 0x3E6A JUMP JUMPDEST DUP2 EQ PUSH2 0x3E88 JUMPI PUSH1 0x0 DUP1 REVERT JUMPDEST POP JUMP JUMPDEST PUSH1 0x0 DUP2 CALLDATALOAD SWAP1 POP PUSH2 0x3E9A DUP2 PUSH2 0x3E74 JUMP JUMPDEST SWAP3 SWAP2 POP POP JUMP JUMPDEST PUSH1 0x0 DUP1 PUSH1 0x40 DUP4 DUP6 SUB SLT ISZERO PUSH2 0x3EB7 JUMPI PUSH2 0x3EB6 PUSH2 0x3E02 JUMP JUMPDEST JUMPDEST PUSH1 0x0 PUSH2 0x3EC5 DUP6 DUP3 DUP7 ADD PUSH2 0x3E55 JUMP JUMPDEST SWAP3 POP POP PUSH1 0x20 PUSH2 0x3ED6 DUP6 DUP3 DUP7 ADD PUSH2 0x3E8B JUMP JUMPDEST SWAP2 POP POP SWAP3 POP SWAP3 SWAP1 POP JUMP JUMPDEST PUSH2 0x3EE9 DUP2 PUSH2 0x3E6A JUMP JUMPDEST DUP3 MSTORE POP POP JUMP JUMPDEST PUSH1 0x0 PUSH1 0x40 DUP3 ADD SWAP1 POP PUSH2 0x3F04 PUSH1 0x0 DUP4 ADD DUP6 PUSH2 0x3EE0 JUMP JUMPDEST PUSH2 0x3F11 PUSH1 0x20 DUP4 ADD DUP5 PUSH2 0x3EE0 JUMP JUMPDEST SWAP4 SWAP3 POP POP POP JUMP JUMPDEST PUSH1 0x0 PUSH1 0x20 DUP3 ADD SWAP1 POP PUSH2 0x3F2D PUSH1 0x0 DUP4 ADD DUP5 PUSH2 0x3EE0 JUMP JUMPDEST SWAP3 SWAP2 POP POP JUMP JUMPDEST PUSH1 0x0 DUP1 PUSH1 0x40 DUP4 DUP6 SUB SLT ISZERO PUSH2 0x3F4A JUMPI PUSH2 0x3F49 PUSH2 0x3E02 JUMP JUMPDEST JUMPDEST PUSH1 0x0 PUSH2 0x3F58 DUP6 DUP3 DUP7 ADD PUSH2 0x3E55 JUMP JUMPDEST SWAP3 POP POP PUSH1 0x20 PUSH2 0x3F69 DUP6 DUP3 DUP7 ADD PUSH2 0x3E55 JUMP JUMPDEST SWAP2 POP POP SWAP3 POP SWAP3 SWAP1 POP JUMP JUMPDEST PUSH1 0x0 PUSH1 0x20 DUP3 DUP5 SUB SLT ISZERO PUSH2 0x3F89 JUMPI PUSH2 0x3F88 PUSH2 0x3E02 JUMP JUMPDEST JUMPDEST PUSH1 0x0 PUSH2 0x3F97 DUP5 DUP3 DUP6 ADD PUSH2 0x3E55 JUMP JUMPDEST SWAP2 POP POP SWAP3 SWAP2 POP POP JUMP JUMPDEST PUSH1 0x0 PUSH1 0x20 DUP3 DUP5 SUB SLT ISZERO PUSH2 0x3FB6 JUMPI PUSH2 0x3FB5 PUSH2 0x3E02 JUMP JUMPDEST JUMPDEST PUSH1 0x0 PUSH2 0x3FC4 DUP5 DUP3 DUP6 ADD PUSH2 0x3E8B JUMP JUMPDEST SWAP2 POP POP SWAP3 SWAP2 POP POP JUMP JUMPDEST PUSH1 0x0 DUP1 REVERT JUMPDEST PUSH1 0x0 PUSH1 0x1F NOT PUSH1 0x1F DUP4 ADD AND SWAP1 POP SWAP2 SWAP1 POP JUMP JUMPDEST PUSH32 0x4E487B7100000000000000000000000000000000000000000000000000000000 PUSH1 0x0 MSTORE PUSH1 0x41 PUSH1 0x4 MSTORE PUSH1 0x24 PUSH1 0x0 REVERT JUMPDEST PUSH2 0x401B DUP3 PUSH2 0x3FD2 JUMP JUMPDEST DUP2 ADD DUP2 DUP2 LT PUSH8 0xFFFFFFFFFFFFFFFF DUP3 GT OR ISZERO PUSH2 0x403A JUMPI PUSH2 0x4039 PUSH2 0x3FE3 JUMP JUMPDEST JUMPDEST DUP1 PUSH1 0x40 MSTORE POP POP POP JUMP JUMPDEST PUSH1 0x0 PUSH2 0x404D PUSH2 0x3DF8 JUMP JUMPDEST SWAP1 POP PUSH2 0x4059 DUP3 DUP3 PUSH2 0x4012 JUMP JUMPDEST SWAP2 SWAP1 POP JUMP JUMPDEST PUSH1 0x0 PUSH8 0xFFFFFFFFFFFFFFFF DUP3 GT ISZERO PUSH2 0x4079 JUMPI PUSH2 0x4078 PUSH2 0x3FE3 JUMP JUMPDEST JUMPDEST PUSH1 0x20 DUP3 MUL SWAP1 POP PUSH1 0x20 DUP2 ADD SWAP1 POP SWAP2 SWAP1 POP JUMP JUMPDEST PUSH1 0x0 DUP1 REVERT JUMPDEST PUSH1 0x0 PUSH2 0x40A2 PUSH2 0x409D DUP5 PUSH2 0x405E JUMP JUMPDEST PUSH2 0x4043 JUMP JUMPDEST SWAP1 POP DUP1 DUP4 DUP3 MSTORE PUSH1 0x20 DUP3 ADD SWAP1 POP PUSH1 0x20 DUP5 MUL DUP4 ADD DUP6 DUP2 GT ISZERO PUSH2 0x40C5 JUMPI PUSH2 0x40C4 PUSH2 0x408A JUMP JUMPDEST JUMPDEST DUP4 JUMPDEST DUP2 DUP2 LT ISZERO PUSH2 0x40EE JUMPI DUP1 PUSH2 0x40DA DUP9 DUP3 PUSH2 0x3E55 JUMP JUMPDEST DUP5 MSTORE PUSH1 0x20 DUP5 ADD SWAP4 POP POP PUSH1 0x20 DUP2 ADD SWAP1 POP PUSH2 0x40C7 JUMP JUMPDEST POP POP POP SWAP4 SWAP3 POP POP POP JUMP JUMPDEST PUSH1 0x0 DUP3 PUSH1 0x1F DUP4 ADD SLT PUSH2 0x410D JUMPI PUSH2 0x410C PUSH2 0x3FCD JUMP JUMPDEST JUMPDEST DUP2 CALLDATALOAD PUSH2 0x411D DUP5 DUP3 PUSH1 0x20 DUP7 ADD PUSH2 0x408F JUMP JUMPDEST SWAP2 POP POP SWAP3 SWAP2 POP POP JUMP JUMPDEST PUSH1 0x0 DUP1 PUSH1 0x40 DUP4 DUP6 SUB SLT ISZERO PUSH2 0x413D JUMPI PUSH2 0x413C PUSH2 0x3E02 JUMP JUMPDEST JUMPDEST PUSH1 0x0 PUSH2 0x414B DUP6 DUP3 DUP7 ADD PUSH2 0x3E55 JUMP JUMPDEST SWAP3 POP POP PUSH1 0x20 DUP4 ADD CALLDATALOAD PUSH8 0xFFFFFFFFFFFFFFFF DUP2 GT ISZERO PUSH2 0x416C JUMPI PUSH2 0x416B PUSH2 0x3E07 JUMP JUMPDEST JUMPDEST PUSH2 0x4178 DUP6 DUP3 DUP7 ADD PUSH2 0x40F8 JUMP JUMPDEST SWAP2 POP POP SWAP3 POP SWAP3 SWAP1 POP JUMP JUMPDEST PUSH2 0x418B DUP2 PUSH2 0x3E2C JUMP JUMPDEST DUP3 MSTORE POP POP JUMP JUMPDEST PUSH1 0x0 PUSH1 0x20 DUP3 ADD SWAP1 POP PUSH2 0x41A6 PUSH1 0x0 DUP4 ADD DUP5 PUSH2 0x4182 JUMP JUMPDEST SWAP3 SWAP2 POP POP JUMP JUMPDEST PUSH1 0x0 DUP2 ISZERO ISZERO SWAP1 POP SWAP2 SWAP1 POP JUMP JUMPDEST PUSH2 0x41C1 DUP2 PUSH2 0x41AC JUMP JUMPDEST DUP3 MSTORE POP POP JUMP JUMPDEST PUSH1 0x0 PUSH1 0x20 DUP3 ADD SWAP1 POP PUSH2 0x41DC PUSH1 0x0 DUP4 ADD DUP5 PUSH2 0x41B8 JUMP JUMPDEST SWAP3 SWAP2 POP POP JUMP JUMPDEST PUSH1 0x0 DUP1 PUSH1 0x40 DUP4 DUP6 SUB SLT ISZERO PUSH2 0x41F9 JUMPI PUSH2 0x41F8 PUSH2 0x3E02 JUMP JUMPDEST JUMPDEST PUSH1 0x0 PUSH2 0x4207 DUP6 DUP3 DUP7 ADD PUSH2 0x3E8B JUMP JUMPDEST SWAP3 POP POP PUSH1 0x20 PUSH2 0x4218 DUP6 DUP3 DUP7 ADD PUSH2 0x3E8B JUMP JUMPDEST SWAP2 POP POP SWAP3 POP SWAP3 SWAP1 POP JUMP JUMPDEST PUSH32 0x4E487B7100000000000000000000000000000000000000000000000000000000 PUSH1 0x0 MSTORE PUSH1 0x11 PUSH1 0x4 MSTORE PUSH1 0x24 PUSH1 0x0 REVERT JUMPDEST PUSH1 0x0 PUSH2 0x425C DUP3 PUSH2 0x3E6A JUMP JUMPDEST SWAP2 POP PUSH2 0x4267 DUP4 PUSH2 0x3E6A JUMP JUMPDEST SWAP3 POP DUP3 DUP3 LT ISZERO PUSH2 0x427A JUMPI PUSH2 0x4279 PUSH2 0x4222 JUMP JUMPDEST JUMPDEST DUP3 DUP3 SUB SWAP1 POP SWAP3 SWAP2 POP POP JUMP JUMPDEST PUSH32 0x4E487B7100000000000000000000000000000000000000000000000000000000 PUSH1 0x0 MSTORE PUSH1 0x12 PUSH1 0x4 MSTORE PUSH1 0x24 PUSH1 0x0 REVERT JUMPDEST PUSH1 0x0 PUSH2 0x42BF DUP3 PUSH2 0x3E6A JUMP JUMPDEST SWAP2 POP PUSH2 0x42CA DUP4 PUSH2 0x3E6A JUMP JUMPDEST SWAP3 POP DUP3 PUSH2 0x42DA JUMPI PUSH2 0x42D9 PUSH2 0x4285 JUMP JUMPDEST JUMPDEST DUP3 DUP3 DIV SWAP1 POP SWAP3 SWAP2 POP POP JUMP JUMPDEST PUSH1 0x0 PUSH2 0x42F0 DUP3 PUSH2 0x3E6A JUMP JUMPDEST SWAP2 POP PUSH2 0x42FB DUP4 PUSH2 0x3E6A JUMP JUMPDEST SWAP3 POP DUP3 PUSH32 0xFFFFFFFFFFFFFFFFFFFFFFFFFFFFFFFFFFFFFFFFFFFFFFFFFFFFFFFFFFFFFFFF SUB DUP3 GT ISZERO PUSH2 0x4330 JUMPI PUSH2 0x432F PUSH2 0x4222 JUMP JUMPDEST JUMPDEST DUP3 DUP3 ADD SWAP1 POP SWAP3 SWAP2 POP POP JUMP JUMPDEST PUSH1 0x0 PUSH2 0x4346 DUP3 PUSH2 0x3E6A JUMP JUMPDEST SWAP2 POP PUSH2 0x4351 DUP4 PUSH2 0x3E6A JUMP JUMPDEST SWAP3 POP DUP2 PUSH32 0xFFFFFFFFFFFFFFFFFFFFFFFFFFFFFFFFFFFFFFFFFFFFFFFFFFFFFFFFFFFFFFFF DIV DUP4 GT DUP3 ISZERO ISZERO AND ISZERO PUSH2 0x438A JUMPI PUSH2 0x4389 PUSH2 0x4222 JUMP JUMPDEST JUMPDEST DUP3 DUP3 MUL SWAP1 POP SWAP3 SWAP2 POP POP JUMP JUMPDEST PUSH1 0x0 PUSH2 0x43A0 DUP3 PUSH2 0x3E6A JUMP JUMPDEST SWAP2 POP PUSH32 0xFFFFFFFFFFFFFFFFFFFFFFFFFFFFFFFFFFFFFFFFFFFFFFFFFFFFFFFFFFFFFFFF DUP3 EQ ISZERO PUSH2 0x43D3 JUMPI PUSH2 0x43D2 PUSH2 0x4222 JUMP JUMPDEST JUMPDEST PUSH1 0x1 DUP3 ADD SWAP1 POP SWAP2 SWAP1 POP JUMP JUMPDEST PUSH1 0x0 DUP3 DUP3 MSTORE PUSH1 0x20 DUP3 ADD SWAP1 POP SWAP3 SWAP2 POP POP JUMP JUMPDEST PUSH32 0x5265656E7472616E637947756172643A207265656E7472616E742063616C6C00 PUSH1 0x0 DUP3 ADD MSTORE POP JUMP JUMPDEST PUSH1 0x0 PUSH2 0x4425 PUSH1 0x1F DUP4 PUSH2 0x43DE JUMP JUMPDEST SWAP2 POP PUSH2 0x4430 DUP3 PUSH2 0x43EF JUMP JUMPDEST PUSH1 0x20 DUP3 ADD SWAP1 POP SWAP2 SWAP1 POP JUMP JUMPDEST PUSH1 0x0 PUSH1 0x20 DUP3 ADD SWAP1 POP DUP2 DUP2 SUB PUSH1 0x0 DUP4 ADD MSTORE PUSH2 0x4454 DUP2 PUSH2 0x4418 JUMP JUMPDEST SWAP1 POP SWAP2 SWAP1 POP JUMP JUMPDEST PUSH32 0x4E487B7100000000000000000000000000000000000000000000000000000000 PUSH1 0x0 MSTORE PUSH1 0x32 PUSH1 0x4 MSTORE PUSH1 0x24 PUSH1 0x0 REVERT JUMPDEST PUSH32 0x6E6F207374616B65000000000000000000000000000000000000000000000000 PUSH1 0x0 DUP3 ADD MSTORE POP JUMP JUMPDEST PUSH1 0x0 PUSH2 0x44C0 PUSH1 0x8 DUP4 PUSH2 0x43DE JUMP JUMPDEST SWAP2 POP PUSH2 0x44CB DUP3 PUSH2 0x448A JUMP JUMPDEST PUSH1 0x20 DUP3 ADD SWAP1 POP SWAP2 SWAP1 POP JUMP JUMPDEST PUSH1 0x0 PUSH1 0x20 DUP3 ADD SWAP1 POP DUP2 DUP2 SUB PUSH1 0x0 DUP4 ADD MSTORE PUSH2 0x44EF DUP2 PUSH2 0x44B3 JUMP JUMPDEST SWAP1 POP SWAP2 SWAP1 POP JUMP JUMPDEST PUSH1 0x0 DUP2 MLOAD SWAP1 POP PUSH2 0x4505 DUP2 PUSH2 0x3E74 JUMP JUMPDEST SWAP3 SWAP2 POP POP JUMP JUMPDEST PUSH1 0x0 PUSH1 0x20 DUP3 DUP5 SUB SLT ISZERO PUSH2 0x4521 JUMPI PUSH2 0x4520 PUSH2 0x3E02 JUMP JUMPDEST JUMPDEST PUSH1 0x0 PUSH2 0x452F DUP5 DUP3 DUP6 ADD PUSH2 0x44F6 JUMP JUMPDEST SWAP2 POP POP SWAP3 SWAP2 POP POP JUMP JUMPDEST PUSH1 0x0 DUP2 MLOAD SWAP1 POP PUSH2 0x4547 DUP2 PUSH2 0x3E3E JUMP JUMPDEST SWAP3 SWAP2 POP POP JUMP JUMPDEST PUSH1 0x0 PUSH1 0x20 DUP3 DUP5 SUB SLT ISZERO PUSH2 0x4563 JUMPI PUSH2 0x4562 PUSH2 0x3E02 JUMP JUMPDEST JUMPDEST PUSH1 0x0 PUSH2 0x4571 DUP5 DUP3 DUP6 ADD PUSH2 0x4538 JUMP JUMPDEST SWAP2 POP POP SWAP3 SWAP2 POP POP JUMP JUMPDEST PUSH1 0x0 PUSH1 0x40 DUP3 ADD SWAP1 POP PUSH2 0x458F PUSH1 0x0 DUP4 ADD DUP6 PUSH2 0x3EE0 JUMP JUMPDEST PUSH2 0x459C PUSH1 0x20 DUP4 ADD DUP5 PUSH2 0x4182 JUMP JUMPDEST SWAP4 SWAP3 POP POP POP JUMP JUMPDEST PUSH1 0x0 PUSH1 0x60 DUP3 ADD SWAP1 POP PUSH2 0x45B8 PUSH1 0x0 DUP4 ADD DUP7 PUSH2 0x3EE0 JUMP JUMPDEST PUSH2 0x45C5 PUSH1 0x20 DUP4 ADD DUP6 PUSH2 0x4182 JUMP JUMPDEST PUSH2 0x45D2 PUSH1 0x40 DUP4 ADD DUP5 PUSH2 0x3EE0 JUMP JUMPDEST SWAP5 SWAP4 POP POP POP POP JUMP JUMPDEST PUSH1 0x0 PUSH1 0x60 DUP3 ADD SWAP1 POP PUSH2 0x45EF PUSH1 0x0 DUP4 ADD DUP7 PUSH2 0x4182 JUMP JUMPDEST PUSH2 0x45FC PUSH1 0x20 DUP4 ADD DUP6 PUSH2 0x4182 JUMP JUMPDEST PUSH2 0x4609 PUSH1 0x40 DUP4 ADD DUP5 PUSH2 0x3EE0 JUMP JUMPDEST SWAP5 SWAP4 POP POP POP POP JUMP JUMPDEST PUSH1 0x0 DUP2 MLOAD SWAP1 POP SWAP2 SWAP1 POP JUMP JUMPDEST PUSH1 0x0 DUP2 SWAP1 POP SWAP3 SWAP2 POP POP JUMP JUMPDEST PUSH1 0x0 JUMPDEST DUP4 DUP2 LT ISZERO PUSH2 0x4645 JUMPI DUP1 DUP3 ADD MLOAD DUP2 DUP5 ADD MSTORE PUSH1 0x20 DUP2 ADD SWAP1 POP PUSH2 0x462A JUMP JUMPDEST DUP4 DUP2 GT ISZERO PUSH2 0x4654 JUMPI PUSH1 0x0 DUP5 DUP5 ADD MSTORE JUMPDEST POP POP POP POP JUMP JUMPDEST PUSH1 0x0 PUSH2 0x4665 DUP3 PUSH2 0x4611 JUMP JUMPDEST PUSH2 0x466F DUP2 DUP6 PUSH2 0x461C JUMP JUMPDEST SWAP4 POP PUSH2 0x467F DUP2 DUP6 PUSH1 0x20 DUP7 ADD PUSH2 0x4627 JUMP JUMPDEST DUP1 DUP5 ADD SWAP2 POP POP SWAP3 SWAP2 POP POP JUMP JUMPDEST PUSH1 0x0 PUSH2 0x4697 DUP3 DUP5 PUSH2 0x465A JUMP JUMPDEST SWAP2 POP DUP2 SWAP1 POP SWAP3 SWAP2 POP POP JUMP JUMPDEST PUSH2 0x46AB DUP2 PUSH2 0x41AC JUMP JUMPDEST DUP2 EQ PUSH2 0x46B6 JUMPI PUSH1 0x0 DUP1 REVERT JUMPDEST POP JUMP JUMPDEST PUSH1 0x0 DUP2 MLOAD SWAP1 POP PUSH2 0x46C8 DUP2 PUSH2 0x46A2 JUMP JUMPDEST SWAP3 SWAP2 POP POP JUMP JUMPDEST PUSH1 0x0 PUSH1 0x20 DUP3 DUP5 SUB SLT ISZERO PUSH2 0x46E4 JUMPI PUSH2 0x46E3 PUSH2 0x3E02 JUMP JUMPDEST JUMPDEST PUSH1 0x0 PUSH2 0x46F2 DUP5 DUP3 DUP6 ADD PUSH2 0x46B9 JUMP JUMPDEST SWAP2 POP POP SWAP3 SWAP2 POP POP JUMP JUMPDEST PUSH32 0x5472616E7366657248656C7065723A205452414E534645525F46524F4D5F4641 PUSH1 0x0 DUP3 ADD MSTORE PUSH32 0x494C454400000000000000000000000000000000000000000000000000000000 PUSH1 0x20 DUP3 ADD MSTORE POP JUMP JUMPDEST PUSH1 0x0 PUSH2 0x4757 PUSH1 0x24 DUP4 PUSH2 0x43DE JUMP JUMPDEST SWAP2 POP PUSH2 0x4762 DUP3 PUSH2 0x46FB JUMP JUMPDEST PUSH1 0x40 DUP3 ADD SWAP1 POP SWAP2 SWAP1 POP JUMP JUMPDEST PUSH1 0x0 PUSH1 0x20 DUP3 ADD SWAP1 POP DUP2 DUP2 SUB PUSH1 0x0 DUP4 ADD MSTORE PUSH2 0x4786 DUP2 PUSH2 0x474A JUMP JUMPDEST SWAP1 POP SWAP2 SWAP1 POP JUMP JUMPDEST PUSH1 0x0 PUSH1 0x40 DUP3 ADD SWAP1 POP PUSH2 0x47A2 PUSH1 0x0 DUP4 ADD DUP6 PUSH2 0x4182 JUMP JUMPDEST PUSH2 0x47AF PUSH1 0x20 DUP4 ADD DUP5 PUSH2 0x3EE0 JUMP JUMPDEST SWAP4 SWAP3 POP POP POP JUMP JUMPDEST PUSH32 0x5472616E7366657248656C7065723A205452414E534645525F4641494C454400 PUSH1 0x0 DUP3 ADD MSTORE POP JUMP JUMPDEST PUSH1 0x0 PUSH2 0x47EC PUSH1 0x1F DUP4 PUSH2 0x43DE JUMP JUMPDEST SWAP2 POP PUSH2 0x47F7 DUP3 PUSH2 0x47B6 JUMP JUMPDEST PUSH1 0x20 DUP3 ADD SWAP1 POP SWAP2 SWAP1 POP JUMP JUMPDEST PUSH1 0x0 PUSH1 0x20 DUP3 ADD SWAP1 POP DUP2 DUP2 SUB PUSH1 0x0 DUP4 ADD MSTORE PUSH2 0x481B DUP2 PUSH2 0x47DF JUMP JUMPDEST SWAP1 POP SWAP2 SWAP1 POP JUMP INVALID LOG2 PUSH5 0x6970667358 0x22 SLT KECCAK256 ISZERO SUB RETURNDATACOPY SWAP11 DIV PUSH6 0x3CE6B0551A62 0xE1 0xB6 0xBE DUP7 SWAP16 DUP15 NUMBER 0xF9 CREATE2 PUSH4 0x86A1C48D 0xAA DUP10 DUP9 0xCD 0xFC 0x4E PUSH5 0x736F6C6343 STOP ADDMOD EXP STOP CALLER "
				},
				"gasEstimates": {
					"creation": {
						"codeDepositCost": "3704000",
						"executionCost": "infinite",
						"totalCost": "infinite"
					},
					"external": {
						"balanceOf(address)": "2947",
						"batchRewardPerToken(address,uint256)": "infinite",
						"boost()": "infinite",
						"checkpoints(address,uint256)": "infinite",
						"deposit(uint256,uint256)": "infinite",
						"depositAll(uint256)": "infinite",
						"derivedBalance(address)": "infinite",
						"derivedBalances(address)": "2903",
						"derivedSupply()": "2474",
						"earned(address,address)": "infinite",
						"getPriorBalanceIndex(address,uint256)": "infinite",
						"getPriorRewardPerToken(address,uint256)": "infinite",
						"getPriorSupplyIndex(uint256)": "infinite",
						"getReward(address,address[])": "infinite",
						"isReward(address)": "2957",
						"lastEarn(address,address)": "infinite",
						"lastTimeRewardApplicable(address)": "717",
						"lastUpdateTime(address)": "2904",
						"notifyRewardAmount(address,uint256)": "infinite",
						"numCheckpoints(address)": "2925",
						"rewardPerToken(address)": "infinite",
						"rewardPerTokenCheckpoints(address,uint256)": "infinite",
						"rewardPerTokenNumCheckpoints(address)": "2881",
						"rewardPerTokenStored(address)": "2904",
						"rewardRate(address)": "2882",
						"rewards(uint256)": "5000",
						"rewardsListLength()": "2534",
						"stake()": "infinite",
						"supplyCheckpoints(uint256)": "infinite",
						"supplyNumCheckpoints()": "2540",
						"tokenIds(address)": "2902",
						"totalSupply()": "2542",
						"userRewardPerTokenStored(address,address)": "infinite",
						"veToken()": "infinite",
						"withdraw(uint256)": "infinite",
						"withdrawAll()": "infinite",
						"withdrawToken(uint256,uint256)": "infinite"
					},
					"internal": {
						"_batchRewardPerToken(address,uint256)": "infinite",
						"_calcRewardPerToken(address,uint256,uint256,uint256,uint256)": "infinite",
						"_safeTokenTransfer(address,address,uint256)": "infinite",
						"_safeTransferFromToken(address,uint256)": "infinite",
						"_updateRewardPerToken(address)": "infinite",
						"_writeCheckpoint(address,uint256)": "infinite",
						"_writeRewardPerTokenCheckpoint(address,uint256,uint256)": "infinite",
						"_writeSupplyCheckpoint()": "infinite"
					}
				},
				"methodIdentifiers": {
					"balanceOf(address)": "70a08231",
					"batchRewardPerToken(address,uint256)": "5a45d052",
					"boost()": "a66f42c0",
					"checkpoints(address,uint256)": "0cdfebfa",
					"deposit(uint256,uint256)": "e2bbb158",
					"depositAll(uint256)": "c6f678bd",
					"derivedBalance(address)": "d35e2544",
					"derivedBalances(address)": "63fb415b",
					"derivedSupply()": "d7da4bb0",
					"earned(address,address)": "211dc32d",
					"getPriorBalanceIndex(address,uint256)": "115c6f39",
					"getPriorRewardPerToken(address,uint256)": "fd314098",
					"getPriorSupplyIndex(uint256)": "76f4be36",
					"getReward(address,address[])": "31279d3d",
					"isReward(address)": "4d5ce038",
					"lastEarn(address,address)": "a495e5b5",
					"lastTimeRewardApplicable(address)": "638634ee",
					"lastUpdateTime(address)": "2ce9aead",
					"notifyRewardAmount(address,uint256)": "b66503cf",
					"numCheckpoints(address)": "6fcfff45",
					"rewardPerToken(address)": "f1229777",
					"rewardPerTokenCheckpoints(address,uint256)": "01316ddf",
					"rewardPerTokenNumCheckpoints(address)": "aa479652",
					"rewardPerTokenStored(address)": "9ce43f90",
					"rewardRate(address)": "221ca18c",
					"rewards(uint256)": "f301af42",
					"rewardsListLength()": "e6886396",
					"stake()": "3a4b66f1",
					"supplyCheckpoints(uint256)": "f7412baf",
					"supplyNumCheckpoints()": "e8111a12",
					"tokenIds(address)": "fc97a303",
					"totalSupply()": "18160ddd",
					"userRewardPerTokenStored(address,address)": "3ca068b6",
					"veToken()": "3b92eb23",
					"withdraw(uint256)": "2e1a7d4d",
					"withdrawAll()": "853828b6",
					"withdrawToken(uint256,uint256)": "fdb483c7"
				}
			},
			"storageLayout": {
				"storage": [
					{
						"astId": 97,
						"contract": "contracts/Gauge.sol:Gauge",
						"label": "_status",
						"offset": 0,
						"slot": "0",
						"type": "t_uint256"
					},
					{
						"astId": 528,
						"contract": "contracts/Gauge.sol:Gauge",
						"label": "derivedSupply",
						"offset": 0,
						"slot": "1",
						"type": "t_uint256"
					},
					{
						"astId": 532,
						"contract": "contracts/Gauge.sol:Gauge",
						"label": "derivedBalances",
						"offset": 0,
						"slot": "2",
						"type": "t_mapping(t_address,t_uint256)"
					},
					{
						"astId": 541,
						"contract": "contracts/Gauge.sol:Gauge",
						"label": "rewardRate",
						"offset": 0,
						"slot": "3",
						"type": "t_mapping(t_address,t_uint256)"
					},
					{
						"astId": 545,
						"contract": "contracts/Gauge.sol:Gauge",
						"label": "lastUpdateTime",
						"offset": 0,
						"slot": "4",
						"type": "t_mapping(t_address,t_uint256)"
					},
					{
						"astId": 549,
						"contract": "contracts/Gauge.sol:Gauge",
						"label": "rewardPerTokenStored",
						"offset": 0,
						"slot": "5",
						"type": "t_mapping(t_address,t_uint256)"
					},
					{
						"astId": 555,
						"contract": "contracts/Gauge.sol:Gauge",
						"label": "lastEarn",
						"offset": 0,
						"slot": "6",
						"type": "t_mapping(t_address,t_mapping(t_address,t_uint256))"
					},
					{
						"astId": 561,
						"contract": "contracts/Gauge.sol:Gauge",
						"label": "userRewardPerTokenStored",
						"offset": 0,
						"slot": "7",
						"type": "t_mapping(t_address,t_mapping(t_address,t_uint256))"
					},
					{
						"astId": 565,
						"contract": "contracts/Gauge.sol:Gauge",
						"label": "tokenIds",
						"offset": 0,
						"slot": "8",
						"type": "t_mapping(t_address,t_uint256)"
					},
					{
						"astId": 567,
						"contract": "contracts/Gauge.sol:Gauge",
						"label": "totalSupply",
						"offset": 0,
						"slot": "9",
						"type": "t_uint256"
					},
					{
						"astId": 571,
						"contract": "contracts/Gauge.sol:Gauge",
						"label": "balanceOf",
						"offset": 0,
						"slot": "10",
						"type": "t_mapping(t_address,t_uint256)"
					},
					{
						"astId": 574,
						"contract": "contracts/Gauge.sol:Gauge",
						"label": "rewards",
						"offset": 0,
						"slot": "11",
						"type": "t_array(t_address)dyn_storage"
					},
					{
						"astId": 578,
						"contract": "contracts/Gauge.sol:Gauge",
						"label": "isReward",
						"offset": 0,
						"slot": "12",
						"type": "t_mapping(t_address,t_bool)"
					},
					{
						"astId": 600,
						"contract": "contracts/Gauge.sol:Gauge",
						"label": "checkpoints",
						"offset": 0,
						"slot": "13",
						"type": "t_mapping(t_address,t_mapping(t_uint256,t_struct(Checkpoint)583_storage))"
					},
					{
						"astId": 604,
						"contract": "contracts/Gauge.sol:Gauge",
						"label": "numCheckpoints",
						"offset": 0,
						"slot": "14",
						"type": "t_mapping(t_address,t_uint256)"
					},
					{
						"astId": 609,
						"contract": "contracts/Gauge.sol:Gauge",
						"label": "supplyCheckpoints",
						"offset": 0,
						"slot": "15",
						"type": "t_mapping(t_uint256,t_struct(SupplyCheckpoint)593_storage)"
					},
					{
						"astId": 611,
						"contract": "contracts/Gauge.sol:Gauge",
						"label": "supplyNumCheckpoints",
						"offset": 0,
						"slot": "16",
						"type": "t_uint256"
					},
					{
						"astId": 618,
						"contract": "contracts/Gauge.sol:Gauge",
						"label": "rewardPerTokenCheckpoints",
						"offset": 0,
						"slot": "17",
						"type": "t_mapping(t_address,t_mapping(t_uint256,t_struct(RewardPerTokenCheckpoint)588_storage))"
					},
					{
						"astId": 622,
						"contract": "contracts/Gauge.sol:Gauge",
						"label": "rewardPerTokenNumCheckpoints",
						"offset": 0,
						"slot": "18",
						"type": "t_mapping(t_address,t_uint256)"
					}
				],
				"types": {
					"t_address": {
						"encoding": "inplace",
						"label": "address",
						"numberOfBytes": "20"
					},
					"t_array(t_address)dyn_storage": {
						"base": "t_address",
						"encoding": "dynamic_array",
						"label": "address[]",
						"numberOfBytes": "32"
					},
					"t_bool": {
						"encoding": "inplace",
						"label": "bool",
						"numberOfBytes": "1"
					},
					"t_mapping(t_address,t_bool)": {
						"encoding": "mapping",
						"key": "t_address",
						"label": "mapping(address => bool)",
						"numberOfBytes": "32",
						"value": "t_bool"
					},
					"t_mapping(t_address,t_mapping(t_address,t_uint256))": {
						"encoding": "mapping",
						"key": "t_address",
						"label": "mapping(address => mapping(address => uint256))",
						"numberOfBytes": "32",
						"value": "t_mapping(t_address,t_uint256)"
					},
					"t_mapping(t_address,t_mapping(t_uint256,t_struct(Checkpoint)583_storage))": {
						"encoding": "mapping",
						"key": "t_address",
						"label": "mapping(address => mapping(uint256 => struct Gauge.Checkpoint))",
						"numberOfBytes": "32",
						"value": "t_mapping(t_uint256,t_struct(Checkpoint)583_storage)"
					},
					"t_mapping(t_address,t_mapping(t_uint256,t_struct(RewardPerTokenCheckpoint)588_storage))": {
						"encoding": "mapping",
						"key": "t_address",
						"label": "mapping(address => mapping(uint256 => struct Gauge.RewardPerTokenCheckpoint))",
						"numberOfBytes": "32",
						"value": "t_mapping(t_uint256,t_struct(RewardPerTokenCheckpoint)588_storage)"
					},
					"t_mapping(t_address,t_uint256)": {
						"encoding": "mapping",
						"key": "t_address",
						"label": "mapping(address => uint256)",
						"numberOfBytes": "32",
						"value": "t_uint256"
					},
					"t_mapping(t_uint256,t_struct(Checkpoint)583_storage)": {
						"encoding": "mapping",
						"key": "t_uint256",
						"label": "mapping(uint256 => struct Gauge.Checkpoint)",
						"numberOfBytes": "32",
						"value": "t_struct(Checkpoint)583_storage"
					},
					"t_mapping(t_uint256,t_struct(RewardPerTokenCheckpoint)588_storage)": {
						"encoding": "mapping",
						"key": "t_uint256",
						"label": "mapping(uint256 => struct Gauge.RewardPerTokenCheckpoint)",
						"numberOfBytes": "32",
						"value": "t_struct(RewardPerTokenCheckpoint)588_storage"
					},
					"t_mapping(t_uint256,t_struct(SupplyCheckpoint)593_storage)": {
						"encoding": "mapping",
						"key": "t_uint256",
						"label": "mapping(uint256 => struct Gauge.SupplyCheckpoint)",
						"numberOfBytes": "32",
						"value": "t_struct(SupplyCheckpoint)593_storage"
					},
					"t_struct(Checkpoint)583_storage": {
						"encoding": "inplace",
						"label": "struct Gauge.Checkpoint",
						"members": [
							{
								"astId": 580,
								"contract": "contracts/Gauge.sol:Gauge",
								"label": "timestamp",
								"offset": 0,
								"slot": "0",
								"type": "t_uint256"
							},
							{
								"astId": 582,
								"contract": "contracts/Gauge.sol:Gauge",
								"label": "balanceOf",
								"offset": 0,
								"slot": "1",
								"type": "t_uint256"
							}
						],
						"numberOfBytes": "64"
					},
					"t_struct(RewardPerTokenCheckpoint)588_storage": {
						"encoding": "inplace",
						"label": "struct Gauge.RewardPerTokenCheckpoint",
						"members": [
							{
								"astId": 585,
								"contract": "contracts/Gauge.sol:Gauge",
								"label": "timestamp",
								"offset": 0,
								"slot": "0",
								"type": "t_uint256"
							},
							{
								"astId": 587,
								"contract": "contracts/Gauge.sol:Gauge",
								"label": "rewardPerToken",
								"offset": 0,
								"slot": "1",
								"type": "t_uint256"
							}
						],
						"numberOfBytes": "64"
					},
					"t_struct(SupplyCheckpoint)593_storage": {
						"encoding": "inplace",
						"label": "struct Gauge.SupplyCheckpoint",
						"members": [
							{
								"astId": 590,
								"contract": "contracts/Gauge.sol:Gauge",
								"label": "timestamp",
								"offset": 0,
								"slot": "0",
								"type": "t_uint256"
							},
							{
								"astId": 592,
								"contract": "contracts/Gauge.sol:Gauge",
								"label": "supply",
								"offset": 0,
								"slot": "1",
								"type": "t_uint256"
							}
						],
						"numberOfBytes": "64"
					},
					"t_uint256": {
						"encoding": "inplace",
						"label": "uint256",
						"numberOfBytes": "32"
					}
				}
			},
			"userdoc": {
				"kind": "user",
				"methods": {},
				"version": 1
			}
		}
	}
}