{
	"contracts/Boost.sol": {
		"Operatable": {
			"abi": [
				{
					"inputs": [],
					"stateMutability": "nonpayable",
					"type": "constructor"
				},
				{
					"anonymous": false,
					"inputs": [
						{
							"indexed": true,
							"internalType": "address",
							"name": "previousOwner",
							"type": "address"
						},
						{
							"indexed": true,
							"internalType": "address",
							"name": "newOwner",
							"type": "address"
						}
					],
					"name": "OwnershipTransferred",
					"type": "event"
				},
				{
					"anonymous": false,
					"inputs": [
						{
							"indexed": true,
							"internalType": "address",
							"name": "oldOperator",
							"type": "address"
						},
						{
							"indexed": true,
							"internalType": "address",
							"name": "newOperator",
							"type": "address"
						}
					],
					"name": "SetOperator",
					"type": "event"
				},
				{
					"inputs": [],
					"name": "operator",
					"outputs": [
						{
							"internalType": "address",
							"name": "",
							"type": "address"
						}
					],
					"stateMutability": "view",
					"type": "function"
				},
				{
					"inputs": [],
					"name": "owner",
					"outputs": [
						{
							"internalType": "address",
							"name": "",
							"type": "address"
						}
					],
					"stateMutability": "view",
					"type": "function"
				},
				{
					"inputs": [],
					"name": "renounceOwnership",
					"outputs": [],
					"stateMutability": "nonpayable",
					"type": "function"
				},
				{
					"inputs": [
						{
							"internalType": "address",
							"name": "newOperator",
							"type": "address"
						}
					],
					"name": "setOperator",
					"outputs": [],
					"stateMutability": "nonpayable",
					"type": "function"
				},
				{
					"inputs": [
						{
							"internalType": "address",
							"name": "newOwner",
							"type": "address"
						}
					],
					"name": "transferOwnership",
					"outputs": [],
					"stateMutability": "nonpayable",
					"type": "function"
				}
			],
			"devdoc": {
				"kind": "dev",
				"methods": {
					"owner()": {
						"details": "Returns the address of the current owner."
					},
					"renounceOwnership()": {
						"details": "Leaves the contract without owner. It will not be possible to call `onlyOwner` functions anymore. Can only be called by the current owner. NOTE: Renouncing ownership will leave the contract without an owner, thereby removing any functionality that is only available to the owner."
					},
					"transferOwnership(address)": {
						"details": "Transfers ownership of the contract to a new account (`newOwner`). Can only be called by the current owner."
					}
				},
				"version": 1
			},
			"evm": {
				"assembly": "    /* \"contracts/Boost.sol\":43636:44251  contract Operatable is Ownable {... */\n  mstore(0x40, 0x80)\n    /* \"contracts/Boost.sol\":43785:43884  constructor(){... */\n  callvalue\n  dup1\n  iszero\n  tag_1\n  jumpi\n  0x00\n  dup1\n  revert\ntag_1:\n  pop\n    /* \"contracts/Boost.sol\":8642:8674  _transferOwnership(_msgSender()) */\n  tag_5\n    /* \"contracts/Boost.sol\":7598:7608  msg.sender */\n  caller\n    /* \"contracts/Boost.sol\":8642:8660  _transferOwnership */\n  tag_8\n    /* \"contracts/Boost.sol\":8642:8674  _transferOwnership(_msgSender()) */\n  jump\t// in\ntag_5:\n    /* \"contracts/Boost.sol\":43808:43816  operator */\n  0x01\n    /* \"contracts/Boost.sol\":43808:43829  operator = msg.sender */\n  dup1\n  sload\n  not(sub(shl(0xa0, 0x01), 0x01))\n  and\n    /* \"contracts/Boost.sol\":43819:43829  msg.sender */\n  caller\n    /* \"contracts/Boost.sol\":43808:43829  operator = msg.sender */\n  swap1\n  dup2\n  or\n  swap1\n  swap2\n  sstore\n    /* \"contracts/Boost.sol\":43844:43877  SetOperator(address(0), operator) */\n  mload(0x40)\n    /* \"contracts/Boost.sol\":43808:43816  operator */\n  0x00\n  swap1\n    /* \"contracts/Boost.sol\":43844:43877  SetOperator(address(0), operator) */\n  0x2709918445f306d3e94d280907c62c5d2525ac3192d2e544774c7f181d65af3e\n  swap1\n    /* \"contracts/Boost.sol\":43808:43816  operator */\n  dup3\n  swap1\n    /* \"contracts/Boost.sol\":43844:43877  SetOperator(address(0), operator) */\n  log3\n    /* \"contracts/Boost.sol\":43636:44251  contract Operatable is Ownable {... */\n  jump(tag_10)\n    /* \"contracts/Boost.sol\":9991:10178  function _transferOwnership(address newOwner) internal virtual {... */\ntag_8:\n    /* \"contracts/Boost.sol\":10064:10080  address oldOwner */\n  0x00\n    /* \"contracts/Boost.sol\":10083:10089  _owner */\n  dup1\n  sload\n  sub(shl(0xa0, 0x01), 0x01)\n    /* \"contracts/Boost.sol\":10099:10116  _owner = newOwner */\n  dup4\n  dup2\n  and\n  not(sub(shl(0xa0, 0x01), 0x01))\n  dup4\n  and\n  dup2\n  or\n  dup5\n  sstore\n    /* \"contracts/Boost.sol\":10131:10171  OwnershipTransferred(oldOwner, newOwner) */\n  mload(0x40)\n    /* \"contracts/Boost.sol\":10083:10089  _owner */\n  swap2\n  swap1\n  swap3\n  and\n  swap3\n  dup4\n  swap2\n    /* \"contracts/Boost.sol\":10131:10171  OwnershipTransferred(oldOwner, newOwner) */\n  0x8be0079c531659141344cd1fd0a4f28419497f9722a3daafe3b4186f6b6457e0\n  swap2\n    /* \"contracts/Boost.sol\":10064:10080  address oldOwner */\n  swap1\n    /* \"contracts/Boost.sol\":10131:10171  OwnershipTransferred(oldOwner, newOwner) */\n  log3\n    /* \"contracts/Boost.sol\":10054:10178  {... */\n  pop\n    /* \"contracts/Boost.sol\":9991:10178  function _transferOwnership(address newOwner) internal virtual {... */\n  pop\n  jump\t// out\n    /* \"contracts/Boost.sol\":43636:44251  contract Operatable is Ownable {... */\ntag_10:\n  dataSize(sub_0)\n  dup1\n  dataOffset(sub_0)\n  0x00\n  codecopy\n  0x00\n  return\nstop\n\nsub_0: assembly {\n        /* \"contracts/Boost.sol\":43636:44251  contract Operatable is Ownable {... */\n      mstore(0x40, 0x80)\n      callvalue\n      dup1\n      iszero\n      tag_1\n      jumpi\n      0x00\n      dup1\n      revert\n    tag_1:\n      pop\n      jumpi(tag_2, lt(calldatasize, 0x04))\n      shr(0xe0, calldataload(0x00))\n      dup1\n      0x570ca735\n      eq\n      tag_3\n      jumpi\n      dup1\n      0x715018a6\n      eq\n      tag_4\n      jumpi\n      dup1\n      0x8da5cb5b\n      eq\n      tag_5\n      jumpi\n      dup1\n      0xb3ab15fb\n      eq\n      tag_6\n      jumpi\n      dup1\n      0xf2fde38b\n      eq\n      tag_7\n      jumpi\n    tag_2:\n      0x00\n      dup1\n      revert\n        /* \"contracts/Boost.sol\":43673:43696  address public operator */\n    tag_3:\n      sload(0x01)\n      tag_8\n      swap1\n      sub(shl(0xa0, 0x01), 0x01)\n      and\n      dup2\n      jump\n    tag_8:\n      mload(0x40)\n      sub(shl(0xa0, 0x01), 0x01)\n        /* \"#utility.yul\":178:210   */\n      swap1\n      swap2\n      and\n        /* \"#utility.yul\":160:211   */\n      dup2\n      mstore\n        /* \"#utility.yul\":148:150   */\n      0x20\n        /* \"#utility.yul\":133:151   */\n      add\n        /* \"contracts/Boost.sol\":43673:43696  address public operator */\n      mload(0x40)\n      dup1\n      swap2\n      sub\n      swap1\n      return\n        /* \"contracts/Boost.sol\":9389:9490  function renounceOwnership() public virtual onlyOwner {... */\n    tag_4:\n      tag_12\n      tag_13\n      jump\t// in\n    tag_12:\n      stop\n        /* \"contracts/Boost.sol\":8757:8842  function owner() public view virtual returns (address) {... */\n    tag_5:\n        /* \"contracts/Boost.sol\":8803:8810  address */\n      0x00\n        /* \"contracts/Boost.sol\":8829:8835  _owner */\n      sload\n      sub(shl(0xa0, 0x01), 0x01)\n      and\n        /* \"contracts/Boost.sol\":8757:8842  function owner() public view virtual returns (address) {... */\n      jump(tag_8)\n        /* \"contracts/Boost.sol\":43995:44249  function setOperator(address newOperator) public onlyOwner {... */\n    tag_6:\n      tag_12\n      tag_18\n      calldatasize\n      0x04\n      tag_19\n      jump\t// in\n    tag_18:\n      tag_20\n      jump\t// in\n        /* \"contracts/Boost.sol\":9639:9837  function transferOwnership(address newOwner) public virtual onlyOwner {... */\n    tag_7:\n      tag_12\n      tag_22\n      calldatasize\n      0x04\n      tag_19\n      jump\t// in\n    tag_22:\n      tag_23\n      jump\t// in\n        /* \"contracts/Boost.sol\":9389:9490  function renounceOwnership() public virtual onlyOwner {... */\n    tag_13:\n        /* \"contracts/Boost.sol\":8803:8810  address */\n      0x00\n        /* \"contracts/Boost.sol\":8829:8835  _owner */\n      sload\n      sub(shl(0xa0, 0x01), 0x01)\n      and\n        /* \"contracts/Boost.sol\":7598:7608  msg.sender */\n      caller\n        /* \"contracts/Boost.sol\":8969:8992  owner() == _msgSender() */\n      eq\n        /* \"contracts/Boost.sol\":8961:9029  require(owner() == _msgSender(), \"Ownable: caller is not the owner\") */\n      tag_28\n      jumpi\n      mload(0x40)\n      shl(0xe5, 0x461bcd)\n      dup2\n      mstore\n      0x04\n      add\n      tag_29\n      swap1\n      tag_30\n      jump\t// in\n    tag_29:\n      mload(0x40)\n      dup1\n      swap2\n      sub\n      swap1\n      revert\n    tag_28:\n        /* \"contracts/Boost.sol\":9453:9483  _transferOwnership(address(0)) */\n      tag_32\n        /* \"contracts/Boost.sol\":9480:9481  0 */\n      0x00\n        /* \"contracts/Boost.sol\":9453:9471  _transferOwnership */\n      tag_33\n        /* \"contracts/Boost.sol\":9453:9483  _transferOwnership(address(0)) */\n      jump\t// in\n    tag_32:\n        /* \"contracts/Boost.sol\":9389:9490  function renounceOwnership() public virtual onlyOwner {... */\n      jump\t// out\n        /* \"contracts/Boost.sol\":43995:44249  function setOperator(address newOperator) public onlyOwner {... */\n    tag_20:\n        /* \"contracts/Boost.sol\":8803:8810  address */\n      0x00\n        /* \"contracts/Boost.sol\":8829:8835  _owner */\n      sload\n      sub(shl(0xa0, 0x01), 0x01)\n      and\n        /* \"contracts/Boost.sol\":7598:7608  msg.sender */\n      caller\n        /* \"contracts/Boost.sol\":8969:8992  owner() == _msgSender() */\n      eq\n        /* \"contracts/Boost.sol\":8961:9029  require(owner() == _msgSender(), \"Ownable: caller is not the owner\") */\n      tag_38\n      jumpi\n      mload(0x40)\n      shl(0xe5, 0x461bcd)\n      dup2\n      mstore\n      0x04\n      add\n      tag_29\n      swap1\n      tag_30\n      jump\t// in\n    tag_38:\n      sub(shl(0xa0, 0x01), 0x01)\n        /* \"contracts/Boost.sol\":44072:44097  newOperator != address(0) */\n      dup2\n      and\n        /* \"contracts/Boost.sol\":44064:44118  require(newOperator != address(0), 'bad new operator') */\n      tag_41\n      jumpi\n      mload(0x40)\n      shl(0xe5, 0x461bcd)\n      dup2\n      mstore\n        /* \"#utility.yul\":1076:1078   */\n      0x20\n        /* \"contracts/Boost.sol\":44064:44118  require(newOperator != address(0), 'bad new operator') */\n      0x04\n      dup3\n      add\n        /* \"#utility.yul\":1058:1079   */\n      mstore\n        /* \"#utility.yul\":1115:1117   */\n      0x10\n        /* \"#utility.yul\":1095:1113   */\n      0x24\n      dup3\n      add\n        /* \"#utility.yul\":1088:1118   */\n      mstore\n      shl(0x81, 0x3130b2103732bb9037b832b930ba37b9)\n        /* \"#utility.yul\":1134:1152   */\n      0x44\n      dup3\n      add\n        /* \"#utility.yul\":1127:1173   */\n      mstore\n        /* \"#utility.yul\":1190:1208   */\n      0x64\n      add\n        /* \"contracts/Boost.sol\":44064:44118  require(newOperator != address(0), 'bad new operator') */\n      tag_29\n        /* \"#utility.yul\":874:1214   */\n      jump\n        /* \"contracts/Boost.sol\":44064:44118  require(newOperator != address(0), 'bad new operator') */\n    tag_41:\n        /* \"contracts/Boost.sol\":44150:44158  operator */\n      0x01\n      dup1\n      sload\n      sub(shl(0xa0, 0x01), 0x01)\n        /* \"contracts/Boost.sol\":44168:44190  operator = newOperator */\n      dup4\n      dup2\n      and\n      not(sub(shl(0xa0, 0x01), 0x01))\n      dup4\n      and\n      dup2\n      or\n      swap1\n      swap4\n      sstore\n        /* \"contracts/Boost.sol\":44205:44242  SetOperator(oldOperator, newOperator) */\n      mload(0x40)\n        /* \"contracts/Boost.sol\":44150:44158  operator */\n      swap2\n      and\n      swap2\n        /* \"contracts/Boost.sol\":44168:44190  operator = newOperator */\n      swap1\n        /* \"contracts/Boost.sol\":44150:44158  operator */\n      dup3\n      swap1\n        /* \"contracts/Boost.sol\":44205:44242  SetOperator(oldOperator, newOperator) */\n      0x2709918445f306d3e94d280907c62c5d2525ac3192d2e544774c7f181d65af3e\n      swap1\n        /* \"contracts/Boost.sol\":44128:44147  address oldOperator */\n      0x00\n      swap1\n        /* \"contracts/Boost.sol\":44205:44242  SetOperator(oldOperator, newOperator) */\n      log3\n        /* \"contracts/Boost.sol\":44054:44249  {... */\n      pop\n        /* \"contracts/Boost.sol\":43995:44249  function setOperator(address newOperator) public onlyOwner {... */\n      pop\n      jump\t// out\n        /* \"contracts/Boost.sol\":9639:9837  function transferOwnership(address newOwner) public virtual onlyOwner {... */\n    tag_23:\n        /* \"contracts/Boost.sol\":8803:8810  address */\n      0x00\n        /* \"contracts/Boost.sol\":8829:8835  _owner */\n      sload\n      sub(shl(0xa0, 0x01), 0x01)\n      and\n        /* \"contracts/Boost.sol\":7598:7608  msg.sender */\n      caller\n        /* \"contracts/Boost.sol\":8969:8992  owner() == _msgSender() */\n      eq\n        /* \"contracts/Boost.sol\":8961:9029  require(owner() == _msgSender(), \"Ownable: caller is not the owner\") */\n      tag_47\n      jumpi\n      mload(0x40)\n      shl(0xe5, 0x461bcd)\n      dup2\n      mstore\n      0x04\n      add\n      tag_29\n      swap1\n      tag_30\n      jump\t// in\n    tag_47:\n      sub(shl(0xa0, 0x01), 0x01)\n        /* \"contracts/Boost.sol\":9727:9749  newOwner != address(0) */\n      dup2\n      and\n        /* \"contracts/Boost.sol\":9719:9792  require(newOwner != address(0), \"Ownable: new owner is the zero address\") */\n      tag_50\n      jumpi\n      mload(0x40)\n      shl(0xe5, 0x461bcd)\n      dup2\n      mstore\n        /* \"#utility.yul\":1421:1423   */\n      0x20\n        /* \"contracts/Boost.sol\":9719:9792  require(newOwner != address(0), \"Ownable: new owner is the zero address\") */\n      0x04\n      dup3\n      add\n        /* \"#utility.yul\":1403:1424   */\n      mstore\n        /* \"#utility.yul\":1460:1462   */\n      0x26\n        /* \"#utility.yul\":1440:1458   */\n      0x24\n      dup3\n      add\n        /* \"#utility.yul\":1433:1463   */\n      mstore\n        /* \"#utility.yul\":1499:1533   */\n      0x4f776e61626c653a206e6577206f776e657220697320746865207a65726f2061\n        /* \"#utility.yul\":1479:1497   */\n      0x44\n      dup3\n      add\n        /* \"#utility.yul\":1472:1534   */\n      mstore\n      shl(0xd0, 0x646472657373)\n        /* \"#utility.yul\":1550:1568   */\n      0x64\n      dup3\n      add\n        /* \"#utility.yul\":1543:1579   */\n      mstore\n        /* \"#utility.yul\":1596:1615   */\n      0x84\n      add\n        /* \"contracts/Boost.sol\":9719:9792  require(newOwner != address(0), \"Ownable: new owner is the zero address\") */\n      tag_29\n        /* \"#utility.yul\":1219:1621   */\n      jump\n        /* \"contracts/Boost.sol\":9719:9792  require(newOwner != address(0), \"Ownable: new owner is the zero address\") */\n    tag_50:\n        /* \"contracts/Boost.sol\":9802:9830  _transferOwnership(newOwner) */\n      tag_53\n        /* \"contracts/Boost.sol\":9821:9829  newOwner */\n      dup2\n        /* \"contracts/Boost.sol\":9802:9820  _transferOwnership */\n      tag_33\n        /* \"contracts/Boost.sol\":9802:9830  _transferOwnership(newOwner) */\n      jump\t// in\n    tag_53:\n        /* \"contracts/Boost.sol\":9639:9837  function transferOwnership(address newOwner) public virtual onlyOwner {... */\n      pop\n      jump\t// out\n        /* \"contracts/Boost.sol\":9991:10178  function _transferOwnership(address newOwner) internal virtual {... */\n    tag_33:\n        /* \"contracts/Boost.sol\":10064:10080  address oldOwner */\n      0x00\n        /* \"contracts/Boost.sol\":10083:10089  _owner */\n      dup1\n      sload\n      sub(shl(0xa0, 0x01), 0x01)\n        /* \"contracts/Boost.sol\":10099:10116  _owner = newOwner */\n      dup4\n      dup2\n      and\n      not(sub(shl(0xa0, 0x01), 0x01))\n      dup4\n      and\n      dup2\n      or\n      dup5\n      sstore\n        /* \"contracts/Boost.sol\":10131:10171  OwnershipTransferred(oldOwner, newOwner) */\n      mload(0x40)\n        /* \"contracts/Boost.sol\":10083:10089  _owner */\n      swap2\n      swap1\n      swap3\n      and\n      swap3\n      dup4\n      swap2\n        /* \"contracts/Boost.sol\":10131:10171  OwnershipTransferred(oldOwner, newOwner) */\n      0x8be0079c531659141344cd1fd0a4f28419497f9722a3daafe3b4186f6b6457e0\n      swap2\n        /* \"contracts/Boost.sol\":10064:10080  address oldOwner */\n      swap1\n        /* \"contracts/Boost.sol\":10131:10171  OwnershipTransferred(oldOwner, newOwner) */\n      log3\n        /* \"contracts/Boost.sol\":10054:10178  {... */\n      pop\n        /* \"contracts/Boost.sol\":9991:10178  function _transferOwnership(address newOwner) internal virtual {... */\n      pop\n      jump\t// out\n        /* \"#utility.yul\":222:508   */\n    tag_19:\n        /* \"#utility.yul\":281:287   */\n      0x00\n        /* \"#utility.yul\":334:336   */\n      0x20\n        /* \"#utility.yul\":322:331   */\n      dup3\n        /* \"#utility.yul\":313:320   */\n      dup5\n        /* \"#utility.yul\":309:332   */\n      sub\n        /* \"#utility.yul\":305:337   */\n      slt\n        /* \"#utility.yul\":302:354   */\n      iszero\n      tag_59\n      jumpi\n        /* \"#utility.yul\":350:351   */\n      0x00\n        /* \"#utility.yul\":347:348   */\n      dup1\n        /* \"#utility.yul\":340:352   */\n      revert\n        /* \"#utility.yul\":302:354   */\n    tag_59:\n        /* \"#utility.yul\":376:399   */\n      dup2\n      calldataload\n      sub(shl(0xa0, 0x01), 0x01)\n        /* \"#utility.yul\":428:459   */\n      dup2\n      and\n        /* \"#utility.yul\":418:460   */\n      dup2\n      eq\n        /* \"#utility.yul\":408:478   */\n      tag_60\n      jumpi\n        /* \"#utility.yul\":474:475   */\n      0x00\n        /* \"#utility.yul\":471:472   */\n      dup1\n        /* \"#utility.yul\":464:476   */\n      revert\n        /* \"#utility.yul\":408:478   */\n    tag_60:\n        /* \"#utility.yul\":497:502   */\n      swap4\n        /* \"#utility.yul\":222:508   */\n      swap3\n      pop\n      pop\n      pop\n      jump\t// out\n        /* \"#utility.yul\":513:869   */\n    tag_30:\n        /* \"#utility.yul\":715:717   */\n      0x20\n        /* \"#utility.yul\":697:718   */\n      dup1\n      dup3\n      mstore\n        /* \"#utility.yul\":734:752   */\n      dup2\n      dup2\n      add\n        /* \"#utility.yul\":727:757   */\n      mstore\n        /* \"#utility.yul\":793:827   */\n      0x4f776e61626c653a2063616c6c6572206973206e6f7420746865206f776e6572\n        /* \"#utility.yul\":788:790   */\n      0x40\n        /* \"#utility.yul\":773:791   */\n      dup3\n      add\n        /* \"#utility.yul\":766:828   */\n      mstore\n        /* \"#utility.yul\":860:862   */\n      0x60\n        /* \"#utility.yul\":845:863   */\n      add\n      swap1\n        /* \"#utility.yul\":513:869   */\n      jump\t// out\n\n    auxdata: 0xa264697066735822122043e6883c73628f25af81af82e3ffcc8f6076bce2e53f9855543020eeb9ea1c0064736f6c634300080a0033\n}\n",
				"bytecode": {
					"linkReferences": {},
					"object": "608060405234801561001057600080fd5b5061001a3361005f565b600180546001600160a01b031916339081179091556040516000907f2709918445f306d3e94d280907c62c5d2525ac3192d2e544774c7f181d65af3e908290a36100af565b600080546001600160a01b038381166001600160a01b0319831681178455604051919092169283917f8be0079c531659141344cd1fd0a4f28419497f9722a3daafe3b4186f6b6457e09190a35050565b610356806100be6000396000f3fe608060405234801561001057600080fd5b50600436106100575760003560e01c8063570ca7351461005c578063715018a61461008b5780638da5cb5b14610095578063b3ab15fb146100a6578063f2fde38b146100b9575b600080fd5b60015461006f906001600160a01b031681565b6040516001600160a01b03909116815260200160405180910390f35b6100936100cc565b005b6000546001600160a01b031661006f565b6100936100b43660046102bb565b61010b565b6100936100c73660046102bb565b6101d0565b6000546001600160a01b031633146100ff5760405162461bcd60e51b81526004016100f6906102eb565b60405180910390fd5b610109600061026b565b565b6000546001600160a01b031633146101355760405162461bcd60e51b81526004016100f6906102eb565b6001600160a01b03811661017e5760405162461bcd60e51b815260206004820152601060248201526f3130b2103732bb9037b832b930ba37b960811b60448201526064016100f6565b600180546001600160a01b038381166001600160a01b0319831681179093556040519116919082907f2709918445f306d3e94d280907c62c5d2525ac3192d2e544774c7f181d65af3e90600090a35050565b6000546001600160a01b031633146101fa5760405162461bcd60e51b81526004016100f6906102eb565b6001600160a01b03811661025f5760405162461bcd60e51b815260206004820152602660248201527f4f776e61626c653a206e6577206f776e657220697320746865207a65726f206160448201526564647265737360d01b60648201526084016100f6565b6102688161026b565b50565b600080546001600160a01b038381166001600160a01b0319831681178455604051919092169283917f8be0079c531659141344cd1fd0a4f28419497f9722a3daafe3b4186f6b6457e09190a35050565b6000602082840312156102cd57600080fd5b81356001600160a01b03811681146102e457600080fd5b9392505050565b6020808252818101527f4f776e61626c653a2063616c6c6572206973206e6f7420746865206f776e657260408201526060019056fea264697066735822122043e6883c73628f25af81af82e3ffcc8f6076bce2e53f9855543020eeb9ea1c0064736f6c634300080a0033",
					"opcodes": "PUSH1 0x80 PUSH1 0x40 MSTORE CALLVALUE DUP1 ISZERO PUSH2 0x10 JUMPI PUSH1 0x0 DUP1 REVERT JUMPDEST POP PUSH2 0x1A CALLER PUSH2 0x5F JUMP JUMPDEST PUSH1 0x1 DUP1 SLOAD PUSH1 0x1 PUSH1 0x1 PUSH1 0xA0 SHL SUB NOT AND CALLER SWAP1 DUP2 OR SWAP1 SWAP2 SSTORE PUSH1 0x40 MLOAD PUSH1 0x0 SWAP1 PUSH32 0x2709918445F306D3E94D280907C62C5D2525AC3192D2E544774C7F181D65AF3E SWAP1 DUP3 SWAP1 LOG3 PUSH2 0xAF JUMP JUMPDEST PUSH1 0x0 DUP1 SLOAD PUSH1 0x1 PUSH1 0x1 PUSH1 0xA0 SHL SUB DUP4 DUP2 AND PUSH1 0x1 PUSH1 0x1 PUSH1 0xA0 SHL SUB NOT DUP4 AND DUP2 OR DUP5 SSTORE PUSH1 0x40 MLOAD SWAP2 SWAP1 SWAP3 AND SWAP3 DUP4 SWAP2 PUSH32 0x8BE0079C531659141344CD1FD0A4F28419497F9722A3DAAFE3B4186F6B6457E0 SWAP2 SWAP1 LOG3 POP POP JUMP JUMPDEST PUSH2 0x356 DUP1 PUSH2 0xBE PUSH1 0x0 CODECOPY PUSH1 0x0 RETURN INVALID PUSH1 0x80 PUSH1 0x40 MSTORE CALLVALUE DUP1 ISZERO PUSH2 0x10 JUMPI PUSH1 0x0 DUP1 REVERT JUMPDEST POP PUSH1 0x4 CALLDATASIZE LT PUSH2 0x57 JUMPI PUSH1 0x0 CALLDATALOAD PUSH1 0xE0 SHR DUP1 PUSH4 0x570CA735 EQ PUSH2 0x5C JUMPI DUP1 PUSH4 0x715018A6 EQ PUSH2 0x8B JUMPI DUP1 PUSH4 0x8DA5CB5B EQ PUSH2 0x95 JUMPI DUP1 PUSH4 0xB3AB15FB EQ PUSH2 0xA6 JUMPI DUP1 PUSH4 0xF2FDE38B EQ PUSH2 0xB9 JUMPI JUMPDEST PUSH1 0x0 DUP1 REVERT JUMPDEST PUSH1 0x1 SLOAD PUSH2 0x6F SWAP1 PUSH1 0x1 PUSH1 0x1 PUSH1 0xA0 SHL SUB AND DUP2 JUMP JUMPDEST PUSH1 0x40 MLOAD PUSH1 0x1 PUSH1 0x1 PUSH1 0xA0 SHL SUB SWAP1 SWAP2 AND DUP2 MSTORE PUSH1 0x20 ADD PUSH1 0x40 MLOAD DUP1 SWAP2 SUB SWAP1 RETURN JUMPDEST PUSH2 0x93 PUSH2 0xCC JUMP JUMPDEST STOP JUMPDEST PUSH1 0x0 SLOAD PUSH1 0x1 PUSH1 0x1 PUSH1 0xA0 SHL SUB AND PUSH2 0x6F JUMP JUMPDEST PUSH2 0x93 PUSH2 0xB4 CALLDATASIZE PUSH1 0x4 PUSH2 0x2BB JUMP JUMPDEST PUSH2 0x10B JUMP JUMPDEST PUSH2 0x93 PUSH2 0xC7 CALLDATASIZE PUSH1 0x4 PUSH2 0x2BB JUMP JUMPDEST PUSH2 0x1D0 JUMP JUMPDEST PUSH1 0x0 SLOAD PUSH1 0x1 PUSH1 0x1 PUSH1 0xA0 SHL SUB AND CALLER EQ PUSH2 0xFF JUMPI PUSH1 0x40 MLOAD PUSH3 0x461BCD PUSH1 0xE5 SHL DUP2 MSTORE PUSH1 0x4 ADD PUSH2 0xF6 SWAP1 PUSH2 0x2EB JUMP JUMPDEST PUSH1 0x40 MLOAD DUP1 SWAP2 SUB SWAP1 REVERT JUMPDEST PUSH2 0x109 PUSH1 0x0 PUSH2 0x26B JUMP JUMPDEST JUMP JUMPDEST PUSH1 0x0 SLOAD PUSH1 0x1 PUSH1 0x1 PUSH1 0xA0 SHL SUB AND CALLER EQ PUSH2 0x135 JUMPI PUSH1 0x40 MLOAD PUSH3 0x461BCD PUSH1 0xE5 SHL DUP2 MSTORE PUSH1 0x4 ADD PUSH2 0xF6 SWAP1 PUSH2 0x2EB JUMP JUMPDEST PUSH1 0x1 PUSH1 0x1 PUSH1 0xA0 SHL SUB DUP2 AND PUSH2 0x17E JUMPI PUSH1 0x40 MLOAD PUSH3 0x461BCD PUSH1 0xE5 SHL DUP2 MSTORE PUSH1 0x20 PUSH1 0x4 DUP3 ADD MSTORE PUSH1 0x10 PUSH1 0x24 DUP3 ADD MSTORE PUSH16 0x3130B2103732BB9037B832B930BA37B9 PUSH1 0x81 SHL PUSH1 0x44 DUP3 ADD MSTORE PUSH1 0x64 ADD PUSH2 0xF6 JUMP JUMPDEST PUSH1 0x1 DUP1 SLOAD PUSH1 0x1 PUSH1 0x1 PUSH1 0xA0 SHL SUB DUP4 DUP2 AND PUSH1 0x1 PUSH1 0x1 PUSH1 0xA0 SHL SUB NOT DUP4 AND DUP2 OR SWAP1 SWAP4 SSTORE PUSH1 0x40 MLOAD SWAP2 AND SWAP2 SWAP1 DUP3 SWAP1 PUSH32 0x2709918445F306D3E94D280907C62C5D2525AC3192D2E544774C7F181D65AF3E SWAP1 PUSH1 0x0 SWAP1 LOG3 POP POP JUMP JUMPDEST PUSH1 0x0 SLOAD PUSH1 0x1 PUSH1 0x1 PUSH1 0xA0 SHL SUB AND CALLER EQ PUSH2 0x1FA JUMPI PUSH1 0x40 MLOAD PUSH3 0x461BCD PUSH1 0xE5 SHL DUP2 MSTORE PUSH1 0x4 ADD PUSH2 0xF6 SWAP1 PUSH2 0x2EB JUMP JUMPDEST PUSH1 0x1 PUSH1 0x1 PUSH1 0xA0 SHL SUB DUP2 AND PUSH2 0x25F JUMPI PUSH1 0x40 MLOAD PUSH3 0x461BCD PUSH1 0xE5 SHL DUP2 MSTORE PUSH1 0x20 PUSH1 0x4 DUP3 ADD MSTORE PUSH1 0x26 PUSH1 0x24 DUP3 ADD MSTORE PUSH32 0x4F776E61626C653A206E6577206F776E657220697320746865207A65726F2061 PUSH1 0x44 DUP3 ADD MSTORE PUSH6 0x646472657373 PUSH1 0xD0 SHL PUSH1 0x64 DUP3 ADD MSTORE PUSH1 0x84 ADD PUSH2 0xF6 JUMP JUMPDEST PUSH2 0x268 DUP2 PUSH2 0x26B JUMP JUMPDEST POP JUMP JUMPDEST PUSH1 0x0 DUP1 SLOAD PUSH1 0x1 PUSH1 0x1 PUSH1 0xA0 SHL SUB DUP4 DUP2 AND PUSH1 0x1 PUSH1 0x1 PUSH1 0xA0 SHL SUB NOT DUP4 AND DUP2 OR DUP5 SSTORE PUSH1 0x40 MLOAD SWAP2 SWAP1 SWAP3 AND SWAP3 DUP4 SWAP2 PUSH32 0x8BE0079C531659141344CD1FD0A4F28419497F9722A3DAAFE3B4186F6B6457E0 SWAP2 SWAP1 LOG3 POP POP JUMP JUMPDEST PUSH1 0x0 PUSH1 0x20 DUP3 DUP5 SUB SLT ISZERO PUSH2 0x2CD JUMPI PUSH1 0x0 DUP1 REVERT JUMPDEST DUP2 CALLDATALOAD PUSH1 0x1 PUSH1 0x1 PUSH1 0xA0 SHL SUB DUP2 AND DUP2 EQ PUSH2 0x2E4 JUMPI PUSH1 0x0 DUP1 REVERT JUMPDEST SWAP4 SWAP3 POP POP POP JUMP JUMPDEST PUSH1 0x20 DUP1 DUP3 MSTORE DUP2 DUP2 ADD MSTORE PUSH32 0x4F776E61626C653A2063616C6C6572206973206E6F7420746865206F776E6572 PUSH1 0x40 DUP3 ADD MSTORE PUSH1 0x60 ADD SWAP1 JUMP INVALID LOG2 PUSH5 0x6970667358 0x22 SLT KECCAK256 NUMBER 0xE6 DUP9 EXTCODECOPY PUSH20 0x628F25AF81AF82E3FFCC8F6076BCE2E53F985554 ADDRESS KECCAK256 0xEE 0xB9 0xEA SHR STOP PUSH5 0x736F6C6343 STOP ADDMOD EXP STOP CALLER "
				},
				"gasEstimates": {
					"creation": {
						"codeDepositCost": "170800",
						"executionCost": "51823",
						"totalCost": "222623"
					},
					"external": {
						"operator()": "2303",
						"owner()": "2341",
						"renounceOwnership()": "28114",
						"setOperator(address)": "28292",
						"transferOwnership(address)": "28340"
					}
				},
				"methodIdentifiers": {
					"operator()": "570ca735",
					"owner()": "8da5cb5b",
					"renounceOwnership()": "715018a6",
					"setOperator(address)": "b3ab15fb",
					"transferOwnership(address)": "f2fde38b"
				}
			},
			"storageLayout": {
				"storage": [
					{
						"astId": 230,
						"contract": "contracts/Boost.sol:Operatable",
						"label": "_owner",
						"offset": 0,
						"slot": "0",
						"type": "t_address"
					},
					{
						"astId": 1957,
						"contract": "contracts/Boost.sol:Operatable",
						"label": "operator",
						"offset": 0,
						"slot": "1",
						"type": "t_address"
					}
				],
				"types": {
					"t_address": {
						"encoding": "inplace",
						"label": "address",
						"numberOfBytes": "20"
					}
				}
			},
			"userdoc": {
				"kind": "user",
				"methods": {},
				"version": 1
			}
		}
	}
}