{
	"contracts/Boost.sol": {
		"Boost": {
			"abi": [
				{
					"inputs": [
						{
							"internalType": "address",
							"name": "_operatorMsg",
							"type": "address"
						},
						{
							"internalType": "address",
							"name": "__ve",
							"type": "address"
						},
						{
							"internalType": "address",
							"name": "_gauges",
							"type": "address"
						},
						{
							"internalType": "contract IToken",
							"name": "_swapToken",
							"type": "address"
						},
						{
							"internalType": "uint256",
							"name": "_tokenPerBlock",
							"type": "uint256"
						},
						{
							"internalType": "uint256",
							"name": "_startBlock",
							"type": "uint256"
						},
						{
							"internalType": "uint256",
							"name": "_period",
							"type": "uint256"
						}
					],
					"stateMutability": "nonpayable",
					"type": "constructor"
				},
				{
					"anonymous": false,
					"inputs": [
						{
							"indexed": false,
							"internalType": "uint256",
							"name": "tokenId",
							"type": "uint256"
						},
						{
							"indexed": false,
							"internalType": "int256",
							"name": "weight",
							"type": "int256"
						}
					],
					"name": "Abstained",
					"type": "event"
				},
				{
					"anonymous": false,
					"inputs": [
						{
							"indexed": true,
							"internalType": "address",
							"name": "pool",
							"type": "address"
						},
						{
							"indexed": false,
							"internalType": "uint256",
							"name": "point",
							"type": "uint256"
						}
					],
					"name": "AddPool",
					"type": "event"
				},
				{
					"anonymous": false,
					"inputs": [
						{
							"indexed": true,
							"internalType": "address",
							"name": "owner",
							"type": "address"
						},
						{
							"indexed": true,
							"internalType": "address",
							"name": "gauge",
							"type": "address"
						},
						{
							"indexed": false,
							"internalType": "uint256",
							"name": "tokenId",
							"type": "uint256"
						}
					],
					"name": "Attach",
					"type": "event"
				},
				{
					"anonymous": false,
					"inputs": [
						{
							"indexed": true,
							"internalType": "address",
							"name": "lp",
							"type": "address"
						},
						{
							"indexed": true,
							"internalType": "address",
							"name": "gauge",
							"type": "address"
						},
						{
							"indexed": false,
							"internalType": "uint256",
							"name": "tokenId",
							"type": "uint256"
						},
						{
							"indexed": false,
							"internalType": "uint256",
							"name": "amount",
							"type": "uint256"
						}
					],
					"name": "Deposit",
					"type": "event"
				},
				{
					"anonymous": false,
					"inputs": [
						{
							"indexed": true,
							"internalType": "address",
							"name": "owner",
							"type": "address"
						},
						{
							"indexed": true,
							"internalType": "address",
							"name": "gauge",
							"type": "address"
						},
						{
							"indexed": false,
							"internalType": "uint256",
							"name": "tokenId",
							"type": "uint256"
						}
					],
					"name": "Detach",
					"type": "event"
				},
				{
					"anonymous": false,
					"inputs": [
						{
							"indexed": true,
							"internalType": "address",
							"name": "sender",
							"type": "address"
						},
						{
							"indexed": true,
							"internalType": "address",
							"name": "gauge",
							"type": "address"
						},
						{
							"indexed": false,
							"internalType": "uint256",
							"name": "amount",
							"type": "uint256"
						}
					],
					"name": "DistributeReward",
					"type": "event"
				},
				{
					"anonymous": false,
					"inputs": [
						{
							"indexed": true,
							"internalType": "address",
							"name": "gauge",
							"type": "address"
						},
						{
							"indexed": false,
							"internalType": "address",
							"name": "creator",
							"type": "address"
						},
						{
							"indexed": true,
							"internalType": "address",
							"name": "pool",
							"type": "address"
						}
					],
					"name": "GaugeCreated",
					"type": "event"
				},
				{
					"anonymous": false,
					"inputs": [
						{
							"indexed": true,
							"internalType": "address",
							"name": "sender",
							"type": "address"
						},
						{
							"indexed": true,
							"internalType": "address",
							"name": "reward",
							"type": "address"
						},
						{
							"indexed": false,
							"internalType": "uint256",
							"name": "amount",
							"type": "uint256"
						}
					],
					"name": "NotifyReward",
					"type": "event"
				},
				{
					"anonymous": false,
					"inputs": [
						{
							"indexed": true,
							"internalType": "address",
							"name": "oldOperator",
							"type": "address"
						},
						{
							"indexed": true,
							"internalType": "address",
							"name": "newOperator",
							"type": "address"
						}
					],
					"name": "SetOperatorContract",
					"type": "event"
				},
				{
					"anonymous": false,
					"inputs": [
						{
							"indexed": true,
							"internalType": "address",
							"name": "pool",
							"type": "address"
						},
						{
							"indexed": false,
							"internalType": "uint256",
							"name": "point",
							"type": "uint256"
						}
					],
					"name": "SetPool",
					"type": "event"
				},
				{
					"anonymous": false,
					"inputs": [
						{
							"indexed": true,
							"internalType": "address",
							"name": "voter",
							"type": "address"
						},
						{
							"indexed": false,
							"internalType": "uint256",
							"name": "tokenId",
							"type": "uint256"
						},
						{
							"indexed": false,
							"internalType": "int256",
							"name": "weight",
							"type": "int256"
						}
					],
					"name": "Voted",
					"type": "event"
				},
				{
					"anonymous": false,
					"inputs": [
						{
							"indexed": true,
							"internalType": "address",
							"name": "lp",
							"type": "address"
						},
						{
							"indexed": true,
							"internalType": "address",
							"name": "gauge",
							"type": "address"
						},
						{
							"indexed": false,
							"internalType": "uint256",
							"name": "tokenId",
							"type": "uint256"
						},
						{
							"indexed": false,
							"internalType": "uint256",
							"name": "amount",
							"type": "uint256"
						}
					],
					"name": "Withdraw",
					"type": "event"
				},
				{
					"inputs": [
						{
							"internalType": "address",
							"name": "",
							"type": "address"
						}
					],
					"name": "LpOfPid",
					"outputs": [
						{
							"internalType": "uint256",
							"name": "",
							"type": "uint256"
						}
					],
					"stateMutability": "view",
					"type": "function"
				},
				{
					"inputs": [
						{
							"internalType": "uint256",
							"name": "tokenId",
							"type": "uint256"
						},
						{
							"internalType": "address",
							"name": "account",
							"type": "address"
						}
					],
					"name": "attachTokenToGauge",
					"outputs": [],
					"stateMutability": "nonpayable",
					"type": "function"
				},
				{
					"inputs": [
						{
							"internalType": "address[]",
							"name": "_gauges",
							"type": "address[]"
						},
						{
							"internalType": "address[][]",
							"name": "_tokens",
							"type": "address[][]"
						}
					],
					"name": "claimRewards",
					"outputs": [],
					"stateMutability": "nonpayable",
					"type": "function"
				},
				{
					"inputs": [
						{
							"internalType": "address",
							"name": "_pool",
							"type": "address"
						},
						{
							"internalType": "uint256",
							"name": "_allocPoint",
							"type": "uint256"
						},
						{
							"internalType": "bool",
							"name": "_withUpdate",
							"type": "bool"
						}
					],
					"name": "createGauge",
					"outputs": [
						{
							"internalType": "address",
							"name": "",
							"type": "address"
						}
					],
					"stateMutability": "nonpayable",
					"type": "function"
				},
				{
					"inputs": [
						{
							"internalType": "uint256",
							"name": "tokenId",
							"type": "uint256"
						},
						{
							"internalType": "address",
							"name": "account",
							"type": "address"
						}
					],
					"name": "detachTokenFromGauge",
					"outputs": [],
					"stateMutability": "nonpayable",
					"type": "function"
				},
				{
					"inputs": [
						{
							"internalType": "address",
							"name": "_gauge",
							"type": "address"
						}
					],
					"name": "distribute",
					"outputs": [],
					"stateMutability": "nonpayable",
					"type": "function"
				},
				{
					"inputs": [],
					"name": "duration",
					"outputs": [
						{
							"internalType": "uint256",
							"name": "",
							"type": "uint256"
						}
					],
					"stateMutability": "view",
					"type": "function"
				},
				{
					"inputs": [
						{
							"internalType": "uint256",
							"name": "tokenId",
							"type": "uint256"
						},
						{
							"internalType": "address",
							"name": "account",
							"type": "address"
						},
						{
							"internalType": "uint256",
							"name": "amount",
							"type": "uint256"
						}
					],
					"name": "emitDeposit",
					"outputs": [],
					"stateMutability": "nonpayable",
					"type": "function"
				},
				{
					"inputs": [
						{
							"internalType": "uint256",
							"name": "tokenId",
							"type": "uint256"
						},
						{
							"internalType": "address",
							"name": "account",
							"type": "address"
						},
						{
							"internalType": "uint256",
							"name": "amount",
							"type": "uint256"
						}
					],
					"name": "emitWithdraw",
					"outputs": [],
					"stateMutability": "nonpayable",
					"type": "function"
				},
				{
					"inputs": [],
					"name": "gaugeFactory",
					"outputs": [
						{
							"internalType": "address",
							"name": "",
							"type": "address"
						}
					],
					"stateMutability": "view",
					"type": "function"
				},
				{
					"inputs": [
						{
							"internalType": "address",
							"name": "",
							"type": "address"
						}
					],
					"name": "gauges",
					"outputs": [
						{
							"internalType": "address",
							"name": "",
							"type": "address"
						}
					],
					"stateMutability": "view",
					"type": "function"
				},
				{
					"inputs": [
						{
							"internalType": "uint256",
							"name": "tokenId",
							"type": "uint256"
						}
					],
					"name": "getPoolVote",
					"outputs": [
						{
							"internalType": "address[]",
							"name": "",
							"type": "address[]"
						}
					],
					"stateMutability": "view",
					"type": "function"
				},
				{
					"inputs": [
						{
							"internalType": "address",
							"name": "",
							"type": "address"
						}
					],
					"name": "isGauge",
					"outputs": [
						{
							"internalType": "bool",
							"name": "",
							"type": "bool"
						}
					],
					"stateMutability": "view",
					"type": "function"
				},
				{
					"inputs": [],
					"name": "massUpdatePools",
					"outputs": [],
					"stateMutability": "nonpayable",
					"type": "function"
				},
				{
					"inputs": [],
					"name": "minTokenReward",
					"outputs": [
						{
							"internalType": "uint256",
							"name": "",
							"type": "uint256"
						}
					],
					"stateMutability": "view",
					"type": "function"
				},
				{
					"inputs": [],
					"name": "mintMulti",
					"outputs": [
						{
							"internalType": "uint256",
							"name": "",
							"type": "uint256"
						}
					],
					"stateMutability": "view",
					"type": "function"
				},
				{
					"inputs": [],
					"name": "operatable",
					"outputs": [
						{
							"internalType": "contract Operatable",
							"name": "",
							"type": "address"
						}
					],
					"stateMutability": "view",
					"type": "function"
				},
				{
					"inputs": [],
					"name": "operator",
					"outputs": [
						{
							"internalType": "address",
							"name": "",
							"type": "address"
						}
					],
					"stateMutability": "view",
					"type": "function"
				},
				{
					"inputs": [],
					"name": "owner",
					"outputs": [
						{
							"internalType": "address",
							"name": "",
							"type": "address"
						}
					],
					"stateMutability": "view",
					"type": "function"
				},
				{
					"inputs": [],
					"name": "period",
					"outputs": [
						{
							"internalType": "uint256",
							"name": "",
							"type": "uint256"
						}
					],
					"stateMutability": "view",
					"type": "function"
				},
				{
					"inputs": [],
					"name": "periodEndBlock",
					"outputs": [
						{
							"internalType": "uint256",
							"name": "",
							"type": "uint256"
						}
					],
					"stateMutability": "view",
					"type": "function"
				},
				{
					"inputs": [
						{
							"internalType": "uint256",
							"name": "_tokenId",
							"type": "uint256"
						}
					],
					"name": "poke",
					"outputs": [],
					"stateMutability": "nonpayable",
					"type": "function"
				},
				{
					"inputs": [
						{
							"internalType": "address",
							"name": "",
							"type": "address"
						}
					],
					"name": "poolForGauge",
					"outputs": [
						{
							"internalType": "address",
							"name": "",
							"type": "address"
						}
					],
					"stateMutability": "view",
					"type": "function"
				},
				{
					"inputs": [
						{
							"internalType": "uint256",
							"name": "",
							"type": "uint256"
						}
					],
					"name": "poolInfo",
					"outputs": [
						{
							"internalType": "address",
							"name": "lpToken",
							"type": "address"
						},
						{
							"internalType": "uint256",
							"name": "allocPoint",
							"type": "uint256"
						},
						{
							"internalType": "uint256",
							"name": "lastRewardBlock",
							"type": "uint256"
						}
					],
					"stateMutability": "view",
					"type": "function"
				},
				{
					"inputs": [],
					"name": "poolLength",
					"outputs": [
						{
							"internalType": "uint256",
							"name": "",
							"type": "uint256"
						}
					],
					"stateMutability": "view",
					"type": "function"
				},
				{
					"inputs": [
						{
							"internalType": "uint256",
							"name": "",
							"type": "uint256"
						},
						{
							"internalType": "uint256",
							"name": "",
							"type": "uint256"
						}
					],
					"name": "poolVote",
					"outputs": [
						{
							"internalType": "address",
							"name": "",
							"type": "address"
						}
					],
					"stateMutability": "view",
					"type": "function"
				},
				{
					"inputs": [
						{
							"internalType": "uint256",
							"name": "",
							"type": "uint256"
						}
					],
					"name": "pools",
					"outputs": [
						{
							"internalType": "address",
							"name": "",
							"type": "address"
						}
					],
					"stateMutability": "view",
					"type": "function"
				},
				{
					"inputs": [
						{
							"internalType": "uint256",
							"name": "_tokenId",
							"type": "uint256"
						}
					],
					"name": "reset",
					"outputs": [],
					"stateMutability": "nonpayable",
					"type": "function"
				},
				{
					"inputs": [
						{
							"internalType": "uint256",
							"name": "_pid",
							"type": "uint256"
						},
						{
							"internalType": "uint256",
							"name": "_allocPoint",
							"type": "uint256"
						},
						{
							"internalType": "bool",
							"name": "_withUpdate",
							"type": "bool"
						}
					],
					"name": "set",
					"outputs": [],
					"stateMutability": "nonpayable",
					"type": "function"
				},
				{
					"inputs": [
						{
							"internalType": "uint256",
							"name": "_block",
							"type": "uint256"
						}
					],
					"name": "setHalvingPeriod",
					"outputs": [],
					"stateMutability": "nonpayable",
					"type": "function"
				},
				{
					"inputs": [
						{
							"internalType": "uint256",
							"name": "_reward",
							"type": "uint256"
						}
					],
					"name": "setMinTokenReward",
					"outputs": [],
					"stateMutability": "nonpayable",
					"type": "function"
				},
				{
					"inputs": [
						{
							"internalType": "uint256",
							"name": "_multi",
							"type": "uint256"
						}
					],
					"name": "setMintMulti",
					"outputs": [],
					"stateMutability": "nonpayable",
					"type": "function"
				},
				{
					"inputs": [
						{
							"internalType": "address",
							"name": "_oper",
							"type": "address"
						}
					],
					"name": "setOperContract",
					"outputs": [],
					"stateMutability": "nonpayable",
					"type": "function"
				},
				{
					"inputs": [
						{
							"internalType": "uint256",
							"name": "_newPerBlock",
							"type": "uint256"
						},
						{
							"internalType": "bool",
							"name": "_withUpdate",
							"type": "bool"
						}
					],
					"name": "setTokenPerBlock",
					"outputs": [],
					"stateMutability": "nonpayable",
					"type": "function"
				},
				{
					"inputs": [],
					"name": "startBlock",
					"outputs": [
						{
							"internalType": "uint256",
							"name": "",
							"type": "uint256"
						}
					],
					"stateMutability": "view",
					"type": "function"
				},
				{
					"inputs": [],
					"name": "swapToken",
					"outputs": [
						{
							"internalType": "contract IToken",
							"name": "",
							"type": "address"
						}
					],
					"stateMutability": "view",
					"type": "function"
				},
				{
					"inputs": [],
					"name": "tokenPerBlock",
					"outputs": [
						{
							"internalType": "uint256",
							"name": "",
							"type": "uint256"
						}
					],
					"stateMutability": "view",
					"type": "function"
				},
				{
					"inputs": [],
					"name": "totalAllocPoint",
					"outputs": [
						{
							"internalType": "uint256",
							"name": "",
							"type": "uint256"
						}
					],
					"stateMutability": "view",
					"type": "function"
				},
				{
					"inputs": [],
					"name": "totalWeight",
					"outputs": [
						{
							"internalType": "uint256",
							"name": "",
							"type": "uint256"
						}
					],
					"stateMutability": "view",
					"type": "function"
				},
				{
					"inputs": [],
					"name": "updateAll",
					"outputs": [],
					"stateMutability": "nonpayable",
					"type": "function"
				},
				{
					"inputs": [
						{
							"internalType": "uint256",
							"name": "_pid",
							"type": "uint256"
						}
					],
					"name": "updatePool",
					"outputs": [],
					"stateMutability": "nonpayable",
					"type": "function"
				},
				{
					"inputs": [
						{
							"internalType": "uint256",
							"name": "",
							"type": "uint256"
						}
					],
					"name": "usedWeights",
					"outputs": [
						{
							"internalType": "uint256",
							"name": "",
							"type": "uint256"
						}
					],
					"stateMutability": "view",
					"type": "function"
				},
				{
					"inputs": [],
					"name": "veToken",
					"outputs": [
						{
							"internalType": "address",
							"name": "",
							"type": "address"
						}
					],
					"stateMutability": "view",
					"type": "function"
				},
				{
					"inputs": [
						{
							"internalType": "uint256",
							"name": "tokenId",
							"type": "uint256"
						},
						{
							"internalType": "address[]",
							"name": "_poolVote",
							"type": "address[]"
						},
						{
							"internalType": "int256[]",
							"name": "_weights",
							"type": "int256[]"
						}
					],
					"name": "vote",
					"outputs": [],
					"stateMutability": "nonpayable",
					"type": "function"
				},
				{
					"inputs": [
						{
							"internalType": "uint256",
							"name": "",
							"type": "uint256"
						},
						{
							"internalType": "address",
							"name": "",
							"type": "address"
						}
					],
					"name": "votes",
					"outputs": [
						{
							"internalType": "int256",
							"name": "",
							"type": "int256"
						}
					],
					"stateMutability": "view",
					"type": "function"
				},
				{
					"inputs": [
						{
							"internalType": "address",
							"name": "",
							"type": "address"
						}
					],
					"name": "weights",
					"outputs": [
						{
							"internalType": "int256",
							"name": "",
							"type": "int256"
						}
					],
					"stateMutability": "view",
					"type": "function"
				}
			],
			"devdoc": {
				"kind": "dev",
				"methods": {},
				"version": 1
			},
			"evm": {
				"assembly": "    /* \"contracts/Boost.sol\":54066:59920  contract Boost is ReentrancyGuard, AbstractBoost {... */\n  mstore(0x40, 0x0100)\n    /* \"contracts/Boost.sol\":46449:46456  1.75e17 */\n  0x026db992a3b18000\n    /* \"contracts/Boost.sol\":46417:46456  uint256 public minTokenReward = 1.75e17 */\n  0x07\n  sstore\n    /* \"contracts/Boost.sol\":54811:54812  0 */\n  0x00\n    /* \"contracts/Boost.sol\":54778:54812  uint256 public totalAllocPoint = 0 */\n  0x0d\n  sstore\n    /* \"contracts/Boost.sol\":55257:55559  constructor(address _operatorMsg, address __ve, address _gauges,... */\n  callvalue\n  dup1\n  iszero\n  tag_1\n  jumpi\n  0x00\n  dup1\n  revert\ntag_1:\n  pop\n  mload(0x40)\n  sub(codesize, bytecodeSize)\n  dup1\n  bytecodeSize\n  dup4\n  codecopy\n  dup2\n  add\n  0x40\n  dup2\n  swap1\n  mstore\n  tag_2\n  swap2\n  tag_3\n  jump\t// in\ntag_2:\n    /* \"contracts/Boost.sol\":3090:3091  1 */\n  0x01\n    /* \"contracts/Boost.sol\":3195:3202  _status */\n  0x00\n    /* \"contracts/Boost.sol\":3195:3217  _status = _NOT_ENTERED */\n  dup2\n  dup2\n  sstore\n    /* \"contracts/Boost.sol\":44833:44863  operatable = Operatable(_oper) */\n  dup2\n  sload\n  not(sub(shl(0xa0, 0x01), 0x01))\n  and\n  sub(shl(0xa0, 0x01), 0x01)\n  dup11\n  and\n  swap1\n  dup2\n  or\n  swap1\n  swap3\n  sstore\n    /* \"contracts/Boost.sol\":44878:44916  SetOperatorContract(address(0), _oper) */\n  mload(0x40)\n    /* \"contracts/Boost.sol\":44833:44863  operatable = Operatable(_oper) */\n  dup10\n  swap3\n    /* \"contracts/Boost.sol\":55462:55466  __ve */\n  dup10\n  swap3\n    /* \"contracts/Boost.sol\":55468:55478  _swapToken */\n  dup9\n  swap3\n    /* \"contracts/Boost.sol\":55480:55494  _tokenPerBlock */\n  dup9\n  swap3\n    /* \"contracts/Boost.sol\":55496:55507  _startBlock */\n  dup9\n  swap3\n    /* \"contracts/Boost.sol\":55509:55516  _period */\n  dup9\n  swap3\n    /* \"contracts/Boost.sol\":44833:44863  operatable = Operatable(_oper) */\n  dup9\n  swap3\n    /* \"contracts/Boost.sol\":55468:55478  _swapToken */\n  dup8\n  swap3\n    /* \"contracts/Boost.sol\":55480:55494  _tokenPerBlock */\n  dup8\n  swap3\n    /* \"contracts/Boost.sol\":55496:55507  _startBlock */\n  dup8\n  swap3\n    /* \"contracts/Boost.sol\":55509:55516  _period */\n  dup8\n  swap3\n    /* \"contracts/Boost.sol\":44833:44863  operatable = Operatable(_oper) */\n  dup8\n  swap3\n    /* \"contracts/Boost.sol\":44878:44916  SetOperatorContract(address(0), _oper) */\n  0x3ccbb406b985dd76fe05e172b432487a2ff9fe4257642d3acc350f167cb1d577\n  swap1\n    /* \"contracts/Boost.sol\":3195:3202  _status */\n  dup3\n  swap1\n    /* \"contracts/Boost.sol\":44878:44916  SetOperatorContract(address(0), _oper) */\n  log3\n  pop\n  sub(shl(0xa0, 0x01), 0x01)\n    /* \"contracts/Boost.sol\":46666:46699  address(_swapToken) != address(0) */\n  dup5\n  and\n    /* \"contracts/Boost.sol\":46658:46718  require(address(_swapToken) != address(0), \"swapToken is 0\") */\n  tag_12\n  jumpi\n  mload(0x40)\n  shl(0xe5, 0x461bcd)\n  dup2\n  mstore\n    /* \"#utility.yul\":1212:1214   */\n  0x20\n    /* \"contracts/Boost.sol\":46658:46718  require(address(_swapToken) != address(0), \"swapToken is 0\") */\n  0x04\n  dup3\n  add\n    /* \"#utility.yul\":1194:1215   */\n  mstore\n    /* \"#utility.yul\":1251:1253   */\n  0x0e\n    /* \"#utility.yul\":1231:1249   */\n  0x24\n  dup3\n  add\n    /* \"#utility.yul\":1224:1254   */\n  mstore\n  shl(0x94, 0x073776170546f6b656e206973203)\n    /* \"#utility.yul\":1270:1288   */\n  0x44\n  dup3\n  add\n    /* \"#utility.yul\":1263:1307   */\n  mstore\n    /* \"#utility.yul\":1324:1342   */\n  0x64\n  add\n    /* \"contracts/Boost.sol\":46658:46718  require(address(_swapToken) != address(0), \"swapToken is 0\") */\n  mload(0x40)\n  dup1\n  swap2\n  sub\n  swap1\n  revert\ntag_12:\n    /* \"contracts/Boost.sol\":46728:46737  swapToken */\n  0x02\n    /* \"contracts/Boost.sol\":46728:46750  swapToken = _swapToken */\n  dup1\n  sload\n  not(sub(shl(0xa0, 0x01), 0x01))\n  and\n  sub(shl(0xa0, 0x01), 0x01)\n  dup7\n  and\n  or\n  swap1\n  sstore\n    /* \"contracts/Boost.sol\":46760:46773  tokenPerBlock */\n  0x03\n    /* \"contracts/Boost.sol\":46760:46790  tokenPerBlock = _tokenPerBlock */\n  dup4\n  swap1\n  sstore\n    /* \"contracts/Boost.sol\":46800:46824  startBlock = _startBlock */\n  0x80\n  dup3\n  swap1\n  mstore\n    /* \"contracts/Boost.sol\":46834:46840  period */\n  0x05\n    /* \"contracts/Boost.sol\":46834:46850  period = _period */\n  dup2\n  swap1\n  sstore\n    /* \"contracts/Boost.sol\":46877:46901  _startBlock.add(_period) */\n  tag_15\n    /* \"contracts/Boost.sol\":46800:46824  startBlock = _startBlock */\n  dup3\n    /* \"contracts/Boost.sol\":46834:46850  period = _period */\n  dup3\n    /* \"contracts/Boost.sol\":46877:46892  _startBlock.add */\n  tag_16\n  0x20\n  swap1\n  dup2\n  shl\n  tag_0_222\n  or\n    /* \"contracts/Boost.sol\":46877:46901  _startBlock.add(_period) */\n  swap1\n  shr\n  jump\t// in\ntag_15:\n    /* \"contracts/Boost.sol\":46860:46874  periodEndBlock */\n  0x04\n    /* \"contracts/Boost.sol\":46860:46901  periodEndBlock = _startBlock.add(_period) */\n  swap1\n  dup2\n  sstore\n    /* \"contracts/Boost.sol\":46923:46927  1000 */\n  0x03e8\n    /* \"contracts/Boost.sol\":46911:46920  mintMulti */\n  0x06\n    /* \"contracts/Boost.sol\":46911:46927  mintMulti = 1000 */\n  sstore\n  sub(shl(0xa0, 0x01), 0x01)\n    /* \"contracts/Boost.sol\":50468:50482  veToken = __ve */\n  dup12\n  and\n  0xa0\n  dup2\n  swap1\n  mstore\n    /* \"contracts/Boost.sol\":50499:50521  IVeToken(__ve).token() */\n  0x40\n  dup1\n  mload\n  shl(0xe1, 0x7e062a35)\n  dup2\n  mstore\n  swap1\n  mload\n    /* \"contracts/Boost.sol\":50468:50482  veToken = __ve */\n  swap2\n  swap8\n  pop\n    /* \"contracts/Boost.sol\":50499:50519  IVeToken(__ve).token */\n  0xfc0c546a\n  swap7\n  pop\n    /* \"contracts/Boost.sol\":50499:50521  IVeToken(__ve).token() */\n  dup1\n  dup4\n  add\n  swap6\n  pop\n  0x20\n  swap5\n  pop\n  swap1\n  swap3\n  pop\n  dup3\n  swap1\n  sub\n  add\n  dup2\n    /* \"contracts/Boost.sol\":50468:50482  veToken = __ve */\n  dup7\n    /* \"contracts/Boost.sol\":50499:50521  IVeToken(__ve).token() */\n  gas\n  staticcall\n  iszero\n  dup1\n  iszero\n  tag_19\n  jumpi\n  returndatasize\n  0x00\n  dup1\n  returndatacopy\n  revert(0x00, returndatasize)\ntag_19:\n  pop\n  pop\n  pop\n  pop\n  mload(0x40)\n  returndatasize\n  not(0x1f)\n  0x1f\n  dup3\n  add\n  and\n  dup3\n  add\n  dup1\n  0x40\n  mstore\n  pop\n  dup2\n  add\n  swap1\n  tag_20\n  swap2\n  swap1\n  tag_21\n  jump\t// in\ntag_20:\n  sub(shl(0xa0, 0x01), 0x01)\n    /* \"contracts/Boost.sol\":50492:50521  base = IVeToken(__ve).token() */\n  swap1\n  dup2\n  and\n  0xc0\n  mstore\n    /* \"contracts/Boost.sol\":55529:55551  gaugeFactory = _gauges */\n  swap11\n  swap1\n  swap11\n  and\n  0xe0\n  mstore\n  pop\n    /* \"contracts/Boost.sol\":54066:59920  contract Boost is ReentrancyGuard, AbstractBoost {... */\n  tag_28\n  swap11\n  pop\n  pop\n  pop\n  pop\n  pop\n  pop\n  pop\n  pop\n  pop\n  pop\n  pop\n  jump\n    /* \"contracts/Boost.sol\":25686:25782  function add(uint256 a, uint256 b) internal pure returns (uint256) {... */\ntag_16:\n    /* \"contracts/Boost.sol\":25744:25751  uint256 */\n  0x00\n    /* \"contracts/Boost.sol\":25770:25775  a + b */\n  tag_25\n    /* \"contracts/Boost.sol\":25774:25775  b */\n  dup3\n    /* \"contracts/Boost.sol\":25770:25771  a */\n  dup5\n    /* \"contracts/Boost.sol\":25770:25775  a + b */\n  tag_26\n  jump\t// in\ntag_25:\n    /* \"contracts/Boost.sol\":25763:25775  return a + b */\n  swap4\n    /* \"contracts/Boost.sol\":25686:25782  function add(uint256 a, uint256 b) internal pure returns (uint256) {... */\n  swap3\n  pop\n  pop\n  pop\n  jump\t// out\n    /* \"#utility.yul\":14:145   */\ntag_27:\n  sub(shl(0xa0, 0x01), 0x01)\n    /* \"#utility.yul\":89:120   */\n  dup2\n  and\n    /* \"#utility.yul\":79:121   */\n  dup2\n  eq\n    /* \"#utility.yul\":69:139   */\n  tag_30\n  jumpi\n    /* \"#utility.yul\":135:136   */\n  0x00\n    /* \"#utility.yul\":132:133   */\n  dup1\n    /* \"#utility.yul\":125:137   */\n  revert\n    /* \"#utility.yul\":69:139   */\ntag_30:\n    /* \"#utility.yul\":14:145   */\n  pop\n  jump\t// out\n    /* \"#utility.yul\":150:1005   */\ntag_3:\n    /* \"#utility.yul\":289:295   */\n  0x00\n    /* \"#utility.yul\":297:303   */\n  dup1\n    /* \"#utility.yul\":305:311   */\n  0x00\n    /* \"#utility.yul\":313:319   */\n  dup1\n    /* \"#utility.yul\":321:327   */\n  0x00\n    /* \"#utility.yul\":329:335   */\n  dup1\n    /* \"#utility.yul\":337:343   */\n  0x00\n    /* \"#utility.yul\":390:393   */\n  0xe0\n    /* \"#utility.yul\":378:387   */\n  dup9\n    /* \"#utility.yul\":369:376   */\n  dup11\n    /* \"#utility.yul\":365:388   */\n  sub\n    /* \"#utility.yul\":361:394   */\n  slt\n    /* \"#utility.yul\":358:411   */\n  iszero\n  tag_32\n  jumpi\n    /* \"#utility.yul\":407:408   */\n  0x00\n    /* \"#utility.yul\":404:405   */\n  dup1\n    /* \"#utility.yul\":397:409   */\n  revert\n    /* \"#utility.yul\":358:411   */\ntag_32:\n    /* \"#utility.yul\":439:448   */\n  dup8\n    /* \"#utility.yul\":433:449   */\n  mload\n    /* \"#utility.yul\":458:489   */\n  tag_33\n    /* \"#utility.yul\":483:488   */\n  dup2\n    /* \"#utility.yul\":458:489   */\n  tag_27\n  jump\t// in\ntag_33:\n    /* \"#utility.yul\":558:560   */\n  0x20\n    /* \"#utility.yul\":543:561   */\n  dup10\n  add\n    /* \"#utility.yul\":537:562   */\n  mload\n    /* \"#utility.yul\":508:513   */\n  swap1\n  swap8\n  pop\n    /* \"#utility.yul\":571:604   */\n  tag_34\n    /* \"#utility.yul\":537:562   */\n  dup2\n    /* \"#utility.yul\":571:604   */\n  tag_27\n  jump\t// in\ntag_34:\n    /* \"#utility.yul\":675:677   */\n  0x40\n    /* \"#utility.yul\":660:678   */\n  dup10\n  add\n    /* \"#utility.yul\":654:679   */\n  mload\n    /* \"#utility.yul\":623:630   */\n  swap1\n  swap7\n  pop\n    /* \"#utility.yul\":688:721   */\n  tag_35\n    /* \"#utility.yul\":654:679   */\n  dup2\n    /* \"#utility.yul\":688:721   */\n  tag_27\n  jump\t// in\ntag_35:\n    /* \"#utility.yul\":792:794   */\n  0x60\n    /* \"#utility.yul\":777:795   */\n  dup10\n  add\n    /* \"#utility.yul\":771:796   */\n  mload\n    /* \"#utility.yul\":740:747   */\n  swap1\n  swap6\n  pop\n    /* \"#utility.yul\":805:838   */\n  tag_36\n    /* \"#utility.yul\":771:796   */\n  dup2\n    /* \"#utility.yul\":805:838   */\n  tag_27\n  jump\t// in\ntag_36:\n    /* \"#utility.yul\":857:864   */\n  dup1\n    /* \"#utility.yul\":847:864   */\n  swap5\n  pop\n  pop\n    /* \"#utility.yul\":904:907   */\n  0x80\n    /* \"#utility.yul\":893:902   */\n  dup9\n    /* \"#utility.yul\":889:908   */\n  add\n    /* \"#utility.yul\":883:909   */\n  mload\n    /* \"#utility.yul\":873:909   */\n  swap3\n  pop\n    /* \"#utility.yul\":949:952   */\n  0xa0\n    /* \"#utility.yul\":938:947   */\n  dup9\n    /* \"#utility.yul\":934:953   */\n  add\n    /* \"#utility.yul\":928:954   */\n  mload\n    /* \"#utility.yul\":918:954   */\n  swap2\n  pop\n    /* \"#utility.yul\":994:997   */\n  0xc0\n    /* \"#utility.yul\":983:992   */\n  dup9\n    /* \"#utility.yul\":979:998   */\n  add\n    /* \"#utility.yul\":973:999   */\n  mload\n    /* \"#utility.yul\":963:999   */\n  swap1\n  pop\n    /* \"#utility.yul\":150:1005   */\n  swap3\n  swap6\n  swap9\n  swap2\n  swap5\n  swap8\n  pop\n  swap3\n  swap6\n  pop\n  jump\t// out\n    /* \"#utility.yul\":1353:1604   */\ntag_21:\n    /* \"#utility.yul\":1423:1429   */\n  0x00\n    /* \"#utility.yul\":1476:1478   */\n  0x20\n    /* \"#utility.yul\":1464:1473   */\n  dup3\n    /* \"#utility.yul\":1455:1462   */\n  dup5\n    /* \"#utility.yul\":1451:1474   */\n  sub\n    /* \"#utility.yul\":1447:1479   */\n  slt\n    /* \"#utility.yul\":1444:1496   */\n  iszero\n  tag_39\n  jumpi\n    /* \"#utility.yul\":1492:1493   */\n  0x00\n    /* \"#utility.yul\":1489:1490   */\n  dup1\n    /* \"#utility.yul\":1482:1494   */\n  revert\n    /* \"#utility.yul\":1444:1496   */\ntag_39:\n    /* \"#utility.yul\":1524:1533   */\n  dup2\n    /* \"#utility.yul\":1518:1534   */\n  mload\n    /* \"#utility.yul\":1543:1574   */\n  tag_25\n    /* \"#utility.yul\":1568:1573   */\n  dup2\n    /* \"#utility.yul\":1543:1574   */\n  tag_27\n  jump\t// in\n    /* \"#utility.yul\":1609:1834   */\ntag_26:\n    /* \"#utility.yul\":1649:1652   */\n  0x00\n    /* \"#utility.yul\":1680:1681   */\n  dup3\n    /* \"#utility.yul\":1676:1682   */\n  not\n    /* \"#utility.yul\":1673:1674   */\n  dup3\n    /* \"#utility.yul\":1670:1683   */\n  gt\n    /* \"#utility.yul\":1667:1803   */\n  iszero\n  tag_42\n  jumpi\n    /* \"#utility.yul\":1725:1735   */\n  0x4e487b71\n    /* \"#utility.yul\":1720:1723   */\n  0xe0\n    /* \"#utility.yul\":1716:1736   */\n  shl\n    /* \"#utility.yul\":1713:1714   */\n  0x00\n    /* \"#utility.yul\":1706:1737   */\n  mstore\n    /* \"#utility.yul\":1760:1764   */\n  0x11\n    /* \"#utility.yul\":1757:1758   */\n  0x04\n    /* \"#utility.yul\":1750:1765   */\n  mstore\n    /* \"#utility.yul\":1788:1792   */\n  0x24\n    /* \"#utility.yul\":1785:1786   */\n  0x00\n    /* \"#utility.yul\":1778:1793   */\n  revert\n    /* \"#utility.yul\":1667:1803   */\ntag_42:\n  pop\n    /* \"#utility.yul\":1819:1828   */\n  add\n  swap1\n    /* \"#utility.yul\":1609:1834   */\n  jump\t// out\ntag_28:\n    /* \"contracts/Boost.sol\":54066:59920  contract Boost is ReentrancyGuard, AbstractBoost {... */\n  mload(0x80)\n  mload(0xa0)\n  mload(0xc0)\n  mload(0xe0)\n  codecopy(0x00, dataOffset(sub_0), dataSize(sub_0))\n  0x00\n  assignImmutable(\"0xd9739df46dfdd521a391746f00fdacc0c205dbe0bf8fd2fb0318555a37670272\")\n  0x00\n  assignImmutable(\"0xe286daea00804cb622cafc785bc7a2be58437b5a6c7dc9a1d58591e6a2221fb2\")\n  0x00\n  assignImmutable(\"0xeb87824f736d67edaf3560d951b0b69190da7967ad8d2ed342933b58834b3812\")\n  0x00\n  assignImmutable(\"0xb82071edfff134ff1052b654ae69c3c67bf3f8b35ce6706309fa7f2bcffe5e17\")\n  return(0x00, dataSize(sub_0))\nstop\n\nsub_0: assembly {\n        /* \"contracts/Boost.sol\":54066:59920  contract Boost is ReentrancyGuard, AbstractBoost {... */\n      mstore(0x40, 0x80)\n      callvalue\n      dup1\n      iszero\n      tag_1\n      jumpi\n      0x00\n      dup1\n      revert\n    tag_1:\n      pop\n      jumpi(tag_2, lt(calldatasize, 0x04))\n      shr(0xe0, calldataload(0x00))\n      dup1\n      0x630b5ba1\n      gt\n      tag_49\n      jumpi\n      dup1\n      0xa86a366d\n      gt\n      tag_50\n      jumpi\n      dup1\n      0xb9a09fd5\n      gt\n      tag_51\n      jumpi\n      dup1\n      0xb9a09fd5\n      eq\n      tag_43\n      jumpi\n      dup1\n      0xd23254b4\n      eq\n      tag_44\n      jumpi\n      dup1\n      0xdc73e49c\n      eq\n      tag_45\n      jumpi\n      dup1\n      0xea94ee44\n      eq\n      tag_46\n      jumpi\n      dup1\n      0xef78d4fd\n      eq\n      tag_47\n      jumpi\n      dup1\n      0xfecdad60\n      eq\n      tag_48\n      jumpi\n      0x00\n      dup1\n      revert\n    tag_51:\n      dup1\n      0xa86a366d\n      eq\n      tag_37\n      jumpi\n      dup1\n      0xaa70fb98\n      eq\n      tag_38\n      jumpi\n      dup1\n      0xaa79979b\n      eq\n      tag_39\n      jumpi\n      dup1\n      0xac4afa38\n      eq\n      tag_40\n      jumpi\n      dup1\n      0xb0c7044b\n      eq\n      tag_41\n      jumpi\n      dup1\n      0xb5ec5c99\n      eq\n      tag_42\n      jumpi\n      0x00\n      dup1\n      revert\n    tag_50:\n      dup1\n      0x79e93824\n      gt\n      tag_52\n      jumpi\n      dup1\n      0x79e93824\n      eq\n      tag_31\n      jumpi\n      dup1\n      0x812632ec\n      eq\n      tag_32\n      jumpi\n      dup1\n      0x8da5cb5b\n      eq\n      tag_33\n      jumpi\n      dup1\n      0x96c82e57\n      eq\n      tag_34\n      jumpi\n      dup1\n      0xa61c713a\n      eq\n      tag_35\n      jumpi\n      dup1\n      0xa7cac846\n      eq\n      tag_36\n      jumpi\n      0x00\n      dup1\n      revert\n    tag_52:\n      dup1\n      0x630b5ba1\n      eq\n      tag_26\n      jumpi\n      dup1\n      0x63453ae1\n      eq\n      tag_27\n      jumpi\n      dup1\n      0x64482f79\n      eq\n      tag_28\n      jumpi\n      dup1\n      0x698473e3\n      eq\n      tag_29\n      jumpi\n      dup1\n      0x71dd4bda\n      eq\n      tag_30\n      jumpi\n      0x00\n      dup1\n      revert\n    tag_49:\n      dup1\n      0x32145f90\n      gt\n      tag_53\n      jumpi\n      dup1\n      0x48cd4cb1\n      gt\n      tag_54\n      jumpi\n      dup1\n      0x48cd4cb1\n      eq\n      tag_20\n      jumpi\n      dup1\n      0x48ee26a3\n      eq\n      tag_21\n      jumpi\n      dup1\n      0x4ade739b\n      eq\n      tag_22\n      jumpi\n      dup1\n      0x51eb05a6\n      eq\n      tag_23\n      jumpi\n      dup1\n      0x53d78693\n      eq\n      tag_24\n      jumpi\n      dup1\n      0x570ca735\n      eq\n      tag_25\n      jumpi\n      0x00\n      dup1\n      revert\n    tag_54:\n      dup1\n      0x32145f90\n      eq\n      tag_14\n      jumpi\n      dup1\n      0x37550684\n      eq\n      tag_15\n      jumpi\n      dup1\n      0x3b92eb23\n      eq\n      tag_16\n      jumpi\n      dup1\n      0x411b1f77\n      eq\n      tag_17\n      jumpi\n      dup1\n      0x4198709a\n      eq\n      tag_18\n      jumpi\n      dup1\n      0x442da82f\n      eq\n      tag_19\n      jumpi\n      0x00\n      dup1\n      revert\n    tag_53:\n      dup1\n      0x0fb5a6b4\n      gt\n      tag_55\n      jumpi\n      dup1\n      0x0fb5a6b4\n      eq\n      tag_8\n      jumpi\n      dup1\n      0x146650df\n      eq\n      tag_9\n      jumpi\n      dup1\n      0x1526fe27\n      eq\n      tag_10\n      jumpi\n      dup1\n      0x17caf6f1\n      eq\n      tag_11\n      jumpi\n      dup1\n      0x20b1cb6f\n      eq\n      tag_12\n      jumpi\n      dup1\n      0x310bd74b\n      eq\n      tag_13\n      jumpi\n      0x00\n      dup1\n      revert\n    tag_55:\n      dup1\n      0x06d6a1b2\n      eq\n      tag_3\n      jumpi\n      dup1\n      0x081e3eda\n      eq\n      tag_4\n      jumpi\n      dup1\n      0x0c9c7ef5\n      eq\n      tag_5\n      jumpi\n      dup1\n      0x0d52333c\n      eq\n      tag_6\n      jumpi\n      dup1\n      0x0f589d63\n      eq\n      tag_7\n      jumpi\n    tag_2:\n      0x00\n      dup1\n      revert\n        /* \"contracts/Boost.sol\":55141:55188  mapping(address => address) public poolForGauge */\n    tag_3:\n      tag_56\n      tag_57\n      calldatasize\n      0x04\n      tag_58\n      jump\t// in\n    tag_57:\n      mstore(0x20, 0x12)\n      0x00\n      swap1\n      dup2\n      mstore\n      0x40\n      swap1\n      keccak256\n      sload\n      sub(shl(0xa0, 0x01), 0x01)\n      and\n      dup2\n      jump\n    tag_56:\n      mload(0x40)\n      sub(shl(0xa0, 0x01), 0x01)\n        /* \"#utility.yul\":566:598   */\n      swap1\n      swap2\n      and\n        /* \"#utility.yul\":548:599   */\n      dup2\n      mstore\n        /* \"#utility.yul\":536:538   */\n      0x20\n        /* \"#utility.yul\":521:539   */\n      add\n        /* \"contracts/Boost.sol\":55141:55188  mapping(address => address) public poolForGauge */\n    tag_60:\n      mload(0x40)\n      dup1\n      swap2\n      sub\n      swap1\n      return\n        /* \"contracts/Boost.sol\":55565:55656  function poolLength() public view returns (uint256) {... */\n    tag_4:\n        /* \"contracts/Boost.sol\":55634:55642  poolInfo */\n      0x0e\n        /* \"contracts/Boost.sol\":55634:55649  poolInfo.length */\n      sload\n        /* \"contracts/Boost.sol\":55565:55656  function poolLength() public view returns (uint256) {... */\n    tag_62:\n      mload(0x40)\n        /* \"#utility.yul\":756:781   */\n      swap1\n      dup2\n      mstore\n        /* \"#utility.yul\":744:746   */\n      0x20\n        /* \"#utility.yul\":729:747   */\n      add\n        /* \"contracts/Boost.sol\":55565:55656  function poolLength() public view returns (uint256) {... */\n      tag_60\n        /* \"#utility.yul\":610:787   */\n      jump\n        /* \"contracts/Boost.sol\":55662:56688  function createGauge(address _pool, uint256 _allocPoint, bool _withUpdate) external returns (address) {... */\n    tag_5:\n      tag_56\n      tag_67\n      calldatasize\n      0x04\n      tag_68\n      jump\t// in\n    tag_67:\n      tag_69\n      jump\t// in\n        /* \"contracts/Boost.sol\":54735:54772  address public immutable gaugeFactory */\n    tag_6:\n      tag_56\n      immutable(\"0xd9739df46dfdd521a391746f00fdacc0c205dbe0bf8fd2fb0318555a37670272\")\n      dup2\n      jump\n        /* \"contracts/Boost.sol\":45393:45646  function setOperContract(address _oper) public onlyOwner {... */\n    tag_7:\n      tag_74\n      tag_75\n      calldatasize\n      0x04\n      tag_58\n      jump\t// in\n    tag_75:\n      tag_76\n      jump\t// in\n    tag_74:\n      stop\n        /* \"contracts/Boost.sol\":54933:54971  uint public constant duration = 7 days */\n    tag_8:\n      tag_62\n        /* \"contracts/Boost.sol\":54965:54971  7 days */\n      0x093a80\n        /* \"contracts/Boost.sol\":54933:54971  uint public constant duration = 7 days */\n      dup2\n      jump\n        /* \"contracts/Boost.sol\":50535:50652  function getPoolVote(uint256 tokenId) public view returns (address[] memory){... */\n    tag_9:\n      tag_80\n      tag_81\n      calldatasize\n      0x04\n      tag_82\n      jump\t// in\n    tag_81:\n      tag_83\n      jump\t// in\n    tag_80:\n      mload(0x40)\n      tag_60\n      swap2\n      swap1\n      tag_85\n      jump\t// in\n        /* \"contracts/Boost.sol\":54818:54844  PoolInfo[] public poolInfo */\n    tag_10:\n      tag_86\n      tag_87\n      calldatasize\n      0x04\n      tag_82\n      jump\t// in\n    tag_87:\n      tag_88\n      jump\t// in\n    tag_86:\n      0x40\n      dup1\n      mload\n      sub(shl(0xa0, 0x01), 0x01)\n        /* \"#utility.yul\":2507:2539   */\n      swap1\n      swap5\n      and\n        /* \"#utility.yul\":2489:2540   */\n      dup5\n      mstore\n        /* \"#utility.yul\":2571:2573   */\n      0x20\n        /* \"#utility.yul\":2556:2574   */\n      dup5\n      add\n        /* \"#utility.yul\":2549:2583   */\n      swap3\n      swap1\n      swap3\n      mstore\n        /* \"#utility.yul\":2599:2617   */\n      swap1\n      dup3\n      add\n        /* \"#utility.yul\":2592:2626   */\n      mstore\n        /* \"#utility.yul\":2477:2479   */\n      0x60\n        /* \"#utility.yul\":2462:2480   */\n      add\n        /* \"contracts/Boost.sol\":54818:54844  PoolInfo[] public poolInfo */\n      tag_60\n        /* \"#utility.yul\":2287:2632   */\n      jump\n        /* \"contracts/Boost.sol\":54778:54812  uint256 public totalAllocPoint = 0 */\n    tag_11:\n      tag_62\n      sload(0x0d)\n      dup2\n      jump\n        /* \"contracts/Boost.sol\":59368:59588  function claimRewards(address[] memory _gauges, address[][] memory _tokens) external {... */\n    tag_12:\n      tag_74\n      tag_95\n      calldatasize\n      0x04\n      tag_96\n      jump\t// in\n    tag_95:\n      tag_97\n      jump\t// in\n        /* \"contracts/Boost.sol\":50658:50851  function reset(uint _tokenId) external {... */\n    tag_13:\n      tag_74\n      tag_99\n      calldatasize\n      0x04\n      tag_82\n      jump\t// in\n    tag_99:\n      tag_100\n      jump\t// in\n        /* \"contracts/Boost.sol\":53204:53569  function poke(uint _tokenId) external {... */\n    tag_14:\n      tag_74\n      tag_102\n      calldatasize\n      0x04\n      tag_82\n      jump\t// in\n    tag_102:\n      tag_103\n      jump\t// in\n        /* \"contracts/Boost.sol\":46386:46410  uint256 public mintMulti */\n    tag_15:\n      tag_62\n      sload(0x06)\n      dup2\n      jump\n        /* \"contracts/Boost.sol\":49799:49831  address public immutable veToken */\n    tag_16:\n      tag_56\n      immutable(\"0xeb87824f736d67edaf3560d951b0b69190da7967ad8d2ed342933b58834b3812\")\n      dup2\n      jump\n        /* \"contracts/Boost.sol\":58602:58828  function detachTokenFromGauge(uint tokenId, address account) external {... */\n    tag_17:\n      tag_74\n      tag_111\n      calldatasize\n      0x04\n      tag_112\n      jump\t// in\n    tag_111:\n      tag_113\n      jump\t// in\n        /* \"contracts/Boost.sol\":46196:46224  uint256 public tokenPerBlock */\n    tag_18:\n      tag_62\n      sload(0x03)\n      dup2\n      jump\n        /* \"contracts/Boost.sol\":46271:46300  uint256 public periodEndBlock */\n    tag_19:\n      tag_62\n      sload(0x04)\n      dup2\n      jump\n        /* \"contracts/Boost.sol\":46230:46265  uint256 public immutable startBlock */\n    tag_20:\n      tag_62\n      immutable(\"0xb82071edfff134ff1052b654ae69c3c67bf3f8b35ce6706309fa7f2bcffe5e17\")\n      dup2\n      jump\n        /* \"contracts/Boost.sol\":44672:44700  Operatable public operatable */\n    tag_21:\n      sload(0x01)\n      tag_56\n      swap1\n      sub(shl(0xa0, 0x01), 0x01)\n      and\n      dup2\n      jump\n        /* \"contracts/Boost.sol\":47736:47935  function setTokenPerBlock(uint256 _newPerBlock, bool _withUpdate) public onlyOperator {... */\n    tag_22:\n      tag_74\n      tag_128\n      calldatasize\n      0x04\n      tag_129\n      jump\t// in\n    tag_128:\n      tag_130\n      jump\t// in\n        /* \"contracts/Boost.sol\":57256:58182  function updatePool(uint256 _pid) public reduceBlockReward {... */\n    tag_23:\n      tag_74\n      tag_132\n      calldatasize\n      0x04\n      tag_82\n      jump\t// in\n    tag_132:\n      tag_133\n      jump\t// in\n        /* \"contracts/Boost.sol\":59021:59217  function updateAll() external {... */\n    tag_24:\n      tag_74\n      tag_135\n      jump\t// in\n        /* \"contracts/Boost.sol\":45179:45283  function operator() public view override returns (address) {... */\n    tag_25:\n      tag_56\n      tag_137\n      jump\t// in\n        /* \"contracts/Boost.sol\":56999:57183  function massUpdatePools() public override {... */\n    tag_26:\n      tag_74\n      tag_140\n      jump\t// in\n        /* \"contracts/Boost.sol\":59594:59678  function distribute(address _gauge) public {... */\n    tag_27:\n      tag_74\n      tag_142\n      calldatasize\n      0x04\n      tag_58\n      jump\t// in\n    tag_142:\n      tag_143\n      jump\t// in\n        /* \"contracts/Boost.sol\":56694:56993  function set(uint256 _pid, uint256 _allocPoint, bool _withUpdate) public onlyOwner {... */\n    tag_28:\n      tag_74\n      tag_145\n      calldatasize\n      0x04\n      tag_146\n      jump\t// in\n    tag_145:\n      tag_147\n      jump\t// in\n        /* \"contracts/Boost.sol\":58189:58411  function attachTokenToGauge(uint tokenId, address account) external {... */\n    tag_29:\n      tag_74\n      tag_149\n      calldatasize\n      0x04\n      tag_112\n      jump\t// in\n    tag_149:\n      tag_150\n      jump\t// in\n        /* \"contracts/Boost.sol\":47473:47566  function setMintMulti(uint256 _multi) public onlyOperator {... */\n    tag_30:\n      tag_74\n      tag_152\n      calldatasize\n      0x04\n      tag_82\n      jump\t// in\n    tag_152:\n      tag_153\n      jump\t// in\n        /* \"contracts/Boost.sol\":50135:50175  mapping(uint => uint) public usedWeights */\n    tag_31:\n      tag_62\n      tag_155\n      calldatasize\n      0x04\n      tag_82\n      jump\t// in\n    tag_155:\n      mstore(0x20, 0x0c)\n      0x00\n      swap1\n      dup2\n      mstore\n      0x40\n      swap1\n      keccak256\n      sload\n      dup2\n      jump\n        /* \"contracts/Boost.sol\":46417:46456  uint256 public minTokenReward = 1.75e17 */\n    tag_32:\n      tag_62\n      sload(0x07)\n      dup2\n      jump\n        /* \"contracts/Boost.sol\":45289:45387  function owner() public view override returns (address) {... */\n    tag_33:\n      tag_56\n      tag_162\n      jump\t// in\n        /* \"contracts/Boost.sol\":49746:49769  uint public totalWeight */\n    tag_34:\n      tag_62\n      sload(0x08)\n      dup2\n      jump\n        /* \"contracts/Boost.sol\":58417:58596  function emitDeposit(uint tokenId, address account, uint amount) external {... */\n    tag_35:\n      tag_74\n      tag_168\n      calldatasize\n      0x04\n      tag_169\n      jump\t// in\n    tag_168:\n      tag_170\n      jump\t// in\n        /* \"contracts/Boost.sol\":49920:49961  mapping(address => int256) public weights */\n    tag_36:\n      tag_62\n      tag_172\n      calldatasize\n      0x04\n      tag_58\n      jump\t// in\n    tag_172:\n      mstore(0x20, 0x09)\n      0x00\n      swap1\n      dup2\n      mstore\n      0x40\n      swap1\n      keccak256\n      sload\n      dup2\n      jump\n        /* \"contracts/Boost.sol\":50071:50113  mapping(uint => address[]) public poolVote */\n    tag_37:\n      tag_56\n      tag_177\n      calldatasize\n      0x04\n      tag_178\n      jump\t// in\n    tag_177:\n      tag_179\n      jump\t// in\n        /* \"contracts/Boost.sol\":47572:47677  function setMinTokenReward(uint256 _reward) public onlyOperator {... */\n    tag_38:\n      tag_74\n      tag_182\n      calldatasize\n      0x04\n      tag_82\n      jump\t// in\n    tag_182:\n      tag_183\n      jump\t// in\n        /* \"contracts/Boost.sol\":55211:55250  mapping(address => bool) public isGauge */\n    tag_39:\n      tag_184\n      tag_185\n      calldatasize\n      0x04\n      tag_58\n      jump\t// in\n    tag_185:\n      mstore(0x20, 0x13)\n      0x00\n      swap1\n      dup2\n      mstore\n      0x40\n      swap1\n      keccak256\n      sload\n      0xff\n      and\n      dup2\n      jump\n    tag_184:\n      mload(0x40)\n        /* \"#utility.yul\":7598:7612   */\n      swap1\n      iszero\n        /* \"#utility.yul\":7591:7613   */\n      iszero\n        /* \"#utility.yul\":7573:7614   */\n      dup2\n      mstore\n        /* \"#utility.yul\":7561:7563   */\n      0x20\n        /* \"#utility.yul\":7546:7564   */\n      add\n        /* \"contracts/Boost.sol\":55211:55250  mapping(address => bool) public isGauge */\n      tag_60\n        /* \"#utility.yul\":7433:7620   */\n      jump\n        /* \"contracts/Boost.sol\":55014:55036  address[] public pools */\n    tag_40:\n      tag_56\n      tag_190\n      calldatasize\n      0x04\n      tag_82\n      jump\t// in\n    tag_190:\n      tag_191\n      jump\t// in\n        /* \"contracts/Boost.sol\":54883:54925  mapping(address => uint256) public LpOfPid */\n    tag_41:\n      tag_62\n      tag_194\n      calldatasize\n      0x04\n      tag_58\n      jump\t// in\n    tag_194:\n      mstore(0x20, 0x0f)\n      0x00\n      swap1\n      dup2\n      mstore\n      0x40\n      swap1\n      keccak256\n      sload\n      dup2\n      jump\n        /* \"contracts/Boost.sol\":47373:47467  function setHalvingPeriod(uint256 _block) public onlyOperator {... */\n    tag_42:\n      tag_74\n      tag_198\n      calldatasize\n      0x04\n      tag_82\n      jump\t// in\n    tag_198:\n      tag_199\n      jump\t// in\n        /* \"contracts/Boost.sol\":55077:55118  mapping(address => address) public gauges */\n    tag_43:\n      tag_56\n      tag_201\n      calldatasize\n      0x04\n      tag_58\n      jump\t// in\n    tag_201:\n      mstore(0x20, 0x11)\n      0x00\n      swap1\n      dup2\n      mstore\n      0x40\n      swap1\n      keccak256\n      sload\n      sub(shl(0xa0, 0x01), 0x01)\n      and\n      dup2\n      jump\n        /* \"contracts/Boost.sol\":49985:50041  mapping(uint => mapping(address => int256)) public votes */\n    tag_44:\n      tag_62\n      tag_205\n      calldatasize\n      0x04\n      tag_112\n      jump\t// in\n    tag_205:\n      0x0a\n      0x20\n      swap1\n      dup2\n      mstore\n      0x00\n      swap3\n      dup4\n      mstore\n      0x40\n      dup1\n      dup5\n      keccak256\n      swap1\n      swap2\n      mstore\n      swap1\n      dup3\n      mstore\n      swap1\n      keccak256\n      sload\n      dup2\n      jump\n        /* \"contracts/Boost.sol\":46166:46189  IToken public swapToken */\n    tag_45:\n      sload(0x02)\n      tag_56\n      swap1\n      sub(shl(0xa0, 0x01), 0x01)\n      and\n      dup2\n      jump\n        /* \"contracts/Boost.sol\":58834:59015  function emitWithdraw(uint tokenId, address account, uint amount) external {... */\n    tag_46:\n      tag_74\n      tag_213\n      calldatasize\n      0x04\n      tag_169\n      jump\t// in\n    tag_213:\n      tag_214\n      jump\t// in\n        /* \"contracts/Boost.sol\":46358:46379  uint256 public period */\n    tag_47:\n      tag_62\n      sload(0x05)\n      dup2\n      jump\n        /* \"contracts/Boost.sol\":53576:53852  function vote(uint tokenId, address[] calldata _poolVote, int256[] calldata _weights) external {... */\n    tag_48:\n      tag_74\n      tag_219\n      calldatasize\n      0x04\n      tag_220\n      jump\t// in\n    tag_219:\n      tag_221\n      jump\t// in\n        /* \"contracts/Boost.sol\":55662:56688  function createGauge(address _pool, uint256 _allocPoint, bool _withUpdate) external returns (address) {... */\n    tag_69:\n      sub(shl(0xa0, 0x01), 0x01)\n        /* \"contracts/Boost.sol\":55782:55795  gauges[_pool] */\n      dup4\n      dup2\n      and\n        /* \"contracts/Boost.sol\":55755:55762  address */\n      0x00\n        /* \"contracts/Boost.sol\":55782:55795  gauges[_pool] */\n      swap1\n      dup2\n      mstore\n        /* \"contracts/Boost.sol\":55782:55788  gauges */\n      0x11\n        /* \"contracts/Boost.sol\":55782:55795  gauges[_pool] */\n      0x20\n      mstore\n      0x40\n      dup2\n      keccak256\n      sload\n        /* \"contracts/Boost.sol\":55755:55762  address */\n      swap1\n      swap2\n        /* \"contracts/Boost.sol\":55782:55795  gauges[_pool] */\n      and\n        /* \"contracts/Boost.sol\":55782:55811  gauges[_pool] == address(0x0) */\n      iszero\n        /* \"contracts/Boost.sol\":55774:55822  require(gauges[_pool] == address(0x0), \"exists\") */\n      tag_225\n      jumpi\n      mload(0x40)\n      shl(0xe5, 0x461bcd)\n      dup2\n      mstore\n        /* \"#utility.yul\":9267:9269   */\n      0x20\n        /* \"contracts/Boost.sol\":55774:55822  require(gauges[_pool] == address(0x0), \"exists\") */\n      0x04\n      dup3\n      add\n        /* \"#utility.yul\":9249:9270   */\n      mstore\n        /* \"#utility.yul\":9306:9307   */\n      0x06\n        /* \"#utility.yul\":9286:9304   */\n      0x24\n      dup3\n      add\n        /* \"#utility.yul\":9279:9308   */\n      mstore\n      shl(0xd0, 0x657869737473)\n        /* \"#utility.yul\":9324:9342   */\n      0x44\n      dup3\n      add\n        /* \"#utility.yul\":9317:9353   */\n      mstore\n        /* \"#utility.yul\":9370:9388   */\n      0x64\n      add\n        /* \"contracts/Boost.sol\":55774:55822  require(gauges[_pool] == address(0x0), \"exists\") */\n    tag_226:\n      mload(0x40)\n      dup1\n      swap2\n      sub\n      swap1\n      revert\n    tag_225:\n      sub(shl(0xa0, 0x01), 0x01)\n        /* \"contracts/Boost.sol\":55841:55869  address(_pool) != address(0) */\n      dup5\n      and\n        /* \"contracts/Boost.sol\":55833:55902  require(address(_pool) != address(0), \"_lpToken is the zero address\") */\n      tag_228\n      jumpi\n      mload(0x40)\n      shl(0xe5, 0x461bcd)\n      dup2\n      mstore\n        /* \"#utility.yul\":9601:9603   */\n      0x20\n        /* \"contracts/Boost.sol\":55833:55902  require(address(_pool) != address(0), \"_lpToken is the zero address\") */\n      0x04\n      dup3\n      add\n        /* \"#utility.yul\":9583:9604   */\n      mstore\n        /* \"#utility.yul\":9640:9642   */\n      0x1c\n        /* \"#utility.yul\":9620:9638   */\n      0x24\n      dup3\n      add\n        /* \"#utility.yul\":9613:9643   */\n      mstore\n        /* \"#utility.yul\":9679:9709   */\n      0x5f6c70546f6b656e20697320746865207a65726f206164647265737300000000\n        /* \"#utility.yul\":9659:9677   */\n      0x44\n      dup3\n      add\n        /* \"#utility.yul\":9652:9710   */\n      mstore\n        /* \"#utility.yul\":9727:9745   */\n      0x64\n      add\n        /* \"contracts/Boost.sol\":55833:55902  require(address(_pool) != address(0), \"_lpToken is the zero address\") */\n      tag_226\n        /* \"#utility.yul\":9399:9751   */\n      jump\n        /* \"contracts/Boost.sol\":55833:55902  require(address(_pool) != address(0), \"_lpToken is the zero address\") */\n    tag_228:\n        /* \"contracts/Boost.sol\":55916:55927  _withUpdate */\n      dup2\n        /* \"contracts/Boost.sol\":55912:55971  if (_withUpdate) {... */\n      iszero\n      tag_232\n      jumpi\n        /* \"contracts/Boost.sol\":55943:55960  massUpdatePools() */\n      tag_232\n        /* \"contracts/Boost.sol\":55943:55958  massUpdatePools */\n      tag_140\n        /* \"contracts/Boost.sol\":55943:55960  massUpdatePools() */\n      jump\t// in\n    tag_232:\n        /* \"contracts/Boost.sol\":55980:56003  uint256 lastRewardBlock */\n      0x00\n        /* \"contracts/Boost.sol\":56021:56031  startBlock */\n      immutable(\"0xb82071edfff134ff1052b654ae69c3c67bf3f8b35ce6706309fa7f2bcffe5e17\")\n        /* \"contracts/Boost.sol\":56006:56018  block.number */\n      number\n        /* \"contracts/Boost.sol\":56006:56031  block.number > startBlock */\n      gt\n        /* \"contracts/Boost.sol\":56006:56059  block.number > startBlock ? block.number : startBlock */\n      tag_233\n      jumpi\n        /* \"contracts/Boost.sol\":56049:56059  startBlock */\n      immutable(\"0xb82071edfff134ff1052b654ae69c3c67bf3f8b35ce6706309fa7f2bcffe5e17\")\n        /* \"contracts/Boost.sol\":56006:56059  block.number > startBlock ? block.number : startBlock */\n      jump(tag_234)\n    tag_233:\n        /* \"contracts/Boost.sol\":56034:56046  block.number */\n      number\n        /* \"contracts/Boost.sol\":56006:56059  block.number > startBlock ? block.number : startBlock */\n    tag_234:\n        /* \"contracts/Boost.sol\":56087:56102  totalAllocPoint */\n      sload(0x0d)\n        /* \"contracts/Boost.sol\":55980:56059  uint256 lastRewardBlock = block.number > startBlock ? block.number : startBlock */\n      swap1\n      swap2\n      pop\n        /* \"contracts/Boost.sol\":56087:56119  totalAllocPoint.add(_allocPoint) */\n      tag_235\n      swap1\n        /* \"contracts/Boost.sol\":56107:56118  _allocPoint */\n      dup6\n        /* \"contracts/Boost.sol\":56087:56106  totalAllocPoint.add */\n      tag_222\n        /* \"contracts/Boost.sol\":56087:56119  totalAllocPoint.add(_allocPoint) */\n      jump\t// in\n    tag_235:\n        /* \"contracts/Boost.sol\":56069:56084  totalAllocPoint */\n      0x0d\n        /* \"contracts/Boost.sol\":56069:56119  totalAllocPoint = totalAllocPoint.add(_allocPoint) */\n      sstore\n        /* \"contracts/Boost.sol\":56143:56265  PoolInfo({... */\n      0x40\n      dup1\n      mload\n      0x60\n      dup2\n      add\n      dup3\n      mstore\n      sub(shl(0xa0, 0x01), 0x01)\n      dup8\n      dup2\n      and\n      dup3\n      mstore\n      0x20\n      dup3\n      add\n      dup8\n      dup2\n      mstore\n      swap3\n      dup3\n      add\n      dup5\n      dup2\n      mstore\n        /* \"contracts/Boost.sol\":56129:56137  poolInfo */\n      0x0e\n        /* \"contracts/Boost.sol\":56129:56266  poolInfo.push(PoolInfo({... */\n      dup1\n      sload\n      0x01\n      dup1\n      dup3\n      add\n      dup4\n      sstore\n      0x00\n      dup4\n      swap1\n      mstore\n      swap5\n      mload\n      0xbb7b4a454dc3493923482f07822329ed19e8244eff582cc204f8554c3620c3fd\n      0x03\n      swap1\n      swap3\n      mul\n      swap2\n      dup3\n      add\n      dup1\n      sload\n      not(sub(shl(0xa0, 0x01), 0x01))\n      and\n      swap2\n      swap1\n      swap6\n      and\n      or\n      swap1\n      swap4\n      sstore\n      swap4\n      mload\n      0xbb7b4a454dc3493923482f07822329ed19e8244eff582cc204f8554c3620c3fe\n      dup4\n      add\n      sstore\n      mload\n      0xbb7b4a454dc3493923482f07822329ed19e8244eff582cc204f8554c3620c3ff\n      swap1\n      swap2\n      add\n      sstore\n        /* \"contracts/Boost.sol\":55634:55649  poolInfo.length */\n      swap1\n      sload\n        /* \"contracts/Boost.sol\":56302:56318  poolLength() - 1 */\n      tag_238\n      swap2\n      swap1\n      tag_239\n      jump\t// in\n    tag_238:\n      sub(shl(0xa0, 0x01), 0x01)\n        /* \"contracts/Boost.sol\":56276:56299  LpOfPid[address(_pool)] */\n      dup7\n      dup2\n      and\n      0x00\n      dup2\n      dup2\n      mstore\n        /* \"contracts/Boost.sol\":56276:56283  LpOfPid */\n      0x0f\n        /* \"contracts/Boost.sol\":56276:56299  LpOfPid[address(_pool)] */\n      0x20\n      mstore\n      0x40\n      dup1\n      dup3\n      keccak256\n        /* \"contracts/Boost.sol\":56276:56318  LpOfPid[address(_pool)] = poolLength() - 1 */\n      swap5\n      swap1\n      swap5\n      sstore\n        /* \"contracts/Boost.sol\":56346:56401  IGaugeFactory(gaugeFactory).createGauge(_pool, veToken) */\n      swap3\n      mload\n      shl(0xe2, 0x1e533a8f)\n      dup2\n      mstore\n      0x04\n      dup2\n      add\n        /* \"#utility.yul\":10230:10264   */\n      swap2\n      swap1\n      swap2\n      mstore\n        /* \"contracts/Boost.sol\":56393:56400  veToken */\n      immutable(\"0xeb87824f736d67edaf3560d951b0b69190da7967ad8d2ed342933b58834b3812\")\n        /* \"#utility.yul\":10300:10315   */\n      dup3\n      and\n        /* \"#utility.yul\":10280:10298   */\n      0x24\n      dup3\n      add\n        /* \"#utility.yul\":10273:10316   */\n      mstore\n        /* \"contracts/Boost.sol\":56360:56372  gaugeFactory */\n      immutable(\"0xd9739df46dfdd521a391746f00fdacc0c205dbe0bf8fd2fb0318555a37670272\")\n        /* \"contracts/Boost.sol\":56346:56385  IGaugeFactory(gaugeFactory).createGauge */\n      swap1\n      swap2\n      and\n      swap1\n      0x794cea3c\n      swap1\n        /* \"#utility.yul\":10165:10183   */\n      0x44\n      add\n        /* \"contracts/Boost.sol\":56346:56401  IGaugeFactory(gaugeFactory).createGauge(_pool, veToken) */\n      0x20\n      mload(0x40)\n      dup1\n      dup4\n      sub\n      dup2\n      0x00\n      dup8\n      gas\n      call\n      iszero\n      dup1\n      iszero\n      tag_243\n      jumpi\n      returndatasize\n      0x00\n      dup1\n      returndatacopy\n      revert(0x00, returndatasize)\n    tag_243:\n      pop\n      pop\n      pop\n      pop\n      mload(0x40)\n      returndatasize\n      not(0x1f)\n      0x1f\n      dup3\n      add\n      and\n      dup3\n      add\n      dup1\n      0x40\n      mstore\n      pop\n      dup2\n      add\n      swap1\n      tag_244\n      swap2\n      swap1\n      tag_245\n      jump\t// in\n    tag_244:\n        /* \"contracts/Boost.sol\":56426:56435  swapToken */\n      sload(0x02)\n        /* \"contracts/Boost.sol\":56411:56469  IERC20(address(swapToken)).approve(_gauge, type(uint).max) */\n      mload(0x40)\n      shl(0xe0, 0x095ea7b3)\n      dup2\n      mstore\n      sub(shl(0xa0, 0x01), 0x01)\n        /* \"#utility.yul\":10775:10807   */\n      dup1\n      dup5\n      and\n        /* \"contracts/Boost.sol\":56411:56469  IERC20(address(swapToken)).approve(_gauge, type(uint).max) */\n      0x04\n      dup4\n      add\n        /* \"#utility.yul\":10757:10808   */\n      mstore\n      not(0x00)\n        /* \"#utility.yul\":10824:10842   */\n      0x24\n      dup4\n      add\n        /* \"#utility.yul\":10817:10851   */\n      mstore\n        /* \"contracts/Boost.sol\":56329:56401  address _gauge = IGaugeFactory(gaugeFactory).createGauge(_pool, veToken) */\n      swap3\n      swap4\n      pop\n        /* \"contracts/Boost.sol\":56426:56435  swapToken */\n      swap2\n      and\n      swap1\n        /* \"contracts/Boost.sol\":56411:56445  IERC20(address(swapToken)).approve */\n      0x095ea7b3\n      swap1\n        /* \"#utility.yul\":10730:10748   */\n      0x44\n      add\n        /* \"contracts/Boost.sol\":56411:56469  IERC20(address(swapToken)).approve(_gauge, type(uint).max) */\n      0x20\n      mload(0x40)\n      dup1\n      dup4\n      sub\n      dup2\n      0x00\n      dup8\n      gas\n      call\n      iszero\n      dup1\n      iszero\n      tag_249\n      jumpi\n      returndatasize\n      0x00\n      dup1\n      returndatacopy\n      revert(0x00, returndatasize)\n    tag_249:\n      pop\n      pop\n      pop\n      pop\n      mload(0x40)\n      returndatasize\n      not(0x1f)\n      0x1f\n      dup3\n      add\n      and\n      dup3\n      add\n      dup1\n      0x40\n      mstore\n      pop\n      dup2\n      add\n      swap1\n      tag_250\n      swap2\n      swap1\n      tag_251\n      jump\t// in\n    tag_250:\n      pop\n      sub(shl(0xa0, 0x01), 0x01)\n        /* \"contracts/Boost.sol\":56479:56492  gauges[_pool] */\n      dup1\n      dup8\n      and\n      0x00\n      dup2\n      dup2\n      mstore\n        /* \"contracts/Boost.sol\":56479:56485  gauges */\n      0x11\n        /* \"contracts/Boost.sol\":56479:56492  gauges[_pool] */\n      0x20\n      swap1\n      dup2\n      mstore\n      0x40\n      dup1\n      dup4\n      keccak256\n        /* \"contracts/Boost.sol\":56479:56501  gauges[_pool] = _gauge */\n      dup1\n      sload\n      swap6\n      dup8\n      and\n      not(sub(shl(0xa0, 0x01), 0x01))\n      swap7\n      dup8\n      and\n      dup2\n      or\n      swap1\n      swap2\n      sstore\n        /* \"contracts/Boost.sol\":56511:56531  poolForGauge[_gauge] */\n      dup4\n      mstore\n        /* \"contracts/Boost.sol\":56511:56523  poolForGauge */\n      0x12\n        /* \"contracts/Boost.sol\":56511:56531  poolForGauge[_gauge] */\n      dup3\n      mstore\n      dup1\n      dup4\n      keccak256\n        /* \"contracts/Boost.sol\":56511:56539  poolForGauge[_gauge] = _pool */\n      dup1\n      sload\n      swap1\n      swap6\n      and\n      swap1\n      swap4\n      or\n      swap1\n      swap4\n      sstore\n        /* \"contracts/Boost.sol\":56549:56556  isGauge */\n      0x13\n        /* \"contracts/Boost.sol\":56549:56564  isGauge[_gauge] */\n      swap1\n      swap3\n      mstore\n      swap1\n      keccak256\n        /* \"contracts/Boost.sol\":56549:56571  isGauge[_gauge] = true */\n      dup1\n      sload\n      not(0xff)\n      and\n        /* \"contracts/Boost.sol\":56479:56501  gauges[_pool] = _gauge */\n      0x01\n        /* \"contracts/Boost.sol\":56549:56571  isGauge[_gauge] = true */\n      or\n      swap1\n      sstore\n        /* \"contracts/Boost.sol\":56581:56604  _updateForGauge(_gauge) */\n      tag_252\n        /* \"contracts/Boost.sol\":56495:56501  _gauge */\n      dup2\n        /* \"contracts/Boost.sol\":56581:56596  _updateForGauge */\n      tag_253\n        /* \"contracts/Boost.sol\":56581:56604  _updateForGauge(_gauge) */\n      jump\t// in\n    tag_252:\n        /* \"contracts/Boost.sol\":56619:56658  GaugeCreated(_gauge, msg.sender, _pool) */\n      mload(0x40)\n        /* \"contracts/Boost.sol\":56640:56650  msg.sender */\n      caller\n        /* \"#utility.yul\":548:599   */\n      dup2\n      mstore\n      sub(shl(0xa0, 0x01), 0x01)\n        /* \"contracts/Boost.sol\":56619:56658  GaugeCreated(_gauge, msg.sender, _pool) */\n      dup1\n      dup9\n      and\n      swap2\n      swap1\n      dup4\n      and\n      swap1\n      0x9b8203efe7fe42185a7755b0510f87c8b693971d6a7c22520aaf683e6b124261\n      swap1\n        /* \"#utility.yul\":536:538   */\n      0x20\n        /* \"#utility.yul\":521:539   */\n      add\n        /* \"contracts/Boost.sol\":56619:56658  GaugeCreated(_gauge, msg.sender, _pool) */\n      mload(0x40)\n      dup1\n      swap2\n      sub\n      swap1\n      log3\n        /* \"contracts/Boost.sol\":56675:56681  _gauge */\n      swap6\n        /* \"contracts/Boost.sol\":55662:56688  function createGauge(address _pool, uint256 _allocPoint, bool _withUpdate) external returns (address) {... */\n      swap5\n      pop\n      pop\n      pop\n      pop\n      pop\n      jump\t// out\n        /* \"contracts/Boost.sol\":45393:45646  function setOperContract(address _oper) public onlyOwner {... */\n    tag_76:\n        /* \"contracts/Boost.sol\":45086:45096  operatable */\n      sload(0x01)\n        /* \"contracts/Boost.sol\":45086:45104  operatable.owner() */\n      0x40\n      dup1\n      mload\n      shl(0xe0, 0x8da5cb5b)\n      dup2\n      mstore\n      swap1\n      mload\n        /* \"contracts/Boost.sol\":45108:45118  msg.sender */\n      caller\n      swap3\n      sub(shl(0xa0, 0x01), 0x01)\n        /* \"contracts/Boost.sol\":45086:45096  operatable */\n      and\n      swap2\n        /* \"contracts/Boost.sol\":45086:45102  operatable.owner */\n      0x8da5cb5b\n      swap2\n        /* \"contracts/Boost.sol\":45086:45104  operatable.owner() */\n      0x04\n      dup1\n      dup4\n      add\n      swap3\n      0x20\n      swap3\n      swap2\n      swap1\n      dup3\n      swap1\n      sub\n      add\n      dup2\n        /* \"contracts/Boost.sol\":45086:45096  operatable */\n      dup7\n        /* \"contracts/Boost.sol\":45086:45104  operatable.owner() */\n      gas\n      staticcall\n      iszero\n      dup1\n      iszero\n      tag_257\n      jumpi\n      returndatasize\n      0x00\n      dup1\n      returndatacopy\n      revert(0x00, returndatasize)\n    tag_257:\n      pop\n      pop\n      pop\n      pop\n      mload(0x40)\n      returndatasize\n      not(0x1f)\n      0x1f\n      dup3\n      add\n      and\n      dup3\n      add\n      dup1\n      0x40\n      mstore\n      pop\n      dup2\n      add\n      swap1\n      tag_258\n      swap2\n      swap1\n      tag_245\n      jump\t// in\n    tag_258:\n      sub(shl(0xa0, 0x01), 0x01)\n        /* \"contracts/Boost.sol\":45086:45118  operatable.owner() == msg.sender */\n      and\n      eq\n        /* \"contracts/Boost.sol\":45078:45155  require(operatable.owner() == msg.sender, 'Ownable: caller is not the owner') */\n      tag_259\n      jumpi\n      mload(0x40)\n      shl(0xe5, 0x461bcd)\n      dup2\n      mstore\n        /* \"#utility.yul\":11314:11316   */\n      0x20\n        /* \"contracts/Boost.sol\":45078:45155  require(operatable.owner() == msg.sender, 'Ownable: caller is not the owner') */\n      0x04\n      dup3\n      add\n        /* \"#utility.yul\":11296:11317   */\n      dup2\n      swap1\n      mstore\n        /* \"#utility.yul\":11333:11351   */\n      0x24\n      dup3\n      add\n        /* \"#utility.yul\":11326:11356   */\n      mstore\n        /* \"#utility.yul\":11392:11426   */\n      0x4f776e61626c653a2063616c6c6572206973206e6f7420746865206f776e6572\n        /* \"#utility.yul\":11372:11390   */\n      0x44\n      dup3\n      add\n        /* \"#utility.yul\":11365:11427   */\n      mstore\n        /* \"#utility.yul\":11444:11462   */\n      0x64\n      add\n        /* \"contracts/Boost.sol\":45078:45155  require(operatable.owner() == msg.sender, 'Ownable: caller is not the owner') */\n      tag_226\n        /* \"#utility.yul\":11112:11468   */\n      jump\n        /* \"contracts/Boost.sol\":45078:45155  require(operatable.owner() == msg.sender, 'Ownable: caller is not the owner') */\n    tag_259:\n      sub(shl(0xa0, 0x01), 0x01)\n        /* \"contracts/Boost.sol\":45468:45487  _oper != address(0) */\n      dup2\n      and\n        /* \"contracts/Boost.sol\":45460:45508  require(_oper != address(0), 'bad new operator') */\n      tag_263\n      jumpi\n      mload(0x40)\n      shl(0xe5, 0x461bcd)\n      dup2\n      mstore\n        /* \"#utility.yul\":11675:11677   */\n      0x20\n        /* \"contracts/Boost.sol\":45460:45508  require(_oper != address(0), 'bad new operator') */\n      0x04\n      dup3\n      add\n        /* \"#utility.yul\":11657:11678   */\n      mstore\n        /* \"#utility.yul\":11714:11716   */\n      0x10\n        /* \"#utility.yul\":11694:11712   */\n      0x24\n      dup3\n      add\n        /* \"#utility.yul\":11687:11717   */\n      mstore\n      shl(0x81, 0x3130b2103732bb9037b832b930ba37b9)\n        /* \"#utility.yul\":11733:11751   */\n      0x44\n      dup3\n      add\n        /* \"#utility.yul\":11726:11772   */\n      mstore\n        /* \"#utility.yul\":11789:11807   */\n      0x64\n      add\n        /* \"contracts/Boost.sol\":45460:45508  require(_oper != address(0), 'bad new operator') */\n      tag_226\n        /* \"#utility.yul\":11473:11813   */\n      jump\n        /* \"contracts/Boost.sol\":45460:45508  require(_oper != address(0), 'bad new operator') */\n    tag_263:\n        /* \"contracts/Boost.sol\":45555:45565  operatable */\n      0x01\n        /* \"contracts/Boost.sol\":45555:45585  operatable = Operatable(_oper) */\n      dup1\n      sload\n      not(sub(shl(0xa0, 0x01), 0x01))\n      and\n      sub(shl(0xa0, 0x01), 0x01)\n      dup4\n      and\n      swap1\n      dup2\n      or\n      swap1\n      swap2\n      sstore\n        /* \"contracts/Boost.sol\":45600:45639  SetOperatorContract(oldOperator, _oper) */\n      mload(0x40)\n        /* \"contracts/Boost.sol\":45555:45585  operatable = Operatable(_oper) */\n      dup3\n      swap2\n      swap1\n      dup2\n      swap1\n        /* \"contracts/Boost.sol\":45600:45639  SetOperatorContract(oldOperator, _oper) */\n      0x3ccbb406b985dd76fe05e172b432487a2ff9fe4257642d3acc350f167cb1d577\n      swap1\n      0x00\n      swap1\n      log3\n        /* \"contracts/Boost.sol\":45450:45646  {... */\n      pop\n        /* \"contracts/Boost.sol\":45393:45646  function setOperContract(address _oper) public onlyOwner {... */\n      pop\n      jump\t// out\n        /* \"contracts/Boost.sol\":50535:50652  function getPoolVote(uint256 tokenId) public view returns (address[] memory){... */\n    tag_83:\n        /* \"contracts/Boost.sol\":50628:50645  poolVote[tokenId] */\n      0x00\n      dup2\n      dup2\n      mstore\n        /* \"contracts/Boost.sol\":50628:50636  poolVote */\n      0x0b\n        /* \"contracts/Boost.sol\":50628:50645  poolVote[tokenId] */\n      0x20\n      swap1\n      dup2\n      mstore\n      0x40\n      swap2\n      dup3\n      swap1\n      keccak256\n        /* \"contracts/Boost.sol\":50621:50645  return poolVote[tokenId] */\n      dup1\n      sload\n      dup4\n      mload\n      dup2\n      dup5\n      mul\n      dup2\n      add\n      dup5\n      add\n      swap1\n      swap5\n      mstore\n      dup1\n      dup5\n      mstore\n        /* \"contracts/Boost.sol\":50594:50610  address[] memory */\n      0x60\n      swap4\n        /* \"contracts/Boost.sol\":50621:50645  return poolVote[tokenId] */\n      swap3\n      dup4\n      add\n        /* \"contracts/Boost.sol\":50628:50645  poolVote[tokenId] */\n      dup3\n        /* \"contracts/Boost.sol\":50621:50645  return poolVote[tokenId] */\n      dup3\n      dup1\n      iszero\n      tag_267\n      jumpi\n      0x20\n      mul\n      dup3\n      add\n      swap2\n      swap1\n      0x00\n      mstore\n      keccak256(0x00, 0x20)\n      swap1\n    tag_268:\n      dup2\n      sload\n      sub(shl(0xa0, 0x01), 0x01)\n      and\n      dup2\n      mstore\n      0x01\n      swap1\n      swap2\n      add\n      swap1\n      0x20\n      add\n      dup1\n      dup4\n      gt\n      tag_268\n      jumpi\n    tag_267:\n      pop\n      pop\n      pop\n      pop\n      pop\n      swap1\n      pop\n        /* \"contracts/Boost.sol\":50535:50652  function getPoolVote(uint256 tokenId) public view returns (address[] memory){... */\n      swap2\n      swap1\n      pop\n      jump\t// out\n        /* \"contracts/Boost.sol\":54818:54844  PoolInfo[] public poolInfo */\n    tag_88:\n      0x0e\n      dup2\n      dup2\n      sload\n      dup2\n      lt\n      tag_269\n      jumpi\n      0x00\n      dup1\n      revert\n    tag_269:\n      0x00\n      swap2\n      dup3\n      mstore\n      0x20\n      swap1\n      swap2\n      keccak256\n      0x03\n      swap1\n      swap2\n      mul\n      add\n      dup1\n      sload\n      0x01\n      dup3\n      add\n      sload\n      0x02\n      swap1\n      swap3\n      add\n      sload\n      sub(shl(0xa0, 0x01), 0x01)\n      swap1\n      swap2\n      and\n      swap3\n      pop\n      dup4\n      jump\t// out\n        /* \"contracts/Boost.sol\":59368:59588  function claimRewards(address[] memory _gauges, address[][] memory _tokens) external {... */\n    tag_97:\n        /* \"contracts/Boost.sol\":59468:59474  uint i */\n      0x00\n        /* \"contracts/Boost.sol\":59463:59582  for (uint i = 0; i < _gauges.length; i++) {... */\n    tag_272:\n        /* \"contracts/Boost.sol\":59484:59491  _gauges */\n      dup3\n        /* \"contracts/Boost.sol\":59484:59498  _gauges.length */\n      mload\n        /* \"contracts/Boost.sol\":59480:59481  i */\n      dup2\n        /* \"contracts/Boost.sol\":59480:59498  i < _gauges.length */\n      lt\n        /* \"contracts/Boost.sol\":59463:59582  for (uint i = 0; i < _gauges.length; i++) {... */\n      iszero\n      tag_273\n      jumpi\n        /* \"contracts/Boost.sol\":59526:59533  _gauges */\n      dup3\n        /* \"contracts/Boost.sol\":59534:59535  i */\n      dup2\n        /* \"contracts/Boost.sol\":59526:59536  _gauges[i] */\n      dup2\n      mload\n      dup2\n      lt\n      tag_276\n      jumpi\n      tag_276\n      tag_277\n      jump\t// in\n    tag_276:\n      0x20\n      mul\n      0x20\n      add\n      add\n      mload\n      sub(shl(0xa0, 0x01), 0x01)\n        /* \"contracts/Boost.sol\":59519:59547  IGauge(_gauges[i]).getReward */\n      and\n      0x31279d3d\n        /* \"contracts/Boost.sol\":59548:59558  msg.sender */\n      caller\n        /* \"contracts/Boost.sol\":59560:59567  _tokens */\n      dup5\n        /* \"contracts/Boost.sol\":59568:59569  i */\n      dup5\n        /* \"contracts/Boost.sol\":59560:59570  _tokens[i] */\n      dup2\n      mload\n      dup2\n      lt\n      tag_279\n      jumpi\n      tag_279\n      tag_277\n      jump\t// in\n    tag_279:\n      0x20\n      mul\n      0x20\n      add\n      add\n      mload\n        /* \"contracts/Boost.sol\":59519:59571  IGauge(_gauges[i]).getReward(msg.sender, _tokens[i]) */\n      mload(0x40)\n      dup4\n      0xffffffff\n      and\n      0xe0\n      shl\n      dup2\n      mstore\n      0x04\n      add\n      tag_280\n      swap3\n      swap2\n      swap1\n      tag_281\n      jump\t// in\n    tag_280:\n      0x00\n      mload(0x40)\n      dup1\n      dup4\n      sub\n      dup2\n      0x00\n      dup8\n      dup1\n      extcodesize\n      iszero\n      dup1\n      iszero\n      tag_282\n      jumpi\n      0x00\n      dup1\n      revert\n    tag_282:\n      pop\n      gas\n      call\n      iszero\n      dup1\n      iszero\n      tag_284\n      jumpi\n      returndatasize\n      0x00\n      dup1\n      returndatacopy\n      revert(0x00, returndatasize)\n    tag_284:\n      pop\n      pop\n      pop\n      pop\n        /* \"contracts/Boost.sol\":59500:59503  i++ */\n      dup1\n      dup1\n      tag_285\n      swap1\n      tag_286\n      jump\t// in\n    tag_285:\n      swap2\n      pop\n      pop\n        /* \"contracts/Boost.sol\":59463:59582  for (uint i = 0; i < _gauges.length; i++) {... */\n      jump(tag_272)\n    tag_273:\n      pop\n        /* \"contracts/Boost.sol\":59368:59588  function claimRewards(address[] memory _gauges, address[][] memory _tokens) external {... */\n      pop\n      pop\n      jump\t// out\n        /* \"contracts/Boost.sol\":50658:50851  function reset(uint _tokenId) external {... */\n    tag_100:\n        /* \"contracts/Boost.sol\":50715:50772  IVeToken(veToken).isApprovedOrOwner(msg.sender, _tokenId) */\n      mload(0x40)\n      shl(0xe0, 0x430c2081)\n      dup2\n      mstore\n        /* \"contracts/Boost.sol\":50751:50761  msg.sender */\n      caller\n        /* \"contracts/Boost.sol\":50715:50772  IVeToken(veToken).isApprovedOrOwner(msg.sender, _tokenId) */\n      0x04\n      dup3\n      add\n        /* \"#utility.yul\":10757:10808   */\n      mstore\n        /* \"#utility.yul\":10824:10842   */\n      0x24\n      dup2\n      add\n        /* \"#utility.yul\":10817:10851   */\n      dup3\n      swap1\n      mstore\n        /* \"contracts/Boost.sol\":50724:50731  veToken */\n      immutable(\"0xeb87824f736d67edaf3560d951b0b69190da7967ad8d2ed342933b58834b3812\")\n      sub(shl(0xa0, 0x01), 0x01)\n        /* \"contracts/Boost.sol\":50715:50750  IVeToken(veToken).isApprovedOrOwner */\n      and\n      swap1\n      0x430c2081\n      swap1\n        /* \"#utility.yul\":10730:10748   */\n      0x44\n      add\n        /* \"contracts/Boost.sol\":50715:50772  IVeToken(veToken).isApprovedOrOwner(msg.sender, _tokenId) */\n      0x20\n      mload(0x40)\n      dup1\n      dup4\n      sub\n      dup2\n      dup7\n      gas\n      staticcall\n      iszero\n      dup1\n      iszero\n      tag_290\n      jumpi\n      returndatasize\n      0x00\n      dup1\n      returndatacopy\n      revert(0x00, returndatasize)\n    tag_290:\n      pop\n      pop\n      pop\n      pop\n      mload(0x40)\n      returndatasize\n      not(0x1f)\n      0x1f\n      dup3\n      add\n      and\n      dup3\n      add\n      dup1\n      0x40\n      mstore\n      pop\n      dup2\n      add\n      swap1\n      tag_291\n      swap2\n      swap1\n      tag_251\n      jump\t// in\n    tag_291:\n        /* \"contracts/Boost.sol\":50707:50773  require(IVeToken(veToken).isApprovedOrOwner(msg.sender, _tokenId)) */\n      tag_292\n      jumpi\n      0x00\n      dup1\n      revert\n    tag_292:\n        /* \"contracts/Boost.sol\":50783:50799  _reset(_tokenId) */\n      tag_293\n        /* \"contracts/Boost.sol\":50790:50798  _tokenId */\n      dup2\n        /* \"contracts/Boost.sol\":50783:50789  _reset */\n      tag_294\n        /* \"contracts/Boost.sol\":50783:50799  _reset(_tokenId) */\n      jump\t// in\n    tag_293:\n        /* \"contracts/Boost.sol\":50809:50844  IVeToken(veToken).abstain(_tokenId) */\n      mload(0x40)\n      shl(0xe0, 0xc1f0fb9f)\n      dup2\n      mstore\n      0x04\n      dup2\n      add\n        /* \"#utility.yul\":756:781   */\n      dup3\n      swap1\n      mstore\n        /* \"contracts/Boost.sol\":50818:50825  veToken */\n      immutable(\"0xeb87824f736d67edaf3560d951b0b69190da7967ad8d2ed342933b58834b3812\")\n      sub(shl(0xa0, 0x01), 0x01)\n        /* \"contracts/Boost.sol\":50809:50834  IVeToken(veToken).abstain */\n      and\n      swap1\n      0xc1f0fb9f\n      swap1\n        /* \"#utility.yul\":729:747   */\n      0x24\n      add\n        /* \"contracts/Boost.sol\":50809:50844  IVeToken(veToken).abstain(_tokenId) */\n      0x00\n      mload(0x40)\n      dup1\n      dup4\n      sub\n      dup2\n      0x00\n      dup8\n      dup1\n      extcodesize\n      iszero\n      dup1\n      iszero\n      tag_296\n      jumpi\n      0x00\n      dup1\n      revert\n    tag_296:\n      pop\n      gas\n      call\n      iszero\n      dup1\n      iszero\n      tag_298\n      jumpi\n      returndatasize\n      0x00\n      dup1\n      returndatacopy\n      revert(0x00, returndatasize)\n    tag_298:\n      pop\n      pop\n      pop\n      pop\n        /* \"contracts/Boost.sol\":50658:50851  function reset(uint _tokenId) external {... */\n      pop\n      jump\t// out\n        /* \"contracts/Boost.sol\":53204:53569  function poke(uint _tokenId) external {... */\n    tag_103:\n        /* \"contracts/Boost.sol\":53252:53278  address[] memory _poolVote */\n      0x00\n        /* \"contracts/Boost.sol\":53281:53299  poolVote[_tokenId] */\n      dup2\n      dup2\n      mstore\n        /* \"contracts/Boost.sol\":53281:53289  poolVote */\n      0x0b\n        /* \"contracts/Boost.sol\":53281:53299  poolVote[_tokenId] */\n      0x20\n      swap1\n      dup2\n      mstore\n      0x40\n      dup1\n      dup4\n      keccak256\n        /* \"contracts/Boost.sol\":53252:53299  address[] memory _poolVote = poolVote[_tokenId] */\n      dup1\n      sload\n      dup3\n      mload\n      dup2\n      dup6\n      mul\n      dup2\n      add\n      dup6\n      add\n      swap1\n      swap4\n      mstore\n      dup1\n      dup4\n      mstore\n      swap2\n      swap3\n        /* \"contracts/Boost.sol\":53281:53299  poolVote[_tokenId] */\n      swap1\n      swap2\n        /* \"contracts/Boost.sol\":53252:53299  address[] memory _poolVote = poolVote[_tokenId] */\n      swap1\n      dup4\n      add\n        /* \"contracts/Boost.sol\":53281:53299  poolVote[_tokenId] */\n      dup3\n        /* \"contracts/Boost.sol\":53252:53299  address[] memory _poolVote = poolVote[_tokenId] */\n      dup3\n      dup1\n      iszero\n      tag_300\n      jumpi\n      0x20\n      mul\n      dup3\n      add\n      swap2\n      swap1\n      0x00\n      mstore\n      keccak256(0x00, 0x20)\n      swap1\n    tag_301:\n      dup2\n      sload\n      sub(shl(0xa0, 0x01), 0x01)\n      and\n      dup2\n      mstore\n      0x01\n      swap1\n      swap2\n      add\n      swap1\n      0x20\n      add\n      dup1\n      dup4\n      gt\n      tag_301\n      jumpi\n    tag_300:\n      pop\n      pop\n      pop\n      pop\n      pop\n      swap1\n      pop\n        /* \"contracts/Boost.sol\":53309:53322  uint _poolCnt */\n      0x00\n        /* \"contracts/Boost.sol\":53325:53334  _poolVote */\n      dup2\n        /* \"contracts/Boost.sol\":53325:53341  _poolVote.length */\n      mload\n        /* \"contracts/Boost.sol\":53309:53341  uint _poolCnt = _poolVote.length */\n      swap1\n      pop\n        /* \"contracts/Boost.sol\":53351:53375  int256[] memory _weights */\n      0x00\n        /* \"contracts/Boost.sol\":53391:53399  _poolCnt */\n      dup2\n        /* \"contracts/Boost.sol\":53378:53400  new int256[](_poolCnt) */\n      0xffffffffffffffff\n      dup2\n      gt\n      iszero\n      tag_303\n      jumpi\n      tag_303\n      tag_304\n      jump\t// in\n    tag_303:\n      mload(0x40)\n      swap1\n      dup1\n      dup3\n      mstore\n      dup1\n      0x20\n      mul\n      0x20\n      add\n      dup3\n      add\n      0x40\n      mstore\n      dup1\n      iszero\n      tag_305\n      jumpi\n      dup2\n      0x20\n      add\n      0x20\n      dup3\n      mul\n      dup1\n      calldatasize\n      dup4\n      calldatacopy\n      add\n      swap1\n      pop\n    tag_305:\n      pop\n        /* \"contracts/Boost.sol\":53351:53400  int256[] memory _weights = new int256[](_poolCnt) */\n      swap1\n      pop\n        /* \"contracts/Boost.sol\":53416:53422  uint i */\n      0x00\n        /* \"contracts/Boost.sol\":53411:53516  for (uint i = 0; i < _poolCnt; i ++) {... */\n    tag_306:\n        /* \"contracts/Boost.sol\":53432:53440  _poolCnt */\n      dup3\n        /* \"contracts/Boost.sol\":53428:53429  i */\n      dup2\n        /* \"contracts/Boost.sol\":53428:53440  i < _poolCnt */\n      lt\n        /* \"contracts/Boost.sol\":53411:53516  for (uint i = 0; i < _poolCnt; i ++) {... */\n      iszero\n      tag_307\n      jumpi\n        /* \"contracts/Boost.sol\":53476:53481  votes */\n      0x0a\n        /* \"contracts/Boost.sol\":53476:53491  votes[_tokenId] */\n      0x00\n        /* \"contracts/Boost.sol\":53482:53490  _tokenId */\n      dup7\n        /* \"contracts/Boost.sol\":53476:53491  votes[_tokenId] */\n      dup2\n      mstore\n      0x20\n      add\n      swap1\n      dup2\n      mstore\n      0x20\n      add\n      0x00\n      keccak256\n        /* \"contracts/Boost.sol\":53476:53505  votes[_tokenId][_poolVote[i]] */\n      0x00\n        /* \"contracts/Boost.sol\":53492:53501  _poolVote */\n      dup6\n        /* \"contracts/Boost.sol\":53502:53503  i */\n      dup4\n        /* \"contracts/Boost.sol\":53492:53504  _poolVote[i] */\n      dup2\n      mload\n      dup2\n      lt\n      tag_310\n      jumpi\n      tag_310\n      tag_277\n      jump\t// in\n    tag_310:\n      0x20\n      mul\n      0x20\n      add\n      add\n      mload\n      sub(shl(0xa0, 0x01), 0x01)\n        /* \"contracts/Boost.sol\":53476:53505  votes[_tokenId][_poolVote[i]] */\n      and\n      sub(shl(0xa0, 0x01), 0x01)\n      and\n      dup2\n      mstore\n      0x20\n      add\n      swap1\n      dup2\n      mstore\n      0x20\n      add\n      0x00\n      keccak256\n      sload\n        /* \"contracts/Boost.sol\":53462:53470  _weights */\n      dup3\n        /* \"contracts/Boost.sol\":53471:53472  i */\n      dup3\n        /* \"contracts/Boost.sol\":53462:53473  _weights[i] */\n      dup2\n      mload\n      dup2\n      lt\n      tag_312\n      jumpi\n      tag_312\n      tag_277\n      jump\t// in\n    tag_312:\n      0x20\n      swap1\n      dup2\n      mul\n      swap2\n      swap1\n      swap2\n      add\n      add\n        /* \"contracts/Boost.sol\":53462:53505  _weights[i] = votes[_tokenId][_poolVote[i]] */\n      mstore\n        /* \"contracts/Boost.sol\":53442:53446  i ++ */\n      dup1\n      tag_313\n      dup2\n      tag_286\n      jump\t// in\n    tag_313:\n      swap2\n      pop\n      pop\n        /* \"contracts/Boost.sol\":53411:53516  for (uint i = 0; i < _poolCnt; i ++) {... */\n      jump(tag_306)\n    tag_307:\n      pop\n        /* \"contracts/Boost.sol\":53526:53562  _vote(_tokenId, _poolVote, _weights) */\n      tag_314\n        /* \"contracts/Boost.sol\":53532:53540  _tokenId */\n      dup5\n        /* \"contracts/Boost.sol\":53542:53551  _poolVote */\n      dup5\n        /* \"contracts/Boost.sol\":53553:53561  _weights */\n      dup4\n        /* \"contracts/Boost.sol\":53526:53531  _vote */\n      tag_315\n        /* \"contracts/Boost.sol\":53526:53562  _vote(_tokenId, _poolVote, _weights) */\n      jump\t// in\n    tag_314:\n        /* \"contracts/Boost.sol\":53242:53569  {... */\n      pop\n      pop\n      pop\n        /* \"contracts/Boost.sol\":53204:53569  function poke(uint _tokenId) external {... */\n      pop\n      jump\t// out\n        /* \"contracts/Boost.sol\":58602:58828  function detachTokenFromGauge(uint tokenId, address account) external {... */\n    tag_113:\n        /* \"contracts/Boost.sol\":58698:58708  msg.sender */\n      caller\n        /* \"contracts/Boost.sol\":58690:58709  isGauge[msg.sender] */\n      0x00\n      swap1\n      dup2\n      mstore\n        /* \"contracts/Boost.sol\":58690:58697  isGauge */\n      0x13\n        /* \"contracts/Boost.sol\":58690:58709  isGauge[msg.sender] */\n      0x20\n      mstore\n      0x40\n      swap1\n      keccak256\n      sload\n      0xff\n      and\n        /* \"contracts/Boost.sol\":58682:58710  require(isGauge[msg.sender]) */\n      tag_317\n      jumpi\n      0x00\n      dup1\n      revert\n    tag_317:\n        /* \"contracts/Boost.sol\":58724:58735  tokenId > 0 */\n      dup2\n      iszero\n        /* \"contracts/Boost.sol\":58720:58770  if (tokenId > 0) IVeToken(veToken).detach(tokenId) */\n      tag_318\n      jumpi\n        /* \"contracts/Boost.sol\":58737:58770  IVeToken(veToken).detach(tokenId) */\n      mload(0x40)\n      shl(0xe1, 0x4c35bec5)\n      dup2\n      mstore\n      0x04\n      dup2\n      add\n        /* \"#utility.yul\":756:781   */\n      dup4\n      swap1\n      mstore\n        /* \"contracts/Boost.sol\":58746:58753  veToken */\n      immutable(\"0xeb87824f736d67edaf3560d951b0b69190da7967ad8d2ed342933b58834b3812\")\n      sub(shl(0xa0, 0x01), 0x01)\n        /* \"contracts/Boost.sol\":58737:58761  IVeToken(veToken).detach */\n      and\n      swap1\n      0x986b7d8a\n      swap1\n        /* \"#utility.yul\":729:747   */\n      0x24\n      add\n        /* \"contracts/Boost.sol\":58737:58770  IVeToken(veToken).detach(tokenId) */\n      0x00\n      mload(0x40)\n      dup1\n      dup4\n      sub\n      dup2\n      0x00\n      dup8\n      dup1\n      extcodesize\n      iszero\n      dup1\n      iszero\n      tag_320\n      jumpi\n      0x00\n      dup1\n      revert\n    tag_320:\n      pop\n      gas\n      call\n      iszero\n      dup1\n      iszero\n      tag_322\n      jumpi\n      returndatasize\n      0x00\n      dup1\n      returndatacopy\n      revert(0x00, returndatasize)\n    tag_322:\n      pop\n      pop\n      pop\n      pop\n        /* \"contracts/Boost.sol\":58720:58770  if (tokenId > 0) IVeToken(veToken).detach(tokenId) */\n    tag_318:\n        /* \"contracts/Boost.sol\":58785:58821  Detach(account, msg.sender, tokenId) */\n      mload(0x40)\n        /* \"#utility.yul\":756:781   */\n      dup3\n      dup2\n      mstore\n        /* \"contracts/Boost.sol\":58801:58811  msg.sender */\n      caller\n      swap1\n      sub(shl(0xa0, 0x01), 0x01)\n        /* \"contracts/Boost.sol\":58785:58821  Detach(account, msg.sender, tokenId) */\n      dup4\n      and\n      swap1\n      0xae268d9aab12f3605f58efd74fd3801fa812b03fdb44317eb70f46dff0e19e22\n      swap1\n        /* \"#utility.yul\":744:746   */\n      0x20\n        /* \"#utility.yul\":729:747   */\n      add\n        /* \"contracts/Boost.sol\":58785:58821  Detach(account, msg.sender, tokenId) */\n    tag_323:\n      mload(0x40)\n      dup1\n      swap2\n      sub\n      swap1\n      log3\n        /* \"contracts/Boost.sol\":58602:58828  function detachTokenFromGauge(uint tokenId, address account) external {... */\n      pop\n      pop\n      jump\t// out\n        /* \"contracts/Boost.sol\":47736:47935  function setTokenPerBlock(uint256 _newPerBlock, bool _withUpdate) public onlyOperator {... */\n    tag_130:\n        /* \"contracts/Boost.sol\":44971:44981  operatable */\n      sload(0x01)\n        /* \"contracts/Boost.sol\":44971:44992  operatable.operator() */\n      0x40\n      dup1\n      mload\n      shl(0xe0, 0x570ca735)\n      dup2\n      mstore\n      swap1\n      mload\n        /* \"contracts/Boost.sol\":44996:45006  msg.sender */\n      caller\n      swap3\n      sub(shl(0xa0, 0x01), 0x01)\n        /* \"contracts/Boost.sol\":44971:44981  operatable */\n      and\n      swap2\n        /* \"contracts/Boost.sol\":44971:44990  operatable.operator */\n      0x570ca735\n      swap2\n        /* \"contracts/Boost.sol\":44971:44992  operatable.operator() */\n      0x04\n      dup1\n      dup4\n      add\n      swap3\n      0x20\n      swap3\n      swap2\n      swap1\n      dup3\n      swap1\n      sub\n      add\n      dup2\n        /* \"contracts/Boost.sol\":44971:44981  operatable */\n      dup7\n        /* \"contracts/Boost.sol\":44971:44992  operatable.operator() */\n      gas\n      staticcall\n      iszero\n      dup1\n      iszero\n      tag_326\n      jumpi\n      returndatasize\n      0x00\n      dup1\n      returndatacopy\n      revert(0x00, returndatasize)\n    tag_326:\n      pop\n      pop\n      pop\n      pop\n      mload(0x40)\n      returndatasize\n      not(0x1f)\n      0x1f\n      dup3\n      add\n      and\n      dup3\n      add\n      dup1\n      0x40\n      mstore\n      pop\n      dup2\n      add\n      swap1\n      tag_327\n      swap2\n      swap1\n      tag_245\n      jump\t// in\n    tag_327:\n      sub(shl(0xa0, 0x01), 0x01)\n        /* \"contracts/Boost.sol\":44971:45006  operatable.operator() == msg.sender */\n      and\n      eq\n        /* \"contracts/Boost.sol\":44963:45023  require(operatable.operator() == msg.sender, 'not operator') */\n      tag_328\n      jumpi\n      mload(0x40)\n      shl(0xe5, 0x461bcd)\n      dup2\n      mstore\n      0x04\n      add\n      tag_226\n      swap1\n      tag_330\n      jump\t// in\n    tag_328:\n        /* \"contracts/Boost.sol\":47836:47847  _withUpdate */\n      dup1\n        /* \"contracts/Boost.sol\":47832:47891  if (_withUpdate) {... */\n      iszero\n      tag_333\n      jumpi\n        /* \"contracts/Boost.sol\":47863:47880  massUpdatePools() */\n      tag_333\n        /* \"contracts/Boost.sol\":47863:47878  massUpdatePools */\n      tag_140\n        /* \"contracts/Boost.sol\":47863:47880  massUpdatePools() */\n      jump\t// in\n    tag_333:\n      pop\n        /* \"contracts/Boost.sol\":47900:47913  tokenPerBlock */\n      0x03\n        /* \"contracts/Boost.sol\":47900:47928  tokenPerBlock = _newPerBlock */\n      sstore\n        /* \"contracts/Boost.sol\":47736:47935  function setTokenPerBlock(uint256 _newPerBlock, bool _withUpdate) public onlyOperator {... */\n      jump\t// out\n        /* \"contracts/Boost.sol\":57256:58182  function updatePool(uint256 _pid) public reduceBlockReward {... */\n    tag_133:\n        /* \"contracts/Boost.sol\":46998:47008  startBlock */\n      immutable(\"0xb82071edfff134ff1052b654ae69c3c67bf3f8b35ce6706309fa7f2bcffe5e17\")\n        /* \"contracts/Boost.sol\":46983:46995  block.number */\n      number\n        /* \"contracts/Boost.sol\":46983:47008  block.number > startBlock */\n      gt\n        /* \"contracts/Boost.sol\":46983:47042  block.number > startBlock && block.number >= periodEndBlock */\n      dup1\n      iszero\n      tag_335\n      jumpi\n      pop\n        /* \"contracts/Boost.sol\":47028:47042  periodEndBlock */\n      sload(0x04)\n        /* \"contracts/Boost.sol\":47012:47024  block.number */\n      number\n        /* \"contracts/Boost.sol\":47012:47042  block.number >= periodEndBlock */\n      lt\n      iszero\n        /* \"contracts/Boost.sol\":46983:47042  block.number > startBlock && block.number >= periodEndBlock */\n    tag_335:\n        /* \"contracts/Boost.sol\":46979:47350  if (block.number > startBlock && block.number >= periodEndBlock) {... */\n      iszero\n      tag_336\n      jumpi\n        /* \"contracts/Boost.sol\":47078:47092  minTokenReward */\n      sload(0x07)\n        /* \"contracts/Boost.sol\":47062:47075  tokenPerBlock */\n      sload(0x03)\n        /* \"contracts/Boost.sol\":47062:47092  tokenPerBlock > minTokenReward */\n      gt\n        /* \"contracts/Boost.sol\":47058:47173  if (tokenPerBlock > minTokenReward) {... */\n      iszero\n      tag_337\n      jumpi\n        /* \"contracts/Boost.sol\":47128:47158  tokenPerBlock.mul(80).div(100) */\n      tag_338\n        /* \"contracts/Boost.sol\":47154:47157  100 */\n      0x64\n        /* \"contracts/Boost.sol\":47128:47149  tokenPerBlock.mul(80) */\n      tag_339\n        /* \"contracts/Boost.sol\":47146:47148  80 */\n      0x50\n        /* \"contracts/Boost.sol\":47128:47141  tokenPerBlock */\n      sload(0x03)\n        /* \"contracts/Boost.sol\":47128:47145  tokenPerBlock.mul */\n      tag_340\n      swap1\n        /* \"contracts/Boost.sol\":47128:47149  tokenPerBlock.mul(80) */\n      swap2\n      swap1\n      0xffffffff\n      and\n      jump\t// in\n    tag_339:\n        /* \"contracts/Boost.sol\":47128:47153  tokenPerBlock.mul(80).div */\n      swap1\n      tag_341\n        /* \"contracts/Boost.sol\":47128:47158  tokenPerBlock.mul(80).div(100) */\n      jump\t// in\n    tag_338:\n        /* \"contracts/Boost.sol\":47112:47125  tokenPerBlock */\n      0x03\n        /* \"contracts/Boost.sol\":47112:47158  tokenPerBlock = tokenPerBlock.mul(80).div(100) */\n      sstore\n        /* \"contracts/Boost.sol\":47058:47173  if (tokenPerBlock > minTokenReward) {... */\n    tag_337:\n        /* \"contracts/Boost.sol\":47206:47220  minTokenReward */\n      sload(0x07)\n        /* \"contracts/Boost.sol\":47190:47203  tokenPerBlock */\n      sload(0x03)\n        /* \"contracts/Boost.sol\":47190:47220  tokenPerBlock < minTokenReward */\n      lt\n        /* \"contracts/Boost.sol\":47186:47285  if (tokenPerBlock < minTokenReward) {... */\n      iszero\n      tag_342\n      jumpi\n        /* \"contracts/Boost.sol\":47256:47270  minTokenReward */\n      sload(0x07)\n        /* \"contracts/Boost.sol\":47240:47253  tokenPerBlock */\n      0x03\n        /* \"contracts/Boost.sol\":47240:47270  tokenPerBlock = minTokenReward */\n      sstore\n        /* \"contracts/Boost.sol\":47186:47285  if (tokenPerBlock < minTokenReward) {... */\n    tag_342:\n        /* \"contracts/Boost.sol\":47332:47338  period */\n      sload(0x05)\n        /* \"contracts/Boost.sol\":47315:47339  block.number.add(period) */\n      tag_343\n      swap1\n        /* \"contracts/Boost.sol\":47315:47327  block.number */\n      number\n      swap1\n        /* \"contracts/Boost.sol\":47315:47331  block.number.add */\n      tag_222\n        /* \"contracts/Boost.sol\":47315:47339  block.number.add(period) */\n      jump\t// in\n    tag_343:\n        /* \"contracts/Boost.sol\":47298:47312  periodEndBlock */\n      0x04\n        /* \"contracts/Boost.sol\":47298:47339  periodEndBlock = block.number.add(period) */\n      sstore\n        /* \"contracts/Boost.sol\":46979:47350  if (block.number > startBlock && block.number >= periodEndBlock) {... */\n    tag_336:\n        /* \"contracts/Boost.sol\":57325:57346  PoolInfo storage pool */\n      0x00\n        /* \"contracts/Boost.sol\":57349:57357  poolInfo */\n      0x0e\n        /* \"contracts/Boost.sol\":57358:57362  _pid */\n      dup3\n        /* \"contracts/Boost.sol\":57349:57363  poolInfo[_pid] */\n      dup2\n      sload\n      dup2\n      lt\n      tag_346\n      jumpi\n      tag_346\n      tag_277\n      jump\t// in\n    tag_346:\n      swap1\n      0x00\n      mstore\n      keccak256(0x00, 0x20)\n      swap1\n      0x03\n      mul\n      add\n        /* \"contracts/Boost.sol\":57325:57363  PoolInfo storage pool = poolInfo[_pid] */\n      swap1\n      pop\n        /* \"contracts/Boost.sol\":57393:57397  pool */\n      dup1\n        /* \"contracts/Boost.sol\":57393:57413  pool.lastRewardBlock */\n      0x02\n      add\n      sload\n        /* \"contracts/Boost.sol\":57377:57389  block.number */\n      number\n        /* \"contracts/Boost.sol\":57377:57413  block.number <= pool.lastRewardBlock */\n      gt\n        /* \"contracts/Boost.sol\":57373:57446  if (block.number <= pool.lastRewardBlock) {... */\n      tag_348\n      jumpi\n        /* \"contracts/Boost.sol\":57429:57436  return; */\n      pop\n        /* \"contracts/Boost.sol\":57256:58182  function updatePool(uint256 _pid) public reduceBlockReward {... */\n      pop\n      jump\t// out\n        /* \"contracts/Boost.sol\":57373:57446  if (block.number <= pool.lastRewardBlock) {... */\n    tag_348:\n        /* \"contracts/Boost.sol\":57481:57493  pool.lpToken */\n      dup1\n      sload\n      sub(shl(0xa0, 0x01), 0x01)\n      swap1\n      dup2\n      and\n        /* \"contracts/Boost.sol\":57455:57471  uint256 lpSupply */\n      0x00\n        /* \"contracts/Boost.sol\":57505:57525  gauges[pool.lpToken] */\n      dup2\n      dup2\n      mstore\n        /* \"contracts/Boost.sol\":57505:57511  gauges */\n      0x11\n        /* \"contracts/Boost.sol\":57505:57525  gauges[pool.lpToken] */\n      0x20\n      mstore\n      0x40\n      dup1\n      dup3\n      keccak256\n      sload\n        /* \"contracts/Boost.sol\":57474:57526  IERC20(pool.lpToken).balanceOf(gauges[pool.lpToken]) */\n      swap1\n      mload\n      shl(0xe0, 0x70a08231)\n      dup2\n      mstore\n        /* \"contracts/Boost.sol\":57505:57525  gauges[pool.lpToken] */\n      swap4\n      and\n        /* \"contracts/Boost.sol\":57474:57526  IERC20(pool.lpToken).balanceOf(gauges[pool.lpToken]) */\n      0x04\n      dup5\n      add\n        /* \"#utility.yul\":548:599   */\n      mstore\n        /* \"contracts/Boost.sol\":57455:57471  uint256 lpSupply */\n      swap2\n        /* \"contracts/Boost.sol\":57474:57504  IERC20(pool.lpToken).balanceOf */\n      0x70a08231\n      swap1\n        /* \"#utility.yul\":521:539   */\n      0x24\n      add\n        /* \"contracts/Boost.sol\":57474:57526  IERC20(pool.lpToken).balanceOf(gauges[pool.lpToken]) */\n      0x20\n      mload(0x40)\n      dup1\n      dup4\n      sub\n      dup2\n      dup7\n      gas\n      staticcall\n      iszero\n      dup1\n      iszero\n      tag_351\n      jumpi\n      returndatasize\n      0x00\n      dup1\n      returndatacopy\n      revert(0x00, returndatasize)\n    tag_351:\n      pop\n      pop\n      pop\n      pop\n      mload(0x40)\n      returndatasize\n      not(0x1f)\n      0x1f\n      dup3\n      add\n      and\n      dup3\n      add\n      dup1\n      0x40\n      mstore\n      pop\n      dup2\n      add\n      swap1\n      tag_352\n      swap2\n      swap1\n      tag_353\n      jump\t// in\n    tag_352:\n        /* \"contracts/Boost.sol\":57455:57526  uint256 lpSupply = IERC20(pool.lpToken).balanceOf(gauges[pool.lpToken]) */\n      swap1\n      pop\n        /* \"contracts/Boost.sol\":57540:57553  lpSupply == 0 */\n      dup1\n        /* \"contracts/Boost.sol\":57536:57635  if (lpSupply == 0) {... */\n      tag_354\n      jumpi\n      pop\n        /* \"contracts/Boost.sol\":57592:57604  block.number */\n      number\n        /* \"contracts/Boost.sol\":57569:57589  pool.lastRewardBlock */\n      0x02\n      swap1\n      swap2\n      add\n        /* \"contracts/Boost.sol\":57569:57604  pool.lastRewardBlock = block.number */\n      sstore\n        /* \"contracts/Boost.sol\":57256:58182  function updatePool(uint256 _pid) public reduceBlockReward {... */\n      pop\n      jump\t// out\n        /* \"contracts/Boost.sol\":57536:57635  if (lpSupply == 0) {... */\n    tag_354:\n        /* \"contracts/Boost.sol\":57665:57666  0 */\n      0x00\n        /* \"contracts/Boost.sol\":57648:57661  tokenPerBlock */\n      sload(0x03)\n        /* \"contracts/Boost.sol\":57648:57666  tokenPerBlock <= 0 */\n      gt\n        /* \"contracts/Boost.sol\":57644:57699  if (tokenPerBlock <= 0) {... */\n      tag_355\n      jumpi\n        /* \"contracts/Boost.sol\":57682:57689  return; */\n      pop\n      pop\n        /* \"contracts/Boost.sol\":57256:58182  function updatePool(uint256 _pid) public reduceBlockReward {... */\n      pop\n      jump\t// out\n        /* \"contracts/Boost.sol\":57644:57699  if (tokenPerBlock <= 0) {... */\n    tag_355:\n        /* \"contracts/Boost.sol\":57708:57719  uint256 mul */\n      0x00\n        /* \"contracts/Boost.sol\":57722:57760  block.number.sub(pool.lastRewardBlock) */\n      tag_356\n        /* \"contracts/Boost.sol\":57739:57743  pool */\n      dup4\n        /* \"contracts/Boost.sol\":57739:57759  pool.lastRewardBlock */\n      0x02\n      add\n      sload\n        /* \"contracts/Boost.sol\":57722:57734  block.number */\n      number\n        /* \"contracts/Boost.sol\":57722:57738  block.number.sub */\n      tag_357\n      swap1\n        /* \"contracts/Boost.sol\":57722:57760  block.number.sub(pool.lastRewardBlock) */\n      swap2\n      swap1\n      0xffffffff\n      and\n      jump\t// in\n    tag_356:\n        /* \"contracts/Boost.sol\":57708:57760  uint256 mul = block.number.sub(pool.lastRewardBlock) */\n      swap1\n      pop\n        /* \"contracts/Boost.sol\":57770:57789  uint256 tokenReward */\n      0x00\n        /* \"contracts/Boost.sol\":57792:57856  tokenPerBlock.mul(mul).mul(pool.allocPoint).div(totalAllocPoint) */\n      tag_358\n        /* \"contracts/Boost.sol\":57840:57855  totalAllocPoint */\n      sload(0x0d)\n        /* \"contracts/Boost.sol\":57792:57835  tokenPerBlock.mul(mul).mul(pool.allocPoint) */\n      tag_339\n        /* \"contracts/Boost.sol\":57819:57823  pool */\n      dup7\n        /* \"contracts/Boost.sol\":57819:57834  pool.allocPoint */\n      0x01\n      add\n      sload\n        /* \"contracts/Boost.sol\":57792:57814  tokenPerBlock.mul(mul) */\n      tag_360\n        /* \"contracts/Boost.sol\":57810:57813  mul */\n      dup7\n        /* \"contracts/Boost.sol\":57792:57805  tokenPerBlock */\n      sload(0x03)\n        /* \"contracts/Boost.sol\":57792:57809  tokenPerBlock.mul */\n      tag_340\n      swap1\n        /* \"contracts/Boost.sol\":57792:57814  tokenPerBlock.mul(mul) */\n      swap2\n      swap1\n      0xffffffff\n      and\n      jump\t// in\n    tag_360:\n        /* \"contracts/Boost.sol\":57792:57818  tokenPerBlock.mul(mul).mul */\n      swap1\n      tag_340\n        /* \"contracts/Boost.sol\":57792:57835  tokenPerBlock.mul(mul).mul(pool.allocPoint) */\n      jump\t// in\n        /* \"contracts/Boost.sol\":57792:57856  tokenPerBlock.mul(mul).mul(pool.allocPoint).div(totalAllocPoint) */\n    tag_358:\n        /* \"contracts/Boost.sol\":57904:57913  swapToken */\n      sload(0x02)\n        /* \"contracts/Boost.sol\":57770:57856  uint256 tokenReward = tokenPerBlock.mul(mul).mul(pool.allocPoint).div(totalAllocPoint) */\n      swap1\n      swap2\n      pop\n        /* \"contracts/Boost.sol\":57890:57901  bool minRet */\n      0x00\n      swap1\n      sub(shl(0xa0, 0x01), 0x01)\n        /* \"contracts/Boost.sol\":57904:57913  swapToken */\n      and\n        /* \"contracts/Boost.sol\":57904:57918  swapToken.mint */\n      0x40c10f19\n        /* \"contracts/Boost.sol\":57927:57931  this */\n      address\n        /* \"contracts/Boost.sol\":57934:57959  tokenReward.mul(duration) */\n      tag_361\n        /* \"contracts/Boost.sol\":57770:57856  uint256 tokenReward = tokenPerBlock.mul(mul).mul(pool.allocPoint).div(totalAllocPoint) */\n      dup6\n        /* \"contracts/Boost.sol\":54965:54971  7 days */\n      0x093a80\n        /* \"contracts/Boost.sol\":57934:57949  tokenReward.mul */\n      tag_340\n        /* \"contracts/Boost.sol\":57934:57959  tokenReward.mul(duration) */\n      jump\t// in\n    tag_361:\n        /* \"contracts/Boost.sol\":57904:57960  swapToken.mint(address(this), tokenReward.mul(duration)) */\n      mload(0x40)\n      not(sub(shl(0xe0, 0x01), 0x01))\n      0xe0\n      dup6\n      swap1\n      shl\n      and\n      dup2\n      mstore\n      sub(shl(0xa0, 0x01), 0x01)\n        /* \"#utility.yul\":10775:10807   */\n      swap1\n      swap3\n      and\n        /* \"contracts/Boost.sol\":57904:57960  swapToken.mint(address(this), tokenReward.mul(duration)) */\n      0x04\n      dup4\n      add\n        /* \"#utility.yul\":10757:10808   */\n      mstore\n        /* \"#utility.yul\":10824:10842   */\n      0x24\n      dup3\n      add\n        /* \"#utility.yul\":10817:10851   */\n      mstore\n        /* \"#utility.yul\":10730:10748   */\n      0x44\n      add\n        /* \"contracts/Boost.sol\":57904:57960  swapToken.mint(address(this), tokenReward.mul(duration)) */\n      0x20\n      mload(0x40)\n      dup1\n      dup4\n      sub\n      dup2\n      0x00\n      dup8\n      gas\n      call\n      iszero\n      dup1\n      iszero\n      tag_364\n      jumpi\n      returndatasize\n      0x00\n      dup1\n      returndatacopy\n      revert(0x00, returndatasize)\n    tag_364:\n      pop\n      pop\n      pop\n      pop\n      mload(0x40)\n      returndatasize\n      not(0x1f)\n      0x1f\n      dup3\n      add\n      and\n      dup3\n      add\n      dup1\n      0x40\n      mstore\n      pop\n      dup2\n      add\n      swap1\n      tag_365\n      swap2\n      swap1\n      tag_251\n      jump\t// in\n    tag_365:\n        /* \"contracts/Boost.sol\":57890:57960  bool minRet = swapToken.mint(address(this), tokenReward.mul(duration)) */\n      swap1\n      pop\n        /* \"contracts/Boost.sol\":57974:57980  minRet */\n      dup1\n        /* \"contracts/Boost.sol\":57970:58131  if (minRet) {... */\n      iszero\n      tag_366\n      jumpi\n        /* \"contracts/Boost.sol\":58010:58022  pool.lpToken */\n      dup5\n      sload\n      sub(shl(0xa0, 0x01), 0x01)\n      swap1\n      dup2\n      and\n        /* \"contracts/Boost.sol\":58003:58023  gauges[pool.lpToken] */\n      0x00\n      swap1\n      dup2\n      mstore\n        /* \"contracts/Boost.sol\":58003:58009  gauges */\n      0x11\n        /* \"contracts/Boost.sol\":58003:58023  gauges[pool.lpToken] */\n      0x20\n      mstore\n      0x40\n      swap1\n      keccak256\n      sload\n        /* \"contracts/Boost.sol\":58052:58061  swapToken */\n      sload(0x02)\n        /* \"contracts/Boost.sol\":58103:58118  totalAllocPoint */\n      sload(0x0d)\n        /* \"contracts/Boost.sol\":58010:58022  pool.lpToken */\n      0x01\n        /* \"contracts/Boost.sol\":58082:58097  pool.allocPoint */\n      dup10\n      add\n      sload\n        /* \"contracts/Boost.sol\":58064:58077  tokenPerBlock */\n      sload(0x03)\n        /* \"contracts/Boost.sol\":58003:58023  gauges[pool.lpToken] */\n      swap4\n      dup6\n      and\n      swap5\n        /* \"contracts/Boost.sol\":57996:58043  IGauge(gauges[pool.lpToken]).notifyRewardAmount */\n      0xb66503cf\n      swap5\n        /* \"contracts/Boost.sol\":58052:58061  swapToken */\n      swap4\n      and\n      swap3\n        /* \"contracts/Boost.sol\":58064:58119  tokenPerBlock.mul(pool.allocPoint).div(totalAllocPoint) */\n      tag_367\n      swap3\n        /* \"contracts/Boost.sol\":58103:58118  totalAllocPoint */\n      swap2\n        /* \"contracts/Boost.sol\":58064:58098  tokenPerBlock.mul(pool.allocPoint) */\n      tag_339\n      swap2\n        /* \"contracts/Boost.sol\":58064:58077  tokenPerBlock */\n      swap1\n        /* \"contracts/Boost.sol\":58064:58081  tokenPerBlock.mul */\n      tag_340\n        /* \"contracts/Boost.sol\":58064:58098  tokenPerBlock.mul(pool.allocPoint) */\n      jump\t// in\n        /* \"contracts/Boost.sol\":58064:58119  tokenPerBlock.mul(pool.allocPoint).div(totalAllocPoint) */\n    tag_367:\n        /* \"contracts/Boost.sol\":57996:58120  IGauge(gauges[pool.lpToken]).notifyRewardAmount(address(swapToken), tokenPerBlock.mul(pool.allocPoint).div(totalAllocPoint)) */\n      mload(0x40)\n      not(sub(shl(0xe0, 0x01), 0x01))\n      0xe0\n      dup6\n      swap1\n      shl\n      and\n      dup2\n      mstore\n      sub(shl(0xa0, 0x01), 0x01)\n        /* \"#utility.yul\":10775:10807   */\n      swap1\n      swap3\n      and\n        /* \"contracts/Boost.sol\":57996:58120  IGauge(gauges[pool.lpToken]).notifyRewardAmount(address(swapToken), tokenPerBlock.mul(pool.allocPoint).div(totalAllocPoint)) */\n      0x04\n      dup4\n      add\n        /* \"#utility.yul\":10757:10808   */\n      mstore\n        /* \"#utility.yul\":10824:10842   */\n      0x24\n      dup3\n      add\n        /* \"#utility.yul\":10817:10851   */\n      mstore\n        /* \"#utility.yul\":10730:10748   */\n      0x44\n      add\n        /* \"contracts/Boost.sol\":57996:58120  IGauge(gauges[pool.lpToken]).notifyRewardAmount(address(swapToken), tokenPerBlock.mul(pool.allocPoint).div(totalAllocPoint)) */\n      0x00\n      mload(0x40)\n      dup1\n      dup4\n      sub\n      dup2\n      0x00\n      dup8\n      dup1\n      extcodesize\n      iszero\n      dup1\n      iszero\n      tag_370\n      jumpi\n      0x00\n      dup1\n      revert\n    tag_370:\n      pop\n      gas\n      call\n      iszero\n      dup1\n      iszero\n      tag_372\n      jumpi\n      returndatasize\n      0x00\n      dup1\n      returndatacopy\n      revert(0x00, returndatasize)\n    tag_372:\n      pop\n      pop\n      pop\n      pop\n        /* \"contracts/Boost.sol\":57970:58131  if (minRet) {... */\n    tag_366:\n        /* \"contracts/Boost.sol\":58163:58175  block.number */\n      number\n        /* \"contracts/Boost.sol\":58140:58144  pool */\n      dup6\n        /* \"contracts/Boost.sol\":58140:58160  pool.lastRewardBlock */\n      0x02\n      add\n        /* \"contracts/Boost.sol\":58140:58175  pool.lastRewardBlock = block.number */\n      dup2\n      swap1\n      sstore\n      pop\n        /* \"contracts/Boost.sol\":57315:58182  {... */\n      pop\n      pop\n      pop\n      pop\n      pop\n        /* \"contracts/Boost.sol\":47359:47360  _ */\n    tag_344:\n        /* \"contracts/Boost.sol\":57256:58182  function updatePool(uint256 _pid) public reduceBlockReward {... */\n      pop\n      jump\t// out\n        /* \"contracts/Boost.sol\":59021:59217  function updateAll() external {... */\n    tag_135:\n        /* \"contracts/Boost.sol\":59066:59072  uint i */\n      0x00\n        /* \"contracts/Boost.sol\":59061:59211  for (uint i = 0; i < poolLength(); i++) {... */\n    tag_374:\n        /* \"contracts/Boost.sol\":55634:55642  poolInfo */\n      0x0e\n        /* \"contracts/Boost.sol\":55634:55649  poolInfo.length */\n      sload\n        /* \"contracts/Boost.sol\":59078:59079  i */\n      dup2\n        /* \"contracts/Boost.sol\":59078:59094  i < poolLength() */\n      lt\n        /* \"contracts/Boost.sol\":59061:59211  for (uint i = 0; i < poolLength(); i++) {... */\n      iszero\n      tag_344\n      jumpi\n        /* \"contracts/Boost.sol\":59115:59135  PoolInfo memory pool */\n      0x00\n        /* \"contracts/Boost.sol\":59138:59146  poolInfo */\n      0x0e\n        /* \"contracts/Boost.sol\":59147:59148  i */\n      dup3\n        /* \"contracts/Boost.sol\":59138:59149  poolInfo[i] */\n      dup2\n      sload\n      dup2\n      lt\n      tag_379\n      jumpi\n      tag_379\n      tag_277\n      jump\t// in\n    tag_379:\n      0x00\n      swap2\n      dup3\n      mstore\n      0x20\n      dup1\n      dup4\n      keccak256\n        /* \"contracts/Boost.sol\":59115:59149  PoolInfo memory pool = poolInfo[i] */\n      0x40\n      dup1\n      mload\n      0x60\n      dup2\n      add\n      dup3\n      mstore\n        /* \"contracts/Boost.sol\":59138:59149  poolInfo[i] */\n      0x03\n      swap1\n      swap5\n      mul\n      swap1\n      swap2\n      add\n        /* \"contracts/Boost.sol\":59115:59149  PoolInfo memory pool = poolInfo[i] */\n      dup1\n      sload\n      sub(shl(0xa0, 0x01), 0x01)\n      swap1\n      dup2\n      and\n      dup1\n      dup7\n      mstore\n      0x01\n      dup4\n      add\n      sload\n      dup7\n      dup7\n      add\n      mstore\n      0x02\n      swap1\n      swap3\n      add\n      sload\n      dup6\n      dup5\n      add\n      mstore\n        /* \"contracts/Boost.sol\":59179:59199  gauges[pool.lpToken] */\n      swap1\n      dup6\n      mstore\n        /* \"contracts/Boost.sol\":59179:59185  gauges */\n      0x11\n        /* \"contracts/Boost.sol\":59179:59199  gauges[pool.lpToken] */\n      swap1\n      swap3\n      mstore\n      swap1\n      swap3\n      keccak256\n      sload\n        /* \"contracts/Boost.sol\":59115:59149  PoolInfo memory pool = poolInfo[i] */\n      swap1\n      swap3\n      pop\n        /* \"contracts/Boost.sol\":59163:59200  _updateForGauge(gauges[pool.lpToken]) */\n      tag_381\n      swap2\n        /* \"contracts/Boost.sol\":59179:59199  gauges[pool.lpToken] */\n      and\n        /* \"contracts/Boost.sol\":59163:59178  _updateForGauge */\n      tag_253\n        /* \"contracts/Boost.sol\":59163:59200  _updateForGauge(gauges[pool.lpToken]) */\n      jump\t// in\n    tag_381:\n      pop\n        /* \"contracts/Boost.sol\":59096:59099  i++ */\n      dup1\n      tag_382\n      dup2\n      tag_286\n      jump\t// in\n    tag_382:\n      swap2\n      pop\n      pop\n        /* \"contracts/Boost.sol\":59061:59211  for (uint i = 0; i < poolLength(); i++) {... */\n      jump(tag_374)\n        /* \"contracts/Boost.sol\":45179:45283  function operator() public view override returns (address) {... */\n    tag_137:\n        /* \"contracts/Boost.sol\":45255:45265  operatable */\n      sload(0x01)\n        /* \"contracts/Boost.sol\":45255:45276  operatable.operator() */\n      0x40\n      dup1\n      mload\n      shl(0xe0, 0x570ca735)\n      dup2\n      mstore\n      swap1\n      mload\n        /* \"contracts/Boost.sol\":45229:45236  address */\n      0x00\n      swap3\n      sub(shl(0xa0, 0x01), 0x01)\n        /* \"contracts/Boost.sol\":45255:45265  operatable */\n      and\n      swap2\n        /* \"contracts/Boost.sol\":45255:45274  operatable.operator */\n      0x570ca735\n      swap2\n        /* \"contracts/Boost.sol\":45255:45276  operatable.operator() */\n      0x04\n      dup1\n      dup4\n      add\n      swap3\n      0x20\n      swap3\n      swap2\n      swap1\n      dup3\n      swap1\n      sub\n      add\n      dup2\n        /* \"contracts/Boost.sol\":45255:45265  operatable */\n      dup7\n        /* \"contracts/Boost.sol\":45255:45276  operatable.operator() */\n      gas\n      staticcall\n      iszero\n      dup1\n      iszero\n      tag_385\n      jumpi\n      returndatasize\n      0x00\n      dup1\n      returndatacopy\n      revert(0x00, returndatasize)\n    tag_385:\n      pop\n      pop\n      pop\n      pop\n      mload(0x40)\n      returndatasize\n      not(0x1f)\n      0x1f\n      dup3\n      add\n      and\n      dup3\n      add\n      dup1\n      0x40\n      mstore\n      pop\n      dup2\n      add\n      swap1\n      tag_386\n      swap2\n      swap1\n      tag_245\n      jump\t// in\n    tag_386:\n        /* \"contracts/Boost.sol\":45248:45276  return operatable.operator() */\n      swap1\n      pop\n        /* \"contracts/Boost.sol\":45179:45283  function operator() public view override returns (address) {... */\n      swap1\n      jump\t// out\n        /* \"contracts/Boost.sol\":56999:57183  function massUpdatePools() public override {... */\n    tag_140:\n        /* \"contracts/Boost.sol\":57069:57077  poolInfo */\n      0x0e\n        /* \"contracts/Boost.sol\":57069:57084  poolInfo.length */\n      sload\n        /* \"contracts/Boost.sol\":57052:57066  uint256 length */\n      0x00\n        /* \"contracts/Boost.sol\":57094:57177  for (uint256 pid = 0; pid < length; ++pid) {... */\n    tag_388:\n        /* \"contracts/Boost.sol\":57122:57128  length */\n      dup2\n        /* \"contracts/Boost.sol\":57116:57119  pid */\n      dup2\n        /* \"contracts/Boost.sol\":57116:57128  pid < length */\n      lt\n        /* \"contracts/Boost.sol\":57094:57177  for (uint256 pid = 0; pid < length; ++pid) {... */\n      iszero\n      tag_389\n      jumpi\n        /* \"contracts/Boost.sol\":57151:57166  updatePool(pid) */\n      tag_391\n        /* \"contracts/Boost.sol\":57162:57165  pid */\n      dup2\n        /* \"contracts/Boost.sol\":57151:57161  updatePool */\n      tag_133\n        /* \"contracts/Boost.sol\":57151:57166  updatePool(pid) */\n      jump\t// in\n    tag_391:\n        /* \"contracts/Boost.sol\":57130:57135  ++pid */\n      tag_392\n      dup2\n      tag_286\n      jump\t// in\n    tag_392:\n      swap1\n      pop\n        /* \"contracts/Boost.sol\":57094:57177  for (uint256 pid = 0; pid < length; ++pid) {... */\n      jump(tag_388)\n    tag_389:\n      pop\n        /* \"contracts/Boost.sol\":57042:57183  {... */\n      pop\n        /* \"contracts/Boost.sol\":56999:57183  function massUpdatePools() public override {... */\n      jump\t// out\n        /* \"contracts/Boost.sol\":59594:59678  function distribute(address _gauge) public {... */\n    tag_143:\n        /* \"contracts/Boost.sol\":59647:59670  _updateForGauge(_gauge) */\n      tag_344\n        /* \"contracts/Boost.sol\":59663:59669  _gauge */\n      dup2\n        /* \"contracts/Boost.sol\":59647:59662  _updateForGauge */\n      tag_253\n        /* \"contracts/Boost.sol\":59647:59670  _updateForGauge(_gauge) */\n      jump\t// in\n        /* \"contracts/Boost.sol\":56694:56993  function set(uint256 _pid, uint256 _allocPoint, bool _withUpdate) public onlyOwner {... */\n    tag_147:\n        /* \"contracts/Boost.sol\":45086:45096  operatable */\n      sload(0x01)\n        /* \"contracts/Boost.sol\":45086:45104  operatable.owner() */\n      0x40\n      dup1\n      mload\n      shl(0xe0, 0x8da5cb5b)\n      dup2\n      mstore\n      swap1\n      mload\n        /* \"contracts/Boost.sol\":45108:45118  msg.sender */\n      caller\n      swap3\n      sub(shl(0xa0, 0x01), 0x01)\n        /* \"contracts/Boost.sol\":45086:45096  operatable */\n      and\n      swap2\n        /* \"contracts/Boost.sol\":45086:45102  operatable.owner */\n      0x8da5cb5b\n      swap2\n        /* \"contracts/Boost.sol\":45086:45104  operatable.owner() */\n      0x04\n      dup1\n      dup4\n      add\n      swap3\n      0x20\n      swap3\n      swap2\n      swap1\n      dup3\n      swap1\n      sub\n      add\n      dup2\n        /* \"contracts/Boost.sol\":45086:45096  operatable */\n      dup7\n        /* \"contracts/Boost.sol\":45086:45104  operatable.owner() */\n      gas\n      staticcall\n      iszero\n      dup1\n      iszero\n      tag_397\n      jumpi\n      returndatasize\n      0x00\n      dup1\n      returndatacopy\n      revert(0x00, returndatasize)\n    tag_397:\n      pop\n      pop\n      pop\n      pop\n      mload(0x40)\n      returndatasize\n      not(0x1f)\n      0x1f\n      dup3\n      add\n      and\n      dup3\n      add\n      dup1\n      0x40\n      mstore\n      pop\n      dup2\n      add\n      swap1\n      tag_398\n      swap2\n      swap1\n      tag_245\n      jump\t// in\n    tag_398:\n      sub(shl(0xa0, 0x01), 0x01)\n        /* \"contracts/Boost.sol\":45086:45118  operatable.owner() == msg.sender */\n      and\n      eq\n        /* \"contracts/Boost.sol\":45078:45155  require(operatable.owner() == msg.sender, 'Ownable: caller is not the owner') */\n      tag_399\n      jumpi\n      mload(0x40)\n      shl(0xe5, 0x461bcd)\n      dup2\n      mstore\n        /* \"#utility.yul\":11314:11316   */\n      0x20\n        /* \"contracts/Boost.sol\":45078:45155  require(operatable.owner() == msg.sender, 'Ownable: caller is not the owner') */\n      0x04\n      dup3\n      add\n        /* \"#utility.yul\":11296:11317   */\n      dup2\n      swap1\n      mstore\n        /* \"#utility.yul\":11333:11351   */\n      0x24\n      dup3\n      add\n        /* \"#utility.yul\":11326:11356   */\n      mstore\n        /* \"#utility.yul\":11392:11426   */\n      0x4f776e61626c653a2063616c6c6572206973206e6f7420746865206f776e6572\n        /* \"#utility.yul\":11372:11390   */\n      0x44\n      dup3\n      add\n        /* \"#utility.yul\":11365:11427   */\n      mstore\n        /* \"#utility.yul\":11444:11462   */\n      0x64\n      add\n        /* \"contracts/Boost.sol\":45078:45155  require(operatable.owner() == msg.sender, 'Ownable: caller is not the owner') */\n      tag_226\n        /* \"#utility.yul\":11112:11468   */\n      jump\n        /* \"contracts/Boost.sol\":45078:45155  require(operatable.owner() == msg.sender, 'Ownable: caller is not the owner') */\n    tag_399:\n        /* \"contracts/Boost.sol\":56806:56869  totalAllocPoint.sub(poolInfo[_pid].allocPoint).add(_allocPoint) */\n      tag_402\n        /* \"contracts/Boost.sol\":56857:56868  _allocPoint */\n      dup3\n        /* \"contracts/Boost.sol\":56806:56852  totalAllocPoint.sub(poolInfo[_pid].allocPoint) */\n      tag_403\n        /* \"contracts/Boost.sol\":56826:56834  poolInfo */\n      0x0e\n        /* \"contracts/Boost.sol\":56835:56839  _pid */\n      dup7\n        /* \"contracts/Boost.sol\":56826:56840  poolInfo[_pid] */\n      dup2\n      sload\n      dup2\n      lt\n      tag_405\n      jumpi\n      tag_405\n      tag_277\n      jump\t// in\n    tag_405:\n      swap1\n      0x00\n      mstore\n      keccak256(0x00, 0x20)\n      swap1\n      0x03\n      mul\n      add\n        /* \"contracts/Boost.sol\":56826:56851  poolInfo[_pid].allocPoint */\n      0x01\n      add\n      sload\n        /* \"contracts/Boost.sol\":56806:56821  totalAllocPoint */\n      sload(0x0d)\n        /* \"contracts/Boost.sol\":56806:56825  totalAllocPoint.sub */\n      tag_357\n      swap1\n        /* \"contracts/Boost.sol\":56806:56852  totalAllocPoint.sub(poolInfo[_pid].allocPoint) */\n      swap2\n      swap1\n      0xffffffff\n      and\n      jump\t// in\n    tag_403:\n        /* \"contracts/Boost.sol\":56806:56856  totalAllocPoint.sub(poolInfo[_pid].allocPoint).add */\n      swap1\n      tag_222\n        /* \"contracts/Boost.sol\":56806:56869  totalAllocPoint.sub(poolInfo[_pid].allocPoint).add(_allocPoint) */\n      jump\t// in\n    tag_402:\n        /* \"contracts/Boost.sol\":56788:56803  totalAllocPoint */\n      0x0d\n        /* \"contracts/Boost.sol\":56788:56869  totalAllocPoint = totalAllocPoint.sub(poolInfo[_pid].allocPoint).add(_allocPoint) */\n      dup2\n      swap1\n      sstore\n      pop\n        /* \"contracts/Boost.sol\":56907:56918  _allocPoint */\n      dup2\n        /* \"contracts/Boost.sol\":56879:56887  poolInfo */\n      0x0e\n        /* \"contracts/Boost.sol\":56888:56892  _pid */\n      dup5\n        /* \"contracts/Boost.sol\":56879:56893  poolInfo[_pid] */\n      dup2\n      sload\n      dup2\n      lt\n      tag_408\n      jumpi\n      tag_408\n      tag_277\n      jump\t// in\n    tag_408:\n      swap1\n      0x00\n      mstore\n      keccak256(0x00, 0x20)\n      swap1\n      0x03\n      mul\n      add\n        /* \"contracts/Boost.sol\":56879:56904  poolInfo[_pid].allocPoint */\n      0x01\n      add\n        /* \"contracts/Boost.sol\":56879:56918  poolInfo[_pid].allocPoint = _allocPoint */\n      dup2\n      swap1\n      sstore\n      pop\n        /* \"contracts/Boost.sol\":56932:56943  _withUpdate */\n      dup1\n        /* \"contracts/Boost.sol\":56928:56987  if (_withUpdate) {... */\n      iszero\n      tag_273\n      jumpi\n        /* \"contracts/Boost.sol\":56959:56976  massUpdatePools() */\n      tag_273\n        /* \"contracts/Boost.sol\":56959:56974  massUpdatePools */\n      tag_140\n        /* \"contracts/Boost.sol\":56959:56976  massUpdatePools() */\n      jump\t// in\n        /* \"contracts/Boost.sol\":58189:58411  function attachTokenToGauge(uint tokenId, address account) external {... */\n    tag_150:\n        /* \"contracts/Boost.sol\":58283:58293  msg.sender */\n      caller\n        /* \"contracts/Boost.sol\":58275:58294  isGauge[msg.sender] */\n      0x00\n      swap1\n      dup2\n      mstore\n        /* \"contracts/Boost.sol\":58275:58282  isGauge */\n      0x13\n        /* \"contracts/Boost.sol\":58275:58294  isGauge[msg.sender] */\n      0x20\n      mstore\n      0x40\n      swap1\n      keccak256\n      sload\n      0xff\n      and\n        /* \"contracts/Boost.sol\":58267:58295  require(isGauge[msg.sender]) */\n      tag_413\n      jumpi\n      0x00\n      dup1\n      revert\n    tag_413:\n        /* \"contracts/Boost.sol\":58309:58320  tokenId > 0 */\n      dup2\n      iszero\n        /* \"contracts/Boost.sol\":58305:58353  if (tokenId > 0) IVeToken(veToken).used(tokenId) */\n      tag_414\n      jumpi\n        /* \"contracts/Boost.sol\":58322:58353  IVeToken(veToken).used(tokenId) */\n      mload(0x40)\n      shl(0xe0, 0x020fe6e5)\n      dup2\n      mstore\n      0x04\n      dup2\n      add\n        /* \"#utility.yul\":756:781   */\n      dup4\n      swap1\n      mstore\n        /* \"contracts/Boost.sol\":58331:58338  veToken */\n      immutable(\"0xeb87824f736d67edaf3560d951b0b69190da7967ad8d2ed342933b58834b3812\")\n      sub(shl(0xa0, 0x01), 0x01)\n        /* \"contracts/Boost.sol\":58322:58344  IVeToken(veToken).used */\n      and\n      swap1\n      0x020fe6e5\n      swap1\n        /* \"#utility.yul\":729:747   */\n      0x24\n      add\n        /* \"contracts/Boost.sol\":58322:58353  IVeToken(veToken).used(tokenId) */\n      0x00\n      mload(0x40)\n      dup1\n      dup4\n      sub\n      dup2\n      0x00\n      dup8\n      dup1\n      extcodesize\n      iszero\n      dup1\n      iszero\n      tag_416\n      jumpi\n      0x00\n      dup1\n      revert\n    tag_416:\n      pop\n      gas\n      call\n      iszero\n      dup1\n      iszero\n      tag_418\n      jumpi\n      returndatasize\n      0x00\n      dup1\n      returndatacopy\n      revert(0x00, returndatasize)\n    tag_418:\n      pop\n      pop\n      pop\n      pop\n        /* \"contracts/Boost.sol\":58305:58353  if (tokenId > 0) IVeToken(veToken).used(tokenId) */\n    tag_414:\n        /* \"contracts/Boost.sol\":58368:58404  Attach(account, msg.sender, tokenId) */\n      mload(0x40)\n        /* \"#utility.yul\":756:781   */\n      dup3\n      dup2\n      mstore\n        /* \"contracts/Boost.sol\":58384:58394  msg.sender */\n      caller\n      swap1\n      sub(shl(0xa0, 0x01), 0x01)\n        /* \"contracts/Boost.sol\":58368:58404  Attach(account, msg.sender, tokenId) */\n      dup4\n      and\n      swap1\n      0x60940192810a6fb3bce3fd3e2e3a13fd6ccc7605e963fb87ee971aba829989bd\n      swap1\n        /* \"#utility.yul\":744:746   */\n      0x20\n        /* \"#utility.yul\":729:747   */\n      add\n        /* \"contracts/Boost.sol\":58368:58404  Attach(account, msg.sender, tokenId) */\n      tag_323\n        /* \"#utility.yul\":610:787   */\n      jump\n        /* \"contracts/Boost.sol\":47473:47566  function setMintMulti(uint256 _multi) public onlyOperator {... */\n    tag_153:\n        /* \"contracts/Boost.sol\":44971:44981  operatable */\n      sload(0x01)\n        /* \"contracts/Boost.sol\":44971:44992  operatable.operator() */\n      0x40\n      dup1\n      mload\n      shl(0xe0, 0x570ca735)\n      dup2\n      mstore\n      swap1\n      mload\n        /* \"contracts/Boost.sol\":44996:45006  msg.sender */\n      caller\n      swap3\n      sub(shl(0xa0, 0x01), 0x01)\n        /* \"contracts/Boost.sol\":44971:44981  operatable */\n      and\n      swap2\n        /* \"contracts/Boost.sol\":44971:44990  operatable.operator */\n      0x570ca735\n      swap2\n        /* \"contracts/Boost.sol\":44971:44992  operatable.operator() */\n      0x04\n      dup1\n      dup4\n      add\n      swap3\n      0x20\n      swap3\n      swap2\n      swap1\n      dup3\n      swap1\n      sub\n      add\n      dup2\n        /* \"contracts/Boost.sol\":44971:44981  operatable */\n      dup7\n        /* \"contracts/Boost.sol\":44971:44992  operatable.operator() */\n      gas\n      staticcall\n      iszero\n      dup1\n      iszero\n      tag_422\n      jumpi\n      returndatasize\n      0x00\n      dup1\n      returndatacopy\n      revert(0x00, returndatasize)\n    tag_422:\n      pop\n      pop\n      pop\n      pop\n      mload(0x40)\n      returndatasize\n      not(0x1f)\n      0x1f\n      dup3\n      add\n      and\n      dup3\n      add\n      dup1\n      0x40\n      mstore\n      pop\n      dup2\n      add\n      swap1\n      tag_423\n      swap2\n      swap1\n      tag_245\n      jump\t// in\n    tag_423:\n      sub(shl(0xa0, 0x01), 0x01)\n        /* \"contracts/Boost.sol\":44971:45006  operatable.operator() == msg.sender */\n      and\n      eq\n        /* \"contracts/Boost.sol\":44963:45023  require(operatable.operator() == msg.sender, 'not operator') */\n      tag_424\n      jumpi\n      mload(0x40)\n      shl(0xe5, 0x461bcd)\n      dup2\n      mstore\n      0x04\n      add\n      tag_226\n      swap1\n      tag_330\n      jump\t// in\n    tag_424:\n        /* \"contracts/Boost.sol\":47541:47550  mintMulti */\n      0x06\n        /* \"contracts/Boost.sol\":47541:47559  mintMulti = _multi */\n      sstore\n        /* \"contracts/Boost.sol\":47473:47566  function setMintMulti(uint256 _multi) public onlyOperator {... */\n      jump\t// out\n        /* \"contracts/Boost.sol\":45289:45387  function owner() public view override returns (address) {... */\n    tag_162:\n        /* \"contracts/Boost.sol\":45362:45372  operatable */\n      sload(0x01)\n        /* \"contracts/Boost.sol\":45362:45380  operatable.owner() */\n      0x40\n      dup1\n      mload\n      shl(0xe0, 0x8da5cb5b)\n      dup2\n      mstore\n      swap1\n      mload\n        /* \"contracts/Boost.sol\":45336:45343  address */\n      0x00\n      swap3\n      sub(shl(0xa0, 0x01), 0x01)\n        /* \"contracts/Boost.sol\":45362:45372  operatable */\n      and\n      swap2\n        /* \"contracts/Boost.sol\":45362:45378  operatable.owner */\n      0x8da5cb5b\n      swap2\n        /* \"contracts/Boost.sol\":45362:45380  operatable.owner() */\n      0x04\n      dup1\n      dup4\n      add\n      swap3\n      0x20\n      swap3\n      swap2\n      swap1\n      dup3\n      swap1\n      sub\n      add\n      dup2\n        /* \"contracts/Boost.sol\":45362:45372  operatable */\n      dup7\n        /* \"contracts/Boost.sol\":45362:45380  operatable.owner() */\n      gas\n      staticcall\n      iszero\n      dup1\n      iszero\n      tag_385\n      jumpi\n      returndatasize\n      0x00\n      dup1\n      returndatacopy\n      revert(0x00, returndatasize)\n        /* \"contracts/Boost.sol\":58417:58596  function emitDeposit(uint tokenId, address account, uint amount) external {... */\n    tag_170:\n        /* \"contracts/Boost.sol\":58517:58527  msg.sender */\n      caller\n        /* \"contracts/Boost.sol\":58509:58528  isGauge[msg.sender] */\n      0x00\n      swap1\n      dup2\n      mstore\n        /* \"contracts/Boost.sol\":58509:58516  isGauge */\n      0x13\n        /* \"contracts/Boost.sol\":58509:58528  isGauge[msg.sender] */\n      0x20\n      mstore\n      0x40\n      swap1\n      keccak256\n      sload\n      0xff\n      and\n        /* \"contracts/Boost.sol\":58501:58529  require(isGauge[msg.sender]) */\n      tag_432\n      jumpi\n      0x00\n      dup1\n      revert\n    tag_432:\n        /* \"contracts/Boost.sol\":58544:58589  Deposit(account, msg.sender, tokenId, amount) */\n      0x40\n      dup1\n      mload\n        /* \"#utility.yul\":13157:13182   */\n      dup5\n      dup2\n      mstore\n        /* \"#utility.yul\":13213:13215   */\n      0x20\n        /* \"#utility.yul\":13198:13216   */\n      dup2\n      add\n        /* \"#utility.yul\":13191:13225   */\n      dup4\n      swap1\n      mstore\n        /* \"contracts/Boost.sol\":58561:58571  msg.sender */\n      caller\n      swap2\n      sub(shl(0xa0, 0x01), 0x01)\n        /* \"contracts/Boost.sol\":58544:58589  Deposit(account, msg.sender, tokenId, amount) */\n      dup6\n      and\n      swap2\n      0xdcbc1c05240f31ff3ad067ef1ee35ce4997762752e3a095284754544f4c709d7\n      swap2\n        /* \"#utility.yul\":13130:13148   */\n      add\n        /* \"contracts/Boost.sol\":58544:58589  Deposit(account, msg.sender, tokenId, amount) */\n    tag_433:\n      mload(0x40)\n      dup1\n      swap2\n      sub\n      swap1\n      log3\n        /* \"contracts/Boost.sol\":58417:58596  function emitDeposit(uint tokenId, address account, uint amount) external {... */\n      pop\n      pop\n      pop\n      jump\t// out\n        /* \"contracts/Boost.sol\":50071:50113  mapping(uint => address[]) public poolVote */\n    tag_179:\n      mstore(0x20, 0x0b)\n      dup2\n      0x00\n      mstore\n      keccak256(0x00, 0x40)\n      dup2\n      dup2\n      sload\n      dup2\n      lt\n      tag_435\n      jumpi\n      0x00\n      dup1\n      revert\n    tag_435:\n      0x00\n      swap2\n      dup3\n      mstore\n      0x20\n      swap1\n      swap2\n      keccak256\n      add\n      sload\n      sub(shl(0xa0, 0x01), 0x01)\n      and\n      swap2\n      pop\n      dup3\n      swap1\n      pop\n      jump\t// out\n        /* \"contracts/Boost.sol\":47572:47677  function setMinTokenReward(uint256 _reward) public onlyOperator {... */\n    tag_183:\n        /* \"contracts/Boost.sol\":44971:44981  operatable */\n      sload(0x01)\n        /* \"contracts/Boost.sol\":44971:44992  operatable.operator() */\n      0x40\n      dup1\n      mload\n      shl(0xe0, 0x570ca735)\n      dup2\n      mstore\n      swap1\n      mload\n        /* \"contracts/Boost.sol\":44996:45006  msg.sender */\n      caller\n      swap3\n      sub(shl(0xa0, 0x01), 0x01)\n        /* \"contracts/Boost.sol\":44971:44981  operatable */\n      and\n      swap2\n        /* \"contracts/Boost.sol\":44971:44990  operatable.operator */\n      0x570ca735\n      swap2\n        /* \"contracts/Boost.sol\":44971:44992  operatable.operator() */\n      0x04\n      dup1\n      dup4\n      add\n      swap3\n      0x20\n      swap3\n      swap2\n      swap1\n      dup3\n      swap1\n      sub\n      add\n      dup2\n        /* \"contracts/Boost.sol\":44971:44981  operatable */\n      dup7\n        /* \"contracts/Boost.sol\":44971:44992  operatable.operator() */\n      gas\n      staticcall\n      iszero\n      dup1\n      iszero\n      tag_439\n      jumpi\n      returndatasize\n      0x00\n      dup1\n      returndatacopy\n      revert(0x00, returndatasize)\n    tag_439:\n      pop\n      pop\n      pop\n      pop\n      mload(0x40)\n      returndatasize\n      not(0x1f)\n      0x1f\n      dup3\n      add\n      and\n      dup3\n      add\n      dup1\n      0x40\n      mstore\n      pop\n      dup2\n      add\n      swap1\n      tag_440\n      swap2\n      swap1\n      tag_245\n      jump\t// in\n    tag_440:\n      sub(shl(0xa0, 0x01), 0x01)\n        /* \"contracts/Boost.sol\":44971:45006  operatable.operator() == msg.sender */\n      and\n      eq\n        /* \"contracts/Boost.sol\":44963:45023  require(operatable.operator() == msg.sender, 'not operator') */\n      tag_441\n      jumpi\n      mload(0x40)\n      shl(0xe5, 0x461bcd)\n      dup2\n      mstore\n      0x04\n      add\n      tag_226\n      swap1\n      tag_330\n      jump\t// in\n    tag_441:\n        /* \"contracts/Boost.sol\":47646:47660  minTokenReward */\n      0x07\n        /* \"contracts/Boost.sol\":47646:47670  minTokenReward = _reward */\n      sstore\n        /* \"contracts/Boost.sol\":47572:47677  function setMinTokenReward(uint256 _reward) public onlyOperator {... */\n      jump\t// out\n        /* \"contracts/Boost.sol\":55014:55036  address[] public pools */\n    tag_191:\n      0x10\n      dup2\n      dup2\n      sload\n      dup2\n      lt\n      tag_444\n      jumpi\n      0x00\n      dup1\n      revert\n    tag_444:\n      0x00\n      swap2\n      dup3\n      mstore\n      0x20\n      swap1\n      swap2\n      keccak256\n      add\n      sload\n      sub(shl(0xa0, 0x01), 0x01)\n      and\n      swap1\n      pop\n      dup2\n      jump\t// out\n        /* \"contracts/Boost.sol\":47373:47467  function setHalvingPeriod(uint256 _block) public onlyOperator {... */\n    tag_199:\n        /* \"contracts/Boost.sol\":44971:44981  operatable */\n      sload(0x01)\n        /* \"contracts/Boost.sol\":44971:44992  operatable.operator() */\n      0x40\n      dup1\n      mload\n      shl(0xe0, 0x570ca735)\n      dup2\n      mstore\n      swap1\n      mload\n        /* \"contracts/Boost.sol\":44996:45006  msg.sender */\n      caller\n      swap3\n      sub(shl(0xa0, 0x01), 0x01)\n        /* \"contracts/Boost.sol\":44971:44981  operatable */\n      and\n      swap2\n        /* \"contracts/Boost.sol\":44971:44990  operatable.operator */\n      0x570ca735\n      swap2\n        /* \"contracts/Boost.sol\":44971:44992  operatable.operator() */\n      0x04\n      dup1\n      dup4\n      add\n      swap3\n      0x20\n      swap3\n      swap2\n      swap1\n      dup3\n      swap1\n      sub\n      add\n      dup2\n        /* \"contracts/Boost.sol\":44971:44981  operatable */\n      dup7\n        /* \"contracts/Boost.sol\":44971:44992  operatable.operator() */\n      gas\n      staticcall\n      iszero\n      dup1\n      iszero\n      tag_448\n      jumpi\n      returndatasize\n      0x00\n      dup1\n      returndatacopy\n      revert(0x00, returndatasize)\n    tag_448:\n      pop\n      pop\n      pop\n      pop\n      mload(0x40)\n      returndatasize\n      not(0x1f)\n      0x1f\n      dup3\n      add\n      and\n      dup3\n      add\n      dup1\n      0x40\n      mstore\n      pop\n      dup2\n      add\n      swap1\n      tag_449\n      swap2\n      swap1\n      tag_245\n      jump\t// in\n    tag_449:\n      sub(shl(0xa0, 0x01), 0x01)\n        /* \"contracts/Boost.sol\":44971:45006  operatable.operator() == msg.sender */\n      and\n      eq\n        /* \"contracts/Boost.sol\":44963:45023  require(operatable.operator() == msg.sender, 'not operator') */\n      tag_450\n      jumpi\n      mload(0x40)\n      shl(0xe5, 0x461bcd)\n      dup2\n      mstore\n      0x04\n      add\n      tag_226\n      swap1\n      tag_330\n      jump\t// in\n    tag_450:\n        /* \"contracts/Boost.sol\":47445:47451  period */\n      0x05\n        /* \"contracts/Boost.sol\":47445:47460  period = _block */\n      sstore\n        /* \"contracts/Boost.sol\":47373:47467  function setHalvingPeriod(uint256 _block) public onlyOperator {... */\n      jump\t// out\n        /* \"contracts/Boost.sol\":58834:59015  function emitWithdraw(uint tokenId, address account, uint amount) external {... */\n    tag_214:\n        /* \"contracts/Boost.sol\":58935:58945  msg.sender */\n      caller\n        /* \"contracts/Boost.sol\":58927:58946  isGauge[msg.sender] */\n      0x00\n      swap1\n      dup2\n      mstore\n        /* \"contracts/Boost.sol\":58927:58934  isGauge */\n      0x13\n        /* \"contracts/Boost.sol\":58927:58946  isGauge[msg.sender] */\n      0x20\n      mstore\n      0x40\n      swap1\n      keccak256\n      sload\n      0xff\n      and\n        /* \"contracts/Boost.sol\":58919:58947  require(isGauge[msg.sender]) */\n      tag_454\n      jumpi\n      0x00\n      dup1\n      revert\n    tag_454:\n        /* \"contracts/Boost.sol\":58962:59008  Withdraw(account, msg.sender, tokenId, amount) */\n      0x40\n      dup1\n      mload\n        /* \"#utility.yul\":13157:13182   */\n      dup5\n      dup2\n      mstore\n        /* \"#utility.yul\":13213:13215   */\n      0x20\n        /* \"#utility.yul\":13198:13216   */\n      dup2\n      add\n        /* \"#utility.yul\":13191:13225   */\n      dup4\n      swap1\n      mstore\n        /* \"contracts/Boost.sol\":58980:58990  msg.sender */\n      caller\n      swap2\n      sub(shl(0xa0, 0x01), 0x01)\n        /* \"contracts/Boost.sol\":58962:59008  Withdraw(account, msg.sender, tokenId, amount) */\n      dup6\n      and\n      swap2\n      0xf341246adaac6f497bc2a656f546ab9e182111d630394f0c57c710a59a2cb567\n      swap2\n        /* \"#utility.yul\":13130:13148   */\n      add\n        /* \"contracts/Boost.sol\":58962:59008  Withdraw(account, msg.sender, tokenId, amount) */\n      tag_433\n        /* \"#utility.yul\":12983:13231   */\n      jump\n        /* \"contracts/Boost.sol\":53576:53852  function vote(uint tokenId, address[] calldata _poolVote, int256[] calldata _weights) external {... */\n    tag_221:\n        /* \"contracts/Boost.sol\":53689:53745  IVeToken(veToken).isApprovedOrOwner(msg.sender, tokenId) */\n      mload(0x40)\n      shl(0xe0, 0x430c2081)\n      dup2\n      mstore\n        /* \"contracts/Boost.sol\":53725:53735  msg.sender */\n      caller\n        /* \"contracts/Boost.sol\":53689:53745  IVeToken(veToken).isApprovedOrOwner(msg.sender, tokenId) */\n      0x04\n      dup3\n      add\n        /* \"#utility.yul\":10757:10808   */\n      mstore\n        /* \"#utility.yul\":10824:10842   */\n      0x24\n      dup2\n      add\n        /* \"#utility.yul\":10817:10851   */\n      dup7\n      swap1\n      mstore\n        /* \"contracts/Boost.sol\":53698:53705  veToken */\n      immutable(\"0xeb87824f736d67edaf3560d951b0b69190da7967ad8d2ed342933b58834b3812\")\n      sub(shl(0xa0, 0x01), 0x01)\n        /* \"contracts/Boost.sol\":53689:53724  IVeToken(veToken).isApprovedOrOwner */\n      and\n      swap1\n      0x430c2081\n      swap1\n        /* \"#utility.yul\":10730:10748   */\n      0x44\n      add\n        /* \"contracts/Boost.sol\":53689:53745  IVeToken(veToken).isApprovedOrOwner(msg.sender, tokenId) */\n      0x20\n      mload(0x40)\n      dup1\n      dup4\n      sub\n      dup2\n      dup7\n      gas\n      staticcall\n      iszero\n      dup1\n      iszero\n      tag_459\n      jumpi\n      returndatasize\n      0x00\n      dup1\n      returndatacopy\n      revert(0x00, returndatasize)\n    tag_459:\n      pop\n      pop\n      pop\n      pop\n      mload(0x40)\n      returndatasize\n      not(0x1f)\n      0x1f\n      dup3\n      add\n      and\n      dup3\n      add\n      dup1\n      0x40\n      mstore\n      pop\n      dup2\n      add\n      swap1\n      tag_460\n      swap2\n      swap1\n      tag_251\n      jump\t// in\n    tag_460:\n        /* \"contracts/Boost.sol\":53681:53746  require(IVeToken(veToken).isApprovedOrOwner(msg.sender, tokenId)) */\n      tag_461\n      jumpi\n      0x00\n      dup1\n      revert\n    tag_461:\n        /* \"contracts/Boost.sol\":53764:53799  _poolVote.length == _weights.length */\n      dup3\n      dup2\n      eq\n        /* \"contracts/Boost.sol\":53756:53800  require(_poolVote.length == _weights.length) */\n      tag_462\n      jumpi\n      0x00\n      dup1\n      revert\n    tag_462:\n        /* \"contracts/Boost.sol\":53810:53845  _vote(tokenId, _poolVote, _weights) */\n      tag_298\n        /* \"contracts/Boost.sol\":53816:53823  tokenId */\n      dup6\n        /* \"contracts/Boost.sol\":53825:53834  _poolVote */\n      dup6\n      dup6\n        /* \"contracts/Boost.sol\":53810:53845  _vote(tokenId, _poolVote, _weights) */\n      dup1\n      dup1\n      0x20\n      mul\n      0x20\n      add\n      mload(0x40)\n      swap1\n      dup2\n      add\n      0x40\n      mstore\n      dup1\n      swap4\n      swap3\n      swap2\n      swap1\n      dup2\n      dup2\n      mstore\n      0x20\n      add\n      dup4\n      dup4\n      0x20\n      mul\n      dup1\n      dup3\n      dup5\n      calldatacopy\n      0x00\n      swap3\n      add\n      swap2\n      swap1\n      swap2\n      mstore\n      pop\n      pop\n      0x40\n      dup1\n      mload\n      0x20\n      dup1\n      dup10\n      mul\n      dup3\n      dup2\n      add\n      dup3\n      add\n      swap1\n      swap4\n      mstore\n      dup9\n      dup3\n      mstore\n      swap1\n      swap4\n      pop\n        /* \"contracts/Boost.sol\":53836:53844  _weights */\n      dup9\n      swap3\n      pop\n      dup8\n      swap2\n      dup3\n      swap2\n        /* \"contracts/Boost.sol\":53810:53845  _vote(tokenId, _poolVote, _weights) */\n      dup6\n      add\n      swap1\n        /* \"contracts/Boost.sol\":53836:53844  _weights */\n      dup5\n      swap1\n        /* \"contracts/Boost.sol\":53810:53845  _vote(tokenId, _poolVote, _weights) */\n      dup1\n        /* \"contracts/Boost.sol\":53836:53844  _weights */\n      dup3\n        /* \"contracts/Boost.sol\":53810:53845  _vote(tokenId, _poolVote, _weights) */\n      dup5\n      calldatacopy\n      0x00\n      swap3\n      add\n      swap2\n      swap1\n      swap2\n      mstore\n      pop\n        /* \"contracts/Boost.sol\":53810:53815  _vote */\n      tag_315\n      swap3\n      pop\n      pop\n      pop\n        /* \"contracts/Boost.sol\":53810:53845  _vote(tokenId, _poolVote, _weights) */\n      jump\t// in\n        /* \"contracts/Boost.sol\":25686:25782  function add(uint256 a, uint256 b) internal pure returns (uint256) {... */\n    tag_222:\n        /* \"contracts/Boost.sol\":25744:25751  uint256 */\n      0x00\n        /* \"contracts/Boost.sol\":25770:25775  a + b */\n      tag_465\n        /* \"contracts/Boost.sol\":25774:25775  b */\n      dup3\n        /* \"contracts/Boost.sol\":25770:25771  a */\n      dup5\n        /* \"contracts/Boost.sol\":25770:25775  a + b */\n      tag_466\n      jump\t// in\n    tag_465:\n        /* \"contracts/Boost.sol\":25763:25775  return a + b */\n      swap4\n        /* \"contracts/Boost.sol\":25686:25782  function add(uint256 a, uint256 b) internal pure returns (uint256) {... */\n      swap3\n      pop\n      pop\n      pop\n      jump\t// out\n        /* \"contracts/Boost.sol\":59223:59362  function _updateForGauge(address _gauge) internal {... */\n    tag_253:\n      sub(shl(0xa0, 0x01), 0x01)\n        /* \"contracts/Boost.sol\":59299:59319  poolForGauge[_gauge] */\n      dup1\n      dup3\n      and\n        /* \"contracts/Boost.sol\":59283:59296  address _pool */\n      0x00\n        /* \"contracts/Boost.sol\":59299:59319  poolForGauge[_gauge] */\n      swap1\n      dup2\n      mstore\n        /* \"contracts/Boost.sol\":59299:59311  poolForGauge */\n      0x12\n        /* \"contracts/Boost.sol\":59299:59319  poolForGauge[_gauge] */\n      0x20\n      swap1\n      dup2\n      mstore\n      0x40\n      dup1\n      dup4\n      keccak256\n      sload\n      swap1\n      swap4\n      and\n        /* \"contracts/Boost.sol\":59340:59354  LpOfPid[_pool] */\n      dup1\n      dup4\n      mstore\n        /* \"contracts/Boost.sol\":59340:59347  LpOfPid */\n      0x0f\n        /* \"contracts/Boost.sol\":59340:59354  LpOfPid[_pool] */\n      swap1\n      swap2\n      mstore\n      swap2\n      swap1\n      keccak256\n      sload\n        /* \"contracts/Boost.sol\":59329:59355  updatePool(LpOfPid[_pool]) */\n      tag_389\n      swap1\n        /* \"contracts/Boost.sol\":59329:59339  updatePool */\n      tag_133\n        /* \"contracts/Boost.sol\":59329:59355  updatePool(LpOfPid[_pool]) */\n      jump\t// in\n        /* \"contracts/Boost.sol\":50857:51706  function _reset(uint _tokenId) internal {... */\n    tag_294:\n        /* \"contracts/Boost.sol\":50907:50934  address[] storage _poolVote */\n      0x00\n        /* \"contracts/Boost.sol\":50937:50955  poolVote[_tokenId] */\n      dup2\n      dup2\n      mstore\n        /* \"contracts/Boost.sol\":50937:50945  poolVote */\n      0x0b\n        /* \"contracts/Boost.sol\":50937:50955  poolVote[_tokenId] */\n      0x20\n      mstore\n      0x40\n      dup2\n      keccak256\n        /* \"contracts/Boost.sol\":50985:51001  _poolVote.length */\n      dup1\n      sload\n        /* \"contracts/Boost.sol\":50937:50955  poolVote[_tokenId] */\n      swap1\n      swap2\n        /* \"contracts/Boost.sol\":50907:50934  address[] storage _poolVote */\n      dup1\n        /* \"contracts/Boost.sol\":51045:51584  for (uint i = 0; i < _poolVoteCnt; i ++) {... */\n    tag_470:\n        /* \"contracts/Boost.sol\":51066:51078  _poolVoteCnt */\n      dup3\n        /* \"contracts/Boost.sol\":51062:51063  i */\n      dup2\n        /* \"contracts/Boost.sol\":51062:51078  i < _poolVoteCnt */\n      lt\n        /* \"contracts/Boost.sol\":51045:51584  for (uint i = 0; i < _poolVoteCnt; i ++) {... */\n      iszero\n      tag_471\n      jumpi\n        /* \"contracts/Boost.sol\":51100:51113  address _pool */\n      0x00\n        /* \"contracts/Boost.sol\":51116:51125  _poolVote */\n      dup5\n        /* \"contracts/Boost.sol\":51126:51127  i */\n      dup3\n        /* \"contracts/Boost.sol\":51116:51128  _poolVote[i] */\n      dup2\n      sload\n      dup2\n      lt\n      tag_474\n      jumpi\n      tag_474\n      tag_277\n      jump\t// in\n    tag_474:\n      0x00\n      swap2\n      dup3\n      mstore\n      0x20\n      dup1\n      dup4\n      keccak256\n      swap1\n      swap2\n      add\n      sload\n        /* \"contracts/Boost.sol\":51158:51173  votes[_tokenId] */\n      dup9\n      dup4\n      mstore\n        /* \"contracts/Boost.sol\":51158:51163  votes */\n      0x0a\n        /* \"contracts/Boost.sol\":51158:51173  votes[_tokenId] */\n      dup3\n      mstore\n      0x40\n      dup1\n      dup5\n      keccak256\n      sub(shl(0xa0, 0x01), 0x01)\n        /* \"contracts/Boost.sol\":51116:51128  _poolVote[i] */\n      swap1\n      swap3\n      and\n        /* \"contracts/Boost.sol\":51158:51180  votes[_tokenId][_pool] */\n      dup1\n      dup6\n      mstore\n      swap2\n      swap1\n      swap3\n      mstore\n      swap2\n      keccak256\n      sload\n        /* \"contracts/Boost.sol\":51116:51128  _poolVote[i] */\n      swap1\n      swap2\n      pop\n        /* \"contracts/Boost.sol\":51199:51210  _votes != 0 */\n      dup1\n      iszero\n        /* \"contracts/Boost.sol\":51195:51574  if (_votes != 0) {... */\n      tag_476\n      jumpi\n        /* \"contracts/Boost.sol\":51230:51252  _updatePoolInfo(_pool) */\n      tag_477\n        /* \"contracts/Boost.sol\":51246:51251  _pool */\n      dup3\n        /* \"contracts/Boost.sol\":51230:51245  _updatePoolInfo */\n      tag_478\n        /* \"contracts/Boost.sol\":51230:51252  _updatePoolInfo(_pool) */\n      jump\t// in\n    tag_477:\n      sub(shl(0xa0, 0x01), 0x01)\n        /* \"contracts/Boost.sol\":51270:51284  weights[_pool] */\n      dup3\n      and\n      0x00\n      swap1\n      dup2\n      mstore\n        /* \"contracts/Boost.sol\":51270:51277  weights */\n      0x09\n        /* \"contracts/Boost.sol\":51270:51284  weights[_pool] */\n      0x20\n      mstore\n      0x40\n      dup2\n      keccak256\n        /* \"contracts/Boost.sol\":51270:51294  weights[_pool] -= _votes */\n      dup1\n      sload\n        /* \"contracts/Boost.sol\":51288:51294  _votes */\n      dup4\n      swap3\n        /* \"contracts/Boost.sol\":51270:51284  weights[_pool] */\n      swap1\n        /* \"contracts/Boost.sol\":51270:51294  weights[_pool] -= _votes */\n      tag_479\n      swap1\n        /* \"contracts/Boost.sol\":51288:51294  _votes */\n      dup5\n      swap1\n        /* \"contracts/Boost.sol\":51270:51294  weights[_pool] -= _votes */\n      tag_480\n      jump\t// in\n    tag_479:\n      swap1\n      swap2\n      sstore\n      pop\n      pop\n        /* \"contracts/Boost.sol\":51312:51327  votes[_tokenId] */\n      0x00\n      dup8\n      dup2\n      mstore\n        /* \"contracts/Boost.sol\":51312:51317  votes */\n      0x0a\n        /* \"contracts/Boost.sol\":51312:51327  votes[_tokenId] */\n      0x20\n      swap1\n      dup2\n      mstore\n      0x40\n      dup1\n      dup4\n      keccak256\n      sub(shl(0xa0, 0x01), 0x01)\n        /* \"contracts/Boost.sol\":51312:51334  votes[_tokenId][_pool] */\n      dup7\n      and\n      dup5\n      mstore\n      swap1\n      swap2\n      mstore\n      dup2\n      keccak256\n        /* \"contracts/Boost.sol\":51312:51344  votes[_tokenId][_pool] -= _votes */\n      dup1\n      sload\n        /* \"contracts/Boost.sol\":51338:51344  _votes */\n      dup4\n      swap3\n        /* \"contracts/Boost.sol\":51312:51327  votes[_tokenId] */\n      swap1\n        /* \"contracts/Boost.sol\":51312:51344  votes[_tokenId][_pool] -= _votes */\n      tag_481\n      swap1\n        /* \"contracts/Boost.sol\":51338:51344  _votes */\n      dup5\n      swap1\n        /* \"contracts/Boost.sol\":51312:51344  votes[_tokenId][_pool] -= _votes */\n      tag_480\n      jump\t// in\n    tag_481:\n      swap1\n      swap2\n      sstore\n      pop\n      pop\n        /* \"contracts/Boost.sol\":51375:51376  0 */\n      0x00\n        /* \"contracts/Boost.sol\":51366:51376  _votes > 0 */\n      dup2\n      sgt\n        /* \"contracts/Boost.sol\":51362:51510  if (_votes > 0) {... */\n      iszero\n      tag_482\n      jumpi\n        /* \"contracts/Boost.sol\":51400:51422  _totalWeight += _votes */\n      tag_483\n        /* \"contracts/Boost.sol\":51416:51422  _votes */\n      dup2\n        /* \"contracts/Boost.sol\":51400:51422  _totalWeight += _votes */\n      dup6\n      tag_484\n      jump\t// in\n    tag_483:\n      swap4\n      pop\n        /* \"contracts/Boost.sol\":51362:51510  if (_votes > 0) {... */\n      jump(tag_485)\n    tag_482:\n        /* \"contracts/Boost.sol\":51469:51491  _totalWeight -= _votes */\n      tag_486\n        /* \"contracts/Boost.sol\":51485:51491  _votes */\n      dup2\n        /* \"contracts/Boost.sol\":51469:51491  _totalWeight -= _votes */\n      dup6\n      tag_480\n      jump\t// in\n    tag_486:\n      swap4\n      pop\n        /* \"contracts/Boost.sol\":51362:51510  if (_votes > 0) {... */\n    tag_485:\n        /* \"contracts/Boost.sol\":51532:51559  Abstained(_tokenId, _votes) */\n      0x40\n      dup1\n      mload\n        /* \"#utility.yul\":13157:13182   */\n      dup9\n      dup2\n      mstore\n        /* \"#utility.yul\":13213:13215   */\n      0x20\n        /* \"#utility.yul\":13198:13216   */\n      dup2\n      add\n        /* \"#utility.yul\":13191:13225   */\n      dup4\n      swap1\n      mstore\n        /* \"contracts/Boost.sol\":51532:51559  Abstained(_tokenId, _votes) */\n      0x6b3894ce60b9bbe9d93f1a4e6fc25b6b93cd8222e73ab6348d79c596f5b51de9\n      swap2\n        /* \"#utility.yul\":13130:13148   */\n      add\n        /* \"contracts/Boost.sol\":51532:51559  Abstained(_tokenId, _votes) */\n      mload(0x40)\n      dup1\n      swap2\n      sub\n      swap1\n      log1\n        /* \"contracts/Boost.sol\":51195:51574  if (_votes != 0) {... */\n    tag_476:\n        /* \"contracts/Boost.sol\":51086:51584  {... */\n      pop\n      pop\n        /* \"contracts/Boost.sol\":51080:51084  i ++ */\n      dup1\n      dup1\n      tag_489\n      swap1\n      tag_286\n      jump\t// in\n    tag_489:\n      swap2\n      pop\n      pop\n        /* \"contracts/Boost.sol\":51045:51584  for (uint i = 0; i < _poolVoteCnt; i ++) {... */\n      jump(tag_470)\n    tag_471:\n      pop\n        /* \"contracts/Boost.sol\":51616:51628  _totalWeight */\n      dup1\n        /* \"contracts/Boost.sol\":51593:51604  totalWeight */\n      0x08\n      0x00\n        /* \"contracts/Boost.sol\":51593:51629  totalWeight -= uint256(_totalWeight) */\n      dup3\n      dup3\n      sload\n      tag_490\n      swap2\n      swap1\n      tag_239\n      jump\t// in\n    tag_490:\n      swap1\n      swap2\n      sstore\n      pop\n      pop\n        /* \"contracts/Boost.sol\":51663:51664  0 */\n      0x00\n        /* \"contracts/Boost.sol\":51639:51660  usedWeights[_tokenId] */\n      dup5\n      dup2\n      mstore\n        /* \"contracts/Boost.sol\":51639:51650  usedWeights */\n      0x0c\n        /* \"contracts/Boost.sol\":51639:51660  usedWeights[_tokenId] */\n      0x20\n      swap1\n      dup2\n      mstore\n      0x40\n      dup1\n      dup4\n      keccak256\n        /* \"contracts/Boost.sol\":51639:51664  usedWeights[_tokenId] = 0 */\n      dup4\n      swap1\n      sstore\n        /* \"contracts/Boost.sol\":51681:51689  poolVote */\n      0x0b\n        /* \"contracts/Boost.sol\":51681:51699  poolVote[_tokenId] */\n      swap1\n      swap2\n      mstore\n      dup2\n      keccak256\n        /* \"contracts/Boost.sol\":51674:51699  delete poolVote[_tokenId] */\n      tag_314\n      swap2\n      tag_492\n      jump\t// in\n        /* \"contracts/Boost.sol\":51712:53198  function _vote(uint _tokenId, address[] memory _poolVote, int256[] memory _weights) internal {... */\n    tag_315:\n        /* \"contracts/Boost.sol\":51815:51831  _reset(_tokenId) */\n      tag_494\n        /* \"contracts/Boost.sol\":51822:51830  _tokenId */\n      dup4\n        /* \"contracts/Boost.sol\":51815:51821  _reset */\n      tag_294\n        /* \"contracts/Boost.sol\":51815:51831  _reset(_tokenId) */\n      jump\t// in\n    tag_494:\n        /* \"contracts/Boost.sol\":51857:51873  _poolVote.length */\n      dup2\n      mload\n        /* \"contracts/Boost.sol\":51907:51947  IVeToken(veToken).balanceOfNFT(_tokenId) */\n      mload(0x40)\n      shl(0xe2, 0x39f890b5)\n      dup2\n      mstore\n      0x04\n      dup2\n      add\n        /* \"#utility.yul\":756:781   */\n      dup6\n      swap1\n      mstore\n        /* \"contracts/Boost.sol\":51841:51854  uint _poolCnt */\n      0x00\n      swap1\n        /* \"contracts/Boost.sol\":51916:51923  veToken */\n      immutable(\"0xeb87824f736d67edaf3560d951b0b69190da7967ad8d2ed342933b58834b3812\")\n      sub(shl(0xa0, 0x01), 0x01)\n        /* \"contracts/Boost.sol\":51907:51937  IVeToken(veToken).balanceOfNFT */\n      and\n      swap1\n      0xe7e242d4\n      swap1\n        /* \"#utility.yul\":729:747   */\n      0x24\n      add\n        /* \"contracts/Boost.sol\":51907:51947  IVeToken(veToken).balanceOfNFT(_tokenId) */\n      0x20\n      mload(0x40)\n      dup1\n      dup4\n      sub\n      dup2\n      dup7\n      gas\n      staticcall\n      iszero\n      dup1\n      iszero\n      tag_497\n      jumpi\n      returndatasize\n      0x00\n      dup1\n      returndatacopy\n      revert(0x00, returndatasize)\n    tag_497:\n      pop\n      pop\n      pop\n      pop\n      mload(0x40)\n      returndatasize\n      not(0x1f)\n      0x1f\n      dup3\n      add\n      and\n      dup3\n      add\n      dup1\n      0x40\n      mstore\n      pop\n      dup2\n      add\n      swap1\n      tag_498\n      swap2\n      swap1\n      tag_353\n      jump\t// in\n    tag_498:\n        /* \"contracts/Boost.sol\":51883:51948  int256 _weight = int256(IVeToken(veToken).balanceOfNFT(_tokenId)) */\n      swap1\n      pop\n        /* \"contracts/Boost.sol\":51958:51981  int256 _totalVoteWeight */\n      0x00\n        /* \"contracts/Boost.sol\":51995:52014  int256 _totalWeight */\n      dup1\n        /* \"contracts/Boost.sol\":52028:52046  int256 _usedWeight */\n      0x00\n        /* \"contracts/Boost.sol\":52066:52072  uint i */\n      dup1\n        /* \"contracts/Boost.sol\":52061:52187  for (uint i = 0; i < _poolCnt; i++) {... */\n    tag_499:\n        /* \"contracts/Boost.sol\":52082:52090  _poolCnt */\n      dup6\n        /* \"contracts/Boost.sol\":52078:52079  i */\n      dup2\n        /* \"contracts/Boost.sol\":52078:52090  i < _poolCnt */\n      lt\n        /* \"contracts/Boost.sol\":52061:52187  for (uint i = 0; i < _poolCnt; i++) {... */\n      iszero\n      tag_500\n      jumpi\n        /* \"contracts/Boost.sol\":52145:52146  0 */\n      0x00\n        /* \"contracts/Boost.sol\":52131:52139  _weights */\n      dup8\n        /* \"contracts/Boost.sol\":52140:52141  i */\n      dup3\n        /* \"contracts/Boost.sol\":52131:52142  _weights[i] */\n      dup2\n      mload\n      dup2\n      lt\n      tag_503\n      jumpi\n      tag_503\n      tag_277\n      jump\t// in\n    tag_503:\n      0x20\n      mul\n      0x20\n      add\n      add\n      mload\n        /* \"contracts/Boost.sol\":52131:52146  _weights[i] > 0 */\n      sgt\n        /* \"contracts/Boost.sol\":52131:52176  _weights[i] > 0 ? _weights[i] : - _weights[i] */\n      tag_504\n      jumpi\n        /* \"contracts/Boost.sol\":52165:52173  _weights */\n      dup7\n        /* \"contracts/Boost.sol\":52174:52175  i */\n      dup2\n        /* \"contracts/Boost.sol\":52165:52176  _weights[i] */\n      dup2\n      mload\n      dup2\n      lt\n      tag_506\n      jumpi\n      tag_506\n      tag_277\n      jump\t// in\n    tag_506:\n      0x20\n      mul\n      0x20\n      add\n      add\n      mload\n        /* \"contracts/Boost.sol\":52163:52176  - _weights[i] */\n      tag_507\n      swap1\n      tag_508\n      jump\t// in\n    tag_507:\n        /* \"contracts/Boost.sol\":52131:52176  _weights[i] > 0 ? _weights[i] : - _weights[i] */\n      jump(tag_509)\n    tag_504:\n        /* \"contracts/Boost.sol\":52149:52157  _weights */\n      dup7\n        /* \"contracts/Boost.sol\":52158:52159  i */\n      dup2\n        /* \"contracts/Boost.sol\":52149:52160  _weights[i] */\n      dup2\n      mload\n      dup2\n      lt\n      tag_511\n      jumpi\n      tag_511\n      tag_277\n      jump\t// in\n    tag_511:\n      0x20\n      mul\n      0x20\n      add\n      add\n      mload\n        /* \"contracts/Boost.sol\":52131:52176  _weights[i] > 0 ? _weights[i] : - _weights[i] */\n    tag_509:\n        /* \"contracts/Boost.sol\":52111:52176  _totalVoteWeight += _weights[i] > 0 ? _weights[i] : - _weights[i] */\n      tag_512\n      swap1\n      dup6\n      tag_484\n      jump\t// in\n    tag_512:\n      swap4\n      pop\n        /* \"contracts/Boost.sol\":52092:52095  i++ */\n      dup1\n      tag_513\n      dup2\n      tag_286\n      jump\t// in\n    tag_513:\n      swap2\n      pop\n      pop\n        /* \"contracts/Boost.sol\":52061:52187  for (uint i = 0; i < _poolCnt; i++) {... */\n      jump(tag_499)\n    tag_500:\n      pop\n        /* \"contracts/Boost.sol\":52202:52208  uint i */\n      0x00\n        /* \"contracts/Boost.sol\":52197:53027  for (uint i = 0; i < _poolCnt; i++) {... */\n    tag_514:\n        /* \"contracts/Boost.sol\":52218:52226  _poolCnt */\n      dup6\n        /* \"contracts/Boost.sol\":52214:52215  i */\n      dup2\n        /* \"contracts/Boost.sol\":52214:52226  i < _poolCnt */\n      lt\n        /* \"contracts/Boost.sol\":52197:53027  for (uint i = 0; i < _poolCnt; i++) {... */\n      iszero\n      tag_515\n      jumpi\n        /* \"contracts/Boost.sol\":52247:52260  address _pool */\n      0x00\n        /* \"contracts/Boost.sol\":52263:52272  _poolVote */\n      dup9\n        /* \"contracts/Boost.sol\":52273:52274  i */\n      dup3\n        /* \"contracts/Boost.sol\":52263:52275  _poolVote[i] */\n      dup2\n      mload\n      dup2\n      lt\n      tag_518\n      jumpi\n      tag_518\n      tag_277\n      jump\t// in\n    tag_518:\n      0x20\n      mul\n      0x20\n      add\n      add\n      mload\n        /* \"contracts/Boost.sol\":52247:52275  address _pool = _poolVote[i] */\n      swap1\n      pop\n        /* \"contracts/Boost.sol\":52294:52315  isGaugeForPool(_pool) */\n      tag_519\n        /* \"contracts/Boost.sol\":52309:52314  _pool */\n      dup2\n      sub(shl(0xa0, 0x01), 0x01)\n        /* \"contracts/Boost.sol\":59896:59909  gauges[_pool] */\n      swap1\n      dup2\n      and\n        /* \"contracts/Boost.sol\":59866:59870  bool */\n      0x00\n        /* \"contracts/Boost.sol\":59896:59909  gauges[_pool] */\n      swap1\n      dup2\n      mstore\n        /* \"contracts/Boost.sol\":59896:59902  gauges */\n      0x11\n        /* \"contracts/Boost.sol\":59896:59909  gauges[_pool] */\n      0x20\n      swap1\n      dup2\n      mstore\n      0x40\n      dup1\n      dup4\n      keccak256\n      sload\n      swap1\n      swap4\n      and\n        /* \"contracts/Boost.sol\":59888:59910  isGauge[gauges[_pool]] */\n      dup3\n      mstore\n        /* \"contracts/Boost.sol\":59888:59895  isGauge */\n      0x13\n        /* \"contracts/Boost.sol\":59888:59910  isGauge[gauges[_pool]] */\n      swap1\n      mstore\n      keccak256\n      sload\n      0xff\n      and\n      swap1\n        /* \"contracts/Boost.sol\":59795:59917  function isGaugeForPool(address _pool) internal override view returns (bool){... */\n      jump\n        /* \"contracts/Boost.sol\":52294:52315  isGaugeForPool(_pool) */\n    tag_519:\n        /* \"contracts/Boost.sol\":52290:53017  if (isGaugeForPool(_pool)) {... */\n      iszero\n      tag_521\n      jumpi\n        /* \"contracts/Boost.sol\":52335:52353  int256 _poolWeight */\n      0x00\n        /* \"contracts/Boost.sol\":52380:52396  _totalVoteWeight */\n      dup6\n        /* \"contracts/Boost.sol\":52370:52377  _weight */\n      dup8\n        /* \"contracts/Boost.sol\":52356:52364  _weights */\n      dup11\n        /* \"contracts/Boost.sol\":52365:52366  i */\n      dup6\n        /* \"contracts/Boost.sol\":52356:52367  _weights[i] */\n      dup2\n      mload\n      dup2\n      lt\n      tag_523\n      jumpi\n      tag_523\n      tag_277\n      jump\t// in\n    tag_523:\n      0x20\n      mul\n      0x20\n      add\n      add\n      mload\n        /* \"contracts/Boost.sol\":52356:52377  _weights[i] * _weight */\n      tag_524\n      swap2\n      swap1\n      tag_525\n      jump\t// in\n    tag_524:\n        /* \"contracts/Boost.sol\":52356:52396  _weights[i] * _weight / _totalVoteWeight */\n      tag_526\n      swap2\n      swap1\n      tag_527\n      jump\t// in\n    tag_526:\n        /* \"contracts/Boost.sol\":52422:52437  votes[_tokenId] */\n      0x00\n      dup13\n      dup2\n      mstore\n        /* \"contracts/Boost.sol\":52422:52427  votes */\n      0x0a\n        /* \"contracts/Boost.sol\":52422:52437  votes[_tokenId] */\n      0x20\n      swap1\n      dup2\n      mstore\n      0x40\n      dup1\n      dup4\n      keccak256\n      sub(shl(0xa0, 0x01), 0x01)\n        /* \"contracts/Boost.sol\":52422:52444  votes[_tokenId][_pool] */\n      dup8\n      and\n      dup5\n      mstore\n      swap1\n      swap2\n      mstore\n      swap1\n      keccak256\n      sload\n        /* \"contracts/Boost.sol\":52335:52396  int256 _poolWeight = _weights[i] * _weight / _totalVoteWeight */\n      swap1\n      swap2\n      pop\n        /* \"contracts/Boost.sol\":52422:52449  votes[_tokenId][_pool] == 0 */\n      iszero\n        /* \"contracts/Boost.sol\":52414:52469  require(votes[_tokenId][_pool] == 0, \"token pool is 0\") */\n      tag_528\n      jumpi\n      mload(0x40)\n      shl(0xe5, 0x461bcd)\n      dup2\n      mstore\n        /* \"#utility.yul\":15393:15395   */\n      0x20\n        /* \"contracts/Boost.sol\":52414:52469  require(votes[_tokenId][_pool] == 0, \"token pool is 0\") */\n      0x04\n      dup3\n      add\n        /* \"#utility.yul\":15375:15396   */\n      mstore\n        /* \"#utility.yul\":15432:15434   */\n      0x0f\n        /* \"#utility.yul\":15412:15430   */\n      0x24\n      dup3\n      add\n        /* \"#utility.yul\":15405:15435   */\n      mstore\n      shl(0x8c, 0x0746f6b656e20706f6f6c206973203)\n        /* \"#utility.yul\":15451:15469   */\n      0x44\n      dup3\n      add\n        /* \"#utility.yul\":15444:15489   */\n      mstore\n        /* \"#utility.yul\":15506:15524   */\n      0x64\n      add\n        /* \"contracts/Boost.sol\":52414:52469  require(votes[_tokenId][_pool] == 0, \"token pool is 0\") */\n      tag_226\n        /* \"#utility.yul\":15191:15530   */\n      jump\n        /* \"contracts/Boost.sol\":52414:52469  require(votes[_tokenId][_pool] == 0, \"token pool is 0\") */\n    tag_528:\n        /* \"contracts/Boost.sol\":52495:52511  _poolWeight != 0 */\n      dup1\n        /* \"contracts/Boost.sol\":52487:52527  require(_poolWeight != 0, \"weight is 0\") */\n      tag_531\n      jumpi\n      mload(0x40)\n      shl(0xe5, 0x461bcd)\n      dup2\n      mstore\n        /* \"#utility.yul\":15737:15739   */\n      0x20\n        /* \"contracts/Boost.sol\":52487:52527  require(_poolWeight != 0, \"weight is 0\") */\n      0x04\n      dup3\n      add\n        /* \"#utility.yul\":15719:15740   */\n      mstore\n        /* \"#utility.yul\":15776:15778   */\n      0x0b\n        /* \"#utility.yul\":15756:15774   */\n      0x24\n      dup3\n      add\n        /* \"#utility.yul\":15749:15779   */\n      mstore\n      shl(0xac, 0x0776569676874206973203)\n        /* \"#utility.yul\":15795:15813   */\n      0x44\n      dup3\n      add\n        /* \"#utility.yul\":15788:15829   */\n      mstore\n        /* \"#utility.yul\":15846:15864   */\n      0x64\n      add\n        /* \"contracts/Boost.sol\":52487:52527  require(_poolWeight != 0, \"weight is 0\") */\n      tag_226\n        /* \"#utility.yul\":15535:15870   */\n      jump\n        /* \"contracts/Boost.sol\":52487:52527  require(_poolWeight != 0, \"weight is 0\") */\n    tag_531:\n        /* \"contracts/Boost.sol\":52545:52567  _updatePoolInfo(_pool) */\n      tag_534\n        /* \"contracts/Boost.sol\":52561:52566  _pool */\n      dup3\n        /* \"contracts/Boost.sol\":52545:52560  _updatePoolInfo */\n      tag_478\n        /* \"contracts/Boost.sol\":52545:52567  _updatePoolInfo(_pool) */\n      jump\t// in\n    tag_534:\n        /* \"contracts/Boost.sol\":52586:52604  poolVote[_tokenId] */\n      0x00\n      dup12\n      dup2\n      mstore\n        /* \"contracts/Boost.sol\":52586:52594  poolVote */\n      0x0b\n        /* \"contracts/Boost.sol\":52586:52604  poolVote[_tokenId] */\n      0x20\n      swap1\n      dup2\n      mstore\n      0x40\n      dup1\n      dup4\n      keccak256\n        /* \"contracts/Boost.sol\":52586:52616  poolVote[_tokenId].push(_pool) */\n      dup1\n      sload\n      0x01\n      dup2\n      add\n      dup3\n      sstore\n      swap1\n      dup5\n      mstore\n      dup3\n      dup5\n      keccak256\n      add\n      dup1\n      sload\n      not(sub(shl(0xa0, 0x01), 0x01))\n      and\n      sub(shl(0xa0, 0x01), 0x01)\n      dup8\n      and\n      swap1\n      dup2\n      or\n      swap1\n      swap2\n      sstore\n        /* \"contracts/Boost.sol\":52635:52649  weights[_pool] */\n      dup4\n      mstore\n        /* \"contracts/Boost.sol\":52635:52642  weights */\n      0x09\n        /* \"contracts/Boost.sol\":52635:52649  weights[_pool] */\n      swap1\n      swap2\n      mstore\n      dup2\n      keccak256\n        /* \"contracts/Boost.sol\":52635:52664  weights[_pool] += _poolWeight */\n      dup1\n      sload\n        /* \"contracts/Boost.sol\":52653:52664  _poolWeight */\n      dup4\n      swap3\n        /* \"contracts/Boost.sol\":52586:52604  poolVote[_tokenId] */\n      swap1\n        /* \"contracts/Boost.sol\":52635:52664  weights[_pool] += _poolWeight */\n      tag_536\n      swap1\n        /* \"contracts/Boost.sol\":52653:52664  _poolWeight */\n      dup5\n      swap1\n        /* \"contracts/Boost.sol\":52635:52664  weights[_pool] += _poolWeight */\n      tag_484\n      jump\t// in\n    tag_536:\n      swap1\n      swap2\n      sstore\n      pop\n      pop\n        /* \"contracts/Boost.sol\":52682:52697  votes[_tokenId] */\n      0x00\n      dup12\n      dup2\n      mstore\n        /* \"contracts/Boost.sol\":52682:52687  votes */\n      0x0a\n        /* \"contracts/Boost.sol\":52682:52697  votes[_tokenId] */\n      0x20\n      swap1\n      dup2\n      mstore\n      0x40\n      dup1\n      dup4\n      keccak256\n      sub(shl(0xa0, 0x01), 0x01)\n        /* \"contracts/Boost.sol\":52682:52704  votes[_tokenId][_pool] */\n      dup7\n      and\n      dup5\n      mstore\n      swap1\n      swap2\n      mstore\n      dup2\n      keccak256\n        /* \"contracts/Boost.sol\":52682:52719  votes[_tokenId][_pool] += _poolWeight */\n      dup1\n      sload\n        /* \"contracts/Boost.sol\":52708:52719  _poolWeight */\n      dup4\n      swap3\n        /* \"contracts/Boost.sol\":52682:52697  votes[_tokenId] */\n      swap1\n        /* \"contracts/Boost.sol\":52682:52719  votes[_tokenId][_pool] += _poolWeight */\n      tag_537\n      swap1\n        /* \"contracts/Boost.sol\":52708:52719  _poolWeight */\n      dup5\n      swap1\n        /* \"contracts/Boost.sol\":52682:52719  votes[_tokenId][_pool] += _poolWeight */\n      tag_484\n      jump\t// in\n    tag_537:\n      swap1\n      swap2\n      sstore\n      pop\n      pop\n        /* \"contracts/Boost.sol\":52755:52756  0 */\n      0x00\n        /* \"contracts/Boost.sol\":52741:52756  _poolWeight > 0 */\n      dup2\n      sgt\n        /* \"contracts/Boost.sol\":52737:52851  if (_poolWeight > 0) {... */\n      iszero\n      tag_538\n      jumpi\n      jump(tag_539)\n    tag_538:\n        /* \"contracts/Boost.sol\":52819:52832  - _poolWeight */\n      tag_540\n        /* \"contracts/Boost.sol\":52821:52832  _poolWeight */\n      dup2\n        /* \"contracts/Boost.sol\":52819:52832  - _poolWeight */\n      tag_508\n      jump\t// in\n    tag_540:\n        /* \"contracts/Boost.sol\":52805:52832  _poolWeight = - _poolWeight */\n      swap1\n      pop\n        /* \"contracts/Boost.sol\":52737:52851  if (_poolWeight > 0) {... */\n    tag_539:\n        /* \"contracts/Boost.sol\":52868:52894  _usedWeight += _poolWeight */\n      tag_541\n        /* \"contracts/Boost.sol\":52883:52894  _poolWeight */\n      dup2\n        /* \"contracts/Boost.sol\":52868:52894  _usedWeight += _poolWeight */\n      dup6\n      tag_484\n      jump\t// in\n    tag_541:\n      swap4\n      pop\n        /* \"contracts/Boost.sol\":52912:52939  _totalWeight += _poolWeight */\n      tag_542\n        /* \"contracts/Boost.sol\":52928:52939  _poolWeight */\n      dup2\n        /* \"contracts/Boost.sol\":52912:52939  _totalWeight += _poolWeight */\n      dup7\n      tag_484\n      jump\t// in\n    tag_542:\n        /* \"contracts/Boost.sol\":52962:53002  Voted(msg.sender, _tokenId, _poolWeight) */\n      0x40\n      dup1\n      mload\n        /* \"#utility.yul\":13157:13182   */\n      dup14\n      dup2\n      mstore\n        /* \"#utility.yul\":13213:13215   */\n      0x20\n        /* \"#utility.yul\":13198:13216   */\n      dup2\n      add\n        /* \"#utility.yul\":13191:13225   */\n      dup5\n      swap1\n      mstore\n        /* \"contracts/Boost.sol\":52912:52939  _totalWeight += _poolWeight */\n      swap2\n      swap7\n      pop\n        /* \"contracts/Boost.sol\":52968:52978  msg.sender */\n      caller\n      swap2\n        /* \"contracts/Boost.sol\":52962:53002  Voted(msg.sender, _tokenId, _poolWeight) */\n      0x1263a2295e53acd6ef8f655b8afc11fa0f2cf11925be7aa1757d741ef32a926c\n      swap2\n        /* \"#utility.yul\":13130:13148   */\n      add\n        /* \"contracts/Boost.sol\":52962:53002  Voted(msg.sender, _tokenId, _poolWeight) */\n      mload(0x40)\n      dup1\n      swap2\n      sub\n      swap1\n      log2\n        /* \"contracts/Boost.sol\":52317:53017  {... */\n      pop\n        /* \"contracts/Boost.sol\":52290:53017  if (isGaugeForPool(_pool)) {... */\n    tag_521:\n      pop\n        /* \"contracts/Boost.sol\":52228:52231  i++ */\n      dup1\n      tag_544\n      dup2\n      tag_286\n      jump\t// in\n    tag_544:\n      swap2\n      pop\n      pop\n        /* \"contracts/Boost.sol\":52197:53027  for (uint i = 0; i < _poolCnt; i++) {... */\n      jump(tag_514)\n    tag_515:\n      pop\n        /* \"contracts/Boost.sol\":53054:53055  0 */\n      0x00\n        /* \"contracts/Boost.sol\":53040:53051  _usedWeight */\n      dup2\n        /* \"contracts/Boost.sol\":53040:53055  _usedWeight > 0 */\n      sgt\n        /* \"contracts/Boost.sol\":53036:53091  if (_usedWeight > 0) IVeToken(veToken).voting(_tokenId) */\n      iszero\n      tag_545\n      jumpi\n        /* \"contracts/Boost.sol\":53057:53091  IVeToken(veToken).voting(_tokenId) */\n      mload(0x40)\n      shl(0xe0, 0xfd4a77f1)\n      dup2\n      mstore\n      0x04\n      dup2\n      add\n        /* \"#utility.yul\":756:781   */\n      dup10\n      swap1\n      mstore\n        /* \"contracts/Boost.sol\":53066:53073  veToken */\n      immutable(\"0xeb87824f736d67edaf3560d951b0b69190da7967ad8d2ed342933b58834b3812\")\n      sub(shl(0xa0, 0x01), 0x01)\n        /* \"contracts/Boost.sol\":53057:53081  IVeToken(veToken).voting */\n      and\n      swap1\n      0xfd4a77f1\n      swap1\n        /* \"#utility.yul\":729:747   */\n      0x24\n      add\n        /* \"contracts/Boost.sol\":53057:53091  IVeToken(veToken).voting(_tokenId) */\n      0x00\n      mload(0x40)\n      dup1\n      dup4\n      sub\n      dup2\n      0x00\n      dup8\n      dup1\n      extcodesize\n      iszero\n      dup1\n      iszero\n      tag_547\n      jumpi\n      0x00\n      dup1\n      revert\n    tag_547:\n      pop\n      gas\n      call\n      iszero\n      dup1\n      iszero\n      tag_549\n      jumpi\n      returndatasize\n      0x00\n      dup1\n      returndatacopy\n      revert(0x00, returndatasize)\n    tag_549:\n      pop\n      pop\n      pop\n      pop\n        /* \"contracts/Boost.sol\":53036:53091  if (_usedWeight > 0) IVeToken(veToken).voting(_tokenId) */\n    tag_545:\n        /* \"contracts/Boost.sol\":53124:53136  _totalWeight */\n      dup2\n        /* \"contracts/Boost.sol\":53101:53112  totalWeight */\n      0x08\n      0x00\n        /* \"contracts/Boost.sol\":53101:53137  totalWeight += uint256(_totalWeight) */\n      dup3\n      dup3\n      sload\n      tag_550\n      swap2\n      swap1\n      tag_466\n      jump\t// in\n    tag_550:\n      swap1\n      swap2\n      sstore\n      pop\n      pop\n        /* \"contracts/Boost.sol\":53147:53168  usedWeights[_tokenId] */\n      0x00\n      swap8\n      dup9\n      mstore\n        /* \"contracts/Boost.sol\":53147:53158  usedWeights */\n      0x0c\n        /* \"contracts/Boost.sol\":53147:53168  usedWeights[_tokenId] */\n      0x20\n      mstore\n      0x40\n      swap1\n      swap8\n      keccak256\n        /* \"contracts/Boost.sol\":53147:53191  usedWeights[_tokenId] = uint256(_usedWeight) */\n      swap7\n      swap1\n      swap7\n      sstore\n      pop\n      pop\n      pop\n      pop\n      pop\n      pop\n        /* \"contracts/Boost.sol\":51712:53198  function _vote(uint _tokenId, address[] memory _poolVote, int256[] memory _weights) internal {... */\n      jump\t// out\n        /* \"contracts/Boost.sol\":26396:26492  function mul(uint256 a, uint256 b) internal pure returns (uint256) {... */\n    tag_340:\n        /* \"contracts/Boost.sol\":26454:26461  uint256 */\n      0x00\n        /* \"contracts/Boost.sol\":26480:26485  a * b */\n      tag_465\n        /* \"contracts/Boost.sol\":26484:26485  b */\n      dup3\n        /* \"contracts/Boost.sol\":26480:26481  a */\n      dup5\n        /* \"contracts/Boost.sol\":26480:26485  a * b */\n      tag_553\n      jump\t// in\n        /* \"contracts/Boost.sol\":26781:26877  function div(uint256 a, uint256 b) internal pure returns (uint256) {... */\n    tag_341:\n        /* \"contracts/Boost.sol\":26839:26846  uint256 */\n      0x00\n        /* \"contracts/Boost.sol\":26865:26870  a / b */\n      tag_465\n        /* \"contracts/Boost.sol\":26869:26870  b */\n      dup3\n        /* \"contracts/Boost.sol\":26865:26866  a */\n      dup5\n        /* \"contracts/Boost.sol\":26865:26870  a / b */\n      tag_556\n      jump\t// in\n        /* \"contracts/Boost.sol\":26053:26149  function sub(uint256 a, uint256 b) internal pure returns (uint256) {... */\n    tag_357:\n        /* \"contracts/Boost.sol\":26111:26118  uint256 */\n      0x00\n        /* \"contracts/Boost.sol\":26137:26142  a - b */\n      tag_465\n        /* \"contracts/Boost.sol\":26141:26142  b */\n      dup3\n        /* \"contracts/Boost.sol\":26137:26138  a */\n      dup5\n        /* \"contracts/Boost.sol\":26137:26142  a - b */\n      tag_239\n      jump\t// in\n        /* \"contracts/Boost.sol\":59684:59789  function _updatePoolInfo(address _pool) internal override {... */\n    tag_478:\n      sub(shl(0xa0, 0x01), 0x01)\n        /* \"contracts/Boost.sol\":59768:59781  gauges[_pool] */\n      dup1\n      dup3\n      and\n      0x00\n      swap1\n      dup2\n      mstore\n        /* \"contracts/Boost.sol\":59768:59774  gauges */\n      0x11\n        /* \"contracts/Boost.sol\":59768:59781  gauges[_pool] */\n      0x20\n      mstore\n      0x40\n      swap1\n      keccak256\n      sload\n        /* \"contracts/Boost.sol\":59752:59782  _updateForGauge(gauges[_pool]) */\n      tag_344\n      swap2\n        /* \"contracts/Boost.sol\":59768:59781  gauges[_pool] */\n      and\n        /* \"contracts/Boost.sol\":59752:59767  _updateForGauge */\n      tag_253\n        /* \"contracts/Boost.sol\":59752:59782  _updateForGauge(gauges[_pool]) */\n      jump\t// in\n    tag_492:\n      pop\n      dup1\n      sload\n      0x00\n      dup3\n      sstore\n      swap1\n      0x00\n      mstore\n      keccak256(0x00, 0x20)\n      swap1\n      dup2\n      add\n      swap1\n      tag_344\n      swap2\n      swap1\n    tag_565:\n      dup1\n      dup3\n      gt\n      iszero\n      tag_566\n      jumpi\n      0x00\n      dup2\n      sstore\n      0x01\n      add\n      jump(tag_565)\n    tag_566:\n      pop\n      swap1\n      jump\t// out\n        /* \"#utility.yul\":14:145   */\n    tag_567:\n      sub(shl(0xa0, 0x01), 0x01)\n        /* \"#utility.yul\":89:120   */\n      dup2\n      and\n        /* \"#utility.yul\":79:121   */\n      dup2\n      eq\n        /* \"#utility.yul\":69:139   */\n      tag_344\n      jumpi\n        /* \"#utility.yul\":135:136   */\n      0x00\n        /* \"#utility.yul\":132:133   */\n      dup1\n        /* \"#utility.yul\":125:137   */\n      revert\n        /* \"#utility.yul\":150:397   */\n    tag_58:\n        /* \"#utility.yul\":209:215   */\n      0x00\n        /* \"#utility.yul\":262:264   */\n      0x20\n        /* \"#utility.yul\":250:259   */\n      dup3\n        /* \"#utility.yul\":241:248   */\n      dup5\n        /* \"#utility.yul\":237:260   */\n      sub\n        /* \"#utility.yul\":233:265   */\n      slt\n        /* \"#utility.yul\":230:282   */\n      iszero\n      tag_580\n      jumpi\n        /* \"#utility.yul\":278:279   */\n      0x00\n        /* \"#utility.yul\":275:276   */\n      dup1\n        /* \"#utility.yul\":268:280   */\n      revert\n        /* \"#utility.yul\":230:282   */\n    tag_580:\n        /* \"#utility.yul\":317:326   */\n      dup2\n        /* \"#utility.yul\":304:327   */\n      calldataload\n        /* \"#utility.yul\":336:367   */\n      tag_465\n        /* \"#utility.yul\":361:366   */\n      dup2\n        /* \"#utility.yul\":336:367   */\n      tag_567\n      jump\t// in\n        /* \"#utility.yul\":792:910   */\n    tag_568:\n        /* \"#utility.yul\":878:883   */\n      dup1\n        /* \"#utility.yul\":871:884   */\n      iszero\n        /* \"#utility.yul\":864:885   */\n      iszero\n        /* \"#utility.yul\":857:862   */\n      dup2\n        /* \"#utility.yul\":854:886   */\n      eq\n        /* \"#utility.yul\":844:904   */\n      tag_344\n      jumpi\n        /* \"#utility.yul\":900:901   */\n      0x00\n        /* \"#utility.yul\":897:898   */\n      dup1\n        /* \"#utility.yul\":890:902   */\n      revert\n        /* \"#utility.yul\":915:1365   */\n    tag_68:\n        /* \"#utility.yul\":989:995   */\n      0x00\n        /* \"#utility.yul\":997:1003   */\n      dup1\n        /* \"#utility.yul\":1005:1011   */\n      0x00\n        /* \"#utility.yul\":1058:1060   */\n      0x60\n        /* \"#utility.yul\":1046:1055   */\n      dup5\n        /* \"#utility.yul\":1037:1044   */\n      dup7\n        /* \"#utility.yul\":1033:1056   */\n      sub\n        /* \"#utility.yul\":1029:1061   */\n      slt\n        /* \"#utility.yul\":1026:1078   */\n      iszero\n      tag_587\n      jumpi\n        /* \"#utility.yul\":1074:1075   */\n      0x00\n        /* \"#utility.yul\":1071:1072   */\n      dup1\n        /* \"#utility.yul\":1064:1076   */\n      revert\n        /* \"#utility.yul\":1026:1078   */\n    tag_587:\n        /* \"#utility.yul\":1113:1122   */\n      dup4\n        /* \"#utility.yul\":1100:1123   */\n      calldataload\n        /* \"#utility.yul\":1132:1163   */\n      tag_588\n        /* \"#utility.yul\":1157:1162   */\n      dup2\n        /* \"#utility.yul\":1132:1163   */\n      tag_567\n      jump\t// in\n    tag_588:\n        /* \"#utility.yul\":1182:1187   */\n      swap3\n      pop\n        /* \"#utility.yul\":1234:1236   */\n      0x20\n        /* \"#utility.yul\":1219:1237   */\n      dup5\n      add\n        /* \"#utility.yul\":1206:1238   */\n      calldataload\n      swap2\n      pop\n        /* \"#utility.yul\":1290:1292   */\n      0x40\n        /* \"#utility.yul\":1275:1293   */\n      dup5\n      add\n        /* \"#utility.yul\":1262:1294   */\n      calldataload\n        /* \"#utility.yul\":1303:1333   */\n      tag_589\n        /* \"#utility.yul\":1262:1294   */\n      dup2\n        /* \"#utility.yul\":1303:1333   */\n      tag_568\n      jump\t// in\n    tag_589:\n        /* \"#utility.yul\":1352:1359   */\n      dup1\n        /* \"#utility.yul\":1342:1359   */\n      swap2\n      pop\n      pop\n        /* \"#utility.yul\":915:1365   */\n      swap3\n      pop\n      swap3\n      pop\n      swap3\n      jump\t// out\n        /* \"#utility.yul\":1370:1550   */\n    tag_82:\n        /* \"#utility.yul\":1429:1435   */\n      0x00\n        /* \"#utility.yul\":1482:1484   */\n      0x20\n        /* \"#utility.yul\":1470:1479   */\n      dup3\n        /* \"#utility.yul\":1461:1468   */\n      dup5\n        /* \"#utility.yul\":1457:1480   */\n      sub\n        /* \"#utility.yul\":1453:1485   */\n      slt\n        /* \"#utility.yul\":1450:1502   */\n      iszero\n      tag_591\n      jumpi\n        /* \"#utility.yul\":1498:1499   */\n      0x00\n        /* \"#utility.yul\":1495:1496   */\n      dup1\n        /* \"#utility.yul\":1488:1500   */\n      revert\n        /* \"#utility.yul\":1450:1502   */\n    tag_591:\n      pop\n        /* \"#utility.yul\":1521:1544   */\n      calldataload\n      swap2\n        /* \"#utility.yul\":1370:1550   */\n      swap1\n      pop\n      jump\t// out\n        /* \"#utility.yul\":1555:2016   */\n    tag_569:\n        /* \"#utility.yul\":1608:1611   */\n      0x00\n        /* \"#utility.yul\":1646:1651   */\n      dup2\n        /* \"#utility.yul\":1640:1652   */\n      mload\n        /* \"#utility.yul\":1673:1679   */\n      dup1\n        /* \"#utility.yul\":1668:1671   */\n      dup5\n        /* \"#utility.yul\":1661:1680   */\n      mstore\n        /* \"#utility.yul\":1699:1703   */\n      0x20\n        /* \"#utility.yul\":1728:1730   */\n      dup1\n        /* \"#utility.yul\":1723:1726   */\n      dup6\n        /* \"#utility.yul\":1719:1731   */\n      add\n        /* \"#utility.yul\":1712:1731   */\n      swap5\n      pop\n        /* \"#utility.yul\":1765:1767   */\n      dup1\n        /* \"#utility.yul\":1758:1763   */\n      dup5\n        /* \"#utility.yul\":1754:1768   */\n      add\n        /* \"#utility.yul\":1786:1787   */\n      0x00\n        /* \"#utility.yul\":1796:1991   */\n    tag_593:\n        /* \"#utility.yul\":1810:1816   */\n      dup4\n        /* \"#utility.yul\":1807:1808   */\n      dup2\n        /* \"#utility.yul\":1804:1817   */\n      lt\n        /* \"#utility.yul\":1796:1991   */\n      iszero\n      tag_595\n      jumpi\n        /* \"#utility.yul\":1875:1888   */\n      dup2\n      mload\n      sub(shl(0xa0, 0x01), 0x01)\n        /* \"#utility.yul\":1871:1910   */\n      and\n        /* \"#utility.yul\":1859:1911   */\n      dup8\n      mstore\n        /* \"#utility.yul\":1931:1943   */\n      swap6\n      dup3\n      add\n      swap6\n        /* \"#utility.yul\":1966:1981   */\n      swap1\n      dup3\n      add\n      swap1\n        /* \"#utility.yul\":1907:1908   */\n      0x01\n        /* \"#utility.yul\":1825:1834   */\n      add\n        /* \"#utility.yul\":1796:1991   */\n      jump(tag_593)\n    tag_595:\n      pop\n        /* \"#utility.yul\":2007:2010   */\n      swap5\n      swap6\n        /* \"#utility.yul\":1555:2016   */\n      swap5\n      pop\n      pop\n      pop\n      pop\n      pop\n      jump\t// out\n        /* \"#utility.yul\":2021:2282   */\n    tag_85:\n        /* \"#utility.yul\":2200:2202   */\n      0x20\n        /* \"#utility.yul\":2189:2198   */\n      dup2\n        /* \"#utility.yul\":2182:2203   */\n      mstore\n        /* \"#utility.yul\":2163:2167   */\n      0x00\n        /* \"#utility.yul\":2220:2276   */\n      tag_465\n        /* \"#utility.yul\":2272:2274   */\n      0x20\n        /* \"#utility.yul\":2261:2270   */\n      dup4\n        /* \"#utility.yul\":2257:2275   */\n      add\n        /* \"#utility.yul\":2249:2255   */\n      dup5\n        /* \"#utility.yul\":2220:2276   */\n      tag_569\n      jump\t// in\n        /* \"#utility.yul\":2637:2764   */\n    tag_304:\n        /* \"#utility.yul\":2698:2708   */\n      0x4e487b71\n        /* \"#utility.yul\":2693:2696   */\n      0xe0\n        /* \"#utility.yul\":2689:2709   */\n      shl\n        /* \"#utility.yul\":2686:2687   */\n      0x00\n        /* \"#utility.yul\":2679:2710   */\n      mstore\n        /* \"#utility.yul\":2729:2733   */\n      0x41\n        /* \"#utility.yul\":2726:2727   */\n      0x04\n        /* \"#utility.yul\":2719:2734   */\n      mstore\n        /* \"#utility.yul\":2753:2757   */\n      0x24\n        /* \"#utility.yul\":2750:2751   */\n      0x00\n        /* \"#utility.yul\":2743:2758   */\n      revert\n        /* \"#utility.yul\":2769:3044   */\n    tag_570:\n        /* \"#utility.yul\":2840:2842   */\n      0x40\n        /* \"#utility.yul\":2834:2843   */\n      mload\n        /* \"#utility.yul\":2905:2907   */\n      0x1f\n        /* \"#utility.yul\":2886:2899   */\n      dup3\n      add\n      not(0x1f)\n        /* \"#utility.yul\":2882:2909   */\n      and\n        /* \"#utility.yul\":2870:2910   */\n      dup2\n      add\n        /* \"#utility.yul\":2940:2958   */\n      0xffffffffffffffff\n        /* \"#utility.yul\":2925:2959   */\n      dup2\n      gt\n        /* \"#utility.yul\":2961:2983   */\n      dup3\n      dup3\n      lt\n        /* \"#utility.yul\":2922:2984   */\n      or\n        /* \"#utility.yul\":2919:3007   */\n      iszero\n      tag_602\n      jumpi\n        /* \"#utility.yul\":2987:3005   */\n      tag_602\n      tag_304\n      jump\t// in\n    tag_602:\n        /* \"#utility.yul\":3023:3025   */\n      0x40\n        /* \"#utility.yul\":3016:3038   */\n      mstore\n        /* \"#utility.yul\":2769:3044   */\n      swap2\n      swap1\n      pop\n      jump\t// out\n        /* \"#utility.yul\":3049:3232   */\n    tag_571:\n        /* \"#utility.yul\":3109:3113   */\n      0x00\n        /* \"#utility.yul\":3142:3160   */\n      0xffffffffffffffff\n        /* \"#utility.yul\":3134:3140   */\n      dup3\n        /* \"#utility.yul\":3131:3161   */\n      gt\n        /* \"#utility.yul\":3128:3184   */\n      iszero\n      tag_605\n      jumpi\n        /* \"#utility.yul\":3164:3182   */\n      tag_605\n      tag_304\n      jump\t// in\n    tag_605:\n      pop\n        /* \"#utility.yul\":3209:3210   */\n      0x05\n        /* \"#utility.yul\":3205:3219   */\n      shl\n        /* \"#utility.yul\":3221:3225   */\n      0x20\n        /* \"#utility.yul\":3201:3226   */\n      add\n      swap1\n        /* \"#utility.yul\":3049:3232   */\n      jump\t// out\n        /* \"#utility.yul\":3237:3974   */\n    tag_572:\n        /* \"#utility.yul\":3291:3296   */\n      0x00\n        /* \"#utility.yul\":3344:3347   */\n      dup3\n        /* \"#utility.yul\":3337:3341   */\n      0x1f\n        /* \"#utility.yul\":3329:3335   */\n      dup4\n        /* \"#utility.yul\":3325:3342   */\n      add\n        /* \"#utility.yul\":3321:3348   */\n      slt\n        /* \"#utility.yul\":3311:3366   */\n      tag_607\n      jumpi\n        /* \"#utility.yul\":3362:3363   */\n      0x00\n        /* \"#utility.yul\":3359:3360   */\n      dup1\n        /* \"#utility.yul\":3352:3364   */\n      revert\n        /* \"#utility.yul\":3311:3366   */\n    tag_607:\n        /* \"#utility.yul\":3398:3404   */\n      dup2\n        /* \"#utility.yul\":3385:3405   */\n      calldataload\n        /* \"#utility.yul\":3424:3428   */\n      0x20\n        /* \"#utility.yul\":3448:3508   */\n      tag_608\n        /* \"#utility.yul\":3464:3507   */\n      tag_609\n        /* \"#utility.yul\":3504:3506   */\n      dup4\n        /* \"#utility.yul\":3464:3507   */\n      tag_571\n      jump\t// in\n    tag_609:\n        /* \"#utility.yul\":3448:3508   */\n      tag_570\n      jump\t// in\n    tag_608:\n        /* \"#utility.yul\":3542:3557   */\n      dup3\n      dup2\n      mstore\n        /* \"#utility.yul\":3628:3629   */\n      0x05\n        /* \"#utility.yul\":3624:3634   */\n      swap3\n      swap1\n      swap3\n      shl\n        /* \"#utility.yul\":3612:3635   */\n      dup5\n      add\n        /* \"#utility.yul\":3608:3640   */\n      dup2\n      add\n      swap2\n        /* \"#utility.yul\":3573:3585   */\n      dup2\n      dup2\n      add\n      swap1\n        /* \"#utility.yul\":3652:3667   */\n      dup7\n      dup5\n      gt\n        /* \"#utility.yul\":3649:3684   */\n      iszero\n      tag_610\n      jumpi\n        /* \"#utility.yul\":3680:3681   */\n      0x00\n        /* \"#utility.yul\":3677:3678   */\n      dup1\n        /* \"#utility.yul\":3670:3682   */\n      revert\n        /* \"#utility.yul\":3649:3684   */\n    tag_610:\n        /* \"#utility.yul\":3716:3718   */\n      dup3\n        /* \"#utility.yul\":3708:3714   */\n      dup7\n        /* \"#utility.yul\":3704:3719   */\n      add\n        /* \"#utility.yul\":3728:3945   */\n    tag_611:\n        /* \"#utility.yul\":3744:3750   */\n      dup5\n        /* \"#utility.yul\":3739:3742   */\n      dup2\n        /* \"#utility.yul\":3736:3751   */\n      lt\n        /* \"#utility.yul\":3728:3945   */\n      iszero\n      tag_613\n      jumpi\n        /* \"#utility.yul\":3824:3827   */\n      dup1\n        /* \"#utility.yul\":3811:3828   */\n      calldataload\n        /* \"#utility.yul\":3841:3872   */\n      tag_614\n        /* \"#utility.yul\":3866:3871   */\n      dup2\n        /* \"#utility.yul\":3841:3872   */\n      tag_567\n      jump\t// in\n    tag_614:\n        /* \"#utility.yul\":3885:3903   */\n      dup4\n      mstore\n        /* \"#utility.yul\":3923:3935   */\n      swap2\n      dup4\n      add\n      swap2\n        /* \"#utility.yul\":3761:3773   */\n      dup4\n      add\n        /* \"#utility.yul\":3728:3945   */\n      jump(tag_611)\n    tag_613:\n      pop\n        /* \"#utility.yul\":3963:3968   */\n      swap7\n        /* \"#utility.yul\":3237:3974   */\n      swap6\n      pop\n      pop\n      pop\n      pop\n      pop\n      pop\n      jump\t// out\n        /* \"#utility.yul\":3979:5364   */\n    tag_96:\n        /* \"#utility.yul\":4122:4128   */\n      0x00\n        /* \"#utility.yul\":4130:4136   */\n      dup1\n        /* \"#utility.yul\":4183:4185   */\n      0x40\n        /* \"#utility.yul\":4171:4180   */\n      dup4\n        /* \"#utility.yul\":4162:4169   */\n      dup6\n        /* \"#utility.yul\":4158:4181   */\n      sub\n        /* \"#utility.yul\":4154:4186   */\n      slt\n        /* \"#utility.yul\":4151:4203   */\n      iszero\n      tag_616\n      jumpi\n        /* \"#utility.yul\":4199:4200   */\n      0x00\n        /* \"#utility.yul\":4196:4197   */\n      dup1\n        /* \"#utility.yul\":4189:4201   */\n      revert\n        /* \"#utility.yul\":4151:4203   */\n    tag_616:\n        /* \"#utility.yul\":4239:4248   */\n      dup3\n        /* \"#utility.yul\":4226:4249   */\n      calldataload\n        /* \"#utility.yul\":4268:4286   */\n      0xffffffffffffffff\n        /* \"#utility.yul\":4309:4311   */\n      dup1\n        /* \"#utility.yul\":4301:4307   */\n      dup3\n        /* \"#utility.yul\":4298:4312   */\n      gt\n        /* \"#utility.yul\":4295:4329   */\n      iszero\n      tag_617\n      jumpi\n        /* \"#utility.yul\":4325:4326   */\n      0x00\n        /* \"#utility.yul\":4322:4323   */\n      dup1\n        /* \"#utility.yul\":4315:4327   */\n      revert\n        /* \"#utility.yul\":4295:4329   */\n    tag_617:\n        /* \"#utility.yul\":4348:4409   */\n      tag_618\n        /* \"#utility.yul\":4401:4408   */\n      dup7\n        /* \"#utility.yul\":4392:4398   */\n      dup4\n        /* \"#utility.yul\":4381:4390   */\n      dup8\n        /* \"#utility.yul\":4377:4399   */\n      add\n        /* \"#utility.yul\":4348:4409   */\n      tag_572\n      jump\t// in\n    tag_618:\n        /* \"#utility.yul\":4338:4409   */\n      swap4\n      pop\n        /* \"#utility.yul\":4428:4430   */\n      0x20\n        /* \"#utility.yul\":4418:4430   */\n      swap2\n      pop\n        /* \"#utility.yul\":4483:4485   */\n      dup2\n        /* \"#utility.yul\":4472:4481   */\n      dup6\n        /* \"#utility.yul\":4468:4486   */\n      add\n        /* \"#utility.yul\":4455:4487   */\n      calldataload\n        /* \"#utility.yul\":4512:4514   */\n      dup2\n        /* \"#utility.yul\":4502:4510   */\n      dup2\n        /* \"#utility.yul\":4499:4515   */\n      gt\n        /* \"#utility.yul\":4496:4532   */\n      iszero\n      tag_619\n      jumpi\n        /* \"#utility.yul\":4528:4529   */\n      0x00\n        /* \"#utility.yul\":4525:4526   */\n      dup1\n        /* \"#utility.yul\":4518:4530   */\n      revert\n        /* \"#utility.yul\":4496:4532   */\n    tag_619:\n        /* \"#utility.yul\":4551:4575   */\n      dup6\n      add\n        /* \"#utility.yul\":4606:4610   */\n      0x1f\n        /* \"#utility.yul\":4598:4611   */\n      dup2\n      add\n        /* \"#utility.yul\":4594:4621   */\n      dup8\n      sgt\n        /* \"#utility.yul\":4584:4639   */\n      tag_620\n      jumpi\n        /* \"#utility.yul\":4635:4636   */\n      0x00\n        /* \"#utility.yul\":4632:4633   */\n      dup1\n        /* \"#utility.yul\":4625:4637   */\n      revert\n        /* \"#utility.yul\":4584:4639   */\n    tag_620:\n        /* \"#utility.yul\":4671:4673   */\n      dup1\n        /* \"#utility.yul\":4658:4674   */\n      calldataload\n        /* \"#utility.yul\":4694:4754   */\n      tag_621\n        /* \"#utility.yul\":4710:4753   */\n      tag_609\n        /* \"#utility.yul\":4750:4752   */\n      dup3\n        /* \"#utility.yul\":4710:4753   */\n      tag_571\n      jump\t// in\n        /* \"#utility.yul\":4694:4754   */\n    tag_621:\n        /* \"#utility.yul\":4788:4803   */\n      dup2\n      dup2\n      mstore\n        /* \"#utility.yul\":4870:4871   */\n      0x05\n        /* \"#utility.yul\":4866:4876   */\n      swap2\n      swap1\n      swap2\n      shl\n        /* \"#utility.yul\":4858:4877   */\n      dup3\n      add\n        /* \"#utility.yul\":4854:4882   */\n      dup5\n      add\n      swap1\n        /* \"#utility.yul\":4819:4831   */\n      dup5\n      dup2\n      add\n      swap1\n        /* \"#utility.yul\":4894:4913   */\n      dup10\n      dup4\n      gt\n        /* \"#utility.yul\":4891:4930   */\n      iszero\n      tag_623\n      jumpi\n        /* \"#utility.yul\":4926:4927   */\n      0x00\n        /* \"#utility.yul\":4923:4924   */\n      dup1\n        /* \"#utility.yul\":4916:4928   */\n      revert\n        /* \"#utility.yul\":4891:4930   */\n    tag_623:\n        /* \"#utility.yul\":4958:4960   */\n      dup6\n        /* \"#utility.yul\":4954:4956   */\n      dup5\n        /* \"#utility.yul\":4950:4961   */\n      add\n        /* \"#utility.yul\":4970:5334   */\n    tag_624:\n        /* \"#utility.yul\":4986:4992   */\n      dup4\n        /* \"#utility.yul\":4981:4984   */\n      dup2\n        /* \"#utility.yul\":4978:4993   */\n      lt\n        /* \"#utility.yul\":4970:5334   */\n      iszero\n      tag_626\n      jumpi\n        /* \"#utility.yul\":5072:5075   */\n      dup1\n        /* \"#utility.yul\":5059:5076   */\n      calldataload\n        /* \"#utility.yul\":5108:5110   */\n      dup7\n        /* \"#utility.yul\":5095:5106   */\n      dup2\n        /* \"#utility.yul\":5092:5111   */\n      gt\n        /* \"#utility.yul\":5089:5198   */\n      iszero\n      tag_627\n      jumpi\n        /* \"#utility.yul\":5152:5153   */\n      0x00\n        /* \"#utility.yul\":5181:5183   */\n      dup1\n        /* \"#utility.yul\":5177:5179   */\n      dup2\n        /* \"#utility.yul\":5170:5184   */\n      revert\n        /* \"#utility.yul\":5089:5198   */\n    tag_627:\n        /* \"#utility.yul\":5223:5291   */\n      tag_628\n        /* \"#utility.yul\":5283:5290   */\n      dup13\n        /* \"#utility.yul\":5278:5280   */\n      dup10\n        /* \"#utility.yul\":5264:5275   */\n      dup4\n        /* \"#utility.yul\":5260:5262   */\n      dup10\n        /* \"#utility.yul\":5256:5276   */\n      add\n        /* \"#utility.yul\":5252:5281   */\n      add\n        /* \"#utility.yul\":5223:5291   */\n      tag_572\n      jump\t// in\n    tag_628:\n        /* \"#utility.yul\":5211:5292   */\n      dup5\n      mstore\n      pop\n        /* \"#utility.yul\":5312:5324   */\n      swap2\n      dup7\n      add\n      swap2\n        /* \"#utility.yul\":5003:5015   */\n      dup7\n      add\n        /* \"#utility.yul\":4970:5334   */\n      jump(tag_624)\n    tag_626:\n        /* \"#utility.yul\":4974:4977   */\n      pop\n        /* \"#utility.yul\":5353:5358   */\n      dup1\n        /* \"#utility.yul\":5343:5358   */\n      swap7\n      pop\n      pop\n      pop\n      pop\n      pop\n      pop\n      pop\n        /* \"#utility.yul\":3979:5364   */\n      swap3\n      pop\n      swap3\n      swap1\n      pop\n      jump\t// out\n        /* \"#utility.yul\":5369:5684   */\n    tag_112:\n        /* \"#utility.yul\":5437:5443   */\n      0x00\n        /* \"#utility.yul\":5445:5451   */\n      dup1\n        /* \"#utility.yul\":5498:5500   */\n      0x40\n        /* \"#utility.yul\":5486:5495   */\n      dup4\n        /* \"#utility.yul\":5477:5484   */\n      dup6\n        /* \"#utility.yul\":5473:5496   */\n      sub\n        /* \"#utility.yul\":5469:5501   */\n      slt\n        /* \"#utility.yul\":5466:5518   */\n      iszero\n      tag_630\n      jumpi\n        /* \"#utility.yul\":5514:5515   */\n      0x00\n        /* \"#utility.yul\":5511:5512   */\n      dup1\n        /* \"#utility.yul\":5504:5516   */\n      revert\n        /* \"#utility.yul\":5466:5518   */\n    tag_630:\n        /* \"#utility.yul\":5550:5559   */\n      dup3\n        /* \"#utility.yul\":5537:5560   */\n      calldataload\n        /* \"#utility.yul\":5527:5560   */\n      swap2\n      pop\n        /* \"#utility.yul\":5610:5612   */\n      0x20\n        /* \"#utility.yul\":5599:5608   */\n      dup4\n        /* \"#utility.yul\":5595:5613   */\n      add\n        /* \"#utility.yul\":5582:5614   */\n      calldataload\n        /* \"#utility.yul\":5623:5654   */\n      tag_631\n        /* \"#utility.yul\":5648:5653   */\n      dup2\n        /* \"#utility.yul\":5623:5654   */\n      tag_567\n      jump\t// in\n    tag_631:\n        /* \"#utility.yul\":5673:5678   */\n      dup1\n        /* \"#utility.yul\":5663:5678   */\n      swap2\n      pop\n      pop\n        /* \"#utility.yul\":5369:5684   */\n      swap3\n      pop\n      swap3\n      swap1\n      pop\n      jump\t// out\n        /* \"#utility.yul\":5916:6225   */\n    tag_129:\n        /* \"#utility.yul\":5981:5987   */\n      0x00\n        /* \"#utility.yul\":5989:5995   */\n      dup1\n        /* \"#utility.yul\":6042:6044   */\n      0x40\n        /* \"#utility.yul\":6030:6039   */\n      dup4\n        /* \"#utility.yul\":6021:6028   */\n      dup6\n        /* \"#utility.yul\":6017:6040   */\n      sub\n        /* \"#utility.yul\":6013:6045   */\n      slt\n        /* \"#utility.yul\":6010:6062   */\n      iszero\n      tag_634\n      jumpi\n        /* \"#utility.yul\":6058:6059   */\n      0x00\n        /* \"#utility.yul\":6055:6056   */\n      dup1\n        /* \"#utility.yul\":6048:6060   */\n      revert\n        /* \"#utility.yul\":6010:6062   */\n    tag_634:\n        /* \"#utility.yul\":6094:6103   */\n      dup3\n        /* \"#utility.yul\":6081:6104   */\n      calldataload\n        /* \"#utility.yul\":6071:6104   */\n      swap2\n      pop\n        /* \"#utility.yul\":6154:6156   */\n      0x20\n        /* \"#utility.yul\":6143:6152   */\n      dup4\n        /* \"#utility.yul\":6139:6157   */\n      add\n        /* \"#utility.yul\":6126:6158   */\n      calldataload\n        /* \"#utility.yul\":6167:6195   */\n      tag_631\n        /* \"#utility.yul\":6189:6194   */\n      dup2\n        /* \"#utility.yul\":6167:6195   */\n      tag_568\n      jump\t// in\n        /* \"#utility.yul\":6230:6607   */\n    tag_146:\n        /* \"#utility.yul\":6304:6310   */\n      0x00\n        /* \"#utility.yul\":6312:6318   */\n      dup1\n        /* \"#utility.yul\":6320:6326   */\n      0x00\n        /* \"#utility.yul\":6373:6375   */\n      0x60\n        /* \"#utility.yul\":6361:6370   */\n      dup5\n        /* \"#utility.yul\":6352:6359   */\n      dup7\n        /* \"#utility.yul\":6348:6371   */\n      sub\n        /* \"#utility.yul\":6344:6376   */\n      slt\n        /* \"#utility.yul\":6341:6393   */\n      iszero\n      tag_637\n      jumpi\n        /* \"#utility.yul\":6389:6390   */\n      0x00\n        /* \"#utility.yul\":6386:6387   */\n      dup1\n        /* \"#utility.yul\":6379:6391   */\n      revert\n        /* \"#utility.yul\":6341:6393   */\n    tag_637:\n        /* \"#utility.yul\":6425:6434   */\n      dup4\n        /* \"#utility.yul\":6412:6435   */\n      calldataload\n        /* \"#utility.yul\":6402:6435   */\n      swap3\n      pop\n        /* \"#utility.yul\":6482:6484   */\n      0x20\n        /* \"#utility.yul\":6471:6480   */\n      dup5\n        /* \"#utility.yul\":6467:6485   */\n      add\n        /* \"#utility.yul\":6454:6486   */\n      calldataload\n        /* \"#utility.yul\":6444:6486   */\n      swap2\n      pop\n        /* \"#utility.yul\":6536:6538   */\n      0x40\n        /* \"#utility.yul\":6525:6534   */\n      dup5\n        /* \"#utility.yul\":6521:6539   */\n      add\n        /* \"#utility.yul\":6508:6540   */\n      calldataload\n        /* \"#utility.yul\":6549:6577   */\n      tag_589\n        /* \"#utility.yul\":6571:6576   */\n      dup2\n        /* \"#utility.yul\":6549:6577   */\n      tag_568\n      jump\t// in\n        /* \"#utility.yul\":6612:6995   */\n    tag_169:\n        /* \"#utility.yul\":6689:6695   */\n      0x00\n        /* \"#utility.yul\":6697:6703   */\n      dup1\n        /* \"#utility.yul\":6705:6711   */\n      0x00\n        /* \"#utility.yul\":6758:6760   */\n      0x60\n        /* \"#utility.yul\":6746:6755   */\n      dup5\n        /* \"#utility.yul\":6737:6744   */\n      dup7\n        /* \"#utility.yul\":6733:6756   */\n      sub\n        /* \"#utility.yul\":6729:6761   */\n      slt\n        /* \"#utility.yul\":6726:6778   */\n      iszero\n      tag_640\n      jumpi\n        /* \"#utility.yul\":6774:6775   */\n      0x00\n        /* \"#utility.yul\":6771:6772   */\n      dup1\n        /* \"#utility.yul\":6764:6776   */\n      revert\n        /* \"#utility.yul\":6726:6778   */\n    tag_640:\n        /* \"#utility.yul\":6810:6819   */\n      dup4\n        /* \"#utility.yul\":6797:6820   */\n      calldataload\n        /* \"#utility.yul\":6787:6820   */\n      swap3\n      pop\n        /* \"#utility.yul\":6870:6872   */\n      0x20\n        /* \"#utility.yul\":6859:6868   */\n      dup5\n        /* \"#utility.yul\":6855:6873   */\n      add\n        /* \"#utility.yul\":6842:6874   */\n      calldataload\n        /* \"#utility.yul\":6883:6914   */\n      tag_641\n        /* \"#utility.yul\":6908:6913   */\n      dup2\n        /* \"#utility.yul\":6883:6914   */\n      tag_567\n      jump\t// in\n    tag_641:\n        /* \"#utility.yul\":6612:6995   */\n      swap3\n      swap6\n        /* \"#utility.yul\":6933:6938   */\n      swap3\n      swap5\n      pop\n      pop\n      pop\n        /* \"#utility.yul\":6985:6987   */\n      0x40\n        /* \"#utility.yul\":6970:6988   */\n      swap2\n      swap1\n      swap2\n      add\n        /* \"#utility.yul\":6957:6989   */\n      calldataload\n      swap1\n        /* \"#utility.yul\":6612:6995   */\n      jump\t// out\n        /* \"#utility.yul\":7180:7428   */\n    tag_178:\n        /* \"#utility.yul\":7248:7254   */\n      0x00\n        /* \"#utility.yul\":7256:7262   */\n      dup1\n        /* \"#utility.yul\":7309:7311   */\n      0x40\n        /* \"#utility.yul\":7297:7306   */\n      dup4\n        /* \"#utility.yul\":7288:7295   */\n      dup6\n        /* \"#utility.yul\":7284:7307   */\n      sub\n        /* \"#utility.yul\":7280:7312   */\n      slt\n        /* \"#utility.yul\":7277:7329   */\n      iszero\n      tag_644\n      jumpi\n        /* \"#utility.yul\":7325:7326   */\n      0x00\n        /* \"#utility.yul\":7322:7323   */\n      dup1\n        /* \"#utility.yul\":7315:7327   */\n      revert\n        /* \"#utility.yul\":7277:7329   */\n    tag_644:\n      pop\n      pop\n        /* \"#utility.yul\":7348:7371   */\n      dup1\n      calldataload\n      swap3\n        /* \"#utility.yul\":7418:7420   */\n      0x20\n        /* \"#utility.yul\":7403:7421   */\n      swap1\n      swap2\n      add\n        /* \"#utility.yul\":7390:7422   */\n      calldataload\n      swap2\n      pop\n        /* \"#utility.yul\":7180:7428   */\n      jump\t// out\n        /* \"#utility.yul\":7848:8215   */\n    tag_573:\n        /* \"#utility.yul\":7911:7919   */\n      0x00\n        /* \"#utility.yul\":7921:7927   */\n      dup1\n        /* \"#utility.yul\":7975:7978   */\n      dup4\n        /* \"#utility.yul\":7968:7972   */\n      0x1f\n        /* \"#utility.yul\":7960:7966   */\n      dup5\n        /* \"#utility.yul\":7956:7973   */\n      add\n        /* \"#utility.yul\":7952:7979   */\n      slt\n        /* \"#utility.yul\":7942:7997   */\n      tag_648\n      jumpi\n        /* \"#utility.yul\":7993:7994   */\n      0x00\n        /* \"#utility.yul\":7990:7991   */\n      dup1\n        /* \"#utility.yul\":7983:7995   */\n      revert\n        /* \"#utility.yul\":7942:7997   */\n    tag_648:\n      pop\n        /* \"#utility.yul\":8016:8036   */\n      dup2\n      calldataload\n        /* \"#utility.yul\":8059:8077   */\n      0xffffffffffffffff\n        /* \"#utility.yul\":8048:8078   */\n      dup2\n      gt\n        /* \"#utility.yul\":8045:8095   */\n      iszero\n      tag_649\n      jumpi\n        /* \"#utility.yul\":8091:8092   */\n      0x00\n        /* \"#utility.yul\":8088:8089   */\n      dup1\n        /* \"#utility.yul\":8081:8093   */\n      revert\n        /* \"#utility.yul\":8045:8095   */\n    tag_649:\n        /* \"#utility.yul\":8128:8132   */\n      0x20\n        /* \"#utility.yul\":8120:8126   */\n      dup4\n        /* \"#utility.yul\":8116:8133   */\n      add\n        /* \"#utility.yul\":8104:8133   */\n      swap2\n      pop\n        /* \"#utility.yul\":8188:8191   */\n      dup4\n        /* \"#utility.yul\":8181:8185   */\n      0x20\n        /* \"#utility.yul\":8171:8177   */\n      dup3\n        /* \"#utility.yul\":8168:8169   */\n      0x05\n        /* \"#utility.yul\":8164:8178   */\n      shl\n        /* \"#utility.yul\":8156:8162   */\n      dup6\n        /* \"#utility.yul\":8152:8179   */\n      add\n        /* \"#utility.yul\":8148:8186   */\n      add\n        /* \"#utility.yul\":8145:8192   */\n      gt\n        /* \"#utility.yul\":8142:8209   */\n      iszero\n      tag_650\n      jumpi\n        /* \"#utility.yul\":8205:8206   */\n      0x00\n        /* \"#utility.yul\":8202:8203   */\n      dup1\n        /* \"#utility.yul\":8195:8207   */\n      revert\n        /* \"#utility.yul\":8142:8209   */\n    tag_650:\n        /* \"#utility.yul\":7848:8215   */\n      swap3\n      pop\n      swap3\n      swap1\n      pop\n      jump\t// out\n        /* \"#utility.yul\":8220:9060   */\n    tag_220:\n        /* \"#utility.yul\":8350:8356   */\n      0x00\n        /* \"#utility.yul\":8358:8364   */\n      dup1\n        /* \"#utility.yul\":8366:8372   */\n      0x00\n        /* \"#utility.yul\":8374:8380   */\n      dup1\n        /* \"#utility.yul\":8382:8388   */\n      0x00\n        /* \"#utility.yul\":8435:8437   */\n      0x60\n        /* \"#utility.yul\":8423:8432   */\n      dup7\n        /* \"#utility.yul\":8414:8421   */\n      dup9\n        /* \"#utility.yul\":8410:8433   */\n      sub\n        /* \"#utility.yul\":8406:8438   */\n      slt\n        /* \"#utility.yul\":8403:8455   */\n      iszero\n      tag_652\n      jumpi\n        /* \"#utility.yul\":8451:8452   */\n      0x00\n        /* \"#utility.yul\":8448:8449   */\n      dup1\n        /* \"#utility.yul\":8441:8453   */\n      revert\n        /* \"#utility.yul\":8403:8455   */\n    tag_652:\n        /* \"#utility.yul\":8487:8496   */\n      dup6\n        /* \"#utility.yul\":8474:8497   */\n      calldataload\n        /* \"#utility.yul\":8464:8497   */\n      swap5\n      pop\n        /* \"#utility.yul\":8548:8550   */\n      0x20\n        /* \"#utility.yul\":8537:8546   */\n      dup7\n        /* \"#utility.yul\":8533:8551   */\n      add\n        /* \"#utility.yul\":8520:8552   */\n      calldataload\n        /* \"#utility.yul\":8571:8589   */\n      0xffffffffffffffff\n        /* \"#utility.yul\":8612:8614   */\n      dup1\n        /* \"#utility.yul\":8604:8610   */\n      dup3\n        /* \"#utility.yul\":8601:8615   */\n      gt\n        /* \"#utility.yul\":8598:8632   */\n      iszero\n      tag_653\n      jumpi\n        /* \"#utility.yul\":8628:8629   */\n      0x00\n        /* \"#utility.yul\":8625:8626   */\n      dup1\n        /* \"#utility.yul\":8618:8630   */\n      revert\n        /* \"#utility.yul\":8598:8632   */\n    tag_653:\n        /* \"#utility.yul\":8667:8737   */\n      tag_654\n        /* \"#utility.yul\":8729:8736   */\n      dup10\n        /* \"#utility.yul\":8720:8726   */\n      dup4\n        /* \"#utility.yul\":8709:8718   */\n      dup11\n        /* \"#utility.yul\":8705:8727   */\n      add\n        /* \"#utility.yul\":8667:8737   */\n      tag_573\n      jump\t// in\n    tag_654:\n        /* \"#utility.yul\":8756:8764   */\n      swap1\n      swap7\n      pop\n        /* \"#utility.yul\":8641:8737   */\n      swap5\n      pop\n        /* \"#utility.yul\":8844:8846   */\n      0x40\n        /* \"#utility.yul\":8829:8847   */\n      dup9\n      add\n        /* \"#utility.yul\":8816:8848   */\n      calldataload\n      swap2\n      pop\n        /* \"#utility.yul\":8860:8876   */\n      dup1\n      dup3\n      gt\n        /* \"#utility.yul\":8857:8893   */\n      iszero\n      tag_655\n      jumpi\n        /* \"#utility.yul\":8889:8890   */\n      0x00\n        /* \"#utility.yul\":8886:8887   */\n      dup1\n        /* \"#utility.yul\":8879:8891   */\n      revert\n        /* \"#utility.yul\":8857:8893   */\n    tag_655:\n      pop\n        /* \"#utility.yul\":8928:9000   */\n      tag_656\n        /* \"#utility.yul\":8992:8999   */\n      dup9\n        /* \"#utility.yul\":8981:8989   */\n      dup3\n        /* \"#utility.yul\":8970:8979   */\n      dup10\n        /* \"#utility.yul\":8966:8990   */\n      add\n        /* \"#utility.yul\":8928:9000   */\n      tag_573\n      jump\t// in\n    tag_656:\n        /* \"#utility.yul\":8220:9060   */\n      swap7\n      swap10\n      swap6\n      swap9\n      pop\n      swap4\n      swap7\n      pop\n        /* \"#utility.yul\":9019:9027   */\n      swap3\n      swap5\n        /* \"#utility.yul\":8902:9000   */\n      swap4\n        /* \"#utility.yul\":8220:9060   */\n      swap3\n      pop\n      pop\n      pop\n      jump\t// out\n        /* \"#utility.yul\":9756:9883   */\n    tag_574:\n        /* \"#utility.yul\":9817:9827   */\n      0x4e487b71\n        /* \"#utility.yul\":9812:9815   */\n      0xe0\n        /* \"#utility.yul\":9808:9828   */\n      shl\n        /* \"#utility.yul\":9805:9806   */\n      0x00\n        /* \"#utility.yul\":9798:9829   */\n      mstore\n        /* \"#utility.yul\":9848:9852   */\n      0x11\n        /* \"#utility.yul\":9845:9846   */\n      0x04\n        /* \"#utility.yul\":9838:9853   */\n      mstore\n        /* \"#utility.yul\":9872:9876   */\n      0x24\n        /* \"#utility.yul\":9869:9870   */\n      0x00\n        /* \"#utility.yul\":9862:9877   */\n      revert\n        /* \"#utility.yul\":9888:10013   */\n    tag_239:\n        /* \"#utility.yul\":9928:9932   */\n      0x00\n        /* \"#utility.yul\":9956:9957   */\n      dup3\n        /* \"#utility.yul\":9953:9954   */\n      dup3\n        /* \"#utility.yul\":9950:9958   */\n      lt\n        /* \"#utility.yul\":9947:9981   */\n      iszero\n      tag_662\n      jumpi\n        /* \"#utility.yul\":9961:9979   */\n      tag_662\n      tag_574\n      jump\t// in\n    tag_662:\n      pop\n        /* \"#utility.yul\":9998:10007   */\n      sub\n      swap1\n        /* \"#utility.yul\":9888:10013   */\n      jump\t// out\n        /* \"#utility.yul\":10327:10578   */\n    tag_245:\n        /* \"#utility.yul\":10397:10403   */\n      0x00\n        /* \"#utility.yul\":10450:10452   */\n      0x20\n        /* \"#utility.yul\":10438:10447   */\n      dup3\n        /* \"#utility.yul\":10429:10436   */\n      dup5\n        /* \"#utility.yul\":10425:10448   */\n      sub\n        /* \"#utility.yul\":10421:10453   */\n      slt\n        /* \"#utility.yul\":10418:10470   */\n      iszero\n      tag_665\n      jumpi\n        /* \"#utility.yul\":10466:10467   */\n      0x00\n        /* \"#utility.yul\":10463:10464   */\n      dup1\n        /* \"#utility.yul\":10456:10468   */\n      revert\n        /* \"#utility.yul\":10418:10470   */\n    tag_665:\n        /* \"#utility.yul\":10498:10507   */\n      dup2\n        /* \"#utility.yul\":10492:10508   */\n      mload\n        /* \"#utility.yul\":10517:10548   */\n      tag_465\n        /* \"#utility.yul\":10542:10547   */\n      dup2\n        /* \"#utility.yul\":10517:10548   */\n      tag_567\n      jump\t// in\n        /* \"#utility.yul\":10862:11107   */\n    tag_251:\n        /* \"#utility.yul\":10929:10935   */\n      0x00\n        /* \"#utility.yul\":10982:10984   */\n      0x20\n        /* \"#utility.yul\":10970:10979   */\n      dup3\n        /* \"#utility.yul\":10961:10968   */\n      dup5\n        /* \"#utility.yul\":10957:10980   */\n      sub\n        /* \"#utility.yul\":10953:10985   */\n      slt\n        /* \"#utility.yul\":10950:11002   */\n      iszero\n      tag_669\n      jumpi\n        /* \"#utility.yul\":10998:10999   */\n      0x00\n        /* \"#utility.yul\":10995:10996   */\n      dup1\n        /* \"#utility.yul\":10988:11000   */\n      revert\n        /* \"#utility.yul\":10950:11002   */\n    tag_669:\n        /* \"#utility.yul\":11030:11039   */\n      dup2\n        /* \"#utility.yul\":11024:11040   */\n      mload\n        /* \"#utility.yul\":11049:11077   */\n      tag_465\n        /* \"#utility.yul\":11071:11076   */\n      dup2\n        /* \"#utility.yul\":11049:11077   */\n      tag_568\n      jump\t// in\n        /* \"#utility.yul\":11818:11945   */\n    tag_277:\n        /* \"#utility.yul\":11879:11889   */\n      0x4e487b71\n        /* \"#utility.yul\":11874:11877   */\n      0xe0\n        /* \"#utility.yul\":11870:11890   */\n      shl\n        /* \"#utility.yul\":11867:11868   */\n      0x00\n        /* \"#utility.yul\":11860:11891   */\n      mstore\n        /* \"#utility.yul\":11910:11914   */\n      0x32\n        /* \"#utility.yul\":11907:11908   */\n      0x04\n        /* \"#utility.yul\":11900:11915   */\n      mstore\n        /* \"#utility.yul\":11934:11938   */\n      0x24\n        /* \"#utility.yul\":11931:11932   */\n      0x00\n        /* \"#utility.yul\":11924:11939   */\n      revert\n        /* \"#utility.yul\":11950:12308   */\n    tag_281:\n      sub(shl(0xa0, 0x01), 0x01)\n        /* \"#utility.yul\":12157:12189   */\n      dup4\n      and\n        /* \"#utility.yul\":12139:12190   */\n      dup2\n      mstore\n        /* \"#utility.yul\":12226:12228   */\n      0x40\n        /* \"#utility.yul\":12221:12223   */\n      0x20\n        /* \"#utility.yul\":12206:12224   */\n      dup3\n      add\n        /* \"#utility.yul\":12199:12229   */\n      dup2\n      swap1\n      mstore\n      0x00\n      swap1\n        /* \"#utility.yul\":12246:12302   */\n      tag_675\n      swap1\n        /* \"#utility.yul\":12283:12301   */\n      dup4\n      add\n        /* \"#utility.yul\":12275:12281   */\n      dup5\n        /* \"#utility.yul\":12246:12302   */\n      tag_569\n      jump\t// in\n    tag_675:\n        /* \"#utility.yul\":12238:12302   */\n      swap5\n        /* \"#utility.yul\":11950:12308   */\n      swap4\n      pop\n      pop\n      pop\n      pop\n      jump\t// out\n        /* \"#utility.yul\":12313:12448   */\n    tag_286:\n        /* \"#utility.yul\":12352:12355   */\n      0x00\n      not(0x00)\n        /* \"#utility.yul\":12373:12390   */\n      dup3\n      eq\n        /* \"#utility.yul\":12370:12413   */\n      iszero\n      tag_678\n      jumpi\n        /* \"#utility.yul\":12393:12411   */\n      tag_678\n      tag_574\n      jump\t// in\n    tag_678:\n      pop\n        /* \"#utility.yul\":12440:12441   */\n      0x01\n        /* \"#utility.yul\":12429:12442   */\n      add\n      swap1\n        /* \"#utility.yul\":12313:12448   */\n      jump\t// out\n        /* \"#utility.yul\":12453:12789   */\n    tag_330:\n        /* \"#utility.yul\":12655:12657   */\n      0x20\n        /* \"#utility.yul\":12637:12658   */\n      dup1\n      dup3\n      mstore\n        /* \"#utility.yul\":12694:12696   */\n      0x0c\n        /* \"#utility.yul\":12674:12692   */\n      swap1\n      dup3\n      add\n        /* \"#utility.yul\":12667:12697   */\n      mstore\n      shl(0xa1, 0x3737ba1037b832b930ba37b9)\n        /* \"#utility.yul\":12728:12730   */\n      0x40\n        /* \"#utility.yul\":12713:12731   */\n      dup3\n      add\n        /* \"#utility.yul\":12706:12748   */\n      mstore\n        /* \"#utility.yul\":12780:12782   */\n      0x60\n        /* \"#utility.yul\":12765:12783   */\n      add\n      swap1\n        /* \"#utility.yul\":12453:12789   */\n      jump\t// out\n        /* \"#utility.yul\":12794:12978   */\n    tag_353:\n        /* \"#utility.yul\":12864:12870   */\n      0x00\n        /* \"#utility.yul\":12917:12919   */\n      0x20\n        /* \"#utility.yul\":12905:12914   */\n      dup3\n        /* \"#utility.yul\":12896:12903   */\n      dup5\n        /* \"#utility.yul\":12892:12915   */\n      sub\n        /* \"#utility.yul\":12888:12920   */\n      slt\n        /* \"#utility.yul\":12885:12937   */\n      iszero\n      tag_681\n      jumpi\n        /* \"#utility.yul\":12933:12934   */\n      0x00\n        /* \"#utility.yul\":12930:12931   */\n      dup1\n        /* \"#utility.yul\":12923:12935   */\n      revert\n        /* \"#utility.yul\":12885:12937   */\n    tag_681:\n      pop\n        /* \"#utility.yul\":12956:12972   */\n      mload\n      swap2\n        /* \"#utility.yul\":12794:12978   */\n      swap1\n      pop\n      jump\t// out\n        /* \"#utility.yul\":13236:13364   */\n    tag_466:\n        /* \"#utility.yul\":13276:13279   */\n      0x00\n        /* \"#utility.yul\":13307:13308   */\n      dup3\n        /* \"#utility.yul\":13303:13309   */\n      not\n        /* \"#utility.yul\":13300:13301   */\n      dup3\n        /* \"#utility.yul\":13297:13310   */\n      gt\n        /* \"#utility.yul\":13294:13333   */\n      iszero\n      tag_685\n      jumpi\n        /* \"#utility.yul\":13313:13331   */\n      tag_685\n      tag_574\n      jump\t// in\n    tag_685:\n      pop\n        /* \"#utility.yul\":13349:13358   */\n      add\n      swap1\n        /* \"#utility.yul\":13236:13364   */\n      jump\t// out\n        /* \"#utility.yul\":13369:13636   */\n    tag_480:\n        /* \"#utility.yul\":13408:13412   */\n      0x00\n        /* \"#utility.yul\":13437:13446   */\n      dup1\n      dup4\n      slt\n        /* \"#utility.yul\":13462:13472   */\n      dup1\n      iszero\n      shl(0xff, 0x01)\n        /* \"#utility.yul\":13481:13500   */\n      dup6\n      add\n        /* \"#utility.yul\":13474:13501   */\n      dup5\n      slt\n        /* \"#utility.yul\":13458:13502   */\n      and\n        /* \"#utility.yul\":13455:13525   */\n      iszero\n      tag_688\n      jumpi\n        /* \"#utility.yul\":13505:13523   */\n      tag_688\n      tag_574\n      jump\t// in\n    tag_688:\n      sub(shl(0xff, 0x01), 0x01)\n        /* \"#utility.yul\":13552:13579   */\n      dup5\n      add\n        /* \"#utility.yul\":13545:13580   */\n      dup4\n      sgt\n        /* \"#utility.yul\":13537:13581   */\n      dup2\n      and\n        /* \"#utility.yul\":13534:13604   */\n      iszero\n      tag_690\n      jumpi\n        /* \"#utility.yul\":13584:13602   */\n      tag_690\n      tag_574\n      jump\t// in\n    tag_690:\n      pop\n      pop\n        /* \"#utility.yul\":13621:13630   */\n      sub\n      swap1\n        /* \"#utility.yul\":13369:13636   */\n      jump\t// out\n        /* \"#utility.yul\":13641:13906   */\n    tag_484:\n        /* \"#utility.yul\":13680:13683   */\n      0x00\n        /* \"#utility.yul\":13708:13717   */\n      dup1\n      dup3\n      slt\n        /* \"#utility.yul\":13733:13743   */\n      dup1\n      iszero\n      sub(shl(0xff, 0x01), 0x01)\n        /* \"#utility.yul\":13752:13779   */\n      dup5\n      swap1\n      sub\n        /* \"#utility.yul\":13745:13780   */\n      dup6\n      sgt\n        /* \"#utility.yul\":13729:13781   */\n      and\n        /* \"#utility.yul\":13726:13804   */\n      iszero\n      tag_693\n      jumpi\n        /* \"#utility.yul\":13784:13802   */\n      tag_693\n      tag_574\n      jump\t// in\n    tag_693:\n      shl(0xff, 0x01)\n        /* \"#utility.yul\":13831:13850   */\n      dup4\n      swap1\n      sub\n        /* \"#utility.yul\":13824:13851   */\n      dup5\n      slt\n        /* \"#utility.yul\":13816:13852   */\n      dup2\n      and\n        /* \"#utility.yul\":13813:13875   */\n      iszero\n      tag_695\n      jumpi\n        /* \"#utility.yul\":13855:13873   */\n      tag_695\n      tag_574\n      jump\t// in\n    tag_695:\n      pop\n      pop\n        /* \"#utility.yul\":13891:13900   */\n      add\n      swap1\n        /* \"#utility.yul\":13641:13906   */\n      jump\t// out\n        /* \"#utility.yul\":14162:14298   */\n    tag_508:\n        /* \"#utility.yul\":14197:14200   */\n      0x00\n      shl(0xff, 0x01)\n        /* \"#utility.yul\":14218:14240   */\n      dup3\n      eq\n        /* \"#utility.yul\":14215:14263   */\n      iszero\n      tag_699\n      jumpi\n        /* \"#utility.yul\":14243:14261   */\n      tag_699\n      tag_574\n      jump\t// in\n    tag_699:\n      pop\n        /* \"#utility.yul\":14283:14284   */\n      0x00\n        /* \"#utility.yul\":14279:14292   */\n      sub\n      swap1\n        /* \"#utility.yul\":14162:14298   */\n      jump\t// out\n        /* \"#utility.yul\":14303:14856   */\n    tag_525:\n        /* \"#utility.yul\":14342:14349   */\n      0x00\n      sub(shl(0xff, 0x01), 0x01)\n        /* \"#utility.yul\":14412:14421   */\n      dup2\n      dup5\n      sgt\n        /* \"#utility.yul\":14440:14449   */\n      dup3\n      dup5\n      sgt\n        /* \"#utility.yul\":14465:14476   */\n      dup1\n      dup3\n      and\n        /* \"#utility.yul\":14484:14494   */\n      dup7\n      dup5\n      div\n        /* \"#utility.yul\":14478:14495   */\n      dup7\n      gt\n        /* \"#utility.yul\":14461:14496   */\n      and\n        /* \"#utility.yul\":14458:14519   */\n      iszero\n      tag_702\n      jumpi\n        /* \"#utility.yul\":14499:14517   */\n      tag_702\n      tag_574\n      jump\t// in\n    tag_702:\n      shl(0xff, 0x01)\n        /* \"#utility.yul\":14575:14576   */\n      0x00\n        /* \"#utility.yul\":14568:14577   */\n      dup8\n      slt\n        /* \"#utility.yul\":14593:14604   */\n      dup3\n      dup2\n      and\n        /* \"#utility.yul\":14613:14624   */\n      dup8\n      dup4\n      sdiv\n        /* \"#utility.yul\":14606:14625   */\n      dup10\n      slt\n        /* \"#utility.yul\":14589:14626   */\n      and\n        /* \"#utility.yul\":14586:14649   */\n      iszero\n      tag_704\n      jumpi\n        /* \"#utility.yul\":14629:14647   */\n      tag_704\n      tag_574\n      jump\t// in\n    tag_704:\n        /* \"#utility.yul\":14675:14676   */\n      0x00\n        /* \"#utility.yul\":14672:14673   */\n      dup8\n        /* \"#utility.yul\":14668:14677   */\n      slt\n        /* \"#utility.yul\":14658:14677   */\n      swap3\n      pop\n        /* \"#utility.yul\":14722:14723   */\n      dup8\n        /* \"#utility.yul\":14718:14720   */\n      dup3\n        /* \"#utility.yul\":14713:14724   */\n      sdiv\n        /* \"#utility.yul\":14710:14711   */\n      dup8\n        /* \"#utility.yul\":14706:14725   */\n      slt\n        /* \"#utility.yul\":14701:14703   */\n      dup5\n        /* \"#utility.yul\":14697:14699   */\n      dup5\n        /* \"#utility.yul\":14693:14704   */\n      and\n        /* \"#utility.yul\":14689:14726   */\n      and\n        /* \"#utility.yul\":14686:14749   */\n      iszero\n      tag_706\n      jumpi\n        /* \"#utility.yul\":14729:14747   */\n      tag_706\n      tag_574\n      jump\t// in\n    tag_706:\n        /* \"#utility.yul\":14794:14795   */\n      dup8\n        /* \"#utility.yul\":14790:14792   */\n      dup6\n        /* \"#utility.yul\":14785:14796   */\n      sdiv\n        /* \"#utility.yul\":14782:14783   */\n      dup8\n        /* \"#utility.yul\":14778:14797   */\n      slt\n        /* \"#utility.yul\":14773:14775   */\n      dup2\n        /* \"#utility.yul\":14769:14771   */\n      dup5\n        /* \"#utility.yul\":14765:14776   */\n      and\n        /* \"#utility.yul\":14761:14798   */\n      and\n        /* \"#utility.yul\":14758:14821   */\n      iszero\n      tag_708\n      jumpi\n        /* \"#utility.yul\":14801:14819   */\n      tag_708\n      tag_574\n      jump\t// in\n    tag_708:\n      pop\n      pop\n      pop\n        /* \"#utility.yul\":14841:14850   */\n      swap3\n      swap1\n      swap4\n      mul\n      swap4\n        /* \"#utility.yul\":14303:14856   */\n      swap3\n      pop\n      pop\n      pop\n      jump\t// out\n        /* \"#utility.yul\":14861:14988   */\n    tag_575:\n        /* \"#utility.yul\":14922:14932   */\n      0x4e487b71\n        /* \"#utility.yul\":14917:14920   */\n      0xe0\n        /* \"#utility.yul\":14913:14933   */\n      shl\n        /* \"#utility.yul\":14910:14911   */\n      0x00\n        /* \"#utility.yul\":14903:14934   */\n      mstore\n        /* \"#utility.yul\":14953:14957   */\n      0x12\n        /* \"#utility.yul\":14950:14951   */\n      0x04\n        /* \"#utility.yul\":14943:14958   */\n      mstore\n        /* \"#utility.yul\":14977:14981   */\n      0x24\n        /* \"#utility.yul\":14974:14975   */\n      0x00\n        /* \"#utility.yul\":14967:14982   */\n      revert\n        /* \"#utility.yul\":14993:15186   */\n    tag_527:\n        /* \"#utility.yul\":15032:15033   */\n      0x00\n        /* \"#utility.yul\":15058:15059   */\n      dup3\n        /* \"#utility.yul\":15048:15083   */\n      tag_712\n      jumpi\n        /* \"#utility.yul\":15063:15081   */\n      tag_712\n      tag_575\n      jump\t// in\n    tag_712:\n      shl(0xff, 0x01)\n        /* \"#utility.yul\":15099:15117   */\n      dup3\n      eq\n      not(0x00)\n        /* \"#utility.yul\":15119:15132   */\n      dup5\n      eq\n        /* \"#utility.yul\":15095:15133   */\n      and\n        /* \"#utility.yul\":15092:15156   */\n      iszero\n      tag_714\n      jumpi\n        /* \"#utility.yul\":15136:15154   */\n      tag_714\n      tag_574\n      jump\t// in\n    tag_714:\n      pop\n        /* \"#utility.yul\":15170:15180   */\n      sdiv\n      swap1\n        /* \"#utility.yul\":14993:15186   */\n      jump\t// out\n        /* \"#utility.yul\":15875:16043   */\n    tag_553:\n        /* \"#utility.yul\":15915:15922   */\n      0x00\n        /* \"#utility.yul\":15981:15982   */\n      dup2\n        /* \"#utility.yul\":15977:15978   */\n      0x00\n        /* \"#utility.yul\":15973:15979   */\n      not\n        /* \"#utility.yul\":15969:15983   */\n      div\n        /* \"#utility.yul\":15966:15967   */\n      dup4\n        /* \"#utility.yul\":15963:15984   */\n      gt\n        /* \"#utility.yul\":15958:15959   */\n      dup3\n        /* \"#utility.yul\":15951:15960   */\n      iszero\n        /* \"#utility.yul\":15944:15961   */\n      iszero\n        /* \"#utility.yul\":15940:15985   */\n      and\n        /* \"#utility.yul\":15937:16008   */\n      iszero\n      tag_719\n      jumpi\n        /* \"#utility.yul\":15988:16006   */\n      tag_719\n      tag_574\n      jump\t// in\n    tag_719:\n      pop\n        /* \"#utility.yul\":16028:16037   */\n      mul\n      swap1\n        /* \"#utility.yul\":15875:16043   */\n      jump\t// out\n        /* \"#utility.yul\":16048:16168   */\n    tag_556:\n        /* \"#utility.yul\":16088:16089   */\n      0x00\n        /* \"#utility.yul\":16114:16115   */\n      dup3\n        /* \"#utility.yul\":16104:16139   */\n      tag_722\n      jumpi\n        /* \"#utility.yul\":16119:16137   */\n      tag_722\n      tag_575\n      jump\t// in\n    tag_722:\n      pop\n        /* \"#utility.yul\":16153:16162   */\n      div\n      swap1\n        /* \"#utility.yul\":16048:16168   */\n      jump\t// out\n\n    auxdata: 0xa264697066735822122081b25789b0e839f922afc225bcf3022ee4a0358b7f60aa32eb4ab6a884bb1e5164736f6c634300080a0033\n}\n",
				"bytecode": {
					"linkReferences": {},
					"object": "61010060405267026db992a3b180006007556000600d553480156200002357600080fd5b5060405162002ccc38038062002ccc83398101604081905262000046916200020e565b6001600081815581546001600160a01b0319166001600160a01b038a169081179092556040518992899288928892889288928892879287928792879287927f3ccbb406b985dd76fe05e172b432487a2ff9fe4257642d3acc350f167cb1d577908290a3506001600160a01b038416620000f65760405162461bcd60e51b815260206004820152600e60248201526d073776170546f6b656e20697320360941b604482015260640160405180910390fd5b600280546001600160a01b0319166001600160a01b038616179055600383905560808290526005819055620001388282620001e0602090811b62001bb817901c565b60049081556103e86006556001600160a01b038b1660a081905260408051637e062a3560e11b8152905191975063fc0c546a96508083019550602094509092508290030181865afa15801562000192573d6000803e3d6000fd5b505050506040513d601f19601f82011682018060405250810190620001b8919062000295565b6001600160a01b0390811660c0529a909a1660e05250620002dc9a5050505050505050505050565b6000620001ee8284620002b5565b9392505050565b6001600160a01b03811681146200020b57600080fd5b50565b600080600080600080600060e0888a0312156200022a57600080fd5b87516200023781620001f5565b60208901519097506200024a81620001f5565b60408901519096506200025d81620001f5565b60608901519095506200027081620001f5565b809450506080880151925060a0880151915060c0880151905092959891949750929550565b600060208284031215620002a857600080fd5b8151620001ee81620001f5565b60008219821115620002d757634e487b7160e01b600052601160045260246000fd5b500190565b60805160a05160c05160e05161296562000367600039600081816102ff01526108dc015260005050600081816103e8015281816108b401528181610d4a01528181610de501528181610fd4015281816116c901528181611ac201528181611dab0152612121015260008181610434015281816107550152818161077c015261112701526129656000f3fe608060405234801561001057600080fd5b506004361061028a5760003560e01c8063630b5ba11161015c578063a86a366d116100ce578063b9a09fd511610087578063b9a09fd5146105ff578063d23254b414610628578063dc73e49c14610653578063ea94ee4414610666578063ef78d4fd14610679578063fecdad601461068257600080fd5b8063a86a366d14610560578063aa70fb9814610573578063aa79979b14610586578063ac4afa38146105b9578063b0c7044b146105cc578063b5ec5c99146105ec57600080fd5b806379e938241161012057806379e93824146104f3578063812632ec146105135780638da5cb5b1461051c57806396c82e5714610524578063a61c713a1461052d578063a7cac8461461054057600080fd5b8063630b5ba11461049f57806363453ae1146104a757806364482f79146104ba578063698473e3146104cd57806371dd4bda146104e057600080fd5b806332145f901161020057806348cd4cb1116101b957806348cd4cb11461042f57806348ee26a3146104565780634ade739b1461046957806351eb05a61461047c57806353d786931461048f578063570ca7351461049757600080fd5b806332145f90146103c757806337550684146103da5780633b92eb23146103e3578063411b1f771461040a5780634198709a1461041d578063442da82f1461042657600080fd5b80630fb5a6b4116102525780630fb5a6b414610336578063146650df146103405780631526fe271461036057806317caf6f11461039857806320b1cb6f146103a1578063310bd74b146103b457600080fd5b806306d6a1b21461028f578063081e3eda146102d55780630c9c7ef5146102e75780630d52333c146102fa5780630f589d6314610321575b600080fd5b6102b861029d366004612247565b6012602052600090815260409020546001600160a01b031681565b6040516001600160a01b0390911681526020015b60405180910390f35b600e545b6040519081526020016102cc565b6102b86102f5366004612272565b610695565b6102b87f000000000000000000000000000000000000000000000000000000000000000081565b61033461032f366004612247565b610a73565b005b6102d962093a8081565b61035361034e3660046122b4565b610bcf565b6040516102cc9190612311565b61037361036e3660046122b4565b610c3b565b604080516001600160a01b0390941684526020840192909252908201526060016102cc565b6102d9600d5481565b6103346103af366004612403565b610c78565b6103346103c23660046122b4565b610d2e565b6103346103d53660046122b4565b610e4c565b6102d960065481565b6102b87f000000000000000000000000000000000000000000000000000000000000000081565b6103346104183660046124d8565b610f9c565b6102d960035481565b6102d960045481565b6102d97f000000000000000000000000000000000000000000000000000000000000000081565b6001546102b8906001600160a01b031681565b610334610477366004612508565b61107e565b61033461048a3660046122b4565b611125565b61033461141a565b6102b86114a7565b61033461151a565b6103346104b5366004612247565b611545565b6103346104c836600461252d565b61154e565b6103346104db3660046124d8565b611691565b6103346104ee3660046122b4565b61176b565b6102d96105013660046122b4565b600c6020526000908152604090205481565b6102d960075481565b6102b8611803565b6102d960085481565b61033461053b36600461255b565b61184d565b6102d961054e366004612247565b60096020526000908152604090205481565b6102b861056e366004612593565b6118b5565b6103346105813660046122b4565b6118ed565b6105a9610594366004612247565b60136020526000908152604090205460ff1681565b60405190151581526020016102cc565b6102b86105c73660046122b4565b611985565b6102d96105da366004612247565b600f6020526000908152604090205481565b6103346105fa3660046122b4565b6119af565b6102b861060d366004612247565b6011602052600090815260409020546001600160a01b031681565b6102d96106363660046124d8565b600a60209081526000928352604080842090915290825290205481565b6002546102b8906001600160a01b031681565b61033461067436600461255b565b611a47565b6102d960055481565b610334610690366004612601565b611aa6565b6001600160a01b03838116600090815260116020526040812054909116156106ed5760405162461bcd60e51b815260206004820152600660248201526565786973747360d01b60448201526064015b60405180910390fd5b6001600160a01b0384166107435760405162461bcd60e51b815260206004820152601c60248201527f5f6c70546f6b656e20697320746865207a65726f20616464726573730000000060448201526064016106e4565b81156107515761075161151a565b60007f000000000000000000000000000000000000000000000000000000000000000043116107a0577f00000000000000000000000000000000000000000000000000000000000000006107a2565b435b600d549091506107b29085611bb8565b600d55604080516060810182526001600160a01b03878116825260208201878152928201848152600e805460018082018355600083905294517fbb7b4a454dc3493923482f07822329ed19e8244eff582cc204f8554c3620c3fd600390920291820180546001600160a01b031916919095161790935593517fbb7b4a454dc3493923482f07822329ed19e8244eff582cc204f8554c3620c3fe830155517fbb7b4a454dc3493923482f07822329ed19e8244eff582cc204f8554c3620c3ff9091015590546108809190612691565b6001600160a01b038681166000818152600f6020526040808220949094559251631e533a8f60e21b815260048101919091527f0000000000000000000000000000000000000000000000000000000000000000821660248201527f00000000000000000000000000000000000000000000000000000000000000009091169063794cea3c906044016020604051808303816000875af1158015610927573d6000803e3d6000fd5b505050506040513d601f19601f8201168201806040525081019061094b91906126a8565b60025460405163095ea7b360e01b81526001600160a01b038084166004830152600019602483015292935091169063095ea7b3906044016020604051808303816000875af11580156109a1573d6000803e3d6000fd5b505050506040513d601f19601f820116820180604052508101906109c591906126c5565b506001600160a01b03808716600081815260116020908152604080832080549587166001600160a01b03199687168117909155835260128252808320805490951690931790935560139092529020805460ff19166001179055610a2781611bcb565b6040513381526001600160a01b0380881691908316907f9b8203efe7fe42185a7755b0510f87c8b693971d6a7c22520aaf683e6b1242619060200160405180910390a395945050505050565b60015460408051638da5cb5b60e01b8152905133926001600160a01b031691638da5cb5b9160048083019260209291908290030181865afa158015610abc573d6000803e3d6000fd5b505050506040513d601f19601f82011682018060405250810190610ae091906126a8565b6001600160a01b031614610b365760405162461bcd60e51b815260206004820181905260248201527f4f776e61626c653a2063616c6c6572206973206e6f7420746865206f776e657260448201526064016106e4565b6001600160a01b038116610b7f5760405162461bcd60e51b815260206004820152601060248201526f3130b2103732bb9037b832b930ba37b960811b60448201526064016106e4565b600180546001600160a01b0319166001600160a01b03831690811790915560405182919081907f3ccbb406b985dd76fe05e172b432487a2ff9fe4257642d3acc350f167cb1d57790600090a35050565b6000818152600b6020908152604091829020805483518184028101840190945280845260609392830182828015610c2f57602002820191906000526020600020905b81546001600160a01b03168152600190910190602001808311610c11575b50505050509050919050565b600e8181548110610c4b57600080fd5b60009182526020909120600390910201805460018201546002909201546001600160a01b03909116925083565b60005b8251811015610d2957828181518110610c9657610c966126e2565b60200260200101516001600160a01b03166331279d3d33848481518110610cbf57610cbf6126e2565b60200260200101516040518363ffffffff1660e01b8152600401610ce49291906126f8565b600060405180830381600087803b158015610cfe57600080fd5b505af1158015610d12573d6000803e3d6000fd5b505050508080610d2190612724565b915050610c7b565b505050565b60405163430c208160e01b8152336004820152602481018290527f00000000000000000000000000000000000000000000000000000000000000006001600160a01b03169063430c208190604401602060405180830381865afa158015610d99573d6000803e3d6000fd5b505050506040513d601f19601f82011682018060405250810190610dbd91906126c5565b610dc657600080fd5b610dcf81611c00565b60405163c1f0fb9f60e01b8152600481018290527f00000000000000000000000000000000000000000000000000000000000000006001600160a01b03169063c1f0fb9f90602401600060405180830381600087803b158015610e3157600080fd5b505af1158015610e45573d6000803e3d6000fd5b5050505050565b6000818152600b6020908152604080832080548251818502810185019093528083529192909190830182828015610eac57602002820191906000526020600020905b81546001600160a01b03168152600190910190602001808311610e8e575b5050505050905060008151905060008167ffffffffffffffff811115610ed457610ed4612324565b604051908082528060200260200182016040528015610efd578160200160208202803683370190505b50905060005b82811015610f8a57600a60008681526020019081526020016000206000858381518110610f3257610f326126e2565b60200260200101516001600160a01b03166001600160a01b0316815260200190815260200160002054828281518110610f6d57610f6d6126e2565b602090810291909101015280610f8281612724565b915050610f03565b50610f96848483611d87565b50505050565b3360009081526013602052604090205460ff16610fb857600080fd5b811561103957604051634c35bec560e11b8152600481018390527f00000000000000000000000000000000000000000000000000000000000000006001600160a01b03169063986b7d8a90602401600060405180830381600087803b15801561102057600080fd5b505af1158015611034573d6000803e3d6000fd5b505050505b60405182815233906001600160a01b038316907fae268d9aab12f3605f58efd74fd3801fa812b03fdb44317eb70f46dff0e19e22906020015b60405180910390a35050565b6001546040805163570ca73560e01b8152905133926001600160a01b03169163570ca7359160048083019260209291908290030181865afa1580156110c7573d6000803e3d6000fd5b505050506040513d601f19601f820116820180604052508101906110eb91906126a8565b6001600160a01b0316146111115760405162461bcd60e51b81526004016106e49061273f565b801561111f5761111f61151a565b50600355565b7f00000000000000000000000000000000000000000000000000000000000000004311801561115657506004544310155b156111b157600754600354111561118c57611188606461118260506003546121b890919063ffffffff16565b906121c4565b6003555b600754600354101561119f576007546003555b6005546111ad904390611bb8565b6004555b6000600e82815481106111c6576111c66126e2565b90600052602060002090600302019050806002015443116111e5575050565b80546001600160a01b039081166000818152601160205260408082205490516370a0823160e01b815293166004840152916370a0823190602401602060405180830381865afa15801561123c573d6000803e3d6000fd5b505050506040513d601f19601f820116820180604052508101906112609190612765565b90508061127257504360029091015550565b60006003541161128157505050565b600061129a8360020154436121d090919063ffffffff16565b905060006112c7600d5461118286600101546112c1866003546121b890919063ffffffff16565b906121b8565b6002549091506000906001600160a01b03166340c10f19306112ec8562093a806121b8565b6040516001600160e01b031960e085901b1681526001600160a01b03909216600483015260248201526044016020604051808303816000875af1158015611337573d6000803e3d6000fd5b505050506040513d601f19601f8201168201806040525081019061135b91906126c5565b905080156114085784546001600160a01b03908116600090815260116020526040902054600254600d5460018901546003549385169463b66503cf949316926113a9929161118291906121b8565b6040516001600160e01b031960e085901b1681526001600160a01b0390921660048301526024820152604401600060405180830381600087803b1580156113ef57600080fd5b505af1158015611403573d6000803e3d6000fd5b505050505b43856002018190555050505050505b50565b60005b600e54811015611417576000600e828154811061143c5761143c6126e2565b6000918252602080832060408051606081018252600390940290910180546001600160a01b03908116808652600183015486860152600290920154858401529085526011909252909220549092506114949116611bcb565b508061149f81612724565b91505061141d565b6001546040805163570ca73560e01b815290516000926001600160a01b03169163570ca7359160048083019260209291908290030181865afa1580156114f1573d6000803e3d6000fd5b505050506040513d601f19601f8201168201806040525081019061151591906126a8565b905090565b600e5460005b818110156115415761153181611125565b61153a81612724565b9050611520565b5050565b61141781611bcb565b60015460408051638da5cb5b60e01b8152905133926001600160a01b031691638da5cb5b9160048083019260209291908290030181865afa158015611597573d6000803e3d6000fd5b505050506040513d601f19601f820116820180604052508101906115bb91906126a8565b6001600160a01b0316146116115760405162461bcd60e51b815260206004820181905260248201527f4f776e61626c653a2063616c6c6572206973206e6f7420746865206f776e657260448201526064016106e4565b6116548261164e600e868154811061162b5761162b6126e2565b906000526020600020906003020160010154600d546121d090919063ffffffff16565b90611bb8565b600d8190555081600e848154811061166e5761166e6126e2565b9060005260206000209060030201600101819055508015610d2957610d2961151a565b3360009081526013602052604090205460ff166116ad57600080fd5b811561172e5760405163020fe6e560e01b8152600481018390527f00000000000000000000000000000000000000000000000000000000000000006001600160a01b03169063020fe6e590602401600060405180830381600087803b15801561171557600080fd5b505af1158015611729573d6000803e3d6000fd5b505050505b60405182815233906001600160a01b038316907f60940192810a6fb3bce3fd3e2e3a13fd6ccc7605e963fb87ee971aba829989bd90602001611072565b6001546040805163570ca73560e01b8152905133926001600160a01b03169163570ca7359160048083019260209291908290030181865afa1580156117b4573d6000803e3d6000fd5b505050506040513d601f19601f820116820180604052508101906117d891906126a8565b6001600160a01b0316146117fe5760405162461bcd60e51b81526004016106e49061273f565b600655565b60015460408051638da5cb5b60e01b815290516000926001600160a01b031691638da5cb5b9160048083019260209291908290030181865afa1580156114f1573d6000803e3d6000fd5b3360009081526013602052604090205460ff1661186957600080fd5b604080518481526020810183905233916001600160a01b038516917fdcbc1c05240f31ff3ad067ef1ee35ce4997762752e3a095284754544f4c709d791015b60405180910390a3505050565b600b60205281600052604060002081815481106118d157600080fd5b6000918252602090912001546001600160a01b03169150829050565b6001546040805163570ca73560e01b8152905133926001600160a01b03169163570ca7359160048083019260209291908290030181865afa158015611936573d6000803e3d6000fd5b505050506040513d601f19601f8201168201806040525081019061195a91906126a8565b6001600160a01b0316146119805760405162461bcd60e51b81526004016106e49061273f565b600755565b6010818154811061199557600080fd5b6000918252602090912001546001600160a01b0316905081565b6001546040805163570ca73560e01b8152905133926001600160a01b03169163570ca7359160048083019260209291908290030181865afa1580156119f8573d6000803e3d6000fd5b505050506040513d601f19601f82011682018060405250810190611a1c91906126a8565b6001600160a01b031614611a425760405162461bcd60e51b81526004016106e49061273f565b600555565b3360009081526013602052604090205460ff16611a6357600080fd5b604080518481526020810183905233916001600160a01b038516917ff341246adaac6f497bc2a656f546ab9e182111d630394f0c57c710a59a2cb56791016118a8565b60405163430c208160e01b8152336004820152602481018690527f00000000000000000000000000000000000000000000000000000000000000006001600160a01b03169063430c208190604401602060405180830381865afa158015611b11573d6000803e3d6000fd5b505050506040513d601f19601f82011682018060405250810190611b3591906126c5565b611b3e57600080fd5b828114611b4a57600080fd5b610e458585858080602002602001604051908101604052809392919081815260200183836020028082843760009201919091525050604080516020808902828101820190935288825290935088925087918291850190849080828437600092019190915250611d8792505050565b6000611bc4828461277e565b9392505050565b6001600160a01b03808216600090815260126020908152604080832054909316808352600f9091529190205461154190611125565b6000818152600b6020526040812080549091805b82811015611d4b576000848281548110611c3057611c306126e2565b6000918252602080832090910154888352600a825260408084206001600160a01b03909216808552919092529120549091508015611d3657611c71826121dc565b6001600160a01b03821660009081526009602052604081208054839290611c99908490612796565b90915550506000878152600a602090815260408083206001600160a01b038616845290915281208054839290611cd0908490612796565b90915550506000811315611cef57611ce881856127d5565b9350611cfc565b611cf98185612796565b93505b60408051888152602081018390527f6b3894ce60b9bbe9d93f1a4e6fc25b6b93cd8222e73ab6348d79c596f5b51de9910160405180910390a15b50508080611d4390612724565b915050611c14565b508060086000828254611d5e9190612691565b90915550506000848152600c60209081526040808320839055600b9091528120610f9691612200565b611d9083611c00565b81516040516339f890b560e21b8152600481018590526000907f00000000000000000000000000000000000000000000000000000000000000006001600160a01b03169063e7e242d490602401602060405180830381865afa158015611dfa573d6000803e3d6000fd5b505050506040513d601f19601f82011682018060405250810190611e1e9190612765565b90506000806000805b85811015611eb1576000878281518110611e4357611e436126e2565b602002602001015113611e7857868181518110611e6257611e626126e2565b6020026020010151611e7390612816565b611e93565b868181518110611e8a57611e8a6126e2565b60200260200101515b611e9d90856127d5565b935080611ea981612724565b915050611e27565b5060005b85811015612101576000888281518110611ed157611ed16126e2565b60200260200101519050611f0d816001600160a01b03908116600090815260116020908152604080832054909316825260139052205460ff1690565b156120ee57600085878a8581518110611f2857611f286126e2565b6020026020010151611f3a9190612833565b611f4491906128ce565b60008c8152600a602090815260408083206001600160a01b038716845290915290205490915015611fa95760405162461bcd60e51b815260206004820152600f60248201526e0746f6b656e20706f6f6c206973203608c1b60448201526064016106e4565b80611fe45760405162461bcd60e51b815260206004820152600b60248201526a077656967687420697320360ac1b60448201526064016106e4565b611fed826121dc565b60008b8152600b6020908152604080832080546001810182559084528284200180546001600160a01b0319166001600160a01b03871690811790915583526009909152812080548392906120429084906127d5565b909155505060008b8152600a602090815260408083206001600160a01b0386168452909152812080548392906120799084906127d5565b9091555050600081131561208c57612098565b61209581612816565b90505b6120a281856127d5565b93506120ae81866127d5565b604080518d81526020810184905291965033917f1263a2295e53acd6ef8f655b8afc11fa0f2cf11925be7aa1757d741ef32a926c910160405180910390a2505b50806120f981612724565b915050611eb5565b5060008113156121865760405163fd4a77f160e01b8152600481018990527f00000000000000000000000000000000000000000000000000000000000000006001600160a01b03169063fd4a77f190602401600060405180830381600087803b15801561216d57600080fd5b505af1158015612181573d6000803e3d6000fd5b505050505b8160086000828254612198919061277e565b90915550506000978852600c602052604090972096909655505050505050565b6000611bc482846128fc565b6000611bc4828461291b565b6000611bc48284612691565b6001600160a01b038082166000908152601160205260409020546114179116611bcb565b508054600082559060005260206000209081019061141791905b8082111561222e576000815560010161221a565b5090565b6001600160a01b038116811461141757600080fd5b60006020828403121561225957600080fd5b8135611bc481612232565b801515811461141757600080fd5b60008060006060848603121561228757600080fd5b833561229281612232565b92506020840135915060408401356122a981612264565b809150509250925092565b6000602082840312156122c657600080fd5b5035919050565b600081518084526020808501945080840160005b838110156123065781516001600160a01b0316875295820195908201906001016122e1565b509495945050505050565b602081526000611bc460208301846122cd565b634e487b7160e01b600052604160045260246000fd5b604051601f8201601f1916810167ffffffffffffffff8111828210171561236357612363612324565b604052919050565b600067ffffffffffffffff82111561238557612385612324565b5060051b60200190565b600082601f8301126123a057600080fd5b813560206123b56123b08361236b565b61233a565b82815260059290921b840181019181810190868411156123d457600080fd5b8286015b848110156123f85780356123eb81612232565b83529183019183016123d8565b509695505050505050565b6000806040838503121561241657600080fd5b823567ffffffffffffffff8082111561242e57600080fd5b61243a8683870161238f565b935060209150818501358181111561245157600080fd5b8501601f8101871361246257600080fd5b80356124706123b08261236b565b81815260059190911b8201840190848101908983111561248f57600080fd5b8584015b838110156124c7578035868111156124ab5760008081fd5b6124b98c898389010161238f565b845250918601918601612493565b508096505050505050509250929050565b600080604083850312156124eb57600080fd5b8235915060208301356124fd81612232565b809150509250929050565b6000806040838503121561251b57600080fd5b8235915060208301356124fd81612264565b60008060006060848603121561254257600080fd5b833592506020840135915060408401356122a981612264565b60008060006060848603121561257057600080fd5b83359250602084013561258281612232565b929592945050506040919091013590565b600080604083850312156125a657600080fd5b50508035926020909101359150565b60008083601f8401126125c757600080fd5b50813567ffffffffffffffff8111156125df57600080fd5b6020830191508360208260051b85010111156125fa57600080fd5b9250929050565b60008060008060006060868803121561261957600080fd5b85359450602086013567ffffffffffffffff8082111561263857600080fd5b61264489838a016125b5565b9096509450604088013591508082111561265d57600080fd5b5061266a888289016125b5565b969995985093965092949392505050565b634e487b7160e01b600052601160045260246000fd5b6000828210156126a3576126a361267b565b500390565b6000602082840312156126ba57600080fd5b8151611bc481612232565b6000602082840312156126d757600080fd5b8151611bc481612264565b634e487b7160e01b600052603260045260246000fd5b6001600160a01b038316815260406020820181905260009061271c908301846122cd565b949350505050565b60006000198214156127385761273861267b565b5060010190565b6020808252600c908201526b3737ba1037b832b930ba37b960a11b604082015260600190565b60006020828403121561277757600080fd5b5051919050565b600082198211156127915761279161267b565b500190565b60008083128015600160ff1b8501841216156127b4576127b461267b565b6001600160ff1b03840183138116156127cf576127cf61267b565b50500390565b600080821280156001600160ff1b03849003851316156127f7576127f761267b565b600160ff1b83900384128116156128105761281061267b565b50500190565b6000600160ff1b82141561282c5761282c61267b565b5060000390565b60006001600160ff1b03818413828413808216868404861116156128595761285961267b565b600160ff1b60008712828116878305891216156128785761287861267b565b600087129250878205871284841616156128945761289461267b565b878505871281841616156128aa576128aa61267b565b505050929093029392505050565b634e487b7160e01b600052601260045260246000fd5b6000826128dd576128dd6128b8565b600160ff1b8214600019841416156128f7576128f761267b565b500590565b60008160001904831182151516156129165761291661267b565b500290565b60008261292a5761292a6128b8565b50049056fea264697066735822122081b25789b0e839f922afc225bcf3022ee4a0358b7f60aa32eb4ab6a884bb1e5164736f6c634300080a0033",
					"opcodes": "PUSH2 0x100 PUSH1 0x40 MSTORE PUSH8 0x26DB992A3B18000 PUSH1 0x7 SSTORE PUSH1 0x0 PUSH1 0xD SSTORE CALLVALUE DUP1 ISZERO PUSH3 0x23 JUMPI PUSH1 0x0 DUP1 REVERT JUMPDEST POP PUSH1 0x40 MLOAD PUSH3 0x2CCC CODESIZE SUB DUP1 PUSH3 0x2CCC DUP4 CODECOPY DUP2 ADD PUSH1 0x40 DUP2 SWAP1 MSTORE PUSH3 0x46 SWAP2 PUSH3 0x20E JUMP JUMPDEST PUSH1 0x1 PUSH1 0x0 DUP2 DUP2 SSTORE DUP2 SLOAD PUSH1 0x1 PUSH1 0x1 PUSH1 0xA0 SHL SUB NOT AND PUSH1 0x1 PUSH1 0x1 PUSH1 0xA0 SHL SUB DUP11 AND SWAP1 DUP2 OR SWAP1 SWAP3 SSTORE PUSH1 0x40 MLOAD DUP10 SWAP3 DUP10 SWAP3 DUP9 SWAP3 DUP9 SWAP3 DUP9 SWAP3 DUP9 SWAP3 DUP9 SWAP3 DUP8 SWAP3 DUP8 SWAP3 DUP8 SWAP3 DUP8 SWAP3 DUP8 SWAP3 PUSH32 0x3CCBB406B985DD76FE05E172B432487A2FF9FE4257642D3ACC350F167CB1D577 SWAP1 DUP3 SWAP1 LOG3 POP PUSH1 0x1 PUSH1 0x1 PUSH1 0xA0 SHL SUB DUP5 AND PUSH3 0xF6 JUMPI PUSH1 0x40 MLOAD PUSH3 0x461BCD PUSH1 0xE5 SHL DUP2 MSTORE PUSH1 0x20 PUSH1 0x4 DUP3 ADD MSTORE PUSH1 0xE PUSH1 0x24 DUP3 ADD MSTORE PUSH14 0x73776170546F6B656E206973203 PUSH1 0x94 SHL PUSH1 0x44 DUP3 ADD MSTORE PUSH1 0x64 ADD PUSH1 0x40 MLOAD DUP1 SWAP2 SUB SWAP1 REVERT JUMPDEST PUSH1 0x2 DUP1 SLOAD PUSH1 0x1 PUSH1 0x1 PUSH1 0xA0 SHL SUB NOT AND PUSH1 0x1 PUSH1 0x1 PUSH1 0xA0 SHL SUB DUP7 AND OR SWAP1 SSTORE PUSH1 0x3 DUP4 SWAP1 SSTORE PUSH1 0x80 DUP3 SWAP1 MSTORE PUSH1 0x5 DUP2 SWAP1 SSTORE PUSH3 0x138 DUP3 DUP3 PUSH3 0x1E0 PUSH1 0x20 SWAP1 DUP2 SHL PUSH3 0x1BB8 OR SWAP1 SHR JUMP JUMPDEST PUSH1 0x4 SWAP1 DUP2 SSTORE PUSH2 0x3E8 PUSH1 0x6 SSTORE PUSH1 0x1 PUSH1 0x1 PUSH1 0xA0 SHL SUB DUP12 AND PUSH1 0xA0 DUP2 SWAP1 MSTORE PUSH1 0x40 DUP1 MLOAD PUSH4 0x7E062A35 PUSH1 0xE1 SHL DUP2 MSTORE SWAP1 MLOAD SWAP2 SWAP8 POP PUSH4 0xFC0C546A SWAP7 POP DUP1 DUP4 ADD SWAP6 POP PUSH1 0x20 SWAP5 POP SWAP1 SWAP3 POP DUP3 SWAP1 SUB ADD DUP2 DUP7 GAS STATICCALL ISZERO DUP1 ISZERO PUSH3 0x192 JUMPI RETURNDATASIZE PUSH1 0x0 DUP1 RETURNDATACOPY RETURNDATASIZE PUSH1 0x0 REVERT JUMPDEST POP POP POP POP PUSH1 0x40 MLOAD RETURNDATASIZE PUSH1 0x1F NOT PUSH1 0x1F DUP3 ADD AND DUP3 ADD DUP1 PUSH1 0x40 MSTORE POP DUP2 ADD SWAP1 PUSH3 0x1B8 SWAP2 SWAP1 PUSH3 0x295 JUMP JUMPDEST PUSH1 0x1 PUSH1 0x1 PUSH1 0xA0 SHL SUB SWAP1 DUP2 AND PUSH1 0xC0 MSTORE SWAP11 SWAP1 SWAP11 AND PUSH1 0xE0 MSTORE POP PUSH3 0x2DC SWAP11 POP POP POP POP POP POP POP POP POP POP POP JUMP JUMPDEST PUSH1 0x0 PUSH3 0x1EE DUP3 DUP5 PUSH3 0x2B5 JUMP JUMPDEST SWAP4 SWAP3 POP POP POP JUMP JUMPDEST PUSH1 0x1 PUSH1 0x1 PUSH1 0xA0 SHL SUB DUP2 AND DUP2 EQ PUSH3 0x20B JUMPI PUSH1 0x0 DUP1 REVERT JUMPDEST POP JUMP JUMPDEST PUSH1 0x0 DUP1 PUSH1 0x0 DUP1 PUSH1 0x0 DUP1 PUSH1 0x0 PUSH1 0xE0 DUP9 DUP11 SUB SLT ISZERO PUSH3 0x22A JUMPI PUSH1 0x0 DUP1 REVERT JUMPDEST DUP8 MLOAD PUSH3 0x237 DUP2 PUSH3 0x1F5 JUMP JUMPDEST PUSH1 0x20 DUP10 ADD MLOAD SWAP1 SWAP8 POP PUSH3 0x24A DUP2 PUSH3 0x1F5 JUMP JUMPDEST PUSH1 0x40 DUP10 ADD MLOAD SWAP1 SWAP7 POP PUSH3 0x25D DUP2 PUSH3 0x1F5 JUMP JUMPDEST PUSH1 0x60 DUP10 ADD MLOAD SWAP1 SWAP6 POP PUSH3 0x270 DUP2 PUSH3 0x1F5 JUMP JUMPDEST DUP1 SWAP5 POP POP PUSH1 0x80 DUP9 ADD MLOAD SWAP3 POP PUSH1 0xA0 DUP9 ADD MLOAD SWAP2 POP PUSH1 0xC0 DUP9 ADD MLOAD SWAP1 POP SWAP3 SWAP6 SWAP9 SWAP2 SWAP5 SWAP8 POP SWAP3 SWAP6 POP JUMP JUMPDEST PUSH1 0x0 PUSH1 0x20 DUP3 DUP5 SUB SLT ISZERO PUSH3 0x2A8 JUMPI PUSH1 0x0 DUP1 REVERT JUMPDEST DUP2 MLOAD PUSH3 0x1EE DUP2 PUSH3 0x1F5 JUMP JUMPDEST PUSH1 0x0 DUP3 NOT DUP3 GT ISZERO PUSH3 0x2D7 JUMPI PUSH4 0x4E487B71 PUSH1 0xE0 SHL PUSH1 0x0 MSTORE PUSH1 0x11 PUSH1 0x4 MSTORE PUSH1 0x24 PUSH1 0x0 REVERT JUMPDEST POP ADD SWAP1 JUMP JUMPDEST PUSH1 0x80 MLOAD PUSH1 0xA0 MLOAD PUSH1 0xC0 MLOAD PUSH1 0xE0 MLOAD PUSH2 0x2965 PUSH3 0x367 PUSH1 0x0 CODECOPY PUSH1 0x0 DUP2 DUP2 PUSH2 0x2FF ADD MSTORE PUSH2 0x8DC ADD MSTORE PUSH1 0x0 POP POP PUSH1 0x0 DUP2 DUP2 PUSH2 0x3E8 ADD MSTORE DUP2 DUP2 PUSH2 0x8B4 ADD MSTORE DUP2 DUP2 PUSH2 0xD4A ADD MSTORE DUP2 DUP2 PUSH2 0xDE5 ADD MSTORE DUP2 DUP2 PUSH2 0xFD4 ADD MSTORE DUP2 DUP2 PUSH2 0x16C9 ADD MSTORE DUP2 DUP2 PUSH2 0x1AC2 ADD MSTORE DUP2 DUP2 PUSH2 0x1DAB ADD MSTORE PUSH2 0x2121 ADD MSTORE PUSH1 0x0 DUP2 DUP2 PUSH2 0x434 ADD MSTORE DUP2 DUP2 PUSH2 0x755 ADD MSTORE DUP2 DUP2 PUSH2 0x77C ADD MSTORE PUSH2 0x1127 ADD MSTORE PUSH2 0x2965 PUSH1 0x0 RETURN INVALID PUSH1 0x80 PUSH1 0x40 MSTORE CALLVALUE DUP1 ISZERO PUSH2 0x10 JUMPI PUSH1 0x0 DUP1 REVERT JUMPDEST POP PUSH1 0x4 CALLDATASIZE LT PUSH2 0x28A JUMPI PUSH1 0x0 CALLDATALOAD PUSH1 0xE0 SHR DUP1 PUSH4 0x630B5BA1 GT PUSH2 0x15C JUMPI DUP1 PUSH4 0xA86A366D GT PUSH2 0xCE JUMPI DUP1 PUSH4 0xB9A09FD5 GT PUSH2 0x87 JUMPI DUP1 PUSH4 0xB9A09FD5 EQ PUSH2 0x5FF JUMPI DUP1 PUSH4 0xD23254B4 EQ PUSH2 0x628 JUMPI DUP1 PUSH4 0xDC73E49C EQ PUSH2 0x653 JUMPI DUP1 PUSH4 0xEA94EE44 EQ PUSH2 0x666 JUMPI DUP1 PUSH4 0xEF78D4FD EQ PUSH2 0x679 JUMPI DUP1 PUSH4 0xFECDAD60 EQ PUSH2 0x682 JUMPI PUSH1 0x0 DUP1 REVERT JUMPDEST DUP1 PUSH4 0xA86A366D EQ PUSH2 0x560 JUMPI DUP1 PUSH4 0xAA70FB98 EQ PUSH2 0x573 JUMPI DUP1 PUSH4 0xAA79979B EQ PUSH2 0x586 JUMPI DUP1 PUSH4 0xAC4AFA38 EQ PUSH2 0x5B9 JUMPI DUP1 PUSH4 0xB0C7044B EQ PUSH2 0x5CC JUMPI DUP1 PUSH4 0xB5EC5C99 EQ PUSH2 0x5EC JUMPI PUSH1 0x0 DUP1 REVERT JUMPDEST DUP1 PUSH4 0x79E93824 GT PUSH2 0x120 JUMPI DUP1 PUSH4 0x79E93824 EQ PUSH2 0x4F3 JUMPI DUP1 PUSH4 0x812632EC EQ PUSH2 0x513 JUMPI DUP1 PUSH4 0x8DA5CB5B EQ PUSH2 0x51C JUMPI DUP1 PUSH4 0x96C82E57 EQ PUSH2 0x524 JUMPI DUP1 PUSH4 0xA61C713A EQ PUSH2 0x52D JUMPI DUP1 PUSH4 0xA7CAC846 EQ PUSH2 0x540 JUMPI PUSH1 0x0 DUP1 REVERT JUMPDEST DUP1 PUSH4 0x630B5BA1 EQ PUSH2 0x49F JUMPI DUP1 PUSH4 0x63453AE1 EQ PUSH2 0x4A7 JUMPI DUP1 PUSH4 0x64482F79 EQ PUSH2 0x4BA JUMPI DUP1 PUSH4 0x698473E3 EQ PUSH2 0x4CD JUMPI DUP1 PUSH4 0x71DD4BDA EQ PUSH2 0x4E0 JUMPI PUSH1 0x0 DUP1 REVERT JUMPDEST DUP1 PUSH4 0x32145F90 GT PUSH2 0x200 JUMPI DUP1 PUSH4 0x48CD4CB1 GT PUSH2 0x1B9 JUMPI DUP1 PUSH4 0x48CD4CB1 EQ PUSH2 0x42F JUMPI DUP1 PUSH4 0x48EE26A3 EQ PUSH2 0x456 JUMPI DUP1 PUSH4 0x4ADE739B EQ PUSH2 0x469 JUMPI DUP1 PUSH4 0x51EB05A6 EQ PUSH2 0x47C JUMPI DUP1 PUSH4 0x53D78693 EQ PUSH2 0x48F JUMPI DUP1 PUSH4 0x570CA735 EQ PUSH2 0x497 JUMPI PUSH1 0x0 DUP1 REVERT JUMPDEST DUP1 PUSH4 0x32145F90 EQ PUSH2 0x3C7 JUMPI DUP1 PUSH4 0x37550684 EQ PUSH2 0x3DA JUMPI DUP1 PUSH4 0x3B92EB23 EQ PUSH2 0x3E3 JUMPI DUP1 PUSH4 0x411B1F77 EQ PUSH2 0x40A JUMPI DUP1 PUSH4 0x4198709A EQ PUSH2 0x41D JUMPI DUP1 PUSH4 0x442DA82F EQ PUSH2 0x426 JUMPI PUSH1 0x0 DUP1 REVERT JUMPDEST DUP1 PUSH4 0xFB5A6B4 GT PUSH2 0x252 JUMPI DUP1 PUSH4 0xFB5A6B4 EQ PUSH2 0x336 JUMPI DUP1 PUSH4 0x146650DF EQ PUSH2 0x340 JUMPI DUP1 PUSH4 0x1526FE27 EQ PUSH2 0x360 JUMPI DUP1 PUSH4 0x17CAF6F1 EQ PUSH2 0x398 JUMPI DUP1 PUSH4 0x20B1CB6F EQ PUSH2 0x3A1 JUMPI DUP1 PUSH4 0x310BD74B EQ PUSH2 0x3B4 JUMPI PUSH1 0x0 DUP1 REVERT JUMPDEST DUP1 PUSH4 0x6D6A1B2 EQ PUSH2 0x28F JUMPI DUP1 PUSH4 0x81E3EDA EQ PUSH2 0x2D5 JUMPI DUP1 PUSH4 0xC9C7EF5 EQ PUSH2 0x2E7 JUMPI DUP1 PUSH4 0xD52333C EQ PUSH2 0x2FA JUMPI DUP1 PUSH4 0xF589D63 EQ PUSH2 0x321 JUMPI JUMPDEST PUSH1 0x0 DUP1 REVERT JUMPDEST PUSH2 0x2B8 PUSH2 0x29D CALLDATASIZE PUSH1 0x4 PUSH2 0x2247 JUMP JUMPDEST PUSH1 0x12 PUSH1 0x20 MSTORE PUSH1 0x0 SWAP1 DUP2 MSTORE PUSH1 0x40 SWAP1 KECCAK256 SLOAD PUSH1 0x1 PUSH1 0x1 PUSH1 0xA0 SHL SUB AND DUP2 JUMP JUMPDEST PUSH1 0x40 MLOAD PUSH1 0x1 PUSH1 0x1 PUSH1 0xA0 SHL SUB SWAP1 SWAP2 AND DUP2 MSTORE PUSH1 0x20 ADD JUMPDEST PUSH1 0x40 MLOAD DUP1 SWAP2 SUB SWAP1 RETURN JUMPDEST PUSH1 0xE SLOAD JUMPDEST PUSH1 0x40 MLOAD SWAP1 DUP2 MSTORE PUSH1 0x20 ADD PUSH2 0x2CC JUMP JUMPDEST PUSH2 0x2B8 PUSH2 0x2F5 CALLDATASIZE PUSH1 0x4 PUSH2 0x2272 JUMP JUMPDEST PUSH2 0x695 JUMP JUMPDEST PUSH2 0x2B8 PUSH32 0x0 DUP2 JUMP JUMPDEST PUSH2 0x334 PUSH2 0x32F CALLDATASIZE PUSH1 0x4 PUSH2 0x2247 JUMP JUMPDEST PUSH2 0xA73 JUMP JUMPDEST STOP JUMPDEST PUSH2 0x2D9 PUSH3 0x93A80 DUP2 JUMP JUMPDEST PUSH2 0x353 PUSH2 0x34E CALLDATASIZE PUSH1 0x4 PUSH2 0x22B4 JUMP JUMPDEST PUSH2 0xBCF JUMP JUMPDEST PUSH1 0x40 MLOAD PUSH2 0x2CC SWAP2 SWAP1 PUSH2 0x2311 JUMP JUMPDEST PUSH2 0x373 PUSH2 0x36E CALLDATASIZE PUSH1 0x4 PUSH2 0x22B4 JUMP JUMPDEST PUSH2 0xC3B JUMP JUMPDEST PUSH1 0x40 DUP1 MLOAD PUSH1 0x1 PUSH1 0x1 PUSH1 0xA0 SHL SUB SWAP1 SWAP5 AND DUP5 MSTORE PUSH1 0x20 DUP5 ADD SWAP3 SWAP1 SWAP3 MSTORE SWAP1 DUP3 ADD MSTORE PUSH1 0x60 ADD PUSH2 0x2CC JUMP JUMPDEST PUSH2 0x2D9 PUSH1 0xD SLOAD DUP2 JUMP JUMPDEST PUSH2 0x334 PUSH2 0x3AF CALLDATASIZE PUSH1 0x4 PUSH2 0x2403 JUMP JUMPDEST PUSH2 0xC78 JUMP JUMPDEST PUSH2 0x334 PUSH2 0x3C2 CALLDATASIZE PUSH1 0x4 PUSH2 0x22B4 JUMP JUMPDEST PUSH2 0xD2E JUMP JUMPDEST PUSH2 0x334 PUSH2 0x3D5 CALLDATASIZE PUSH1 0x4 PUSH2 0x22B4 JUMP JUMPDEST PUSH2 0xE4C JUMP JUMPDEST PUSH2 0x2D9 PUSH1 0x6 SLOAD DUP2 JUMP JUMPDEST PUSH2 0x2B8 PUSH32 0x0 DUP2 JUMP JUMPDEST PUSH2 0x334 PUSH2 0x418 CALLDATASIZE PUSH1 0x4 PUSH2 0x24D8 JUMP JUMPDEST PUSH2 0xF9C JUMP JUMPDEST PUSH2 0x2D9 PUSH1 0x3 SLOAD DUP2 JUMP JUMPDEST PUSH2 0x2D9 PUSH1 0x4 SLOAD DUP2 JUMP JUMPDEST PUSH2 0x2D9 PUSH32 0x0 DUP2 JUMP JUMPDEST PUSH1 0x1 SLOAD PUSH2 0x2B8 SWAP1 PUSH1 0x1 PUSH1 0x1 PUSH1 0xA0 SHL SUB AND DUP2 JUMP JUMPDEST PUSH2 0x334 PUSH2 0x477 CALLDATASIZE PUSH1 0x4 PUSH2 0x2508 JUMP JUMPDEST PUSH2 0x107E JUMP JUMPDEST PUSH2 0x334 PUSH2 0x48A CALLDATASIZE PUSH1 0x4 PUSH2 0x22B4 JUMP JUMPDEST PUSH2 0x1125 JUMP JUMPDEST PUSH2 0x334 PUSH2 0x141A JUMP JUMPDEST PUSH2 0x2B8 PUSH2 0x14A7 JUMP JUMPDEST PUSH2 0x334 PUSH2 0x151A JUMP JUMPDEST PUSH2 0x334 PUSH2 0x4B5 CALLDATASIZE PUSH1 0x4 PUSH2 0x2247 JUMP JUMPDEST PUSH2 0x1545 JUMP JUMPDEST PUSH2 0x334 PUSH2 0x4C8 CALLDATASIZE PUSH1 0x4 PUSH2 0x252D JUMP JUMPDEST PUSH2 0x154E JUMP JUMPDEST PUSH2 0x334 PUSH2 0x4DB CALLDATASIZE PUSH1 0x4 PUSH2 0x24D8 JUMP JUMPDEST PUSH2 0x1691 JUMP JUMPDEST PUSH2 0x334 PUSH2 0x4EE CALLDATASIZE PUSH1 0x4 PUSH2 0x22B4 JUMP JUMPDEST PUSH2 0x176B JUMP JUMPDEST PUSH2 0x2D9 PUSH2 0x501 CALLDATASIZE PUSH1 0x4 PUSH2 0x22B4 JUMP JUMPDEST PUSH1 0xC PUSH1 0x20 MSTORE PUSH1 0x0 SWAP1 DUP2 MSTORE PUSH1 0x40 SWAP1 KECCAK256 SLOAD DUP2 JUMP JUMPDEST PUSH2 0x2D9 PUSH1 0x7 SLOAD DUP2 JUMP JUMPDEST PUSH2 0x2B8 PUSH2 0x1803 JUMP JUMPDEST PUSH2 0x2D9 PUSH1 0x8 SLOAD DUP2 JUMP JUMPDEST PUSH2 0x334 PUSH2 0x53B CALLDATASIZE PUSH1 0x4 PUSH2 0x255B JUMP JUMPDEST PUSH2 0x184D JUMP JUMPDEST PUSH2 0x2D9 PUSH2 0x54E CALLDATASIZE PUSH1 0x4 PUSH2 0x2247 JUMP JUMPDEST PUSH1 0x9 PUSH1 0x20 MSTORE PUSH1 0x0 SWAP1 DUP2 MSTORE PUSH1 0x40 SWAP1 KECCAK256 SLOAD DUP2 JUMP JUMPDEST PUSH2 0x2B8 PUSH2 0x56E CALLDATASIZE PUSH1 0x4 PUSH2 0x2593 JUMP JUMPDEST PUSH2 0x18B5 JUMP JUMPDEST PUSH2 0x334 PUSH2 0x581 CALLDATASIZE PUSH1 0x4 PUSH2 0x22B4 JUMP JUMPDEST PUSH2 0x18ED JUMP JUMPDEST PUSH2 0x5A9 PUSH2 0x594 CALLDATASIZE PUSH1 0x4 PUSH2 0x2247 JUMP JUMPDEST PUSH1 0x13 PUSH1 0x20 MSTORE PUSH1 0x0 SWAP1 DUP2 MSTORE PUSH1 0x40 SWAP1 KECCAK256 SLOAD PUSH1 0xFF AND DUP2 JUMP JUMPDEST PUSH1 0x40 MLOAD SWAP1 ISZERO ISZERO DUP2 MSTORE PUSH1 0x20 ADD PUSH2 0x2CC JUMP JUMPDEST PUSH2 0x2B8 PUSH2 0x5C7 CALLDATASIZE PUSH1 0x4 PUSH2 0x22B4 JUMP JUMPDEST PUSH2 0x1985 JUMP JUMPDEST PUSH2 0x2D9 PUSH2 0x5DA CALLDATASIZE PUSH1 0x4 PUSH2 0x2247 JUMP JUMPDEST PUSH1 0xF PUSH1 0x20 MSTORE PUSH1 0x0 SWAP1 DUP2 MSTORE PUSH1 0x40 SWAP1 KECCAK256 SLOAD DUP2 JUMP JUMPDEST PUSH2 0x334 PUSH2 0x5FA CALLDATASIZE PUSH1 0x4 PUSH2 0x22B4 JUMP JUMPDEST PUSH2 0x19AF JUMP JUMPDEST PUSH2 0x2B8 PUSH2 0x60D CALLDATASIZE PUSH1 0x4 PUSH2 0x2247 JUMP JUMPDEST PUSH1 0x11 PUSH1 0x20 MSTORE PUSH1 0x0 SWAP1 DUP2 MSTORE PUSH1 0x40 SWAP1 KECCAK256 SLOAD PUSH1 0x1 PUSH1 0x1 PUSH1 0xA0 SHL SUB AND DUP2 JUMP JUMPDEST PUSH2 0x2D9 PUSH2 0x636 CALLDATASIZE PUSH1 0x4 PUSH2 0x24D8 JUMP JUMPDEST PUSH1 0xA PUSH1 0x20 SWAP1 DUP2 MSTORE PUSH1 0x0 SWAP3 DUP4 MSTORE PUSH1 0x40 DUP1 DUP5 KECCAK256 SWAP1 SWAP2 MSTORE SWAP1 DUP3 MSTORE SWAP1 KECCAK256 SLOAD DUP2 JUMP JUMPDEST PUSH1 0x2 SLOAD PUSH2 0x2B8 SWAP1 PUSH1 0x1 PUSH1 0x1 PUSH1 0xA0 SHL SUB AND DUP2 JUMP JUMPDEST PUSH2 0x334 PUSH2 0x674 CALLDATASIZE PUSH1 0x4 PUSH2 0x255B JUMP JUMPDEST PUSH2 0x1A47 JUMP JUMPDEST PUSH2 0x2D9 PUSH1 0x5 SLOAD DUP2 JUMP JUMPDEST PUSH2 0x334 PUSH2 0x690 CALLDATASIZE PUSH1 0x4 PUSH2 0x2601 JUMP JUMPDEST PUSH2 0x1AA6 JUMP JUMPDEST PUSH1 0x1 PUSH1 0x1 PUSH1 0xA0 SHL SUB DUP4 DUP2 AND PUSH1 0x0 SWAP1 DUP2 MSTORE PUSH1 0x11 PUSH1 0x20 MSTORE PUSH1 0x40 DUP2 KECCAK256 SLOAD SWAP1 SWAP2 AND ISZERO PUSH2 0x6ED JUMPI PUSH1 0x40 MLOAD PUSH3 0x461BCD PUSH1 0xE5 SHL DUP2 MSTORE PUSH1 0x20 PUSH1 0x4 DUP3 ADD MSTORE PUSH1 0x6 PUSH1 0x24 DUP3 ADD MSTORE PUSH6 0x657869737473 PUSH1 0xD0 SHL PUSH1 0x44 DUP3 ADD MSTORE PUSH1 0x64 ADD JUMPDEST PUSH1 0x40 MLOAD DUP1 SWAP2 SUB SWAP1 REVERT JUMPDEST PUSH1 0x1 PUSH1 0x1 PUSH1 0xA0 SHL SUB DUP5 AND PUSH2 0x743 JUMPI PUSH1 0x40 MLOAD PUSH3 0x461BCD PUSH1 0xE5 SHL DUP2 MSTORE PUSH1 0x20 PUSH1 0x4 DUP3 ADD MSTORE PUSH1 0x1C PUSH1 0x24 DUP3 ADD MSTORE PUSH32 0x5F6C70546F6B656E20697320746865207A65726F206164647265737300000000 PUSH1 0x44 DUP3 ADD MSTORE PUSH1 0x64 ADD PUSH2 0x6E4 JUMP JUMPDEST DUP2 ISZERO PUSH2 0x751 JUMPI PUSH2 0x751 PUSH2 0x151A JUMP JUMPDEST PUSH1 0x0 PUSH32 0x0 NUMBER GT PUSH2 0x7A0 JUMPI PUSH32 0x0 PUSH2 0x7A2 JUMP JUMPDEST NUMBER JUMPDEST PUSH1 0xD SLOAD SWAP1 SWAP2 POP PUSH2 0x7B2 SWAP1 DUP6 PUSH2 0x1BB8 JUMP JUMPDEST PUSH1 0xD SSTORE PUSH1 0x40 DUP1 MLOAD PUSH1 0x60 DUP2 ADD DUP3 MSTORE PUSH1 0x1 PUSH1 0x1 PUSH1 0xA0 SHL SUB DUP8 DUP2 AND DUP3 MSTORE PUSH1 0x20 DUP3 ADD DUP8 DUP2 MSTORE SWAP3 DUP3 ADD DUP5 DUP2 MSTORE PUSH1 0xE DUP1 SLOAD PUSH1 0x1 DUP1 DUP3 ADD DUP4 SSTORE PUSH1 0x0 DUP4 SWAP1 MSTORE SWAP5 MLOAD PUSH32 0xBB7B4A454DC3493923482F07822329ED19E8244EFF582CC204F8554C3620C3FD PUSH1 0x3 SWAP1 SWAP3 MUL SWAP2 DUP3 ADD DUP1 SLOAD PUSH1 0x1 PUSH1 0x1 PUSH1 0xA0 SHL SUB NOT AND SWAP2 SWAP1 SWAP6 AND OR SWAP1 SWAP4 SSTORE SWAP4 MLOAD PUSH32 0xBB7B4A454DC3493923482F07822329ED19E8244EFF582CC204F8554C3620C3FE DUP4 ADD SSTORE MLOAD PUSH32 0xBB7B4A454DC3493923482F07822329ED19E8244EFF582CC204F8554C3620C3FF SWAP1 SWAP2 ADD SSTORE SWAP1 SLOAD PUSH2 0x880 SWAP2 SWAP1 PUSH2 0x2691 JUMP JUMPDEST PUSH1 0x1 PUSH1 0x1 PUSH1 0xA0 SHL SUB DUP7 DUP2 AND PUSH1 0x0 DUP2 DUP2 MSTORE PUSH1 0xF PUSH1 0x20 MSTORE PUSH1 0x40 DUP1 DUP3 KECCAK256 SWAP5 SWAP1 SWAP5 SSTORE SWAP3 MLOAD PUSH4 0x1E533A8F PUSH1 0xE2 SHL DUP2 MSTORE PUSH1 0x4 DUP2 ADD SWAP2 SWAP1 SWAP2 MSTORE PUSH32 0x0 DUP3 AND PUSH1 0x24 DUP3 ADD MSTORE PUSH32 0x0 SWAP1 SWAP2 AND SWAP1 PUSH4 0x794CEA3C SWAP1 PUSH1 0x44 ADD PUSH1 0x20 PUSH1 0x40 MLOAD DUP1 DUP4 SUB DUP2 PUSH1 0x0 DUP8 GAS CALL ISZERO DUP1 ISZERO PUSH2 0x927 JUMPI RETURNDATASIZE PUSH1 0x0 DUP1 RETURNDATACOPY RETURNDATASIZE PUSH1 0x0 REVERT JUMPDEST POP POP POP POP PUSH1 0x40 MLOAD RETURNDATASIZE PUSH1 0x1F NOT PUSH1 0x1F DUP3 ADD AND DUP3 ADD DUP1 PUSH1 0x40 MSTORE POP DUP2 ADD SWAP1 PUSH2 0x94B SWAP2 SWAP1 PUSH2 0x26A8 JUMP JUMPDEST PUSH1 0x2 SLOAD PUSH1 0x40 MLOAD PUSH4 0x95EA7B3 PUSH1 0xE0 SHL DUP2 MSTORE PUSH1 0x1 PUSH1 0x1 PUSH1 0xA0 SHL SUB DUP1 DUP5 AND PUSH1 0x4 DUP4 ADD MSTORE PUSH1 0x0 NOT PUSH1 0x24 DUP4 ADD MSTORE SWAP3 SWAP4 POP SWAP2 AND SWAP1 PUSH4 0x95EA7B3 SWAP1 PUSH1 0x44 ADD PUSH1 0x20 PUSH1 0x40 MLOAD DUP1 DUP4 SUB DUP2 PUSH1 0x0 DUP8 GAS CALL ISZERO DUP1 ISZERO PUSH2 0x9A1 JUMPI RETURNDATASIZE PUSH1 0x0 DUP1 RETURNDATACOPY RETURNDATASIZE PUSH1 0x0 REVERT JUMPDEST POP POP POP POP PUSH1 0x40 MLOAD RETURNDATASIZE PUSH1 0x1F NOT PUSH1 0x1F DUP3 ADD AND DUP3 ADD DUP1 PUSH1 0x40 MSTORE POP DUP2 ADD SWAP1 PUSH2 0x9C5 SWAP2 SWAP1 PUSH2 0x26C5 JUMP JUMPDEST POP PUSH1 0x1 PUSH1 0x1 PUSH1 0xA0 SHL SUB DUP1 DUP8 AND PUSH1 0x0 DUP2 DUP2 MSTORE PUSH1 0x11 PUSH1 0x20 SWAP1 DUP2 MSTORE PUSH1 0x40 DUP1 DUP4 KECCAK256 DUP1 SLOAD SWAP6 DUP8 AND PUSH1 0x1 PUSH1 0x1 PUSH1 0xA0 SHL SUB NOT SWAP7 DUP8 AND DUP2 OR SWAP1 SWAP2 SSTORE DUP4 MSTORE PUSH1 0x12 DUP3 MSTORE DUP1 DUP4 KECCAK256 DUP1 SLOAD SWAP1 SWAP6 AND SWAP1 SWAP4 OR SWAP1 SWAP4 SSTORE PUSH1 0x13 SWAP1 SWAP3 MSTORE SWAP1 KECCAK256 DUP1 SLOAD PUSH1 0xFF NOT AND PUSH1 0x1 OR SWAP1 SSTORE PUSH2 0xA27 DUP2 PUSH2 0x1BCB JUMP JUMPDEST PUSH1 0x40 MLOAD CALLER DUP2 MSTORE PUSH1 0x1 PUSH1 0x1 PUSH1 0xA0 SHL SUB DUP1 DUP9 AND SWAP2 SWAP1 DUP4 AND SWAP1 PUSH32 0x9B8203EFE7FE42185A7755B0510F87C8B693971D6A7C22520AAF683E6B124261 SWAP1 PUSH1 0x20 ADD PUSH1 0x40 MLOAD DUP1 SWAP2 SUB SWAP1 LOG3 SWAP6 SWAP5 POP POP POP POP POP JUMP JUMPDEST PUSH1 0x1 SLOAD PUSH1 0x40 DUP1 MLOAD PUSH4 0x8DA5CB5B PUSH1 0xE0 SHL DUP2 MSTORE SWAP1 MLOAD CALLER SWAP3 PUSH1 0x1 PUSH1 0x1 PUSH1 0xA0 SHL SUB AND SWAP2 PUSH4 0x8DA5CB5B SWAP2 PUSH1 0x4 DUP1 DUP4 ADD SWAP3 PUSH1 0x20 SWAP3 SWAP2 SWAP1 DUP3 SWAP1 SUB ADD DUP2 DUP7 GAS STATICCALL ISZERO DUP1 ISZERO PUSH2 0xABC JUMPI RETURNDATASIZE PUSH1 0x0 DUP1 RETURNDATACOPY RETURNDATASIZE PUSH1 0x0 REVERT JUMPDEST POP POP POP POP PUSH1 0x40 MLOAD RETURNDATASIZE PUSH1 0x1F NOT PUSH1 0x1F DUP3 ADD AND DUP3 ADD DUP1 PUSH1 0x40 MSTORE POP DUP2 ADD SWAP1 PUSH2 0xAE0 SWAP2 SWAP1 PUSH2 0x26A8 JUMP JUMPDEST PUSH1 0x1 PUSH1 0x1 PUSH1 0xA0 SHL SUB AND EQ PUSH2 0xB36 JUMPI PUSH1 0x40 MLOAD PUSH3 0x461BCD PUSH1 0xE5 SHL DUP2 MSTORE PUSH1 0x20 PUSH1 0x4 DUP3 ADD DUP2 SWAP1 MSTORE PUSH1 0x24 DUP3 ADD MSTORE PUSH32 0x4F776E61626C653A2063616C6C6572206973206E6F7420746865206F776E6572 PUSH1 0x44 DUP3 ADD MSTORE PUSH1 0x64 ADD PUSH2 0x6E4 JUMP JUMPDEST PUSH1 0x1 PUSH1 0x1 PUSH1 0xA0 SHL SUB DUP2 AND PUSH2 0xB7F JUMPI PUSH1 0x40 MLOAD PUSH3 0x461BCD PUSH1 0xE5 SHL DUP2 MSTORE PUSH1 0x20 PUSH1 0x4 DUP3 ADD MSTORE PUSH1 0x10 PUSH1 0x24 DUP3 ADD MSTORE PUSH16 0x3130B2103732BB9037B832B930BA37B9 PUSH1 0x81 SHL PUSH1 0x44 DUP3 ADD MSTORE PUSH1 0x64 ADD PUSH2 0x6E4 JUMP JUMPDEST PUSH1 0x1 DUP1 SLOAD PUSH1 0x1 PUSH1 0x1 PUSH1 0xA0 SHL SUB NOT AND PUSH1 0x1 PUSH1 0x1 PUSH1 0xA0 SHL SUB DUP4 AND SWAP1 DUP2 OR SWAP1 SWAP2 SSTORE PUSH1 0x40 MLOAD DUP3 SWAP2 SWAP1 DUP2 SWAP1 PUSH32 0x3CCBB406B985DD76FE05E172B432487A2FF9FE4257642D3ACC350F167CB1D577 SWAP1 PUSH1 0x0 SWAP1 LOG3 POP POP JUMP JUMPDEST PUSH1 0x0 DUP2 DUP2 MSTORE PUSH1 0xB PUSH1 0x20 SWAP1 DUP2 MSTORE PUSH1 0x40 SWAP2 DUP3 SWAP1 KECCAK256 DUP1 SLOAD DUP4 MLOAD DUP2 DUP5 MUL DUP2 ADD DUP5 ADD SWAP1 SWAP5 MSTORE DUP1 DUP5 MSTORE PUSH1 0x60 SWAP4 SWAP3 DUP4 ADD DUP3 DUP3 DUP1 ISZERO PUSH2 0xC2F JUMPI PUSH1 0x20 MUL DUP3 ADD SWAP2 SWAP1 PUSH1 0x0 MSTORE PUSH1 0x20 PUSH1 0x0 KECCAK256 SWAP1 JUMPDEST DUP2 SLOAD PUSH1 0x1 PUSH1 0x1 PUSH1 0xA0 SHL SUB AND DUP2 MSTORE PUSH1 0x1 SWAP1 SWAP2 ADD SWAP1 PUSH1 0x20 ADD DUP1 DUP4 GT PUSH2 0xC11 JUMPI JUMPDEST POP POP POP POP POP SWAP1 POP SWAP2 SWAP1 POP JUMP JUMPDEST PUSH1 0xE DUP2 DUP2 SLOAD DUP2 LT PUSH2 0xC4B JUMPI PUSH1 0x0 DUP1 REVERT JUMPDEST PUSH1 0x0 SWAP2 DUP3 MSTORE PUSH1 0x20 SWAP1 SWAP2 KECCAK256 PUSH1 0x3 SWAP1 SWAP2 MUL ADD DUP1 SLOAD PUSH1 0x1 DUP3 ADD SLOAD PUSH1 0x2 SWAP1 SWAP3 ADD SLOAD PUSH1 0x1 PUSH1 0x1 PUSH1 0xA0 SHL SUB SWAP1 SWAP2 AND SWAP3 POP DUP4 JUMP JUMPDEST PUSH1 0x0 JUMPDEST DUP3 MLOAD DUP2 LT ISZERO PUSH2 0xD29 JUMPI DUP3 DUP2 DUP2 MLOAD DUP2 LT PUSH2 0xC96 JUMPI PUSH2 0xC96 PUSH2 0x26E2 JUMP JUMPDEST PUSH1 0x20 MUL PUSH1 0x20 ADD ADD MLOAD PUSH1 0x1 PUSH1 0x1 PUSH1 0xA0 SHL SUB AND PUSH4 0x31279D3D CALLER DUP5 DUP5 DUP2 MLOAD DUP2 LT PUSH2 0xCBF JUMPI PUSH2 0xCBF PUSH2 0x26E2 JUMP JUMPDEST PUSH1 0x20 MUL PUSH1 0x20 ADD ADD MLOAD PUSH1 0x40 MLOAD DUP4 PUSH4 0xFFFFFFFF AND PUSH1 0xE0 SHL DUP2 MSTORE PUSH1 0x4 ADD PUSH2 0xCE4 SWAP3 SWAP2 SWAP1 PUSH2 0x26F8 JUMP JUMPDEST PUSH1 0x0 PUSH1 0x40 MLOAD DUP1 DUP4 SUB DUP2 PUSH1 0x0 DUP8 DUP1 EXTCODESIZE ISZERO DUP1 ISZERO PUSH2 0xCFE JUMPI PUSH1 0x0 DUP1 REVERT JUMPDEST POP GAS CALL ISZERO DUP1 ISZERO PUSH2 0xD12 JUMPI RETURNDATASIZE PUSH1 0x0 DUP1 RETURNDATACOPY RETURNDATASIZE PUSH1 0x0 REVERT JUMPDEST POP POP POP POP DUP1 DUP1 PUSH2 0xD21 SWAP1 PUSH2 0x2724 JUMP JUMPDEST SWAP2 POP POP PUSH2 0xC7B JUMP JUMPDEST POP POP POP JUMP JUMPDEST PUSH1 0x40 MLOAD PUSH4 0x430C2081 PUSH1 0xE0 SHL DUP2 MSTORE CALLER PUSH1 0x4 DUP3 ADD MSTORE PUSH1 0x24 DUP2 ADD DUP3 SWAP1 MSTORE PUSH32 0x0 PUSH1 0x1 PUSH1 0x1 PUSH1 0xA0 SHL SUB AND SWAP1 PUSH4 0x430C2081 SWAP1 PUSH1 0x44 ADD PUSH1 0x20 PUSH1 0x40 MLOAD DUP1 DUP4 SUB DUP2 DUP7 GAS STATICCALL ISZERO DUP1 ISZERO PUSH2 0xD99 JUMPI RETURNDATASIZE PUSH1 0x0 DUP1 RETURNDATACOPY RETURNDATASIZE PUSH1 0x0 REVERT JUMPDEST POP POP POP POP PUSH1 0x40 MLOAD RETURNDATASIZE PUSH1 0x1F NOT PUSH1 0x1F DUP3 ADD AND DUP3 ADD DUP1 PUSH1 0x40 MSTORE POP DUP2 ADD SWAP1 PUSH2 0xDBD SWAP2 SWAP1 PUSH2 0x26C5 JUMP JUMPDEST PUSH2 0xDC6 JUMPI PUSH1 0x0 DUP1 REVERT JUMPDEST PUSH2 0xDCF DUP2 PUSH2 0x1C00 JUMP JUMPDEST PUSH1 0x40 MLOAD PUSH4 0xC1F0FB9F PUSH1 0xE0 SHL DUP2 MSTORE PUSH1 0x4 DUP2 ADD DUP3 SWAP1 MSTORE PUSH32 0x0 PUSH1 0x1 PUSH1 0x1 PUSH1 0xA0 SHL SUB AND SWAP1 PUSH4 0xC1F0FB9F SWAP1 PUSH1 0x24 ADD PUSH1 0x0 PUSH1 0x40 MLOAD DUP1 DUP4 SUB DUP2 PUSH1 0x0 DUP8 DUP1 EXTCODESIZE ISZERO DUP1 ISZERO PUSH2 0xE31 JUMPI PUSH1 0x0 DUP1 REVERT JUMPDEST POP GAS CALL ISZERO DUP1 ISZERO PUSH2 0xE45 JUMPI RETURNDATASIZE PUSH1 0x0 DUP1 RETURNDATACOPY RETURNDATASIZE PUSH1 0x0 REVERT JUMPDEST POP POP POP POP POP JUMP JUMPDEST PUSH1 0x0 DUP2 DUP2 MSTORE PUSH1 0xB PUSH1 0x20 SWAP1 DUP2 MSTORE PUSH1 0x40 DUP1 DUP4 KECCAK256 DUP1 SLOAD DUP3 MLOAD DUP2 DUP6 MUL DUP2 ADD DUP6 ADD SWAP1 SWAP4 MSTORE DUP1 DUP4 MSTORE SWAP2 SWAP3 SWAP1 SWAP2 SWAP1 DUP4 ADD DUP3 DUP3 DUP1 ISZERO PUSH2 0xEAC JUMPI PUSH1 0x20 MUL DUP3 ADD SWAP2 SWAP1 PUSH1 0x0 MSTORE PUSH1 0x20 PUSH1 0x0 KECCAK256 SWAP1 JUMPDEST DUP2 SLOAD PUSH1 0x1 PUSH1 0x1 PUSH1 0xA0 SHL SUB AND DUP2 MSTORE PUSH1 0x1 SWAP1 SWAP2 ADD SWAP1 PUSH1 0x20 ADD DUP1 DUP4 GT PUSH2 0xE8E JUMPI JUMPDEST POP POP POP POP POP SWAP1 POP PUSH1 0x0 DUP2 MLOAD SWAP1 POP PUSH1 0x0 DUP2 PUSH8 0xFFFFFFFFFFFFFFFF DUP2 GT ISZERO PUSH2 0xED4 JUMPI PUSH2 0xED4 PUSH2 0x2324 JUMP JUMPDEST PUSH1 0x40 MLOAD SWAP1 DUP1 DUP3 MSTORE DUP1 PUSH1 0x20 MUL PUSH1 0x20 ADD DUP3 ADD PUSH1 0x40 MSTORE DUP1 ISZERO PUSH2 0xEFD JUMPI DUP2 PUSH1 0x20 ADD PUSH1 0x20 DUP3 MUL DUP1 CALLDATASIZE DUP4 CALLDATACOPY ADD SWAP1 POP JUMPDEST POP SWAP1 POP PUSH1 0x0 JUMPDEST DUP3 DUP2 LT ISZERO PUSH2 0xF8A JUMPI PUSH1 0xA PUSH1 0x0 DUP7 DUP2 MSTORE PUSH1 0x20 ADD SWAP1 DUP2 MSTORE PUSH1 0x20 ADD PUSH1 0x0 KECCAK256 PUSH1 0x0 DUP6 DUP4 DUP2 MLOAD DUP2 LT PUSH2 0xF32 JUMPI PUSH2 0xF32 PUSH2 0x26E2 JUMP JUMPDEST PUSH1 0x20 MUL PUSH1 0x20 ADD ADD MLOAD PUSH1 0x1 PUSH1 0x1 PUSH1 0xA0 SHL SUB AND PUSH1 0x1 PUSH1 0x1 PUSH1 0xA0 SHL SUB AND DUP2 MSTORE PUSH1 0x20 ADD SWAP1 DUP2 MSTORE PUSH1 0x20 ADD PUSH1 0x0 KECCAK256 SLOAD DUP3 DUP3 DUP2 MLOAD DUP2 LT PUSH2 0xF6D JUMPI PUSH2 0xF6D PUSH2 0x26E2 JUMP JUMPDEST PUSH1 0x20 SWAP1 DUP2 MUL SWAP2 SWAP1 SWAP2 ADD ADD MSTORE DUP1 PUSH2 0xF82 DUP2 PUSH2 0x2724 JUMP JUMPDEST SWAP2 POP POP PUSH2 0xF03 JUMP JUMPDEST POP PUSH2 0xF96 DUP5 DUP5 DUP4 PUSH2 0x1D87 JUMP JUMPDEST POP POP POP POP JUMP JUMPDEST CALLER PUSH1 0x0 SWAP1 DUP2 MSTORE PUSH1 0x13 PUSH1 0x20 MSTORE PUSH1 0x40 SWAP1 KECCAK256 SLOAD PUSH1 0xFF AND PUSH2 0xFB8 JUMPI PUSH1 0x0 DUP1 REVERT JUMPDEST DUP2 ISZERO PUSH2 0x1039 JUMPI PUSH1 0x40 MLOAD PUSH4 0x4C35BEC5 PUSH1 0xE1 SHL DUP2 MSTORE PUSH1 0x4 DUP2 ADD DUP4 SWAP1 MSTORE PUSH32 0x0 PUSH1 0x1 PUSH1 0x1 PUSH1 0xA0 SHL SUB AND SWAP1 PUSH4 0x986B7D8A SWAP1 PUSH1 0x24 ADD PUSH1 0x0 PUSH1 0x40 MLOAD DUP1 DUP4 SUB DUP2 PUSH1 0x0 DUP8 DUP1 EXTCODESIZE ISZERO DUP1 ISZERO PUSH2 0x1020 JUMPI PUSH1 0x0 DUP1 REVERT JUMPDEST POP GAS CALL ISZERO DUP1 ISZERO PUSH2 0x1034 JUMPI RETURNDATASIZE PUSH1 0x0 DUP1 RETURNDATACOPY RETURNDATASIZE PUSH1 0x0 REVERT JUMPDEST POP POP POP POP JUMPDEST PUSH1 0x40 MLOAD DUP3 DUP2 MSTORE CALLER SWAP1 PUSH1 0x1 PUSH1 0x1 PUSH1 0xA0 SHL SUB DUP4 AND SWAP1 PUSH32 0xAE268D9AAB12F3605F58EFD74FD3801FA812B03FDB44317EB70F46DFF0E19E22 SWAP1 PUSH1 0x20 ADD JUMPDEST PUSH1 0x40 MLOAD DUP1 SWAP2 SUB SWAP1 LOG3 POP POP JUMP JUMPDEST PUSH1 0x1 SLOAD PUSH1 0x40 DUP1 MLOAD PUSH4 0x570CA735 PUSH1 0xE0 SHL DUP2 MSTORE SWAP1 MLOAD CALLER SWAP3 PUSH1 0x1 PUSH1 0x1 PUSH1 0xA0 SHL SUB AND SWAP2 PUSH4 0x570CA735 SWAP2 PUSH1 0x4 DUP1 DUP4 ADD SWAP3 PUSH1 0x20 SWAP3 SWAP2 SWAP1 DUP3 SWAP1 SUB ADD DUP2 DUP7 GAS STATICCALL ISZERO DUP1 ISZERO PUSH2 0x10C7 JUMPI RETURNDATASIZE PUSH1 0x0 DUP1 RETURNDATACOPY RETURNDATASIZE PUSH1 0x0 REVERT JUMPDEST POP POP POP POP PUSH1 0x40 MLOAD RETURNDATASIZE PUSH1 0x1F NOT PUSH1 0x1F DUP3 ADD AND DUP3 ADD DUP1 PUSH1 0x40 MSTORE POP DUP2 ADD SWAP1 PUSH2 0x10EB SWAP2 SWAP1 PUSH2 0x26A8 JUMP JUMPDEST PUSH1 0x1 PUSH1 0x1 PUSH1 0xA0 SHL SUB AND EQ PUSH2 0x1111 JUMPI PUSH1 0x40 MLOAD PUSH3 0x461BCD PUSH1 0xE5 SHL DUP2 MSTORE PUSH1 0x4 ADD PUSH2 0x6E4 SWAP1 PUSH2 0x273F JUMP JUMPDEST DUP1 ISZERO PUSH2 0x111F JUMPI PUSH2 0x111F PUSH2 0x151A JUMP JUMPDEST POP PUSH1 0x3 SSTORE JUMP JUMPDEST PUSH32 0x0 NUMBER GT DUP1 ISZERO PUSH2 0x1156 JUMPI POP PUSH1 0x4 SLOAD NUMBER LT ISZERO JUMPDEST ISZERO PUSH2 0x11B1 JUMPI PUSH1 0x7 SLOAD PUSH1 0x3 SLOAD GT ISZERO PUSH2 0x118C JUMPI PUSH2 0x1188 PUSH1 0x64 PUSH2 0x1182 PUSH1 0x50 PUSH1 0x3 SLOAD PUSH2 0x21B8 SWAP1 SWAP2 SWAP1 PUSH4 0xFFFFFFFF AND JUMP JUMPDEST SWAP1 PUSH2 0x21C4 JUMP JUMPDEST PUSH1 0x3 SSTORE JUMPDEST PUSH1 0x7 SLOAD PUSH1 0x3 SLOAD LT ISZERO PUSH2 0x119F JUMPI PUSH1 0x7 SLOAD PUSH1 0x3 SSTORE JUMPDEST PUSH1 0x5 SLOAD PUSH2 0x11AD SWAP1 NUMBER SWAP1 PUSH2 0x1BB8 JUMP JUMPDEST PUSH1 0x4 SSTORE JUMPDEST PUSH1 0x0 PUSH1 0xE DUP3 DUP2 SLOAD DUP2 LT PUSH2 0x11C6 JUMPI PUSH2 0x11C6 PUSH2 0x26E2 JUMP JUMPDEST SWAP1 PUSH1 0x0 MSTORE PUSH1 0x20 PUSH1 0x0 KECCAK256 SWAP1 PUSH1 0x3 MUL ADD SWAP1 POP DUP1 PUSH1 0x2 ADD SLOAD NUMBER GT PUSH2 0x11E5 JUMPI POP POP JUMP JUMPDEST DUP1 SLOAD PUSH1 0x1 PUSH1 0x1 PUSH1 0xA0 SHL SUB SWAP1 DUP2 AND PUSH1 0x0 DUP2 DUP2 MSTORE PUSH1 0x11 PUSH1 0x20 MSTORE PUSH1 0x40 DUP1 DUP3 KECCAK256 SLOAD SWAP1 MLOAD PUSH4 0x70A08231 PUSH1 0xE0 SHL DUP2 MSTORE SWAP4 AND PUSH1 0x4 DUP5 ADD MSTORE SWAP2 PUSH4 0x70A08231 SWAP1 PUSH1 0x24 ADD PUSH1 0x20 PUSH1 0x40 MLOAD DUP1 DUP4 SUB DUP2 DUP7 GAS STATICCALL ISZERO DUP1 ISZERO PUSH2 0x123C JUMPI RETURNDATASIZE PUSH1 0x0 DUP1 RETURNDATACOPY RETURNDATASIZE PUSH1 0x0 REVERT JUMPDEST POP POP POP POP PUSH1 0x40 MLOAD RETURNDATASIZE PUSH1 0x1F NOT PUSH1 0x1F DUP3 ADD AND DUP3 ADD DUP1 PUSH1 0x40 MSTORE POP DUP2 ADD SWAP1 PUSH2 0x1260 SWAP2 SWAP1 PUSH2 0x2765 JUMP JUMPDEST SWAP1 POP DUP1 PUSH2 0x1272 JUMPI POP NUMBER PUSH1 0x2 SWAP1 SWAP2 ADD SSTORE POP JUMP JUMPDEST PUSH1 0x0 PUSH1 0x3 SLOAD GT PUSH2 0x1281 JUMPI POP POP POP JUMP JUMPDEST PUSH1 0x0 PUSH2 0x129A DUP4 PUSH1 0x2 ADD SLOAD NUMBER PUSH2 0x21D0 SWAP1 SWAP2 SWAP1 PUSH4 0xFFFFFFFF AND JUMP JUMPDEST SWAP1 POP PUSH1 0x0 PUSH2 0x12C7 PUSH1 0xD SLOAD PUSH2 0x1182 DUP7 PUSH1 0x1 ADD SLOAD PUSH2 0x12C1 DUP7 PUSH1 0x3 SLOAD PUSH2 0x21B8 SWAP1 SWAP2 SWAP1 PUSH4 0xFFFFFFFF AND JUMP JUMPDEST SWAP1 PUSH2 0x21B8 JUMP JUMPDEST PUSH1 0x2 SLOAD SWAP1 SWAP2 POP PUSH1 0x0 SWAP1 PUSH1 0x1 PUSH1 0x1 PUSH1 0xA0 SHL SUB AND PUSH4 0x40C10F19 ADDRESS PUSH2 0x12EC DUP6 PUSH3 0x93A80 PUSH2 0x21B8 JUMP JUMPDEST PUSH1 0x40 MLOAD PUSH1 0x1 PUSH1 0x1 PUSH1 0xE0 SHL SUB NOT PUSH1 0xE0 DUP6 SWAP1 SHL AND DUP2 MSTORE PUSH1 0x1 PUSH1 0x1 PUSH1 0xA0 SHL SUB SWAP1 SWAP3 AND PUSH1 0x4 DUP4 ADD MSTORE PUSH1 0x24 DUP3 ADD MSTORE PUSH1 0x44 ADD PUSH1 0x20 PUSH1 0x40 MLOAD DUP1 DUP4 SUB DUP2 PUSH1 0x0 DUP8 GAS CALL ISZERO DUP1 ISZERO PUSH2 0x1337 JUMPI RETURNDATASIZE PUSH1 0x0 DUP1 RETURNDATACOPY RETURNDATASIZE PUSH1 0x0 REVERT JUMPDEST POP POP POP POP PUSH1 0x40 MLOAD RETURNDATASIZE PUSH1 0x1F NOT PUSH1 0x1F DUP3 ADD AND DUP3 ADD DUP1 PUSH1 0x40 MSTORE POP DUP2 ADD SWAP1 PUSH2 0x135B SWAP2 SWAP1 PUSH2 0x26C5 JUMP JUMPDEST SWAP1 POP DUP1 ISZERO PUSH2 0x1408 JUMPI DUP5 SLOAD PUSH1 0x1 PUSH1 0x1 PUSH1 0xA0 SHL SUB SWAP1 DUP2 AND PUSH1 0x0 SWAP1 DUP2 MSTORE PUSH1 0x11 PUSH1 0x20 MSTORE PUSH1 0x40 SWAP1 KECCAK256 SLOAD PUSH1 0x2 SLOAD PUSH1 0xD SLOAD PUSH1 0x1 DUP10 ADD SLOAD PUSH1 0x3 SLOAD SWAP4 DUP6 AND SWAP5 PUSH4 0xB66503CF SWAP5 SWAP4 AND SWAP3 PUSH2 0x13A9 SWAP3 SWAP2 PUSH2 0x1182 SWAP2 SWAP1 PUSH2 0x21B8 JUMP JUMPDEST PUSH1 0x40 MLOAD PUSH1 0x1 PUSH1 0x1 PUSH1 0xE0 SHL SUB NOT PUSH1 0xE0 DUP6 SWAP1 SHL AND DUP2 MSTORE PUSH1 0x1 PUSH1 0x1 PUSH1 0xA0 SHL SUB SWAP1 SWAP3 AND PUSH1 0x4 DUP4 ADD MSTORE PUSH1 0x24 DUP3 ADD MSTORE PUSH1 0x44 ADD PUSH1 0x0 PUSH1 0x40 MLOAD DUP1 DUP4 SUB DUP2 PUSH1 0x0 DUP8 DUP1 EXTCODESIZE ISZERO DUP1 ISZERO PUSH2 0x13EF JUMPI PUSH1 0x0 DUP1 REVERT JUMPDEST POP GAS CALL ISZERO DUP1 ISZERO PUSH2 0x1403 JUMPI RETURNDATASIZE PUSH1 0x0 DUP1 RETURNDATACOPY RETURNDATASIZE PUSH1 0x0 REVERT JUMPDEST POP POP POP POP JUMPDEST NUMBER DUP6 PUSH1 0x2 ADD DUP2 SWAP1 SSTORE POP POP POP POP POP POP JUMPDEST POP JUMP JUMPDEST PUSH1 0x0 JUMPDEST PUSH1 0xE SLOAD DUP2 LT ISZERO PUSH2 0x1417 JUMPI PUSH1 0x0 PUSH1 0xE DUP3 DUP2 SLOAD DUP2 LT PUSH2 0x143C JUMPI PUSH2 0x143C PUSH2 0x26E2 JUMP JUMPDEST PUSH1 0x0 SWAP2 DUP3 MSTORE PUSH1 0x20 DUP1 DUP4 KECCAK256 PUSH1 0x40 DUP1 MLOAD PUSH1 0x60 DUP2 ADD DUP3 MSTORE PUSH1 0x3 SWAP1 SWAP5 MUL SWAP1 SWAP2 ADD DUP1 SLOAD PUSH1 0x1 PUSH1 0x1 PUSH1 0xA0 SHL SUB SWAP1 DUP2 AND DUP1 DUP7 MSTORE PUSH1 0x1 DUP4 ADD SLOAD DUP7 DUP7 ADD MSTORE PUSH1 0x2 SWAP1 SWAP3 ADD SLOAD DUP6 DUP5 ADD MSTORE SWAP1 DUP6 MSTORE PUSH1 0x11 SWAP1 SWAP3 MSTORE SWAP1 SWAP3 KECCAK256 SLOAD SWAP1 SWAP3 POP PUSH2 0x1494 SWAP2 AND PUSH2 0x1BCB JUMP JUMPDEST POP DUP1 PUSH2 0x149F DUP2 PUSH2 0x2724 JUMP JUMPDEST SWAP2 POP POP PUSH2 0x141D JUMP JUMPDEST PUSH1 0x1 SLOAD PUSH1 0x40 DUP1 MLOAD PUSH4 0x570CA735 PUSH1 0xE0 SHL DUP2 MSTORE SWAP1 MLOAD PUSH1 0x0 SWAP3 PUSH1 0x1 PUSH1 0x1 PUSH1 0xA0 SHL SUB AND SWAP2 PUSH4 0x570CA735 SWAP2 PUSH1 0x4 DUP1 DUP4 ADD SWAP3 PUSH1 0x20 SWAP3 SWAP2 SWAP1 DUP3 SWAP1 SUB ADD DUP2 DUP7 GAS STATICCALL ISZERO DUP1 ISZERO PUSH2 0x14F1 JUMPI RETURNDATASIZE PUSH1 0x0 DUP1 RETURNDATACOPY RETURNDATASIZE PUSH1 0x0 REVERT JUMPDEST POP POP POP POP PUSH1 0x40 MLOAD RETURNDATASIZE PUSH1 0x1F NOT PUSH1 0x1F DUP3 ADD AND DUP3 ADD DUP1 PUSH1 0x40 MSTORE POP DUP2 ADD SWAP1 PUSH2 0x1515 SWAP2 SWAP1 PUSH2 0x26A8 JUMP JUMPDEST SWAP1 POP SWAP1 JUMP JUMPDEST PUSH1 0xE SLOAD PUSH1 0x0 JUMPDEST DUP2 DUP2 LT ISZERO PUSH2 0x1541 JUMPI PUSH2 0x1531 DUP2 PUSH2 0x1125 JUMP JUMPDEST PUSH2 0x153A DUP2 PUSH2 0x2724 JUMP JUMPDEST SWAP1 POP PUSH2 0x1520 JUMP JUMPDEST POP POP JUMP JUMPDEST PUSH2 0x1417 DUP2 PUSH2 0x1BCB JUMP JUMPDEST PUSH1 0x1 SLOAD PUSH1 0x40 DUP1 MLOAD PUSH4 0x8DA5CB5B PUSH1 0xE0 SHL DUP2 MSTORE SWAP1 MLOAD CALLER SWAP3 PUSH1 0x1 PUSH1 0x1 PUSH1 0xA0 SHL SUB AND SWAP2 PUSH4 0x8DA5CB5B SWAP2 PUSH1 0x4 DUP1 DUP4 ADD SWAP3 PUSH1 0x20 SWAP3 SWAP2 SWAP1 DUP3 SWAP1 SUB ADD DUP2 DUP7 GAS STATICCALL ISZERO DUP1 ISZERO PUSH2 0x1597 JUMPI RETURNDATASIZE PUSH1 0x0 DUP1 RETURNDATACOPY RETURNDATASIZE PUSH1 0x0 REVERT JUMPDEST POP POP POP POP PUSH1 0x40 MLOAD RETURNDATASIZE PUSH1 0x1F NOT PUSH1 0x1F DUP3 ADD AND DUP3 ADD DUP1 PUSH1 0x40 MSTORE POP DUP2 ADD SWAP1 PUSH2 0x15BB SWAP2 SWAP1 PUSH2 0x26A8 JUMP JUMPDEST PUSH1 0x1 PUSH1 0x1 PUSH1 0xA0 SHL SUB AND EQ PUSH2 0x1611 JUMPI PUSH1 0x40 MLOAD PUSH3 0x461BCD PUSH1 0xE5 SHL DUP2 MSTORE PUSH1 0x20 PUSH1 0x4 DUP3 ADD DUP2 SWAP1 MSTORE PUSH1 0x24 DUP3 ADD MSTORE PUSH32 0x4F776E61626C653A2063616C6C6572206973206E6F7420746865206F776E6572 PUSH1 0x44 DUP3 ADD MSTORE PUSH1 0x64 ADD PUSH2 0x6E4 JUMP JUMPDEST PUSH2 0x1654 DUP3 PUSH2 0x164E PUSH1 0xE DUP7 DUP2 SLOAD DUP2 LT PUSH2 0x162B JUMPI PUSH2 0x162B PUSH2 0x26E2 JUMP JUMPDEST SWAP1 PUSH1 0x0 MSTORE PUSH1 0x20 PUSH1 0x0 KECCAK256 SWAP1 PUSH1 0x3 MUL ADD PUSH1 0x1 ADD SLOAD PUSH1 0xD SLOAD PUSH2 0x21D0 SWAP1 SWAP2 SWAP1 PUSH4 0xFFFFFFFF AND JUMP JUMPDEST SWAP1 PUSH2 0x1BB8 JUMP JUMPDEST PUSH1 0xD DUP2 SWAP1 SSTORE POP DUP2 PUSH1 0xE DUP5 DUP2 SLOAD DUP2 LT PUSH2 0x166E JUMPI PUSH2 0x166E PUSH2 0x26E2 JUMP JUMPDEST SWAP1 PUSH1 0x0 MSTORE PUSH1 0x20 PUSH1 0x0 KECCAK256 SWAP1 PUSH1 0x3 MUL ADD PUSH1 0x1 ADD DUP2 SWAP1 SSTORE POP DUP1 ISZERO PUSH2 0xD29 JUMPI PUSH2 0xD29 PUSH2 0x151A JUMP JUMPDEST CALLER PUSH1 0x0 SWAP1 DUP2 MSTORE PUSH1 0x13 PUSH1 0x20 MSTORE PUSH1 0x40 SWAP1 KECCAK256 SLOAD PUSH1 0xFF AND PUSH2 0x16AD JUMPI PUSH1 0x0 DUP1 REVERT JUMPDEST DUP2 ISZERO PUSH2 0x172E JUMPI PUSH1 0x40 MLOAD PUSH4 0x20FE6E5 PUSH1 0xE0 SHL DUP2 MSTORE PUSH1 0x4 DUP2 ADD DUP4 SWAP1 MSTORE PUSH32 0x0 PUSH1 0x1 PUSH1 0x1 PUSH1 0xA0 SHL SUB AND SWAP1 PUSH4 0x20FE6E5 SWAP1 PUSH1 0x24 ADD PUSH1 0x0 PUSH1 0x40 MLOAD DUP1 DUP4 SUB DUP2 PUSH1 0x0 DUP8 DUP1 EXTCODESIZE ISZERO DUP1 ISZERO PUSH2 0x1715 JUMPI PUSH1 0x0 DUP1 REVERT JUMPDEST POP GAS CALL ISZERO DUP1 ISZERO PUSH2 0x1729 JUMPI RETURNDATASIZE PUSH1 0x0 DUP1 RETURNDATACOPY RETURNDATASIZE PUSH1 0x0 REVERT JUMPDEST POP POP POP POP JUMPDEST PUSH1 0x40 MLOAD DUP3 DUP2 MSTORE CALLER SWAP1 PUSH1 0x1 PUSH1 0x1 PUSH1 0xA0 SHL SUB DUP4 AND SWAP1 PUSH32 0x60940192810A6FB3BCE3FD3E2E3A13FD6CCC7605E963FB87EE971ABA829989BD SWAP1 PUSH1 0x20 ADD PUSH2 0x1072 JUMP JUMPDEST PUSH1 0x1 SLOAD PUSH1 0x40 DUP1 MLOAD PUSH4 0x570CA735 PUSH1 0xE0 SHL DUP2 MSTORE SWAP1 MLOAD CALLER SWAP3 PUSH1 0x1 PUSH1 0x1 PUSH1 0xA0 SHL SUB AND SWAP2 PUSH4 0x570CA735 SWAP2 PUSH1 0x4 DUP1 DUP4 ADD SWAP3 PUSH1 0x20 SWAP3 SWAP2 SWAP1 DUP3 SWAP1 SUB ADD DUP2 DUP7 GAS STATICCALL ISZERO DUP1 ISZERO PUSH2 0x17B4 JUMPI RETURNDATASIZE PUSH1 0x0 DUP1 RETURNDATACOPY RETURNDATASIZE PUSH1 0x0 REVERT JUMPDEST POP POP POP POP PUSH1 0x40 MLOAD RETURNDATASIZE PUSH1 0x1F NOT PUSH1 0x1F DUP3 ADD AND DUP3 ADD DUP1 PUSH1 0x40 MSTORE POP DUP2 ADD SWAP1 PUSH2 0x17D8 SWAP2 SWAP1 PUSH2 0x26A8 JUMP JUMPDEST PUSH1 0x1 PUSH1 0x1 PUSH1 0xA0 SHL SUB AND EQ PUSH2 0x17FE JUMPI PUSH1 0x40 MLOAD PUSH3 0x461BCD PUSH1 0xE5 SHL DUP2 MSTORE PUSH1 0x4 ADD PUSH2 0x6E4 SWAP1 PUSH2 0x273F JUMP JUMPDEST PUSH1 0x6 SSTORE JUMP JUMPDEST PUSH1 0x1 SLOAD PUSH1 0x40 DUP1 MLOAD PUSH4 0x8DA5CB5B PUSH1 0xE0 SHL DUP2 MSTORE SWAP1 MLOAD PUSH1 0x0 SWAP3 PUSH1 0x1 PUSH1 0x1 PUSH1 0xA0 SHL SUB AND SWAP2 PUSH4 0x8DA5CB5B SWAP2 PUSH1 0x4 DUP1 DUP4 ADD SWAP3 PUSH1 0x20 SWAP3 SWAP2 SWAP1 DUP3 SWAP1 SUB ADD DUP2 DUP7 GAS STATICCALL ISZERO DUP1 ISZERO PUSH2 0x14F1 JUMPI RETURNDATASIZE PUSH1 0x0 DUP1 RETURNDATACOPY RETURNDATASIZE PUSH1 0x0 REVERT JUMPDEST CALLER PUSH1 0x0 SWAP1 DUP2 MSTORE PUSH1 0x13 PUSH1 0x20 MSTORE PUSH1 0x40 SWAP1 KECCAK256 SLOAD PUSH1 0xFF AND PUSH2 0x1869 JUMPI PUSH1 0x0 DUP1 REVERT JUMPDEST PUSH1 0x40 DUP1 MLOAD DUP5 DUP2 MSTORE PUSH1 0x20 DUP2 ADD DUP4 SWAP1 MSTORE CALLER SWAP2 PUSH1 0x1 PUSH1 0x1 PUSH1 0xA0 SHL SUB DUP6 AND SWAP2 PUSH32 0xDCBC1C05240F31FF3AD067EF1EE35CE4997762752E3A095284754544F4C709D7 SWAP2 ADD JUMPDEST PUSH1 0x40 MLOAD DUP1 SWAP2 SUB SWAP1 LOG3 POP POP POP JUMP JUMPDEST PUSH1 0xB PUSH1 0x20 MSTORE DUP2 PUSH1 0x0 MSTORE PUSH1 0x40 PUSH1 0x0 KECCAK256 DUP2 DUP2 SLOAD DUP2 LT PUSH2 0x18D1 JUMPI PUSH1 0x0 DUP1 REVERT JUMPDEST PUSH1 0x0 SWAP2 DUP3 MSTORE PUSH1 0x20 SWAP1 SWAP2 KECCAK256 ADD SLOAD PUSH1 0x1 PUSH1 0x1 PUSH1 0xA0 SHL SUB AND SWAP2 POP DUP3 SWAP1 POP JUMP JUMPDEST PUSH1 0x1 SLOAD PUSH1 0x40 DUP1 MLOAD PUSH4 0x570CA735 PUSH1 0xE0 SHL DUP2 MSTORE SWAP1 MLOAD CALLER SWAP3 PUSH1 0x1 PUSH1 0x1 PUSH1 0xA0 SHL SUB AND SWAP2 PUSH4 0x570CA735 SWAP2 PUSH1 0x4 DUP1 DUP4 ADD SWAP3 PUSH1 0x20 SWAP3 SWAP2 SWAP1 DUP3 SWAP1 SUB ADD DUP2 DUP7 GAS STATICCALL ISZERO DUP1 ISZERO PUSH2 0x1936 JUMPI RETURNDATASIZE PUSH1 0x0 DUP1 RETURNDATACOPY RETURNDATASIZE PUSH1 0x0 REVERT JUMPDEST POP POP POP POP PUSH1 0x40 MLOAD RETURNDATASIZE PUSH1 0x1F NOT PUSH1 0x1F DUP3 ADD AND DUP3 ADD DUP1 PUSH1 0x40 MSTORE POP DUP2 ADD SWAP1 PUSH2 0x195A SWAP2 SWAP1 PUSH2 0x26A8 JUMP JUMPDEST PUSH1 0x1 PUSH1 0x1 PUSH1 0xA0 SHL SUB AND EQ PUSH2 0x1980 JUMPI PUSH1 0x40 MLOAD PUSH3 0x461BCD PUSH1 0xE5 SHL DUP2 MSTORE PUSH1 0x4 ADD PUSH2 0x6E4 SWAP1 PUSH2 0x273F JUMP JUMPDEST PUSH1 0x7 SSTORE JUMP JUMPDEST PUSH1 0x10 DUP2 DUP2 SLOAD DUP2 LT PUSH2 0x1995 JUMPI PUSH1 0x0 DUP1 REVERT JUMPDEST PUSH1 0x0 SWAP2 DUP3 MSTORE PUSH1 0x20 SWAP1 SWAP2 KECCAK256 ADD SLOAD PUSH1 0x1 PUSH1 0x1 PUSH1 0xA0 SHL SUB AND SWAP1 POP DUP2 JUMP JUMPDEST PUSH1 0x1 SLOAD PUSH1 0x40 DUP1 MLOAD PUSH4 0x570CA735 PUSH1 0xE0 SHL DUP2 MSTORE SWAP1 MLOAD CALLER SWAP3 PUSH1 0x1 PUSH1 0x1 PUSH1 0xA0 SHL SUB AND SWAP2 PUSH4 0x570CA735 SWAP2 PUSH1 0x4 DUP1 DUP4 ADD SWAP3 PUSH1 0x20 SWAP3 SWAP2 SWAP1 DUP3 SWAP1 SUB ADD DUP2 DUP7 GAS STATICCALL ISZERO DUP1 ISZERO PUSH2 0x19F8 JUMPI RETURNDATASIZE PUSH1 0x0 DUP1 RETURNDATACOPY RETURNDATASIZE PUSH1 0x0 REVERT JUMPDEST POP POP POP POP PUSH1 0x40 MLOAD RETURNDATASIZE PUSH1 0x1F NOT PUSH1 0x1F DUP3 ADD AND DUP3 ADD DUP1 PUSH1 0x40 MSTORE POP DUP2 ADD SWAP1 PUSH2 0x1A1C SWAP2 SWAP1 PUSH2 0x26A8 JUMP JUMPDEST PUSH1 0x1 PUSH1 0x1 PUSH1 0xA0 SHL SUB AND EQ PUSH2 0x1A42 JUMPI PUSH1 0x40 MLOAD PUSH3 0x461BCD PUSH1 0xE5 SHL DUP2 MSTORE PUSH1 0x4 ADD PUSH2 0x6E4 SWAP1 PUSH2 0x273F JUMP JUMPDEST PUSH1 0x5 SSTORE JUMP JUMPDEST CALLER PUSH1 0x0 SWAP1 DUP2 MSTORE PUSH1 0x13 PUSH1 0x20 MSTORE PUSH1 0x40 SWAP1 KECCAK256 SLOAD PUSH1 0xFF AND PUSH2 0x1A63 JUMPI PUSH1 0x0 DUP1 REVERT JUMPDEST PUSH1 0x40 DUP1 MLOAD DUP5 DUP2 MSTORE PUSH1 0x20 DUP2 ADD DUP4 SWAP1 MSTORE CALLER SWAP2 PUSH1 0x1 PUSH1 0x1 PUSH1 0xA0 SHL SUB DUP6 AND SWAP2 PUSH32 0xF341246ADAAC6F497BC2A656F546AB9E182111D630394F0C57C710A59A2CB567 SWAP2 ADD PUSH2 0x18A8 JUMP JUMPDEST PUSH1 0x40 MLOAD PUSH4 0x430C2081 PUSH1 0xE0 SHL DUP2 MSTORE CALLER PUSH1 0x4 DUP3 ADD MSTORE PUSH1 0x24 DUP2 ADD DUP7 SWAP1 MSTORE PUSH32 0x0 PUSH1 0x1 PUSH1 0x1 PUSH1 0xA0 SHL SUB AND SWAP1 PUSH4 0x430C2081 SWAP1 PUSH1 0x44 ADD PUSH1 0x20 PUSH1 0x40 MLOAD DUP1 DUP4 SUB DUP2 DUP7 GAS STATICCALL ISZERO DUP1 ISZERO PUSH2 0x1B11 JUMPI RETURNDATASIZE PUSH1 0x0 DUP1 RETURNDATACOPY RETURNDATASIZE PUSH1 0x0 REVERT JUMPDEST POP POP POP POP PUSH1 0x40 MLOAD RETURNDATASIZE PUSH1 0x1F NOT PUSH1 0x1F DUP3 ADD AND DUP3 ADD DUP1 PUSH1 0x40 MSTORE POP DUP2 ADD SWAP1 PUSH2 0x1B35 SWAP2 SWAP1 PUSH2 0x26C5 JUMP JUMPDEST PUSH2 0x1B3E JUMPI PUSH1 0x0 DUP1 REVERT JUMPDEST DUP3 DUP2 EQ PUSH2 0x1B4A JUMPI PUSH1 0x0 DUP1 REVERT JUMPDEST PUSH2 0xE45 DUP6 DUP6 DUP6 DUP1 DUP1 PUSH1 0x20 MUL PUSH1 0x20 ADD PUSH1 0x40 MLOAD SWAP1 DUP2 ADD PUSH1 0x40 MSTORE DUP1 SWAP4 SWAP3 SWAP2 SWAP1 DUP2 DUP2 MSTORE PUSH1 0x20 ADD DUP4 DUP4 PUSH1 0x20 MUL DUP1 DUP3 DUP5 CALLDATACOPY PUSH1 0x0 SWAP3 ADD SWAP2 SWAP1 SWAP2 MSTORE POP POP PUSH1 0x40 DUP1 MLOAD PUSH1 0x20 DUP1 DUP10 MUL DUP3 DUP2 ADD DUP3 ADD SWAP1 SWAP4 MSTORE DUP9 DUP3 MSTORE SWAP1 SWAP4 POP DUP9 SWAP3 POP DUP8 SWAP2 DUP3 SWAP2 DUP6 ADD SWAP1 DUP5 SWAP1 DUP1 DUP3 DUP5 CALLDATACOPY PUSH1 0x0 SWAP3 ADD SWAP2 SWAP1 SWAP2 MSTORE POP PUSH2 0x1D87 SWAP3 POP POP POP JUMP JUMPDEST PUSH1 0x0 PUSH2 0x1BC4 DUP3 DUP5 PUSH2 0x277E JUMP JUMPDEST SWAP4 SWAP3 POP POP POP JUMP JUMPDEST PUSH1 0x1 PUSH1 0x1 PUSH1 0xA0 SHL SUB DUP1 DUP3 AND PUSH1 0x0 SWAP1 DUP2 MSTORE PUSH1 0x12 PUSH1 0x20 SWAP1 DUP2 MSTORE PUSH1 0x40 DUP1 DUP4 KECCAK256 SLOAD SWAP1 SWAP4 AND DUP1 DUP4 MSTORE PUSH1 0xF SWAP1 SWAP2 MSTORE SWAP2 SWAP1 KECCAK256 SLOAD PUSH2 0x1541 SWAP1 PUSH2 0x1125 JUMP JUMPDEST PUSH1 0x0 DUP2 DUP2 MSTORE PUSH1 0xB PUSH1 0x20 MSTORE PUSH1 0x40 DUP2 KECCAK256 DUP1 SLOAD SWAP1 SWAP2 DUP1 JUMPDEST DUP3 DUP2 LT ISZERO PUSH2 0x1D4B JUMPI PUSH1 0x0 DUP5 DUP3 DUP2 SLOAD DUP2 LT PUSH2 0x1C30 JUMPI PUSH2 0x1C30 PUSH2 0x26E2 JUMP JUMPDEST PUSH1 0x0 SWAP2 DUP3 MSTORE PUSH1 0x20 DUP1 DUP4 KECCAK256 SWAP1 SWAP2 ADD SLOAD DUP9 DUP4 MSTORE PUSH1 0xA DUP3 MSTORE PUSH1 0x40 DUP1 DUP5 KECCAK256 PUSH1 0x1 PUSH1 0x1 PUSH1 0xA0 SHL SUB SWAP1 SWAP3 AND DUP1 DUP6 MSTORE SWAP2 SWAP1 SWAP3 MSTORE SWAP2 KECCAK256 SLOAD SWAP1 SWAP2 POP DUP1 ISZERO PUSH2 0x1D36 JUMPI PUSH2 0x1C71 DUP3 PUSH2 0x21DC JUMP JUMPDEST PUSH1 0x1 PUSH1 0x1 PUSH1 0xA0 SHL SUB DUP3 AND PUSH1 0x0 SWAP1 DUP2 MSTORE PUSH1 0x9 PUSH1 0x20 MSTORE PUSH1 0x40 DUP2 KECCAK256 DUP1 SLOAD DUP4 SWAP3 SWAP1 PUSH2 0x1C99 SWAP1 DUP5 SWAP1 PUSH2 0x2796 JUMP JUMPDEST SWAP1 SWAP2 SSTORE POP POP PUSH1 0x0 DUP8 DUP2 MSTORE PUSH1 0xA PUSH1 0x20 SWAP1 DUP2 MSTORE PUSH1 0x40 DUP1 DUP4 KECCAK256 PUSH1 0x1 PUSH1 0x1 PUSH1 0xA0 SHL SUB DUP7 AND DUP5 MSTORE SWAP1 SWAP2 MSTORE DUP2 KECCAK256 DUP1 SLOAD DUP4 SWAP3 SWAP1 PUSH2 0x1CD0 SWAP1 DUP5 SWAP1 PUSH2 0x2796 JUMP JUMPDEST SWAP1 SWAP2 SSTORE POP POP PUSH1 0x0 DUP2 SGT ISZERO PUSH2 0x1CEF JUMPI PUSH2 0x1CE8 DUP2 DUP6 PUSH2 0x27D5 JUMP JUMPDEST SWAP4 POP PUSH2 0x1CFC JUMP JUMPDEST PUSH2 0x1CF9 DUP2 DUP6 PUSH2 0x2796 JUMP JUMPDEST SWAP4 POP JUMPDEST PUSH1 0x40 DUP1 MLOAD DUP9 DUP2 MSTORE PUSH1 0x20 DUP2 ADD DUP4 SWAP1 MSTORE PUSH32 0x6B3894CE60B9BBE9D93F1A4E6FC25B6B93CD8222E73AB6348D79C596F5B51DE9 SWAP2 ADD PUSH1 0x40 MLOAD DUP1 SWAP2 SUB SWAP1 LOG1 JUMPDEST POP POP DUP1 DUP1 PUSH2 0x1D43 SWAP1 PUSH2 0x2724 JUMP JUMPDEST SWAP2 POP POP PUSH2 0x1C14 JUMP JUMPDEST POP DUP1 PUSH1 0x8 PUSH1 0x0 DUP3 DUP3 SLOAD PUSH2 0x1D5E SWAP2 SWAP1 PUSH2 0x2691 JUMP JUMPDEST SWAP1 SWAP2 SSTORE POP POP PUSH1 0x0 DUP5 DUP2 MSTORE PUSH1 0xC PUSH1 0x20 SWAP1 DUP2 MSTORE PUSH1 0x40 DUP1 DUP4 KECCAK256 DUP4 SWAP1 SSTORE PUSH1 0xB SWAP1 SWAP2 MSTORE DUP2 KECCAK256 PUSH2 0xF96 SWAP2 PUSH2 0x2200 JUMP JUMPDEST PUSH2 0x1D90 DUP4 PUSH2 0x1C00 JUMP JUMPDEST DUP2 MLOAD PUSH1 0x40 MLOAD PUSH4 0x39F890B5 PUSH1 0xE2 SHL DUP2 MSTORE PUSH1 0x4 DUP2 ADD DUP6 SWAP1 MSTORE PUSH1 0x0 SWAP1 PUSH32 0x0 PUSH1 0x1 PUSH1 0x1 PUSH1 0xA0 SHL SUB AND SWAP1 PUSH4 0xE7E242D4 SWAP1 PUSH1 0x24 ADD PUSH1 0x20 PUSH1 0x40 MLOAD DUP1 DUP4 SUB DUP2 DUP7 GAS STATICCALL ISZERO DUP1 ISZERO PUSH2 0x1DFA JUMPI RETURNDATASIZE PUSH1 0x0 DUP1 RETURNDATACOPY RETURNDATASIZE PUSH1 0x0 REVERT JUMPDEST POP POP POP POP PUSH1 0x40 MLOAD RETURNDATASIZE PUSH1 0x1F NOT PUSH1 0x1F DUP3 ADD AND DUP3 ADD DUP1 PUSH1 0x40 MSTORE POP DUP2 ADD SWAP1 PUSH2 0x1E1E SWAP2 SWAP1 PUSH2 0x2765 JUMP JUMPDEST SWAP1 POP PUSH1 0x0 DUP1 PUSH1 0x0 DUP1 JUMPDEST DUP6 DUP2 LT ISZERO PUSH2 0x1EB1 JUMPI PUSH1 0x0 DUP8 DUP3 DUP2 MLOAD DUP2 LT PUSH2 0x1E43 JUMPI PUSH2 0x1E43 PUSH2 0x26E2 JUMP JUMPDEST PUSH1 0x20 MUL PUSH1 0x20 ADD ADD MLOAD SGT PUSH2 0x1E78 JUMPI DUP7 DUP2 DUP2 MLOAD DUP2 LT PUSH2 0x1E62 JUMPI PUSH2 0x1E62 PUSH2 0x26E2 JUMP JUMPDEST PUSH1 0x20 MUL PUSH1 0x20 ADD ADD MLOAD PUSH2 0x1E73 SWAP1 PUSH2 0x2816 JUMP JUMPDEST PUSH2 0x1E93 JUMP JUMPDEST DUP7 DUP2 DUP2 MLOAD DUP2 LT PUSH2 0x1E8A JUMPI PUSH2 0x1E8A PUSH2 0x26E2 JUMP JUMPDEST PUSH1 0x20 MUL PUSH1 0x20 ADD ADD MLOAD JUMPDEST PUSH2 0x1E9D SWAP1 DUP6 PUSH2 0x27D5 JUMP JUMPDEST SWAP4 POP DUP1 PUSH2 0x1EA9 DUP2 PUSH2 0x2724 JUMP JUMPDEST SWAP2 POP POP PUSH2 0x1E27 JUMP JUMPDEST POP PUSH1 0x0 JUMPDEST DUP6 DUP2 LT ISZERO PUSH2 0x2101 JUMPI PUSH1 0x0 DUP9 DUP3 DUP2 MLOAD DUP2 LT PUSH2 0x1ED1 JUMPI PUSH2 0x1ED1 PUSH2 0x26E2 JUMP JUMPDEST PUSH1 0x20 MUL PUSH1 0x20 ADD ADD MLOAD SWAP1 POP PUSH2 0x1F0D DUP2 PUSH1 0x1 PUSH1 0x1 PUSH1 0xA0 SHL SUB SWAP1 DUP2 AND PUSH1 0x0 SWAP1 DUP2 MSTORE PUSH1 0x11 PUSH1 0x20 SWAP1 DUP2 MSTORE PUSH1 0x40 DUP1 DUP4 KECCAK256 SLOAD SWAP1 SWAP4 AND DUP3 MSTORE PUSH1 0x13 SWAP1 MSTORE KECCAK256 SLOAD PUSH1 0xFF AND SWAP1 JUMP JUMPDEST ISZERO PUSH2 0x20EE JUMPI PUSH1 0x0 DUP6 DUP8 DUP11 DUP6 DUP2 MLOAD DUP2 LT PUSH2 0x1F28 JUMPI PUSH2 0x1F28 PUSH2 0x26E2 JUMP JUMPDEST PUSH1 0x20 MUL PUSH1 0x20 ADD ADD MLOAD PUSH2 0x1F3A SWAP2 SWAP1 PUSH2 0x2833 JUMP JUMPDEST PUSH2 0x1F44 SWAP2 SWAP1 PUSH2 0x28CE JUMP JUMPDEST PUSH1 0x0 DUP13 DUP2 MSTORE PUSH1 0xA PUSH1 0x20 SWAP1 DUP2 MSTORE PUSH1 0x40 DUP1 DUP4 KECCAK256 PUSH1 0x1 PUSH1 0x1 PUSH1 0xA0 SHL SUB DUP8 AND DUP5 MSTORE SWAP1 SWAP2 MSTORE SWAP1 KECCAK256 SLOAD SWAP1 SWAP2 POP ISZERO PUSH2 0x1FA9 JUMPI PUSH1 0x40 MLOAD PUSH3 0x461BCD PUSH1 0xE5 SHL DUP2 MSTORE PUSH1 0x20 PUSH1 0x4 DUP3 ADD MSTORE PUSH1 0xF PUSH1 0x24 DUP3 ADD MSTORE PUSH15 0x746F6B656E20706F6F6C206973203 PUSH1 0x8C SHL PUSH1 0x44 DUP3 ADD MSTORE PUSH1 0x64 ADD PUSH2 0x6E4 JUMP JUMPDEST DUP1 PUSH2 0x1FE4 JUMPI PUSH1 0x40 MLOAD PUSH3 0x461BCD PUSH1 0xE5 SHL DUP2 MSTORE PUSH1 0x20 PUSH1 0x4 DUP3 ADD MSTORE PUSH1 0xB PUSH1 0x24 DUP3 ADD MSTORE PUSH11 0x776569676874206973203 PUSH1 0xAC SHL PUSH1 0x44 DUP3 ADD MSTORE PUSH1 0x64 ADD PUSH2 0x6E4 JUMP JUMPDEST PUSH2 0x1FED DUP3 PUSH2 0x21DC JUMP JUMPDEST PUSH1 0x0 DUP12 DUP2 MSTORE PUSH1 0xB PUSH1 0x20 SWAP1 DUP2 MSTORE PUSH1 0x40 DUP1 DUP4 KECCAK256 DUP1 SLOAD PUSH1 0x1 DUP2 ADD DUP3 SSTORE SWAP1 DUP5 MSTORE DUP3 DUP5 KECCAK256 ADD DUP1 SLOAD PUSH1 0x1 PUSH1 0x1 PUSH1 0xA0 SHL SUB NOT AND PUSH1 0x1 PUSH1 0x1 PUSH1 0xA0 SHL SUB DUP8 AND SWAP1 DUP2 OR SWAP1 SWAP2 SSTORE DUP4 MSTORE PUSH1 0x9 SWAP1 SWAP2 MSTORE DUP2 KECCAK256 DUP1 SLOAD DUP4 SWAP3 SWAP1 PUSH2 0x2042 SWAP1 DUP5 SWAP1 PUSH2 0x27D5 JUMP JUMPDEST SWAP1 SWAP2 SSTORE POP POP PUSH1 0x0 DUP12 DUP2 MSTORE PUSH1 0xA PUSH1 0x20 SWAP1 DUP2 MSTORE PUSH1 0x40 DUP1 DUP4 KECCAK256 PUSH1 0x1 PUSH1 0x1 PUSH1 0xA0 SHL SUB DUP7 AND DUP5 MSTORE SWAP1 SWAP2 MSTORE DUP2 KECCAK256 DUP1 SLOAD DUP4 SWAP3 SWAP1 PUSH2 0x2079 SWAP1 DUP5 SWAP1 PUSH2 0x27D5 JUMP JUMPDEST SWAP1 SWAP2 SSTORE POP POP PUSH1 0x0 DUP2 SGT ISZERO PUSH2 0x208C JUMPI PUSH2 0x2098 JUMP JUMPDEST PUSH2 0x2095 DUP2 PUSH2 0x2816 JUMP JUMPDEST SWAP1 POP JUMPDEST PUSH2 0x20A2 DUP2 DUP6 PUSH2 0x27D5 JUMP JUMPDEST SWAP4 POP PUSH2 0x20AE DUP2 DUP7 PUSH2 0x27D5 JUMP JUMPDEST PUSH1 0x40 DUP1 MLOAD DUP14 DUP2 MSTORE PUSH1 0x20 DUP2 ADD DUP5 SWAP1 MSTORE SWAP2 SWAP7 POP CALLER SWAP2 PUSH32 0x1263A2295E53ACD6EF8F655B8AFC11FA0F2CF11925BE7AA1757D741EF32A926C SWAP2 ADD PUSH1 0x40 MLOAD DUP1 SWAP2 SUB SWAP1 LOG2 POP JUMPDEST POP DUP1 PUSH2 0x20F9 DUP2 PUSH2 0x2724 JUMP JUMPDEST SWAP2 POP POP PUSH2 0x1EB5 JUMP JUMPDEST POP PUSH1 0x0 DUP2 SGT ISZERO PUSH2 0x2186 JUMPI PUSH1 0x40 MLOAD PUSH4 0xFD4A77F1 PUSH1 0xE0 SHL DUP2 MSTORE PUSH1 0x4 DUP2 ADD DUP10 SWAP1 MSTORE PUSH32 0x0 PUSH1 0x1 PUSH1 0x1 PUSH1 0xA0 SHL SUB AND SWAP1 PUSH4 0xFD4A77F1 SWAP1 PUSH1 0x24 ADD PUSH1 0x0 PUSH1 0x40 MLOAD DUP1 DUP4 SUB DUP2 PUSH1 0x0 DUP8 DUP1 EXTCODESIZE ISZERO DUP1 ISZERO PUSH2 0x216D JUMPI PUSH1 0x0 DUP1 REVERT JUMPDEST POP GAS CALL ISZERO DUP1 ISZERO PUSH2 0x2181 JUMPI RETURNDATASIZE PUSH1 0x0 DUP1 RETURNDATACOPY RETURNDATASIZE PUSH1 0x0 REVERT JUMPDEST POP POP POP POP JUMPDEST DUP2 PUSH1 0x8 PUSH1 0x0 DUP3 DUP3 SLOAD PUSH2 0x2198 SWAP2 SWAP1 PUSH2 0x277E JUMP JUMPDEST SWAP1 SWAP2 SSTORE POP POP PUSH1 0x0 SWAP8 DUP9 MSTORE PUSH1 0xC PUSH1 0x20 MSTORE PUSH1 0x40 SWAP1 SWAP8 KECCAK256 SWAP7 SWAP1 SWAP7 SSTORE POP POP POP POP POP POP JUMP JUMPDEST PUSH1 0x0 PUSH2 0x1BC4 DUP3 DUP5 PUSH2 0x28FC JUMP JUMPDEST PUSH1 0x0 PUSH2 0x1BC4 DUP3 DUP5 PUSH2 0x291B JUMP JUMPDEST PUSH1 0x0 PUSH2 0x1BC4 DUP3 DUP5 PUSH2 0x2691 JUMP JUMPDEST PUSH1 0x1 PUSH1 0x1 PUSH1 0xA0 SHL SUB DUP1 DUP3 AND PUSH1 0x0 SWAP1 DUP2 MSTORE PUSH1 0x11 PUSH1 0x20 MSTORE PUSH1 0x40 SWAP1 KECCAK256 SLOAD PUSH2 0x1417 SWAP2 AND PUSH2 0x1BCB JUMP JUMPDEST POP DUP1 SLOAD PUSH1 0x0 DUP3 SSTORE SWAP1 PUSH1 0x0 MSTORE PUSH1 0x20 PUSH1 0x0 KECCAK256 SWAP1 DUP2 ADD SWAP1 PUSH2 0x1417 SWAP2 SWAP1 JUMPDEST DUP1 DUP3 GT ISZERO PUSH2 0x222E JUMPI PUSH1 0x0 DUP2 SSTORE PUSH1 0x1 ADD PUSH2 0x221A JUMP JUMPDEST POP SWAP1 JUMP JUMPDEST PUSH1 0x1 PUSH1 0x1 PUSH1 0xA0 SHL SUB DUP2 AND DUP2 EQ PUSH2 0x1417 JUMPI PUSH1 0x0 DUP1 REVERT JUMPDEST PUSH1 0x0 PUSH1 0x20 DUP3 DUP5 SUB SLT ISZERO PUSH2 0x2259 JUMPI PUSH1 0x0 DUP1 REVERT JUMPDEST DUP2 CALLDATALOAD PUSH2 0x1BC4 DUP2 PUSH2 0x2232 JUMP JUMPDEST DUP1 ISZERO ISZERO DUP2 EQ PUSH2 0x1417 JUMPI PUSH1 0x0 DUP1 REVERT JUMPDEST PUSH1 0x0 DUP1 PUSH1 0x0 PUSH1 0x60 DUP5 DUP7 SUB SLT ISZERO PUSH2 0x2287 JUMPI PUSH1 0x0 DUP1 REVERT JUMPDEST DUP4 CALLDATALOAD PUSH2 0x2292 DUP2 PUSH2 0x2232 JUMP JUMPDEST SWAP3 POP PUSH1 0x20 DUP5 ADD CALLDATALOAD SWAP2 POP PUSH1 0x40 DUP5 ADD CALLDATALOAD PUSH2 0x22A9 DUP2 PUSH2 0x2264 JUMP JUMPDEST DUP1 SWAP2 POP POP SWAP3 POP SWAP3 POP SWAP3 JUMP JUMPDEST PUSH1 0x0 PUSH1 0x20 DUP3 DUP5 SUB SLT ISZERO PUSH2 0x22C6 JUMPI PUSH1 0x0 DUP1 REVERT JUMPDEST POP CALLDATALOAD SWAP2 SWAP1 POP JUMP JUMPDEST PUSH1 0x0 DUP2 MLOAD DUP1 DUP5 MSTORE PUSH1 0x20 DUP1 DUP6 ADD SWAP5 POP DUP1 DUP5 ADD PUSH1 0x0 JUMPDEST DUP4 DUP2 LT ISZERO PUSH2 0x2306 JUMPI DUP2 MLOAD PUSH1 0x1 PUSH1 0x1 PUSH1 0xA0 SHL SUB AND DUP8 MSTORE SWAP6 DUP3 ADD SWAP6 SWAP1 DUP3 ADD SWAP1 PUSH1 0x1 ADD PUSH2 0x22E1 JUMP JUMPDEST POP SWAP5 SWAP6 SWAP5 POP POP POP POP POP JUMP JUMPDEST PUSH1 0x20 DUP2 MSTORE PUSH1 0x0 PUSH2 0x1BC4 PUSH1 0x20 DUP4 ADD DUP5 PUSH2 0x22CD JUMP JUMPDEST PUSH4 0x4E487B71 PUSH1 0xE0 SHL PUSH1 0x0 MSTORE PUSH1 0x41 PUSH1 0x4 MSTORE PUSH1 0x24 PUSH1 0x0 REVERT JUMPDEST PUSH1 0x40 MLOAD PUSH1 0x1F DUP3 ADD PUSH1 0x1F NOT AND DUP2 ADD PUSH8 0xFFFFFFFFFFFFFFFF DUP2 GT DUP3 DUP3 LT OR ISZERO PUSH2 0x2363 JUMPI PUSH2 0x2363 PUSH2 0x2324 JUMP JUMPDEST PUSH1 0x40 MSTORE SWAP2 SWAP1 POP JUMP JUMPDEST PUSH1 0x0 PUSH8 0xFFFFFFFFFFFFFFFF DUP3 GT ISZERO PUSH2 0x2385 JUMPI PUSH2 0x2385 PUSH2 0x2324 JUMP JUMPDEST POP PUSH1 0x5 SHL PUSH1 0x20 ADD SWAP1 JUMP JUMPDEST PUSH1 0x0 DUP3 PUSH1 0x1F DUP4 ADD SLT PUSH2 0x23A0 JUMPI PUSH1 0x0 DUP1 REVERT JUMPDEST DUP2 CALLDATALOAD PUSH1 0x20 PUSH2 0x23B5 PUSH2 0x23B0 DUP4 PUSH2 0x236B JUMP JUMPDEST PUSH2 0x233A JUMP JUMPDEST DUP3 DUP2 MSTORE PUSH1 0x5 SWAP3 SWAP1 SWAP3 SHL DUP5 ADD DUP2 ADD SWAP2 DUP2 DUP2 ADD SWAP1 DUP7 DUP5 GT ISZERO PUSH2 0x23D4 JUMPI PUSH1 0x0 DUP1 REVERT JUMPDEST DUP3 DUP7 ADD JUMPDEST DUP5 DUP2 LT ISZERO PUSH2 0x23F8 JUMPI DUP1 CALLDATALOAD PUSH2 0x23EB DUP2 PUSH2 0x2232 JUMP JUMPDEST DUP4 MSTORE SWAP2 DUP4 ADD SWAP2 DUP4 ADD PUSH2 0x23D8 JUMP JUMPDEST POP SWAP7 SWAP6 POP POP POP POP POP POP JUMP JUMPDEST PUSH1 0x0 DUP1 PUSH1 0x40 DUP4 DUP6 SUB SLT ISZERO PUSH2 0x2416 JUMPI PUSH1 0x0 DUP1 REVERT JUMPDEST DUP3 CALLDATALOAD PUSH8 0xFFFFFFFFFFFFFFFF DUP1 DUP3 GT ISZERO PUSH2 0x242E JUMPI PUSH1 0x0 DUP1 REVERT JUMPDEST PUSH2 0x243A DUP7 DUP4 DUP8 ADD PUSH2 0x238F JUMP JUMPDEST SWAP4 POP PUSH1 0x20 SWAP2 POP DUP2 DUP6 ADD CALLDATALOAD DUP2 DUP2 GT ISZERO PUSH2 0x2451 JUMPI PUSH1 0x0 DUP1 REVERT JUMPDEST DUP6 ADD PUSH1 0x1F DUP2 ADD DUP8 SGT PUSH2 0x2462 JUMPI PUSH1 0x0 DUP1 REVERT JUMPDEST DUP1 CALLDATALOAD PUSH2 0x2470 PUSH2 0x23B0 DUP3 PUSH2 0x236B JUMP JUMPDEST DUP2 DUP2 MSTORE PUSH1 0x5 SWAP2 SWAP1 SWAP2 SHL DUP3 ADD DUP5 ADD SWAP1 DUP5 DUP2 ADD SWAP1 DUP10 DUP4 GT ISZERO PUSH2 0x248F JUMPI PUSH1 0x0 DUP1 REVERT JUMPDEST DUP6 DUP5 ADD JUMPDEST DUP4 DUP2 LT ISZERO PUSH2 0x24C7 JUMPI DUP1 CALLDATALOAD DUP7 DUP2 GT ISZERO PUSH2 0x24AB JUMPI PUSH1 0x0 DUP1 DUP2 REVERT JUMPDEST PUSH2 0x24B9 DUP13 DUP10 DUP4 DUP10 ADD ADD PUSH2 0x238F JUMP JUMPDEST DUP5 MSTORE POP SWAP2 DUP7 ADD SWAP2 DUP7 ADD PUSH2 0x2493 JUMP JUMPDEST POP DUP1 SWAP7 POP POP POP POP POP POP POP SWAP3 POP SWAP3 SWAP1 POP JUMP JUMPDEST PUSH1 0x0 DUP1 PUSH1 0x40 DUP4 DUP6 SUB SLT ISZERO PUSH2 0x24EB JUMPI PUSH1 0x0 DUP1 REVERT JUMPDEST DUP3 CALLDATALOAD SWAP2 POP PUSH1 0x20 DUP4 ADD CALLDATALOAD PUSH2 0x24FD DUP2 PUSH2 0x2232 JUMP JUMPDEST DUP1 SWAP2 POP POP SWAP3 POP SWAP3 SWAP1 POP JUMP JUMPDEST PUSH1 0x0 DUP1 PUSH1 0x40 DUP4 DUP6 SUB SLT ISZERO PUSH2 0x251B JUMPI PUSH1 0x0 DUP1 REVERT JUMPDEST DUP3 CALLDATALOAD SWAP2 POP PUSH1 0x20 DUP4 ADD CALLDATALOAD PUSH2 0x24FD DUP2 PUSH2 0x2264 JUMP JUMPDEST PUSH1 0x0 DUP1 PUSH1 0x0 PUSH1 0x60 DUP5 DUP7 SUB SLT ISZERO PUSH2 0x2542 JUMPI PUSH1 0x0 DUP1 REVERT JUMPDEST DUP4 CALLDATALOAD SWAP3 POP PUSH1 0x20 DUP5 ADD CALLDATALOAD SWAP2 POP PUSH1 0x40 DUP5 ADD CALLDATALOAD PUSH2 0x22A9 DUP2 PUSH2 0x2264 JUMP JUMPDEST PUSH1 0x0 DUP1 PUSH1 0x0 PUSH1 0x60 DUP5 DUP7 SUB SLT ISZERO PUSH2 0x2570 JUMPI PUSH1 0x0 DUP1 REVERT JUMPDEST DUP4 CALLDATALOAD SWAP3 POP PUSH1 0x20 DUP5 ADD CALLDATALOAD PUSH2 0x2582 DUP2 PUSH2 0x2232 JUMP JUMPDEST SWAP3 SWAP6 SWAP3 SWAP5 POP POP POP PUSH1 0x40 SWAP2 SWAP1 SWAP2 ADD CALLDATALOAD SWAP1 JUMP JUMPDEST PUSH1 0x0 DUP1 PUSH1 0x40 DUP4 DUP6 SUB SLT ISZERO PUSH2 0x25A6 JUMPI PUSH1 0x0 DUP1 REVERT JUMPDEST POP POP DUP1 CALLDATALOAD SWAP3 PUSH1 0x20 SWAP1 SWAP2 ADD CALLDATALOAD SWAP2 POP JUMP JUMPDEST PUSH1 0x0 DUP1 DUP4 PUSH1 0x1F DUP5 ADD SLT PUSH2 0x25C7 JUMPI PUSH1 0x0 DUP1 REVERT JUMPDEST POP DUP2 CALLDATALOAD PUSH8 0xFFFFFFFFFFFFFFFF DUP2 GT ISZERO PUSH2 0x25DF JUMPI PUSH1 0x0 DUP1 REVERT JUMPDEST PUSH1 0x20 DUP4 ADD SWAP2 POP DUP4 PUSH1 0x20 DUP3 PUSH1 0x5 SHL DUP6 ADD ADD GT ISZERO PUSH2 0x25FA JUMPI PUSH1 0x0 DUP1 REVERT JUMPDEST SWAP3 POP SWAP3 SWAP1 POP JUMP JUMPDEST PUSH1 0x0 DUP1 PUSH1 0x0 DUP1 PUSH1 0x0 PUSH1 0x60 DUP7 DUP9 SUB SLT ISZERO PUSH2 0x2619 JUMPI PUSH1 0x0 DUP1 REVERT JUMPDEST DUP6 CALLDATALOAD SWAP5 POP PUSH1 0x20 DUP7 ADD CALLDATALOAD PUSH8 0xFFFFFFFFFFFFFFFF DUP1 DUP3 GT ISZERO PUSH2 0x2638 JUMPI PUSH1 0x0 DUP1 REVERT JUMPDEST PUSH2 0x2644 DUP10 DUP4 DUP11 ADD PUSH2 0x25B5 JUMP JUMPDEST SWAP1 SWAP7 POP SWAP5 POP PUSH1 0x40 DUP9 ADD CALLDATALOAD SWAP2 POP DUP1 DUP3 GT ISZERO PUSH2 0x265D JUMPI PUSH1 0x0 DUP1 REVERT JUMPDEST POP PUSH2 0x266A DUP9 DUP3 DUP10 ADD PUSH2 0x25B5 JUMP JUMPDEST SWAP7 SWAP10 SWAP6 SWAP9 POP SWAP4 SWAP7 POP SWAP3 SWAP5 SWAP4 SWAP3 POP POP POP JUMP JUMPDEST PUSH4 0x4E487B71 PUSH1 0xE0 SHL PUSH1 0x0 MSTORE PUSH1 0x11 PUSH1 0x4 MSTORE PUSH1 0x24 PUSH1 0x0 REVERT JUMPDEST PUSH1 0x0 DUP3 DUP3 LT ISZERO PUSH2 0x26A3 JUMPI PUSH2 0x26A3 PUSH2 0x267B JUMP JUMPDEST POP SUB SWAP1 JUMP JUMPDEST PUSH1 0x0 PUSH1 0x20 DUP3 DUP5 SUB SLT ISZERO PUSH2 0x26BA JUMPI PUSH1 0x0 DUP1 REVERT JUMPDEST DUP2 MLOAD PUSH2 0x1BC4 DUP2 PUSH2 0x2232 JUMP JUMPDEST PUSH1 0x0 PUSH1 0x20 DUP3 DUP5 SUB SLT ISZERO PUSH2 0x26D7 JUMPI PUSH1 0x0 DUP1 REVERT JUMPDEST DUP2 MLOAD PUSH2 0x1BC4 DUP2 PUSH2 0x2264 JUMP JUMPDEST PUSH4 0x4E487B71 PUSH1 0xE0 SHL PUSH1 0x0 MSTORE PUSH1 0x32 PUSH1 0x4 MSTORE PUSH1 0x24 PUSH1 0x0 REVERT JUMPDEST PUSH1 0x1 PUSH1 0x1 PUSH1 0xA0 SHL SUB DUP4 AND DUP2 MSTORE PUSH1 0x40 PUSH1 0x20 DUP3 ADD DUP2 SWAP1 MSTORE PUSH1 0x0 SWAP1 PUSH2 0x271C SWAP1 DUP4 ADD DUP5 PUSH2 0x22CD JUMP JUMPDEST SWAP5 SWAP4 POP POP POP POP JUMP JUMPDEST PUSH1 0x0 PUSH1 0x0 NOT DUP3 EQ ISZERO PUSH2 0x2738 JUMPI PUSH2 0x2738 PUSH2 0x267B JUMP JUMPDEST POP PUSH1 0x1 ADD SWAP1 JUMP JUMPDEST PUSH1 0x20 DUP1 DUP3 MSTORE PUSH1 0xC SWAP1 DUP3 ADD MSTORE PUSH12 0x3737BA1037B832B930BA37B9 PUSH1 0xA1 SHL PUSH1 0x40 DUP3 ADD MSTORE PUSH1 0x60 ADD SWAP1 JUMP JUMPDEST PUSH1 0x0 PUSH1 0x20 DUP3 DUP5 SUB SLT ISZERO PUSH2 0x2777 JUMPI PUSH1 0x0 DUP1 REVERT JUMPDEST POP MLOAD SWAP2 SWAP1 POP JUMP JUMPDEST PUSH1 0x0 DUP3 NOT DUP3 GT ISZERO PUSH2 0x2791 JUMPI PUSH2 0x2791 PUSH2 0x267B JUMP JUMPDEST POP ADD SWAP1 JUMP JUMPDEST PUSH1 0x0 DUP1 DUP4 SLT DUP1 ISZERO PUSH1 0x1 PUSH1 0xFF SHL DUP6 ADD DUP5 SLT AND ISZERO PUSH2 0x27B4 JUMPI PUSH2 0x27B4 PUSH2 0x267B JUMP JUMPDEST PUSH1 0x1 PUSH1 0x1 PUSH1 0xFF SHL SUB DUP5 ADD DUP4 SGT DUP2 AND ISZERO PUSH2 0x27CF JUMPI PUSH2 0x27CF PUSH2 0x267B JUMP JUMPDEST POP POP SUB SWAP1 JUMP JUMPDEST PUSH1 0x0 DUP1 DUP3 SLT DUP1 ISZERO PUSH1 0x1 PUSH1 0x1 PUSH1 0xFF SHL SUB DUP5 SWAP1 SUB DUP6 SGT AND ISZERO PUSH2 0x27F7 JUMPI PUSH2 0x27F7 PUSH2 0x267B JUMP JUMPDEST PUSH1 0x1 PUSH1 0xFF SHL DUP4 SWAP1 SUB DUP5 SLT DUP2 AND ISZERO PUSH2 0x2810 JUMPI PUSH2 0x2810 PUSH2 0x267B JUMP JUMPDEST POP POP ADD SWAP1 JUMP JUMPDEST PUSH1 0x0 PUSH1 0x1 PUSH1 0xFF SHL DUP3 EQ ISZERO PUSH2 0x282C JUMPI PUSH2 0x282C PUSH2 0x267B JUMP JUMPDEST POP PUSH1 0x0 SUB SWAP1 JUMP JUMPDEST PUSH1 0x0 PUSH1 0x1 PUSH1 0x1 PUSH1 0xFF SHL SUB DUP2 DUP5 SGT DUP3 DUP5 SGT DUP1 DUP3 AND DUP7 DUP5 DIV DUP7 GT AND ISZERO PUSH2 0x2859 JUMPI PUSH2 0x2859 PUSH2 0x267B JUMP JUMPDEST PUSH1 0x1 PUSH1 0xFF SHL PUSH1 0x0 DUP8 SLT DUP3 DUP2 AND DUP8 DUP4 SDIV DUP10 SLT AND ISZERO PUSH2 0x2878 JUMPI PUSH2 0x2878 PUSH2 0x267B JUMP JUMPDEST PUSH1 0x0 DUP8 SLT SWAP3 POP DUP8 DUP3 SDIV DUP8 SLT DUP5 DUP5 AND AND ISZERO PUSH2 0x2894 JUMPI PUSH2 0x2894 PUSH2 0x267B JUMP JUMPDEST DUP8 DUP6 SDIV DUP8 SLT DUP2 DUP5 AND AND ISZERO PUSH2 0x28AA JUMPI PUSH2 0x28AA PUSH2 0x267B JUMP JUMPDEST POP POP POP SWAP3 SWAP1 SWAP4 MUL SWAP4 SWAP3 POP POP POP JUMP JUMPDEST PUSH4 0x4E487B71 PUSH1 0xE0 SHL PUSH1 0x0 MSTORE PUSH1 0x12 PUSH1 0x4 MSTORE PUSH1 0x24 PUSH1 0x0 REVERT JUMPDEST PUSH1 0x0 DUP3 PUSH2 0x28DD JUMPI PUSH2 0x28DD PUSH2 0x28B8 JUMP JUMPDEST PUSH1 0x1 PUSH1 0xFF SHL DUP3 EQ PUSH1 0x0 NOT DUP5 EQ AND ISZERO PUSH2 0x28F7 JUMPI PUSH2 0x28F7 PUSH2 0x267B JUMP JUMPDEST POP SDIV SWAP1 JUMP JUMPDEST PUSH1 0x0 DUP2 PUSH1 0x0 NOT DIV DUP4 GT DUP3 ISZERO ISZERO AND ISZERO PUSH2 0x2916 JUMPI PUSH2 0x2916 PUSH2 0x267B JUMP JUMPDEST POP MUL SWAP1 JUMP JUMPDEST PUSH1 0x0 DUP3 PUSH2 0x292A JUMPI PUSH2 0x292A PUSH2 0x28B8 JUMP JUMPDEST POP DIV SWAP1 JUMP INVALID LOG2 PUSH5 0x6970667358 0x22 SLT KECCAK256 DUP2 0xB2 JUMPI DUP10 0xB0 0xE8 CODECOPY 0xF9 0x22 0xAF 0xC2 0x25 0xBC RETURN MUL 0x2E 0xE4 LOG0 CALLDATALOAD DUP12 PUSH32 0x60AA32EB4AB6A884BB1E5164736F6C634300080A003300000000000000000000 "
				},
				"gasEstimates": {
					"creation": {
						"codeDepositCost": "2119400",
						"executionCost": "infinite",
						"totalCost": "infinite"
					},
					"external": {
						"LpOfPid(address)": "2646",
						"attachTokenToGauge(uint256,address)": "infinite",
						"claimRewards(address[],address[][])": "infinite",
						"createGauge(address,uint256,bool)": "infinite",
						"detachTokenFromGauge(uint256,address)": "infinite",
						"distribute(address)": "infinite",
						"duration()": "241",
						"emitDeposit(uint256,address,uint256)": "4790",
						"emitWithdraw(uint256,address,uint256)": "4778",
						"gaugeFactory()": "infinite",
						"gauges(address)": "2585",
						"getPoolVote(uint256)": "infinite",
						"isGauge(address)": "2614",
						"massUpdatePools()": "infinite",
						"minTokenReward()": "2362",
						"mintMulti()": "2363",
						"operatable()": "2393",
						"operator()": "infinite",
						"owner()": "infinite",
						"period()": "2427",
						"periodEndBlock()": "2451",
						"poke(uint256)": "infinite",
						"poolForGauge(address)": "2588",
						"poolInfo(uint256)": "8990",
						"poolLength()": "2350",
						"poolVote(uint256,uint256)": "4739",
						"pools(uint256)": "4714",
						"reset(uint256)": "infinite",
						"set(uint256,uint256,bool)": "infinite",
						"setHalvingPeriod(uint256)": "infinite",
						"setMinTokenReward(uint256)": "infinite",
						"setMintMulti(uint256)": "infinite",
						"setOperContract(address)": "infinite",
						"setTokenPerBlock(uint256,bool)": "infinite",
						"startBlock()": "infinite",
						"swapToken()": "2414",
						"tokenPerBlock()": "2429",
						"totalAllocPoint()": "2407",
						"totalWeight()": "2406",
						"updateAll()": "infinite",
						"updatePool(uint256)": "infinite",
						"usedWeights(uint256)": "2483",
						"veToken()": "infinite",
						"vote(uint256,address[],int256[])": "infinite",
						"votes(uint256,address)": "2682",
						"weights(address)": "2668"
					},
					"internal": {
						"_updateForGauge(address)": "infinite",
						"_updatePoolInfo(address)": "infinite",
						"isGaugeForPool(address)": "infinite"
					}
				},
				"methodIdentifiers": {
					"LpOfPid(address)": "b0c7044b",
					"attachTokenToGauge(uint256,address)": "698473e3",
					"claimRewards(address[],address[][])": "20b1cb6f",
					"createGauge(address,uint256,bool)": "0c9c7ef5",
					"detachTokenFromGauge(uint256,address)": "411b1f77",
					"distribute(address)": "63453ae1",
					"duration()": "0fb5a6b4",
					"emitDeposit(uint256,address,uint256)": "a61c713a",
					"emitWithdraw(uint256,address,uint256)": "ea94ee44",
					"gaugeFactory()": "0d52333c",
					"gauges(address)": "b9a09fd5",
					"getPoolVote(uint256)": "146650df",
					"isGauge(address)": "aa79979b",
					"massUpdatePools()": "630b5ba1",
					"minTokenReward()": "812632ec",
					"mintMulti()": "37550684",
					"operatable()": "48ee26a3",
					"operator()": "570ca735",
					"owner()": "8da5cb5b",
					"period()": "ef78d4fd",
					"periodEndBlock()": "442da82f",
					"poke(uint256)": "32145f90",
					"poolForGauge(address)": "06d6a1b2",
					"poolInfo(uint256)": "1526fe27",
					"poolLength()": "081e3eda",
					"poolVote(uint256,uint256)": "a86a366d",
					"pools(uint256)": "ac4afa38",
					"reset(uint256)": "310bd74b",
					"set(uint256,uint256,bool)": "64482f79",
					"setHalvingPeriod(uint256)": "b5ec5c99",
					"setMinTokenReward(uint256)": "aa70fb98",
					"setMintMulti(uint256)": "71dd4bda",
					"setOperContract(address)": "0f589d63",
					"setTokenPerBlock(uint256,bool)": "4ade739b",
					"startBlock()": "48cd4cb1",
					"swapToken()": "dc73e49c",
					"tokenPerBlock()": "4198709a",
					"totalAllocPoint()": "17caf6f1",
					"totalWeight()": "96c82e57",
					"updateAll()": "53d78693",
					"updatePool(uint256)": "51eb05a6",
					"usedWeights(uint256)": "79e93824",
					"veToken()": "3b92eb23",
					"vote(uint256,address[],int256[])": "fecdad60",
					"votes(uint256,address)": "d23254b4",
					"weights(address)": "a7cac846"
				}
			},
			"storageLayout": {
				"storage": [
					{
						"astId": 97,
						"contract": "contracts/Boost.sol:Boost",
						"label": "_status",
						"offset": 0,
						"slot": "0",
						"type": "t_uint256"
					},
					{
						"astId": 2042,
						"contract": "contracts/Boost.sol:Boost",
						"label": "operatable",
						"offset": 0,
						"slot": "1",
						"type": "t_contract(Operatable)2024"
					},
					{
						"astId": 2195,
						"contract": "contracts/Boost.sol:Boost",
						"label": "swapToken",
						"offset": 0,
						"slot": "2",
						"type": "t_contract(IToken)2170"
					},
					{
						"astId": 2197,
						"contract": "contracts/Boost.sol:Boost",
						"label": "tokenPerBlock",
						"offset": 0,
						"slot": "3",
						"type": "t_uint256"
					},
					{
						"astId": 2201,
						"contract": "contracts/Boost.sol:Boost",
						"label": "periodEndBlock",
						"offset": 0,
						"slot": "4",
						"type": "t_uint256"
					},
					{
						"astId": 2203,
						"contract": "contracts/Boost.sol:Boost",
						"label": "period",
						"offset": 0,
						"slot": "5",
						"type": "t_uint256"
					},
					{
						"astId": 2205,
						"contract": "contracts/Boost.sol:Boost",
						"label": "mintMulti",
						"offset": 0,
						"slot": "6",
						"type": "t_uint256"
					},
					{
						"astId": 2208,
						"contract": "contracts/Boost.sol:Boost",
						"label": "minTokenReward",
						"offset": 0,
						"slot": "7",
						"type": "t_uint256"
					},
					{
						"astId": 2555,
						"contract": "contracts/Boost.sol:Boost",
						"label": "totalWeight",
						"offset": 0,
						"slot": "8",
						"type": "t_uint256"
					},
					{
						"astId": 2563,
						"contract": "contracts/Boost.sol:Boost",
						"label": "weights",
						"offset": 0,
						"slot": "9",
						"type": "t_mapping(t_address,t_int256)"
					},
					{
						"astId": 2569,
						"contract": "contracts/Boost.sol:Boost",
						"label": "votes",
						"offset": 0,
						"slot": "10",
						"type": "t_mapping(t_uint256,t_mapping(t_address,t_int256))"
					},
					{
						"astId": 2574,
						"contract": "contracts/Boost.sol:Boost",
						"label": "poolVote",
						"offset": 0,
						"slot": "11",
						"type": "t_mapping(t_uint256,t_array(t_address)dyn_storage)"
					},
					{
						"astId": 2578,
						"contract": "contracts/Boost.sol:Boost",
						"label": "usedWeights",
						"offset": 0,
						"slot": "12",
						"type": "t_mapping(t_uint256,t_uint256)"
					},
					{
						"astId": 3142,
						"contract": "contracts/Boost.sol:Boost",
						"label": "totalAllocPoint",
						"offset": 0,
						"slot": "13",
						"type": "t_uint256"
					},
					{
						"astId": 3146,
						"contract": "contracts/Boost.sol:Boost",
						"label": "poolInfo",
						"offset": 0,
						"slot": "14",
						"type": "t_array(t_struct(PoolInfo)3137_storage)dyn_storage"
					},
					{
						"astId": 3150,
						"contract": "contracts/Boost.sol:Boost",
						"label": "LpOfPid",
						"offset": 0,
						"slot": "15",
						"type": "t_mapping(t_address,t_uint256)"
					},
					{
						"astId": 3156,
						"contract": "contracts/Boost.sol:Boost",
						"label": "pools",
						"offset": 0,
						"slot": "16",
						"type": "t_array(t_address)dyn_storage"
					},
					{
						"astId": 3160,
						"contract": "contracts/Boost.sol:Boost",
						"label": "gauges",
						"offset": 0,
						"slot": "17",
						"type": "t_mapping(t_address,t_address)"
					},
					{
						"astId": 3164,
						"contract": "contracts/Boost.sol:Boost",
						"label": "poolForGauge",
						"offset": 0,
						"slot": "18",
						"type": "t_mapping(t_address,t_address)"
					},
					{
						"astId": 3168,
						"contract": "contracts/Boost.sol:Boost",
						"label": "isGauge",
						"offset": 0,
						"slot": "19",
						"type": "t_mapping(t_address,t_bool)"
					}
				],
				"types": {
					"t_address": {
						"encoding": "inplace",
						"label": "address",
						"numberOfBytes": "20"
					},
					"t_array(t_address)dyn_storage": {
						"base": "t_address",
						"encoding": "dynamic_array",
						"label": "address[]",
						"numberOfBytes": "32"
					},
					"t_array(t_struct(PoolInfo)3137_storage)dyn_storage": {
						"base": "t_struct(PoolInfo)3137_storage",
						"encoding": "dynamic_array",
						"label": "struct Boost.PoolInfo[]",
						"numberOfBytes": "32"
					},
					"t_bool": {
						"encoding": "inplace",
						"label": "bool",
						"numberOfBytes": "1"
					},
					"t_contract(IToken)2170": {
						"encoding": "inplace",
						"label": "contract IToken",
						"numberOfBytes": "20"
					},
					"t_contract(Operatable)2024": {
						"encoding": "inplace",
						"label": "contract Operatable",
						"numberOfBytes": "20"
					},
					"t_int256": {
						"encoding": "inplace",
						"label": "int256",
						"numberOfBytes": "32"
					},
					"t_mapping(t_address,t_address)": {
						"encoding": "mapping",
						"key": "t_address",
						"label": "mapping(address => address)",
						"numberOfBytes": "32",
						"value": "t_address"
					},
					"t_mapping(t_address,t_bool)": {
						"encoding": "mapping",
						"key": "t_address",
						"label": "mapping(address => bool)",
						"numberOfBytes": "32",
						"value": "t_bool"
					},
					"t_mapping(t_address,t_int256)": {
						"encoding": "mapping",
						"key": "t_address",
						"label": "mapping(address => int256)",
						"numberOfBytes": "32",
						"value": "t_int256"
					},
					"t_mapping(t_address,t_uint256)": {
						"encoding": "mapping",
						"key": "t_address",
						"label": "mapping(address => uint256)",
						"numberOfBytes": "32",
						"value": "t_uint256"
					},
					"t_mapping(t_uint256,t_array(t_address)dyn_storage)": {
						"encoding": "mapping",
						"key": "t_uint256",
						"label": "mapping(uint256 => address[])",
						"numberOfBytes": "32",
						"value": "t_array(t_address)dyn_storage"
					},
					"t_mapping(t_uint256,t_mapping(t_address,t_int256))": {
						"encoding": "mapping",
						"key": "t_uint256",
						"label": "mapping(uint256 => mapping(address => int256))",
						"numberOfBytes": "32",
						"value": "t_mapping(t_address,t_int256)"
					},
					"t_mapping(t_uint256,t_uint256)": {
						"encoding": "mapping",
						"key": "t_uint256",
						"label": "mapping(uint256 => uint256)",
						"numberOfBytes": "32",
						"value": "t_uint256"
					},
					"t_struct(PoolInfo)3137_storage": {
						"encoding": "inplace",
						"label": "struct Boost.PoolInfo",
						"members": [
							{
								"astId": 3132,
								"contract": "contracts/Boost.sol:Boost",
								"label": "lpToken",
								"offset": 0,
								"slot": "0",
								"type": "t_address"
							},
							{
								"astId": 3134,
								"contract": "contracts/Boost.sol:Boost",
								"label": "allocPoint",
								"offset": 0,
								"slot": "1",
								"type": "t_uint256"
							},
							{
								"astId": 3136,
								"contract": "contracts/Boost.sol:Boost",
								"label": "lastRewardBlock",
								"offset": 0,
								"slot": "2",
								"type": "t_uint256"
							}
						],
						"numberOfBytes": "96"
					},
					"t_uint256": {
						"encoding": "inplace",
						"label": "uint256",
						"numberOfBytes": "32"
					}
				}
			},
			"userdoc": {
				"kind": "user",
				"methods": {},
				"version": 1
			}
		}
	}
}