{
	"contracts/Boost.sol": {
		"CheckOper": {
			"abi": [
				{
					"inputs": [
						{
							"internalType": "address",
							"name": "_oper",
							"type": "address"
						}
					],
					"stateMutability": "nonpayable",
					"type": "constructor"
				},
				{
					"anonymous": false,
					"inputs": [
						{
							"indexed": true,
							"internalType": "address",
							"name": "oldOperator",
							"type": "address"
						},
						{
							"indexed": true,
							"internalType": "address",
							"name": "newOperator",
							"type": "address"
						}
					],
					"name": "SetOperatorContract",
					"type": "event"
				},
				{
					"inputs": [],
					"name": "operatable",
					"outputs": [
						{
							"internalType": "contract Operatable",
							"name": "",
							"type": "address"
						}
					],
					"stateMutability": "view",
					"type": "function"
				},
				{
					"inputs": [],
					"name": "operator",
					"outputs": [
						{
							"internalType": "address",
							"name": "",
							"type": "address"
						}
					],
					"stateMutability": "view",
					"type": "function"
				},
				{
					"inputs": [],
					"name": "owner",
					"outputs": [
						{
							"internalType": "address",
							"name": "",
							"type": "address"
						}
					],
					"stateMutability": "view",
					"type": "function"
				},
				{
					"inputs": [
						{
							"internalType": "address",
							"name": "_oper",
							"type": "address"
						}
					],
					"name": "setOperContract",
					"outputs": [],
					"stateMutability": "nonpayable",
					"type": "function"
				}
			],
			"devdoc": {
				"kind": "dev",
				"methods": {},
				"version": 1
			},
			"evm": {
				"assembly": "    /* \"contracts/Boost.sol\":44630:45648  contract CheckOper is IOperContract {... */\n  mstore(0x40, 0x80)\n    /* \"contracts/Boost.sol\":44797:44923  constructor(address _oper){... */\n  callvalue\n  dup1\n  iszero\n  tag_1\n  jumpi\n  0x00\n  dup1\n  revert\ntag_1:\n  pop\n  mload(0x40)\n  sub(codesize, bytecodeSize)\n  dup1\n  bytecodeSize\n  dup4\n  codecopy\n  dup2\n  add\n  0x40\n  dup2\n  swap1\n  mstore\n  tag_2\n  swap2\n  tag_3\n  jump\t// in\ntag_2:\n    /* \"contracts/Boost.sol\":44833:44843  operatable */\n  0x00\n    /* \"contracts/Boost.sol\":44833:44863  operatable = Operatable(_oper) */\n  dup1\n  sload\n  not(sub(shl(0xa0, 0x01), 0x01))\n  and\n  sub(shl(0xa0, 0x01), 0x01)\n  dup4\n  and\n  swap1\n  dup2\n  or\n  dup3\n  sstore\n    /* \"contracts/Boost.sol\":44878:44916  SetOperatorContract(address(0), _oper) */\n  mload(0x40)\n    /* \"contracts/Boost.sol\":44833:44863  operatable = Operatable(_oper) */\n  swap1\n  swap2\n    /* \"contracts/Boost.sol\":44833:44843  operatable */\n  swap1\n    /* \"contracts/Boost.sol\":44878:44916  SetOperatorContract(address(0), _oper) */\n  0x3ccbb406b985dd76fe05e172b432487a2ff9fe4257642d3acc350f167cb1d577\n  swap1\n    /* \"contracts/Boost.sol\":44833:44843  operatable */\n  dup3\n  swap1\n    /* \"contracts/Boost.sol\":44878:44916  SetOperatorContract(address(0), _oper) */\n  log3\n    /* \"contracts/Boost.sol\":44797:44923  constructor(address _oper){... */\n  pop\n    /* \"contracts/Boost.sol\":44630:45648  contract CheckOper is IOperContract {... */\n  jump(tag_7)\n    /* \"#utility.yul\":14:304   */\ntag_3:\n    /* \"#utility.yul\":84:90   */\n  0x00\n    /* \"#utility.yul\":137:139   */\n  0x20\n    /* \"#utility.yul\":125:134   */\n  dup3\n    /* \"#utility.yul\":116:123   */\n  dup5\n    /* \"#utility.yul\":112:135   */\n  sub\n    /* \"#utility.yul\":108:140   */\n  slt\n    /* \"#utility.yul\":105:157   */\n  iszero\n  tag_9\n  jumpi\n    /* \"#utility.yul\":153:154   */\n  0x00\n    /* \"#utility.yul\":150:151   */\n  dup1\n    /* \"#utility.yul\":143:155   */\n  revert\n    /* \"#utility.yul\":105:157   */\ntag_9:\n    /* \"#utility.yul\":179:195   */\n  dup2\n  mload\n  sub(shl(0xa0, 0x01), 0x01)\n    /* \"#utility.yul\":224:255   */\n  dup2\n  and\n    /* \"#utility.yul\":214:256   */\n  dup2\n  eq\n    /* \"#utility.yul\":204:274   */\n  tag_10\n  jumpi\n    /* \"#utility.yul\":270:271   */\n  0x00\n    /* \"#utility.yul\":267:268   */\n  dup1\n    /* \"#utility.yul\":260:272   */\n  revert\n    /* \"#utility.yul\":204:274   */\ntag_10:\n    /* \"#utility.yul\":293:298   */\n  swap4\n    /* \"#utility.yul\":14:304   */\n  swap3\n  pop\n  pop\n  pop\n  jump\t// out\ntag_7:\n    /* \"contracts/Boost.sol\":44630:45648  contract CheckOper is IOperContract {... */\n  dataSize(sub_0)\n  dup1\n  dataOffset(sub_0)\n  0x00\n  codecopy\n  0x00\n  return\nstop\n\nsub_0: assembly {\n        /* \"contracts/Boost.sol\":44630:45648  contract CheckOper is IOperContract {... */\n      mstore(0x40, 0x80)\n      callvalue\n      dup1\n      iszero\n      tag_1\n      jumpi\n      0x00\n      dup1\n      revert\n    tag_1:\n      pop\n      jumpi(tag_2, lt(calldatasize, 0x04))\n      shr(0xe0, calldataload(0x00))\n      dup1\n      0x0f589d63\n      eq\n      tag_3\n      jumpi\n      dup1\n      0x48ee26a3\n      eq\n      tag_4\n      jumpi\n      dup1\n      0x570ca735\n      eq\n      tag_5\n      jumpi\n      dup1\n      0x8da5cb5b\n      eq\n      tag_6\n      jumpi\n    tag_2:\n      0x00\n      dup1\n      revert\n        /* \"contracts/Boost.sol\":45393:45646  function setOperContract(address _oper) public onlyOwner {... */\n    tag_3:\n      tag_7\n      tag_8\n      calldatasize\n      0x04\n      tag_9\n      jump\t// in\n    tag_8:\n      tag_10\n      jump\t// in\n    tag_7:\n      stop\n        /* \"contracts/Boost.sol\":44672:44700  Operatable public operatable */\n    tag_4:\n      sload(0x00)\n      tag_11\n      swap1\n      sub(shl(0xa0, 0x01), 0x01)\n      and\n      dup2\n      jump\n    tag_11:\n      mload(0x40)\n      sub(shl(0xa0, 0x01), 0x01)\n        /* \"#utility.yul\":585:617   */\n      swap1\n      swap2\n      and\n        /* \"#utility.yul\":567:618   */\n      dup2\n      mstore\n        /* \"#utility.yul\":555:557   */\n      0x20\n        /* \"#utility.yul\":540:558   */\n      add\n        /* \"contracts/Boost.sol\":44672:44700  Operatable public operatable */\n      mload(0x40)\n      dup1\n      swap2\n      sub\n      swap1\n      return\n        /* \"contracts/Boost.sol\":45179:45283  function operator() public view override returns (address) {... */\n    tag_5:\n      tag_11\n      tag_16\n      jump\t// in\n        /* \"contracts/Boost.sol\":45289:45387  function owner() public view override returns (address) {... */\n    tag_6:\n      tag_11\n      tag_20\n      jump\t// in\n        /* \"contracts/Boost.sol\":45393:45646  function setOperContract(address _oper) public onlyOwner {... */\n    tag_10:\n        /* \"contracts/Boost.sol\":45086:45096  operatable */\n      sload(0x00)\n        /* \"contracts/Boost.sol\":45086:45104  operatable.owner() */\n      0x40\n      dup1\n      mload\n      shl(0xe0, 0x8da5cb5b)\n      dup2\n      mstore\n      swap1\n      mload\n        /* \"contracts/Boost.sol\":45108:45118  msg.sender */\n      caller\n      swap3\n      sub(shl(0xa0, 0x01), 0x01)\n        /* \"contracts/Boost.sol\":45086:45096  operatable */\n      and\n      swap2\n        /* \"contracts/Boost.sol\":45086:45102  operatable.owner */\n      0x8da5cb5b\n      swap2\n        /* \"contracts/Boost.sol\":45086:45104  operatable.owner() */\n      0x04\n      dup1\n      dup4\n      add\n      swap3\n      0x20\n      swap3\n      swap2\n      swap1\n      dup3\n      swap1\n      sub\n      add\n      dup2\n        /* \"contracts/Boost.sol\":45086:45096  operatable */\n      dup7\n        /* \"contracts/Boost.sol\":45086:45104  operatable.owner() */\n      gas\n      staticcall\n      iszero\n      dup1\n      iszero\n      tag_24\n      jumpi\n      returndatasize\n      0x00\n      dup1\n      returndatacopy\n      revert(0x00, returndatasize)\n    tag_24:\n      pop\n      pop\n      pop\n      pop\n      mload(0x40)\n      returndatasize\n      not(0x1f)\n      0x1f\n      dup3\n      add\n      and\n      dup3\n      add\n      dup1\n      0x40\n      mstore\n      pop\n      dup2\n      add\n      swap1\n      tag_25\n      swap2\n      swap1\n      tag_26\n      jump\t// in\n    tag_25:\n      sub(shl(0xa0, 0x01), 0x01)\n        /* \"contracts/Boost.sol\":45086:45118  operatable.owner() == msg.sender */\n      and\n      eq\n        /* \"contracts/Boost.sol\":45078:45155  require(operatable.owner() == msg.sender, 'Ownable: caller is not the owner') */\n      tag_27\n      jumpi\n      mload(0x40)\n      shl(0xe5, 0x461bcd)\n      dup2\n      mstore\n        /* \"#utility.yul\":1295:1297   */\n      0x20\n        /* \"contracts/Boost.sol\":45078:45155  require(operatable.owner() == msg.sender, 'Ownable: caller is not the owner') */\n      0x04\n      dup3\n      add\n        /* \"#utility.yul\":1277:1298   */\n      dup2\n      swap1\n      mstore\n        /* \"#utility.yul\":1314:1332   */\n      0x24\n      dup3\n      add\n        /* \"#utility.yul\":1307:1337   */\n      mstore\n        /* \"#utility.yul\":1373:1407   */\n      0x4f776e61626c653a2063616c6c6572206973206e6f7420746865206f776e6572\n        /* \"#utility.yul\":1353:1371   */\n      0x44\n      dup3\n      add\n        /* \"#utility.yul\":1346:1408   */\n      mstore\n        /* \"#utility.yul\":1425:1443   */\n      0x64\n      add\n        /* \"contracts/Boost.sol\":45078:45155  require(operatable.owner() == msg.sender, 'Ownable: caller is not the owner') */\n    tag_28:\n      mload(0x40)\n      dup1\n      swap2\n      sub\n      swap1\n      revert\n    tag_27:\n      sub(shl(0xa0, 0x01), 0x01)\n        /* \"contracts/Boost.sol\":45468:45487  _oper != address(0) */\n      dup2\n      and\n        /* \"contracts/Boost.sol\":45460:45508  require(_oper != address(0), 'bad new operator') */\n      tag_31\n      jumpi\n      mload(0x40)\n      shl(0xe5, 0x461bcd)\n      dup2\n      mstore\n        /* \"#utility.yul\":1656:1658   */\n      0x20\n        /* \"contracts/Boost.sol\":45460:45508  require(_oper != address(0), 'bad new operator') */\n      0x04\n      dup3\n      add\n        /* \"#utility.yul\":1638:1659   */\n      mstore\n        /* \"#utility.yul\":1695:1697   */\n      0x10\n        /* \"#utility.yul\":1675:1693   */\n      0x24\n      dup3\n      add\n        /* \"#utility.yul\":1668:1698   */\n      mstore\n      shl(0x81, 0x3130b2103732bb9037b832b930ba37b9)\n        /* \"#utility.yul\":1714:1732   */\n      0x44\n      dup3\n      add\n        /* \"#utility.yul\":1707:1753   */\n      mstore\n        /* \"#utility.yul\":1770:1788   */\n      0x64\n      add\n        /* \"contracts/Boost.sol\":45460:45508  require(_oper != address(0), 'bad new operator') */\n      tag_28\n        /* \"#utility.yul\":1454:1794   */\n      jump\n        /* \"contracts/Boost.sol\":45460:45508  require(_oper != address(0), 'bad new operator') */\n    tag_31:\n        /* \"contracts/Boost.sol\":45518:45537  address oldOperator */\n      0x00\n        /* \"contracts/Boost.sol\":45555:45585  operatable = Operatable(_oper) */\n      dup1\n      sload\n      not(sub(shl(0xa0, 0x01), 0x01))\n      and\n      sub(shl(0xa0, 0x01), 0x01)\n      dup4\n      and\n      swap1\n      dup2\n      or\n      dup3\n      sstore\n        /* \"contracts/Boost.sol\":45600:45639  SetOperatorContract(oldOperator, _oper) */\n      mload(0x40)\n        /* \"contracts/Boost.sol\":45555:45585  operatable = Operatable(_oper) */\n      dup4\n      swap3\n      dup3\n      swap2\n        /* \"contracts/Boost.sol\":45600:45639  SetOperatorContract(oldOperator, _oper) */\n      0x3ccbb406b985dd76fe05e172b432487a2ff9fe4257642d3acc350f167cb1d577\n      swap2\n        /* \"contracts/Boost.sol\":45518:45537  address oldOperator */\n      swap1\n        /* \"contracts/Boost.sol\":45600:45639  SetOperatorContract(oldOperator, _oper) */\n      log3\n        /* \"contracts/Boost.sol\":45450:45646  {... */\n      pop\n        /* \"contracts/Boost.sol\":45393:45646  function setOperContract(address _oper) public onlyOwner {... */\n      pop\n      jump\t// out\n        /* \"contracts/Boost.sol\":45179:45283  function operator() public view override returns (address) {... */\n    tag_16:\n        /* \"contracts/Boost.sol\":45229:45236  address */\n      0x00\n        /* \"contracts/Boost.sol\":45255:45265  operatable */\n      dup1\n      0x00\n      swap1\n      sload\n      swap1\n      0x0100\n      exp\n      swap1\n      div\n      sub(shl(0xa0, 0x01), 0x01)\n      and\n      sub(shl(0xa0, 0x01), 0x01)\n        /* \"contracts/Boost.sol\":45255:45274  operatable.operator */\n      and\n      0x570ca735\n        /* \"contracts/Boost.sol\":45255:45276  operatable.operator() */\n      mload(0x40)\n      dup2\n      0xffffffff\n      and\n      0xe0\n      shl\n      dup2\n      mstore\n      0x04\n      add\n      0x20\n      mload(0x40)\n      dup1\n      dup4\n      sub\n      dup2\n      dup7\n      gas\n      staticcall\n      iszero\n      dup1\n      iszero\n      tag_36\n      jumpi\n      returndatasize\n      0x00\n      dup1\n      returndatacopy\n      revert(0x00, returndatasize)\n    tag_36:\n      pop\n      pop\n      pop\n      pop\n      mload(0x40)\n      returndatasize\n      not(0x1f)\n      0x1f\n      dup3\n      add\n      and\n      dup3\n      add\n      dup1\n      0x40\n      mstore\n      pop\n      dup2\n      add\n      swap1\n      tag_37\n      swap2\n      swap1\n      tag_26\n      jump\t// in\n    tag_37:\n        /* \"contracts/Boost.sol\":45248:45276  return operatable.operator() */\n      swap1\n      pop\n        /* \"contracts/Boost.sol\":45179:45283  function operator() public view override returns (address) {... */\n      swap1\n      jump\t// out\n        /* \"contracts/Boost.sol\":45289:45387  function owner() public view override returns (address) {... */\n    tag_20:\n        /* \"contracts/Boost.sol\":45336:45343  address */\n      0x00\n        /* \"contracts/Boost.sol\":45362:45372  operatable */\n      dup1\n      0x00\n      swap1\n      sload\n      swap1\n      0x0100\n      exp\n      swap1\n      div\n      sub(shl(0xa0, 0x01), 0x01)\n      and\n      sub(shl(0xa0, 0x01), 0x01)\n        /* \"contracts/Boost.sol\":45362:45378  operatable.owner */\n      and\n      0x8da5cb5b\n        /* \"contracts/Boost.sol\":45362:45380  operatable.owner() */\n      mload(0x40)\n      dup2\n      0xffffffff\n      and\n      0xe0\n      shl\n      dup2\n      mstore\n      0x04\n      add\n      0x20\n      mload(0x40)\n      dup1\n      dup4\n      sub\n      dup2\n      dup7\n      gas\n      staticcall\n      iszero\n      dup1\n      iszero\n      tag_36\n      jumpi\n      returndatasize\n      0x00\n      dup1\n      returndatacopy\n      revert(0x00, returndatasize)\n        /* \"#utility.yul\":14:145   */\n    tag_42:\n      sub(shl(0xa0, 0x01), 0x01)\n        /* \"#utility.yul\":89:120   */\n      dup2\n      and\n        /* \"#utility.yul\":79:121   */\n      dup2\n      eq\n        /* \"#utility.yul\":69:139   */\n      tag_45\n      jumpi\n        /* \"#utility.yul\":135:136   */\n      0x00\n        /* \"#utility.yul\":132:133   */\n      dup1\n        /* \"#utility.yul\":125:137   */\n      revert\n        /* \"#utility.yul\":69:139   */\n    tag_45:\n        /* \"#utility.yul\":14:145   */\n      pop\n      jump\t// out\n        /* \"#utility.yul\":150:397   */\n    tag_9:\n        /* \"#utility.yul\":209:215   */\n      0x00\n        /* \"#utility.yul\":262:264   */\n      0x20\n        /* \"#utility.yul\":250:259   */\n      dup3\n        /* \"#utility.yul\":241:248   */\n      dup5\n        /* \"#utility.yul\":237:260   */\n      sub\n        /* \"#utility.yul\":233:265   */\n      slt\n        /* \"#utility.yul\":230:282   */\n      iszero\n      tag_47\n      jumpi\n        /* \"#utility.yul\":278:279   */\n      0x00\n        /* \"#utility.yul\":275:276   */\n      dup1\n        /* \"#utility.yul\":268:280   */\n      revert\n        /* \"#utility.yul\":230:282   */\n    tag_47:\n        /* \"#utility.yul\":317:326   */\n      dup2\n        /* \"#utility.yul\":304:327   */\n      calldataload\n        /* \"#utility.yul\":336:367   */\n      tag_48\n        /* \"#utility.yul\":361:366   */\n      dup2\n        /* \"#utility.yul\":336:367   */\n      tag_42\n      jump\t// in\n    tag_48:\n        /* \"#utility.yul\":386:391   */\n      swap4\n        /* \"#utility.yul\":150:397   */\n      swap3\n      pop\n      pop\n      pop\n      jump\t// out\n        /* \"#utility.yul\":837:1088   */\n    tag_26:\n        /* \"#utility.yul\":907:913   */\n      0x00\n        /* \"#utility.yul\":960:962   */\n      0x20\n        /* \"#utility.yul\":948:957   */\n      dup3\n        /* \"#utility.yul\":939:946   */\n      dup5\n        /* \"#utility.yul\":935:958   */\n      sub\n        /* \"#utility.yul\":931:963   */\n      slt\n        /* \"#utility.yul\":928:980   */\n      iszero\n      tag_52\n      jumpi\n        /* \"#utility.yul\":976:977   */\n      0x00\n        /* \"#utility.yul\":973:974   */\n      dup1\n        /* \"#utility.yul\":966:978   */\n      revert\n        /* \"#utility.yul\":928:980   */\n    tag_52:\n        /* \"#utility.yul\":1008:1017   */\n      dup2\n        /* \"#utility.yul\":1002:1018   */\n      mload\n        /* \"#utility.yul\":1027:1058   */\n      tag_48\n        /* \"#utility.yul\":1052:1057   */\n      dup2\n        /* \"#utility.yul\":1027:1058   */\n      tag_42\n      jump\t// in\n\n    auxdata: 0xa264697066735822122080d39a97af19d6989e98a85c5d7e09466db824231abc299cc23b95569c34dbbc64736f6c634300080a0033\n}\n",
				"bytecode": {
					"linkReferences": {},
					"object": "608060405234801561001057600080fd5b5060405161041e38038061041e83398101604081905261002f9161007d565b600080546001600160a01b0319166001600160a01b03831690811782556040519091907f3ccbb406b985dd76fe05e172b432487a2ff9fe4257642d3acc350f167cb1d577908290a3506100ad565b60006020828403121561008f57600080fd5b81516001600160a01b03811681146100a657600080fd5b9392505050565b610362806100bc6000396000f3fe608060405234801561001057600080fd5b506004361061004c5760003560e01c80630f589d631461005157806348ee26a314610066578063570ca735146100955780638da5cb5b1461009d575b600080fd5b61006461005f3660046102eb565b6100a5565b005b600054610079906001600160a01b031681565b6040516001600160a01b03909116815260200160405180910390f35b610079610202565b61007961027f565b60005460408051638da5cb5b60e01b8152905133926001600160a01b031691638da5cb5b9160048083019260209291908290030181865afa1580156100ee573d6000803e3d6000fd5b505050506040513d601f19601f82011682018060405250810190610112919061030f565b6001600160a01b03161461016d5760405162461bcd60e51b815260206004820181905260248201527f4f776e61626c653a2063616c6c6572206973206e6f7420746865206f776e657260448201526064015b60405180910390fd5b6001600160a01b0381166101b65760405162461bcd60e51b815260206004820152601060248201526f3130b2103732bb9037b832b930ba37b960811b6044820152606401610164565b600080546001600160a01b0319166001600160a01b0383169081178255604051839282917f3ccbb406b985dd76fe05e172b432487a2ff9fe4257642d3acc350f167cb1d5779190a35050565b60008060009054906101000a90046001600160a01b03166001600160a01b031663570ca7356040518163ffffffff1660e01b8152600401602060405180830381865afa158015610256573d6000803e3d6000fd5b505050506040513d601f19601f8201168201806040525081019061027a919061030f565b905090565b60008060009054906101000a90046001600160a01b03166001600160a01b0316638da5cb5b6040518163ffffffff1660e01b8152600401602060405180830381865afa158015610256573d6000803e3d6000fd5b6001600160a01b03811681146102e857600080fd5b50565b6000602082840312156102fd57600080fd5b8135610308816102d3565b9392505050565b60006020828403121561032157600080fd5b8151610308816102d356fea264697066735822122080d39a97af19d6989e98a85c5d7e09466db824231abc299cc23b95569c34dbbc64736f6c634300080a0033",
					"opcodes": "PUSH1 0x80 PUSH1 0x40 MSTORE CALLVALUE DUP1 ISZERO PUSH2 0x10 JUMPI PUSH1 0x0 DUP1 REVERT JUMPDEST POP PUSH1 0x40 MLOAD PUSH2 0x41E CODESIZE SUB DUP1 PUSH2 0x41E DUP4 CODECOPY DUP2 ADD PUSH1 0x40 DUP2 SWAP1 MSTORE PUSH2 0x2F SWAP2 PUSH2 0x7D JUMP JUMPDEST PUSH1 0x0 DUP1 SLOAD PUSH1 0x1 PUSH1 0x1 PUSH1 0xA0 SHL SUB NOT AND PUSH1 0x1 PUSH1 0x1 PUSH1 0xA0 SHL SUB DUP4 AND SWAP1 DUP2 OR DUP3 SSTORE PUSH1 0x40 MLOAD SWAP1 SWAP2 SWAP1 PUSH32 0x3CCBB406B985DD76FE05E172B432487A2FF9FE4257642D3ACC350F167CB1D577 SWAP1 DUP3 SWAP1 LOG3 POP PUSH2 0xAD JUMP JUMPDEST PUSH1 0x0 PUSH1 0x20 DUP3 DUP5 SUB SLT ISZERO PUSH2 0x8F JUMPI PUSH1 0x0 DUP1 REVERT JUMPDEST DUP2 MLOAD PUSH1 0x1 PUSH1 0x1 PUSH1 0xA0 SHL SUB DUP2 AND DUP2 EQ PUSH2 0xA6 JUMPI PUSH1 0x0 DUP1 REVERT JUMPDEST SWAP4 SWAP3 POP POP POP JUMP JUMPDEST PUSH2 0x362 DUP1 PUSH2 0xBC PUSH1 0x0 CODECOPY PUSH1 0x0 RETURN INVALID PUSH1 0x80 PUSH1 0x40 MSTORE CALLVALUE DUP1 ISZERO PUSH2 0x10 JUMPI PUSH1 0x0 DUP1 REVERT JUMPDEST POP PUSH1 0x4 CALLDATASIZE LT PUSH2 0x4C JUMPI PUSH1 0x0 CALLDATALOAD PUSH1 0xE0 SHR DUP1 PUSH4 0xF589D63 EQ PUSH2 0x51 JUMPI DUP1 PUSH4 0x48EE26A3 EQ PUSH2 0x66 JUMPI DUP1 PUSH4 0x570CA735 EQ PUSH2 0x95 JUMPI DUP1 PUSH4 0x8DA5CB5B EQ PUSH2 0x9D JUMPI JUMPDEST PUSH1 0x0 DUP1 REVERT JUMPDEST PUSH2 0x64 PUSH2 0x5F CALLDATASIZE PUSH1 0x4 PUSH2 0x2EB JUMP JUMPDEST PUSH2 0xA5 JUMP JUMPDEST STOP JUMPDEST PUSH1 0x0 SLOAD PUSH2 0x79 SWAP1 PUSH1 0x1 PUSH1 0x1 PUSH1 0xA0 SHL SUB AND DUP2 JUMP JUMPDEST PUSH1 0x40 MLOAD PUSH1 0x1 PUSH1 0x1 PUSH1 0xA0 SHL SUB SWAP1 SWAP2 AND DUP2 MSTORE PUSH1 0x20 ADD PUSH1 0x40 MLOAD DUP1 SWAP2 SUB SWAP1 RETURN JUMPDEST PUSH2 0x79 PUSH2 0x202 JUMP JUMPDEST PUSH2 0x79 PUSH2 0x27F JUMP JUMPDEST PUSH1 0x0 SLOAD PUSH1 0x40 DUP1 MLOAD PUSH4 0x8DA5CB5B PUSH1 0xE0 SHL DUP2 MSTORE SWAP1 MLOAD CALLER SWAP3 PUSH1 0x1 PUSH1 0x1 PUSH1 0xA0 SHL SUB AND SWAP2 PUSH4 0x8DA5CB5B SWAP2 PUSH1 0x4 DUP1 DUP4 ADD SWAP3 PUSH1 0x20 SWAP3 SWAP2 SWAP1 DUP3 SWAP1 SUB ADD DUP2 DUP7 GAS STATICCALL ISZERO DUP1 ISZERO PUSH2 0xEE JUMPI RETURNDATASIZE PUSH1 0x0 DUP1 RETURNDATACOPY RETURNDATASIZE PUSH1 0x0 REVERT JUMPDEST POP POP POP POP PUSH1 0x40 MLOAD RETURNDATASIZE PUSH1 0x1F NOT PUSH1 0x1F DUP3 ADD AND DUP3 ADD DUP1 PUSH1 0x40 MSTORE POP DUP2 ADD SWAP1 PUSH2 0x112 SWAP2 SWAP1 PUSH2 0x30F JUMP JUMPDEST PUSH1 0x1 PUSH1 0x1 PUSH1 0xA0 SHL SUB AND EQ PUSH2 0x16D JUMPI PUSH1 0x40 MLOAD PUSH3 0x461BCD PUSH1 0xE5 SHL DUP2 MSTORE PUSH1 0x20 PUSH1 0x4 DUP3 ADD DUP2 SWAP1 MSTORE PUSH1 0x24 DUP3 ADD MSTORE PUSH32 0x4F776E61626C653A2063616C6C6572206973206E6F7420746865206F776E6572 PUSH1 0x44 DUP3 ADD MSTORE PUSH1 0x64 ADD JUMPDEST PUSH1 0x40 MLOAD DUP1 SWAP2 SUB SWAP1 REVERT JUMPDEST PUSH1 0x1 PUSH1 0x1 PUSH1 0xA0 SHL SUB DUP2 AND PUSH2 0x1B6 JUMPI PUSH1 0x40 MLOAD PUSH3 0x461BCD PUSH1 0xE5 SHL DUP2 MSTORE PUSH1 0x20 PUSH1 0x4 DUP3 ADD MSTORE PUSH1 0x10 PUSH1 0x24 DUP3 ADD MSTORE PUSH16 0x3130B2103732BB9037B832B930BA37B9 PUSH1 0x81 SHL PUSH1 0x44 DUP3 ADD MSTORE PUSH1 0x64 ADD PUSH2 0x164 JUMP JUMPDEST PUSH1 0x0 DUP1 SLOAD PUSH1 0x1 PUSH1 0x1 PUSH1 0xA0 SHL SUB NOT AND PUSH1 0x1 PUSH1 0x1 PUSH1 0xA0 SHL SUB DUP4 AND SWAP1 DUP2 OR DUP3 SSTORE PUSH1 0x40 MLOAD DUP4 SWAP3 DUP3 SWAP2 PUSH32 0x3CCBB406B985DD76FE05E172B432487A2FF9FE4257642D3ACC350F167CB1D577 SWAP2 SWAP1 LOG3 POP POP JUMP JUMPDEST PUSH1 0x0 DUP1 PUSH1 0x0 SWAP1 SLOAD SWAP1 PUSH2 0x100 EXP SWAP1 DIV PUSH1 0x1 PUSH1 0x1 PUSH1 0xA0 SHL SUB AND PUSH1 0x1 PUSH1 0x1 PUSH1 0xA0 SHL SUB AND PUSH4 0x570CA735 PUSH1 0x40 MLOAD DUP2 PUSH4 0xFFFFFFFF AND PUSH1 0xE0 SHL DUP2 MSTORE PUSH1 0x4 ADD PUSH1 0x20 PUSH1 0x40 MLOAD DUP1 DUP4 SUB DUP2 DUP7 GAS STATICCALL ISZERO DUP1 ISZERO PUSH2 0x256 JUMPI RETURNDATASIZE PUSH1 0x0 DUP1 RETURNDATACOPY RETURNDATASIZE PUSH1 0x0 REVERT JUMPDEST POP POP POP POP PUSH1 0x40 MLOAD RETURNDATASIZE PUSH1 0x1F NOT PUSH1 0x1F DUP3 ADD AND DUP3 ADD DUP1 PUSH1 0x40 MSTORE POP DUP2 ADD SWAP1 PUSH2 0x27A SWAP2 SWAP1 PUSH2 0x30F JUMP JUMPDEST SWAP1 POP SWAP1 JUMP JUMPDEST PUSH1 0x0 DUP1 PUSH1 0x0 SWAP1 SLOAD SWAP1 PUSH2 0x100 EXP SWAP1 DIV PUSH1 0x1 PUSH1 0x1 PUSH1 0xA0 SHL SUB AND PUSH1 0x1 PUSH1 0x1 PUSH1 0xA0 SHL SUB AND PUSH4 0x8DA5CB5B PUSH1 0x40 MLOAD DUP2 PUSH4 0xFFFFFFFF AND PUSH1 0xE0 SHL DUP2 MSTORE PUSH1 0x4 ADD PUSH1 0x20 PUSH1 0x40 MLOAD DUP1 DUP4 SUB DUP2 DUP7 GAS STATICCALL ISZERO DUP1 ISZERO PUSH2 0x256 JUMPI RETURNDATASIZE PUSH1 0x0 DUP1 RETURNDATACOPY RETURNDATASIZE PUSH1 0x0 REVERT JUMPDEST PUSH1 0x1 PUSH1 0x1 PUSH1 0xA0 SHL SUB DUP2 AND DUP2 EQ PUSH2 0x2E8 JUMPI PUSH1 0x0 DUP1 REVERT JUMPDEST POP JUMP JUMPDEST PUSH1 0x0 PUSH1 0x20 DUP3 DUP5 SUB SLT ISZERO PUSH2 0x2FD JUMPI PUSH1 0x0 DUP1 REVERT JUMPDEST DUP2 CALLDATALOAD PUSH2 0x308 DUP2 PUSH2 0x2D3 JUMP JUMPDEST SWAP4 SWAP3 POP POP POP JUMP JUMPDEST PUSH1 0x0 PUSH1 0x20 DUP3 DUP5 SUB SLT ISZERO PUSH2 0x321 JUMPI PUSH1 0x0 DUP1 REVERT JUMPDEST DUP2 MLOAD PUSH2 0x308 DUP2 PUSH2 0x2D3 JUMP INVALID LOG2 PUSH5 0x6970667358 0x22 SLT KECCAK256 DUP1 0xD3 SWAP11 SWAP8 0xAF NOT 0xD6 SWAP9 SWAP15 SWAP9 0xA8 0x5C 0x5D PUSH31 0x9466DB824231ABC299CC23B95569C34DBBC64736F6C634300080A00330000 "
				},
				"gasEstimates": {
					"creation": {
						"codeDepositCost": "173200",
						"executionCost": "infinite",
						"totalCost": "infinite"
					},
					"external": {
						"operatable()": "2325",
						"operator()": "infinite",
						"owner()": "infinite",
						"setOperContract(address)": "infinite"
					}
				},
				"methodIdentifiers": {
					"operatable()": "48ee26a3",
					"operator()": "570ca735",
					"owner()": "8da5cb5b",
					"setOperContract(address)": "0f589d63"
				}
			},
			"storageLayout": {
				"storage": [
					{
						"astId": 2042,
						"contract": "contracts/Boost.sol:CheckOper",
						"label": "operatable",
						"offset": 0,
						"slot": "0",
						"type": "t_contract(Operatable)2024"
					}
				],
				"types": {
					"t_contract(Operatable)2024": {
						"encoding": "inplace",
						"label": "contract Operatable",
						"numberOfBytes": "20"
					}
				}
			},
			"userdoc": {
				"kind": "user",
				"methods": {},
				"version": 1
			}
		}
	}
}