{
	"contracts/Gauge.sol": {
		"Gauge": {
			"abi": [
				{
					"inputs": [
						{
							"internalType": "address",
							"name": "_stake",
							"type": "address"
						},
						{
							"internalType": "address",
							"name": "__ve",
							"type": "address"
						},
						{
							"internalType": "address",
							"name": "_boost",
							"type": "address"
						},
						{
							"internalType": "address",
							"name": "_rewardToken",
							"type": "address"
						}
					],
					"stateMutability": "nonpayable",
					"type": "constructor"
				},
				{
					"anonymous": false,
					"inputs": [
						{
							"indexed": true,
							"internalType": "address",
							"name": "from",
							"type": "address"
						},
						{
							"indexed": true,
							"internalType": "address",
							"name": "reward",
							"type": "address"
						},
						{
							"indexed": false,
							"internalType": "uint256",
							"name": "amount",
							"type": "uint256"
						}
					],
					"name": "ClaimRewards",
					"type": "event"
				},
				{
					"anonymous": false,
					"inputs": [
						{
							"indexed": true,
							"internalType": "address",
							"name": "from",
							"type": "address"
						},
						{
							"indexed": false,
							"internalType": "uint256",
							"name": "tokenId",
							"type": "uint256"
						},
						{
							"indexed": false,
							"internalType": "uint256",
							"name": "amount",
							"type": "uint256"
						}
					],
					"name": "Deposit",
					"type": "event"
				},
				{
					"anonymous": false,
					"inputs": [
						{
							"indexed": true,
							"internalType": "address",
							"name": "from",
							"type": "address"
						},
						{
							"indexed": true,
							"internalType": "address",
							"name": "reward",
							"type": "address"
						},
						{
							"indexed": false,
							"internalType": "uint256",
							"name": "rewardRate",
							"type": "uint256"
						}
					],
					"name": "NotifyReward",
					"type": "event"
				},
				{
					"anonymous": false,
					"inputs": [
						{
							"indexed": true,
							"internalType": "address",
							"name": "from",
							"type": "address"
						},
						{
							"indexed": false,
							"internalType": "uint256",
							"name": "tokenId",
							"type": "uint256"
						},
						{
							"indexed": false,
							"internalType": "uint256",
							"name": "amount",
							"type": "uint256"
						}
					],
					"name": "Withdraw",
					"type": "event"
				},
				{
					"inputs": [],
					"name": "accTokenPerShare",
					"outputs": [
						{
							"internalType": "uint256",
							"name": "",
							"type": "uint256"
						}
					],
					"stateMutability": "view",
					"type": "function"
				},
				{
					"inputs": [],
					"name": "boost",
					"outputs": [
						{
							"internalType": "address",
							"name": "",
							"type": "address"
						}
					],
					"stateMutability": "view",
					"type": "function"
				},
				{
					"inputs": [
						{
							"internalType": "uint256",
							"name": "amount",
							"type": "uint256"
						},
						{
							"internalType": "uint256",
							"name": "tokenId",
							"type": "uint256"
						}
					],
					"name": "deposit",
					"outputs": [],
					"stateMutability": "nonpayable",
					"type": "function"
				},
				{
					"inputs": [
						{
							"internalType": "uint256",
							"name": "tokenId",
							"type": "uint256"
						}
					],
					"name": "depositAll",
					"outputs": [],
					"stateMutability": "nonpayable",
					"type": "function"
				},
				{
					"inputs": [
						{
							"internalType": "address",
							"name": "account",
							"type": "address"
						},
						{
							"internalType": "uint256",
							"name": "_balance",
							"type": "uint256"
						}
					],
					"name": "derivedBalance",
					"outputs": [
						{
							"internalType": "uint256",
							"name": "",
							"type": "uint256"
						}
					],
					"stateMutability": "view",
					"type": "function"
				},
				{
					"inputs": [
						{
							"internalType": "address",
							"name": "account",
							"type": "address"
						}
					],
					"name": "getReward",
					"outputs": [],
					"stateMutability": "nonpayable",
					"type": "function"
				},
				{
					"inputs": [],
					"name": "lastRewardBlock",
					"outputs": [
						{
							"internalType": "uint256",
							"name": "",
							"type": "uint256"
						}
					],
					"stateMutability": "view",
					"type": "function"
				},
				{
					"inputs": [
						{
							"internalType": "address",
							"name": "token",
							"type": "address"
						},
						{
							"internalType": "uint256",
							"name": "_rewardRate",
							"type": "uint256"
						}
					],
					"name": "notifyRewardAmount",
					"outputs": [],
					"stateMutability": "nonpayable",
					"type": "function"
				},
				{
					"inputs": [
						{
							"internalType": "address",
							"name": "_user",
							"type": "address"
						}
					],
					"name": "pending",
					"outputs": [
						{
							"internalType": "uint256",
							"name": "",
							"type": "uint256"
						}
					],
					"stateMutability": "view",
					"type": "function"
				},
				{
					"inputs": [
						{
							"internalType": "address",
							"name": "_user",
							"type": "address"
						}
					],
					"name": "pendingMax",
					"outputs": [
						{
							"internalType": "uint256",
							"name": "",
							"type": "uint256"
						}
					],
					"stateMutability": "view",
					"type": "function"
				},
				{
					"inputs": [],
					"name": "rewardToken",
					"outputs": [
						{
							"internalType": "address",
							"name": "",
							"type": "address"
						}
					],
					"stateMutability": "view",
					"type": "function"
				},
				{
					"inputs": [],
					"name": "stake",
					"outputs": [
						{
							"internalType": "address",
							"name": "",
							"type": "address"
						}
					],
					"stateMutability": "view",
					"type": "function"
				},
				{
					"inputs": [
						{
							"internalType": "address",
							"name": "",
							"type": "address"
						}
					],
					"name": "tokenIds",
					"outputs": [
						{
							"internalType": "uint256",
							"name": "",
							"type": "uint256"
						}
					],
					"stateMutability": "view",
					"type": "function"
				},
				{
					"inputs": [],
					"name": "tokenPerBlock",
					"outputs": [
						{
							"internalType": "uint256",
							"name": "",
							"type": "uint256"
						}
					],
					"stateMutability": "view",
					"type": "function"
				},
				{
					"inputs": [],
					"name": "totalSupply",
					"outputs": [
						{
							"internalType": "uint256",
							"name": "",
							"type": "uint256"
						}
					],
					"stateMutability": "view",
					"type": "function"
				},
				{
					"inputs": [],
					"name": "updatePool",
					"outputs": [],
					"stateMutability": "nonpayable",
					"type": "function"
				},
				{
					"inputs": [
						{
							"internalType": "address",
							"name": "",
							"type": "address"
						}
					],
					"name": "userInfo",
					"outputs": [
						{
							"internalType": "uint256",
							"name": "amount",
							"type": "uint256"
						},
						{
							"internalType": "uint256",
							"name": "rewardDebt",
							"type": "uint256"
						}
					],
					"stateMutability": "view",
					"type": "function"
				},
				{
					"inputs": [],
					"name": "veToken",
					"outputs": [
						{
							"internalType": "address",
							"name": "",
							"type": "address"
						}
					],
					"stateMutability": "view",
					"type": "function"
				},
				{
					"inputs": [
						{
							"internalType": "uint256",
							"name": "amount",
							"type": "uint256"
						}
					],
					"name": "withdraw",
					"outputs": [],
					"stateMutability": "nonpayable",
					"type": "function"
				},
				{
					"inputs": [],
					"name": "withdrawAll",
					"outputs": [],
					"stateMutability": "nonpayable",
					"type": "function"
				},
				{
					"inputs": [
						{
							"internalType": "uint256",
							"name": "_amount",
							"type": "uint256"
						},
						{
							"internalType": "uint256",
							"name": "tokenId",
							"type": "uint256"
						}
					],
					"name": "withdrawToken",
					"outputs": [],
					"stateMutability": "nonpayable",
					"type": "function"
				}
			],
			"devdoc": {
				"kind": "dev",
				"methods": {},
				"version": 1
			},
			"evm": {
				"assembly": "    /* \"contracts/Gauge.sol\":16315:24265  contract Gauge is ReentrancyGuard {... */\n  mstore(0x40, 0x0100)\n    /* \"contracts/Gauge.sol\":17497:17692  constructor(address _stake, address __ve, address _boost, address _rewardToken) {... */\n  callvalue\n  dup1\n  iszero\n  tag_1\n  jumpi\n  0x00\n  dup1\n  revert\ntag_1:\n  pop\n  mload(0x40)\n  sub(codesize, bytecodeSize)\n  dup1\n  bytecodeSize\n  dup4\n  codecopy\n  dup2\n  add\n  0x40\n  dup2\n  swap1\n  mstore\n  tag_2\n  swap2\n  tag_3\n  jump\t// in\ntag_2:\n    /* \"contracts/Gauge.sol\":3090:3091  1 */\n  0x01\n    /* \"contracts/Gauge.sol\":3195:3202  _status */\n  0x00\n    /* \"contracts/Gauge.sol\":3195:3217  _status = _NOT_ENTERED */\n  sstore\n  sub(shl(0xa0, 0x01), 0x01)\n    /* \"contracts/Gauge.sol\":17587:17601  stake = _stake */\n  swap4\n  dup5\n  and\n  0x80\n  mstore\n    /* \"contracts/Gauge.sol\":17611:17625  veToken = __ve */\n  swap2\n  dup4\n  and\n  0xa0\n  mstore\n    /* \"contracts/Gauge.sol\":17635:17649  boost = _boost */\n  dup3\n  and\n  0xc0\n  mstore\n    /* \"contracts/Gauge.sol\":17659:17685  rewardToken = _rewardToken */\n  and\n  0xe0\n  mstore\n    /* \"contracts/Gauge.sol\":16315:24265  contract Gauge is ReentrancyGuard {... */\n  jump(tag_10)\n    /* \"#utility.yul\":14:191   */\ntag_9:\n    /* \"#utility.yul\":93:106   */\n  dup1\n  mload\n  sub(shl(0xa0, 0x01), 0x01)\n    /* \"#utility.yul\":135:166   */\n  dup2\n  and\n    /* \"#utility.yul\":125:167   */\n  dup2\n  eq\n    /* \"#utility.yul\":115:185   */\n  tag_12\n  jumpi\n    /* \"#utility.yul\":181:182   */\n  0x00\n    /* \"#utility.yul\":178:179   */\n  dup1\n    /* \"#utility.yul\":171:183   */\n  revert\n    /* \"#utility.yul\":115:185   */\ntag_12:\n    /* \"#utility.yul\":14:191   */\n  swap2\n  swap1\n  pop\n  jump\t// out\n    /* \"#utility.yul\":196:660   */\ntag_3:\n    /* \"#utility.yul\":293:299   */\n  0x00\n    /* \"#utility.yul\":301:307   */\n  dup1\n    /* \"#utility.yul\":309:315   */\n  0x00\n    /* \"#utility.yul\":317:323   */\n  dup1\n    /* \"#utility.yul\":370:373   */\n  0x80\n    /* \"#utility.yul\":358:367   */\n  dup6\n    /* \"#utility.yul\":349:356   */\n  dup8\n    /* \"#utility.yul\":345:368   */\n  sub\n    /* \"#utility.yul\":341:374   */\n  slt\n    /* \"#utility.yul\":338:391   */\n  iszero\n  tag_14\n  jumpi\n    /* \"#utility.yul\":387:388   */\n  0x00\n    /* \"#utility.yul\":384:385   */\n  dup1\n    /* \"#utility.yul\":377:389   */\n  revert\n    /* \"#utility.yul\":338:391   */\ntag_14:\n    /* \"#utility.yul\":410:450   */\n  tag_15\n    /* \"#utility.yul\":440:449   */\n  dup6\n    /* \"#utility.yul\":410:450   */\n  tag_9\n  jump\t// in\ntag_15:\n    /* \"#utility.yul\":400:450   */\n  swap4\n  pop\n    /* \"#utility.yul\":469:518   */\n  tag_16\n    /* \"#utility.yul\":514:516   */\n  0x20\n    /* \"#utility.yul\":503:512   */\n  dup7\n    /* \"#utility.yul\":499:517   */\n  add\n    /* \"#utility.yul\":469:518   */\n  tag_9\n  jump\t// in\ntag_16:\n    /* \"#utility.yul\":459:518   */\n  swap3\n  pop\n    /* \"#utility.yul\":537:586   */\n  tag_17\n    /* \"#utility.yul\":582:584   */\n  0x40\n    /* \"#utility.yul\":571:580   */\n  dup7\n    /* \"#utility.yul\":567:585   */\n  add\n    /* \"#utility.yul\":537:586   */\n  tag_9\n  jump\t// in\ntag_17:\n    /* \"#utility.yul\":527:586   */\n  swap2\n  pop\n    /* \"#utility.yul\":605:654   */\n  tag_18\n    /* \"#utility.yul\":650:652   */\n  0x60\n    /* \"#utility.yul\":639:648   */\n  dup7\n    /* \"#utility.yul\":635:653   */\n  add\n    /* \"#utility.yul\":605:654   */\n  tag_9\n  jump\t// in\ntag_18:\n    /* \"#utility.yul\":595:654   */\n  swap1\n  pop\n    /* \"#utility.yul\":196:660   */\n  swap3\n  swap6\n  swap2\n  swap5\n  pop\n  swap3\n  pop\n  jump\t// out\ntag_10:\n    /* \"contracts/Gauge.sol\":16315:24265  contract Gauge is ReentrancyGuard {... */\n  mload(0x80)\n  mload(0xa0)\n  mload(0xc0)\n  mload(0xe0)\n  codecopy(0x00, dataOffset(sub_0), dataSize(sub_0))\n  0x00\n  assignImmutable(\"0x51432b6f6ffff9c0d91073ef7f23a4f639ef505c3fc71bae7794b27877f54eff\")\n  0x00\n  assignImmutable(\"0xba317e1d5aa05b5861702d06e2202816a8a6452d32b68558d200060c06eac391\")\n  0x00\n  assignImmutable(\"0xeae3a40291c102cf85748609ff9046ea32530afca3ce058bd94a667258369fd6\")\n  0x00\n  assignImmutable(\"0x6d7e9d25f7937a025d098651c32892e1256b8f7bcedf36aadd28cccf92a5a08d\")\n  return(0x00, dataSize(sub_0))\nstop\n\nsub_0: assembly {\n        /* \"contracts/Gauge.sol\":16315:24265  contract Gauge is ReentrancyGuard {... */\n      mstore(0x40, 0x80)\n      callvalue\n      dup1\n      iszero\n      tag_1\n      jumpi\n      0x00\n      dup1\n      revert\n    tag_1:\n      pop\n      jumpi(tag_2, lt(calldatasize, 0x04))\n      shr(0xe0, calldataload(0x00))\n      dup1\n      0xa66f42c0\n      gt\n      tag_24\n      jumpi\n      dup1\n      0xc73b399b\n      gt\n      tag_25\n      jumpi\n      dup1\n      0xc73b399b\n      eq\n      tag_18\n      jumpi\n      dup1\n      0xe2bbb158\n      eq\n      tag_19\n      jumpi\n      dup1\n      0xe3161ddd\n      eq\n      tag_20\n      jumpi\n      dup1\n      0xf7c618c1\n      eq\n      tag_21\n      jumpi\n      dup1\n      0xfc97a303\n      eq\n      tag_22\n      jumpi\n      dup1\n      0xfdb483c7\n      eq\n      tag_23\n      jumpi\n      0x00\n      dup1\n      revert\n    tag_25:\n      dup1\n      0xa66f42c0\n      eq\n      tag_13\n      jumpi\n      dup1\n      0xa9f8d181\n      eq\n      tag_14\n      jumpi\n      dup1\n      0xb66503cf\n      eq\n      tag_15\n      jumpi\n      dup1\n      0xc00007b0\n      eq\n      tag_16\n      jumpi\n      dup1\n      0xc6f678bd\n      eq\n      tag_17\n      jumpi\n      0x00\n      dup1\n      revert\n    tag_24:\n      dup1\n      0x4198709a\n      gt\n      tag_26\n      jumpi\n      dup1\n      0x4198709a\n      eq\n      tag_8\n      jumpi\n      dup1\n      0x5eebea20\n      eq\n      tag_9\n      jumpi\n      dup1\n      0x853828b6\n      eq\n      tag_10\n      jumpi\n      dup1\n      0x892f4805\n      eq\n      tag_11\n      jumpi\n      dup1\n      0x8f662915\n      eq\n      tag_12\n      jumpi\n      0x00\n      dup1\n      revert\n    tag_26:\n      dup1\n      0x18160ddd\n      eq\n      tag_3\n      jumpi\n      dup1\n      0x1959a002\n      eq\n      tag_4\n      jumpi\n      dup1\n      0x2e1a7d4d\n      eq\n      tag_5\n      jumpi\n      dup1\n      0x3a4b66f1\n      eq\n      tag_6\n      jumpi\n      dup1\n      0x3b92eb23\n      eq\n      tag_7\n      jumpi\n    tag_2:\n      0x00\n      dup1\n      revert\n        /* \"contracts/Gauge.sol\":17416:17439  uint public totalSupply */\n    tag_3:\n      tag_27\n      sload(0x05)\n      dup2\n      jump\n    tag_27:\n      mload(0x40)\n        /* \"#utility.yul\":160:185   */\n      swap1\n      dup2\n      mstore\n        /* \"#utility.yul\":148:150   */\n      0x20\n        /* \"#utility.yul\":133:151   */\n      add\n        /* \"contracts/Gauge.sol\":17416:17439  uint public totalSupply */\n    tag_29:\n      mload(0x40)\n      dup1\n      swap2\n      sub\n      swap1\n      return\n        /* \"contracts/Gauge.sol\":17446:17490  mapping(address => UserInfo) public userInfo */\n    tag_4:\n      tag_31\n      tag_32\n      calldatasize\n      0x04\n      tag_33\n      jump\t// in\n    tag_32:\n      mstore(0x20, 0x06)\n      0x00\n      swap1\n      dup2\n      mstore\n      0x40\n      swap1\n      keccak256\n      dup1\n      sload\n      0x01\n      swap1\n      swap2\n      add\n      sload\n      dup3\n      jump\n    tag_31:\n      0x40\n      dup1\n      mload\n        /* \"#utility.yul\":758:783   */\n      swap3\n      dup4\n      mstore\n        /* \"#utility.yul\":814:816   */\n      0x20\n        /* \"#utility.yul\":799:817   */\n      dup4\n      add\n        /* \"#utility.yul\":792:826   */\n      swap2\n      swap1\n      swap2\n      mstore\n        /* \"#utility.yul\":731:749   */\n      add\n        /* \"contracts/Gauge.sol\":17446:17490  mapping(address => UserInfo) public userInfo */\n      tag_29\n        /* \"#utility.yul\":584:832   */\n      jump\n        /* \"contracts/Gauge.sol\":21031:21249  function withdraw(uint amount) public {... */\n    tag_5:\n      tag_37\n      tag_38\n      calldatasize\n      0x04\n      tag_39\n      jump\t// in\n    tag_38:\n      tag_40\n      jump\t// in\n    tag_37:\n      stop\n        /* \"contracts/Gauge.sol\":16869:16899  address public immutable stake */\n    tag_6:\n      tag_41\n      immutable(\"0x6d7e9d25f7937a025d098651c32892e1256b8f7bcedf36aadd28cccf92a5a08d\")\n      dup2\n      jump\n    tag_41:\n      mload(0x40)\n      sub(shl(0xa0, 0x01), 0x01)\n        /* \"#utility.yul\":1186:1218   */\n      swap1\n      swap2\n      and\n        /* \"#utility.yul\":1168:1219   */\n      dup2\n      mstore\n        /* \"#utility.yul\":1156:1158   */\n      0x20\n        /* \"#utility.yul\":1141:1159   */\n      add\n        /* \"contracts/Gauge.sol\":16869:16899  address public immutable stake */\n      tag_29\n        /* \"#utility.yul\":1022:1225   */\n      jump\n        /* \"contracts/Gauge.sol\":16957:16989  address public immutable veToken */\n    tag_7:\n      tag_41\n      immutable(\"0xeae3a40291c102cf85748609ff9046ea32530afca3ce058bd94a667258369fd6\")\n      dup2\n      jump\n        /* \"contracts/Gauge.sol\":17201:17229  uint256 public tokenPerBlock */\n    tag_8:\n      tag_27\n      sload(0x02)\n      dup2\n      jump\n        /* \"contracts/Gauge.sol\":23544:23702  function pending(address _user) public view returns (uint256){... */\n    tag_9:\n      tag_27\n      tag_52\n      calldatasize\n      0x04\n      tag_33\n      jump\t// in\n    tag_52:\n      tag_53\n      jump\t// in\n        /* \"contracts/Gauge.sol\":20939:21025  function withdrawAll() external {... */\n    tag_10:\n      tag_37\n      tag_56\n      jump\t// in\n        /* \"contracts/Gauge.sol\":19017:19727  function derivedBalance(address account, uint _balance) public view returns (uint) {... */\n    tag_11:\n      tag_27\n      tag_58\n      calldatasize\n      0x04\n      tag_59\n      jump\t// in\n    tag_58:\n      tag_60\n      jump\t// in\n        /* \"contracts/Gauge.sol\":17235:17266  uint256 public accTokenPerShare */\n    tag_12:\n      tag_27\n      sload(0x03)\n      dup2\n      jump\n        /* \"contracts/Gauge.sol\":17027:17057  address public immutable boost */\n    tag_13:\n      tag_41\n      immutable(\"0xba317e1d5aa05b5861702d06e2202816a8a6452d32b68558d200060c06eac391\")\n      dup2\n      jump\n        /* \"contracts/Gauge.sol\":17321:17351  uint256 public lastRewardBlock */\n    tag_14:\n      tag_27\n      sload(0x04)\n      dup2\n      jump\n        /* \"contracts/Gauge.sol\":23709:24262  function notifyRewardAmount(address token, uint _rewardRate) external onlyBoost {... */\n    tag_15:\n      tag_37\n      tag_72\n      calldatasize\n      0x04\n      tag_59\n      jump\t// in\n    tag_72:\n      tag_73\n      jump\t// in\n        /* \"contracts/Gauge.sol\":18454:19011  function getReward(address account) external nonReentrant {... */\n    tag_16:\n      tag_37\n      tag_75\n      calldatasize\n      0x04\n      tag_33\n      jump\t// in\n    tag_75:\n      tag_76\n      jump\t// in\n        /* \"contracts/Gauge.sol\":19734:19847  function depositAll(uint tokenId) external {... */\n    tag_17:\n      tag_37\n      tag_78\n      calldatasize\n      0x04\n      tag_39\n      jump\t// in\n    tag_78:\n      tag_79\n      jump\t// in\n        /* \"contracts/Gauge.sol\":22771:23538  function pendingMax(address _user) public view returns (uint256){... */\n    tag_18:\n      tag_27\n      tag_81\n      calldatasize\n      0x04\n      tag_33\n      jump\t// in\n    tag_81:\n      tag_82\n      jump\t// in\n        /* \"contracts/Gauge.sol\":19853:20933  function deposit(uint amount, uint tokenId) public nonReentrant {... */\n    tag_19:\n      tag_37\n      tag_85\n      calldatasize\n      0x04\n      tag_86\n      jump\t// in\n    tag_85:\n      tag_87\n      jump\t// in\n        /* \"contracts/Gauge.sol\":22179:22704  function updatePool() public {... */\n    tag_20:\n      tag_37\n      tag_89\n      jump\t// in\n        /* \"contracts/Gauge.sol\":17063:17099  address public immutable rewardToken */\n    tag_21:\n      tag_41\n      immutable(\"0x51432b6f6ffff9c0d91073ef7f23a4f639ef505c3fc71bae7794b27877f54eff\")\n      dup2\n      jump\n        /* \"contracts/Gauge.sol\":17154:17194  mapping(address => uint) public tokenIds */\n    tag_22:\n      tag_27\n      tag_94\n      calldatasize\n      0x04\n      tag_33\n      jump\t// in\n    tag_94:\n      mstore(0x20, 0x01)\n      0x00\n      swap1\n      dup2\n      mstore\n      0x40\n      swap1\n      keccak256\n      sload\n      dup2\n      jump\n        /* \"contracts/Gauge.sol\":21255:22173  function withdrawToken(uint _amount, uint tokenId) public nonReentrant {... */\n    tag_23:\n      tag_37\n      tag_98\n      calldatasize\n      0x04\n      tag_86\n      jump\t// in\n    tag_98:\n      tag_99\n      jump\t// in\n        /* \"contracts/Gauge.sol\":21031:21249  function withdraw(uint amount) public {... */\n    tag_40:\n        /* \"contracts/Gauge.sol\":21128:21138  msg.sender */\n      caller\n        /* \"contracts/Gauge.sol\":21079:21091  uint tokenId */\n      0x00\n        /* \"contracts/Gauge.sol\":21119:21139  userInfo[msg.sender] */\n      swap1\n      dup2\n      mstore\n        /* \"contracts/Gauge.sol\":21119:21127  userInfo */\n      0x06\n        /* \"contracts/Gauge.sol\":21119:21139  userInfo[msg.sender] */\n      0x20\n      mstore\n      0x40\n      dup2\n      keccak256\n        /* \"contracts/Gauge.sol\":21119:21146  userInfo[msg.sender].amount */\n      sload\n        /* \"contracts/Gauge.sol\":21109:21146  amount == userInfo[msg.sender].amount */\n      dup3\n      eq\n        /* \"contracts/Gauge.sol\":21105:21203  if (amount == userInfo[msg.sender].amount) {... */\n      iszero\n      tag_101\n      jumpi\n      pop\n        /* \"contracts/Gauge.sol\":21181:21191  msg.sender */\n      caller\n        /* \"contracts/Gauge.sol\":21172:21192  tokenIds[msg.sender] */\n      0x00\n      swap1\n      dup2\n      mstore\n        /* \"contracts/Gauge.sol\":21172:21180  tokenIds */\n      0x01\n        /* \"contracts/Gauge.sol\":21172:21192  tokenIds[msg.sender] */\n      0x20\n      mstore\n      0x40\n      swap1\n      keccak256\n      sload\n        /* \"contracts/Gauge.sol\":21105:21203  if (amount == userInfo[msg.sender].amount) {... */\n    tag_101:\n        /* \"contracts/Gauge.sol\":21212:21242  withdrawToken(amount, tokenId) */\n      tag_102\n        /* \"contracts/Gauge.sol\":21226:21232  amount */\n      dup3\n        /* \"contracts/Gauge.sol\":21234:21241  tokenId */\n      dup3\n        /* \"contracts/Gauge.sol\":21212:21225  withdrawToken */\n      tag_99\n        /* \"contracts/Gauge.sol\":21212:21242  withdrawToken(amount, tokenId) */\n      jump\t// in\n    tag_102:\n        /* \"contracts/Gauge.sol\":21069:21249  {... */\n      pop\n        /* \"contracts/Gauge.sol\":21031:21249  function withdraw(uint amount) public {... */\n      pop\n      jump\t// out\n        /* \"contracts/Gauge.sol\":23544:23702  function pending(address _user) public view returns (uint256){... */\n    tag_53:\n        /* \"contracts/Gauge.sol\":23597:23604  uint256 */\n      0x00\n        /* \"contracts/Gauge.sol\":23615:23629  uint256 amount */\n      dup1\n        /* \"contracts/Gauge.sol\":23632:23649  pendingMax(_user) */\n      tag_104\n        /* \"contracts/Gauge.sol\":23643:23648  _user */\n      dup4\n        /* \"contracts/Gauge.sol\":23632:23642  pendingMax */\n      tag_82\n        /* \"contracts/Gauge.sol\":23632:23649  pendingMax(_user) */\n      jump\t// in\n    tag_104:\n        /* \"contracts/Gauge.sol\":23615:23649  uint256 amount = pendingMax(_user) */\n      swap1\n      pop\n        /* \"contracts/Gauge.sol\":23666:23695  derivedBalance(_user, amount) */\n      tag_105\n        /* \"contracts/Gauge.sol\":23681:23686  _user */\n      dup4\n        /* \"contracts/Gauge.sol\":23688:23694  amount */\n      dup3\n        /* \"contracts/Gauge.sol\":23666:23680  derivedBalance */\n      tag_60\n        /* \"contracts/Gauge.sol\":23666:23695  derivedBalance(_user, amount) */\n      jump\t// in\n    tag_105:\n        /* \"contracts/Gauge.sol\":23659:23695  return derivedBalance(_user, amount) */\n      swap4\n        /* \"contracts/Gauge.sol\":23544:23702  function pending(address _user) public view returns (uint256){... */\n      swap3\n      pop\n      pop\n      pop\n      jump\t// out\n        /* \"contracts/Gauge.sol\":20939:21025  function withdrawAll() external {... */\n    tag_56:\n        /* \"contracts/Gauge.sol\":20999:21009  msg.sender */\n      caller\n        /* \"contracts/Gauge.sol\":20990:21010  userInfo[msg.sender] */\n      0x00\n      swap1\n      dup2\n      mstore\n        /* \"contracts/Gauge.sol\":20990:20998  userInfo */\n      0x06\n        /* \"contracts/Gauge.sol\":20990:21010  userInfo[msg.sender] */\n      0x20\n      mstore\n      0x40\n      swap1\n      keccak256\n        /* \"contracts/Gauge.sol\":20990:21017  userInfo[msg.sender].amount */\n      sload\n        /* \"contracts/Gauge.sol\":20981:21018  withdraw(userInfo[msg.sender].amount) */\n      tag_107\n      swap1\n        /* \"contracts/Gauge.sol\":20981:20989  withdraw */\n      tag_40\n        /* \"contracts/Gauge.sol\":20981:21018  withdraw(userInfo[msg.sender].amount) */\n      jump\t// in\n    tag_107:\n        /* \"contracts/Gauge.sol\":20939:21025  function withdrawAll() external {... */\n      jump\t// out\n        /* \"contracts/Gauge.sol\":19017:19727  function derivedBalance(address account, uint _balance) public view returns (uint) {... */\n    tag_60:\n      sub(shl(0xa0, 0x01), 0x01)\n        /* \"contracts/Gauge.sol\":19126:19143  tokenIds[account] */\n      dup3\n      and\n        /* \"contracts/Gauge.sol\":19094:19098  uint */\n      0x00\n        /* \"contracts/Gauge.sol\":19126:19143  tokenIds[account] */\n      swap1\n      dup2\n      mstore\n        /* \"contracts/Gauge.sol\":19126:19134  tokenIds */\n      0x01\n        /* \"contracts/Gauge.sol\":19126:19143  tokenIds[account] */\n      0x20\n      mstore\n      0x40\n      dup2\n      keccak256\n      sload\n        /* \"contracts/Gauge.sol\":19094:19098  uint */\n      dup2\n        /* \"contracts/Gauge.sol\":19185:19188  100 */\n      0x64\n        /* \"contracts/Gauge.sol\":19169:19182  _balance * 30 */\n      tag_109\n        /* \"contracts/Gauge.sol\":19169:19177  _balance */\n      dup6\n        /* \"contracts/Gauge.sol\":19180:19182  30 */\n      0x1e\n        /* \"contracts/Gauge.sol\":19169:19182  _balance * 30 */\n      tag_110\n      jump\t// in\n    tag_109:\n        /* \"contracts/Gauge.sol\":19169:19188  _balance * 30 / 100 */\n      tag_111\n      swap2\n      swap1\n      tag_112\n      jump\t// in\n    tag_111:\n        /* \"contracts/Gauge.sol\":19241:19269  IBoost(boost).weights(stake) */\n      mload(0x40)\n      shl(0xe1, 0x53e56423)\n      dup2\n      mstore\n      sub(shl(0xa0, 0x01), 0x01)\n        /* \"contracts/Gauge.sol\":19263:19268  stake */\n      immutable(\"0x6d7e9d25f7937a025d098651c32892e1256b8f7bcedf36aadd28cccf92a5a08d\")\n        /* \"#utility.yul\":1186:1218   */\n      dup2\n      and\n        /* \"contracts/Gauge.sol\":19241:19269  IBoost(boost).weights(stake) */\n      0x04\n      dup4\n      add\n        /* \"#utility.yul\":1168:1219   */\n      mstore\n        /* \"contracts/Gauge.sol\":19153:19188  uint _derived = _balance * 30 / 100 */\n      swap2\n      swap3\n      pop\n      0x00\n      swap2\n      dup3\n      swap2\n        /* \"contracts/Gauge.sol\":19248:19253  boost */\n      immutable(\"0xba317e1d5aa05b5861702d06e2202816a8a6452d32b68558d200060c06eac391\")\n        /* \"contracts/Gauge.sol\":19241:19262  IBoost(boost).weights */\n      swap1\n      swap2\n      and\n      swap1\n      0xa7cac846\n      swap1\n        /* \"#utility.yul\":1141:1159   */\n      0x24\n      add\n        /* \"contracts/Gauge.sol\":19241:19269  IBoost(boost).weights(stake) */\n      0x20\n      mload(0x40)\n      dup1\n      dup4\n      sub\n      dup2\n      dup7\n      gas\n      staticcall\n      iszero\n      dup1\n      iszero\n      tag_115\n      jumpi\n      returndatasize\n      0x00\n      dup1\n      returndatacopy\n      revert(0x00, returndatasize)\n    tag_115:\n      pop\n      pop\n      pop\n      pop\n      mload(0x40)\n      returndatasize\n      not(0x1f)\n      0x1f\n      dup3\n      add\n      and\n      dup3\n      add\n      dup1\n      0x40\n      mstore\n      pop\n      dup2\n      add\n      swap1\n      tag_116\n      swap2\n      swap1\n      tag_117\n      jump\t// in\n    tag_116:\n        /* \"contracts/Gauge.sol\":19294:19329  IVeToken(veToken).ownerOf(_tokenId) */\n      mload(0x40)\n      shl(0xe1, 0x31a9108f)\n      dup2\n      mstore\n      0x04\n      dup2\n      add\n        /* \"#utility.yul\":160:185   */\n      dup7\n      swap1\n      mstore\n        /* \"contracts/Gauge.sol\":19226:19269  uint _supply = IBoost(boost).weights(stake) */\n      swap1\n      swap2\n      pop\n        /* \"contracts/Gauge.sol\":19303:19310  veToken */\n      immutable(\"0xeae3a40291c102cf85748609ff9046ea32530afca3ce058bd94a667258369fd6\")\n      sub(shl(0xa0, 0x01), 0x01)\n        /* \"contracts/Gauge.sol\":19294:19319  IVeToken(veToken).ownerOf */\n      and\n      swap1\n      0x6352211e\n      swap1\n        /* \"#utility.yul\":133:151   */\n      0x24\n      add\n        /* \"contracts/Gauge.sol\":19294:19329  IVeToken(veToken).ownerOf(_tokenId) */\n      0x20\n      mload(0x40)\n      dup1\n      dup4\n      sub\n      dup2\n      dup7\n      gas\n      staticcall\n      iszero\n      dup1\n      iszero\n      tag_120\n      jumpi\n      returndatasize\n      0x00\n      dup1\n      returndatacopy\n      revert(0x00, returndatasize)\n    tag_120:\n      pop\n      pop\n      pop\n      pop\n      mload(0x40)\n      returndatasize\n      not(0x1f)\n      0x1f\n      dup3\n      add\n      and\n      dup3\n      add\n      dup1\n      0x40\n      mstore\n      pop\n      dup2\n      add\n      swap1\n      tag_121\n      swap2\n      swap1\n      tag_122\n      jump\t// in\n    tag_121:\n      sub(shl(0xa0, 0x01), 0x01)\n        /* \"contracts/Gauge.sol\":19283:19329  account == IVeToken(veToken).ownerOf(_tokenId) */\n      and\n        /* \"contracts/Gauge.sol\":19283:19290  account */\n      dup8\n      sub(shl(0xa0, 0x01), 0x01)\n        /* \"contracts/Gauge.sol\":19283:19329  account == IVeToken(veToken).ownerOf(_tokenId) */\n      and\n      eq\n        /* \"contracts/Gauge.sol\":19283:19344  account == IVeToken(veToken).ownerOf(_tokenId) && _supply > 0 */\n      dup1\n      iszero\n      tag_123\n      jumpi\n      pop\n        /* \"contracts/Gauge.sol\":19343:19344  0 */\n      0x00\n        /* \"contracts/Gauge.sol\":19333:19340  _supply */\n      dup2\n        /* \"contracts/Gauge.sol\":19333:19344  _supply > 0 */\n      gt\n        /* \"contracts/Gauge.sol\":19283:19344  account == IVeToken(veToken).ownerOf(_tokenId) && _supply > 0 */\n    tag_123:\n        /* \"contracts/Gauge.sol\":19279:19662  if (account == IVeToken(veToken).ownerOf(_tokenId) && _supply > 0) {... */\n      iszero\n      tag_124\n      jumpi\n        /* \"contracts/Gauge.sol\":19378:19413  IBoost(boost).usedWeights(_tokenId) */\n      mload(0x40)\n      shl(0xe2, 0x1e7a4e09)\n      dup2\n      mstore\n      0x04\n      dup2\n      add\n        /* \"#utility.yul\":160:185   */\n      dup6\n      swap1\n      mstore\n        /* \"contracts/Gauge.sol\":19360:19375  uint usedWeight */\n      0x00\n      swap1\n        /* \"contracts/Gauge.sol\":19385:19390  boost */\n      immutable(\"0xba317e1d5aa05b5861702d06e2202816a8a6452d32b68558d200060c06eac391\")\n      sub(shl(0xa0, 0x01), 0x01)\n        /* \"contracts/Gauge.sol\":19378:19403  IBoost(boost).usedWeights */\n      and\n      swap1\n      0x79e93824\n      swap1\n        /* \"#utility.yul\":133:151   */\n      0x24\n      add\n        /* \"contracts/Gauge.sol\":19378:19413  IBoost(boost).usedWeights(_tokenId) */\n      0x20\n      mload(0x40)\n      dup1\n      dup4\n      sub\n      dup2\n      dup7\n      gas\n      staticcall\n      iszero\n      dup1\n      iszero\n      tag_127\n      jumpi\n      returndatasize\n      0x00\n      dup1\n      returndatacopy\n      revert(0x00, returndatasize)\n    tag_127:\n      pop\n      pop\n      pop\n      pop\n      mload(0x40)\n      returndatasize\n      not(0x1f)\n      0x1f\n      dup3\n      add\n      and\n      dup3\n      add\n      dup1\n      0x40\n      mstore\n      pop\n      dup2\n      add\n      swap1\n      tag_128\n      swap2\n      swap1\n      tag_117\n      jump\t// in\n    tag_128:\n        /* \"contracts/Gauge.sol\":19440:19480  IVeToken(veToken).balanceOfNFT(_tokenId) */\n      mload(0x40)\n      shl(0xe2, 0x39f890b5)\n      dup2\n      mstore\n      0x04\n      dup2\n      add\n        /* \"#utility.yul\":160:185   */\n      dup8\n      swap1\n      mstore\n        /* \"contracts/Gauge.sol\":19360:19413  uint usedWeight = IBoost(boost).usedWeights(_tokenId) */\n      swap1\n      swap2\n      pop\n        /* \"contracts/Gauge.sol\":19427:19437  uint useVe */\n      0x00\n      swap1\n      sub(shl(0xa0, 0x01), 0x01)\n        /* \"contracts/Gauge.sol\":19449:19456  veToken */\n      immutable(\"0xeae3a40291c102cf85748609ff9046ea32530afca3ce058bd94a667258369fd6\")\n        /* \"contracts/Gauge.sol\":19440:19470  IVeToken(veToken).balanceOfNFT */\n      and\n      swap1\n      0xe7e242d4\n      swap1\n        /* \"#utility.yul\":133:151   */\n      0x24\n      add\n        /* \"contracts/Gauge.sol\":19440:19480  IVeToken(veToken).balanceOfNFT(_tokenId) */\n      0x20\n      mload(0x40)\n      dup1\n      dup4\n      sub\n      dup2\n      dup7\n      gas\n      staticcall\n      iszero\n      dup1\n      iszero\n      tag_131\n      jumpi\n      returndatasize\n      0x00\n      dup1\n      returndatacopy\n      revert(0x00, returndatasize)\n    tag_131:\n      pop\n      pop\n      pop\n      pop\n      mload(0x40)\n      returndatasize\n      not(0x1f)\n      0x1f\n      dup3\n      add\n      and\n      dup3\n      add\n      dup1\n      0x40\n      mstore\n      pop\n      dup2\n      add\n      swap1\n      tag_132\n      swap2\n      swap1\n      tag_117\n      jump\t// in\n    tag_132:\n        /* \"contracts/Gauge.sol\":19427:19480  uint useVe = IVeToken(veToken).balanceOfNFT(_tokenId) */\n      swap1\n      pop\n        /* \"contracts/Gauge.sol\":19506:19579  IBoost(boost).votes(_tokenId, stake).mul(1e12).mul(useVe).div(usedWeight) */\n      tag_133\n        /* \"contracts/Gauge.sol\":19568:19578  usedWeight */\n      dup3\n        /* \"contracts/Gauge.sol\":19506:19563  IBoost(boost).votes(_tokenId, stake).mul(1e12).mul(useVe) */\n      tag_134\n        /* \"contracts/Gauge.sol\":19557:19562  useVe */\n      dup4\n        /* \"contracts/Gauge.sol\":19506:19552  IBoost(boost).votes(_tokenId, stake).mul(1e12) */\n      tag_140\n        /* \"contracts/Gauge.sol\":19547:19551  1e12 */\n      0xe8d4a51000\n        /* \"contracts/Gauge.sol\":19513:19518  boost */\n      immutable(\"0xba317e1d5aa05b5861702d06e2202816a8a6452d32b68558d200060c06eac391\")\n      sub(shl(0xa0, 0x01), 0x01)\n        /* \"contracts/Gauge.sol\":19506:19525  IBoost(boost).votes */\n      and\n      0xd23254b4\n        /* \"contracts/Gauge.sol\":19526:19534  _tokenId */\n      dup14\n        /* \"contracts/Gauge.sol\":19536:19541  stake */\n      immutable(\"0x6d7e9d25f7937a025d098651c32892e1256b8f7bcedf36aadd28cccf92a5a08d\")\n        /* \"contracts/Gauge.sol\":19506:19542  IBoost(boost).votes(_tokenId, stake) */\n      mload(0x40)\n      dup4\n      0xffffffff\n      and\n      0xe0\n      shl\n      dup2\n      mstore\n      0x04\n      add\n      tag_136\n      swap3\n      swap2\n      swap1\n        /* \"#utility.yul\":2949:2974   */\n      swap2\n      dup3\n      mstore\n      sub(shl(0xa0, 0x01), 0x01)\n        /* \"#utility.yul\":3010:3042   */\n      and\n        /* \"#utility.yul\":3005:3007   */\n      0x20\n        /* \"#utility.yul\":2990:3008   */\n      dup3\n      add\n        /* \"#utility.yul\":2983:3043   */\n      mstore\n        /* \"#utility.yul\":2937:2939   */\n      0x40\n        /* \"#utility.yul\":2922:2940   */\n      add\n      swap1\n        /* \"#utility.yul\":2775:3049   */\n      jump\n        /* \"contracts/Gauge.sol\":19506:19542  IBoost(boost).votes(_tokenId, stake) */\n    tag_136:\n      0x20\n      mload(0x40)\n      dup1\n      dup4\n      sub\n      dup2\n      dup7\n      gas\n      staticcall\n      iszero\n      dup1\n      iszero\n      tag_139\n      jumpi\n      returndatasize\n      0x00\n      dup1\n      returndatacopy\n      revert(0x00, returndatasize)\n    tag_139:\n      pop\n      pop\n      pop\n      pop\n      mload(0x40)\n      returndatasize\n      not(0x1f)\n      0x1f\n      dup3\n      add\n      and\n      dup3\n      add\n      dup1\n      0x40\n      mstore\n      pop\n      dup2\n      add\n      swap1\n      tag_140\n      swap2\n      swap1\n      tag_117\n      jump\t// in\n    tag_140:\n        /* \"contracts/Gauge.sol\":19506:19546  IBoost(boost).votes(_tokenId, stake).mul */\n      swap1\n      tag_141\n        /* \"contracts/Gauge.sol\":19506:19552  IBoost(boost).votes(_tokenId, stake).mul(1e12) */\n      jump\t// in\n        /* \"contracts/Gauge.sol\":19506:19563  IBoost(boost).votes(_tokenId, stake).mul(1e12).mul(useVe) */\n    tag_134:\n        /* \"contracts/Gauge.sol\":19506:19567  IBoost(boost).votes(_tokenId, stake).mul(1e12).mul(useVe).div */\n      swap1\n      tag_142\n        /* \"contracts/Gauge.sol\":19506:19579  IBoost(boost).votes(_tokenId, stake).mul(1e12).mul(useVe).div(usedWeight) */\n      jump\t// in\n    tag_133:\n        /* \"contracts/Gauge.sol\":19494:19579  _adjusted = IBoost(boost).votes(_tokenId, stake).mul(1e12).mul(useVe).div(usedWeight) */\n      swap4\n      pop\n        /* \"contracts/Gauge.sol\":19648:19651  100 */\n      0x64\n        /* \"contracts/Gauge.sol\":19632:19639  _supply */\n      dup4\n        /* \"contracts/Gauge.sol\":19620:19629  _adjusted */\n      dup6\n        /* \"contracts/Gauge.sol\":19606:19617  totalSupply */\n      sload(0x05)\n        /* \"contracts/Gauge.sol\":19606:19629  totalSupply * _adjusted */\n      tag_143\n      swap2\n      swap1\n      tag_110\n      jump\t// in\n    tag_143:\n        /* \"contracts/Gauge.sol\":19606:19639  totalSupply * _adjusted / _supply */\n      tag_144\n      swap2\n      swap1\n      tag_112\n      jump\t// in\n    tag_144:\n        /* \"contracts/Gauge.sol\":19605:19645  (totalSupply * _adjusted / _supply) * 70 */\n      tag_145\n      swap1\n        /* \"contracts/Gauge.sol\":19643:19645  70 */\n      0x46\n        /* \"contracts/Gauge.sol\":19605:19645  (totalSupply * _adjusted / _supply) * 70 */\n      tag_110\n      jump\t// in\n    tag_145:\n        /* \"contracts/Gauge.sol\":19605:19651  (totalSupply * _adjusted / _supply) * 70 / 100 */\n      tag_146\n      swap2\n      swap1\n      tag_112\n      jump\t// in\n    tag_146:\n        /* \"contracts/Gauge.sol\":19593:19651  _adjusted = (totalSupply * _adjusted / _supply) * 70 / 100 */\n      swap4\n      pop\n        /* \"contracts/Gauge.sol\":19346:19662  {... */\n      pop\n      pop\n        /* \"contracts/Gauge.sol\":19279:19662  if (account == IVeToken(veToken).ownerOf(_tokenId) && _supply > 0) {... */\n    tag_124:\n        /* \"contracts/Gauge.sol\":19678:19720  Math.min((_derived + _adjusted), _balance) */\n      tag_147\n        /* \"contracts/Gauge.sol\":19688:19708  _derived + _adjusted */\n      tag_148\n        /* \"contracts/Gauge.sol\":19699:19708  _adjusted */\n      dup4\n        /* \"contracts/Gauge.sol\":19688:19696  _derived */\n      dup6\n        /* \"contracts/Gauge.sol\":19688:19708  _derived + _adjusted */\n      tag_149\n      jump\t// in\n    tag_148:\n        /* \"contracts/Gauge.sol\":19711:19719  _balance */\n      dup8\n        /* \"contracts/Gauge.sol\":19678:19686  Math.min */\n      tag_150\n        /* \"contracts/Gauge.sol\":19678:19720  Math.min((_derived + _adjusted), _balance) */\n      jump\t// in\n    tag_147:\n        /* \"contracts/Gauge.sol\":19671:19720  return Math.min((_derived + _adjusted), _balance) */\n      swap8\n        /* \"contracts/Gauge.sol\":19017:19727  function derivedBalance(address account, uint _balance) public view returns (uint) {... */\n      swap7\n      pop\n      pop\n      pop\n      pop\n      pop\n      pop\n      pop\n      jump\t// out\n        /* \"contracts/Gauge.sol\":23709:24262  function notifyRewardAmount(address token, uint _rewardRate) external onlyBoost {... */\n    tag_73:\n        /* \"contracts/Gauge.sol\":17738:17748  msg.sender */\n      caller\n      sub(shl(0xa0, 0x01), 0x01)\n        /* \"contracts/Gauge.sol\":17752:17757  boost */\n      immutable(\"0xba317e1d5aa05b5861702d06e2202816a8a6452d32b68558d200060c06eac391\")\n        /* \"contracts/Gauge.sol\":17738:17757  msg.sender == boost */\n      and\n      eq\n        /* \"contracts/Gauge.sol\":17730:17772  require(msg.sender == boost, 'only boost') */\n      tag_152\n      jumpi\n      mload(0x40)\n      shl(0xe5, 0x461bcd)\n      dup2\n      mstore\n        /* \"#utility.yul\":3389:3391   */\n      0x20\n        /* \"contracts/Gauge.sol\":17730:17772  require(msg.sender == boost, 'only boost') */\n      0x04\n      dup3\n      add\n        /* \"#utility.yul\":3371:3392   */\n      mstore\n        /* \"#utility.yul\":3428:3430   */\n      0x0a\n        /* \"#utility.yul\":3408:3426   */\n      0x24\n      dup3\n      add\n        /* \"#utility.yul\":3401:3431   */\n      mstore\n      shl(0xb2, 0x1bdb9b1e48189bdbdcdd)\n        /* \"#utility.yul\":3447:3465   */\n      0x44\n      dup3\n      add\n        /* \"#utility.yul\":3440:3480   */\n      mstore\n        /* \"#utility.yul\":3497:3515   */\n      0x64\n      add\n        /* \"contracts/Gauge.sol\":17730:17772  require(msg.sender == boost, 'only boost') */\n    tag_153:\n      mload(0x40)\n      dup1\n      swap2\n      sub\n      swap1\n      revert\n    tag_152:\n        /* \"contracts/Gauge.sol\":23816:23821  stake */\n      immutable(\"0x6d7e9d25f7937a025d098651c32892e1256b8f7bcedf36aadd28cccf92a5a08d\")\n      sub(shl(0xa0, 0x01), 0x01)\n        /* \"contracts/Gauge.sol\":23807:23821  token != stake */\n      and\n        /* \"contracts/Gauge.sol\":23807:23812  token */\n      dup3\n      sub(shl(0xa0, 0x01), 0x01)\n        /* \"contracts/Gauge.sol\":23807:23821  token != stake */\n      and\n      eq\n      iszero\n        /* \"contracts/Gauge.sol\":23799:23834  require(token != stake, \"no stake\") */\n      tag_156\n      jumpi\n      mload(0x40)\n      shl(0xe5, 0x461bcd)\n      dup2\n      mstore\n        /* \"#utility.yul\":3728:3730   */\n      0x20\n        /* \"contracts/Gauge.sol\":23799:23834  require(token != stake, \"no stake\") */\n      0x04\n      dup3\n      add\n        /* \"#utility.yul\":3710:3731   */\n      mstore\n        /* \"#utility.yul\":3767:3768   */\n      0x08\n        /* \"#utility.yul\":3747:3765   */\n      0x24\n      dup3\n      add\n        /* \"#utility.yul\":3740:3769   */\n      mstore\n      shl(0xc0, 0x6e6f207374616b65)\n        /* \"#utility.yul\":3785:3803   */\n      0x44\n      dup3\n      add\n        /* \"#utility.yul\":3778:3816   */\n      mstore\n        /* \"#utility.yul\":3833:3851   */\n      0x64\n      add\n        /* \"contracts/Gauge.sol\":23799:23834  require(token != stake, \"no stake\") */\n      tag_153\n        /* \"#utility.yul\":3526:3857   */\n      jump\n        /* \"contracts/Gauge.sol\":23799:23834  require(token != stake, \"no stake\") */\n    tag_156:\n        /* \"contracts/Gauge.sol\":23864:23879  lastRewardBlock */\n      sload(0x04)\n        /* \"contracts/Gauge.sol\":23848:23860  block.number */\n      number\n        /* \"contracts/Gauge.sol\":23848:23879  block.number <= lastRewardBlock */\n      gt\n        /* \"contracts/Gauge.sol\":23844:23912  if (block.number <= lastRewardBlock) {... */\n      tag_159\n      jumpi\n        /* \"contracts/Gauge.sol\":21069:21249  {... */\n      pop\n        /* \"contracts/Gauge.sol\":21031:21249  function withdraw(uint amount) public {... */\n      pop\n      jump\t// out\n        /* \"contracts/Gauge.sol\":23844:23912  if (block.number <= lastRewardBlock) {... */\n    tag_159:\n        /* \"contracts/Gauge.sol\":23921:23934  tokenPerBlock */\n      0x02\n        /* \"contracts/Gauge.sol\":23921:23948  tokenPerBlock = _rewardRate */\n      dup2\n      swap1\n      sstore\n        /* \"contracts/Gauge.sol\":23962:23973  totalSupply */\n      sload(0x05)\n        /* \"contracts/Gauge.sol\":23962:23977  totalSupply > 0 */\n      iszero\n        /* \"contracts/Gauge.sol\":23958:24197  if (totalSupply > 0) {... */\n      tag_160\n      jumpi\n        /* \"contracts/Gauge.sol\":23993:24004  uint256 mul */\n      0x00\n        /* \"contracts/Gauge.sol\":24007:24040  block.number.sub(lastRewardBlock) */\n      tag_161\n        /* \"contracts/Gauge.sol\":24024:24039  lastRewardBlock */\n      sload(0x04)\n        /* \"contracts/Gauge.sol\":24007:24019  block.number */\n      number\n        /* \"contracts/Gauge.sol\":24007:24023  block.number.sub */\n      tag_162\n      swap1\n        /* \"contracts/Gauge.sol\":24007:24040  block.number.sub(lastRewardBlock) */\n      swap2\n      swap1\n      0xffffffff\n      and\n      jump\t// in\n    tag_161:\n        /* \"contracts/Gauge.sol\":23993:24040  uint256 mul = block.number.sub(lastRewardBlock) */\n      swap1\n      pop\n        /* \"contracts/Gauge.sol\":24073:24142  accTokenPerShare.add(_rewardRate.mul(mul).mul(1e12).div(totalSupply)) */\n      tag_163\n        /* \"contracts/Gauge.sol\":24094:24141  _rewardRate.mul(mul).mul(1e12).div(totalSupply) */\n      tag_164\n        /* \"contracts/Gauge.sol\":24129:24140  totalSupply */\n      sload(0x05)\n        /* \"contracts/Gauge.sol\":24094:24124  _rewardRate.mul(mul).mul(1e12) */\n      tag_134\n        /* \"contracts/Gauge.sol\":24119:24123  1e12 */\n      0xe8d4a51000\n        /* \"contracts/Gauge.sol\":24094:24114  _rewardRate.mul(mul) */\n      tag_140\n        /* \"contracts/Gauge.sol\":24110:24113  mul */\n      dup7\n        /* \"contracts/Gauge.sol\":24094:24105  _rewardRate */\n      dup9\n        /* \"contracts/Gauge.sol\":24094:24109  _rewardRate.mul */\n      tag_141\n      swap1\n        /* \"contracts/Gauge.sol\":24094:24114  _rewardRate.mul(mul) */\n      swap2\n      swap1\n      0xffffffff\n      and\n      jump\t// in\n        /* \"contracts/Gauge.sol\":24094:24141  _rewardRate.mul(mul).mul(1e12).div(totalSupply) */\n    tag_164:\n        /* \"contracts/Gauge.sol\":24073:24089  accTokenPerShare */\n      sload(0x03)\n      swap1\n        /* \"contracts/Gauge.sol\":24073:24093  accTokenPerShare.add */\n      tag_167\n        /* \"contracts/Gauge.sol\":24073:24142  accTokenPerShare.add(_rewardRate.mul(mul).mul(1e12).div(totalSupply)) */\n      jump\t// in\n    tag_163:\n        /* \"contracts/Gauge.sol\":24054:24070  accTokenPerShare */\n      0x03\n        /* \"contracts/Gauge.sol\":24054:24142  accTokenPerShare = accTokenPerShare.add(_rewardRate.mul(mul).mul(1e12).div(totalSupply)) */\n      sstore\n      pop\n        /* \"contracts/Gauge.sol\":24174:24186  block.number */\n      number\n        /* \"contracts/Gauge.sol\":24156:24171  lastRewardBlock */\n      0x04\n        /* \"contracts/Gauge.sol\":24156:24186  lastRewardBlock = block.number */\n      sstore\n        /* \"contracts/Gauge.sol\":23958:24197  if (totalSupply > 0) {... */\n    tag_160:\n        /* \"contracts/Gauge.sol\":24211:24255  NotifyReward(msg.sender, token, _rewardRate) */\n      mload(0x40)\n        /* \"#utility.yul\":160:185   */\n      dup2\n      dup2\n      mstore\n      sub(shl(0xa0, 0x01), 0x01)\n        /* \"contracts/Gauge.sol\":24211:24255  NotifyReward(msg.sender, token, _rewardRate) */\n      dup4\n      and\n      swap1\n        /* \"contracts/Gauge.sol\":24224:24234  msg.sender */\n      caller\n      swap1\n        /* \"contracts/Gauge.sol\":24211:24255  NotifyReward(msg.sender, token, _rewardRate) */\n      0xf70d5c697de7ea828df48e5c4573cb2194c659f1901f70110c52b066dcf50826\n      swap1\n        /* \"#utility.yul\":148:150   */\n      0x20\n        /* \"#utility.yul\":133:151   */\n      add\n        /* \"contracts/Gauge.sol\":24211:24255  NotifyReward(msg.sender, token, _rewardRate) */\n      mload(0x40)\n      dup1\n      swap2\n      sub\n      swap1\n      log3\n        /* \"contracts/Gauge.sol\":23709:24262  function notifyRewardAmount(address token, uint _rewardRate) external onlyBoost {... */\n      pop\n      pop\n      jump\t// out\n        /* \"contracts/Gauge.sol\":18454:19011  function getReward(address account) external nonReentrant {... */\n    tag_76:\n        /* \"contracts/Gauge.sol\":3133:3134  2 */\n      0x02\n        /* \"contracts/Gauge.sol\":3714:3721  _status */\n      sload(0x00)\n        /* \"contracts/Gauge.sol\":3714:3733  _status != _ENTERED */\n      eq\n      iszero\n        /* \"contracts/Gauge.sol\":3706:3769  require(_status != _ENTERED, \"ReentrancyGuard: reentrant call\") */\n      tag_170\n      jumpi\n      mload(0x40)\n      shl(0xe5, 0x461bcd)\n      dup2\n      mstore\n      0x04\n      add\n      tag_153\n      swap1\n      tag_172\n      jump\t// in\n    tag_170:\n        /* \"contracts/Gauge.sol\":3133:3134  2 */\n      0x02\n        /* \"contracts/Gauge.sol\":3844:3851  _status */\n      0x00\n        /* \"contracts/Gauge.sol\":3844:3862  _status = _ENTERED */\n      sstore\n        /* \"contracts/Gauge.sol\":18530:18540  msg.sender */\n      caller\n      sub(shl(0xa0, 0x01), 0x01)\n        /* \"contracts/Gauge.sol\":18530:18551  msg.sender == account */\n      dup3\n      and\n      eq\n      dup1\n        /* \"contracts/Gauge.sol\":18530:18574  msg.sender == account || msg.sender == boost */\n      tag_174\n      jumpi\n      pop\n        /* \"contracts/Gauge.sol\":18555:18565  msg.sender */\n      caller\n      sub(shl(0xa0, 0x01), 0x01)\n        /* \"contracts/Gauge.sol\":18569:18574  boost */\n      immutable(\"0xba317e1d5aa05b5861702d06e2202816a8a6452d32b68558d200060c06eac391\")\n        /* \"contracts/Gauge.sol\":18555:18574  msg.sender == boost */\n      and\n      eq\n        /* \"contracts/Gauge.sol\":18530:18574  msg.sender == account || msg.sender == boost */\n    tag_174:\n        /* \"contracts/Gauge.sol\":18522:18575  require(msg.sender == account || msg.sender == boost) */\n      tag_175\n      jumpi\n      0x00\n      dup1\n      revert\n    tag_175:\n        /* \"contracts/Gauge.sol\":18585:18597  updatePool() */\n      tag_176\n        /* \"contracts/Gauge.sol\":18585:18595  updatePool */\n      tag_89\n        /* \"contracts/Gauge.sol\":18585:18597  updatePool() */\n      jump\t// in\n    tag_176:\n      sub(shl(0xa0, 0x01), 0x01)\n        /* \"contracts/Gauge.sol\":18631:18648  userInfo[account] */\n      dup2\n      and\n        /* \"contracts/Gauge.sol\":18607:18628  UserInfo storage user */\n      0x00\n        /* \"contracts/Gauge.sol\":18631:18648  userInfo[account] */\n      swap1\n      dup2\n      mstore\n        /* \"contracts/Gauge.sol\":18631:18639  userInfo */\n      0x06\n        /* \"contracts/Gauge.sol\":18631:18648  userInfo[account] */\n      0x20\n      mstore\n      0x40\n      dup2\n      keccak256\n      swap1\n        /* \"contracts/Gauge.sol\":18682:18701  pendingMax(account) */\n      tag_177\n        /* \"contracts/Gauge.sol\":18640:18647  account */\n      dup4\n        /* \"contracts/Gauge.sol\":18682:18692  pendingMax */\n      tag_82\n        /* \"contracts/Gauge.sol\":18682:18701  pendingMax(account) */\n      jump\t// in\n    tag_177:\n        /* \"contracts/Gauge.sol\":18658:18701  uint256 pendingAmount = pendingMax(account) */\n      swap1\n      pop\n        /* \"contracts/Gauge.sol\":18715:18732  pendingAmount > 0 */\n      dup1\n      iszero\n        /* \"contracts/Gauge.sol\":18711:18885  if (pendingAmount > 0) {... */\n      tag_178\n      jumpi\n        /* \"contracts/Gauge.sol\":18748:18803  _safeTokenTransfer(rewardToken, account, pendingAmount) */\n      tag_179\n        /* \"contracts/Gauge.sol\":18767:18778  rewardToken */\n      immutable(\"0x51432b6f6ffff9c0d91073ef7f23a4f639ef505c3fc71bae7794b27877f54eff\")\n        /* \"contracts/Gauge.sol\":18780:18787  account */\n      dup5\n        /* \"contracts/Gauge.sol\":18789:18802  pendingAmount */\n      dup4\n        /* \"contracts/Gauge.sol\":18748:18766  _safeTokenTransfer */\n      tag_180\n        /* \"contracts/Gauge.sol\":18748:18803  _safeTokenTransfer(rewardToken, account, pendingAmount) */\n      jump\t// in\n    tag_179:\n        /* \"contracts/Gauge.sol\":18822:18874  ClaimRewards(msg.sender, rewardToken, pendingAmount) */\n      mload(0x40)\n        /* \"#utility.yul\":160:185   */\n      dup2\n      dup2\n      mstore\n      sub(shl(0xa0, 0x01), 0x01)\n        /* \"contracts/Gauge.sol\":18847:18858  rewardToken */\n      immutable(\"0x51432b6f6ffff9c0d91073ef7f23a4f639ef505c3fc71bae7794b27877f54eff\")\n        /* \"contracts/Gauge.sol\":18822:18874  ClaimRewards(msg.sender, rewardToken, pendingAmount) */\n      and\n      swap1\n        /* \"contracts/Gauge.sol\":18835:18845  msg.sender */\n      caller\n      swap1\n        /* \"contracts/Gauge.sol\":18822:18874  ClaimRewards(msg.sender, rewardToken, pendingAmount) */\n      0x9aa05b3d70a9e3e2f004f039648839560576334fb45c81f91b6db03ad9e2efc9\n      swap1\n        /* \"#utility.yul\":148:150   */\n      0x20\n        /* \"#utility.yul\":133:151   */\n      add\n        /* \"contracts/Gauge.sol\":18822:18874  ClaimRewards(msg.sender, rewardToken, pendingAmount) */\n      mload(0x40)\n      dup1\n      swap2\n      sub\n      swap1\n      log3\n        /* \"contracts/Gauge.sol\":18711:18885  if (pendingAmount > 0) {... */\n    tag_178:\n        /* \"contracts/Gauge.sol\":18928:18944  accTokenPerShare */\n      sload(0x03)\n        /* \"contracts/Gauge.sol\":18912:18923  user.amount */\n      dup3\n      sload\n        /* \"contracts/Gauge.sol\":18912:18955  user.amount.mul(accTokenPerShare).div(1e12) */\n      tag_182\n      swap2\n        /* \"contracts/Gauge.sol\":18950:18954  1e12 */\n      0xe8d4a51000\n      swap2\n        /* \"contracts/Gauge.sol\":18912:18945  user.amount.mul(accTokenPerShare) */\n      tag_134\n      swap2\n        /* \"contracts/Gauge.sol\":18912:18927  user.amount.mul */\n      tag_141\n        /* \"contracts/Gauge.sol\":18912:18945  user.amount.mul(accTokenPerShare) */\n      jump\t// in\n        /* \"contracts/Gauge.sol\":18912:18955  user.amount.mul(accTokenPerShare).div(1e12) */\n    tag_182:\n        /* \"contracts/Gauge.sol\":18894:18909  user.rewardDebt */\n      0x01\n      dup4\n      add\n        /* \"contracts/Gauge.sol\":18894:18955  user.rewardDebt = user.amount.mul(accTokenPerShare).div(1e12) */\n      sstore\n        /* \"contracts/Gauge.sol\":18965:19004  IBoost(boost).distribute(address(this)) */\n      mload(0x40)\n      shl(0xe0, 0x63453ae1)\n      dup2\n      mstore\n        /* \"contracts/Gauge.sol\":18998:19002  this */\n      address\n        /* \"contracts/Gauge.sol\":18965:19004  IBoost(boost).distribute(address(this)) */\n      0x04\n      dup3\n      add\n        /* \"#utility.yul\":1168:1219   */\n      mstore\n        /* \"contracts/Gauge.sol\":18972:18977  boost */\n      immutable(\"0xba317e1d5aa05b5861702d06e2202816a8a6452d32b68558d200060c06eac391\")\n      sub(shl(0xa0, 0x01), 0x01)\n        /* \"contracts/Gauge.sol\":18965:18989  IBoost(boost).distribute */\n      and\n      swap1\n      0x63453ae1\n      swap1\n        /* \"#utility.yul\":1141:1159   */\n      0x24\n      add\n        /* \"contracts/Gauge.sol\":18965:19004  IBoost(boost).distribute(address(this)) */\n      0x00\n      mload(0x40)\n      dup1\n      dup4\n      sub\n      dup2\n      0x00\n      dup8\n      dup1\n      extcodesize\n      iszero\n      dup1\n      iszero\n      tag_185\n      jumpi\n      0x00\n      dup1\n      revert\n    tag_185:\n      pop\n      gas\n      call\n      iszero\n      dup1\n      iszero\n      tag_187\n      jumpi\n      returndatasize\n      0x00\n      dup1\n      returndatacopy\n      revert(0x00, returndatasize)\n    tag_187:\n      pop\n      pop\n        /* \"contracts/Gauge.sol\":3090:3091  1 */\n      0x01\n        /* \"contracts/Gauge.sol\":4017:4024  _status */\n      0x00\n        /* \"contracts/Gauge.sol\":4017:4039  _status = _NOT_ENTERED */\n      sstore\n      pop\n      pop\n      pop\n      pop\n      pop\n        /* \"contracts/Gauge.sol\":18454:19011  function getReward(address account) external nonReentrant {... */\n      jump\t// out\n        /* \"contracts/Gauge.sol\":19734:19847  function depositAll(uint tokenId) external {... */\n    tag_79:\n        /* \"contracts/Gauge.sol\":19795:19830  IERC20(stake).balanceOf(msg.sender) */\n      mload(0x40)\n      shl(0xe0, 0x70a08231)\n      dup2\n      mstore\n        /* \"contracts/Gauge.sol\":19819:19829  msg.sender */\n      caller\n        /* \"contracts/Gauge.sol\":19795:19830  IERC20(stake).balanceOf(msg.sender) */\n      0x04\n      dup3\n      add\n        /* \"#utility.yul\":1168:1219   */\n      mstore\n        /* \"contracts/Gauge.sol\":19787:19840  deposit(IERC20(stake).balanceOf(msg.sender), tokenId) */\n      tag_189\n      swap1\n        /* \"contracts/Gauge.sol\":19802:19807  stake */\n      immutable(\"0x6d7e9d25f7937a025d098651c32892e1256b8f7bcedf36aadd28cccf92a5a08d\")\n      sub(shl(0xa0, 0x01), 0x01)\n        /* \"contracts/Gauge.sol\":19795:19818  IERC20(stake).balanceOf */\n      and\n      swap1\n      0x70a08231\n      swap1\n        /* \"#utility.yul\":1141:1159   */\n      0x24\n      add\n        /* \"contracts/Gauge.sol\":19795:19830  IERC20(stake).balanceOf(msg.sender) */\n      0x20\n      mload(0x40)\n      dup1\n      dup4\n      sub\n      dup2\n      dup7\n      gas\n      staticcall\n      iszero\n      dup1\n      iszero\n      tag_192\n      jumpi\n      returndatasize\n      0x00\n      dup1\n      returndatacopy\n      revert(0x00, returndatasize)\n    tag_192:\n      pop\n      pop\n      pop\n      pop\n      mload(0x40)\n      returndatasize\n      not(0x1f)\n      0x1f\n      dup3\n      add\n      and\n      dup3\n      add\n      dup1\n      0x40\n      mstore\n      pop\n      dup2\n      add\n      swap1\n      tag_193\n      swap2\n      swap1\n      tag_117\n      jump\t// in\n    tag_193:\n        /* \"contracts/Gauge.sol\":19832:19839  tokenId */\n      dup3\n        /* \"contracts/Gauge.sol\":19787:19794  deposit */\n      tag_87\n        /* \"contracts/Gauge.sol\":19787:19840  deposit(IERC20(stake).balanceOf(msg.sender), tokenId) */\n      jump\t// in\n    tag_189:\n        /* \"contracts/Gauge.sol\":19734:19847  function depositAll(uint tokenId) external {... */\n      pop\n      jump\t// out\n        /* \"contracts/Gauge.sol\":22771:23538  function pendingMax(address _user) public view returns (uint256){... */\n    tag_82:\n      sub(shl(0xa0, 0x01), 0x01)\n        /* \"contracts/Gauge.sol\":22869:22884  userInfo[_user] */\n      dup2\n      and\n        /* \"contracts/Gauge.sol\":22827:22834  uint256 */\n      0x00\n        /* \"contracts/Gauge.sol\":22869:22884  userInfo[_user] */\n      swap1\n      dup2\n      mstore\n        /* \"contracts/Gauge.sol\":22869:22877  userInfo */\n      0x06\n        /* \"contracts/Gauge.sol\":22869:22884  userInfo[_user] */\n      0x20\n      mstore\n      0x40\n      dup2\n      keccak256\n        /* \"contracts/Gauge.sol\":22922:22938  accTokenPerShare */\n      sload(0x03)\n        /* \"contracts/Gauge.sol\":22952:22963  user.amount */\n      dup2\n      sload\n        /* \"contracts/Gauge.sol\":22952:22967  user.amount > 0 */\n      iszero\n        /* \"contracts/Gauge.sol\":22948:23514  if (user.amount > 0) {... */\n      tag_205\n      jumpi\n        /* \"contracts/Gauge.sol\":23002:23017  lastRewardBlock */\n      sload(0x04)\n        /* \"contracts/Gauge.sol\":22987:22999  block.number */\n      number\n        /* \"contracts/Gauge.sol\":22987:23017  block.number > lastRewardBlock */\n      gt\n        /* \"contracts/Gauge.sol\":22983:23350  if (block.number > lastRewardBlock) {... */\n      iszero\n      tag_196\n      jumpi\n        /* \"contracts/Gauge.sol\":23037:23048  uint256 mul */\n      0x00\n        /* \"contracts/Gauge.sol\":23051:23084  block.number.sub(lastRewardBlock) */\n      tag_197\n        /* \"contracts/Gauge.sol\":23068:23083  lastRewardBlock */\n      sload(0x04)\n        /* \"contracts/Gauge.sol\":23051:23063  block.number */\n      number\n        /* \"contracts/Gauge.sol\":23051:23067  block.number.sub */\n      tag_162\n      swap1\n        /* \"contracts/Gauge.sol\":23051:23084  block.number.sub(lastRewardBlock) */\n      swap2\n      swap1\n      0xffffffff\n      and\n      jump\t// in\n    tag_197:\n        /* \"contracts/Gauge.sol\":23037:23084  uint256 mul = block.number.sub(lastRewardBlock) */\n      swap1\n      pop\n        /* \"contracts/Gauge.sol\":23102:23121  uint256 tokenReward */\n      0x00\n        /* \"contracts/Gauge.sol\":23124:23146  tokenPerBlock.mul(mul) */\n      tag_198\n        /* \"contracts/Gauge.sol\":23142:23145  mul */\n      dup3\n        /* \"contracts/Gauge.sol\":23124:23137  tokenPerBlock */\n      sload(0x02)\n        /* \"contracts/Gauge.sol\":23124:23141  tokenPerBlock.mul */\n      tag_141\n      swap1\n        /* \"contracts/Gauge.sol\":23124:23146  tokenPerBlock.mul(mul) */\n      swap2\n      swap1\n      0xffffffff\n      and\n      jump\t// in\n    tag_198:\n        /* \"contracts/Gauge.sol\":23102:23146  uint256 tokenReward = tokenPerBlock.mul(mul) */\n      swap1\n      pop\n        /* \"contracts/Gauge.sol\":23184:23245  _accTokenPerShare.add(tokenReward.mul(1e12).div(totalSupply)) */\n      tag_199\n        /* \"contracts/Gauge.sol\":23206:23244  tokenReward.mul(1e12).div(totalSupply) */\n      tag_200\n        /* \"contracts/Gauge.sol\":23232:23243  totalSupply */\n      sload(0x05)\n        /* \"contracts/Gauge.sol\":23206:23227  tokenReward.mul(1e12) */\n      tag_134\n        /* \"contracts/Gauge.sol\":23222:23226  1e12 */\n      0xe8d4a51000\n        /* \"contracts/Gauge.sol\":23206:23217  tokenReward */\n      dup6\n        /* \"contracts/Gauge.sol\":23206:23221  tokenReward.mul */\n      tag_141\n      swap1\n        /* \"contracts/Gauge.sol\":23206:23227  tokenReward.mul(1e12) */\n      swap2\n      swap1\n      0xffffffff\n      and\n      jump\t// in\n        /* \"contracts/Gauge.sol\":23206:23244  tokenReward.mul(1e12).div(totalSupply) */\n    tag_200:\n        /* \"contracts/Gauge.sol\":23184:23201  _accTokenPerShare */\n      dup5\n      swap1\n        /* \"contracts/Gauge.sol\":23184:23205  _accTokenPerShare.add */\n      tag_167\n        /* \"contracts/Gauge.sol\":23184:23245  _accTokenPerShare.add(tokenReward.mul(1e12).div(totalSupply)) */\n      jump\t// in\n    tag_199:\n        /* \"contracts/Gauge.sol\":23164:23245  _accTokenPerShare = _accTokenPerShare.add(tokenReward.mul(1e12).div(totalSupply)) */\n      swap3\n      pop\n        /* \"contracts/Gauge.sol\":23270:23335  user.amount.mul(_accTokenPerShare).div(1e12).sub(user.rewardDebt) */\n      tag_202\n        /* \"contracts/Gauge.sol\":23319:23323  user */\n      dup5\n        /* \"contracts/Gauge.sol\":23319:23334  user.rewardDebt */\n      0x01\n      add\n      sload\n        /* \"contracts/Gauge.sol\":23270:23314  user.amount.mul(_accTokenPerShare).div(1e12) */\n      tag_203\n        /* \"contracts/Gauge.sol\":23309:23313  1e12 */\n      0xe8d4a51000\n        /* \"contracts/Gauge.sol\":23270:23304  user.amount.mul(_accTokenPerShare) */\n      tag_134\n        /* \"contracts/Gauge.sol\":23286:23303  _accTokenPerShare */\n      dup8\n        /* \"contracts/Gauge.sol\":23270:23274  user */\n      dup10\n        /* \"contracts/Gauge.sol\":23270:23281  user.amount */\n      0x00\n      add\n      sload\n        /* \"contracts/Gauge.sol\":23270:23285  user.amount.mul */\n      tag_141\n      swap1\n        /* \"contracts/Gauge.sol\":23270:23304  user.amount.mul(_accTokenPerShare) */\n      swap2\n      swap1\n      0xffffffff\n      and\n      jump\t// in\n        /* \"contracts/Gauge.sol\":23270:23314  user.amount.mul(_accTokenPerShare).div(1e12) */\n    tag_203:\n        /* \"contracts/Gauge.sol\":23270:23318  user.amount.mul(_accTokenPerShare).div(1e12).sub */\n      swap1\n      tag_162\n        /* \"contracts/Gauge.sol\":23270:23335  user.amount.mul(_accTokenPerShare).div(1e12).sub(user.rewardDebt) */\n      jump\t// in\n    tag_202:\n        /* \"contracts/Gauge.sol\":23263:23335  return user.amount.mul(_accTokenPerShare).div(1e12).sub(user.rewardDebt) */\n      swap7\n        /* \"contracts/Gauge.sol\":22771:23538  function pendingMax(address _user) public view returns (uint256){... */\n      swap6\n      pop\n      pop\n      pop\n      pop\n      pop\n      pop\n      jump\t// out\n        /* \"contracts/Gauge.sol\":22983:23350  if (block.number > lastRewardBlock) {... */\n    tag_196:\n        /* \"contracts/Gauge.sol\":23383:23398  lastRewardBlock */\n      sload(0x04)\n        /* \"contracts/Gauge.sol\":23367:23379  block.number */\n      number\n        /* \"contracts/Gauge.sol\":23367:23398  block.number == lastRewardBlock */\n      eq\n        /* \"contracts/Gauge.sol\":23363:23504  if (block.number == lastRewardBlock) {... */\n      iszero\n      tag_205\n      jumpi\n        /* \"contracts/Gauge.sol\":23425:23489  user.amount.mul(accTokenPerShare).div(1e12).sub(user.rewardDebt) */\n      tag_206\n        /* \"contracts/Gauge.sol\":23473:23477  user */\n      dup3\n        /* \"contracts/Gauge.sol\":23473:23488  user.rewardDebt */\n      0x01\n      add\n      sload\n        /* \"contracts/Gauge.sol\":23425:23468  user.amount.mul(accTokenPerShare).div(1e12) */\n      tag_203\n        /* \"contracts/Gauge.sol\":23463:23467  1e12 */\n      0xe8d4a51000\n        /* \"contracts/Gauge.sol\":23425:23458  user.amount.mul(accTokenPerShare) */\n      tag_134\n        /* \"contracts/Gauge.sol\":23441:23457  accTokenPerShare */\n      sload(0x03)\n        /* \"contracts/Gauge.sol\":23425:23429  user */\n      dup8\n        /* \"contracts/Gauge.sol\":23425:23436  user.amount */\n      0x00\n      add\n      sload\n        /* \"contracts/Gauge.sol\":23425:23440  user.amount.mul */\n      tag_141\n      swap1\n        /* \"contracts/Gauge.sol\":23425:23458  user.amount.mul(accTokenPerShare) */\n      swap2\n      swap1\n      0xffffffff\n      and\n      jump\t// in\n        /* \"contracts/Gauge.sol\":23425:23489  user.amount.mul(accTokenPerShare).div(1e12).sub(user.rewardDebt) */\n    tag_206:\n        /* \"contracts/Gauge.sol\":23418:23489  return user.amount.mul(accTokenPerShare).div(1e12).sub(user.rewardDebt) */\n      swap5\n        /* \"contracts/Gauge.sol\":22771:23538  function pendingMax(address _user) public view returns (uint256){... */\n      swap4\n      pop\n      pop\n      pop\n      pop\n      jump\t// out\n        /* \"contracts/Gauge.sol\":23363:23504  if (block.number == lastRewardBlock) {... */\n    tag_205:\n      pop\n        /* \"contracts/Gauge.sol\":23530:23531  0 */\n      0x00\n      swap4\n        /* \"contracts/Gauge.sol\":22771:23538  function pendingMax(address _user) public view returns (uint256){... */\n      swap3\n      pop\n      pop\n      pop\n      jump\t// out\n        /* \"contracts/Gauge.sol\":19853:20933  function deposit(uint amount, uint tokenId) public nonReentrant {... */\n    tag_87:\n        /* \"contracts/Gauge.sol\":3133:3134  2 */\n      0x02\n        /* \"contracts/Gauge.sol\":3714:3721  _status */\n      sload(0x00)\n        /* \"contracts/Gauge.sol\":3714:3733  _status != _ENTERED */\n      eq\n      iszero\n        /* \"contracts/Gauge.sol\":3706:3769  require(_status != _ENTERED, \"ReentrancyGuard: reentrant call\") */\n      tag_210\n      jumpi\n      mload(0x40)\n      shl(0xe5, 0x461bcd)\n      dup2\n      mstore\n      0x04\n      add\n      tag_153\n      swap1\n      tag_172\n      jump\t// in\n    tag_210:\n        /* \"contracts/Gauge.sol\":3133:3134  2 */\n      0x02\n        /* \"contracts/Gauge.sol\":3844:3851  _status */\n      0x00\n        /* \"contracts/Gauge.sol\":3844:3862  _status = _ENTERED */\n      sstore\n        /* \"contracts/Gauge.sol\":19935:19945  amount > 0 */\n      dup2\n        /* \"contracts/Gauge.sol\":19927:19961  require(amount > 0, \"amount is 0\") */\n      tag_213\n      jumpi\n      mload(0x40)\n      shl(0xe5, 0x461bcd)\n      dup2\n      mstore\n        /* \"#utility.yul\":4424:4426   */\n      0x20\n        /* \"contracts/Gauge.sol\":19927:19961  require(amount > 0, \"amount is 0\") */\n      0x04\n      dup3\n      add\n        /* \"#utility.yul\":4406:4427   */\n      mstore\n        /* \"#utility.yul\":4463:4465   */\n      0x0b\n        /* \"#utility.yul\":4443:4461   */\n      0x24\n      dup3\n      add\n        /* \"#utility.yul\":4436:4466   */\n      mstore\n      shl(0xac, 0x0616d6f756e74206973203)\n        /* \"#utility.yul\":4482:4500   */\n      0x44\n      dup3\n      add\n        /* \"#utility.yul\":4475:4516   */\n      mstore\n        /* \"#utility.yul\":4533:4551   */\n      0x64\n      add\n        /* \"contracts/Gauge.sol\":19927:19961  require(amount > 0, \"amount is 0\") */\n      tag_153\n        /* \"#utility.yul\":4222:4557   */\n      jump\n        /* \"contracts/Gauge.sol\":19927:19961  require(amount > 0, \"amount is 0\") */\n    tag_213:\n        /* \"contracts/Gauge.sol\":19971:19983  updatePool() */\n      tag_216\n        /* \"contracts/Gauge.sol\":19971:19981  updatePool */\n      tag_89\n        /* \"contracts/Gauge.sol\":19971:19983  updatePool() */\n      jump\t// in\n    tag_216:\n        /* \"contracts/Gauge.sol\":20026:20036  msg.sender */\n      caller\n        /* \"contracts/Gauge.sol\":19993:20014  UserInfo storage user */\n      0x00\n        /* \"contracts/Gauge.sol\":20017:20037  userInfo[msg.sender] */\n      swap1\n      dup2\n      mstore\n        /* \"contracts/Gauge.sol\":20017:20025  userInfo */\n      0x06\n        /* \"contracts/Gauge.sol\":20017:20037  userInfo[msg.sender] */\n      0x20\n      mstore\n      0x40\n      swap1\n      keccak256\n        /* \"contracts/Gauge.sol\":20051:20062  user.amount */\n      dup1\n      sload\n        /* \"contracts/Gauge.sol\":20051:20066  user.amount > 0 */\n      iszero\n        /* \"contracts/Gauge.sol\":20047:20266  if (user.amount > 0) {... */\n      tag_217\n      jumpi\n        /* \"contracts/Gauge.sol\":20082:20103  uint256 pendingAmount */\n      0x00\n        /* \"contracts/Gauge.sol\":20106:20128  pendingMax(msg.sender) */\n      tag_218\n        /* \"contracts/Gauge.sol\":20117:20127  msg.sender */\n      caller\n        /* \"contracts/Gauge.sol\":20106:20116  pendingMax */\n      tag_82\n        /* \"contracts/Gauge.sol\":20106:20128  pendingMax(msg.sender) */\n      jump\t// in\n    tag_218:\n        /* \"contracts/Gauge.sol\":20082:20128  uint256 pendingAmount = pendingMax(msg.sender) */\n      swap1\n      pop\n        /* \"contracts/Gauge.sol\":20146:20163  pendingAmount > 0 */\n      dup1\n      iszero\n        /* \"contracts/Gauge.sol\":20142:20256  if (pendingAmount > 0) {... */\n      tag_220\n      jumpi\n        /* \"contracts/Gauge.sol\":20183:20241  _safeTokenTransfer(rewardToken, msg.sender, pendingAmount) */\n      tag_220\n        /* \"contracts/Gauge.sol\":20202:20213  rewardToken */\n      immutable(\"0x51432b6f6ffff9c0d91073ef7f23a4f639ef505c3fc71bae7794b27877f54eff\")\n        /* \"contracts/Gauge.sol\":20215:20225  msg.sender */\n      caller\n        /* \"contracts/Gauge.sol\":20227:20240  pendingAmount */\n      dup4\n        /* \"contracts/Gauge.sol\":20183:20201  _safeTokenTransfer */\n      tag_180\n        /* \"contracts/Gauge.sol\":20183:20241  _safeTokenTransfer(rewardToken, msg.sender, pendingAmount) */\n      jump\t// in\n    tag_220:\n        /* \"contracts/Gauge.sol\":20068:20266  {... */\n      pop\n        /* \"contracts/Gauge.sol\":20047:20266  if (user.amount > 0) {... */\n    tag_217:\n        /* \"contracts/Gauge.sol\":20279:20289  amount > 0 */\n      dup3\n      iszero\n        /* \"contracts/Gauge.sol\":20275:20475  if (amount > 0) {... */\n      tag_221\n      jumpi\n        /* \"contracts/Gauge.sol\":20305:20378  TransferHelper.safeTransferFrom(stake, msg.sender, address(this), amount) */\n      tag_222\n        /* \"contracts/Gauge.sol\":20337:20342  stake */\n      immutable(\"0x6d7e9d25f7937a025d098651c32892e1256b8f7bcedf36aadd28cccf92a5a08d\")\n        /* \"contracts/Gauge.sol\":20344:20354  msg.sender */\n      caller\n        /* \"contracts/Gauge.sol\":20364:20368  this */\n      address\n        /* \"contracts/Gauge.sol\":20371:20377  amount */\n      dup7\n        /* \"contracts/Gauge.sol\":20305:20336  TransferHelper.safeTransferFrom */\n      tag_223\n        /* \"contracts/Gauge.sol\":20305:20378  TransferHelper.safeTransferFrom(stake, msg.sender, address(this), amount) */\n      jump\t// in\n    tag_222:\n        /* \"contracts/Gauge.sol\":20407:20413  amount */\n      dup3\n        /* \"contracts/Gauge.sol\":20392:20403  totalSupply */\n      0x05\n      0x00\n        /* \"contracts/Gauge.sol\":20392:20413  totalSupply += amount */\n      dup3\n      dup3\n      sload\n      tag_224\n      swap2\n      swap1\n      tag_149\n      jump\t// in\n    tag_224:\n      swap1\n      swap2\n      sstore\n      pop\n      pop\n        /* \"contracts/Gauge.sol\":20441:20452  user.amount */\n      dup1\n      sload\n        /* \"contracts/Gauge.sol\":20441:20464  user.amount.add(amount) */\n      tag_225\n      swap1\n        /* \"contracts/Gauge.sol\":20457:20463  amount */\n      dup5\n        /* \"contracts/Gauge.sol\":20441:20456  user.amount.add */\n      tag_167\n        /* \"contracts/Gauge.sol\":20441:20464  user.amount.add(amount) */\n      jump\t// in\n    tag_225:\n        /* \"contracts/Gauge.sol\":20427:20464  user.amount = user.amount.add(amount) */\n      dup2\n      sstore\n        /* \"contracts/Gauge.sol\":20275:20475  if (amount > 0) {... */\n    tag_221:\n        /* \"contracts/Gauge.sol\":20488:20499  tokenId > 0 */\n      dup2\n      iszero\n        /* \"contracts/Gauge.sol\":20484:20805  if (tokenId > 0) {... */\n      tag_226\n      jumpi\n        /* \"contracts/Gauge.sol\":20523:20557  IVeToken(veToken).ownerOf(tokenId) */\n      mload(0x40)\n      shl(0xe1, 0x31a9108f)\n      dup2\n      mstore\n      0x04\n      dup2\n      add\n        /* \"#utility.yul\":160:185   */\n      dup4\n      swap1\n      mstore\n        /* \"contracts/Gauge.sol\":20561:20571  msg.sender */\n      caller\n      swap1\n      sub(shl(0xa0, 0x01), 0x01)\n        /* \"contracts/Gauge.sol\":20532:20539  veToken */\n      immutable(\"0xeae3a40291c102cf85748609ff9046ea32530afca3ce058bd94a667258369fd6\")\n        /* \"contracts/Gauge.sol\":20523:20548  IVeToken(veToken).ownerOf */\n      and\n      swap1\n      0x6352211e\n      swap1\n        /* \"#utility.yul\":133:151   */\n      0x24\n      add\n        /* \"contracts/Gauge.sol\":20523:20557  IVeToken(veToken).ownerOf(tokenId) */\n      0x20\n      mload(0x40)\n      dup1\n      dup4\n      sub\n      dup2\n      dup7\n      gas\n      staticcall\n      iszero\n      dup1\n      iszero\n      tag_229\n      jumpi\n      returndatasize\n      0x00\n      dup1\n      returndatacopy\n      revert(0x00, returndatasize)\n    tag_229:\n      pop\n      pop\n      pop\n      pop\n      mload(0x40)\n      returndatasize\n      not(0x1f)\n      0x1f\n      dup3\n      add\n      and\n      dup3\n      add\n      dup1\n      0x40\n      mstore\n      pop\n      dup2\n      add\n      swap1\n      tag_230\n      swap2\n      swap1\n      tag_122\n      jump\t// in\n    tag_230:\n      sub(shl(0xa0, 0x01), 0x01)\n        /* \"contracts/Gauge.sol\":20523:20571  IVeToken(veToken).ownerOf(tokenId) == msg.sender */\n      and\n      eq\n        /* \"contracts/Gauge.sol\":20515:20572  require(IVeToken(veToken).ownerOf(tokenId) == msg.sender) */\n      tag_231\n      jumpi\n      0x00\n      dup1\n      revert\n    tag_231:\n        /* \"contracts/Gauge.sol\":20599:20609  msg.sender */\n      caller\n        /* \"contracts/Gauge.sol\":20590:20610  tokenIds[msg.sender] */\n      0x00\n      swap1\n      dup2\n      mstore\n        /* \"contracts/Gauge.sol\":20590:20598  tokenIds */\n      0x01\n        /* \"contracts/Gauge.sol\":20590:20610  tokenIds[msg.sender] */\n      0x20\n      mstore\n      0x40\n      swap1\n      keccak256\n      sload\n        /* \"contracts/Gauge.sol\":20586:20680  if (tokenIds[msg.sender] == 0) {... */\n      tag_232\n      jumpi\n        /* \"contracts/Gauge.sol\":20644:20654  msg.sender */\n      caller\n        /* \"contracts/Gauge.sol\":20635:20655  tokenIds[msg.sender] */\n      0x00\n      swap1\n      dup2\n      mstore\n        /* \"contracts/Gauge.sol\":20635:20643  tokenIds */\n      0x01\n        /* \"contracts/Gauge.sol\":20635:20655  tokenIds[msg.sender] */\n      0x20\n      mstore\n      0x40\n      swap1\n      keccak256\n        /* \"contracts/Gauge.sol\":20635:20665  tokenIds[msg.sender] = tokenId */\n      dup3\n      swap1\n      sstore\n        /* \"contracts/Gauge.sol\":20586:20680  if (tokenIds[msg.sender] == 0) {... */\n    tag_232:\n        /* \"contracts/Gauge.sol\":20710:20720  msg.sender */\n      caller\n        /* \"contracts/Gauge.sol\":20701:20721  tokenIds[msg.sender] */\n      0x00\n      swap1\n      dup2\n      mstore\n        /* \"contracts/Gauge.sol\":20701:20709  tokenIds */\n      0x01\n        /* \"contracts/Gauge.sol\":20701:20721  tokenIds[msg.sender] */\n      0x20\n      mstore\n      0x40\n      swap1\n      keccak256\n      sload\n        /* \"contracts/Gauge.sol\":20701:20732  tokenIds[msg.sender] == tokenId */\n      dup3\n      eq\n        /* \"contracts/Gauge.sol\":20693:20733  require(tokenIds[msg.sender] == tokenId) */\n      tag_233\n      jumpi\n      0x00\n      dup1\n      revert\n    tag_233:\n        /* \"contracts/Gauge.sol\":20484:20805  if (tokenId > 0) {... */\n      jump(tag_234)\n    tag_226:\n        /* \"contracts/Gauge.sol\":20783:20793  msg.sender */\n      caller\n        /* \"contracts/Gauge.sol\":20774:20794  tokenIds[msg.sender] */\n      0x00\n      swap1\n      dup2\n      mstore\n        /* \"contracts/Gauge.sol\":20774:20782  tokenIds */\n      0x01\n        /* \"contracts/Gauge.sol\":20774:20794  tokenIds[msg.sender] */\n      0x20\n      mstore\n      0x40\n      swap1\n      keccak256\n      sload\n      swap2\n      pop\n        /* \"contracts/Gauge.sol\":20484:20805  if (tokenId > 0) {... */\n    tag_234:\n        /* \"contracts/Gauge.sol\":20848:20864  accTokenPerShare */\n      sload(0x03)\n        /* \"contracts/Gauge.sol\":20832:20843  user.amount */\n      dup2\n      sload\n        /* \"contracts/Gauge.sol\":20832:20875  user.amount.mul(accTokenPerShare).div(1e12) */\n      tag_235\n      swap2\n        /* \"contracts/Gauge.sol\":20870:20874  1e12 */\n      0xe8d4a51000\n      swap2\n        /* \"contracts/Gauge.sol\":20832:20865  user.amount.mul(accTokenPerShare) */\n      tag_134\n      swap2\n        /* \"contracts/Gauge.sol\":20832:20847  user.amount.mul */\n      tag_141\n        /* \"contracts/Gauge.sol\":20832:20865  user.amount.mul(accTokenPerShare) */\n      jump\t// in\n        /* \"contracts/Gauge.sol\":20832:20875  user.amount.mul(accTokenPerShare).div(1e12) */\n    tag_235:\n        /* \"contracts/Gauge.sol\":20814:20829  user.rewardDebt */\n      0x01\n      dup3\n      add\n        /* \"contracts/Gauge.sol\":20814:20875  user.rewardDebt = user.amount.mul(accTokenPerShare).div(1e12) */\n      sstore\n        /* \"contracts/Gauge.sol\":20890:20926  Deposit(msg.sender, tokenId, amount) */\n      0x40\n      dup1\n      mload\n        /* \"#utility.yul\":758:783   */\n      dup4\n      dup2\n      mstore\n        /* \"#utility.yul\":814:816   */\n      0x20\n        /* \"#utility.yul\":799:817   */\n      dup2\n      add\n        /* \"#utility.yul\":792:826   */\n      dup6\n      swap1\n      mstore\n        /* \"contracts/Gauge.sol\":20898:20908  msg.sender */\n      caller\n      swap2\n        /* \"contracts/Gauge.sol\":20890:20926  Deposit(msg.sender, tokenId, amount) */\n      0x90890809c654f11d6e72a28fa60149770a0d11ec6c92319d6ceb2bb0a4ea1a15\n      swap2\n        /* \"#utility.yul\":731:749   */\n      add\n        /* \"contracts/Gauge.sol\":20890:20926  Deposit(msg.sender, tokenId, amount) */\n      mload(0x40)\n      dup1\n      swap2\n      sub\n      swap1\n      log2\n      pop\n      pop\n        /* \"contracts/Gauge.sol\":3090:3091  1 */\n      0x01\n        /* \"contracts/Gauge.sol\":4017:4024  _status */\n      0x00\n        /* \"contracts/Gauge.sol\":4017:4039  _status = _NOT_ENTERED */\n      sstore\n      pop\n        /* \"contracts/Gauge.sol\":19853:20933  function deposit(uint amount, uint tokenId) public nonReentrant {... */\n      jump\t// out\n        /* \"contracts/Gauge.sol\":22179:22704  function updatePool() public {... */\n    tag_89:\n        /* \"contracts/Gauge.sol\":22238:22253  lastRewardBlock */\n      sload(0x04)\n        /* \"contracts/Gauge.sol\":22222:22234  block.number */\n      number\n        /* \"contracts/Gauge.sol\":22222:22253  block.number <= lastRewardBlock */\n      gt\n        /* \"contracts/Gauge.sol\":22218:22286  if (block.number <= lastRewardBlock) {... */\n      tag_239\n      jumpi\n        /* \"contracts/Gauge.sol\":22179:22704  function updatePool() public {... */\n      jump\t// out\n        /* \"contracts/Gauge.sol\":22218:22286  if (block.number <= lastRewardBlock) {... */\n    tag_239:\n        /* \"contracts/Gauge.sol\":22300:22311  totalSupply */\n      sload(0x05)\n        /* \"contracts/Gauge.sol\":22296:22393  if (totalSupply == 0) {... */\n      tag_240\n      jumpi\n        /* \"contracts/Gauge.sol\":22350:22362  block.number */\n      number\n        /* \"contracts/Gauge.sol\":22332:22347  lastRewardBlock */\n      0x04\n        /* \"contracts/Gauge.sol\":22332:22362  lastRewardBlock = block.number */\n      sstore\n        /* \"contracts/Gauge.sol\":22179:22704  function updatePool() public {... */\n      jump\t// out\n        /* \"contracts/Gauge.sol\":22296:22393  if (totalSupply == 0) {... */\n    tag_240:\n        /* \"contracts/Gauge.sol\":22423:22424  0 */\n      0x00\n        /* \"contracts/Gauge.sol\":22406:22419  tokenPerBlock */\n      sload(0x02)\n        /* \"contracts/Gauge.sol\":22406:22424  tokenPerBlock <= 0 */\n      gt\n        /* \"contracts/Gauge.sol\":22402:22457  if (tokenPerBlock <= 0) {... */\n      tag_241\n      jumpi\n        /* \"contracts/Gauge.sol\":22179:22704  function updatePool() public {... */\n      jump\t// out\n        /* \"contracts/Gauge.sol\":22402:22457  if (tokenPerBlock <= 0) {... */\n    tag_241:\n        /* \"contracts/Gauge.sol\":22466:22477  uint256 mul */\n      0x00\n        /* \"contracts/Gauge.sol\":22480:22513  block.number.sub(lastRewardBlock) */\n      tag_242\n        /* \"contracts/Gauge.sol\":22497:22512  lastRewardBlock */\n      sload(0x04)\n        /* \"contracts/Gauge.sol\":22480:22492  block.number */\n      number\n        /* \"contracts/Gauge.sol\":22480:22496  block.number.sub */\n      tag_162\n      swap1\n        /* \"contracts/Gauge.sol\":22480:22513  block.number.sub(lastRewardBlock) */\n      swap2\n      swap1\n      0xffffffff\n      and\n      jump\t// in\n    tag_242:\n        /* \"contracts/Gauge.sol\":22466:22513  uint256 mul = block.number.sub(lastRewardBlock) */\n      swap1\n      pop\n        /* \"contracts/Gauge.sol\":22523:22542  uint256 tokenReward */\n      0x00\n        /* \"contracts/Gauge.sol\":22545:22567  tokenPerBlock.mul(mul) */\n      tag_243\n        /* \"contracts/Gauge.sol\":22563:22566  mul */\n      dup3\n        /* \"contracts/Gauge.sol\":22545:22558  tokenPerBlock */\n      sload(0x02)\n        /* \"contracts/Gauge.sol\":22545:22562  tokenPerBlock.mul */\n      tag_141\n      swap1\n        /* \"contracts/Gauge.sol\":22545:22567  tokenPerBlock.mul(mul) */\n      swap2\n      swap1\n      0xffffffff\n      and\n      jump\t// in\n    tag_243:\n        /* \"contracts/Gauge.sol\":22523:22567  uint256 tokenReward = tokenPerBlock.mul(mul) */\n      swap1\n      pop\n        /* \"contracts/Gauge.sol\":22597:22657  accTokenPerShare.add(tokenReward.mul(1e12).div(totalSupply)) */\n      tag_244\n        /* \"contracts/Gauge.sol\":22618:22656  tokenReward.mul(1e12).div(totalSupply) */\n      tag_164\n        /* \"contracts/Gauge.sol\":22644:22655  totalSupply */\n      sload(0x05)\n        /* \"contracts/Gauge.sol\":22618:22639  tokenReward.mul(1e12) */\n      tag_134\n        /* \"contracts/Gauge.sol\":22634:22638  1e12 */\n      0xe8d4a51000\n        /* \"contracts/Gauge.sol\":22618:22629  tokenReward */\n      dup6\n        /* \"contracts/Gauge.sol\":22618:22633  tokenReward.mul */\n      tag_141\n      swap1\n        /* \"contracts/Gauge.sol\":22618:22639  tokenReward.mul(1e12) */\n      swap2\n      swap1\n      0xffffffff\n      and\n      jump\t// in\n        /* \"contracts/Gauge.sol\":22597:22657  accTokenPerShare.add(tokenReward.mul(1e12).div(totalSupply)) */\n    tag_244:\n        /* \"contracts/Gauge.sol\":22578:22594  accTokenPerShare */\n      0x03\n        /* \"contracts/Gauge.sol\":22578:22657  accTokenPerShare = accTokenPerShare.add(tokenReward.mul(1e12).div(totalSupply)) */\n      sstore\n      pop\n      pop\n        /* \"contracts/Gauge.sol\":22685:22697  block.number */\n      number\n        /* \"contracts/Gauge.sol\":22667:22682  lastRewardBlock */\n      0x04\n        /* \"contracts/Gauge.sol\":22667:22697  lastRewardBlock = block.number */\n      sstore\n        /* \"contracts/Gauge.sol\":22179:22704  function updatePool() public {... */\n      jump\t// out\n        /* \"contracts/Gauge.sol\":21255:22173  function withdrawToken(uint _amount, uint tokenId) public nonReentrant {... */\n    tag_99:\n        /* \"contracts/Gauge.sol\":3133:3134  2 */\n      0x02\n        /* \"contracts/Gauge.sol\":3714:3721  _status */\n      sload(0x00)\n        /* \"contracts/Gauge.sol\":3714:3733  _status != _ENTERED */\n      eq\n      iszero\n        /* \"contracts/Gauge.sol\":3706:3769  require(_status != _ENTERED, \"ReentrancyGuard: reentrant call\") */\n      tag_248\n      jumpi\n      mload(0x40)\n      shl(0xe5, 0x461bcd)\n      dup2\n      mstore\n      0x04\n      add\n      tag_153\n      swap1\n      tag_172\n      jump\t// in\n    tag_248:\n        /* \"contracts/Gauge.sol\":3133:3134  2 */\n      0x02\n        /* \"contracts/Gauge.sol\":3844:3851  _status */\n      0x00\n        /* \"contracts/Gauge.sol\":3844:3862  _status = _ENTERED */\n      swap1\n      dup2\n      sstore\n        /* \"contracts/Gauge.sol\":21369:21379  msg.sender */\n      caller\n        /* \"contracts/Gauge.sol\":21360:21380  userInfo[msg.sender] */\n      dup2\n      mstore\n        /* \"contracts/Gauge.sol\":21360:21368  userInfo */\n      0x06\n        /* \"contracts/Gauge.sol\":21360:21380  userInfo[msg.sender] */\n      0x20\n      mstore\n      0x40\n      swap1\n      keccak256\n        /* \"contracts/Gauge.sol\":21398:21409  user.amount */\n      dup1\n      sload\n        /* \"contracts/Gauge.sol\":21398:21420  user.amount >= _amount */\n      dup4\n      gt\n      iszero\n        /* \"contracts/Gauge.sol\":21390:21447  require(user.amount >= _amount, \"withdrawSwap: not good\") */\n      tag_251\n      jumpi\n      mload(0x40)\n      shl(0xe5, 0x461bcd)\n      dup2\n      mstore\n        /* \"#utility.yul\":4764:4766   */\n      0x20\n        /* \"contracts/Gauge.sol\":21390:21447  require(user.amount >= _amount, \"withdrawSwap: not good\") */\n      0x04\n      dup3\n      add\n        /* \"#utility.yul\":4746:4767   */\n      mstore\n        /* \"#utility.yul\":4803:4805   */\n      0x16\n        /* \"#utility.yul\":4783:4801   */\n      0x24\n      dup3\n      add\n        /* \"#utility.yul\":4776:4806   */\n      mstore\n      shl(0x52, 0x1dda5d1a191c985dd4ddd85c0e881b9bdd0819dbdbd9)\n        /* \"#utility.yul\":4822:4840   */\n      0x44\n      dup3\n      add\n        /* \"#utility.yul\":4815:4867   */\n      mstore\n        /* \"#utility.yul\":4884:4902   */\n      0x64\n      add\n        /* \"contracts/Gauge.sol\":21390:21447  require(user.amount >= _amount, \"withdrawSwap: not good\") */\n      tag_153\n        /* \"#utility.yul\":4562:4908   */\n      jump\n        /* \"contracts/Gauge.sol\":21390:21447  require(user.amount >= _amount, \"withdrawSwap: not good\") */\n    tag_251:\n        /* \"contracts/Gauge.sol\":21457:21469  updatePool() */\n      tag_254\n        /* \"contracts/Gauge.sol\":21457:21467  updatePool */\n      tag_89\n        /* \"contracts/Gauge.sol\":21457:21469  updatePool() */\n      jump\t// in\n    tag_254:\n        /* \"contracts/Gauge.sol\":21479:21500  uint256 pendingAmount */\n      0x00\n        /* \"contracts/Gauge.sol\":21503:21525  pendingMax(msg.sender) */\n      tag_255\n        /* \"contracts/Gauge.sol\":21514:21524  msg.sender */\n      caller\n        /* \"contracts/Gauge.sol\":21503:21513  pendingMax */\n      tag_82\n        /* \"contracts/Gauge.sol\":21503:21525  pendingMax(msg.sender) */\n      jump\t// in\n    tag_255:\n        /* \"contracts/Gauge.sol\":21479:21525  uint256 pendingAmount = pendingMax(msg.sender) */\n      swap1\n      pop\n        /* \"contracts/Gauge.sol\":21539:21556  pendingAmount > 0 */\n      dup1\n      iszero\n        /* \"contracts/Gauge.sol\":21535:21641  if (pendingAmount > 0) {... */\n      tag_257\n      jumpi\n        /* \"contracts/Gauge.sol\":21572:21630  _safeTokenTransfer(rewardToken, msg.sender, pendingAmount) */\n      tag_257\n        /* \"contracts/Gauge.sol\":21591:21602  rewardToken */\n      immutable(\"0x51432b6f6ffff9c0d91073ef7f23a4f639ef505c3fc71bae7794b27877f54eff\")\n        /* \"contracts/Gauge.sol\":21604:21614  msg.sender */\n      caller\n        /* \"contracts/Gauge.sol\":21616:21629  pendingAmount */\n      dup4\n        /* \"contracts/Gauge.sol\":21572:21590  _safeTokenTransfer */\n      tag_180\n        /* \"contracts/Gauge.sol\":21572:21630  _safeTokenTransfer(rewardToken, msg.sender, pendingAmount) */\n      jump\t// in\n    tag_257:\n        /* \"contracts/Gauge.sol\":21654:21665  _amount > 0 */\n      dup4\n      iszero\n        /* \"contracts/Gauge.sol\":21650:21851  if (_amount > 0) {... */\n      tag_261\n      jumpi\n        /* \"contracts/Gauge.sol\":21695:21706  user.amount */\n      dup2\n      sload\n        /* \"contracts/Gauge.sol\":21695:21719  user.amount.sub(_amount) */\n      tag_259\n      swap1\n        /* \"contracts/Gauge.sol\":21711:21718  _amount */\n      dup6\n        /* \"contracts/Gauge.sol\":21695:21710  user.amount.sub */\n      tag_162\n        /* \"contracts/Gauge.sol\":21695:21719  user.amount.sub(_amount) */\n      jump\t// in\n    tag_259:\n        /* \"contracts/Gauge.sol\":21681:21719  user.amount = user.amount.sub(_amount) */\n      dup3\n      sstore\n        /* \"contracts/Gauge.sol\":21747:21758  totalSupply */\n      sload(0x05)\n        /* \"contracts/Gauge.sol\":21747:21771  totalSupply.sub(_amount) */\n      tag_260\n      swap1\n        /* \"contracts/Gauge.sol\":21763:21770  _amount */\n      dup6\n        /* \"contracts/Gauge.sol\":21747:21762  totalSupply.sub */\n      tag_162\n        /* \"contracts/Gauge.sol\":21747:21771  totalSupply.sub(_amount) */\n      jump\t// in\n    tag_260:\n        /* \"contracts/Gauge.sol\":21733:21744  totalSupply */\n      0x05\n        /* \"contracts/Gauge.sol\":21733:21771  totalSupply = totalSupply.sub(_amount) */\n      sstore\n        /* \"contracts/Gauge.sol\":21785:21840  TransferHelper.safeTransfer(stake, msg.sender, _amount) */\n      tag_261\n        /* \"contracts/Gauge.sol\":21813:21818  stake */\n      immutable(\"0x6d7e9d25f7937a025d098651c32892e1256b8f7bcedf36aadd28cccf92a5a08d\")\n        /* \"contracts/Gauge.sol\":21820:21830  msg.sender */\n      caller\n        /* \"contracts/Gauge.sol\":21832:21839  _amount */\n      dup7\n        /* \"contracts/Gauge.sol\":21785:21812  TransferHelper.safeTransfer */\n      tag_262\n        /* \"contracts/Gauge.sol\":21785:21840  TransferHelper.safeTransfer(stake, msg.sender, _amount) */\n      jump\t// in\n    tag_261:\n        /* \"contracts/Gauge.sol\":21895:21911  accTokenPerShare */\n      sload(0x03)\n        /* \"contracts/Gauge.sol\":21879:21890  user.amount */\n      dup3\n      sload\n        /* \"contracts/Gauge.sol\":21879:21922  user.amount.mul(accTokenPerShare).div(1e12) */\n      tag_263\n      swap2\n        /* \"contracts/Gauge.sol\":21917:21921  1e12 */\n      0xe8d4a51000\n      swap2\n        /* \"contracts/Gauge.sol\":21879:21912  user.amount.mul(accTokenPerShare) */\n      tag_134\n      swap2\n        /* \"contracts/Gauge.sol\":21879:21894  user.amount.mul */\n      tag_141\n        /* \"contracts/Gauge.sol\":21879:21912  user.amount.mul(accTokenPerShare) */\n      jump\t// in\n        /* \"contracts/Gauge.sol\":21879:21922  user.amount.mul(accTokenPerShare).div(1e12) */\n    tag_263:\n        /* \"contracts/Gauge.sol\":21861:21876  user.rewardDebt */\n      0x01\n      dup4\n      add\n        /* \"contracts/Gauge.sol\":21861:21922  user.rewardDebt = user.amount.mul(accTokenPerShare).div(1e12) */\n      sstore\n        /* \"contracts/Gauge.sol\":21937:21948  tokenId > 0 */\n      dup3\n      iszero\n        /* \"contracts/Gauge.sol\":21933:22114  if (tokenId > 0) {... */\n      tag_265\n      jumpi\n        /* \"contracts/Gauge.sol\":21992:22002  msg.sender */\n      caller\n        /* \"contracts/Gauge.sol\":21983:22003  tokenIds[msg.sender] */\n      0x00\n      swap1\n      dup2\n      mstore\n        /* \"contracts/Gauge.sol\":21983:21991  tokenIds */\n      0x01\n        /* \"contracts/Gauge.sol\":21983:22003  tokenIds[msg.sender] */\n      0x20\n      mstore\n      0x40\n      swap1\n      keccak256\n      sload\n        /* \"contracts/Gauge.sol\":21972:22003  tokenId == tokenIds[msg.sender] */\n      dup4\n      eq\n        /* \"contracts/Gauge.sol\":21964:22004  require(tokenId == tokenIds[msg.sender]) */\n      tag_266\n      jumpi\n      0x00\n      dup1\n      revert\n    tag_266:\n        /* \"contracts/Gauge.sol\":22027:22037  msg.sender */\n      caller\n        /* \"contracts/Gauge.sol\":22041:22042  0 */\n      0x00\n        /* \"contracts/Gauge.sol\":22018:22038  tokenIds[msg.sender] */\n      swap1\n      dup2\n      mstore\n        /* \"contracts/Gauge.sol\":22018:22026  tokenIds */\n      0x01\n        /* \"contracts/Gauge.sol\":22018:22038  tokenIds[msg.sender] */\n      0x20\n      mstore\n      0x40\n      dup2\n      keccak256\n        /* \"contracts/Gauge.sol\":22018:22042  tokenIds[msg.sender] = 0 */\n      sstore\n        /* \"contracts/Gauge.sol\":21933:22114  if (tokenId > 0) {... */\n      jump(tag_267)\n    tag_265:\n        /* \"contracts/Gauge.sol\":22092:22102  msg.sender */\n      caller\n        /* \"contracts/Gauge.sol\":22083:22103  tokenIds[msg.sender] */\n      0x00\n      swap1\n      dup2\n      mstore\n        /* \"contracts/Gauge.sol\":22083:22091  tokenIds */\n      0x01\n        /* \"contracts/Gauge.sol\":22083:22103  tokenIds[msg.sender] */\n      0x20\n      mstore\n      0x40\n      swap1\n      keccak256\n      sload\n      swap3\n      pop\n        /* \"contracts/Gauge.sol\":21933:22114  if (tokenId > 0) {... */\n    tag_267:\n        /* \"contracts/Gauge.sol\":22128:22166  Withdraw(msg.sender, tokenId, _amount) */\n      0x40\n      dup1\n      mload\n        /* \"#utility.yul\":758:783   */\n      dup5\n      dup2\n      mstore\n        /* \"#utility.yul\":814:816   */\n      0x20\n        /* \"#utility.yul\":799:817   */\n      dup2\n      add\n        /* \"#utility.yul\":792:826   */\n      dup7\n      swap1\n      mstore\n        /* \"contracts/Gauge.sol\":22137:22147  msg.sender */\n      caller\n      swap2\n        /* \"contracts/Gauge.sol\":22128:22166  Withdraw(msg.sender, tokenId, _amount) */\n      0xf279e6a1f5e320cca91135676d9cb6e44ca8a08c0b88342bcdb1144f6511b568\n      swap2\n        /* \"#utility.yul\":731:749   */\n      add\n        /* \"contracts/Gauge.sol\":22128:22166  Withdraw(msg.sender, tokenId, _amount) */\n      mload(0x40)\n      dup1\n      swap2\n      sub\n      swap1\n      log2\n      pop\n      pop\n        /* \"contracts/Gauge.sol\":3090:3091  1 */\n      0x01\n        /* \"contracts/Gauge.sol\":4017:4024  _status */\n      0x00\n        /* \"contracts/Gauge.sol\":4017:4039  _status = _NOT_ENTERED */\n      sstore\n      pop\n      pop\n        /* \"contracts/Gauge.sol\":21255:22173  function withdrawToken(uint _amount, uint tokenId) public nonReentrant {... */\n      jump\t// out\n        /* \"contracts/Gauge.sol\":10336:10432  function mul(uint256 a, uint256 b) internal pure returns (uint256) {... */\n    tag_141:\n        /* \"contracts/Gauge.sol\":10394:10401  uint256 */\n      0x00\n        /* \"contracts/Gauge.sol\":10420:10425  a * b */\n      tag_105\n        /* \"contracts/Gauge.sol\":10424:10425  b */\n      dup3\n        /* \"contracts/Gauge.sol\":10420:10421  a */\n      dup5\n        /* \"contracts/Gauge.sol\":10420:10425  a * b */\n      tag_110\n      jump\t// in\n        /* \"contracts/Gauge.sol\":10721:10817  function div(uint256 a, uint256 b) internal pure returns (uint256) {... */\n    tag_142:\n        /* \"contracts/Gauge.sol\":10779:10786  uint256 */\n      0x00\n        /* \"contracts/Gauge.sol\":10805:10810  a / b */\n      tag_105\n        /* \"contracts/Gauge.sol\":10809:10810  b */\n      dup3\n        /* \"contracts/Gauge.sol\":10805:10806  a */\n      dup5\n        /* \"contracts/Gauge.sol\":10805:10810  a / b */\n      tag_112\n      jump\t// in\n        /* \"contracts/Gauge.sol\":583:687  function min(uint256 a, uint256 b) internal pure returns (uint256) {... */\n    tag_150:\n        /* \"contracts/Gauge.sol\":641:648  uint256 */\n      0x00\n        /* \"contracts/Gauge.sol\":671:672  b */\n      dup2\n        /* \"contracts/Gauge.sol\":667:668  a */\n      dup4\n        /* \"contracts/Gauge.sol\":667:672  a < b */\n      lt\n        /* \"contracts/Gauge.sol\":667:680  a < b ? a : b */\n      tag_274\n      jumpi\n        /* \"contracts/Gauge.sol\":679:680  b */\n      dup2\n        /* \"contracts/Gauge.sol\":667:680  a < b ? a : b */\n      jump(tag_105)\n    tag_274:\n      pop\n        /* \"contracts/Gauge.sol\":675:676  a */\n      swap1\n      swap2\n        /* \"contracts/Gauge.sol\":583:687  function min(uint256 a, uint256 b) internal pure returns (uint256) {... */\n      swap1\n      pop\n      jump\t// out\n        /* \"contracts/Gauge.sol\":9993:10089  function sub(uint256 a, uint256 b) internal pure returns (uint256) {... */\n    tag_162:\n        /* \"contracts/Gauge.sol\":10051:10058  uint256 */\n      0x00\n        /* \"contracts/Gauge.sol\":10077:10082  a - b */\n      tag_105\n        /* \"contracts/Gauge.sol\":10081:10082  b */\n      dup3\n        /* \"contracts/Gauge.sol\":10077:10078  a */\n      dup5\n        /* \"contracts/Gauge.sol\":10077:10082  a - b */\n      tag_278\n      jump\t// in\n        /* \"contracts/Gauge.sol\":9626:9722  function add(uint256 a, uint256 b) internal pure returns (uint256) {... */\n    tag_167:\n        /* \"contracts/Gauge.sol\":9684:9691  uint256 */\n      0x00\n        /* \"contracts/Gauge.sol\":9710:9715  a + b */\n      tag_105\n        /* \"contracts/Gauge.sol\":9714:9715  b */\n      dup3\n        /* \"contracts/Gauge.sol\":9710:9711  a */\n      dup5\n        /* \"contracts/Gauge.sol\":9710:9715  a + b */\n      tag_149\n      jump\t// in\n        /* \"contracts/Gauge.sol\":18065:18448  function _safeTokenTransfer(address token, address account, uint256 _amount) internal {... */\n    tag_180:\n        /* \"contracts/Gauge.sol\":18161:18199  _safeTransferFromToken(token, _amount) */\n      tag_282\n        /* \"contracts/Gauge.sol\":18184:18189  token */\n      dup4\n        /* \"contracts/Gauge.sol\":18191:18198  _amount */\n      dup3\n        /* \"contracts/Gauge.sol\":18161:18183  _safeTransferFromToken */\n      tag_283\n        /* \"contracts/Gauge.sol\":18161:18199  _safeTransferFromToken(token, _amount) */\n      jump\t// in\n    tag_282:\n        /* \"contracts/Gauge.sol\":18223:18261  IERC20(token).balanceOf(address(this)) */\n      mload(0x40)\n      shl(0xe0, 0x70a08231)\n      dup2\n      mstore\n        /* \"contracts/Gauge.sol\":18255:18259  this */\n      address\n        /* \"contracts/Gauge.sol\":18223:18261  IERC20(token).balanceOf(address(this)) */\n      0x04\n      dup3\n      add\n        /* \"#utility.yul\":1168:1219   */\n      mstore\n        /* \"contracts/Gauge.sol\":18209:18220  uint256 bal */\n      0x00\n      swap1\n      sub(shl(0xa0, 0x01), 0x01)\n        /* \"contracts/Gauge.sol\":18223:18246  IERC20(token).balanceOf */\n      dup6\n      and\n      swap1\n      0x70a08231\n      swap1\n        /* \"#utility.yul\":1141:1159   */\n      0x24\n      add\n        /* \"contracts/Gauge.sol\":18223:18261  IERC20(token).balanceOf(address(this)) */\n      0x20\n      mload(0x40)\n      dup1\n      dup4\n      sub\n      dup2\n      dup7\n      gas\n      staticcall\n      iszero\n      dup1\n      iszero\n      tag_286\n      jumpi\n      returndatasize\n      0x00\n      dup1\n      returndatacopy\n      revert(0x00, returndatasize)\n    tag_286:\n      pop\n      pop\n      pop\n      pop\n      mload(0x40)\n      returndatasize\n      not(0x1f)\n      0x1f\n      dup3\n      add\n      and\n      dup3\n      add\n      dup1\n      0x40\n      mstore\n      pop\n      dup2\n      add\n      swap1\n      tag_287\n      swap2\n      swap1\n      tag_117\n      jump\t// in\n    tag_287:\n        /* \"contracts/Gauge.sol\":18209:18261  uint256 bal = IERC20(token).balanceOf(address(this)) */\n      swap1\n      pop\n        /* \"contracts/Gauge.sol\":18285:18288  bal */\n      dup1\n        /* \"contracts/Gauge.sol\":18275:18282  _amount */\n      dup3\n        /* \"contracts/Gauge.sol\":18275:18288  _amount > bal */\n      gt\n        /* \"contracts/Gauge.sol\":18271:18328  if (_amount > bal) {... */\n      iszero\n      tag_288\n      jumpi\n        /* \"contracts/Gauge.sol\":18314:18317  bal */\n      dup1\n        /* \"contracts/Gauge.sol\":18304:18317  _amount = bal */\n      swap2\n      pop\n        /* \"contracts/Gauge.sol\":18271:18328  if (_amount > bal) {... */\n    tag_288:\n        /* \"contracts/Gauge.sol\":18347:18379  derivedBalance(account, _amount) */\n      tag_289\n        /* \"contracts/Gauge.sol\":18362:18369  account */\n      dup4\n        /* \"contracts/Gauge.sol\":18371:18378  _amount */\n      dup4\n        /* \"contracts/Gauge.sol\":18347:18361  derivedBalance */\n      tag_60\n        /* \"contracts/Gauge.sol\":18347:18379  derivedBalance(account, _amount) */\n      jump\t// in\n    tag_289:\n        /* \"contracts/Gauge.sol\":18337:18379  _amount = derivedBalance(account, _amount) */\n      swap2\n      pop\n        /* \"contracts/Gauge.sol\":18389:18441  TransferHelper.safeTransfer(token, account, _amount) */\n      tag_290\n        /* \"contracts/Gauge.sol\":18417:18422  token */\n      dup5\n        /* \"contracts/Gauge.sol\":18424:18431  account */\n      dup5\n        /* \"contracts/Gauge.sol\":18433:18440  _amount */\n      dup5\n        /* \"contracts/Gauge.sol\":18389:18416  TransferHelper.safeTransfer */\n      tag_262\n        /* \"contracts/Gauge.sol\":18389:18441  TransferHelper.safeTransfer(token, account, _amount) */\n      jump\t// in\n    tag_290:\n        /* \"contracts/Gauge.sol\":18151:18448  {... */\n      pop\n        /* \"contracts/Gauge.sol\":18065:18448  function _safeTokenTransfer(address token, address account, uint256 _amount) internal {... */\n      pop\n      pop\n      pop\n      jump\t// out\n        /* \"contracts/Gauge.sol\":15552:15950  function safeTransferFrom(address token, address from, address to, uint value) internal {... */\n    tag_223:\n        /* \"contracts/Gauge.sol\":15775:15826  abi.encodeWithSelector(0x23b872dd, from, to, value) */\n      0x40\n      dup1\n      mload\n      sub(shl(0xa0, 0x01), 0x01)\n        /* \"#utility.yul\":5301:5316   */\n      dup6\n      dup2\n      and\n        /* \"contracts/Gauge.sol\":15775:15826  abi.encodeWithSelector(0x23b872dd, from, to, value) */\n      0x24\n      dup4\n      add\n        /* \"#utility.yul\":5283:5317   */\n      mstore\n        /* \"#utility.yul\":5353:5368   */\n      dup5\n      dup2\n      and\n        /* \"#utility.yul\":5333:5351   */\n      0x44\n      dup4\n      add\n        /* \"#utility.yul\":5326:5369   */\n      mstore\n        /* \"#utility.yul\":5385:5403   */\n      0x64\n      dup1\n      dup4\n      add\n        /* \"#utility.yul\":5378:5412   */\n      dup6\n      swap1\n      mstore\n        /* \"contracts/Gauge.sol\":15775:15826  abi.encodeWithSelector(0x23b872dd, from, to, value) */\n      dup4\n      mload\n      dup1\n      dup5\n      sub\n      swap1\n      swap2\n      add\n      dup2\n      mstore\n        /* \"#utility.yul\":5218:5236   */\n      0x84\n      swap1\n      swap3\n      add\n        /* \"contracts/Gauge.sol\":15775:15826  abi.encodeWithSelector(0x23b872dd, from, to, value) */\n      dup4\n      mstore\n      0x20\n      dup3\n      add\n      dup1\n      mload\n      sub(shl(0xe0, 0x01), 0x01)\n      and\n      shl(0xe0, 0x23b872dd)\n      or\n      swap1\n      mstore\n        /* \"contracts/Gauge.sol\":15764:15827  token.call(abi.encodeWithSelector(0x23b872dd, from, to, value)) */\n      swap2\n      mload\n      0x00\n      swap3\n      dup4\n      swap3\n        /* \"contracts/Gauge.sol\":15764:15774  token.call */\n      swap1\n      dup9\n      and\n      swap2\n        /* \"contracts/Gauge.sol\":15764:15827  token.call(abi.encodeWithSelector(0x23b872dd, from, to, value)) */\n      tag_294\n      swap2\n        /* \"contracts/Gauge.sol\":15775:15826  abi.encodeWithSelector(0x23b872dd, from, to, value) */\n      swap1\n        /* \"contracts/Gauge.sol\":15764:15827  token.call(abi.encodeWithSelector(0x23b872dd, from, to, value)) */\n      tag_295\n      jump\t// in\n    tag_294:\n      0x00\n      mload(0x40)\n      dup1\n      dup4\n      sub\n      dup2\n      0x00\n      dup7\n      gas\n      call\n      swap2\n      pop\n      pop\n      returndatasize\n      dup1\n      0x00\n      dup2\n      eq\n      tag_298\n      jumpi\n      mload(0x40)\n      swap2\n      pop\n      and(add(returndatasize, 0x3f), not(0x1f))\n      dup3\n      add\n      0x40\n      mstore\n      returndatasize\n      dup3\n      mstore\n      returndatasize\n      0x00\n      0x20\n      dup5\n      add\n      returndatacopy\n      jump(tag_297)\n    tag_298:\n      0x60\n      swap2\n      pop\n    tag_297:\n      pop\n        /* \"contracts/Gauge.sol\":15728:15827  (bool success, bytes memory data) = token.call(abi.encodeWithSelector(0x23b872dd, from, to, value)) */\n      swap2\n      pop\n      swap2\n      pop\n        /* \"contracts/Gauge.sol\":15845:15852  success */\n      dup2\n        /* \"contracts/Gauge.sol\":15845:15902  success && (data.length == 0 || abi.decode(data, (bool))) */\n      dup1\n      iszero\n      tag_301\n      jumpi\n      pop\n        /* \"contracts/Gauge.sol\":15857:15868  data.length */\n      dup1\n      mload\n        /* \"contracts/Gauge.sol\":15857:15873  data.length == 0 */\n      iszero\n      dup1\n        /* \"contracts/Gauge.sol\":15857:15901  data.length == 0 || abi.decode(data, (bool)) */\n      tag_301\n      jumpi\n      pop\n        /* \"contracts/Gauge.sol\":15888:15892  data */\n      dup1\n        /* \"contracts/Gauge.sol\":15877:15901  abi.decode(data, (bool)) */\n      dup1\n      0x20\n      add\n      swap1\n      mload\n      dup2\n      add\n      swap1\n      tag_301\n      swap2\n      swap1\n      tag_302\n      jump\t// in\n    tag_301:\n        /* \"contracts/Gauge.sol\":15837:15943  require(success && (data.length == 0 || abi.decode(data, (bool))), 'TransferHelper: TRANSFER_FROM_FAILED') */\n      tag_303\n      jumpi\n      mload(0x40)\n      shl(0xe5, 0x461bcd)\n      dup2\n      mstore\n        /* \"#utility.yul\":6338:6340   */\n      0x20\n        /* \"contracts/Gauge.sol\":15837:15943  require(success && (data.length == 0 || abi.decode(data, (bool))), 'TransferHelper: TRANSFER_FROM_FAILED') */\n      0x04\n      dup3\n      add\n        /* \"#utility.yul\":6320:6341   */\n      mstore\n        /* \"#utility.yul\":6377:6379   */\n      0x24\n        /* \"#utility.yul\":6357:6375   */\n      dup1\n      dup3\n      add\n        /* \"#utility.yul\":6350:6380   */\n      mstore\n        /* \"#utility.yul\":6416:6450   */\n      0x5472616e7366657248656c7065723a205452414e534645525f46524f4d5f4641\n        /* \"#utility.yul\":6396:6414   */\n      0x44\n      dup3\n      add\n        /* \"#utility.yul\":6389:6451   */\n      mstore\n      shl(0xe2, 0x12531151)\n        /* \"#utility.yul\":6467:6485   */\n      0x64\n      dup3\n      add\n        /* \"#utility.yul\":6460:6494   */\n      mstore\n        /* \"#utility.yul\":6511:6530   */\n      0x84\n      add\n        /* \"contracts/Gauge.sol\":15837:15943  require(success && (data.length == 0 || abi.decode(data, (bool))), 'TransferHelper: TRANSFER_FROM_FAILED') */\n      tag_153\n        /* \"#utility.yul\":6136:6536   */\n      jump\n        /* \"contracts/Gauge.sol\":15837:15943  require(success && (data.length == 0 || abi.decode(data, (bool))), 'TransferHelper: TRANSFER_FROM_FAILED') */\n    tag_303:\n        /* \"contracts/Gauge.sol\":15640:15950  {... */\n      pop\n      pop\n        /* \"contracts/Gauge.sol\":15552:15950  function safeTransferFrom(address token, address from, address to, uint value) internal {... */\n      pop\n      pop\n      pop\n      pop\n      jump\t// out\n        /* \"contracts/Gauge.sol\":15189:15546  function safeTransfer(address token, address to, uint value) internal {... */\n    tag_262:\n        /* \"contracts/Gauge.sol\":15382:15427  abi.encodeWithSelector(0xa9059cbb, to, value) */\n      0x40\n      dup1\n      mload\n      sub(shl(0xa0, 0x01), 0x01)\n        /* \"#utility.yul\":6733:6765   */\n      dup5\n      dup2\n      and\n        /* \"contracts/Gauge.sol\":15382:15427  abi.encodeWithSelector(0xa9059cbb, to, value) */\n      0x24\n      dup4\n      add\n        /* \"#utility.yul\":6715:6766   */\n      mstore\n        /* \"#utility.yul\":6782:6800   */\n      0x44\n      dup1\n      dup4\n      add\n        /* \"#utility.yul\":6775:6809   */\n      dup6\n      swap1\n      mstore\n        /* \"contracts/Gauge.sol\":15382:15427  abi.encodeWithSelector(0xa9059cbb, to, value) */\n      dup4\n      mload\n      dup1\n      dup5\n      sub\n      swap1\n      swap2\n      add\n      dup2\n      mstore\n        /* \"#utility.yul\":6688:6706   */\n      0x64\n      swap1\n      swap3\n      add\n        /* \"contracts/Gauge.sol\":15382:15427  abi.encodeWithSelector(0xa9059cbb, to, value) */\n      dup4\n      mstore\n      0x20\n      dup3\n      add\n      dup1\n      mload\n      sub(shl(0xe0, 0x01), 0x01)\n      and\n      shl(0xe0, 0xa9059cbb)\n      or\n      swap1\n      mstore\n        /* \"contracts/Gauge.sol\":15371:15428  token.call(abi.encodeWithSelector(0xa9059cbb, to, value)) */\n      swap2\n      mload\n      0x00\n      swap3\n      dup4\n      swap3\n        /* \"contracts/Gauge.sol\":15371:15381  token.call */\n      swap1\n      dup8\n      and\n      swap2\n        /* \"contracts/Gauge.sol\":15371:15428  token.call(abi.encodeWithSelector(0xa9059cbb, to, value)) */\n      tag_309\n      swap2\n        /* \"contracts/Gauge.sol\":15382:15427  abi.encodeWithSelector(0xa9059cbb, to, value) */\n      swap1\n        /* \"contracts/Gauge.sol\":15371:15428  token.call(abi.encodeWithSelector(0xa9059cbb, to, value)) */\n      tag_295\n      jump\t// in\n    tag_309:\n      0x00\n      mload(0x40)\n      dup1\n      dup4\n      sub\n      dup2\n      0x00\n      dup7\n      gas\n      call\n      swap2\n      pop\n      pop\n      returndatasize\n      dup1\n      0x00\n      dup2\n      eq\n      tag_312\n      jumpi\n      mload(0x40)\n      swap2\n      pop\n      and(add(returndatasize, 0x3f), not(0x1f))\n      dup3\n      add\n      0x40\n      mstore\n      returndatasize\n      dup3\n      mstore\n      returndatasize\n      0x00\n      0x20\n      dup5\n      add\n      returndatacopy\n      jump(tag_311)\n    tag_312:\n      0x60\n      swap2\n      pop\n    tag_311:\n      pop\n        /* \"contracts/Gauge.sol\":15335:15428  (bool success, bytes memory data) = token.call(abi.encodeWithSelector(0xa9059cbb, to, value)) */\n      swap2\n      pop\n      swap2\n      pop\n        /* \"contracts/Gauge.sol\":15446:15453  success */\n      dup2\n        /* \"contracts/Gauge.sol\":15446:15503  success && (data.length == 0 || abi.decode(data, (bool))) */\n      dup1\n      iszero\n      tag_315\n      jumpi\n      pop\n        /* \"contracts/Gauge.sol\":15458:15469  data.length */\n      dup1\n      mload\n        /* \"contracts/Gauge.sol\":15458:15474  data.length == 0 */\n      iszero\n      dup1\n        /* \"contracts/Gauge.sol\":15458:15502  data.length == 0 || abi.decode(data, (bool)) */\n      tag_315\n      jumpi\n      pop\n        /* \"contracts/Gauge.sol\":15489:15493  data */\n      dup1\n        /* \"contracts/Gauge.sol\":15478:15502  abi.decode(data, (bool)) */\n      dup1\n      0x20\n      add\n      swap1\n      mload\n      dup2\n      add\n      swap1\n      tag_315\n      swap2\n      swap1\n      tag_302\n      jump\t// in\n    tag_315:\n        /* \"contracts/Gauge.sol\":15438:15539  require(success && (data.length == 0 || abi.decode(data, (bool))), 'TransferHelper: TRANSFER_FAILED') */\n      tag_316\n      jumpi\n      mload(0x40)\n      shl(0xe5, 0x461bcd)\n      dup2\n      mstore\n        /* \"#utility.yul\":7022:7024   */\n      0x20\n        /* \"contracts/Gauge.sol\":15438:15539  require(success && (data.length == 0 || abi.decode(data, (bool))), 'TransferHelper: TRANSFER_FAILED') */\n      0x04\n      dup3\n      add\n        /* \"#utility.yul\":7004:7025   */\n      mstore\n        /* \"#utility.yul\":7061:7063   */\n      0x1f\n        /* \"#utility.yul\":7041:7059   */\n      0x24\n      dup3\n      add\n        /* \"#utility.yul\":7034:7064   */\n      mstore\n        /* \"#utility.yul\":7100:7133   */\n      0x5472616e7366657248656c7065723a205452414e534645525f4641494c454400\n        /* \"#utility.yul\":7080:7098   */\n      0x44\n      dup3\n      add\n        /* \"#utility.yul\":7073:7134   */\n      mstore\n        /* \"#utility.yul\":7151:7169   */\n      0x64\n      add\n        /* \"contracts/Gauge.sol\":15438:15539  require(success && (data.length == 0 || abi.decode(data, (bool))), 'TransferHelper: TRANSFER_FAILED') */\n      tag_153\n        /* \"#utility.yul\":6820:7175   */\n      jump\n        /* \"contracts/Gauge.sol\":15438:15539  require(success && (data.length == 0 || abi.decode(data, (bool))), 'TransferHelper: TRANSFER_FAILED') */\n    tag_316:\n        /* \"contracts/Gauge.sol\":15259:15546  {... */\n      pop\n      pop\n        /* \"contracts/Gauge.sol\":15189:15546  function safeTransfer(address token, address to, uint value) internal {... */\n      pop\n      pop\n      pop\n      jump\t// out\n        /* \"contracts/Gauge.sol\":17796:18059  function _safeTransferFromToken(address token, uint256 _amount) private {... */\n    tag_283:\n        /* \"contracts/Gauge.sol\":17892:17930  IERC20(token).balanceOf(address(this)) */\n      mload(0x40)\n      shl(0xe0, 0x70a08231)\n      dup2\n      mstore\n        /* \"contracts/Gauge.sol\":17924:17928  this */\n      address\n        /* \"contracts/Gauge.sol\":17892:17930  IERC20(token).balanceOf(address(this)) */\n      0x04\n      dup3\n      add\n        /* \"#utility.yul\":1168:1219   */\n      mstore\n        /* \"contracts/Gauge.sol\":17878:17889  uint256 bal */\n      0x00\n      swap1\n      sub(shl(0xa0, 0x01), 0x01)\n        /* \"contracts/Gauge.sol\":17892:17915  IERC20(token).balanceOf */\n      dup5\n      and\n      swap1\n      0x70a08231\n      swap1\n        /* \"#utility.yul\":1141:1159   */\n      0x24\n      add\n        /* \"contracts/Gauge.sol\":17892:17930  IERC20(token).balanceOf(address(this)) */\n      0x20\n      mload(0x40)\n      dup1\n      dup4\n      sub\n      dup2\n      dup7\n      gas\n      staticcall\n      iszero\n      dup1\n      iszero\n      tag_322\n      jumpi\n      returndatasize\n      0x00\n      dup1\n      returndatacopy\n      revert(0x00, returndatasize)\n    tag_322:\n      pop\n      pop\n      pop\n      pop\n      mload(0x40)\n      returndatasize\n      not(0x1f)\n      0x1f\n      dup3\n      add\n      and\n      dup3\n      add\n      dup1\n      0x40\n      mstore\n      pop\n      dup2\n      add\n      swap1\n      tag_323\n      swap2\n      swap1\n      tag_117\n      jump\t// in\n    tag_323:\n        /* \"contracts/Gauge.sol\":17878:17930  uint256 bal = IERC20(token).balanceOf(address(this)) */\n      swap1\n      pop\n        /* \"contracts/Gauge.sol\":17950:17957  _amount */\n      dup2\n        /* \"contracts/Gauge.sol\":17944:17947  bal */\n      dup2\n        /* \"contracts/Gauge.sol\":17944:17957  bal < _amount */\n      lt\n        /* \"contracts/Gauge.sol\":17940:18053  if (bal < _amount) {... */\n      iszero\n      tag_325\n      jumpi\n        /* \"contracts/Gauge.sol\":17973:18042  TransferHelper.safeTransferFrom(token, boost, address(this), _amount) */\n      tag_325\n        /* \"contracts/Gauge.sol\":18005:18010  token */\n      dup4\n        /* \"contracts/Gauge.sol\":18012:18017  boost */\n      immutable(\"0xba317e1d5aa05b5861702d06e2202816a8a6452d32b68558d200060c06eac391\")\n        /* \"contracts/Gauge.sol\":18027:18031  this */\n      address\n        /* \"contracts/Gauge.sol\":18034:18041  _amount */\n      dup6\n        /* \"contracts/Gauge.sol\":17973:18004  TransferHelper.safeTransferFrom */\n      tag_223\n        /* \"contracts/Gauge.sol\":17973:18042  TransferHelper.safeTransferFrom(token, boost, address(this), _amount) */\n      jump\t// in\n    tag_325:\n        /* \"contracts/Gauge.sol\":17868:18059  {... */\n      pop\n        /* \"contracts/Gauge.sol\":17796:18059  function _safeTransferFromToken(address token, uint256 _amount) private {... */\n      pop\n      pop\n      jump\t// out\n        /* \"#utility.yul\":196:327   */\n    tag_326:\n      sub(shl(0xa0, 0x01), 0x01)\n        /* \"#utility.yul\":271:302   */\n      dup2\n      and\n        /* \"#utility.yul\":261:303   */\n      dup2\n      eq\n        /* \"#utility.yul\":251:321   */\n      tag_189\n      jumpi\n        /* \"#utility.yul\":317:318   */\n      0x00\n        /* \"#utility.yul\":314:315   */\n      dup1\n        /* \"#utility.yul\":307:319   */\n      revert\n        /* \"#utility.yul\":332:579   */\n    tag_33:\n        /* \"#utility.yul\":391:397   */\n      0x00\n        /* \"#utility.yul\":444:446   */\n      0x20\n        /* \"#utility.yul\":432:441   */\n      dup3\n        /* \"#utility.yul\":423:430   */\n      dup5\n        /* \"#utility.yul\":419:442   */\n      sub\n        /* \"#utility.yul\":415:447   */\n      slt\n        /* \"#utility.yul\":412:464   */\n      iszero\n      tag_333\n      jumpi\n        /* \"#utility.yul\":460:461   */\n      0x00\n        /* \"#utility.yul\":457:458   */\n      dup1\n        /* \"#utility.yul\":450:462   */\n      revert\n        /* \"#utility.yul\":412:464   */\n    tag_333:\n        /* \"#utility.yul\":499:508   */\n      dup2\n        /* \"#utility.yul\":486:509   */\n      calldataload\n        /* \"#utility.yul\":518:549   */\n      tag_105\n        /* \"#utility.yul\":543:548   */\n      dup2\n        /* \"#utility.yul\":518:549   */\n      tag_326\n      jump\t// in\n        /* \"#utility.yul\":837:1017   */\n    tag_39:\n        /* \"#utility.yul\":896:902   */\n      0x00\n        /* \"#utility.yul\":949:951   */\n      0x20\n        /* \"#utility.yul\":937:946   */\n      dup3\n        /* \"#utility.yul\":928:935   */\n      dup5\n        /* \"#utility.yul\":924:947   */\n      sub\n        /* \"#utility.yul\":920:952   */\n      slt\n        /* \"#utility.yul\":917:969   */\n      iszero\n      tag_337\n      jumpi\n        /* \"#utility.yul\":965:966   */\n      0x00\n        /* \"#utility.yul\":962:963   */\n      dup1\n        /* \"#utility.yul\":955:967   */\n      revert\n        /* \"#utility.yul\":917:969   */\n    tag_337:\n      pop\n        /* \"#utility.yul\":988:1011   */\n      calldataload\n      swap2\n        /* \"#utility.yul\":837:1017   */\n      swap1\n      pop\n      jump\t// out\n        /* \"#utility.yul\":1230:1545   */\n    tag_59:\n        /* \"#utility.yul\":1298:1304   */\n      0x00\n        /* \"#utility.yul\":1306:1312   */\n      dup1\n        /* \"#utility.yul\":1359:1361   */\n      0x40\n        /* \"#utility.yul\":1347:1356   */\n      dup4\n        /* \"#utility.yul\":1338:1345   */\n      dup6\n        /* \"#utility.yul\":1334:1357   */\n      sub\n        /* \"#utility.yul\":1330:1362   */\n      slt\n        /* \"#utility.yul\":1327:1379   */\n      iszero\n      tag_340\n      jumpi\n        /* \"#utility.yul\":1375:1376   */\n      0x00\n        /* \"#utility.yul\":1372:1373   */\n      dup1\n        /* \"#utility.yul\":1365:1377   */\n      revert\n        /* \"#utility.yul\":1327:1379   */\n    tag_340:\n        /* \"#utility.yul\":1414:1423   */\n      dup3\n        /* \"#utility.yul\":1401:1424   */\n      calldataload\n        /* \"#utility.yul\":1433:1464   */\n      tag_341\n        /* \"#utility.yul\":1458:1463   */\n      dup2\n        /* \"#utility.yul\":1433:1464   */\n      tag_326\n      jump\t// in\n    tag_341:\n        /* \"#utility.yul\":1483:1488   */\n      swap5\n        /* \"#utility.yul\":1535:1537   */\n      0x20\n        /* \"#utility.yul\":1520:1538   */\n      swap4\n      swap1\n      swap4\n      add\n        /* \"#utility.yul\":1507:1539   */\n      calldataload\n      swap4\n      pop\n      pop\n      pop\n        /* \"#utility.yul\":1230:1545   */\n      jump\t// out\n        /* \"#utility.yul\":1550:1798   */\n    tag_86:\n        /* \"#utility.yul\":1618:1624   */\n      0x00\n        /* \"#utility.yul\":1626:1632   */\n      dup1\n        /* \"#utility.yul\":1679:1681   */\n      0x40\n        /* \"#utility.yul\":1667:1676   */\n      dup4\n        /* \"#utility.yul\":1658:1665   */\n      dup6\n        /* \"#utility.yul\":1654:1677   */\n      sub\n        /* \"#utility.yul\":1650:1682   */\n      slt\n        /* \"#utility.yul\":1647:1699   */\n      iszero\n      tag_343\n      jumpi\n        /* \"#utility.yul\":1695:1696   */\n      0x00\n        /* \"#utility.yul\":1692:1693   */\n      dup1\n        /* \"#utility.yul\":1685:1697   */\n      revert\n        /* \"#utility.yul\":1647:1699   */\n    tag_343:\n      pop\n      pop\n        /* \"#utility.yul\":1718:1741   */\n      dup1\n      calldataload\n      swap3\n        /* \"#utility.yul\":1788:1790   */\n      0x20\n        /* \"#utility.yul\":1773:1791   */\n      swap1\n      swap2\n      add\n        /* \"#utility.yul\":1760:1792   */\n      calldataload\n      swap2\n      pop\n        /* \"#utility.yul\":1550:1798   */\n      jump\t// out\n        /* \"#utility.yul\":1803:1930   */\n    tag_327:\n        /* \"#utility.yul\":1864:1874   */\n      0x4e487b71\n        /* \"#utility.yul\":1859:1862   */\n      0xe0\n        /* \"#utility.yul\":1855:1875   */\n      shl\n        /* \"#utility.yul\":1852:1853   */\n      0x00\n        /* \"#utility.yul\":1845:1876   */\n      mstore\n        /* \"#utility.yul\":1895:1899   */\n      0x11\n        /* \"#utility.yul\":1892:1893   */\n      0x04\n        /* \"#utility.yul\":1885:1900   */\n      mstore\n        /* \"#utility.yul\":1919:1923   */\n      0x24\n        /* \"#utility.yul\":1916:1917   */\n      0x00\n        /* \"#utility.yul\":1909:1924   */\n      revert\n        /* \"#utility.yul\":1935:2103   */\n    tag_110:\n        /* \"#utility.yul\":1975:1982   */\n      0x00\n        /* \"#utility.yul\":2041:2042   */\n      dup2\n        /* \"#utility.yul\":2037:2038   */\n      0x00\n        /* \"#utility.yul\":2033:2039   */\n      not\n        /* \"#utility.yul\":2029:2043   */\n      div\n        /* \"#utility.yul\":2026:2027   */\n      dup4\n        /* \"#utility.yul\":2023:2044   */\n      gt\n        /* \"#utility.yul\":2018:2019   */\n      dup3\n        /* \"#utility.yul\":2011:2020   */\n      iszero\n        /* \"#utility.yul\":2004:2021   */\n      iszero\n        /* \"#utility.yul\":2000:2045   */\n      and\n        /* \"#utility.yul\":1997:2068   */\n      iszero\n      tag_347\n      jumpi\n        /* \"#utility.yul\":2048:2066   */\n      tag_347\n      tag_327\n      jump\t// in\n    tag_347:\n      pop\n        /* \"#utility.yul\":2088:2097   */\n      mul\n      swap1\n        /* \"#utility.yul\":1935:2103   */\n      jump\t// out\n        /* \"#utility.yul\":2108:2325   */\n    tag_112:\n        /* \"#utility.yul\":2148:2149   */\n      0x00\n        /* \"#utility.yul\":2174:2175   */\n      dup3\n        /* \"#utility.yul\":2164:2296   */\n      tag_349\n      jumpi\n        /* \"#utility.yul\":2218:2228   */\n      0x4e487b71\n        /* \"#utility.yul\":2213:2216   */\n      0xe0\n        /* \"#utility.yul\":2209:2229   */\n      shl\n        /* \"#utility.yul\":2206:2207   */\n      0x00\n        /* \"#utility.yul\":2199:2230   */\n      mstore\n        /* \"#utility.yul\":2253:2257   */\n      0x12\n        /* \"#utility.yul\":2250:2251   */\n      0x04\n        /* \"#utility.yul\":2243:2258   */\n      mstore\n        /* \"#utility.yul\":2281:2285   */\n      0x24\n        /* \"#utility.yul\":2278:2279   */\n      0x00\n        /* \"#utility.yul\":2271:2286   */\n      revert\n        /* \"#utility.yul\":2164:2296   */\n    tag_349:\n      pop\n        /* \"#utility.yul\":2310:2319   */\n      div\n      swap1\n        /* \"#utility.yul\":2108:2325   */\n      jump\t// out\n        /* \"#utility.yul\":2330:2514   */\n    tag_117:\n        /* \"#utility.yul\":2400:2406   */\n      0x00\n        /* \"#utility.yul\":2453:2455   */\n      0x20\n        /* \"#utility.yul\":2441:2450   */\n      dup3\n        /* \"#utility.yul\":2432:2439   */\n      dup5\n        /* \"#utility.yul\":2428:2451   */\n      sub\n        /* \"#utility.yul\":2424:2456   */\n      slt\n        /* \"#utility.yul\":2421:2473   */\n      iszero\n      tag_351\n      jumpi\n        /* \"#utility.yul\":2469:2470   */\n      0x00\n        /* \"#utility.yul\":2466:2467   */\n      dup1\n        /* \"#utility.yul\":2459:2471   */\n      revert\n        /* \"#utility.yul\":2421:2473   */\n    tag_351:\n      pop\n        /* \"#utility.yul\":2492:2508   */\n      mload\n      swap2\n        /* \"#utility.yul\":2330:2514   */\n      swap1\n      pop\n      jump\t// out\n        /* \"#utility.yul\":2519:2770   */\n    tag_122:\n        /* \"#utility.yul\":2589:2595   */\n      0x00\n        /* \"#utility.yul\":2642:2644   */\n      0x20\n        /* \"#utility.yul\":2630:2639   */\n      dup3\n        /* \"#utility.yul\":2621:2628   */\n      dup5\n        /* \"#utility.yul\":2617:2640   */\n      sub\n        /* \"#utility.yul\":2613:2645   */\n      slt\n        /* \"#utility.yul\":2610:2662   */\n      iszero\n      tag_353\n      jumpi\n        /* \"#utility.yul\":2658:2659   */\n      0x00\n        /* \"#utility.yul\":2655:2656   */\n      dup1\n        /* \"#utility.yul\":2648:2660   */\n      revert\n        /* \"#utility.yul\":2610:2662   */\n    tag_353:\n        /* \"#utility.yul\":2690:2699   */\n      dup2\n        /* \"#utility.yul\":2684:2700   */\n      mload\n        /* \"#utility.yul\":2709:2740   */\n      tag_105\n        /* \"#utility.yul\":2734:2739   */\n      dup2\n        /* \"#utility.yul\":2709:2740   */\n      tag_326\n      jump\t// in\n        /* \"#utility.yul\":3054:3182   */\n    tag_149:\n        /* \"#utility.yul\":3094:3097   */\n      0x00\n        /* \"#utility.yul\":3125:3126   */\n      dup3\n        /* \"#utility.yul\":3121:3127   */\n      not\n        /* \"#utility.yul\":3118:3119   */\n      dup3\n        /* \"#utility.yul\":3115:3128   */\n      gt\n        /* \"#utility.yul\":3112:3151   */\n      iszero\n      tag_358\n      jumpi\n        /* \"#utility.yul\":3131:3149   */\n      tag_358\n      tag_327\n      jump\t// in\n    tag_358:\n      pop\n        /* \"#utility.yul\":3167:3176   */\n      add\n      swap1\n        /* \"#utility.yul\":3054:3182   */\n      jump\t// out\n        /* \"#utility.yul\":3862:4217   */\n    tag_172:\n        /* \"#utility.yul\":4064:4066   */\n      0x20\n        /* \"#utility.yul\":4046:4067   */\n      dup1\n      dup3\n      mstore\n        /* \"#utility.yul\":4103:4105   */\n      0x1f\n        /* \"#utility.yul\":4083:4101   */\n      swap1\n      dup3\n      add\n        /* \"#utility.yul\":4076:4106   */\n      mstore\n        /* \"#utility.yul\":4142:4175   */\n      0x5265656e7472616e637947756172643a207265656e7472616e742063616c6c00\n        /* \"#utility.yul\":4137:4139   */\n      0x40\n        /* \"#utility.yul\":4122:4140   */\n      dup3\n      add\n        /* \"#utility.yul\":4115:4176   */\n      mstore\n        /* \"#utility.yul\":4208:4210   */\n      0x60\n        /* \"#utility.yul\":4193:4211   */\n      add\n      swap1\n        /* \"#utility.yul\":3862:4217   */\n      jump\t// out\n        /* \"#utility.yul\":4913:5038   */\n    tag_278:\n        /* \"#utility.yul\":4953:4957   */\n      0x00\n        /* \"#utility.yul\":4981:4982   */\n      dup3\n        /* \"#utility.yul\":4978:4979   */\n      dup3\n        /* \"#utility.yul\":4975:4983   */\n      lt\n        /* \"#utility.yul\":4972:5006   */\n      iszero\n      tag_366\n      jumpi\n        /* \"#utility.yul\":4986:5004   */\n      tag_366\n      tag_327\n      jump\t// in\n    tag_366:\n      pop\n        /* \"#utility.yul\":5023:5032   */\n      sub\n      swap1\n        /* \"#utility.yul\":4913:5038   */\n      jump\t// out\n        /* \"#utility.yul\":5423:5849   */\n    tag_295:\n        /* \"#utility.yul\":5552:5555   */\n      0x00\n        /* \"#utility.yul\":5590:5596   */\n      dup3\n        /* \"#utility.yul\":5584:5597   */\n      mload\n        /* \"#utility.yul\":5615:5616   */\n      0x00\n        /* \"#utility.yul\":5625:5754   */\n    tag_369:\n        /* \"#utility.yul\":5639:5645   */\n      dup2\n        /* \"#utility.yul\":5636:5637   */\n      dup2\n        /* \"#utility.yul\":5633:5646   */\n      lt\n        /* \"#utility.yul\":5625:5754   */\n      iszero\n      tag_371\n      jumpi\n        /* \"#utility.yul\":5737:5741   */\n      0x20\n        /* \"#utility.yul\":5721:5735   */\n      dup2\n      dup7\n      add\n        /* \"#utility.yul\":5717:5742   */\n      dup2\n      add\n        /* \"#utility.yul\":5711:5743   */\n      mload\n        /* \"#utility.yul\":5698:5709   */\n      dup6\n      dup4\n      add\n        /* \"#utility.yul\":5691:5744   */\n      mstore\n        /* \"#utility.yul\":5654:5666   */\n      add\n        /* \"#utility.yul\":5625:5754   */\n      jump(tag_369)\n    tag_371:\n        /* \"#utility.yul\":5772:5778   */\n      dup2\n        /* \"#utility.yul\":5769:5770   */\n      dup2\n        /* \"#utility.yul\":5766:5779   */\n      gt\n        /* \"#utility.yul\":5763:5811   */\n      iszero\n      tag_372\n      jumpi\n        /* \"#utility.yul\":5807:5808   */\n      0x00\n        /* \"#utility.yul\":5798:5804   */\n      dup3\n        /* \"#utility.yul\":5793:5796   */\n      dup6\n        /* \"#utility.yul\":5789:5805   */\n      add\n        /* \"#utility.yul\":5782:5809   */\n      mstore\n        /* \"#utility.yul\":5763:5811   */\n    tag_372:\n      pop\n        /* \"#utility.yul\":5827:5843   */\n      swap2\n      swap1\n      swap2\n      add\n      swap3\n        /* \"#utility.yul\":5423:5849   */\n      swap2\n      pop\n      pop\n      jump\t// out\n        /* \"#utility.yul\":5854:6131   */\n    tag_302:\n        /* \"#utility.yul\":5921:5927   */\n      0x00\n        /* \"#utility.yul\":5974:5976   */\n      0x20\n        /* \"#utility.yul\":5962:5971   */\n      dup3\n        /* \"#utility.yul\":5953:5960   */\n      dup5\n        /* \"#utility.yul\":5949:5972   */\n      sub\n        /* \"#utility.yul\":5945:5977   */\n      slt\n        /* \"#utility.yul\":5942:5994   */\n      iszero\n      tag_374\n      jumpi\n        /* \"#utility.yul\":5990:5991   */\n      0x00\n        /* \"#utility.yul\":5987:5988   */\n      dup1\n        /* \"#utility.yul\":5980:5992   */\n      revert\n        /* \"#utility.yul\":5942:5994   */\n    tag_374:\n        /* \"#utility.yul\":6022:6031   */\n      dup2\n        /* \"#utility.yul\":6016:6032   */\n      mload\n        /* \"#utility.yul\":6075:6080   */\n      dup1\n        /* \"#utility.yul\":6068:6081   */\n      iszero\n        /* \"#utility.yul\":6061:6082   */\n      iszero\n        /* \"#utility.yul\":6054:6059   */\n      dup2\n        /* \"#utility.yul\":6051:6083   */\n      eq\n        /* \"#utility.yul\":6041:6101   */\n      tag_105\n      jumpi\n        /* \"#utility.yul\":6097:6098   */\n      0x00\n        /* \"#utility.yul\":6094:6095   */\n      dup1\n        /* \"#utility.yul\":6087:6099   */\n      revert\n\n    auxdata: 0xa2646970667358221220b38ec98d81cbfa29259154b412fd72fd8bfd59145d6eab4cd0a156048453aa6264736f6c634300080a0033\n}\n",
				"bytecode": {
					"linkReferences": {},
					"object": "6101006040523480156200001257600080fd5b50604051620018d7380380620018d783398101604081905262000035916200007a565b60016000556001600160a01b0393841660805291831660a052821660c0521660e052620000d7565b80516001600160a01b03811681146200007557600080fd5b919050565b600080600080608085870312156200009157600080fd5b6200009c856200005d565b9350620000ac602086016200005d565b9250620000bc604086016200005d565b9150620000cc606086016200005d565b905092959194509250565b60805160a05160c05160e05161173a6200019d600039600081816102eb015281816109c3015281816109f901528181610d1f0152611022015260008181610254015281816104290152818161056001528181610677015281816107a20152818161096101528181610a7d01526114f00152600081816101ed015281816104af015281816105f70152610dc50152600081816101ae015281816103f9015281816106a70152818161080301528181610b0401528181610d520152611071015261173a6000f3fe608060405234801561001057600080fd5b50600436106101375760003560e01c8063a66f42c0116100b8578063c73b399b1161007c578063c73b399b146102b8578063e2bbb158146102cb578063e3161ddd146102de578063f7c618c1146102e6578063fc97a3031461030d578063fdb483c71461032d57600080fd5b8063a66f42c01461024f578063a9f8d18114610276578063b66503cf1461027f578063c00007b014610292578063c6f678bd146102a557600080fd5b80634198709a116100ff5780634198709a1461020f5780635eebea2014610218578063853828b61461022b578063892f4805146102335780638f6629151461024657600080fd5b806318160ddd1461013c5780631959a002146101585780632e1a7d4d146101945780633a4b66f1146101a95780633b92eb23146101e8575b600080fd5b61014560055481565b6040519081526020015b60405180910390f35b61017f610166366004611530565b6006602052600090815260409020805460019091015482565b6040805192835260208301919091520161014f565b6101a76101a236600461154d565b610340565b005b6101d07f000000000000000000000000000000000000000000000000000000000000000081565b6040516001600160a01b03909116815260200161014f565b6101d07f000000000000000000000000000000000000000000000000000000000000000081565b61014560025481565b610145610226366004611530565b610377565b6101a7610396565b610145610241366004611566565b6103b1565b61014560035481565b6101d07f000000000000000000000000000000000000000000000000000000000000000081565b61014560045481565b6101a761028d366004611566565b610797565b6101a76102a0366004611530565b61091c565b6101a76102b336600461154d565b610aeb565b6101456102c6366004611530565b610b80565b6101a76102d9366004611592565b610c86565b6101a7610f00565b6101d07f000000000000000000000000000000000000000000000000000000000000000081565b61014561031b366004611530565b60016020526000908152604090205481565b6101a761033b366004611592565b610f82565b336000908152600660205260408120548214156103695750336000908152600160205260409020545b6103738282610f82565b5050565b60008061038383610b80565b905061038f83826103b1565b9392505050565b336000908152600660205260409020546103af90610340565b565b6001600160a01b0382166000908152600160205260408120548160646103d885601e6115ca565b6103e291906115e9565b6040516353e5642360e11b81526001600160a01b037f00000000000000000000000000000000000000000000000000000000000000008116600483015291925060009182917f00000000000000000000000000000000000000000000000000000000000000009091169063a7cac84690602401602060405180830381865afa158015610472573d6000803e3d6000fd5b505050506040513d601f19601f82011682018060405250810190610496919061160b565b6040516331a9108f60e11b8152600481018690529091507f00000000000000000000000000000000000000000000000000000000000000006001600160a01b031690636352211e90602401602060405180830381865afa1580156104fe573d6000803e3d6000fd5b505050506040513d601f19601f820116820180604052508101906105229190611624565b6001600160a01b0316876001600160a01b03161480156105425750600081115b1561077957604051631e7a4e0960e21b8152600481018590526000907f00000000000000000000000000000000000000000000000000000000000000006001600160a01b0316906379e9382490602401602060405180830381865afa1580156105af573d6000803e3d6000fd5b505050506040513d601f19601f820116820180604052508101906105d3919061160b565b6040516339f890b560e21b8152600481018790529091506000906001600160a01b037f0000000000000000000000000000000000000000000000000000000000000000169063e7e242d490602401602060405180830381865afa15801561063e573d6000803e3d6000fd5b505050506040513d601f19601f82011682018060405250810190610662919061160b565b90506107428261073c8361073664e8d4a510007f00000000000000000000000000000000000000000000000000000000000000006001600160a01b031663d23254b48d7f00000000000000000000000000000000000000000000000000000000000000006040518363ffffffff1660e01b81526004016106f59291909182526001600160a01b0316602082015260400190565b602060405180830381865afa158015610712573d6000803e3d6000fd5b505050506040513d601f19601f82011682018060405250810190610736919061160b565b90611144565b90611150565b93506064838560055461075591906115ca565b61075f91906115e9565b61076a9060466115ca565b61077491906115e9565b935050505b61078c6107868385611641565b8761115c565b979650505050505050565b336001600160a01b037f000000000000000000000000000000000000000000000000000000000000000016146108015760405162461bcd60e51b815260206004820152600a6024820152691bdb9b1e48189bdbdcdd60b21b60448201526064015b60405180910390fd5b7f00000000000000000000000000000000000000000000000000000000000000006001600160a01b0316826001600160a01b0316141561086e5760405162461bcd60e51b81526020600482015260086024820152676e6f207374616b6560c01b60448201526064016107f8565b600454431161087b575050565b6002819055600554156108d857600061089f6004544361117290919063ffffffff16565b90506108cf6108c660055461073c64e8d4a51000610736868861114490919063ffffffff16565b6003549061117e565b60035550436004555b6040518181526001600160a01b0383169033907ff70d5c697de7ea828df48e5c4573cb2194c659f1901f70110c52b066dcf508269060200160405180910390a35050565b6002600054141561093f5760405162461bcd60e51b81526004016107f890611659565b6002600055336001600160a01b03821614806109835750336001600160a01b037f000000000000000000000000000000000000000000000000000000000000000016145b61098c57600080fd5b610994610f00565b6001600160a01b0381166000908152600660205260408120906109b683610b80565b90508015610a4a576109e97f0000000000000000000000000000000000000000000000000000000000000000848361118a565b6040518181526001600160a01b037f0000000000000000000000000000000000000000000000000000000000000000169033907f9aa05b3d70a9e3e2f004f039648839560576334fb45c81f91b6db03ad9e2efc99060200160405180910390a35b6003548254610a639164e8d4a510009161073c91611144565b60018301556040516363453ae160e01b81523060048201527f00000000000000000000000000000000000000000000000000000000000000006001600160a01b0316906363453ae190602401600060405180830381600087803b158015610ac957600080fd5b505af1158015610add573d6000803e3d6000fd5b505060016000555050505050565b6040516370a0823160e01b8152336004820152610b7d907f00000000000000000000000000000000000000000000000000000000000000006001600160a01b0316906370a0823190602401602060405180830381865afa158015610b53573d6000803e3d6000fd5b505050506040513d601f19601f82011682018060405250810190610b77919061160b565b82610c86565b50565b6001600160a01b0381166000908152600660205260408120600354815415610c7c57600454431115610c40576000610bc36004544361117290919063ffffffff16565b90506000610bdc8260025461114490919063ffffffff16565b9050610c06610bff60055461073c64e8d4a510008561114490919063ffffffff16565b849061117e565b9250610c368460010154610c3064e8d4a5100061073c87896000015461114490919063ffffffff16565b90611172565b9695505050505050565b600454431415610c7c57610c748260010154610c3064e8d4a5100061073c600354876000015461114490919063ffffffff16565b949350505050565b5060009392505050565b60026000541415610ca95760405162461bcd60e51b81526004016107f890611659565b600260005581610ce95760405162461bcd60e51b815260206004820152600b60248201526a0616d6f756e7420697320360ac1b60448201526064016107f8565b610cf1610f00565b336000908152600660205260409020805415610d47576000610d1233610b80565b90508015610d4557610d457f0000000000000000000000000000000000000000000000000000000000000000338361118a565b505b8215610d9f57610d797f000000000000000000000000000000000000000000000000000000000000000033308661122a565b8260056000828254610d8b9190611641565b90915550508054610d9c908461117e565b81555b8115610e8a576040516331a9108f60e11b81526004810183905233906001600160a01b037f00000000000000000000000000000000000000000000000000000000000000001690636352211e90602401602060405180830381865afa158015610e0c573d6000803e3d6000fd5b505050506040513d601f19601f82011682018060405250810190610e309190611624565b6001600160a01b031614610e4357600080fd5b33600090815260016020526040902054610e6a573360009081526001602052604090208290555b336000908152600160205260409020548214610e8557600080fd5b610e9d565b3360009081526001602052604090205491505b6003548154610eb69164e8d4a510009161073c91611144565b6001820155604080518381526020810185905233917f90890809c654f11d6e72a28fa60149770a0d11ec6c92319d6ceb2bb0a4ea1a15910160405180910390a25050600160005550565b6004544311610f0b57565b600554610f185743600455565b600060025411610f2457565b6000610f3b6004544361117290919063ffffffff16565b90506000610f548260025461114490919063ffffffff16565b9050610f776108c660055461073c64e8d4a510008561114490919063ffffffff16565b600355505043600455565b60026000541415610fa55760405162461bcd60e51b81526004016107f890611659565b6002600090815533815260066020526040902080548311156110025760405162461bcd60e51b81526020600482015260166024820152751dda5d1a191c985dd4ddd85c0e881b9bdd0819dbdbd960521b60448201526064016107f8565b61100a610f00565b600061101533610b80565b90508015611048576110487f0000000000000000000000000000000000000000000000000000000000000000338361118a565b831561109757815461105a9085611172565b82556005546110699085611172565b6005556110977f0000000000000000000000000000000000000000000000000000000000000000338661135a565b60035482546110b09164e8d4a510009161073c91611144565b600183015582156110eb573360009081526001602052604090205483146110d657600080fd5b336000908152600160205260408120556110fe565b3360009081526001602052604090205492505b604080518481526020810186905233917ff279e6a1f5e320cca91135676d9cb6e44ca8a08c0b88342bcdb1144f6511b568910160405180910390a2505060016000555050565b600061038f82846115ca565b600061038f82846115e9565b600081831061116b578161038f565b5090919050565b600061038f8284611690565b600061038f8284611641565b6111948382611475565b6040516370a0823160e01b81523060048201526000906001600160a01b038516906370a0823190602401602060405180830381865afa1580156111db573d6000803e3d6000fd5b505050506040513d601f19601f820116820180604052508101906111ff919061160b565b90508082111561120d578091505b61121783836103b1565b915061122484848461135a565b50505050565b604080516001600160a01b0385811660248301528481166044830152606480830185905283518084039091018152608490920183526020820180516001600160e01b03166323b872dd60e01b179052915160009283929088169161128e91906116a7565b6000604051808303816000865af19150503d80600081146112cb576040519150601f19603f3d011682016040523d82523d6000602084013e6112d0565b606091505b50915091508180156112fa5750805115806112fa5750808060200190518101906112fa91906116e2565b6113525760405162461bcd60e51b8152602060048201526024808201527f5472616e7366657248656c7065723a205452414e534645525f46524f4d5f46416044820152631253115160e21b60648201526084016107f8565b505050505050565b604080516001600160a01b038481166024830152604480830185905283518084039091018152606490920183526020820180516001600160e01b031663a9059cbb60e01b17905291516000928392908716916113b691906116a7565b6000604051808303816000865af19150503d80600081146113f3576040519150601f19603f3d011682016040523d82523d6000602084013e6113f8565b606091505b509150915081801561142257508051158061142257508080602001905181019061142291906116e2565b61146e5760405162461bcd60e51b815260206004820152601f60248201527f5472616e7366657248656c7065723a205452414e534645525f4641494c45440060448201526064016107f8565b5050505050565b6040516370a0823160e01b81523060048201526000906001600160a01b038416906370a0823190602401602060405180830381865afa1580156114bc573d6000803e3d6000fd5b505050506040513d601f19601f820116820180604052508101906114e0919061160b565b90508181101561151657611516837f0000000000000000000000000000000000000000000000000000000000000000308561122a565b505050565b6001600160a01b0381168114610b7d57600080fd5b60006020828403121561154257600080fd5b813561038f8161151b565b60006020828403121561155f57600080fd5b5035919050565b6000806040838503121561157957600080fd5b82356115848161151b565b946020939093013593505050565b600080604083850312156115a557600080fd5b50508035926020909101359150565b634e487b7160e01b600052601160045260246000fd5b60008160001904831182151516156115e4576115e46115b4565b500290565b60008261160657634e487b7160e01b600052601260045260246000fd5b500490565b60006020828403121561161d57600080fd5b5051919050565b60006020828403121561163657600080fd5b815161038f8161151b565b60008219821115611654576116546115b4565b500190565b6020808252601f908201527f5265656e7472616e637947756172643a207265656e7472616e742063616c6c00604082015260600190565b6000828210156116a2576116a26115b4565b500390565b6000825160005b818110156116c857602081860181015185830152016116ae565b818111156116d7576000828501525b509190910192915050565b6000602082840312156116f457600080fd5b8151801515811461038f57600080fdfea2646970667358221220b38ec98d81cbfa29259154b412fd72fd8bfd59145d6eab4cd0a156048453aa6264736f6c634300080a0033",
					"opcodes": "PUSH2 0x100 PUSH1 0x40 MSTORE CALLVALUE DUP1 ISZERO PUSH3 0x12 JUMPI PUSH1 0x0 DUP1 REVERT JUMPDEST POP PUSH1 0x40 MLOAD PUSH3 0x18D7 CODESIZE SUB DUP1 PUSH3 0x18D7 DUP4 CODECOPY DUP2 ADD PUSH1 0x40 DUP2 SWAP1 MSTORE PUSH3 0x35 SWAP2 PUSH3 0x7A JUMP JUMPDEST PUSH1 0x1 PUSH1 0x0 SSTORE PUSH1 0x1 PUSH1 0x1 PUSH1 0xA0 SHL SUB SWAP4 DUP5 AND PUSH1 0x80 MSTORE SWAP2 DUP4 AND PUSH1 0xA0 MSTORE DUP3 AND PUSH1 0xC0 MSTORE AND PUSH1 0xE0 MSTORE PUSH3 0xD7 JUMP JUMPDEST DUP1 MLOAD PUSH1 0x1 PUSH1 0x1 PUSH1 0xA0 SHL SUB DUP2 AND DUP2 EQ PUSH3 0x75 JUMPI PUSH1 0x0 DUP1 REVERT JUMPDEST SWAP2 SWAP1 POP JUMP JUMPDEST PUSH1 0x0 DUP1 PUSH1 0x0 DUP1 PUSH1 0x80 DUP6 DUP8 SUB SLT ISZERO PUSH3 0x91 JUMPI PUSH1 0x0 DUP1 REVERT JUMPDEST PUSH3 0x9C DUP6 PUSH3 0x5D JUMP JUMPDEST SWAP4 POP PUSH3 0xAC PUSH1 0x20 DUP7 ADD PUSH3 0x5D JUMP JUMPDEST SWAP3 POP PUSH3 0xBC PUSH1 0x40 DUP7 ADD PUSH3 0x5D JUMP JUMPDEST SWAP2 POP PUSH3 0xCC PUSH1 0x60 DUP7 ADD PUSH3 0x5D JUMP JUMPDEST SWAP1 POP SWAP3 SWAP6 SWAP2 SWAP5 POP SWAP3 POP JUMP JUMPDEST PUSH1 0x80 MLOAD PUSH1 0xA0 MLOAD PUSH1 0xC0 MLOAD PUSH1 0xE0 MLOAD PUSH2 0x173A PUSH3 0x19D PUSH1 0x0 CODECOPY PUSH1 0x0 DUP2 DUP2 PUSH2 0x2EB ADD MSTORE DUP2 DUP2 PUSH2 0x9C3 ADD MSTORE DUP2 DUP2 PUSH2 0x9F9 ADD MSTORE DUP2 DUP2 PUSH2 0xD1F ADD MSTORE PUSH2 0x1022 ADD MSTORE PUSH1 0x0 DUP2 DUP2 PUSH2 0x254 ADD MSTORE DUP2 DUP2 PUSH2 0x429 ADD MSTORE DUP2 DUP2 PUSH2 0x560 ADD MSTORE DUP2 DUP2 PUSH2 0x677 ADD MSTORE DUP2 DUP2 PUSH2 0x7A2 ADD MSTORE DUP2 DUP2 PUSH2 0x961 ADD MSTORE DUP2 DUP2 PUSH2 0xA7D ADD MSTORE PUSH2 0x14F0 ADD MSTORE PUSH1 0x0 DUP2 DUP2 PUSH2 0x1ED ADD MSTORE DUP2 DUP2 PUSH2 0x4AF ADD MSTORE DUP2 DUP2 PUSH2 0x5F7 ADD MSTORE PUSH2 0xDC5 ADD MSTORE PUSH1 0x0 DUP2 DUP2 PUSH2 0x1AE ADD MSTORE DUP2 DUP2 PUSH2 0x3F9 ADD MSTORE DUP2 DUP2 PUSH2 0x6A7 ADD MSTORE DUP2 DUP2 PUSH2 0x803 ADD MSTORE DUP2 DUP2 PUSH2 0xB04 ADD MSTORE DUP2 DUP2 PUSH2 0xD52 ADD MSTORE PUSH2 0x1071 ADD MSTORE PUSH2 0x173A PUSH1 0x0 RETURN INVALID PUSH1 0x80 PUSH1 0x40 MSTORE CALLVALUE DUP1 ISZERO PUSH2 0x10 JUMPI PUSH1 0x0 DUP1 REVERT JUMPDEST POP PUSH1 0x4 CALLDATASIZE LT PUSH2 0x137 JUMPI PUSH1 0x0 CALLDATALOAD PUSH1 0xE0 SHR DUP1 PUSH4 0xA66F42C0 GT PUSH2 0xB8 JUMPI DUP1 PUSH4 0xC73B399B GT PUSH2 0x7C JUMPI DUP1 PUSH4 0xC73B399B EQ PUSH2 0x2B8 JUMPI DUP1 PUSH4 0xE2BBB158 EQ PUSH2 0x2CB JUMPI DUP1 PUSH4 0xE3161DDD EQ PUSH2 0x2DE JUMPI DUP1 PUSH4 0xF7C618C1 EQ PUSH2 0x2E6 JUMPI DUP1 PUSH4 0xFC97A303 EQ PUSH2 0x30D JUMPI DUP1 PUSH4 0xFDB483C7 EQ PUSH2 0x32D JUMPI PUSH1 0x0 DUP1 REVERT JUMPDEST DUP1 PUSH4 0xA66F42C0 EQ PUSH2 0x24F JUMPI DUP1 PUSH4 0xA9F8D181 EQ PUSH2 0x276 JUMPI DUP1 PUSH4 0xB66503CF EQ PUSH2 0x27F JUMPI DUP1 PUSH4 0xC00007B0 EQ PUSH2 0x292 JUMPI DUP1 PUSH4 0xC6F678BD EQ PUSH2 0x2A5 JUMPI PUSH1 0x0 DUP1 REVERT JUMPDEST DUP1 PUSH4 0x4198709A GT PUSH2 0xFF JUMPI DUP1 PUSH4 0x4198709A EQ PUSH2 0x20F JUMPI DUP1 PUSH4 0x5EEBEA20 EQ PUSH2 0x218 JUMPI DUP1 PUSH4 0x853828B6 EQ PUSH2 0x22B JUMPI DUP1 PUSH4 0x892F4805 EQ PUSH2 0x233 JUMPI DUP1 PUSH4 0x8F662915 EQ PUSH2 0x246 JUMPI PUSH1 0x0 DUP1 REVERT JUMPDEST DUP1 PUSH4 0x18160DDD EQ PUSH2 0x13C JUMPI DUP1 PUSH4 0x1959A002 EQ PUSH2 0x158 JUMPI DUP1 PUSH4 0x2E1A7D4D EQ PUSH2 0x194 JUMPI DUP1 PUSH4 0x3A4B66F1 EQ PUSH2 0x1A9 JUMPI DUP1 PUSH4 0x3B92EB23 EQ PUSH2 0x1E8 JUMPI JUMPDEST PUSH1 0x0 DUP1 REVERT JUMPDEST PUSH2 0x145 PUSH1 0x5 SLOAD DUP2 JUMP JUMPDEST PUSH1 0x40 MLOAD SWAP1 DUP2 MSTORE PUSH1 0x20 ADD JUMPDEST PUSH1 0x40 MLOAD DUP1 SWAP2 SUB SWAP1 RETURN JUMPDEST PUSH2 0x17F PUSH2 0x166 CALLDATASIZE PUSH1 0x4 PUSH2 0x1530 JUMP JUMPDEST PUSH1 0x6 PUSH1 0x20 MSTORE PUSH1 0x0 SWAP1 DUP2 MSTORE PUSH1 0x40 SWAP1 KECCAK256 DUP1 SLOAD PUSH1 0x1 SWAP1 SWAP2 ADD SLOAD DUP3 JUMP JUMPDEST PUSH1 0x40 DUP1 MLOAD SWAP3 DUP4 MSTORE PUSH1 0x20 DUP4 ADD SWAP2 SWAP1 SWAP2 MSTORE ADD PUSH2 0x14F JUMP JUMPDEST PUSH2 0x1A7 PUSH2 0x1A2 CALLDATASIZE PUSH1 0x4 PUSH2 0x154D JUMP JUMPDEST PUSH2 0x340 JUMP JUMPDEST STOP JUMPDEST PUSH2 0x1D0 PUSH32 0x0 DUP2 JUMP JUMPDEST PUSH1 0x40 MLOAD PUSH1 0x1 PUSH1 0x1 PUSH1 0xA0 SHL SUB SWAP1 SWAP2 AND DUP2 MSTORE PUSH1 0x20 ADD PUSH2 0x14F JUMP JUMPDEST PUSH2 0x1D0 PUSH32 0x0 DUP2 JUMP JUMPDEST PUSH2 0x145 PUSH1 0x2 SLOAD DUP2 JUMP JUMPDEST PUSH2 0x145 PUSH2 0x226 CALLDATASIZE PUSH1 0x4 PUSH2 0x1530 JUMP JUMPDEST PUSH2 0x377 JUMP JUMPDEST PUSH2 0x1A7 PUSH2 0x396 JUMP JUMPDEST PUSH2 0x145 PUSH2 0x241 CALLDATASIZE PUSH1 0x4 PUSH2 0x1566 JUMP JUMPDEST PUSH2 0x3B1 JUMP JUMPDEST PUSH2 0x145 PUSH1 0x3 SLOAD DUP2 JUMP JUMPDEST PUSH2 0x1D0 PUSH32 0x0 DUP2 JUMP JUMPDEST PUSH2 0x145 PUSH1 0x4 SLOAD DUP2 JUMP JUMPDEST PUSH2 0x1A7 PUSH2 0x28D CALLDATASIZE PUSH1 0x4 PUSH2 0x1566 JUMP JUMPDEST PUSH2 0x797 JUMP JUMPDEST PUSH2 0x1A7 PUSH2 0x2A0 CALLDATASIZE PUSH1 0x4 PUSH2 0x1530 JUMP JUMPDEST PUSH2 0x91C JUMP JUMPDEST PUSH2 0x1A7 PUSH2 0x2B3 CALLDATASIZE PUSH1 0x4 PUSH2 0x154D JUMP JUMPDEST PUSH2 0xAEB JUMP JUMPDEST PUSH2 0x145 PUSH2 0x2C6 CALLDATASIZE PUSH1 0x4 PUSH2 0x1530 JUMP JUMPDEST PUSH2 0xB80 JUMP JUMPDEST PUSH2 0x1A7 PUSH2 0x2D9 CALLDATASIZE PUSH1 0x4 PUSH2 0x1592 JUMP JUMPDEST PUSH2 0xC86 JUMP JUMPDEST PUSH2 0x1A7 PUSH2 0xF00 JUMP JUMPDEST PUSH2 0x1D0 PUSH32 0x0 DUP2 JUMP JUMPDEST PUSH2 0x145 PUSH2 0x31B CALLDATASIZE PUSH1 0x4 PUSH2 0x1530 JUMP JUMPDEST PUSH1 0x1 PUSH1 0x20 MSTORE PUSH1 0x0 SWAP1 DUP2 MSTORE PUSH1 0x40 SWAP1 KECCAK256 SLOAD DUP2 JUMP JUMPDEST PUSH2 0x1A7 PUSH2 0x33B CALLDATASIZE PUSH1 0x4 PUSH2 0x1592 JUMP JUMPDEST PUSH2 0xF82 JUMP JUMPDEST CALLER PUSH1 0x0 SWAP1 DUP2 MSTORE PUSH1 0x6 PUSH1 0x20 MSTORE PUSH1 0x40 DUP2 KECCAK256 SLOAD DUP3 EQ ISZERO PUSH2 0x369 JUMPI POP CALLER PUSH1 0x0 SWAP1 DUP2 MSTORE PUSH1 0x1 PUSH1 0x20 MSTORE PUSH1 0x40 SWAP1 KECCAK256 SLOAD JUMPDEST PUSH2 0x373 DUP3 DUP3 PUSH2 0xF82 JUMP JUMPDEST POP POP JUMP JUMPDEST PUSH1 0x0 DUP1 PUSH2 0x383 DUP4 PUSH2 0xB80 JUMP JUMPDEST SWAP1 POP PUSH2 0x38F DUP4 DUP3 PUSH2 0x3B1 JUMP JUMPDEST SWAP4 SWAP3 POP POP POP JUMP JUMPDEST CALLER PUSH1 0x0 SWAP1 DUP2 MSTORE PUSH1 0x6 PUSH1 0x20 MSTORE PUSH1 0x40 SWAP1 KECCAK256 SLOAD PUSH2 0x3AF SWAP1 PUSH2 0x340 JUMP JUMPDEST JUMP JUMPDEST PUSH1 0x1 PUSH1 0x1 PUSH1 0xA0 SHL SUB DUP3 AND PUSH1 0x0 SWAP1 DUP2 MSTORE PUSH1 0x1 PUSH1 0x20 MSTORE PUSH1 0x40 DUP2 KECCAK256 SLOAD DUP2 PUSH1 0x64 PUSH2 0x3D8 DUP6 PUSH1 0x1E PUSH2 0x15CA JUMP JUMPDEST PUSH2 0x3E2 SWAP2 SWAP1 PUSH2 0x15E9 JUMP JUMPDEST PUSH1 0x40 MLOAD PUSH4 0x53E56423 PUSH1 0xE1 SHL DUP2 MSTORE PUSH1 0x1 PUSH1 0x1 PUSH1 0xA0 SHL SUB PUSH32 0x0 DUP2 AND PUSH1 0x4 DUP4 ADD MSTORE SWAP2 SWAP3 POP PUSH1 0x0 SWAP2 DUP3 SWAP2 PUSH32 0x0 SWAP1 SWAP2 AND SWAP1 PUSH4 0xA7CAC846 SWAP1 PUSH1 0x24 ADD PUSH1 0x20 PUSH1 0x40 MLOAD DUP1 DUP4 SUB DUP2 DUP7 GAS STATICCALL ISZERO DUP1 ISZERO PUSH2 0x472 JUMPI RETURNDATASIZE PUSH1 0x0 DUP1 RETURNDATACOPY RETURNDATASIZE PUSH1 0x0 REVERT JUMPDEST POP POP POP POP PUSH1 0x40 MLOAD RETURNDATASIZE PUSH1 0x1F NOT PUSH1 0x1F DUP3 ADD AND DUP3 ADD DUP1 PUSH1 0x40 MSTORE POP DUP2 ADD SWAP1 PUSH2 0x496 SWAP2 SWAP1 PUSH2 0x160B JUMP JUMPDEST PUSH1 0x40 MLOAD PUSH4 0x31A9108F PUSH1 0xE1 SHL DUP2 MSTORE PUSH1 0x4 DUP2 ADD DUP7 SWAP1 MSTORE SWAP1 SWAP2 POP PUSH32 0x0 PUSH1 0x1 PUSH1 0x1 PUSH1 0xA0 SHL SUB AND SWAP1 PUSH4 0x6352211E SWAP1 PUSH1 0x24 ADD PUSH1 0x20 PUSH1 0x40 MLOAD DUP1 DUP4 SUB DUP2 DUP7 GAS STATICCALL ISZERO DUP1 ISZERO PUSH2 0x4FE JUMPI RETURNDATASIZE PUSH1 0x0 DUP1 RETURNDATACOPY RETURNDATASIZE PUSH1 0x0 REVERT JUMPDEST POP POP POP POP PUSH1 0x40 MLOAD RETURNDATASIZE PUSH1 0x1F NOT PUSH1 0x1F DUP3 ADD AND DUP3 ADD DUP1 PUSH1 0x40 MSTORE POP DUP2 ADD SWAP1 PUSH2 0x522 SWAP2 SWAP1 PUSH2 0x1624 JUMP JUMPDEST PUSH1 0x1 PUSH1 0x1 PUSH1 0xA0 SHL SUB AND DUP8 PUSH1 0x1 PUSH1 0x1 PUSH1 0xA0 SHL SUB AND EQ DUP1 ISZERO PUSH2 0x542 JUMPI POP PUSH1 0x0 DUP2 GT JUMPDEST ISZERO PUSH2 0x779 JUMPI PUSH1 0x40 MLOAD PUSH4 0x1E7A4E09 PUSH1 0xE2 SHL DUP2 MSTORE PUSH1 0x4 DUP2 ADD DUP6 SWAP1 MSTORE PUSH1 0x0 SWAP1 PUSH32 0x0 PUSH1 0x1 PUSH1 0x1 PUSH1 0xA0 SHL SUB AND SWAP1 PUSH4 0x79E93824 SWAP1 PUSH1 0x24 ADD PUSH1 0x20 PUSH1 0x40 MLOAD DUP1 DUP4 SUB DUP2 DUP7 GAS STATICCALL ISZERO DUP1 ISZERO PUSH2 0x5AF JUMPI RETURNDATASIZE PUSH1 0x0 DUP1 RETURNDATACOPY RETURNDATASIZE PUSH1 0x0 REVERT JUMPDEST POP POP POP POP PUSH1 0x40 MLOAD RETURNDATASIZE PUSH1 0x1F NOT PUSH1 0x1F DUP3 ADD AND DUP3 ADD DUP1 PUSH1 0x40 MSTORE POP DUP2 ADD SWAP1 PUSH2 0x5D3 SWAP2 SWAP1 PUSH2 0x160B JUMP JUMPDEST PUSH1 0x40 MLOAD PUSH4 0x39F890B5 PUSH1 0xE2 SHL DUP2 MSTORE PUSH1 0x4 DUP2 ADD DUP8 SWAP1 MSTORE SWAP1 SWAP2 POP PUSH1 0x0 SWAP1 PUSH1 0x1 PUSH1 0x1 PUSH1 0xA0 SHL SUB PUSH32 0x0 AND SWAP1 PUSH4 0xE7E242D4 SWAP1 PUSH1 0x24 ADD PUSH1 0x20 PUSH1 0x40 MLOAD DUP1 DUP4 SUB DUP2 DUP7 GAS STATICCALL ISZERO DUP1 ISZERO PUSH2 0x63E JUMPI RETURNDATASIZE PUSH1 0x0 DUP1 RETURNDATACOPY RETURNDATASIZE PUSH1 0x0 REVERT JUMPDEST POP POP POP POP PUSH1 0x40 MLOAD RETURNDATASIZE PUSH1 0x1F NOT PUSH1 0x1F DUP3 ADD AND DUP3 ADD DUP1 PUSH1 0x40 MSTORE POP DUP2 ADD SWAP1 PUSH2 0x662 SWAP2 SWAP1 PUSH2 0x160B JUMP JUMPDEST SWAP1 POP PUSH2 0x742 DUP3 PUSH2 0x73C DUP4 PUSH2 0x736 PUSH5 0xE8D4A51000 PUSH32 0x0 PUSH1 0x1 PUSH1 0x1 PUSH1 0xA0 SHL SUB AND PUSH4 0xD23254B4 DUP14 PUSH32 0x0 PUSH1 0x40 MLOAD DUP4 PUSH4 0xFFFFFFFF AND PUSH1 0xE0 SHL DUP2 MSTORE PUSH1 0x4 ADD PUSH2 0x6F5 SWAP3 SWAP2 SWAP1 SWAP2 DUP3 MSTORE PUSH1 0x1 PUSH1 0x1 PUSH1 0xA0 SHL SUB AND PUSH1 0x20 DUP3 ADD MSTORE PUSH1 0x40 ADD SWAP1 JUMP JUMPDEST PUSH1 0x20 PUSH1 0x40 MLOAD DUP1 DUP4 SUB DUP2 DUP7 GAS STATICCALL ISZERO DUP1 ISZERO PUSH2 0x712 JUMPI RETURNDATASIZE PUSH1 0x0 DUP1 RETURNDATACOPY RETURNDATASIZE PUSH1 0x0 REVERT JUMPDEST POP POP POP POP PUSH1 0x40 MLOAD RETURNDATASIZE PUSH1 0x1F NOT PUSH1 0x1F DUP3 ADD AND DUP3 ADD DUP1 PUSH1 0x40 MSTORE POP DUP2 ADD SWAP1 PUSH2 0x736 SWAP2 SWAP1 PUSH2 0x160B JUMP JUMPDEST SWAP1 PUSH2 0x1144 JUMP JUMPDEST SWAP1 PUSH2 0x1150 JUMP JUMPDEST SWAP4 POP PUSH1 0x64 DUP4 DUP6 PUSH1 0x5 SLOAD PUSH2 0x755 SWAP2 SWAP1 PUSH2 0x15CA JUMP JUMPDEST PUSH2 0x75F SWAP2 SWAP1 PUSH2 0x15E9 JUMP JUMPDEST PUSH2 0x76A SWAP1 PUSH1 0x46 PUSH2 0x15CA JUMP JUMPDEST PUSH2 0x774 SWAP2 SWAP1 PUSH2 0x15E9 JUMP JUMPDEST SWAP4 POP POP POP JUMPDEST PUSH2 0x78C PUSH2 0x786 DUP4 DUP6 PUSH2 0x1641 JUMP JUMPDEST DUP8 PUSH2 0x115C JUMP JUMPDEST SWAP8 SWAP7 POP POP POP POP POP POP POP JUMP JUMPDEST CALLER PUSH1 0x1 PUSH1 0x1 PUSH1 0xA0 SHL SUB PUSH32 0x0 AND EQ PUSH2 0x801 JUMPI PUSH1 0x40 MLOAD PUSH3 0x461BCD PUSH1 0xE5 SHL DUP2 MSTORE PUSH1 0x20 PUSH1 0x4 DUP3 ADD MSTORE PUSH1 0xA PUSH1 0x24 DUP3 ADD MSTORE PUSH10 0x1BDB9B1E48189BDBDCDD PUSH1 0xB2 SHL PUSH1 0x44 DUP3 ADD MSTORE PUSH1 0x64 ADD JUMPDEST PUSH1 0x40 MLOAD DUP1 SWAP2 SUB SWAP1 REVERT JUMPDEST PUSH32 0x0 PUSH1 0x1 PUSH1 0x1 PUSH1 0xA0 SHL SUB AND DUP3 PUSH1 0x1 PUSH1 0x1 PUSH1 0xA0 SHL SUB AND EQ ISZERO PUSH2 0x86E JUMPI PUSH1 0x40 MLOAD PUSH3 0x461BCD PUSH1 0xE5 SHL DUP2 MSTORE PUSH1 0x20 PUSH1 0x4 DUP3 ADD MSTORE PUSH1 0x8 PUSH1 0x24 DUP3 ADD MSTORE PUSH8 0x6E6F207374616B65 PUSH1 0xC0 SHL PUSH1 0x44 DUP3 ADD MSTORE PUSH1 0x64 ADD PUSH2 0x7F8 JUMP JUMPDEST PUSH1 0x4 SLOAD NUMBER GT PUSH2 0x87B JUMPI POP POP JUMP JUMPDEST PUSH1 0x2 DUP2 SWAP1 SSTORE PUSH1 0x5 SLOAD ISZERO PUSH2 0x8D8 JUMPI PUSH1 0x0 PUSH2 0x89F PUSH1 0x4 SLOAD NUMBER PUSH2 0x1172 SWAP1 SWAP2 SWAP1 PUSH4 0xFFFFFFFF AND JUMP JUMPDEST SWAP1 POP PUSH2 0x8CF PUSH2 0x8C6 PUSH1 0x5 SLOAD PUSH2 0x73C PUSH5 0xE8D4A51000 PUSH2 0x736 DUP7 DUP9 PUSH2 0x1144 SWAP1 SWAP2 SWAP1 PUSH4 0xFFFFFFFF AND JUMP JUMPDEST PUSH1 0x3 SLOAD SWAP1 PUSH2 0x117E JUMP JUMPDEST PUSH1 0x3 SSTORE POP NUMBER PUSH1 0x4 SSTORE JUMPDEST PUSH1 0x40 MLOAD DUP2 DUP2 MSTORE PUSH1 0x1 PUSH1 0x1 PUSH1 0xA0 SHL SUB DUP4 AND SWAP1 CALLER SWAP1 PUSH32 0xF70D5C697DE7EA828DF48E5C4573CB2194C659F1901F70110C52B066DCF50826 SWAP1 PUSH1 0x20 ADD PUSH1 0x40 MLOAD DUP1 SWAP2 SUB SWAP1 LOG3 POP POP JUMP JUMPDEST PUSH1 0x2 PUSH1 0x0 SLOAD EQ ISZERO PUSH2 0x93F JUMPI PUSH1 0x40 MLOAD PUSH3 0x461BCD PUSH1 0xE5 SHL DUP2 MSTORE PUSH1 0x4 ADD PUSH2 0x7F8 SWAP1 PUSH2 0x1659 JUMP JUMPDEST PUSH1 0x2 PUSH1 0x0 SSTORE CALLER PUSH1 0x1 PUSH1 0x1 PUSH1 0xA0 SHL SUB DUP3 AND EQ DUP1 PUSH2 0x983 JUMPI POP CALLER PUSH1 0x1 PUSH1 0x1 PUSH1 0xA0 SHL SUB PUSH32 0x0 AND EQ JUMPDEST PUSH2 0x98C JUMPI PUSH1 0x0 DUP1 REVERT JUMPDEST PUSH2 0x994 PUSH2 0xF00 JUMP JUMPDEST PUSH1 0x1 PUSH1 0x1 PUSH1 0xA0 SHL SUB DUP2 AND PUSH1 0x0 SWAP1 DUP2 MSTORE PUSH1 0x6 PUSH1 0x20 MSTORE PUSH1 0x40 DUP2 KECCAK256 SWAP1 PUSH2 0x9B6 DUP4 PUSH2 0xB80 JUMP JUMPDEST SWAP1 POP DUP1 ISZERO PUSH2 0xA4A JUMPI PUSH2 0x9E9 PUSH32 0x0 DUP5 DUP4 PUSH2 0x118A JUMP JUMPDEST PUSH1 0x40 MLOAD DUP2 DUP2 MSTORE PUSH1 0x1 PUSH1 0x1 PUSH1 0xA0 SHL SUB PUSH32 0x0 AND SWAP1 CALLER SWAP1 PUSH32 0x9AA05B3D70A9E3E2F004F039648839560576334FB45C81F91B6DB03AD9E2EFC9 SWAP1 PUSH1 0x20 ADD PUSH1 0x40 MLOAD DUP1 SWAP2 SUB SWAP1 LOG3 JUMPDEST PUSH1 0x3 SLOAD DUP3 SLOAD PUSH2 0xA63 SWAP2 PUSH5 0xE8D4A51000 SWAP2 PUSH2 0x73C SWAP2 PUSH2 0x1144 JUMP JUMPDEST PUSH1 0x1 DUP4 ADD SSTORE PUSH1 0x40 MLOAD PUSH4 0x63453AE1 PUSH1 0xE0 SHL DUP2 MSTORE ADDRESS PUSH1 0x4 DUP3 ADD MSTORE PUSH32 0x0 PUSH1 0x1 PUSH1 0x1 PUSH1 0xA0 SHL SUB AND SWAP1 PUSH4 0x63453AE1 SWAP1 PUSH1 0x24 ADD PUSH1 0x0 PUSH1 0x40 MLOAD DUP1 DUP4 SUB DUP2 PUSH1 0x0 DUP8 DUP1 EXTCODESIZE ISZERO DUP1 ISZERO PUSH2 0xAC9 JUMPI PUSH1 0x0 DUP1 REVERT JUMPDEST POP GAS CALL ISZERO DUP1 ISZERO PUSH2 0xADD JUMPI RETURNDATASIZE PUSH1 0x0 DUP1 RETURNDATACOPY RETURNDATASIZE PUSH1 0x0 REVERT JUMPDEST POP POP PUSH1 0x1 PUSH1 0x0 SSTORE POP POP POP POP POP JUMP JUMPDEST PUSH1 0x40 MLOAD PUSH4 0x70A08231 PUSH1 0xE0 SHL DUP2 MSTORE CALLER PUSH1 0x4 DUP3 ADD MSTORE PUSH2 0xB7D SWAP1 PUSH32 0x0 PUSH1 0x1 PUSH1 0x1 PUSH1 0xA0 SHL SUB AND SWAP1 PUSH4 0x70A08231 SWAP1 PUSH1 0x24 ADD PUSH1 0x20 PUSH1 0x40 MLOAD DUP1 DUP4 SUB DUP2 DUP7 GAS STATICCALL ISZERO DUP1 ISZERO PUSH2 0xB53 JUMPI RETURNDATASIZE PUSH1 0x0 DUP1 RETURNDATACOPY RETURNDATASIZE PUSH1 0x0 REVERT JUMPDEST POP POP POP POP PUSH1 0x40 MLOAD RETURNDATASIZE PUSH1 0x1F NOT PUSH1 0x1F DUP3 ADD AND DUP3 ADD DUP1 PUSH1 0x40 MSTORE POP DUP2 ADD SWAP1 PUSH2 0xB77 SWAP2 SWAP1 PUSH2 0x160B JUMP JUMPDEST DUP3 PUSH2 0xC86 JUMP JUMPDEST POP JUMP JUMPDEST PUSH1 0x1 PUSH1 0x1 PUSH1 0xA0 SHL SUB DUP2 AND PUSH1 0x0 SWAP1 DUP2 MSTORE PUSH1 0x6 PUSH1 0x20 MSTORE PUSH1 0x40 DUP2 KECCAK256 PUSH1 0x3 SLOAD DUP2 SLOAD ISZERO PUSH2 0xC7C JUMPI PUSH1 0x4 SLOAD NUMBER GT ISZERO PUSH2 0xC40 JUMPI PUSH1 0x0 PUSH2 0xBC3 PUSH1 0x4 SLOAD NUMBER PUSH2 0x1172 SWAP1 SWAP2 SWAP1 PUSH4 0xFFFFFFFF AND JUMP JUMPDEST SWAP1 POP PUSH1 0x0 PUSH2 0xBDC DUP3 PUSH1 0x2 SLOAD PUSH2 0x1144 SWAP1 SWAP2 SWAP1 PUSH4 0xFFFFFFFF AND JUMP JUMPDEST SWAP1 POP PUSH2 0xC06 PUSH2 0xBFF PUSH1 0x5 SLOAD PUSH2 0x73C PUSH5 0xE8D4A51000 DUP6 PUSH2 0x1144 SWAP1 SWAP2 SWAP1 PUSH4 0xFFFFFFFF AND JUMP JUMPDEST DUP5 SWAP1 PUSH2 0x117E JUMP JUMPDEST SWAP3 POP PUSH2 0xC36 DUP5 PUSH1 0x1 ADD SLOAD PUSH2 0xC30 PUSH5 0xE8D4A51000 PUSH2 0x73C DUP8 DUP10 PUSH1 0x0 ADD SLOAD PUSH2 0x1144 SWAP1 SWAP2 SWAP1 PUSH4 0xFFFFFFFF AND JUMP JUMPDEST SWAP1 PUSH2 0x1172 JUMP JUMPDEST SWAP7 SWAP6 POP POP POP POP POP POP JUMP JUMPDEST PUSH1 0x4 SLOAD NUMBER EQ ISZERO PUSH2 0xC7C JUMPI PUSH2 0xC74 DUP3 PUSH1 0x1 ADD SLOAD PUSH2 0xC30 PUSH5 0xE8D4A51000 PUSH2 0x73C PUSH1 0x3 SLOAD DUP8 PUSH1 0x0 ADD SLOAD PUSH2 0x1144 SWAP1 SWAP2 SWAP1 PUSH4 0xFFFFFFFF AND JUMP JUMPDEST SWAP5 SWAP4 POP POP POP POP JUMP JUMPDEST POP PUSH1 0x0 SWAP4 SWAP3 POP POP POP JUMP JUMPDEST PUSH1 0x2 PUSH1 0x0 SLOAD EQ ISZERO PUSH2 0xCA9 JUMPI PUSH1 0x40 MLOAD PUSH3 0x461BCD PUSH1 0xE5 SHL DUP2 MSTORE PUSH1 0x4 ADD PUSH2 0x7F8 SWAP1 PUSH2 0x1659 JUMP JUMPDEST PUSH1 0x2 PUSH1 0x0 SSTORE DUP2 PUSH2 0xCE9 JUMPI PUSH1 0x40 MLOAD PUSH3 0x461BCD PUSH1 0xE5 SHL DUP2 MSTORE PUSH1 0x20 PUSH1 0x4 DUP3 ADD MSTORE PUSH1 0xB PUSH1 0x24 DUP3 ADD MSTORE PUSH11 0x616D6F756E74206973203 PUSH1 0xAC SHL PUSH1 0x44 DUP3 ADD MSTORE PUSH1 0x64 ADD PUSH2 0x7F8 JUMP JUMPDEST PUSH2 0xCF1 PUSH2 0xF00 JUMP JUMPDEST CALLER PUSH1 0x0 SWAP1 DUP2 MSTORE PUSH1 0x6 PUSH1 0x20 MSTORE PUSH1 0x40 SWAP1 KECCAK256 DUP1 SLOAD ISZERO PUSH2 0xD47 JUMPI PUSH1 0x0 PUSH2 0xD12 CALLER PUSH2 0xB80 JUMP JUMPDEST SWAP1 POP DUP1 ISZERO PUSH2 0xD45 JUMPI PUSH2 0xD45 PUSH32 0x0 CALLER DUP4 PUSH2 0x118A JUMP JUMPDEST POP JUMPDEST DUP3 ISZERO PUSH2 0xD9F JUMPI PUSH2 0xD79 PUSH32 0x0 CALLER ADDRESS DUP7 PUSH2 0x122A JUMP JUMPDEST DUP3 PUSH1 0x5 PUSH1 0x0 DUP3 DUP3 SLOAD PUSH2 0xD8B SWAP2 SWAP1 PUSH2 0x1641 JUMP JUMPDEST SWAP1 SWAP2 SSTORE POP POP DUP1 SLOAD PUSH2 0xD9C SWAP1 DUP5 PUSH2 0x117E JUMP JUMPDEST DUP2 SSTORE JUMPDEST DUP2 ISZERO PUSH2 0xE8A JUMPI PUSH1 0x40 MLOAD PUSH4 0x31A9108F PUSH1 0xE1 SHL DUP2 MSTORE PUSH1 0x4 DUP2 ADD DUP4 SWAP1 MSTORE CALLER SWAP1 PUSH1 0x1 PUSH1 0x1 PUSH1 0xA0 SHL SUB PUSH32 0x0 AND SWAP1 PUSH4 0x6352211E SWAP1 PUSH1 0x24 ADD PUSH1 0x20 PUSH1 0x40 MLOAD DUP1 DUP4 SUB DUP2 DUP7 GAS STATICCALL ISZERO DUP1 ISZERO PUSH2 0xE0C JUMPI RETURNDATASIZE PUSH1 0x0 DUP1 RETURNDATACOPY RETURNDATASIZE PUSH1 0x0 REVERT JUMPDEST POP POP POP POP PUSH1 0x40 MLOAD RETURNDATASIZE PUSH1 0x1F NOT PUSH1 0x1F DUP3 ADD AND DUP3 ADD DUP1 PUSH1 0x40 MSTORE POP DUP2 ADD SWAP1 PUSH2 0xE30 SWAP2 SWAP1 PUSH2 0x1624 JUMP JUMPDEST PUSH1 0x1 PUSH1 0x1 PUSH1 0xA0 SHL SUB AND EQ PUSH2 0xE43 JUMPI PUSH1 0x0 DUP1 REVERT JUMPDEST CALLER PUSH1 0x0 SWAP1 DUP2 MSTORE PUSH1 0x1 PUSH1 0x20 MSTORE PUSH1 0x40 SWAP1 KECCAK256 SLOAD PUSH2 0xE6A JUMPI CALLER PUSH1 0x0 SWAP1 DUP2 MSTORE PUSH1 0x1 PUSH1 0x20 MSTORE PUSH1 0x40 SWAP1 KECCAK256 DUP3 SWAP1 SSTORE JUMPDEST CALLER PUSH1 0x0 SWAP1 DUP2 MSTORE PUSH1 0x1 PUSH1 0x20 MSTORE PUSH1 0x40 SWAP1 KECCAK256 SLOAD DUP3 EQ PUSH2 0xE85 JUMPI PUSH1 0x0 DUP1 REVERT JUMPDEST PUSH2 0xE9D JUMP JUMPDEST CALLER PUSH1 0x0 SWAP1 DUP2 MSTORE PUSH1 0x1 PUSH1 0x20 MSTORE PUSH1 0x40 SWAP1 KECCAK256 SLOAD SWAP2 POP JUMPDEST PUSH1 0x3 SLOAD DUP2 SLOAD PUSH2 0xEB6 SWAP2 PUSH5 0xE8D4A51000 SWAP2 PUSH2 0x73C SWAP2 PUSH2 0x1144 JUMP JUMPDEST PUSH1 0x1 DUP3 ADD SSTORE PUSH1 0x40 DUP1 MLOAD DUP4 DUP2 MSTORE PUSH1 0x20 DUP2 ADD DUP6 SWAP1 MSTORE CALLER SWAP2 PUSH32 0x90890809C654F11D6E72A28FA60149770A0D11EC6C92319D6CEB2BB0A4EA1A15 SWAP2 ADD PUSH1 0x40 MLOAD DUP1 SWAP2 SUB SWAP1 LOG2 POP POP PUSH1 0x1 PUSH1 0x0 SSTORE POP JUMP JUMPDEST PUSH1 0x4 SLOAD NUMBER GT PUSH2 0xF0B JUMPI JUMP JUMPDEST PUSH1 0x5 SLOAD PUSH2 0xF18 JUMPI NUMBER PUSH1 0x4 SSTORE JUMP JUMPDEST PUSH1 0x0 PUSH1 0x2 SLOAD GT PUSH2 0xF24 JUMPI JUMP JUMPDEST PUSH1 0x0 PUSH2 0xF3B PUSH1 0x4 SLOAD NUMBER PUSH2 0x1172 SWAP1 SWAP2 SWAP1 PUSH4 0xFFFFFFFF AND JUMP JUMPDEST SWAP1 POP PUSH1 0x0 PUSH2 0xF54 DUP3 PUSH1 0x2 SLOAD PUSH2 0x1144 SWAP1 SWAP2 SWAP1 PUSH4 0xFFFFFFFF AND JUMP JUMPDEST SWAP1 POP PUSH2 0xF77 PUSH2 0x8C6 PUSH1 0x5 SLOAD PUSH2 0x73C PUSH5 0xE8D4A51000 DUP6 PUSH2 0x1144 SWAP1 SWAP2 SWAP1 PUSH4 0xFFFFFFFF AND JUMP JUMPDEST PUSH1 0x3 SSTORE POP POP NUMBER PUSH1 0x4 SSTORE JUMP JUMPDEST PUSH1 0x2 PUSH1 0x0 SLOAD EQ ISZERO PUSH2 0xFA5 JUMPI PUSH1 0x40 MLOAD PUSH3 0x461BCD PUSH1 0xE5 SHL DUP2 MSTORE PUSH1 0x4 ADD PUSH2 0x7F8 SWAP1 PUSH2 0x1659 JUMP JUMPDEST PUSH1 0x2 PUSH1 0x0 SWAP1 DUP2 SSTORE CALLER DUP2 MSTORE PUSH1 0x6 PUSH1 0x20 MSTORE PUSH1 0x40 SWAP1 KECCAK256 DUP1 SLOAD DUP4 GT ISZERO PUSH2 0x1002 JUMPI PUSH1 0x40 MLOAD PUSH3 0x461BCD PUSH1 0xE5 SHL DUP2 MSTORE PUSH1 0x20 PUSH1 0x4 DUP3 ADD MSTORE PUSH1 0x16 PUSH1 0x24 DUP3 ADD MSTORE PUSH22 0x1DDA5D1A191C985DD4DDD85C0E881B9BDD0819DBDBD9 PUSH1 0x52 SHL PUSH1 0x44 DUP3 ADD MSTORE PUSH1 0x64 ADD PUSH2 0x7F8 JUMP JUMPDEST PUSH2 0x100A PUSH2 0xF00 JUMP JUMPDEST PUSH1 0x0 PUSH2 0x1015 CALLER PUSH2 0xB80 JUMP JUMPDEST SWAP1 POP DUP1 ISZERO PUSH2 0x1048 JUMPI PUSH2 0x1048 PUSH32 0x0 CALLER DUP4 PUSH2 0x118A JUMP JUMPDEST DUP4 ISZERO PUSH2 0x1097 JUMPI DUP2 SLOAD PUSH2 0x105A SWAP1 DUP6 PUSH2 0x1172 JUMP JUMPDEST DUP3 SSTORE PUSH1 0x5 SLOAD PUSH2 0x1069 SWAP1 DUP6 PUSH2 0x1172 JUMP JUMPDEST PUSH1 0x5 SSTORE PUSH2 0x1097 PUSH32 0x0 CALLER DUP7 PUSH2 0x135A JUMP JUMPDEST PUSH1 0x3 SLOAD DUP3 SLOAD PUSH2 0x10B0 SWAP2 PUSH5 0xE8D4A51000 SWAP2 PUSH2 0x73C SWAP2 PUSH2 0x1144 JUMP JUMPDEST PUSH1 0x1 DUP4 ADD SSTORE DUP3 ISZERO PUSH2 0x10EB JUMPI CALLER PUSH1 0x0 SWAP1 DUP2 MSTORE PUSH1 0x1 PUSH1 0x20 MSTORE PUSH1 0x40 SWAP1 KECCAK256 SLOAD DUP4 EQ PUSH2 0x10D6 JUMPI PUSH1 0x0 DUP1 REVERT JUMPDEST CALLER PUSH1 0x0 SWAP1 DUP2 MSTORE PUSH1 0x1 PUSH1 0x20 MSTORE PUSH1 0x40 DUP2 KECCAK256 SSTORE PUSH2 0x10FE JUMP JUMPDEST CALLER PUSH1 0x0 SWAP1 DUP2 MSTORE PUSH1 0x1 PUSH1 0x20 MSTORE PUSH1 0x40 SWAP1 KECCAK256 SLOAD SWAP3 POP JUMPDEST PUSH1 0x40 DUP1 MLOAD DUP5 DUP2 MSTORE PUSH1 0x20 DUP2 ADD DUP7 SWAP1 MSTORE CALLER SWAP2 PUSH32 0xF279E6A1F5E320CCA91135676D9CB6E44CA8A08C0B88342BCDB1144F6511B568 SWAP2 ADD PUSH1 0x40 MLOAD DUP1 SWAP2 SUB SWAP1 LOG2 POP POP PUSH1 0x1 PUSH1 0x0 SSTORE POP POP JUMP JUMPDEST PUSH1 0x0 PUSH2 0x38F DUP3 DUP5 PUSH2 0x15CA JUMP JUMPDEST PUSH1 0x0 PUSH2 0x38F DUP3 DUP5 PUSH2 0x15E9 JUMP JUMPDEST PUSH1 0x0 DUP2 DUP4 LT PUSH2 0x116B JUMPI DUP2 PUSH2 0x38F JUMP JUMPDEST POP SWAP1 SWAP2 SWAP1 POP JUMP JUMPDEST PUSH1 0x0 PUSH2 0x38F DUP3 DUP5 PUSH2 0x1690 JUMP JUMPDEST PUSH1 0x0 PUSH2 0x38F DUP3 DUP5 PUSH2 0x1641 JUMP JUMPDEST PUSH2 0x1194 DUP4 DUP3 PUSH2 0x1475 JUMP JUMPDEST PUSH1 0x40 MLOAD PUSH4 0x70A08231 PUSH1 0xE0 SHL DUP2 MSTORE ADDRESS PUSH1 0x4 DUP3 ADD MSTORE PUSH1 0x0 SWAP1 PUSH1 0x1 PUSH1 0x1 PUSH1 0xA0 SHL SUB DUP6 AND SWAP1 PUSH4 0x70A08231 SWAP1 PUSH1 0x24 ADD PUSH1 0x20 PUSH1 0x40 MLOAD DUP1 DUP4 SUB DUP2 DUP7 GAS STATICCALL ISZERO DUP1 ISZERO PUSH2 0x11DB JUMPI RETURNDATASIZE PUSH1 0x0 DUP1 RETURNDATACOPY RETURNDATASIZE PUSH1 0x0 REVERT JUMPDEST POP POP POP POP PUSH1 0x40 MLOAD RETURNDATASIZE PUSH1 0x1F NOT PUSH1 0x1F DUP3 ADD AND DUP3 ADD DUP1 PUSH1 0x40 MSTORE POP DUP2 ADD SWAP1 PUSH2 0x11FF SWAP2 SWAP1 PUSH2 0x160B JUMP JUMPDEST SWAP1 POP DUP1 DUP3 GT ISZERO PUSH2 0x120D JUMPI DUP1 SWAP2 POP JUMPDEST PUSH2 0x1217 DUP4 DUP4 PUSH2 0x3B1 JUMP JUMPDEST SWAP2 POP PUSH2 0x1224 DUP5 DUP5 DUP5 PUSH2 0x135A JUMP JUMPDEST POP POP POP POP JUMP JUMPDEST PUSH1 0x40 DUP1 MLOAD PUSH1 0x1 PUSH1 0x1 PUSH1 0xA0 SHL SUB DUP6 DUP2 AND PUSH1 0x24 DUP4 ADD MSTORE DUP5 DUP2 AND PUSH1 0x44 DUP4 ADD MSTORE PUSH1 0x64 DUP1 DUP4 ADD DUP6 SWAP1 MSTORE DUP4 MLOAD DUP1 DUP5 SUB SWAP1 SWAP2 ADD DUP2 MSTORE PUSH1 0x84 SWAP1 SWAP3 ADD DUP4 MSTORE PUSH1 0x20 DUP3 ADD DUP1 MLOAD PUSH1 0x1 PUSH1 0x1 PUSH1 0xE0 SHL SUB AND PUSH4 0x23B872DD PUSH1 0xE0 SHL OR SWAP1 MSTORE SWAP2 MLOAD PUSH1 0x0 SWAP3 DUP4 SWAP3 SWAP1 DUP9 AND SWAP2 PUSH2 0x128E SWAP2 SWAP1 PUSH2 0x16A7 JUMP JUMPDEST PUSH1 0x0 PUSH1 0x40 MLOAD DUP1 DUP4 SUB DUP2 PUSH1 0x0 DUP7 GAS CALL SWAP2 POP POP RETURNDATASIZE DUP1 PUSH1 0x0 DUP2 EQ PUSH2 0x12CB JUMPI PUSH1 0x40 MLOAD SWAP2 POP PUSH1 0x1F NOT PUSH1 0x3F RETURNDATASIZE ADD AND DUP3 ADD PUSH1 0x40 MSTORE RETURNDATASIZE DUP3 MSTORE RETURNDATASIZE PUSH1 0x0 PUSH1 0x20 DUP5 ADD RETURNDATACOPY PUSH2 0x12D0 JUMP JUMPDEST PUSH1 0x60 SWAP2 POP JUMPDEST POP SWAP2 POP SWAP2 POP DUP2 DUP1 ISZERO PUSH2 0x12FA JUMPI POP DUP1 MLOAD ISZERO DUP1 PUSH2 0x12FA JUMPI POP DUP1 DUP1 PUSH1 0x20 ADD SWAP1 MLOAD DUP2 ADD SWAP1 PUSH2 0x12FA SWAP2 SWAP1 PUSH2 0x16E2 JUMP JUMPDEST PUSH2 0x1352 JUMPI PUSH1 0x40 MLOAD PUSH3 0x461BCD PUSH1 0xE5 SHL DUP2 MSTORE PUSH1 0x20 PUSH1 0x4 DUP3 ADD MSTORE PUSH1 0x24 DUP1 DUP3 ADD MSTORE PUSH32 0x5472616E7366657248656C7065723A205452414E534645525F46524F4D5F4641 PUSH1 0x44 DUP3 ADD MSTORE PUSH4 0x12531151 PUSH1 0xE2 SHL PUSH1 0x64 DUP3 ADD MSTORE PUSH1 0x84 ADD PUSH2 0x7F8 JUMP JUMPDEST POP POP POP POP POP POP JUMP JUMPDEST PUSH1 0x40 DUP1 MLOAD PUSH1 0x1 PUSH1 0x1 PUSH1 0xA0 SHL SUB DUP5 DUP2 AND PUSH1 0x24 DUP4 ADD MSTORE PUSH1 0x44 DUP1 DUP4 ADD DUP6 SWAP1 MSTORE DUP4 MLOAD DUP1 DUP5 SUB SWAP1 SWAP2 ADD DUP2 MSTORE PUSH1 0x64 SWAP1 SWAP3 ADD DUP4 MSTORE PUSH1 0x20 DUP3 ADD DUP1 MLOAD PUSH1 0x1 PUSH1 0x1 PUSH1 0xE0 SHL SUB AND PUSH4 0xA9059CBB PUSH1 0xE0 SHL OR SWAP1 MSTORE SWAP2 MLOAD PUSH1 0x0 SWAP3 DUP4 SWAP3 SWAP1 DUP8 AND SWAP2 PUSH2 0x13B6 SWAP2 SWAP1 PUSH2 0x16A7 JUMP JUMPDEST PUSH1 0x0 PUSH1 0x40 MLOAD DUP1 DUP4 SUB DUP2 PUSH1 0x0 DUP7 GAS CALL SWAP2 POP POP RETURNDATASIZE DUP1 PUSH1 0x0 DUP2 EQ PUSH2 0x13F3 JUMPI PUSH1 0x40 MLOAD SWAP2 POP PUSH1 0x1F NOT PUSH1 0x3F RETURNDATASIZE ADD AND DUP3 ADD PUSH1 0x40 MSTORE RETURNDATASIZE DUP3 MSTORE RETURNDATASIZE PUSH1 0x0 PUSH1 0x20 DUP5 ADD RETURNDATACOPY PUSH2 0x13F8 JUMP JUMPDEST PUSH1 0x60 SWAP2 POP JUMPDEST POP SWAP2 POP SWAP2 POP DUP2 DUP1 ISZERO PUSH2 0x1422 JUMPI POP DUP1 MLOAD ISZERO DUP1 PUSH2 0x1422 JUMPI POP DUP1 DUP1 PUSH1 0x20 ADD SWAP1 MLOAD DUP2 ADD SWAP1 PUSH2 0x1422 SWAP2 SWAP1 PUSH2 0x16E2 JUMP JUMPDEST PUSH2 0x146E JUMPI PUSH1 0x40 MLOAD PUSH3 0x461BCD PUSH1 0xE5 SHL DUP2 MSTORE PUSH1 0x20 PUSH1 0x4 DUP3 ADD MSTORE PUSH1 0x1F PUSH1 0x24 DUP3 ADD MSTORE PUSH32 0x5472616E7366657248656C7065723A205452414E534645525F4641494C454400 PUSH1 0x44 DUP3 ADD MSTORE PUSH1 0x64 ADD PUSH2 0x7F8 JUMP JUMPDEST POP POP POP POP POP JUMP JUMPDEST PUSH1 0x40 MLOAD PUSH4 0x70A08231 PUSH1 0xE0 SHL DUP2 MSTORE ADDRESS PUSH1 0x4 DUP3 ADD MSTORE PUSH1 0x0 SWAP1 PUSH1 0x1 PUSH1 0x1 PUSH1 0xA0 SHL SUB DUP5 AND SWAP1 PUSH4 0x70A08231 SWAP1 PUSH1 0x24 ADD PUSH1 0x20 PUSH1 0x40 MLOAD DUP1 DUP4 SUB DUP2 DUP7 GAS STATICCALL ISZERO DUP1 ISZERO PUSH2 0x14BC JUMPI RETURNDATASIZE PUSH1 0x0 DUP1 RETURNDATACOPY RETURNDATASIZE PUSH1 0x0 REVERT JUMPDEST POP POP POP POP PUSH1 0x40 MLOAD RETURNDATASIZE PUSH1 0x1F NOT PUSH1 0x1F DUP3 ADD AND DUP3 ADD DUP1 PUSH1 0x40 MSTORE POP DUP2 ADD SWAP1 PUSH2 0x14E0 SWAP2 SWAP1 PUSH2 0x160B JUMP JUMPDEST SWAP1 POP DUP2 DUP2 LT ISZERO PUSH2 0x1516 JUMPI PUSH2 0x1516 DUP4 PUSH32 0x0 ADDRESS DUP6 PUSH2 0x122A JUMP JUMPDEST POP POP POP JUMP JUMPDEST PUSH1 0x1 PUSH1 0x1 PUSH1 0xA0 SHL SUB DUP2 AND DUP2 EQ PUSH2 0xB7D JUMPI PUSH1 0x0 DUP1 REVERT JUMPDEST PUSH1 0x0 PUSH1 0x20 DUP3 DUP5 SUB SLT ISZERO PUSH2 0x1542 JUMPI PUSH1 0x0 DUP1 REVERT JUMPDEST DUP2 CALLDATALOAD PUSH2 0x38F DUP2 PUSH2 0x151B JUMP JUMPDEST PUSH1 0x0 PUSH1 0x20 DUP3 DUP5 SUB SLT ISZERO PUSH2 0x155F JUMPI PUSH1 0x0 DUP1 REVERT JUMPDEST POP CALLDATALOAD SWAP2 SWAP1 POP JUMP JUMPDEST PUSH1 0x0 DUP1 PUSH1 0x40 DUP4 DUP6 SUB SLT ISZERO PUSH2 0x1579 JUMPI PUSH1 0x0 DUP1 REVERT JUMPDEST DUP3 CALLDATALOAD PUSH2 0x1584 DUP2 PUSH2 0x151B JUMP JUMPDEST SWAP5 PUSH1 0x20 SWAP4 SWAP1 SWAP4 ADD CALLDATALOAD SWAP4 POP POP POP JUMP JUMPDEST PUSH1 0x0 DUP1 PUSH1 0x40 DUP4 DUP6 SUB SLT ISZERO PUSH2 0x15A5 JUMPI PUSH1 0x0 DUP1 REVERT JUMPDEST POP POP DUP1 CALLDATALOAD SWAP3 PUSH1 0x20 SWAP1 SWAP2 ADD CALLDATALOAD SWAP2 POP JUMP JUMPDEST PUSH4 0x4E487B71 PUSH1 0xE0 SHL PUSH1 0x0 MSTORE PUSH1 0x11 PUSH1 0x4 MSTORE PUSH1 0x24 PUSH1 0x0 REVERT JUMPDEST PUSH1 0x0 DUP2 PUSH1 0x0 NOT DIV DUP4 GT DUP3 ISZERO ISZERO AND ISZERO PUSH2 0x15E4 JUMPI PUSH2 0x15E4 PUSH2 0x15B4 JUMP JUMPDEST POP MUL SWAP1 JUMP JUMPDEST PUSH1 0x0 DUP3 PUSH2 0x1606 JUMPI PUSH4 0x4E487B71 PUSH1 0xE0 SHL PUSH1 0x0 MSTORE PUSH1 0x12 PUSH1 0x4 MSTORE PUSH1 0x24 PUSH1 0x0 REVERT JUMPDEST POP DIV SWAP1 JUMP JUMPDEST PUSH1 0x0 PUSH1 0x20 DUP3 DUP5 SUB SLT ISZERO PUSH2 0x161D JUMPI PUSH1 0x0 DUP1 REVERT JUMPDEST POP MLOAD SWAP2 SWAP1 POP JUMP JUMPDEST PUSH1 0x0 PUSH1 0x20 DUP3 DUP5 SUB SLT ISZERO PUSH2 0x1636 JUMPI PUSH1 0x0 DUP1 REVERT JUMPDEST DUP2 MLOAD PUSH2 0x38F DUP2 PUSH2 0x151B JUMP JUMPDEST PUSH1 0x0 DUP3 NOT DUP3 GT ISZERO PUSH2 0x1654 JUMPI PUSH2 0x1654 PUSH2 0x15B4 JUMP JUMPDEST POP ADD SWAP1 JUMP JUMPDEST PUSH1 0x20 DUP1 DUP3 MSTORE PUSH1 0x1F SWAP1 DUP3 ADD MSTORE PUSH32 0x5265656E7472616E637947756172643A207265656E7472616E742063616C6C00 PUSH1 0x40 DUP3 ADD MSTORE PUSH1 0x60 ADD SWAP1 JUMP JUMPDEST PUSH1 0x0 DUP3 DUP3 LT ISZERO PUSH2 0x16A2 JUMPI PUSH2 0x16A2 PUSH2 0x15B4 JUMP JUMPDEST POP SUB SWAP1 JUMP JUMPDEST PUSH1 0x0 DUP3 MLOAD PUSH1 0x0 JUMPDEST DUP2 DUP2 LT ISZERO PUSH2 0x16C8 JUMPI PUSH1 0x20 DUP2 DUP7 ADD DUP2 ADD MLOAD DUP6 DUP4 ADD MSTORE ADD PUSH2 0x16AE JUMP JUMPDEST DUP2 DUP2 GT ISZERO PUSH2 0x16D7 JUMPI PUSH1 0x0 DUP3 DUP6 ADD MSTORE JUMPDEST POP SWAP2 SWAP1 SWAP2 ADD SWAP3 SWAP2 POP POP JUMP JUMPDEST PUSH1 0x0 PUSH1 0x20 DUP3 DUP5 SUB SLT ISZERO PUSH2 0x16F4 JUMPI PUSH1 0x0 DUP1 REVERT JUMPDEST DUP2 MLOAD DUP1 ISZERO ISZERO DUP2 EQ PUSH2 0x38F JUMPI PUSH1 0x0 DUP1 REVERT INVALID LOG2 PUSH5 0x6970667358 0x22 SLT KECCAK256 0xB3 DUP15 0xC9 DUP14 DUP2 0xCB STATICCALL 0x29 0x25 SWAP2 SLOAD 0xB4 SLT REVERT PUSH19 0xFD8BFD59145D6EAB4CD0A156048453AA626473 PUSH16 0x6C634300080A00330000000000000000 "
				},
				"gasEstimates": {
					"creation": {
						"codeDepositCost": "1189200",
						"executionCost": "infinite",
						"totalCost": "infinite"
					},
					"external": {
						"accTokenPerShare()": "2395",
						"boost()": "infinite",
						"deposit(uint256,uint256)": "infinite",
						"depositAll(uint256)": "infinite",
						"derivedBalance(address,uint256)": "infinite",
						"getReward(address)": "infinite",
						"lastRewardBlock()": "2329",
						"notifyRewardAmount(address,uint256)": "infinite",
						"pending(address)": "infinite",
						"pendingMax(address)": "infinite",
						"rewardToken()": "infinite",
						"stake()": "infinite",
						"tokenIds(address)": "2612",
						"tokenPerBlock()": "2307",
						"totalSupply()": "2308",
						"updatePool()": "infinite",
						"userInfo(address)": "4698",
						"veToken()": "infinite",
						"withdraw(uint256)": "infinite",
						"withdrawAll()": "infinite",
						"withdrawToken(uint256,uint256)": "infinite"
					},
					"internal": {
						"_safeTokenTransfer(address,address,uint256)": "infinite",
						"_safeTransferFromToken(address,uint256)": "infinite"
					}
				},
				"methodIdentifiers": {
					"accTokenPerShare()": "8f662915",
					"boost()": "a66f42c0",
					"deposit(uint256,uint256)": "e2bbb158",
					"depositAll(uint256)": "c6f678bd",
					"derivedBalance(address,uint256)": "892f4805",
					"getReward(address)": "c00007b0",
					"lastRewardBlock()": "a9f8d181",
					"notifyRewardAmount(address,uint256)": "b66503cf",
					"pending(address)": "5eebea20",
					"pendingMax(address)": "c73b399b",
					"rewardToken()": "f7c618c1",
					"stake()": "3a4b66f1",
					"tokenIds(address)": "fc97a303",
					"tokenPerBlock()": "4198709a",
					"totalSupply()": "18160ddd",
					"updatePool()": "e3161ddd",
					"userInfo(address)": "1959a002",
					"veToken()": "3b92eb23",
					"withdraw(uint256)": "2e1a7d4d",
					"withdrawAll()": "853828b6",
					"withdrawToken(uint256,uint256)": "fdb483c7"
				}
			},
			"storageLayout": {
				"storage": [
					{
						"astId": 97,
						"contract": "contracts/Gauge.sol:Gauge",
						"label": "_status",
						"offset": 0,
						"slot": "0",
						"type": "t_uint256"
					},
					{
						"astId": 821,
						"contract": "contracts/Gauge.sol:Gauge",
						"label": "tokenIds",
						"offset": 0,
						"slot": "1",
						"type": "t_mapping(t_address,t_uint256)"
					},
					{
						"astId": 823,
						"contract": "contracts/Gauge.sol:Gauge",
						"label": "tokenPerBlock",
						"offset": 0,
						"slot": "2",
						"type": "t_uint256"
					},
					{
						"astId": 825,
						"contract": "contracts/Gauge.sol:Gauge",
						"label": "accTokenPerShare",
						"offset": 0,
						"slot": "3",
						"type": "t_uint256"
					},
					{
						"astId": 827,
						"contract": "contracts/Gauge.sol:Gauge",
						"label": "lastRewardBlock",
						"offset": 0,
						"slot": "4",
						"type": "t_uint256"
					},
					{
						"astId": 829,
						"contract": "contracts/Gauge.sol:Gauge",
						"label": "totalSupply",
						"offset": 0,
						"slot": "5",
						"type": "t_uint256"
					},
					{
						"astId": 834,
						"contract": "contracts/Gauge.sol:Gauge",
						"label": "userInfo",
						"offset": 0,
						"slot": "6",
						"type": "t_mapping(t_address,t_struct(UserInfo)804_storage)"
					}
				],
				"types": {
					"t_address": {
						"encoding": "inplace",
						"label": "address",
						"numberOfBytes": "20"
					},
					"t_mapping(t_address,t_struct(UserInfo)804_storage)": {
						"encoding": "mapping",
						"key": "t_address",
						"label": "mapping(address => struct Gauge.UserInfo)",
						"numberOfBytes": "32",
						"value": "t_struct(UserInfo)804_storage"
					},
					"t_mapping(t_address,t_uint256)": {
						"encoding": "mapping",
						"key": "t_address",
						"label": "mapping(address => uint256)",
						"numberOfBytes": "32",
						"value": "t_uint256"
					},
					"t_struct(UserInfo)804_storage": {
						"encoding": "inplace",
						"label": "struct Gauge.UserInfo",
						"members": [
							{
								"astId": 801,
								"contract": "contracts/Gauge.sol:Gauge",
								"label": "amount",
								"offset": 0,
								"slot": "0",
								"type": "t_uint256"
							},
							{
								"astId": 803,
								"contract": "contracts/Gauge.sol:Gauge",
								"label": "rewardDebt",
								"offset": 0,
								"slot": "1",
								"type": "t_uint256"
							}
						],
						"numberOfBytes": "64"
					},
					"t_uint256": {
						"encoding": "inplace",
						"label": "uint256",
						"numberOfBytes": "32"
					}
				}
			},
			"userdoc": {
				"kind": "user",
				"methods": {},
				"version": 1
			}
		}
	}
}