{
	"contracts/Gauge.sol": {
		"Gauge": {
			"abi": [
				{
					"inputs": [
						{
							"internalType": "address",
							"name": "_stake",
							"type": "address"
						},
						{
							"internalType": "address",
							"name": "__ve",
							"type": "address"
						},
						{
							"internalType": "address",
							"name": "_boost",
							"type": "address"
						},
						{
							"internalType": "address",
							"name": "_rewardToken",
							"type": "address"
						}
					],
					"stateMutability": "nonpayable",
					"type": "constructor"
				},
				{
					"anonymous": false,
					"inputs": [
						{
							"indexed": true,
							"internalType": "address",
							"name": "from",
							"type": "address"
						},
						{
							"indexed": true,
							"internalType": "address",
							"name": "reward",
							"type": "address"
						},
						{
							"indexed": false,
							"internalType": "uint256",
							"name": "amount",
							"type": "uint256"
						}
					],
					"name": "ClaimRewards",
					"type": "event"
				},
				{
					"anonymous": false,
					"inputs": [
						{
							"indexed": true,
							"internalType": "address",
							"name": "from",
							"type": "address"
						},
						{
							"indexed": false,
							"internalType": "uint256",
							"name": "tokenId",
							"type": "uint256"
						},
						{
							"indexed": false,
							"internalType": "uint256",
							"name": "amount",
							"type": "uint256"
						}
					],
					"name": "Deposit",
					"type": "event"
				},
				{
					"anonymous": false,
					"inputs": [
						{
							"indexed": true,
							"internalType": "address",
							"name": "from",
							"type": "address"
						},
						{
							"indexed": true,
							"internalType": "address",
							"name": "reward",
							"type": "address"
						},
						{
							"indexed": false,
							"internalType": "uint256",
							"name": "rewardRate",
							"type": "uint256"
						}
					],
					"name": "NotifyReward",
					"type": "event"
				},
				{
					"anonymous": false,
					"inputs": [
						{
							"indexed": true,
							"internalType": "address",
							"name": "from",
							"type": "address"
						},
						{
							"indexed": false,
							"internalType": "uint256",
							"name": "tokenId",
							"type": "uint256"
						},
						{
							"indexed": false,
							"internalType": "uint256",
							"name": "amount",
							"type": "uint256"
						}
					],
					"name": "Withdraw",
					"type": "event"
				},
				{
					"inputs": [],
					"name": "accTokenPerShare",
					"outputs": [
						{
							"internalType": "uint256",
							"name": "",
							"type": "uint256"
						}
					],
					"stateMutability": "view",
					"type": "function"
				},
				{
					"inputs": [],
					"name": "boost",
					"outputs": [
						{
							"internalType": "address",
							"name": "",
							"type": "address"
						}
					],
					"stateMutability": "view",
					"type": "function"
				},
				{
					"inputs": [
						{
							"internalType": "uint256",
							"name": "amount",
							"type": "uint256"
						},
						{
							"internalType": "uint256",
							"name": "tokenId",
							"type": "uint256"
						}
					],
					"name": "deposit",
					"outputs": [],
					"stateMutability": "nonpayable",
					"type": "function"
				},
				{
					"inputs": [
						{
							"internalType": "uint256",
							"name": "tokenId",
							"type": "uint256"
						}
					],
					"name": "depositAll",
					"outputs": [],
					"stateMutability": "nonpayable",
					"type": "function"
				},
				{
					"inputs": [
						{
							"internalType": "address",
							"name": "account",
							"type": "address"
						},
						{
							"internalType": "uint256",
							"name": "_balance",
							"type": "uint256"
						}
					],
					"name": "derivedBalance",
					"outputs": [
						{
							"internalType": "uint256",
							"name": "",
							"type": "uint256"
						}
					],
					"stateMutability": "view",
					"type": "function"
				},
				{
					"inputs": [
						{
							"internalType": "address",
							"name": "account",
							"type": "address"
						}
					],
					"name": "getReward",
					"outputs": [],
					"stateMutability": "nonpayable",
					"type": "function"
				},
				{
					"inputs": [],
					"name": "lastRewardBlock",
					"outputs": [
						{
							"internalType": "uint256",
							"name": "",
							"type": "uint256"
						}
					],
					"stateMutability": "view",
					"type": "function"
				},
				{
					"inputs": [
						{
							"internalType": "address",
							"name": "token",
							"type": "address"
						},
						{
							"internalType": "uint256",
							"name": "_rewardRate",
							"type": "uint256"
						}
					],
					"name": "notifyRewardAmount",
					"outputs": [],
					"stateMutability": "nonpayable",
					"type": "function"
				},
				{
					"inputs": [
						{
							"internalType": "address",
							"name": "_user",
							"type": "address"
						}
					],
					"name": "pending",
					"outputs": [
						{
							"internalType": "uint256",
							"name": "",
							"type": "uint256"
						}
					],
					"stateMutability": "view",
					"type": "function"
				},
				{
					"inputs": [
						{
							"internalType": "address",
							"name": "_user",
							"type": "address"
						}
					],
					"name": "pendingMax",
					"outputs": [
						{
							"internalType": "uint256",
							"name": "",
							"type": "uint256"
						}
					],
					"stateMutability": "view",
					"type": "function"
				},
				{
					"inputs": [],
					"name": "rewardToken",
					"outputs": [
						{
							"internalType": "address",
							"name": "",
							"type": "address"
						}
					],
					"stateMutability": "view",
					"type": "function"
				},
				{
					"inputs": [],
					"name": "stake",
					"outputs": [
						{
							"internalType": "address",
							"name": "",
							"type": "address"
						}
					],
					"stateMutability": "view",
					"type": "function"
				},
				{
					"inputs": [
						{
							"internalType": "address",
							"name": "",
							"type": "address"
						}
					],
					"name": "tokenIds",
					"outputs": [
						{
							"internalType": "uint256",
							"name": "",
							"type": "uint256"
						}
					],
					"stateMutability": "view",
					"type": "function"
				},
				{
					"inputs": [],
					"name": "tokenPerBlock",
					"outputs": [
						{
							"internalType": "uint256",
							"name": "",
							"type": "uint256"
						}
					],
					"stateMutability": "view",
					"type": "function"
				},
				{
					"inputs": [],
					"name": "totalSupply",
					"outputs": [
						{
							"internalType": "uint256",
							"name": "",
							"type": "uint256"
						}
					],
					"stateMutability": "view",
					"type": "function"
				},
				{
					"inputs": [],
					"name": "updatePool",
					"outputs": [],
					"stateMutability": "nonpayable",
					"type": "function"
				},
				{
					"inputs": [
						{
							"internalType": "address",
							"name": "",
							"type": "address"
						}
					],
					"name": "userInfo",
					"outputs": [
						{
							"internalType": "uint256",
							"name": "amount",
							"type": "uint256"
						},
						{
							"internalType": "uint256",
							"name": "rewardDebt",
							"type": "uint256"
						}
					],
					"stateMutability": "view",
					"type": "function"
				},
				{
					"inputs": [],
					"name": "veToken",
					"outputs": [
						{
							"internalType": "address",
							"name": "",
							"type": "address"
						}
					],
					"stateMutability": "view",
					"type": "function"
				},
				{
					"inputs": [
						{
							"internalType": "uint256",
							"name": "amount",
							"type": "uint256"
						}
					],
					"name": "withdraw",
					"outputs": [],
					"stateMutability": "nonpayable",
					"type": "function"
				},
				{
					"inputs": [],
					"name": "withdrawAll",
					"outputs": [],
					"stateMutability": "nonpayable",
					"type": "function"
				},
				{
					"inputs": [
						{
							"internalType": "uint256",
							"name": "_amount",
							"type": "uint256"
						},
						{
							"internalType": "uint256",
							"name": "tokenId",
							"type": "uint256"
						}
					],
					"name": "withdrawToken",
					"outputs": [],
					"stateMutability": "nonpayable",
					"type": "function"
				}
			],
			"devdoc": {
				"kind": "dev",
				"methods": {},
				"version": 1
			},
			"evm": {
				"assembly": "    /* \"contracts/Gauge.sol\":16315:24265  contract Gauge is ReentrancyGuard {... */\n  mstore(0x40, 0x0100)\n    /* \"contracts/Gauge.sol\":17497:17692  constructor(address _stake, address __ve, address _boost, address _rewardToken) {... */\n  callvalue\n  dup1\n  iszero\n  tag_1\n  jumpi\n  0x00\n  dup1\n  revert\ntag_1:\n  pop\n  mload(0x40)\n  sub(codesize, bytecodeSize)\n  dup1\n  bytecodeSize\n  dup4\n  codecopy\n  dup2\n  dup2\n  add\n  0x40\n  mstore\n  dup2\n  add\n  swap1\n  tag_2\n  swap2\n  swap1\n  tag_3\n  jump\t// in\ntag_2:\n    /* \"contracts/Gauge.sol\":3090:3091  1 */\n  0x01\n    /* \"contracts/Gauge.sol\":3195:3202  _status */\n  0x00\n    /* \"contracts/Gauge.sol\":3195:3217  _status = _NOT_ENTERED */\n  dup2\n  swap1\n  sstore\n  pop\n    /* \"contracts/Gauge.sol\":17595:17601  _stake */\n  dup4\n    /* \"contracts/Gauge.sol\":17587:17601  stake = _stake */\n  0xffffffffffffffffffffffffffffffffffffffff\n  and\n  0x80\n  dup2\n  0xffffffffffffffffffffffffffffffffffffffff\n  and\n  dup2\n  mstore\n  pop\n  pop\n    /* \"contracts/Gauge.sol\":17621:17625  __ve */\n  dup3\n    /* \"contracts/Gauge.sol\":17611:17625  veToken = __ve */\n  0xffffffffffffffffffffffffffffffffffffffff\n  and\n  0xa0\n  dup2\n  0xffffffffffffffffffffffffffffffffffffffff\n  and\n  dup2\n  mstore\n  pop\n  pop\n    /* \"contracts/Gauge.sol\":17643:17649  _boost */\n  dup2\n    /* \"contracts/Gauge.sol\":17635:17649  boost = _boost */\n  0xffffffffffffffffffffffffffffffffffffffff\n  and\n  0xc0\n  dup2\n  0xffffffffffffffffffffffffffffffffffffffff\n  and\n  dup2\n  mstore\n  pop\n  pop\n    /* \"contracts/Gauge.sol\":17673:17685  _rewardToken */\n  dup1\n    /* \"contracts/Gauge.sol\":17659:17685  rewardToken = _rewardToken */\n  0xffffffffffffffffffffffffffffffffffffffff\n  and\n  0xe0\n  dup2\n  0xffffffffffffffffffffffffffffffffffffffff\n  and\n  dup2\n  mstore\n  pop\n  pop\n    /* \"contracts/Gauge.sol\":17497:17692  constructor(address _stake, address __ve, address _boost, address _rewardToken) {... */\n  pop\n  pop\n  pop\n  pop\n    /* \"contracts/Gauge.sol\":16315:24265  contract Gauge is ReentrancyGuard {... */\n  jump(tag_8)\n    /* \"#utility.yul\":88:205   */\ntag_10:\n    /* \"#utility.yul\":197:198   */\n  0x00\n    /* \"#utility.yul\":194:195   */\n  dup1\n    /* \"#utility.yul\":187:199   */\n  revert\n    /* \"#utility.yul\":334:460   */\ntag_12:\n    /* \"#utility.yul\":371:378   */\n  0x00\n    /* \"#utility.yul\":411:453   */\n  0xffffffffffffffffffffffffffffffffffffffff\n    /* \"#utility.yul\":404:409   */\n  dup3\n    /* \"#utility.yul\":400:454   */\n  and\n    /* \"#utility.yul\":389:454   */\n  swap1\n  pop\n    /* \"#utility.yul\":334:460   */\n  swap2\n  swap1\n  pop\n  jump\t// out\n    /* \"#utility.yul\":466:562   */\ntag_13:\n    /* \"#utility.yul\":503:510   */\n  0x00\n    /* \"#utility.yul\":532:556   */\n  tag_22\n    /* \"#utility.yul\":550:555   */\n  dup3\n    /* \"#utility.yul\":532:556   */\n  tag_12\n  jump\t// in\ntag_22:\n    /* \"#utility.yul\":521:556   */\n  swap1\n  pop\n    /* \"#utility.yul\":466:562   */\n  swap2\n  swap1\n  pop\n  jump\t// out\n    /* \"#utility.yul\":568:690   */\ntag_14:\n    /* \"#utility.yul\":641:665   */\n  tag_24\n    /* \"#utility.yul\":659:664   */\n  dup2\n    /* \"#utility.yul\":641:665   */\n  tag_13\n  jump\t// in\ntag_24:\n    /* \"#utility.yul\":634:639   */\n  dup2\n    /* \"#utility.yul\":631:666   */\n  eq\n    /* \"#utility.yul\":621:684   */\n  tag_25\n  jumpi\n    /* \"#utility.yul\":680:681   */\n  0x00\n    /* \"#utility.yul\":677:678   */\n  dup1\n    /* \"#utility.yul\":670:682   */\n  revert\n    /* \"#utility.yul\":621:684   */\ntag_25:\n    /* \"#utility.yul\":568:690   */\n  pop\n  jump\t// out\n    /* \"#utility.yul\":696:839   */\ntag_15:\n    /* \"#utility.yul\":753:758   */\n  0x00\n    /* \"#utility.yul\":784:790   */\n  dup2\n    /* \"#utility.yul\":778:791   */\n  mload\n    /* \"#utility.yul\":769:791   */\n  swap1\n  pop\n    /* \"#utility.yul\":800:833   */\n  tag_27\n    /* \"#utility.yul\":827:832   */\n  dup2\n    /* \"#utility.yul\":800:833   */\n  tag_14\n  jump\t// in\ntag_27:\n    /* \"#utility.yul\":696:839   */\n  swap3\n  swap2\n  pop\n  pop\n  jump\t// out\n    /* \"#utility.yul\":845:1665   */\ntag_3:\n    /* \"#utility.yul\":942:948   */\n  0x00\n    /* \"#utility.yul\":950:956   */\n  dup1\n    /* \"#utility.yul\":958:964   */\n  0x00\n    /* \"#utility.yul\":966:972   */\n  dup1\n    /* \"#utility.yul\":1015:1018   */\n  0x80\n    /* \"#utility.yul\":1003:1012   */\n  dup6\n    /* \"#utility.yul\":994:1001   */\n  dup8\n    /* \"#utility.yul\":990:1013   */\n  sub\n    /* \"#utility.yul\":986:1019   */\n  slt\n    /* \"#utility.yul\":983:1103   */\n  iszero\n  tag_29\n  jumpi\n    /* \"#utility.yul\":1022:1101   */\n  tag_30\n  tag_10\n  jump\t// in\ntag_30:\n    /* \"#utility.yul\":983:1103   */\ntag_29:\n    /* \"#utility.yul\":1142:1143   */\n  0x00\n    /* \"#utility.yul\":1167:1231   */\n  tag_31\n    /* \"#utility.yul\":1223:1230   */\n  dup8\n    /* \"#utility.yul\":1214:1220   */\n  dup3\n    /* \"#utility.yul\":1203:1212   */\n  dup9\n    /* \"#utility.yul\":1199:1221   */\n  add\n    /* \"#utility.yul\":1167:1231   */\n  tag_15\n  jump\t// in\ntag_31:\n    /* \"#utility.yul\":1157:1231   */\n  swap5\n  pop\n    /* \"#utility.yul\":1113:1241   */\n  pop\n    /* \"#utility.yul\":1280:1282   */\n  0x20\n    /* \"#utility.yul\":1306:1370   */\n  tag_32\n    /* \"#utility.yul\":1362:1369   */\n  dup8\n    /* \"#utility.yul\":1353:1359   */\n  dup3\n    /* \"#utility.yul\":1342:1351   */\n  dup9\n    /* \"#utility.yul\":1338:1360   */\n  add\n    /* \"#utility.yul\":1306:1370   */\n  tag_15\n  jump\t// in\ntag_32:\n    /* \"#utility.yul\":1296:1370   */\n  swap4\n  pop\n    /* \"#utility.yul\":1251:1380   */\n  pop\n    /* \"#utility.yul\":1419:1421   */\n  0x40\n    /* \"#utility.yul\":1445:1509   */\n  tag_33\n    /* \"#utility.yul\":1501:1508   */\n  dup8\n    /* \"#utility.yul\":1492:1498   */\n  dup3\n    /* \"#utility.yul\":1481:1490   */\n  dup9\n    /* \"#utility.yul\":1477:1499   */\n  add\n    /* \"#utility.yul\":1445:1509   */\n  tag_15\n  jump\t// in\ntag_33:\n    /* \"#utility.yul\":1435:1509   */\n  swap3\n  pop\n    /* \"#utility.yul\":1390:1519   */\n  pop\n    /* \"#utility.yul\":1558:1560   */\n  0x60\n    /* \"#utility.yul\":1584:1648   */\n  tag_34\n    /* \"#utility.yul\":1640:1647   */\n  dup8\n    /* \"#utility.yul\":1631:1637   */\n  dup3\n    /* \"#utility.yul\":1620:1629   */\n  dup9\n    /* \"#utility.yul\":1616:1638   */\n  add\n    /* \"#utility.yul\":1584:1648   */\n  tag_15\n  jump\t// in\ntag_34:\n    /* \"#utility.yul\":1574:1648   */\n  swap2\n  pop\n    /* \"#utility.yul\":1529:1658   */\n  pop\n    /* \"#utility.yul\":845:1665   */\n  swap3\n  swap6\n  swap2\n  swap5\n  pop\n  swap3\n  pop\n  jump\t// out\n    /* \"contracts/Gauge.sol\":16315:24265  contract Gauge is ReentrancyGuard {... */\ntag_8:\n  mload(0x80)\n  mload(0xa0)\n  mload(0xc0)\n  mload(0xe0)\n  codecopy(0x00, dataOffset(sub_0), dataSize(sub_0))\n  0x00\n  assignImmutable(\"0x51432b6f6ffff9c0d91073ef7f23a4f639ef505c3fc71bae7794b27877f54eff\")\n  0x00\n  assignImmutable(\"0xba317e1d5aa05b5861702d06e2202816a8a6452d32b68558d200060c06eac391\")\n  0x00\n  assignImmutable(\"0xeae3a40291c102cf85748609ff9046ea32530afca3ce058bd94a667258369fd6\")\n  0x00\n  assignImmutable(\"0x6d7e9d25f7937a025d098651c32892e1256b8f7bcedf36aadd28cccf92a5a08d\")\n  return(0x00, dataSize(sub_0))\nstop\n\nsub_0: assembly {\n        /* \"contracts/Gauge.sol\":16315:24265  contract Gauge is ReentrancyGuard {... */\n      mstore(0x40, 0x80)\n      callvalue\n      dup1\n      iszero\n      tag_1\n      jumpi\n      0x00\n      dup1\n      revert\n    tag_1:\n      pop\n      jumpi(tag_2, lt(calldatasize, 0x04))\n      shr(0xe0, calldataload(0x00))\n      dup1\n      0xa66f42c0\n      gt\n      tag_24\n      jumpi\n      dup1\n      0xc73b399b\n      gt\n      tag_25\n      jumpi\n      dup1\n      0xc73b399b\n      eq\n      tag_18\n      jumpi\n      dup1\n      0xe2bbb158\n      eq\n      tag_19\n      jumpi\n      dup1\n      0xe3161ddd\n      eq\n      tag_20\n      jumpi\n      dup1\n      0xf7c618c1\n      eq\n      tag_21\n      jumpi\n      dup1\n      0xfc97a303\n      eq\n      tag_22\n      jumpi\n      dup1\n      0xfdb483c7\n      eq\n      tag_23\n      jumpi\n      jump(tag_2)\n    tag_25:\n      dup1\n      0xa66f42c0\n      eq\n      tag_13\n      jumpi\n      dup1\n      0xa9f8d181\n      eq\n      tag_14\n      jumpi\n      dup1\n      0xb66503cf\n      eq\n      tag_15\n      jumpi\n      dup1\n      0xc00007b0\n      eq\n      tag_16\n      jumpi\n      dup1\n      0xc6f678bd\n      eq\n      tag_17\n      jumpi\n      jump(tag_2)\n    tag_24:\n      dup1\n      0x4198709a\n      gt\n      tag_26\n      jumpi\n      dup1\n      0x4198709a\n      eq\n      tag_8\n      jumpi\n      dup1\n      0x5eebea20\n      eq\n      tag_9\n      jumpi\n      dup1\n      0x853828b6\n      eq\n      tag_10\n      jumpi\n      dup1\n      0x892f4805\n      eq\n      tag_11\n      jumpi\n      dup1\n      0x8f662915\n      eq\n      tag_12\n      jumpi\n      jump(tag_2)\n    tag_26:\n      dup1\n      0x18160ddd\n      eq\n      tag_3\n      jumpi\n      dup1\n      0x1959a002\n      eq\n      tag_4\n      jumpi\n      dup1\n      0x2e1a7d4d\n      eq\n      tag_5\n      jumpi\n      dup1\n      0x3a4b66f1\n      eq\n      tag_6\n      jumpi\n      dup1\n      0x3b92eb23\n      eq\n      tag_7\n      jumpi\n    tag_2:\n      0x00\n      dup1\n      revert\n        /* \"contracts/Gauge.sol\":17416:17439  uint public totalSupply */\n    tag_3:\n      tag_27\n      tag_28\n      jump\t// in\n    tag_27:\n      mload(0x40)\n      tag_29\n      swap2\n      swap1\n      tag_30\n      jump\t// in\n    tag_29:\n      mload(0x40)\n      dup1\n      swap2\n      sub\n      swap1\n      return\n        /* \"contracts/Gauge.sol\":17446:17490  mapping(address => UserInfo) public userInfo */\n    tag_4:\n      tag_31\n      0x04\n      dup1\n      calldatasize\n      sub\n      dup2\n      add\n      swap1\n      tag_32\n      swap2\n      swap1\n      tag_33\n      jump\t// in\n    tag_32:\n      tag_34\n      jump\t// in\n    tag_31:\n      mload(0x40)\n      tag_35\n      swap3\n      swap2\n      swap1\n      tag_36\n      jump\t// in\n    tag_35:\n      mload(0x40)\n      dup1\n      swap2\n      sub\n      swap1\n      return\n        /* \"contracts/Gauge.sol\":21031:21249  function withdraw(uint amount) public {... */\n    tag_5:\n      tag_37\n      0x04\n      dup1\n      calldatasize\n      sub\n      dup2\n      add\n      swap1\n      tag_38\n      swap2\n      swap1\n      tag_39\n      jump\t// in\n    tag_38:\n      tag_40\n      jump\t// in\n    tag_37:\n      stop\n        /* \"contracts/Gauge.sol\":16869:16899  address public immutable stake */\n    tag_6:\n      tag_41\n      tag_42\n      jump\t// in\n    tag_41:\n      mload(0x40)\n      tag_43\n      swap2\n      swap1\n      tag_44\n      jump\t// in\n    tag_43:\n      mload(0x40)\n      dup1\n      swap2\n      sub\n      swap1\n      return\n        /* \"contracts/Gauge.sol\":16957:16989  address public immutable veToken */\n    tag_7:\n      tag_45\n      tag_46\n      jump\t// in\n    tag_45:\n      mload(0x40)\n      tag_47\n      swap2\n      swap1\n      tag_44\n      jump\t// in\n    tag_47:\n      mload(0x40)\n      dup1\n      swap2\n      sub\n      swap1\n      return\n        /* \"contracts/Gauge.sol\":17201:17229  uint256 public tokenPerBlock */\n    tag_8:\n      tag_48\n      tag_49\n      jump\t// in\n    tag_48:\n      mload(0x40)\n      tag_50\n      swap2\n      swap1\n      tag_30\n      jump\t// in\n    tag_50:\n      mload(0x40)\n      dup1\n      swap2\n      sub\n      swap1\n      return\n        /* \"contracts/Gauge.sol\":23544:23702  function pending(address _user) public view returns (uint256){... */\n    tag_9:\n      tag_51\n      0x04\n      dup1\n      calldatasize\n      sub\n      dup2\n      add\n      swap1\n      tag_52\n      swap2\n      swap1\n      tag_33\n      jump\t// in\n    tag_52:\n      tag_53\n      jump\t// in\n    tag_51:\n      mload(0x40)\n      tag_54\n      swap2\n      swap1\n      tag_30\n      jump\t// in\n    tag_54:\n      mload(0x40)\n      dup1\n      swap2\n      sub\n      swap1\n      return\n        /* \"contracts/Gauge.sol\":20939:21025  function withdrawAll() external {... */\n    tag_10:\n      tag_55\n      tag_56\n      jump\t// in\n    tag_55:\n      stop\n        /* \"contracts/Gauge.sol\":19017:19727  function derivedBalance(address account, uint _balance) public view returns (uint) {... */\n    tag_11:\n      tag_57\n      0x04\n      dup1\n      calldatasize\n      sub\n      dup2\n      add\n      swap1\n      tag_58\n      swap2\n      swap1\n      tag_59\n      jump\t// in\n    tag_58:\n      tag_60\n      jump\t// in\n    tag_57:\n      mload(0x40)\n      tag_61\n      swap2\n      swap1\n      tag_30\n      jump\t// in\n    tag_61:\n      mload(0x40)\n      dup1\n      swap2\n      sub\n      swap1\n      return\n        /* \"contracts/Gauge.sol\":17235:17266  uint256 public accTokenPerShare */\n    tag_12:\n      tag_62\n      tag_63\n      jump\t// in\n    tag_62:\n      mload(0x40)\n      tag_64\n      swap2\n      swap1\n      tag_30\n      jump\t// in\n    tag_64:\n      mload(0x40)\n      dup1\n      swap2\n      sub\n      swap1\n      return\n        /* \"contracts/Gauge.sol\":17027:17057  address public immutable boost */\n    tag_13:\n      tag_65\n      tag_66\n      jump\t// in\n    tag_65:\n      mload(0x40)\n      tag_67\n      swap2\n      swap1\n      tag_44\n      jump\t// in\n    tag_67:\n      mload(0x40)\n      dup1\n      swap2\n      sub\n      swap1\n      return\n        /* \"contracts/Gauge.sol\":17321:17351  uint256 public lastRewardBlock */\n    tag_14:\n      tag_68\n      tag_69\n      jump\t// in\n    tag_68:\n      mload(0x40)\n      tag_70\n      swap2\n      swap1\n      tag_30\n      jump\t// in\n    tag_70:\n      mload(0x40)\n      dup1\n      swap2\n      sub\n      swap1\n      return\n        /* \"contracts/Gauge.sol\":23709:24262  function notifyRewardAmount(address token, uint _rewardRate) external onlyBoost {... */\n    tag_15:\n      tag_71\n      0x04\n      dup1\n      calldatasize\n      sub\n      dup2\n      add\n      swap1\n      tag_72\n      swap2\n      swap1\n      tag_59\n      jump\t// in\n    tag_72:\n      tag_73\n      jump\t// in\n    tag_71:\n      stop\n        /* \"contracts/Gauge.sol\":18454:19011  function getReward(address account) external nonReentrant {... */\n    tag_16:\n      tag_74\n      0x04\n      dup1\n      calldatasize\n      sub\n      dup2\n      add\n      swap1\n      tag_75\n      swap2\n      swap1\n      tag_33\n      jump\t// in\n    tag_75:\n      tag_76\n      jump\t// in\n    tag_74:\n      stop\n        /* \"contracts/Gauge.sol\":19734:19847  function depositAll(uint tokenId) external {... */\n    tag_17:\n      tag_77\n      0x04\n      dup1\n      calldatasize\n      sub\n      dup2\n      add\n      swap1\n      tag_78\n      swap2\n      swap1\n      tag_39\n      jump\t// in\n    tag_78:\n      tag_79\n      jump\t// in\n    tag_77:\n      stop\n        /* \"contracts/Gauge.sol\":22771:23538  function pendingMax(address _user) public view returns (uint256){... */\n    tag_18:\n      tag_80\n      0x04\n      dup1\n      calldatasize\n      sub\n      dup2\n      add\n      swap1\n      tag_81\n      swap2\n      swap1\n      tag_33\n      jump\t// in\n    tag_81:\n      tag_82\n      jump\t// in\n    tag_80:\n      mload(0x40)\n      tag_83\n      swap2\n      swap1\n      tag_30\n      jump\t// in\n    tag_83:\n      mload(0x40)\n      dup1\n      swap2\n      sub\n      swap1\n      return\n        /* \"contracts/Gauge.sol\":19853:20933  function deposit(uint amount, uint tokenId) public nonReentrant {... */\n    tag_19:\n      tag_84\n      0x04\n      dup1\n      calldatasize\n      sub\n      dup2\n      add\n      swap1\n      tag_85\n      swap2\n      swap1\n      tag_86\n      jump\t// in\n    tag_85:\n      tag_87\n      jump\t// in\n    tag_84:\n      stop\n        /* \"contracts/Gauge.sol\":22179:22704  function updatePool() public {... */\n    tag_20:\n      tag_88\n      tag_89\n      jump\t// in\n    tag_88:\n      stop\n        /* \"contracts/Gauge.sol\":17063:17099  address public immutable rewardToken */\n    tag_21:\n      tag_90\n      tag_91\n      jump\t// in\n    tag_90:\n      mload(0x40)\n      tag_92\n      swap2\n      swap1\n      tag_44\n      jump\t// in\n    tag_92:\n      mload(0x40)\n      dup1\n      swap2\n      sub\n      swap1\n      return\n        /* \"contracts/Gauge.sol\":17154:17194  mapping(address => uint) public tokenIds */\n    tag_22:\n      tag_93\n      0x04\n      dup1\n      calldatasize\n      sub\n      dup2\n      add\n      swap1\n      tag_94\n      swap2\n      swap1\n      tag_33\n      jump\t// in\n    tag_94:\n      tag_95\n      jump\t// in\n    tag_93:\n      mload(0x40)\n      tag_96\n      swap2\n      swap1\n      tag_30\n      jump\t// in\n    tag_96:\n      mload(0x40)\n      dup1\n      swap2\n      sub\n      swap1\n      return\n        /* \"contracts/Gauge.sol\":21255:22173  function withdrawToken(uint _amount, uint tokenId) public nonReentrant {... */\n    tag_23:\n      tag_97\n      0x04\n      dup1\n      calldatasize\n      sub\n      dup2\n      add\n      swap1\n      tag_98\n      swap2\n      swap1\n      tag_86\n      jump\t// in\n    tag_98:\n      tag_99\n      jump\t// in\n    tag_97:\n      stop\n        /* \"contracts/Gauge.sol\":17416:17439  uint public totalSupply */\n    tag_28:\n      sload(0x05)\n      dup2\n      jump\t// out\n        /* \"contracts/Gauge.sol\":17446:17490  mapping(address => UserInfo) public userInfo */\n    tag_34:\n      mstore(0x20, 0x06)\n      dup1\n      0x00\n      mstore\n      keccak256(0x00, 0x40)\n      0x00\n      swap2\n      pop\n      swap1\n      pop\n      dup1\n      0x00\n      add\n      sload\n      swap1\n      dup1\n      0x01\n      add\n      sload\n      swap1\n      pop\n      dup3\n      jump\t// out\n        /* \"contracts/Gauge.sol\":21031:21249  function withdraw(uint amount) public {... */\n    tag_40:\n        /* \"contracts/Gauge.sol\":21079:21091  uint tokenId */\n      0x00\n        /* \"contracts/Gauge.sol\":21119:21127  userInfo */\n      0x06\n        /* \"contracts/Gauge.sol\":21119:21139  userInfo[msg.sender] */\n      0x00\n        /* \"contracts/Gauge.sol\":21128:21138  msg.sender */\n      caller\n        /* \"contracts/Gauge.sol\":21119:21139  userInfo[msg.sender] */\n      0xffffffffffffffffffffffffffffffffffffffff\n      and\n      0xffffffffffffffffffffffffffffffffffffffff\n      and\n      dup2\n      mstore\n      0x20\n      add\n      swap1\n      dup2\n      mstore\n      0x20\n      add\n      0x00\n      keccak256\n        /* \"contracts/Gauge.sol\":21119:21146  userInfo[msg.sender].amount */\n      0x00\n      add\n      sload\n        /* \"contracts/Gauge.sol\":21109:21115  amount */\n      dup3\n        /* \"contracts/Gauge.sol\":21109:21146  amount == userInfo[msg.sender].amount */\n      eq\n        /* \"contracts/Gauge.sol\":21105:21203  if (amount == userInfo[msg.sender].amount) {... */\n      iszero\n      tag_101\n      jumpi\n        /* \"contracts/Gauge.sol\":21172:21180  tokenIds */\n      0x01\n        /* \"contracts/Gauge.sol\":21172:21192  tokenIds[msg.sender] */\n      0x00\n        /* \"contracts/Gauge.sol\":21181:21191  msg.sender */\n      caller\n        /* \"contracts/Gauge.sol\":21172:21192  tokenIds[msg.sender] */\n      0xffffffffffffffffffffffffffffffffffffffff\n      and\n      0xffffffffffffffffffffffffffffffffffffffff\n      and\n      dup2\n      mstore\n      0x20\n      add\n      swap1\n      dup2\n      mstore\n      0x20\n      add\n      0x00\n      keccak256\n      sload\n        /* \"contracts/Gauge.sol\":21162:21192  tokenId = tokenIds[msg.sender] */\n      swap1\n      pop\n        /* \"contracts/Gauge.sol\":21105:21203  if (amount == userInfo[msg.sender].amount) {... */\n    tag_101:\n        /* \"contracts/Gauge.sol\":21212:21242  withdrawToken(amount, tokenId) */\n      tag_102\n        /* \"contracts/Gauge.sol\":21226:21232  amount */\n      dup3\n        /* \"contracts/Gauge.sol\":21234:21241  tokenId */\n      dup3\n        /* \"contracts/Gauge.sol\":21212:21225  withdrawToken */\n      tag_99\n        /* \"contracts/Gauge.sol\":21212:21242  withdrawToken(amount, tokenId) */\n      jump\t// in\n    tag_102:\n        /* \"contracts/Gauge.sol\":21069:21249  {... */\n      pop\n        /* \"contracts/Gauge.sol\":21031:21249  function withdraw(uint amount) public {... */\n      pop\n      jump\t// out\n        /* \"contracts/Gauge.sol\":16869:16899  address public immutable stake */\n    tag_42:\n      immutable(\"0x6d7e9d25f7937a025d098651c32892e1256b8f7bcedf36aadd28cccf92a5a08d\")\n      dup2\n      jump\t// out\n        /* \"contracts/Gauge.sol\":16957:16989  address public immutable veToken */\n    tag_46:\n      immutable(\"0xeae3a40291c102cf85748609ff9046ea32530afca3ce058bd94a667258369fd6\")\n      dup2\n      jump\t// out\n        /* \"contracts/Gauge.sol\":17201:17229  uint256 public tokenPerBlock */\n    tag_49:\n      sload(0x02)\n      dup2\n      jump\t// out\n        /* \"contracts/Gauge.sol\":23544:23702  function pending(address _user) public view returns (uint256){... */\n    tag_53:\n        /* \"contracts/Gauge.sol\":23597:23604  uint256 */\n      0x00\n        /* \"contracts/Gauge.sol\":23615:23629  uint256 amount */\n      dup1\n        /* \"contracts/Gauge.sol\":23632:23649  pendingMax(_user) */\n      tag_104\n        /* \"contracts/Gauge.sol\":23643:23648  _user */\n      dup4\n        /* \"contracts/Gauge.sol\":23632:23642  pendingMax */\n      tag_82\n        /* \"contracts/Gauge.sol\":23632:23649  pendingMax(_user) */\n      jump\t// in\n    tag_104:\n        /* \"contracts/Gauge.sol\":23615:23649  uint256 amount = pendingMax(_user) */\n      swap1\n      pop\n        /* \"contracts/Gauge.sol\":23666:23695  derivedBalance(_user, amount) */\n      tag_105\n        /* \"contracts/Gauge.sol\":23681:23686  _user */\n      dup4\n        /* \"contracts/Gauge.sol\":23688:23694  amount */\n      dup3\n        /* \"contracts/Gauge.sol\":23666:23680  derivedBalance */\n      tag_60\n        /* \"contracts/Gauge.sol\":23666:23695  derivedBalance(_user, amount) */\n      jump\t// in\n    tag_105:\n        /* \"contracts/Gauge.sol\":23659:23695  return derivedBalance(_user, amount) */\n      swap2\n      pop\n      pop\n        /* \"contracts/Gauge.sol\":23544:23702  function pending(address _user) public view returns (uint256){... */\n      swap2\n      swap1\n      pop\n      jump\t// out\n        /* \"contracts/Gauge.sol\":20939:21025  function withdrawAll() external {... */\n    tag_56:\n        /* \"contracts/Gauge.sol\":20981:21018  withdraw(userInfo[msg.sender].amount) */\n      tag_107\n        /* \"contracts/Gauge.sol\":20990:20998  userInfo */\n      0x06\n        /* \"contracts/Gauge.sol\":20990:21010  userInfo[msg.sender] */\n      0x00\n        /* \"contracts/Gauge.sol\":20999:21009  msg.sender */\n      caller\n        /* \"contracts/Gauge.sol\":20990:21010  userInfo[msg.sender] */\n      0xffffffffffffffffffffffffffffffffffffffff\n      and\n      0xffffffffffffffffffffffffffffffffffffffff\n      and\n      dup2\n      mstore\n      0x20\n      add\n      swap1\n      dup2\n      mstore\n      0x20\n      add\n      0x00\n      keccak256\n        /* \"contracts/Gauge.sol\":20990:21017  userInfo[msg.sender].amount */\n      0x00\n      add\n      sload\n        /* \"contracts/Gauge.sol\":20981:20989  withdraw */\n      tag_40\n        /* \"contracts/Gauge.sol\":20981:21018  withdraw(userInfo[msg.sender].amount) */\n      jump\t// in\n    tag_107:\n        /* \"contracts/Gauge.sol\":20939:21025  function withdrawAll() external {... */\n      jump\t// out\n        /* \"contracts/Gauge.sol\":19017:19727  function derivedBalance(address account, uint _balance) public view returns (uint) {... */\n    tag_60:\n        /* \"contracts/Gauge.sol\":19094:19098  uint */\n      0x00\n        /* \"contracts/Gauge.sol\":19110:19123  uint _tokenId */\n      dup1\n        /* \"contracts/Gauge.sol\":19126:19134  tokenIds */\n      0x01\n        /* \"contracts/Gauge.sol\":19126:19143  tokenIds[account] */\n      0x00\n        /* \"contracts/Gauge.sol\":19135:19142  account */\n      dup6\n        /* \"contracts/Gauge.sol\":19126:19143  tokenIds[account] */\n      0xffffffffffffffffffffffffffffffffffffffff\n      and\n      0xffffffffffffffffffffffffffffffffffffffff\n      and\n      dup2\n      mstore\n      0x20\n      add\n      swap1\n      dup2\n      mstore\n      0x20\n      add\n      0x00\n      keccak256\n      sload\n        /* \"contracts/Gauge.sol\":19110:19143  uint _tokenId = tokenIds[account] */\n      swap1\n      pop\n        /* \"contracts/Gauge.sol\":19153:19166  uint _derived */\n      0x00\n        /* \"contracts/Gauge.sol\":19185:19188  100 */\n      0x64\n        /* \"contracts/Gauge.sol\":19180:19182  30 */\n      0x1e\n        /* \"contracts/Gauge.sol\":19169:19177  _balance */\n      dup6\n        /* \"contracts/Gauge.sol\":19169:19182  _balance * 30 */\n      tag_109\n      swap2\n      swap1\n      tag_110\n      jump\t// in\n    tag_109:\n        /* \"contracts/Gauge.sol\":19169:19188  _balance * 30 / 100 */\n      tag_111\n      swap2\n      swap1\n      tag_112\n      jump\t// in\n    tag_111:\n        /* \"contracts/Gauge.sol\":19153:19188  uint _derived = _balance * 30 / 100 */\n      swap1\n      pop\n        /* \"contracts/Gauge.sol\":19198:19212  uint _adjusted */\n      0x00\n        /* \"contracts/Gauge.sol\":19226:19238  uint _supply */\n      dup1\n        /* \"contracts/Gauge.sol\":19248:19253  boost */\n      immutable(\"0xba317e1d5aa05b5861702d06e2202816a8a6452d32b68558d200060c06eac391\")\n        /* \"contracts/Gauge.sol\":19241:19262  IBoost(boost).weights */\n      0xffffffffffffffffffffffffffffffffffffffff\n      and\n      0xa7cac846\n        /* \"contracts/Gauge.sol\":19263:19268  stake */\n      immutable(\"0x6d7e9d25f7937a025d098651c32892e1256b8f7bcedf36aadd28cccf92a5a08d\")\n        /* \"contracts/Gauge.sol\":19241:19269  IBoost(boost).weights(stake) */\n      mload(0x40)\n      dup3\n      0xffffffff\n      and\n      0xe0\n      shl\n      dup2\n      mstore\n      0x04\n      add\n      tag_113\n      swap2\n      swap1\n      tag_44\n      jump\t// in\n    tag_113:\n      0x20\n      mload(0x40)\n      dup1\n      dup4\n      sub\n      dup2\n      dup7\n      gas\n      staticcall\n      iszero\n      dup1\n      iszero\n      tag_115\n      jumpi\n      returndatasize\n      0x00\n      dup1\n      returndatacopy\n      revert(0x00, returndatasize)\n    tag_115:\n      pop\n      pop\n      pop\n      pop\n      mload(0x40)\n      returndatasize\n      not(0x1f)\n      0x1f\n      dup3\n      add\n      and\n      dup3\n      add\n      dup1\n      0x40\n      mstore\n      pop\n      dup2\n      add\n      swap1\n      tag_116\n      swap2\n      swap1\n      tag_117\n      jump\t// in\n    tag_116:\n        /* \"contracts/Gauge.sol\":19226:19269  uint _supply = IBoost(boost).weights(stake) */\n      swap1\n      pop\n        /* \"contracts/Gauge.sol\":19303:19310  veToken */\n      immutable(\"0xeae3a40291c102cf85748609ff9046ea32530afca3ce058bd94a667258369fd6\")\n        /* \"contracts/Gauge.sol\":19294:19319  IVeToken(veToken).ownerOf */\n      0xffffffffffffffffffffffffffffffffffffffff\n      and\n      0x6352211e\n        /* \"contracts/Gauge.sol\":19320:19328  _tokenId */\n      dup6\n        /* \"contracts/Gauge.sol\":19294:19329  IVeToken(veToken).ownerOf(_tokenId) */\n      mload(0x40)\n      dup3\n      0xffffffff\n      and\n      0xe0\n      shl\n      dup2\n      mstore\n      0x04\n      add\n      tag_118\n      swap2\n      swap1\n      tag_30\n      jump\t// in\n    tag_118:\n      0x20\n      mload(0x40)\n      dup1\n      dup4\n      sub\n      dup2\n      dup7\n      gas\n      staticcall\n      iszero\n      dup1\n      iszero\n      tag_120\n      jumpi\n      returndatasize\n      0x00\n      dup1\n      returndatacopy\n      revert(0x00, returndatasize)\n    tag_120:\n      pop\n      pop\n      pop\n      pop\n      mload(0x40)\n      returndatasize\n      not(0x1f)\n      0x1f\n      dup3\n      add\n      and\n      dup3\n      add\n      dup1\n      0x40\n      mstore\n      pop\n      dup2\n      add\n      swap1\n      tag_121\n      swap2\n      swap1\n      tag_122\n      jump\t// in\n    tag_121:\n        /* \"contracts/Gauge.sol\":19283:19329  account == IVeToken(veToken).ownerOf(_tokenId) */\n      0xffffffffffffffffffffffffffffffffffffffff\n      and\n        /* \"contracts/Gauge.sol\":19283:19290  account */\n      dup8\n        /* \"contracts/Gauge.sol\":19283:19329  account == IVeToken(veToken).ownerOf(_tokenId) */\n      0xffffffffffffffffffffffffffffffffffffffff\n      and\n      eq\n        /* \"contracts/Gauge.sol\":19283:19344  account == IVeToken(veToken).ownerOf(_tokenId) && _supply > 0 */\n      dup1\n      iszero\n      tag_123\n      jumpi\n      pop\n        /* \"contracts/Gauge.sol\":19343:19344  0 */\n      0x00\n        /* \"contracts/Gauge.sol\":19333:19340  _supply */\n      dup2\n        /* \"contracts/Gauge.sol\":19333:19344  _supply > 0 */\n      gt\n        /* \"contracts/Gauge.sol\":19283:19344  account == IVeToken(veToken).ownerOf(_tokenId) && _supply > 0 */\n    tag_123:\n        /* \"contracts/Gauge.sol\":19279:19662  if (account == IVeToken(veToken).ownerOf(_tokenId) && _supply > 0) {... */\n      iszero\n      tag_124\n      jumpi\n        /* \"contracts/Gauge.sol\":19360:19375  uint usedWeight */\n      0x00\n        /* \"contracts/Gauge.sol\":19385:19390  boost */\n      immutable(\"0xba317e1d5aa05b5861702d06e2202816a8a6452d32b68558d200060c06eac391\")\n        /* \"contracts/Gauge.sol\":19378:19403  IBoost(boost).usedWeights */\n      0xffffffffffffffffffffffffffffffffffffffff\n      and\n      0x79e93824\n        /* \"contracts/Gauge.sol\":19404:19412  _tokenId */\n      dup7\n        /* \"contracts/Gauge.sol\":19378:19413  IBoost(boost).usedWeights(_tokenId) */\n      mload(0x40)\n      dup3\n      0xffffffff\n      and\n      0xe0\n      shl\n      dup2\n      mstore\n      0x04\n      add\n      tag_125\n      swap2\n      swap1\n      tag_30\n      jump\t// in\n    tag_125:\n      0x20\n      mload(0x40)\n      dup1\n      dup4\n      sub\n      dup2\n      dup7\n      gas\n      staticcall\n      iszero\n      dup1\n      iszero\n      tag_127\n      jumpi\n      returndatasize\n      0x00\n      dup1\n      returndatacopy\n      revert(0x00, returndatasize)\n    tag_127:\n      pop\n      pop\n      pop\n      pop\n      mload(0x40)\n      returndatasize\n      not(0x1f)\n      0x1f\n      dup3\n      add\n      and\n      dup3\n      add\n      dup1\n      0x40\n      mstore\n      pop\n      dup2\n      add\n      swap1\n      tag_128\n      swap2\n      swap1\n      tag_117\n      jump\t// in\n    tag_128:\n        /* \"contracts/Gauge.sol\":19360:19413  uint usedWeight = IBoost(boost).usedWeights(_tokenId) */\n      swap1\n      pop\n        /* \"contracts/Gauge.sol\":19427:19437  uint useVe */\n      0x00\n        /* \"contracts/Gauge.sol\":19449:19456  veToken */\n      immutable(\"0xeae3a40291c102cf85748609ff9046ea32530afca3ce058bd94a667258369fd6\")\n        /* \"contracts/Gauge.sol\":19440:19470  IVeToken(veToken).balanceOfNFT */\n      0xffffffffffffffffffffffffffffffffffffffff\n      and\n      0xe7e242d4\n        /* \"contracts/Gauge.sol\":19471:19479  _tokenId */\n      dup8\n        /* \"contracts/Gauge.sol\":19440:19480  IVeToken(veToken).balanceOfNFT(_tokenId) */\n      mload(0x40)\n      dup3\n      0xffffffff\n      and\n      0xe0\n      shl\n      dup2\n      mstore\n      0x04\n      add\n      tag_129\n      swap2\n      swap1\n      tag_30\n      jump\t// in\n    tag_129:\n      0x20\n      mload(0x40)\n      dup1\n      dup4\n      sub\n      dup2\n      dup7\n      gas\n      staticcall\n      iszero\n      dup1\n      iszero\n      tag_131\n      jumpi\n      returndatasize\n      0x00\n      dup1\n      returndatacopy\n      revert(0x00, returndatasize)\n    tag_131:\n      pop\n      pop\n      pop\n      pop\n      mload(0x40)\n      returndatasize\n      not(0x1f)\n      0x1f\n      dup3\n      add\n      and\n      dup3\n      add\n      dup1\n      0x40\n      mstore\n      pop\n      dup2\n      add\n      swap1\n      tag_132\n      swap2\n      swap1\n      tag_117\n      jump\t// in\n    tag_132:\n        /* \"contracts/Gauge.sol\":19427:19480  uint useVe = IVeToken(veToken).balanceOfNFT(_tokenId) */\n      swap1\n      pop\n        /* \"contracts/Gauge.sol\":19506:19579  IBoost(boost).votes(_tokenId, stake).mul(1e12).mul(useVe).div(usedWeight) */\n      tag_133\n        /* \"contracts/Gauge.sol\":19568:19578  usedWeight */\n      dup3\n        /* \"contracts/Gauge.sol\":19506:19563  IBoost(boost).votes(_tokenId, stake).mul(1e12).mul(useVe) */\n      tag_134\n        /* \"contracts/Gauge.sol\":19557:19562  useVe */\n      dup4\n        /* \"contracts/Gauge.sol\":19506:19552  IBoost(boost).votes(_tokenId, stake).mul(1e12) */\n      tag_135\n        /* \"contracts/Gauge.sol\":19547:19551  1e12 */\n      0xe8d4a51000\n        /* \"contracts/Gauge.sol\":19513:19518  boost */\n      immutable(\"0xba317e1d5aa05b5861702d06e2202816a8a6452d32b68558d200060c06eac391\")\n        /* \"contracts/Gauge.sol\":19506:19525  IBoost(boost).votes */\n      0xffffffffffffffffffffffffffffffffffffffff\n      and\n      0xd23254b4\n        /* \"contracts/Gauge.sol\":19526:19534  _tokenId */\n      dup14\n        /* \"contracts/Gauge.sol\":19536:19541  stake */\n      immutable(\"0x6d7e9d25f7937a025d098651c32892e1256b8f7bcedf36aadd28cccf92a5a08d\")\n        /* \"contracts/Gauge.sol\":19506:19542  IBoost(boost).votes(_tokenId, stake) */\n      mload(0x40)\n      dup4\n      0xffffffff\n      and\n      0xe0\n      shl\n      dup2\n      mstore\n      0x04\n      add\n      tag_136\n      swap3\n      swap2\n      swap1\n      tag_137\n      jump\t// in\n    tag_136:\n      0x20\n      mload(0x40)\n      dup1\n      dup4\n      sub\n      dup2\n      dup7\n      gas\n      staticcall\n      iszero\n      dup1\n      iszero\n      tag_139\n      jumpi\n      returndatasize\n      0x00\n      dup1\n      returndatacopy\n      revert(0x00, returndatasize)\n    tag_139:\n      pop\n      pop\n      pop\n      pop\n      mload(0x40)\n      returndatasize\n      not(0x1f)\n      0x1f\n      dup3\n      add\n      and\n      dup3\n      add\n      dup1\n      0x40\n      mstore\n      pop\n      dup2\n      add\n      swap1\n      tag_140\n      swap2\n      swap1\n      tag_117\n      jump\t// in\n    tag_140:\n        /* \"contracts/Gauge.sol\":19506:19546  IBoost(boost).votes(_tokenId, stake).mul */\n      tag_141\n      swap1\n        /* \"contracts/Gauge.sol\":19506:19552  IBoost(boost).votes(_tokenId, stake).mul(1e12) */\n      swap2\n      swap1\n      0xffffffff\n      and\n      jump\t// in\n    tag_135:\n        /* \"contracts/Gauge.sol\":19506:19556  IBoost(boost).votes(_tokenId, stake).mul(1e12).mul */\n      tag_141\n      swap1\n        /* \"contracts/Gauge.sol\":19506:19563  IBoost(boost).votes(_tokenId, stake).mul(1e12).mul(useVe) */\n      swap2\n      swap1\n      0xffffffff\n      and\n      jump\t// in\n    tag_134:\n        /* \"contracts/Gauge.sol\":19506:19567  IBoost(boost).votes(_tokenId, stake).mul(1e12).mul(useVe).div */\n      tag_142\n      swap1\n        /* \"contracts/Gauge.sol\":19506:19579  IBoost(boost).votes(_tokenId, stake).mul(1e12).mul(useVe).div(usedWeight) */\n      swap2\n      swap1\n      0xffffffff\n      and\n      jump\t// in\n    tag_133:\n        /* \"contracts/Gauge.sol\":19494:19579  _adjusted = IBoost(boost).votes(_tokenId, stake).mul(1e12).mul(useVe).div(usedWeight) */\n      swap4\n      pop\n        /* \"contracts/Gauge.sol\":19648:19651  100 */\n      0x64\n        /* \"contracts/Gauge.sol\":19643:19645  70 */\n      0x46\n        /* \"contracts/Gauge.sol\":19632:19639  _supply */\n      dup5\n        /* \"contracts/Gauge.sol\":19620:19629  _adjusted */\n      dup7\n        /* \"contracts/Gauge.sol\":19606:19617  totalSupply */\n      sload(0x05)\n        /* \"contracts/Gauge.sol\":19606:19629  totalSupply * _adjusted */\n      tag_143\n      swap2\n      swap1\n      tag_110\n      jump\t// in\n    tag_143:\n        /* \"contracts/Gauge.sol\":19606:19639  totalSupply * _adjusted / _supply */\n      tag_144\n      swap2\n      swap1\n      tag_112\n      jump\t// in\n    tag_144:\n        /* \"contracts/Gauge.sol\":19605:19645  (totalSupply * _adjusted / _supply) * 70 */\n      tag_145\n      swap2\n      swap1\n      tag_110\n      jump\t// in\n    tag_145:\n        /* \"contracts/Gauge.sol\":19605:19651  (totalSupply * _adjusted / _supply) * 70 / 100 */\n      tag_146\n      swap2\n      swap1\n      tag_112\n      jump\t// in\n    tag_146:\n        /* \"contracts/Gauge.sol\":19593:19651  _adjusted = (totalSupply * _adjusted / _supply) * 70 / 100 */\n      swap4\n      pop\n        /* \"contracts/Gauge.sol\":19346:19662  {... */\n      pop\n      pop\n        /* \"contracts/Gauge.sol\":19279:19662  if (account == IVeToken(veToken).ownerOf(_tokenId) && _supply > 0) {... */\n    tag_124:\n        /* \"contracts/Gauge.sol\":19678:19720  Math.min((_derived + _adjusted), _balance) */\n      tag_147\n        /* \"contracts/Gauge.sol\":19699:19708  _adjusted */\n      dup3\n        /* \"contracts/Gauge.sol\":19688:19696  _derived */\n      dup5\n        /* \"contracts/Gauge.sol\":19688:19708  _derived + _adjusted */\n      tag_148\n      swap2\n      swap1\n      tag_149\n      jump\t// in\n    tag_148:\n        /* \"contracts/Gauge.sol\":19711:19719  _balance */\n      dup8\n        /* \"contracts/Gauge.sol\":19678:19686  Math.min */\n      tag_150\n        /* \"contracts/Gauge.sol\":19678:19720  Math.min((_derived + _adjusted), _balance) */\n      jump\t// in\n    tag_147:\n        /* \"contracts/Gauge.sol\":19671:19720  return Math.min((_derived + _adjusted), _balance) */\n      swap5\n      pop\n      pop\n      pop\n      pop\n      pop\n        /* \"contracts/Gauge.sol\":19017:19727  function derivedBalance(address account, uint _balance) public view returns (uint) {... */\n      swap3\n      swap2\n      pop\n      pop\n      jump\t// out\n        /* \"contracts/Gauge.sol\":17235:17266  uint256 public accTokenPerShare */\n    tag_63:\n      sload(0x03)\n      dup2\n      jump\t// out\n        /* \"contracts/Gauge.sol\":17027:17057  address public immutable boost */\n    tag_66:\n      immutable(\"0xba317e1d5aa05b5861702d06e2202816a8a6452d32b68558d200060c06eac391\")\n      dup2\n      jump\t// out\n        /* \"contracts/Gauge.sol\":17321:17351  uint256 public lastRewardBlock */\n    tag_69:\n      sload(0x04)\n      dup2\n      jump\t// out\n        /* \"contracts/Gauge.sol\":23709:24262  function notifyRewardAmount(address token, uint _rewardRate) external onlyBoost {... */\n    tag_73:\n        /* \"contracts/Gauge.sol\":17752:17757  boost */\n      immutable(\"0xba317e1d5aa05b5861702d06e2202816a8a6452d32b68558d200060c06eac391\")\n        /* \"contracts/Gauge.sol\":17738:17757  msg.sender == boost */\n      0xffffffffffffffffffffffffffffffffffffffff\n      and\n        /* \"contracts/Gauge.sol\":17738:17748  msg.sender */\n      caller\n        /* \"contracts/Gauge.sol\":17738:17757  msg.sender == boost */\n      0xffffffffffffffffffffffffffffffffffffffff\n      and\n      eq\n        /* \"contracts/Gauge.sol\":17730:17772  require(msg.sender == boost, 'only boost') */\n      tag_152\n      jumpi\n      mload(0x40)\n      0x08c379a000000000000000000000000000000000000000000000000000000000\n      dup2\n      mstore\n      0x04\n      add\n      tag_153\n      swap1\n      tag_154\n      jump\t// in\n    tag_153:\n      mload(0x40)\n      dup1\n      swap2\n      sub\n      swap1\n      revert\n    tag_152:\n        /* \"contracts/Gauge.sol\":23816:23821  stake */\n      immutable(\"0x6d7e9d25f7937a025d098651c32892e1256b8f7bcedf36aadd28cccf92a5a08d\")\n        /* \"contracts/Gauge.sol\":23807:23821  token != stake */\n      0xffffffffffffffffffffffffffffffffffffffff\n      and\n        /* \"contracts/Gauge.sol\":23807:23812  token */\n      dup3\n        /* \"contracts/Gauge.sol\":23807:23821  token != stake */\n      0xffffffffffffffffffffffffffffffffffffffff\n      and\n      eq\n      iszero\n        /* \"contracts/Gauge.sol\":23799:23834  require(token != stake, \"no stake\") */\n      tag_156\n      jumpi\n      mload(0x40)\n      0x08c379a000000000000000000000000000000000000000000000000000000000\n      dup2\n      mstore\n      0x04\n      add\n      tag_157\n      swap1\n      tag_158\n      jump\t// in\n    tag_157:\n      mload(0x40)\n      dup1\n      swap2\n      sub\n      swap1\n      revert\n    tag_156:\n        /* \"contracts/Gauge.sol\":23864:23879  lastRewardBlock */\n      sload(0x04)\n        /* \"contracts/Gauge.sol\":23848:23860  block.number */\n      number\n        /* \"contracts/Gauge.sol\":23848:23879  block.number <= lastRewardBlock */\n      gt\n        /* \"contracts/Gauge.sol\":23844:23912  if (block.number <= lastRewardBlock) {... */\n      tag_159\n      jumpi\n        /* \"contracts/Gauge.sol\":23895:23902  return; */\n      jump(tag_155)\n        /* \"contracts/Gauge.sol\":23844:23912  if (block.number <= lastRewardBlock) {... */\n    tag_159:\n        /* \"contracts/Gauge.sol\":23937:23948  _rewardRate */\n      dup1\n        /* \"contracts/Gauge.sol\":23921:23934  tokenPerBlock */\n      0x02\n        /* \"contracts/Gauge.sol\":23921:23948  tokenPerBlock = _rewardRate */\n      dup2\n      swap1\n      sstore\n      pop\n        /* \"contracts/Gauge.sol\":23976:23977  0 */\n      0x00\n        /* \"contracts/Gauge.sol\":23962:23973  totalSupply */\n      sload(0x05)\n        /* \"contracts/Gauge.sol\":23962:23977  totalSupply > 0 */\n      gt\n        /* \"contracts/Gauge.sol\":23958:24197  if (totalSupply > 0) {... */\n      iszero\n      tag_160\n      jumpi\n        /* \"contracts/Gauge.sol\":23993:24004  uint256 mul */\n      0x00\n        /* \"contracts/Gauge.sol\":24007:24040  block.number.sub(lastRewardBlock) */\n      tag_161\n        /* \"contracts/Gauge.sol\":24024:24039  lastRewardBlock */\n      sload(0x04)\n        /* \"contracts/Gauge.sol\":24007:24019  block.number */\n      number\n        /* \"contracts/Gauge.sol\":24007:24023  block.number.sub */\n      tag_162\n      swap1\n        /* \"contracts/Gauge.sol\":24007:24040  block.number.sub(lastRewardBlock) */\n      swap2\n      swap1\n      0xffffffff\n      and\n      jump\t// in\n    tag_161:\n        /* \"contracts/Gauge.sol\":23993:24040  uint256 mul = block.number.sub(lastRewardBlock) */\n      swap1\n      pop\n        /* \"contracts/Gauge.sol\":24073:24142  accTokenPerShare.add(_rewardRate.mul(mul).mul(1e12).div(totalSupply)) */\n      tag_163\n        /* \"contracts/Gauge.sol\":24094:24141  _rewardRate.mul(mul).mul(1e12).div(totalSupply) */\n      tag_164\n        /* \"contracts/Gauge.sol\":24129:24140  totalSupply */\n      sload(0x05)\n        /* \"contracts/Gauge.sol\":24094:24124  _rewardRate.mul(mul).mul(1e12) */\n      tag_165\n        /* \"contracts/Gauge.sol\":24119:24123  1e12 */\n      0xe8d4a51000\n        /* \"contracts/Gauge.sol\":24094:24114  _rewardRate.mul(mul) */\n      tag_166\n        /* \"contracts/Gauge.sol\":24110:24113  mul */\n      dup7\n        /* \"contracts/Gauge.sol\":24094:24105  _rewardRate */\n      dup9\n        /* \"contracts/Gauge.sol\":24094:24109  _rewardRate.mul */\n      tag_141\n      swap1\n        /* \"contracts/Gauge.sol\":24094:24114  _rewardRate.mul(mul) */\n      swap2\n      swap1\n      0xffffffff\n      and\n      jump\t// in\n    tag_166:\n        /* \"contracts/Gauge.sol\":24094:24118  _rewardRate.mul(mul).mul */\n      tag_141\n      swap1\n        /* \"contracts/Gauge.sol\":24094:24124  _rewardRate.mul(mul).mul(1e12) */\n      swap2\n      swap1\n      0xffffffff\n      and\n      jump\t// in\n    tag_165:\n        /* \"contracts/Gauge.sol\":24094:24128  _rewardRate.mul(mul).mul(1e12).div */\n      tag_142\n      swap1\n        /* \"contracts/Gauge.sol\":24094:24141  _rewardRate.mul(mul).mul(1e12).div(totalSupply) */\n      swap2\n      swap1\n      0xffffffff\n      and\n      jump\t// in\n    tag_164:\n        /* \"contracts/Gauge.sol\":24073:24089  accTokenPerShare */\n      sload(0x03)\n        /* \"contracts/Gauge.sol\":24073:24093  accTokenPerShare.add */\n      tag_167\n      swap1\n        /* \"contracts/Gauge.sol\":24073:24142  accTokenPerShare.add(_rewardRate.mul(mul).mul(1e12).div(totalSupply)) */\n      swap2\n      swap1\n      0xffffffff\n      and\n      jump\t// in\n    tag_163:\n        /* \"contracts/Gauge.sol\":24054:24070  accTokenPerShare */\n      0x03\n        /* \"contracts/Gauge.sol\":24054:24142  accTokenPerShare = accTokenPerShare.add(_rewardRate.mul(mul).mul(1e12).div(totalSupply)) */\n      dup2\n      swap1\n      sstore\n      pop\n        /* \"contracts/Gauge.sol\":24174:24186  block.number */\n      number\n        /* \"contracts/Gauge.sol\":24156:24171  lastRewardBlock */\n      0x04\n        /* \"contracts/Gauge.sol\":24156:24186  lastRewardBlock = block.number */\n      dup2\n      swap1\n      sstore\n      pop\n        /* \"contracts/Gauge.sol\":23979:24197  {... */\n      pop\n        /* \"contracts/Gauge.sol\":23958:24197  if (totalSupply > 0) {... */\n    tag_160:\n        /* \"contracts/Gauge.sol\":24236:24241  token */\n      dup2\n        /* \"contracts/Gauge.sol\":24211:24255  NotifyReward(msg.sender, token, _rewardRate) */\n      0xffffffffffffffffffffffffffffffffffffffff\n      and\n        /* \"contracts/Gauge.sol\":24224:24234  msg.sender */\n      caller\n        /* \"contracts/Gauge.sol\":24211:24255  NotifyReward(msg.sender, token, _rewardRate) */\n      0xffffffffffffffffffffffffffffffffffffffff\n      and\n      0xf70d5c697de7ea828df48e5c4573cb2194c659f1901f70110c52b066dcf50826\n        /* \"contracts/Gauge.sol\":24243:24254  _rewardRate */\n      dup4\n        /* \"contracts/Gauge.sol\":24211:24255  NotifyReward(msg.sender, token, _rewardRate) */\n      mload(0x40)\n      tag_168\n      swap2\n      swap1\n      tag_30\n      jump\t// in\n    tag_168:\n      mload(0x40)\n      dup1\n      swap2\n      sub\n      swap1\n      log3\n        /* \"contracts/Gauge.sol\":17782:17783  _ */\n    tag_155:\n        /* \"contracts/Gauge.sol\":23709:24262  function notifyRewardAmount(address token, uint _rewardRate) external onlyBoost {... */\n      pop\n      pop\n      jump\t// out\n        /* \"contracts/Gauge.sol\":18454:19011  function getReward(address account) external nonReentrant {... */\n    tag_76:\n        /* \"contracts/Gauge.sol\":3133:3134  2 */\n      0x02\n        /* \"contracts/Gauge.sol\":3714:3721  _status */\n      sload(0x00)\n        /* \"contracts/Gauge.sol\":3714:3733  _status != _ENTERED */\n      eq\n      iszero\n        /* \"contracts/Gauge.sol\":3706:3769  require(_status != _ENTERED, \"ReentrancyGuard: reentrant call\") */\n      tag_170\n      jumpi\n      mload(0x40)\n      0x08c379a000000000000000000000000000000000000000000000000000000000\n      dup2\n      mstore\n      0x04\n      add\n      tag_171\n      swap1\n      tag_172\n      jump\t// in\n    tag_171:\n      mload(0x40)\n      dup1\n      swap2\n      sub\n      swap1\n      revert\n    tag_170:\n        /* \"contracts/Gauge.sol\":3133:3134  2 */\n      0x02\n        /* \"contracts/Gauge.sol\":3844:3851  _status */\n      0x00\n        /* \"contracts/Gauge.sol\":3844:3862  _status = _ENTERED */\n      dup2\n      swap1\n      sstore\n      pop\n        /* \"contracts/Gauge.sol\":18544:18551  account */\n      dup1\n        /* \"contracts/Gauge.sol\":18530:18551  msg.sender == account */\n      0xffffffffffffffffffffffffffffffffffffffff\n      and\n        /* \"contracts/Gauge.sol\":18530:18540  msg.sender */\n      caller\n        /* \"contracts/Gauge.sol\":18530:18551  msg.sender == account */\n      0xffffffffffffffffffffffffffffffffffffffff\n      and\n      eq\n        /* \"contracts/Gauge.sol\":18530:18574  msg.sender == account || msg.sender == boost */\n      dup1\n      tag_174\n      jumpi\n      pop\n        /* \"contracts/Gauge.sol\":18569:18574  boost */\n      immutable(\"0xba317e1d5aa05b5861702d06e2202816a8a6452d32b68558d200060c06eac391\")\n        /* \"contracts/Gauge.sol\":18555:18574  msg.sender == boost */\n      0xffffffffffffffffffffffffffffffffffffffff\n      and\n        /* \"contracts/Gauge.sol\":18555:18565  msg.sender */\n      caller\n        /* \"contracts/Gauge.sol\":18555:18574  msg.sender == boost */\n      0xffffffffffffffffffffffffffffffffffffffff\n      and\n      eq\n        /* \"contracts/Gauge.sol\":18530:18574  msg.sender == account || msg.sender == boost */\n    tag_174:\n        /* \"contracts/Gauge.sol\":18522:18575  require(msg.sender == account || msg.sender == boost) */\n      tag_175\n      jumpi\n      0x00\n      dup1\n      revert\n    tag_175:\n        /* \"contracts/Gauge.sol\":18585:18597  updatePool() */\n      tag_176\n        /* \"contracts/Gauge.sol\":18585:18595  updatePool */\n      tag_89\n        /* \"contracts/Gauge.sol\":18585:18597  updatePool() */\n      jump\t// in\n    tag_176:\n        /* \"contracts/Gauge.sol\":18607:18628  UserInfo storage user */\n      0x00\n        /* \"contracts/Gauge.sol\":18631:18639  userInfo */\n      0x06\n        /* \"contracts/Gauge.sol\":18631:18648  userInfo[account] */\n      0x00\n        /* \"contracts/Gauge.sol\":18640:18647  account */\n      dup4\n        /* \"contracts/Gauge.sol\":18631:18648  userInfo[account] */\n      0xffffffffffffffffffffffffffffffffffffffff\n      and\n      0xffffffffffffffffffffffffffffffffffffffff\n      and\n      dup2\n      mstore\n      0x20\n      add\n      swap1\n      dup2\n      mstore\n      0x20\n      add\n      0x00\n      keccak256\n        /* \"contracts/Gauge.sol\":18607:18648  UserInfo storage user = userInfo[account] */\n      swap1\n      pop\n        /* \"contracts/Gauge.sol\":18658:18679  uint256 pendingAmount */\n      0x00\n        /* \"contracts/Gauge.sol\":18682:18701  pendingMax(account) */\n      tag_177\n        /* \"contracts/Gauge.sol\":18693:18700  account */\n      dup4\n        /* \"contracts/Gauge.sol\":18682:18692  pendingMax */\n      tag_82\n        /* \"contracts/Gauge.sol\":18682:18701  pendingMax(account) */\n      jump\t// in\n    tag_177:\n        /* \"contracts/Gauge.sol\":18658:18701  uint256 pendingAmount = pendingMax(account) */\n      swap1\n      pop\n        /* \"contracts/Gauge.sol\":18731:18732  0 */\n      0x00\n        /* \"contracts/Gauge.sol\":18715:18728  pendingAmount */\n      dup2\n        /* \"contracts/Gauge.sol\":18715:18732  pendingAmount > 0 */\n      gt\n        /* \"contracts/Gauge.sol\":18711:18885  if (pendingAmount > 0) {... */\n      iszero\n      tag_178\n      jumpi\n        /* \"contracts/Gauge.sol\":18748:18803  _safeTokenTransfer(rewardToken, account, pendingAmount) */\n      tag_179\n        /* \"contracts/Gauge.sol\":18767:18778  rewardToken */\n      immutable(\"0x51432b6f6ffff9c0d91073ef7f23a4f639ef505c3fc71bae7794b27877f54eff\")\n        /* \"contracts/Gauge.sol\":18780:18787  account */\n      dup5\n        /* \"contracts/Gauge.sol\":18789:18802  pendingAmount */\n      dup4\n        /* \"contracts/Gauge.sol\":18748:18766  _safeTokenTransfer */\n      tag_180\n        /* \"contracts/Gauge.sol\":18748:18803  _safeTokenTransfer(rewardToken, account, pendingAmount) */\n      jump\t// in\n    tag_179:\n        /* \"contracts/Gauge.sol\":18847:18858  rewardToken */\n      immutable(\"0x51432b6f6ffff9c0d91073ef7f23a4f639ef505c3fc71bae7794b27877f54eff\")\n        /* \"contracts/Gauge.sol\":18822:18874  ClaimRewards(msg.sender, rewardToken, pendingAmount) */\n      0xffffffffffffffffffffffffffffffffffffffff\n      and\n        /* \"contracts/Gauge.sol\":18835:18845  msg.sender */\n      caller\n        /* \"contracts/Gauge.sol\":18822:18874  ClaimRewards(msg.sender, rewardToken, pendingAmount) */\n      0xffffffffffffffffffffffffffffffffffffffff\n      and\n      0x9aa05b3d70a9e3e2f004f039648839560576334fb45c81f91b6db03ad9e2efc9\n        /* \"contracts/Gauge.sol\":18860:18873  pendingAmount */\n      dup4\n        /* \"contracts/Gauge.sol\":18822:18874  ClaimRewards(msg.sender, rewardToken, pendingAmount) */\n      mload(0x40)\n      tag_181\n      swap2\n      swap1\n      tag_30\n      jump\t// in\n    tag_181:\n      mload(0x40)\n      dup1\n      swap2\n      sub\n      swap1\n      log3\n        /* \"contracts/Gauge.sol\":18711:18885  if (pendingAmount > 0) {... */\n    tag_178:\n        /* \"contracts/Gauge.sol\":18912:18955  user.amount.mul(accTokenPerShare).div(1e12) */\n      tag_182\n        /* \"contracts/Gauge.sol\":18950:18954  1e12 */\n      0xe8d4a51000\n        /* \"contracts/Gauge.sol\":18912:18945  user.amount.mul(accTokenPerShare) */\n      tag_183\n        /* \"contracts/Gauge.sol\":18928:18944  accTokenPerShare */\n      sload(0x03)\n        /* \"contracts/Gauge.sol\":18912:18916  user */\n      dup6\n        /* \"contracts/Gauge.sol\":18912:18923  user.amount */\n      0x00\n      add\n      sload\n        /* \"contracts/Gauge.sol\":18912:18927  user.amount.mul */\n      tag_141\n      swap1\n        /* \"contracts/Gauge.sol\":18912:18945  user.amount.mul(accTokenPerShare) */\n      swap2\n      swap1\n      0xffffffff\n      and\n      jump\t// in\n    tag_183:\n        /* \"contracts/Gauge.sol\":18912:18949  user.amount.mul(accTokenPerShare).div */\n      tag_142\n      swap1\n        /* \"contracts/Gauge.sol\":18912:18955  user.amount.mul(accTokenPerShare).div(1e12) */\n      swap2\n      swap1\n      0xffffffff\n      and\n      jump\t// in\n    tag_182:\n        /* \"contracts/Gauge.sol\":18894:18898  user */\n      dup3\n        /* \"contracts/Gauge.sol\":18894:18909  user.rewardDebt */\n      0x01\n      add\n        /* \"contracts/Gauge.sol\":18894:18955  user.rewardDebt = user.amount.mul(accTokenPerShare).div(1e12) */\n      dup2\n      swap1\n      sstore\n      pop\n        /* \"contracts/Gauge.sol\":18972:18977  boost */\n      immutable(\"0xba317e1d5aa05b5861702d06e2202816a8a6452d32b68558d200060c06eac391\")\n        /* \"contracts/Gauge.sol\":18965:18989  IBoost(boost).distribute */\n      0xffffffffffffffffffffffffffffffffffffffff\n      and\n      0x63453ae1\n        /* \"contracts/Gauge.sol\":18998:19002  this */\n      address\n        /* \"contracts/Gauge.sol\":18965:19004  IBoost(boost).distribute(address(this)) */\n      mload(0x40)\n      dup3\n      0xffffffff\n      and\n      0xe0\n      shl\n      dup2\n      mstore\n      0x04\n      add\n      tag_184\n      swap2\n      swap1\n      tag_44\n      jump\t// in\n    tag_184:\n      0x00\n      mload(0x40)\n      dup1\n      dup4\n      sub\n      dup2\n      0x00\n      dup8\n      dup1\n      extcodesize\n      iszero\n      dup1\n      iszero\n      tag_185\n      jumpi\n      0x00\n      dup1\n      revert\n    tag_185:\n      pop\n      gas\n      call\n      iszero\n      dup1\n      iszero\n      tag_187\n      jumpi\n      returndatasize\n      0x00\n      dup1\n      returndatacopy\n      revert(0x00, returndatasize)\n    tag_187:\n      pop\n      pop\n      pop\n      pop\n        /* \"contracts/Gauge.sol\":18512:19011  {... */\n      pop\n      pop\n        /* \"contracts/Gauge.sol\":3090:3091  1 */\n      0x01\n        /* \"contracts/Gauge.sol\":4017:4024  _status */\n      0x00\n        /* \"contracts/Gauge.sol\":4017:4039  _status = _NOT_ENTERED */\n      dup2\n      swap1\n      sstore\n      pop\n        /* \"contracts/Gauge.sol\":18454:19011  function getReward(address account) external nonReentrant {... */\n      pop\n      jump\t// out\n        /* \"contracts/Gauge.sol\":19734:19847  function depositAll(uint tokenId) external {... */\n    tag_79:\n        /* \"contracts/Gauge.sol\":19787:19840  deposit(IERC20(stake).balanceOf(msg.sender), tokenId) */\n      tag_189\n        /* \"contracts/Gauge.sol\":19802:19807  stake */\n      immutable(\"0x6d7e9d25f7937a025d098651c32892e1256b8f7bcedf36aadd28cccf92a5a08d\")\n        /* \"contracts/Gauge.sol\":19795:19818  IERC20(stake).balanceOf */\n      0xffffffffffffffffffffffffffffffffffffffff\n      and\n      0x70a08231\n        /* \"contracts/Gauge.sol\":19819:19829  msg.sender */\n      caller\n        /* \"contracts/Gauge.sol\":19795:19830  IERC20(stake).balanceOf(msg.sender) */\n      mload(0x40)\n      dup3\n      0xffffffff\n      and\n      0xe0\n      shl\n      dup2\n      mstore\n      0x04\n      add\n      tag_190\n      swap2\n      swap1\n      tag_44\n      jump\t// in\n    tag_190:\n      0x20\n      mload(0x40)\n      dup1\n      dup4\n      sub\n      dup2\n      dup7\n      gas\n      staticcall\n      iszero\n      dup1\n      iszero\n      tag_192\n      jumpi\n      returndatasize\n      0x00\n      dup1\n      returndatacopy\n      revert(0x00, returndatasize)\n    tag_192:\n      pop\n      pop\n      pop\n      pop\n      mload(0x40)\n      returndatasize\n      not(0x1f)\n      0x1f\n      dup3\n      add\n      and\n      dup3\n      add\n      dup1\n      0x40\n      mstore\n      pop\n      dup2\n      add\n      swap1\n      tag_193\n      swap2\n      swap1\n      tag_117\n      jump\t// in\n    tag_193:\n        /* \"contracts/Gauge.sol\":19832:19839  tokenId */\n      dup3\n        /* \"contracts/Gauge.sol\":19787:19794  deposit */\n      tag_87\n        /* \"contracts/Gauge.sol\":19787:19840  deposit(IERC20(stake).balanceOf(msg.sender), tokenId) */\n      jump\t// in\n    tag_189:\n        /* \"contracts/Gauge.sol\":19734:19847  function depositAll(uint tokenId) external {... */\n      pop\n      jump\t// out\n        /* \"contracts/Gauge.sol\":22771:23538  function pendingMax(address _user) public view returns (uint256){... */\n    tag_82:\n        /* \"contracts/Gauge.sol\":22827:22834  uint256 */\n      0x00\n        /* \"contracts/Gauge.sol\":22845:22866  UserInfo storage user */\n      dup1\n        /* \"contracts/Gauge.sol\":22869:22877  userInfo */\n      0x06\n        /* \"contracts/Gauge.sol\":22869:22884  userInfo[_user] */\n      0x00\n        /* \"contracts/Gauge.sol\":22878:22883  _user */\n      dup5\n        /* \"contracts/Gauge.sol\":22869:22884  userInfo[_user] */\n      0xffffffffffffffffffffffffffffffffffffffff\n      and\n      0xffffffffffffffffffffffffffffffffffffffff\n      and\n      dup2\n      mstore\n      0x20\n      add\n      swap1\n      dup2\n      mstore\n      0x20\n      add\n      0x00\n      keccak256\n        /* \"contracts/Gauge.sol\":22845:22884  UserInfo storage user = userInfo[_user] */\n      swap1\n      pop\n        /* \"contracts/Gauge.sol\":22894:22919  uint256 _accTokenPerShare */\n      0x00\n        /* \"contracts/Gauge.sol\":22922:22938  accTokenPerShare */\n      sload(0x03)\n        /* \"contracts/Gauge.sol\":22894:22938  uint256 _accTokenPerShare = accTokenPerShare */\n      swap1\n      pop\n        /* \"contracts/Gauge.sol\":22966:22967  0 */\n      0x00\n        /* \"contracts/Gauge.sol\":22952:22956  user */\n      dup3\n        /* \"contracts/Gauge.sol\":22952:22963  user.amount */\n      0x00\n      add\n      sload\n        /* \"contracts/Gauge.sol\":22952:22967  user.amount > 0 */\n      gt\n        /* \"contracts/Gauge.sol\":22948:23514  if (user.amount > 0) {... */\n      iszero\n      tag_195\n      jumpi\n        /* \"contracts/Gauge.sol\":23002:23017  lastRewardBlock */\n      sload(0x04)\n        /* \"contracts/Gauge.sol\":22987:22999  block.number */\n      number\n        /* \"contracts/Gauge.sol\":22987:23017  block.number > lastRewardBlock */\n      gt\n        /* \"contracts/Gauge.sol\":22983:23350  if (block.number > lastRewardBlock) {... */\n      iszero\n      tag_196\n      jumpi\n        /* \"contracts/Gauge.sol\":23037:23048  uint256 mul */\n      0x00\n        /* \"contracts/Gauge.sol\":23051:23084  block.number.sub(lastRewardBlock) */\n      tag_197\n        /* \"contracts/Gauge.sol\":23068:23083  lastRewardBlock */\n      sload(0x04)\n        /* \"contracts/Gauge.sol\":23051:23063  block.number */\n      number\n        /* \"contracts/Gauge.sol\":23051:23067  block.number.sub */\n      tag_162\n      swap1\n        /* \"contracts/Gauge.sol\":23051:23084  block.number.sub(lastRewardBlock) */\n      swap2\n      swap1\n      0xffffffff\n      and\n      jump\t// in\n    tag_197:\n        /* \"contracts/Gauge.sol\":23037:23084  uint256 mul = block.number.sub(lastRewardBlock) */\n      swap1\n      pop\n        /* \"contracts/Gauge.sol\":23102:23121  uint256 tokenReward */\n      0x00\n        /* \"contracts/Gauge.sol\":23124:23146  tokenPerBlock.mul(mul) */\n      tag_198\n        /* \"contracts/Gauge.sol\":23142:23145  mul */\n      dup3\n        /* \"contracts/Gauge.sol\":23124:23137  tokenPerBlock */\n      sload(0x02)\n        /* \"contracts/Gauge.sol\":23124:23141  tokenPerBlock.mul */\n      tag_141\n      swap1\n        /* \"contracts/Gauge.sol\":23124:23146  tokenPerBlock.mul(mul) */\n      swap2\n      swap1\n      0xffffffff\n      and\n      jump\t// in\n    tag_198:\n        /* \"contracts/Gauge.sol\":23102:23146  uint256 tokenReward = tokenPerBlock.mul(mul) */\n      swap1\n      pop\n        /* \"contracts/Gauge.sol\":23184:23245  _accTokenPerShare.add(tokenReward.mul(1e12).div(totalSupply)) */\n      tag_199\n        /* \"contracts/Gauge.sol\":23206:23244  tokenReward.mul(1e12).div(totalSupply) */\n      tag_200\n        /* \"contracts/Gauge.sol\":23232:23243  totalSupply */\n      sload(0x05)\n        /* \"contracts/Gauge.sol\":23206:23227  tokenReward.mul(1e12) */\n      tag_201\n        /* \"contracts/Gauge.sol\":23222:23226  1e12 */\n      0xe8d4a51000\n        /* \"contracts/Gauge.sol\":23206:23217  tokenReward */\n      dup6\n        /* \"contracts/Gauge.sol\":23206:23221  tokenReward.mul */\n      tag_141\n      swap1\n        /* \"contracts/Gauge.sol\":23206:23227  tokenReward.mul(1e12) */\n      swap2\n      swap1\n      0xffffffff\n      and\n      jump\t// in\n    tag_201:\n        /* \"contracts/Gauge.sol\":23206:23231  tokenReward.mul(1e12).div */\n      tag_142\n      swap1\n        /* \"contracts/Gauge.sol\":23206:23244  tokenReward.mul(1e12).div(totalSupply) */\n      swap2\n      swap1\n      0xffffffff\n      and\n      jump\t// in\n    tag_200:\n        /* \"contracts/Gauge.sol\":23184:23201  _accTokenPerShare */\n      dup5\n        /* \"contracts/Gauge.sol\":23184:23205  _accTokenPerShare.add */\n      tag_167\n      swap1\n        /* \"contracts/Gauge.sol\":23184:23245  _accTokenPerShare.add(tokenReward.mul(1e12).div(totalSupply)) */\n      swap2\n      swap1\n      0xffffffff\n      and\n      jump\t// in\n    tag_199:\n        /* \"contracts/Gauge.sol\":23164:23245  _accTokenPerShare = _accTokenPerShare.add(tokenReward.mul(1e12).div(totalSupply)) */\n      swap3\n      pop\n        /* \"contracts/Gauge.sol\":23270:23335  user.amount.mul(_accTokenPerShare).div(1e12).sub(user.rewardDebt) */\n      tag_202\n        /* \"contracts/Gauge.sol\":23319:23323  user */\n      dup5\n        /* \"contracts/Gauge.sol\":23319:23334  user.rewardDebt */\n      0x01\n      add\n      sload\n        /* \"contracts/Gauge.sol\":23270:23314  user.amount.mul(_accTokenPerShare).div(1e12) */\n      tag_203\n        /* \"contracts/Gauge.sol\":23309:23313  1e12 */\n      0xe8d4a51000\n        /* \"contracts/Gauge.sol\":23270:23304  user.amount.mul(_accTokenPerShare) */\n      tag_204\n        /* \"contracts/Gauge.sol\":23286:23303  _accTokenPerShare */\n      dup8\n        /* \"contracts/Gauge.sol\":23270:23274  user */\n      dup10\n        /* \"contracts/Gauge.sol\":23270:23281  user.amount */\n      0x00\n      add\n      sload\n        /* \"contracts/Gauge.sol\":23270:23285  user.amount.mul */\n      tag_141\n      swap1\n        /* \"contracts/Gauge.sol\":23270:23304  user.amount.mul(_accTokenPerShare) */\n      swap2\n      swap1\n      0xffffffff\n      and\n      jump\t// in\n    tag_204:\n        /* \"contracts/Gauge.sol\":23270:23308  user.amount.mul(_accTokenPerShare).div */\n      tag_142\n      swap1\n        /* \"contracts/Gauge.sol\":23270:23314  user.amount.mul(_accTokenPerShare).div(1e12) */\n      swap2\n      swap1\n      0xffffffff\n      and\n      jump\t// in\n    tag_203:\n        /* \"contracts/Gauge.sol\":23270:23318  user.amount.mul(_accTokenPerShare).div(1e12).sub */\n      tag_162\n      swap1\n        /* \"contracts/Gauge.sol\":23270:23335  user.amount.mul(_accTokenPerShare).div(1e12).sub(user.rewardDebt) */\n      swap2\n      swap1\n      0xffffffff\n      and\n      jump\t// in\n    tag_202:\n        /* \"contracts/Gauge.sol\":23263:23335  return user.amount.mul(_accTokenPerShare).div(1e12).sub(user.rewardDebt) */\n      swap5\n      pop\n      pop\n      pop\n      pop\n      pop\n      jump(tag_194)\n        /* \"contracts/Gauge.sol\":22983:23350  if (block.number > lastRewardBlock) {... */\n    tag_196:\n        /* \"contracts/Gauge.sol\":23383:23398  lastRewardBlock */\n      sload(0x04)\n        /* \"contracts/Gauge.sol\":23367:23379  block.number */\n      number\n        /* \"contracts/Gauge.sol\":23367:23398  block.number == lastRewardBlock */\n      eq\n        /* \"contracts/Gauge.sol\":23363:23504  if (block.number == lastRewardBlock) {... */\n      iszero\n      tag_205\n      jumpi\n        /* \"contracts/Gauge.sol\":23425:23489  user.amount.mul(accTokenPerShare).div(1e12).sub(user.rewardDebt) */\n      tag_206\n        /* \"contracts/Gauge.sol\":23473:23477  user */\n      dup3\n        /* \"contracts/Gauge.sol\":23473:23488  user.rewardDebt */\n      0x01\n      add\n      sload\n        /* \"contracts/Gauge.sol\":23425:23468  user.amount.mul(accTokenPerShare).div(1e12) */\n      tag_207\n        /* \"contracts/Gauge.sol\":23463:23467  1e12 */\n      0xe8d4a51000\n        /* \"contracts/Gauge.sol\":23425:23458  user.amount.mul(accTokenPerShare) */\n      tag_208\n        /* \"contracts/Gauge.sol\":23441:23457  accTokenPerShare */\n      sload(0x03)\n        /* \"contracts/Gauge.sol\":23425:23429  user */\n      dup8\n        /* \"contracts/Gauge.sol\":23425:23436  user.amount */\n      0x00\n      add\n      sload\n        /* \"contracts/Gauge.sol\":23425:23440  user.amount.mul */\n      tag_141\n      swap1\n        /* \"contracts/Gauge.sol\":23425:23458  user.amount.mul(accTokenPerShare) */\n      swap2\n      swap1\n      0xffffffff\n      and\n      jump\t// in\n    tag_208:\n        /* \"contracts/Gauge.sol\":23425:23462  user.amount.mul(accTokenPerShare).div */\n      tag_142\n      swap1\n        /* \"contracts/Gauge.sol\":23425:23468  user.amount.mul(accTokenPerShare).div(1e12) */\n      swap2\n      swap1\n      0xffffffff\n      and\n      jump\t// in\n    tag_207:\n        /* \"contracts/Gauge.sol\":23425:23472  user.amount.mul(accTokenPerShare).div(1e12).sub */\n      tag_162\n      swap1\n        /* \"contracts/Gauge.sol\":23425:23489  user.amount.mul(accTokenPerShare).div(1e12).sub(user.rewardDebt) */\n      swap2\n      swap1\n      0xffffffff\n      and\n      jump\t// in\n    tag_206:\n        /* \"contracts/Gauge.sol\":23418:23489  return user.amount.mul(accTokenPerShare).div(1e12).sub(user.rewardDebt) */\n      swap3\n      pop\n      pop\n      pop\n      jump(tag_194)\n        /* \"contracts/Gauge.sol\":23363:23504  if (block.number == lastRewardBlock) {... */\n    tag_205:\n        /* \"contracts/Gauge.sol\":22948:23514  if (user.amount > 0) {... */\n    tag_195:\n        /* \"contracts/Gauge.sol\":23530:23531  0 */\n      0x00\n        /* \"contracts/Gauge.sol\":23523:23531  return 0 */\n      swap3\n      pop\n      pop\n      pop\n        /* \"contracts/Gauge.sol\":22771:23538  function pendingMax(address _user) public view returns (uint256){... */\n    tag_194:\n      swap2\n      swap1\n      pop\n      jump\t// out\n        /* \"contracts/Gauge.sol\":19853:20933  function deposit(uint amount, uint tokenId) public nonReentrant {... */\n    tag_87:\n        /* \"contracts/Gauge.sol\":3133:3134  2 */\n      0x02\n        /* \"contracts/Gauge.sol\":3714:3721  _status */\n      sload(0x00)\n        /* \"contracts/Gauge.sol\":3714:3733  _status != _ENTERED */\n      eq\n      iszero\n        /* \"contracts/Gauge.sol\":3706:3769  require(_status != _ENTERED, \"ReentrancyGuard: reentrant call\") */\n      tag_210\n      jumpi\n      mload(0x40)\n      0x08c379a000000000000000000000000000000000000000000000000000000000\n      dup2\n      mstore\n      0x04\n      add\n      tag_211\n      swap1\n      tag_172\n      jump\t// in\n    tag_211:\n      mload(0x40)\n      dup1\n      swap2\n      sub\n      swap1\n      revert\n    tag_210:\n        /* \"contracts/Gauge.sol\":3133:3134  2 */\n      0x02\n        /* \"contracts/Gauge.sol\":3844:3851  _status */\n      0x00\n        /* \"contracts/Gauge.sol\":3844:3862  _status = _ENTERED */\n      dup2\n      swap1\n      sstore\n      pop\n        /* \"contracts/Gauge.sol\":19944:19945  0 */\n      0x00\n        /* \"contracts/Gauge.sol\":19935:19941  amount */\n      dup3\n        /* \"contracts/Gauge.sol\":19935:19945  amount > 0 */\n      gt\n        /* \"contracts/Gauge.sol\":19927:19961  require(amount > 0, \"amount is 0\") */\n      tag_213\n      jumpi\n      mload(0x40)\n      0x08c379a000000000000000000000000000000000000000000000000000000000\n      dup2\n      mstore\n      0x04\n      add\n      tag_214\n      swap1\n      tag_215\n      jump\t// in\n    tag_214:\n      mload(0x40)\n      dup1\n      swap2\n      sub\n      swap1\n      revert\n    tag_213:\n        /* \"contracts/Gauge.sol\":19971:19983  updatePool() */\n      tag_216\n        /* \"contracts/Gauge.sol\":19971:19981  updatePool */\n      tag_89\n        /* \"contracts/Gauge.sol\":19971:19983  updatePool() */\n      jump\t// in\n    tag_216:\n        /* \"contracts/Gauge.sol\":19993:20014  UserInfo storage user */\n      0x00\n        /* \"contracts/Gauge.sol\":20017:20025  userInfo */\n      0x06\n        /* \"contracts/Gauge.sol\":20017:20037  userInfo[msg.sender] */\n      0x00\n        /* \"contracts/Gauge.sol\":20026:20036  msg.sender */\n      caller\n        /* \"contracts/Gauge.sol\":20017:20037  userInfo[msg.sender] */\n      0xffffffffffffffffffffffffffffffffffffffff\n      and\n      0xffffffffffffffffffffffffffffffffffffffff\n      and\n      dup2\n      mstore\n      0x20\n      add\n      swap1\n      dup2\n      mstore\n      0x20\n      add\n      0x00\n      keccak256\n        /* \"contracts/Gauge.sol\":19993:20037  UserInfo storage user = userInfo[msg.sender] */\n      swap1\n      pop\n        /* \"contracts/Gauge.sol\":20065:20066  0 */\n      0x00\n        /* \"contracts/Gauge.sol\":20051:20055  user */\n      dup2\n        /* \"contracts/Gauge.sol\":20051:20062  user.amount */\n      0x00\n      add\n      sload\n        /* \"contracts/Gauge.sol\":20051:20066  user.amount > 0 */\n      gt\n        /* \"contracts/Gauge.sol\":20047:20266  if (user.amount > 0) {... */\n      iszero\n      tag_217\n      jumpi\n        /* \"contracts/Gauge.sol\":20082:20103  uint256 pendingAmount */\n      0x00\n        /* \"contracts/Gauge.sol\":20106:20128  pendingMax(msg.sender) */\n      tag_218\n        /* \"contracts/Gauge.sol\":20117:20127  msg.sender */\n      caller\n        /* \"contracts/Gauge.sol\":20106:20116  pendingMax */\n      tag_82\n        /* \"contracts/Gauge.sol\":20106:20128  pendingMax(msg.sender) */\n      jump\t// in\n    tag_218:\n        /* \"contracts/Gauge.sol\":20082:20128  uint256 pendingAmount = pendingMax(msg.sender) */\n      swap1\n      pop\n        /* \"contracts/Gauge.sol\":20162:20163  0 */\n      0x00\n        /* \"contracts/Gauge.sol\":20146:20159  pendingAmount */\n      dup2\n        /* \"contracts/Gauge.sol\":20146:20163  pendingAmount > 0 */\n      gt\n        /* \"contracts/Gauge.sol\":20142:20256  if (pendingAmount > 0) {... */\n      iszero\n      tag_219\n      jumpi\n        /* \"contracts/Gauge.sol\":20183:20241  _safeTokenTransfer(rewardToken, msg.sender, pendingAmount) */\n      tag_220\n        /* \"contracts/Gauge.sol\":20202:20213  rewardToken */\n      immutable(\"0x51432b6f6ffff9c0d91073ef7f23a4f639ef505c3fc71bae7794b27877f54eff\")\n        /* \"contracts/Gauge.sol\":20215:20225  msg.sender */\n      caller\n        /* \"contracts/Gauge.sol\":20227:20240  pendingAmount */\n      dup4\n        /* \"contracts/Gauge.sol\":20183:20201  _safeTokenTransfer */\n      tag_180\n        /* \"contracts/Gauge.sol\":20183:20241  _safeTokenTransfer(rewardToken, msg.sender, pendingAmount) */\n      jump\t// in\n    tag_220:\n        /* \"contracts/Gauge.sol\":20142:20256  if (pendingAmount > 0) {... */\n    tag_219:\n        /* \"contracts/Gauge.sol\":20068:20266  {... */\n      pop\n        /* \"contracts/Gauge.sol\":20047:20266  if (user.amount > 0) {... */\n    tag_217:\n        /* \"contracts/Gauge.sol\":20288:20289  0 */\n      0x00\n        /* \"contracts/Gauge.sol\":20279:20285  amount */\n      dup4\n        /* \"contracts/Gauge.sol\":20279:20289  amount > 0 */\n      gt\n        /* \"contracts/Gauge.sol\":20275:20475  if (amount > 0) {... */\n      iszero\n      tag_221\n      jumpi\n        /* \"contracts/Gauge.sol\":20305:20378  TransferHelper.safeTransferFrom(stake, msg.sender, address(this), amount) */\n      tag_222\n        /* \"contracts/Gauge.sol\":20337:20342  stake */\n      immutable(\"0x6d7e9d25f7937a025d098651c32892e1256b8f7bcedf36aadd28cccf92a5a08d\")\n        /* \"contracts/Gauge.sol\":20344:20354  msg.sender */\n      caller\n        /* \"contracts/Gauge.sol\":20364:20368  this */\n      address\n        /* \"contracts/Gauge.sol\":20371:20377  amount */\n      dup7\n        /* \"contracts/Gauge.sol\":20305:20336  TransferHelper.safeTransferFrom */\n      tag_223\n        /* \"contracts/Gauge.sol\":20305:20378  TransferHelper.safeTransferFrom(stake, msg.sender, address(this), amount) */\n      jump\t// in\n    tag_222:\n        /* \"contracts/Gauge.sol\":20407:20413  amount */\n      dup3\n        /* \"contracts/Gauge.sol\":20392:20403  totalSupply */\n      0x05\n      0x00\n        /* \"contracts/Gauge.sol\":20392:20413  totalSupply += amount */\n      dup3\n      dup3\n      sload\n      tag_224\n      swap2\n      swap1\n      tag_149\n      jump\t// in\n    tag_224:\n      swap3\n      pop\n      pop\n      dup2\n      swap1\n      sstore\n      pop\n        /* \"contracts/Gauge.sol\":20441:20464  user.amount.add(amount) */\n      tag_225\n        /* \"contracts/Gauge.sol\":20457:20463  amount */\n      dup4\n        /* \"contracts/Gauge.sol\":20441:20445  user */\n      dup3\n        /* \"contracts/Gauge.sol\":20441:20452  user.amount */\n      0x00\n      add\n      sload\n        /* \"contracts/Gauge.sol\":20441:20456  user.amount.add */\n      tag_167\n      swap1\n        /* \"contracts/Gauge.sol\":20441:20464  user.amount.add(amount) */\n      swap2\n      swap1\n      0xffffffff\n      and\n      jump\t// in\n    tag_225:\n        /* \"contracts/Gauge.sol\":20427:20431  user */\n      dup2\n        /* \"contracts/Gauge.sol\":20427:20438  user.amount */\n      0x00\n      add\n        /* \"contracts/Gauge.sol\":20427:20464  user.amount = user.amount.add(amount) */\n      dup2\n      swap1\n      sstore\n      pop\n        /* \"contracts/Gauge.sol\":20275:20475  if (amount > 0) {... */\n    tag_221:\n        /* \"contracts/Gauge.sol\":20498:20499  0 */\n      0x00\n        /* \"contracts/Gauge.sol\":20488:20495  tokenId */\n      dup3\n        /* \"contracts/Gauge.sol\":20488:20499  tokenId > 0 */\n      gt\n        /* \"contracts/Gauge.sol\":20484:20805  if (tokenId > 0) {... */\n      iszero\n      tag_226\n      jumpi\n        /* \"contracts/Gauge.sol\":20561:20571  msg.sender */\n      caller\n        /* \"contracts/Gauge.sol\":20523:20571  IVeToken(veToken).ownerOf(tokenId) == msg.sender */\n      0xffffffffffffffffffffffffffffffffffffffff\n      and\n        /* \"contracts/Gauge.sol\":20532:20539  veToken */\n      immutable(\"0xeae3a40291c102cf85748609ff9046ea32530afca3ce058bd94a667258369fd6\")\n        /* \"contracts/Gauge.sol\":20523:20548  IVeToken(veToken).ownerOf */\n      0xffffffffffffffffffffffffffffffffffffffff\n      and\n      0x6352211e\n        /* \"contracts/Gauge.sol\":20549:20556  tokenId */\n      dup5\n        /* \"contracts/Gauge.sol\":20523:20557  IVeToken(veToken).ownerOf(tokenId) */\n      mload(0x40)\n      dup3\n      0xffffffff\n      and\n      0xe0\n      shl\n      dup2\n      mstore\n      0x04\n      add\n      tag_227\n      swap2\n      swap1\n      tag_30\n      jump\t// in\n    tag_227:\n      0x20\n      mload(0x40)\n      dup1\n      dup4\n      sub\n      dup2\n      dup7\n      gas\n      staticcall\n      iszero\n      dup1\n      iszero\n      tag_229\n      jumpi\n      returndatasize\n      0x00\n      dup1\n      returndatacopy\n      revert(0x00, returndatasize)\n    tag_229:\n      pop\n      pop\n      pop\n      pop\n      mload(0x40)\n      returndatasize\n      not(0x1f)\n      0x1f\n      dup3\n      add\n      and\n      dup3\n      add\n      dup1\n      0x40\n      mstore\n      pop\n      dup2\n      add\n      swap1\n      tag_230\n      swap2\n      swap1\n      tag_122\n      jump\t// in\n    tag_230:\n        /* \"contracts/Gauge.sol\":20523:20571  IVeToken(veToken).ownerOf(tokenId) == msg.sender */\n      0xffffffffffffffffffffffffffffffffffffffff\n      and\n      eq\n        /* \"contracts/Gauge.sol\":20515:20572  require(IVeToken(veToken).ownerOf(tokenId) == msg.sender) */\n      tag_231\n      jumpi\n      0x00\n      dup1\n      revert\n    tag_231:\n        /* \"contracts/Gauge.sol\":20614:20615  0 */\n      0x00\n        /* \"contracts/Gauge.sol\":20590:20598  tokenIds */\n      0x01\n        /* \"contracts/Gauge.sol\":20590:20610  tokenIds[msg.sender] */\n      0x00\n        /* \"contracts/Gauge.sol\":20599:20609  msg.sender */\n      caller\n        /* \"contracts/Gauge.sol\":20590:20610  tokenIds[msg.sender] */\n      0xffffffffffffffffffffffffffffffffffffffff\n      and\n      0xffffffffffffffffffffffffffffffffffffffff\n      and\n      dup2\n      mstore\n      0x20\n      add\n      swap1\n      dup2\n      mstore\n      0x20\n      add\n      0x00\n      keccak256\n      sload\n        /* \"contracts/Gauge.sol\":20590:20615  tokenIds[msg.sender] == 0 */\n      eq\n        /* \"contracts/Gauge.sol\":20586:20680  if (tokenIds[msg.sender] == 0) {... */\n      iszero\n      tag_232\n      jumpi\n        /* \"contracts/Gauge.sol\":20658:20665  tokenId */\n      dup2\n        /* \"contracts/Gauge.sol\":20635:20643  tokenIds */\n      0x01\n        /* \"contracts/Gauge.sol\":20635:20655  tokenIds[msg.sender] */\n      0x00\n        /* \"contracts/Gauge.sol\":20644:20654  msg.sender */\n      caller\n        /* \"contracts/Gauge.sol\":20635:20655  tokenIds[msg.sender] */\n      0xffffffffffffffffffffffffffffffffffffffff\n      and\n      0xffffffffffffffffffffffffffffffffffffffff\n      and\n      dup2\n      mstore\n      0x20\n      add\n      swap1\n      dup2\n      mstore\n      0x20\n      add\n      0x00\n      keccak256\n        /* \"contracts/Gauge.sol\":20635:20665  tokenIds[msg.sender] = tokenId */\n      dup2\n      swap1\n      sstore\n      pop\n        /* \"contracts/Gauge.sol\":20586:20680  if (tokenIds[msg.sender] == 0) {... */\n    tag_232:\n        /* \"contracts/Gauge.sol\":20725:20732  tokenId */\n      dup2\n        /* \"contracts/Gauge.sol\":20701:20709  tokenIds */\n      0x01\n        /* \"contracts/Gauge.sol\":20701:20721  tokenIds[msg.sender] */\n      0x00\n        /* \"contracts/Gauge.sol\":20710:20720  msg.sender */\n      caller\n        /* \"contracts/Gauge.sol\":20701:20721  tokenIds[msg.sender] */\n      0xffffffffffffffffffffffffffffffffffffffff\n      and\n      0xffffffffffffffffffffffffffffffffffffffff\n      and\n      dup2\n      mstore\n      0x20\n      add\n      swap1\n      dup2\n      mstore\n      0x20\n      add\n      0x00\n      keccak256\n      sload\n        /* \"contracts/Gauge.sol\":20701:20732  tokenIds[msg.sender] == tokenId */\n      eq\n        /* \"contracts/Gauge.sol\":20693:20733  require(tokenIds[msg.sender] == tokenId) */\n      tag_233\n      jumpi\n      0x00\n      dup1\n      revert\n    tag_233:\n        /* \"contracts/Gauge.sol\":20484:20805  if (tokenId > 0) {... */\n      jump(tag_234)\n    tag_226:\n        /* \"contracts/Gauge.sol\":20774:20782  tokenIds */\n      0x01\n        /* \"contracts/Gauge.sol\":20774:20794  tokenIds[msg.sender] */\n      0x00\n        /* \"contracts/Gauge.sol\":20783:20793  msg.sender */\n      caller\n        /* \"contracts/Gauge.sol\":20774:20794  tokenIds[msg.sender] */\n      0xffffffffffffffffffffffffffffffffffffffff\n      and\n      0xffffffffffffffffffffffffffffffffffffffff\n      and\n      dup2\n      mstore\n      0x20\n      add\n      swap1\n      dup2\n      mstore\n      0x20\n      add\n      0x00\n      keccak256\n      sload\n        /* \"contracts/Gauge.sol\":20764:20794  tokenId = tokenIds[msg.sender] */\n      swap2\n      pop\n        /* \"contracts/Gauge.sol\":20484:20805  if (tokenId > 0) {... */\n    tag_234:\n        /* \"contracts/Gauge.sol\":20832:20875  user.amount.mul(accTokenPerShare).div(1e12) */\n      tag_235\n        /* \"contracts/Gauge.sol\":20870:20874  1e12 */\n      0xe8d4a51000\n        /* \"contracts/Gauge.sol\":20832:20865  user.amount.mul(accTokenPerShare) */\n      tag_236\n        /* \"contracts/Gauge.sol\":20848:20864  accTokenPerShare */\n      sload(0x03)\n        /* \"contracts/Gauge.sol\":20832:20836  user */\n      dup5\n        /* \"contracts/Gauge.sol\":20832:20843  user.amount */\n      0x00\n      add\n      sload\n        /* \"contracts/Gauge.sol\":20832:20847  user.amount.mul */\n      tag_141\n      swap1\n        /* \"contracts/Gauge.sol\":20832:20865  user.amount.mul(accTokenPerShare) */\n      swap2\n      swap1\n      0xffffffff\n      and\n      jump\t// in\n    tag_236:\n        /* \"contracts/Gauge.sol\":20832:20869  user.amount.mul(accTokenPerShare).div */\n      tag_142\n      swap1\n        /* \"contracts/Gauge.sol\":20832:20875  user.amount.mul(accTokenPerShare).div(1e12) */\n      swap2\n      swap1\n      0xffffffff\n      and\n      jump\t// in\n    tag_235:\n        /* \"contracts/Gauge.sol\":20814:20818  user */\n      dup2\n        /* \"contracts/Gauge.sol\":20814:20829  user.rewardDebt */\n      0x01\n      add\n        /* \"contracts/Gauge.sol\":20814:20875  user.rewardDebt = user.amount.mul(accTokenPerShare).div(1e12) */\n      dup2\n      swap1\n      sstore\n      pop\n        /* \"contracts/Gauge.sol\":20898:20908  msg.sender */\n      caller\n        /* \"contracts/Gauge.sol\":20890:20926  Deposit(msg.sender, tokenId, amount) */\n      0xffffffffffffffffffffffffffffffffffffffff\n      and\n      0x90890809c654f11d6e72a28fa60149770a0d11ec6c92319d6ceb2bb0a4ea1a15\n        /* \"contracts/Gauge.sol\":20910:20917  tokenId */\n      dup4\n        /* \"contracts/Gauge.sol\":20919:20925  amount */\n      dup6\n        /* \"contracts/Gauge.sol\":20890:20926  Deposit(msg.sender, tokenId, amount) */\n      mload(0x40)\n      tag_237\n      swap3\n      swap2\n      swap1\n      tag_36\n      jump\t// in\n    tag_237:\n      mload(0x40)\n      dup1\n      swap2\n      sub\n      swap1\n      log2\n        /* \"contracts/Gauge.sol\":19917:20933  {... */\n      pop\n        /* \"contracts/Gauge.sol\":3090:3091  1 */\n      0x01\n        /* \"contracts/Gauge.sol\":4017:4024  _status */\n      0x00\n        /* \"contracts/Gauge.sol\":4017:4039  _status = _NOT_ENTERED */\n      dup2\n      swap1\n      sstore\n      pop\n        /* \"contracts/Gauge.sol\":19853:20933  function deposit(uint amount, uint tokenId) public nonReentrant {... */\n      pop\n      pop\n      jump\t// out\n        /* \"contracts/Gauge.sol\":22179:22704  function updatePool() public {... */\n    tag_89:\n        /* \"contracts/Gauge.sol\":22238:22253  lastRewardBlock */\n      sload(0x04)\n        /* \"contracts/Gauge.sol\":22222:22234  block.number */\n      number\n        /* \"contracts/Gauge.sol\":22222:22253  block.number <= lastRewardBlock */\n      gt\n        /* \"contracts/Gauge.sol\":22218:22286  if (block.number <= lastRewardBlock) {... */\n      tag_239\n      jumpi\n        /* \"contracts/Gauge.sol\":22269:22276  return; */\n      jump(tag_238)\n        /* \"contracts/Gauge.sol\":22218:22286  if (block.number <= lastRewardBlock) {... */\n    tag_239:\n        /* \"contracts/Gauge.sol\":22315:22316  0 */\n      0x00\n        /* \"contracts/Gauge.sol\":22300:22311  totalSupply */\n      sload(0x05)\n        /* \"contracts/Gauge.sol\":22300:22316  totalSupply == 0 */\n      eq\n        /* \"contracts/Gauge.sol\":22296:22393  if (totalSupply == 0) {... */\n      iszero\n      tag_240\n      jumpi\n        /* \"contracts/Gauge.sol\":22350:22362  block.number */\n      number\n        /* \"contracts/Gauge.sol\":22332:22347  lastRewardBlock */\n      0x04\n        /* \"contracts/Gauge.sol\":22332:22362  lastRewardBlock = block.number */\n      dup2\n      swap1\n      sstore\n      pop\n        /* \"contracts/Gauge.sol\":22376:22383  return; */\n      jump(tag_238)\n        /* \"contracts/Gauge.sol\":22296:22393  if (totalSupply == 0) {... */\n    tag_240:\n        /* \"contracts/Gauge.sol\":22423:22424  0 */\n      0x00\n        /* \"contracts/Gauge.sol\":22406:22419  tokenPerBlock */\n      sload(0x02)\n        /* \"contracts/Gauge.sol\":22406:22424  tokenPerBlock <= 0 */\n      gt\n        /* \"contracts/Gauge.sol\":22402:22457  if (tokenPerBlock <= 0) {... */\n      tag_241\n      jumpi\n        /* \"contracts/Gauge.sol\":22440:22447  return; */\n      jump(tag_238)\n        /* \"contracts/Gauge.sol\":22402:22457  if (tokenPerBlock <= 0) {... */\n    tag_241:\n        /* \"contracts/Gauge.sol\":22466:22477  uint256 mul */\n      0x00\n        /* \"contracts/Gauge.sol\":22480:22513  block.number.sub(lastRewardBlock) */\n      tag_242\n        /* \"contracts/Gauge.sol\":22497:22512  lastRewardBlock */\n      sload(0x04)\n        /* \"contracts/Gauge.sol\":22480:22492  block.number */\n      number\n        /* \"contracts/Gauge.sol\":22480:22496  block.number.sub */\n      tag_162\n      swap1\n        /* \"contracts/Gauge.sol\":22480:22513  block.number.sub(lastRewardBlock) */\n      swap2\n      swap1\n      0xffffffff\n      and\n      jump\t// in\n    tag_242:\n        /* \"contracts/Gauge.sol\":22466:22513  uint256 mul = block.number.sub(lastRewardBlock) */\n      swap1\n      pop\n        /* \"contracts/Gauge.sol\":22523:22542  uint256 tokenReward */\n      0x00\n        /* \"contracts/Gauge.sol\":22545:22567  tokenPerBlock.mul(mul) */\n      tag_243\n        /* \"contracts/Gauge.sol\":22563:22566  mul */\n      dup3\n        /* \"contracts/Gauge.sol\":22545:22558  tokenPerBlock */\n      sload(0x02)\n        /* \"contracts/Gauge.sol\":22545:22562  tokenPerBlock.mul */\n      tag_141\n      swap1\n        /* \"contracts/Gauge.sol\":22545:22567  tokenPerBlock.mul(mul) */\n      swap2\n      swap1\n      0xffffffff\n      and\n      jump\t// in\n    tag_243:\n        /* \"contracts/Gauge.sol\":22523:22567  uint256 tokenReward = tokenPerBlock.mul(mul) */\n      swap1\n      pop\n        /* \"contracts/Gauge.sol\":22597:22657  accTokenPerShare.add(tokenReward.mul(1e12).div(totalSupply)) */\n      tag_244\n        /* \"contracts/Gauge.sol\":22618:22656  tokenReward.mul(1e12).div(totalSupply) */\n      tag_245\n        /* \"contracts/Gauge.sol\":22644:22655  totalSupply */\n      sload(0x05)\n        /* \"contracts/Gauge.sol\":22618:22639  tokenReward.mul(1e12) */\n      tag_246\n        /* \"contracts/Gauge.sol\":22634:22638  1e12 */\n      0xe8d4a51000\n        /* \"contracts/Gauge.sol\":22618:22629  tokenReward */\n      dup6\n        /* \"contracts/Gauge.sol\":22618:22633  tokenReward.mul */\n      tag_141\n      swap1\n        /* \"contracts/Gauge.sol\":22618:22639  tokenReward.mul(1e12) */\n      swap2\n      swap1\n      0xffffffff\n      and\n      jump\t// in\n    tag_246:\n        /* \"contracts/Gauge.sol\":22618:22643  tokenReward.mul(1e12).div */\n      tag_142\n      swap1\n        /* \"contracts/Gauge.sol\":22618:22656  tokenReward.mul(1e12).div(totalSupply) */\n      swap2\n      swap1\n      0xffffffff\n      and\n      jump\t// in\n    tag_245:\n        /* \"contracts/Gauge.sol\":22597:22613  accTokenPerShare */\n      sload(0x03)\n        /* \"contracts/Gauge.sol\":22597:22617  accTokenPerShare.add */\n      tag_167\n      swap1\n        /* \"contracts/Gauge.sol\":22597:22657  accTokenPerShare.add(tokenReward.mul(1e12).div(totalSupply)) */\n      swap2\n      swap1\n      0xffffffff\n      and\n      jump\t// in\n    tag_244:\n        /* \"contracts/Gauge.sol\":22578:22594  accTokenPerShare */\n      0x03\n        /* \"contracts/Gauge.sol\":22578:22657  accTokenPerShare = accTokenPerShare.add(tokenReward.mul(1e12).div(totalSupply)) */\n      dup2\n      swap1\n      sstore\n      pop\n        /* \"contracts/Gauge.sol\":22685:22697  block.number */\n      number\n        /* \"contracts/Gauge.sol\":22667:22682  lastRewardBlock */\n      0x04\n        /* \"contracts/Gauge.sol\":22667:22697  lastRewardBlock = block.number */\n      dup2\n      swap1\n      sstore\n      pop\n        /* \"contracts/Gauge.sol\":22208:22704  {... */\n      pop\n      pop\n        /* \"contracts/Gauge.sol\":22179:22704  function updatePool() public {... */\n    tag_238:\n      jump\t// out\n        /* \"contracts/Gauge.sol\":17063:17099  address public immutable rewardToken */\n    tag_91:\n      immutable(\"0x51432b6f6ffff9c0d91073ef7f23a4f639ef505c3fc71bae7794b27877f54eff\")\n      dup2\n      jump\t// out\n        /* \"contracts/Gauge.sol\":17154:17194  mapping(address => uint) public tokenIds */\n    tag_95:\n      mstore(0x20, 0x01)\n      dup1\n      0x00\n      mstore\n      keccak256(0x00, 0x40)\n      0x00\n      swap2\n      pop\n      swap1\n      pop\n      sload\n      dup2\n      jump\t// out\n        /* \"contracts/Gauge.sol\":21255:22173  function withdrawToken(uint _amount, uint tokenId) public nonReentrant {... */\n    tag_99:\n        /* \"contracts/Gauge.sol\":3133:3134  2 */\n      0x02\n        /* \"contracts/Gauge.sol\":3714:3721  _status */\n      sload(0x00)\n        /* \"contracts/Gauge.sol\":3714:3733  _status != _ENTERED */\n      eq\n      iszero\n        /* \"contracts/Gauge.sol\":3706:3769  require(_status != _ENTERED, \"ReentrancyGuard: reentrant call\") */\n      tag_248\n      jumpi\n      mload(0x40)\n      0x08c379a000000000000000000000000000000000000000000000000000000000\n      dup2\n      mstore\n      0x04\n      add\n      tag_249\n      swap1\n      tag_172\n      jump\t// in\n    tag_249:\n      mload(0x40)\n      dup1\n      swap2\n      sub\n      swap1\n      revert\n    tag_248:\n        /* \"contracts/Gauge.sol\":3133:3134  2 */\n      0x02\n        /* \"contracts/Gauge.sol\":3844:3851  _status */\n      0x00\n        /* \"contracts/Gauge.sol\":3844:3862  _status = _ENTERED */\n      dup2\n      swap1\n      sstore\n      pop\n        /* \"contracts/Gauge.sol\":21336:21357  UserInfo storage user */\n      0x00\n        /* \"contracts/Gauge.sol\":21360:21368  userInfo */\n      0x06\n        /* \"contracts/Gauge.sol\":21360:21380  userInfo[msg.sender] */\n      0x00\n        /* \"contracts/Gauge.sol\":21369:21379  msg.sender */\n      caller\n        /* \"contracts/Gauge.sol\":21360:21380  userInfo[msg.sender] */\n      0xffffffffffffffffffffffffffffffffffffffff\n      and\n      0xffffffffffffffffffffffffffffffffffffffff\n      and\n      dup2\n      mstore\n      0x20\n      add\n      swap1\n      dup2\n      mstore\n      0x20\n      add\n      0x00\n      keccak256\n        /* \"contracts/Gauge.sol\":21336:21380  UserInfo storage user = userInfo[msg.sender] */\n      swap1\n      pop\n        /* \"contracts/Gauge.sol\":21413:21420  _amount */\n      dup3\n        /* \"contracts/Gauge.sol\":21398:21402  user */\n      dup2\n        /* \"contracts/Gauge.sol\":21398:21409  user.amount */\n      0x00\n      add\n      sload\n        /* \"contracts/Gauge.sol\":21398:21420  user.amount >= _amount */\n      lt\n      iszero\n        /* \"contracts/Gauge.sol\":21390:21447  require(user.amount >= _amount, \"withdrawSwap: not good\") */\n      tag_251\n      jumpi\n      mload(0x40)\n      0x08c379a000000000000000000000000000000000000000000000000000000000\n      dup2\n      mstore\n      0x04\n      add\n      tag_252\n      swap1\n      tag_253\n      jump\t// in\n    tag_252:\n      mload(0x40)\n      dup1\n      swap2\n      sub\n      swap1\n      revert\n    tag_251:\n        /* \"contracts/Gauge.sol\":21457:21469  updatePool() */\n      tag_254\n        /* \"contracts/Gauge.sol\":21457:21467  updatePool */\n      tag_89\n        /* \"contracts/Gauge.sol\":21457:21469  updatePool() */\n      jump\t// in\n    tag_254:\n        /* \"contracts/Gauge.sol\":21479:21500  uint256 pendingAmount */\n      0x00\n        /* \"contracts/Gauge.sol\":21503:21525  pendingMax(msg.sender) */\n      tag_255\n        /* \"contracts/Gauge.sol\":21514:21524  msg.sender */\n      caller\n        /* \"contracts/Gauge.sol\":21503:21513  pendingMax */\n      tag_82\n        /* \"contracts/Gauge.sol\":21503:21525  pendingMax(msg.sender) */\n      jump\t// in\n    tag_255:\n        /* \"contracts/Gauge.sol\":21479:21525  uint256 pendingAmount = pendingMax(msg.sender) */\n      swap1\n      pop\n        /* \"contracts/Gauge.sol\":21555:21556  0 */\n      0x00\n        /* \"contracts/Gauge.sol\":21539:21552  pendingAmount */\n      dup2\n        /* \"contracts/Gauge.sol\":21539:21556  pendingAmount > 0 */\n      gt\n        /* \"contracts/Gauge.sol\":21535:21641  if (pendingAmount > 0) {... */\n      iszero\n      tag_256\n      jumpi\n        /* \"contracts/Gauge.sol\":21572:21630  _safeTokenTransfer(rewardToken, msg.sender, pendingAmount) */\n      tag_257\n        /* \"contracts/Gauge.sol\":21591:21602  rewardToken */\n      immutable(\"0x51432b6f6ffff9c0d91073ef7f23a4f639ef505c3fc71bae7794b27877f54eff\")\n        /* \"contracts/Gauge.sol\":21604:21614  msg.sender */\n      caller\n        /* \"contracts/Gauge.sol\":21616:21629  pendingAmount */\n      dup4\n        /* \"contracts/Gauge.sol\":21572:21590  _safeTokenTransfer */\n      tag_180\n        /* \"contracts/Gauge.sol\":21572:21630  _safeTokenTransfer(rewardToken, msg.sender, pendingAmount) */\n      jump\t// in\n    tag_257:\n        /* \"contracts/Gauge.sol\":21535:21641  if (pendingAmount > 0) {... */\n    tag_256:\n        /* \"contracts/Gauge.sol\":21664:21665  0 */\n      0x00\n        /* \"contracts/Gauge.sol\":21654:21661  _amount */\n      dup5\n        /* \"contracts/Gauge.sol\":21654:21665  _amount > 0 */\n      gt\n        /* \"contracts/Gauge.sol\":21650:21851  if (_amount > 0) {... */\n      iszero\n      tag_258\n      jumpi\n        /* \"contracts/Gauge.sol\":21695:21719  user.amount.sub(_amount) */\n      tag_259\n        /* \"contracts/Gauge.sol\":21711:21718  _amount */\n      dup5\n        /* \"contracts/Gauge.sol\":21695:21699  user */\n      dup4\n        /* \"contracts/Gauge.sol\":21695:21706  user.amount */\n      0x00\n      add\n      sload\n        /* \"contracts/Gauge.sol\":21695:21710  user.amount.sub */\n      tag_162\n      swap1\n        /* \"contracts/Gauge.sol\":21695:21719  user.amount.sub(_amount) */\n      swap2\n      swap1\n      0xffffffff\n      and\n      jump\t// in\n    tag_259:\n        /* \"contracts/Gauge.sol\":21681:21685  user */\n      dup3\n        /* \"contracts/Gauge.sol\":21681:21692  user.amount */\n      0x00\n      add\n        /* \"contracts/Gauge.sol\":21681:21719  user.amount = user.amount.sub(_amount) */\n      dup2\n      swap1\n      sstore\n      pop\n        /* \"contracts/Gauge.sol\":21747:21771  totalSupply.sub(_amount) */\n      tag_260\n        /* \"contracts/Gauge.sol\":21763:21770  _amount */\n      dup5\n        /* \"contracts/Gauge.sol\":21747:21758  totalSupply */\n      sload(0x05)\n        /* \"contracts/Gauge.sol\":21747:21762  totalSupply.sub */\n      tag_162\n      swap1\n        /* \"contracts/Gauge.sol\":21747:21771  totalSupply.sub(_amount) */\n      swap2\n      swap1\n      0xffffffff\n      and\n      jump\t// in\n    tag_260:\n        /* \"contracts/Gauge.sol\":21733:21744  totalSupply */\n      0x05\n        /* \"contracts/Gauge.sol\":21733:21771  totalSupply = totalSupply.sub(_amount) */\n      dup2\n      swap1\n      sstore\n      pop\n        /* \"contracts/Gauge.sol\":21785:21840  TransferHelper.safeTransfer(stake, msg.sender, _amount) */\n      tag_261\n        /* \"contracts/Gauge.sol\":21813:21818  stake */\n      immutable(\"0x6d7e9d25f7937a025d098651c32892e1256b8f7bcedf36aadd28cccf92a5a08d\")\n        /* \"contracts/Gauge.sol\":21820:21830  msg.sender */\n      caller\n        /* \"contracts/Gauge.sol\":21832:21839  _amount */\n      dup7\n        /* \"contracts/Gauge.sol\":21785:21812  TransferHelper.safeTransfer */\n      tag_262\n        /* \"contracts/Gauge.sol\":21785:21840  TransferHelper.safeTransfer(stake, msg.sender, _amount) */\n      jump\t// in\n    tag_261:\n        /* \"contracts/Gauge.sol\":21650:21851  if (_amount > 0) {... */\n    tag_258:\n        /* \"contracts/Gauge.sol\":21879:21922  user.amount.mul(accTokenPerShare).div(1e12) */\n      tag_263\n        /* \"contracts/Gauge.sol\":21917:21921  1e12 */\n      0xe8d4a51000\n        /* \"contracts/Gauge.sol\":21879:21912  user.amount.mul(accTokenPerShare) */\n      tag_264\n        /* \"contracts/Gauge.sol\":21895:21911  accTokenPerShare */\n      sload(0x03)\n        /* \"contracts/Gauge.sol\":21879:21883  user */\n      dup6\n        /* \"contracts/Gauge.sol\":21879:21890  user.amount */\n      0x00\n      add\n      sload\n        /* \"contracts/Gauge.sol\":21879:21894  user.amount.mul */\n      tag_141\n      swap1\n        /* \"contracts/Gauge.sol\":21879:21912  user.amount.mul(accTokenPerShare) */\n      swap2\n      swap1\n      0xffffffff\n      and\n      jump\t// in\n    tag_264:\n        /* \"contracts/Gauge.sol\":21879:21916  user.amount.mul(accTokenPerShare).div */\n      tag_142\n      swap1\n        /* \"contracts/Gauge.sol\":21879:21922  user.amount.mul(accTokenPerShare).div(1e12) */\n      swap2\n      swap1\n      0xffffffff\n      and\n      jump\t// in\n    tag_263:\n        /* \"contracts/Gauge.sol\":21861:21865  user */\n      dup3\n        /* \"contracts/Gauge.sol\":21861:21876  user.rewardDebt */\n      0x01\n      add\n        /* \"contracts/Gauge.sol\":21861:21922  user.rewardDebt = user.amount.mul(accTokenPerShare).div(1e12) */\n      dup2\n      swap1\n      sstore\n      pop\n        /* \"contracts/Gauge.sol\":21947:21948  0 */\n      0x00\n        /* \"contracts/Gauge.sol\":21937:21944  tokenId */\n      dup4\n        /* \"contracts/Gauge.sol\":21937:21948  tokenId > 0 */\n      gt\n        /* \"contracts/Gauge.sol\":21933:22114  if (tokenId > 0) {... */\n      iszero\n      tag_265\n      jumpi\n        /* \"contracts/Gauge.sol\":21983:21991  tokenIds */\n      0x01\n        /* \"contracts/Gauge.sol\":21983:22003  tokenIds[msg.sender] */\n      0x00\n        /* \"contracts/Gauge.sol\":21992:22002  msg.sender */\n      caller\n        /* \"contracts/Gauge.sol\":21983:22003  tokenIds[msg.sender] */\n      0xffffffffffffffffffffffffffffffffffffffff\n      and\n      0xffffffffffffffffffffffffffffffffffffffff\n      and\n      dup2\n      mstore\n      0x20\n      add\n      swap1\n      dup2\n      mstore\n      0x20\n      add\n      0x00\n      keccak256\n      sload\n        /* \"contracts/Gauge.sol\":21972:21979  tokenId */\n      dup4\n        /* \"contracts/Gauge.sol\":21972:22003  tokenId == tokenIds[msg.sender] */\n      eq\n        /* \"contracts/Gauge.sol\":21964:22004  require(tokenId == tokenIds[msg.sender]) */\n      tag_266\n      jumpi\n      0x00\n      dup1\n      revert\n    tag_266:\n        /* \"contracts/Gauge.sol\":22041:22042  0 */\n      0x00\n        /* \"contracts/Gauge.sol\":22018:22026  tokenIds */\n      0x01\n        /* \"contracts/Gauge.sol\":22018:22038  tokenIds[msg.sender] */\n      0x00\n        /* \"contracts/Gauge.sol\":22027:22037  msg.sender */\n      caller\n        /* \"contracts/Gauge.sol\":22018:22038  tokenIds[msg.sender] */\n      0xffffffffffffffffffffffffffffffffffffffff\n      and\n      0xffffffffffffffffffffffffffffffffffffffff\n      and\n      dup2\n      mstore\n      0x20\n      add\n      swap1\n      dup2\n      mstore\n      0x20\n      add\n      0x00\n      keccak256\n        /* \"contracts/Gauge.sol\":22018:22042  tokenIds[msg.sender] = 0 */\n      dup2\n      swap1\n      sstore\n      pop\n        /* \"contracts/Gauge.sol\":21933:22114  if (tokenId > 0) {... */\n      jump(tag_267)\n    tag_265:\n        /* \"contracts/Gauge.sol\":22083:22091  tokenIds */\n      0x01\n        /* \"contracts/Gauge.sol\":22083:22103  tokenIds[msg.sender] */\n      0x00\n        /* \"contracts/Gauge.sol\":22092:22102  msg.sender */\n      caller\n        /* \"contracts/Gauge.sol\":22083:22103  tokenIds[msg.sender] */\n      0xffffffffffffffffffffffffffffffffffffffff\n      and\n      0xffffffffffffffffffffffffffffffffffffffff\n      and\n      dup2\n      mstore\n      0x20\n      add\n      swap1\n      dup2\n      mstore\n      0x20\n      add\n      0x00\n      keccak256\n      sload\n        /* \"contracts/Gauge.sol\":22073:22103  tokenId = tokenIds[msg.sender] */\n      swap3\n      pop\n        /* \"contracts/Gauge.sol\":21933:22114  if (tokenId > 0) {... */\n    tag_267:\n        /* \"contracts/Gauge.sol\":22137:22147  msg.sender */\n      caller\n        /* \"contracts/Gauge.sol\":22128:22166  Withdraw(msg.sender, tokenId, _amount) */\n      0xffffffffffffffffffffffffffffffffffffffff\n      and\n      0xf279e6a1f5e320cca91135676d9cb6e44ca8a08c0b88342bcdb1144f6511b568\n        /* \"contracts/Gauge.sol\":22149:22156  tokenId */\n      dup5\n        /* \"contracts/Gauge.sol\":22158:22165  _amount */\n      dup7\n        /* \"contracts/Gauge.sol\":22128:22166  Withdraw(msg.sender, tokenId, _amount) */\n      mload(0x40)\n      tag_268\n      swap3\n      swap2\n      swap1\n      tag_36\n      jump\t// in\n    tag_268:\n      mload(0x40)\n      dup1\n      swap2\n      sub\n      swap1\n      log2\n        /* \"contracts/Gauge.sol\":21326:22173  {... */\n      pop\n      pop\n        /* \"contracts/Gauge.sol\":3090:3091  1 */\n      0x01\n        /* \"contracts/Gauge.sol\":4017:4024  _status */\n      0x00\n        /* \"contracts/Gauge.sol\":4017:4039  _status = _NOT_ENTERED */\n      dup2\n      swap1\n      sstore\n      pop\n        /* \"contracts/Gauge.sol\":21255:22173  function withdrawToken(uint _amount, uint tokenId) public nonReentrant {... */\n      pop\n      pop\n      jump\t// out\n        /* \"contracts/Gauge.sol\":10336:10432  function mul(uint256 a, uint256 b) internal pure returns (uint256) {... */\n    tag_141:\n        /* \"contracts/Gauge.sol\":10394:10401  uint256 */\n      0x00\n        /* \"contracts/Gauge.sol\":10424:10425  b */\n      dup2\n        /* \"contracts/Gauge.sol\":10420:10421  a */\n      dup4\n        /* \"contracts/Gauge.sol\":10420:10425  a * b */\n      tag_270\n      swap2\n      swap1\n      tag_110\n      jump\t// in\n    tag_270:\n        /* \"contracts/Gauge.sol\":10413:10425  return a * b */\n      swap1\n      pop\n        /* \"contracts/Gauge.sol\":10336:10432  function mul(uint256 a, uint256 b) internal pure returns (uint256) {... */\n      swap3\n      swap2\n      pop\n      pop\n      jump\t// out\n        /* \"contracts/Gauge.sol\":10721:10817  function div(uint256 a, uint256 b) internal pure returns (uint256) {... */\n    tag_142:\n        /* \"contracts/Gauge.sol\":10779:10786  uint256 */\n      0x00\n        /* \"contracts/Gauge.sol\":10809:10810  b */\n      dup2\n        /* \"contracts/Gauge.sol\":10805:10806  a */\n      dup4\n        /* \"contracts/Gauge.sol\":10805:10810  a / b */\n      tag_272\n      swap2\n      swap1\n      tag_112\n      jump\t// in\n    tag_272:\n        /* \"contracts/Gauge.sol\":10798:10810  return a / b */\n      swap1\n      pop\n        /* \"contracts/Gauge.sol\":10721:10817  function div(uint256 a, uint256 b) internal pure returns (uint256) {... */\n      swap3\n      swap2\n      pop\n      pop\n      jump\t// out\n        /* \"contracts/Gauge.sol\":583:687  function min(uint256 a, uint256 b) internal pure returns (uint256) {... */\n    tag_150:\n        /* \"contracts/Gauge.sol\":641:648  uint256 */\n      0x00\n        /* \"contracts/Gauge.sol\":671:672  b */\n      dup2\n        /* \"contracts/Gauge.sol\":667:668  a */\n      dup4\n        /* \"contracts/Gauge.sol\":667:672  a < b */\n      lt\n        /* \"contracts/Gauge.sol\":667:680  a < b ? a : b */\n      tag_274\n      jumpi\n        /* \"contracts/Gauge.sol\":679:680  b */\n      dup2\n        /* \"contracts/Gauge.sol\":667:680  a < b ? a : b */\n      jump(tag_275)\n    tag_274:\n        /* \"contracts/Gauge.sol\":675:676  a */\n      dup3\n        /* \"contracts/Gauge.sol\":667:680  a < b ? a : b */\n    tag_275:\n        /* \"contracts/Gauge.sol\":660:680  return a < b ? a : b */\n      swap1\n      pop\n        /* \"contracts/Gauge.sol\":583:687  function min(uint256 a, uint256 b) internal pure returns (uint256) {... */\n      swap3\n      swap2\n      pop\n      pop\n      jump\t// out\n        /* \"contracts/Gauge.sol\":9993:10089  function sub(uint256 a, uint256 b) internal pure returns (uint256) {... */\n    tag_162:\n        /* \"contracts/Gauge.sol\":10051:10058  uint256 */\n      0x00\n        /* \"contracts/Gauge.sol\":10081:10082  b */\n      dup2\n        /* \"contracts/Gauge.sol\":10077:10078  a */\n      dup4\n        /* \"contracts/Gauge.sol\":10077:10082  a - b */\n      tag_277\n      swap2\n      swap1\n      tag_278\n      jump\t// in\n    tag_277:\n        /* \"contracts/Gauge.sol\":10070:10082  return a - b */\n      swap1\n      pop\n        /* \"contracts/Gauge.sol\":9993:10089  function sub(uint256 a, uint256 b) internal pure returns (uint256) {... */\n      swap3\n      swap2\n      pop\n      pop\n      jump\t// out\n        /* \"contracts/Gauge.sol\":9626:9722  function add(uint256 a, uint256 b) internal pure returns (uint256) {... */\n    tag_167:\n        /* \"contracts/Gauge.sol\":9684:9691  uint256 */\n      0x00\n        /* \"contracts/Gauge.sol\":9714:9715  b */\n      dup2\n        /* \"contracts/Gauge.sol\":9710:9711  a */\n      dup4\n        /* \"contracts/Gauge.sol\":9710:9715  a + b */\n      tag_280\n      swap2\n      swap1\n      tag_149\n      jump\t// in\n    tag_280:\n        /* \"contracts/Gauge.sol\":9703:9715  return a + b */\n      swap1\n      pop\n        /* \"contracts/Gauge.sol\":9626:9722  function add(uint256 a, uint256 b) internal pure returns (uint256) {... */\n      swap3\n      swap2\n      pop\n      pop\n      jump\t// out\n        /* \"contracts/Gauge.sol\":18065:18448  function _safeTokenTransfer(address token, address account, uint256 _amount) internal {... */\n    tag_180:\n        /* \"contracts/Gauge.sol\":18161:18199  _safeTransferFromToken(token, _amount) */\n      tag_282\n        /* \"contracts/Gauge.sol\":18184:18189  token */\n      dup4\n        /* \"contracts/Gauge.sol\":18191:18198  _amount */\n      dup3\n        /* \"contracts/Gauge.sol\":18161:18183  _safeTransferFromToken */\n      tag_283\n        /* \"contracts/Gauge.sol\":18161:18199  _safeTransferFromToken(token, _amount) */\n      jump\t// in\n    tag_282:\n        /* \"contracts/Gauge.sol\":18209:18220  uint256 bal */\n      0x00\n        /* \"contracts/Gauge.sol\":18230:18235  token */\n      dup4\n        /* \"contracts/Gauge.sol\":18223:18246  IERC20(token).balanceOf */\n      0xffffffffffffffffffffffffffffffffffffffff\n      and\n      0x70a08231\n        /* \"contracts/Gauge.sol\":18255:18259  this */\n      address\n        /* \"contracts/Gauge.sol\":18223:18261  IERC20(token).balanceOf(address(this)) */\n      mload(0x40)\n      dup3\n      0xffffffff\n      and\n      0xe0\n      shl\n      dup2\n      mstore\n      0x04\n      add\n      tag_284\n      swap2\n      swap1\n      tag_44\n      jump\t// in\n    tag_284:\n      0x20\n      mload(0x40)\n      dup1\n      dup4\n      sub\n      dup2\n      dup7\n      gas\n      staticcall\n      iszero\n      dup1\n      iszero\n      tag_286\n      jumpi\n      returndatasize\n      0x00\n      dup1\n      returndatacopy\n      revert(0x00, returndatasize)\n    tag_286:\n      pop\n      pop\n      pop\n      pop\n      mload(0x40)\n      returndatasize\n      not(0x1f)\n      0x1f\n      dup3\n      add\n      and\n      dup3\n      add\n      dup1\n      0x40\n      mstore\n      pop\n      dup2\n      add\n      swap1\n      tag_287\n      swap2\n      swap1\n      tag_117\n      jump\t// in\n    tag_287:\n        /* \"contracts/Gauge.sol\":18209:18261  uint256 bal = IERC20(token).balanceOf(address(this)) */\n      swap1\n      pop\n        /* \"contracts/Gauge.sol\":18285:18288  bal */\n      dup1\n        /* \"contracts/Gauge.sol\":18275:18282  _amount */\n      dup3\n        /* \"contracts/Gauge.sol\":18275:18288  _amount > bal */\n      gt\n        /* \"contracts/Gauge.sol\":18271:18328  if (_amount > bal) {... */\n      iszero\n      tag_288\n      jumpi\n        /* \"contracts/Gauge.sol\":18314:18317  bal */\n      dup1\n        /* \"contracts/Gauge.sol\":18304:18317  _amount = bal */\n      swap2\n      pop\n        /* \"contracts/Gauge.sol\":18271:18328  if (_amount > bal) {... */\n    tag_288:\n        /* \"contracts/Gauge.sol\":18347:18379  derivedBalance(account, _amount) */\n      tag_289\n        /* \"contracts/Gauge.sol\":18362:18369  account */\n      dup4\n        /* \"contracts/Gauge.sol\":18371:18378  _amount */\n      dup4\n        /* \"contracts/Gauge.sol\":18347:18361  derivedBalance */\n      tag_60\n        /* \"contracts/Gauge.sol\":18347:18379  derivedBalance(account, _amount) */\n      jump\t// in\n    tag_289:\n        /* \"contracts/Gauge.sol\":18337:18379  _amount = derivedBalance(account, _amount) */\n      swap2\n      pop\n        /* \"contracts/Gauge.sol\":18389:18441  TransferHelper.safeTransfer(token, account, _amount) */\n      tag_290\n        /* \"contracts/Gauge.sol\":18417:18422  token */\n      dup5\n        /* \"contracts/Gauge.sol\":18424:18431  account */\n      dup5\n        /* \"contracts/Gauge.sol\":18433:18440  _amount */\n      dup5\n        /* \"contracts/Gauge.sol\":18389:18416  TransferHelper.safeTransfer */\n      tag_262\n        /* \"contracts/Gauge.sol\":18389:18441  TransferHelper.safeTransfer(token, account, _amount) */\n      jump\t// in\n    tag_290:\n        /* \"contracts/Gauge.sol\":18151:18448  {... */\n      pop\n        /* \"contracts/Gauge.sol\":18065:18448  function _safeTokenTransfer(address token, address account, uint256 _amount) internal {... */\n      pop\n      pop\n      pop\n      jump\t// out\n        /* \"contracts/Gauge.sol\":15552:15950  function safeTransferFrom(address token, address from, address to, uint value) internal {... */\n    tag_223:\n        /* \"contracts/Gauge.sol\":15729:15741  bool success */\n      0x00\n        /* \"contracts/Gauge.sol\":15743:15760  bytes memory data */\n      dup1\n        /* \"contracts/Gauge.sol\":15764:15769  token */\n      dup6\n        /* \"contracts/Gauge.sol\":15764:15774  token.call */\n      0xffffffffffffffffffffffffffffffffffffffff\n      and\n        /* \"contracts/Gauge.sol\":15798:15808  0x23b872dd */\n      0x23b872dd\n        /* \"contracts/Gauge.sol\":15810:15814  from */\n      dup7\n        /* \"contracts/Gauge.sol\":15816:15818  to */\n      dup7\n        /* \"contracts/Gauge.sol\":15820:15825  value */\n      dup7\n        /* \"contracts/Gauge.sol\":15775:15826  abi.encodeWithSelector(0x23b872dd, from, to, value) */\n      add(0x24, mload(0x40))\n      tag_292\n      swap4\n      swap3\n      swap2\n      swap1\n      tag_293\n      jump\t// in\n    tag_292:\n      mload(0x40)\n      0x20\n      dup2\n      dup4\n      sub\n      sub\n      dup2\n      mstore\n      swap1\n      0x40\n      mstore\n      swap1\n      0xe0\n      shl\n      0x20\n      dup3\n      add\n      dup1\n      mload\n      0xffffffffffffffffffffffffffffffffffffffffffffffffffffffff\n      dup4\n      dup2\n      dup4\n      and\n      or\n      dup4\n      mstore\n      pop\n      pop\n      pop\n      pop\n        /* \"contracts/Gauge.sol\":15764:15827  token.call(abi.encodeWithSelector(0x23b872dd, from, to, value)) */\n      mload(0x40)\n      tag_294\n      swap2\n      swap1\n      tag_295\n      jump\t// in\n    tag_294:\n      0x00\n      mload(0x40)\n      dup1\n      dup4\n      sub\n      dup2\n      0x00\n      dup7\n      gas\n      call\n      swap2\n      pop\n      pop\n      returndatasize\n      dup1\n      0x00\n      dup2\n      eq\n      tag_298\n      jumpi\n      mload(0x40)\n      swap2\n      pop\n      and(add(returndatasize, 0x3f), not(0x1f))\n      dup3\n      add\n      0x40\n      mstore\n      returndatasize\n      dup3\n      mstore\n      returndatasize\n      0x00\n      0x20\n      dup5\n      add\n      returndatacopy\n      jump(tag_297)\n    tag_298:\n      0x60\n      swap2\n      pop\n    tag_297:\n      pop\n        /* \"contracts/Gauge.sol\":15728:15827  (bool success, bytes memory data) = token.call(abi.encodeWithSelector(0x23b872dd, from, to, value)) */\n      swap2\n      pop\n      swap2\n      pop\n        /* \"contracts/Gauge.sol\":15845:15852  success */\n      dup2\n        /* \"contracts/Gauge.sol\":15845:15902  success && (data.length == 0 || abi.decode(data, (bool))) */\n      dup1\n      iszero\n      tag_299\n      jumpi\n      pop\n        /* \"contracts/Gauge.sol\":15872:15873  0 */\n      0x00\n        /* \"contracts/Gauge.sol\":15857:15861  data */\n      dup2\n        /* \"contracts/Gauge.sol\":15857:15868  data.length */\n      mload\n        /* \"contracts/Gauge.sol\":15857:15873  data.length == 0 */\n      eq\n        /* \"contracts/Gauge.sol\":15857:15901  data.length == 0 || abi.decode(data, (bool)) */\n      dup1\n      tag_300\n      jumpi\n      pop\n        /* \"contracts/Gauge.sol\":15888:15892  data */\n      dup1\n        /* \"contracts/Gauge.sol\":15877:15901  abi.decode(data, (bool)) */\n      dup1\n      0x20\n      add\n      swap1\n      mload\n      dup2\n      add\n      swap1\n      tag_301\n      swap2\n      swap1\n      tag_302\n      jump\t// in\n    tag_301:\n        /* \"contracts/Gauge.sol\":15857:15901  data.length == 0 || abi.decode(data, (bool)) */\n    tag_300:\n        /* \"contracts/Gauge.sol\":15845:15902  success && (data.length == 0 || abi.decode(data, (bool))) */\n    tag_299:\n        /* \"contracts/Gauge.sol\":15837:15943  require(success && (data.length == 0 || abi.decode(data, (bool))), 'TransferHelper: TRANSFER_FROM_FAILED') */\n      tag_303\n      jumpi\n      mload(0x40)\n      0x08c379a000000000000000000000000000000000000000000000000000000000\n      dup2\n      mstore\n      0x04\n      add\n      tag_304\n      swap1\n      tag_305\n      jump\t// in\n    tag_304:\n      mload(0x40)\n      dup1\n      swap2\n      sub\n      swap1\n      revert\n    tag_303:\n        /* \"contracts/Gauge.sol\":15640:15950  {... */\n      pop\n      pop\n        /* \"contracts/Gauge.sol\":15552:15950  function safeTransferFrom(address token, address from, address to, uint value) internal {... */\n      pop\n      pop\n      pop\n      pop\n      jump\t// out\n        /* \"contracts/Gauge.sol\":15189:15546  function safeTransfer(address token, address to, uint value) internal {... */\n    tag_262:\n        /* \"contracts/Gauge.sol\":15336:15348  bool success */\n      0x00\n        /* \"contracts/Gauge.sol\":15350:15367  bytes memory data */\n      dup1\n        /* \"contracts/Gauge.sol\":15371:15376  token */\n      dup5\n        /* \"contracts/Gauge.sol\":15371:15381  token.call */\n      0xffffffffffffffffffffffffffffffffffffffff\n      and\n        /* \"contracts/Gauge.sol\":15405:15415  0xa9059cbb */\n      0xa9059cbb\n        /* \"contracts/Gauge.sol\":15417:15419  to */\n      dup6\n        /* \"contracts/Gauge.sol\":15421:15426  value */\n      dup6\n        /* \"contracts/Gauge.sol\":15382:15427  abi.encodeWithSelector(0xa9059cbb, to, value) */\n      add(0x24, mload(0x40))\n      tag_307\n      swap3\n      swap2\n      swap1\n      tag_308\n      jump\t// in\n    tag_307:\n      mload(0x40)\n      0x20\n      dup2\n      dup4\n      sub\n      sub\n      dup2\n      mstore\n      swap1\n      0x40\n      mstore\n      swap1\n      0xe0\n      shl\n      0x20\n      dup3\n      add\n      dup1\n      mload\n      0xffffffffffffffffffffffffffffffffffffffffffffffffffffffff\n      dup4\n      dup2\n      dup4\n      and\n      or\n      dup4\n      mstore\n      pop\n      pop\n      pop\n      pop\n        /* \"contracts/Gauge.sol\":15371:15428  token.call(abi.encodeWithSelector(0xa9059cbb, to, value)) */\n      mload(0x40)\n      tag_309\n      swap2\n      swap1\n      tag_295\n      jump\t// in\n    tag_309:\n      0x00\n      mload(0x40)\n      dup1\n      dup4\n      sub\n      dup2\n      0x00\n      dup7\n      gas\n      call\n      swap2\n      pop\n      pop\n      returndatasize\n      dup1\n      0x00\n      dup2\n      eq\n      tag_312\n      jumpi\n      mload(0x40)\n      swap2\n      pop\n      and(add(returndatasize, 0x3f), not(0x1f))\n      dup3\n      add\n      0x40\n      mstore\n      returndatasize\n      dup3\n      mstore\n      returndatasize\n      0x00\n      0x20\n      dup5\n      add\n      returndatacopy\n      jump(tag_311)\n    tag_312:\n      0x60\n      swap2\n      pop\n    tag_311:\n      pop\n        /* \"contracts/Gauge.sol\":15335:15428  (bool success, bytes memory data) = token.call(abi.encodeWithSelector(0xa9059cbb, to, value)) */\n      swap2\n      pop\n      swap2\n      pop\n        /* \"contracts/Gauge.sol\":15446:15453  success */\n      dup2\n        /* \"contracts/Gauge.sol\":15446:15503  success && (data.length == 0 || abi.decode(data, (bool))) */\n      dup1\n      iszero\n      tag_313\n      jumpi\n      pop\n        /* \"contracts/Gauge.sol\":15473:15474  0 */\n      0x00\n        /* \"contracts/Gauge.sol\":15458:15462  data */\n      dup2\n        /* \"contracts/Gauge.sol\":15458:15469  data.length */\n      mload\n        /* \"contracts/Gauge.sol\":15458:15474  data.length == 0 */\n      eq\n        /* \"contracts/Gauge.sol\":15458:15502  data.length == 0 || abi.decode(data, (bool)) */\n      dup1\n      tag_314\n      jumpi\n      pop\n        /* \"contracts/Gauge.sol\":15489:15493  data */\n      dup1\n        /* \"contracts/Gauge.sol\":15478:15502  abi.decode(data, (bool)) */\n      dup1\n      0x20\n      add\n      swap1\n      mload\n      dup2\n      add\n      swap1\n      tag_315\n      swap2\n      swap1\n      tag_302\n      jump\t// in\n    tag_315:\n        /* \"contracts/Gauge.sol\":15458:15502  data.length == 0 || abi.decode(data, (bool)) */\n    tag_314:\n        /* \"contracts/Gauge.sol\":15446:15503  success && (data.length == 0 || abi.decode(data, (bool))) */\n    tag_313:\n        /* \"contracts/Gauge.sol\":15438:15539  require(success && (data.length == 0 || abi.decode(data, (bool))), 'TransferHelper: TRANSFER_FAILED') */\n      tag_316\n      jumpi\n      mload(0x40)\n      0x08c379a000000000000000000000000000000000000000000000000000000000\n      dup2\n      mstore\n      0x04\n      add\n      tag_317\n      swap1\n      tag_318\n      jump\t// in\n    tag_317:\n      mload(0x40)\n      dup1\n      swap2\n      sub\n      swap1\n      revert\n    tag_316:\n        /* \"contracts/Gauge.sol\":15259:15546  {... */\n      pop\n      pop\n        /* \"contracts/Gauge.sol\":15189:15546  function safeTransfer(address token, address to, uint value) internal {... */\n      pop\n      pop\n      pop\n      jump\t// out\n        /* \"contracts/Gauge.sol\":17796:18059  function _safeTransferFromToken(address token, uint256 _amount) private {... */\n    tag_283:\n        /* \"contracts/Gauge.sol\":17878:17889  uint256 bal */\n      0x00\n        /* \"contracts/Gauge.sol\":17899:17904  token */\n      dup3\n        /* \"contracts/Gauge.sol\":17892:17915  IERC20(token).balanceOf */\n      0xffffffffffffffffffffffffffffffffffffffff\n      and\n      0x70a08231\n        /* \"contracts/Gauge.sol\":17924:17928  this */\n      address\n        /* \"contracts/Gauge.sol\":17892:17930  IERC20(token).balanceOf(address(this)) */\n      mload(0x40)\n      dup3\n      0xffffffff\n      and\n      0xe0\n      shl\n      dup2\n      mstore\n      0x04\n      add\n      tag_320\n      swap2\n      swap1\n      tag_44\n      jump\t// in\n    tag_320:\n      0x20\n      mload(0x40)\n      dup1\n      dup4\n      sub\n      dup2\n      dup7\n      gas\n      staticcall\n      iszero\n      dup1\n      iszero\n      tag_322\n      jumpi\n      returndatasize\n      0x00\n      dup1\n      returndatacopy\n      revert(0x00, returndatasize)\n    tag_322:\n      pop\n      pop\n      pop\n      pop\n      mload(0x40)\n      returndatasize\n      not(0x1f)\n      0x1f\n      dup3\n      add\n      and\n      dup3\n      add\n      dup1\n      0x40\n      mstore\n      pop\n      dup2\n      add\n      swap1\n      tag_323\n      swap2\n      swap1\n      tag_117\n      jump\t// in\n    tag_323:\n        /* \"contracts/Gauge.sol\":17878:17930  uint256 bal = IERC20(token).balanceOf(address(this)) */\n      swap1\n      pop\n        /* \"contracts/Gauge.sol\":17950:17957  _amount */\n      dup2\n        /* \"contracts/Gauge.sol\":17944:17947  bal */\n      dup2\n        /* \"contracts/Gauge.sol\":17944:17957  bal < _amount */\n      lt\n        /* \"contracts/Gauge.sol\":17940:18053  if (bal < _amount) {... */\n      iszero\n      tag_324\n      jumpi\n        /* \"contracts/Gauge.sol\":17973:18042  TransferHelper.safeTransferFrom(token, boost, address(this), _amount) */\n      tag_325\n        /* \"contracts/Gauge.sol\":18005:18010  token */\n      dup4\n        /* \"contracts/Gauge.sol\":18012:18017  boost */\n      immutable(\"0xba317e1d5aa05b5861702d06e2202816a8a6452d32b68558d200060c06eac391\")\n        /* \"contracts/Gauge.sol\":18027:18031  this */\n      address\n        /* \"contracts/Gauge.sol\":18034:18041  _amount */\n      dup6\n        /* \"contracts/Gauge.sol\":17973:18004  TransferHelper.safeTransferFrom */\n      tag_223\n        /* \"contracts/Gauge.sol\":17973:18042  TransferHelper.safeTransferFrom(token, boost, address(this), _amount) */\n      jump\t// in\n    tag_325:\n        /* \"contracts/Gauge.sol\":17940:18053  if (bal < _amount) {... */\n    tag_324:\n        /* \"contracts/Gauge.sol\":17868:18059  {... */\n      pop\n        /* \"contracts/Gauge.sol\":17796:18059  function _safeTransferFromToken(address token, uint256 _amount) private {... */\n      pop\n      pop\n      jump\t// out\n        /* \"#utility.yul\":7:84   */\n    tag_326:\n        /* \"#utility.yul\":44:51   */\n      0x00\n        /* \"#utility.yul\":73:78   */\n      dup2\n        /* \"#utility.yul\":62:78   */\n      swap1\n      pop\n        /* \"#utility.yul\":7:84   */\n      swap2\n      swap1\n      pop\n      jump\t// out\n        /* \"#utility.yul\":90:208   */\n    tag_327:\n        /* \"#utility.yul\":177:201   */\n      tag_367\n        /* \"#utility.yul\":195:200   */\n      dup2\n        /* \"#utility.yul\":177:201   */\n      tag_326\n      jump\t// in\n    tag_367:\n        /* \"#utility.yul\":172:175   */\n      dup3\n        /* \"#utility.yul\":165:202   */\n      mstore\n        /* \"#utility.yul\":90:208   */\n      pop\n      pop\n      jump\t// out\n        /* \"#utility.yul\":214:436   */\n    tag_30:\n        /* \"#utility.yul\":307:311   */\n      0x00\n        /* \"#utility.yul\":345:347   */\n      0x20\n        /* \"#utility.yul\":334:343   */\n      dup3\n        /* \"#utility.yul\":330:348   */\n      add\n        /* \"#utility.yul\":322:348   */\n      swap1\n      pop\n        /* \"#utility.yul\":358:429   */\n      tag_369\n        /* \"#utility.yul\":426:427   */\n      0x00\n        /* \"#utility.yul\":415:424   */\n      dup4\n        /* \"#utility.yul\":411:428   */\n      add\n        /* \"#utility.yul\":402:408   */\n      dup5\n        /* \"#utility.yul\":358:429   */\n      tag_327\n      jump\t// in\n    tag_369:\n        /* \"#utility.yul\":214:436   */\n      swap3\n      swap2\n      pop\n      pop\n      jump\t// out\n        /* \"#utility.yul\":523:640   */\n    tag_329:\n        /* \"#utility.yul\":632:633   */\n      0x00\n        /* \"#utility.yul\":629:630   */\n      dup1\n        /* \"#utility.yul\":622:634   */\n      revert\n        /* \"#utility.yul\":769:895   */\n    tag_331:\n        /* \"#utility.yul\":806:813   */\n      0x00\n        /* \"#utility.yul\":846:888   */\n      0xffffffffffffffffffffffffffffffffffffffff\n        /* \"#utility.yul\":839:844   */\n      dup3\n        /* \"#utility.yul\":835:889   */\n      and\n        /* \"#utility.yul\":824:889   */\n      swap1\n      pop\n        /* \"#utility.yul\":769:895   */\n      swap2\n      swap1\n      pop\n      jump\t// out\n        /* \"#utility.yul\":901:997   */\n    tag_332:\n        /* \"#utility.yul\":938:945   */\n      0x00\n        /* \"#utility.yul\":967:991   */\n      tag_375\n        /* \"#utility.yul\":985:990   */\n      dup3\n        /* \"#utility.yul\":967:991   */\n      tag_331\n      jump\t// in\n    tag_375:\n        /* \"#utility.yul\":956:991   */\n      swap1\n      pop\n        /* \"#utility.yul\":901:997   */\n      swap2\n      swap1\n      pop\n      jump\t// out\n        /* \"#utility.yul\":1003:1125   */\n    tag_333:\n        /* \"#utility.yul\":1076:1100   */\n      tag_377\n        /* \"#utility.yul\":1094:1099   */\n      dup2\n        /* \"#utility.yul\":1076:1100   */\n      tag_332\n      jump\t// in\n    tag_377:\n        /* \"#utility.yul\":1069:1074   */\n      dup2\n        /* \"#utility.yul\":1066:1101   */\n      eq\n        /* \"#utility.yul\":1056:1119   */\n      tag_378\n      jumpi\n        /* \"#utility.yul\":1115:1116   */\n      0x00\n        /* \"#utility.yul\":1112:1113   */\n      dup1\n        /* \"#utility.yul\":1105:1117   */\n      revert\n        /* \"#utility.yul\":1056:1119   */\n    tag_378:\n        /* \"#utility.yul\":1003:1125   */\n      pop\n      jump\t// out\n        /* \"#utility.yul\":1131:1270   */\n    tag_334:\n        /* \"#utility.yul\":1177:1182   */\n      0x00\n        /* \"#utility.yul\":1215:1221   */\n      dup2\n        /* \"#utility.yul\":1202:1222   */\n      calldataload\n        /* \"#utility.yul\":1193:1222   */\n      swap1\n      pop\n        /* \"#utility.yul\":1231:1264   */\n      tag_380\n        /* \"#utility.yul\":1258:1263   */\n      dup2\n        /* \"#utility.yul\":1231:1264   */\n      tag_333\n      jump\t// in\n    tag_380:\n        /* \"#utility.yul\":1131:1270   */\n      swap3\n      swap2\n      pop\n      pop\n      jump\t// out\n        /* \"#utility.yul\":1276:1605   */\n    tag_33:\n        /* \"#utility.yul\":1335:1341   */\n      0x00\n        /* \"#utility.yul\":1384:1386   */\n      0x20\n        /* \"#utility.yul\":1372:1381   */\n      dup3\n        /* \"#utility.yul\":1363:1370   */\n      dup5\n        /* \"#utility.yul\":1359:1382   */\n      sub\n        /* \"#utility.yul\":1355:1387   */\n      slt\n        /* \"#utility.yul\":1352:1471   */\n      iszero\n      tag_382\n      jumpi\n        /* \"#utility.yul\":1390:1469   */\n      tag_383\n      tag_329\n      jump\t// in\n    tag_383:\n        /* \"#utility.yul\":1352:1471   */\n    tag_382:\n        /* \"#utility.yul\":1510:1511   */\n      0x00\n        /* \"#utility.yul\":1535:1588   */\n      tag_384\n        /* \"#utility.yul\":1580:1587   */\n      dup5\n        /* \"#utility.yul\":1571:1577   */\n      dup3\n        /* \"#utility.yul\":1560:1569   */\n      dup6\n        /* \"#utility.yul\":1556:1578   */\n      add\n        /* \"#utility.yul\":1535:1588   */\n      tag_334\n      jump\t// in\n    tag_384:\n        /* \"#utility.yul\":1525:1588   */\n      swap2\n      pop\n        /* \"#utility.yul\":1481:1598   */\n      pop\n        /* \"#utility.yul\":1276:1605   */\n      swap3\n      swap2\n      pop\n      pop\n      jump\t// out\n        /* \"#utility.yul\":1611:1943   */\n    tag_36:\n        /* \"#utility.yul\":1732:1736   */\n      0x00\n        /* \"#utility.yul\":1770:1772   */\n      0x40\n        /* \"#utility.yul\":1759:1768   */\n      dup3\n        /* \"#utility.yul\":1755:1773   */\n      add\n        /* \"#utility.yul\":1747:1773   */\n      swap1\n      pop\n        /* \"#utility.yul\":1783:1854   */\n      tag_386\n        /* \"#utility.yul\":1851:1852   */\n      0x00\n        /* \"#utility.yul\":1840:1849   */\n      dup4\n        /* \"#utility.yul\":1836:1853   */\n      add\n        /* \"#utility.yul\":1827:1833   */\n      dup6\n        /* \"#utility.yul\":1783:1854   */\n      tag_327\n      jump\t// in\n    tag_386:\n        /* \"#utility.yul\":1864:1936   */\n      tag_387\n        /* \"#utility.yul\":1932:1934   */\n      0x20\n        /* \"#utility.yul\":1921:1930   */\n      dup4\n        /* \"#utility.yul\":1917:1935   */\n      add\n        /* \"#utility.yul\":1908:1914   */\n      dup5\n        /* \"#utility.yul\":1864:1936   */\n      tag_327\n      jump\t// in\n    tag_387:\n        /* \"#utility.yul\":1611:1943   */\n      swap4\n      swap3\n      pop\n      pop\n      pop\n      jump\t// out\n        /* \"#utility.yul\":1949:2071   */\n    tag_335:\n        /* \"#utility.yul\":2022:2046   */\n      tag_389\n        /* \"#utility.yul\":2040:2045   */\n      dup2\n        /* \"#utility.yul\":2022:2046   */\n      tag_326\n      jump\t// in\n    tag_389:\n        /* \"#utility.yul\":2015:2020   */\n      dup2\n        /* \"#utility.yul\":2012:2047   */\n      eq\n        /* \"#utility.yul\":2002:2065   */\n      tag_390\n      jumpi\n        /* \"#utility.yul\":2061:2062   */\n      0x00\n        /* \"#utility.yul\":2058:2059   */\n      dup1\n        /* \"#utility.yul\":2051:2063   */\n      revert\n        /* \"#utility.yul\":2002:2065   */\n    tag_390:\n        /* \"#utility.yul\":1949:2071   */\n      pop\n      jump\t// out\n        /* \"#utility.yul\":2077:2216   */\n    tag_336:\n        /* \"#utility.yul\":2123:2128   */\n      0x00\n        /* \"#utility.yul\":2161:2167   */\n      dup2\n        /* \"#utility.yul\":2148:2168   */\n      calldataload\n        /* \"#utility.yul\":2139:2168   */\n      swap1\n      pop\n        /* \"#utility.yul\":2177:2210   */\n      tag_392\n        /* \"#utility.yul\":2204:2209   */\n      dup2\n        /* \"#utility.yul\":2177:2210   */\n      tag_335\n      jump\t// in\n    tag_392:\n        /* \"#utility.yul\":2077:2216   */\n      swap3\n      swap2\n      pop\n      pop\n      jump\t// out\n        /* \"#utility.yul\":2222:2551   */\n    tag_39:\n        /* \"#utility.yul\":2281:2287   */\n      0x00\n        /* \"#utility.yul\":2330:2332   */\n      0x20\n        /* \"#utility.yul\":2318:2327   */\n      dup3\n        /* \"#utility.yul\":2309:2316   */\n      dup5\n        /* \"#utility.yul\":2305:2328   */\n      sub\n        /* \"#utility.yul\":2301:2333   */\n      slt\n        /* \"#utility.yul\":2298:2417   */\n      iszero\n      tag_394\n      jumpi\n        /* \"#utility.yul\":2336:2415   */\n      tag_395\n      tag_329\n      jump\t// in\n    tag_395:\n        /* \"#utility.yul\":2298:2417   */\n    tag_394:\n        /* \"#utility.yul\":2456:2457   */\n      0x00\n        /* \"#utility.yul\":2481:2534   */\n      tag_396\n        /* \"#utility.yul\":2526:2533   */\n      dup5\n        /* \"#utility.yul\":2517:2523   */\n      dup3\n        /* \"#utility.yul\":2506:2515   */\n      dup6\n        /* \"#utility.yul\":2502:2524   */\n      add\n        /* \"#utility.yul\":2481:2534   */\n      tag_336\n      jump\t// in\n    tag_396:\n        /* \"#utility.yul\":2471:2534   */\n      swap2\n      pop\n        /* \"#utility.yul\":2427:2544   */\n      pop\n        /* \"#utility.yul\":2222:2551   */\n      swap3\n      swap2\n      pop\n      pop\n      jump\t// out\n        /* \"#utility.yul\":2557:2675   */\n    tag_337:\n        /* \"#utility.yul\":2644:2668   */\n      tag_398\n        /* \"#utility.yul\":2662:2667   */\n      dup2\n        /* \"#utility.yul\":2644:2668   */\n      tag_332\n      jump\t// in\n    tag_398:\n        /* \"#utility.yul\":2639:2642   */\n      dup3\n        /* \"#utility.yul\":2632:2669   */\n      mstore\n        /* \"#utility.yul\":2557:2675   */\n      pop\n      pop\n      jump\t// out\n        /* \"#utility.yul\":2681:2903   */\n    tag_44:\n        /* \"#utility.yul\":2774:2778   */\n      0x00\n        /* \"#utility.yul\":2812:2814   */\n      0x20\n        /* \"#utility.yul\":2801:2810   */\n      dup3\n        /* \"#utility.yul\":2797:2815   */\n      add\n        /* \"#utility.yul\":2789:2815   */\n      swap1\n      pop\n        /* \"#utility.yul\":2825:2896   */\n      tag_400\n        /* \"#utility.yul\":2893:2894   */\n      0x00\n        /* \"#utility.yul\":2882:2891   */\n      dup4\n        /* \"#utility.yul\":2878:2895   */\n      add\n        /* \"#utility.yul\":2869:2875   */\n      dup5\n        /* \"#utility.yul\":2825:2896   */\n      tag_337\n      jump\t// in\n    tag_400:\n        /* \"#utility.yul\":2681:2903   */\n      swap3\n      swap2\n      pop\n      pop\n      jump\t// out\n        /* \"#utility.yul\":2909:3383   */\n    tag_59:\n        /* \"#utility.yul\":2977:2983   */\n      0x00\n        /* \"#utility.yul\":2985:2991   */\n      dup1\n        /* \"#utility.yul\":3034:3036   */\n      0x40\n        /* \"#utility.yul\":3022:3031   */\n      dup4\n        /* \"#utility.yul\":3013:3020   */\n      dup6\n        /* \"#utility.yul\":3009:3032   */\n      sub\n        /* \"#utility.yul\":3005:3037   */\n      slt\n        /* \"#utility.yul\":3002:3121   */\n      iszero\n      tag_402\n      jumpi\n        /* \"#utility.yul\":3040:3119   */\n      tag_403\n      tag_329\n      jump\t// in\n    tag_403:\n        /* \"#utility.yul\":3002:3121   */\n    tag_402:\n        /* \"#utility.yul\":3160:3161   */\n      0x00\n        /* \"#utility.yul\":3185:3238   */\n      tag_404\n        /* \"#utility.yul\":3230:3237   */\n      dup6\n        /* \"#utility.yul\":3221:3227   */\n      dup3\n        /* \"#utility.yul\":3210:3219   */\n      dup7\n        /* \"#utility.yul\":3206:3228   */\n      add\n        /* \"#utility.yul\":3185:3238   */\n      tag_334\n      jump\t// in\n    tag_404:\n        /* \"#utility.yul\":3175:3238   */\n      swap3\n      pop\n        /* \"#utility.yul\":3131:3248   */\n      pop\n        /* \"#utility.yul\":3287:3289   */\n      0x20\n        /* \"#utility.yul\":3313:3366   */\n      tag_405\n        /* \"#utility.yul\":3358:3365   */\n      dup6\n        /* \"#utility.yul\":3349:3355   */\n      dup3\n        /* \"#utility.yul\":3338:3347   */\n      dup7\n        /* \"#utility.yul\":3334:3356   */\n      add\n        /* \"#utility.yul\":3313:3366   */\n      tag_336\n      jump\t// in\n    tag_405:\n        /* \"#utility.yul\":3303:3366   */\n      swap2\n      pop\n        /* \"#utility.yul\":3258:3376   */\n      pop\n        /* \"#utility.yul\":2909:3383   */\n      swap3\n      pop\n      swap3\n      swap1\n      pop\n      jump\t// out\n        /* \"#utility.yul\":3389:3863   */\n    tag_86:\n        /* \"#utility.yul\":3457:3463   */\n      0x00\n        /* \"#utility.yul\":3465:3471   */\n      dup1\n        /* \"#utility.yul\":3514:3516   */\n      0x40\n        /* \"#utility.yul\":3502:3511   */\n      dup4\n        /* \"#utility.yul\":3493:3500   */\n      dup6\n        /* \"#utility.yul\":3489:3512   */\n      sub\n        /* \"#utility.yul\":3485:3517   */\n      slt\n        /* \"#utility.yul\":3482:3601   */\n      iszero\n      tag_407\n      jumpi\n        /* \"#utility.yul\":3520:3599   */\n      tag_408\n      tag_329\n      jump\t// in\n    tag_408:\n        /* \"#utility.yul\":3482:3601   */\n    tag_407:\n        /* \"#utility.yul\":3640:3641   */\n      0x00\n        /* \"#utility.yul\":3665:3718   */\n      tag_409\n        /* \"#utility.yul\":3710:3717   */\n      dup6\n        /* \"#utility.yul\":3701:3707   */\n      dup3\n        /* \"#utility.yul\":3690:3699   */\n      dup7\n        /* \"#utility.yul\":3686:3708   */\n      add\n        /* \"#utility.yul\":3665:3718   */\n      tag_336\n      jump\t// in\n    tag_409:\n        /* \"#utility.yul\":3655:3718   */\n      swap3\n      pop\n        /* \"#utility.yul\":3611:3728   */\n      pop\n        /* \"#utility.yul\":3767:3769   */\n      0x20\n        /* \"#utility.yul\":3793:3846   */\n      tag_410\n        /* \"#utility.yul\":3838:3845   */\n      dup6\n        /* \"#utility.yul\":3829:3835   */\n      dup3\n        /* \"#utility.yul\":3818:3827   */\n      dup7\n        /* \"#utility.yul\":3814:3836   */\n      add\n        /* \"#utility.yul\":3793:3846   */\n      tag_336\n      jump\t// in\n    tag_410:\n        /* \"#utility.yul\":3783:3846   */\n      swap2\n      pop\n        /* \"#utility.yul\":3738:3856   */\n      pop\n        /* \"#utility.yul\":3389:3863   */\n      swap3\n      pop\n      swap3\n      swap1\n      pop\n      jump\t// out\n        /* \"#utility.yul\":3869:4049   */\n    tag_338:\n        /* \"#utility.yul\":3917:3994   */\n      0x4e487b7100000000000000000000000000000000000000000000000000000000\n        /* \"#utility.yul\":3914:3915   */\n      0x00\n        /* \"#utility.yul\":3907:3995   */\n      mstore\n        /* \"#utility.yul\":4014:4018   */\n      0x11\n        /* \"#utility.yul\":4011:4012   */\n      0x04\n        /* \"#utility.yul\":4004:4019   */\n      mstore\n        /* \"#utility.yul\":4038:4042   */\n      0x24\n        /* \"#utility.yul\":4035:4036   */\n      0x00\n        /* \"#utility.yul\":4028:4043   */\n      revert\n        /* \"#utility.yul\":4055:4403   */\n    tag_110:\n        /* \"#utility.yul\":4095:4102   */\n      0x00\n        /* \"#utility.yul\":4118:4138   */\n      tag_413\n        /* \"#utility.yul\":4136:4137   */\n      dup3\n        /* \"#utility.yul\":4118:4138   */\n      tag_326\n      jump\t// in\n    tag_413:\n        /* \"#utility.yul\":4113:4138   */\n      swap2\n      pop\n        /* \"#utility.yul\":4152:4172   */\n      tag_414\n        /* \"#utility.yul\":4170:4171   */\n      dup4\n        /* \"#utility.yul\":4152:4172   */\n      tag_326\n      jump\t// in\n    tag_414:\n        /* \"#utility.yul\":4147:4172   */\n      swap3\n      pop\n        /* \"#utility.yul\":4340:4341   */\n      dup2\n        /* \"#utility.yul\":4272:4338   */\n      0xffffffffffffffffffffffffffffffffffffffffffffffffffffffffffffffff\n        /* \"#utility.yul\":4268:4342   */\n      div\n        /* \"#utility.yul\":4265:4266   */\n      dup4\n        /* \"#utility.yul\":4262:4343   */\n      gt\n        /* \"#utility.yul\":4257:4258   */\n      dup3\n        /* \"#utility.yul\":4250:4259   */\n      iszero\n        /* \"#utility.yul\":4243:4260   */\n      iszero\n        /* \"#utility.yul\":4239:4344   */\n      and\n        /* \"#utility.yul\":4236:4367   */\n      iszero\n      tag_415\n      jumpi\n        /* \"#utility.yul\":4347:4365   */\n      tag_416\n      tag_338\n      jump\t// in\n    tag_416:\n        /* \"#utility.yul\":4236:4367   */\n    tag_415:\n        /* \"#utility.yul\":4395:4396   */\n      dup3\n        /* \"#utility.yul\":4392:4393   */\n      dup3\n        /* \"#utility.yul\":4388:4397   */\n      mul\n        /* \"#utility.yul\":4377:4397   */\n      swap1\n      pop\n        /* \"#utility.yul\":4055:4403   */\n      swap3\n      swap2\n      pop\n      pop\n      jump\t// out\n        /* \"#utility.yul\":4409:4589   */\n    tag_339:\n        /* \"#utility.yul\":4457:4534   */\n      0x4e487b7100000000000000000000000000000000000000000000000000000000\n        /* \"#utility.yul\":4454:4455   */\n      0x00\n        /* \"#utility.yul\":4447:4535   */\n      mstore\n        /* \"#utility.yul\":4554:4558   */\n      0x12\n        /* \"#utility.yul\":4551:4552   */\n      0x04\n        /* \"#utility.yul\":4544:4559   */\n      mstore\n        /* \"#utility.yul\":4578:4582   */\n      0x24\n        /* \"#utility.yul\":4575:4576   */\n      0x00\n        /* \"#utility.yul\":4568:4583   */\n      revert\n        /* \"#utility.yul\":4595:4780   */\n    tag_112:\n        /* \"#utility.yul\":4635:4636   */\n      0x00\n        /* \"#utility.yul\":4652:4672   */\n      tag_419\n        /* \"#utility.yul\":4670:4671   */\n      dup3\n        /* \"#utility.yul\":4652:4672   */\n      tag_326\n      jump\t// in\n    tag_419:\n        /* \"#utility.yul\":4647:4672   */\n      swap2\n      pop\n        /* \"#utility.yul\":4686:4706   */\n      tag_420\n        /* \"#utility.yul\":4704:4705   */\n      dup4\n        /* \"#utility.yul\":4686:4706   */\n      tag_326\n      jump\t// in\n    tag_420:\n        /* \"#utility.yul\":4681:4706   */\n      swap3\n      pop\n        /* \"#utility.yul\":4725:4726   */\n      dup3\n        /* \"#utility.yul\":4715:4750   */\n      tag_421\n      jumpi\n        /* \"#utility.yul\":4730:4748   */\n      tag_422\n      tag_339\n      jump\t// in\n    tag_422:\n        /* \"#utility.yul\":4715:4750   */\n    tag_421:\n        /* \"#utility.yul\":4772:4773   */\n      dup3\n        /* \"#utility.yul\":4769:4770   */\n      dup3\n        /* \"#utility.yul\":4765:4774   */\n      div\n        /* \"#utility.yul\":4760:4774   */\n      swap1\n      pop\n        /* \"#utility.yul\":4595:4780   */\n      swap3\n      swap2\n      pop\n      pop\n      jump\t// out\n        /* \"#utility.yul\":4786:4929   */\n    tag_340:\n        /* \"#utility.yul\":4843:4848   */\n      0x00\n        /* \"#utility.yul\":4874:4880   */\n      dup2\n        /* \"#utility.yul\":4868:4881   */\n      mload\n        /* \"#utility.yul\":4859:4881   */\n      swap1\n      pop\n        /* \"#utility.yul\":4890:4923   */\n      tag_424\n        /* \"#utility.yul\":4917:4922   */\n      dup2\n        /* \"#utility.yul\":4890:4923   */\n      tag_335\n      jump\t// in\n    tag_424:\n        /* \"#utility.yul\":4786:4929   */\n      swap3\n      swap2\n      pop\n      pop\n      jump\t// out\n        /* \"#utility.yul\":4935:5286   */\n    tag_117:\n        /* \"#utility.yul\":5005:5011   */\n      0x00\n        /* \"#utility.yul\":5054:5056   */\n      0x20\n        /* \"#utility.yul\":5042:5051   */\n      dup3\n        /* \"#utility.yul\":5033:5040   */\n      dup5\n        /* \"#utility.yul\":5029:5052   */\n      sub\n        /* \"#utility.yul\":5025:5057   */\n      slt\n        /* \"#utility.yul\":5022:5141   */\n      iszero\n      tag_426\n      jumpi\n        /* \"#utility.yul\":5060:5139   */\n      tag_427\n      tag_329\n      jump\t// in\n    tag_427:\n        /* \"#utility.yul\":5022:5141   */\n    tag_426:\n        /* \"#utility.yul\":5180:5181   */\n      0x00\n        /* \"#utility.yul\":5205:5269   */\n      tag_428\n        /* \"#utility.yul\":5261:5268   */\n      dup5\n        /* \"#utility.yul\":5252:5258   */\n      dup3\n        /* \"#utility.yul\":5241:5250   */\n      dup6\n        /* \"#utility.yul\":5237:5259   */\n      add\n        /* \"#utility.yul\":5205:5269   */\n      tag_340\n      jump\t// in\n    tag_428:\n        /* \"#utility.yul\":5195:5269   */\n      swap2\n      pop\n        /* \"#utility.yul\":5151:5279   */\n      pop\n        /* \"#utility.yul\":4935:5286   */\n      swap3\n      swap2\n      pop\n      pop\n      jump\t// out\n        /* \"#utility.yul\":5292:5435   */\n    tag_341:\n        /* \"#utility.yul\":5349:5354   */\n      0x00\n        /* \"#utility.yul\":5380:5386   */\n      dup2\n        /* \"#utility.yul\":5374:5387   */\n      mload\n        /* \"#utility.yul\":5365:5387   */\n      swap1\n      pop\n        /* \"#utility.yul\":5396:5429   */\n      tag_430\n        /* \"#utility.yul\":5423:5428   */\n      dup2\n        /* \"#utility.yul\":5396:5429   */\n      tag_333\n      jump\t// in\n    tag_430:\n        /* \"#utility.yul\":5292:5435   */\n      swap3\n      swap2\n      pop\n      pop\n      jump\t// out\n        /* \"#utility.yul\":5441:5792   */\n    tag_122:\n        /* \"#utility.yul\":5511:5517   */\n      0x00\n        /* \"#utility.yul\":5560:5562   */\n      0x20\n        /* \"#utility.yul\":5548:5557   */\n      dup3\n        /* \"#utility.yul\":5539:5546   */\n      dup5\n        /* \"#utility.yul\":5535:5558   */\n      sub\n        /* \"#utility.yul\":5531:5563   */\n      slt\n        /* \"#utility.yul\":5528:5647   */\n      iszero\n      tag_432\n      jumpi\n        /* \"#utility.yul\":5566:5645   */\n      tag_433\n      tag_329\n      jump\t// in\n    tag_433:\n        /* \"#utility.yul\":5528:5647   */\n    tag_432:\n        /* \"#utility.yul\":5686:5687   */\n      0x00\n        /* \"#utility.yul\":5711:5775   */\n      tag_434\n        /* \"#utility.yul\":5767:5774   */\n      dup5\n        /* \"#utility.yul\":5758:5764   */\n      dup3\n        /* \"#utility.yul\":5747:5756   */\n      dup6\n        /* \"#utility.yul\":5743:5765   */\n      add\n        /* \"#utility.yul\":5711:5775   */\n      tag_341\n      jump\t// in\n    tag_434:\n        /* \"#utility.yul\":5701:5775   */\n      swap2\n      pop\n        /* \"#utility.yul\":5657:5785   */\n      pop\n        /* \"#utility.yul\":5441:5792   */\n      swap3\n      swap2\n      pop\n      pop\n      jump\t// out\n        /* \"#utility.yul\":5798:6130   */\n    tag_137:\n        /* \"#utility.yul\":5919:5923   */\n      0x00\n        /* \"#utility.yul\":5957:5959   */\n      0x40\n        /* \"#utility.yul\":5946:5955   */\n      dup3\n        /* \"#utility.yul\":5942:5960   */\n      add\n        /* \"#utility.yul\":5934:5960   */\n      swap1\n      pop\n        /* \"#utility.yul\":5970:6041   */\n      tag_436\n        /* \"#utility.yul\":6038:6039   */\n      0x00\n        /* \"#utility.yul\":6027:6036   */\n      dup4\n        /* \"#utility.yul\":6023:6040   */\n      add\n        /* \"#utility.yul\":6014:6020   */\n      dup6\n        /* \"#utility.yul\":5970:6041   */\n      tag_327\n      jump\t// in\n    tag_436:\n        /* \"#utility.yul\":6051:6123   */\n      tag_437\n        /* \"#utility.yul\":6119:6121   */\n      0x20\n        /* \"#utility.yul\":6108:6117   */\n      dup4\n        /* \"#utility.yul\":6104:6122   */\n      add\n        /* \"#utility.yul\":6095:6101   */\n      dup5\n        /* \"#utility.yul\":6051:6123   */\n      tag_337\n      jump\t// in\n    tag_437:\n        /* \"#utility.yul\":5798:6130   */\n      swap4\n      swap3\n      pop\n      pop\n      pop\n      jump\t// out\n        /* \"#utility.yul\":6136:6441   */\n    tag_149:\n        /* \"#utility.yul\":6176:6179   */\n      0x00\n        /* \"#utility.yul\":6195:6215   */\n      tag_439\n        /* \"#utility.yul\":6213:6214   */\n      dup3\n        /* \"#utility.yul\":6195:6215   */\n      tag_326\n      jump\t// in\n    tag_439:\n        /* \"#utility.yul\":6190:6215   */\n      swap2\n      pop\n        /* \"#utility.yul\":6229:6249   */\n      tag_440\n        /* \"#utility.yul\":6247:6248   */\n      dup4\n        /* \"#utility.yul\":6229:6249   */\n      tag_326\n      jump\t// in\n    tag_440:\n        /* \"#utility.yul\":6224:6249   */\n      swap3\n      pop\n        /* \"#utility.yul\":6383:6384   */\n      dup3\n        /* \"#utility.yul\":6315:6381   */\n      0xffffffffffffffffffffffffffffffffffffffffffffffffffffffffffffffff\n        /* \"#utility.yul\":6311:6385   */\n      sub\n        /* \"#utility.yul\":6308:6309   */\n      dup3\n        /* \"#utility.yul\":6305:6386   */\n      gt\n        /* \"#utility.yul\":6302:6409   */\n      iszero\n      tag_441\n      jumpi\n        /* \"#utility.yul\":6389:6407   */\n      tag_442\n      tag_338\n      jump\t// in\n    tag_442:\n        /* \"#utility.yul\":6302:6409   */\n    tag_441:\n        /* \"#utility.yul\":6433:6434   */\n      dup3\n        /* \"#utility.yul\":6430:6431   */\n      dup3\n        /* \"#utility.yul\":6426:6435   */\n      add\n        /* \"#utility.yul\":6419:6435   */\n      swap1\n      pop\n        /* \"#utility.yul\":6136:6441   */\n      swap3\n      swap2\n      pop\n      pop\n      jump\t// out\n        /* \"#utility.yul\":6447:6616   */\n    tag_342:\n        /* \"#utility.yul\":6531:6542   */\n      0x00\n        /* \"#utility.yul\":6565:6571   */\n      dup3\n        /* \"#utility.yul\":6560:6563   */\n      dup3\n        /* \"#utility.yul\":6553:6572   */\n      mstore\n        /* \"#utility.yul\":6605:6609   */\n      0x20\n        /* \"#utility.yul\":6600:6603   */\n      dup3\n        /* \"#utility.yul\":6596:6610   */\n      add\n        /* \"#utility.yul\":6581:6610   */\n      swap1\n      pop\n        /* \"#utility.yul\":6447:6616   */\n      swap3\n      swap2\n      pop\n      pop\n      jump\t// out\n        /* \"#utility.yul\":6622:6782   */\n    tag_343:\n        /* \"#utility.yul\":6762:6774   */\n      0x6f6e6c7920626f6f737400000000000000000000000000000000000000000000\n        /* \"#utility.yul\":6758:6759   */\n      0x00\n        /* \"#utility.yul\":6750:6756   */\n      dup3\n        /* \"#utility.yul\":6746:6760   */\n      add\n        /* \"#utility.yul\":6739:6775   */\n      mstore\n        /* \"#utility.yul\":6622:6782   */\n      pop\n      jump\t// out\n        /* \"#utility.yul\":6788:7154   */\n    tag_344:\n        /* \"#utility.yul\":6930:6933   */\n      0x00\n        /* \"#utility.yul\":6951:7018   */\n      tag_446\n        /* \"#utility.yul\":7015:7017   */\n      0x0a\n        /* \"#utility.yul\":7010:7013   */\n      dup4\n        /* \"#utility.yul\":6951:7018   */\n      tag_342\n      jump\t// in\n    tag_446:\n        /* \"#utility.yul\":6944:7018   */\n      swap2\n      pop\n        /* \"#utility.yul\":7027:7120   */\n      tag_447\n        /* \"#utility.yul\":7116:7119   */\n      dup3\n        /* \"#utility.yul\":7027:7120   */\n      tag_343\n      jump\t// in\n    tag_447:\n        /* \"#utility.yul\":7145:7147   */\n      0x20\n        /* \"#utility.yul\":7140:7143   */\n      dup3\n        /* \"#utility.yul\":7136:7148   */\n      add\n        /* \"#utility.yul\":7129:7148   */\n      swap1\n      pop\n        /* \"#utility.yul\":6788:7154   */\n      swap2\n      swap1\n      pop\n      jump\t// out\n        /* \"#utility.yul\":7160:7579   */\n    tag_154:\n        /* \"#utility.yul\":7326:7330   */\n      0x00\n        /* \"#utility.yul\":7364:7366   */\n      0x20\n        /* \"#utility.yul\":7353:7362   */\n      dup3\n        /* \"#utility.yul\":7349:7367   */\n      add\n        /* \"#utility.yul\":7341:7367   */\n      swap1\n      pop\n        /* \"#utility.yul\":7413:7422   */\n      dup2\n        /* \"#utility.yul\":7407:7411   */\n      dup2\n        /* \"#utility.yul\":7403:7423   */\n      sub\n        /* \"#utility.yul\":7399:7400   */\n      0x00\n        /* \"#utility.yul\":7388:7397   */\n      dup4\n        /* \"#utility.yul\":7384:7401   */\n      add\n        /* \"#utility.yul\":7377:7424   */\n      mstore\n        /* \"#utility.yul\":7441:7572   */\n      tag_449\n        /* \"#utility.yul\":7567:7571   */\n      dup2\n        /* \"#utility.yul\":7441:7572   */\n      tag_344\n      jump\t// in\n    tag_449:\n        /* \"#utility.yul\":7433:7572   */\n      swap1\n      pop\n        /* \"#utility.yul\":7160:7579   */\n      swap2\n      swap1\n      pop\n      jump\t// out\n        /* \"#utility.yul\":7585:7743   */\n    tag_345:\n        /* \"#utility.yul\":7725:7735   */\n      0x6e6f207374616b65000000000000000000000000000000000000000000000000\n        /* \"#utility.yul\":7721:7722   */\n      0x00\n        /* \"#utility.yul\":7713:7719   */\n      dup3\n        /* \"#utility.yul\":7709:7723   */\n      add\n        /* \"#utility.yul\":7702:7736   */\n      mstore\n        /* \"#utility.yul\":7585:7743   */\n      pop\n      jump\t// out\n        /* \"#utility.yul\":7749:8114   */\n    tag_346:\n        /* \"#utility.yul\":7891:7894   */\n      0x00\n        /* \"#utility.yul\":7912:7978   */\n      tag_452\n        /* \"#utility.yul\":7976:7977   */\n      0x08\n        /* \"#utility.yul\":7971:7974   */\n      dup4\n        /* \"#utility.yul\":7912:7978   */\n      tag_342\n      jump\t// in\n    tag_452:\n        /* \"#utility.yul\":7905:7978   */\n      swap2\n      pop\n        /* \"#utility.yul\":7987:8080   */\n      tag_453\n        /* \"#utility.yul\":8076:8079   */\n      dup3\n        /* \"#utility.yul\":7987:8080   */\n      tag_345\n      jump\t// in\n    tag_453:\n        /* \"#utility.yul\":8105:8107   */\n      0x20\n        /* \"#utility.yul\":8100:8103   */\n      dup3\n        /* \"#utility.yul\":8096:8108   */\n      add\n        /* \"#utility.yul\":8089:8108   */\n      swap1\n      pop\n        /* \"#utility.yul\":7749:8114   */\n      swap2\n      swap1\n      pop\n      jump\t// out\n        /* \"#utility.yul\":8120:8539   */\n    tag_158:\n        /* \"#utility.yul\":8286:8290   */\n      0x00\n        /* \"#utility.yul\":8324:8326   */\n      0x20\n        /* \"#utility.yul\":8313:8322   */\n      dup3\n        /* \"#utility.yul\":8309:8327   */\n      add\n        /* \"#utility.yul\":8301:8327   */\n      swap1\n      pop\n        /* \"#utility.yul\":8373:8382   */\n      dup2\n        /* \"#utility.yul\":8367:8371   */\n      dup2\n        /* \"#utility.yul\":8363:8383   */\n      sub\n        /* \"#utility.yul\":8359:8360   */\n      0x00\n        /* \"#utility.yul\":8348:8357   */\n      dup4\n        /* \"#utility.yul\":8344:8361   */\n      add\n        /* \"#utility.yul\":8337:8384   */\n      mstore\n        /* \"#utility.yul\":8401:8532   */\n      tag_455\n        /* \"#utility.yul\":8527:8531   */\n      dup2\n        /* \"#utility.yul\":8401:8532   */\n      tag_346\n      jump\t// in\n    tag_455:\n        /* \"#utility.yul\":8393:8532   */\n      swap1\n      pop\n        /* \"#utility.yul\":8120:8539   */\n      swap2\n      swap1\n      pop\n      jump\t// out\n        /* \"#utility.yul\":8545:8726   */\n    tag_347:\n        /* \"#utility.yul\":8685:8718   */\n      0x5265656e7472616e637947756172643a207265656e7472616e742063616c6c00\n        /* \"#utility.yul\":8681:8682   */\n      0x00\n        /* \"#utility.yul\":8673:8679   */\n      dup3\n        /* \"#utility.yul\":8669:8683   */\n      add\n        /* \"#utility.yul\":8662:8719   */\n      mstore\n        /* \"#utility.yul\":8545:8726   */\n      pop\n      jump\t// out\n        /* \"#utility.yul\":8732:9098   */\n    tag_348:\n        /* \"#utility.yul\":8874:8877   */\n      0x00\n        /* \"#utility.yul\":8895:8962   */\n      tag_458\n        /* \"#utility.yul\":8959:8961   */\n      0x1f\n        /* \"#utility.yul\":8954:8957   */\n      dup4\n        /* \"#utility.yul\":8895:8962   */\n      tag_342\n      jump\t// in\n    tag_458:\n        /* \"#utility.yul\":8888:8962   */\n      swap2\n      pop\n        /* \"#utility.yul\":8971:9064   */\n      tag_459\n        /* \"#utility.yul\":9060:9063   */\n      dup3\n        /* \"#utility.yul\":8971:9064   */\n      tag_347\n      jump\t// in\n    tag_459:\n        /* \"#utility.yul\":9089:9091   */\n      0x20\n        /* \"#utility.yul\":9084:9087   */\n      dup3\n        /* \"#utility.yul\":9080:9092   */\n      add\n        /* \"#utility.yul\":9073:9092   */\n      swap1\n      pop\n        /* \"#utility.yul\":8732:9098   */\n      swap2\n      swap1\n      pop\n      jump\t// out\n        /* \"#utility.yul\":9104:9523   */\n    tag_172:\n        /* \"#utility.yul\":9270:9274   */\n      0x00\n        /* \"#utility.yul\":9308:9310   */\n      0x20\n        /* \"#utility.yul\":9297:9306   */\n      dup3\n        /* \"#utility.yul\":9293:9311   */\n      add\n        /* \"#utility.yul\":9285:9311   */\n      swap1\n      pop\n        /* \"#utility.yul\":9357:9366   */\n      dup2\n        /* \"#utility.yul\":9351:9355   */\n      dup2\n        /* \"#utility.yul\":9347:9367   */\n      sub\n        /* \"#utility.yul\":9343:9344   */\n      0x00\n        /* \"#utility.yul\":9332:9341   */\n      dup4\n        /* \"#utility.yul\":9328:9345   */\n      add\n        /* \"#utility.yul\":9321:9368   */\n      mstore\n        /* \"#utility.yul\":9385:9516   */\n      tag_461\n        /* \"#utility.yul\":9511:9515   */\n      dup2\n        /* \"#utility.yul\":9385:9516   */\n      tag_348\n      jump\t// in\n    tag_461:\n        /* \"#utility.yul\":9377:9516   */\n      swap1\n      pop\n        /* \"#utility.yul\":9104:9523   */\n      swap2\n      swap1\n      pop\n      jump\t// out\n        /* \"#utility.yul\":9529:9690   */\n    tag_349:\n        /* \"#utility.yul\":9669:9682   */\n      0x616d6f756e742069732030000000000000000000000000000000000000000000\n        /* \"#utility.yul\":9665:9666   */\n      0x00\n        /* \"#utility.yul\":9657:9663   */\n      dup3\n        /* \"#utility.yul\":9653:9667   */\n      add\n        /* \"#utility.yul\":9646:9683   */\n      mstore\n        /* \"#utility.yul\":9529:9690   */\n      pop\n      jump\t// out\n        /* \"#utility.yul\":9696:10062   */\n    tag_350:\n        /* \"#utility.yul\":9838:9841   */\n      0x00\n        /* \"#utility.yul\":9859:9926   */\n      tag_464\n        /* \"#utility.yul\":9923:9925   */\n      0x0b\n        /* \"#utility.yul\":9918:9921   */\n      dup4\n        /* \"#utility.yul\":9859:9926   */\n      tag_342\n      jump\t// in\n    tag_464:\n        /* \"#utility.yul\":9852:9926   */\n      swap2\n      pop\n        /* \"#utility.yul\":9935:10028   */\n      tag_465\n        /* \"#utility.yul\":10024:10027   */\n      dup3\n        /* \"#utility.yul\":9935:10028   */\n      tag_349\n      jump\t// in\n    tag_465:\n        /* \"#utility.yul\":10053:10055   */\n      0x20\n        /* \"#utility.yul\":10048:10051   */\n      dup3\n        /* \"#utility.yul\":10044:10056   */\n      add\n        /* \"#utility.yul\":10037:10056   */\n      swap1\n      pop\n        /* \"#utility.yul\":9696:10062   */\n      swap2\n      swap1\n      pop\n      jump\t// out\n        /* \"#utility.yul\":10068:10487   */\n    tag_215:\n        /* \"#utility.yul\":10234:10238   */\n      0x00\n        /* \"#utility.yul\":10272:10274   */\n      0x20\n        /* \"#utility.yul\":10261:10270   */\n      dup3\n        /* \"#utility.yul\":10257:10275   */\n      add\n        /* \"#utility.yul\":10249:10275   */\n      swap1\n      pop\n        /* \"#utility.yul\":10321:10330   */\n      dup2\n        /* \"#utility.yul\":10315:10319   */\n      dup2\n        /* \"#utility.yul\":10311:10331   */\n      sub\n        /* \"#utility.yul\":10307:10308   */\n      0x00\n        /* \"#utility.yul\":10296:10305   */\n      dup4\n        /* \"#utility.yul\":10292:10309   */\n      add\n        /* \"#utility.yul\":10285:10332   */\n      mstore\n        /* \"#utility.yul\":10349:10480   */\n      tag_467\n        /* \"#utility.yul\":10475:10479   */\n      dup2\n        /* \"#utility.yul\":10349:10480   */\n      tag_350\n      jump\t// in\n    tag_467:\n        /* \"#utility.yul\":10341:10480   */\n      swap1\n      pop\n        /* \"#utility.yul\":10068:10487   */\n      swap2\n      swap1\n      pop\n      jump\t// out\n        /* \"#utility.yul\":10493:10665   */\n    tag_351:\n        /* \"#utility.yul\":10633:10657   */\n      0x7769746864726177537761703a206e6f7420676f6f6400000000000000000000\n        /* \"#utility.yul\":10629:10630   */\n      0x00\n        /* \"#utility.yul\":10621:10627   */\n      dup3\n        /* \"#utility.yul\":10617:10631   */\n      add\n        /* \"#utility.yul\":10610:10658   */\n      mstore\n        /* \"#utility.yul\":10493:10665   */\n      pop\n      jump\t// out\n        /* \"#utility.yul\":10671:11037   */\n    tag_352:\n        /* \"#utility.yul\":10813:10816   */\n      0x00\n        /* \"#utility.yul\":10834:10901   */\n      tag_470\n        /* \"#utility.yul\":10898:10900   */\n      0x16\n        /* \"#utility.yul\":10893:10896   */\n      dup4\n        /* \"#utility.yul\":10834:10901   */\n      tag_342\n      jump\t// in\n    tag_470:\n        /* \"#utility.yul\":10827:10901   */\n      swap2\n      pop\n        /* \"#utility.yul\":10910:11003   */\n      tag_471\n        /* \"#utility.yul\":10999:11002   */\n      dup3\n        /* \"#utility.yul\":10910:11003   */\n      tag_351\n      jump\t// in\n    tag_471:\n        /* \"#utility.yul\":11028:11030   */\n      0x20\n        /* \"#utility.yul\":11023:11026   */\n      dup3\n        /* \"#utility.yul\":11019:11031   */\n      add\n        /* \"#utility.yul\":11012:11031   */\n      swap1\n      pop\n        /* \"#utility.yul\":10671:11037   */\n      swap2\n      swap1\n      pop\n      jump\t// out\n        /* \"#utility.yul\":11043:11462   */\n    tag_253:\n        /* \"#utility.yul\":11209:11213   */\n      0x00\n        /* \"#utility.yul\":11247:11249   */\n      0x20\n        /* \"#utility.yul\":11236:11245   */\n      dup3\n        /* \"#utility.yul\":11232:11250   */\n      add\n        /* \"#utility.yul\":11224:11250   */\n      swap1\n      pop\n        /* \"#utility.yul\":11296:11305   */\n      dup2\n        /* \"#utility.yul\":11290:11294   */\n      dup2\n        /* \"#utility.yul\":11286:11306   */\n      sub\n        /* \"#utility.yul\":11282:11283   */\n      0x00\n        /* \"#utility.yul\":11271:11280   */\n      dup4\n        /* \"#utility.yul\":11267:11284   */\n      add\n        /* \"#utility.yul\":11260:11307   */\n      mstore\n        /* \"#utility.yul\":11324:11455   */\n      tag_473\n        /* \"#utility.yul\":11450:11454   */\n      dup2\n        /* \"#utility.yul\":11324:11455   */\n      tag_352\n      jump\t// in\n    tag_473:\n        /* \"#utility.yul\":11316:11455   */\n      swap1\n      pop\n        /* \"#utility.yul\":11043:11462   */\n      swap2\n      swap1\n      pop\n      jump\t// out\n        /* \"#utility.yul\":11468:11659   */\n    tag_278:\n        /* \"#utility.yul\":11508:11512   */\n      0x00\n        /* \"#utility.yul\":11528:11548   */\n      tag_475\n        /* \"#utility.yul\":11546:11547   */\n      dup3\n        /* \"#utility.yul\":11528:11548   */\n      tag_326\n      jump\t// in\n    tag_475:\n        /* \"#utility.yul\":11523:11548   */\n      swap2\n      pop\n        /* \"#utility.yul\":11562:11582   */\n      tag_476\n        /* \"#utility.yul\":11580:11581   */\n      dup4\n        /* \"#utility.yul\":11562:11582   */\n      tag_326\n      jump\t// in\n    tag_476:\n        /* \"#utility.yul\":11557:11582   */\n      swap3\n      pop\n        /* \"#utility.yul\":11601:11602   */\n      dup3\n        /* \"#utility.yul\":11598:11599   */\n      dup3\n        /* \"#utility.yul\":11595:11603   */\n      lt\n        /* \"#utility.yul\":11592:11626   */\n      iszero\n      tag_477\n      jumpi\n        /* \"#utility.yul\":11606:11624   */\n      tag_478\n      tag_338\n      jump\t// in\n    tag_478:\n        /* \"#utility.yul\":11592:11626   */\n    tag_477:\n        /* \"#utility.yul\":11651:11652   */\n      dup3\n        /* \"#utility.yul\":11648:11649   */\n      dup3\n        /* \"#utility.yul\":11644:11653   */\n      sub\n        /* \"#utility.yul\":11636:11653   */\n      swap1\n      pop\n        /* \"#utility.yul\":11468:11659   */\n      swap3\n      swap2\n      pop\n      pop\n      jump\t// out\n        /* \"#utility.yul\":11665:12107   */\n    tag_293:\n        /* \"#utility.yul\":11814:11818   */\n      0x00\n        /* \"#utility.yul\":11852:11854   */\n      0x60\n        /* \"#utility.yul\":11841:11850   */\n      dup3\n        /* \"#utility.yul\":11837:11855   */\n      add\n        /* \"#utility.yul\":11829:11855   */\n      swap1\n      pop\n        /* \"#utility.yul\":11865:11936   */\n      tag_480\n        /* \"#utility.yul\":11933:11934   */\n      0x00\n        /* \"#utility.yul\":11922:11931   */\n      dup4\n        /* \"#utility.yul\":11918:11935   */\n      add\n        /* \"#utility.yul\":11909:11915   */\n      dup7\n        /* \"#utility.yul\":11865:11936   */\n      tag_337\n      jump\t// in\n    tag_480:\n        /* \"#utility.yul\":11946:12018   */\n      tag_481\n        /* \"#utility.yul\":12014:12016   */\n      0x20\n        /* \"#utility.yul\":12003:12012   */\n      dup4\n        /* \"#utility.yul\":11999:12017   */\n      add\n        /* \"#utility.yul\":11990:11996   */\n      dup6\n        /* \"#utility.yul\":11946:12018   */\n      tag_337\n      jump\t// in\n    tag_481:\n        /* \"#utility.yul\":12028:12100   */\n      tag_482\n        /* \"#utility.yul\":12096:12098   */\n      0x40\n        /* \"#utility.yul\":12085:12094   */\n      dup4\n        /* \"#utility.yul\":12081:12099   */\n      add\n        /* \"#utility.yul\":12072:12078   */\n      dup5\n        /* \"#utility.yul\":12028:12100   */\n      tag_327\n      jump\t// in\n    tag_482:\n        /* \"#utility.yul\":11665:12107   */\n      swap5\n      swap4\n      pop\n      pop\n      pop\n      pop\n      jump\t// out\n        /* \"#utility.yul\":12113:12211   */\n    tag_353:\n        /* \"#utility.yul\":12164:12170   */\n      0x00\n        /* \"#utility.yul\":12198:12203   */\n      dup2\n        /* \"#utility.yul\":12192:12204   */\n      mload\n        /* \"#utility.yul\":12182:12204   */\n      swap1\n      pop\n        /* \"#utility.yul\":12113:12211   */\n      swap2\n      swap1\n      pop\n      jump\t// out\n        /* \"#utility.yul\":12217:12364   */\n    tag_354:\n        /* \"#utility.yul\":12318:12329   */\n      0x00\n        /* \"#utility.yul\":12355:12358   */\n      dup2\n        /* \"#utility.yul\":12340:12358   */\n      swap1\n      pop\n        /* \"#utility.yul\":12217:12364   */\n      swap3\n      swap2\n      pop\n      pop\n      jump\t// out\n        /* \"#utility.yul\":12370:12677   */\n    tag_355:\n        /* \"#utility.yul\":12438:12439   */\n      0x00\n        /* \"#utility.yul\":12448:12561   */\n    tag_486:\n        /* \"#utility.yul\":12462:12468   */\n      dup4\n        /* \"#utility.yul\":12459:12460   */\n      dup2\n        /* \"#utility.yul\":12456:12469   */\n      lt\n        /* \"#utility.yul\":12448:12561   */\n      iszero\n      tag_488\n      jumpi\n        /* \"#utility.yul\":12547:12548   */\n      dup1\n        /* \"#utility.yul\":12542:12545   */\n      dup3\n        /* \"#utility.yul\":12538:12549   */\n      add\n        /* \"#utility.yul\":12532:12550   */\n      mload\n        /* \"#utility.yul\":12528:12529   */\n      dup2\n        /* \"#utility.yul\":12523:12526   */\n      dup5\n        /* \"#utility.yul\":12519:12530   */\n      add\n        /* \"#utility.yul\":12512:12551   */\n      mstore\n        /* \"#utility.yul\":12484:12486   */\n      0x20\n        /* \"#utility.yul\":12481:12482   */\n      dup2\n        /* \"#utility.yul\":12477:12487   */\n      add\n        /* \"#utility.yul\":12472:12487   */\n      swap1\n      pop\n        /* \"#utility.yul\":12448:12561   */\n      jump(tag_486)\n    tag_488:\n        /* \"#utility.yul\":12579:12585   */\n      dup4\n        /* \"#utility.yul\":12576:12577   */\n      dup2\n        /* \"#utility.yul\":12573:12586   */\n      gt\n        /* \"#utility.yul\":12570:12671   */\n      iszero\n      tag_489\n      jumpi\n        /* \"#utility.yul\":12659:12660   */\n      0x00\n        /* \"#utility.yul\":12650:12656   */\n      dup5\n        /* \"#utility.yul\":12645:12648   */\n      dup5\n        /* \"#utility.yul\":12641:12657   */\n      add\n        /* \"#utility.yul\":12634:12661   */\n      mstore\n        /* \"#utility.yul\":12570:12671   */\n    tag_489:\n        /* \"#utility.yul\":12419:12677   */\n      pop\n        /* \"#utility.yul\":12370:12677   */\n      pop\n      pop\n      pop\n      jump\t// out\n        /* \"#utility.yul\":12683:13056   */\n    tag_356:\n        /* \"#utility.yul\":12787:12790   */\n      0x00\n        /* \"#utility.yul\":12815:12853   */\n      tag_491\n        /* \"#utility.yul\":12847:12852   */\n      dup3\n        /* \"#utility.yul\":12815:12853   */\n      tag_353\n      jump\t// in\n    tag_491:\n        /* \"#utility.yul\":12869:12957   */\n      tag_492\n        /* \"#utility.yul\":12950:12956   */\n      dup2\n        /* \"#utility.yul\":12945:12948   */\n      dup6\n        /* \"#utility.yul\":12869:12957   */\n      tag_354\n      jump\t// in\n    tag_492:\n        /* \"#utility.yul\":12862:12957   */\n      swap4\n      pop\n        /* \"#utility.yul\":12966:13018   */\n      tag_493\n        /* \"#utility.yul\":13011:13017   */\n      dup2\n        /* \"#utility.yul\":13006:13009   */\n      dup6\n        /* \"#utility.yul\":12999:13003   */\n      0x20\n        /* \"#utility.yul\":12992:12997   */\n      dup7\n        /* \"#utility.yul\":12988:13004   */\n      add\n        /* \"#utility.yul\":12966:13018   */\n      tag_355\n      jump\t// in\n    tag_493:\n        /* \"#utility.yul\":13043:13049   */\n      dup1\n        /* \"#utility.yul\":13038:13041   */\n      dup5\n        /* \"#utility.yul\":13034:13050   */\n      add\n        /* \"#utility.yul\":13027:13050   */\n      swap2\n      pop\n        /* \"#utility.yul\":12791:13056   */\n      pop\n        /* \"#utility.yul\":12683:13056   */\n      swap3\n      swap2\n      pop\n      pop\n      jump\t// out\n        /* \"#utility.yul\":13062:13333   */\n    tag_295:\n        /* \"#utility.yul\":13192:13195   */\n      0x00\n        /* \"#utility.yul\":13214:13307   */\n      tag_495\n        /* \"#utility.yul\":13303:13306   */\n      dup3\n        /* \"#utility.yul\":13294:13300   */\n      dup5\n        /* \"#utility.yul\":13214:13307   */\n      tag_356\n      jump\t// in\n    tag_495:\n        /* \"#utility.yul\":13207:13307   */\n      swap2\n      pop\n        /* \"#utility.yul\":13324:13327   */\n      dup2\n        /* \"#utility.yul\":13317:13327   */\n      swap1\n      pop\n        /* \"#utility.yul\":13062:13333   */\n      swap3\n      swap2\n      pop\n      pop\n      jump\t// out\n        /* \"#utility.yul\":13339:13429   */\n    tag_357:\n        /* \"#utility.yul\":13373:13380   */\n      0x00\n        /* \"#utility.yul\":13416:13421   */\n      dup2\n        /* \"#utility.yul\":13409:13422   */\n      iszero\n        /* \"#utility.yul\":13402:13423   */\n      iszero\n        /* \"#utility.yul\":13391:13423   */\n      swap1\n      pop\n        /* \"#utility.yul\":13339:13429   */\n      swap2\n      swap1\n      pop\n      jump\t// out\n        /* \"#utility.yul\":13435:13551   */\n    tag_358:\n        /* \"#utility.yul\":13505:13526   */\n      tag_498\n        /* \"#utility.yul\":13520:13525   */\n      dup2\n        /* \"#utility.yul\":13505:13526   */\n      tag_357\n      jump\t// in\n    tag_498:\n        /* \"#utility.yul\":13498:13503   */\n      dup2\n        /* \"#utility.yul\":13495:13527   */\n      eq\n        /* \"#utility.yul\":13485:13545   */\n      tag_499\n      jumpi\n        /* \"#utility.yul\":13541:13542   */\n      0x00\n        /* \"#utility.yul\":13538:13539   */\n      dup1\n        /* \"#utility.yul\":13531:13543   */\n      revert\n        /* \"#utility.yul\":13485:13545   */\n    tag_499:\n        /* \"#utility.yul\":13435:13551   */\n      pop\n      jump\t// out\n        /* \"#utility.yul\":13557:13694   */\n    tag_359:\n        /* \"#utility.yul\":13611:13616   */\n      0x00\n        /* \"#utility.yul\":13642:13648   */\n      dup2\n        /* \"#utility.yul\":13636:13649   */\n      mload\n        /* \"#utility.yul\":13627:13649   */\n      swap1\n      pop\n        /* \"#utility.yul\":13658:13688   */\n      tag_501\n        /* \"#utility.yul\":13682:13687   */\n      dup2\n        /* \"#utility.yul\":13658:13688   */\n      tag_358\n      jump\t// in\n    tag_501:\n        /* \"#utility.yul\":13557:13694   */\n      swap3\n      swap2\n      pop\n      pop\n      jump\t// out\n        /* \"#utility.yul\":13700:14045   */\n    tag_302:\n        /* \"#utility.yul\":13767:13773   */\n      0x00\n        /* \"#utility.yul\":13816:13818   */\n      0x20\n        /* \"#utility.yul\":13804:13813   */\n      dup3\n        /* \"#utility.yul\":13795:13802   */\n      dup5\n        /* \"#utility.yul\":13791:13814   */\n      sub\n        /* \"#utility.yul\":13787:13819   */\n      slt\n        /* \"#utility.yul\":13784:13903   */\n      iszero\n      tag_503\n      jumpi\n        /* \"#utility.yul\":13822:13901   */\n      tag_504\n      tag_329\n      jump\t// in\n    tag_504:\n        /* \"#utility.yul\":13784:13903   */\n    tag_503:\n        /* \"#utility.yul\":13942:13943   */\n      0x00\n        /* \"#utility.yul\":13967:14028   */\n      tag_505\n        /* \"#utility.yul\":14020:14027   */\n      dup5\n        /* \"#utility.yul\":14011:14017   */\n      dup3\n        /* \"#utility.yul\":14000:14009   */\n      dup6\n        /* \"#utility.yul\":13996:14018   */\n      add\n        /* \"#utility.yul\":13967:14028   */\n      tag_359\n      jump\t// in\n    tag_505:\n        /* \"#utility.yul\":13957:14028   */\n      swap2\n      pop\n        /* \"#utility.yul\":13913:14038   */\n      pop\n        /* \"#utility.yul\":13700:14045   */\n      swap3\n      swap2\n      pop\n      pop\n      jump\t// out\n        /* \"#utility.yul\":14051:14274   */\n    tag_360:\n        /* \"#utility.yul\":14191:14225   */\n      0x5472616e7366657248656c7065723a205452414e534645525f46524f4d5f4641\n        /* \"#utility.yul\":14187:14188   */\n      0x00\n        /* \"#utility.yul\":14179:14185   */\n      dup3\n        /* \"#utility.yul\":14175:14189   */\n      add\n        /* \"#utility.yul\":14168:14226   */\n      mstore\n        /* \"#utility.yul\":14260:14266   */\n      0x494c454400000000000000000000000000000000000000000000000000000000\n        /* \"#utility.yul\":14255:14257   */\n      0x20\n        /* \"#utility.yul\":14247:14253   */\n      dup3\n        /* \"#utility.yul\":14243:14258   */\n      add\n        /* \"#utility.yul\":14236:14267   */\n      mstore\n        /* \"#utility.yul\":14051:14274   */\n      pop\n      jump\t// out\n        /* \"#utility.yul\":14280:14646   */\n    tag_361:\n        /* \"#utility.yul\":14422:14425   */\n      0x00\n        /* \"#utility.yul\":14443:14510   */\n      tag_508\n        /* \"#utility.yul\":14507:14509   */\n      0x24\n        /* \"#utility.yul\":14502:14505   */\n      dup4\n        /* \"#utility.yul\":14443:14510   */\n      tag_342\n      jump\t// in\n    tag_508:\n        /* \"#utility.yul\":14436:14510   */\n      swap2\n      pop\n        /* \"#utility.yul\":14519:14612   */\n      tag_509\n        /* \"#utility.yul\":14608:14611   */\n      dup3\n        /* \"#utility.yul\":14519:14612   */\n      tag_360\n      jump\t// in\n    tag_509:\n        /* \"#utility.yul\":14637:14639   */\n      0x40\n        /* \"#utility.yul\":14632:14635   */\n      dup3\n        /* \"#utility.yul\":14628:14640   */\n      add\n        /* \"#utility.yul\":14621:14640   */\n      swap1\n      pop\n        /* \"#utility.yul\":14280:14646   */\n      swap2\n      swap1\n      pop\n      jump\t// out\n        /* \"#utility.yul\":14652:15071   */\n    tag_305:\n        /* \"#utility.yul\":14818:14822   */\n      0x00\n        /* \"#utility.yul\":14856:14858   */\n      0x20\n        /* \"#utility.yul\":14845:14854   */\n      dup3\n        /* \"#utility.yul\":14841:14859   */\n      add\n        /* \"#utility.yul\":14833:14859   */\n      swap1\n      pop\n        /* \"#utility.yul\":14905:14914   */\n      dup2\n        /* \"#utility.yul\":14899:14903   */\n      dup2\n        /* \"#utility.yul\":14895:14915   */\n      sub\n        /* \"#utility.yul\":14891:14892   */\n      0x00\n        /* \"#utility.yul\":14880:14889   */\n      dup4\n        /* \"#utility.yul\":14876:14893   */\n      add\n        /* \"#utility.yul\":14869:14916   */\n      mstore\n        /* \"#utility.yul\":14933:15064   */\n      tag_511\n        /* \"#utility.yul\":15059:15063   */\n      dup2\n        /* \"#utility.yul\":14933:15064   */\n      tag_361\n      jump\t// in\n    tag_511:\n        /* \"#utility.yul\":14925:15064   */\n      swap1\n      pop\n        /* \"#utility.yul\":14652:15071   */\n      swap2\n      swap1\n      pop\n      jump\t// out\n        /* \"#utility.yul\":15077:15409   */\n    tag_308:\n        /* \"#utility.yul\":15198:15202   */\n      0x00\n        /* \"#utility.yul\":15236:15238   */\n      0x40\n        /* \"#utility.yul\":15225:15234   */\n      dup3\n        /* \"#utility.yul\":15221:15239   */\n      add\n        /* \"#utility.yul\":15213:15239   */\n      swap1\n      pop\n        /* \"#utility.yul\":15249:15320   */\n      tag_513\n        /* \"#utility.yul\":15317:15318   */\n      0x00\n        /* \"#utility.yul\":15306:15315   */\n      dup4\n        /* \"#utility.yul\":15302:15319   */\n      add\n        /* \"#utility.yul\":15293:15299   */\n      dup6\n        /* \"#utility.yul\":15249:15320   */\n      tag_337\n      jump\t// in\n    tag_513:\n        /* \"#utility.yul\":15330:15402   */\n      tag_514\n        /* \"#utility.yul\":15398:15400   */\n      0x20\n        /* \"#utility.yul\":15387:15396   */\n      dup4\n        /* \"#utility.yul\":15383:15401   */\n      add\n        /* \"#utility.yul\":15374:15380   */\n      dup5\n        /* \"#utility.yul\":15330:15402   */\n      tag_327\n      jump\t// in\n    tag_514:\n        /* \"#utility.yul\":15077:15409   */\n      swap4\n      swap3\n      pop\n      pop\n      pop\n      jump\t// out\n        /* \"#utility.yul\":15415:15596   */\n    tag_362:\n        /* \"#utility.yul\":15555:15588   */\n      0x5472616e7366657248656c7065723a205452414e534645525f4641494c454400\n        /* \"#utility.yul\":15551:15552   */\n      0x00\n        /* \"#utility.yul\":15543:15549   */\n      dup3\n        /* \"#utility.yul\":15539:15553   */\n      add\n        /* \"#utility.yul\":15532:15589   */\n      mstore\n        /* \"#utility.yul\":15415:15596   */\n      pop\n      jump\t// out\n        /* \"#utility.yul\":15602:15968   */\n    tag_363:\n        /* \"#utility.yul\":15744:15747   */\n      0x00\n        /* \"#utility.yul\":15765:15832   */\n      tag_517\n        /* \"#utility.yul\":15829:15831   */\n      0x1f\n        /* \"#utility.yul\":15824:15827   */\n      dup4\n        /* \"#utility.yul\":15765:15832   */\n      tag_342\n      jump\t// in\n    tag_517:\n        /* \"#utility.yul\":15758:15832   */\n      swap2\n      pop\n        /* \"#utility.yul\":15841:15934   */\n      tag_518\n        /* \"#utility.yul\":15930:15933   */\n      dup3\n        /* \"#utility.yul\":15841:15934   */\n      tag_362\n      jump\t// in\n    tag_518:\n        /* \"#utility.yul\":15959:15961   */\n      0x20\n        /* \"#utility.yul\":15954:15957   */\n      dup3\n        /* \"#utility.yul\":15950:15962   */\n      add\n        /* \"#utility.yul\":15943:15962   */\n      swap1\n      pop\n        /* \"#utility.yul\":15602:15968   */\n      swap2\n      swap1\n      pop\n      jump\t// out\n        /* \"#utility.yul\":15974:16393   */\n    tag_318:\n        /* \"#utility.yul\":16140:16144   */\n      0x00\n        /* \"#utility.yul\":16178:16180   */\n      0x20\n        /* \"#utility.yul\":16167:16176   */\n      dup3\n        /* \"#utility.yul\":16163:16181   */\n      add\n        /* \"#utility.yul\":16155:16181   */\n      swap1\n      pop\n        /* \"#utility.yul\":16227:16236   */\n      dup2\n        /* \"#utility.yul\":16221:16225   */\n      dup2\n        /* \"#utility.yul\":16217:16237   */\n      sub\n        /* \"#utility.yul\":16213:16214   */\n      0x00\n        /* \"#utility.yul\":16202:16211   */\n      dup4\n        /* \"#utility.yul\":16198:16215   */\n      add\n        /* \"#utility.yul\":16191:16238   */\n      mstore\n        /* \"#utility.yul\":16255:16386   */\n      tag_520\n        /* \"#utility.yul\":16381:16385   */\n      dup2\n        /* \"#utility.yul\":16255:16386   */\n      tag_363\n      jump\t// in\n    tag_520:\n        /* \"#utility.yul\":16247:16386   */\n      swap1\n      pop\n        /* \"#utility.yul\":15974:16393   */\n      swap2\n      swap1\n      pop\n      jump\t// out\n\n    auxdata: 0xa26469706673582212207db01e68c047ac6fe37a219179d82e39a97fa2d0359f2ba9e506a89a9a8177fa64736f6c634300080a0033\n}\n",
				"bytecode": {
					"linkReferences": {},
					"object": "6101006040523480156200001257600080fd5b506040516200291138038062002911833981810160405281019062000038919062000184565b60016000819055508373ffffffffffffffffffffffffffffffffffffffff1660808173ffffffffffffffffffffffffffffffffffffffff16815250508273ffffffffffffffffffffffffffffffffffffffff1660a08173ffffffffffffffffffffffffffffffffffffffff16815250508173ffffffffffffffffffffffffffffffffffffffff1660c08173ffffffffffffffffffffffffffffffffffffffff16815250508073ffffffffffffffffffffffffffffffffffffffff1660e08173ffffffffffffffffffffffffffffffffffffffff168152505050505050620001f6565b600080fd5b600073ffffffffffffffffffffffffffffffffffffffff82169050919050565b60006200014c826200011f565b9050919050565b6200015e816200013f565b81146200016a57600080fd5b50565b6000815190506200017e8162000153565b92915050565b60008060008060808587031215620001a157620001a06200011a565b5b6000620001b1878288016200016d565b9450506020620001c4878288016200016d565b9350506040620001d7878288016200016d565b9250506060620001ea878288016200016d565b91505092959194509250565b60805160a05160c05160e051612655620002bc60003960008181610d7401528181610d9c015281816112230152818161160301526117380152600081816105c201528181610759015281816108a4015281816109e901528181610a1301528181610cb701528181610e5a0152611d620152600081816104c60152818161067e015281816107f701526112dc0152600081816104a2015281816105fe015281816108e101528181610aa101528181610ef50152818161125a01526117a701526126556000f3fe608060405234801561001057600080fd5b50600436106101375760003560e01c8063a66f42c0116100b8578063c73b399b1161007c578063c73b399b14610319578063e2bbb15814610349578063e3161ddd14610365578063f7c618c11461036f578063fc97a3031461038d578063fdb483c7146103bd57610137565b8063a66f42c014610289578063a9f8d181146102a7578063b66503cf146102c5578063c00007b0146102e1578063c6f678bd146102fd57610137565b80634198709a116100ff5780634198709a146101e35780635eebea2014610201578063853828b614610231578063892f48051461023b5780638f6629151461026b57610137565b806318160ddd1461013c5780631959a0021461015a5780632e1a7d4d1461018b5780633a4b66f1146101a75780633b92eb23146101c5575b600080fd5b6101446103d9565b6040516101519190611da7565b60405180910390f35b610174600480360381019061016f9190611e25565b6103df565b604051610182929190611e52565b60405180910390f35b6101a560048036038101906101a09190611ea7565b610403565b005b6101af6104a0565b6040516101bc9190611ee3565b60405180910390f35b6101cd6104c4565b6040516101da9190611ee3565b60405180910390f35b6101eb6104e8565b6040516101f89190611da7565b60405180910390f35b61021b60048036038101906102169190611e25565b6104ee565b6040516102289190611da7565b60405180910390f35b61023961050e565b005b61025560048036038101906102509190611efe565b61055b565b6040516102629190611da7565b60405180910390f35b6102736109e1565b6040516102809190611da7565b60405180910390f35b6102916109e7565b60405161029e9190611ee3565b60405180910390f35b6102af610a0b565b6040516102bc9190611da7565b60405180910390f35b6102df60048036038101906102da9190611efe565b610a11565b005b6102fb60048036038101906102f69190611e25565b610c32565b005b61031760048036038101906103129190611ea7565b610ef0565b005b610333600480360381019061032e9190611e25565b610f96565b6040516103409190611da7565b60405180910390f35b610363600480360381019061035e9190611f3e565b61111f565b005b61036d611549565b005b610377611601565b6040516103849190611ee3565b60405180910390f35b6103a760048036038101906103a29190611e25565b611625565b6040516103b49190611da7565b60405180910390f35b6103d760048036038101906103d29190611f3e565b61163d565b005b60055481565b60066020528060005260406000206000915090508060000154908060010154905082565b6000600660003373ffffffffffffffffffffffffffffffffffffffff1673ffffffffffffffffffffffffffffffffffffffff1681526020019081526020016000206000015482141561049257600160003373ffffffffffffffffffffffffffffffffffffffff1673ffffffffffffffffffffffffffffffffffffffff1681526020019081526020016000205490505b61049c828261163d565b5050565b7f000000000000000000000000000000000000000000000000000000000000000081565b7f000000000000000000000000000000000000000000000000000000000000000081565b60025481565b6000806104fa83610f96565b9050610506838261055b565b915050919050565b610559600660003373ffffffffffffffffffffffffffffffffffffffff1673ffffffffffffffffffffffffffffffffffffffff16815260200190815260200160002060000154610403565b565b600080600160008573ffffffffffffffffffffffffffffffffffffffff1673ffffffffffffffffffffffffffffffffffffffff16815260200190815260200160002054905060006064601e856105b19190611fad565b6105bb9190612036565b90506000807f000000000000000000000000000000000000000000000000000000000000000073ffffffffffffffffffffffffffffffffffffffff1663a7cac8467f00000000000000000000000000000000000000000000000000000000000000006040518263ffffffff1660e01b81526004016106399190611ee3565b602060405180830381865afa158015610656573d6000803e3d6000fd5b505050506040513d601f19601f8201168201806040525081019061067a919061207c565b90507f000000000000000000000000000000000000000000000000000000000000000073ffffffffffffffffffffffffffffffffffffffff16636352211e856040518263ffffffff1660e01b81526004016106d59190611da7565b602060405180830381865afa1580156106f2573d6000803e3d6000fd5b505050506040513d601f19601f8201168201806040525081019061071691906120be565b73ffffffffffffffffffffffffffffffffffffffff168773ffffffffffffffffffffffffffffffffffffffff161480156107505750600081115b156109c05760007f000000000000000000000000000000000000000000000000000000000000000073ffffffffffffffffffffffffffffffffffffffff166379e93824866040518263ffffffff1660e01b81526004016107b09190611da7565b602060405180830381865afa1580156107cd573d6000803e3d6000fd5b505050506040513d601f19601f820116820180604052508101906107f1919061207c565b905060007f000000000000000000000000000000000000000000000000000000000000000073ffffffffffffffffffffffffffffffffffffffff1663e7e242d4876040518263ffffffff1660e01b815260040161084e9190611da7565b602060405180830381865afa15801561086b573d6000803e3d6000fd5b505050506040513d601f19601f8201168201806040525081019061088f919061207c565b90506109888261097a8361096c64e8d4a510007f000000000000000000000000000000000000000000000000000000000000000073ffffffffffffffffffffffffffffffffffffffff1663d23254b48d7f00000000000000000000000000000000000000000000000000000000000000006040518363ffffffff1660e01b815260040161091d9291906120eb565b602060405180830381865afa15801561093a573d6000803e3d6000fd5b505050506040513d601f19601f8201168201806040525081019061095e919061207c565b61194590919063ffffffff16565b61194590919063ffffffff16565b61195b90919063ffffffff16565b935060646046848660055461099d9190611fad565b6109a79190612036565b6109b19190611fad565b6109bb9190612036565b935050505b6109d582846109cf9190612114565b87611971565b94505050505092915050565b60035481565b7f000000000000000000000000000000000000000000000000000000000000000081565b60045481565b7f000000000000000000000000000000000000000000000000000000000000000073ffffffffffffffffffffffffffffffffffffffff163373ffffffffffffffffffffffffffffffffffffffff1614610a9f576040517f08c379a0000000000000000000000000000000000000000000000000000000008152600401610a96906121c7565b60405180910390fd5b7f000000000000000000000000000000000000000000000000000000000000000073ffffffffffffffffffffffffffffffffffffffff168273ffffffffffffffffffffffffffffffffffffffff161415610b2e576040517f08c379a0000000000000000000000000000000000000000000000000000000008152600401610b2590612233565b60405180910390fd5b6004544311610b3c57610c2e565b8060028190555060006005541115610bc8576000610b656004544361198a90919063ffffffff16565b9050610bb9610ba8600554610b9a64e8d4a51000610b8c868861194590919063ffffffff16565b61194590919063ffffffff16565b61195b90919063ffffffff16565b6003546119a090919063ffffffff16565b60038190555043600481905550505b8173ffffffffffffffffffffffffffffffffffffffff163373ffffffffffffffffffffffffffffffffffffffff167ff70d5c697de7ea828df48e5c4573cb2194c659f1901f70110c52b066dcf5082683604051610c259190611da7565b60405180910390a35b5050565b60026000541415610c78576040517f08c379a0000000000000000000000000000000000000000000000000000000008152600401610c6f9061229f565b60405180910390fd5b60026000819055508073ffffffffffffffffffffffffffffffffffffffff163373ffffffffffffffffffffffffffffffffffffffff161480610d0557507f000000000000000000000000000000000000000000000000000000000000000073ffffffffffffffffffffffffffffffffffffffff163373ffffffffffffffffffffffffffffffffffffffff16145b610d0e57600080fd5b610d16611549565b6000600660008373ffffffffffffffffffffffffffffffffffffffff1673ffffffffffffffffffffffffffffffffffffffff16815260200190815260200160002090506000610d6483610f96565b90506000811115610e2057610d9a7f000000000000000000000000000000000000000000000000000000000000000084836119b6565b7f000000000000000000000000000000000000000000000000000000000000000073ffffffffffffffffffffffffffffffffffffffff163373ffffffffffffffffffffffffffffffffffffffff167f9aa05b3d70a9e3e2f004f039648839560576334fb45c81f91b6db03ad9e2efc983604051610e179190611da7565b60405180910390a35b610e5064e8d4a51000610e42600354856000015461194590919063ffffffff16565b61195b90919063ffffffff16565b82600101819055507f000000000000000000000000000000000000000000000000000000000000000073ffffffffffffffffffffffffffffffffffffffff166363453ae1306040518263ffffffff1660e01b8152600401610eb19190611ee3565b600060405180830381600087803b158015610ecb57600080fd5b505af1158015610edf573d6000803e3d6000fd5b505050505050600160008190555050565b610f937f000000000000000000000000000000000000000000000000000000000000000073ffffffffffffffffffffffffffffffffffffffff166370a08231336040518263ffffffff1660e01b8152600401610f4c9190611ee3565b602060405180830381865afa158015610f69573d6000803e3d6000fd5b505050506040513d601f19601f82011682018060405250810190610f8d919061207c565b8261111f565b50565b600080600660008473ffffffffffffffffffffffffffffffffffffffff1673ffffffffffffffffffffffffffffffffffffffff168152602001908152602001600020905060006003549050600082600001541115611113576004544311156110b957600061100f6004544361198a90919063ffffffff16565b905060006110288260025461194590919063ffffffff16565b905061106861105960055461104b64e8d4a510008561194590919063ffffffff16565b61195b90919063ffffffff16565b846119a090919063ffffffff16565b92506110ae84600101546110a064e8d4a5100061109287896000015461194590919063ffffffff16565b61195b90919063ffffffff16565b61198a90919063ffffffff16565b94505050505061111a565b6004544314156111125761110982600101546110fb64e8d4a510006110ed600354876000015461194590919063ffffffff16565b61195b90919063ffffffff16565b61198a90919063ffffffff16565b9250505061111a565b5b6000925050505b919050565b60026000541415611165576040517f08c379a000000000000000000000000000000000000000000000000000000000815260040161115c9061229f565b60405180910390fd5b6002600081905550600082116111b0576040517f08c379a00000000000000000000000000000000000000000000000000000000081526004016111a79061230b565b60405180910390fd5b6111b8611549565b6000600660003373ffffffffffffffffffffffffffffffffffffffff1673ffffffffffffffffffffffffffffffffffffffff168152602001908152602001600020905060008160000154111561124c57600061121333610f96565b9050600081111561124a576112497f000000000000000000000000000000000000000000000000000000000000000033836119b6565b5b505b60008311156112ba576112817f0000000000000000000000000000000000000000000000000000000000000000333086611a67565b82600560008282546112939190612114565b925050819055506112b18382600001546119a090919063ffffffff16565b81600001819055505b6000821115611471573373ffffffffffffffffffffffffffffffffffffffff167f000000000000000000000000000000000000000000000000000000000000000073ffffffffffffffffffffffffffffffffffffffff16636352211e846040518263ffffffff1660e01b81526004016113339190611da7565b602060405180830381865afa158015611350573d6000803e3d6000fd5b505050506040513d601f19601f8201168201806040525081019061137491906120be565b73ffffffffffffffffffffffffffffffffffffffff161461139457600080fd5b6000600160003373ffffffffffffffffffffffffffffffffffffffff1673ffffffffffffffffffffffffffffffffffffffff1681526020019081526020016000205414156114215781600160003373ffffffffffffffffffffffffffffffffffffffff1673ffffffffffffffffffffffffffffffffffffffff168152602001908152602001600020819055505b81600160003373ffffffffffffffffffffffffffffffffffffffff1673ffffffffffffffffffffffffffffffffffffffff168152602001908152602001600020541461146c57600080fd5b6114b4565b600160003373ffffffffffffffffffffffffffffffffffffffff1673ffffffffffffffffffffffffffffffffffffffff1681526020019081526020016000205491505b6114e464e8d4a510006114d6600354846000015461194590919063ffffffff16565b61195b90919063ffffffff16565b81600101819055503373ffffffffffffffffffffffffffffffffffffffff167f90890809c654f11d6e72a28fa60149770a0d11ec6c92319d6ceb2bb0a4ea1a158385604051611534929190611e52565b60405180910390a25060016000819055505050565b6004544311611557576115ff565b6000600554141561156e57436004819055506115ff565b60006002541161157d576115ff565b60006115946004544361198a90919063ffffffff16565b905060006115ad8260025461194590919063ffffffff16565b90506115ef6115de6005546115d064e8d4a510008561194590919063ffffffff16565b61195b90919063ffffffff16565b6003546119a090919063ffffffff16565b6003819055504360048190555050505b565b7f000000000000000000000000000000000000000000000000000000000000000081565b60016020528060005260406000206000915090505481565b60026000541415611683576040517f08c379a000000000000000000000000000000000000000000000000000000000815260040161167a9061229f565b60405180910390fd5b60026000819055506000600660003373ffffffffffffffffffffffffffffffffffffffff1673ffffffffffffffffffffffffffffffffffffffff16815260200190815260200160002090508281600001541015611715576040517f08c379a000000000000000000000000000000000000000000000000000000000815260040161170c90612377565b60405180910390fd5b61171d611549565b600061172833610f96565b9050600081111561175f5761175e7f000000000000000000000000000000000000000000000000000000000000000033836119b6565b5b60008411156117ce5761177f84836000015461198a90919063ffffffff16565b826000018190555061179c8460055461198a90919063ffffffff16565b6005819055506117cd7f00000000000000000000000000000000000000000000000000000000000000003386611ba0565b5b6117fe64e8d4a510006117f0600354856000015461194590919063ffffffff16565b61195b90919063ffffffff16565b826001018190555060008311156118a457600160003373ffffffffffffffffffffffffffffffffffffffff1673ffffffffffffffffffffffffffffffffffffffff16815260200190815260200160002054831461185a57600080fd5b6000600160003373ffffffffffffffffffffffffffffffffffffffff1673ffffffffffffffffffffffffffffffffffffffff168152602001908152602001600020819055506118e7565b600160003373ffffffffffffffffffffffffffffffffffffffff1673ffffffffffffffffffffffffffffffffffffffff1681526020019081526020016000205492505b3373ffffffffffffffffffffffffffffffffffffffff167ff279e6a1f5e320cca91135676d9cb6e44ca8a08c0b88342bcdb1144f6511b568848660405161192f929190611e52565b60405180910390a2505060016000819055505050565b600081836119539190611fad565b905092915050565b600081836119699190612036565b905092915050565b60008183106119805781611982565b825b905092915050565b600081836119989190612397565b905092915050565b600081836119ae9190612114565b905092915050565b6119c08382611cd6565b60008373ffffffffffffffffffffffffffffffffffffffff166370a08231306040518263ffffffff1660e01b81526004016119fb9190611ee3565b602060405180830381865afa158015611a18573d6000803e3d6000fd5b505050506040513d601f19601f82011682018060405250810190611a3c919061207c565b905080821115611a4a578091505b611a54838361055b565b9150611a61848484611ba0565b50505050565b6000808573ffffffffffffffffffffffffffffffffffffffff166323b872dd868686604051602401611a9b939291906123cb565b6040516020818303038152906040529060e01b6020820180517bffffffffffffffffffffffffffffffffffffffffffffffffffffffff8381831617835250505050604051611ae9919061247c565b6000604051808303816000865af19150503d8060008114611b26576040519150601f19603f3d011682016040523d82523d6000602084013e611b2b565b606091505b5091509150818015611b595750600081511480611b58575080806020019051810190611b5791906124cb565b5b5b611b98576040517f08c379a0000000000000000000000000000000000000000000000000000000008152600401611b8f9061256a565b60405180910390fd5b505050505050565b6000808473ffffffffffffffffffffffffffffffffffffffff1663a9059cbb8585604051602401611bd292919061258a565b6040516020818303038152906040529060e01b6020820180517bffffffffffffffffffffffffffffffffffffffffffffffffffffffff8381831617835250505050604051611c20919061247c565b6000604051808303816000865af19150503d8060008114611c5d576040519150601f19603f3d011682016040523d82523d6000602084013e611c62565b606091505b5091509150818015611c905750600081511480611c8f575080806020019051810190611c8e91906124cb565b5b5b611ccf576040517f08c379a0000000000000000000000000000000000000000000000000000000008152600401611cc6906125ff565b60405180910390fd5b5050505050565b60008273ffffffffffffffffffffffffffffffffffffffff166370a08231306040518263ffffffff1660e01b8152600401611d119190611ee3565b602060405180830381865afa158015611d2e573d6000803e3d6000fd5b505050506040513d601f19601f82011682018060405250810190611d52919061207c565b905081811015611d8957611d88837f00000000000000000000000000000000000000000000000000000000000000003085611a67565b5b505050565b6000819050919050565b611da181611d8e565b82525050565b6000602082019050611dbc6000830184611d98565b92915050565b600080fd5b600073ffffffffffffffffffffffffffffffffffffffff82169050919050565b6000611df282611dc7565b9050919050565b611e0281611de7565b8114611e0d57600080fd5b50565b600081359050611e1f81611df9565b92915050565b600060208284031215611e3b57611e3a611dc2565b5b6000611e4984828501611e10565b91505092915050565b6000604082019050611e676000830185611d98565b611e746020830184611d98565b9392505050565b611e8481611d8e565b8114611e8f57600080fd5b50565b600081359050611ea181611e7b565b92915050565b600060208284031215611ebd57611ebc611dc2565b5b6000611ecb84828501611e92565b91505092915050565b611edd81611de7565b82525050565b6000602082019050611ef86000830184611ed4565b92915050565b60008060408385031215611f1557611f14611dc2565b5b6000611f2385828601611e10565b9250506020611f3485828601611e92565b9150509250929050565b60008060408385031215611f5557611f54611dc2565b5b6000611f6385828601611e92565b9250506020611f7485828601611e92565b9150509250929050565b7f4e487b7100000000000000000000000000000000000000000000000000000000600052601160045260246000fd5b6000611fb882611d8e565b9150611fc383611d8e565b9250817fffffffffffffffffffffffffffffffffffffffffffffffffffffffffffffffff0483118215151615611ffc57611ffb611f7e565b5b828202905092915050565b7f4e487b7100000000000000000000000000000000000000000000000000000000600052601260045260246000fd5b600061204182611d8e565b915061204c83611d8e565b92508261205c5761205b612007565b5b828204905092915050565b60008151905061207681611e7b565b92915050565b60006020828403121561209257612091611dc2565b5b60006120a084828501612067565b91505092915050565b6000815190506120b881611df9565b92915050565b6000602082840312156120d4576120d3611dc2565b5b60006120e2848285016120a9565b91505092915050565b60006040820190506121006000830185611d98565b61210d6020830184611ed4565b9392505050565b600061211f82611d8e565b915061212a83611d8e565b9250827fffffffffffffffffffffffffffffffffffffffffffffffffffffffffffffffff0382111561215f5761215e611f7e565b5b828201905092915050565b600082825260208201905092915050565b7f6f6e6c7920626f6f737400000000000000000000000000000000000000000000600082015250565b60006121b1600a8361216a565b91506121bc8261217b565b602082019050919050565b600060208201905081810360008301526121e0816121a4565b9050919050565b7f6e6f207374616b65000000000000000000000000000000000000000000000000600082015250565b600061221d60088361216a565b9150612228826121e7565b602082019050919050565b6000602082019050818103600083015261224c81612210565b9050919050565b7f5265656e7472616e637947756172643a207265656e7472616e742063616c6c00600082015250565b6000612289601f8361216a565b915061229482612253565b602082019050919050565b600060208201905081810360008301526122b88161227c565b9050919050565b7f616d6f756e742069732030000000000000000000000000000000000000000000600082015250565b60006122f5600b8361216a565b9150612300826122bf565b602082019050919050565b60006020820190508181036000830152612324816122e8565b9050919050565b7f7769746864726177537761703a206e6f7420676f6f6400000000000000000000600082015250565b600061236160168361216a565b915061236c8261232b565b602082019050919050565b6000602082019050818103600083015261239081612354565b9050919050565b60006123a282611d8e565b91506123ad83611d8e565b9250828210156123c0576123bf611f7e565b5b828203905092915050565b60006060820190506123e06000830186611ed4565b6123ed6020830185611ed4565b6123fa6040830184611d98565b949350505050565b600081519050919050565b600081905092915050565b60005b8381101561243657808201518184015260208101905061241b565b83811115612445576000848401525b50505050565b600061245682612402565b612460818561240d565b9350612470818560208601612418565b80840191505092915050565b6000612488828461244b565b915081905092915050565b60008115159050919050565b6124a881612493565b81146124b357600080fd5b50565b6000815190506124c58161249f565b92915050565b6000602082840312156124e1576124e0611dc2565b5b60006124ef848285016124b6565b91505092915050565b7f5472616e7366657248656c7065723a205452414e534645525f46524f4d5f464160008201527f494c454400000000000000000000000000000000000000000000000000000000602082015250565b600061255460248361216a565b915061255f826124f8565b604082019050919050565b6000602082019050818103600083015261258381612547565b9050919050565b600060408201905061259f6000830185611ed4565b6125ac6020830184611d98565b9392505050565b7f5472616e7366657248656c7065723a205452414e534645525f4641494c454400600082015250565b60006125e9601f8361216a565b91506125f4826125b3565b602082019050919050565b60006020820190508181036000830152612618816125dc565b905091905056fea26469706673582212207db01e68c047ac6fe37a219179d82e39a97fa2d0359f2ba9e506a89a9a8177fa64736f6c634300080a0033",
					"opcodes": "PUSH2 0x100 PUSH1 0x40 MSTORE CALLVALUE DUP1 ISZERO PUSH3 0x12 JUMPI PUSH1 0x0 DUP1 REVERT JUMPDEST POP PUSH1 0x40 MLOAD PUSH3 0x2911 CODESIZE SUB DUP1 PUSH3 0x2911 DUP4 CODECOPY DUP2 DUP2 ADD PUSH1 0x40 MSTORE DUP2 ADD SWAP1 PUSH3 0x38 SWAP2 SWAP1 PUSH3 0x184 JUMP JUMPDEST PUSH1 0x1 PUSH1 0x0 DUP2 SWAP1 SSTORE POP DUP4 PUSH20 0xFFFFFFFFFFFFFFFFFFFFFFFFFFFFFFFFFFFFFFFF AND PUSH1 0x80 DUP2 PUSH20 0xFFFFFFFFFFFFFFFFFFFFFFFFFFFFFFFFFFFFFFFF AND DUP2 MSTORE POP POP DUP3 PUSH20 0xFFFFFFFFFFFFFFFFFFFFFFFFFFFFFFFFFFFFFFFF AND PUSH1 0xA0 DUP2 PUSH20 0xFFFFFFFFFFFFFFFFFFFFFFFFFFFFFFFFFFFFFFFF AND DUP2 MSTORE POP POP DUP2 PUSH20 0xFFFFFFFFFFFFFFFFFFFFFFFFFFFFFFFFFFFFFFFF AND PUSH1 0xC0 DUP2 PUSH20 0xFFFFFFFFFFFFFFFFFFFFFFFFFFFFFFFFFFFFFFFF AND DUP2 MSTORE POP POP DUP1 PUSH20 0xFFFFFFFFFFFFFFFFFFFFFFFFFFFFFFFFFFFFFFFF AND PUSH1 0xE0 DUP2 PUSH20 0xFFFFFFFFFFFFFFFFFFFFFFFFFFFFFFFFFFFFFFFF AND DUP2 MSTORE POP POP POP POP POP POP PUSH3 0x1F6 JUMP JUMPDEST PUSH1 0x0 DUP1 REVERT JUMPDEST PUSH1 0x0 PUSH20 0xFFFFFFFFFFFFFFFFFFFFFFFFFFFFFFFFFFFFFFFF DUP3 AND SWAP1 POP SWAP2 SWAP1 POP JUMP JUMPDEST PUSH1 0x0 PUSH3 0x14C DUP3 PUSH3 0x11F JUMP JUMPDEST SWAP1 POP SWAP2 SWAP1 POP JUMP JUMPDEST PUSH3 0x15E DUP2 PUSH3 0x13F JUMP JUMPDEST DUP2 EQ PUSH3 0x16A JUMPI PUSH1 0x0 DUP1 REVERT JUMPDEST POP JUMP JUMPDEST PUSH1 0x0 DUP2 MLOAD SWAP1 POP PUSH3 0x17E DUP2 PUSH3 0x153 JUMP JUMPDEST SWAP3 SWAP2 POP POP JUMP JUMPDEST PUSH1 0x0 DUP1 PUSH1 0x0 DUP1 PUSH1 0x80 DUP6 DUP8 SUB SLT ISZERO PUSH3 0x1A1 JUMPI PUSH3 0x1A0 PUSH3 0x11A JUMP JUMPDEST JUMPDEST PUSH1 0x0 PUSH3 0x1B1 DUP8 DUP3 DUP9 ADD PUSH3 0x16D JUMP JUMPDEST SWAP5 POP POP PUSH1 0x20 PUSH3 0x1C4 DUP8 DUP3 DUP9 ADD PUSH3 0x16D JUMP JUMPDEST SWAP4 POP POP PUSH1 0x40 PUSH3 0x1D7 DUP8 DUP3 DUP9 ADD PUSH3 0x16D JUMP JUMPDEST SWAP3 POP POP PUSH1 0x60 PUSH3 0x1EA DUP8 DUP3 DUP9 ADD PUSH3 0x16D JUMP JUMPDEST SWAP2 POP POP SWAP3 SWAP6 SWAP2 SWAP5 POP SWAP3 POP JUMP JUMPDEST PUSH1 0x80 MLOAD PUSH1 0xA0 MLOAD PUSH1 0xC0 MLOAD PUSH1 0xE0 MLOAD PUSH2 0x2655 PUSH3 0x2BC PUSH1 0x0 CODECOPY PUSH1 0x0 DUP2 DUP2 PUSH2 0xD74 ADD MSTORE DUP2 DUP2 PUSH2 0xD9C ADD MSTORE DUP2 DUP2 PUSH2 0x1223 ADD MSTORE DUP2 DUP2 PUSH2 0x1603 ADD MSTORE PUSH2 0x1738 ADD MSTORE PUSH1 0x0 DUP2 DUP2 PUSH2 0x5C2 ADD MSTORE DUP2 DUP2 PUSH2 0x759 ADD MSTORE DUP2 DUP2 PUSH2 0x8A4 ADD MSTORE DUP2 DUP2 PUSH2 0x9E9 ADD MSTORE DUP2 DUP2 PUSH2 0xA13 ADD MSTORE DUP2 DUP2 PUSH2 0xCB7 ADD MSTORE DUP2 DUP2 PUSH2 0xE5A ADD MSTORE PUSH2 0x1D62 ADD MSTORE PUSH1 0x0 DUP2 DUP2 PUSH2 0x4C6 ADD MSTORE DUP2 DUP2 PUSH2 0x67E ADD MSTORE DUP2 DUP2 PUSH2 0x7F7 ADD MSTORE PUSH2 0x12DC ADD MSTORE PUSH1 0x0 DUP2 DUP2 PUSH2 0x4A2 ADD MSTORE DUP2 DUP2 PUSH2 0x5FE ADD MSTORE DUP2 DUP2 PUSH2 0x8E1 ADD MSTORE DUP2 DUP2 PUSH2 0xAA1 ADD MSTORE DUP2 DUP2 PUSH2 0xEF5 ADD MSTORE DUP2 DUP2 PUSH2 0x125A ADD MSTORE PUSH2 0x17A7 ADD MSTORE PUSH2 0x2655 PUSH1 0x0 RETURN INVALID PUSH1 0x80 PUSH1 0x40 MSTORE CALLVALUE DUP1 ISZERO PUSH2 0x10 JUMPI PUSH1 0x0 DUP1 REVERT JUMPDEST POP PUSH1 0x4 CALLDATASIZE LT PUSH2 0x137 JUMPI PUSH1 0x0 CALLDATALOAD PUSH1 0xE0 SHR DUP1 PUSH4 0xA66F42C0 GT PUSH2 0xB8 JUMPI DUP1 PUSH4 0xC73B399B GT PUSH2 0x7C JUMPI DUP1 PUSH4 0xC73B399B EQ PUSH2 0x319 JUMPI DUP1 PUSH4 0xE2BBB158 EQ PUSH2 0x349 JUMPI DUP1 PUSH4 0xE3161DDD EQ PUSH2 0x365 JUMPI DUP1 PUSH4 0xF7C618C1 EQ PUSH2 0x36F JUMPI DUP1 PUSH4 0xFC97A303 EQ PUSH2 0x38D JUMPI DUP1 PUSH4 0xFDB483C7 EQ PUSH2 0x3BD JUMPI PUSH2 0x137 JUMP JUMPDEST DUP1 PUSH4 0xA66F42C0 EQ PUSH2 0x289 JUMPI DUP1 PUSH4 0xA9F8D181 EQ PUSH2 0x2A7 JUMPI DUP1 PUSH4 0xB66503CF EQ PUSH2 0x2C5 JUMPI DUP1 PUSH4 0xC00007B0 EQ PUSH2 0x2E1 JUMPI DUP1 PUSH4 0xC6F678BD EQ PUSH2 0x2FD JUMPI PUSH2 0x137 JUMP JUMPDEST DUP1 PUSH4 0x4198709A GT PUSH2 0xFF JUMPI DUP1 PUSH4 0x4198709A EQ PUSH2 0x1E3 JUMPI DUP1 PUSH4 0x5EEBEA20 EQ PUSH2 0x201 JUMPI DUP1 PUSH4 0x853828B6 EQ PUSH2 0x231 JUMPI DUP1 PUSH4 0x892F4805 EQ PUSH2 0x23B JUMPI DUP1 PUSH4 0x8F662915 EQ PUSH2 0x26B JUMPI PUSH2 0x137 JUMP JUMPDEST DUP1 PUSH4 0x18160DDD EQ PUSH2 0x13C JUMPI DUP1 PUSH4 0x1959A002 EQ PUSH2 0x15A JUMPI DUP1 PUSH4 0x2E1A7D4D EQ PUSH2 0x18B JUMPI DUP1 PUSH4 0x3A4B66F1 EQ PUSH2 0x1A7 JUMPI DUP1 PUSH4 0x3B92EB23 EQ PUSH2 0x1C5 JUMPI JUMPDEST PUSH1 0x0 DUP1 REVERT JUMPDEST PUSH2 0x144 PUSH2 0x3D9 JUMP JUMPDEST PUSH1 0x40 MLOAD PUSH2 0x151 SWAP2 SWAP1 PUSH2 0x1DA7 JUMP JUMPDEST PUSH1 0x40 MLOAD DUP1 SWAP2 SUB SWAP1 RETURN JUMPDEST PUSH2 0x174 PUSH1 0x4 DUP1 CALLDATASIZE SUB DUP2 ADD SWAP1 PUSH2 0x16F SWAP2 SWAP1 PUSH2 0x1E25 JUMP JUMPDEST PUSH2 0x3DF JUMP JUMPDEST PUSH1 0x40 MLOAD PUSH2 0x182 SWAP3 SWAP2 SWAP1 PUSH2 0x1E52 JUMP JUMPDEST PUSH1 0x40 MLOAD DUP1 SWAP2 SUB SWAP1 RETURN JUMPDEST PUSH2 0x1A5 PUSH1 0x4 DUP1 CALLDATASIZE SUB DUP2 ADD SWAP1 PUSH2 0x1A0 SWAP2 SWAP1 PUSH2 0x1EA7 JUMP JUMPDEST PUSH2 0x403 JUMP JUMPDEST STOP JUMPDEST PUSH2 0x1AF PUSH2 0x4A0 JUMP JUMPDEST PUSH1 0x40 MLOAD PUSH2 0x1BC SWAP2 SWAP1 PUSH2 0x1EE3 JUMP JUMPDEST PUSH1 0x40 MLOAD DUP1 SWAP2 SUB SWAP1 RETURN JUMPDEST PUSH2 0x1CD PUSH2 0x4C4 JUMP JUMPDEST PUSH1 0x40 MLOAD PUSH2 0x1DA SWAP2 SWAP1 PUSH2 0x1EE3 JUMP JUMPDEST PUSH1 0x40 MLOAD DUP1 SWAP2 SUB SWAP1 RETURN JUMPDEST PUSH2 0x1EB PUSH2 0x4E8 JUMP JUMPDEST PUSH1 0x40 MLOAD PUSH2 0x1F8 SWAP2 SWAP1 PUSH2 0x1DA7 JUMP JUMPDEST PUSH1 0x40 MLOAD DUP1 SWAP2 SUB SWAP1 RETURN JUMPDEST PUSH2 0x21B PUSH1 0x4 DUP1 CALLDATASIZE SUB DUP2 ADD SWAP1 PUSH2 0x216 SWAP2 SWAP1 PUSH2 0x1E25 JUMP JUMPDEST PUSH2 0x4EE JUMP JUMPDEST PUSH1 0x40 MLOAD PUSH2 0x228 SWAP2 SWAP1 PUSH2 0x1DA7 JUMP JUMPDEST PUSH1 0x40 MLOAD DUP1 SWAP2 SUB SWAP1 RETURN JUMPDEST PUSH2 0x239 PUSH2 0x50E JUMP JUMPDEST STOP JUMPDEST PUSH2 0x255 PUSH1 0x4 DUP1 CALLDATASIZE SUB DUP2 ADD SWAP1 PUSH2 0x250 SWAP2 SWAP1 PUSH2 0x1EFE JUMP JUMPDEST PUSH2 0x55B JUMP JUMPDEST PUSH1 0x40 MLOAD PUSH2 0x262 SWAP2 SWAP1 PUSH2 0x1DA7 JUMP JUMPDEST PUSH1 0x40 MLOAD DUP1 SWAP2 SUB SWAP1 RETURN JUMPDEST PUSH2 0x273 PUSH2 0x9E1 JUMP JUMPDEST PUSH1 0x40 MLOAD PUSH2 0x280 SWAP2 SWAP1 PUSH2 0x1DA7 JUMP JUMPDEST PUSH1 0x40 MLOAD DUP1 SWAP2 SUB SWAP1 RETURN JUMPDEST PUSH2 0x291 PUSH2 0x9E7 JUMP JUMPDEST PUSH1 0x40 MLOAD PUSH2 0x29E SWAP2 SWAP1 PUSH2 0x1EE3 JUMP JUMPDEST PUSH1 0x40 MLOAD DUP1 SWAP2 SUB SWAP1 RETURN JUMPDEST PUSH2 0x2AF PUSH2 0xA0B JUMP JUMPDEST PUSH1 0x40 MLOAD PUSH2 0x2BC SWAP2 SWAP1 PUSH2 0x1DA7 JUMP JUMPDEST PUSH1 0x40 MLOAD DUP1 SWAP2 SUB SWAP1 RETURN JUMPDEST PUSH2 0x2DF PUSH1 0x4 DUP1 CALLDATASIZE SUB DUP2 ADD SWAP1 PUSH2 0x2DA SWAP2 SWAP1 PUSH2 0x1EFE JUMP JUMPDEST PUSH2 0xA11 JUMP JUMPDEST STOP JUMPDEST PUSH2 0x2FB PUSH1 0x4 DUP1 CALLDATASIZE SUB DUP2 ADD SWAP1 PUSH2 0x2F6 SWAP2 SWAP1 PUSH2 0x1E25 JUMP JUMPDEST PUSH2 0xC32 JUMP JUMPDEST STOP JUMPDEST PUSH2 0x317 PUSH1 0x4 DUP1 CALLDATASIZE SUB DUP2 ADD SWAP1 PUSH2 0x312 SWAP2 SWAP1 PUSH2 0x1EA7 JUMP JUMPDEST PUSH2 0xEF0 JUMP JUMPDEST STOP JUMPDEST PUSH2 0x333 PUSH1 0x4 DUP1 CALLDATASIZE SUB DUP2 ADD SWAP1 PUSH2 0x32E SWAP2 SWAP1 PUSH2 0x1E25 JUMP JUMPDEST PUSH2 0xF96 JUMP JUMPDEST PUSH1 0x40 MLOAD PUSH2 0x340 SWAP2 SWAP1 PUSH2 0x1DA7 JUMP JUMPDEST PUSH1 0x40 MLOAD DUP1 SWAP2 SUB SWAP1 RETURN JUMPDEST PUSH2 0x363 PUSH1 0x4 DUP1 CALLDATASIZE SUB DUP2 ADD SWAP1 PUSH2 0x35E SWAP2 SWAP1 PUSH2 0x1F3E JUMP JUMPDEST PUSH2 0x111F JUMP JUMPDEST STOP JUMPDEST PUSH2 0x36D PUSH2 0x1549 JUMP JUMPDEST STOP JUMPDEST PUSH2 0x377 PUSH2 0x1601 JUMP JUMPDEST PUSH1 0x40 MLOAD PUSH2 0x384 SWAP2 SWAP1 PUSH2 0x1EE3 JUMP JUMPDEST PUSH1 0x40 MLOAD DUP1 SWAP2 SUB SWAP1 RETURN JUMPDEST PUSH2 0x3A7 PUSH1 0x4 DUP1 CALLDATASIZE SUB DUP2 ADD SWAP1 PUSH2 0x3A2 SWAP2 SWAP1 PUSH2 0x1E25 JUMP JUMPDEST PUSH2 0x1625 JUMP JUMPDEST PUSH1 0x40 MLOAD PUSH2 0x3B4 SWAP2 SWAP1 PUSH2 0x1DA7 JUMP JUMPDEST PUSH1 0x40 MLOAD DUP1 SWAP2 SUB SWAP1 RETURN JUMPDEST PUSH2 0x3D7 PUSH1 0x4 DUP1 CALLDATASIZE SUB DUP2 ADD SWAP1 PUSH2 0x3D2 SWAP2 SWAP1 PUSH2 0x1F3E JUMP JUMPDEST PUSH2 0x163D JUMP JUMPDEST STOP JUMPDEST PUSH1 0x5 SLOAD DUP2 JUMP JUMPDEST PUSH1 0x6 PUSH1 0x20 MSTORE DUP1 PUSH1 0x0 MSTORE PUSH1 0x40 PUSH1 0x0 KECCAK256 PUSH1 0x0 SWAP2 POP SWAP1 POP DUP1 PUSH1 0x0 ADD SLOAD SWAP1 DUP1 PUSH1 0x1 ADD SLOAD SWAP1 POP DUP3 JUMP JUMPDEST PUSH1 0x0 PUSH1 0x6 PUSH1 0x0 CALLER PUSH20 0xFFFFFFFFFFFFFFFFFFFFFFFFFFFFFFFFFFFFFFFF AND PUSH20 0xFFFFFFFFFFFFFFFFFFFFFFFFFFFFFFFFFFFFFFFF AND DUP2 MSTORE PUSH1 0x20 ADD SWAP1 DUP2 MSTORE PUSH1 0x20 ADD PUSH1 0x0 KECCAK256 PUSH1 0x0 ADD SLOAD DUP3 EQ ISZERO PUSH2 0x492 JUMPI PUSH1 0x1 PUSH1 0x0 CALLER PUSH20 0xFFFFFFFFFFFFFFFFFFFFFFFFFFFFFFFFFFFFFFFF AND PUSH20 0xFFFFFFFFFFFFFFFFFFFFFFFFFFFFFFFFFFFFFFFF AND DUP2 MSTORE PUSH1 0x20 ADD SWAP1 DUP2 MSTORE PUSH1 0x20 ADD PUSH1 0x0 KECCAK256 SLOAD SWAP1 POP JUMPDEST PUSH2 0x49C DUP3 DUP3 PUSH2 0x163D JUMP JUMPDEST POP POP JUMP JUMPDEST PUSH32 0x0 DUP2 JUMP JUMPDEST PUSH32 0x0 DUP2 JUMP JUMPDEST PUSH1 0x2 SLOAD DUP2 JUMP JUMPDEST PUSH1 0x0 DUP1 PUSH2 0x4FA DUP4 PUSH2 0xF96 JUMP JUMPDEST SWAP1 POP PUSH2 0x506 DUP4 DUP3 PUSH2 0x55B JUMP JUMPDEST SWAP2 POP POP SWAP2 SWAP1 POP JUMP JUMPDEST PUSH2 0x559 PUSH1 0x6 PUSH1 0x0 CALLER PUSH20 0xFFFFFFFFFFFFFFFFFFFFFFFFFFFFFFFFFFFFFFFF AND PUSH20 0xFFFFFFFFFFFFFFFFFFFFFFFFFFFFFFFFFFFFFFFF AND DUP2 MSTORE PUSH1 0x20 ADD SWAP1 DUP2 MSTORE PUSH1 0x20 ADD PUSH1 0x0 KECCAK256 PUSH1 0x0 ADD SLOAD PUSH2 0x403 JUMP JUMPDEST JUMP JUMPDEST PUSH1 0x0 DUP1 PUSH1 0x1 PUSH1 0x0 DUP6 PUSH20 0xFFFFFFFFFFFFFFFFFFFFFFFFFFFFFFFFFFFFFFFF AND PUSH20 0xFFFFFFFFFFFFFFFFFFFFFFFFFFFFFFFFFFFFFFFF AND DUP2 MSTORE PUSH1 0x20 ADD SWAP1 DUP2 MSTORE PUSH1 0x20 ADD PUSH1 0x0 KECCAK256 SLOAD SWAP1 POP PUSH1 0x0 PUSH1 0x64 PUSH1 0x1E DUP6 PUSH2 0x5B1 SWAP2 SWAP1 PUSH2 0x1FAD JUMP JUMPDEST PUSH2 0x5BB SWAP2 SWAP1 PUSH2 0x2036 JUMP JUMPDEST SWAP1 POP PUSH1 0x0 DUP1 PUSH32 0x0 PUSH20 0xFFFFFFFFFFFFFFFFFFFFFFFFFFFFFFFFFFFFFFFF AND PUSH4 0xA7CAC846 PUSH32 0x0 PUSH1 0x40 MLOAD DUP3 PUSH4 0xFFFFFFFF AND PUSH1 0xE0 SHL DUP2 MSTORE PUSH1 0x4 ADD PUSH2 0x639 SWAP2 SWAP1 PUSH2 0x1EE3 JUMP JUMPDEST PUSH1 0x20 PUSH1 0x40 MLOAD DUP1 DUP4 SUB DUP2 DUP7 GAS STATICCALL ISZERO DUP1 ISZERO PUSH2 0x656 JUMPI RETURNDATASIZE PUSH1 0x0 DUP1 RETURNDATACOPY RETURNDATASIZE PUSH1 0x0 REVERT JUMPDEST POP POP POP POP PUSH1 0x40 MLOAD RETURNDATASIZE PUSH1 0x1F NOT PUSH1 0x1F DUP3 ADD AND DUP3 ADD DUP1 PUSH1 0x40 MSTORE POP DUP2 ADD SWAP1 PUSH2 0x67A SWAP2 SWAP1 PUSH2 0x207C JUMP JUMPDEST SWAP1 POP PUSH32 0x0 PUSH20 0xFFFFFFFFFFFFFFFFFFFFFFFFFFFFFFFFFFFFFFFF AND PUSH4 0x6352211E DUP6 PUSH1 0x40 MLOAD DUP3 PUSH4 0xFFFFFFFF AND PUSH1 0xE0 SHL DUP2 MSTORE PUSH1 0x4 ADD PUSH2 0x6D5 SWAP2 SWAP1 PUSH2 0x1DA7 JUMP JUMPDEST PUSH1 0x20 PUSH1 0x40 MLOAD DUP1 DUP4 SUB DUP2 DUP7 GAS STATICCALL ISZERO DUP1 ISZERO PUSH2 0x6F2 JUMPI RETURNDATASIZE PUSH1 0x0 DUP1 RETURNDATACOPY RETURNDATASIZE PUSH1 0x0 REVERT JUMPDEST POP POP POP POP PUSH1 0x40 MLOAD RETURNDATASIZE PUSH1 0x1F NOT PUSH1 0x1F DUP3 ADD AND DUP3 ADD DUP1 PUSH1 0x40 MSTORE POP DUP2 ADD SWAP1 PUSH2 0x716 SWAP2 SWAP1 PUSH2 0x20BE JUMP JUMPDEST PUSH20 0xFFFFFFFFFFFFFFFFFFFFFFFFFFFFFFFFFFFFFFFF AND DUP8 PUSH20 0xFFFFFFFFFFFFFFFFFFFFFFFFFFFFFFFFFFFFFFFF AND EQ DUP1 ISZERO PUSH2 0x750 JUMPI POP PUSH1 0x0 DUP2 GT JUMPDEST ISZERO PUSH2 0x9C0 JUMPI PUSH1 0x0 PUSH32 0x0 PUSH20 0xFFFFFFFFFFFFFFFFFFFFFFFFFFFFFFFFFFFFFFFF AND PUSH4 0x79E93824 DUP7 PUSH1 0x40 MLOAD DUP3 PUSH4 0xFFFFFFFF AND PUSH1 0xE0 SHL DUP2 MSTORE PUSH1 0x4 ADD PUSH2 0x7B0 SWAP2 SWAP1 PUSH2 0x1DA7 JUMP JUMPDEST PUSH1 0x20 PUSH1 0x40 MLOAD DUP1 DUP4 SUB DUP2 DUP7 GAS STATICCALL ISZERO DUP1 ISZERO PUSH2 0x7CD JUMPI RETURNDATASIZE PUSH1 0x0 DUP1 RETURNDATACOPY RETURNDATASIZE PUSH1 0x0 REVERT JUMPDEST POP POP POP POP PUSH1 0x40 MLOAD RETURNDATASIZE PUSH1 0x1F NOT PUSH1 0x1F DUP3 ADD AND DUP3 ADD DUP1 PUSH1 0x40 MSTORE POP DUP2 ADD SWAP1 PUSH2 0x7F1 SWAP2 SWAP1 PUSH2 0x207C JUMP JUMPDEST SWAP1 POP PUSH1 0x0 PUSH32 0x0 PUSH20 0xFFFFFFFFFFFFFFFFFFFFFFFFFFFFFFFFFFFFFFFF AND PUSH4 0xE7E242D4 DUP8 PUSH1 0x40 MLOAD DUP3 PUSH4 0xFFFFFFFF AND PUSH1 0xE0 SHL DUP2 MSTORE PUSH1 0x4 ADD PUSH2 0x84E SWAP2 SWAP1 PUSH2 0x1DA7 JUMP JUMPDEST PUSH1 0x20 PUSH1 0x40 MLOAD DUP1 DUP4 SUB DUP2 DUP7 GAS STATICCALL ISZERO DUP1 ISZERO PUSH2 0x86B JUMPI RETURNDATASIZE PUSH1 0x0 DUP1 RETURNDATACOPY RETURNDATASIZE PUSH1 0x0 REVERT JUMPDEST POP POP POP POP PUSH1 0x40 MLOAD RETURNDATASIZE PUSH1 0x1F NOT PUSH1 0x1F DUP3 ADD AND DUP3 ADD DUP1 PUSH1 0x40 MSTORE POP DUP2 ADD SWAP1 PUSH2 0x88F SWAP2 SWAP1 PUSH2 0x207C JUMP JUMPDEST SWAP1 POP PUSH2 0x988 DUP3 PUSH2 0x97A DUP4 PUSH2 0x96C PUSH5 0xE8D4A51000 PUSH32 0x0 PUSH20 0xFFFFFFFFFFFFFFFFFFFFFFFFFFFFFFFFFFFFFFFF AND PUSH4 0xD23254B4 DUP14 PUSH32 0x0 PUSH1 0x40 MLOAD DUP4 PUSH4 0xFFFFFFFF AND PUSH1 0xE0 SHL DUP2 MSTORE PUSH1 0x4 ADD PUSH2 0x91D SWAP3 SWAP2 SWAP1 PUSH2 0x20EB JUMP JUMPDEST PUSH1 0x20 PUSH1 0x40 MLOAD DUP1 DUP4 SUB DUP2 DUP7 GAS STATICCALL ISZERO DUP1 ISZERO PUSH2 0x93A JUMPI RETURNDATASIZE PUSH1 0x0 DUP1 RETURNDATACOPY RETURNDATASIZE PUSH1 0x0 REVERT JUMPDEST POP POP POP POP PUSH1 0x40 MLOAD RETURNDATASIZE PUSH1 0x1F NOT PUSH1 0x1F DUP3 ADD AND DUP3 ADD DUP1 PUSH1 0x40 MSTORE POP DUP2 ADD SWAP1 PUSH2 0x95E SWAP2 SWAP1 PUSH2 0x207C JUMP JUMPDEST PUSH2 0x1945 SWAP1 SWAP2 SWAP1 PUSH4 0xFFFFFFFF AND JUMP JUMPDEST PUSH2 0x1945 SWAP1 SWAP2 SWAP1 PUSH4 0xFFFFFFFF AND JUMP JUMPDEST PUSH2 0x195B SWAP1 SWAP2 SWAP1 PUSH4 0xFFFFFFFF AND JUMP JUMPDEST SWAP4 POP PUSH1 0x64 PUSH1 0x46 DUP5 DUP7 PUSH1 0x5 SLOAD PUSH2 0x99D SWAP2 SWAP1 PUSH2 0x1FAD JUMP JUMPDEST PUSH2 0x9A7 SWAP2 SWAP1 PUSH2 0x2036 JUMP JUMPDEST PUSH2 0x9B1 SWAP2 SWAP1 PUSH2 0x1FAD JUMP JUMPDEST PUSH2 0x9BB SWAP2 SWAP1 PUSH2 0x2036 JUMP JUMPDEST SWAP4 POP POP POP JUMPDEST PUSH2 0x9D5 DUP3 DUP5 PUSH2 0x9CF SWAP2 SWAP1 PUSH2 0x2114 JUMP JUMPDEST DUP8 PUSH2 0x1971 JUMP JUMPDEST SWAP5 POP POP POP POP POP SWAP3 SWAP2 POP POP JUMP JUMPDEST PUSH1 0x3 SLOAD DUP2 JUMP JUMPDEST PUSH32 0x0 DUP2 JUMP JUMPDEST PUSH1 0x4 SLOAD DUP2 JUMP JUMPDEST PUSH32 0x0 PUSH20 0xFFFFFFFFFFFFFFFFFFFFFFFFFFFFFFFFFFFFFFFF AND CALLER PUSH20 0xFFFFFFFFFFFFFFFFFFFFFFFFFFFFFFFFFFFFFFFF AND EQ PUSH2 0xA9F JUMPI PUSH1 0x40 MLOAD PUSH32 0x8C379A000000000000000000000000000000000000000000000000000000000 DUP2 MSTORE PUSH1 0x4 ADD PUSH2 0xA96 SWAP1 PUSH2 0x21C7 JUMP JUMPDEST PUSH1 0x40 MLOAD DUP1 SWAP2 SUB SWAP1 REVERT JUMPDEST PUSH32 0x0 PUSH20 0xFFFFFFFFFFFFFFFFFFFFFFFFFFFFFFFFFFFFFFFF AND DUP3 PUSH20 0xFFFFFFFFFFFFFFFFFFFFFFFFFFFFFFFFFFFFFFFF AND EQ ISZERO PUSH2 0xB2E JUMPI PUSH1 0x40 MLOAD PUSH32 0x8C379A000000000000000000000000000000000000000000000000000000000 DUP2 MSTORE PUSH1 0x4 ADD PUSH2 0xB25 SWAP1 PUSH2 0x2233 JUMP JUMPDEST PUSH1 0x40 MLOAD DUP1 SWAP2 SUB SWAP1 REVERT JUMPDEST PUSH1 0x4 SLOAD NUMBER GT PUSH2 0xB3C JUMPI PUSH2 0xC2E JUMP JUMPDEST DUP1 PUSH1 0x2 DUP2 SWAP1 SSTORE POP PUSH1 0x0 PUSH1 0x5 SLOAD GT ISZERO PUSH2 0xBC8 JUMPI PUSH1 0x0 PUSH2 0xB65 PUSH1 0x4 SLOAD NUMBER PUSH2 0x198A SWAP1 SWAP2 SWAP1 PUSH4 0xFFFFFFFF AND JUMP JUMPDEST SWAP1 POP PUSH2 0xBB9 PUSH2 0xBA8 PUSH1 0x5 SLOAD PUSH2 0xB9A PUSH5 0xE8D4A51000 PUSH2 0xB8C DUP7 DUP9 PUSH2 0x1945 SWAP1 SWAP2 SWAP1 PUSH4 0xFFFFFFFF AND JUMP JUMPDEST PUSH2 0x1945 SWAP1 SWAP2 SWAP1 PUSH4 0xFFFFFFFF AND JUMP JUMPDEST PUSH2 0x195B SWAP1 SWAP2 SWAP1 PUSH4 0xFFFFFFFF AND JUMP JUMPDEST PUSH1 0x3 SLOAD PUSH2 0x19A0 SWAP1 SWAP2 SWAP1 PUSH4 0xFFFFFFFF AND JUMP JUMPDEST PUSH1 0x3 DUP2 SWAP1 SSTORE POP NUMBER PUSH1 0x4 DUP2 SWAP1 SSTORE POP POP JUMPDEST DUP2 PUSH20 0xFFFFFFFFFFFFFFFFFFFFFFFFFFFFFFFFFFFFFFFF AND CALLER PUSH20 0xFFFFFFFFFFFFFFFFFFFFFFFFFFFFFFFFFFFFFFFF AND PUSH32 0xF70D5C697DE7EA828DF48E5C4573CB2194C659F1901F70110C52B066DCF50826 DUP4 PUSH1 0x40 MLOAD PUSH2 0xC25 SWAP2 SWAP1 PUSH2 0x1DA7 JUMP JUMPDEST PUSH1 0x40 MLOAD DUP1 SWAP2 SUB SWAP1 LOG3 JUMPDEST POP POP JUMP JUMPDEST PUSH1 0x2 PUSH1 0x0 SLOAD EQ ISZERO PUSH2 0xC78 JUMPI PUSH1 0x40 MLOAD PUSH32 0x8C379A000000000000000000000000000000000000000000000000000000000 DUP2 MSTORE PUSH1 0x4 ADD PUSH2 0xC6F SWAP1 PUSH2 0x229F JUMP JUMPDEST PUSH1 0x40 MLOAD DUP1 SWAP2 SUB SWAP1 REVERT JUMPDEST PUSH1 0x2 PUSH1 0x0 DUP2 SWAP1 SSTORE POP DUP1 PUSH20 0xFFFFFFFFFFFFFFFFFFFFFFFFFFFFFFFFFFFFFFFF AND CALLER PUSH20 0xFFFFFFFFFFFFFFFFFFFFFFFFFFFFFFFFFFFFFFFF AND EQ DUP1 PUSH2 0xD05 JUMPI POP PUSH32 0x0 PUSH20 0xFFFFFFFFFFFFFFFFFFFFFFFFFFFFFFFFFFFFFFFF AND CALLER PUSH20 0xFFFFFFFFFFFFFFFFFFFFFFFFFFFFFFFFFFFFFFFF AND EQ JUMPDEST PUSH2 0xD0E JUMPI PUSH1 0x0 DUP1 REVERT JUMPDEST PUSH2 0xD16 PUSH2 0x1549 JUMP JUMPDEST PUSH1 0x0 PUSH1 0x6 PUSH1 0x0 DUP4 PUSH20 0xFFFFFFFFFFFFFFFFFFFFFFFFFFFFFFFFFFFFFFFF AND PUSH20 0xFFFFFFFFFFFFFFFFFFFFFFFFFFFFFFFFFFFFFFFF AND DUP2 MSTORE PUSH1 0x20 ADD SWAP1 DUP2 MSTORE PUSH1 0x20 ADD PUSH1 0x0 KECCAK256 SWAP1 POP PUSH1 0x0 PUSH2 0xD64 DUP4 PUSH2 0xF96 JUMP JUMPDEST SWAP1 POP PUSH1 0x0 DUP2 GT ISZERO PUSH2 0xE20 JUMPI PUSH2 0xD9A PUSH32 0x0 DUP5 DUP4 PUSH2 0x19B6 JUMP JUMPDEST PUSH32 0x0 PUSH20 0xFFFFFFFFFFFFFFFFFFFFFFFFFFFFFFFFFFFFFFFF AND CALLER PUSH20 0xFFFFFFFFFFFFFFFFFFFFFFFFFFFFFFFFFFFFFFFF AND PUSH32 0x9AA05B3D70A9E3E2F004F039648839560576334FB45C81F91B6DB03AD9E2EFC9 DUP4 PUSH1 0x40 MLOAD PUSH2 0xE17 SWAP2 SWAP1 PUSH2 0x1DA7 JUMP JUMPDEST PUSH1 0x40 MLOAD DUP1 SWAP2 SUB SWAP1 LOG3 JUMPDEST PUSH2 0xE50 PUSH5 0xE8D4A51000 PUSH2 0xE42 PUSH1 0x3 SLOAD DUP6 PUSH1 0x0 ADD SLOAD PUSH2 0x1945 SWAP1 SWAP2 SWAP1 PUSH4 0xFFFFFFFF AND JUMP JUMPDEST PUSH2 0x195B SWAP1 SWAP2 SWAP1 PUSH4 0xFFFFFFFF AND JUMP JUMPDEST DUP3 PUSH1 0x1 ADD DUP2 SWAP1 SSTORE POP PUSH32 0x0 PUSH20 0xFFFFFFFFFFFFFFFFFFFFFFFFFFFFFFFFFFFFFFFF AND PUSH4 0x63453AE1 ADDRESS PUSH1 0x40 MLOAD DUP3 PUSH4 0xFFFFFFFF AND PUSH1 0xE0 SHL DUP2 MSTORE PUSH1 0x4 ADD PUSH2 0xEB1 SWAP2 SWAP1 PUSH2 0x1EE3 JUMP JUMPDEST PUSH1 0x0 PUSH1 0x40 MLOAD DUP1 DUP4 SUB DUP2 PUSH1 0x0 DUP8 DUP1 EXTCODESIZE ISZERO DUP1 ISZERO PUSH2 0xECB JUMPI PUSH1 0x0 DUP1 REVERT JUMPDEST POP GAS CALL ISZERO DUP1 ISZERO PUSH2 0xEDF JUMPI RETURNDATASIZE PUSH1 0x0 DUP1 RETURNDATACOPY RETURNDATASIZE PUSH1 0x0 REVERT JUMPDEST POP POP POP POP POP POP PUSH1 0x1 PUSH1 0x0 DUP2 SWAP1 SSTORE POP POP JUMP JUMPDEST PUSH2 0xF93 PUSH32 0x0 PUSH20 0xFFFFFFFFFFFFFFFFFFFFFFFFFFFFFFFFFFFFFFFF AND PUSH4 0x70A08231 CALLER PUSH1 0x40 MLOAD DUP3 PUSH4 0xFFFFFFFF AND PUSH1 0xE0 SHL DUP2 MSTORE PUSH1 0x4 ADD PUSH2 0xF4C SWAP2 SWAP1 PUSH2 0x1EE3 JUMP JUMPDEST PUSH1 0x20 PUSH1 0x40 MLOAD DUP1 DUP4 SUB DUP2 DUP7 GAS STATICCALL ISZERO DUP1 ISZERO PUSH2 0xF69 JUMPI RETURNDATASIZE PUSH1 0x0 DUP1 RETURNDATACOPY RETURNDATASIZE PUSH1 0x0 REVERT JUMPDEST POP POP POP POP PUSH1 0x40 MLOAD RETURNDATASIZE PUSH1 0x1F NOT PUSH1 0x1F DUP3 ADD AND DUP3 ADD DUP1 PUSH1 0x40 MSTORE POP DUP2 ADD SWAP1 PUSH2 0xF8D SWAP2 SWAP1 PUSH2 0x207C JUMP JUMPDEST DUP3 PUSH2 0x111F JUMP JUMPDEST POP JUMP JUMPDEST PUSH1 0x0 DUP1 PUSH1 0x6 PUSH1 0x0 DUP5 PUSH20 0xFFFFFFFFFFFFFFFFFFFFFFFFFFFFFFFFFFFFFFFF AND PUSH20 0xFFFFFFFFFFFFFFFFFFFFFFFFFFFFFFFFFFFFFFFF AND DUP2 MSTORE PUSH1 0x20 ADD SWAP1 DUP2 MSTORE PUSH1 0x20 ADD PUSH1 0x0 KECCAK256 SWAP1 POP PUSH1 0x0 PUSH1 0x3 SLOAD SWAP1 POP PUSH1 0x0 DUP3 PUSH1 0x0 ADD SLOAD GT ISZERO PUSH2 0x1113 JUMPI PUSH1 0x4 SLOAD NUMBER GT ISZERO PUSH2 0x10B9 JUMPI PUSH1 0x0 PUSH2 0x100F PUSH1 0x4 SLOAD NUMBER PUSH2 0x198A SWAP1 SWAP2 SWAP1 PUSH4 0xFFFFFFFF AND JUMP JUMPDEST SWAP1 POP PUSH1 0x0 PUSH2 0x1028 DUP3 PUSH1 0x2 SLOAD PUSH2 0x1945 SWAP1 SWAP2 SWAP1 PUSH4 0xFFFFFFFF AND JUMP JUMPDEST SWAP1 POP PUSH2 0x1068 PUSH2 0x1059 PUSH1 0x5 SLOAD PUSH2 0x104B PUSH5 0xE8D4A51000 DUP6 PUSH2 0x1945 SWAP1 SWAP2 SWAP1 PUSH4 0xFFFFFFFF AND JUMP JUMPDEST PUSH2 0x195B SWAP1 SWAP2 SWAP1 PUSH4 0xFFFFFFFF AND JUMP JUMPDEST DUP5 PUSH2 0x19A0 SWAP1 SWAP2 SWAP1 PUSH4 0xFFFFFFFF AND JUMP JUMPDEST SWAP3 POP PUSH2 0x10AE DUP5 PUSH1 0x1 ADD SLOAD PUSH2 0x10A0 PUSH5 0xE8D4A51000 PUSH2 0x1092 DUP8 DUP10 PUSH1 0x0 ADD SLOAD PUSH2 0x1945 SWAP1 SWAP2 SWAP1 PUSH4 0xFFFFFFFF AND JUMP JUMPDEST PUSH2 0x195B SWAP1 SWAP2 SWAP1 PUSH4 0xFFFFFFFF AND JUMP JUMPDEST PUSH2 0x198A SWAP1 SWAP2 SWAP1 PUSH4 0xFFFFFFFF AND JUMP JUMPDEST SWAP5 POP POP POP POP POP PUSH2 0x111A JUMP JUMPDEST PUSH1 0x4 SLOAD NUMBER EQ ISZERO PUSH2 0x1112 JUMPI PUSH2 0x1109 DUP3 PUSH1 0x1 ADD SLOAD PUSH2 0x10FB PUSH5 0xE8D4A51000 PUSH2 0x10ED PUSH1 0x3 SLOAD DUP8 PUSH1 0x0 ADD SLOAD PUSH2 0x1945 SWAP1 SWAP2 SWAP1 PUSH4 0xFFFFFFFF AND JUMP JUMPDEST PUSH2 0x195B SWAP1 SWAP2 SWAP1 PUSH4 0xFFFFFFFF AND JUMP JUMPDEST PUSH2 0x198A SWAP1 SWAP2 SWAP1 PUSH4 0xFFFFFFFF AND JUMP JUMPDEST SWAP3 POP POP POP PUSH2 0x111A JUMP JUMPDEST JUMPDEST PUSH1 0x0 SWAP3 POP POP POP JUMPDEST SWAP2 SWAP1 POP JUMP JUMPDEST PUSH1 0x2 PUSH1 0x0 SLOAD EQ ISZERO PUSH2 0x1165 JUMPI PUSH1 0x40 MLOAD PUSH32 0x8C379A000000000000000000000000000000000000000000000000000000000 DUP2 MSTORE PUSH1 0x4 ADD PUSH2 0x115C SWAP1 PUSH2 0x229F JUMP JUMPDEST PUSH1 0x40 MLOAD DUP1 SWAP2 SUB SWAP1 REVERT JUMPDEST PUSH1 0x2 PUSH1 0x0 DUP2 SWAP1 SSTORE POP PUSH1 0x0 DUP3 GT PUSH2 0x11B0 JUMPI PUSH1 0x40 MLOAD PUSH32 0x8C379A000000000000000000000000000000000000000000000000000000000 DUP2 MSTORE PUSH1 0x4 ADD PUSH2 0x11A7 SWAP1 PUSH2 0x230B JUMP JUMPDEST PUSH1 0x40 MLOAD DUP1 SWAP2 SUB SWAP1 REVERT JUMPDEST PUSH2 0x11B8 PUSH2 0x1549 JUMP JUMPDEST PUSH1 0x0 PUSH1 0x6 PUSH1 0x0 CALLER PUSH20 0xFFFFFFFFFFFFFFFFFFFFFFFFFFFFFFFFFFFFFFFF AND PUSH20 0xFFFFFFFFFFFFFFFFFFFFFFFFFFFFFFFFFFFFFFFF AND DUP2 MSTORE PUSH1 0x20 ADD SWAP1 DUP2 MSTORE PUSH1 0x20 ADD PUSH1 0x0 KECCAK256 SWAP1 POP PUSH1 0x0 DUP2 PUSH1 0x0 ADD SLOAD GT ISZERO PUSH2 0x124C JUMPI PUSH1 0x0 PUSH2 0x1213 CALLER PUSH2 0xF96 JUMP JUMPDEST SWAP1 POP PUSH1 0x0 DUP2 GT ISZERO PUSH2 0x124A JUMPI PUSH2 0x1249 PUSH32 0x0 CALLER DUP4 PUSH2 0x19B6 JUMP JUMPDEST JUMPDEST POP JUMPDEST PUSH1 0x0 DUP4 GT ISZERO PUSH2 0x12BA JUMPI PUSH2 0x1281 PUSH32 0x0 CALLER ADDRESS DUP7 PUSH2 0x1A67 JUMP JUMPDEST DUP3 PUSH1 0x5 PUSH1 0x0 DUP3 DUP3 SLOAD PUSH2 0x1293 SWAP2 SWAP1 PUSH2 0x2114 JUMP JUMPDEST SWAP3 POP POP DUP2 SWAP1 SSTORE POP PUSH2 0x12B1 DUP4 DUP3 PUSH1 0x0 ADD SLOAD PUSH2 0x19A0 SWAP1 SWAP2 SWAP1 PUSH4 0xFFFFFFFF AND JUMP JUMPDEST DUP2 PUSH1 0x0 ADD DUP2 SWAP1 SSTORE POP JUMPDEST PUSH1 0x0 DUP3 GT ISZERO PUSH2 0x1471 JUMPI CALLER PUSH20 0xFFFFFFFFFFFFFFFFFFFFFFFFFFFFFFFFFFFFFFFF AND PUSH32 0x0 PUSH20 0xFFFFFFFFFFFFFFFFFFFFFFFFFFFFFFFFFFFFFFFF AND PUSH4 0x6352211E DUP5 PUSH1 0x40 MLOAD DUP3 PUSH4 0xFFFFFFFF AND PUSH1 0xE0 SHL DUP2 MSTORE PUSH1 0x4 ADD PUSH2 0x1333 SWAP2 SWAP1 PUSH2 0x1DA7 JUMP JUMPDEST PUSH1 0x20 PUSH1 0x40 MLOAD DUP1 DUP4 SUB DUP2 DUP7 GAS STATICCALL ISZERO DUP1 ISZERO PUSH2 0x1350 JUMPI RETURNDATASIZE PUSH1 0x0 DUP1 RETURNDATACOPY RETURNDATASIZE PUSH1 0x0 REVERT JUMPDEST POP POP POP POP PUSH1 0x40 MLOAD RETURNDATASIZE PUSH1 0x1F NOT PUSH1 0x1F DUP3 ADD AND DUP3 ADD DUP1 PUSH1 0x40 MSTORE POP DUP2 ADD SWAP1 PUSH2 0x1374 SWAP2 SWAP1 PUSH2 0x20BE JUMP JUMPDEST PUSH20 0xFFFFFFFFFFFFFFFFFFFFFFFFFFFFFFFFFFFFFFFF AND EQ PUSH2 0x1394 JUMPI PUSH1 0x0 DUP1 REVERT JUMPDEST PUSH1 0x0 PUSH1 0x1 PUSH1 0x0 CALLER PUSH20 0xFFFFFFFFFFFFFFFFFFFFFFFFFFFFFFFFFFFFFFFF AND PUSH20 0xFFFFFFFFFFFFFFFFFFFFFFFFFFFFFFFFFFFFFFFF AND DUP2 MSTORE PUSH1 0x20 ADD SWAP1 DUP2 MSTORE PUSH1 0x20 ADD PUSH1 0x0 KECCAK256 SLOAD EQ ISZERO PUSH2 0x1421 JUMPI DUP2 PUSH1 0x1 PUSH1 0x0 CALLER PUSH20 0xFFFFFFFFFFFFFFFFFFFFFFFFFFFFFFFFFFFFFFFF AND PUSH20 0xFFFFFFFFFFFFFFFFFFFFFFFFFFFFFFFFFFFFFFFF AND DUP2 MSTORE PUSH1 0x20 ADD SWAP1 DUP2 MSTORE PUSH1 0x20 ADD PUSH1 0x0 KECCAK256 DUP2 SWAP1 SSTORE POP JUMPDEST DUP2 PUSH1 0x1 PUSH1 0x0 CALLER PUSH20 0xFFFFFFFFFFFFFFFFFFFFFFFFFFFFFFFFFFFFFFFF AND PUSH20 0xFFFFFFFFFFFFFFFFFFFFFFFFFFFFFFFFFFFFFFFF AND DUP2 MSTORE PUSH1 0x20 ADD SWAP1 DUP2 MSTORE PUSH1 0x20 ADD PUSH1 0x0 KECCAK256 SLOAD EQ PUSH2 0x146C JUMPI PUSH1 0x0 DUP1 REVERT JUMPDEST PUSH2 0x14B4 JUMP JUMPDEST PUSH1 0x1 PUSH1 0x0 CALLER PUSH20 0xFFFFFFFFFFFFFFFFFFFFFFFFFFFFFFFFFFFFFFFF AND PUSH20 0xFFFFFFFFFFFFFFFFFFFFFFFFFFFFFFFFFFFFFFFF AND DUP2 MSTORE PUSH1 0x20 ADD SWAP1 DUP2 MSTORE PUSH1 0x20 ADD PUSH1 0x0 KECCAK256 SLOAD SWAP2 POP JUMPDEST PUSH2 0x14E4 PUSH5 0xE8D4A51000 PUSH2 0x14D6 PUSH1 0x3 SLOAD DUP5 PUSH1 0x0 ADD SLOAD PUSH2 0x1945 SWAP1 SWAP2 SWAP1 PUSH4 0xFFFFFFFF AND JUMP JUMPDEST PUSH2 0x195B SWAP1 SWAP2 SWAP1 PUSH4 0xFFFFFFFF AND JUMP JUMPDEST DUP2 PUSH1 0x1 ADD DUP2 SWAP1 SSTORE POP CALLER PUSH20 0xFFFFFFFFFFFFFFFFFFFFFFFFFFFFFFFFFFFFFFFF AND PUSH32 0x90890809C654F11D6E72A28FA60149770A0D11EC6C92319D6CEB2BB0A4EA1A15 DUP4 DUP6 PUSH1 0x40 MLOAD PUSH2 0x1534 SWAP3 SWAP2 SWAP1 PUSH2 0x1E52 JUMP JUMPDEST PUSH1 0x40 MLOAD DUP1 SWAP2 SUB SWAP1 LOG2 POP PUSH1 0x1 PUSH1 0x0 DUP2 SWAP1 SSTORE POP POP POP JUMP JUMPDEST PUSH1 0x4 SLOAD NUMBER GT PUSH2 0x1557 JUMPI PUSH2 0x15FF JUMP JUMPDEST PUSH1 0x0 PUSH1 0x5 SLOAD EQ ISZERO PUSH2 0x156E JUMPI NUMBER PUSH1 0x4 DUP2 SWAP1 SSTORE POP PUSH2 0x15FF JUMP JUMPDEST PUSH1 0x0 PUSH1 0x2 SLOAD GT PUSH2 0x157D JUMPI PUSH2 0x15FF JUMP JUMPDEST PUSH1 0x0 PUSH2 0x1594 PUSH1 0x4 SLOAD NUMBER PUSH2 0x198A SWAP1 SWAP2 SWAP1 PUSH4 0xFFFFFFFF AND JUMP JUMPDEST SWAP1 POP PUSH1 0x0 PUSH2 0x15AD DUP3 PUSH1 0x2 SLOAD PUSH2 0x1945 SWAP1 SWAP2 SWAP1 PUSH4 0xFFFFFFFF AND JUMP JUMPDEST SWAP1 POP PUSH2 0x15EF PUSH2 0x15DE PUSH1 0x5 SLOAD PUSH2 0x15D0 PUSH5 0xE8D4A51000 DUP6 PUSH2 0x1945 SWAP1 SWAP2 SWAP1 PUSH4 0xFFFFFFFF AND JUMP JUMPDEST PUSH2 0x195B SWAP1 SWAP2 SWAP1 PUSH4 0xFFFFFFFF AND JUMP JUMPDEST PUSH1 0x3 SLOAD PUSH2 0x19A0 SWAP1 SWAP2 SWAP1 PUSH4 0xFFFFFFFF AND JUMP JUMPDEST PUSH1 0x3 DUP2 SWAP1 SSTORE POP NUMBER PUSH1 0x4 DUP2 SWAP1 SSTORE POP POP POP JUMPDEST JUMP JUMPDEST PUSH32 0x0 DUP2 JUMP JUMPDEST PUSH1 0x1 PUSH1 0x20 MSTORE DUP1 PUSH1 0x0 MSTORE PUSH1 0x40 PUSH1 0x0 KECCAK256 PUSH1 0x0 SWAP2 POP SWAP1 POP SLOAD DUP2 JUMP JUMPDEST PUSH1 0x2 PUSH1 0x0 SLOAD EQ ISZERO PUSH2 0x1683 JUMPI PUSH1 0x40 MLOAD PUSH32 0x8C379A000000000000000000000000000000000000000000000000000000000 DUP2 MSTORE PUSH1 0x4 ADD PUSH2 0x167A SWAP1 PUSH2 0x229F JUMP JUMPDEST PUSH1 0x40 MLOAD DUP1 SWAP2 SUB SWAP1 REVERT JUMPDEST PUSH1 0x2 PUSH1 0x0 DUP2 SWAP1 SSTORE POP PUSH1 0x0 PUSH1 0x6 PUSH1 0x0 CALLER PUSH20 0xFFFFFFFFFFFFFFFFFFFFFFFFFFFFFFFFFFFFFFFF AND PUSH20 0xFFFFFFFFFFFFFFFFFFFFFFFFFFFFFFFFFFFFFFFF AND DUP2 MSTORE PUSH1 0x20 ADD SWAP1 DUP2 MSTORE PUSH1 0x20 ADD PUSH1 0x0 KECCAK256 SWAP1 POP DUP3 DUP2 PUSH1 0x0 ADD SLOAD LT ISZERO PUSH2 0x1715 JUMPI PUSH1 0x40 MLOAD PUSH32 0x8C379A000000000000000000000000000000000000000000000000000000000 DUP2 MSTORE PUSH1 0x4 ADD PUSH2 0x170C SWAP1 PUSH2 0x2377 JUMP JUMPDEST PUSH1 0x40 MLOAD DUP1 SWAP2 SUB SWAP1 REVERT JUMPDEST PUSH2 0x171D PUSH2 0x1549 JUMP JUMPDEST PUSH1 0x0 PUSH2 0x1728 CALLER PUSH2 0xF96 JUMP JUMPDEST SWAP1 POP PUSH1 0x0 DUP2 GT ISZERO PUSH2 0x175F JUMPI PUSH2 0x175E PUSH32 0x0 CALLER DUP4 PUSH2 0x19B6 JUMP JUMPDEST JUMPDEST PUSH1 0x0 DUP5 GT ISZERO PUSH2 0x17CE JUMPI PUSH2 0x177F DUP5 DUP4 PUSH1 0x0 ADD SLOAD PUSH2 0x198A SWAP1 SWAP2 SWAP1 PUSH4 0xFFFFFFFF AND JUMP JUMPDEST DUP3 PUSH1 0x0 ADD DUP2 SWAP1 SSTORE POP PUSH2 0x179C DUP5 PUSH1 0x5 SLOAD PUSH2 0x198A SWAP1 SWAP2 SWAP1 PUSH4 0xFFFFFFFF AND JUMP JUMPDEST PUSH1 0x5 DUP2 SWAP1 SSTORE POP PUSH2 0x17CD PUSH32 0x0 CALLER DUP7 PUSH2 0x1BA0 JUMP JUMPDEST JUMPDEST PUSH2 0x17FE PUSH5 0xE8D4A51000 PUSH2 0x17F0 PUSH1 0x3 SLOAD DUP6 PUSH1 0x0 ADD SLOAD PUSH2 0x1945 SWAP1 SWAP2 SWAP1 PUSH4 0xFFFFFFFF AND JUMP JUMPDEST PUSH2 0x195B SWAP1 SWAP2 SWAP1 PUSH4 0xFFFFFFFF AND JUMP JUMPDEST DUP3 PUSH1 0x1 ADD DUP2 SWAP1 SSTORE POP PUSH1 0x0 DUP4 GT ISZERO PUSH2 0x18A4 JUMPI PUSH1 0x1 PUSH1 0x0 CALLER PUSH20 0xFFFFFFFFFFFFFFFFFFFFFFFFFFFFFFFFFFFFFFFF AND PUSH20 0xFFFFFFFFFFFFFFFFFFFFFFFFFFFFFFFFFFFFFFFF AND DUP2 MSTORE PUSH1 0x20 ADD SWAP1 DUP2 MSTORE PUSH1 0x20 ADD PUSH1 0x0 KECCAK256 SLOAD DUP4 EQ PUSH2 0x185A JUMPI PUSH1 0x0 DUP1 REVERT JUMPDEST PUSH1 0x0 PUSH1 0x1 PUSH1 0x0 CALLER PUSH20 0xFFFFFFFFFFFFFFFFFFFFFFFFFFFFFFFFFFFFFFFF AND PUSH20 0xFFFFFFFFFFFFFFFFFFFFFFFFFFFFFFFFFFFFFFFF AND DUP2 MSTORE PUSH1 0x20 ADD SWAP1 DUP2 MSTORE PUSH1 0x20 ADD PUSH1 0x0 KECCAK256 DUP2 SWAP1 SSTORE POP PUSH2 0x18E7 JUMP JUMPDEST PUSH1 0x1 PUSH1 0x0 CALLER PUSH20 0xFFFFFFFFFFFFFFFFFFFFFFFFFFFFFFFFFFFFFFFF AND PUSH20 0xFFFFFFFFFFFFFFFFFFFFFFFFFFFFFFFFFFFFFFFF AND DUP2 MSTORE PUSH1 0x20 ADD SWAP1 DUP2 MSTORE PUSH1 0x20 ADD PUSH1 0x0 KECCAK256 SLOAD SWAP3 POP JUMPDEST CALLER PUSH20 0xFFFFFFFFFFFFFFFFFFFFFFFFFFFFFFFFFFFFFFFF AND PUSH32 0xF279E6A1F5E320CCA91135676D9CB6E44CA8A08C0B88342BCDB1144F6511B568 DUP5 DUP7 PUSH1 0x40 MLOAD PUSH2 0x192F SWAP3 SWAP2 SWAP1 PUSH2 0x1E52 JUMP JUMPDEST PUSH1 0x40 MLOAD DUP1 SWAP2 SUB SWAP1 LOG2 POP POP PUSH1 0x1 PUSH1 0x0 DUP2 SWAP1 SSTORE POP POP POP JUMP JUMPDEST PUSH1 0x0 DUP2 DUP4 PUSH2 0x1953 SWAP2 SWAP1 PUSH2 0x1FAD JUMP JUMPDEST SWAP1 POP SWAP3 SWAP2 POP POP JUMP JUMPDEST PUSH1 0x0 DUP2 DUP4 PUSH2 0x1969 SWAP2 SWAP1 PUSH2 0x2036 JUMP JUMPDEST SWAP1 POP SWAP3 SWAP2 POP POP JUMP JUMPDEST PUSH1 0x0 DUP2 DUP4 LT PUSH2 0x1980 JUMPI DUP2 PUSH2 0x1982 JUMP JUMPDEST DUP3 JUMPDEST SWAP1 POP SWAP3 SWAP2 POP POP JUMP JUMPDEST PUSH1 0x0 DUP2 DUP4 PUSH2 0x1998 SWAP2 SWAP1 PUSH2 0x2397 JUMP JUMPDEST SWAP1 POP SWAP3 SWAP2 POP POP JUMP JUMPDEST PUSH1 0x0 DUP2 DUP4 PUSH2 0x19AE SWAP2 SWAP1 PUSH2 0x2114 JUMP JUMPDEST SWAP1 POP SWAP3 SWAP2 POP POP JUMP JUMPDEST PUSH2 0x19C0 DUP4 DUP3 PUSH2 0x1CD6 JUMP JUMPDEST PUSH1 0x0 DUP4 PUSH20 0xFFFFFFFFFFFFFFFFFFFFFFFFFFFFFFFFFFFFFFFF AND PUSH4 0x70A08231 ADDRESS PUSH1 0x40 MLOAD DUP3 PUSH4 0xFFFFFFFF AND PUSH1 0xE0 SHL DUP2 MSTORE PUSH1 0x4 ADD PUSH2 0x19FB SWAP2 SWAP1 PUSH2 0x1EE3 JUMP JUMPDEST PUSH1 0x20 PUSH1 0x40 MLOAD DUP1 DUP4 SUB DUP2 DUP7 GAS STATICCALL ISZERO DUP1 ISZERO PUSH2 0x1A18 JUMPI RETURNDATASIZE PUSH1 0x0 DUP1 RETURNDATACOPY RETURNDATASIZE PUSH1 0x0 REVERT JUMPDEST POP POP POP POP PUSH1 0x40 MLOAD RETURNDATASIZE PUSH1 0x1F NOT PUSH1 0x1F DUP3 ADD AND DUP3 ADD DUP1 PUSH1 0x40 MSTORE POP DUP2 ADD SWAP1 PUSH2 0x1A3C SWAP2 SWAP1 PUSH2 0x207C JUMP JUMPDEST SWAP1 POP DUP1 DUP3 GT ISZERO PUSH2 0x1A4A JUMPI DUP1 SWAP2 POP JUMPDEST PUSH2 0x1A54 DUP4 DUP4 PUSH2 0x55B JUMP JUMPDEST SWAP2 POP PUSH2 0x1A61 DUP5 DUP5 DUP5 PUSH2 0x1BA0 JUMP JUMPDEST POP POP POP POP JUMP JUMPDEST PUSH1 0x0 DUP1 DUP6 PUSH20 0xFFFFFFFFFFFFFFFFFFFFFFFFFFFFFFFFFFFFFFFF AND PUSH4 0x23B872DD DUP7 DUP7 DUP7 PUSH1 0x40 MLOAD PUSH1 0x24 ADD PUSH2 0x1A9B SWAP4 SWAP3 SWAP2 SWAP1 PUSH2 0x23CB JUMP JUMPDEST PUSH1 0x40 MLOAD PUSH1 0x20 DUP2 DUP4 SUB SUB DUP2 MSTORE SWAP1 PUSH1 0x40 MSTORE SWAP1 PUSH1 0xE0 SHL PUSH1 0x20 DUP3 ADD DUP1 MLOAD PUSH28 0xFFFFFFFFFFFFFFFFFFFFFFFFFFFFFFFFFFFFFFFFFFFFFFFFFFFFFFFF DUP4 DUP2 DUP4 AND OR DUP4 MSTORE POP POP POP POP PUSH1 0x40 MLOAD PUSH2 0x1AE9 SWAP2 SWAP1 PUSH2 0x247C JUMP JUMPDEST PUSH1 0x0 PUSH1 0x40 MLOAD DUP1 DUP4 SUB DUP2 PUSH1 0x0 DUP7 GAS CALL SWAP2 POP POP RETURNDATASIZE DUP1 PUSH1 0x0 DUP2 EQ PUSH2 0x1B26 JUMPI PUSH1 0x40 MLOAD SWAP2 POP PUSH1 0x1F NOT PUSH1 0x3F RETURNDATASIZE ADD AND DUP3 ADD PUSH1 0x40 MSTORE RETURNDATASIZE DUP3 MSTORE RETURNDATASIZE PUSH1 0x0 PUSH1 0x20 DUP5 ADD RETURNDATACOPY PUSH2 0x1B2B JUMP JUMPDEST PUSH1 0x60 SWAP2 POP JUMPDEST POP SWAP2 POP SWAP2 POP DUP2 DUP1 ISZERO PUSH2 0x1B59 JUMPI POP PUSH1 0x0 DUP2 MLOAD EQ DUP1 PUSH2 0x1B58 JUMPI POP DUP1 DUP1 PUSH1 0x20 ADD SWAP1 MLOAD DUP2 ADD SWAP1 PUSH2 0x1B57 SWAP2 SWAP1 PUSH2 0x24CB JUMP JUMPDEST JUMPDEST JUMPDEST PUSH2 0x1B98 JUMPI PUSH1 0x40 MLOAD PUSH32 0x8C379A000000000000000000000000000000000000000000000000000000000 DUP2 MSTORE PUSH1 0x4 ADD PUSH2 0x1B8F SWAP1 PUSH2 0x256A JUMP JUMPDEST PUSH1 0x40 MLOAD DUP1 SWAP2 SUB SWAP1 REVERT JUMPDEST POP POP POP POP POP POP JUMP JUMPDEST PUSH1 0x0 DUP1 DUP5 PUSH20 0xFFFFFFFFFFFFFFFFFFFFFFFFFFFFFFFFFFFFFFFF AND PUSH4 0xA9059CBB DUP6 DUP6 PUSH1 0x40 MLOAD PUSH1 0x24 ADD PUSH2 0x1BD2 SWAP3 SWAP2 SWAP1 PUSH2 0x258A JUMP JUMPDEST PUSH1 0x40 MLOAD PUSH1 0x20 DUP2 DUP4 SUB SUB DUP2 MSTORE SWAP1 PUSH1 0x40 MSTORE SWAP1 PUSH1 0xE0 SHL PUSH1 0x20 DUP3 ADD DUP1 MLOAD PUSH28 0xFFFFFFFFFFFFFFFFFFFFFFFFFFFFFFFFFFFFFFFFFFFFFFFFFFFFFFFF DUP4 DUP2 DUP4 AND OR DUP4 MSTORE POP POP POP POP PUSH1 0x40 MLOAD PUSH2 0x1C20 SWAP2 SWAP1 PUSH2 0x247C JUMP JUMPDEST PUSH1 0x0 PUSH1 0x40 MLOAD DUP1 DUP4 SUB DUP2 PUSH1 0x0 DUP7 GAS CALL SWAP2 POP POP RETURNDATASIZE DUP1 PUSH1 0x0 DUP2 EQ PUSH2 0x1C5D JUMPI PUSH1 0x40 MLOAD SWAP2 POP PUSH1 0x1F NOT PUSH1 0x3F RETURNDATASIZE ADD AND DUP3 ADD PUSH1 0x40 MSTORE RETURNDATASIZE DUP3 MSTORE RETURNDATASIZE PUSH1 0x0 PUSH1 0x20 DUP5 ADD RETURNDATACOPY PUSH2 0x1C62 JUMP JUMPDEST PUSH1 0x60 SWAP2 POP JUMPDEST POP SWAP2 POP SWAP2 POP DUP2 DUP1 ISZERO PUSH2 0x1C90 JUMPI POP PUSH1 0x0 DUP2 MLOAD EQ DUP1 PUSH2 0x1C8F JUMPI POP DUP1 DUP1 PUSH1 0x20 ADD SWAP1 MLOAD DUP2 ADD SWAP1 PUSH2 0x1C8E SWAP2 SWAP1 PUSH2 0x24CB JUMP JUMPDEST JUMPDEST JUMPDEST PUSH2 0x1CCF JUMPI PUSH1 0x40 MLOAD PUSH32 0x8C379A000000000000000000000000000000000000000000000000000000000 DUP2 MSTORE PUSH1 0x4 ADD PUSH2 0x1CC6 SWAP1 PUSH2 0x25FF JUMP JUMPDEST PUSH1 0x40 MLOAD DUP1 SWAP2 SUB SWAP1 REVERT JUMPDEST POP POP POP POP POP JUMP JUMPDEST PUSH1 0x0 DUP3 PUSH20 0xFFFFFFFFFFFFFFFFFFFFFFFFFFFFFFFFFFFFFFFF AND PUSH4 0x70A08231 ADDRESS PUSH1 0x40 MLOAD DUP3 PUSH4 0xFFFFFFFF AND PUSH1 0xE0 SHL DUP2 MSTORE PUSH1 0x4 ADD PUSH2 0x1D11 SWAP2 SWAP1 PUSH2 0x1EE3 JUMP JUMPDEST PUSH1 0x20 PUSH1 0x40 MLOAD DUP1 DUP4 SUB DUP2 DUP7 GAS STATICCALL ISZERO DUP1 ISZERO PUSH2 0x1D2E JUMPI RETURNDATASIZE PUSH1 0x0 DUP1 RETURNDATACOPY RETURNDATASIZE PUSH1 0x0 REVERT JUMPDEST POP POP POP POP PUSH1 0x40 MLOAD RETURNDATASIZE PUSH1 0x1F NOT PUSH1 0x1F DUP3 ADD AND DUP3 ADD DUP1 PUSH1 0x40 MSTORE POP DUP2 ADD SWAP1 PUSH2 0x1D52 SWAP2 SWAP1 PUSH2 0x207C JUMP JUMPDEST SWAP1 POP DUP2 DUP2 LT ISZERO PUSH2 0x1D89 JUMPI PUSH2 0x1D88 DUP4 PUSH32 0x0 ADDRESS DUP6 PUSH2 0x1A67 JUMP JUMPDEST JUMPDEST POP POP POP JUMP JUMPDEST PUSH1 0x0 DUP2 SWAP1 POP SWAP2 SWAP1 POP JUMP JUMPDEST PUSH2 0x1DA1 DUP2 PUSH2 0x1D8E JUMP JUMPDEST DUP3 MSTORE POP POP JUMP JUMPDEST PUSH1 0x0 PUSH1 0x20 DUP3 ADD SWAP1 POP PUSH2 0x1DBC PUSH1 0x0 DUP4 ADD DUP5 PUSH2 0x1D98 JUMP JUMPDEST SWAP3 SWAP2 POP POP JUMP JUMPDEST PUSH1 0x0 DUP1 REVERT JUMPDEST PUSH1 0x0 PUSH20 0xFFFFFFFFFFFFFFFFFFFFFFFFFFFFFFFFFFFFFFFF DUP3 AND SWAP1 POP SWAP2 SWAP1 POP JUMP JUMPDEST PUSH1 0x0 PUSH2 0x1DF2 DUP3 PUSH2 0x1DC7 JUMP JUMPDEST SWAP1 POP SWAP2 SWAP1 POP JUMP JUMPDEST PUSH2 0x1E02 DUP2 PUSH2 0x1DE7 JUMP JUMPDEST DUP2 EQ PUSH2 0x1E0D JUMPI PUSH1 0x0 DUP1 REVERT JUMPDEST POP JUMP JUMPDEST PUSH1 0x0 DUP2 CALLDATALOAD SWAP1 POP PUSH2 0x1E1F DUP2 PUSH2 0x1DF9 JUMP JUMPDEST SWAP3 SWAP2 POP POP JUMP JUMPDEST PUSH1 0x0 PUSH1 0x20 DUP3 DUP5 SUB SLT ISZERO PUSH2 0x1E3B JUMPI PUSH2 0x1E3A PUSH2 0x1DC2 JUMP JUMPDEST JUMPDEST PUSH1 0x0 PUSH2 0x1E49 DUP5 DUP3 DUP6 ADD PUSH2 0x1E10 JUMP JUMPDEST SWAP2 POP POP SWAP3 SWAP2 POP POP JUMP JUMPDEST PUSH1 0x0 PUSH1 0x40 DUP3 ADD SWAP1 POP PUSH2 0x1E67 PUSH1 0x0 DUP4 ADD DUP6 PUSH2 0x1D98 JUMP JUMPDEST PUSH2 0x1E74 PUSH1 0x20 DUP4 ADD DUP5 PUSH2 0x1D98 JUMP JUMPDEST SWAP4 SWAP3 POP POP POP JUMP JUMPDEST PUSH2 0x1E84 DUP2 PUSH2 0x1D8E JUMP JUMPDEST DUP2 EQ PUSH2 0x1E8F JUMPI PUSH1 0x0 DUP1 REVERT JUMPDEST POP JUMP JUMPDEST PUSH1 0x0 DUP2 CALLDATALOAD SWAP1 POP PUSH2 0x1EA1 DUP2 PUSH2 0x1E7B JUMP JUMPDEST SWAP3 SWAP2 POP POP JUMP JUMPDEST PUSH1 0x0 PUSH1 0x20 DUP3 DUP5 SUB SLT ISZERO PUSH2 0x1EBD JUMPI PUSH2 0x1EBC PUSH2 0x1DC2 JUMP JUMPDEST JUMPDEST PUSH1 0x0 PUSH2 0x1ECB DUP5 DUP3 DUP6 ADD PUSH2 0x1E92 JUMP JUMPDEST SWAP2 POP POP SWAP3 SWAP2 POP POP JUMP JUMPDEST PUSH2 0x1EDD DUP2 PUSH2 0x1DE7 JUMP JUMPDEST DUP3 MSTORE POP POP JUMP JUMPDEST PUSH1 0x0 PUSH1 0x20 DUP3 ADD SWAP1 POP PUSH2 0x1EF8 PUSH1 0x0 DUP4 ADD DUP5 PUSH2 0x1ED4 JUMP JUMPDEST SWAP3 SWAP2 POP POP JUMP JUMPDEST PUSH1 0x0 DUP1 PUSH1 0x40 DUP4 DUP6 SUB SLT ISZERO PUSH2 0x1F15 JUMPI PUSH2 0x1F14 PUSH2 0x1DC2 JUMP JUMPDEST JUMPDEST PUSH1 0x0 PUSH2 0x1F23 DUP6 DUP3 DUP7 ADD PUSH2 0x1E10 JUMP JUMPDEST SWAP3 POP POP PUSH1 0x20 PUSH2 0x1F34 DUP6 DUP3 DUP7 ADD PUSH2 0x1E92 JUMP JUMPDEST SWAP2 POP POP SWAP3 POP SWAP3 SWAP1 POP JUMP JUMPDEST PUSH1 0x0 DUP1 PUSH1 0x40 DUP4 DUP6 SUB SLT ISZERO PUSH2 0x1F55 JUMPI PUSH2 0x1F54 PUSH2 0x1DC2 JUMP JUMPDEST JUMPDEST PUSH1 0x0 PUSH2 0x1F63 DUP6 DUP3 DUP7 ADD PUSH2 0x1E92 JUMP JUMPDEST SWAP3 POP POP PUSH1 0x20 PUSH2 0x1F74 DUP6 DUP3 DUP7 ADD PUSH2 0x1E92 JUMP JUMPDEST SWAP2 POP POP SWAP3 POP SWAP3 SWAP1 POP JUMP JUMPDEST PUSH32 0x4E487B7100000000000000000000000000000000000000000000000000000000 PUSH1 0x0 MSTORE PUSH1 0x11 PUSH1 0x4 MSTORE PUSH1 0x24 PUSH1 0x0 REVERT JUMPDEST PUSH1 0x0 PUSH2 0x1FB8 DUP3 PUSH2 0x1D8E JUMP JUMPDEST SWAP2 POP PUSH2 0x1FC3 DUP4 PUSH2 0x1D8E JUMP JUMPDEST SWAP3 POP DUP2 PUSH32 0xFFFFFFFFFFFFFFFFFFFFFFFFFFFFFFFFFFFFFFFFFFFFFFFFFFFFFFFFFFFFFFFF DIV DUP4 GT DUP3 ISZERO ISZERO AND ISZERO PUSH2 0x1FFC JUMPI PUSH2 0x1FFB PUSH2 0x1F7E JUMP JUMPDEST JUMPDEST DUP3 DUP3 MUL SWAP1 POP SWAP3 SWAP2 POP POP JUMP JUMPDEST PUSH32 0x4E487B7100000000000000000000000000000000000000000000000000000000 PUSH1 0x0 MSTORE PUSH1 0x12 PUSH1 0x4 MSTORE PUSH1 0x24 PUSH1 0x0 REVERT JUMPDEST PUSH1 0x0 PUSH2 0x2041 DUP3 PUSH2 0x1D8E JUMP JUMPDEST SWAP2 POP PUSH2 0x204C DUP4 PUSH2 0x1D8E JUMP JUMPDEST SWAP3 POP DUP3 PUSH2 0x205C JUMPI PUSH2 0x205B PUSH2 0x2007 JUMP JUMPDEST JUMPDEST DUP3 DUP3 DIV SWAP1 POP SWAP3 SWAP2 POP POP JUMP JUMPDEST PUSH1 0x0 DUP2 MLOAD SWAP1 POP PUSH2 0x2076 DUP2 PUSH2 0x1E7B JUMP JUMPDEST SWAP3 SWAP2 POP POP JUMP JUMPDEST PUSH1 0x0 PUSH1 0x20 DUP3 DUP5 SUB SLT ISZERO PUSH2 0x2092 JUMPI PUSH2 0x2091 PUSH2 0x1DC2 JUMP JUMPDEST JUMPDEST PUSH1 0x0 PUSH2 0x20A0 DUP5 DUP3 DUP6 ADD PUSH2 0x2067 JUMP JUMPDEST SWAP2 POP POP SWAP3 SWAP2 POP POP JUMP JUMPDEST PUSH1 0x0 DUP2 MLOAD SWAP1 POP PUSH2 0x20B8 DUP2 PUSH2 0x1DF9 JUMP JUMPDEST SWAP3 SWAP2 POP POP JUMP JUMPDEST PUSH1 0x0 PUSH1 0x20 DUP3 DUP5 SUB SLT ISZERO PUSH2 0x20D4 JUMPI PUSH2 0x20D3 PUSH2 0x1DC2 JUMP JUMPDEST JUMPDEST PUSH1 0x0 PUSH2 0x20E2 DUP5 DUP3 DUP6 ADD PUSH2 0x20A9 JUMP JUMPDEST SWAP2 POP POP SWAP3 SWAP2 POP POP JUMP JUMPDEST PUSH1 0x0 PUSH1 0x40 DUP3 ADD SWAP1 POP PUSH2 0x2100 PUSH1 0x0 DUP4 ADD DUP6 PUSH2 0x1D98 JUMP JUMPDEST PUSH2 0x210D PUSH1 0x20 DUP4 ADD DUP5 PUSH2 0x1ED4 JUMP JUMPDEST SWAP4 SWAP3 POP POP POP JUMP JUMPDEST PUSH1 0x0 PUSH2 0x211F DUP3 PUSH2 0x1D8E JUMP JUMPDEST SWAP2 POP PUSH2 0x212A DUP4 PUSH2 0x1D8E JUMP JUMPDEST SWAP3 POP DUP3 PUSH32 0xFFFFFFFFFFFFFFFFFFFFFFFFFFFFFFFFFFFFFFFFFFFFFFFFFFFFFFFFFFFFFFFF SUB DUP3 GT ISZERO PUSH2 0x215F JUMPI PUSH2 0x215E PUSH2 0x1F7E JUMP JUMPDEST JUMPDEST DUP3 DUP3 ADD SWAP1 POP SWAP3 SWAP2 POP POP JUMP JUMPDEST PUSH1 0x0 DUP3 DUP3 MSTORE PUSH1 0x20 DUP3 ADD SWAP1 POP SWAP3 SWAP2 POP POP JUMP JUMPDEST PUSH32 0x6F6E6C7920626F6F737400000000000000000000000000000000000000000000 PUSH1 0x0 DUP3 ADD MSTORE POP JUMP JUMPDEST PUSH1 0x0 PUSH2 0x21B1 PUSH1 0xA DUP4 PUSH2 0x216A JUMP JUMPDEST SWAP2 POP PUSH2 0x21BC DUP3 PUSH2 0x217B JUMP JUMPDEST PUSH1 0x20 DUP3 ADD SWAP1 POP SWAP2 SWAP1 POP JUMP JUMPDEST PUSH1 0x0 PUSH1 0x20 DUP3 ADD SWAP1 POP DUP2 DUP2 SUB PUSH1 0x0 DUP4 ADD MSTORE PUSH2 0x21E0 DUP2 PUSH2 0x21A4 JUMP JUMPDEST SWAP1 POP SWAP2 SWAP1 POP JUMP JUMPDEST PUSH32 0x6E6F207374616B65000000000000000000000000000000000000000000000000 PUSH1 0x0 DUP3 ADD MSTORE POP JUMP JUMPDEST PUSH1 0x0 PUSH2 0x221D PUSH1 0x8 DUP4 PUSH2 0x216A JUMP JUMPDEST SWAP2 POP PUSH2 0x2228 DUP3 PUSH2 0x21E7 JUMP JUMPDEST PUSH1 0x20 DUP3 ADD SWAP1 POP SWAP2 SWAP1 POP JUMP JUMPDEST PUSH1 0x0 PUSH1 0x20 DUP3 ADD SWAP1 POP DUP2 DUP2 SUB PUSH1 0x0 DUP4 ADD MSTORE PUSH2 0x224C DUP2 PUSH2 0x2210 JUMP JUMPDEST SWAP1 POP SWAP2 SWAP1 POP JUMP JUMPDEST PUSH32 0x5265656E7472616E637947756172643A207265656E7472616E742063616C6C00 PUSH1 0x0 DUP3 ADD MSTORE POP JUMP JUMPDEST PUSH1 0x0 PUSH2 0x2289 PUSH1 0x1F DUP4 PUSH2 0x216A JUMP JUMPDEST SWAP2 POP PUSH2 0x2294 DUP3 PUSH2 0x2253 JUMP JUMPDEST PUSH1 0x20 DUP3 ADD SWAP1 POP SWAP2 SWAP1 POP JUMP JUMPDEST PUSH1 0x0 PUSH1 0x20 DUP3 ADD SWAP1 POP DUP2 DUP2 SUB PUSH1 0x0 DUP4 ADD MSTORE PUSH2 0x22B8 DUP2 PUSH2 0x227C JUMP JUMPDEST SWAP1 POP SWAP2 SWAP1 POP JUMP JUMPDEST PUSH32 0x616D6F756E742069732030000000000000000000000000000000000000000000 PUSH1 0x0 DUP3 ADD MSTORE POP JUMP JUMPDEST PUSH1 0x0 PUSH2 0x22F5 PUSH1 0xB DUP4 PUSH2 0x216A JUMP JUMPDEST SWAP2 POP PUSH2 0x2300 DUP3 PUSH2 0x22BF JUMP JUMPDEST PUSH1 0x20 DUP3 ADD SWAP1 POP SWAP2 SWAP1 POP JUMP JUMPDEST PUSH1 0x0 PUSH1 0x20 DUP3 ADD SWAP1 POP DUP2 DUP2 SUB PUSH1 0x0 DUP4 ADD MSTORE PUSH2 0x2324 DUP2 PUSH2 0x22E8 JUMP JUMPDEST SWAP1 POP SWAP2 SWAP1 POP JUMP JUMPDEST PUSH32 0x7769746864726177537761703A206E6F7420676F6F6400000000000000000000 PUSH1 0x0 DUP3 ADD MSTORE POP JUMP JUMPDEST PUSH1 0x0 PUSH2 0x2361 PUSH1 0x16 DUP4 PUSH2 0x216A JUMP JUMPDEST SWAP2 POP PUSH2 0x236C DUP3 PUSH2 0x232B JUMP JUMPDEST PUSH1 0x20 DUP3 ADD SWAP1 POP SWAP2 SWAP1 POP JUMP JUMPDEST PUSH1 0x0 PUSH1 0x20 DUP3 ADD SWAP1 POP DUP2 DUP2 SUB PUSH1 0x0 DUP4 ADD MSTORE PUSH2 0x2390 DUP2 PUSH2 0x2354 JUMP JUMPDEST SWAP1 POP SWAP2 SWAP1 POP JUMP JUMPDEST PUSH1 0x0 PUSH2 0x23A2 DUP3 PUSH2 0x1D8E JUMP JUMPDEST SWAP2 POP PUSH2 0x23AD DUP4 PUSH2 0x1D8E JUMP JUMPDEST SWAP3 POP DUP3 DUP3 LT ISZERO PUSH2 0x23C0 JUMPI PUSH2 0x23BF PUSH2 0x1F7E JUMP JUMPDEST JUMPDEST DUP3 DUP3 SUB SWAP1 POP SWAP3 SWAP2 POP POP JUMP JUMPDEST PUSH1 0x0 PUSH1 0x60 DUP3 ADD SWAP1 POP PUSH2 0x23E0 PUSH1 0x0 DUP4 ADD DUP7 PUSH2 0x1ED4 JUMP JUMPDEST PUSH2 0x23ED PUSH1 0x20 DUP4 ADD DUP6 PUSH2 0x1ED4 JUMP JUMPDEST PUSH2 0x23FA PUSH1 0x40 DUP4 ADD DUP5 PUSH2 0x1D98 JUMP JUMPDEST SWAP5 SWAP4 POP POP POP POP JUMP JUMPDEST PUSH1 0x0 DUP2 MLOAD SWAP1 POP SWAP2 SWAP1 POP JUMP JUMPDEST PUSH1 0x0 DUP2 SWAP1 POP SWAP3 SWAP2 POP POP JUMP JUMPDEST PUSH1 0x0 JUMPDEST DUP4 DUP2 LT ISZERO PUSH2 0x2436 JUMPI DUP1 DUP3 ADD MLOAD DUP2 DUP5 ADD MSTORE PUSH1 0x20 DUP2 ADD SWAP1 POP PUSH2 0x241B JUMP JUMPDEST DUP4 DUP2 GT ISZERO PUSH2 0x2445 JUMPI PUSH1 0x0 DUP5 DUP5 ADD MSTORE JUMPDEST POP POP POP POP JUMP JUMPDEST PUSH1 0x0 PUSH2 0x2456 DUP3 PUSH2 0x2402 JUMP JUMPDEST PUSH2 0x2460 DUP2 DUP6 PUSH2 0x240D JUMP JUMPDEST SWAP4 POP PUSH2 0x2470 DUP2 DUP6 PUSH1 0x20 DUP7 ADD PUSH2 0x2418 JUMP JUMPDEST DUP1 DUP5 ADD SWAP2 POP POP SWAP3 SWAP2 POP POP JUMP JUMPDEST PUSH1 0x0 PUSH2 0x2488 DUP3 DUP5 PUSH2 0x244B JUMP JUMPDEST SWAP2 POP DUP2 SWAP1 POP SWAP3 SWAP2 POP POP JUMP JUMPDEST PUSH1 0x0 DUP2 ISZERO ISZERO SWAP1 POP SWAP2 SWAP1 POP JUMP JUMPDEST PUSH2 0x24A8 DUP2 PUSH2 0x2493 JUMP JUMPDEST DUP2 EQ PUSH2 0x24B3 JUMPI PUSH1 0x0 DUP1 REVERT JUMPDEST POP JUMP JUMPDEST PUSH1 0x0 DUP2 MLOAD SWAP1 POP PUSH2 0x24C5 DUP2 PUSH2 0x249F JUMP JUMPDEST SWAP3 SWAP2 POP POP JUMP JUMPDEST PUSH1 0x0 PUSH1 0x20 DUP3 DUP5 SUB SLT ISZERO PUSH2 0x24E1 JUMPI PUSH2 0x24E0 PUSH2 0x1DC2 JUMP JUMPDEST JUMPDEST PUSH1 0x0 PUSH2 0x24EF DUP5 DUP3 DUP6 ADD PUSH2 0x24B6 JUMP JUMPDEST SWAP2 POP POP SWAP3 SWAP2 POP POP JUMP JUMPDEST PUSH32 0x5472616E7366657248656C7065723A205452414E534645525F46524F4D5F4641 PUSH1 0x0 DUP3 ADD MSTORE PUSH32 0x494C454400000000000000000000000000000000000000000000000000000000 PUSH1 0x20 DUP3 ADD MSTORE POP JUMP JUMPDEST PUSH1 0x0 PUSH2 0x2554 PUSH1 0x24 DUP4 PUSH2 0x216A JUMP JUMPDEST SWAP2 POP PUSH2 0x255F DUP3 PUSH2 0x24F8 JUMP JUMPDEST PUSH1 0x40 DUP3 ADD SWAP1 POP SWAP2 SWAP1 POP JUMP JUMPDEST PUSH1 0x0 PUSH1 0x20 DUP3 ADD SWAP1 POP DUP2 DUP2 SUB PUSH1 0x0 DUP4 ADD MSTORE PUSH2 0x2583 DUP2 PUSH2 0x2547 JUMP JUMPDEST SWAP1 POP SWAP2 SWAP1 POP JUMP JUMPDEST PUSH1 0x0 PUSH1 0x40 DUP3 ADD SWAP1 POP PUSH2 0x259F PUSH1 0x0 DUP4 ADD DUP6 PUSH2 0x1ED4 JUMP JUMPDEST PUSH2 0x25AC PUSH1 0x20 DUP4 ADD DUP5 PUSH2 0x1D98 JUMP JUMPDEST SWAP4 SWAP3 POP POP POP JUMP JUMPDEST PUSH32 0x5472616E7366657248656C7065723A205452414E534645525F4641494C454400 PUSH1 0x0 DUP3 ADD MSTORE POP JUMP JUMPDEST PUSH1 0x0 PUSH2 0x25E9 PUSH1 0x1F DUP4 PUSH2 0x216A JUMP JUMPDEST SWAP2 POP PUSH2 0x25F4 DUP3 PUSH2 0x25B3 JUMP JUMPDEST PUSH1 0x20 DUP3 ADD SWAP1 POP SWAP2 SWAP1 POP JUMP JUMPDEST PUSH1 0x0 PUSH1 0x20 DUP3 ADD SWAP1 POP DUP2 DUP2 SUB PUSH1 0x0 DUP4 ADD MSTORE PUSH2 0x2618 DUP2 PUSH2 0x25DC JUMP JUMPDEST SWAP1 POP SWAP2 SWAP1 POP JUMP INVALID LOG2 PUSH5 0x6970667358 0x22 SLT KECCAK256 PUSH30 0xB01E68C047AC6FE37A219179D82E39A97FA2D0359F2BA9E506A89A9A8177 STATICCALL PUSH5 0x736F6C6343 STOP ADDMOD EXP STOP CALLER "
				},
				"gasEstimates": {
					"creation": {
						"codeDepositCost": "1962600",
						"executionCost": "infinite",
						"totalCost": "infinite"
					},
					"external": {
						"accTokenPerShare()": "2540",
						"boost()": "infinite",
						"deposit(uint256,uint256)": "infinite",
						"depositAll(uint256)": "infinite",
						"derivedBalance(address,uint256)": "infinite",
						"getReward(address)": "infinite",
						"lastRewardBlock()": "2474",
						"notifyRewardAmount(address,uint256)": "infinite",
						"pending(address)": "infinite",
						"pendingMax(address)": "infinite",
						"rewardToken()": "infinite",
						"stake()": "infinite",
						"tokenIds(address)": "2924",
						"tokenPerBlock()": "2452",
						"totalSupply()": "2453",
						"updatePool()": "infinite",
						"userInfo(address)": "infinite",
						"veToken()": "infinite",
						"withdraw(uint256)": "infinite",
						"withdrawAll()": "infinite",
						"withdrawToken(uint256,uint256)": "infinite"
					},
					"internal": {
						"_safeTokenTransfer(address,address,uint256)": "infinite",
						"_safeTransferFromToken(address,uint256)": "infinite"
					}
				},
				"methodIdentifiers": {
					"accTokenPerShare()": "8f662915",
					"boost()": "a66f42c0",
					"deposit(uint256,uint256)": "e2bbb158",
					"depositAll(uint256)": "c6f678bd",
					"derivedBalance(address,uint256)": "892f4805",
					"getReward(address)": "c00007b0",
					"lastRewardBlock()": "a9f8d181",
					"notifyRewardAmount(address,uint256)": "b66503cf",
					"pending(address)": "5eebea20",
					"pendingMax(address)": "c73b399b",
					"rewardToken()": "f7c618c1",
					"stake()": "3a4b66f1",
					"tokenIds(address)": "fc97a303",
					"tokenPerBlock()": "4198709a",
					"totalSupply()": "18160ddd",
					"updatePool()": "e3161ddd",
					"userInfo(address)": "1959a002",
					"veToken()": "3b92eb23",
					"withdraw(uint256)": "2e1a7d4d",
					"withdrawAll()": "853828b6",
					"withdrawToken(uint256,uint256)": "fdb483c7"
				}
			},
			"storageLayout": {
				"storage": [
					{
						"astId": 97,
						"contract": "contracts/Gauge.sol:Gauge",
						"label": "_status",
						"offset": 0,
						"slot": "0",
						"type": "t_uint256"
					},
					{
						"astId": 821,
						"contract": "contracts/Gauge.sol:Gauge",
						"label": "tokenIds",
						"offset": 0,
						"slot": "1",
						"type": "t_mapping(t_address,t_uint256)"
					},
					{
						"astId": 823,
						"contract": "contracts/Gauge.sol:Gauge",
						"label": "tokenPerBlock",
						"offset": 0,
						"slot": "2",
						"type": "t_uint256"
					},
					{
						"astId": 825,
						"contract": "contracts/Gauge.sol:Gauge",
						"label": "accTokenPerShare",
						"offset": 0,
						"slot": "3",
						"type": "t_uint256"
					},
					{
						"astId": 827,
						"contract": "contracts/Gauge.sol:Gauge",
						"label": "lastRewardBlock",
						"offset": 0,
						"slot": "4",
						"type": "t_uint256"
					},
					{
						"astId": 829,
						"contract": "contracts/Gauge.sol:Gauge",
						"label": "totalSupply",
						"offset": 0,
						"slot": "5",
						"type": "t_uint256"
					},
					{
						"astId": 834,
						"contract": "contracts/Gauge.sol:Gauge",
						"label": "userInfo",
						"offset": 0,
						"slot": "6",
						"type": "t_mapping(t_address,t_struct(UserInfo)804_storage)"
					}
				],
				"types": {
					"t_address": {
						"encoding": "inplace",
						"label": "address",
						"numberOfBytes": "20"
					},
					"t_mapping(t_address,t_struct(UserInfo)804_storage)": {
						"encoding": "mapping",
						"key": "t_address",
						"label": "mapping(address => struct Gauge.UserInfo)",
						"numberOfBytes": "32",
						"value": "t_struct(UserInfo)804_storage"
					},
					"t_mapping(t_address,t_uint256)": {
						"encoding": "mapping",
						"key": "t_address",
						"label": "mapping(address => uint256)",
						"numberOfBytes": "32",
						"value": "t_uint256"
					},
					"t_struct(UserInfo)804_storage": {
						"encoding": "inplace",
						"label": "struct Gauge.UserInfo",
						"members": [
							{
								"astId": 801,
								"contract": "contracts/Gauge.sol:Gauge",
								"label": "amount",
								"offset": 0,
								"slot": "0",
								"type": "t_uint256"
							},
							{
								"astId": 803,
								"contract": "contracts/Gauge.sol:Gauge",
								"label": "rewardDebt",
								"offset": 0,
								"slot": "1",
								"type": "t_uint256"
							}
						],
						"numberOfBytes": "64"
					},
					"t_uint256": {
						"encoding": "inplace",
						"label": "uint256",
						"numberOfBytes": "32"
					}
				}
			},
			"userdoc": {
				"kind": "user",
				"methods": {},
				"version": 1
			}
		}
	}
}