{
	"contracts/Gauge.sol": {
		"Gauge": {
			"abi": [
				{
					"inputs": [
						{
							"internalType": "address",
							"name": "_stake",
							"type": "address"
						},
						{
							"internalType": "address",
							"name": "__ve",
							"type": "address"
						},
						{
							"internalType": "address",
							"name": "_boost",
							"type": "address"
						}
					],
					"stateMutability": "nonpayable",
					"type": "constructor"
				},
				{
					"anonymous": false,
					"inputs": [
						{
							"indexed": true,
							"internalType": "address",
							"name": "from",
							"type": "address"
						},
						{
							"indexed": true,
							"internalType": "address",
							"name": "reward",
							"type": "address"
						},
						{
							"indexed": false,
							"internalType": "uint256",
							"name": "amount",
							"type": "uint256"
						}
					],
					"name": "ClaimRewards",
					"type": "event"
				},
				{
					"anonymous": false,
					"inputs": [
						{
							"indexed": true,
							"internalType": "address",
							"name": "from",
							"type": "address"
						},
						{
							"indexed": false,
							"internalType": "uint256",
							"name": "tokenId",
							"type": "uint256"
						},
						{
							"indexed": false,
							"internalType": "uint256",
							"name": "amount",
							"type": "uint256"
						}
					],
					"name": "Deposit",
					"type": "event"
				},
				{
					"anonymous": false,
					"inputs": [
						{
							"indexed": true,
							"internalType": "address",
							"name": "from",
							"type": "address"
						},
						{
							"indexed": true,
							"internalType": "address",
							"name": "reward",
							"type": "address"
						},
						{
							"indexed": false,
							"internalType": "uint256",
							"name": "rewardRate",
							"type": "uint256"
						}
					],
					"name": "NotifyReward",
					"type": "event"
				},
				{
					"anonymous": false,
					"inputs": [
						{
							"indexed": true,
							"internalType": "address",
							"name": "from",
							"type": "address"
						},
						{
							"indexed": false,
							"internalType": "uint256",
							"name": "tokenId",
							"type": "uint256"
						},
						{
							"indexed": false,
							"internalType": "uint256",
							"name": "amount",
							"type": "uint256"
						}
					],
					"name": "Withdraw",
					"type": "event"
				},
				{
					"inputs": [
						{
							"internalType": "address",
							"name": "",
							"type": "address"
						}
					],
					"name": "balanceOf",
					"outputs": [
						{
							"internalType": "uint256",
							"name": "",
							"type": "uint256"
						}
					],
					"stateMutability": "view",
					"type": "function"
				},
				{
					"inputs": [
						{
							"internalType": "address",
							"name": "token",
							"type": "address"
						},
						{
							"internalType": "uint256",
							"name": "maxRuns",
							"type": "uint256"
						}
					],
					"name": "batchRewardPerToken",
					"outputs": [],
					"stateMutability": "nonpayable",
					"type": "function"
				},
				{
					"inputs": [],
					"name": "boost",
					"outputs": [
						{
							"internalType": "address",
							"name": "",
							"type": "address"
						}
					],
					"stateMutability": "view",
					"type": "function"
				},
				{
					"inputs": [
						{
							"internalType": "address",
							"name": "",
							"type": "address"
						},
						{
							"internalType": "uint256",
							"name": "",
							"type": "uint256"
						}
					],
					"name": "checkpoints",
					"outputs": [
						{
							"internalType": "uint256",
							"name": "timestamp",
							"type": "uint256"
						},
						{
							"internalType": "uint256",
							"name": "balanceOf",
							"type": "uint256"
						}
					],
					"stateMutability": "view",
					"type": "function"
				},
				{
					"inputs": [
						{
							"internalType": "uint256",
							"name": "amount",
							"type": "uint256"
						},
						{
							"internalType": "uint256",
							"name": "tokenId",
							"type": "uint256"
						}
					],
					"name": "deposit",
					"outputs": [],
					"stateMutability": "nonpayable",
					"type": "function"
				},
				{
					"inputs": [
						{
							"internalType": "uint256",
							"name": "tokenId",
							"type": "uint256"
						}
					],
					"name": "depositAll",
					"outputs": [],
					"stateMutability": "nonpayable",
					"type": "function"
				},
				{
					"inputs": [
						{
							"internalType": "address",
							"name": "account",
							"type": "address"
						}
					],
					"name": "derivedBalance",
					"outputs": [
						{
							"internalType": "uint256",
							"name": "",
							"type": "uint256"
						}
					],
					"stateMutability": "view",
					"type": "function"
				},
				{
					"inputs": [
						{
							"internalType": "address",
							"name": "",
							"type": "address"
						}
					],
					"name": "derivedBalances",
					"outputs": [
						{
							"internalType": "uint256",
							"name": "",
							"type": "uint256"
						}
					],
					"stateMutability": "view",
					"type": "function"
				},
				{
					"inputs": [],
					"name": "derivedSupply",
					"outputs": [
						{
							"internalType": "uint256",
							"name": "",
							"type": "uint256"
						}
					],
					"stateMutability": "view",
					"type": "function"
				},
				{
					"inputs": [
						{
							"internalType": "address",
							"name": "token",
							"type": "address"
						},
						{
							"internalType": "address",
							"name": "account",
							"type": "address"
						}
					],
					"name": "earned",
					"outputs": [
						{
							"internalType": "uint256",
							"name": "",
							"type": "uint256"
						}
					],
					"stateMutability": "view",
					"type": "function"
				},
				{
					"inputs": [
						{
							"internalType": "address",
							"name": "account",
							"type": "address"
						},
						{
							"internalType": "uint256",
							"name": "timestamp",
							"type": "uint256"
						}
					],
					"name": "getPriorBalanceIndex",
					"outputs": [
						{
							"internalType": "uint256",
							"name": "",
							"type": "uint256"
						}
					],
					"stateMutability": "view",
					"type": "function"
				},
				{
					"inputs": [
						{
							"internalType": "address",
							"name": "token",
							"type": "address"
						},
						{
							"internalType": "uint256",
							"name": "timestamp",
							"type": "uint256"
						}
					],
					"name": "getPriorRewardPerToken",
					"outputs": [
						{
							"internalType": "uint256",
							"name": "",
							"type": "uint256"
						},
						{
							"internalType": "uint256",
							"name": "",
							"type": "uint256"
						}
					],
					"stateMutability": "view",
					"type": "function"
				},
				{
					"inputs": [
						{
							"internalType": "uint256",
							"name": "timestamp",
							"type": "uint256"
						}
					],
					"name": "getPriorSupplyIndex",
					"outputs": [
						{
							"internalType": "uint256",
							"name": "",
							"type": "uint256"
						}
					],
					"stateMutability": "view",
					"type": "function"
				},
				{
					"inputs": [
						{
							"internalType": "address",
							"name": "account",
							"type": "address"
						},
						{
							"internalType": "address[]",
							"name": "tokens",
							"type": "address[]"
						}
					],
					"name": "getReward",
					"outputs": [],
					"stateMutability": "nonpayable",
					"type": "function"
				},
				{
					"inputs": [
						{
							"internalType": "address",
							"name": "",
							"type": "address"
						}
					],
					"name": "isReward",
					"outputs": [
						{
							"internalType": "bool",
							"name": "",
							"type": "bool"
						}
					],
					"stateMutability": "view",
					"type": "function"
				},
				{
					"inputs": [
						{
							"internalType": "address",
							"name": "",
							"type": "address"
						},
						{
							"internalType": "address",
							"name": "",
							"type": "address"
						}
					],
					"name": "lastEarn",
					"outputs": [
						{
							"internalType": "uint256",
							"name": "",
							"type": "uint256"
						}
					],
					"stateMutability": "view",
					"type": "function"
				},
				{
					"inputs": [
						{
							"internalType": "address",
							"name": "token",
							"type": "address"
						}
					],
					"name": "lastTimeRewardApplicable",
					"outputs": [
						{
							"internalType": "uint256",
							"name": "",
							"type": "uint256"
						}
					],
					"stateMutability": "view",
					"type": "function"
				},
				{
					"inputs": [
						{
							"internalType": "address",
							"name": "",
							"type": "address"
						}
					],
					"name": "lastUpdateTime",
					"outputs": [
						{
							"internalType": "uint256",
							"name": "",
							"type": "uint256"
						}
					],
					"stateMutability": "view",
					"type": "function"
				},
				{
					"inputs": [
						{
							"internalType": "address",
							"name": "token",
							"type": "address"
						},
						{
							"internalType": "uint256",
							"name": "_rewardRate",
							"type": "uint256"
						}
					],
					"name": "notifyRewardAmount",
					"outputs": [],
					"stateMutability": "nonpayable",
					"type": "function"
				},
				{
					"inputs": [
						{
							"internalType": "address",
							"name": "",
							"type": "address"
						}
					],
					"name": "numCheckpoints",
					"outputs": [
						{
							"internalType": "uint256",
							"name": "",
							"type": "uint256"
						}
					],
					"stateMutability": "view",
					"type": "function"
				},
				{
					"inputs": [
						{
							"internalType": "address",
							"name": "token",
							"type": "address"
						}
					],
					"name": "rewardPerToken",
					"outputs": [
						{
							"internalType": "uint256",
							"name": "",
							"type": "uint256"
						}
					],
					"stateMutability": "view",
					"type": "function"
				},
				{
					"inputs": [
						{
							"internalType": "address",
							"name": "",
							"type": "address"
						},
						{
							"internalType": "uint256",
							"name": "",
							"type": "uint256"
						}
					],
					"name": "rewardPerTokenCheckpoints",
					"outputs": [
						{
							"internalType": "uint256",
							"name": "timestamp",
							"type": "uint256"
						},
						{
							"internalType": "uint256",
							"name": "rewardPerToken",
							"type": "uint256"
						}
					],
					"stateMutability": "view",
					"type": "function"
				},
				{
					"inputs": [
						{
							"internalType": "address",
							"name": "",
							"type": "address"
						}
					],
					"name": "rewardPerTokenNumCheckpoints",
					"outputs": [
						{
							"internalType": "uint256",
							"name": "",
							"type": "uint256"
						}
					],
					"stateMutability": "view",
					"type": "function"
				},
				{
					"inputs": [
						{
							"internalType": "address",
							"name": "",
							"type": "address"
						}
					],
					"name": "rewardPerTokenStored",
					"outputs": [
						{
							"internalType": "uint256",
							"name": "",
							"type": "uint256"
						}
					],
					"stateMutability": "view",
					"type": "function"
				},
				{
					"inputs": [
						{
							"internalType": "address",
							"name": "",
							"type": "address"
						}
					],
					"name": "rewardRate",
					"outputs": [
						{
							"internalType": "uint256",
							"name": "",
							"type": "uint256"
						}
					],
					"stateMutability": "view",
					"type": "function"
				},
				{
					"inputs": [
						{
							"internalType": "uint256",
							"name": "",
							"type": "uint256"
						}
					],
					"name": "rewards",
					"outputs": [
						{
							"internalType": "address",
							"name": "",
							"type": "address"
						}
					],
					"stateMutability": "view",
					"type": "function"
				},
				{
					"inputs": [],
					"name": "rewardsListLength",
					"outputs": [
						{
							"internalType": "uint256",
							"name": "",
							"type": "uint256"
						}
					],
					"stateMutability": "view",
					"type": "function"
				},
				{
					"inputs": [],
					"name": "stake",
					"outputs": [
						{
							"internalType": "address",
							"name": "",
							"type": "address"
						}
					],
					"stateMutability": "view",
					"type": "function"
				},
				{
					"inputs": [
						{
							"internalType": "uint256",
							"name": "",
							"type": "uint256"
						}
					],
					"name": "supplyCheckpoints",
					"outputs": [
						{
							"internalType": "uint256",
							"name": "timestamp",
							"type": "uint256"
						},
						{
							"internalType": "uint256",
							"name": "supply",
							"type": "uint256"
						}
					],
					"stateMutability": "view",
					"type": "function"
				},
				{
					"inputs": [],
					"name": "supplyNumCheckpoints",
					"outputs": [
						{
							"internalType": "uint256",
							"name": "",
							"type": "uint256"
						}
					],
					"stateMutability": "view",
					"type": "function"
				},
				{
					"inputs": [
						{
							"internalType": "address",
							"name": "",
							"type": "address"
						}
					],
					"name": "tokenIds",
					"outputs": [
						{
							"internalType": "uint256",
							"name": "",
							"type": "uint256"
						}
					],
					"stateMutability": "view",
					"type": "function"
				},
				{
					"inputs": [],
					"name": "totalSupply",
					"outputs": [
						{
							"internalType": "uint256",
							"name": "",
							"type": "uint256"
						}
					],
					"stateMutability": "view",
					"type": "function"
				},
				{
					"inputs": [
						{
							"internalType": "address",
							"name": "",
							"type": "address"
						},
						{
							"internalType": "address",
							"name": "",
							"type": "address"
						}
					],
					"name": "userRewardPerTokenStored",
					"outputs": [
						{
							"internalType": "uint256",
							"name": "",
							"type": "uint256"
						}
					],
					"stateMutability": "view",
					"type": "function"
				},
				{
					"inputs": [],
					"name": "veToken",
					"outputs": [
						{
							"internalType": "address",
							"name": "",
							"type": "address"
						}
					],
					"stateMutability": "view",
					"type": "function"
				},
				{
					"inputs": [
						{
							"internalType": "uint256",
							"name": "amount",
							"type": "uint256"
						}
					],
					"name": "withdraw",
					"outputs": [],
					"stateMutability": "nonpayable",
					"type": "function"
				},
				{
					"inputs": [],
					"name": "withdrawAll",
					"outputs": [],
					"stateMutability": "nonpayable",
					"type": "function"
				},
				{
					"inputs": [
						{
							"internalType": "uint256",
							"name": "amount",
							"type": "uint256"
						},
						{
							"internalType": "uint256",
							"name": "tokenId",
							"type": "uint256"
						}
					],
					"name": "withdrawToken",
					"outputs": [],
					"stateMutability": "nonpayable",
					"type": "function"
				}
			],
			"devdoc": {
				"kind": "dev",
				"methods": {},
				"version": 1
			},
			"evm": {
				"assembly": "    /* \"contracts/Gauge.sol\":9834:27524  contract Gauge is ReentrancyGuard {... */\n  mstore(0x40, 0xe0)\n    /* \"contracts/Gauge.sol\":11734:11871  constructor(address _stake, address __ve, address _boost) {... */\n  callvalue\n  dup1\n  iszero\n  tag_1\n  jumpi\n  0x00\n  dup1\n  revert\ntag_1:\n  pop\n  mload(0x40)\n  sub(codesize, bytecodeSize)\n  dup1\n  bytecodeSize\n  dup4\n  codecopy\n  dup2\n  add\n  0x40\n  dup2\n  swap1\n  mstore\n  tag_2\n  swap2\n  tag_3\n  jump\t// in\ntag_2:\n    /* \"contracts/Gauge.sol\":3090:3091  1 */\n  0x01\n    /* \"contracts/Gauge.sol\":3195:3202  _status */\n  0x00\n    /* \"contracts/Gauge.sol\":3195:3217  _status = _NOT_ENTERED */\n  sstore\n  sub(shl(0xa0, 0x01), 0x01)\n    /* \"contracts/Gauge.sol\":11802:11816  stake = _stake */\n  swap3\n  dup4\n  and\n  0x80\n  mstore\n    /* \"contracts/Gauge.sol\":11826:11840  veToken = __ve */\n  swap1\n  dup3\n  and\n  0xa0\n  mstore\n    /* \"contracts/Gauge.sol\":11850:11864  boost = _boost */\n  and\n  0xc0\n  mstore\n    /* \"contracts/Gauge.sol\":9834:27524  contract Gauge is ReentrancyGuard {... */\n  jump(tag_10)\n    /* \"#utility.yul\":14:191   */\ntag_9:\n    /* \"#utility.yul\":93:106   */\n  dup1\n  mload\n  sub(shl(0xa0, 0x01), 0x01)\n    /* \"#utility.yul\":135:166   */\n  dup2\n  and\n    /* \"#utility.yul\":125:167   */\n  dup2\n  eq\n    /* \"#utility.yul\":115:185   */\n  tag_12\n  jumpi\n    /* \"#utility.yul\":181:182   */\n  0x00\n    /* \"#utility.yul\":178:179   */\n  dup1\n    /* \"#utility.yul\":171:183   */\n  revert\n    /* \"#utility.yul\":115:185   */\ntag_12:\n    /* \"#utility.yul\":14:191   */\n  swap2\n  swap1\n  pop\n  jump\t// out\n    /* \"#utility.yul\":196:574   */\ntag_3:\n    /* \"#utility.yul\":284:290   */\n  0x00\n    /* \"#utility.yul\":292:298   */\n  dup1\n    /* \"#utility.yul\":300:306   */\n  0x00\n    /* \"#utility.yul\":353:355   */\n  0x60\n    /* \"#utility.yul\":341:350   */\n  dup5\n    /* \"#utility.yul\":332:339   */\n  dup7\n    /* \"#utility.yul\":328:351   */\n  sub\n    /* \"#utility.yul\":324:356   */\n  slt\n    /* \"#utility.yul\":321:373   */\n  iszero\n  tag_14\n  jumpi\n    /* \"#utility.yul\":369:370   */\n  0x00\n    /* \"#utility.yul\":366:367   */\n  dup1\n    /* \"#utility.yul\":359:371   */\n  revert\n    /* \"#utility.yul\":321:373   */\ntag_14:\n    /* \"#utility.yul\":392:432   */\n  tag_15\n    /* \"#utility.yul\":422:431   */\n  dup5\n    /* \"#utility.yul\":392:432   */\n  tag_9\n  jump\t// in\ntag_15:\n    /* \"#utility.yul\":382:432   */\n  swap3\n  pop\n    /* \"#utility.yul\":451:500   */\n  tag_16\n    /* \"#utility.yul\":496:498   */\n  0x20\n    /* \"#utility.yul\":485:494   */\n  dup6\n    /* \"#utility.yul\":481:499   */\n  add\n    /* \"#utility.yul\":451:500   */\n  tag_9\n  jump\t// in\ntag_16:\n    /* \"#utility.yul\":441:500   */\n  swap2\n  pop\n    /* \"#utility.yul\":519:568   */\n  tag_17\n    /* \"#utility.yul\":564:566   */\n  0x40\n    /* \"#utility.yul\":553:562   */\n  dup6\n    /* \"#utility.yul\":549:567   */\n  add\n    /* \"#utility.yul\":519:568   */\n  tag_9\n  jump\t// in\ntag_17:\n    /* \"#utility.yul\":509:568   */\n  swap1\n  pop\n    /* \"#utility.yul\":196:574   */\n  swap3\n  pop\n  swap3\n  pop\n  swap3\n  jump\t// out\ntag_10:\n    /* \"contracts/Gauge.sol\":9834:27524  contract Gauge is ReentrancyGuard {... */\n  mload(0x80)\n  mload(0xa0)\n  mload(0xc0)\n  codecopy(0x00, dataOffset(sub_0), dataSize(sub_0))\n  0x00\n  assignImmutable(\"0x8e831a88d8106460d1544aa376ec6155091b50c6145ad03273db7938ca17c5b1\")\n  0x00\n  assignImmutable(\"0xf149c9166005b187f5af29ceb397e7b9b5ab7e3a911adc91a9ebb826b208930e\")\n  0x00\n  assignImmutable(\"0xd094ef07eef1924f3d7fe3d896f6ebece97bd5683077be90743b91a72d59db67\")\n  return(0x00, dataSize(sub_0))\nstop\n\nsub_0: assembly {\n        /* \"contracts/Gauge.sol\":9834:27524  contract Gauge is ReentrancyGuard {... */\n      mstore(0x40, 0x80)\n      callvalue\n      dup1\n      iszero\n      tag_1\n      jumpi\n      0x00\n      dup1\n      revert\n    tag_1:\n      pop\n      jumpi(tag_2, lt(calldatasize, 0x04))\n      shr(0xe0, calldataload(0x00))\n      dup1\n      0x76f4be36\n      gt\n      tag_40\n      jumpi\n      dup1\n      0xd7da4bb0\n      gt\n      tag_41\n      jumpi\n      dup1\n      0xf301af42\n      gt\n      tag_42\n      jumpi\n      dup1\n      0xf301af42\n      eq\n      tag_35\n      jumpi\n      dup1\n      0xf7412baf\n      eq\n      tag_36\n      jumpi\n      dup1\n      0xfc97a303\n      eq\n      tag_37\n      jumpi\n      dup1\n      0xfd314098\n      eq\n      tag_38\n      jumpi\n      dup1\n      0xfdb483c7\n      eq\n      tag_39\n      jumpi\n      0x00\n      dup1\n      revert\n    tag_42:\n      dup1\n      0xd7da4bb0\n      eq\n      tag_30\n      jumpi\n      dup1\n      0xe2bbb158\n      eq\n      tag_31\n      jumpi\n      dup1\n      0xe6886396\n      eq\n      tag_32\n      jumpi\n      dup1\n      0xe8111a12\n      eq\n      tag_33\n      jumpi\n      dup1\n      0xf1229777\n      eq\n      tag_34\n      jumpi\n      0x00\n      dup1\n      revert\n    tag_41:\n      dup1\n      0xa66f42c0\n      gt\n      tag_43\n      jumpi\n      dup1\n      0xa66f42c0\n      eq\n      tag_25\n      jumpi\n      dup1\n      0xaa479652\n      eq\n      tag_26\n      jumpi\n      dup1\n      0xb66503cf\n      eq\n      tag_27\n      jumpi\n      dup1\n      0xc6f678bd\n      eq\n      tag_28\n      jumpi\n      dup1\n      0xd35e2544\n      eq\n      tag_29\n      jumpi\n      0x00\n      dup1\n      revert\n    tag_43:\n      dup1\n      0x76f4be36\n      eq\n      tag_21\n      jumpi\n      dup1\n      0x853828b6\n      eq\n      tag_22\n      jumpi\n      dup1\n      0x9ce43f90\n      eq\n      tag_23\n      jumpi\n      dup1\n      0xa495e5b5\n      eq\n      tag_24\n      jumpi\n      0x00\n      dup1\n      revert\n    tag_40:\n      dup1\n      0x3a4b66f1\n      gt\n      tag_44\n      jumpi\n      dup1\n      0x5a45d052\n      gt\n      tag_45\n      jumpi\n      dup1\n      0x5a45d052\n      eq\n      tag_16\n      jumpi\n      dup1\n      0x638634ee\n      eq\n      tag_17\n      jumpi\n      dup1\n      0x63fb415b\n      eq\n      tag_18\n      jumpi\n      dup1\n      0x6fcfff45\n      eq\n      tag_19\n      jumpi\n      dup1\n      0x70a08231\n      eq\n      tag_20\n      jumpi\n      0x00\n      dup1\n      revert\n    tag_45:\n      dup1\n      0x3a4b66f1\n      eq\n      tag_12\n      jumpi\n      dup1\n      0x3b92eb23\n      eq\n      tag_13\n      jumpi\n      dup1\n      0x3ca068b6\n      eq\n      tag_14\n      jumpi\n      dup1\n      0x4d5ce038\n      eq\n      tag_15\n      jumpi\n      0x00\n      dup1\n      revert\n    tag_44:\n      dup1\n      0x211dc32d\n      gt\n      tag_46\n      jumpi\n      dup1\n      0x211dc32d\n      eq\n      tag_7\n      jumpi\n      dup1\n      0x221ca18c\n      eq\n      tag_8\n      jumpi\n      dup1\n      0x2ce9aead\n      eq\n      tag_9\n      jumpi\n      dup1\n      0x2e1a7d4d\n      eq\n      tag_10\n      jumpi\n      dup1\n      0x31279d3d\n      eq\n      tag_11\n      jumpi\n      0x00\n      dup1\n      revert\n    tag_46:\n      dup1\n      0x01316ddf\n      eq\n      tag_3\n      jumpi\n      dup1\n      0x0cdfebfa\n      eq\n      tag_4\n      jumpi\n      dup1\n      0x115c6f39\n      eq\n      tag_5\n      jumpi\n      dup1\n      0x18160ddd\n      eq\n      tag_6\n      jumpi\n    tag_2:\n      0x00\n      dup1\n      revert\n        /* \"contracts/Gauge.sol\":11567:11661  mapping(address => mapping(uint => RewardPerTokenCheckpoint)) public rewardPerTokenCheckpoints */\n    tag_3:\n      tag_47\n      tag_48\n      calldatasize\n      0x04\n      tag_49\n      jump\t// in\n    tag_48:\n      0x11\n      0x20\n      swap1\n      dup2\n      mstore\n      0x00\n      swap3\n      dup4\n      mstore\n      0x40\n      dup1\n      dup5\n      keccak256\n      swap1\n      swap2\n      mstore\n      swap1\n      dup3\n      mstore\n      swap1\n      keccak256\n      dup1\n      sload\n      0x01\n      swap1\n      swap2\n      add\n      sload\n      dup3\n      jump\n    tag_47:\n      0x40\n      dup1\n      mload\n        /* \"#utility.yul\":783:808   */\n      swap3\n      dup4\n      mstore\n        /* \"#utility.yul\":839:841   */\n      0x20\n        /* \"#utility.yul\":824:842   */\n      dup4\n      add\n        /* \"#utility.yul\":817:851   */\n      swap2\n      swap1\n      swap2\n      mstore\n        /* \"#utility.yul\":756:774   */\n      add\n        /* \"contracts/Gauge.sol\":11567:11661  mapping(address => mapping(uint => RewardPerTokenCheckpoint)) public rewardPerTokenCheckpoints */\n    tag_51:\n      mload(0x40)\n      dup1\n      swap2\n      sub\n      swap1\n      return\n        /* \"contracts/Gauge.sol\":11337:11403  mapping(address => mapping(uint => Checkpoint)) public checkpoints */\n    tag_4:\n      tag_47\n      tag_54\n      calldatasize\n      0x04\n      tag_49\n      jump\t// in\n    tag_54:\n      0x0d\n      0x20\n      swap1\n      dup2\n      mstore\n      0x00\n      swap3\n      dup4\n      mstore\n      0x40\n      dup1\n      dup5\n      keccak256\n      swap1\n      swap2\n      mstore\n      swap1\n      dup3\n      mstore\n      swap1\n      keccak256\n      dup1\n      sload\n      0x01\n      swap1\n      swap2\n      add\n      sload\n      dup3\n      jump\n        /* \"contracts/Gauge.sol\":11877:12917  function getPriorBalanceIndex(address account, uint timestamp) public view returns (uint) {... */\n    tag_5:\n      tag_57\n      tag_58\n      calldatasize\n      0x04\n      tag_49\n      jump\t// in\n    tag_58:\n      tag_59\n      jump\t// in\n    tag_57:\n      mload(0x40)\n        /* \"#utility.yul\":1008:1033   */\n      swap1\n      dup2\n      mstore\n        /* \"#utility.yul\":996:998   */\n      0x20\n        /* \"#utility.yul\":981:999   */\n      add\n        /* \"contracts/Gauge.sol\":11877:12917  function getPriorBalanceIndex(address account, uint timestamp) public view returns (uint) {... */\n      tag_51\n        /* \"#utility.yul\":862:1039   */\n      jump\n        /* \"contracts/Gauge.sol\":10921:10944  uint public totalSupply */\n    tag_6:\n      tag_57\n      sload(0x09)\n      dup2\n      jump\n        /* \"contracts/Gauge.sol\":23159:24469  function earned(address token, address account) public view returns (uint) {... */\n    tag_7:\n      tag_57\n      tag_66\n      calldatasize\n      0x04\n      tag_67\n      jump\t// in\n    tag_66:\n      tag_68\n      jump\t// in\n        /* \"contracts/Gauge.sol\":10566:10608  mapping(address => uint) public rewardRate */\n    tag_8:\n      tag_57\n      tag_71\n      calldatasize\n      0x04\n      tag_72\n      jump\t// in\n    tag_71:\n      mstore(0x20, 0x03)\n      0x00\n      swap1\n      dup2\n      mstore\n      0x40\n      swap1\n      keccak256\n      sload\n      dup2\n      jump\n        /* \"contracts/Gauge.sol\":10614:10660  mapping(address => uint) public lastUpdateTime */\n    tag_9:\n      tag_57\n      tag_76\n      calldatasize\n      0x04\n      tag_72\n      jump\t// in\n    tag_76:\n      mstore(0x20, 0x04)\n      0x00\n      swap1\n      dup2\n      mstore\n      0x40\n      swap1\n      keccak256\n      sload\n      dup2\n      jump\n        /* \"contracts/Gauge.sol\":25804:26016  function withdraw(uint amount) public {... */\n    tag_10:\n      tag_79\n      tag_80\n      calldatasize\n      0x04\n      tag_81\n      jump\t// in\n    tag_80:\n      tag_82\n      jump\t// in\n    tag_79:\n      stop\n        /* \"contracts/Gauge.sol\":17810:18905  function getReward(address account, address[] memory tokens) external nonReentrant {... */\n    tag_11:\n      tag_79\n      tag_84\n      calldatasize\n      0x04\n      tag_85\n      jump\t// in\n    tag_84:\n      tag_86\n      jump\t// in\n        /* \"contracts/Gauge.sol\":10185:10215  address public immutable stake */\n    tag_12:\n      tag_87\n      immutable(\"0xd094ef07eef1924f3d7fe3d896f6ebece97bd5683077be90743b91a72d59db67\")\n      dup2\n      jump\n    tag_87:\n      mload(0x40)\n      sub(shl(0xa0, 0x01), 0x01)\n        /* \"#utility.yul\":3431:3463   */\n      swap1\n      swap2\n      and\n        /* \"#utility.yul\":3413:3464   */\n      dup2\n      mstore\n        /* \"#utility.yul\":3401:3403   */\n      0x20\n        /* \"#utility.yul\":3386:3404   */\n      add\n        /* \"contracts/Gauge.sol\":10185:10215  address public immutable stake */\n      tag_51\n        /* \"#utility.yul\":3267:3470   */\n      jump\n        /* \"contracts/Gauge.sol\":10273:10305  address public immutable veToken */\n    tag_13:\n      tag_87\n      immutable(\"0xf149c9166005b187f5af29ceb397e7b9b5ab7e3a911adc91a9ebb826b208930e\")\n      dup2\n      jump\n        /* \"contracts/Gauge.sol\":10791:10867  mapping(address => mapping(address => uint)) public userRewardPerTokenStored */\n    tag_14:\n      tag_57\n      tag_95\n      calldatasize\n      0x04\n      tag_67\n      jump\t// in\n    tag_95:\n      0x07\n      0x20\n      swap1\n      dup2\n      mstore\n      0x00\n      swap3\n      dup4\n      mstore\n      0x40\n      dup1\n      dup5\n      keccak256\n      swap1\n      swap2\n      mstore\n      swap1\n      dup3\n      mstore\n      swap1\n      keccak256\n      sload\n      dup2\n      jump\n        /* \"contracts/Gauge.sol\":11028:11068  mapping(address => bool) public isReward */\n    tag_15:\n      tag_98\n      tag_99\n      calldatasize\n      0x04\n      tag_72\n      jump\t// in\n    tag_99:\n      mstore(0x20, 0x0c)\n      0x00\n      swap1\n      dup2\n      mstore\n      0x40\n      swap1\n      keccak256\n      sload\n      0xff\n      and\n      dup2\n      jump\n    tag_98:\n      mload(0x40)\n        /* \"#utility.yul\":3640:3654   */\n      swap1\n      iszero\n        /* \"#utility.yul\":3633:3655   */\n      iszero\n        /* \"#utility.yul\":3615:3656   */\n      dup2\n      mstore\n        /* \"#utility.yul\":3603:3605   */\n      0x20\n        /* \"#utility.yul\":3588:3606   */\n      add\n        /* \"contracts/Gauge.sol\":11028:11068  mapping(address => bool) public isReward */\n      tag_51\n        /* \"#utility.yul\":3475:3662   */\n      jump\n        /* \"contracts/Gauge.sol\":19811:19986  function batchRewardPerToken(address token, uint maxRuns) external {... */\n    tag_16:\n      tag_79\n      tag_104\n      calldatasize\n      0x04\n      tag_49\n      jump\t// in\n    tag_104:\n      tag_105\n      jump\t// in\n        /* \"contracts/Gauge.sol\":17091:17206  function lastTimeRewardApplicable(address token) public view returns (uint) {... */\n    tag_17:\n      tag_57\n      tag_107\n      calldatasize\n      0x04\n      tag_72\n      jump\t// in\n    tag_107:\n      pop\n        /* \"contracts/Gauge.sol\":17184:17199  block.timestamp */\n      timestamp\n      swap1\n        /* \"contracts/Gauge.sol\":17091:17206  function lastTimeRewardApplicable(address token) public view returns (uint) {... */\n      jump\n        /* \"contracts/Gauge.sol\":10411:10458  mapping(address => uint) public derivedBalances */\n    tag_18:\n      tag_57\n      tag_111\n      calldatasize\n      0x04\n      tag_72\n      jump\t// in\n    tag_111:\n      mstore(0x20, 0x02)\n      0x00\n      swap1\n      dup2\n      mstore\n      0x40\n      swap1\n      keccak256\n      sload\n      dup2\n      jump\n        /* \"contracts/Gauge.sol\":11410:11456  mapping(address => uint) public numCheckpoints */\n    tag_19:\n      tag_57\n      tag_115\n      calldatasize\n      0x04\n      tag_72\n      jump\t// in\n    tag_115:\n      mstore(0x20, 0x0e)\n      0x00\n      swap1\n      dup2\n      mstore\n      0x40\n      swap1\n      keccak256\n      sload\n      dup2\n      jump\n        /* \"contracts/Gauge.sol\":10950:10991  mapping(address => uint) public balanceOf */\n    tag_20:\n      tag_57\n      tag_119\n      calldatasize\n      0x04\n      tag_72\n      jump\t// in\n    tag_119:\n      mstore(0x20, 0x0a)\n      0x00\n      swap1\n      dup2\n      mstore\n      0x40\n      swap1\n      keccak256\n      sload\n      dup2\n      jump\n        /* \"contracts/Gauge.sol\":12923:13939  function getPriorSupplyIndex(uint timestamp) public view returns (uint) {... */\n    tag_21:\n      tag_57\n      tag_123\n      calldatasize\n      0x04\n      tag_81\n      jump\t// in\n    tag_123:\n      tag_124\n      jump\t// in\n        /* \"contracts/Gauge.sol\":25718:25798  function withdrawAll() external {... */\n    tag_22:\n      tag_79\n      tag_127\n      jump\t// in\n        /* \"contracts/Gauge.sol\":10666:10718  mapping(address => uint) public rewardPerTokenStored */\n    tag_23:\n      tag_57\n      tag_129\n      calldatasize\n      0x04\n      tag_72\n      jump\t// in\n    tag_129:\n      mstore(0x20, 0x05)\n      0x00\n      swap1\n      dup2\n      mstore\n      0x40\n      swap1\n      keccak256\n      sload\n      dup2\n      jump\n        /* \"contracts/Gauge.sol\":10725:10785  mapping(address => mapping(address => uint)) public lastEarn */\n    tag_24:\n      tag_57\n      tag_133\n      calldatasize\n      0x04\n      tag_67\n      jump\t// in\n    tag_133:\n      0x06\n      0x20\n      swap1\n      dup2\n      mstore\n      0x00\n      swap3\n      dup4\n      mstore\n      0x40\n      dup1\n      dup5\n      keccak256\n      swap1\n      swap2\n      mstore\n      swap1\n      dup3\n      mstore\n      swap1\n      keccak256\n      sload\n      dup2\n      jump\n        /* \"contracts/Gauge.sol\":10343:10373  address public immutable boost */\n    tag_25:\n      tag_87\n      immutable(\"0x8e831a88d8106460d1544aa376ec6155091b50c6145ad03273db7938ca17c5b1\")\n      dup2\n      jump\n        /* \"contracts/Gauge.sol\":11667:11727  mapping(address => uint) public rewardPerTokenNumCheckpoints */\n    tag_26:\n      tag_57\n      tag_140\n      calldatasize\n      0x04\n      tag_72\n      jump\t// in\n    tag_140:\n      mstore(0x20, 0x12)\n      0x00\n      swap1\n      dup2\n      mstore\n      0x40\n      swap1\n      keccak256\n      sload\n      dup2\n      jump\n        /* \"contracts/Gauge.sol\":26975:27521  function notifyRewardAmount(address token, uint _rewardRate) external  {... */\n    tag_27:\n      tag_79\n      tag_144\n      calldatasize\n      0x04\n      tag_49\n      jump\t// in\n    tag_144:\n      tag_145\n      jump\t// in\n        /* \"contracts/Gauge.sol\":24475:24588  function depositAll(uint tokenId) external {... */\n    tag_28:\n      tag_79\n      tag_147\n      calldatasize\n      0x04\n      tag_81\n      jump\t// in\n    tag_147:\n      tag_148\n      jump\t// in\n        /* \"contracts/Gauge.sol\":19237:19805  function derivedBalance(address account) public view returns (uint) {... */\n    tag_29:\n      tag_57\n      tag_150\n      calldatasize\n      0x04\n      tag_72\n      jump\t// in\n    tag_150:\n      tag_151\n      jump\t// in\n        /* \"contracts/Gauge.sol\":10380:10405  uint public derivedSupply */\n    tag_30:\n      tag_57\n      sload(0x01)\n      dup2\n      jump\n        /* \"contracts/Gauge.sol\":24594:25712  function deposit(uint amount, uint tokenId) public nonReentrant {... */\n    tag_31:\n      tag_79\n      tag_157\n      calldatasize\n      0x04\n      tag_158\n      jump\t// in\n    tag_157:\n      tag_159\n      jump\t// in\n        /* \"contracts/Gauge.sol\":16896:16992  function rewardsListLength() external view returns (uint) {... */\n    tag_32:\n        /* \"contracts/Gauge.sol\":16971:16978  rewards */\n      0x0b\n        /* \"contracts/Gauge.sol\":16971:16985  rewards.length */\n      sload\n        /* \"contracts/Gauge.sol\":16896:16992  function rewardsListLength() external view returns (uint) {... */\n      jump(tag_57)\n        /* \"contracts/Gauge.sol\":11528:11560  uint public supplyNumCheckpoints */\n    tag_33:\n      tag_57\n      sload(0x10)\n      dup2\n      jump\n        /* \"contracts/Gauge.sol\":18912:19231  function rewardPerToken(address token) public view returns (uint) {... */\n    tag_34:\n      tag_57\n      tag_167\n      calldatasize\n      0x04\n      tag_72\n      jump\t// in\n    tag_167:\n      tag_168\n      jump\t// in\n        /* \"contracts/Gauge.sol\":10998:11022  address[] public rewards */\n    tag_35:\n      tag_87\n      tag_171\n      calldatasize\n      0x04\n      tag_81\n      jump\t// in\n    tag_171:\n      tag_172\n      jump\t// in\n        /* \"contracts/Gauge.sol\":11463:11521  mapping(uint => SupplyCheckpoint) public supplyCheckpoints */\n    tag_36:\n      tag_47\n      tag_175\n      calldatasize\n      0x04\n      tag_81\n      jump\t// in\n    tag_175:\n      mstore(0x20, 0x0f)\n      0x00\n      swap1\n      dup2\n      mstore\n      0x40\n      swap1\n      keccak256\n      dup1\n      sload\n      0x01\n      swap1\n      swap2\n      add\n      sload\n      dup3\n      jump\n        /* \"contracts/Gauge.sol\":10874:10914  mapping(address => uint) public tokenIds */\n    tag_37:\n      tag_57\n      tag_179\n      calldatasize\n      0x04\n      tag_72\n      jump\t// in\n    tag_179:\n      mstore(0x20, 0x08)\n      0x00\n      swap1\n      dup2\n      mstore\n      0x40\n      swap1\n      keccak256\n      sload\n      dup2\n      jump\n        /* \"contracts/Gauge.sol\":13945:15303  function getPriorRewardPerToken(address token, uint timestamp) public view returns (uint, uint) {... */\n    tag_38:\n      tag_47\n      tag_183\n      calldatasize\n      0x04\n      tag_49\n      jump\t// in\n    tag_183:\n      tag_184\n      jump\t// in\n        /* \"contracts/Gauge.sol\":26022:26969  function withdrawToken(uint amount, uint tokenId) public nonReentrant {... */\n    tag_39:\n      tag_79\n      tag_187\n      calldatasize\n      0x04\n      tag_158\n      jump\t// in\n    tag_187:\n      tag_188\n      jump\t// in\n        /* \"contracts/Gauge.sol\":11877:12917  function getPriorBalanceIndex(address account, uint timestamp) public view returns (uint) {... */\n    tag_59:\n      sub(shl(0xa0, 0x01), 0x01)\n        /* \"contracts/Gauge.sol\":11997:12020  numCheckpoints[account] */\n      dup3\n      and\n        /* \"contracts/Gauge.sol\":11961:11965  uint */\n      0x00\n        /* \"contracts/Gauge.sol\":11997:12020  numCheckpoints[account] */\n      swap1\n      dup2\n      mstore\n        /* \"contracts/Gauge.sol\":11997:12011  numCheckpoints */\n      0x0e\n        /* \"contracts/Gauge.sol\":11997:12020  numCheckpoints[account] */\n      0x20\n      mstore\n      0x40\n      dup2\n      keccak256\n      sload\n        /* \"contracts/Gauge.sol\":12034:12051  nCheckpoints == 0 */\n      dup1\n        /* \"contracts/Gauge.sol\":12030:12086  if (nCheckpoints == 0) {... */\n      tag_190\n      jumpi\n        /* \"contracts/Gauge.sol\":12074:12075  0 */\n      0x00\n        /* \"contracts/Gauge.sol\":12067:12075  return 0 */\n      swap2\n      pop\n      pop\n      jump(tag_189)\n        /* \"contracts/Gauge.sol\":12030:12086  if (nCheckpoints == 0) {... */\n    tag_190:\n      sub(shl(0xa0, 0x01), 0x01)\n        /* \"contracts/Gauge.sol\":12143:12163  checkpoints[account] */\n      dup5\n      and\n      0x00\n      swap1\n      dup2\n      mstore\n        /* \"contracts/Gauge.sol\":12143:12154  checkpoints */\n      0x0d\n        /* \"contracts/Gauge.sol\":12143:12163  checkpoints[account] */\n      0x20\n      mstore\n      0x40\n      dup2\n      keccak256\n        /* \"contracts/Gauge.sol\":12195:12204  timestamp */\n      dup5\n      swap2\n        /* \"contracts/Gauge.sol\":12164:12180  nCheckpoints - 1 */\n      tag_191\n        /* \"contracts/Gauge.sol\":12179:12180  1 */\n      0x01\n        /* \"contracts/Gauge.sol\":12164:12176  nCheckpoints */\n      dup6\n        /* \"contracts/Gauge.sol\":12164:12180  nCheckpoints - 1 */\n      tag_192\n      jump\t// in\n    tag_191:\n        /* \"contracts/Gauge.sol\":12143:12181  checkpoints[account][nCheckpoints - 1] */\n      dup2\n      mstore\n      0x20\n      add\n      swap1\n      dup2\n      mstore\n      0x20\n      add\n      0x00\n      keccak256\n        /* \"contracts/Gauge.sol\":12143:12191  checkpoints[account][nCheckpoints - 1].timestamp */\n      0x00\n      add\n      sload\n        /* \"contracts/Gauge.sol\":12143:12204  checkpoints[account][nCheckpoints - 1].timestamp <= timestamp */\n      gt\n        /* \"contracts/Gauge.sol\":12139:12256  if (checkpoints[account][nCheckpoints - 1].timestamp <= timestamp) {... */\n      tag_193\n      jumpi\n        /* \"contracts/Gauge.sol\":12228:12244  nCheckpoints - 1 */\n      tag_194\n        /* \"contracts/Gauge.sol\":12243:12244  1 */\n      0x01\n        /* \"contracts/Gauge.sol\":12228:12240  nCheckpoints */\n      dup3\n        /* \"contracts/Gauge.sol\":12228:12244  nCheckpoints - 1 */\n      tag_192\n      jump\t// in\n    tag_194:\n        /* \"contracts/Gauge.sol\":12220:12245  return (nCheckpoints - 1) */\n      swap2\n      pop\n      pop\n      jump(tag_189)\n        /* \"contracts/Gauge.sol\":12139:12256  if (checkpoints[account][nCheckpoints - 1].timestamp <= timestamp) {... */\n    tag_193:\n      sub(shl(0xa0, 0x01), 0x01)\n        /* \"contracts/Gauge.sol\":12314:12334  checkpoints[account] */\n      dup5\n      and\n      0x00\n      swap1\n      dup2\n      mstore\n        /* \"contracts/Gauge.sol\":12314:12325  checkpoints */\n      0x0d\n        /* \"contracts/Gauge.sol\":12314:12334  checkpoints[account] */\n      0x20\n      swap1\n      dup2\n      mstore\n      0x40\n      dup1\n      dup4\n      keccak256\n        /* \"contracts/Gauge.sol\":12314:12337  checkpoints[account][0] */\n      dup4\n      dup1\n      mstore\n      swap1\n      swap2\n      mstore\n      swap1\n      keccak256\n        /* \"contracts/Gauge.sol\":12314:12347  checkpoints[account][0].timestamp */\n      sload\n        /* \"contracts/Gauge.sol\":12314:12359  checkpoints[account][0].timestamp > timestamp */\n      dup4\n      lt\n        /* \"contracts/Gauge.sol\":12310:12394  if (checkpoints[account][0].timestamp > timestamp) {... */\n      iszero\n      tag_195\n      jumpi\n        /* \"contracts/Gauge.sol\":12382:12383  0 */\n      0x00\n        /* \"contracts/Gauge.sol\":12375:12383  return 0 */\n      swap2\n      pop\n      pop\n      jump(tag_189)\n        /* \"contracts/Gauge.sol\":12310:12394  if (checkpoints[account][0].timestamp > timestamp) {... */\n    tag_195:\n        /* \"contracts/Gauge.sol\":12404:12414  uint lower */\n      0x00\n      dup1\n        /* \"contracts/Gauge.sol\":12441:12457  nCheckpoints - 1 */\n      tag_196\n        /* \"contracts/Gauge.sol\":12456:12457  1 */\n      0x01\n        /* \"contracts/Gauge.sol\":12441:12453  nCheckpoints */\n      dup5\n        /* \"contracts/Gauge.sol\":12441:12457  nCheckpoints - 1 */\n      tag_192\n      jump\t// in\n    tag_196:\n        /* \"contracts/Gauge.sol\":12428:12457  uint upper = nCheckpoints - 1 */\n      swap1\n      pop\n        /* \"contracts/Gauge.sol\":12467:12889  while (upper > lower) {... */\n    tag_197:\n        /* \"contracts/Gauge.sol\":12482:12487  lower */\n      dup2\n        /* \"contracts/Gauge.sol\":12474:12479  upper */\n      dup2\n        /* \"contracts/Gauge.sol\":12474:12487  upper > lower */\n      gt\n        /* \"contracts/Gauge.sol\":12467:12889  while (upper > lower) {... */\n      iszero\n      tag_198\n      jumpi\n        /* \"contracts/Gauge.sol\":12503:12514  uint center */\n      0x00\n        /* \"contracts/Gauge.sol\":12543:12544  2 */\n      0x02\n        /* \"contracts/Gauge.sol\":12526:12539  upper - lower */\n      tag_199\n        /* \"contracts/Gauge.sol\":12534:12539  lower */\n      dup5\n        /* \"contracts/Gauge.sol\":12526:12531  upper */\n      dup5\n        /* \"contracts/Gauge.sol\":12526:12539  upper - lower */\n      tag_192\n      jump\t// in\n    tag_199:\n        /* \"contracts/Gauge.sol\":12525:12544  (upper - lower) / 2 */\n      tag_200\n      swap2\n      swap1\n      tag_201\n      jump\t// in\n    tag_200:\n        /* \"contracts/Gauge.sol\":12517:12544  upper - (upper - lower) / 2 */\n      tag_202\n      swap1\n        /* \"contracts/Gauge.sol\":12517:12522  upper */\n      dup4\n        /* \"contracts/Gauge.sol\":12517:12544  upper - (upper - lower) / 2 */\n      tag_192\n      jump\t// in\n    tag_202:\n      sub(shl(0xa0, 0x01), 0x01)\n        /* \"contracts/Gauge.sol\":12620:12640  checkpoints[account] */\n      dup9\n      and\n        /* \"contracts/Gauge.sol\":12597:12617  Checkpoint memory cp */\n      0x00\n        /* \"contracts/Gauge.sol\":12620:12640  checkpoints[account] */\n      swap1\n      dup2\n      mstore\n        /* \"contracts/Gauge.sol\":12620:12631  checkpoints */\n      0x0d\n        /* \"contracts/Gauge.sol\":12620:12640  checkpoints[account] */\n      0x20\n      swap1\n      dup2\n      mstore\n      0x40\n      dup1\n      dup4\n      keccak256\n        /* \"contracts/Gauge.sol\":12620:12648  checkpoints[account][center] */\n      dup5\n      dup5\n      mstore\n      dup3\n      mstore\n      swap2\n      dup3\n      swap1\n      keccak256\n        /* \"contracts/Gauge.sol\":12597:12648  Checkpoint memory cp = checkpoints[account][center] */\n      dup3\n      mload\n      dup1\n      dup5\n      add\n      swap1\n      swap4\n      mstore\n      dup1\n      sload\n      dup1\n      dup5\n      mstore\n      0x01\n      swap1\n      swap2\n      add\n      sload\n      swap2\n      dup4\n      add\n      swap2\n      swap1\n      swap2\n      mstore\n        /* \"contracts/Gauge.sol\":12503:12544  uint center = upper - (upper - lower) / 2 */\n      swap2\n      swap3\n      pop\n        /* \"contracts/Gauge.sol\":12597:12648  Checkpoint memory cp = checkpoints[account][center] */\n      swap1\n        /* \"contracts/Gauge.sol\":12666:12691  cp.timestamp == timestamp */\n      dup8\n      eq\n        /* \"contracts/Gauge.sol\":12662:12879  if (cp.timestamp == timestamp) {... */\n      iszero\n      tag_203\n      jumpi\n      pop\n        /* \"contracts/Gauge.sol\":12718:12724  center */\n      swap4\n      pop\n        /* \"contracts/Gauge.sol\":12711:12724  return center */\n      tag_189\n      swap3\n      pop\n      pop\n      pop\n      jump\n        /* \"contracts/Gauge.sol\":12662:12879  if (cp.timestamp == timestamp) {... */\n    tag_203:\n        /* \"contracts/Gauge.sol\":12749:12761  cp.timestamp */\n      dup1\n      mload\n        /* \"contracts/Gauge.sol\":12749:12773  cp.timestamp < timestamp */\n      dup8\n      gt\n        /* \"contracts/Gauge.sol\":12745:12879  if (cp.timestamp < timestamp) {... */\n      iszero\n      tag_205\n      jumpi\n        /* \"contracts/Gauge.sol\":12801:12807  center */\n      dup2\n        /* \"contracts/Gauge.sol\":12793:12807  lower = center */\n      swap4\n      pop\n        /* \"contracts/Gauge.sol\":12745:12879  if (cp.timestamp < timestamp) {... */\n      jump(tag_206)\n    tag_205:\n        /* \"contracts/Gauge.sol\":12854:12864  center - 1 */\n      tag_207\n        /* \"contracts/Gauge.sol\":12863:12864  1 */\n      0x01\n        /* \"contracts/Gauge.sol\":12854:12860  center */\n      dup4\n        /* \"contracts/Gauge.sol\":12854:12864  center - 1 */\n      tag_192\n      jump\t// in\n    tag_207:\n        /* \"contracts/Gauge.sol\":12846:12864  upper = center - 1 */\n      swap3\n      pop\n        /* \"contracts/Gauge.sol\":12745:12879  if (cp.timestamp < timestamp) {... */\n    tag_206:\n        /* \"contracts/Gauge.sol\":12489:12889  {... */\n      pop\n      pop\n        /* \"contracts/Gauge.sol\":12467:12889  while (upper > lower) {... */\n      jump(tag_197)\n    tag_198:\n      pop\n        /* \"contracts/Gauge.sol\":12905:12910  lower */\n      swap2\n      pop\n      pop\n        /* \"contracts/Gauge.sol\":11877:12917  function getPriorBalanceIndex(address account, uint timestamp) public view returns (uint) {... */\n    tag_189:\n      swap3\n      swap2\n      pop\n      pop\n      jump\t// out\n        /* \"contracts/Gauge.sol\":23159:24469  function earned(address token, address account) public view returns (uint) {... */\n    tag_68:\n      sub(shl(0xa0, 0x01), 0x01)\n        /* \"contracts/Gauge.sol\":23276:23291  lastEarn[token] */\n      dup1\n      dup4\n      and\n        /* \"contracts/Gauge.sol\":23228:23232  uint */\n      0x00\n        /* \"contracts/Gauge.sol\":23276:23291  lastEarn[token] */\n      dup2\n      dup2\n      mstore\n        /* \"contracts/Gauge.sol\":23276:23284  lastEarn */\n      0x06\n        /* \"contracts/Gauge.sol\":23276:23291  lastEarn[token] */\n      0x20\n      swap1\n      dup2\n      mstore\n      0x40\n      dup1\n      dup4\n      keccak256\n        /* \"contracts/Gauge.sol\":23276:23300  lastEarn[token][account] */\n      swap5\n      dup7\n      and\n      dup4\n      mstore\n      swap4\n      dup2\n      mstore\n      dup4\n      dup3\n      keccak256\n      sload\n        /* \"contracts/Gauge.sol\":23302:23334  rewardPerTokenCheckpoints[token] */\n      swap3\n      dup3\n      mstore\n        /* \"contracts/Gauge.sol\":23302:23327  rewardPerTokenCheckpoints */\n      0x11\n        /* \"contracts/Gauge.sol\":23302:23334  rewardPerTokenCheckpoints[token] */\n      dup2\n      mstore\n      dup4\n      dup3\n      keccak256\n        /* \"contracts/Gauge.sol\":23302:23337  rewardPerTokenCheckpoints[token][0] */\n      dup3\n      dup1\n      mstore\n      swap1\n      mstore\n      swap2\n      dup3\n      keccak256\n        /* \"contracts/Gauge.sol\":23302:23347  rewardPerTokenCheckpoints[token][0].timestamp */\n      sload\n        /* \"contracts/Gauge.sol\":23228:23232  uint */\n      dup3\n      swap2\n        /* \"contracts/Gauge.sol\":23267:23348  Math.max(lastEarn[token][account], rewardPerTokenCheckpoints[token][0].timestamp) */\n      tag_209\n      swap2\n        /* \"contracts/Gauge.sol\":23267:23275  Math.max */\n      tag_210\n        /* \"contracts/Gauge.sol\":23267:23348  Math.max(lastEarn[token][account], rewardPerTokenCheckpoints[token][0].timestamp) */\n      jump\t// in\n    tag_209:\n      sub(shl(0xa0, 0x01), 0x01)\n        /* \"contracts/Gauge.sol\":23362:23385  numCheckpoints[account] */\n      dup5\n      and\n      0x00\n      swap1\n      dup2\n      mstore\n        /* \"contracts/Gauge.sol\":23362:23376  numCheckpoints */\n      0x0e\n        /* \"contracts/Gauge.sol\":23362:23385  numCheckpoints[account] */\n      0x20\n      mstore\n      0x40\n      swap1\n      keccak256\n      sload\n        /* \"contracts/Gauge.sol\":23244:23348  uint _startTimestamp = Math.max(lastEarn[token][account], rewardPerTokenCheckpoints[token][0].timestamp) */\n      swap1\n      swap2\n      pop\n        /* \"contracts/Gauge.sol\":23358:23425  if (numCheckpoints[account] == 0) {... */\n      tag_211\n      jumpi\n        /* \"contracts/Gauge.sol\":23413:23414  0 */\n      0x00\n        /* \"contracts/Gauge.sol\":23406:23414  return 0 */\n      swap2\n      pop\n      pop\n      jump(tag_189)\n        /* \"contracts/Gauge.sol\":23358:23425  if (numCheckpoints[account] == 0) {... */\n    tag_211:\n        /* \"contracts/Gauge.sol\":23435:23451  uint _startIndex */\n      0x00\n        /* \"contracts/Gauge.sol\":23454:23500  getPriorBalanceIndex(account, _startTimestamp) */\n      tag_212\n        /* \"contracts/Gauge.sol\":23475:23482  account */\n      dup5\n        /* \"contracts/Gauge.sol\":23484:23499  _startTimestamp */\n      dup4\n        /* \"contracts/Gauge.sol\":23454:23474  getPriorBalanceIndex */\n      tag_59\n        /* \"contracts/Gauge.sol\":23454:23500  getPriorBalanceIndex(account, _startTimestamp) */\n      jump\t// in\n    tag_212:\n      sub(shl(0xa0, 0x01), 0x01)\n        /* \"contracts/Gauge.sol\":23527:23550  numCheckpoints[account] */\n      dup6\n      and\n        /* \"contracts/Gauge.sol\":23510:23524  uint _endIndex */\n      0x00\n        /* \"contracts/Gauge.sol\":23527:23550  numCheckpoints[account] */\n      swap1\n      dup2\n      mstore\n        /* \"contracts/Gauge.sol\":23527:23541  numCheckpoints */\n      0x0e\n        /* \"contracts/Gauge.sol\":23527:23550  numCheckpoints[account] */\n      0x20\n      mstore\n      0x40\n      dup2\n      keccak256\n      sload\n        /* \"contracts/Gauge.sol\":23435:23500  uint _startIndex = getPriorBalanceIndex(account, _startTimestamp) */\n      swap2\n      swap3\n      pop\n        /* \"contracts/Gauge.sol\":23510:23524  uint _endIndex */\n      swap1\n        /* \"contracts/Gauge.sol\":23527:23554  numCheckpoints[account] - 1 */\n      tag_213\n      swap1\n        /* \"contracts/Gauge.sol\":23553:23554  1 */\n      0x01\n      swap1\n        /* \"contracts/Gauge.sol\":23527:23554  numCheckpoints[account] - 1 */\n      tag_192\n      jump\t// in\n    tag_213:\n        /* \"contracts/Gauge.sol\":23510:23554  uint _endIndex = numCheckpoints[account] - 1 */\n      swap1\n      pop\n        /* \"contracts/Gauge.sol\":23565:23576  uint reward */\n      0x00\n        /* \"contracts/Gauge.sol\":23621:23622  1 */\n      0x01\n        /* \"contracts/Gauge.sol\":23595:23618  _endIndex - _startIndex */\n      tag_214\n        /* \"contracts/Gauge.sol\":23607:23618  _startIndex */\n      dup5\n        /* \"contracts/Gauge.sol\":23510:23554  uint _endIndex = numCheckpoints[account] - 1 */\n      dup5\n        /* \"contracts/Gauge.sol\":23595:23618  _endIndex - _startIndex */\n      tag_192\n      jump\t// in\n    tag_214:\n        /* \"contracts/Gauge.sol\":23595:23622  _endIndex - _startIndex > 1 */\n      gt\n        /* \"contracts/Gauge.sol\":23591:24143  if (_endIndex - _startIndex > 1) {... */\n      iszero\n      tag_215\n      jumpi\n        /* \"contracts/Gauge.sol\":23652:23663  _startIndex */\n      dup3\n        /* \"contracts/Gauge.sol\":23638:24133  for (uint i = _startIndex; i < _endIndex - 1; i++) {... */\n    tag_216:\n        /* \"contracts/Gauge.sol\":23669:23682  _endIndex - 1 */\n      tag_219\n        /* \"contracts/Gauge.sol\":23681:23682  1 */\n      0x01\n        /* \"contracts/Gauge.sol\":23669:23678  _endIndex */\n      dup5\n        /* \"contracts/Gauge.sol\":23669:23682  _endIndex - 1 */\n      tag_192\n      jump\t// in\n    tag_219:\n        /* \"contracts/Gauge.sol\":23665:23666  i */\n      dup2\n        /* \"contracts/Gauge.sol\":23665:23682  i < _endIndex - 1 */\n      lt\n        /* \"contracts/Gauge.sol\":23638:24133  for (uint i = _startIndex; i < _endIndex - 1; i++) {... */\n      iszero\n      tag_217\n      jumpi\n      sub(shl(0xa0, 0x01), 0x01)\n        /* \"contracts/Gauge.sol\":23731:23751  checkpoints[account] */\n      dup8\n      and\n        /* \"contracts/Gauge.sol\":23707:23728  Checkpoint memory cp0 */\n      0x00\n        /* \"contracts/Gauge.sol\":23731:23751  checkpoints[account] */\n      dup2\n      dup2\n      mstore\n        /* \"contracts/Gauge.sol\":23731:23742  checkpoints */\n      0x0d\n        /* \"contracts/Gauge.sol\":23731:23751  checkpoints[account] */\n      0x20\n      dup2\n      dup2\n      mstore\n      0x40\n      dup1\n      dup5\n      keccak256\n        /* \"contracts/Gauge.sol\":23731:23754  checkpoints[account][i] */\n      dup7\n      dup6\n      mstore\n      dup1\n      dup4\n      mstore\n      dup2\n      dup6\n      keccak256\n        /* \"contracts/Gauge.sol\":23707:23754  Checkpoint memory cp0 = checkpoints[account][i] */\n      dup3\n      mload\n      dup1\n      dup5\n      add\n      swap1\n      swap4\n      mstore\n      dup1\n      sload\n      dup4\n      mstore\n      0x01\n      swap1\n      dup2\n      add\n      sload\n      dup4\n      dup6\n      add\n      mstore\n        /* \"contracts/Gauge.sol\":23796:23816  checkpoints[account] */\n      swap6\n      dup6\n      mstore\n      swap3\n      swap1\n      swap2\n      mstore\n        /* \"contracts/Gauge.sol\":23707:23754  Checkpoint memory cp0 = checkpoints[account][i] */\n      swap3\n        /* \"contracts/Gauge.sol\":23707:23728  Checkpoint memory cp0 */\n      dup3\n      swap1\n        /* \"contracts/Gauge.sol\":23817:23822  i + 1 */\n      tag_220\n      swap1\n        /* \"contracts/Gauge.sol\":23752:23753  i */\n      dup7\n      swap1\n        /* \"contracts/Gauge.sol\":23817:23822  i + 1 */\n      tag_221\n      jump\t// in\n    tag_220:\n        /* \"contracts/Gauge.sol\":23796:23823  checkpoints[account][i + 1] */\n      dup2\n      mstore\n      0x20\n      add\n      swap1\n      dup2\n      mstore\n      0x20\n      add\n      0x00\n      keccak256\n        /* \"contracts/Gauge.sol\":23772:23823  Checkpoint memory cp1 = checkpoints[account][i + 1] */\n      mload(0x40)\n      dup1\n      0x40\n      add\n      0x40\n      mstore\n      swap1\n      dup2\n      0x00\n      dup3\n      add\n      sload\n      dup2\n      mstore\n      0x20\n      add\n      0x01\n      dup3\n      add\n      sload\n      dup2\n      mstore\n      pop\n      pop\n      swap1\n      pop\n        /* \"contracts/Gauge.sol\":23842:23869  uint _rewardPerTokenStored0 */\n      0x00\n        /* \"contracts/Gauge.sol\":23874:23918  getPriorRewardPerToken(token, cp0.timestamp) */\n      tag_222\n        /* \"contracts/Gauge.sol\":23897:23902  token */\n      dup12\n        /* \"contracts/Gauge.sol\":23904:23907  cp0 */\n      dup5\n        /* \"contracts/Gauge.sol\":23904:23917  cp0.timestamp */\n      0x00\n      add\n      mload\n        /* \"contracts/Gauge.sol\":23874:23896  getPriorRewardPerToken */\n      tag_184\n        /* \"contracts/Gauge.sol\":23874:23918  getPriorRewardPerToken(token, cp0.timestamp) */\n      jump\t// in\n    tag_222:\n        /* \"contracts/Gauge.sol\":23841:23918  (uint _rewardPerTokenStored0,) = getPriorRewardPerToken(token, cp0.timestamp) */\n      pop\n      swap1\n      pop\n        /* \"contracts/Gauge.sol\":23937:23964  uint _rewardPerTokenStored1 */\n      0x00\n        /* \"contracts/Gauge.sol\":23969:24013  getPriorRewardPerToken(token, cp1.timestamp) */\n      tag_223\n        /* \"contracts/Gauge.sol\":23992:23997  token */\n      dup13\n        /* \"contracts/Gauge.sol\":23999:24002  cp1 */\n      dup5\n        /* \"contracts/Gauge.sol\":23999:24012  cp1.timestamp */\n      0x00\n      add\n      mload\n        /* \"contracts/Gauge.sol\":23969:23991  getPriorRewardPerToken */\n      tag_184\n        /* \"contracts/Gauge.sol\":23969:24013  getPriorRewardPerToken(token, cp1.timestamp) */\n      jump\t// in\n    tag_223:\n      pop\n        /* \"contracts/Gauge.sol\":23936:24013  (uint _rewardPerTokenStored1,) = getPriorRewardPerToken(token, cp1.timestamp) */\n      swap1\n      pop\n        /* \"contracts/Gauge.sol\":10500:10508  10 ** 18 */\n      0x0de0b6b3a7640000\n        /* \"contracts/Gauge.sol\":24058:24105  _rewardPerTokenStored1 - _rewardPerTokenStored0 */\n      tag_224\n        /* \"contracts/Gauge.sol\":24083:24105  _rewardPerTokenStored0 */\n      dup4\n        /* \"contracts/Gauge.sol\":23936:24013  (uint _rewardPerTokenStored1,) = getPriorRewardPerToken(token, cp1.timestamp) */\n      dup4\n        /* \"contracts/Gauge.sol\":24058:24105  _rewardPerTokenStored1 - _rewardPerTokenStored0 */\n      tag_192\n      jump\t// in\n    tag_224:\n        /* \"contracts/Gauge.sol\":24041:24044  cp0 */\n      dup6\n        /* \"contracts/Gauge.sol\":24041:24054  cp0.balanceOf */\n      0x20\n      add\n      mload\n        /* \"contracts/Gauge.sol\":24041:24106  cp0.balanceOf * (_rewardPerTokenStored1 - _rewardPerTokenStored0) */\n      tag_225\n      swap2\n      swap1\n      tag_226\n      jump\t// in\n    tag_225:\n        /* \"contracts/Gauge.sol\":24041:24118  cp0.balanceOf * (_rewardPerTokenStored1 - _rewardPerTokenStored0) / PRECISION */\n      tag_227\n      swap2\n      swap1\n      tag_201\n      jump\t// in\n    tag_227:\n        /* \"contracts/Gauge.sol\":24031:24118  reward += cp0.balanceOf * (_rewardPerTokenStored1 - _rewardPerTokenStored0) / PRECISION */\n      tag_228\n      swap1\n      dup8\n      tag_221\n      jump\t// in\n    tag_228:\n      swap6\n      pop\n        /* \"contracts/Gauge.sol\":23689:24133  {... */\n      pop\n      pop\n      pop\n      pop\n        /* \"contracts/Gauge.sol\":23684:23687  i++ */\n      dup1\n      dup1\n      tag_229\n      swap1\n      tag_230\n      jump\t// in\n    tag_229:\n      swap2\n      pop\n      pop\n        /* \"contracts/Gauge.sol\":23638:24133  for (uint i = _startIndex; i < _endIndex - 1; i++) {... */\n      jump(tag_216)\n    tag_217:\n      pop\n        /* \"contracts/Gauge.sol\":23591:24143  if (_endIndex - _startIndex > 1) {... */\n    tag_215:\n      sub(shl(0xa0, 0x01), 0x01)\n        /* \"contracts/Gauge.sol\":24176:24196  checkpoints[account] */\n      dup7\n      and\n        /* \"contracts/Gauge.sol\":24153:24173  Checkpoint memory cp */\n      0x00\n        /* \"contracts/Gauge.sol\":24176:24196  checkpoints[account] */\n      swap1\n      dup2\n      mstore\n        /* \"contracts/Gauge.sol\":24176:24187  checkpoints */\n      0x0d\n        /* \"contracts/Gauge.sol\":24176:24196  checkpoints[account] */\n      0x20\n      swap1\n      dup2\n      mstore\n      0x40\n      dup1\n      dup4\n      keccak256\n        /* \"contracts/Gauge.sol\":24176:24207  checkpoints[account][_endIndex] */\n      dup6\n      dup5\n      mstore\n      dup3\n      mstore\n      dup1\n      dup4\n      keccak256\n        /* \"contracts/Gauge.sol\":24153:24207  Checkpoint memory cp = checkpoints[account][_endIndex] */\n      dup2\n      mload\n      dup1\n      dup4\n      add\n      swap1\n      swap3\n      mstore\n      dup1\n      sload\n      dup1\n      dup4\n      mstore\n      0x01\n      swap1\n      swap2\n      add\n      sload\n      swap3\n      dup3\n      add\n      swap3\n      swap1\n      swap3\n      mstore\n      swap2\n        /* \"contracts/Gauge.sol\":24153:24173  Checkpoint memory cp */\n      swap1\n        /* \"contracts/Gauge.sol\":24249:24292  getPriorRewardPerToken(token, cp.timestamp) */\n      tag_231\n      swap1\n        /* \"contracts/Gauge.sol\":24272:24277  token */\n      dup11\n      swap1\n        /* \"contracts/Gauge.sol\":24249:24271  getPriorRewardPerToken */\n      tag_184\n        /* \"contracts/Gauge.sol\":24249:24292  getPriorRewardPerToken(token, cp.timestamp) */\n      jump\t// in\n    tag_231:\n      pop\n      sub(shl(0xa0, 0x01), 0x01)\n        /* \"contracts/Gauge.sol\":24384:24415  userRewardPerTokenStored[token] */\n      dup1\n      dup12\n      and\n      0x00\n      swap1\n      dup2\n      mstore\n        /* \"contracts/Gauge.sol\":24384:24408  userRewardPerTokenStored */\n      0x07\n        /* \"contracts/Gauge.sol\":24384:24415  userRewardPerTokenStored[token] */\n      0x20\n      swap1\n      dup2\n      mstore\n      0x40\n      dup1\n      dup4\n      keccak256\n        /* \"contracts/Gauge.sol\":24384:24424  userRewardPerTokenStored[token][account] */\n      swap4\n      dup14\n      and\n      dup4\n      mstore\n      swap3\n      swap1\n      mstore\n      keccak256\n      sload\n        /* \"contracts/Gauge.sol\":24217:24292  (uint _rewardPerTokenStored,) = getPriorRewardPerToken(token, cp.timestamp) */\n      swap1\n      swap2\n      pop\n        /* \"contracts/Gauge.sol\":10500:10508  10 ** 18 */\n      0x0de0b6b3a7640000\n      swap1\n        /* \"contracts/Gauge.sol\":24352:24425  Math.max(_rewardPerTokenStored, userRewardPerTokenStored[token][account]) */\n      tag_232\n      swap1\n        /* \"contracts/Gauge.sol\":24217:24292  (uint _rewardPerTokenStored,) = getPriorRewardPerToken(token, cp.timestamp) */\n      dup4\n      swap1\n        /* \"contracts/Gauge.sol\":24352:24360  Math.max */\n      tag_210\n        /* \"contracts/Gauge.sol\":24352:24425  Math.max(_rewardPerTokenStored, userRewardPerTokenStored[token][account]) */\n      jump\t// in\n    tag_232:\n        /* \"contracts/Gauge.sol\":24328:24349  rewardPerToken(token) */\n      tag_233\n        /* \"contracts/Gauge.sol\":24343:24348  token */\n      dup12\n        /* \"contracts/Gauge.sol\":24328:24342  rewardPerToken */\n      tag_168\n        /* \"contracts/Gauge.sol\":24328:24349  rewardPerToken(token) */\n      jump\t// in\n    tag_233:\n        /* \"contracts/Gauge.sol\":24328:24425  rewardPerToken(token) - Math.max(_rewardPerTokenStored, userRewardPerTokenStored[token][account]) */\n      tag_234\n      swap2\n      swap1\n      tag_192\n      jump\t// in\n    tag_234:\n        /* \"contracts/Gauge.sol\":24312:24314  cp */\n      dup4\n        /* \"contracts/Gauge.sol\":24312:24324  cp.balanceOf */\n      0x20\n      add\n      mload\n        /* \"contracts/Gauge.sol\":24312:24426  cp.balanceOf * (rewardPerToken(token) - Math.max(_rewardPerTokenStored, userRewardPerTokenStored[token][account])) */\n      tag_235\n      swap2\n      swap1\n      tag_226\n      jump\t// in\n    tag_235:\n        /* \"contracts/Gauge.sol\":24312:24438  cp.balanceOf * (rewardPerToken(token) - Math.max(_rewardPerTokenStored, userRewardPerTokenStored[token][account])) / PRECISION */\n      tag_236\n      swap2\n      swap1\n      tag_201\n      jump\t// in\n    tag_236:\n        /* \"contracts/Gauge.sol\":24302:24438  reward += cp.balanceOf * (rewardPerToken(token) - Math.max(_rewardPerTokenStored, userRewardPerTokenStored[token][account])) / PRECISION */\n      tag_237\n      swap1\n      dup5\n      tag_221\n      jump\t// in\n    tag_237:\n      swap10\n        /* \"contracts/Gauge.sol\":23159:24469  function earned(address token, address account) public view returns (uint) {... */\n      swap9\n      pop\n      pop\n      pop\n      pop\n      pop\n      pop\n      pop\n      pop\n      pop\n      jump\t// out\n        /* \"contracts/Gauge.sol\":25804:26016  function withdraw(uint amount) public {... */\n    tag_82:\n        /* \"contracts/Gauge.sol\":25902:25912  msg.sender */\n      caller\n        /* \"contracts/Gauge.sol\":25852:25864  uint tokenId */\n      0x00\n        /* \"contracts/Gauge.sol\":25892:25913  balanceOf[msg.sender] */\n      swap1\n      dup2\n      mstore\n        /* \"contracts/Gauge.sol\":25892:25901  balanceOf */\n      0x0a\n        /* \"contracts/Gauge.sol\":25892:25913  balanceOf[msg.sender] */\n      0x20\n      mstore\n      0x40\n      dup2\n      keccak256\n      sload\n        /* \"contracts/Gauge.sol\":25882:25913  amount == balanceOf[msg.sender] */\n      dup3\n      eq\n        /* \"contracts/Gauge.sol\":25878:25970  if (amount == balanceOf[msg.sender]) {... */\n      iszero\n      tag_239\n      jumpi\n      pop\n        /* \"contracts/Gauge.sol\":25948:25958  msg.sender */\n      caller\n        /* \"contracts/Gauge.sol\":25939:25959  tokenIds[msg.sender] */\n      0x00\n      swap1\n      dup2\n      mstore\n        /* \"contracts/Gauge.sol\":25939:25947  tokenIds */\n      0x08\n        /* \"contracts/Gauge.sol\":25939:25959  tokenIds[msg.sender] */\n      0x20\n      mstore\n      0x40\n      swap1\n      keccak256\n      sload\n        /* \"contracts/Gauge.sol\":25878:25970  if (amount == balanceOf[msg.sender]) {... */\n    tag_239:\n        /* \"contracts/Gauge.sol\":25979:26009  withdrawToken(amount, tokenId) */\n      tag_240\n        /* \"contracts/Gauge.sol\":25993:25999  amount */\n      dup3\n        /* \"contracts/Gauge.sol\":26001:26008  tokenId */\n      dup3\n        /* \"contracts/Gauge.sol\":25979:25992  withdrawToken */\n      tag_188\n        /* \"contracts/Gauge.sol\":25979:26009  withdrawToken(amount, tokenId) */\n      jump\t// in\n    tag_240:\n        /* \"contracts/Gauge.sol\":25842:26016  {... */\n      pop\n        /* \"contracts/Gauge.sol\":25804:26016  function withdraw(uint amount) public {... */\n      pop\n      jump\t// out\n        /* \"contracts/Gauge.sol\":17810:18905  function getReward(address account, address[] memory tokens) external nonReentrant {... */\n    tag_86:\n        /* \"contracts/Gauge.sol\":3133:3134  2 */\n      0x02\n        /* \"contracts/Gauge.sol\":3714:3721  _status */\n      sload(0x00)\n        /* \"contracts/Gauge.sol\":3714:3733  _status != _ENTERED */\n      eq\n      iszero\n        /* \"contracts/Gauge.sol\":3706:3769  require(_status != _ENTERED, \"ReentrancyGuard: reentrant call\") */\n      tag_242\n      jumpi\n      mload(0x40)\n      shl(0xe5, 0x461bcd)\n      dup2\n      mstore\n      0x04\n      add\n      tag_243\n      swap1\n      tag_244\n      jump\t// in\n    tag_243:\n      mload(0x40)\n      dup1\n      swap2\n      sub\n      swap1\n      revert\n    tag_242:\n        /* \"contracts/Gauge.sol\":3133:3134  2 */\n      0x02\n        /* \"contracts/Gauge.sol\":3844:3851  _status */\n      0x00\n        /* \"contracts/Gauge.sol\":3844:3862  _status = _ENTERED */\n      sstore\n        /* \"contracts/Gauge.sol\":17911:17921  msg.sender */\n      caller\n      sub(shl(0xa0, 0x01), 0x01)\n        /* \"contracts/Gauge.sol\":17911:17932  msg.sender == account */\n      dup4\n      and\n      eq\n      dup1\n        /* \"contracts/Gauge.sol\":17911:17955  msg.sender == account || msg.sender == boost */\n      tag_246\n      jumpi\n      pop\n        /* \"contracts/Gauge.sol\":17936:17946  msg.sender */\n      caller\n      sub(shl(0xa0, 0x01), 0x01)\n        /* \"contracts/Gauge.sol\":17950:17955  boost */\n      immutable(\"0x8e831a88d8106460d1544aa376ec6155091b50c6145ad03273db7938ca17c5b1\")\n        /* \"contracts/Gauge.sol\":17936:17955  msg.sender == boost */\n      and\n      eq\n        /* \"contracts/Gauge.sol\":17911:17955  msg.sender == account || msg.sender == boost */\n    tag_246:\n        /* \"contracts/Gauge.sol\":17903:17956  require(msg.sender == account || msg.sender == boost) */\n      tag_247\n      jumpi\n      0x00\n      dup1\n      revert\n    tag_247:\n        /* \"contracts/Gauge.sol\":17966:18005  IBoost(boost).distribute(address(this)) */\n      mload(0x40)\n      shl(0xe0, 0x63453ae1)\n      dup2\n      mstore\n        /* \"contracts/Gauge.sol\":17999:18003  this */\n      address\n        /* \"contracts/Gauge.sol\":17966:18005  IBoost(boost).distribute(address(this)) */\n      0x04\n      dup3\n      add\n        /* \"#utility.yul\":3413:3464   */\n      mstore\n        /* \"contracts/Gauge.sol\":17973:17978  boost */\n      immutable(\"0x8e831a88d8106460d1544aa376ec6155091b50c6145ad03273db7938ca17c5b1\")\n      sub(shl(0xa0, 0x01), 0x01)\n        /* \"contracts/Gauge.sol\":17966:17990  IBoost(boost).distribute */\n      and\n      swap1\n      0x63453ae1\n      swap1\n        /* \"#utility.yul\":3386:3404   */\n      0x24\n      add\n        /* \"contracts/Gauge.sol\":17966:18005  IBoost(boost).distribute(address(this)) */\n      0x00\n      mload(0x40)\n      dup1\n      dup4\n      sub\n      dup2\n      0x00\n      dup8\n      dup1\n      extcodesize\n      iszero\n      dup1\n      iszero\n      tag_249\n      jumpi\n      0x00\n      dup1\n      revert\n    tag_249:\n      pop\n      gas\n      call\n      iszero\n      dup1\n      iszero\n      tag_251\n      jumpi\n      returndatasize\n      0x00\n      dup1\n      returndatacopy\n      revert(0x00, returndatasize)\n    tag_251:\n      pop\n      pop\n      pop\n      pop\n        /* \"contracts/Gauge.sol\":18021:18027  uint i */\n      0x00\n        /* \"contracts/Gauge.sol\":18016:18558  for (uint i = 0; i < tokens.length; i++) {... */\n    tag_252:\n        /* \"contracts/Gauge.sol\":18037:18043  tokens */\n      dup2\n        /* \"contracts/Gauge.sol\":18037:18050  tokens.length */\n      mload\n        /* \"contracts/Gauge.sol\":18033:18034  i */\n      dup2\n        /* \"contracts/Gauge.sol\":18033:18050  i < tokens.length */\n      lt\n        /* \"contracts/Gauge.sol\":18016:18558  for (uint i = 0; i < tokens.length; i++) {... */\n      iszero\n      tag_253\n      jumpi\n        /* \"contracts/Gauge.sol\":18134:18166  _updateRewardPerToken(tokens[i]) */\n      tag_255\n        /* \"contracts/Gauge.sol\":18156:18162  tokens */\n      dup3\n        /* \"contracts/Gauge.sol\":18163:18164  i */\n      dup3\n        /* \"contracts/Gauge.sol\":18156:18165  tokens[i] */\n      dup2\n      mload\n      dup2\n      lt\n      tag_257\n      jumpi\n      tag_257\n      tag_258\n      jump\t// in\n    tag_257:\n      0x20\n      mul\n      0x20\n      add\n      add\n      mload\n        /* \"contracts/Gauge.sol\":18134:18155  _updateRewardPerToken */\n      tag_259\n        /* \"contracts/Gauge.sol\":18134:18166  _updateRewardPerToken(tokens[i]) */\n      jump\t// in\n    tag_255:\n        /* \"contracts/Gauge.sol\":18072:18092  rewardPerTokenStored */\n      0x05\n        /* \"contracts/Gauge.sol\":18072:18103  rewardPerTokenStored[tokens[i]] */\n      0x00\n        /* \"contracts/Gauge.sol\":18093:18099  tokens */\n      dup6\n        /* \"contracts/Gauge.sol\":18100:18101  i */\n      dup6\n        /* \"contracts/Gauge.sol\":18093:18102  tokens[i] */\n      dup2\n      mload\n      dup2\n      lt\n      tag_261\n      jumpi\n      tag_261\n      tag_258\n      jump\t// in\n    tag_261:\n      0x20\n      mul\n      0x20\n      add\n      add\n      mload\n      sub(shl(0xa0, 0x01), 0x01)\n        /* \"contracts/Gauge.sol\":18072:18103  rewardPerTokenStored[tokens[i]] */\n      and\n      sub(shl(0xa0, 0x01), 0x01)\n      and\n      dup2\n      mstore\n      0x20\n      add\n      swap1\n      dup2\n      mstore\n      0x20\n      add\n      0x00\n      keccak256\n      0x00\n        /* \"contracts/Gauge.sol\":18105:18119  lastUpdateTime */\n      0x04\n        /* \"contracts/Gauge.sol\":18105:18130  lastUpdateTime[tokens[i]] */\n      0x00\n        /* \"contracts/Gauge.sol\":18120:18126  tokens */\n      dup8\n        /* \"contracts/Gauge.sol\":18127:18128  i */\n      dup8\n        /* \"contracts/Gauge.sol\":18120:18129  tokens[i] */\n      dup2\n      mload\n      dup2\n      lt\n      tag_263\n      jumpi\n      tag_263\n      tag_258\n      jump\t// in\n    tag_263:\n      0x20\n      mul\n      0x20\n      add\n      add\n      mload\n      sub(shl(0xa0, 0x01), 0x01)\n        /* \"contracts/Gauge.sol\":18105:18130  lastUpdateTime[tokens[i]] */\n      and\n      sub(shl(0xa0, 0x01), 0x01)\n      and\n      dup2\n      mstore\n      0x20\n      add\n      swap1\n      dup2\n      mstore\n      0x20\n      add\n      0x00\n      keccak256\n      0x00\n        /* \"contracts/Gauge.sol\":18071:18166  (rewardPerTokenStored[tokens[i]], lastUpdateTime[tokens[i]]) = _updateRewardPerToken(tokens[i]) */\n      dup5\n      swap2\n      swap1\n      pop\n      sstore\n      dup4\n      swap2\n      swap1\n      pop\n      sstore\n      pop\n      pop\n        /* \"contracts/Gauge.sol\":18181:18193  uint _reward */\n      0x00\n        /* \"contracts/Gauge.sol\":18196:18222  earned(tokens[i], account) */\n      tag_264\n        /* \"contracts/Gauge.sol\":18203:18209  tokens */\n      dup4\n        /* \"contracts/Gauge.sol\":18210:18211  i */\n      dup4\n        /* \"contracts/Gauge.sol\":18203:18212  tokens[i] */\n      dup2\n      mload\n      dup2\n      lt\n      tag_266\n      jumpi\n      tag_266\n      tag_258\n      jump\t// in\n    tag_266:\n      0x20\n      mul\n      0x20\n      add\n      add\n      mload\n        /* \"contracts/Gauge.sol\":18214:18221  account */\n      dup6\n        /* \"contracts/Gauge.sol\":18196:18202  earned */\n      tag_68\n        /* \"contracts/Gauge.sol\":18196:18222  earned(tokens[i], account) */\n      jump\t// in\n    tag_264:\n        /* \"contracts/Gauge.sol\":18181:18222  uint _reward = earned(tokens[i], account) */\n      swap1\n      pop\n        /* \"contracts/Gauge.sol\":18267:18282  block.timestamp */\n      timestamp\n        /* \"contracts/Gauge.sol\":18236:18244  lastEarn */\n      0x06\n        /* \"contracts/Gauge.sol\":18236:18255  lastEarn[tokens[i]] */\n      0x00\n        /* \"contracts/Gauge.sol\":18245:18251  tokens */\n      dup6\n        /* \"contracts/Gauge.sol\":18252:18253  i */\n      dup6\n        /* \"contracts/Gauge.sol\":18245:18254  tokens[i] */\n      dup2\n      mload\n      dup2\n      lt\n      tag_268\n      jumpi\n      tag_268\n      tag_258\n      jump\t// in\n    tag_268:\n      0x20\n      mul\n      0x20\n      add\n      add\n      mload\n      sub(shl(0xa0, 0x01), 0x01)\n        /* \"contracts/Gauge.sol\":18236:18255  lastEarn[tokens[i]] */\n      and\n      sub(shl(0xa0, 0x01), 0x01)\n      and\n      dup2\n      mstore\n      0x20\n      add\n      swap1\n      dup2\n      mstore\n      0x20\n      add\n      0x00\n      keccak256\n        /* \"contracts/Gauge.sol\":18236:18264  lastEarn[tokens[i]][account] */\n      0x00\n        /* \"contracts/Gauge.sol\":18256:18263  account */\n      dup7\n      sub(shl(0xa0, 0x01), 0x01)\n        /* \"contracts/Gauge.sol\":18236:18264  lastEarn[tokens[i]][account] */\n      and\n      sub(shl(0xa0, 0x01), 0x01)\n      and\n      dup2\n      mstore\n      0x20\n      add\n      swap1\n      dup2\n      mstore\n      0x20\n      add\n      0x00\n      keccak256\n        /* \"contracts/Gauge.sol\":18236:18282  lastEarn[tokens[i]][account] = block.timestamp */\n      dup2\n      swap1\n      sstore\n      pop\n        /* \"contracts/Gauge.sol\":18343:18363  rewardPerTokenStored */\n      0x05\n        /* \"contracts/Gauge.sol\":18343:18374  rewardPerTokenStored[tokens[i]] */\n      0x00\n        /* \"contracts/Gauge.sol\":18364:18370  tokens */\n      dup5\n        /* \"contracts/Gauge.sol\":18371:18372  i */\n      dup5\n        /* \"contracts/Gauge.sol\":18364:18373  tokens[i] */\n      dup2\n      mload\n      dup2\n      lt\n      tag_270\n      jumpi\n      tag_270\n      tag_258\n      jump\t// in\n    tag_270:\n      0x20\n      mul\n      0x20\n      add\n      add\n      mload\n      sub(shl(0xa0, 0x01), 0x01)\n        /* \"contracts/Gauge.sol\":18343:18374  rewardPerTokenStored[tokens[i]] */\n      and\n      sub(shl(0xa0, 0x01), 0x01)\n      and\n      dup2\n      mstore\n      0x20\n      add\n      swap1\n      dup2\n      mstore\n      0x20\n      add\n      0x00\n      keccak256\n      sload\n        /* \"contracts/Gauge.sol\":18296:18320  userRewardPerTokenStored */\n      0x07\n        /* \"contracts/Gauge.sol\":18296:18331  userRewardPerTokenStored[tokens[i]] */\n      0x00\n        /* \"contracts/Gauge.sol\":18321:18327  tokens */\n      dup6\n        /* \"contracts/Gauge.sol\":18328:18329  i */\n      dup6\n        /* \"contracts/Gauge.sol\":18321:18330  tokens[i] */\n      dup2\n      mload\n      dup2\n      lt\n      tag_272\n      jumpi\n      tag_272\n      tag_258\n      jump\t// in\n    tag_272:\n      0x20\n      swap1\n      dup2\n      mul\n      swap2\n      swap1\n      swap2\n      add\n      dup2\n      add\n      mload\n      sub(shl(0xa0, 0x01), 0x01)\n        /* \"contracts/Gauge.sol\":18296:18331  userRewardPerTokenStored[tokens[i]] */\n      swap1\n      dup2\n      and\n      dup4\n      mstore\n      dup3\n      dup3\n      add\n      swap4\n      swap1\n      swap4\n      mstore\n      0x40\n      swap2\n      dup3\n      add\n      0x00\n      swap1\n      dup2\n      keccak256\n        /* \"contracts/Gauge.sol\":18296:18340  userRewardPerTokenStored[tokens[i]][account] */\n      swap4\n      dup10\n      and\n      dup2\n      mstore\n      swap3\n      swap1\n      mstore\n      swap1\n      keccak256\n        /* \"contracts/Gauge.sol\":18296:18374  userRewardPerTokenStored[tokens[i]][account] = rewardPerTokenStored[tokens[i]] */\n      sstore\n        /* \"contracts/Gauge.sol\":18392:18403  _reward > 0 */\n      dup1\n      iszero\n        /* \"contracts/Gauge.sol\":18388:18485  if (_reward > 0) {... */\n      tag_274\n      jumpi\n        /* \"contracts/Gauge.sol\":18423:18470  _safeTokenTransfer(tokens[i], account, _reward) */\n      tag_274\n        /* \"contracts/Gauge.sol\":18442:18448  tokens */\n      dup4\n        /* \"contracts/Gauge.sol\":18449:18450  i */\n      dup4\n        /* \"contracts/Gauge.sol\":18442:18451  tokens[i] */\n      dup2\n      mload\n      dup2\n      lt\n      tag_276\n      jumpi\n      tag_276\n      tag_258\n      jump\t// in\n    tag_276:\n      0x20\n      mul\n      0x20\n      add\n      add\n      mload\n        /* \"contracts/Gauge.sol\":18453:18460  account */\n      dup6\n        /* \"contracts/Gauge.sol\":18462:18469  _reward */\n      dup4\n        /* \"contracts/Gauge.sol\":18423:18441  _safeTokenTransfer */\n      tag_277\n        /* \"contracts/Gauge.sol\":18423:18470  _safeTokenTransfer(tokens[i], account, _reward) */\n      jump\t// in\n    tag_274:\n        /* \"contracts/Gauge.sol\":18528:18534  tokens */\n      dup3\n        /* \"contracts/Gauge.sol\":18535:18536  i */\n      dup3\n        /* \"contracts/Gauge.sol\":18528:18537  tokens[i] */\n      dup2\n      mload\n      dup2\n      lt\n      tag_279\n      jumpi\n      tag_279\n      tag_258\n      jump\t// in\n    tag_279:\n      0x20\n      mul\n      0x20\n      add\n      add\n      mload\n      sub(shl(0xa0, 0x01), 0x01)\n        /* \"contracts/Gauge.sol\":18503:18547  ClaimRewards(msg.sender, tokens[i], _reward) */\n      and\n        /* \"contracts/Gauge.sol\":18516:18526  msg.sender */\n      caller\n      sub(shl(0xa0, 0x01), 0x01)\n        /* \"contracts/Gauge.sol\":18503:18547  ClaimRewards(msg.sender, tokens[i], _reward) */\n      and\n      0x9aa05b3d70a9e3e2f004f039648839560576334fb45c81f91b6db03ad9e2efc9\n        /* \"contracts/Gauge.sol\":18539:18546  _reward */\n      dup4\n        /* \"contracts/Gauge.sol\":18503:18547  ClaimRewards(msg.sender, tokens[i], _reward) */\n      mload(0x40)\n      tag_280\n      swap2\n        /* \"#utility.yul\":1008:1033   */\n      dup2\n      mstore\n        /* \"#utility.yul\":996:998   */\n      0x20\n        /* \"#utility.yul\":981:999   */\n      add\n      swap1\n        /* \"#utility.yul\":862:1039   */\n      jump\n        /* \"contracts/Gauge.sol\":18503:18547  ClaimRewards(msg.sender, tokens[i], _reward) */\n    tag_280:\n      mload(0x40)\n      dup1\n      swap2\n      sub\n      swap1\n      log3\n      pop\n        /* \"contracts/Gauge.sol\":18052:18055  i++ */\n      dup1\n      tag_281\n      dup2\n      tag_230\n      jump\t// in\n    tag_281:\n      swap2\n      pop\n      pop\n        /* \"contracts/Gauge.sol\":18016:18558  for (uint i = 0; i < tokens.length; i++) {... */\n      jump(tag_252)\n    tag_253:\n      pop\n      sub(shl(0xa0, 0x01), 0x01)\n        /* \"contracts/Gauge.sol\":18591:18615  derivedBalances[account] */\n      dup3\n      and\n        /* \"contracts/Gauge.sol\":18568:18588  uint _derivedBalance */\n      0x00\n        /* \"contracts/Gauge.sol\":18591:18615  derivedBalances[account] */\n      swap1\n      dup2\n      mstore\n        /* \"contracts/Gauge.sol\":18591:18606  derivedBalances */\n      0x02\n        /* \"contracts/Gauge.sol\":18591:18615  derivedBalances[account] */\n      0x20\n      mstore\n      0x40\n      dup2\n      keccak256\n      sload\n        /* \"contracts/Gauge.sol\":18625:18638  derivedSupply */\n      0x01\n        /* \"contracts/Gauge.sol\":18625:18657  derivedSupply -= _derivedBalance */\n      dup1\n      sload\n        /* \"contracts/Gauge.sol\":18591:18615  derivedBalances[account] */\n      swap2\n      swap3\n      dup4\n      swap3\n        /* \"contracts/Gauge.sol\":18625:18657  derivedSupply -= _derivedBalance */\n      tag_282\n      swap1\n        /* \"contracts/Gauge.sol\":18591:18615  derivedBalances[account] */\n      dup5\n      swap1\n        /* \"contracts/Gauge.sol\":18625:18657  derivedSupply -= _derivedBalance */\n      tag_192\n      jump\t// in\n    tag_282:\n      swap1\n      swap2\n      sstore\n      pop\n        /* \"contracts/Gauge.sol\":18685:18708  derivedBalance(account) */\n      tag_283\n      swap1\n      pop\n        /* \"contracts/Gauge.sol\":18700:18707  account */\n      dup4\n        /* \"contracts/Gauge.sol\":18685:18699  derivedBalance */\n      tag_151\n        /* \"contracts/Gauge.sol\":18685:18708  derivedBalance(account) */\n      jump\t// in\n    tag_283:\n      sub(shl(0xa0, 0x01), 0x01)\n        /* \"contracts/Gauge.sol\":18718:18742  derivedBalances[account] */\n      dup5\n      and\n      0x00\n      swap1\n      dup2\n      mstore\n        /* \"contracts/Gauge.sol\":18718:18733  derivedBalances */\n      0x02\n        /* \"contracts/Gauge.sol\":18718:18742  derivedBalances[account] */\n      0x20\n      mstore\n      0x40\n      dup2\n      keccak256\n        /* \"contracts/Gauge.sol\":18718:18760  derivedBalances[account] = _derivedBalance */\n      dup3\n      swap1\n      sstore\n        /* \"contracts/Gauge.sol\":18770:18783  derivedSupply */\n      0x01\n        /* \"contracts/Gauge.sol\":18770:18802  derivedSupply += _derivedBalance */\n      dup1\n      sload\n        /* \"contracts/Gauge.sol\":18667:18708  _derivedBalance = derivedBalance(account) */\n      swap3\n      swap4\n      pop\n      dup4\n      swap3\n        /* \"contracts/Gauge.sol\":18770:18783  derivedSupply */\n      swap1\n      swap2\n        /* \"contracts/Gauge.sol\":18718:18742  derivedBalances[account] */\n      swap1\n        /* \"contracts/Gauge.sol\":18770:18802  derivedSupply += _derivedBalance */\n      tag_284\n      swap1\n        /* \"contracts/Gauge.sol\":18667:18708  _derivedBalance = derivedBalance(account) */\n      dup5\n      swap1\n        /* \"contracts/Gauge.sol\":18770:18802  derivedSupply += _derivedBalance */\n      tag_221\n      jump\t// in\n    tag_284:\n      swap1\n      swap2\n      sstore\n      pop\n      pop\n      sub(shl(0xa0, 0x01), 0x01)\n        /* \"contracts/Gauge.sol\":18839:18863  derivedBalances[account] */\n      dup4\n      and\n      0x00\n      swap1\n      dup2\n      mstore\n        /* \"contracts/Gauge.sol\":18839:18854  derivedBalances */\n      0x02\n        /* \"contracts/Gauge.sol\":18839:18863  derivedBalances[account] */\n      0x20\n      mstore\n      0x40\n      swap1\n      keccak256\n      sload\n        /* \"contracts/Gauge.sol\":18813:18864  _writeCheckpoint(account, derivedBalances[account]) */\n      tag_285\n      swap1\n        /* \"contracts/Gauge.sol\":18830:18837  account */\n      dup5\n      swap1\n        /* \"contracts/Gauge.sol\":18813:18829  _writeCheckpoint */\n      tag_286\n        /* \"contracts/Gauge.sol\":18813:18864  _writeCheckpoint(account, derivedBalances[account]) */\n      jump\t// in\n    tag_285:\n        /* \"contracts/Gauge.sol\":18874:18898  _writeSupplyCheckpoint() */\n      tag_287\n        /* \"contracts/Gauge.sol\":18874:18896  _writeSupplyCheckpoint */\n      tag_288\n        /* \"contracts/Gauge.sol\":18874:18898  _writeSupplyCheckpoint() */\n      jump\t// in\n    tag_287:\n      pop\n      pop\n        /* \"contracts/Gauge.sol\":3090:3091  1 */\n      0x01\n        /* \"contracts/Gauge.sol\":4017:4024  _status */\n      0x00\n        /* \"contracts/Gauge.sol\":4017:4039  _status = _NOT_ENTERED */\n      sstore\n      pop\n        /* \"contracts/Gauge.sol\":17810:18905  function getReward(address account, address[] memory tokens) external nonReentrant {... */\n      jump\t// out\n        /* \"contracts/Gauge.sol\":19811:19986  function batchRewardPerToken(address token, uint maxRuns) external {... */\n    tag_105:\n        /* \"contracts/Gauge.sol\":19943:19979  _batchRewardPerToken(token, maxRuns) */\n      tag_290\n        /* \"contracts/Gauge.sol\":19964:19969  token */\n      dup3\n        /* \"contracts/Gauge.sol\":19971:19978  maxRuns */\n      dup3\n        /* \"contracts/Gauge.sol\":19943:19963  _batchRewardPerToken */\n      tag_291\n        /* \"contracts/Gauge.sol\":19943:19979  _batchRewardPerToken(token, maxRuns) */\n      jump\t// in\n    tag_290:\n      sub(shl(0xa0, 0x01), 0x01)\n        /* \"contracts/Gauge.sol\":19889:19916  rewardPerTokenStored[token] */\n      swap1\n      swap4\n      and\n      0x00\n      swap1\n      dup2\n      mstore\n        /* \"contracts/Gauge.sol\":19889:19909  rewardPerTokenStored */\n      0x05\n        /* \"contracts/Gauge.sol\":19889:19916  rewardPerTokenStored[token] */\n      0x20\n      swap1\n      dup2\n      mstore\n      0x40\n      dup1\n      dup4\n      keccak256\n        /* \"contracts/Gauge.sol\":19918:19932  lastUpdateTime */\n      0x04\n        /* \"contracts/Gauge.sol\":19918:19939  lastUpdateTime[token] */\n      swap1\n      swap3\n      mstore\n      swap1\n      swap2\n      keccak256\n        /* \"contracts/Gauge.sol\":19888:19979  (rewardPerTokenStored[token], lastUpdateTime[token]) = _batchRewardPerToken(token, maxRuns) */\n      swap4\n      swap1\n      swap4\n      sstore\n      swap1\n      swap2\n      sstore\n      pop\n        /* \"contracts/Gauge.sol\":19811:19986  function batchRewardPerToken(address token, uint maxRuns) external {... */\n      jump\t// out\n        /* \"contracts/Gauge.sol\":12923:13939  function getPriorSupplyIndex(uint timestamp) public view returns (uint) {... */\n    tag_124:\n        /* \"contracts/Gauge.sol\":13025:13045  supplyNumCheckpoints */\n      sload(0x10)\n        /* \"contracts/Gauge.sol\":12989:12993  uint */\n      0x00\n      swap1\n        /* \"contracts/Gauge.sol\":13059:13076  nCheckpoints == 0 */\n      dup1\n        /* \"contracts/Gauge.sol\":13055:13111  if (nCheckpoints == 0) {... */\n      tag_294\n      jumpi\n      pop\n        /* \"contracts/Gauge.sol\":13099:13100  0 */\n      0x00\n      swap3\n        /* \"contracts/Gauge.sol\":12923:13939  function getPriorSupplyIndex(uint timestamp) public view returns (uint) {... */\n      swap2\n      pop\n      pop\n      jump\t// out\n        /* \"contracts/Gauge.sol\":13055:13111  if (nCheckpoints == 0) {... */\n    tag_294:\n        /* \"contracts/Gauge.sol\":13217:13226  timestamp */\n      dup3\n        /* \"contracts/Gauge.sol\":13168:13185  supplyCheckpoints */\n      0x0f\n        /* \"contracts/Gauge.sol\":13168:13203  supplyCheckpoints[nCheckpoints - 1] */\n      0x00\n        /* \"contracts/Gauge.sol\":13186:13202  nCheckpoints - 1 */\n      tag_295\n        /* \"contracts/Gauge.sol\":13201:13202  1 */\n      0x01\n        /* \"contracts/Gauge.sol\":13186:13198  nCheckpoints */\n      dup6\n        /* \"contracts/Gauge.sol\":13186:13202  nCheckpoints - 1 */\n      tag_192\n      jump\t// in\n    tag_295:\n        /* \"contracts/Gauge.sol\":13168:13203  supplyCheckpoints[nCheckpoints - 1] */\n      dup2\n      mstore\n      0x20\n      add\n      swap1\n      dup2\n      mstore\n      0x20\n      add\n      0x00\n      keccak256\n        /* \"contracts/Gauge.sol\":13168:13213  supplyCheckpoints[nCheckpoints - 1].timestamp */\n      0x00\n      add\n      sload\n        /* \"contracts/Gauge.sol\":13168:13226  supplyCheckpoints[nCheckpoints - 1].timestamp <= timestamp */\n      gt\n        /* \"contracts/Gauge.sol\":13164:13278  if (supplyCheckpoints[nCheckpoints - 1].timestamp <= timestamp) {... */\n      tag_296\n      jumpi\n        /* \"contracts/Gauge.sol\":13250:13266  nCheckpoints - 1 */\n      tag_297\n        /* \"contracts/Gauge.sol\":13265:13266  1 */\n      0x01\n        /* \"contracts/Gauge.sol\":13250:13262  nCheckpoints */\n      dup3\n        /* \"contracts/Gauge.sol\":13250:13266  nCheckpoints - 1 */\n      tag_192\n      jump\t// in\n    tag_297:\n        /* \"contracts/Gauge.sol\":13242:13267  return (nCheckpoints - 1) */\n      swap4\n        /* \"contracts/Gauge.sol\":12923:13939  function getPriorSupplyIndex(uint timestamp) public view returns (uint) {... */\n      swap3\n      pop\n      pop\n      pop\n      jump\t// out\n        /* \"contracts/Gauge.sol\":13164:13278  if (supplyCheckpoints[nCheckpoints - 1].timestamp <= timestamp) {... */\n    tag_296:\n        /* \"contracts/Gauge.sol\":13336:13356  supplyCheckpoints[0] */\n      0x00\n      dup1\n      mstore\n        /* \"contracts/Gauge.sol\":13336:13353  supplyCheckpoints */\n      0x0f\n        /* \"contracts/Gauge.sol\":13336:13356  supplyCheckpoints[0] */\n      0x20\n      mstore\n      0xf4803e074bd026baaf6ed2e288c9515f68c72fb7216eebdd7cae1718a53ec375\n        /* \"contracts/Gauge.sol\":13336:13366  supplyCheckpoints[0].timestamp */\n      sload\n        /* \"contracts/Gauge.sol\":13336:13378  supplyCheckpoints[0].timestamp > timestamp */\n      dup4\n      lt\n        /* \"contracts/Gauge.sol\":13332:13413  if (supplyCheckpoints[0].timestamp > timestamp) {... */\n      iszero\n      tag_298\n      jumpi\n      pop\n        /* \"contracts/Gauge.sol\":13401:13402  0 */\n      0x00\n      swap3\n        /* \"contracts/Gauge.sol\":12923:13939  function getPriorSupplyIndex(uint timestamp) public view returns (uint) {... */\n      swap2\n      pop\n      pop\n      jump\t// out\n        /* \"contracts/Gauge.sol\":13332:13413  if (supplyCheckpoints[0].timestamp > timestamp) {... */\n    tag_298:\n        /* \"contracts/Gauge.sol\":13423:13433  uint lower */\n      0x00\n      dup1\n        /* \"contracts/Gauge.sol\":13460:13476  nCheckpoints - 1 */\n      tag_299\n        /* \"contracts/Gauge.sol\":13475:13476  1 */\n      0x01\n        /* \"contracts/Gauge.sol\":13460:13472  nCheckpoints */\n      dup5\n        /* \"contracts/Gauge.sol\":13460:13476  nCheckpoints - 1 */\n      tag_192\n      jump\t// in\n    tag_299:\n        /* \"contracts/Gauge.sol\":13447:13476  uint upper = nCheckpoints - 1 */\n      swap1\n      pop\n        /* \"contracts/Gauge.sol\":13486:13911  while (upper > lower) {... */\n    tag_300:\n        /* \"contracts/Gauge.sol\":13501:13506  lower */\n      dup2\n        /* \"contracts/Gauge.sol\":13493:13498  upper */\n      dup2\n        /* \"contracts/Gauge.sol\":13493:13506  upper > lower */\n      gt\n        /* \"contracts/Gauge.sol\":13486:13911  while (upper > lower) {... */\n      iszero\n      tag_301\n      jumpi\n        /* \"contracts/Gauge.sol\":13522:13533  uint center */\n      0x00\n        /* \"contracts/Gauge.sol\":13562:13563  2 */\n      0x02\n        /* \"contracts/Gauge.sol\":13545:13558  upper - lower */\n      tag_302\n        /* \"contracts/Gauge.sol\":13553:13558  lower */\n      dup5\n        /* \"contracts/Gauge.sol\":13545:13550  upper */\n      dup5\n        /* \"contracts/Gauge.sol\":13545:13558  upper - lower */\n      tag_192\n      jump\t// in\n    tag_302:\n        /* \"contracts/Gauge.sol\":13544:13563  (upper - lower) / 2 */\n      tag_303\n      swap2\n      swap1\n      tag_201\n      jump\t// in\n    tag_303:\n        /* \"contracts/Gauge.sol\":13536:13563  upper - (upper - lower) / 2 */\n      tag_304\n      swap1\n        /* \"contracts/Gauge.sol\":13536:13541  upper */\n      dup4\n        /* \"contracts/Gauge.sol\":13536:13563  upper - (upper - lower) / 2 */\n      tag_192\n      jump\t// in\n    tag_304:\n        /* \"contracts/Gauge.sol\":13616:13642  SupplyCheckpoint memory cp */\n      0x00\n        /* \"contracts/Gauge.sol\":13645:13670  supplyCheckpoints[center] */\n      dup2\n      dup2\n      mstore\n        /* \"contracts/Gauge.sol\":13645:13662  supplyCheckpoints */\n      0x0f\n        /* \"contracts/Gauge.sol\":13645:13670  supplyCheckpoints[center] */\n      0x20\n      swap1\n      dup2\n      mstore\n      0x40\n      swap2\n      dup3\n      swap1\n      keccak256\n        /* \"contracts/Gauge.sol\":13616:13670  SupplyCheckpoint memory cp = supplyCheckpoints[center] */\n      dup3\n      mload\n      dup1\n      dup5\n      add\n      swap1\n      swap4\n      mstore\n      dup1\n      sload\n      dup1\n      dup5\n      mstore\n      0x01\n      swap1\n      swap2\n      add\n      sload\n      swap2\n      dup4\n      add\n      swap2\n      swap1\n      swap2\n      mstore\n        /* \"contracts/Gauge.sol\":13522:13563  uint center = upper - (upper - lower) / 2 */\n      swap2\n      swap3\n      pop\n        /* \"contracts/Gauge.sol\":13616:13670  SupplyCheckpoint memory cp = supplyCheckpoints[center] */\n      swap1\n        /* \"contracts/Gauge.sol\":13688:13713  cp.timestamp == timestamp */\n      dup8\n      eq\n        /* \"contracts/Gauge.sol\":13684:13901  if (cp.timestamp == timestamp) {... */\n      iszero\n      tag_305\n      jumpi\n      pop\n        /* \"contracts/Gauge.sol\":13740:13746  center */\n      swap6\n        /* \"contracts/Gauge.sol\":12923:13939  function getPriorSupplyIndex(uint timestamp) public view returns (uint) {... */\n      swap5\n      pop\n      pop\n      pop\n      pop\n      pop\n      jump\t// out\n        /* \"contracts/Gauge.sol\":13684:13901  if (cp.timestamp == timestamp) {... */\n    tag_305:\n        /* \"contracts/Gauge.sol\":13771:13783  cp.timestamp */\n      dup1\n      mload\n        /* \"contracts/Gauge.sol\":13771:13795  cp.timestamp < timestamp */\n      dup8\n      gt\n        /* \"contracts/Gauge.sol\":13767:13901  if (cp.timestamp < timestamp) {... */\n      iszero\n      tag_307\n      jumpi\n        /* \"contracts/Gauge.sol\":13823:13829  center */\n      dup2\n        /* \"contracts/Gauge.sol\":13815:13829  lower = center */\n      swap4\n      pop\n        /* \"contracts/Gauge.sol\":13767:13901  if (cp.timestamp < timestamp) {... */\n      jump(tag_308)\n    tag_307:\n        /* \"contracts/Gauge.sol\":13876:13886  center - 1 */\n      tag_309\n        /* \"contracts/Gauge.sol\":13885:13886  1 */\n      0x01\n        /* \"contracts/Gauge.sol\":13876:13882  center */\n      dup4\n        /* \"contracts/Gauge.sol\":13876:13886  center - 1 */\n      tag_192\n      jump\t// in\n    tag_309:\n        /* \"contracts/Gauge.sol\":13868:13886  upper = center - 1 */\n      swap3\n      pop\n        /* \"contracts/Gauge.sol\":13767:13901  if (cp.timestamp < timestamp) {... */\n    tag_308:\n        /* \"contracts/Gauge.sol\":13508:13911  {... */\n      pop\n      pop\n        /* \"contracts/Gauge.sol\":13486:13911  while (upper > lower) {... */\n      jump(tag_300)\n    tag_301:\n      pop\n        /* \"contracts/Gauge.sol\":13927:13932  lower */\n      swap4\n        /* \"contracts/Gauge.sol\":12923:13939  function getPriorSupplyIndex(uint timestamp) public view returns (uint) {... */\n      swap3\n      pop\n      pop\n      pop\n      jump\t// out\n        /* \"contracts/Gauge.sol\":25718:25798  function withdrawAll() external {... */\n    tag_127:\n        /* \"contracts/Gauge.sol\":25779:25789  msg.sender */\n      caller\n        /* \"contracts/Gauge.sol\":25769:25790  balanceOf[msg.sender] */\n      0x00\n      swap1\n      dup2\n      mstore\n        /* \"contracts/Gauge.sol\":25769:25778  balanceOf */\n      0x0a\n        /* \"contracts/Gauge.sol\":25769:25790  balanceOf[msg.sender] */\n      0x20\n      mstore\n      0x40\n      swap1\n      keccak256\n      sload\n        /* \"contracts/Gauge.sol\":25760:25791  withdraw(balanceOf[msg.sender]) */\n      tag_311\n      swap1\n        /* \"contracts/Gauge.sol\":25760:25768  withdraw */\n      tag_82\n        /* \"contracts/Gauge.sol\":25760:25791  withdraw(balanceOf[msg.sender]) */\n      jump\t// in\n    tag_311:\n        /* \"contracts/Gauge.sol\":25718:25798  function withdrawAll() external {... */\n      jump\t// out\n        /* \"contracts/Gauge.sol\":26975:27521  function notifyRewardAmount(address token, uint _rewardRate) external  {... */\n    tag_145:\n        /* \"contracts/Gauge.sol\":27073:27078  stake */\n      immutable(\"0xd094ef07eef1924f3d7fe3d896f6ebece97bd5683077be90743b91a72d59db67\")\n      sub(shl(0xa0, 0x01), 0x01)\n        /* \"contracts/Gauge.sol\":27064:27078  token != stake */\n      and\n        /* \"contracts/Gauge.sol\":27064:27069  token */\n      dup3\n      sub(shl(0xa0, 0x01), 0x01)\n        /* \"contracts/Gauge.sol\":27064:27078  token != stake */\n      and\n      eq\n      iszero\n        /* \"contracts/Gauge.sol\":27056:27091  require(token != stake, \"no stake\") */\n      tag_313\n      jumpi\n      mload(0x40)\n      shl(0xe5, 0x461bcd)\n      dup2\n      mstore\n        /* \"#utility.yul\":5544:5546   */\n      0x20\n        /* \"contracts/Gauge.sol\":27056:27091  require(token != stake, \"no stake\") */\n      0x04\n      dup3\n      add\n        /* \"#utility.yul\":5526:5547   */\n      mstore\n        /* \"#utility.yul\":5583:5584   */\n      0x08\n        /* \"#utility.yul\":5563:5581   */\n      0x24\n      dup3\n      add\n        /* \"#utility.yul\":5556:5585   */\n      mstore\n      shl(0xc0, 0x6e6f207374616b65)\n        /* \"#utility.yul\":5601:5619   */\n      0x44\n      dup3\n      add\n        /* \"#utility.yul\":5594:5632   */\n      mstore\n        /* \"#utility.yul\":5649:5667   */\n      0x64\n      add\n        /* \"contracts/Gauge.sol\":27056:27091  require(token != stake, \"no stake\") */\n      tag_243\n        /* \"#utility.yul\":5342:5673   */\n      jump\n        /* \"contracts/Gauge.sol\":27056:27091  require(token != stake, \"no stake\") */\n    tag_313:\n      sub(shl(0xa0, 0x01), 0x01)\n        /* \"contracts/Gauge.sol\":27105:27122  rewardRate[token] */\n      dup3\n      and\n      0x00\n      swap1\n      dup2\n      mstore\n        /* \"contracts/Gauge.sol\":27105:27115  rewardRate */\n      0x03\n        /* \"contracts/Gauge.sol\":27105:27122  rewardRate[token] */\n      0x20\n      mstore\n      0x40\n      swap1\n      keccak256\n      sload\n        /* \"contracts/Gauge.sol\":27101:27211  if (rewardRate[token] == 0) {... */\n      tag_317\n      jumpi\n        /* \"contracts/Gauge.sol\":27143:27200  _writeRewardPerTokenCheckpoint(token, 0, block.timestamp) */\n      tag_317\n        /* \"contracts/Gauge.sol\":27174:27179  token */\n      dup3\n        /* \"contracts/Gauge.sol\":27181:27182  0 */\n      0x00\n        /* \"contracts/Gauge.sol\":27184:27199  block.timestamp */\n      timestamp\n        /* \"contracts/Gauge.sol\":27143:27173  _writeRewardPerTokenCheckpoint */\n      tag_318\n        /* \"contracts/Gauge.sol\":27143:27200  _writeRewardPerTokenCheckpoint(token, 0, block.timestamp) */\n      jump\t// in\n    tag_317:\n        /* \"contracts/Gauge.sol\":27275:27303  _updateRewardPerToken(token) */\n      tag_319\n        /* \"contracts/Gauge.sol\":27297:27302  token */\n      dup3\n        /* \"contracts/Gauge.sol\":27275:27296  _updateRewardPerToken */\n      tag_259\n        /* \"contracts/Gauge.sol\":27275:27303  _updateRewardPerToken(token) */\n      jump\t// in\n    tag_319:\n      sub(shl(0xa0, 0x01), 0x01)\n        /* \"contracts/Gauge.sol\":27221:27248  rewardPerTokenStored[token] */\n      dup5\n      and\n      0x00\n      swap1\n      dup2\n      mstore\n        /* \"contracts/Gauge.sol\":27221:27241  rewardPerTokenStored */\n      0x05\n        /* \"contracts/Gauge.sol\":27221:27248  rewardPerTokenStored[token] */\n      0x20\n      swap1\n      dup2\n      mstore\n      0x40\n      dup1\n      dup4\n      keccak256\n        /* \"contracts/Gauge.sol\":27250:27264  lastUpdateTime */\n      0x04\n        /* \"contracts/Gauge.sol\":27250:27271  lastUpdateTime[token] */\n      dup4\n      mstore\n      dup2\n      dup5\n      keccak256\n        /* \"contracts/Gauge.sol\":27220:27303  (rewardPerTokenStored[token], lastUpdateTime[token]) = _updateRewardPerToken(token) */\n      swap5\n      swap1\n      swap5\n      sstore\n      swap4\n      swap1\n      swap3\n      sstore\n        /* \"contracts/Gauge.sol\":27313:27323  rewardRate */\n      0x03\n        /* \"contracts/Gauge.sol\":27313:27330  rewardRate[token] */\n      dup3\n      mstore\n      dup3\n      dup2\n      keccak256\n        /* \"contracts/Gauge.sol\":27313:27344  rewardRate[token] = _rewardRate */\n      dup5\n      swap1\n      sstore\n        /* \"contracts/Gauge.sol\":27359:27367  isReward */\n      0x0c\n        /* \"contracts/Gauge.sol\":27359:27374  isReward[token] */\n      swap1\n      swap2\n      mstore\n      keccak256\n      sload\n      0xff\n      and\n        /* \"contracts/Gauge.sol\":27354:27456  if (!isReward[token]) {... */\n      tag_320\n      jumpi\n      sub(shl(0xa0, 0x01), 0x01)\n        /* \"contracts/Gauge.sol\":27390:27405  isReward[token] */\n      dup3\n      and\n      0x00\n      dup2\n      dup2\n      mstore\n        /* \"contracts/Gauge.sol\":27390:27398  isReward */\n      0x0c\n        /* \"contracts/Gauge.sol\":27390:27405  isReward[token] */\n      0x20\n      mstore\n      0x40\n      dup2\n      keccak256\n        /* \"contracts/Gauge.sol\":27390:27412  isReward[token] = true */\n      dup1\n      sload\n      not(0xff)\n      and\n        /* \"contracts/Gauge.sol\":27408:27412  true */\n      0x01\n        /* \"contracts/Gauge.sol\":27390:27412  isReward[token] = true */\n      swap1\n      dup2\n      or\n      swap1\n      swap2\n      sstore\n        /* \"contracts/Gauge.sol\":27426:27433  rewards */\n      0x0b\n        /* \"contracts/Gauge.sol\":27426:27445  rewards.push(token) */\n      dup1\n      sload\n      swap2\n      dup3\n      add\n      dup2\n      sstore\n      swap1\n      swap2\n      mstore\n      0x0175b7a638427703f0dbe7bb9bbf987a2551717b34e79f33b5b1008d1fa01db9\n      add\n      dup1\n      sload\n      not(sub(shl(0xa0, 0x01), 0x01))\n      and\n      swap1\n      swap2\n      or\n      swap1\n      sstore\n        /* \"contracts/Gauge.sol\":27354:27456  if (!isReward[token]) {... */\n    tag_320:\n        /* \"contracts/Gauge.sol\":27470:27514  NotifyReward(msg.sender, token, _rewardRate) */\n      mload(0x40)\n        /* \"#utility.yul\":1008:1033   */\n      dup2\n      dup2\n      mstore\n      sub(shl(0xa0, 0x01), 0x01)\n        /* \"contracts/Gauge.sol\":27470:27514  NotifyReward(msg.sender, token, _rewardRate) */\n      dup4\n      and\n      swap1\n        /* \"contracts/Gauge.sol\":27483:27493  msg.sender */\n      caller\n      swap1\n        /* \"contracts/Gauge.sol\":27470:27514  NotifyReward(msg.sender, token, _rewardRate) */\n      0xf70d5c697de7ea828df48e5c4573cb2194c659f1901f70110c52b066dcf50826\n      swap1\n        /* \"#utility.yul\":996:998   */\n      0x20\n        /* \"#utility.yul\":981:999   */\n      add\n        /* \"contracts/Gauge.sol\":27470:27514  NotifyReward(msg.sender, token, _rewardRate) */\n      mload(0x40)\n      dup1\n      swap2\n      sub\n      swap1\n      log3\n        /* \"contracts/Gauge.sol\":26975:27521  function notifyRewardAmount(address token, uint _rewardRate) external  {... */\n      pop\n      pop\n      jump\t// out\n        /* \"contracts/Gauge.sol\":24475:24588  function depositAll(uint tokenId) external {... */\n    tag_148:\n        /* \"contracts/Gauge.sol\":24536:24571  IERC20(stake).balanceOf(msg.sender) */\n      mload(0x40)\n      shl(0xe0, 0x70a08231)\n      dup2\n      mstore\n        /* \"contracts/Gauge.sol\":24560:24570  msg.sender */\n      caller\n        /* \"contracts/Gauge.sol\":24536:24571  IERC20(stake).balanceOf(msg.sender) */\n      0x04\n      dup3\n      add\n        /* \"#utility.yul\":3413:3464   */\n      mstore\n        /* \"contracts/Gauge.sol\":24528:24581  deposit(IERC20(stake).balanceOf(msg.sender), tokenId) */\n      tag_324\n      swap1\n        /* \"contracts/Gauge.sol\":24543:24548  stake */\n      immutable(\"0xd094ef07eef1924f3d7fe3d896f6ebece97bd5683077be90743b91a72d59db67\")\n      sub(shl(0xa0, 0x01), 0x01)\n        /* \"contracts/Gauge.sol\":24536:24559  IERC20(stake).balanceOf */\n      and\n      swap1\n      0x70a08231\n      swap1\n        /* \"#utility.yul\":3386:3404   */\n      0x24\n      add\n        /* \"contracts/Gauge.sol\":24536:24571  IERC20(stake).balanceOf(msg.sender) */\n      0x20\n      mload(0x40)\n      dup1\n      dup4\n      sub\n      dup2\n      dup7\n      gas\n      staticcall\n      iszero\n      dup1\n      iszero\n      tag_327\n      jumpi\n      returndatasize\n      0x00\n      dup1\n      returndatacopy\n      revert(0x00, returndatasize)\n    tag_327:\n      pop\n      pop\n      pop\n      pop\n      mload(0x40)\n      returndatasize\n      not(0x1f)\n      0x1f\n      dup3\n      add\n      and\n      dup3\n      add\n      dup1\n      0x40\n      mstore\n      pop\n      dup2\n      add\n      swap1\n      tag_328\n      swap2\n      swap1\n      tag_329\n      jump\t// in\n    tag_328:\n        /* \"contracts/Gauge.sol\":24573:24580  tokenId */\n      dup3\n        /* \"contracts/Gauge.sol\":24528:24535  deposit */\n      tag_159\n        /* \"contracts/Gauge.sol\":24528:24581  deposit(IERC20(stake).balanceOf(msg.sender), tokenId) */\n      jump\t// in\n    tag_324:\n        /* \"contracts/Gauge.sol\":24475:24588  function depositAll(uint tokenId) external {... */\n      pop\n      jump\t// out\n        /* \"contracts/Gauge.sol\":19237:19805  function derivedBalance(address account) public view returns (uint) {... */\n    tag_151:\n      sub(shl(0xa0, 0x01), 0x01)\n        /* \"contracts/Gauge.sol\":19331:19348  tokenIds[account] */\n      dup2\n      and\n        /* \"contracts/Gauge.sol\":19299:19303  uint */\n      0x00\n        /* \"contracts/Gauge.sol\":19331:19348  tokenIds[account] */\n      swap1\n      dup2\n      mstore\n        /* \"contracts/Gauge.sol\":19331:19339  tokenIds */\n      0x08\n        /* \"contracts/Gauge.sol\":19331:19348  tokenIds[account] */\n      0x20\n      swap1\n      dup2\n      mstore\n      0x40\n      dup1\n      dup4\n      keccak256\n      sload\n        /* \"contracts/Gauge.sol\":19374:19383  balanceOf */\n      0x0a\n        /* \"contracts/Gauge.sol\":19374:19392  balanceOf[account] */\n      swap1\n      swap3\n      mstore\n      dup3\n      keccak256\n      sload\n        /* \"contracts/Gauge.sol\":19299:19303  uint */\n      dup3\n        /* \"contracts/Gauge.sol\":19434:19437  100 */\n      0x64\n        /* \"contracts/Gauge.sol\":19418:19431  _balance * 30 */\n      tag_331\n        /* \"contracts/Gauge.sol\":19374:19392  balanceOf[account] */\n      dup4\n        /* \"contracts/Gauge.sol\":19429:19431  30 */\n      0x1e\n        /* \"contracts/Gauge.sol\":19418:19431  _balance * 30 */\n      tag_226\n      jump\t// in\n    tag_331:\n        /* \"contracts/Gauge.sol\":19418:19437  _balance * 30 / 100 */\n      tag_332\n      swap2\n      swap1\n      tag_201\n      jump\t// in\n    tag_332:\n        /* \"contracts/Gauge.sol\":19490:19518  IBoost(boost).weights(stake) */\n      mload(0x40)\n      shl(0xe1, 0x53e56423)\n      dup2\n      mstore\n      sub(shl(0xa0, 0x01), 0x01)\n        /* \"contracts/Gauge.sol\":19512:19517  stake */\n      immutable(\"0xd094ef07eef1924f3d7fe3d896f6ebece97bd5683077be90743b91a72d59db67\")\n        /* \"#utility.yul\":3431:3463   */\n      dup2\n      and\n        /* \"contracts/Gauge.sol\":19490:19518  IBoost(boost).weights(stake) */\n      0x04\n      dup4\n      add\n        /* \"#utility.yul\":3413:3464   */\n      mstore\n        /* \"contracts/Gauge.sol\":19402:19437  uint _derived = _balance * 30 / 100 */\n      swap2\n      swap3\n      pop\n      0x00\n      swap2\n      dup3\n      swap2\n        /* \"contracts/Gauge.sol\":19497:19502  boost */\n      immutable(\"0x8e831a88d8106460d1544aa376ec6155091b50c6145ad03273db7938ca17c5b1\")\n        /* \"contracts/Gauge.sol\":19490:19511  IBoost(boost).weights */\n      swap1\n      swap2\n      and\n      swap1\n      0xa7cac846\n      swap1\n        /* \"#utility.yul\":3386:3404   */\n      0x24\n      add\n        /* \"contracts/Gauge.sol\":19490:19518  IBoost(boost).weights(stake) */\n      0x20\n      mload(0x40)\n      dup1\n      dup4\n      sub\n      dup2\n      dup7\n      gas\n      staticcall\n      iszero\n      dup1\n      iszero\n      tag_335\n      jumpi\n      returndatasize\n      0x00\n      dup1\n      returndatacopy\n      revert(0x00, returndatasize)\n    tag_335:\n      pop\n      pop\n      pop\n      pop\n      mload(0x40)\n      returndatasize\n      not(0x1f)\n      0x1f\n      dup3\n      add\n      and\n      dup3\n      add\n      dup1\n      0x40\n      mstore\n      pop\n      dup2\n      add\n      swap1\n      tag_336\n      swap2\n      swap1\n      tag_329\n      jump\t// in\n    tag_336:\n        /* \"contracts/Gauge.sol\":19543:19578  IVeToken(veToken).ownerOf(_tokenId) */\n      mload(0x40)\n      shl(0xe1, 0x31a9108f)\n      dup2\n      mstore\n      0x04\n      dup2\n      add\n        /* \"#utility.yul\":1008:1033   */\n      dup8\n      swap1\n      mstore\n        /* \"contracts/Gauge.sol\":19475:19518  uint _supply = IBoost(boost).weights(stake) */\n      swap1\n      swap2\n      pop\n        /* \"contracts/Gauge.sol\":19552:19559  veToken */\n      immutable(\"0xf149c9166005b187f5af29ceb397e7b9b5ab7e3a911adc91a9ebb826b208930e\")\n      sub(shl(0xa0, 0x01), 0x01)\n        /* \"contracts/Gauge.sol\":19543:19568  IVeToken(veToken).ownerOf */\n      and\n      swap1\n      0x6352211e\n      swap1\n        /* \"#utility.yul\":981:999   */\n      0x24\n      add\n        /* \"contracts/Gauge.sol\":19543:19578  IVeToken(veToken).ownerOf(_tokenId) */\n      0x20\n      mload(0x40)\n      dup1\n      dup4\n      sub\n      dup2\n      dup7\n      gas\n      staticcall\n      iszero\n      dup1\n      iszero\n      tag_339\n      jumpi\n      returndatasize\n      0x00\n      dup1\n      returndatacopy\n      revert(0x00, returndatasize)\n    tag_339:\n      pop\n      pop\n      pop\n      pop\n      mload(0x40)\n      returndatasize\n      not(0x1f)\n      0x1f\n      dup3\n      add\n      and\n      dup3\n      add\n      dup1\n      0x40\n      mstore\n      pop\n      dup2\n      add\n      swap1\n      tag_340\n      swap2\n      swap1\n      tag_341\n      jump\t// in\n    tag_340:\n      sub(shl(0xa0, 0x01), 0x01)\n        /* \"contracts/Gauge.sol\":19532:19578  account == IVeToken(veToken).ownerOf(_tokenId) */\n      and\n        /* \"contracts/Gauge.sol\":19532:19539  account */\n      dup8\n      sub(shl(0xa0, 0x01), 0x01)\n        /* \"contracts/Gauge.sol\":19532:19578  account == IVeToken(veToken).ownerOf(_tokenId) */\n      and\n      eq\n        /* \"contracts/Gauge.sol\":19532:19593  account == IVeToken(veToken).ownerOf(_tokenId) && _supply > 0 */\n      dup1\n      iszero\n      tag_342\n      jumpi\n      pop\n        /* \"contracts/Gauge.sol\":19592:19593  0 */\n      0x00\n        /* \"contracts/Gauge.sol\":19582:19589  _supply */\n      dup2\n        /* \"contracts/Gauge.sol\":19582:19593  _supply > 0 */\n      gt\n        /* \"contracts/Gauge.sol\":19532:19593  account == IVeToken(veToken).ownerOf(_tokenId) && _supply > 0 */\n    tag_342:\n        /* \"contracts/Gauge.sol\":19528:19740  if (account == IVeToken(veToken).ownerOf(_tokenId) && _supply > 0) {... */\n      iszero\n      tag_343\n      jumpi\n        /* \"contracts/Gauge.sol\":19621:19657  IBoost(boost).votes(_tokenId, stake) */\n      mload(0x40)\n      shl(0xe2, 0x348c952d)\n      dup2\n      mstore\n      0x04\n      dup2\n      add\n        /* \"#utility.yul\":6297:6322   */\n      dup7\n      swap1\n      mstore\n      sub(shl(0xa0, 0x01), 0x01)\n        /* \"contracts/Gauge.sol\":19651:19656  stake */\n      immutable(\"0xd094ef07eef1924f3d7fe3d896f6ebece97bd5683077be90743b91a72d59db67\")\n        /* \"#utility.yul\":6358:6390   */\n      dup2\n      and\n        /* \"#utility.yul\":6338:6356   */\n      0x24\n      dup4\n      add\n        /* \"#utility.yul\":6331:6391   */\n      mstore\n        /* \"contracts/Gauge.sol\":19628:19633  boost */\n      immutable(\"0x8e831a88d8106460d1544aa376ec6155091b50c6145ad03273db7938ca17c5b1\")\n        /* \"contracts/Gauge.sol\":19621:19640  IBoost(boost).votes */\n      and\n      swap1\n      0xd23254b4\n      swap1\n        /* \"#utility.yul\":6270:6288   */\n      0x44\n      add\n        /* \"contracts/Gauge.sol\":19621:19657  IBoost(boost).votes(_tokenId, stake) */\n      0x20\n      mload(0x40)\n      dup1\n      dup4\n      sub\n      dup2\n      dup7\n      gas\n      staticcall\n      iszero\n      dup1\n      iszero\n      tag_347\n      jumpi\n      returndatasize\n      0x00\n      dup1\n      returndatacopy\n      revert(0x00, returndatasize)\n    tag_347:\n      pop\n      pop\n      pop\n      pop\n      mload(0x40)\n      returndatasize\n      not(0x1f)\n      0x1f\n      dup3\n      add\n      and\n      dup3\n      add\n      dup1\n      0x40\n      mstore\n      pop\n      dup2\n      add\n      swap1\n      tag_348\n      swap2\n      swap1\n      tag_329\n      jump\t// in\n    tag_348:\n        /* \"contracts/Gauge.sol\":19609:19657  _adjusted = IBoost(boost).votes(_tokenId, stake) */\n      swap2\n      pop\n        /* \"contracts/Gauge.sol\":19726:19729  100 */\n      0x64\n        /* \"contracts/Gauge.sol\":19710:19717  _supply */\n      dup2\n        /* \"contracts/Gauge.sol\":19698:19707  _adjusted */\n      dup4\n        /* \"contracts/Gauge.sol\":19684:19695  totalSupply */\n      sload(0x09)\n        /* \"contracts/Gauge.sol\":19684:19707  totalSupply * _adjusted */\n      tag_349\n      swap2\n      swap1\n      tag_226\n      jump\t// in\n    tag_349:\n        /* \"contracts/Gauge.sol\":19684:19717  totalSupply * _adjusted / _supply */\n      tag_350\n      swap2\n      swap1\n      tag_201\n      jump\t// in\n    tag_350:\n        /* \"contracts/Gauge.sol\":19683:19723  (totalSupply * _adjusted / _supply) * 70 */\n      tag_351\n      swap1\n        /* \"contracts/Gauge.sol\":19721:19723  70 */\n      0x46\n        /* \"contracts/Gauge.sol\":19683:19723  (totalSupply * _adjusted / _supply) * 70 */\n      tag_226\n      jump\t// in\n    tag_351:\n        /* \"contracts/Gauge.sol\":19683:19729  (totalSupply * _adjusted / _supply) * 70 / 100 */\n      tag_352\n      swap2\n      swap1\n      tag_201\n      jump\t// in\n    tag_352:\n        /* \"contracts/Gauge.sol\":19671:19729  _adjusted = (totalSupply * _adjusted / _supply) * 70 / 100 */\n      swap2\n      pop\n        /* \"contracts/Gauge.sol\":19528:19740  if (account == IVeToken(veToken).ownerOf(_tokenId) && _supply > 0) {... */\n    tag_343:\n        /* \"contracts/Gauge.sol\":19756:19798  Math.min((_derived + _adjusted), _balance) */\n      tag_353\n        /* \"contracts/Gauge.sol\":19766:19786  _derived + _adjusted */\n      tag_354\n        /* \"contracts/Gauge.sol\":19777:19786  _adjusted */\n      dup4\n        /* \"contracts/Gauge.sol\":19766:19774  _derived */\n      dup6\n        /* \"contracts/Gauge.sol\":19766:19786  _derived + _adjusted */\n      tag_221\n      jump\t// in\n    tag_354:\n        /* \"contracts/Gauge.sol\":19789:19797  _balance */\n      dup6\n        /* \"contracts/Gauge.sol\":19756:19764  Math.min */\n      tag_355\n        /* \"contracts/Gauge.sol\":19756:19798  Math.min((_derived + _adjusted), _balance) */\n      jump\t// in\n    tag_353:\n        /* \"contracts/Gauge.sol\":19749:19798  return Math.min((_derived + _adjusted), _balance) */\n      swap8\n        /* \"contracts/Gauge.sol\":19237:19805  function derivedBalance(address account) public view returns (uint) {... */\n      swap7\n      pop\n      pop\n      pop\n      pop\n      pop\n      pop\n      pop\n      jump\t// out\n        /* \"contracts/Gauge.sol\":24594:25712  function deposit(uint amount, uint tokenId) public nonReentrant {... */\n    tag_159:\n        /* \"contracts/Gauge.sol\":3133:3134  2 */\n      0x02\n        /* \"contracts/Gauge.sol\":3714:3721  _status */\n      sload(0x00)\n        /* \"contracts/Gauge.sol\":3714:3733  _status != _ENTERED */\n      eq\n      iszero\n        /* \"contracts/Gauge.sol\":3706:3769  require(_status != _ENTERED, \"ReentrancyGuard: reentrant call\") */\n      tag_357\n      jumpi\n      mload(0x40)\n      shl(0xe5, 0x461bcd)\n      dup2\n      mstore\n      0x04\n      add\n      tag_243\n      swap1\n      tag_244\n      jump\t// in\n    tag_357:\n        /* \"contracts/Gauge.sol\":3133:3134  2 */\n      0x02\n        /* \"contracts/Gauge.sol\":3844:3851  _status */\n      0x00\n        /* \"contracts/Gauge.sol\":3844:3862  _status = _ENTERED */\n      sstore\n        /* \"contracts/Gauge.sol\":24676:24686  amount > 0 */\n      dup2\n        /* \"contracts/Gauge.sol\":24668:24687  require(amount > 0) */\n      tag_360\n      jumpi\n      0x00\n      dup1\n      revert\n    tag_360:\n        /* \"contracts/Gauge.sol\":24698:24771  TransferHelper.safeTransferFrom(stake, msg.sender, address(this), amount) */\n      tag_361\n        /* \"contracts/Gauge.sol\":24730:24735  stake */\n      immutable(\"0xd094ef07eef1924f3d7fe3d896f6ebece97bd5683077be90743b91a72d59db67\")\n        /* \"contracts/Gauge.sol\":24737:24747  msg.sender */\n      caller\n        /* \"contracts/Gauge.sol\":24757:24761  this */\n      address\n        /* \"contracts/Gauge.sol\":24764:24770  amount */\n      dup6\n        /* \"contracts/Gauge.sol\":24698:24729  TransferHelper.safeTransferFrom */\n      tag_362\n        /* \"contracts/Gauge.sol\":24698:24771  TransferHelper.safeTransferFrom(stake, msg.sender, address(this), amount) */\n      jump\t// in\n    tag_361:\n        /* \"contracts/Gauge.sol\":24796:24802  amount */\n      dup2\n        /* \"contracts/Gauge.sol\":24781:24792  totalSupply */\n      0x09\n      0x00\n        /* \"contracts/Gauge.sol\":24781:24802  totalSupply += amount */\n      dup3\n      dup3\n      sload\n      tag_363\n      swap2\n      swap1\n      tag_221\n      jump\t// in\n    tag_363:\n      swap1\n      swap2\n      sstore\n      pop\n      pop\n        /* \"contracts/Gauge.sol\":24822:24832  msg.sender */\n      caller\n        /* \"contracts/Gauge.sol\":24812:24833  balanceOf[msg.sender] */\n      0x00\n      swap1\n      dup2\n      mstore\n        /* \"contracts/Gauge.sol\":24812:24821  balanceOf */\n      0x0a\n        /* \"contracts/Gauge.sol\":24812:24833  balanceOf[msg.sender] */\n      0x20\n      mstore\n      0x40\n      dup2\n      keccak256\n        /* \"contracts/Gauge.sol\":24812:24843  balanceOf[msg.sender] += amount */\n      dup1\n      sload\n        /* \"contracts/Gauge.sol\":24837:24843  amount */\n      dup5\n      swap3\n        /* \"contracts/Gauge.sol\":24812:24833  balanceOf[msg.sender] */\n      swap1\n        /* \"contracts/Gauge.sol\":24812:24843  balanceOf[msg.sender] += amount */\n      tag_364\n      swap1\n        /* \"contracts/Gauge.sol\":24837:24843  amount */\n      dup5\n      swap1\n        /* \"contracts/Gauge.sol\":24812:24843  balanceOf[msg.sender] += amount */\n      tag_221\n      jump\t// in\n    tag_364:\n      swap1\n      swap2\n      sstore\n      pop\n      pop\n        /* \"contracts/Gauge.sol\":24858:24869  tokenId > 0 */\n      dup1\n      iszero\n        /* \"contracts/Gauge.sol\":24854:25246  if (tokenId > 0) {... */\n      tag_365\n      jumpi\n        /* \"contracts/Gauge.sol\":24893:24927  IVeToken(veToken).ownerOf(tokenId) */\n      mload(0x40)\n      shl(0xe1, 0x31a9108f)\n      dup2\n      mstore\n      0x04\n      dup2\n      add\n        /* \"#utility.yul\":1008:1033   */\n      dup3\n      swap1\n      mstore\n        /* \"contracts/Gauge.sol\":24931:24941  msg.sender */\n      caller\n      swap1\n      sub(shl(0xa0, 0x01), 0x01)\n        /* \"contracts/Gauge.sol\":24902:24909  veToken */\n      immutable(\"0xf149c9166005b187f5af29ceb397e7b9b5ab7e3a911adc91a9ebb826b208930e\")\n        /* \"contracts/Gauge.sol\":24893:24918  IVeToken(veToken).ownerOf */\n      and\n      swap1\n      0x6352211e\n      swap1\n        /* \"#utility.yul\":981:999   */\n      0x24\n      add\n        /* \"contracts/Gauge.sol\":24893:24927  IVeToken(veToken).ownerOf(tokenId) */\n      0x20\n      mload(0x40)\n      dup1\n      dup4\n      sub\n      dup2\n      dup7\n      gas\n      staticcall\n      iszero\n      dup1\n      iszero\n      tag_368\n      jumpi\n      returndatasize\n      0x00\n      dup1\n      returndatacopy\n      revert(0x00, returndatasize)\n    tag_368:\n      pop\n      pop\n      pop\n      pop\n      mload(0x40)\n      returndatasize\n      not(0x1f)\n      0x1f\n      dup3\n      add\n      and\n      dup3\n      add\n      dup1\n      0x40\n      mstore\n      pop\n      dup2\n      add\n      swap1\n      tag_369\n      swap2\n      swap1\n      tag_341\n      jump\t// in\n    tag_369:\n      sub(shl(0xa0, 0x01), 0x01)\n        /* \"contracts/Gauge.sol\":24893:24941  IVeToken(veToken).ownerOf(tokenId) == msg.sender */\n      and\n      eq\n        /* \"contracts/Gauge.sol\":24885:24942  require(IVeToken(veToken).ownerOf(tokenId) == msg.sender) */\n      tag_370\n      jumpi\n      0x00\n      dup1\n      revert\n    tag_370:\n        /* \"contracts/Gauge.sol\":24969:24979  msg.sender */\n      caller\n        /* \"contracts/Gauge.sol\":24960:24980  tokenIds[msg.sender] */\n      0x00\n      swap1\n      dup2\n      mstore\n        /* \"contracts/Gauge.sol\":24960:24968  tokenIds */\n      0x08\n        /* \"contracts/Gauge.sol\":24960:24980  tokenIds[msg.sender] */\n      0x20\n      mstore\n      0x40\n      swap1\n      keccak256\n      sload\n        /* \"contracts/Gauge.sol\":24956:25121  if (tokenIds[msg.sender] == 0) {... */\n      tag_371\n      jumpi\n        /* \"contracts/Gauge.sol\":25014:25024  msg.sender */\n      caller\n        /* \"contracts/Gauge.sol\":25005:25025  tokenIds[msg.sender] */\n      0x00\n      dup2\n      dup2\n      mstore\n        /* \"contracts/Gauge.sol\":25005:25013  tokenIds */\n      0x08\n        /* \"contracts/Gauge.sol\":25005:25025  tokenIds[msg.sender] */\n      0x20\n      mstore\n      0x40\n      swap1\n      dup2\n      swap1\n      keccak256\n        /* \"contracts/Gauge.sol\":25005:25035  tokenIds[msg.sender] = tokenId */\n      dup4\n      swap1\n      sstore\n        /* \"contracts/Gauge.sol\":25053:25106  IBoost(boost).attachTokenToGauge(tokenId, msg.sender) */\n      mload\n      shl(0xe0, 0x698473e3)\n      dup2\n      mstore\n      0x04\n      dup2\n      add\n        /* \"#utility.yul\":6297:6322   */\n      dup4\n      swap1\n      mstore\n        /* \"#utility.yul\":6338:6356   */\n      0x24\n      dup2\n      add\n        /* \"#utility.yul\":6331:6391   */\n      swap2\n      swap1\n      swap2\n      mstore\n      sub(shl(0xa0, 0x01), 0x01)\n        /* \"contracts/Gauge.sol\":25060:25065  boost */\n      immutable(\"0x8e831a88d8106460d1544aa376ec6155091b50c6145ad03273db7938ca17c5b1\")\n        /* \"contracts/Gauge.sol\":25053:25085  IBoost(boost).attachTokenToGauge */\n      and\n      swap1\n      0x698473e3\n      swap1\n        /* \"#utility.yul\":6270:6288   */\n      0x44\n      add\n        /* \"contracts/Gauge.sol\":25053:25106  IBoost(boost).attachTokenToGauge(tokenId, msg.sender) */\n      0x00\n      mload(0x40)\n      dup1\n      dup4\n      sub\n      dup2\n      0x00\n      dup8\n      dup1\n      extcodesize\n      iszero\n      dup1\n      iszero\n      tag_373\n      jumpi\n      0x00\n      dup1\n      revert\n    tag_373:\n      pop\n      gas\n      call\n      iszero\n      dup1\n      iszero\n      tag_375\n      jumpi\n      returndatasize\n      0x00\n      dup1\n      returndatacopy\n      revert(0x00, returndatasize)\n    tag_375:\n      pop\n      pop\n      pop\n      pop\n        /* \"contracts/Gauge.sol\":24956:25121  if (tokenIds[msg.sender] == 0) {... */\n    tag_371:\n        /* \"contracts/Gauge.sol\":25151:25161  msg.sender */\n      caller\n        /* \"contracts/Gauge.sol\":25142:25162  tokenIds[msg.sender] */\n      0x00\n      swap1\n      dup2\n      mstore\n        /* \"contracts/Gauge.sol\":25142:25150  tokenIds */\n      0x08\n        /* \"contracts/Gauge.sol\":25142:25162  tokenIds[msg.sender] */\n      0x20\n      mstore\n      0x40\n      swap1\n      keccak256\n      sload\n        /* \"contracts/Gauge.sol\":25142:25173  tokenIds[msg.sender] == tokenId */\n      dup2\n      eq\n        /* \"contracts/Gauge.sol\":25134:25174  require(tokenIds[msg.sender] == tokenId) */\n      tag_376\n      jumpi\n      0x00\n      dup1\n      revert\n    tag_376:\n        /* \"contracts/Gauge.sol\":24854:25246  if (tokenId > 0) {... */\n      jump(tag_377)\n    tag_365:\n      pop\n        /* \"contracts/Gauge.sol\":25224:25234  msg.sender */\n      caller\n        /* \"contracts/Gauge.sol\":25215:25235  tokenIds[msg.sender] */\n      0x00\n      swap1\n      dup2\n      mstore\n        /* \"contracts/Gauge.sol\":25215:25223  tokenIds */\n      0x08\n        /* \"contracts/Gauge.sol\":25215:25235  tokenIds[msg.sender] */\n      0x20\n      mstore\n      0x40\n      swap1\n      keccak256\n      sload\n        /* \"contracts/Gauge.sol\":24854:25246  if (tokenId > 0) {... */\n    tag_377:\n        /* \"contracts/Gauge.sol\":25295:25305  msg.sender */\n      caller\n        /* \"contracts/Gauge.sol\":25256:25276  uint _derivedBalance */\n      0x00\n        /* \"contracts/Gauge.sol\":25279:25306  derivedBalances[msg.sender] */\n      swap1\n      dup2\n      mstore\n        /* \"contracts/Gauge.sol\":25279:25294  derivedBalances */\n      0x02\n        /* \"contracts/Gauge.sol\":25279:25306  derivedBalances[msg.sender] */\n      0x20\n      mstore\n      0x40\n      dup2\n      keccak256\n      sload\n        /* \"contracts/Gauge.sol\":25316:25329  derivedSupply */\n      0x01\n        /* \"contracts/Gauge.sol\":25316:25348  derivedSupply -= _derivedBalance */\n      dup1\n      sload\n        /* \"contracts/Gauge.sol\":25279:25306  derivedBalances[msg.sender] */\n      swap2\n      swap3\n      dup4\n      swap3\n        /* \"contracts/Gauge.sol\":25316:25348  derivedSupply -= _derivedBalance */\n      tag_378\n      swap1\n        /* \"contracts/Gauge.sol\":25279:25306  derivedBalances[msg.sender] */\n      dup5\n      swap1\n        /* \"contracts/Gauge.sol\":25316:25348  derivedSupply -= _derivedBalance */\n      tag_192\n      jump\t// in\n    tag_378:\n      swap1\n      swap2\n      sstore\n      pop\n        /* \"contracts/Gauge.sol\":25376:25402  derivedBalance(msg.sender) */\n      tag_379\n      swap1\n      pop\n        /* \"contracts/Gauge.sol\":25391:25401  msg.sender */\n      caller\n        /* \"contracts/Gauge.sol\":25376:25390  derivedBalance */\n      tag_151\n        /* \"contracts/Gauge.sol\":25376:25402  derivedBalance(msg.sender) */\n      jump\t// in\n    tag_379:\n        /* \"contracts/Gauge.sol\":25428:25438  msg.sender */\n      caller\n        /* \"contracts/Gauge.sol\":25412:25439  derivedBalances[msg.sender] */\n      0x00\n      swap1\n      dup2\n      mstore\n        /* \"contracts/Gauge.sol\":25412:25427  derivedBalances */\n      0x02\n        /* \"contracts/Gauge.sol\":25412:25439  derivedBalances[msg.sender] */\n      0x20\n      mstore\n      0x40\n      dup2\n      keccak256\n        /* \"contracts/Gauge.sol\":25412:25457  derivedBalances[msg.sender] = _derivedBalance */\n      dup3\n      swap1\n      sstore\n        /* \"contracts/Gauge.sol\":25467:25480  derivedSupply */\n      0x01\n        /* \"contracts/Gauge.sol\":25467:25499  derivedSupply += _derivedBalance */\n      dup1\n      sload\n        /* \"contracts/Gauge.sol\":25358:25402  _derivedBalance = derivedBalance(msg.sender) */\n      swap3\n      swap4\n      pop\n      dup4\n      swap3\n        /* \"contracts/Gauge.sol\":25467:25480  derivedSupply */\n      swap1\n      swap2\n        /* \"contracts/Gauge.sol\":25412:25439  derivedBalances[msg.sender] */\n      swap1\n        /* \"contracts/Gauge.sol\":25467:25499  derivedSupply += _derivedBalance */\n      tag_380\n      swap1\n        /* \"contracts/Gauge.sol\":25358:25402  _derivedBalance = derivedBalance(msg.sender) */\n      dup5\n      swap1\n        /* \"contracts/Gauge.sol\":25467:25499  derivedSupply += _derivedBalance */\n      tag_221\n      jump\t// in\n    tag_380:\n      swap1\n      swap2\n      sstore\n      pop\n        /* \"contracts/Gauge.sol\":25510:25555  _writeCheckpoint(msg.sender, _derivedBalance) */\n      tag_381\n      swap1\n      pop\n        /* \"contracts/Gauge.sol\":25527:25537  msg.sender */\n      caller\n        /* \"contracts/Gauge.sol\":25539:25554  _derivedBalance */\n      dup3\n        /* \"contracts/Gauge.sol\":25510:25526  _writeCheckpoint */\n      tag_286\n        /* \"contracts/Gauge.sol\":25510:25555  _writeCheckpoint(msg.sender, _derivedBalance) */\n      jump\t// in\n    tag_381:\n        /* \"contracts/Gauge.sol\":25565:25589  _writeSupplyCheckpoint() */\n      tag_382\n        /* \"contracts/Gauge.sol\":25565:25587  _writeSupplyCheckpoint */\n      tag_288\n        /* \"contracts/Gauge.sol\":25565:25589  _writeSupplyCheckpoint() */\n      jump\t// in\n    tag_382:\n        /* \"contracts/Gauge.sol\":25600:25654  IBoost(boost).emitDeposit(tokenId, msg.sender, amount) */\n      mload(0x40)\n      shl(0xe1, 0x530e389d)\n      dup2\n      mstore\n      0x04\n      dup2\n      add\n        /* \"#utility.yul\":6604:6629   */\n      dup4\n      swap1\n      mstore\n        /* \"contracts/Gauge.sol\":25635:25645  msg.sender */\n      caller\n        /* \"#utility.yul\":6645:6663   */\n      0x24\n      dup3\n      add\n        /* \"#utility.yul\":6638:6698   */\n      mstore\n        /* \"#utility.yul\":6714:6732   */\n      0x44\n      dup2\n      add\n        /* \"#utility.yul\":6707:6741   */\n      dup5\n      swap1\n      mstore\n        /* \"contracts/Gauge.sol\":25607:25612  boost */\n      immutable(\"0x8e831a88d8106460d1544aa376ec6155091b50c6145ad03273db7938ca17c5b1\")\n      sub(shl(0xa0, 0x01), 0x01)\n        /* \"contracts/Gauge.sol\":25600:25625  IBoost(boost).emitDeposit */\n      and\n      swap1\n      0xa61c713a\n      swap1\n        /* \"#utility.yul\":6577:6595   */\n      0x64\n      add\n        /* \"contracts/Gauge.sol\":25600:25654  IBoost(boost).emitDeposit(tokenId, msg.sender, amount) */\n      0x00\n      mload(0x40)\n      dup1\n      dup4\n      sub\n      dup2\n      0x00\n      dup8\n      dup1\n      extcodesize\n      iszero\n      dup1\n      iszero\n      tag_385\n      jumpi\n      0x00\n      dup1\n      revert\n    tag_385:\n      pop\n      gas\n      call\n      iszero\n      dup1\n      iszero\n      tag_387\n      jumpi\n      returndatasize\n      0x00\n      dup1\n      returndatacopy\n      revert(0x00, returndatasize)\n    tag_387:\n      pop\n      pop\n        /* \"contracts/Gauge.sol\":25669:25705  Deposit(msg.sender, tokenId, amount) */\n      0x40\n      dup1\n      mload\n        /* \"#utility.yul\":783:808   */\n      dup6\n      dup2\n      mstore\n        /* \"#utility.yul\":839:841   */\n      0x20\n        /* \"#utility.yul\":824:842   */\n      dup2\n      add\n        /* \"#utility.yul\":817:851   */\n      dup8\n      swap1\n      mstore\n        /* \"contracts/Gauge.sol\":25677:25687  msg.sender */\n      caller\n      swap4\n      pop\n        /* \"contracts/Gauge.sol\":25669:25705  Deposit(msg.sender, tokenId, amount) */\n      0x90890809c654f11d6e72a28fa60149770a0d11ec6c92319d6ceb2bb0a4ea1a15\n      swap3\n      pop\n        /* \"#utility.yul\":756:774   */\n      add\n        /* \"contracts/Gauge.sol\":25669:25705  Deposit(msg.sender, tokenId, amount) */\n    tag_388:\n      mload(0x40)\n      dup1\n      swap2\n      sub\n      swap1\n      log2\n      pop\n      pop\n        /* \"contracts/Gauge.sol\":3090:3091  1 */\n      0x01\n        /* \"contracts/Gauge.sol\":4017:4024  _status */\n      0x00\n        /* \"contracts/Gauge.sol\":4017:4039  _status = _NOT_ENTERED */\n      sstore\n      pop\n        /* \"contracts/Gauge.sol\":24594:25712  function deposit(uint amount, uint tokenId) public nonReentrant {... */\n      jump\t// out\n        /* \"contracts/Gauge.sol\":18912:19231  function rewardPerToken(address token) public view returns (uint) {... */\n    tag_168:\n        /* \"contracts/Gauge.sol\":18972:18976  uint */\n      0x00\n        /* \"contracts/Gauge.sol\":18992:19005  derivedSupply */\n      sload(0x01)\n        /* \"contracts/Gauge.sol\":19009:19010  0 */\n      0x00\n        /* \"contracts/Gauge.sol\":18992:19010  derivedSupply == 0 */\n      eq\n        /* \"contracts/Gauge.sol\":18988:19071  if (derivedSupply == 0) {... */\n      iszero\n      tag_391\n      jumpi\n      pop\n      sub(shl(0xa0, 0x01), 0x01)\n        /* \"contracts/Gauge.sol\":19033:19060  rewardPerTokenStored[token] */\n      and\n      0x00\n      swap1\n      dup2\n      mstore\n        /* \"contracts/Gauge.sol\":19033:19053  rewardPerTokenStored */\n      0x05\n        /* \"contracts/Gauge.sol\":19033:19060  rewardPerTokenStored[token] */\n      0x20\n      mstore\n      0x40\n      swap1\n      keccak256\n      sload\n      swap1\n        /* \"contracts/Gauge.sol\":18912:19231  function rewardPerToken(address token) public view returns (uint) {... */\n      jump\t// out\n        /* \"contracts/Gauge.sol\":18988:19071  if (derivedSupply == 0) {... */\n    tag_391:\n        /* \"contracts/Gauge.sol\":19210:19223  derivedSupply */\n      sload(0x01)\n      sub(shl(0xa0, 0x01), 0x01)\n        /* \"contracts/Gauge.sol\":19178:19195  rewardRate[token] */\n      dup4\n      and\n      0x00\n      swap1\n      dup2\n      mstore\n        /* \"contracts/Gauge.sol\":19178:19188  rewardRate */\n      0x03\n        /* \"contracts/Gauge.sol\":19178:19195  rewardRate[token] */\n      0x20\n      swap1\n      dup2\n      mstore\n      0x40\n      dup1\n      dup4\n      keccak256\n      sload\n        /* \"contracts/Gauge.sol\":19153:19167  lastUpdateTime */\n      0x04\n        /* \"contracts/Gauge.sol\":19153:19174  lastUpdateTime[token] */\n      swap1\n      swap3\n      mstore\n      swap1\n      swap2\n      keccak256\n      sload\n        /* \"contracts/Gauge.sol\":10500:10508  10 ** 18 */\n      0x0de0b6b3a7640000\n      swap2\n        /* \"contracts/Gauge.sol\":19178:19195  rewardRate[token] */\n      swap1\n        /* \"contracts/Gauge.sol\":19119:19174  lastTimeRewardApplicable(token) - lastUpdateTime[token] */\n      tag_393\n      swap1\n        /* \"contracts/Gauge.sol\":17184:17199  block.timestamp */\n      timestamp\n        /* \"contracts/Gauge.sol\":19119:19174  lastTimeRewardApplicable(token) - lastUpdateTime[token] */\n      tag_192\n      jump\t// in\n    tag_393:\n        /* \"contracts/Gauge.sol\":19118:19195  (lastTimeRewardApplicable(token) - lastUpdateTime[token]) * rewardRate[token] */\n      tag_394\n      swap2\n      swap1\n      tag_226\n      jump\t// in\n    tag_394:\n        /* \"contracts/Gauge.sol\":19118:19207  (lastTimeRewardApplicable(token) - lastUpdateTime[token]) * rewardRate[token] * PRECISION */\n      tag_395\n      swap2\n      swap1\n      tag_226\n      jump\t// in\n    tag_395:\n        /* \"contracts/Gauge.sol\":19118:19223  (lastTimeRewardApplicable(token) - lastUpdateTime[token]) * rewardRate[token] * PRECISION / derivedSupply */\n      tag_396\n      swap2\n      swap1\n      tag_201\n      jump\t// in\n    tag_396:\n      sub(shl(0xa0, 0x01), 0x01)\n        /* \"contracts/Gauge.sol\":19087:19114  rewardPerTokenStored[token] */\n      dup4\n      and\n      0x00\n      swap1\n      dup2\n      mstore\n        /* \"contracts/Gauge.sol\":19087:19107  rewardPerTokenStored */\n      0x05\n        /* \"contracts/Gauge.sol\":19087:19114  rewardPerTokenStored[token] */\n      0x20\n      mstore\n      0x40\n      swap1\n      keccak256\n      sload\n        /* \"contracts/Gauge.sol\":19087:19224  rewardPerTokenStored[token] + ((lastTimeRewardApplicable(token) - lastUpdateTime[token]) * rewardRate[token] * PRECISION / derivedSupply) */\n      tag_189\n      swap2\n      swap1\n      tag_221\n      jump\t// in\n        /* \"contracts/Gauge.sol\":10998:11022  address[] public rewards */\n    tag_172:\n      0x0b\n      dup2\n      dup2\n      sload\n      dup2\n      lt\n      tag_398\n      jumpi\n      0x00\n      dup1\n      revert\n    tag_398:\n      0x00\n      swap2\n      dup3\n      mstore\n      0x20\n      swap1\n      swap2\n      keccak256\n      add\n      sload\n      sub(shl(0xa0, 0x01), 0x01)\n      and\n      swap1\n      pop\n      dup2\n      jump\t// out\n        /* \"contracts/Gauge.sol\":13945:15303  function getPriorRewardPerToken(address token, uint timestamp) public view returns (uint, uint) {... */\n    tag_184:\n      sub(shl(0xa0, 0x01), 0x01)\n        /* \"contracts/Gauge.sol\":14071:14106  rewardPerTokenNumCheckpoints[token] */\n      dup3\n      and\n        /* \"contracts/Gauge.sol\":14029:14033  uint */\n      0x00\n        /* \"contracts/Gauge.sol\":14071:14106  rewardPerTokenNumCheckpoints[token] */\n      swap1\n      dup2\n      mstore\n        /* \"contracts/Gauge.sol\":14071:14099  rewardPerTokenNumCheckpoints */\n      0x12\n        /* \"contracts/Gauge.sol\":14071:14106  rewardPerTokenNumCheckpoints[token] */\n      0x20\n      mstore\n      0x40\n      dup2\n      keccak256\n      sload\n        /* \"contracts/Gauge.sol\":14029:14033  uint */\n      dup2\n      swap1\n        /* \"contracts/Gauge.sol\":14120:14137  nCheckpoints == 0 */\n      dup1\n        /* \"contracts/Gauge.sol\":14116:14177  if (nCheckpoints == 0) {... */\n      tag_401\n      jumpi\n        /* \"contracts/Gauge.sol\":14161:14162  0 */\n      0x00\n        /* \"contracts/Gauge.sol\":14164:14165  0 */\n      dup1\n        /* \"contracts/Gauge.sol\":14153:14166  return (0, 0) */\n      swap3\n      pop\n      swap3\n      pop\n      pop\n      jump(tag_400)\n        /* \"contracts/Gauge.sol\":14116:14177  if (nCheckpoints == 0) {... */\n    tag_401:\n      sub(shl(0xa0, 0x01), 0x01)\n        /* \"contracts/Gauge.sol\":14234:14266  rewardPerTokenCheckpoints[token] */\n      dup6\n      and\n      0x00\n      swap1\n      dup2\n      mstore\n        /* \"contracts/Gauge.sol\":14234:14259  rewardPerTokenCheckpoints */\n      0x11\n        /* \"contracts/Gauge.sol\":14234:14266  rewardPerTokenCheckpoints[token] */\n      0x20\n      mstore\n      0x40\n      dup2\n      keccak256\n        /* \"contracts/Gauge.sol\":14298:14307  timestamp */\n      dup6\n      swap2\n        /* \"contracts/Gauge.sol\":14267:14283  nCheckpoints - 1 */\n      tag_402\n        /* \"contracts/Gauge.sol\":14282:14283  1 */\n      0x01\n        /* \"contracts/Gauge.sol\":14267:14279  nCheckpoints */\n      dup6\n        /* \"contracts/Gauge.sol\":14267:14283  nCheckpoints - 1 */\n      tag_192\n      jump\t// in\n    tag_402:\n        /* \"contracts/Gauge.sol\":14234:14284  rewardPerTokenCheckpoints[token][nCheckpoints - 1] */\n      dup2\n      mstore\n      0x20\n      add\n      swap1\n      dup2\n      mstore\n      0x20\n      add\n      0x00\n      keccak256\n        /* \"contracts/Gauge.sol\":14234:14294  rewardPerTokenCheckpoints[token][nCheckpoints - 1].timestamp */\n      0x00\n      add\n      sload\n        /* \"contracts/Gauge.sol\":14234:14307  rewardPerTokenCheckpoints[token][nCheckpoints - 1].timestamp <= timestamp */\n      gt\n        /* \"contracts/Gauge.sol\":14230:14470  if (rewardPerTokenCheckpoints[token][nCheckpoints - 1].timestamp <= timestamp) {... */\n      tag_403\n      jumpi\n      sub(shl(0xa0, 0x01), 0x01)\n        /* \"contracts/Gauge.sol\":14331:14363  rewardPerTokenCheckpoints[token] */\n      dup6\n      and\n      0x00\n      swap1\n      dup2\n      mstore\n        /* \"contracts/Gauge.sol\":14331:14356  rewardPerTokenCheckpoints */\n      0x11\n        /* \"contracts/Gauge.sol\":14331:14363  rewardPerTokenCheckpoints[token] */\n      0x20\n      mstore\n      0x40\n      dup2\n      keccak256\n      swap1\n        /* \"contracts/Gauge.sol\":14364:14380  nCheckpoints - 1 */\n      tag_404\n        /* \"contracts/Gauge.sol\":14379:14380  1 */\n      0x01\n        /* \"contracts/Gauge.sol\":14364:14376  nCheckpoints */\n      dup5\n        /* \"contracts/Gauge.sol\":14364:14380  nCheckpoints - 1 */\n      tag_192\n      jump\t// in\n    tag_404:\n        /* \"contracts/Gauge.sol\":14331:14381  rewardPerTokenCheckpoints[token][nCheckpoints - 1] */\n      dup2\n      mstore\n      0x20\n      add\n      swap1\n      dup2\n      mstore\n      0x20\n      add\n      0x00\n      keccak256\n        /* \"contracts/Gauge.sol\":14331:14396  rewardPerTokenCheckpoints[token][nCheckpoints - 1].rewardPerToken */\n      0x01\n      add\n      sload\n        /* \"contracts/Gauge.sol\":14398:14423  rewardPerTokenCheckpoints */\n      0x11\n        /* \"contracts/Gauge.sol\":14398:14430  rewardPerTokenCheckpoints[token] */\n      0x00\n        /* \"contracts/Gauge.sol\":14424:14429  token */\n      dup8\n      sub(shl(0xa0, 0x01), 0x01)\n        /* \"contracts/Gauge.sol\":14398:14430  rewardPerTokenCheckpoints[token] */\n      and\n      sub(shl(0xa0, 0x01), 0x01)\n      and\n      dup2\n      mstore\n      0x20\n      add\n      swap1\n      dup2\n      mstore\n      0x20\n      add\n      0x00\n      keccak256\n        /* \"contracts/Gauge.sol\":14398:14448  rewardPerTokenCheckpoints[token][nCheckpoints - 1] */\n      0x00\n        /* \"contracts/Gauge.sol\":14446:14447  1 */\n      0x01\n        /* \"contracts/Gauge.sol\":14431:14443  nCheckpoints */\n      dup5\n        /* \"contracts/Gauge.sol\":14431:14447  nCheckpoints - 1 */\n      tag_405\n      swap2\n      swap1\n      tag_192\n      jump\t// in\n    tag_405:\n        /* \"contracts/Gauge.sol\":14398:14448  rewardPerTokenCheckpoints[token][nCheckpoints - 1] */\n      dup2\n      mstore\n      0x20\n      add\n      swap1\n      dup2\n      mstore\n      0x20\n      add\n      0x00\n      keccak256\n        /* \"contracts/Gauge.sol\":14398:14458  rewardPerTokenCheckpoints[token][nCheckpoints - 1].timestamp */\n      0x00\n      add\n      sload\n        /* \"contracts/Gauge.sol\":14323:14459  return (rewardPerTokenCheckpoints[token][nCheckpoints - 1].rewardPerToken, rewardPerTokenCheckpoints[token][nCheckpoints - 1].timestamp) */\n      swap3\n      pop\n      swap3\n      pop\n      pop\n      jump(tag_400)\n        /* \"contracts/Gauge.sol\":14230:14470  if (rewardPerTokenCheckpoints[token][nCheckpoints - 1].timestamp <= timestamp) {... */\n    tag_403:\n      sub(shl(0xa0, 0x01), 0x01)\n        /* \"contracts/Gauge.sol\":14528:14560  rewardPerTokenCheckpoints[token] */\n      dup6\n      and\n      0x00\n      swap1\n      dup2\n      mstore\n        /* \"contracts/Gauge.sol\":14528:14553  rewardPerTokenCheckpoints */\n      0x11\n        /* \"contracts/Gauge.sol\":14528:14560  rewardPerTokenCheckpoints[token] */\n      0x20\n      swap1\n      dup2\n      mstore\n      0x40\n      dup1\n      dup4\n      keccak256\n        /* \"contracts/Gauge.sol\":14528:14563  rewardPerTokenCheckpoints[token][0] */\n      dup4\n      dup1\n      mstore\n      swap1\n      swap2\n      mstore\n      swap1\n      keccak256\n        /* \"contracts/Gauge.sol\":14528:14573  rewardPerTokenCheckpoints[token][0].timestamp */\n      sload\n        /* \"contracts/Gauge.sol\":14528:14585  rewardPerTokenCheckpoints[token][0].timestamp > timestamp */\n      dup5\n      lt\n        /* \"contracts/Gauge.sol\":14524:14625  if (rewardPerTokenCheckpoints[token][0].timestamp > timestamp) {... */\n      iszero\n      tag_406\n      jumpi\n        /* \"contracts/Gauge.sol\":14609:14610  0 */\n      0x00\n        /* \"contracts/Gauge.sol\":14612:14613  0 */\n      dup1\n        /* \"contracts/Gauge.sol\":14601:14614  return (0, 0) */\n      swap3\n      pop\n      swap3\n      pop\n      pop\n      jump(tag_400)\n        /* \"contracts/Gauge.sol\":14524:14625  if (rewardPerTokenCheckpoints[token][0].timestamp > timestamp) {... */\n    tag_406:\n        /* \"contracts/Gauge.sol\":14635:14645  uint lower */\n      0x00\n      dup1\n        /* \"contracts/Gauge.sol\":14672:14688  nCheckpoints - 1 */\n      tag_407\n        /* \"contracts/Gauge.sol\":14687:14688  1 */\n      0x01\n        /* \"contracts/Gauge.sol\":14672:14684  nCheckpoints */\n      dup5\n        /* \"contracts/Gauge.sol\":14672:14688  nCheckpoints - 1 */\n      tag_192\n      jump\t// in\n    tag_407:\n        /* \"contracts/Gauge.sol\":14659:14688  uint upper = nCheckpoints - 1 */\n      swap1\n      pop\n        /* \"contracts/Gauge.sol\":14698:15173  while (upper > lower) {... */\n    tag_408:\n        /* \"contracts/Gauge.sol\":14713:14718  lower */\n      dup2\n        /* \"contracts/Gauge.sol\":14705:14710  upper */\n      dup2\n        /* \"contracts/Gauge.sol\":14705:14718  upper > lower */\n      gt\n        /* \"contracts/Gauge.sol\":14698:15173  while (upper > lower) {... */\n      iszero\n      tag_409\n      jumpi\n        /* \"contracts/Gauge.sol\":14734:14745  uint center */\n      0x00\n        /* \"contracts/Gauge.sol\":14774:14775  2 */\n      0x02\n        /* \"contracts/Gauge.sol\":14757:14770  upper - lower */\n      tag_410\n        /* \"contracts/Gauge.sol\":14765:14770  lower */\n      dup5\n        /* \"contracts/Gauge.sol\":14757:14762  upper */\n      dup5\n        /* \"contracts/Gauge.sol\":14757:14770  upper - lower */\n      tag_192\n      jump\t// in\n    tag_410:\n        /* \"contracts/Gauge.sol\":14756:14775  (upper - lower) / 2 */\n      tag_411\n      swap2\n      swap1\n      tag_201\n      jump\t// in\n    tag_411:\n        /* \"contracts/Gauge.sol\":14748:14775  upper - (upper - lower) / 2 */\n      tag_412\n      swap1\n        /* \"contracts/Gauge.sol\":14748:14753  upper */\n      dup4\n        /* \"contracts/Gauge.sol\":14748:14775  upper - (upper - lower) / 2 */\n      tag_192\n      jump\t// in\n    tag_412:\n      sub(shl(0xa0, 0x01), 0x01)\n        /* \"contracts/Gauge.sol\":14865:14897  rewardPerTokenCheckpoints[token] */\n      dup10\n      and\n        /* \"contracts/Gauge.sol\":14828:14862  RewardPerTokenCheckpoint memory cp */\n      0x00\n        /* \"contracts/Gauge.sol\":14865:14897  rewardPerTokenCheckpoints[token] */\n      swap1\n      dup2\n      mstore\n        /* \"contracts/Gauge.sol\":14865:14890  rewardPerTokenCheckpoints */\n      0x11\n        /* \"contracts/Gauge.sol\":14865:14897  rewardPerTokenCheckpoints[token] */\n      0x20\n      swap1\n      dup2\n      mstore\n      0x40\n      dup1\n      dup4\n      keccak256\n        /* \"contracts/Gauge.sol\":14865:14905  rewardPerTokenCheckpoints[token][center] */\n      dup5\n      dup5\n      mstore\n      dup3\n      mstore\n      swap2\n      dup3\n      swap1\n      keccak256\n        /* \"contracts/Gauge.sol\":14828:14905  RewardPerTokenCheckpoint memory cp = rewardPerTokenCheckpoints[token][center] */\n      dup3\n      mload\n      dup1\n      dup5\n      add\n      swap1\n      swap4\n      mstore\n      dup1\n      sload\n      dup1\n      dup5\n      mstore\n      0x01\n      swap1\n      swap2\n      add\n      sload\n      swap2\n      dup4\n      add\n      swap2\n      swap1\n      swap2\n      mstore\n        /* \"contracts/Gauge.sol\":14734:14775  uint center = upper - (upper - lower) / 2 */\n      swap2\n      swap3\n      pop\n        /* \"contracts/Gauge.sol\":14828:14905  RewardPerTokenCheckpoint memory cp = rewardPerTokenCheckpoints[token][center] */\n      swap1\n        /* \"contracts/Gauge.sol\":14923:14948  cp.timestamp == timestamp */\n      dup9\n      eq\n        /* \"contracts/Gauge.sol\":14919:15163  if (cp.timestamp == timestamp) {... */\n      iszero\n      tag_413\n      jumpi\n        /* \"contracts/Gauge.sol\":14976:14993  cp.rewardPerToken */\n      0x20\n      dup2\n      add\n      mload\n        /* \"contracts/Gauge.sol\":14995:15007  cp.timestamp */\n      swap1\n      mload\n        /* \"contracts/Gauge.sol\":14976:14993  cp.rewardPerToken */\n      swap1\n      swap7\n      pop\n        /* \"contracts/Gauge.sol\":14995:15007  cp.timestamp */\n      swap5\n      pop\n        /* \"contracts/Gauge.sol\":14968:15008  return (cp.rewardPerToken, cp.timestamp) */\n      tag_400\n      swap4\n      pop\n      pop\n      pop\n      pop\n      jump\n        /* \"contracts/Gauge.sol\":14919:15163  if (cp.timestamp == timestamp) {... */\n    tag_413:\n        /* \"contracts/Gauge.sol\":15033:15045  cp.timestamp */\n      dup1\n      mload\n        /* \"contracts/Gauge.sol\":15033:15057  cp.timestamp < timestamp */\n      dup9\n      gt\n        /* \"contracts/Gauge.sol\":15029:15163  if (cp.timestamp < timestamp) {... */\n      iszero\n      tag_415\n      jumpi\n        /* \"contracts/Gauge.sol\":15085:15091  center */\n      dup2\n        /* \"contracts/Gauge.sol\":15077:15091  lower = center */\n      swap4\n      pop\n        /* \"contracts/Gauge.sol\":15029:15163  if (cp.timestamp < timestamp) {... */\n      jump(tag_416)\n    tag_415:\n        /* \"contracts/Gauge.sol\":15138:15148  center - 1 */\n      tag_417\n        /* \"contracts/Gauge.sol\":15147:15148  1 */\n      0x01\n        /* \"contracts/Gauge.sol\":15138:15144  center */\n      dup4\n        /* \"contracts/Gauge.sol\":15138:15148  center - 1 */\n      tag_192\n      jump\t// in\n    tag_417:\n        /* \"contracts/Gauge.sol\":15130:15148  upper = center - 1 */\n      swap3\n      pop\n        /* \"contracts/Gauge.sol\":15029:15163  if (cp.timestamp < timestamp) {... */\n    tag_416:\n        /* \"contracts/Gauge.sol\":14720:15173  {... */\n      pop\n      pop\n        /* \"contracts/Gauge.sol\":14698:15173  while (upper > lower) {... */\n      jump(tag_408)\n    tag_409:\n      pop\n      sub(shl(0xa0, 0x01), 0x01)\n        /* \"contracts/Gauge.sol\":15190:15222  rewardPerTokenCheckpoints[token] */\n      dup7\n      and\n      0x00\n      swap1\n      dup2\n      mstore\n        /* \"contracts/Gauge.sol\":15190:15215  rewardPerTokenCheckpoints */\n      0x11\n        /* \"contracts/Gauge.sol\":15190:15222  rewardPerTokenCheckpoints[token] */\n      0x20\n      swap1\n      dup2\n      mstore\n      0x40\n      dup1\n      dup4\n      keccak256\n        /* \"contracts/Gauge.sol\":15190:15229  rewardPerTokenCheckpoints[token][lower] */\n      swap4\n      dup4\n      mstore\n      swap3\n      swap1\n      mstore\n      keccak256\n        /* \"contracts/Gauge.sol\":15190:15244  rewardPerTokenCheckpoints[token][lower].rewardPerToken */\n      0x01\n      dup2\n      add\n      sload\n        /* \"contracts/Gauge.sol\":15246:15295  rewardPerTokenCheckpoints[token][lower].timestamp */\n      swap1\n      sload\n        /* \"contracts/Gauge.sol\":15190:15244  rewardPerTokenCheckpoints[token][lower].rewardPerToken */\n      swap1\n      swap4\n      pop\n        /* \"contracts/Gauge.sol\":15246:15295  rewardPerTokenCheckpoints[token][lower].timestamp */\n      swap2\n      pop\n      pop\n        /* \"contracts/Gauge.sol\":13945:15303  function getPriorRewardPerToken(address token, uint timestamp) public view returns (uint, uint) {... */\n    tag_400:\n      swap3\n      pop\n      swap3\n      swap1\n      pop\n      jump\t// out\n        /* \"contracts/Gauge.sol\":26022:26969  function withdrawToken(uint amount, uint tokenId) public nonReentrant {... */\n    tag_188:\n        /* \"contracts/Gauge.sol\":3133:3134  2 */\n      0x02\n        /* \"contracts/Gauge.sol\":3714:3721  _status */\n      sload(0x00)\n        /* \"contracts/Gauge.sol\":3714:3733  _status != _ENTERED */\n      eq\n      iszero\n        /* \"contracts/Gauge.sol\":3706:3769  require(_status != _ENTERED, \"ReentrancyGuard: reentrant call\") */\n      tag_419\n      jumpi\n      mload(0x40)\n      shl(0xe5, 0x461bcd)\n      dup2\n      mstore\n      0x04\n      add\n      tag_243\n      swap1\n      tag_244\n      jump\t// in\n    tag_419:\n        /* \"contracts/Gauge.sol\":3133:3134  2 */\n      0x02\n        /* \"contracts/Gauge.sol\":3844:3851  _status */\n      0x00\n        /* \"contracts/Gauge.sol\":3844:3862  _status = _ENTERED */\n      dup2\n      swap1\n      sstore\n      pop\n        /* \"contracts/Gauge.sol\":26117:26123  amount */\n      dup2\n        /* \"contracts/Gauge.sol\":26102:26113  totalSupply */\n      0x09\n      0x00\n        /* \"contracts/Gauge.sol\":26102:26123  totalSupply -= amount */\n      dup3\n      dup3\n      sload\n      tag_422\n      swap2\n      swap1\n      tag_192\n      jump\t// in\n    tag_422:\n      swap1\n      swap2\n      sstore\n      pop\n      pop\n        /* \"contracts/Gauge.sol\":26143:26153  msg.sender */\n      caller\n        /* \"contracts/Gauge.sol\":26133:26154  balanceOf[msg.sender] */\n      0x00\n      swap1\n      dup2\n      mstore\n        /* \"contracts/Gauge.sol\":26133:26142  balanceOf */\n      0x0a\n        /* \"contracts/Gauge.sol\":26133:26154  balanceOf[msg.sender] */\n      0x20\n      mstore\n      0x40\n      dup2\n      keccak256\n        /* \"contracts/Gauge.sol\":26133:26164  balanceOf[msg.sender] -= amount */\n      dup1\n      sload\n        /* \"contracts/Gauge.sol\":26158:26164  amount */\n      dup5\n      swap3\n        /* \"contracts/Gauge.sol\":26133:26154  balanceOf[msg.sender] */\n      swap1\n        /* \"contracts/Gauge.sol\":26133:26164  balanceOf[msg.sender] -= amount */\n      tag_423\n      swap1\n        /* \"contracts/Gauge.sol\":26158:26164  amount */\n      dup5\n      swap1\n        /* \"contracts/Gauge.sol\":26133:26164  balanceOf[msg.sender] -= amount */\n      tag_192\n      jump\t// in\n    tag_423:\n      swap1\n      swap2\n      sstore\n      pop\n        /* \"contracts/Gauge.sol\":26174:26228  TransferHelper.safeTransfer(stake, msg.sender, amount) */\n      tag_424\n      swap1\n      pop\n        /* \"contracts/Gauge.sol\":26202:26207  stake */\n      immutable(\"0xd094ef07eef1924f3d7fe3d896f6ebece97bd5683077be90743b91a72d59db67\")\n        /* \"contracts/Gauge.sol\":26209:26219  msg.sender */\n      caller\n        /* \"contracts/Gauge.sol\":26221:26227  amount */\n      dup5\n        /* \"contracts/Gauge.sol\":26174:26201  TransferHelper.safeTransfer */\n      tag_425\n        /* \"contracts/Gauge.sol\":26174:26228  TransferHelper.safeTransfer(stake, msg.sender, amount) */\n      jump\t// in\n    tag_424:\n        /* \"contracts/Gauge.sol\":26243:26254  tokenId > 0 */\n      dup1\n      iszero\n        /* \"contracts/Gauge.sol\":26239:26489  if (tokenId > 0) {... */\n      tag_426\n      jumpi\n        /* \"contracts/Gauge.sol\":26298:26308  msg.sender */\n      caller\n        /* \"contracts/Gauge.sol\":26289:26309  tokenIds[msg.sender] */\n      0x00\n      swap1\n      dup2\n      mstore\n        /* \"contracts/Gauge.sol\":26289:26297  tokenIds */\n      0x08\n        /* \"contracts/Gauge.sol\":26289:26309  tokenIds[msg.sender] */\n      0x20\n      mstore\n      0x40\n      swap1\n      keccak256\n      sload\n        /* \"contracts/Gauge.sol\":26278:26309  tokenId == tokenIds[msg.sender] */\n      dup2\n      eq\n        /* \"contracts/Gauge.sol\":26270:26310  require(tokenId == tokenIds[msg.sender]) */\n      tag_427\n      jumpi\n      0x00\n      dup1\n      revert\n    tag_427:\n        /* \"contracts/Gauge.sol\":26333:26343  msg.sender */\n      caller\n        /* \"contracts/Gauge.sol\":26347:26348  0 */\n      0x00\n        /* \"contracts/Gauge.sol\":26324:26344  tokenIds[msg.sender] */\n      dup2\n      dup2\n      mstore\n        /* \"contracts/Gauge.sol\":26324:26332  tokenIds */\n      0x08\n        /* \"contracts/Gauge.sol\":26324:26344  tokenIds[msg.sender] */\n      0x20\n      mstore\n      0x40\n      dup1\n      dup3\n      keccak256\n        /* \"contracts/Gauge.sol\":26324:26348  tokenIds[msg.sender] = 0 */\n      swap2\n      swap1\n      swap2\n      sstore\n        /* \"contracts/Gauge.sol\":26362:26417  IBoost(boost).detachTokenFromGauge(tokenId, msg.sender) */\n      mload\n      shl(0xe0, 0x411b1f77)\n      dup2\n      mstore\n      0x04\n      dup2\n      add\n        /* \"#utility.yul\":6297:6322   */\n      dup4\n      swap1\n      mstore\n        /* \"#utility.yul\":6338:6356   */\n      0x24\n      dup2\n      add\n        /* \"#utility.yul\":6331:6391   */\n      swap2\n      swap1\n      swap2\n      mstore\n      sub(shl(0xa0, 0x01), 0x01)\n        /* \"contracts/Gauge.sol\":26369:26374  boost */\n      immutable(\"0x8e831a88d8106460d1544aa376ec6155091b50c6145ad03273db7938ca17c5b1\")\n        /* \"contracts/Gauge.sol\":26362:26396  IBoost(boost).detachTokenFromGauge */\n      and\n      swap1\n      0x411b1f77\n      swap1\n        /* \"#utility.yul\":6270:6288   */\n      0x44\n      add\n        /* \"contracts/Gauge.sol\":26362:26417  IBoost(boost).detachTokenFromGauge(tokenId, msg.sender) */\n      0x00\n      mload(0x40)\n      dup1\n      dup4\n      sub\n      dup2\n      0x00\n      dup8\n      dup1\n      extcodesize\n      iszero\n      dup1\n      iszero\n      tag_429\n      jumpi\n      0x00\n      dup1\n      revert\n    tag_429:\n      pop\n      gas\n      call\n      iszero\n      dup1\n      iszero\n      tag_431\n      jumpi\n      returndatasize\n      0x00\n      dup1\n      returndatacopy\n      revert(0x00, returndatasize)\n    tag_431:\n      pop\n      pop\n      pop\n      pop\n        /* \"contracts/Gauge.sol\":26239:26489  if (tokenId > 0) {... */\n      jump(tag_432)\n    tag_426:\n      pop\n        /* \"contracts/Gauge.sol\":26467:26477  msg.sender */\n      caller\n        /* \"contracts/Gauge.sol\":26458:26478  tokenIds[msg.sender] */\n      0x00\n      swap1\n      dup2\n      mstore\n        /* \"contracts/Gauge.sol\":26458:26466  tokenIds */\n      0x08\n        /* \"contracts/Gauge.sol\":26458:26478  tokenIds[msg.sender] */\n      0x20\n      mstore\n      0x40\n      swap1\n      keccak256\n      sload\n        /* \"contracts/Gauge.sol\":26239:26489  if (tokenId > 0) {... */\n    tag_432:\n        /* \"contracts/Gauge.sol\":26538:26548  msg.sender */\n      caller\n        /* \"contracts/Gauge.sol\":26499:26519  uint _derivedBalance */\n      0x00\n        /* \"contracts/Gauge.sol\":26522:26549  derivedBalances[msg.sender] */\n      swap1\n      dup2\n      mstore\n        /* \"contracts/Gauge.sol\":26522:26537  derivedBalances */\n      0x02\n        /* \"contracts/Gauge.sol\":26522:26549  derivedBalances[msg.sender] */\n      0x20\n      mstore\n      0x40\n      dup2\n      keccak256\n      sload\n        /* \"contracts/Gauge.sol\":26559:26572  derivedSupply */\n      0x01\n        /* \"contracts/Gauge.sol\":26559:26591  derivedSupply -= _derivedBalance */\n      dup1\n      sload\n        /* \"contracts/Gauge.sol\":26522:26549  derivedBalances[msg.sender] */\n      swap2\n      swap3\n      dup4\n      swap3\n        /* \"contracts/Gauge.sol\":26559:26591  derivedSupply -= _derivedBalance */\n      tag_433\n      swap1\n        /* \"contracts/Gauge.sol\":26522:26549  derivedBalances[msg.sender] */\n      dup5\n      swap1\n        /* \"contracts/Gauge.sol\":26559:26591  derivedSupply -= _derivedBalance */\n      tag_192\n      jump\t// in\n    tag_433:\n      swap1\n      swap2\n      sstore\n      pop\n        /* \"contracts/Gauge.sol\":26619:26645  derivedBalance(msg.sender) */\n      tag_434\n      swap1\n      pop\n        /* \"contracts/Gauge.sol\":26634:26644  msg.sender */\n      caller\n        /* \"contracts/Gauge.sol\":26619:26633  derivedBalance */\n      tag_151\n        /* \"contracts/Gauge.sol\":26619:26645  derivedBalance(msg.sender) */\n      jump\t// in\n    tag_434:\n        /* \"contracts/Gauge.sol\":26671:26681  msg.sender */\n      caller\n        /* \"contracts/Gauge.sol\":26655:26682  derivedBalances[msg.sender] */\n      0x00\n      swap1\n      dup2\n      mstore\n        /* \"contracts/Gauge.sol\":26655:26670  derivedBalances */\n      0x02\n        /* \"contracts/Gauge.sol\":26655:26682  derivedBalances[msg.sender] */\n      0x20\n      mstore\n      0x40\n      dup2\n      keccak256\n        /* \"contracts/Gauge.sol\":26655:26700  derivedBalances[msg.sender] = _derivedBalance */\n      dup3\n      swap1\n      sstore\n        /* \"contracts/Gauge.sol\":26710:26723  derivedSupply */\n      0x01\n        /* \"contracts/Gauge.sol\":26710:26742  derivedSupply += _derivedBalance */\n      dup1\n      sload\n        /* \"contracts/Gauge.sol\":26601:26645  _derivedBalance = derivedBalance(msg.sender) */\n      swap3\n      swap4\n      pop\n      dup4\n      swap3\n        /* \"contracts/Gauge.sol\":26710:26723  derivedSupply */\n      swap1\n      swap2\n        /* \"contracts/Gauge.sol\":26655:26682  derivedBalances[msg.sender] */\n      swap1\n        /* \"contracts/Gauge.sol\":26710:26742  derivedSupply += _derivedBalance */\n      tag_435\n      swap1\n        /* \"contracts/Gauge.sol\":26601:26645  _derivedBalance = derivedBalance(msg.sender) */\n      dup5\n      swap1\n        /* \"contracts/Gauge.sol\":26710:26742  derivedSupply += _derivedBalance */\n      tag_221\n      jump\t// in\n    tag_435:\n      swap1\n      swap2\n      sstore\n      pop\n      pop\n        /* \"contracts/Gauge.sol\":26770:26780  msg.sender */\n      caller\n        /* \"contracts/Gauge.sol\":26782:26809  derivedBalances[msg.sender] */\n      0x00\n      dup2\n      dup2\n      mstore\n        /* \"contracts/Gauge.sol\":26782:26797  derivedBalances */\n      0x02\n        /* \"contracts/Gauge.sol\":26782:26809  derivedBalances[msg.sender] */\n      0x20\n      mstore\n      0x40\n      swap1\n      keccak256\n      sload\n        /* \"contracts/Gauge.sol\":26753:26810  _writeCheckpoint(msg.sender, derivedBalances[msg.sender]) */\n      tag_436\n      swap2\n        /* \"contracts/Gauge.sol\":26770:26780  msg.sender */\n      swap1\n        /* \"contracts/Gauge.sol\":26753:26769  _writeCheckpoint */\n      tag_286\n        /* \"contracts/Gauge.sol\":26753:26810  _writeCheckpoint(msg.sender, derivedBalances[msg.sender]) */\n      jump\t// in\n    tag_436:\n        /* \"contracts/Gauge.sol\":26820:26844  _writeSupplyCheckpoint() */\n      tag_437\n        /* \"contracts/Gauge.sol\":26820:26842  _writeSupplyCheckpoint */\n      tag_288\n        /* \"contracts/Gauge.sol\":26820:26844  _writeSupplyCheckpoint() */\n      jump\t// in\n    tag_437:\n        /* \"contracts/Gauge.sol\":26855:26910  IBoost(boost).emitWithdraw(tokenId, msg.sender, amount) */\n      mload(0x40)\n      shl(0xe2, 0x3aa53b91)\n      dup2\n      mstore\n      0x04\n      dup2\n      add\n        /* \"#utility.yul\":6604:6629   */\n      dup4\n      swap1\n      mstore\n        /* \"contracts/Gauge.sol\":26891:26901  msg.sender */\n      caller\n        /* \"#utility.yul\":6645:6663   */\n      0x24\n      dup3\n      add\n        /* \"#utility.yul\":6638:6698   */\n      mstore\n        /* \"#utility.yul\":6714:6732   */\n      0x44\n      dup2\n      add\n        /* \"#utility.yul\":6707:6741   */\n      dup5\n      swap1\n      mstore\n        /* \"contracts/Gauge.sol\":26862:26867  boost */\n      immutable(\"0x8e831a88d8106460d1544aa376ec6155091b50c6145ad03273db7938ca17c5b1\")\n      sub(shl(0xa0, 0x01), 0x01)\n        /* \"contracts/Gauge.sol\":26855:26881  IBoost(boost).emitWithdraw */\n      and\n      swap1\n      0xea94ee44\n      swap1\n        /* \"#utility.yul\":6577:6595   */\n      0x64\n      add\n        /* \"contracts/Gauge.sol\":26855:26910  IBoost(boost).emitWithdraw(tokenId, msg.sender, amount) */\n      0x00\n      mload(0x40)\n      dup1\n      dup4\n      sub\n      dup2\n      0x00\n      dup8\n      dup1\n      extcodesize\n      iszero\n      dup1\n      iszero\n      tag_439\n      jumpi\n      0x00\n      dup1\n      revert\n    tag_439:\n      pop\n      gas\n      call\n      iszero\n      dup1\n      iszero\n      tag_441\n      jumpi\n      returndatasize\n      0x00\n      dup1\n      returndatacopy\n      revert(0x00, returndatasize)\n    tag_441:\n      pop\n      pop\n        /* \"contracts/Gauge.sol\":26925:26962  Withdraw(msg.sender, tokenId, amount) */\n      0x40\n      dup1\n      mload\n        /* \"#utility.yul\":783:808   */\n      dup6\n      dup2\n      mstore\n        /* \"#utility.yul\":839:841   */\n      0x20\n        /* \"#utility.yul\":824:842   */\n      dup2\n      add\n        /* \"#utility.yul\":817:851   */\n      dup8\n      swap1\n      mstore\n        /* \"contracts/Gauge.sol\":26934:26944  msg.sender */\n      caller\n      swap4\n      pop\n        /* \"contracts/Gauge.sol\":26925:26962  Withdraw(msg.sender, tokenId, amount) */\n      0xf279e6a1f5e320cca91135676d9cb6e44ca8a08c0b88342bcdb1144f6511b568\n      swap3\n      pop\n        /* \"#utility.yul\":756:774   */\n      add\n        /* \"contracts/Gauge.sol\":26925:26962  Withdraw(msg.sender, tokenId, amount) */\n      tag_388\n        /* \"#utility.yul\":609:857   */\n      jump\n        /* \"contracts/Gauge.sol\":407:512  function max(uint256 a, uint256 b) internal pure returns (uint256) {... */\n    tag_210:\n        /* \"contracts/Gauge.sol\":465:472  uint256 */\n      0x00\n        /* \"contracts/Gauge.sol\":496:497  b */\n      dup2\n        /* \"contracts/Gauge.sol\":491:492  a */\n      dup4\n        /* \"contracts/Gauge.sol\":491:497  a >= b */\n      lt\n      iszero\n        /* \"contracts/Gauge.sol\":491:505  a >= b ? a : b */\n      tag_444\n      jumpi\n        /* \"contracts/Gauge.sol\":504:505  b */\n      dup2\n        /* \"contracts/Gauge.sol\":491:505  a >= b ? a : b */\n      jump(tag_297)\n    tag_444:\n      pop\n        /* \"contracts/Gauge.sol\":500:501  a */\n      swap1\n      swap2\n        /* \"contracts/Gauge.sol\":484:505  return a >= b ? a : b */\n      swap1\n      pop\n        /* \"contracts/Gauge.sol\":407:512  function max(uint256 a, uint256 b) internal pure returns (uint256) {... */\n      jump\t// out\n        /* \"contracts/Gauge.sol\":21450:23048  function _updateRewardPerToken(address token) internal returns (uint, uint) {... */\n    tag_259:\n      sub(shl(0xa0, 0x01), 0x01)\n        /* \"contracts/Gauge.sol\":21559:21580  lastUpdateTime[token] */\n      dup2\n      and\n        /* \"contracts/Gauge.sol\":21514:21518  uint */\n      0x00\n        /* \"contracts/Gauge.sol\":21559:21580  lastUpdateTime[token] */\n      swap1\n      dup2\n      mstore\n        /* \"contracts/Gauge.sol\":21559:21573  lastUpdateTime */\n      0x04\n        /* \"contracts/Gauge.sol\":21559:21580  lastUpdateTime[token] */\n      0x20\n      swap1\n      dup2\n      mstore\n      0x40\n      dup1\n      dup4\n      keccak256\n      sload\n        /* \"contracts/Gauge.sol\":21604:21624  rewardPerTokenStored */\n      0x05\n        /* \"contracts/Gauge.sol\":21604:21631  rewardPerTokenStored[token] */\n      swap1\n      swap3\n      mstore\n      dup3\n      keccak256\n      sload\n        /* \"contracts/Gauge.sol\":21646:21666  supplyNumCheckpoints */\n      sload(0x10)\n        /* \"contracts/Gauge.sol\":21514:21518  uint */\n      dup4\n      swap3\n        /* \"contracts/Gauge.sol\":21559:21580  lastUpdateTime[token] */\n      swap2\n        /* \"contracts/Gauge.sol\":21604:21631  rewardPerTokenStored[token] */\n      swap1\n        /* \"contracts/Gauge.sol\":21642:21730  if (supplyNumCheckpoints == 0) {... */\n      tag_447\n      jumpi\n        /* \"contracts/Gauge.sol\":21695:21701  reward */\n      swap5\n        /* \"contracts/Gauge.sol\":21703:21718  _startTimestamp */\n      swap1\n      swap4\n      pop\n        /* \"contracts/Gauge.sol\":21450:23048  function _updateRewardPerToken(address token) internal returns (uint, uint) {... */\n      swap2\n      pop\n      pop\n      jump\t// out\n        /* \"contracts/Gauge.sol\":21642:21730  if (supplyNumCheckpoints == 0) {... */\n    tag_447:\n      sub(shl(0xa0, 0x01), 0x01)\n        /* \"contracts/Gauge.sol\":21744:21761  rewardRate[token] */\n      dup6\n      and\n      0x00\n      swap1\n      dup2\n      mstore\n        /* \"contracts/Gauge.sol\":21744:21754  rewardRate */\n      0x03\n        /* \"contracts/Gauge.sol\":21744:21761  rewardRate[token] */\n      0x20\n      mstore\n      0x40\n      swap1\n      keccak256\n      sload\n        /* \"contracts/Gauge.sol\":21740:21825  if (rewardRate[token] == 0) {... */\n      tag_448\n      jumpi\n        /* \"contracts/Gauge.sol\":21790:21796  reward */\n      swap5\n        /* \"contracts/Gauge.sol\":21798:21813  block.timestamp */\n      timestamp\n      swap5\n      pop\n        /* \"contracts/Gauge.sol\":21450:23048  function _updateRewardPerToken(address token) internal returns (uint, uint) {... */\n      swap3\n      pop\n      pop\n      pop\n      jump\t// out\n        /* \"contracts/Gauge.sol\":21740:21825  if (rewardRate[token] == 0) {... */\n    tag_448:\n        /* \"contracts/Gauge.sol\":21835:21851  uint _startIndex */\n      0x00\n        /* \"contracts/Gauge.sol\":21854:21890  getPriorSupplyIndex(_startTimestamp) */\n      tag_449\n        /* \"contracts/Gauge.sol\":21874:21889  _startTimestamp */\n      dup4\n        /* \"contracts/Gauge.sol\":21854:21873  getPriorSupplyIndex */\n      tag_124\n        /* \"contracts/Gauge.sol\":21854:21890  getPriorSupplyIndex(_startTimestamp) */\n      jump\t// in\n    tag_449:\n        /* \"contracts/Gauge.sol\":21835:21890  uint _startIndex = getPriorSupplyIndex(_startTimestamp) */\n      swap1\n      pop\n        /* \"contracts/Gauge.sol\":21900:21914  uint _endIndex */\n      0x00\n        /* \"contracts/Gauge.sol\":21940:21941  1 */\n      0x01\n        /* \"contracts/Gauge.sol\":21917:21937  supplyNumCheckpoints */\n      sload(0x10)\n        /* \"contracts/Gauge.sol\":21917:21941  supplyNumCheckpoints - 1 */\n      tag_450\n      swap2\n      swap1\n      tag_192\n      jump\t// in\n    tag_450:\n        /* \"contracts/Gauge.sol\":21900:21941  uint _endIndex = supplyNumCheckpoints - 1 */\n      swap1\n      pop\n        /* \"contracts/Gauge.sol\":21982:21983  1 */\n      0x01\n        /* \"contracts/Gauge.sol\":21956:21979  _endIndex - _startIndex */\n      tag_451\n        /* \"contracts/Gauge.sol\":21968:21979  _startIndex */\n      dup4\n        /* \"contracts/Gauge.sol\":21900:21941  uint _endIndex = supplyNumCheckpoints - 1 */\n      dup4\n        /* \"contracts/Gauge.sol\":21956:21979  _endIndex - _startIndex */\n      tag_192\n      jump\t// in\n    tag_451:\n        /* \"contracts/Gauge.sol\":21956:21983  _endIndex - _startIndex > 1 */\n      gt\n        /* \"contracts/Gauge.sol\":21952:22578  if (_endIndex - _startIndex > 1) {... */\n      iszero\n      tag_452\n      jumpi\n        /* \"contracts/Gauge.sol\":22013:22024  _startIndex */\n      dup2\n        /* \"contracts/Gauge.sol\":21999:22568  for (uint i = _startIndex; i < _endIndex - 1; i++) {... */\n    tag_453:\n        /* \"contracts/Gauge.sol\":22030:22043  _endIndex - 1 */\n      tag_456\n        /* \"contracts/Gauge.sol\":22042:22043  1 */\n      0x01\n        /* \"contracts/Gauge.sol\":22030:22039  _endIndex */\n      dup4\n        /* \"contracts/Gauge.sol\":22030:22043  _endIndex - 1 */\n      tag_192\n      jump\t// in\n    tag_456:\n        /* \"contracts/Gauge.sol\":22026:22027  i */\n      dup2\n        /* \"contracts/Gauge.sol\":22026:22043  i < _endIndex - 1 */\n      lt\n        /* \"contracts/Gauge.sol\":21999:22568  for (uint i = _startIndex; i < _endIndex - 1; i++) {... */\n      iszero\n      tag_454\n      jumpi\n        /* \"contracts/Gauge.sol\":22068:22095  SupplyCheckpoint memory sp0 */\n      0x00\n        /* \"contracts/Gauge.sol\":22098:22118  supplyCheckpoints[i] */\n      dup2\n      dup2\n      mstore\n        /* \"contracts/Gauge.sol\":22098:22115  supplyCheckpoints */\n      0x0f\n        /* \"contracts/Gauge.sol\":22098:22118  supplyCheckpoints[i] */\n      0x20\n      swap1\n      dup2\n      mstore\n      0x40\n      swap2\n      dup3\n      swap1\n      keccak256\n        /* \"contracts/Gauge.sol\":22068:22118  SupplyCheckpoint memory sp0 = supplyCheckpoints[i] */\n      dup3\n      mload\n      dup1\n      dup5\n      add\n      swap1\n      swap4\n      mstore\n      dup1\n      sload\n      dup4\n      mstore\n      0x01\n      add\n      sload\n      swap1\n      dup3\n      add\n      dup2\n      swap1\n      mstore\n        /* \"contracts/Gauge.sol\":22140:22154  sp0.supply > 0 */\n      iszero\n        /* \"contracts/Gauge.sol\":22136:22554  if (sp0.supply > 0) {... */\n      tag_457\n      jumpi\n        /* \"contracts/Gauge.sol\":22178:22205  SupplyCheckpoint memory sp1 */\n      0x00\n        /* \"contracts/Gauge.sol\":22208:22225  supplyCheckpoints */\n      0x0f\n        /* \"contracts/Gauge.sol\":22178:22205  SupplyCheckpoint memory sp1 */\n      dup2\n        /* \"contracts/Gauge.sol\":22226:22231  i + 1 */\n      tag_458\n        /* \"contracts/Gauge.sol\":22226:22227  i */\n      dup6\n        /* \"contracts/Gauge.sol\":22230:22231  1 */\n      0x01\n        /* \"contracts/Gauge.sol\":22226:22231  i + 1 */\n      tag_221\n      jump\t// in\n    tag_458:\n        /* \"contracts/Gauge.sol\":22208:22232  supplyCheckpoints[i + 1] */\n      dup2\n      mstore\n      0x20\n      add\n      swap1\n      dup2\n      mstore\n      0x20\n      add\n      0x00\n      keccak256\n        /* \"contracts/Gauge.sol\":22178:22232  SupplyCheckpoint memory sp1 = supplyCheckpoints[i + 1] */\n      mload(0x40)\n      dup1\n      0x40\n      add\n      0x40\n      mstore\n      swap1\n      dup2\n      0x00\n      dup3\n      add\n      sload\n      dup2\n      mstore\n      0x20\n      add\n      0x01\n      dup3\n      add\n      sload\n      dup2\n      mstore\n      pop\n      pop\n      swap1\n      pop\n        /* \"contracts/Gauge.sol\":22255:22267  uint _reward */\n      0x00\n        /* \"contracts/Gauge.sol\":22269:22282  uint _endTime */\n      dup1\n        /* \"contracts/Gauge.sol\":22286:22371  _calcRewardPerToken(token, sp1.timestamp, sp0.timestamp, sp0.supply, _startTimestamp) */\n      tag_459\n        /* \"contracts/Gauge.sol\":22306:22311  token */\n      dup13\n        /* \"contracts/Gauge.sol\":22313:22316  sp1 */\n      dup5\n        /* \"contracts/Gauge.sol\":22313:22326  sp1.timestamp */\n      0x00\n      add\n      mload\n        /* \"contracts/Gauge.sol\":22328:22331  sp0 */\n      dup7\n        /* \"contracts/Gauge.sol\":22328:22341  sp0.timestamp */\n      0x00\n      add\n      mload\n        /* \"contracts/Gauge.sol\":22343:22346  sp0 */\n      dup8\n        /* \"contracts/Gauge.sol\":22343:22353  sp0.supply */\n      0x20\n      add\n      mload\n        /* \"contracts/Gauge.sol\":22355:22370  _startTimestamp */\n      dup14\n        /* \"contracts/Gauge.sol\":22286:22305  _calcRewardPerToken */\n      tag_460\n        /* \"contracts/Gauge.sol\":22286:22371  _calcRewardPerToken(token, sp1.timestamp, sp0.timestamp, sp0.supply, _startTimestamp) */\n      jump\t// in\n    tag_459:\n        /* \"contracts/Gauge.sol\":22254:22371  (uint _reward, uint _endTime) = _calcRewardPerToken(token, sp1.timestamp, sp0.timestamp, sp0.supply, _startTimestamp) */\n      swap1\n      swap3\n      pop\n      swap1\n      pop\n        /* \"contracts/Gauge.sol\":22393:22410  reward += _reward */\n      tag_461\n        /* \"contracts/Gauge.sol\":22254:22371  (uint _reward, uint _endTime) = _calcRewardPerToken(token, sp1.timestamp, sp0.timestamp, sp0.supply, _startTimestamp) */\n      dup3\n        /* \"contracts/Gauge.sol\":22393:22410  reward += _reward */\n      dup10\n      tag_221\n      jump\t// in\n    tag_461:\n      swap8\n      pop\n        /* \"contracts/Gauge.sol\":22432:22487  _writeRewardPerTokenCheckpoint(token, reward, _endTime) */\n      tag_462\n        /* \"contracts/Gauge.sol\":22463:22468  token */\n      dup13\n        /* \"contracts/Gauge.sol\":22470:22476  reward */\n      dup10\n        /* \"contracts/Gauge.sol\":22478:22486  _endTime */\n      dup4\n        /* \"contracts/Gauge.sol\":22432:22462  _writeRewardPerTokenCheckpoint */\n      tag_318\n        /* \"contracts/Gauge.sol\":22432:22487  _writeRewardPerTokenCheckpoint(token, reward, _endTime) */\n      jump\t// in\n    tag_462:\n        /* \"contracts/Gauge.sol\":22527:22535  _endTime */\n      swap8\n      pop\n      pop\n      pop\n        /* \"contracts/Gauge.sol\":22136:22554  if (sp0.supply > 0) {... */\n    tag_457:\n      pop\n        /* \"contracts/Gauge.sol\":22045:22048  i++ */\n      dup1\n      tag_463\n      dup2\n      tag_230\n      jump\t// in\n    tag_463:\n      swap2\n      pop\n      pop\n        /* \"contracts/Gauge.sol\":21999:22568  for (uint i = _startIndex; i < _endIndex - 1; i++) {... */\n      jump(tag_453)\n    tag_454:\n      pop\n        /* \"contracts/Gauge.sol\":21952:22578  if (_endIndex - _startIndex > 1) {... */\n    tag_452:\n        /* \"contracts/Gauge.sol\":22588:22614  SupplyCheckpoint memory sp */\n      0x00\n        /* \"contracts/Gauge.sol\":22617:22645  supplyCheckpoints[_endIndex] */\n      dup2\n      dup2\n      mstore\n        /* \"contracts/Gauge.sol\":22617:22634  supplyCheckpoints */\n      0x0f\n        /* \"contracts/Gauge.sol\":22617:22645  supplyCheckpoints[_endIndex] */\n      0x20\n      swap1\n      dup2\n      mstore\n      0x40\n      swap2\n      dup3\n      swap1\n      keccak256\n        /* \"contracts/Gauge.sol\":22588:22645  SupplyCheckpoint memory sp = supplyCheckpoints[_endIndex] */\n      dup3\n      mload\n      dup1\n      dup5\n      add\n      swap1\n      swap4\n      mstore\n      dup1\n      sload\n      dup4\n      mstore\n      0x01\n      add\n      sload\n      swap1\n      dup3\n      add\n      dup2\n      swap1\n      mstore\n        /* \"contracts/Gauge.sol\":22659:22672  sp.supply > 0 */\n      iszero\n        /* \"contracts/Gauge.sol\":22655:22999  if (sp.supply > 0) {... */\n      tag_464\n      jumpi\n        /* \"contracts/Gauge.sol\":22689:22701  uint _reward */\n      0x00\n        /* \"contracts/Gauge.sol\":22706:22834  _calcRewardPerToken(token, lastTimeRewardApplicable(token), Math.max(sp.timestamp, _startTimestamp), sp.supply, _startTimestamp) */\n      tag_465\n        /* \"contracts/Gauge.sol\":22726:22731  token */\n      dup10\n        /* \"contracts/Gauge.sol\":17184:17199  block.timestamp */\n      timestamp\n        /* \"contracts/Gauge.sol\":22775:22787  sp.timestamp */\n      dup5\n      mload\n        /* \"contracts/Gauge.sol\":22766:22805  Math.max(sp.timestamp, _startTimestamp) */\n      tag_467\n      swap1\n        /* \"contracts/Gauge.sol\":22789:22804  _startTimestamp */\n      dup11\n        /* \"contracts/Gauge.sol\":22766:22774  Math.max */\n      tag_210\n        /* \"contracts/Gauge.sol\":22766:22805  Math.max(sp.timestamp, _startTimestamp) */\n      jump\t// in\n    tag_467:\n        /* \"contracts/Gauge.sol\":22807:22809  sp */\n      dup6\n        /* \"contracts/Gauge.sol\":22807:22816  sp.supply */\n      0x20\n      add\n      mload\n        /* \"contracts/Gauge.sol\":22818:22833  _startTimestamp */\n      dup11\n        /* \"contracts/Gauge.sol\":22706:22725  _calcRewardPerToken */\n      tag_460\n        /* \"contracts/Gauge.sol\":22706:22834  _calcRewardPerToken(token, lastTimeRewardApplicable(token), Math.max(sp.timestamp, _startTimestamp), sp.supply, _startTimestamp) */\n      jump\t// in\n    tag_465:\n      pop\n        /* \"contracts/Gauge.sol\":22688:22834  (uint _reward,) = _calcRewardPerToken(token, lastTimeRewardApplicable(token), Math.max(sp.timestamp, _startTimestamp), sp.supply, _startTimestamp) */\n      swap1\n      pop\n        /* \"contracts/Gauge.sol\":22848:22865  reward += _reward */\n      tag_468\n        /* \"contracts/Gauge.sol\":22688:22834  (uint _reward,) = _calcRewardPerToken(token, lastTimeRewardApplicable(token), Math.max(sp.timestamp, _startTimestamp), sp.supply, _startTimestamp) */\n      dup2\n        /* \"contracts/Gauge.sol\":22848:22865  reward += _reward */\n      dup7\n      tag_221\n      jump\t// in\n    tag_468:\n      swap5\n      pop\n        /* \"contracts/Gauge.sol\":22879:22941  _writeRewardPerTokenCheckpoint(token, reward, block.timestamp) */\n      tag_469\n        /* \"contracts/Gauge.sol\":22910:22915  token */\n      dup10\n        /* \"contracts/Gauge.sol\":22917:22923  reward */\n      dup7\n        /* \"contracts/Gauge.sol\":22925:22940  block.timestamp */\n      timestamp\n        /* \"contracts/Gauge.sol\":22879:22909  _writeRewardPerTokenCheckpoint */\n      tag_318\n        /* \"contracts/Gauge.sol\":22879:22941  _writeRewardPerTokenCheckpoint(token, reward, block.timestamp) */\n      jump\t// in\n    tag_469:\n        /* \"contracts/Gauge.sol\":22973:22988  block.timestamp */\n      timestamp\n        /* \"contracts/Gauge.sol\":22955:22988  _startTimestamp = block.timestamp */\n      swap6\n      pop\n        /* \"contracts/Gauge.sol\":22674:22999  {... */\n      pop\n        /* \"contracts/Gauge.sol\":22655:22999  if (sp.supply > 0) {... */\n    tag_464:\n      pop\n        /* \"contracts/Gauge.sol\":23017:23023  reward */\n      swap2\n      swap7\n        /* \"contracts/Gauge.sol\":23025:23040  _startTimestamp */\n      swap3\n      swap6\n      pop\n        /* \"contracts/Gauge.sol\":21450:23048  function _updateRewardPerToken(address token) internal returns (uint, uint) {... */\n      swap2\n      swap4\n      pop\n      pop\n      pop\n      pop\n      jump\t// out\n        /* \"contracts/Gauge.sol\":17481:17804  function _safeTokenTransfer(address token, address _to, uint256 _amount) internal {... */\n    tag_277:\n        /* \"contracts/Gauge.sol\":17573:17611  _safeTransferFromToken(token, _amount) */\n      tag_471\n        /* \"contracts/Gauge.sol\":17596:17601  token */\n      dup4\n        /* \"contracts/Gauge.sol\":17603:17610  _amount */\n      dup3\n        /* \"contracts/Gauge.sol\":17573:17595  _safeTransferFromToken */\n      tag_472\n        /* \"contracts/Gauge.sol\":17573:17611  _safeTransferFromToken(token, _amount) */\n      jump\t// in\n    tag_471:\n        /* \"contracts/Gauge.sol\":17635:17673  IERC20(token).balanceOf(address(this)) */\n      mload(0x40)\n      shl(0xe0, 0x70a08231)\n      dup2\n      mstore\n        /* \"contracts/Gauge.sol\":17667:17671  this */\n      address\n        /* \"contracts/Gauge.sol\":17635:17673  IERC20(token).balanceOf(address(this)) */\n      0x04\n      dup3\n      add\n        /* \"#utility.yul\":3413:3464   */\n      mstore\n        /* \"contracts/Gauge.sol\":17621:17632  uint256 bal */\n      0x00\n      swap1\n      sub(shl(0xa0, 0x01), 0x01)\n        /* \"contracts/Gauge.sol\":17635:17658  IERC20(token).balanceOf */\n      dup6\n      and\n      swap1\n      0x70a08231\n      swap1\n        /* \"#utility.yul\":3386:3404   */\n      0x24\n      add\n        /* \"contracts/Gauge.sol\":17635:17673  IERC20(token).balanceOf(address(this)) */\n      0x20\n      mload(0x40)\n      dup1\n      dup4\n      sub\n      dup2\n      dup7\n      gas\n      staticcall\n      iszero\n      dup1\n      iszero\n      tag_475\n      jumpi\n      returndatasize\n      0x00\n      dup1\n      returndatacopy\n      revert(0x00, returndatasize)\n    tag_475:\n      pop\n      pop\n      pop\n      pop\n      mload(0x40)\n      returndatasize\n      not(0x1f)\n      0x1f\n      dup3\n      add\n      and\n      dup3\n      add\n      dup1\n      0x40\n      mstore\n      pop\n      dup2\n      add\n      swap1\n      tag_476\n      swap2\n      swap1\n      tag_329\n      jump\t// in\n    tag_476:\n        /* \"contracts/Gauge.sol\":17621:17673  uint256 bal = IERC20(token).balanceOf(address(this)) */\n      swap1\n      pop\n        /* \"contracts/Gauge.sol\":17697:17700  bal */\n      dup1\n        /* \"contracts/Gauge.sol\":17687:17694  _amount */\n      dup3\n        /* \"contracts/Gauge.sol\":17687:17700  _amount > bal */\n      gt\n        /* \"contracts/Gauge.sol\":17683:17740  if (_amount > bal) {... */\n      iszero\n      tag_477\n      jumpi\n        /* \"contracts/Gauge.sol\":17726:17729  bal */\n      dup1\n        /* \"contracts/Gauge.sol\":17716:17729  _amount = bal */\n      swap2\n      pop\n        /* \"contracts/Gauge.sol\":17683:17740  if (_amount > bal) {... */\n    tag_477:\n        /* \"contracts/Gauge.sol\":17749:17797  TransferHelper.safeTransfer(token, _to, _amount) */\n      tag_478\n        /* \"contracts/Gauge.sol\":17777:17782  token */\n      dup5\n        /* \"contracts/Gauge.sol\":17784:17787  _to */\n      dup5\n        /* \"contracts/Gauge.sol\":17789:17796  _amount */\n      dup5\n        /* \"contracts/Gauge.sol\":17749:17776  TransferHelper.safeTransfer */\n      tag_425\n        /* \"contracts/Gauge.sol\":17749:17797  TransferHelper.safeTransfer(token, _to, _amount) */\n      jump\t// in\n    tag_478:\n        /* \"contracts/Gauge.sol\":17563:17804  {... */\n      pop\n        /* \"contracts/Gauge.sol\":17481:17804  function _safeTokenTransfer(address token, address _to, uint256 _amount) internal {... */\n      pop\n      pop\n      pop\n      jump\t// out\n        /* \"contracts/Gauge.sol\":15309:15820  function _writeCheckpoint(address account, uint balance) internal {... */\n    tag_286:\n      sub(shl(0xa0, 0x01), 0x01)\n        /* \"contracts/Gauge.sol\":15449:15472  numCheckpoints[account] */\n      dup3\n      and\n        /* \"contracts/Gauge.sol\":15385:15400  uint _timestamp */\n      0x00\n        /* \"contracts/Gauge.sol\":15449:15472  numCheckpoints[account] */\n      swap1\n      dup2\n      mstore\n        /* \"contracts/Gauge.sol\":15449:15463  numCheckpoints */\n      0x0e\n        /* \"contracts/Gauge.sol\":15449:15472  numCheckpoints[account] */\n      0x20\n      mstore\n      0x40\n      swap1\n      keccak256\n      sload\n        /* \"contracts/Gauge.sol\":15403:15418  block.timestamp */\n      timestamp\n      swap1\n        /* \"contracts/Gauge.sol\":15487:15504  _nCheckPoints > 0 */\n      dup1\n      iszero\n      dup1\n      iszero\n      swap1\n        /* \"contracts/Gauge.sol\":15487:15571  _nCheckPoints > 0 && checkpoints[account][_nCheckPoints - 1].timestamp == _timestamp */\n      tag_480\n      jumpi\n      pop\n      sub(shl(0xa0, 0x01), 0x01)\n        /* \"contracts/Gauge.sol\":15508:15528  checkpoints[account] */\n      dup5\n      and\n      0x00\n      swap1\n      dup2\n      mstore\n        /* \"contracts/Gauge.sol\":15508:15519  checkpoints */\n      0x0d\n        /* \"contracts/Gauge.sol\":15508:15528  checkpoints[account] */\n      0x20\n      mstore\n      0x40\n      dup2\n      keccak256\n        /* \"contracts/Gauge.sol\":15561:15571  _timestamp */\n      dup4\n      swap2\n        /* \"contracts/Gauge.sol\":15529:15546  _nCheckPoints - 1 */\n      tag_481\n        /* \"contracts/Gauge.sol\":15545:15546  1 */\n      0x01\n        /* \"contracts/Gauge.sol\":15529:15542  _nCheckPoints */\n      dup6\n        /* \"contracts/Gauge.sol\":15529:15546  _nCheckPoints - 1 */\n      tag_192\n      jump\t// in\n    tag_481:\n        /* \"contracts/Gauge.sol\":15508:15547  checkpoints[account][_nCheckPoints - 1] */\n      dup2\n      mstore\n      0x20\n      add\n      swap1\n      dup2\n      mstore\n      0x20\n      add\n      0x00\n      keccak256\n        /* \"contracts/Gauge.sol\":15508:15557  checkpoints[account][_nCheckPoints - 1].timestamp */\n      0x00\n      add\n      sload\n        /* \"contracts/Gauge.sol\":15508:15571  checkpoints[account][_nCheckPoints - 1].timestamp == _timestamp */\n      eq\n        /* \"contracts/Gauge.sol\":15487:15571  _nCheckPoints > 0 && checkpoints[account][_nCheckPoints - 1].timestamp == _timestamp */\n    tag_480:\n        /* \"contracts/Gauge.sol\":15483:15814  if (_nCheckPoints > 0 && checkpoints[account][_nCheckPoints - 1].timestamp == _timestamp) {... */\n      iszero\n      tag_482\n      jumpi\n      sub(shl(0xa0, 0x01), 0x01)\n        /* \"contracts/Gauge.sol\":15587:15607  checkpoints[account] */\n      dup5\n      and\n      0x00\n      swap1\n      dup2\n      mstore\n        /* \"contracts/Gauge.sol\":15587:15598  checkpoints */\n      0x0d\n        /* \"contracts/Gauge.sol\":15587:15607  checkpoints[account] */\n      0x20\n      mstore\n      0x40\n      dup2\n      keccak256\n        /* \"contracts/Gauge.sol\":15639:15646  balance */\n      dup5\n      swap2\n        /* \"contracts/Gauge.sol\":15608:15625  _nCheckPoints - 1 */\n      tag_483\n        /* \"contracts/Gauge.sol\":15624:15625  1 */\n      0x01\n        /* \"contracts/Gauge.sol\":15608:15621  _nCheckPoints */\n      dup6\n        /* \"contracts/Gauge.sol\":15608:15625  _nCheckPoints - 1 */\n      tag_192\n      jump\t// in\n    tag_483:\n        /* \"contracts/Gauge.sol\":15587:15626  checkpoints[account][_nCheckPoints - 1] */\n      dup2\n      mstore\n      0x20\n      dup2\n      add\n      swap2\n      swap1\n      swap2\n      mstore\n      0x40\n      add\n      0x00\n      keccak256\n        /* \"contracts/Gauge.sol\":15587:15636  checkpoints[account][_nCheckPoints - 1].balanceOf */\n      0x01\n      add\n        /* \"contracts/Gauge.sol\":15587:15646  checkpoints[account][_nCheckPoints - 1].balanceOf = balance */\n      sstore\n        /* \"contracts/Gauge.sol\":15483:15814  if (_nCheckPoints > 0 && checkpoints[account][_nCheckPoints - 1].timestamp == _timestamp) {... */\n      jump(tag_478)\n    tag_482:\n        /* \"contracts/Gauge.sol\":15715:15746  Checkpoint(_timestamp, balance) */\n      0x40\n      dup1\n      mload\n      dup1\n      dup3\n      add\n      dup3\n      mstore\n      dup4\n      dup2\n      mstore\n      0x20\n      dup1\n      dup3\n      add\n      dup7\n      dup2\n      mstore\n      sub(shl(0xa0, 0x01), 0x01)\n        /* \"contracts/Gauge.sol\":15677:15697  checkpoints[account] */\n      dup9\n      and\n      0x00\n      swap1\n      dup2\n      mstore\n        /* \"contracts/Gauge.sol\":15677:15688  checkpoints */\n      0x0d\n        /* \"contracts/Gauge.sol\":15677:15697  checkpoints[account] */\n      dup4\n      mstore\n      dup5\n      dup2\n      keccak256\n        /* \"contracts/Gauge.sol\":15677:15712  checkpoints[account][_nCheckPoints] */\n      dup7\n      dup3\n      mstore\n      swap1\n      swap3\n      mstore\n      swap3\n      swap1\n      keccak256\n        /* \"contracts/Gauge.sol\":15677:15746  checkpoints[account][_nCheckPoints] = Checkpoint(_timestamp, balance) */\n      swap1\n      mload\n      dup2\n      sstore\n      swap1\n      mload\n      0x01\n      swap2\n      dup3\n      add\n      sstore\n        /* \"contracts/Gauge.sol\":15786:15803  _nCheckPoints + 1 */\n      tag_485\n      swap1\n        /* \"contracts/Gauge.sol\":15698:15711  _nCheckPoints */\n      dup3\n      swap1\n        /* \"contracts/Gauge.sol\":15786:15803  _nCheckPoints + 1 */\n      tag_221\n      jump\t// in\n    tag_485:\n      sub(shl(0xa0, 0x01), 0x01)\n        /* \"contracts/Gauge.sol\":15760:15783  numCheckpoints[account] */\n      dup6\n      and\n      0x00\n      swap1\n      dup2\n      mstore\n        /* \"contracts/Gauge.sol\":15760:15774  numCheckpoints */\n      0x0e\n        /* \"contracts/Gauge.sol\":15760:15783  numCheckpoints[account] */\n      0x20\n      mstore\n      0x40\n      swap1\n      keccak256\n        /* \"contracts/Gauge.sol\":15760:15803  numCheckpoints[account] = _nCheckPoints + 1 */\n      sstore\n        /* \"contracts/Gauge.sol\":15375:15820  {... */\n      pop\n      pop\n        /* \"contracts/Gauge.sol\":15309:15820  function _writeCheckpoint(address account, uint balance) internal {... */\n      pop\n      pop\n      jump\t// out\n        /* \"contracts/Gauge.sol\":16402:16890  function _writeSupplyCheckpoint() internal {... */\n    tag_288:\n        /* \"contracts/Gauge.sol\":16476:16496  supplyNumCheckpoints */\n      sload(0x10)\n        /* \"contracts/Gauge.sol\":16524:16539  block.timestamp */\n      timestamp\n        /* \"contracts/Gauge.sol\":16554:16571  _nCheckPoints > 0 */\n      dup2\n      iszero\n      dup1\n      iszero\n      swap1\n        /* \"contracts/Gauge.sol\":16554:16635  _nCheckPoints > 0 && supplyCheckpoints[_nCheckPoints - 1].timestamp == _timestamp */\n      tag_487\n      jumpi\n      pop\n        /* \"contracts/Gauge.sol\":16625:16635  _timestamp */\n      dup1\n        /* \"contracts/Gauge.sol\":16575:16592  supplyCheckpoints */\n      0x0f\n        /* \"contracts/Gauge.sol\":16575:16611  supplyCheckpoints[_nCheckPoints - 1] */\n      0x00\n        /* \"contracts/Gauge.sol\":16593:16610  _nCheckPoints - 1 */\n      tag_488\n        /* \"contracts/Gauge.sol\":16609:16610  1 */\n      0x01\n        /* \"contracts/Gauge.sol\":16593:16606  _nCheckPoints */\n      dup7\n        /* \"contracts/Gauge.sol\":16593:16610  _nCheckPoints - 1 */\n      tag_192\n      jump\t// in\n    tag_488:\n        /* \"contracts/Gauge.sol\":16575:16611  supplyCheckpoints[_nCheckPoints - 1] */\n      dup2\n      mstore\n      0x20\n      add\n      swap1\n      dup2\n      mstore\n      0x20\n      add\n      0x00\n      keccak256\n        /* \"contracts/Gauge.sol\":16575:16621  supplyCheckpoints[_nCheckPoints - 1].timestamp */\n      0x00\n      add\n      sload\n        /* \"contracts/Gauge.sol\":16575:16635  supplyCheckpoints[_nCheckPoints - 1].timestamp == _timestamp */\n      eq\n        /* \"contracts/Gauge.sol\":16554:16635  _nCheckPoints > 0 && supplyCheckpoints[_nCheckPoints - 1].timestamp == _timestamp */\n    tag_487:\n        /* \"contracts/Gauge.sol\":16550:16884  if (_nCheckPoints > 0 && supplyCheckpoints[_nCheckPoints - 1].timestamp == _timestamp) {... */\n      iszero\n      tag_489\n      jumpi\n        /* \"contracts/Gauge.sol\":16697:16710  derivedSupply */\n      sload(0x01)\n        /* \"contracts/Gauge.sol\":16651:16668  supplyCheckpoints */\n      0x0f\n        /* \"contracts/Gauge.sol\":16651:16687  supplyCheckpoints[_nCheckPoints - 1] */\n      0x00\n        /* \"contracts/Gauge.sol\":16685:16686  1 */\n      0x01\n        /* \"contracts/Gauge.sol\":16669:16682  _nCheckPoints */\n      dup6\n        /* \"contracts/Gauge.sol\":16669:16686  _nCheckPoints - 1 */\n      tag_490\n      swap2\n      swap1\n      tag_192\n      jump\t// in\n    tag_490:\n        /* \"contracts/Gauge.sol\":16651:16687  supplyCheckpoints[_nCheckPoints - 1] */\n      dup2\n      mstore\n      0x20\n      dup2\n      add\n      swap2\n      swap1\n      swap2\n      mstore\n      0x40\n      add\n      0x00\n      keccak256\n        /* \"contracts/Gauge.sol\":16651:16694  supplyCheckpoints[_nCheckPoints - 1].supply */\n      0x01\n      add\n        /* \"contracts/Gauge.sol\":16651:16710  supplyCheckpoints[_nCheckPoints - 1].supply = derivedSupply */\n      sstore\n        /* \"contracts/Gauge.sol\":25842:26016  {... */\n      pop\n        /* \"contracts/Gauge.sol\":25804:26016  function withdraw(uint amount) public {... */\n      pop\n      jump\t// out\n        /* \"contracts/Gauge.sol\":16550:16884  if (_nCheckPoints > 0 && supplyCheckpoints[_nCheckPoints - 1].timestamp == _timestamp) {... */\n    tag_489:\n        /* \"contracts/Gauge.sol\":16776:16819  SupplyCheckpoint(_timestamp, derivedSupply) */\n      0x40\n      dup1\n      mload\n      dup1\n      dup3\n      add\n      dup3\n      mstore\n      dup3\n      dup2\n      mstore\n        /* \"contracts/Gauge.sol\":16805:16818  derivedSupply */\n      0x01\n      dup1\n      sload\n        /* \"contracts/Gauge.sol\":16776:16819  SupplyCheckpoint(_timestamp, derivedSupply) */\n      0x20\n      dup1\n      dup5\n      add\n      swap2\n      dup3\n      mstore\n      0x00\n        /* \"contracts/Gauge.sol\":16741:16773  supplyCheckpoints[_nCheckPoints] */\n      dup8\n      dup2\n      mstore\n        /* \"contracts/Gauge.sol\":16741:16758  supplyCheckpoints */\n      0x0f\n        /* \"contracts/Gauge.sol\":16741:16773  supplyCheckpoints[_nCheckPoints] */\n      swap1\n      swap2\n      mstore\n      swap4\n      swap1\n      swap4\n      keccak256\n        /* \"contracts/Gauge.sol\":16741:16819  supplyCheckpoints[_nCheckPoints] = SupplyCheckpoint(_timestamp, derivedSupply) */\n      swap2\n      mload\n      dup3\n      sstore\n      swap2\n      mload\n      swap1\n      dup3\n      add\n      sstore\n        /* \"contracts/Gauge.sol\":16856:16873  _nCheckPoints + 1 */\n      tag_492\n      swap1\n        /* \"contracts/Gauge.sol\":16759:16772  _nCheckPoints */\n      dup4\n      swap1\n        /* \"contracts/Gauge.sol\":16856:16873  _nCheckPoints + 1 */\n      tag_221\n      jump\t// in\n    tag_492:\n        /* \"contracts/Gauge.sol\":16833:16853  supplyNumCheckpoints */\n      0x10\n        /* \"contracts/Gauge.sol\":16833:16873  supplyNumCheckpoints = _nCheckPoints + 1 */\n      sstore\n        /* \"contracts/Gauge.sol\":16445:16890  {... */\n      pop\n      pop\n        /* \"contracts/Gauge.sol\":16402:16890  function _writeSupplyCheckpoint() internal {... */\n      jump\t// out\n        /* \"contracts/Gauge.sol\":19992:21104  function _batchRewardPerToken(address token, uint maxRuns) internal returns (uint, uint) {... */\n    tag_291:\n      sub(shl(0xa0, 0x01), 0x01)\n        /* \"contracts/Gauge.sol\":20114:20135  lastUpdateTime[token] */\n      dup3\n      and\n        /* \"contracts/Gauge.sol\":20069:20073  uint */\n      0x00\n        /* \"contracts/Gauge.sol\":20114:20135  lastUpdateTime[token] */\n      swap1\n      dup2\n      mstore\n        /* \"contracts/Gauge.sol\":20114:20128  lastUpdateTime */\n      0x04\n        /* \"contracts/Gauge.sol\":20114:20135  lastUpdateTime[token] */\n      0x20\n      swap1\n      dup2\n      mstore\n      0x40\n      dup1\n      dup4\n      keccak256\n      sload\n        /* \"contracts/Gauge.sol\":20159:20179  rewardPerTokenStored */\n      0x05\n        /* \"contracts/Gauge.sol\":20159:20186  rewardPerTokenStored[token] */\n      swap1\n      swap3\n      mstore\n      dup3\n      keccak256\n      sload\n        /* \"contracts/Gauge.sol\":20201:20221  supplyNumCheckpoints */\n      sload(0x10)\n        /* \"contracts/Gauge.sol\":20069:20073  uint */\n      dup4\n      swap3\n        /* \"contracts/Gauge.sol\":20114:20135  lastUpdateTime[token] */\n      swap2\n        /* \"contracts/Gauge.sol\":20159:20186  rewardPerTokenStored[token] */\n      swap1\n        /* \"contracts/Gauge.sol\":20197:20285  if (supplyNumCheckpoints == 0) {... */\n      tag_494\n      jumpi\n        /* \"contracts/Gauge.sol\":20250:20256  reward */\n      swap3\n      pop\n        /* \"contracts/Gauge.sol\":20258:20273  _startTimestamp */\n      swap1\n      pop\n        /* \"contracts/Gauge.sol\":20242:20274  return (reward, _startTimestamp) */\n      jump(tag_400)\n        /* \"contracts/Gauge.sol\":20197:20285  if (supplyNumCheckpoints == 0) {... */\n    tag_494:\n      sub(shl(0xa0, 0x01), 0x01)\n        /* \"contracts/Gauge.sol\":20299:20316  rewardRate[token] */\n      dup7\n      and\n      0x00\n      swap1\n      dup2\n      mstore\n        /* \"contracts/Gauge.sol\":20299:20309  rewardRate */\n      0x03\n        /* \"contracts/Gauge.sol\":20299:20316  rewardRate[token] */\n      0x20\n      mstore\n      0x40\n      swap1\n      keccak256\n      sload\n        /* \"contracts/Gauge.sol\":20295:20380  if (rewardRate[token] == 0) {... */\n      tag_495\n      jumpi\n        /* \"contracts/Gauge.sol\":20345:20351  reward */\n      swap3\n      pop\n        /* \"contracts/Gauge.sol\":20353:20368  block.timestamp */\n      timestamp\n      swap2\n      pop\n        /* \"contracts/Gauge.sol\":20337:20369  return (reward, block.timestamp) */\n      tag_400\n      swap1\n      pop\n      jump\n        /* \"contracts/Gauge.sol\":20295:20380  if (rewardRate[token] == 0) {... */\n    tag_495:\n        /* \"contracts/Gauge.sol\":20390:20406  uint _startIndex */\n      0x00\n        /* \"contracts/Gauge.sol\":20409:20445  getPriorSupplyIndex(_startTimestamp) */\n      tag_496\n        /* \"contracts/Gauge.sol\":20429:20444  _startTimestamp */\n      dup4\n        /* \"contracts/Gauge.sol\":20409:20428  getPriorSupplyIndex */\n      tag_124\n        /* \"contracts/Gauge.sol\":20409:20445  getPriorSupplyIndex(_startTimestamp) */\n      jump\t// in\n    tag_496:\n        /* \"contracts/Gauge.sol\":20390:20445  uint _startIndex = getPriorSupplyIndex(_startTimestamp) */\n      swap1\n      pop\n        /* \"contracts/Gauge.sol\":20455:20469  uint _endIndex */\n      0x00\n        /* \"contracts/Gauge.sol\":20472:20515  Math.min(supplyNumCheckpoints - 1, maxRuns) */\n      tag_497\n        /* \"contracts/Gauge.sol\":20504:20505  1 */\n      0x01\n        /* \"contracts/Gauge.sol\":20481:20501  supplyNumCheckpoints */\n      sload(0x10)\n        /* \"contracts/Gauge.sol\":20481:20505  supplyNumCheckpoints - 1 */\n      tag_498\n      swap2\n      swap1\n      tag_192\n      jump\t// in\n    tag_498:\n        /* \"contracts/Gauge.sol\":20507:20514  maxRuns */\n      dup9\n        /* \"contracts/Gauge.sol\":20472:20480  Math.min */\n      tag_355\n        /* \"contracts/Gauge.sol\":20472:20515  Math.min(supplyNumCheckpoints - 1, maxRuns) */\n      jump\t// in\n    tag_497:\n        /* \"contracts/Gauge.sol\":20455:20515  uint _endIndex = Math.min(supplyNumCheckpoints - 1, maxRuns) */\n      swap1\n      pop\n        /* \"contracts/Gauge.sol\":20540:20551  _startIndex */\n      dup2\n        /* \"contracts/Gauge.sol\":20526:21055  for (uint i = _startIndex; i < _endIndex; i++) {... */\n    tag_499:\n        /* \"contracts/Gauge.sol\":20557:20566  _endIndex */\n      dup2\n        /* \"contracts/Gauge.sol\":20553:20554  i */\n      dup2\n        /* \"contracts/Gauge.sol\":20553:20566  i < _endIndex */\n      lt\n        /* \"contracts/Gauge.sol\":20526:21055  for (uint i = _startIndex; i < _endIndex; i++) {... */\n      iszero\n      tag_500\n      jumpi\n        /* \"contracts/Gauge.sol\":20587:20614  SupplyCheckpoint memory sp0 */\n      0x00\n        /* \"contracts/Gauge.sol\":20617:20637  supplyCheckpoints[i] */\n      dup2\n      dup2\n      mstore\n        /* \"contracts/Gauge.sol\":20617:20634  supplyCheckpoints */\n      0x0f\n        /* \"contracts/Gauge.sol\":20617:20637  supplyCheckpoints[i] */\n      0x20\n      swap1\n      dup2\n      mstore\n      0x40\n      swap2\n      dup3\n      swap1\n      keccak256\n        /* \"contracts/Gauge.sol\":20587:20637  SupplyCheckpoint memory sp0 = supplyCheckpoints[i] */\n      dup3\n      mload\n      dup1\n      dup5\n      add\n      swap1\n      swap4\n      mstore\n      dup1\n      sload\n      dup4\n      mstore\n      0x01\n      add\n      sload\n      swap1\n      dup3\n      add\n      dup2\n      swap1\n      mstore\n        /* \"contracts/Gauge.sol\":20655:20669  sp0.supply > 0 */\n      iszero\n        /* \"contracts/Gauge.sol\":20651:21045  if (sp0.supply > 0) {... */\n      tag_502\n      jumpi\n        /* \"contracts/Gauge.sol\":20689:20716  SupplyCheckpoint memory sp1 */\n      0x00\n        /* \"contracts/Gauge.sol\":20719:20736  supplyCheckpoints */\n      0x0f\n        /* \"contracts/Gauge.sol\":20689:20716  SupplyCheckpoint memory sp1 */\n      dup2\n        /* \"contracts/Gauge.sol\":20737:20742  i + 1 */\n      tag_503\n        /* \"contracts/Gauge.sol\":20737:20738  i */\n      dup6\n        /* \"contracts/Gauge.sol\":20741:20742  1 */\n      0x01\n        /* \"contracts/Gauge.sol\":20737:20742  i + 1 */\n      tag_221\n      jump\t// in\n    tag_503:\n        /* \"contracts/Gauge.sol\":20719:20743  supplyCheckpoints[i + 1] */\n      dup2\n      mstore\n      0x20\n      add\n      swap1\n      dup2\n      mstore\n      0x20\n      add\n      0x00\n      keccak256\n        /* \"contracts/Gauge.sol\":20689:20743  SupplyCheckpoint memory sp1 = supplyCheckpoints[i + 1] */\n      mload(0x40)\n      dup1\n      0x40\n      add\n      0x40\n      mstore\n      swap1\n      dup2\n      0x00\n      dup3\n      add\n      sload\n      dup2\n      mstore\n      0x20\n      add\n      0x01\n      dup3\n      add\n      sload\n      dup2\n      mstore\n      pop\n      pop\n      swap1\n      pop\n        /* \"contracts/Gauge.sol\":20762:20774  uint _reward */\n      0x00\n        /* \"contracts/Gauge.sol\":20776:20789  uint _endTime */\n      dup1\n        /* \"contracts/Gauge.sol\":20793:20878  _calcRewardPerToken(token, sp1.timestamp, sp0.timestamp, sp0.supply, _startTimestamp) */\n      tag_504\n        /* \"contracts/Gauge.sol\":20813:20818  token */\n      dup14\n        /* \"contracts/Gauge.sol\":20820:20823  sp1 */\n      dup5\n        /* \"contracts/Gauge.sol\":20820:20833  sp1.timestamp */\n      0x00\n      add\n      mload\n        /* \"contracts/Gauge.sol\":20835:20838  sp0 */\n      dup7\n        /* \"contracts/Gauge.sol\":20835:20848  sp0.timestamp */\n      0x00\n      add\n      mload\n        /* \"contracts/Gauge.sol\":20850:20853  sp0 */\n      dup8\n        /* \"contracts/Gauge.sol\":20850:20860  sp0.supply */\n      0x20\n      add\n      mload\n        /* \"contracts/Gauge.sol\":20862:20877  _startTimestamp */\n      dup14\n        /* \"contracts/Gauge.sol\":20793:20812  _calcRewardPerToken */\n      tag_460\n        /* \"contracts/Gauge.sol\":20793:20878  _calcRewardPerToken(token, sp1.timestamp, sp0.timestamp, sp0.supply, _startTimestamp) */\n      jump\t// in\n    tag_504:\n        /* \"contracts/Gauge.sol\":20761:20878  (uint _reward, uint _endTime) = _calcRewardPerToken(token, sp1.timestamp, sp0.timestamp, sp0.supply, _startTimestamp) */\n      swap1\n      swap3\n      pop\n      swap1\n      pop\n        /* \"contracts/Gauge.sol\":20896:20913  reward += _reward */\n      tag_505\n        /* \"contracts/Gauge.sol\":20761:20878  (uint _reward, uint _endTime) = _calcRewardPerToken(token, sp1.timestamp, sp0.timestamp, sp0.supply, _startTimestamp) */\n      dup3\n        /* \"contracts/Gauge.sol\":20896:20913  reward += _reward */\n      dup10\n      tag_221\n      jump\t// in\n    tag_505:\n      swap8\n      pop\n        /* \"contracts/Gauge.sol\":20931:20986  _writeRewardPerTokenCheckpoint(token, reward, _endTime) */\n      tag_506\n        /* \"contracts/Gauge.sol\":20962:20967  token */\n      dup14\n        /* \"contracts/Gauge.sol\":20969:20975  reward */\n      dup10\n        /* \"contracts/Gauge.sol\":20977:20985  _endTime */\n      dup4\n        /* \"contracts/Gauge.sol\":20931:20961  _writeRewardPerTokenCheckpoint */\n      tag_318\n        /* \"contracts/Gauge.sol\":20931:20986  _writeRewardPerTokenCheckpoint(token, reward, _endTime) */\n      jump\t// in\n    tag_506:\n        /* \"contracts/Gauge.sol\":21022:21030  _endTime */\n      swap8\n      pop\n      pop\n      pop\n        /* \"contracts/Gauge.sol\":20651:21045  if (sp0.supply > 0) {... */\n    tag_502:\n      pop\n        /* \"contracts/Gauge.sol\":20568:20571  i++ */\n      dup1\n      tag_507\n      dup2\n      tag_230\n      jump\t// in\n    tag_507:\n      swap2\n      pop\n      pop\n        /* \"contracts/Gauge.sol\":20526:21055  for (uint i = _startIndex; i < _endIndex; i++) {... */\n      jump(tag_499)\n    tag_500:\n      pop\n        /* \"contracts/Gauge.sol\":21073:21079  reward */\n      swap2\n      swap8\n        /* \"contracts/Gauge.sol\":21081:21096  _startTimestamp */\n      swap3\n      swap7\n      pop\n        /* \"contracts/Gauge.sol\":19992:21104  function _batchRewardPerToken(address token, uint maxRuns) internal returns (uint, uint) {... */\n      swap2\n      swap5\n      pop\n      pop\n      pop\n      pop\n      pop\n      jump\t// out\n        /* \"contracts/Gauge.sol\":15826:16396  function _writeRewardPerTokenCheckpoint(address token, uint reward, uint timestamp) internal {... */\n    tag_318:\n      sub(shl(0xa0, 0x01), 0x01)\n        /* \"contracts/Gauge.sol\":15950:15985  rewardPerTokenNumCheckpoints[token] */\n      dup4\n      and\n        /* \"contracts/Gauge.sol\":15929:15947  uint _nCheckPoints */\n      0x00\n        /* \"contracts/Gauge.sol\":15950:15985  rewardPerTokenNumCheckpoints[token] */\n      swap1\n      dup2\n      mstore\n        /* \"contracts/Gauge.sol\":15950:15978  rewardPerTokenNumCheckpoints */\n      0x12\n        /* \"contracts/Gauge.sol\":15950:15985  rewardPerTokenNumCheckpoints[token] */\n      0x20\n      mstore\n      0x40\n      swap1\n      keccak256\n      sload\n        /* \"contracts/Gauge.sol\":16000:16017  _nCheckPoints > 0 */\n      dup1\n      iszero\n      dup1\n      iszero\n      swap1\n        /* \"contracts/Gauge.sol\":16000:16095  _nCheckPoints > 0 && rewardPerTokenCheckpoints[token][_nCheckPoints - 1].timestamp == timestamp */\n      tag_509\n      jumpi\n      pop\n      sub(shl(0xa0, 0x01), 0x01)\n        /* \"contracts/Gauge.sol\":16021:16053  rewardPerTokenCheckpoints[token] */\n      dup5\n      and\n      0x00\n      swap1\n      dup2\n      mstore\n        /* \"contracts/Gauge.sol\":16021:16046  rewardPerTokenCheckpoints */\n      0x11\n        /* \"contracts/Gauge.sol\":16021:16053  rewardPerTokenCheckpoints[token] */\n      0x20\n      mstore\n      0x40\n      dup2\n      keccak256\n        /* \"contracts/Gauge.sol\":16086:16095  timestamp */\n      dup4\n      swap2\n        /* \"contracts/Gauge.sol\":16054:16071  _nCheckPoints - 1 */\n      tag_510\n        /* \"contracts/Gauge.sol\":16070:16071  1 */\n      0x01\n        /* \"contracts/Gauge.sol\":16054:16067  _nCheckPoints */\n      dup6\n        /* \"contracts/Gauge.sol\":16054:16071  _nCheckPoints - 1 */\n      tag_192\n      jump\t// in\n    tag_510:\n        /* \"contracts/Gauge.sol\":16021:16072  rewardPerTokenCheckpoints[token][_nCheckPoints - 1] */\n      dup2\n      mstore\n      0x20\n      add\n      swap1\n      dup2\n      mstore\n      0x20\n      add\n      0x00\n      keccak256\n        /* \"contracts/Gauge.sol\":16021:16082  rewardPerTokenCheckpoints[token][_nCheckPoints - 1].timestamp */\n      0x00\n      add\n      sload\n        /* \"contracts/Gauge.sol\":16021:16095  rewardPerTokenCheckpoints[token][_nCheckPoints - 1].timestamp == timestamp */\n      eq\n        /* \"contracts/Gauge.sol\":16000:16095  _nCheckPoints > 0 && rewardPerTokenCheckpoints[token][_nCheckPoints - 1].timestamp == timestamp */\n    tag_509:\n        /* \"contracts/Gauge.sol\":15996:16390  if (_nCheckPoints > 0 && rewardPerTokenCheckpoints[token][_nCheckPoints - 1].timestamp == timestamp) {... */\n      iszero\n      tag_511\n      jumpi\n      sub(shl(0xa0, 0x01), 0x01)\n        /* \"contracts/Gauge.sol\":16111:16143  rewardPerTokenCheckpoints[token] */\n      dup5\n      and\n      0x00\n      swap1\n      dup2\n      mstore\n        /* \"contracts/Gauge.sol\":16111:16136  rewardPerTokenCheckpoints */\n      0x11\n        /* \"contracts/Gauge.sol\":16111:16143  rewardPerTokenCheckpoints[token] */\n      0x20\n      mstore\n      0x40\n      dup2\n      keccak256\n        /* \"contracts/Gauge.sol\":16180:16186  reward */\n      dup5\n      swap2\n        /* \"contracts/Gauge.sol\":16144:16161  _nCheckPoints - 1 */\n      tag_483\n        /* \"contracts/Gauge.sol\":16160:16161  1 */\n      0x01\n        /* \"contracts/Gauge.sol\":16144:16157  _nCheckPoints */\n      dup6\n        /* \"contracts/Gauge.sol\":16144:16161  _nCheckPoints - 1 */\n      tag_192\n      jump\t// in\n        /* \"contracts/Gauge.sol\":15996:16390  if (_nCheckPoints > 0 && rewardPerTokenCheckpoints[token][_nCheckPoints - 1].timestamp == timestamp) {... */\n    tag_511:\n        /* \"contracts/Gauge.sol\":16267:16310  RewardPerTokenCheckpoint(timestamp, reward) */\n      0x40\n      dup1\n      mload\n      dup1\n      dup3\n      add\n      dup3\n      mstore\n      dup4\n      dup2\n      mstore\n      0x20\n      dup1\n      dup3\n      add\n      dup7\n      dup2\n      mstore\n      sub(shl(0xa0, 0x01), 0x01)\n        /* \"contracts/Gauge.sol\":16217:16249  rewardPerTokenCheckpoints[token] */\n      dup9\n      and\n      0x00\n      swap1\n      dup2\n      mstore\n        /* \"contracts/Gauge.sol\":16217:16242  rewardPerTokenCheckpoints */\n      0x11\n        /* \"contracts/Gauge.sol\":16217:16249  rewardPerTokenCheckpoints[token] */\n      dup4\n      mstore\n      dup5\n      dup2\n      keccak256\n        /* \"contracts/Gauge.sol\":16217:16264  rewardPerTokenCheckpoints[token][_nCheckPoints] */\n      dup7\n      dup3\n      mstore\n      swap1\n      swap3\n      mstore\n      swap3\n      swap1\n      keccak256\n        /* \"contracts/Gauge.sol\":16217:16310  rewardPerTokenCheckpoints[token][_nCheckPoints] = RewardPerTokenCheckpoint(timestamp, reward) */\n      swap1\n      mload\n      dup2\n      sstore\n      swap1\n      mload\n      0x01\n      swap2\n      dup3\n      add\n      sstore\n        /* \"contracts/Gauge.sol\":16362:16379  _nCheckPoints + 1 */\n      tag_514\n      swap1\n        /* \"contracts/Gauge.sol\":16250:16263  _nCheckPoints */\n      dup3\n      swap1\n        /* \"contracts/Gauge.sol\":16362:16379  _nCheckPoints + 1 */\n      tag_221\n      jump\t// in\n    tag_514:\n      sub(shl(0xa0, 0x01), 0x01)\n        /* \"contracts/Gauge.sol\":16324:16359  rewardPerTokenNumCheckpoints[token] */\n      dup6\n      and\n      0x00\n      swap1\n      dup2\n      mstore\n        /* \"contracts/Gauge.sol\":16324:16352  rewardPerTokenNumCheckpoints */\n      0x12\n        /* \"contracts/Gauge.sol\":16324:16359  rewardPerTokenNumCheckpoints[token] */\n      0x20\n      mstore\n      0x40\n      swap1\n      keccak256\n        /* \"contracts/Gauge.sol\":16324:16379  rewardPerTokenNumCheckpoints[token] = _nCheckPoints + 1 */\n      sstore\n        /* \"contracts/Gauge.sol\":15919:16396  {... */\n      pop\n        /* \"contracts/Gauge.sol\":15826:16396  function _writeRewardPerTokenCheckpoint(address token, uint reward, uint timestamp) internal {... */\n      pop\n      pop\n      pop\n      jump\t// out\n        /* \"contracts/Gauge.sol\":583:687  function min(uint256 a, uint256 b) internal pure returns (uint256) {... */\n    tag_355:\n        /* \"contracts/Gauge.sol\":641:648  uint256 */\n      0x00\n        /* \"contracts/Gauge.sol\":671:672  b */\n      dup2\n        /* \"contracts/Gauge.sol\":667:668  a */\n      dup4\n        /* \"contracts/Gauge.sol\":667:672  a < b */\n      lt\n        /* \"contracts/Gauge.sol\":667:680  a < b ? a : b */\n      tag_444\n      jumpi\n        /* \"contracts/Gauge.sol\":679:680  b */\n      dup2\n        /* \"contracts/Gauge.sol\":667:680  a < b ? a : b */\n      jump(tag_297)\n        /* \"contracts/Gauge.sol\":9072:9470  function safeTransferFrom(address token, address from, address to, uint value) internal {... */\n    tag_362:\n        /* \"contracts/Gauge.sol\":9295:9346  abi.encodeWithSelector(0x23b872dd, from, to, value) */\n      0x40\n      dup1\n      mload\n      sub(shl(0xa0, 0x01), 0x01)\n        /* \"#utility.yul\":7010:7025   */\n      dup6\n      dup2\n      and\n        /* \"contracts/Gauge.sol\":9295:9346  abi.encodeWithSelector(0x23b872dd, from, to, value) */\n      0x24\n      dup4\n      add\n        /* \"#utility.yul\":6992:7026   */\n      mstore\n        /* \"#utility.yul\":7062:7077   */\n      dup5\n      dup2\n      and\n        /* \"#utility.yul\":7042:7060   */\n      0x44\n      dup4\n      add\n        /* \"#utility.yul\":7035:7078   */\n      mstore\n        /* \"#utility.yul\":7094:7112   */\n      0x64\n      dup1\n      dup4\n      add\n        /* \"#utility.yul\":7087:7121   */\n      dup6\n      swap1\n      mstore\n        /* \"contracts/Gauge.sol\":9295:9346  abi.encodeWithSelector(0x23b872dd, from, to, value) */\n      dup4\n      mload\n      dup1\n      dup5\n      sub\n      swap1\n      swap2\n      add\n      dup2\n      mstore\n        /* \"#utility.yul\":6927:6945   */\n      0x84\n      swap1\n      swap3\n      add\n        /* \"contracts/Gauge.sol\":9295:9346  abi.encodeWithSelector(0x23b872dd, from, to, value) */\n      dup4\n      mstore\n      0x20\n      dup3\n      add\n      dup1\n      mload\n      sub(shl(0xe0, 0x01), 0x01)\n      and\n      shl(0xe0, 0x23b872dd)\n      or\n      swap1\n      mstore\n        /* \"contracts/Gauge.sol\":9284:9347  token.call(abi.encodeWithSelector(0x23b872dd, from, to, value)) */\n      swap2\n      mload\n      0x00\n      swap3\n      dup4\n      swap3\n        /* \"contracts/Gauge.sol\":9284:9294  token.call */\n      swap1\n      dup9\n      and\n      swap2\n        /* \"contracts/Gauge.sol\":9284:9347  token.call(abi.encodeWithSelector(0x23b872dd, from, to, value)) */\n      tag_521\n      swap2\n        /* \"contracts/Gauge.sol\":9295:9346  abi.encodeWithSelector(0x23b872dd, from, to, value) */\n      swap1\n        /* \"contracts/Gauge.sol\":9284:9347  token.call(abi.encodeWithSelector(0x23b872dd, from, to, value)) */\n      tag_522\n      jump\t// in\n    tag_521:\n      0x00\n      mload(0x40)\n      dup1\n      dup4\n      sub\n      dup2\n      0x00\n      dup7\n      gas\n      call\n      swap2\n      pop\n      pop\n      returndatasize\n      dup1\n      0x00\n      dup2\n      eq\n      tag_525\n      jumpi\n      mload(0x40)\n      swap2\n      pop\n      and(add(returndatasize, 0x3f), not(0x1f))\n      dup3\n      add\n      0x40\n      mstore\n      returndatasize\n      dup3\n      mstore\n      returndatasize\n      0x00\n      0x20\n      dup5\n      add\n      returndatacopy\n      jump(tag_524)\n    tag_525:\n      0x60\n      swap2\n      pop\n    tag_524:\n      pop\n        /* \"contracts/Gauge.sol\":9248:9347  (bool success, bytes memory data) = token.call(abi.encodeWithSelector(0x23b872dd, from, to, value)) */\n      swap2\n      pop\n      swap2\n      pop\n        /* \"contracts/Gauge.sol\":9365:9372  success */\n      dup2\n        /* \"contracts/Gauge.sol\":9365:9422  success && (data.length == 0 || abi.decode(data, (bool))) */\n      dup1\n      iszero\n      tag_528\n      jumpi\n      pop\n        /* \"contracts/Gauge.sol\":9377:9388  data.length */\n      dup1\n      mload\n        /* \"contracts/Gauge.sol\":9377:9393  data.length == 0 */\n      iszero\n      dup1\n        /* \"contracts/Gauge.sol\":9377:9421  data.length == 0 || abi.decode(data, (bool)) */\n      tag_528\n      jumpi\n      pop\n        /* \"contracts/Gauge.sol\":9408:9412  data */\n      dup1\n        /* \"contracts/Gauge.sol\":9397:9421  abi.decode(data, (bool)) */\n      dup1\n      0x20\n      add\n      swap1\n      mload\n      dup2\n      add\n      swap1\n      tag_528\n      swap2\n      swap1\n      tag_529\n      jump\t// in\n    tag_528:\n        /* \"contracts/Gauge.sol\":9357:9463  require(success && (data.length == 0 || abi.decode(data, (bool))), 'TransferHelper: TRANSFER_FROM_FAILED') */\n      tag_530\n      jumpi\n      mload(0x40)\n      shl(0xe5, 0x461bcd)\n      dup2\n      mstore\n        /* \"#utility.yul\":8047:8049   */\n      0x20\n        /* \"contracts/Gauge.sol\":9357:9463  require(success && (data.length == 0 || abi.decode(data, (bool))), 'TransferHelper: TRANSFER_FROM_FAILED') */\n      0x04\n      dup3\n      add\n        /* \"#utility.yul\":8029:8050   */\n      mstore\n        /* \"#utility.yul\":8086:8088   */\n      0x24\n        /* \"#utility.yul\":8066:8084   */\n      dup1\n      dup3\n      add\n        /* \"#utility.yul\":8059:8089   */\n      mstore\n        /* \"#utility.yul\":8125:8159   */\n      0x5472616e7366657248656c7065723a205452414e534645525f46524f4d5f4641\n        /* \"#utility.yul\":8105:8123   */\n      0x44\n      dup3\n      add\n        /* \"#utility.yul\":8098:8160   */\n      mstore\n      shl(0xe2, 0x12531151)\n        /* \"#utility.yul\":8176:8194   */\n      0x64\n      dup3\n      add\n        /* \"#utility.yul\":8169:8203   */\n      mstore\n        /* \"#utility.yul\":8220:8239   */\n      0x84\n      add\n        /* \"contracts/Gauge.sol\":9357:9463  require(success && (data.length == 0 || abi.decode(data, (bool))), 'TransferHelper: TRANSFER_FROM_FAILED') */\n      tag_243\n        /* \"#utility.yul\":7845:8245   */\n      jump\n        /* \"contracts/Gauge.sol\":9357:9463  require(success && (data.length == 0 || abi.decode(data, (bool))), 'TransferHelper: TRANSFER_FROM_FAILED') */\n    tag_530:\n        /* \"contracts/Gauge.sol\":9160:9470  {... */\n      pop\n      pop\n        /* \"contracts/Gauge.sol\":9072:9470  function safeTransferFrom(address token, address from, address to, uint value) internal {... */\n      pop\n      pop\n      pop\n      pop\n      jump\t// out\n        /* \"contracts/Gauge.sol\":8709:9066  function safeTransfer(address token, address to, uint value) internal {... */\n    tag_425:\n        /* \"contracts/Gauge.sol\":8902:8947  abi.encodeWithSelector(0xa9059cbb, to, value) */\n      0x40\n      dup1\n      mload\n      sub(shl(0xa0, 0x01), 0x01)\n        /* \"#utility.yul\":8442:8474   */\n      dup5\n      dup2\n      and\n        /* \"contracts/Gauge.sol\":8902:8947  abi.encodeWithSelector(0xa9059cbb, to, value) */\n      0x24\n      dup4\n      add\n        /* \"#utility.yul\":8424:8475   */\n      mstore\n        /* \"#utility.yul\":8491:8509   */\n      0x44\n      dup1\n      dup4\n      add\n        /* \"#utility.yul\":8484:8518   */\n      dup6\n      swap1\n      mstore\n        /* \"contracts/Gauge.sol\":8902:8947  abi.encodeWithSelector(0xa9059cbb, to, value) */\n      dup4\n      mload\n      dup1\n      dup5\n      sub\n      swap1\n      swap2\n      add\n      dup2\n      mstore\n        /* \"#utility.yul\":8397:8415   */\n      0x64\n      swap1\n      swap3\n      add\n        /* \"contracts/Gauge.sol\":8902:8947  abi.encodeWithSelector(0xa9059cbb, to, value) */\n      dup4\n      mstore\n      0x20\n      dup3\n      add\n      dup1\n      mload\n      sub(shl(0xe0, 0x01), 0x01)\n      and\n      shl(0xe0, 0xa9059cbb)\n      or\n      swap1\n      mstore\n        /* \"contracts/Gauge.sol\":8891:8948  token.call(abi.encodeWithSelector(0xa9059cbb, to, value)) */\n      swap2\n      mload\n      0x00\n      swap3\n      dup4\n      swap3\n        /* \"contracts/Gauge.sol\":8891:8901  token.call */\n      swap1\n      dup8\n      and\n      swap2\n        /* \"contracts/Gauge.sol\":8891:8948  token.call(abi.encodeWithSelector(0xa9059cbb, to, value)) */\n      tag_536\n      swap2\n        /* \"contracts/Gauge.sol\":8902:8947  abi.encodeWithSelector(0xa9059cbb, to, value) */\n      swap1\n        /* \"contracts/Gauge.sol\":8891:8948  token.call(abi.encodeWithSelector(0xa9059cbb, to, value)) */\n      tag_522\n      jump\t// in\n    tag_536:\n      0x00\n      mload(0x40)\n      dup1\n      dup4\n      sub\n      dup2\n      0x00\n      dup7\n      gas\n      call\n      swap2\n      pop\n      pop\n      returndatasize\n      dup1\n      0x00\n      dup2\n      eq\n      tag_539\n      jumpi\n      mload(0x40)\n      swap2\n      pop\n      and(add(returndatasize, 0x3f), not(0x1f))\n      dup3\n      add\n      0x40\n      mstore\n      returndatasize\n      dup3\n      mstore\n      returndatasize\n      0x00\n      0x20\n      dup5\n      add\n      returndatacopy\n      jump(tag_538)\n    tag_539:\n      0x60\n      swap2\n      pop\n    tag_538:\n      pop\n        /* \"contracts/Gauge.sol\":8855:8948  (bool success, bytes memory data) = token.call(abi.encodeWithSelector(0xa9059cbb, to, value)) */\n      swap2\n      pop\n      swap2\n      pop\n        /* \"contracts/Gauge.sol\":8966:8973  success */\n      dup2\n        /* \"contracts/Gauge.sol\":8966:9023  success && (data.length == 0 || abi.decode(data, (bool))) */\n      dup1\n      iszero\n      tag_542\n      jumpi\n      pop\n        /* \"contracts/Gauge.sol\":8978:8989  data.length */\n      dup1\n      mload\n        /* \"contracts/Gauge.sol\":8978:8994  data.length == 0 */\n      iszero\n      dup1\n        /* \"contracts/Gauge.sol\":8978:9022  data.length == 0 || abi.decode(data, (bool)) */\n      tag_542\n      jumpi\n      pop\n        /* \"contracts/Gauge.sol\":9009:9013  data */\n      dup1\n        /* \"contracts/Gauge.sol\":8998:9022  abi.decode(data, (bool)) */\n      dup1\n      0x20\n      add\n      swap1\n      mload\n      dup2\n      add\n      swap1\n      tag_542\n      swap2\n      swap1\n      tag_529\n      jump\t// in\n    tag_542:\n        /* \"contracts/Gauge.sol\":8958:9059  require(success && (data.length == 0 || abi.decode(data, (bool))), 'TransferHelper: TRANSFER_FAILED') */\n      tag_543\n      jumpi\n      mload(0x40)\n      shl(0xe5, 0x461bcd)\n      dup2\n      mstore\n        /* \"#utility.yul\":8731:8733   */\n      0x20\n        /* \"contracts/Gauge.sol\":8958:9059  require(success && (data.length == 0 || abi.decode(data, (bool))), 'TransferHelper: TRANSFER_FAILED') */\n      0x04\n      dup3\n      add\n        /* \"#utility.yul\":8713:8734   */\n      mstore\n        /* \"#utility.yul\":8770:8772   */\n      0x1f\n        /* \"#utility.yul\":8750:8768   */\n      0x24\n      dup3\n      add\n        /* \"#utility.yul\":8743:8773   */\n      mstore\n        /* \"#utility.yul\":8809:8842   */\n      0x5472616e7366657248656c7065723a205452414e534645525f4641494c454400\n        /* \"#utility.yul\":8789:8807   */\n      0x44\n      dup3\n      add\n        /* \"#utility.yul\":8782:8843   */\n      mstore\n        /* \"#utility.yul\":8860:8878   */\n      0x64\n      add\n        /* \"contracts/Gauge.sol\":8958:9059  require(success && (data.length == 0 || abi.decode(data, (bool))), 'TransferHelper: TRANSFER_FAILED') */\n      tag_243\n        /* \"#utility.yul\":8529:8884   */\n      jump\n        /* \"contracts/Gauge.sol\":8958:9059  require(success && (data.length == 0 || abi.decode(data, (bool))), 'TransferHelper: TRANSFER_FAILED') */\n    tag_543:\n        /* \"contracts/Gauge.sol\":8779:9066  {... */\n      pop\n      pop\n        /* \"contracts/Gauge.sol\":8709:9066  function safeTransfer(address token, address to, uint value) internal {... */\n      pop\n      pop\n      pop\n      jump\t// out\n        /* \"contracts/Gauge.sol\":21110:21444  function _calcRewardPerToken(address token, uint timestamp1, uint timestamp0, uint supply, uint startTimestamp) internal view returns (uint, uint) {... */\n    tag_460:\n        /* \"contracts/Gauge.sol\":21245:21249  uint */\n      0x00\n        /* \"contracts/Gauge.sol\":21251:21255  uint */\n      dup1\n        /* \"contracts/Gauge.sol\":21267:21279  uint endTime */\n      0x00\n        /* \"contracts/Gauge.sol\":21282:21318  Math.max(timestamp1, startTimestamp) */\n      tag_547\n        /* \"contracts/Gauge.sol\":21291:21301  timestamp1 */\n      dup8\n        /* \"contracts/Gauge.sol\":21303:21317  startTimestamp */\n      dup6\n        /* \"contracts/Gauge.sol\":21282:21290  Math.max */\n      tag_210\n        /* \"contracts/Gauge.sol\":21282:21318  Math.max(timestamp1, startTimestamp) */\n      jump\t// in\n    tag_547:\n      sub(shl(0xa0, 0x01), 0x01)\n        /* \"contracts/Gauge.sol\":21388:21405  rewardRate[token] */\n      dup10\n      and\n      0x00\n      swap1\n      dup2\n      mstore\n        /* \"contracts/Gauge.sol\":21388:21398  rewardRate */\n      0x03\n        /* \"contracts/Gauge.sol\":21388:21405  rewardRate[token] */\n      0x20\n      mstore\n      0x40\n      swap1\n      keccak256\n      sload\n        /* \"contracts/Gauge.sol\":21267:21318  uint endTime = Math.max(timestamp1, startTimestamp) */\n      swap1\n      swap2\n      pop\n        /* \"contracts/Gauge.sol\":21420:21426  supply */\n      dup6\n      swap1\n        /* \"contracts/Gauge.sol\":10500:10508  10 ** 18 */\n      0x0de0b6b3a7640000\n      swap1\n        /* \"contracts/Gauge.sol\":21348:21384  Math.max(timestamp0, startTimestamp) */\n      tag_548\n        /* \"contracts/Gauge.sol\":21357:21367  timestamp0 */\n      dup10\n        /* \"contracts/Gauge.sol\":21369:21383  startTimestamp */\n      dup9\n        /* \"contracts/Gauge.sol\":21348:21356  Math.max */\n      tag_210\n        /* \"contracts/Gauge.sol\":21348:21384  Math.max(timestamp0, startTimestamp) */\n      jump\t// in\n    tag_548:\n        /* \"contracts/Gauge.sol\":21338:21384  endTime - Math.max(timestamp0, startTimestamp) */\n      tag_549\n      swap1\n        /* \"contracts/Gauge.sol\":21338:21345  endTime */\n      dup6\n        /* \"contracts/Gauge.sol\":21338:21384  endTime - Math.max(timestamp0, startTimestamp) */\n      tag_192\n      jump\t// in\n    tag_549:\n        /* \"contracts/Gauge.sol\":21337:21405  (endTime - Math.max(timestamp0, startTimestamp)) * rewardRate[token] */\n      tag_550\n      swap2\n      swap1\n      tag_226\n      jump\t// in\n    tag_550:\n        /* \"contracts/Gauge.sol\":21337:21417  (endTime - Math.max(timestamp0, startTimestamp)) * rewardRate[token] * PRECISION */\n      tag_551\n      swap2\n      swap1\n      tag_226\n      jump\t// in\n    tag_551:\n        /* \"contracts/Gauge.sol\":21337:21426  (endTime - Math.max(timestamp0, startTimestamp)) * rewardRate[token] * PRECISION / supply */\n      tag_552\n      swap2\n      swap1\n      tag_201\n      jump\t// in\n    tag_552:\n        /* \"contracts/Gauge.sol\":21328:21437  return (((endTime - Math.max(timestamp0, startTimestamp)) * rewardRate[token] * PRECISION / supply), endTime) */\n      swap9\n        /* \"contracts/Gauge.sol\":21429:21436  endTime */\n      swap1\n      swap8\n      pop\n        /* \"contracts/Gauge.sol\":21110:21444  function _calcRewardPerToken(address token, uint timestamp1, uint timestamp0, uint supply, uint startTimestamp) internal view returns (uint, uint) {... */\n      swap6\n      pop\n      pop\n      pop\n      pop\n      pop\n      pop\n      jump\t// out\n        /* \"contracts/Gauge.sol\":17212:17475  function _safeTransferFromToken(address token, uint256 _amount) private {... */\n    tag_472:\n        /* \"contracts/Gauge.sol\":17308:17346  IERC20(token).balanceOf(address(this)) */\n      mload(0x40)\n      shl(0xe0, 0x70a08231)\n      dup2\n      mstore\n        /* \"contracts/Gauge.sol\":17340:17344  this */\n      address\n        /* \"contracts/Gauge.sol\":17308:17346  IERC20(token).balanceOf(address(this)) */\n      0x04\n      dup3\n      add\n        /* \"#utility.yul\":3413:3464   */\n      mstore\n        /* \"contracts/Gauge.sol\":17294:17305  uint256 bal */\n      0x00\n      swap1\n      sub(shl(0xa0, 0x01), 0x01)\n        /* \"contracts/Gauge.sol\":17308:17331  IERC20(token).balanceOf */\n      dup5\n      and\n      swap1\n      0x70a08231\n      swap1\n        /* \"#utility.yul\":3386:3404   */\n      0x24\n      add\n        /* \"contracts/Gauge.sol\":17308:17346  IERC20(token).balanceOf(address(this)) */\n      0x20\n      mload(0x40)\n      dup1\n      dup4\n      sub\n      dup2\n      dup7\n      gas\n      staticcall\n      iszero\n      dup1\n      iszero\n      tag_556\n      jumpi\n      returndatasize\n      0x00\n      dup1\n      returndatacopy\n      revert(0x00, returndatasize)\n    tag_556:\n      pop\n      pop\n      pop\n      pop\n      mload(0x40)\n      returndatasize\n      not(0x1f)\n      0x1f\n      dup3\n      add\n      and\n      dup3\n      add\n      dup1\n      0x40\n      mstore\n      pop\n      dup2\n      add\n      swap1\n      tag_557\n      swap2\n      swap1\n      tag_329\n      jump\t// in\n    tag_557:\n        /* \"contracts/Gauge.sol\":17294:17346  uint256 bal = IERC20(token).balanceOf(address(this)) */\n      swap1\n      pop\n        /* \"contracts/Gauge.sol\":17366:17373  _amount */\n      dup2\n        /* \"contracts/Gauge.sol\":17360:17363  bal */\n      dup2\n        /* \"contracts/Gauge.sol\":17360:17373  bal < _amount */\n      lt\n        /* \"contracts/Gauge.sol\":17356:17469  if (bal < _amount) {... */\n      iszero\n      tag_559\n      jumpi\n        /* \"contracts/Gauge.sol\":17389:17458  TransferHelper.safeTransferFrom(token, boost, address(this), _amount) */\n      tag_559\n        /* \"contracts/Gauge.sol\":17421:17426  token */\n      dup4\n        /* \"contracts/Gauge.sol\":17428:17433  boost */\n      immutable(\"0x8e831a88d8106460d1544aa376ec6155091b50c6145ad03273db7938ca17c5b1\")\n        /* \"contracts/Gauge.sol\":17443:17447  this */\n      address\n        /* \"contracts/Gauge.sol\":17450:17457  _amount */\n      dup6\n        /* \"contracts/Gauge.sol\":17389:17420  TransferHelper.safeTransferFrom */\n      tag_362\n        /* \"contracts/Gauge.sol\":17389:17458  TransferHelper.safeTransferFrom(token, boost, address(this), _amount) */\n      jump\t// in\n    tag_559:\n        /* \"contracts/Gauge.sol\":17284:17475  {... */\n      pop\n        /* \"contracts/Gauge.sol\":17212:17475  function _safeTransferFromToken(address token, uint256 _amount) private {... */\n      pop\n      pop\n      jump\t// out\n        /* \"#utility.yul\":14:145   */\n    tag_560:\n      sub(shl(0xa0, 0x01), 0x01)\n        /* \"#utility.yul\":89:120   */\n      dup2\n      and\n        /* \"#utility.yul\":79:121   */\n      dup2\n      eq\n        /* \"#utility.yul\":69:139   */\n      tag_324\n      jumpi\n        /* \"#utility.yul\":135:136   */\n      0x00\n        /* \"#utility.yul\":132:133   */\n      dup1\n        /* \"#utility.yul\":125:137   */\n      revert\n        /* \"#utility.yul\":150:284   */\n    tag_561:\n        /* \"#utility.yul\":218:238   */\n      dup1\n      calldataload\n        /* \"#utility.yul\":247:278   */\n      tag_568\n        /* \"#utility.yul\":218:238   */\n      dup2\n        /* \"#utility.yul\":247:278   */\n      tag_560\n      jump\t// in\n    tag_568:\n        /* \"#utility.yul\":150:284   */\n      swap2\n      swap1\n      pop\n      jump\t// out\n        /* \"#utility.yul\":289:604   */\n    tag_49:\n        /* \"#utility.yul\":357:363   */\n      0x00\n        /* \"#utility.yul\":365:371   */\n      dup1\n        /* \"#utility.yul\":418:420   */\n      0x40\n        /* \"#utility.yul\":406:415   */\n      dup4\n        /* \"#utility.yul\":397:404   */\n      dup6\n        /* \"#utility.yul\":393:416   */\n      sub\n        /* \"#utility.yul\":389:421   */\n      slt\n        /* \"#utility.yul\":386:438   */\n      iszero\n      tag_570\n      jumpi\n        /* \"#utility.yul\":434:435   */\n      0x00\n        /* \"#utility.yul\":431:432   */\n      dup1\n        /* \"#utility.yul\":424:436   */\n      revert\n        /* \"#utility.yul\":386:438   */\n    tag_570:\n        /* \"#utility.yul\":473:482   */\n      dup3\n        /* \"#utility.yul\":460:483   */\n      calldataload\n        /* \"#utility.yul\":492:523   */\n      tag_571\n        /* \"#utility.yul\":517:522   */\n      dup2\n        /* \"#utility.yul\":492:523   */\n      tag_560\n      jump\t// in\n    tag_571:\n        /* \"#utility.yul\":542:547   */\n      swap5\n        /* \"#utility.yul\":594:596   */\n      0x20\n        /* \"#utility.yul\":579:597   */\n      swap4\n      swap1\n      swap4\n      add\n        /* \"#utility.yul\":566:598   */\n      calldataload\n      swap4\n      pop\n      pop\n      pop\n        /* \"#utility.yul\":289:604   */\n      jump\t// out\n        /* \"#utility.yul\":1044:1432   */\n    tag_67:\n        /* \"#utility.yul\":1112:1118   */\n      0x00\n        /* \"#utility.yul\":1120:1126   */\n      dup1\n        /* \"#utility.yul\":1173:1175   */\n      0x40\n        /* \"#utility.yul\":1161:1170   */\n      dup4\n        /* \"#utility.yul\":1152:1159   */\n      dup6\n        /* \"#utility.yul\":1148:1171   */\n      sub\n        /* \"#utility.yul\":1144:1176   */\n      slt\n        /* \"#utility.yul\":1141:1193   */\n      iszero\n      tag_575\n      jumpi\n        /* \"#utility.yul\":1189:1190   */\n      0x00\n        /* \"#utility.yul\":1186:1187   */\n      dup1\n        /* \"#utility.yul\":1179:1191   */\n      revert\n        /* \"#utility.yul\":1141:1193   */\n    tag_575:\n        /* \"#utility.yul\":1228:1237   */\n      dup3\n        /* \"#utility.yul\":1215:1238   */\n      calldataload\n        /* \"#utility.yul\":1247:1278   */\n      tag_576\n        /* \"#utility.yul\":1272:1277   */\n      dup2\n        /* \"#utility.yul\":1247:1278   */\n      tag_560\n      jump\t// in\n    tag_576:\n        /* \"#utility.yul\":1297:1302   */\n      swap2\n      pop\n        /* \"#utility.yul\":1354:1356   */\n      0x20\n        /* \"#utility.yul\":1339:1357   */\n      dup4\n      add\n        /* \"#utility.yul\":1326:1358   */\n      calldataload\n        /* \"#utility.yul\":1367:1400   */\n      tag_577\n        /* \"#utility.yul\":1326:1358   */\n      dup2\n        /* \"#utility.yul\":1367:1400   */\n      tag_560\n      jump\t// in\n    tag_577:\n        /* \"#utility.yul\":1419:1426   */\n      dup1\n        /* \"#utility.yul\":1409:1426   */\n      swap2\n      pop\n      pop\n        /* \"#utility.yul\":1044:1432   */\n      swap3\n      pop\n      swap3\n      swap1\n      pop\n      jump\t// out\n        /* \"#utility.yul\":1437:1684   */\n    tag_72:\n        /* \"#utility.yul\":1496:1502   */\n      0x00\n        /* \"#utility.yul\":1549:1551   */\n      0x20\n        /* \"#utility.yul\":1537:1546   */\n      dup3\n        /* \"#utility.yul\":1528:1535   */\n      dup5\n        /* \"#utility.yul\":1524:1547   */\n      sub\n        /* \"#utility.yul\":1520:1552   */\n      slt\n        /* \"#utility.yul\":1517:1569   */\n      iszero\n      tag_579\n      jumpi\n        /* \"#utility.yul\":1565:1566   */\n      0x00\n        /* \"#utility.yul\":1562:1563   */\n      dup1\n        /* \"#utility.yul\":1555:1567   */\n      revert\n        /* \"#utility.yul\":1517:1569   */\n    tag_579:\n        /* \"#utility.yul\":1604:1613   */\n      dup2\n        /* \"#utility.yul\":1591:1614   */\n      calldataload\n        /* \"#utility.yul\":1623:1654   */\n      tag_297\n        /* \"#utility.yul\":1648:1653   */\n      dup2\n        /* \"#utility.yul\":1623:1654   */\n      tag_560\n      jump\t// in\n        /* \"#utility.yul\":1689:1869   */\n    tag_81:\n        /* \"#utility.yul\":1748:1754   */\n      0x00\n        /* \"#utility.yul\":1801:1803   */\n      0x20\n        /* \"#utility.yul\":1789:1798   */\n      dup3\n        /* \"#utility.yul\":1780:1787   */\n      dup5\n        /* \"#utility.yul\":1776:1799   */\n      sub\n        /* \"#utility.yul\":1772:1804   */\n      slt\n        /* \"#utility.yul\":1769:1821   */\n      iszero\n      tag_582\n      jumpi\n        /* \"#utility.yul\":1817:1818   */\n      0x00\n        /* \"#utility.yul\":1814:1815   */\n      dup1\n        /* \"#utility.yul\":1807:1819   */\n      revert\n        /* \"#utility.yul\":1769:1821   */\n    tag_582:\n      pop\n        /* \"#utility.yul\":1840:1863   */\n      calldataload\n      swap2\n        /* \"#utility.yul\":1689:1869   */\n      swap1\n      pop\n      jump\t// out\n        /* \"#utility.yul\":1874:2001   */\n    tag_562:\n        /* \"#utility.yul\":1935:1945   */\n      0x4e487b71\n        /* \"#utility.yul\":1930:1933   */\n      0xe0\n        /* \"#utility.yul\":1926:1946   */\n      shl\n        /* \"#utility.yul\":1923:1924   */\n      0x00\n        /* \"#utility.yul\":1916:1947   */\n      mstore\n        /* \"#utility.yul\":1966:1970   */\n      0x41\n        /* \"#utility.yul\":1963:1964   */\n      0x04\n        /* \"#utility.yul\":1956:1971   */\n      mstore\n        /* \"#utility.yul\":1990:1994   */\n      0x24\n        /* \"#utility.yul\":1987:1988   */\n      0x00\n        /* \"#utility.yul\":1980:1995   */\n      revert\n        /* \"#utility.yul\":2006:3262   */\n    tag_85:\n        /* \"#utility.yul\":2099:2105   */\n      0x00\n        /* \"#utility.yul\":2107:2113   */\n      dup1\n        /* \"#utility.yul\":2160:2162   */\n      0x40\n        /* \"#utility.yul\":2148:2157   */\n      dup4\n        /* \"#utility.yul\":2139:2146   */\n      dup6\n        /* \"#utility.yul\":2135:2158   */\n      sub\n        /* \"#utility.yul\":2131:2163   */\n      slt\n        /* \"#utility.yul\":2128:2180   */\n      iszero\n      tag_585\n      jumpi\n        /* \"#utility.yul\":2176:2177   */\n      0x00\n        /* \"#utility.yul\":2173:2174   */\n      dup1\n        /* \"#utility.yul\":2166:2178   */\n      revert\n        /* \"#utility.yul\":2128:2180   */\n    tag_585:\n        /* \"#utility.yul\":2215:2224   */\n      dup3\n        /* \"#utility.yul\":2202:2225   */\n      calldataload\n        /* \"#utility.yul\":2234:2265   */\n      tag_586\n        /* \"#utility.yul\":2259:2264   */\n      dup2\n        /* \"#utility.yul\":2234:2265   */\n      tag_560\n      jump\t// in\n    tag_586:\n        /* \"#utility.yul\":2284:2289   */\n      swap2\n      pop\n        /* \"#utility.yul\":2308:2310   */\n      0x20\n        /* \"#utility.yul\":2346:2364   */\n      dup4\n      dup2\n      add\n        /* \"#utility.yul\":2333:2365   */\n      calldataload\n        /* \"#utility.yul\":2384:2402   */\n      0xffffffffffffffff\n        /* \"#utility.yul\":2414:2428   */\n      dup1\n      dup3\n      gt\n        /* \"#utility.yul\":2411:2445   */\n      iszero\n      tag_587\n      jumpi\n        /* \"#utility.yul\":2441:2442   */\n      0x00\n        /* \"#utility.yul\":2438:2439   */\n      dup1\n        /* \"#utility.yul\":2431:2443   */\n      revert\n        /* \"#utility.yul\":2411:2445   */\n    tag_587:\n        /* \"#utility.yul\":2479:2485   */\n      dup2\n        /* \"#utility.yul\":2468:2477   */\n      dup7\n        /* \"#utility.yul\":2464:2486   */\n      add\n        /* \"#utility.yul\":2454:2486   */\n      swap2\n      pop\n        /* \"#utility.yul\":2524:2531   */\n      dup7\n        /* \"#utility.yul\":2517:2521   */\n      0x1f\n        /* \"#utility.yul\":2513:2515   */\n      dup4\n        /* \"#utility.yul\":2509:2522   */\n      add\n        /* \"#utility.yul\":2505:2532   */\n      slt\n        /* \"#utility.yul\":2495:2550   */\n      tag_588\n      jumpi\n        /* \"#utility.yul\":2546:2547   */\n      0x00\n        /* \"#utility.yul\":2543:2544   */\n      dup1\n        /* \"#utility.yul\":2536:2548   */\n      revert\n        /* \"#utility.yul\":2495:2550   */\n    tag_588:\n        /* \"#utility.yul\":2582:2584   */\n      dup2\n        /* \"#utility.yul\":2569:2585   */\n      calldataload\n        /* \"#utility.yul\":2604:2606   */\n      dup2\n        /* \"#utility.yul\":2600:2602   */\n      dup2\n        /* \"#utility.yul\":2597:2607   */\n      gt\n        /* \"#utility.yul\":2594:2630   */\n      iszero\n      tag_590\n      jumpi\n        /* \"#utility.yul\":2610:2628   */\n      tag_590\n      tag_562\n      jump\t// in\n    tag_590:\n        /* \"#utility.yul\":2656:2658   */\n      dup1\n        /* \"#utility.yul\":2653:2654   */\n      0x05\n        /* \"#utility.yul\":2649:2659   */\n      shl\n        /* \"#utility.yul\":2688:2690   */\n      0x40\n        /* \"#utility.yul\":2682:2691   */\n      mload\n        /* \"#utility.yul\":2751:2753   */\n      0x1f\n        /* \"#utility.yul\":2747:2754   */\n      not\n        /* \"#utility.yul\":2742:2744   */\n      0x3f\n        /* \"#utility.yul\":2738:2740   */\n      dup4\n        /* \"#utility.yul\":2734:2745   */\n      add\n        /* \"#utility.yul\":2730:2755   */\n      and\n        /* \"#utility.yul\":2722:2728   */\n      dup2\n        /* \"#utility.yul\":2718:2756   */\n      add\n        /* \"#utility.yul\":2806:2812   */\n      dup2\n        /* \"#utility.yul\":2794:2804   */\n      dup2\n        /* \"#utility.yul\":2791:2813   */\n      lt\n        /* \"#utility.yul\":2786:2788   */\n      dup6\n        /* \"#utility.yul\":2774:2784   */\n      dup3\n        /* \"#utility.yul\":2771:2789   */\n      gt\n        /* \"#utility.yul\":2768:2814   */\n      or\n        /* \"#utility.yul\":2765:2837   */\n      iszero\n      tag_592\n      jumpi\n        /* \"#utility.yul\":2817:2835   */\n      tag_592\n      tag_562\n      jump\t// in\n    tag_592:\n        /* \"#utility.yul\":2853:2855   */\n      0x40\n        /* \"#utility.yul\":2846:2868   */\n      mstore\n        /* \"#utility.yul\":2903:2921   */\n      swap2\n      dup3\n      mstore\n        /* \"#utility.yul\":2937:2952   */\n      dup5\n      dup3\n      add\n      swap3\n      pop\n        /* \"#utility.yul\":2979:2990   */\n      dup4\n      dup2\n      add\n        /* \"#utility.yul\":2975:2995   */\n      dup6\n      add\n      swap2\n        /* \"#utility.yul\":3007:3026   */\n      dup10\n      dup4\n      gt\n        /* \"#utility.yul\":3004:3043   */\n      iszero\n      tag_593\n      jumpi\n        /* \"#utility.yul\":3039:3040   */\n      0x00\n        /* \"#utility.yul\":3036:3037   */\n      dup1\n        /* \"#utility.yul\":3029:3041   */\n      revert\n        /* \"#utility.yul\":3004:3043   */\n    tag_593:\n        /* \"#utility.yul\":3063:3074   */\n      swap4\n      dup6\n      add\n      swap4\n        /* \"#utility.yul\":3083:3231   */\n    tag_594:\n        /* \"#utility.yul\":3099:3105   */\n      dup3\n        /* \"#utility.yul\":3094:3097   */\n      dup6\n        /* \"#utility.yul\":3091:3106   */\n      lt\n        /* \"#utility.yul\":3083:3231   */\n      iszero\n      tag_596\n      jumpi\n        /* \"#utility.yul\":3165:3188   */\n      tag_597\n        /* \"#utility.yul\":3184:3187   */\n      dup6\n        /* \"#utility.yul\":3165:3188   */\n      tag_561\n      jump\t// in\n    tag_597:\n        /* \"#utility.yul\":3153:3189   */\n      dup5\n      mstore\n        /* \"#utility.yul\":3116:3128   */\n      swap4\n      dup6\n      add\n      swap4\n        /* \"#utility.yul\":3209:3221   */\n      swap3\n      dup6\n      add\n      swap3\n        /* \"#utility.yul\":3083:3231   */\n      jump(tag_594)\n    tag_596:\n        /* \"#utility.yul\":3250:3256   */\n      dup1\n        /* \"#utility.yul\":3240:3256   */\n      swap7\n      pop\n      pop\n      pop\n      pop\n      pop\n      pop\n      pop\n        /* \"#utility.yul\":2006:3262   */\n      swap3\n      pop\n      swap3\n      swap1\n      pop\n      jump\t// out\n        /* \"#utility.yul\":3667:3915   */\n    tag_158:\n        /* \"#utility.yul\":3735:3741   */\n      0x00\n        /* \"#utility.yul\":3743:3749   */\n      dup1\n        /* \"#utility.yul\":3796:3798   */\n      0x40\n        /* \"#utility.yul\":3784:3793   */\n      dup4\n        /* \"#utility.yul\":3775:3782   */\n      dup6\n        /* \"#utility.yul\":3771:3794   */\n      sub\n        /* \"#utility.yul\":3767:3799   */\n      slt\n        /* \"#utility.yul\":3764:3816   */\n      iszero\n      tag_601\n      jumpi\n        /* \"#utility.yul\":3812:3813   */\n      0x00\n        /* \"#utility.yul\":3809:3810   */\n      dup1\n        /* \"#utility.yul\":3802:3814   */\n      revert\n        /* \"#utility.yul\":3764:3816   */\n    tag_601:\n      pop\n      pop\n        /* \"#utility.yul\":3835:3858   */\n      dup1\n      calldataload\n      swap3\n        /* \"#utility.yul\":3905:3907   */\n      0x20\n        /* \"#utility.yul\":3890:3908   */\n      swap1\n      swap2\n      add\n        /* \"#utility.yul\":3877:3909   */\n      calldataload\n      swap2\n      pop\n        /* \"#utility.yul\":3667:3915   */\n      jump\t// out\n        /* \"#utility.yul\":3920:4047   */\n    tag_563:\n        /* \"#utility.yul\":3981:3991   */\n      0x4e487b71\n        /* \"#utility.yul\":3976:3979   */\n      0xe0\n        /* \"#utility.yul\":3972:3992   */\n      shl\n        /* \"#utility.yul\":3969:3970   */\n      0x00\n        /* \"#utility.yul\":3962:3993   */\n      mstore\n        /* \"#utility.yul\":4012:4016   */\n      0x11\n        /* \"#utility.yul\":4009:4010   */\n      0x04\n        /* \"#utility.yul\":4002:4017   */\n      mstore\n        /* \"#utility.yul\":4036:4040   */\n      0x24\n        /* \"#utility.yul\":4033:4034   */\n      0x00\n        /* \"#utility.yul\":4026:4041   */\n      revert\n        /* \"#utility.yul\":4052:4177   */\n    tag_192:\n        /* \"#utility.yul\":4092:4096   */\n      0x00\n        /* \"#utility.yul\":4120:4121   */\n      dup3\n        /* \"#utility.yul\":4117:4118   */\n      dup3\n        /* \"#utility.yul\":4114:4122   */\n      lt\n        /* \"#utility.yul\":4111:4145   */\n      iszero\n      tag_605\n      jumpi\n        /* \"#utility.yul\":4125:4143   */\n      tag_605\n      tag_563\n      jump\t// in\n    tag_605:\n      pop\n        /* \"#utility.yul\":4162:4171   */\n      sub\n      swap1\n        /* \"#utility.yul\":4052:4177   */\n      jump\t// out\n        /* \"#utility.yul\":4182:4399   */\n    tag_201:\n        /* \"#utility.yul\":4222:4223   */\n      0x00\n        /* \"#utility.yul\":4248:4249   */\n      dup3\n        /* \"#utility.yul\":4238:4370   */\n      tag_607\n      jumpi\n        /* \"#utility.yul\":4292:4302   */\n      0x4e487b71\n        /* \"#utility.yul\":4287:4290   */\n      0xe0\n        /* \"#utility.yul\":4283:4303   */\n      shl\n        /* \"#utility.yul\":4280:4281   */\n      0x00\n        /* \"#utility.yul\":4273:4304   */\n      mstore\n        /* \"#utility.yul\":4327:4331   */\n      0x12\n        /* \"#utility.yul\":4324:4325   */\n      0x04\n        /* \"#utility.yul\":4317:4332   */\n      mstore\n        /* \"#utility.yul\":4355:4359   */\n      0x24\n        /* \"#utility.yul\":4352:4353   */\n      0x00\n        /* \"#utility.yul\":4345:4360   */\n      revert\n        /* \"#utility.yul\":4238:4370   */\n    tag_607:\n      pop\n        /* \"#utility.yul\":4384:4393   */\n      div\n      swap1\n        /* \"#utility.yul\":4182:4399   */\n      jump\t// out\n        /* \"#utility.yul\":4404:4532   */\n    tag_221:\n        /* \"#utility.yul\":4444:4447   */\n      0x00\n        /* \"#utility.yul\":4475:4476   */\n      dup3\n        /* \"#utility.yul\":4471:4477   */\n      not\n        /* \"#utility.yul\":4468:4469   */\n      dup3\n        /* \"#utility.yul\":4465:4478   */\n      gt\n        /* \"#utility.yul\":4462:4501   */\n      iszero\n      tag_610\n      jumpi\n        /* \"#utility.yul\":4481:4499   */\n      tag_610\n      tag_563\n      jump\t// in\n    tag_610:\n      pop\n        /* \"#utility.yul\":4517:4526   */\n      add\n      swap1\n        /* \"#utility.yul\":4404:4532   */\n      jump\t// out\n        /* \"#utility.yul\":4537:4705   */\n    tag_226:\n        /* \"#utility.yul\":4577:4584   */\n      0x00\n        /* \"#utility.yul\":4643:4644   */\n      dup2\n        /* \"#utility.yul\":4639:4640   */\n      0x00\n        /* \"#utility.yul\":4635:4641   */\n      not\n        /* \"#utility.yul\":4631:4645   */\n      div\n        /* \"#utility.yul\":4628:4629   */\n      dup4\n        /* \"#utility.yul\":4625:4646   */\n      gt\n        /* \"#utility.yul\":4620:4621   */\n      dup3\n        /* \"#utility.yul\":4613:4622   */\n      iszero\n        /* \"#utility.yul\":4606:4623   */\n      iszero\n        /* \"#utility.yul\":4602:4647   */\n      and\n        /* \"#utility.yul\":4599:4670   */\n      iszero\n      tag_613\n      jumpi\n        /* \"#utility.yul\":4650:4668   */\n      tag_613\n      tag_563\n      jump\t// in\n    tag_613:\n      pop\n        /* \"#utility.yul\":4690:4699   */\n      mul\n      swap1\n        /* \"#utility.yul\":4537:4705   */\n      jump\t// out\n        /* \"#utility.yul\":4710:4845   */\n    tag_230:\n        /* \"#utility.yul\":4749:4752   */\n      0x00\n      not(0x00)\n        /* \"#utility.yul\":4770:4787   */\n      dup3\n      eq\n        /* \"#utility.yul\":4767:4810   */\n      iszero\n      tag_616\n      jumpi\n        /* \"#utility.yul\":4790:4808   */\n      tag_616\n      tag_563\n      jump\t// in\n    tag_616:\n      pop\n        /* \"#utility.yul\":4837:4838   */\n      0x01\n        /* \"#utility.yul\":4826:4839   */\n      add\n      swap1\n        /* \"#utility.yul\":4710:4845   */\n      jump\t// out\n        /* \"#utility.yul\":4850:5205   */\n    tag_244:\n        /* \"#utility.yul\":5052:5054   */\n      0x20\n        /* \"#utility.yul\":5034:5055   */\n      dup1\n      dup3\n      mstore\n        /* \"#utility.yul\":5091:5093   */\n      0x1f\n        /* \"#utility.yul\":5071:5089   */\n      swap1\n      dup3\n      add\n        /* \"#utility.yul\":5064:5094   */\n      mstore\n        /* \"#utility.yul\":5130:5163   */\n      0x5265656e7472616e637947756172643a207265656e7472616e742063616c6c00\n        /* \"#utility.yul\":5125:5127   */\n      0x40\n        /* \"#utility.yul\":5110:5128   */\n      dup3\n      add\n        /* \"#utility.yul\":5103:5164   */\n      mstore\n        /* \"#utility.yul\":5196:5198   */\n      0x60\n        /* \"#utility.yul\":5181:5199   */\n      add\n      swap1\n        /* \"#utility.yul\":4850:5205   */\n      jump\t// out\n        /* \"#utility.yul\":5210:5337   */\n    tag_258:\n        /* \"#utility.yul\":5271:5281   */\n      0x4e487b71\n        /* \"#utility.yul\":5266:5269   */\n      0xe0\n        /* \"#utility.yul\":5262:5282   */\n      shl\n        /* \"#utility.yul\":5259:5260   */\n      0x00\n        /* \"#utility.yul\":5252:5283   */\n      mstore\n        /* \"#utility.yul\":5302:5306   */\n      0x32\n        /* \"#utility.yul\":5299:5300   */\n      0x04\n        /* \"#utility.yul\":5292:5307   */\n      mstore\n        /* \"#utility.yul\":5326:5330   */\n      0x24\n        /* \"#utility.yul\":5323:5324   */\n      0x00\n        /* \"#utility.yul\":5316:5331   */\n      revert\n        /* \"#utility.yul\":5678:5862   */\n    tag_329:\n        /* \"#utility.yul\":5748:5754   */\n      0x00\n        /* \"#utility.yul\":5801:5803   */\n      0x20\n        /* \"#utility.yul\":5789:5798   */\n      dup3\n        /* \"#utility.yul\":5780:5787   */\n      dup5\n        /* \"#utility.yul\":5776:5799   */\n      sub\n        /* \"#utility.yul\":5772:5804   */\n      slt\n        /* \"#utility.yul\":5769:5821   */\n      iszero\n      tag_621\n      jumpi\n        /* \"#utility.yul\":5817:5818   */\n      0x00\n        /* \"#utility.yul\":5814:5815   */\n      dup1\n        /* \"#utility.yul\":5807:5819   */\n      revert\n        /* \"#utility.yul\":5769:5821   */\n    tag_621:\n      pop\n        /* \"#utility.yul\":5840:5856   */\n      mload\n      swap2\n        /* \"#utility.yul\":5678:5862   */\n      swap1\n      pop\n      jump\t// out\n        /* \"#utility.yul\":5867:6118   */\n    tag_341:\n        /* \"#utility.yul\":5937:5943   */\n      0x00\n        /* \"#utility.yul\":5990:5992   */\n      0x20\n        /* \"#utility.yul\":5978:5987   */\n      dup3\n        /* \"#utility.yul\":5969:5976   */\n      dup5\n        /* \"#utility.yul\":5965:5988   */\n      sub\n        /* \"#utility.yul\":5961:5993   */\n      slt\n        /* \"#utility.yul\":5958:6010   */\n      iszero\n      tag_623\n      jumpi\n        /* \"#utility.yul\":6006:6007   */\n      0x00\n        /* \"#utility.yul\":6003:6004   */\n      dup1\n        /* \"#utility.yul\":5996:6008   */\n      revert\n        /* \"#utility.yul\":5958:6010   */\n    tag_623:\n        /* \"#utility.yul\":6038:6047   */\n      dup2\n        /* \"#utility.yul\":6032:6048   */\n      mload\n        /* \"#utility.yul\":6057:6088   */\n      tag_297\n        /* \"#utility.yul\":6082:6087   */\n      dup2\n        /* \"#utility.yul\":6057:6088   */\n      tag_560\n      jump\t// in\n        /* \"#utility.yul\":7132:7558   */\n    tag_522:\n        /* \"#utility.yul\":7261:7264   */\n      0x00\n        /* \"#utility.yul\":7299:7305   */\n      dup3\n        /* \"#utility.yul\":7293:7306   */\n      mload\n        /* \"#utility.yul\":7324:7325   */\n      0x00\n        /* \"#utility.yul\":7334:7463   */\n    tag_629:\n        /* \"#utility.yul\":7348:7354   */\n      dup2\n        /* \"#utility.yul\":7345:7346   */\n      dup2\n        /* \"#utility.yul\":7342:7355   */\n      lt\n        /* \"#utility.yul\":7334:7463   */\n      iszero\n      tag_631\n      jumpi\n        /* \"#utility.yul\":7446:7450   */\n      0x20\n        /* \"#utility.yul\":7430:7444   */\n      dup2\n      dup7\n      add\n        /* \"#utility.yul\":7426:7451   */\n      dup2\n      add\n        /* \"#utility.yul\":7420:7452   */\n      mload\n        /* \"#utility.yul\":7407:7418   */\n      dup6\n      dup4\n      add\n        /* \"#utility.yul\":7400:7453   */\n      mstore\n        /* \"#utility.yul\":7363:7375   */\n      add\n        /* \"#utility.yul\":7334:7463   */\n      jump(tag_629)\n    tag_631:\n        /* \"#utility.yul\":7481:7487   */\n      dup2\n        /* \"#utility.yul\":7478:7479   */\n      dup2\n        /* \"#utility.yul\":7475:7488   */\n      gt\n        /* \"#utility.yul\":7472:7520   */\n      iszero\n      tag_632\n      jumpi\n        /* \"#utility.yul\":7516:7517   */\n      0x00\n        /* \"#utility.yul\":7507:7513   */\n      dup3\n        /* \"#utility.yul\":7502:7505   */\n      dup6\n        /* \"#utility.yul\":7498:7514   */\n      add\n        /* \"#utility.yul\":7491:7518   */\n      mstore\n        /* \"#utility.yul\":7472:7520   */\n    tag_632:\n      pop\n        /* \"#utility.yul\":7536:7552   */\n      swap2\n      swap1\n      swap2\n      add\n      swap3\n        /* \"#utility.yul\":7132:7558   */\n      swap2\n      pop\n      pop\n      jump\t// out\n        /* \"#utility.yul\":7563:7840   */\n    tag_529:\n        /* \"#utility.yul\":7630:7636   */\n      0x00\n        /* \"#utility.yul\":7683:7685   */\n      0x20\n        /* \"#utility.yul\":7671:7680   */\n      dup3\n        /* \"#utility.yul\":7662:7669   */\n      dup5\n        /* \"#utility.yul\":7658:7681   */\n      sub\n        /* \"#utility.yul\":7654:7686   */\n      slt\n        /* \"#utility.yul\":7651:7703   */\n      iszero\n      tag_634\n      jumpi\n        /* \"#utility.yul\":7699:7700   */\n      0x00\n        /* \"#utility.yul\":7696:7697   */\n      dup1\n        /* \"#utility.yul\":7689:7701   */\n      revert\n        /* \"#utility.yul\":7651:7703   */\n    tag_634:\n        /* \"#utility.yul\":7731:7740   */\n      dup2\n        /* \"#utility.yul\":7725:7741   */\n      mload\n        /* \"#utility.yul\":7784:7789   */\n      dup1\n        /* \"#utility.yul\":7777:7790   */\n      iszero\n        /* \"#utility.yul\":7770:7791   */\n      iszero\n        /* \"#utility.yul\":7763:7768   */\n      dup2\n        /* \"#utility.yul\":7760:7792   */\n      eq\n        /* \"#utility.yul\":7750:7810   */\n      tag_297\n      jumpi\n        /* \"#utility.yul\":7806:7807   */\n      0x00\n        /* \"#utility.yul\":7803:7804   */\n      dup1\n        /* \"#utility.yul\":7796:7808   */\n      revert\n\n    auxdata: 0xa2646970667358221220b8a23569c7c60cea67a58e4dd23510a9833f982dfaa62254c59e7f6f8fd0b8e964736f6c634300080a0033\n}\n",
				"bytecode": {
					"linkReferences": {},
					"object": "60e06040523480156200001157600080fd5b5060405162002c9a38038062002c9a833981016040819052620000349162000074565b60016000556001600160a01b0392831660805290821660a0521660c052620000be565b80516001600160a01b03811681146200006f57600080fd5b919050565b6000806000606084860312156200008a57600080fd5b620000958462000057565b9250620000a56020850162000057565b9150620000b56040850162000057565b90509250925092565b60805160a05160c051612b35620001656000396000818161050401528181610ac101528181610b01015281816112aa0152818161140e015281816116550152818161177a01528181611bff01528181611d17015261278101526000818161039301528181611330015261158b01526000818161035401528181611009015281816111ab0152818161127a015281816113e6015281816115030152611b800152612b356000f3fe608060405234801561001057600080fd5b50600436106102275760003560e01c806376f4be3611610130578063d7da4bb0116100b8578063f301af421161007c578063f301af42146105bf578063f7412baf146105d2578063fc97a303146105f9578063fd31409814610619578063fdb483c71461062c57600080fd5b8063d7da4bb01461057f578063e2bbb15814610588578063e68863961461059b578063e8111a12146105a3578063f1229777146105ac57600080fd5b8063a66f42c0116100ff578063a66f42c0146104ff578063aa47965214610526578063b66503cf14610546578063c6f678bd14610559578063d35e25441461056c57600080fd5b806376f4be3614610499578063853828b6146104ac5780639ce43f90146104b4578063a495e5b5146104d457600080fd5b80633a4b66f1116101b35780635a45d052116101825780635a45d05214610413578063638634ee1461042657806363fb415b146104395780636fcfff451461045957806370a082311461047957600080fd5b80633a4b66f11461034f5780633b92eb231461038e5780633ca068b6146103b55780634d5ce038146103e057600080fd5b8063211dc32d116101fa578063211dc32d146102d4578063221ca18c146102e75780632ce9aead146103075780632e1a7d4d1461032757806331279d3d1461033c57600080fd5b806301316ddf1461022c5780630cdfebfa14610278578063115c6f39146102aa57806318160ddd146102cb575b600080fd5b61025e61023a3660046127d1565b60116020908152600092835260408084209091529082529020805460019091015482565b604080519283526020830191909152015b60405180910390f35b61025e6102863660046127d1565b600d6020908152600092835260408084209091529082529020805460019091015482565b6102bd6102b83660046127d1565b61063f565b60405190815260200161026f565b6102bd60095481565b6102bd6102e23660046127fd565b6107ac565b6102bd6102f5366004612836565b60036020526000908152604090205481565b6102bd610315366004612836565b60046020526000908152604090205481565b61033a610335366004612853565b610a3c565b005b61033a61034a366004612882565b610a73565b6103767f000000000000000000000000000000000000000000000000000000000000000081565b6040516001600160a01b03909116815260200161026f565b6103767f000000000000000000000000000000000000000000000000000000000000000081565b6102bd6103c33660046127fd565b600760209081526000928352604080842090915290825290205481565b6104036103ee366004612836565b600c6020526000908152604090205460ff1681565b604051901515815260200161026f565b61033a6104213660046127d1565b610e82565b6102bd610434366004612836565b504290565b6102bd610447366004612836565b60026020526000908152604090205481565b6102bd610467366004612836565b600e6020526000908152604090205481565b6102bd610487366004612836565b600a6020526000908152604090205481565b6102bd6104a7366004612853565b610eba565b61033a610fec565b6102bd6104c2366004612836565b60056020526000908152604090205481565b6102bd6104e23660046127fd565b600660209081526000928352604080842090915290825290205481565b6103767f000000000000000000000000000000000000000000000000000000000000000081565b6102bd610534366004612836565b60126020526000908152604090205481565b61033a6105543660046127d1565b611007565b61033a610567366004612853565b611192565b6102bd61057a366004612836565b611227565b6102bd60015481565b61033a61059636600461295c565b6114cc565b600b546102bd565b6102bd60105481565b6102bd6105ba366004612836565b611824565b6103766105cd366004612853565b6118cb565b61025e6105e0366004612853565b600f602052600090815260409020805460019091015482565b6102bd610607366004612836565b60086020526000908152604090205481565b61025e6106273660046127d1565b6118f5565b61033a61063a36600461295c565b611b14565b6001600160a01b0382166000908152600e6020526040812054806106675760009150506107a6565b6001600160a01b0384166000908152600d60205260408120849161068c600185612994565b815260200190815260200160002060000154116106b6576106ae600182612994565b9150506107a6565b6001600160a01b0384166000908152600d602090815260408083208380529091529020548310156106eb5760009150506107a6565b6000806106f9600184612994565b90505b818111156107a157600060026107128484612994565b61071c91906129ab565b6107269083612994565b6001600160a01b0388166000908152600d6020908152604080832084845282529182902082518084019093528054808452600190910154918301919091529192509087141561077b575093506107a692505050565b805187111561078c5781935061079a565b610797600183612994565b92505b50506106fc565b509150505b92915050565b6001600160a01b0380831660008181526006602090815260408083209486168352938152838220549282526011815283822082805290529182205482916107f291611db3565b6001600160a01b0384166000908152600e602052604090205490915061081c5760009150506107a6565b6000610828848361063f565b6001600160a01b0385166000908152600e60205260408120549192509061085190600190612994565b9050600060016108618484612994565b111561097057825b610874600184612994565b81101561096e576001600160a01b0387166000818152600d6020818152604080842086855280835281852082518084019093528054835260019081015483850152958552929091529282906108ca9086906129cd565b815260200190815260200160002060405180604001604052908160008201548152602001600182015481525050905060006109098b84600001516118f5565b509050600061091c8c84600001516118f5565b509050670de0b6b3a76400006109328383612994565b856020015161094191906129e5565b61094b91906129ab565b61095590876129cd565b955050505050808061096690612a04565b915050610869565b505b6001600160a01b0386166000908152600d602090815260408083208584528252808320815180830190925280548083526001909101549282019290925291906109ba908a906118f5565b506001600160a01b03808b166000908152600760209081526040808320938d1683529290522054909150670de0b6b3a7640000906109f9908390611db3565b610a028b611824565b610a0c9190612994565b8360200151610a1b91906129e5565b610a2591906129ab565b610a2f90846129cd565b9998505050505050505050565b336000908152600a6020526040812054821415610a655750336000908152600860205260409020545b610a6f8282611b14565b5050565b60026000541415610a9f5760405162461bcd60e51b8152600401610a9690612a1f565b60405180910390fd5b6002600055336001600160a01b0383161480610ae35750336001600160a01b037f000000000000000000000000000000000000000000000000000000000000000016145b610aec57600080fd5b6040516363453ae160e01b81523060048201527f00000000000000000000000000000000000000000000000000000000000000006001600160a01b0316906363453ae190602401600060405180830381600087803b158015610b4d57600080fd5b505af1158015610b61573d6000803e3d6000fd5b5050505060005b8151811015610dd957610b93828281518110610b8657610b86612a56565b6020026020010151611dca565b60056000858581518110610ba957610ba9612a56565b60200260200101516001600160a01b03166001600160a01b03168152602001908152602001600020600060046000878781518110610be957610be9612a56565b60200260200101516001600160a01b03166001600160a01b0316815260200190815260200160002060008491905055839190505550506000610c44838381518110610c3657610c36612a56565b6020026020010151856107ac565b90504260066000858581518110610c5d57610c5d612a56565b60200260200101516001600160a01b03166001600160a01b031681526020019081526020016000206000866001600160a01b03166001600160a01b031681526020019081526020016000208190555060056000848481518110610cc257610cc2612a56565b60200260200101516001600160a01b03166001600160a01b031681526020019081526020016000205460076000858581518110610d0157610d01612a56565b6020908102919091018101516001600160a01b039081168352828201939093526040918201600090812093891681529290529020558015610d6057610d60838381518110610d5157610d51612a56565b60200260200101518583611fa5565b828281518110610d7257610d72612a56565b60200260200101516001600160a01b0316336001600160a01b03167f9aa05b3d70a9e3e2f004f039648839560576334fb45c81f91b6db03ad9e2efc983604051610dbe91815260200190565b60405180910390a35080610dd181612a04565b915050610b68565b506001600160a01b0382166000908152600260205260408120546001805491928392610e06908490612994565b90915550610e15905083611227565b6001600160a01b0384166000908152600260205260408120829055600180549293508392909190610e479084906129cd565b90915550506001600160a01b038316600090815260026020526040902054610e70908490612039565b610e78612143565b5050600160005550565b610e8c82826121e8565b6001600160a01b03909316600090815260056020908152604080832060049092529091209390935590915550565b60105460009080610ece5750600092915050565b82600f6000610ede600185612994565b81526020019081526020016000206000015411610f0757610f00600182612994565b9392505050565b60008052600f6020527ff4803e074bd026baaf6ed2e288c9515f68c72fb7216eebdd7cae1718a53ec37554831015610f425750600092915050565b600080610f50600184612994565b90505b81811115610fe45760006002610f698484612994565b610f7391906129ab565b610f7d9083612994565b6000818152600f6020908152604091829020825180840190935280548084526001909101549183019190915291925090871415610fbe575095945050505050565b8051871115610fcf57819350610fdd565b610fda600183612994565b92505b5050610f53565b509392505050565b336000908152600a602052604090205461100590610a3c565b565b7f00000000000000000000000000000000000000000000000000000000000000006001600160a01b0316826001600160a01b031614156110745760405162461bcd60e51b81526020600482015260086024820152676e6f207374616b6560c01b6044820152606401610a96565b6001600160a01b03821660009081526003602052604090205461109d5761109d82600042612347565b6110a682611dca565b6001600160a01b038416600090815260056020908152604080832060048352818420949094559390925560038252828120849055600c909152205460ff1661114e576001600160a01b0382166000818152600c60205260408120805460ff19166001908117909155600b805491820181559091527f0175b7a638427703f0dbe7bb9bbf987a2551717b34e79f33b5b1008d1fa01db90180546001600160a01b03191690911790555b6040518181526001600160a01b0383169033907ff70d5c697de7ea828df48e5c4573cb2194c659f1901f70110c52b066dcf508269060200160405180910390a35050565b6040516370a0823160e01b8152336004820152611224907f00000000000000000000000000000000000000000000000000000000000000006001600160a01b0316906370a0823190602401602060405180830381865afa1580156111fa573d6000803e3d6000fd5b505050506040513d601f19601f8201168201806040525081019061121e9190612a6c565b826114cc565b50565b6001600160a01b038116600090815260086020908152604080832054600a90925282205482606461125983601e6129e5565b61126391906129ab565b6040516353e5642360e11b81526001600160a01b037f00000000000000000000000000000000000000000000000000000000000000008116600483015291925060009182917f00000000000000000000000000000000000000000000000000000000000000009091169063a7cac84690602401602060405180830381865afa1580156112f3573d6000803e3d6000fd5b505050506040513d601f19601f820116820180604052508101906113179190612a6c565b6040516331a9108f60e11b8152600481018790529091507f00000000000000000000000000000000000000000000000000000000000000006001600160a01b031690636352211e90602401602060405180830381865afa15801561137f573d6000803e3d6000fd5b505050506040513d601f19601f820116820180604052508101906113a39190612a85565b6001600160a01b0316876001600160a01b03161480156113c35750600081115b156114ae5760405163348c952d60e21b8152600481018690526001600160a01b037f0000000000000000000000000000000000000000000000000000000000000000811660248301527f0000000000000000000000000000000000000000000000000000000000000000169063d23254b490604401602060405180830381865afa158015611455573d6000803e3d6000fd5b505050506040513d601f19601f820116820180604052508101906114799190612a6c565b91506064818360095461148c91906129e5565b61149691906129ab565b6114a19060466129e5565b6114ab91906129ab565b91505b6114c16114bb83856129cd565b85612436565b979650505050505050565b600260005414156114ef5760405162461bcd60e51b8152600401610a9690612a1f565b6002600055816114fe57600080fd5b61152a7f0000000000000000000000000000000000000000000000000000000000000000333085612445565b816009600082825461153c91906129cd565b9091555050336000908152600a6020526040812080548492906115609084906129cd565b909155505080156116d2576040516331a9108f60e11b81526004810182905233906001600160a01b037f00000000000000000000000000000000000000000000000000000000000000001690636352211e90602401602060405180830381865afa1580156115d2573d6000803e3d6000fd5b505050506040513d601f19601f820116820180604052508101906115f69190612a85565b6001600160a01b03161461160957600080fd5b336000908152600860205260409020546116b25733600081815260086020526040908190208390555163698473e360e01b81526004810183905260248101919091526001600160a01b037f0000000000000000000000000000000000000000000000000000000000000000169063698473e390604401600060405180830381600087803b15801561169957600080fd5b505af11580156116ad573d6000803e3d6000fd5b505050505b3360009081526008602052604090205481146116cd57600080fd5b6116e4565b50336000908152600860205260409020545b336000908152600260205260408120546001805491928392611707908490612994565b90915550611716905033611227565b33600090815260026020526040812082905560018054929350839290919061173f9084906129cd565b9091555061174f90503382612039565b611757612143565b60405163530e389d60e11b815260048101839052336024820152604481018490527f00000000000000000000000000000000000000000000000000000000000000006001600160a01b03169063a61c713a90606401600060405180830381600087803b1580156117c657600080fd5b505af11580156117da573d6000803e3d6000fd5b505060408051858152602081018790523393507f90890809c654f11d6e72a28fa60149770a0d11ec6c92319d6ceb2bb0a4ea1a159250015b60405180910390a25050600160005550565b60006001546000141561184d57506001600160a01b031660009081526005602052604090205490565b6001546001600160a01b038316600090815260036020908152604080832054600490925290912054670de0b6b3a7640000919061188a9042612994565b61189491906129e5565b61189e91906129e5565b6118a891906129ab565b6001600160a01b0383166000908152600560205260409020546107a691906129cd565b600b81815481106118db57600080fd5b6000918252602090912001546001600160a01b0316905081565b6001600160a01b038216600090815260126020526040812054819080611922576000809250925050611b0d565b6001600160a01b03851660009081526011602052604081208591611947600185612994565b815260200190815260200160002060000154116119e4576001600160a01b038516600090815260116020526040812090611982600184612994565b81526020019081526020016000206001015460116000876001600160a01b03166001600160a01b0316815260200190815260200160002060006001846119c89190612994565b8152602001908152602001600020600001549250925050611b0d565b6001600160a01b0385166000908152601160209081526040808320838052909152902054841015611a1c576000809250925050611b0d565b600080611a2a600184612994565b90505b81811115611adc5760006002611a438484612994565b611a4d91906129ab565b611a579083612994565b6001600160a01b0389166000908152601160209081526040808320848452825291829020825180840190935280548084526001909101549183019190915291925090881415611ab657602081015190519096509450611b0d9350505050565b8051881115611ac757819350611ad5565b611ad2600183612994565b92505b5050611a2d565b506001600160a01b038616600090815260116020908152604080832093835292905220600181015490549093509150505b9250929050565b60026000541415611b375760405162461bcd60e51b8152600401610a9690612a1f565b60026000819055508160096000828254611b519190612994565b9091555050336000908152600a602052604081208054849290611b75908490612994565b90915550611ba690507f00000000000000000000000000000000000000000000000000000000000000003384612575565b8015611c6057336000908152600860205260409020548114611bc757600080fd5b33600081815260086020526040808220919091555163411b1f7760e01b81526004810183905260248101919091526001600160a01b037f0000000000000000000000000000000000000000000000000000000000000000169063411b1f7790604401600060405180830381600087803b158015611c4357600080fd5b505af1158015611c57573d6000803e3d6000fd5b50505050611c72565b50336000908152600860205260409020545b336000908152600260205260408120546001805491928392611c95908490612994565b90915550611ca4905033611227565b336000908152600260205260408120829055600180549293508392909190611ccd9084906129cd565b909155505033600081815260026020526040902054611cec9190612039565b611cf4612143565b604051633aa53b9160e21b815260048101839052336024820152604481018490527f00000000000000000000000000000000000000000000000000000000000000006001600160a01b03169063ea94ee4490606401600060405180830381600087803b158015611d6357600080fd5b505af1158015611d77573d6000803e3d6000fd5b505060408051858152602081018790523393507ff279e6a1f5e320cca91135676d9cb6e44ca8a08c0b88342bcdb1144f6511b568925001611812565b600081831015611dc35781610f00565b5090919050565b6001600160a01b038116600090815260046020908152604080832054600590925282205460105483929190611e025794909350915050565b6001600160a01b038516600090815260036020526040902054611e29579442945092505050565b6000611e3483610eba565b905060006001601054611e479190612994565b90506001611e558383612994565b1115611f2d57815b611e68600183612994565b811015611f2b576000818152600f60209081526040918290208251808401909352805483526001015490820181905215611f18576000600f81611eac8560016129cd565b8152602001908152602001600020604051806040016040529081600082015481526020016001820154815250509050600080611ef78c8460000151866000015187602001518d612690565b9092509050611f0682896129cd565b9750611f138c8983612347565b975050505b5080611f2381612a04565b915050611e5d565b505b6000818152600f60209081526040918290208251808401909352805483526001015490820181905215611f97576000611f7889428451611f6d908a611db3565b85602001518a612690565b509050611f8581866129cd565b9450611f92898642612347565b429550505b509196929550919350505050565b611faf8382612706565b6040516370a0823160e01b81523060048201526000906001600160a01b038516906370a0823190602401602060405180830381865afa158015611ff6573d6000803e3d6000fd5b505050506040513d601f19601f8201168201806040525081019061201a9190612a6c565b905080821115612028578091505b612033848484612575565b50505050565b6001600160a01b0382166000908152600e60205260409020544290801580159061209757506001600160a01b0384166000908152600d602052604081208391612083600185612994565b815260200190815260200160002060000154145b156120da576001600160a01b0384166000908152600d6020526040812084916120c1600185612994565b8152602081019190915260400160002060010155612033565b60408051808201825283815260208082018681526001600160a01b0388166000908152600d83528481208682529092529290209051815590516001918201556121249082906129cd565b6001600160a01b0385166000908152600e602052604090205550505050565b601054428115801590612175575080600f6000612161600186612994565b815260200190815260200160002060000154145b156121a657600154600f600060018561218e9190612994565b81526020810191909152604001600020600101555050565b6040805180820182528281526001805460208084019182526000878152600f90915293909320915182559151908201556121e19083906129cd565b6010555050565b6001600160a01b0382166000908152600460209081526040808320546005909252822054601054839291906122205792509050611b0d565b6001600160a01b038616600090815260036020526040902054612249579250429150611b0d9050565b600061225483610eba565b90506000612270600160105461226a9190612994565b88612436565b9050815b81811015612338576000818152600f60209081526040918290208251808401909352805483526001015490820181905215612325576000600f816122b98560016129cd565b81526020019081526020016000206040518060400160405290816000820154815260200160018201548152505090506000806123048d8460000151866000015187602001518d612690565b909250905061231382896129cd565b97506123208d8983612347565b975050505b508061233081612a04565b915050612274565b50919792965091945050505050565b6001600160a01b03831660009081526012602052604090205480158015906123a357506001600160a01b0384166000908152601160205260408120839161238f600185612994565b815260200190815260200160002060000154145b156123cd576001600160a01b038416600090815260116020526040812084916120c1600185612994565b60408051808201825283815260208082018681526001600160a01b0388166000908152601183528481208682529092529290209051815590516001918201556124179082906129cd565b6001600160a01b03851660009081526012602052604090205550505050565b6000818310611dc35781610f00565b604080516001600160a01b0385811660248301528481166044830152606480830185905283518084039091018152608490920183526020820180516001600160e01b03166323b872dd60e01b17905291516000928392908816916124a99190612aa2565b6000604051808303816000865af19150503d80600081146124e6576040519150601f19603f3d011682016040523d82523d6000602084013e6124eb565b606091505b50915091508180156125155750805115806125155750808060200190518101906125159190612add565b61256d5760405162461bcd60e51b8152602060048201526024808201527f5472616e7366657248656c7065723a205452414e534645525f46524f4d5f46416044820152631253115160e21b6064820152608401610a96565b505050505050565b604080516001600160a01b038481166024830152604480830185905283518084039091018152606490920183526020820180516001600160e01b031663a9059cbb60e01b17905291516000928392908716916125d19190612aa2565b6000604051808303816000865af19150503d806000811461260e576040519150601f19603f3d011682016040523d82523d6000602084013e612613565b606091505b509150915081801561263d57508051158061263d57508080602001905181019061263d9190612add565b6126895760405162461bcd60e51b815260206004820152601f60248201527f5472616e7366657248656c7065723a205452414e534645525f4641494c4544006044820152606401610a96565b5050505050565b600080600061269f8785611db3565b6001600160a01b0389166000908152600360205260409020549091508590670de0b6b3a7640000906126d18988611db3565b6126db9085612994565b6126e591906129e5565b6126ef91906129e5565b6126f991906129ab565b9890975095505050505050565b6040516370a0823160e01b81523060048201526000906001600160a01b038416906370a0823190602401602060405180830381865afa15801561274d573d6000803e3d6000fd5b505050506040513d601f19601f820116820180604052508101906127719190612a6c565b9050818110156127a7576127a7837f00000000000000000000000000000000000000000000000000000000000000003085612445565b505050565b6001600160a01b038116811461122457600080fd5b80356127cc816127ac565b919050565b600080604083850312156127e457600080fd5b82356127ef816127ac565b946020939093013593505050565b6000806040838503121561281057600080fd5b823561281b816127ac565b9150602083013561282b816127ac565b809150509250929050565b60006020828403121561284857600080fd5b8135610f00816127ac565b60006020828403121561286557600080fd5b5035919050565b634e487b7160e01b600052604160045260246000fd5b6000806040838503121561289557600080fd5b82356128a0816127ac565b915060208381013567ffffffffffffffff808211156128be57600080fd5b818601915086601f8301126128d257600080fd5b8135818111156128e4576128e461286c565b8060051b604051601f19603f830116810181811085821117156129095761290961286c565b60405291825284820192508381018501918983111561292757600080fd5b938501935b8285101561294c5761293d856127c1565b8452938501939285019261292c565b8096505050505050509250929050565b6000806040838503121561296f57600080fd5b50508035926020909101359150565b634e487b7160e01b600052601160045260246000fd5b6000828210156129a6576129a661297e565b500390565b6000826129c857634e487b7160e01b600052601260045260246000fd5b500490565b600082198211156129e0576129e061297e565b500190565b60008160001904831182151516156129ff576129ff61297e565b500290565b6000600019821415612a1857612a1861297e565b5060010190565b6020808252601f908201527f5265656e7472616e637947756172643a207265656e7472616e742063616c6c00604082015260600190565b634e487b7160e01b600052603260045260246000fd5b600060208284031215612a7e57600080fd5b5051919050565b600060208284031215612a9757600080fd5b8151610f00816127ac565b6000825160005b81811015612ac35760208186018101518583015201612aa9565b81811115612ad2576000828501525b509190910192915050565b600060208284031215612aef57600080fd5b81518015158114610f0057600080fdfea2646970667358221220b8a23569c7c60cea67a58e4dd23510a9833f982dfaa62254c59e7f6f8fd0b8e964736f6c634300080a0033",
					"opcodes": "PUSH1 0xE0 PUSH1 0x40 MSTORE CALLVALUE DUP1 ISZERO PUSH3 0x11 JUMPI PUSH1 0x0 DUP1 REVERT JUMPDEST POP PUSH1 0x40 MLOAD PUSH3 0x2C9A CODESIZE SUB DUP1 PUSH3 0x2C9A DUP4 CODECOPY DUP2 ADD PUSH1 0x40 DUP2 SWAP1 MSTORE PUSH3 0x34 SWAP2 PUSH3 0x74 JUMP JUMPDEST PUSH1 0x1 PUSH1 0x0 SSTORE PUSH1 0x1 PUSH1 0x1 PUSH1 0xA0 SHL SUB SWAP3 DUP4 AND PUSH1 0x80 MSTORE SWAP1 DUP3 AND PUSH1 0xA0 MSTORE AND PUSH1 0xC0 MSTORE PUSH3 0xBE JUMP JUMPDEST DUP1 MLOAD PUSH1 0x1 PUSH1 0x1 PUSH1 0xA0 SHL SUB DUP2 AND DUP2 EQ PUSH3 0x6F JUMPI PUSH1 0x0 DUP1 REVERT JUMPDEST SWAP2 SWAP1 POP JUMP JUMPDEST PUSH1 0x0 DUP1 PUSH1 0x0 PUSH1 0x60 DUP5 DUP7 SUB SLT ISZERO PUSH3 0x8A JUMPI PUSH1 0x0 DUP1 REVERT JUMPDEST PUSH3 0x95 DUP5 PUSH3 0x57 JUMP JUMPDEST SWAP3 POP PUSH3 0xA5 PUSH1 0x20 DUP6 ADD PUSH3 0x57 JUMP JUMPDEST SWAP2 POP PUSH3 0xB5 PUSH1 0x40 DUP6 ADD PUSH3 0x57 JUMP JUMPDEST SWAP1 POP SWAP3 POP SWAP3 POP SWAP3 JUMP JUMPDEST PUSH1 0x80 MLOAD PUSH1 0xA0 MLOAD PUSH1 0xC0 MLOAD PUSH2 0x2B35 PUSH3 0x165 PUSH1 0x0 CODECOPY PUSH1 0x0 DUP2 DUP2 PUSH2 0x504 ADD MSTORE DUP2 DUP2 PUSH2 0xAC1 ADD MSTORE DUP2 DUP2 PUSH2 0xB01 ADD MSTORE DUP2 DUP2 PUSH2 0x12AA ADD MSTORE DUP2 DUP2 PUSH2 0x140E ADD MSTORE DUP2 DUP2 PUSH2 0x1655 ADD MSTORE DUP2 DUP2 PUSH2 0x177A ADD MSTORE DUP2 DUP2 PUSH2 0x1BFF ADD MSTORE DUP2 DUP2 PUSH2 0x1D17 ADD MSTORE PUSH2 0x2781 ADD MSTORE PUSH1 0x0 DUP2 DUP2 PUSH2 0x393 ADD MSTORE DUP2 DUP2 PUSH2 0x1330 ADD MSTORE PUSH2 0x158B ADD MSTORE PUSH1 0x0 DUP2 DUP2 PUSH2 0x354 ADD MSTORE DUP2 DUP2 PUSH2 0x1009 ADD MSTORE DUP2 DUP2 PUSH2 0x11AB ADD MSTORE DUP2 DUP2 PUSH2 0x127A ADD MSTORE DUP2 DUP2 PUSH2 0x13E6 ADD MSTORE DUP2 DUP2 PUSH2 0x1503 ADD MSTORE PUSH2 0x1B80 ADD MSTORE PUSH2 0x2B35 PUSH1 0x0 RETURN INVALID PUSH1 0x80 PUSH1 0x40 MSTORE CALLVALUE DUP1 ISZERO PUSH2 0x10 JUMPI PUSH1 0x0 DUP1 REVERT JUMPDEST POP PUSH1 0x4 CALLDATASIZE LT PUSH2 0x227 JUMPI PUSH1 0x0 CALLDATALOAD PUSH1 0xE0 SHR DUP1 PUSH4 0x76F4BE36 GT PUSH2 0x130 JUMPI DUP1 PUSH4 0xD7DA4BB0 GT PUSH2 0xB8 JUMPI DUP1 PUSH4 0xF301AF42 GT PUSH2 0x7C JUMPI DUP1 PUSH4 0xF301AF42 EQ PUSH2 0x5BF JUMPI DUP1 PUSH4 0xF7412BAF EQ PUSH2 0x5D2 JUMPI DUP1 PUSH4 0xFC97A303 EQ PUSH2 0x5F9 JUMPI DUP1 PUSH4 0xFD314098 EQ PUSH2 0x619 JUMPI DUP1 PUSH4 0xFDB483C7 EQ PUSH2 0x62C JUMPI PUSH1 0x0 DUP1 REVERT JUMPDEST DUP1 PUSH4 0xD7DA4BB0 EQ PUSH2 0x57F JUMPI DUP1 PUSH4 0xE2BBB158 EQ PUSH2 0x588 JUMPI DUP1 PUSH4 0xE6886396 EQ PUSH2 0x59B JUMPI DUP1 PUSH4 0xE8111A12 EQ PUSH2 0x5A3 JUMPI DUP1 PUSH4 0xF1229777 EQ PUSH2 0x5AC JUMPI PUSH1 0x0 DUP1 REVERT JUMPDEST DUP1 PUSH4 0xA66F42C0 GT PUSH2 0xFF JUMPI DUP1 PUSH4 0xA66F42C0 EQ PUSH2 0x4FF JUMPI DUP1 PUSH4 0xAA479652 EQ PUSH2 0x526 JUMPI DUP1 PUSH4 0xB66503CF EQ PUSH2 0x546 JUMPI DUP1 PUSH4 0xC6F678BD EQ PUSH2 0x559 JUMPI DUP1 PUSH4 0xD35E2544 EQ PUSH2 0x56C JUMPI PUSH1 0x0 DUP1 REVERT JUMPDEST DUP1 PUSH4 0x76F4BE36 EQ PUSH2 0x499 JUMPI DUP1 PUSH4 0x853828B6 EQ PUSH2 0x4AC JUMPI DUP1 PUSH4 0x9CE43F90 EQ PUSH2 0x4B4 JUMPI DUP1 PUSH4 0xA495E5B5 EQ PUSH2 0x4D4 JUMPI PUSH1 0x0 DUP1 REVERT JUMPDEST DUP1 PUSH4 0x3A4B66F1 GT PUSH2 0x1B3 JUMPI DUP1 PUSH4 0x5A45D052 GT PUSH2 0x182 JUMPI DUP1 PUSH4 0x5A45D052 EQ PUSH2 0x413 JUMPI DUP1 PUSH4 0x638634EE EQ PUSH2 0x426 JUMPI DUP1 PUSH4 0x63FB415B EQ PUSH2 0x439 JUMPI DUP1 PUSH4 0x6FCFFF45 EQ PUSH2 0x459 JUMPI DUP1 PUSH4 0x70A08231 EQ PUSH2 0x479 JUMPI PUSH1 0x0 DUP1 REVERT JUMPDEST DUP1 PUSH4 0x3A4B66F1 EQ PUSH2 0x34F JUMPI DUP1 PUSH4 0x3B92EB23 EQ PUSH2 0x38E JUMPI DUP1 PUSH4 0x3CA068B6 EQ PUSH2 0x3B5 JUMPI DUP1 PUSH4 0x4D5CE038 EQ PUSH2 0x3E0 JUMPI PUSH1 0x0 DUP1 REVERT JUMPDEST DUP1 PUSH4 0x211DC32D GT PUSH2 0x1FA JUMPI DUP1 PUSH4 0x211DC32D EQ PUSH2 0x2D4 JUMPI DUP1 PUSH4 0x221CA18C EQ PUSH2 0x2E7 JUMPI DUP1 PUSH4 0x2CE9AEAD EQ PUSH2 0x307 JUMPI DUP1 PUSH4 0x2E1A7D4D EQ PUSH2 0x327 JUMPI DUP1 PUSH4 0x31279D3D EQ PUSH2 0x33C JUMPI PUSH1 0x0 DUP1 REVERT JUMPDEST DUP1 PUSH4 0x1316DDF EQ PUSH2 0x22C JUMPI DUP1 PUSH4 0xCDFEBFA EQ PUSH2 0x278 JUMPI DUP1 PUSH4 0x115C6F39 EQ PUSH2 0x2AA JUMPI DUP1 PUSH4 0x18160DDD EQ PUSH2 0x2CB JUMPI JUMPDEST PUSH1 0x0 DUP1 REVERT JUMPDEST PUSH2 0x25E PUSH2 0x23A CALLDATASIZE PUSH1 0x4 PUSH2 0x27D1 JUMP JUMPDEST PUSH1 0x11 PUSH1 0x20 SWAP1 DUP2 MSTORE PUSH1 0x0 SWAP3 DUP4 MSTORE PUSH1 0x40 DUP1 DUP5 KECCAK256 SWAP1 SWAP2 MSTORE SWAP1 DUP3 MSTORE SWAP1 KECCAK256 DUP1 SLOAD PUSH1 0x1 SWAP1 SWAP2 ADD SLOAD DUP3 JUMP JUMPDEST PUSH1 0x40 DUP1 MLOAD SWAP3 DUP4 MSTORE PUSH1 0x20 DUP4 ADD SWAP2 SWAP1 SWAP2 MSTORE ADD JUMPDEST PUSH1 0x40 MLOAD DUP1 SWAP2 SUB SWAP1 RETURN JUMPDEST PUSH2 0x25E PUSH2 0x286 CALLDATASIZE PUSH1 0x4 PUSH2 0x27D1 JUMP JUMPDEST PUSH1 0xD PUSH1 0x20 SWAP1 DUP2 MSTORE PUSH1 0x0 SWAP3 DUP4 MSTORE PUSH1 0x40 DUP1 DUP5 KECCAK256 SWAP1 SWAP2 MSTORE SWAP1 DUP3 MSTORE SWAP1 KECCAK256 DUP1 SLOAD PUSH1 0x1 SWAP1 SWAP2 ADD SLOAD DUP3 JUMP JUMPDEST PUSH2 0x2BD PUSH2 0x2B8 CALLDATASIZE PUSH1 0x4 PUSH2 0x27D1 JUMP JUMPDEST PUSH2 0x63F JUMP JUMPDEST PUSH1 0x40 MLOAD SWAP1 DUP2 MSTORE PUSH1 0x20 ADD PUSH2 0x26F JUMP JUMPDEST PUSH2 0x2BD PUSH1 0x9 SLOAD DUP2 JUMP JUMPDEST PUSH2 0x2BD PUSH2 0x2E2 CALLDATASIZE PUSH1 0x4 PUSH2 0x27FD JUMP JUMPDEST PUSH2 0x7AC JUMP JUMPDEST PUSH2 0x2BD PUSH2 0x2F5 CALLDATASIZE PUSH1 0x4 PUSH2 0x2836 JUMP JUMPDEST PUSH1 0x3 PUSH1 0x20 MSTORE PUSH1 0x0 SWAP1 DUP2 MSTORE PUSH1 0x40 SWAP1 KECCAK256 SLOAD DUP2 JUMP JUMPDEST PUSH2 0x2BD PUSH2 0x315 CALLDATASIZE PUSH1 0x4 PUSH2 0x2836 JUMP JUMPDEST PUSH1 0x4 PUSH1 0x20 MSTORE PUSH1 0x0 SWAP1 DUP2 MSTORE PUSH1 0x40 SWAP1 KECCAK256 SLOAD DUP2 JUMP JUMPDEST PUSH2 0x33A PUSH2 0x335 CALLDATASIZE PUSH1 0x4 PUSH2 0x2853 JUMP JUMPDEST PUSH2 0xA3C JUMP JUMPDEST STOP JUMPDEST PUSH2 0x33A PUSH2 0x34A CALLDATASIZE PUSH1 0x4 PUSH2 0x2882 JUMP JUMPDEST PUSH2 0xA73 JUMP JUMPDEST PUSH2 0x376 PUSH32 0x0 DUP2 JUMP JUMPDEST PUSH1 0x40 MLOAD PUSH1 0x1 PUSH1 0x1 PUSH1 0xA0 SHL SUB SWAP1 SWAP2 AND DUP2 MSTORE PUSH1 0x20 ADD PUSH2 0x26F JUMP JUMPDEST PUSH2 0x376 PUSH32 0x0 DUP2 JUMP JUMPDEST PUSH2 0x2BD PUSH2 0x3C3 CALLDATASIZE PUSH1 0x4 PUSH2 0x27FD JUMP JUMPDEST PUSH1 0x7 PUSH1 0x20 SWAP1 DUP2 MSTORE PUSH1 0x0 SWAP3 DUP4 MSTORE PUSH1 0x40 DUP1 DUP5 KECCAK256 SWAP1 SWAP2 MSTORE SWAP1 DUP3 MSTORE SWAP1 KECCAK256 SLOAD DUP2 JUMP JUMPDEST PUSH2 0x403 PUSH2 0x3EE CALLDATASIZE PUSH1 0x4 PUSH2 0x2836 JUMP JUMPDEST PUSH1 0xC PUSH1 0x20 MSTORE PUSH1 0x0 SWAP1 DUP2 MSTORE PUSH1 0x40 SWAP1 KECCAK256 SLOAD PUSH1 0xFF AND DUP2 JUMP JUMPDEST PUSH1 0x40 MLOAD SWAP1 ISZERO ISZERO DUP2 MSTORE PUSH1 0x20 ADD PUSH2 0x26F JUMP JUMPDEST PUSH2 0x33A PUSH2 0x421 CALLDATASIZE PUSH1 0x4 PUSH2 0x27D1 JUMP JUMPDEST PUSH2 0xE82 JUMP JUMPDEST PUSH2 0x2BD PUSH2 0x434 CALLDATASIZE PUSH1 0x4 PUSH2 0x2836 JUMP JUMPDEST POP TIMESTAMP SWAP1 JUMP JUMPDEST PUSH2 0x2BD PUSH2 0x447 CALLDATASIZE PUSH1 0x4 PUSH2 0x2836 JUMP JUMPDEST PUSH1 0x2 PUSH1 0x20 MSTORE PUSH1 0x0 SWAP1 DUP2 MSTORE PUSH1 0x40 SWAP1 KECCAK256 SLOAD DUP2 JUMP JUMPDEST PUSH2 0x2BD PUSH2 0x467 CALLDATASIZE PUSH1 0x4 PUSH2 0x2836 JUMP JUMPDEST PUSH1 0xE PUSH1 0x20 MSTORE PUSH1 0x0 SWAP1 DUP2 MSTORE PUSH1 0x40 SWAP1 KECCAK256 SLOAD DUP2 JUMP JUMPDEST PUSH2 0x2BD PUSH2 0x487 CALLDATASIZE PUSH1 0x4 PUSH2 0x2836 JUMP JUMPDEST PUSH1 0xA PUSH1 0x20 MSTORE PUSH1 0x0 SWAP1 DUP2 MSTORE PUSH1 0x40 SWAP1 KECCAK256 SLOAD DUP2 JUMP JUMPDEST PUSH2 0x2BD PUSH2 0x4A7 CALLDATASIZE PUSH1 0x4 PUSH2 0x2853 JUMP JUMPDEST PUSH2 0xEBA JUMP JUMPDEST PUSH2 0x33A PUSH2 0xFEC JUMP JUMPDEST PUSH2 0x2BD PUSH2 0x4C2 CALLDATASIZE PUSH1 0x4 PUSH2 0x2836 JUMP JUMPDEST PUSH1 0x5 PUSH1 0x20 MSTORE PUSH1 0x0 SWAP1 DUP2 MSTORE PUSH1 0x40 SWAP1 KECCAK256 SLOAD DUP2 JUMP JUMPDEST PUSH2 0x2BD PUSH2 0x4E2 CALLDATASIZE PUSH1 0x4 PUSH2 0x27FD JUMP JUMPDEST PUSH1 0x6 PUSH1 0x20 SWAP1 DUP2 MSTORE PUSH1 0x0 SWAP3 DUP4 MSTORE PUSH1 0x40 DUP1 DUP5 KECCAK256 SWAP1 SWAP2 MSTORE SWAP1 DUP3 MSTORE SWAP1 KECCAK256 SLOAD DUP2 JUMP JUMPDEST PUSH2 0x376 PUSH32 0x0 DUP2 JUMP JUMPDEST PUSH2 0x2BD PUSH2 0x534 CALLDATASIZE PUSH1 0x4 PUSH2 0x2836 JUMP JUMPDEST PUSH1 0x12 PUSH1 0x20 MSTORE PUSH1 0x0 SWAP1 DUP2 MSTORE PUSH1 0x40 SWAP1 KECCAK256 SLOAD DUP2 JUMP JUMPDEST PUSH2 0x33A PUSH2 0x554 CALLDATASIZE PUSH1 0x4 PUSH2 0x27D1 JUMP JUMPDEST PUSH2 0x1007 JUMP JUMPDEST PUSH2 0x33A PUSH2 0x567 CALLDATASIZE PUSH1 0x4 PUSH2 0x2853 JUMP JUMPDEST PUSH2 0x1192 JUMP JUMPDEST PUSH2 0x2BD PUSH2 0x57A CALLDATASIZE PUSH1 0x4 PUSH2 0x2836 JUMP JUMPDEST PUSH2 0x1227 JUMP JUMPDEST PUSH2 0x2BD PUSH1 0x1 SLOAD DUP2 JUMP JUMPDEST PUSH2 0x33A PUSH2 0x596 CALLDATASIZE PUSH1 0x4 PUSH2 0x295C JUMP JUMPDEST PUSH2 0x14CC JUMP JUMPDEST PUSH1 0xB SLOAD PUSH2 0x2BD JUMP JUMPDEST PUSH2 0x2BD PUSH1 0x10 SLOAD DUP2 JUMP JUMPDEST PUSH2 0x2BD PUSH2 0x5BA CALLDATASIZE PUSH1 0x4 PUSH2 0x2836 JUMP JUMPDEST PUSH2 0x1824 JUMP JUMPDEST PUSH2 0x376 PUSH2 0x5CD CALLDATASIZE PUSH1 0x4 PUSH2 0x2853 JUMP JUMPDEST PUSH2 0x18CB JUMP JUMPDEST PUSH2 0x25E PUSH2 0x5E0 CALLDATASIZE PUSH1 0x4 PUSH2 0x2853 JUMP JUMPDEST PUSH1 0xF PUSH1 0x20 MSTORE PUSH1 0x0 SWAP1 DUP2 MSTORE PUSH1 0x40 SWAP1 KECCAK256 DUP1 SLOAD PUSH1 0x1 SWAP1 SWAP2 ADD SLOAD DUP3 JUMP JUMPDEST PUSH2 0x2BD PUSH2 0x607 CALLDATASIZE PUSH1 0x4 PUSH2 0x2836 JUMP JUMPDEST PUSH1 0x8 PUSH1 0x20 MSTORE PUSH1 0x0 SWAP1 DUP2 MSTORE PUSH1 0x40 SWAP1 KECCAK256 SLOAD DUP2 JUMP JUMPDEST PUSH2 0x25E PUSH2 0x627 CALLDATASIZE PUSH1 0x4 PUSH2 0x27D1 JUMP JUMPDEST PUSH2 0x18F5 JUMP JUMPDEST PUSH2 0x33A PUSH2 0x63A CALLDATASIZE PUSH1 0x4 PUSH2 0x295C JUMP JUMPDEST PUSH2 0x1B14 JUMP JUMPDEST PUSH1 0x1 PUSH1 0x1 PUSH1 0xA0 SHL SUB DUP3 AND PUSH1 0x0 SWAP1 DUP2 MSTORE PUSH1 0xE PUSH1 0x20 MSTORE PUSH1 0x40 DUP2 KECCAK256 SLOAD DUP1 PUSH2 0x667 JUMPI PUSH1 0x0 SWAP2 POP POP PUSH2 0x7A6 JUMP JUMPDEST PUSH1 0x1 PUSH1 0x1 PUSH1 0xA0 SHL SUB DUP5 AND PUSH1 0x0 SWAP1 DUP2 MSTORE PUSH1 0xD PUSH1 0x20 MSTORE PUSH1 0x40 DUP2 KECCAK256 DUP5 SWAP2 PUSH2 0x68C PUSH1 0x1 DUP6 PUSH2 0x2994 JUMP JUMPDEST DUP2 MSTORE PUSH1 0x20 ADD SWAP1 DUP2 MSTORE PUSH1 0x20 ADD PUSH1 0x0 KECCAK256 PUSH1 0x0 ADD SLOAD GT PUSH2 0x6B6 JUMPI PUSH2 0x6AE PUSH1 0x1 DUP3 PUSH2 0x2994 JUMP JUMPDEST SWAP2 POP POP PUSH2 0x7A6 JUMP JUMPDEST PUSH1 0x1 PUSH1 0x1 PUSH1 0xA0 SHL SUB DUP5 AND PUSH1 0x0 SWAP1 DUP2 MSTORE PUSH1 0xD PUSH1 0x20 SWAP1 DUP2 MSTORE PUSH1 0x40 DUP1 DUP4 KECCAK256 DUP4 DUP1 MSTORE SWAP1 SWAP2 MSTORE SWAP1 KECCAK256 SLOAD DUP4 LT ISZERO PUSH2 0x6EB JUMPI PUSH1 0x0 SWAP2 POP POP PUSH2 0x7A6 JUMP JUMPDEST PUSH1 0x0 DUP1 PUSH2 0x6F9 PUSH1 0x1 DUP5 PUSH2 0x2994 JUMP JUMPDEST SWAP1 POP JUMPDEST DUP2 DUP2 GT ISZERO PUSH2 0x7A1 JUMPI PUSH1 0x0 PUSH1 0x2 PUSH2 0x712 DUP5 DUP5 PUSH2 0x2994 JUMP JUMPDEST PUSH2 0x71C SWAP2 SWAP1 PUSH2 0x29AB JUMP JUMPDEST PUSH2 0x726 SWAP1 DUP4 PUSH2 0x2994 JUMP JUMPDEST PUSH1 0x1 PUSH1 0x1 PUSH1 0xA0 SHL SUB DUP9 AND PUSH1 0x0 SWAP1 DUP2 MSTORE PUSH1 0xD PUSH1 0x20 SWAP1 DUP2 MSTORE PUSH1 0x40 DUP1 DUP4 KECCAK256 DUP5 DUP5 MSTORE DUP3 MSTORE SWAP2 DUP3 SWAP1 KECCAK256 DUP3 MLOAD DUP1 DUP5 ADD SWAP1 SWAP4 MSTORE DUP1 SLOAD DUP1 DUP5 MSTORE PUSH1 0x1 SWAP1 SWAP2 ADD SLOAD SWAP2 DUP4 ADD SWAP2 SWAP1 SWAP2 MSTORE SWAP2 SWAP3 POP SWAP1 DUP8 EQ ISZERO PUSH2 0x77B JUMPI POP SWAP4 POP PUSH2 0x7A6 SWAP3 POP POP POP JUMP JUMPDEST DUP1 MLOAD DUP8 GT ISZERO PUSH2 0x78C JUMPI DUP2 SWAP4 POP PUSH2 0x79A JUMP JUMPDEST PUSH2 0x797 PUSH1 0x1 DUP4 PUSH2 0x2994 JUMP JUMPDEST SWAP3 POP JUMPDEST POP POP PUSH2 0x6FC JUMP JUMPDEST POP SWAP2 POP POP JUMPDEST SWAP3 SWAP2 POP POP JUMP JUMPDEST PUSH1 0x1 PUSH1 0x1 PUSH1 0xA0 SHL SUB DUP1 DUP4 AND PUSH1 0x0 DUP2 DUP2 MSTORE PUSH1 0x6 PUSH1 0x20 SWAP1 DUP2 MSTORE PUSH1 0x40 DUP1 DUP4 KECCAK256 SWAP5 DUP7 AND DUP4 MSTORE SWAP4 DUP2 MSTORE DUP4 DUP3 KECCAK256 SLOAD SWAP3 DUP3 MSTORE PUSH1 0x11 DUP2 MSTORE DUP4 DUP3 KECCAK256 DUP3 DUP1 MSTORE SWAP1 MSTORE SWAP2 DUP3 KECCAK256 SLOAD DUP3 SWAP2 PUSH2 0x7F2 SWAP2 PUSH2 0x1DB3 JUMP JUMPDEST PUSH1 0x1 PUSH1 0x1 PUSH1 0xA0 SHL SUB DUP5 AND PUSH1 0x0 SWAP1 DUP2 MSTORE PUSH1 0xE PUSH1 0x20 MSTORE PUSH1 0x40 SWAP1 KECCAK256 SLOAD SWAP1 SWAP2 POP PUSH2 0x81C JUMPI PUSH1 0x0 SWAP2 POP POP PUSH2 0x7A6 JUMP JUMPDEST PUSH1 0x0 PUSH2 0x828 DUP5 DUP4 PUSH2 0x63F JUMP JUMPDEST PUSH1 0x1 PUSH1 0x1 PUSH1 0xA0 SHL SUB DUP6 AND PUSH1 0x0 SWAP1 DUP2 MSTORE PUSH1 0xE PUSH1 0x20 MSTORE PUSH1 0x40 DUP2 KECCAK256 SLOAD SWAP2 SWAP3 POP SWAP1 PUSH2 0x851 SWAP1 PUSH1 0x1 SWAP1 PUSH2 0x2994 JUMP JUMPDEST SWAP1 POP PUSH1 0x0 PUSH1 0x1 PUSH2 0x861 DUP5 DUP5 PUSH2 0x2994 JUMP JUMPDEST GT ISZERO PUSH2 0x970 JUMPI DUP3 JUMPDEST PUSH2 0x874 PUSH1 0x1 DUP5 PUSH2 0x2994 JUMP JUMPDEST DUP2 LT ISZERO PUSH2 0x96E JUMPI PUSH1 0x1 PUSH1 0x1 PUSH1 0xA0 SHL SUB DUP8 AND PUSH1 0x0 DUP2 DUP2 MSTORE PUSH1 0xD PUSH1 0x20 DUP2 DUP2 MSTORE PUSH1 0x40 DUP1 DUP5 KECCAK256 DUP7 DUP6 MSTORE DUP1 DUP4 MSTORE DUP2 DUP6 KECCAK256 DUP3 MLOAD DUP1 DUP5 ADD SWAP1 SWAP4 MSTORE DUP1 SLOAD DUP4 MSTORE PUSH1 0x1 SWAP1 DUP2 ADD SLOAD DUP4 DUP6 ADD MSTORE SWAP6 DUP6 MSTORE SWAP3 SWAP1 SWAP2 MSTORE SWAP3 DUP3 SWAP1 PUSH2 0x8CA SWAP1 DUP7 SWAP1 PUSH2 0x29CD JUMP JUMPDEST DUP2 MSTORE PUSH1 0x20 ADD SWAP1 DUP2 MSTORE PUSH1 0x20 ADD PUSH1 0x0 KECCAK256 PUSH1 0x40 MLOAD DUP1 PUSH1 0x40 ADD PUSH1 0x40 MSTORE SWAP1 DUP2 PUSH1 0x0 DUP3 ADD SLOAD DUP2 MSTORE PUSH1 0x20 ADD PUSH1 0x1 DUP3 ADD SLOAD DUP2 MSTORE POP POP SWAP1 POP PUSH1 0x0 PUSH2 0x909 DUP12 DUP5 PUSH1 0x0 ADD MLOAD PUSH2 0x18F5 JUMP JUMPDEST POP SWAP1 POP PUSH1 0x0 PUSH2 0x91C DUP13 DUP5 PUSH1 0x0 ADD MLOAD PUSH2 0x18F5 JUMP JUMPDEST POP SWAP1 POP PUSH8 0xDE0B6B3A7640000 PUSH2 0x932 DUP4 DUP4 PUSH2 0x2994 JUMP JUMPDEST DUP6 PUSH1 0x20 ADD MLOAD PUSH2 0x941 SWAP2 SWAP1 PUSH2 0x29E5 JUMP JUMPDEST PUSH2 0x94B SWAP2 SWAP1 PUSH2 0x29AB JUMP JUMPDEST PUSH2 0x955 SWAP1 DUP8 PUSH2 0x29CD JUMP JUMPDEST SWAP6 POP POP POP POP POP DUP1 DUP1 PUSH2 0x966 SWAP1 PUSH2 0x2A04 JUMP JUMPDEST SWAP2 POP POP PUSH2 0x869 JUMP JUMPDEST POP JUMPDEST PUSH1 0x1 PUSH1 0x1 PUSH1 0xA0 SHL SUB DUP7 AND PUSH1 0x0 SWAP1 DUP2 MSTORE PUSH1 0xD PUSH1 0x20 SWAP1 DUP2 MSTORE PUSH1 0x40 DUP1 DUP4 KECCAK256 DUP6 DUP5 MSTORE DUP3 MSTORE DUP1 DUP4 KECCAK256 DUP2 MLOAD DUP1 DUP4 ADD SWAP1 SWAP3 MSTORE DUP1 SLOAD DUP1 DUP4 MSTORE PUSH1 0x1 SWAP1 SWAP2 ADD SLOAD SWAP3 DUP3 ADD SWAP3 SWAP1 SWAP3 MSTORE SWAP2 SWAP1 PUSH2 0x9BA SWAP1 DUP11 SWAP1 PUSH2 0x18F5 JUMP JUMPDEST POP PUSH1 0x1 PUSH1 0x1 PUSH1 0xA0 SHL SUB DUP1 DUP12 AND PUSH1 0x0 SWAP1 DUP2 MSTORE PUSH1 0x7 PUSH1 0x20 SWAP1 DUP2 MSTORE PUSH1 0x40 DUP1 DUP4 KECCAK256 SWAP4 DUP14 AND DUP4 MSTORE SWAP3 SWAP1 MSTORE KECCAK256 SLOAD SWAP1 SWAP2 POP PUSH8 0xDE0B6B3A7640000 SWAP1 PUSH2 0x9F9 SWAP1 DUP4 SWAP1 PUSH2 0x1DB3 JUMP JUMPDEST PUSH2 0xA02 DUP12 PUSH2 0x1824 JUMP JUMPDEST PUSH2 0xA0C SWAP2 SWAP1 PUSH2 0x2994 JUMP JUMPDEST DUP4 PUSH1 0x20 ADD MLOAD PUSH2 0xA1B SWAP2 SWAP1 PUSH2 0x29E5 JUMP JUMPDEST PUSH2 0xA25 SWAP2 SWAP1 PUSH2 0x29AB JUMP JUMPDEST PUSH2 0xA2F SWAP1 DUP5 PUSH2 0x29CD JUMP JUMPDEST SWAP10 SWAP9 POP POP POP POP POP POP POP POP POP JUMP JUMPDEST CALLER PUSH1 0x0 SWAP1 DUP2 MSTORE PUSH1 0xA PUSH1 0x20 MSTORE PUSH1 0x40 DUP2 KECCAK256 SLOAD DUP3 EQ ISZERO PUSH2 0xA65 JUMPI POP CALLER PUSH1 0x0 SWAP1 DUP2 MSTORE PUSH1 0x8 PUSH1 0x20 MSTORE PUSH1 0x40 SWAP1 KECCAK256 SLOAD JUMPDEST PUSH2 0xA6F DUP3 DUP3 PUSH2 0x1B14 JUMP JUMPDEST POP POP JUMP JUMPDEST PUSH1 0x2 PUSH1 0x0 SLOAD EQ ISZERO PUSH2 0xA9F JUMPI PUSH1 0x40 MLOAD PUSH3 0x461BCD PUSH1 0xE5 SHL DUP2 MSTORE PUSH1 0x4 ADD PUSH2 0xA96 SWAP1 PUSH2 0x2A1F JUMP JUMPDEST PUSH1 0x40 MLOAD DUP1 SWAP2 SUB SWAP1 REVERT JUMPDEST PUSH1 0x2 PUSH1 0x0 SSTORE CALLER PUSH1 0x1 PUSH1 0x1 PUSH1 0xA0 SHL SUB DUP4 AND EQ DUP1 PUSH2 0xAE3 JUMPI POP CALLER PUSH1 0x1 PUSH1 0x1 PUSH1 0xA0 SHL SUB PUSH32 0x0 AND EQ JUMPDEST PUSH2 0xAEC JUMPI PUSH1 0x0 DUP1 REVERT JUMPDEST PUSH1 0x40 MLOAD PUSH4 0x63453AE1 PUSH1 0xE0 SHL DUP2 MSTORE ADDRESS PUSH1 0x4 DUP3 ADD MSTORE PUSH32 0x0 PUSH1 0x1 PUSH1 0x1 PUSH1 0xA0 SHL SUB AND SWAP1 PUSH4 0x63453AE1 SWAP1 PUSH1 0x24 ADD PUSH1 0x0 PUSH1 0x40 MLOAD DUP1 DUP4 SUB DUP2 PUSH1 0x0 DUP8 DUP1 EXTCODESIZE ISZERO DUP1 ISZERO PUSH2 0xB4D JUMPI PUSH1 0x0 DUP1 REVERT JUMPDEST POP GAS CALL ISZERO DUP1 ISZERO PUSH2 0xB61 JUMPI RETURNDATASIZE PUSH1 0x0 DUP1 RETURNDATACOPY RETURNDATASIZE PUSH1 0x0 REVERT JUMPDEST POP POP POP POP PUSH1 0x0 JUMPDEST DUP2 MLOAD DUP2 LT ISZERO PUSH2 0xDD9 JUMPI PUSH2 0xB93 DUP3 DUP3 DUP2 MLOAD DUP2 LT PUSH2 0xB86 JUMPI PUSH2 0xB86 PUSH2 0x2A56 JUMP JUMPDEST PUSH1 0x20 MUL PUSH1 0x20 ADD ADD MLOAD PUSH2 0x1DCA JUMP JUMPDEST PUSH1 0x5 PUSH1 0x0 DUP6 DUP6 DUP2 MLOAD DUP2 LT PUSH2 0xBA9 JUMPI PUSH2 0xBA9 PUSH2 0x2A56 JUMP JUMPDEST PUSH1 0x20 MUL PUSH1 0x20 ADD ADD MLOAD PUSH1 0x1 PUSH1 0x1 PUSH1 0xA0 SHL SUB AND PUSH1 0x1 PUSH1 0x1 PUSH1 0xA0 SHL SUB AND DUP2 MSTORE PUSH1 0x20 ADD SWAP1 DUP2 MSTORE PUSH1 0x20 ADD PUSH1 0x0 KECCAK256 PUSH1 0x0 PUSH1 0x4 PUSH1 0x0 DUP8 DUP8 DUP2 MLOAD DUP2 LT PUSH2 0xBE9 JUMPI PUSH2 0xBE9 PUSH2 0x2A56 JUMP JUMPDEST PUSH1 0x20 MUL PUSH1 0x20 ADD ADD MLOAD PUSH1 0x1 PUSH1 0x1 PUSH1 0xA0 SHL SUB AND PUSH1 0x1 PUSH1 0x1 PUSH1 0xA0 SHL SUB AND DUP2 MSTORE PUSH1 0x20 ADD SWAP1 DUP2 MSTORE PUSH1 0x20 ADD PUSH1 0x0 KECCAK256 PUSH1 0x0 DUP5 SWAP2 SWAP1 POP SSTORE DUP4 SWAP2 SWAP1 POP SSTORE POP POP PUSH1 0x0 PUSH2 0xC44 DUP4 DUP4 DUP2 MLOAD DUP2 LT PUSH2 0xC36 JUMPI PUSH2 0xC36 PUSH2 0x2A56 JUMP JUMPDEST PUSH1 0x20 MUL PUSH1 0x20 ADD ADD MLOAD DUP6 PUSH2 0x7AC JUMP JUMPDEST SWAP1 POP TIMESTAMP PUSH1 0x6 PUSH1 0x0 DUP6 DUP6 DUP2 MLOAD DUP2 LT PUSH2 0xC5D JUMPI PUSH2 0xC5D PUSH2 0x2A56 JUMP JUMPDEST PUSH1 0x20 MUL PUSH1 0x20 ADD ADD MLOAD PUSH1 0x1 PUSH1 0x1 PUSH1 0xA0 SHL SUB AND PUSH1 0x1 PUSH1 0x1 PUSH1 0xA0 SHL SUB AND DUP2 MSTORE PUSH1 0x20 ADD SWAP1 DUP2 MSTORE PUSH1 0x20 ADD PUSH1 0x0 KECCAK256 PUSH1 0x0 DUP7 PUSH1 0x1 PUSH1 0x1 PUSH1 0xA0 SHL SUB AND PUSH1 0x1 PUSH1 0x1 PUSH1 0xA0 SHL SUB AND DUP2 MSTORE PUSH1 0x20 ADD SWAP1 DUP2 MSTORE PUSH1 0x20 ADD PUSH1 0x0 KECCAK256 DUP2 SWAP1 SSTORE POP PUSH1 0x5 PUSH1 0x0 DUP5 DUP5 DUP2 MLOAD DUP2 LT PUSH2 0xCC2 JUMPI PUSH2 0xCC2 PUSH2 0x2A56 JUMP JUMPDEST PUSH1 0x20 MUL PUSH1 0x20 ADD ADD MLOAD PUSH1 0x1 PUSH1 0x1 PUSH1 0xA0 SHL SUB AND PUSH1 0x1 PUSH1 0x1 PUSH1 0xA0 SHL SUB AND DUP2 MSTORE PUSH1 0x20 ADD SWAP1 DUP2 MSTORE PUSH1 0x20 ADD PUSH1 0x0 KECCAK256 SLOAD PUSH1 0x7 PUSH1 0x0 DUP6 DUP6 DUP2 MLOAD DUP2 LT PUSH2 0xD01 JUMPI PUSH2 0xD01 PUSH2 0x2A56 JUMP JUMPDEST PUSH1 0x20 SWAP1 DUP2 MUL SWAP2 SWAP1 SWAP2 ADD DUP2 ADD MLOAD PUSH1 0x1 PUSH1 0x1 PUSH1 0xA0 SHL SUB SWAP1 DUP2 AND DUP4 MSTORE DUP3 DUP3 ADD SWAP4 SWAP1 SWAP4 MSTORE PUSH1 0x40 SWAP2 DUP3 ADD PUSH1 0x0 SWAP1 DUP2 KECCAK256 SWAP4 DUP10 AND DUP2 MSTORE SWAP3 SWAP1 MSTORE SWAP1 KECCAK256 SSTORE DUP1 ISZERO PUSH2 0xD60 JUMPI PUSH2 0xD60 DUP4 DUP4 DUP2 MLOAD DUP2 LT PUSH2 0xD51 JUMPI PUSH2 0xD51 PUSH2 0x2A56 JUMP JUMPDEST PUSH1 0x20 MUL PUSH1 0x20 ADD ADD MLOAD DUP6 DUP4 PUSH2 0x1FA5 JUMP JUMPDEST DUP3 DUP3 DUP2 MLOAD DUP2 LT PUSH2 0xD72 JUMPI PUSH2 0xD72 PUSH2 0x2A56 JUMP JUMPDEST PUSH1 0x20 MUL PUSH1 0x20 ADD ADD MLOAD PUSH1 0x1 PUSH1 0x1 PUSH1 0xA0 SHL SUB AND CALLER PUSH1 0x1 PUSH1 0x1 PUSH1 0xA0 SHL SUB AND PUSH32 0x9AA05B3D70A9E3E2F004F039648839560576334FB45C81F91B6DB03AD9E2EFC9 DUP4 PUSH1 0x40 MLOAD PUSH2 0xDBE SWAP2 DUP2 MSTORE PUSH1 0x20 ADD SWAP1 JUMP JUMPDEST PUSH1 0x40 MLOAD DUP1 SWAP2 SUB SWAP1 LOG3 POP DUP1 PUSH2 0xDD1 DUP2 PUSH2 0x2A04 JUMP JUMPDEST SWAP2 POP POP PUSH2 0xB68 JUMP JUMPDEST POP PUSH1 0x1 PUSH1 0x1 PUSH1 0xA0 SHL SUB DUP3 AND PUSH1 0x0 SWAP1 DUP2 MSTORE PUSH1 0x2 PUSH1 0x20 MSTORE PUSH1 0x40 DUP2 KECCAK256 SLOAD PUSH1 0x1 DUP1 SLOAD SWAP2 SWAP3 DUP4 SWAP3 PUSH2 0xE06 SWAP1 DUP5 SWAP1 PUSH2 0x2994 JUMP JUMPDEST SWAP1 SWAP2 SSTORE POP PUSH2 0xE15 SWAP1 POP DUP4 PUSH2 0x1227 JUMP JUMPDEST PUSH1 0x1 PUSH1 0x1 PUSH1 0xA0 SHL SUB DUP5 AND PUSH1 0x0 SWAP1 DUP2 MSTORE PUSH1 0x2 PUSH1 0x20 MSTORE PUSH1 0x40 DUP2 KECCAK256 DUP3 SWAP1 SSTORE PUSH1 0x1 DUP1 SLOAD SWAP3 SWAP4 POP DUP4 SWAP3 SWAP1 SWAP2 SWAP1 PUSH2 0xE47 SWAP1 DUP5 SWAP1 PUSH2 0x29CD JUMP JUMPDEST SWAP1 SWAP2 SSTORE POP POP PUSH1 0x1 PUSH1 0x1 PUSH1 0xA0 SHL SUB DUP4 AND PUSH1 0x0 SWAP1 DUP2 MSTORE PUSH1 0x2 PUSH1 0x20 MSTORE PUSH1 0x40 SWAP1 KECCAK256 SLOAD PUSH2 0xE70 SWAP1 DUP5 SWAP1 PUSH2 0x2039 JUMP JUMPDEST PUSH2 0xE78 PUSH2 0x2143 JUMP JUMPDEST POP POP PUSH1 0x1 PUSH1 0x0 SSTORE POP JUMP JUMPDEST PUSH2 0xE8C DUP3 DUP3 PUSH2 0x21E8 JUMP JUMPDEST PUSH1 0x1 PUSH1 0x1 PUSH1 0xA0 SHL SUB SWAP1 SWAP4 AND PUSH1 0x0 SWAP1 DUP2 MSTORE PUSH1 0x5 PUSH1 0x20 SWAP1 DUP2 MSTORE PUSH1 0x40 DUP1 DUP4 KECCAK256 PUSH1 0x4 SWAP1 SWAP3 MSTORE SWAP1 SWAP2 KECCAK256 SWAP4 SWAP1 SWAP4 SSTORE SWAP1 SWAP2 SSTORE POP JUMP JUMPDEST PUSH1 0x10 SLOAD PUSH1 0x0 SWAP1 DUP1 PUSH2 0xECE JUMPI POP PUSH1 0x0 SWAP3 SWAP2 POP POP JUMP JUMPDEST DUP3 PUSH1 0xF PUSH1 0x0 PUSH2 0xEDE PUSH1 0x1 DUP6 PUSH2 0x2994 JUMP JUMPDEST DUP2 MSTORE PUSH1 0x20 ADD SWAP1 DUP2 MSTORE PUSH1 0x20 ADD PUSH1 0x0 KECCAK256 PUSH1 0x0 ADD SLOAD GT PUSH2 0xF07 JUMPI PUSH2 0xF00 PUSH1 0x1 DUP3 PUSH2 0x2994 JUMP JUMPDEST SWAP4 SWAP3 POP POP POP JUMP JUMPDEST PUSH1 0x0 DUP1 MSTORE PUSH1 0xF PUSH1 0x20 MSTORE PUSH32 0xF4803E074BD026BAAF6ED2E288C9515F68C72FB7216EEBDD7CAE1718A53EC375 SLOAD DUP4 LT ISZERO PUSH2 0xF42 JUMPI POP PUSH1 0x0 SWAP3 SWAP2 POP POP JUMP JUMPDEST PUSH1 0x0 DUP1 PUSH2 0xF50 PUSH1 0x1 DUP5 PUSH2 0x2994 JUMP JUMPDEST SWAP1 POP JUMPDEST DUP2 DUP2 GT ISZERO PUSH2 0xFE4 JUMPI PUSH1 0x0 PUSH1 0x2 PUSH2 0xF69 DUP5 DUP5 PUSH2 0x2994 JUMP JUMPDEST PUSH2 0xF73 SWAP2 SWAP1 PUSH2 0x29AB JUMP JUMPDEST PUSH2 0xF7D SWAP1 DUP4 PUSH2 0x2994 JUMP JUMPDEST PUSH1 0x0 DUP2 DUP2 MSTORE PUSH1 0xF PUSH1 0x20 SWAP1 DUP2 MSTORE PUSH1 0x40 SWAP2 DUP3 SWAP1 KECCAK256 DUP3 MLOAD DUP1 DUP5 ADD SWAP1 SWAP4 MSTORE DUP1 SLOAD DUP1 DUP5 MSTORE PUSH1 0x1 SWAP1 SWAP2 ADD SLOAD SWAP2 DUP4 ADD SWAP2 SWAP1 SWAP2 MSTORE SWAP2 SWAP3 POP SWAP1 DUP8 EQ ISZERO PUSH2 0xFBE JUMPI POP SWAP6 SWAP5 POP POP POP POP POP JUMP JUMPDEST DUP1 MLOAD DUP8 GT ISZERO PUSH2 0xFCF JUMPI DUP2 SWAP4 POP PUSH2 0xFDD JUMP JUMPDEST PUSH2 0xFDA PUSH1 0x1 DUP4 PUSH2 0x2994 JUMP JUMPDEST SWAP3 POP JUMPDEST POP POP PUSH2 0xF53 JUMP JUMPDEST POP SWAP4 SWAP3 POP POP POP JUMP JUMPDEST CALLER PUSH1 0x0 SWAP1 DUP2 MSTORE PUSH1 0xA PUSH1 0x20 MSTORE PUSH1 0x40 SWAP1 KECCAK256 SLOAD PUSH2 0x1005 SWAP1 PUSH2 0xA3C JUMP JUMPDEST JUMP JUMPDEST PUSH32 0x0 PUSH1 0x1 PUSH1 0x1 PUSH1 0xA0 SHL SUB AND DUP3 PUSH1 0x1 PUSH1 0x1 PUSH1 0xA0 SHL SUB AND EQ ISZERO PUSH2 0x1074 JUMPI PUSH1 0x40 MLOAD PUSH3 0x461BCD PUSH1 0xE5 SHL DUP2 MSTORE PUSH1 0x20 PUSH1 0x4 DUP3 ADD MSTORE PUSH1 0x8 PUSH1 0x24 DUP3 ADD MSTORE PUSH8 0x6E6F207374616B65 PUSH1 0xC0 SHL PUSH1 0x44 DUP3 ADD MSTORE PUSH1 0x64 ADD PUSH2 0xA96 JUMP JUMPDEST PUSH1 0x1 PUSH1 0x1 PUSH1 0xA0 SHL SUB DUP3 AND PUSH1 0x0 SWAP1 DUP2 MSTORE PUSH1 0x3 PUSH1 0x20 MSTORE PUSH1 0x40 SWAP1 KECCAK256 SLOAD PUSH2 0x109D JUMPI PUSH2 0x109D DUP3 PUSH1 0x0 TIMESTAMP PUSH2 0x2347 JUMP JUMPDEST PUSH2 0x10A6 DUP3 PUSH2 0x1DCA JUMP JUMPDEST PUSH1 0x1 PUSH1 0x1 PUSH1 0xA0 SHL SUB DUP5 AND PUSH1 0x0 SWAP1 DUP2 MSTORE PUSH1 0x5 PUSH1 0x20 SWAP1 DUP2 MSTORE PUSH1 0x40 DUP1 DUP4 KECCAK256 PUSH1 0x4 DUP4 MSTORE DUP2 DUP5 KECCAK256 SWAP5 SWAP1 SWAP5 SSTORE SWAP4 SWAP1 SWAP3 SSTORE PUSH1 0x3 DUP3 MSTORE DUP3 DUP2 KECCAK256 DUP5 SWAP1 SSTORE PUSH1 0xC SWAP1 SWAP2 MSTORE KECCAK256 SLOAD PUSH1 0xFF AND PUSH2 0x114E JUMPI PUSH1 0x1 PUSH1 0x1 PUSH1 0xA0 SHL SUB DUP3 AND PUSH1 0x0 DUP2 DUP2 MSTORE PUSH1 0xC PUSH1 0x20 MSTORE PUSH1 0x40 DUP2 KECCAK256 DUP1 SLOAD PUSH1 0xFF NOT AND PUSH1 0x1 SWAP1 DUP2 OR SWAP1 SWAP2 SSTORE PUSH1 0xB DUP1 SLOAD SWAP2 DUP3 ADD DUP2 SSTORE SWAP1 SWAP2 MSTORE PUSH32 0x175B7A638427703F0DBE7BB9BBF987A2551717B34E79F33B5B1008D1FA01DB9 ADD DUP1 SLOAD PUSH1 0x1 PUSH1 0x1 PUSH1 0xA0 SHL SUB NOT AND SWAP1 SWAP2 OR SWAP1 SSTORE JUMPDEST PUSH1 0x40 MLOAD DUP2 DUP2 MSTORE PUSH1 0x1 PUSH1 0x1 PUSH1 0xA0 SHL SUB DUP4 AND SWAP1 CALLER SWAP1 PUSH32 0xF70D5C697DE7EA828DF48E5C4573CB2194C659F1901F70110C52B066DCF50826 SWAP1 PUSH1 0x20 ADD PUSH1 0x40 MLOAD DUP1 SWAP2 SUB SWAP1 LOG3 POP POP JUMP JUMPDEST PUSH1 0x40 MLOAD PUSH4 0x70A08231 PUSH1 0xE0 SHL DUP2 MSTORE CALLER PUSH1 0x4 DUP3 ADD MSTORE PUSH2 0x1224 SWAP1 PUSH32 0x0 PUSH1 0x1 PUSH1 0x1 PUSH1 0xA0 SHL SUB AND SWAP1 PUSH4 0x70A08231 SWAP1 PUSH1 0x24 ADD PUSH1 0x20 PUSH1 0x40 MLOAD DUP1 DUP4 SUB DUP2 DUP7 GAS STATICCALL ISZERO DUP1 ISZERO PUSH2 0x11FA JUMPI RETURNDATASIZE PUSH1 0x0 DUP1 RETURNDATACOPY RETURNDATASIZE PUSH1 0x0 REVERT JUMPDEST POP POP POP POP PUSH1 0x40 MLOAD RETURNDATASIZE PUSH1 0x1F NOT PUSH1 0x1F DUP3 ADD AND DUP3 ADD DUP1 PUSH1 0x40 MSTORE POP DUP2 ADD SWAP1 PUSH2 0x121E SWAP2 SWAP1 PUSH2 0x2A6C JUMP JUMPDEST DUP3 PUSH2 0x14CC JUMP JUMPDEST POP JUMP JUMPDEST PUSH1 0x1 PUSH1 0x1 PUSH1 0xA0 SHL SUB DUP2 AND PUSH1 0x0 SWAP1 DUP2 MSTORE PUSH1 0x8 PUSH1 0x20 SWAP1 DUP2 MSTORE PUSH1 0x40 DUP1 DUP4 KECCAK256 SLOAD PUSH1 0xA SWAP1 SWAP3 MSTORE DUP3 KECCAK256 SLOAD DUP3 PUSH1 0x64 PUSH2 0x1259 DUP4 PUSH1 0x1E PUSH2 0x29E5 JUMP JUMPDEST PUSH2 0x1263 SWAP2 SWAP1 PUSH2 0x29AB JUMP JUMPDEST PUSH1 0x40 MLOAD PUSH4 0x53E56423 PUSH1 0xE1 SHL DUP2 MSTORE PUSH1 0x1 PUSH1 0x1 PUSH1 0xA0 SHL SUB PUSH32 0x0 DUP2 AND PUSH1 0x4 DUP4 ADD MSTORE SWAP2 SWAP3 POP PUSH1 0x0 SWAP2 DUP3 SWAP2 PUSH32 0x0 SWAP1 SWAP2 AND SWAP1 PUSH4 0xA7CAC846 SWAP1 PUSH1 0x24 ADD PUSH1 0x20 PUSH1 0x40 MLOAD DUP1 DUP4 SUB DUP2 DUP7 GAS STATICCALL ISZERO DUP1 ISZERO PUSH2 0x12F3 JUMPI RETURNDATASIZE PUSH1 0x0 DUP1 RETURNDATACOPY RETURNDATASIZE PUSH1 0x0 REVERT JUMPDEST POP POP POP POP PUSH1 0x40 MLOAD RETURNDATASIZE PUSH1 0x1F NOT PUSH1 0x1F DUP3 ADD AND DUP3 ADD DUP1 PUSH1 0x40 MSTORE POP DUP2 ADD SWAP1 PUSH2 0x1317 SWAP2 SWAP1 PUSH2 0x2A6C JUMP JUMPDEST PUSH1 0x40 MLOAD PUSH4 0x31A9108F PUSH1 0xE1 SHL DUP2 MSTORE PUSH1 0x4 DUP2 ADD DUP8 SWAP1 MSTORE SWAP1 SWAP2 POP PUSH32 0x0 PUSH1 0x1 PUSH1 0x1 PUSH1 0xA0 SHL SUB AND SWAP1 PUSH4 0x6352211E SWAP1 PUSH1 0x24 ADD PUSH1 0x20 PUSH1 0x40 MLOAD DUP1 DUP4 SUB DUP2 DUP7 GAS STATICCALL ISZERO DUP1 ISZERO PUSH2 0x137F JUMPI RETURNDATASIZE PUSH1 0x0 DUP1 RETURNDATACOPY RETURNDATASIZE PUSH1 0x0 REVERT JUMPDEST POP POP POP POP PUSH1 0x40 MLOAD RETURNDATASIZE PUSH1 0x1F NOT PUSH1 0x1F DUP3 ADD AND DUP3 ADD DUP1 PUSH1 0x40 MSTORE POP DUP2 ADD SWAP1 PUSH2 0x13A3 SWAP2 SWAP1 PUSH2 0x2A85 JUMP JUMPDEST PUSH1 0x1 PUSH1 0x1 PUSH1 0xA0 SHL SUB AND DUP8 PUSH1 0x1 PUSH1 0x1 PUSH1 0xA0 SHL SUB AND EQ DUP1 ISZERO PUSH2 0x13C3 JUMPI POP PUSH1 0x0 DUP2 GT JUMPDEST ISZERO PUSH2 0x14AE JUMPI PUSH1 0x40 MLOAD PUSH4 0x348C952D PUSH1 0xE2 SHL DUP2 MSTORE PUSH1 0x4 DUP2 ADD DUP7 SWAP1 MSTORE PUSH1 0x1 PUSH1 0x1 PUSH1 0xA0 SHL SUB PUSH32 0x0 DUP2 AND PUSH1 0x24 DUP4 ADD MSTORE PUSH32 0x0 AND SWAP1 PUSH4 0xD23254B4 SWAP1 PUSH1 0x44 ADD PUSH1 0x20 PUSH1 0x40 MLOAD DUP1 DUP4 SUB DUP2 DUP7 GAS STATICCALL ISZERO DUP1 ISZERO PUSH2 0x1455 JUMPI RETURNDATASIZE PUSH1 0x0 DUP1 RETURNDATACOPY RETURNDATASIZE PUSH1 0x0 REVERT JUMPDEST POP POP POP POP PUSH1 0x40 MLOAD RETURNDATASIZE PUSH1 0x1F NOT PUSH1 0x1F DUP3 ADD AND DUP3 ADD DUP1 PUSH1 0x40 MSTORE POP DUP2 ADD SWAP1 PUSH2 0x1479 SWAP2 SWAP1 PUSH2 0x2A6C JUMP JUMPDEST SWAP2 POP PUSH1 0x64 DUP2 DUP4 PUSH1 0x9 SLOAD PUSH2 0x148C SWAP2 SWAP1 PUSH2 0x29E5 JUMP JUMPDEST PUSH2 0x1496 SWAP2 SWAP1 PUSH2 0x29AB JUMP JUMPDEST PUSH2 0x14A1 SWAP1 PUSH1 0x46 PUSH2 0x29E5 JUMP JUMPDEST PUSH2 0x14AB SWAP2 SWAP1 PUSH2 0x29AB JUMP JUMPDEST SWAP2 POP JUMPDEST PUSH2 0x14C1 PUSH2 0x14BB DUP4 DUP6 PUSH2 0x29CD JUMP JUMPDEST DUP6 PUSH2 0x2436 JUMP JUMPDEST SWAP8 SWAP7 POP POP POP POP POP POP POP JUMP JUMPDEST PUSH1 0x2 PUSH1 0x0 SLOAD EQ ISZERO PUSH2 0x14EF JUMPI PUSH1 0x40 MLOAD PUSH3 0x461BCD PUSH1 0xE5 SHL DUP2 MSTORE PUSH1 0x4 ADD PUSH2 0xA96 SWAP1 PUSH2 0x2A1F JUMP JUMPDEST PUSH1 0x2 PUSH1 0x0 SSTORE DUP2 PUSH2 0x14FE JUMPI PUSH1 0x0 DUP1 REVERT JUMPDEST PUSH2 0x152A PUSH32 0x0 CALLER ADDRESS DUP6 PUSH2 0x2445 JUMP JUMPDEST DUP2 PUSH1 0x9 PUSH1 0x0 DUP3 DUP3 SLOAD PUSH2 0x153C SWAP2 SWAP1 PUSH2 0x29CD JUMP JUMPDEST SWAP1 SWAP2 SSTORE POP POP CALLER PUSH1 0x0 SWAP1 DUP2 MSTORE PUSH1 0xA PUSH1 0x20 MSTORE PUSH1 0x40 DUP2 KECCAK256 DUP1 SLOAD DUP5 SWAP3 SWAP1 PUSH2 0x1560 SWAP1 DUP5 SWAP1 PUSH2 0x29CD JUMP JUMPDEST SWAP1 SWAP2 SSTORE POP POP DUP1 ISZERO PUSH2 0x16D2 JUMPI PUSH1 0x40 MLOAD PUSH4 0x31A9108F PUSH1 0xE1 SHL DUP2 MSTORE PUSH1 0x4 DUP2 ADD DUP3 SWAP1 MSTORE CALLER SWAP1 PUSH1 0x1 PUSH1 0x1 PUSH1 0xA0 SHL SUB PUSH32 0x0 AND SWAP1 PUSH4 0x6352211E SWAP1 PUSH1 0x24 ADD PUSH1 0x20 PUSH1 0x40 MLOAD DUP1 DUP4 SUB DUP2 DUP7 GAS STATICCALL ISZERO DUP1 ISZERO PUSH2 0x15D2 JUMPI RETURNDATASIZE PUSH1 0x0 DUP1 RETURNDATACOPY RETURNDATASIZE PUSH1 0x0 REVERT JUMPDEST POP POP POP POP PUSH1 0x40 MLOAD RETURNDATASIZE PUSH1 0x1F NOT PUSH1 0x1F DUP3 ADD AND DUP3 ADD DUP1 PUSH1 0x40 MSTORE POP DUP2 ADD SWAP1 PUSH2 0x15F6 SWAP2 SWAP1 PUSH2 0x2A85 JUMP JUMPDEST PUSH1 0x1 PUSH1 0x1 PUSH1 0xA0 SHL SUB AND EQ PUSH2 0x1609 JUMPI PUSH1 0x0 DUP1 REVERT JUMPDEST CALLER PUSH1 0x0 SWAP1 DUP2 MSTORE PUSH1 0x8 PUSH1 0x20 MSTORE PUSH1 0x40 SWAP1 KECCAK256 SLOAD PUSH2 0x16B2 JUMPI CALLER PUSH1 0x0 DUP2 DUP2 MSTORE PUSH1 0x8 PUSH1 0x20 MSTORE PUSH1 0x40 SWAP1 DUP2 SWAP1 KECCAK256 DUP4 SWAP1 SSTORE MLOAD PUSH4 0x698473E3 PUSH1 0xE0 SHL DUP2 MSTORE PUSH1 0x4 DUP2 ADD DUP4 SWAP1 MSTORE PUSH1 0x24 DUP2 ADD SWAP2 SWAP1 SWAP2 MSTORE PUSH1 0x1 PUSH1 0x1 PUSH1 0xA0 SHL SUB PUSH32 0x0 AND SWAP1 PUSH4 0x698473E3 SWAP1 PUSH1 0x44 ADD PUSH1 0x0 PUSH1 0x40 MLOAD DUP1 DUP4 SUB DUP2 PUSH1 0x0 DUP8 DUP1 EXTCODESIZE ISZERO DUP1 ISZERO PUSH2 0x1699 JUMPI PUSH1 0x0 DUP1 REVERT JUMPDEST POP GAS CALL ISZERO DUP1 ISZERO PUSH2 0x16AD JUMPI RETURNDATASIZE PUSH1 0x0 DUP1 RETURNDATACOPY RETURNDATASIZE PUSH1 0x0 REVERT JUMPDEST POP POP POP POP JUMPDEST CALLER PUSH1 0x0 SWAP1 DUP2 MSTORE PUSH1 0x8 PUSH1 0x20 MSTORE PUSH1 0x40 SWAP1 KECCAK256 SLOAD DUP2 EQ PUSH2 0x16CD JUMPI PUSH1 0x0 DUP1 REVERT JUMPDEST PUSH2 0x16E4 JUMP JUMPDEST POP CALLER PUSH1 0x0 SWAP1 DUP2 MSTORE PUSH1 0x8 PUSH1 0x20 MSTORE PUSH1 0x40 SWAP1 KECCAK256 SLOAD JUMPDEST CALLER PUSH1 0x0 SWAP1 DUP2 MSTORE PUSH1 0x2 PUSH1 0x20 MSTORE PUSH1 0x40 DUP2 KECCAK256 SLOAD PUSH1 0x1 DUP1 SLOAD SWAP2 SWAP3 DUP4 SWAP3 PUSH2 0x1707 SWAP1 DUP5 SWAP1 PUSH2 0x2994 JUMP JUMPDEST SWAP1 SWAP2 SSTORE POP PUSH2 0x1716 SWAP1 POP CALLER PUSH2 0x1227 JUMP JUMPDEST CALLER PUSH1 0x0 SWAP1 DUP2 MSTORE PUSH1 0x2 PUSH1 0x20 MSTORE PUSH1 0x40 DUP2 KECCAK256 DUP3 SWAP1 SSTORE PUSH1 0x1 DUP1 SLOAD SWAP3 SWAP4 POP DUP4 SWAP3 SWAP1 SWAP2 SWAP1 PUSH2 0x173F SWAP1 DUP5 SWAP1 PUSH2 0x29CD JUMP JUMPDEST SWAP1 SWAP2 SSTORE POP PUSH2 0x174F SWAP1 POP CALLER DUP3 PUSH2 0x2039 JUMP JUMPDEST PUSH2 0x1757 PUSH2 0x2143 JUMP JUMPDEST PUSH1 0x40 MLOAD PUSH4 0x530E389D PUSH1 0xE1 SHL DUP2 MSTORE PUSH1 0x4 DUP2 ADD DUP4 SWAP1 MSTORE CALLER PUSH1 0x24 DUP3 ADD MSTORE PUSH1 0x44 DUP2 ADD DUP5 SWAP1 MSTORE PUSH32 0x0 PUSH1 0x1 PUSH1 0x1 PUSH1 0xA0 SHL SUB AND SWAP1 PUSH4 0xA61C713A SWAP1 PUSH1 0x64 ADD PUSH1 0x0 PUSH1 0x40 MLOAD DUP1 DUP4 SUB DUP2 PUSH1 0x0 DUP8 DUP1 EXTCODESIZE ISZERO DUP1 ISZERO PUSH2 0x17C6 JUMPI PUSH1 0x0 DUP1 REVERT JUMPDEST POP GAS CALL ISZERO DUP1 ISZERO PUSH2 0x17DA JUMPI RETURNDATASIZE PUSH1 0x0 DUP1 RETURNDATACOPY RETURNDATASIZE PUSH1 0x0 REVERT JUMPDEST POP POP PUSH1 0x40 DUP1 MLOAD DUP6 DUP2 MSTORE PUSH1 0x20 DUP2 ADD DUP8 SWAP1 MSTORE CALLER SWAP4 POP PUSH32 0x90890809C654F11D6E72A28FA60149770A0D11EC6C92319D6CEB2BB0A4EA1A15 SWAP3 POP ADD JUMPDEST PUSH1 0x40 MLOAD DUP1 SWAP2 SUB SWAP1 LOG2 POP POP PUSH1 0x1 PUSH1 0x0 SSTORE POP JUMP JUMPDEST PUSH1 0x0 PUSH1 0x1 SLOAD PUSH1 0x0 EQ ISZERO PUSH2 0x184D JUMPI POP PUSH1 0x1 PUSH1 0x1 PUSH1 0xA0 SHL SUB AND PUSH1 0x0 SWAP1 DUP2 MSTORE PUSH1 0x5 PUSH1 0x20 MSTORE PUSH1 0x40 SWAP1 KECCAK256 SLOAD SWAP1 JUMP JUMPDEST PUSH1 0x1 SLOAD PUSH1 0x1 PUSH1 0x1 PUSH1 0xA0 SHL SUB DUP4 AND PUSH1 0x0 SWAP1 DUP2 MSTORE PUSH1 0x3 PUSH1 0x20 SWAP1 DUP2 MSTORE PUSH1 0x40 DUP1 DUP4 KECCAK256 SLOAD PUSH1 0x4 SWAP1 SWAP3 MSTORE SWAP1 SWAP2 KECCAK256 SLOAD PUSH8 0xDE0B6B3A7640000 SWAP2 SWAP1 PUSH2 0x188A SWAP1 TIMESTAMP PUSH2 0x2994 JUMP JUMPDEST PUSH2 0x1894 SWAP2 SWAP1 PUSH2 0x29E5 JUMP JUMPDEST PUSH2 0x189E SWAP2 SWAP1 PUSH2 0x29E5 JUMP JUMPDEST PUSH2 0x18A8 SWAP2 SWAP1 PUSH2 0x29AB JUMP JUMPDEST PUSH1 0x1 PUSH1 0x1 PUSH1 0xA0 SHL SUB DUP4 AND PUSH1 0x0 SWAP1 DUP2 MSTORE PUSH1 0x5 PUSH1 0x20 MSTORE PUSH1 0x40 SWAP1 KECCAK256 SLOAD PUSH2 0x7A6 SWAP2 SWAP1 PUSH2 0x29CD JUMP JUMPDEST PUSH1 0xB DUP2 DUP2 SLOAD DUP2 LT PUSH2 0x18DB JUMPI PUSH1 0x0 DUP1 REVERT JUMPDEST PUSH1 0x0 SWAP2 DUP3 MSTORE PUSH1 0x20 SWAP1 SWAP2 KECCAK256 ADD SLOAD PUSH1 0x1 PUSH1 0x1 PUSH1 0xA0 SHL SUB AND SWAP1 POP DUP2 JUMP JUMPDEST PUSH1 0x1 PUSH1 0x1 PUSH1 0xA0 SHL SUB DUP3 AND PUSH1 0x0 SWAP1 DUP2 MSTORE PUSH1 0x12 PUSH1 0x20 MSTORE PUSH1 0x40 DUP2 KECCAK256 SLOAD DUP2 SWAP1 DUP1 PUSH2 0x1922 JUMPI PUSH1 0x0 DUP1 SWAP3 POP SWAP3 POP POP PUSH2 0x1B0D JUMP JUMPDEST PUSH1 0x1 PUSH1 0x1 PUSH1 0xA0 SHL SUB DUP6 AND PUSH1 0x0 SWAP1 DUP2 MSTORE PUSH1 0x11 PUSH1 0x20 MSTORE PUSH1 0x40 DUP2 KECCAK256 DUP6 SWAP2 PUSH2 0x1947 PUSH1 0x1 DUP6 PUSH2 0x2994 JUMP JUMPDEST DUP2 MSTORE PUSH1 0x20 ADD SWAP1 DUP2 MSTORE PUSH1 0x20 ADD PUSH1 0x0 KECCAK256 PUSH1 0x0 ADD SLOAD GT PUSH2 0x19E4 JUMPI PUSH1 0x1 PUSH1 0x1 PUSH1 0xA0 SHL SUB DUP6 AND PUSH1 0x0 SWAP1 DUP2 MSTORE PUSH1 0x11 PUSH1 0x20 MSTORE PUSH1 0x40 DUP2 KECCAK256 SWAP1 PUSH2 0x1982 PUSH1 0x1 DUP5 PUSH2 0x2994 JUMP JUMPDEST DUP2 MSTORE PUSH1 0x20 ADD SWAP1 DUP2 MSTORE PUSH1 0x20 ADD PUSH1 0x0 KECCAK256 PUSH1 0x1 ADD SLOAD PUSH1 0x11 PUSH1 0x0 DUP8 PUSH1 0x1 PUSH1 0x1 PUSH1 0xA0 SHL SUB AND PUSH1 0x1 PUSH1 0x1 PUSH1 0xA0 SHL SUB AND DUP2 MSTORE PUSH1 0x20 ADD SWAP1 DUP2 MSTORE PUSH1 0x20 ADD PUSH1 0x0 KECCAK256 PUSH1 0x0 PUSH1 0x1 DUP5 PUSH2 0x19C8 SWAP2 SWAP1 PUSH2 0x2994 JUMP JUMPDEST DUP2 MSTORE PUSH1 0x20 ADD SWAP1 DUP2 MSTORE PUSH1 0x20 ADD PUSH1 0x0 KECCAK256 PUSH1 0x0 ADD SLOAD SWAP3 POP SWAP3 POP POP PUSH2 0x1B0D JUMP JUMPDEST PUSH1 0x1 PUSH1 0x1 PUSH1 0xA0 SHL SUB DUP6 AND PUSH1 0x0 SWAP1 DUP2 MSTORE PUSH1 0x11 PUSH1 0x20 SWAP1 DUP2 MSTORE PUSH1 0x40 DUP1 DUP4 KECCAK256 DUP4 DUP1 MSTORE SWAP1 SWAP2 MSTORE SWAP1 KECCAK256 SLOAD DUP5 LT ISZERO PUSH2 0x1A1C JUMPI PUSH1 0x0 DUP1 SWAP3 POP SWAP3 POP POP PUSH2 0x1B0D JUMP JUMPDEST PUSH1 0x0 DUP1 PUSH2 0x1A2A PUSH1 0x1 DUP5 PUSH2 0x2994 JUMP JUMPDEST SWAP1 POP JUMPDEST DUP2 DUP2 GT ISZERO PUSH2 0x1ADC JUMPI PUSH1 0x0 PUSH1 0x2 PUSH2 0x1A43 DUP5 DUP5 PUSH2 0x2994 JUMP JUMPDEST PUSH2 0x1A4D SWAP2 SWAP1 PUSH2 0x29AB JUMP JUMPDEST PUSH2 0x1A57 SWAP1 DUP4 PUSH2 0x2994 JUMP JUMPDEST PUSH1 0x1 PUSH1 0x1 PUSH1 0xA0 SHL SUB DUP10 AND PUSH1 0x0 SWAP1 DUP2 MSTORE PUSH1 0x11 PUSH1 0x20 SWAP1 DUP2 MSTORE PUSH1 0x40 DUP1 DUP4 KECCAK256 DUP5 DUP5 MSTORE DUP3 MSTORE SWAP2 DUP3 SWAP1 KECCAK256 DUP3 MLOAD DUP1 DUP5 ADD SWAP1 SWAP4 MSTORE DUP1 SLOAD DUP1 DUP5 MSTORE PUSH1 0x1 SWAP1 SWAP2 ADD SLOAD SWAP2 DUP4 ADD SWAP2 SWAP1 SWAP2 MSTORE SWAP2 SWAP3 POP SWAP1 DUP9 EQ ISZERO PUSH2 0x1AB6 JUMPI PUSH1 0x20 DUP2 ADD MLOAD SWAP1 MLOAD SWAP1 SWAP7 POP SWAP5 POP PUSH2 0x1B0D SWAP4 POP POP POP POP JUMP JUMPDEST DUP1 MLOAD DUP9 GT ISZERO PUSH2 0x1AC7 JUMPI DUP2 SWAP4 POP PUSH2 0x1AD5 JUMP JUMPDEST PUSH2 0x1AD2 PUSH1 0x1 DUP4 PUSH2 0x2994 JUMP JUMPDEST SWAP3 POP JUMPDEST POP POP PUSH2 0x1A2D JUMP JUMPDEST POP PUSH1 0x1 PUSH1 0x1 PUSH1 0xA0 SHL SUB DUP7 AND PUSH1 0x0 SWAP1 DUP2 MSTORE PUSH1 0x11 PUSH1 0x20 SWAP1 DUP2 MSTORE PUSH1 0x40 DUP1 DUP4 KECCAK256 SWAP4 DUP4 MSTORE SWAP3 SWAP1 MSTORE KECCAK256 PUSH1 0x1 DUP2 ADD SLOAD SWAP1 SLOAD SWAP1 SWAP4 POP SWAP2 POP POP JUMPDEST SWAP3 POP SWAP3 SWAP1 POP JUMP JUMPDEST PUSH1 0x2 PUSH1 0x0 SLOAD EQ ISZERO PUSH2 0x1B37 JUMPI PUSH1 0x40 MLOAD PUSH3 0x461BCD PUSH1 0xE5 SHL DUP2 MSTORE PUSH1 0x4 ADD PUSH2 0xA96 SWAP1 PUSH2 0x2A1F JUMP JUMPDEST PUSH1 0x2 PUSH1 0x0 DUP2 SWAP1 SSTORE POP DUP2 PUSH1 0x9 PUSH1 0x0 DUP3 DUP3 SLOAD PUSH2 0x1B51 SWAP2 SWAP1 PUSH2 0x2994 JUMP JUMPDEST SWAP1 SWAP2 SSTORE POP POP CALLER PUSH1 0x0 SWAP1 DUP2 MSTORE PUSH1 0xA PUSH1 0x20 MSTORE PUSH1 0x40 DUP2 KECCAK256 DUP1 SLOAD DUP5 SWAP3 SWAP1 PUSH2 0x1B75 SWAP1 DUP5 SWAP1 PUSH2 0x2994 JUMP JUMPDEST SWAP1 SWAP2 SSTORE POP PUSH2 0x1BA6 SWAP1 POP PUSH32 0x0 CALLER DUP5 PUSH2 0x2575 JUMP JUMPDEST DUP1 ISZERO PUSH2 0x1C60 JUMPI CALLER PUSH1 0x0 SWAP1 DUP2 MSTORE PUSH1 0x8 PUSH1 0x20 MSTORE PUSH1 0x40 SWAP1 KECCAK256 SLOAD DUP2 EQ PUSH2 0x1BC7 JUMPI PUSH1 0x0 DUP1 REVERT JUMPDEST CALLER PUSH1 0x0 DUP2 DUP2 MSTORE PUSH1 0x8 PUSH1 0x20 MSTORE PUSH1 0x40 DUP1 DUP3 KECCAK256 SWAP2 SWAP1 SWAP2 SSTORE MLOAD PUSH4 0x411B1F77 PUSH1 0xE0 SHL DUP2 MSTORE PUSH1 0x4 DUP2 ADD DUP4 SWAP1 MSTORE PUSH1 0x24 DUP2 ADD SWAP2 SWAP1 SWAP2 MSTORE PUSH1 0x1 PUSH1 0x1 PUSH1 0xA0 SHL SUB PUSH32 0x0 AND SWAP1 PUSH4 0x411B1F77 SWAP1 PUSH1 0x44 ADD PUSH1 0x0 PUSH1 0x40 MLOAD DUP1 DUP4 SUB DUP2 PUSH1 0x0 DUP8 DUP1 EXTCODESIZE ISZERO DUP1 ISZERO PUSH2 0x1C43 JUMPI PUSH1 0x0 DUP1 REVERT JUMPDEST POP GAS CALL ISZERO DUP1 ISZERO PUSH2 0x1C57 JUMPI RETURNDATASIZE PUSH1 0x0 DUP1 RETURNDATACOPY RETURNDATASIZE PUSH1 0x0 REVERT JUMPDEST POP POP POP POP PUSH2 0x1C72 JUMP JUMPDEST POP CALLER PUSH1 0x0 SWAP1 DUP2 MSTORE PUSH1 0x8 PUSH1 0x20 MSTORE PUSH1 0x40 SWAP1 KECCAK256 SLOAD JUMPDEST CALLER PUSH1 0x0 SWAP1 DUP2 MSTORE PUSH1 0x2 PUSH1 0x20 MSTORE PUSH1 0x40 DUP2 KECCAK256 SLOAD PUSH1 0x1 DUP1 SLOAD SWAP2 SWAP3 DUP4 SWAP3 PUSH2 0x1C95 SWAP1 DUP5 SWAP1 PUSH2 0x2994 JUMP JUMPDEST SWAP1 SWAP2 SSTORE POP PUSH2 0x1CA4 SWAP1 POP CALLER PUSH2 0x1227 JUMP JUMPDEST CALLER PUSH1 0x0 SWAP1 DUP2 MSTORE PUSH1 0x2 PUSH1 0x20 MSTORE PUSH1 0x40 DUP2 KECCAK256 DUP3 SWAP1 SSTORE PUSH1 0x1 DUP1 SLOAD SWAP3 SWAP4 POP DUP4 SWAP3 SWAP1 SWAP2 SWAP1 PUSH2 0x1CCD SWAP1 DUP5 SWAP1 PUSH2 0x29CD JUMP JUMPDEST SWAP1 SWAP2 SSTORE POP POP CALLER PUSH1 0x0 DUP2 DUP2 MSTORE PUSH1 0x2 PUSH1 0x20 MSTORE PUSH1 0x40 SWAP1 KECCAK256 SLOAD PUSH2 0x1CEC SWAP2 SWAP1 PUSH2 0x2039 JUMP JUMPDEST PUSH2 0x1CF4 PUSH2 0x2143 JUMP JUMPDEST PUSH1 0x40 MLOAD PUSH4 0x3AA53B91 PUSH1 0xE2 SHL DUP2 MSTORE PUSH1 0x4 DUP2 ADD DUP4 SWAP1 MSTORE CALLER PUSH1 0x24 DUP3 ADD MSTORE PUSH1 0x44 DUP2 ADD DUP5 SWAP1 MSTORE PUSH32 0x0 PUSH1 0x1 PUSH1 0x1 PUSH1 0xA0 SHL SUB AND SWAP1 PUSH4 0xEA94EE44 SWAP1 PUSH1 0x64 ADD PUSH1 0x0 PUSH1 0x40 MLOAD DUP1 DUP4 SUB DUP2 PUSH1 0x0 DUP8 DUP1 EXTCODESIZE ISZERO DUP1 ISZERO PUSH2 0x1D63 JUMPI PUSH1 0x0 DUP1 REVERT JUMPDEST POP GAS CALL ISZERO DUP1 ISZERO PUSH2 0x1D77 JUMPI RETURNDATASIZE PUSH1 0x0 DUP1 RETURNDATACOPY RETURNDATASIZE PUSH1 0x0 REVERT JUMPDEST POP POP PUSH1 0x40 DUP1 MLOAD DUP6 DUP2 MSTORE PUSH1 0x20 DUP2 ADD DUP8 SWAP1 MSTORE CALLER SWAP4 POP PUSH32 0xF279E6A1F5E320CCA91135676D9CB6E44CA8A08C0B88342BCDB1144F6511B568 SWAP3 POP ADD PUSH2 0x1812 JUMP JUMPDEST PUSH1 0x0 DUP2 DUP4 LT ISZERO PUSH2 0x1DC3 JUMPI DUP2 PUSH2 0xF00 JUMP JUMPDEST POP SWAP1 SWAP2 SWAP1 POP JUMP JUMPDEST PUSH1 0x1 PUSH1 0x1 PUSH1 0xA0 SHL SUB DUP2 AND PUSH1 0x0 SWAP1 DUP2 MSTORE PUSH1 0x4 PUSH1 0x20 SWAP1 DUP2 MSTORE PUSH1 0x40 DUP1 DUP4 KECCAK256 SLOAD PUSH1 0x5 SWAP1 SWAP3 MSTORE DUP3 KECCAK256 SLOAD PUSH1 0x10 SLOAD DUP4 SWAP3 SWAP2 SWAP1 PUSH2 0x1E02 JUMPI SWAP5 SWAP1 SWAP4 POP SWAP2 POP POP JUMP JUMPDEST PUSH1 0x1 PUSH1 0x1 PUSH1 0xA0 SHL SUB DUP6 AND PUSH1 0x0 SWAP1 DUP2 MSTORE PUSH1 0x3 PUSH1 0x20 MSTORE PUSH1 0x40 SWAP1 KECCAK256 SLOAD PUSH2 0x1E29 JUMPI SWAP5 TIMESTAMP SWAP5 POP SWAP3 POP POP POP JUMP JUMPDEST PUSH1 0x0 PUSH2 0x1E34 DUP4 PUSH2 0xEBA JUMP JUMPDEST SWAP1 POP PUSH1 0x0 PUSH1 0x1 PUSH1 0x10 SLOAD PUSH2 0x1E47 SWAP2 SWAP1 PUSH2 0x2994 JUMP JUMPDEST SWAP1 POP PUSH1 0x1 PUSH2 0x1E55 DUP4 DUP4 PUSH2 0x2994 JUMP JUMPDEST GT ISZERO PUSH2 0x1F2D JUMPI DUP2 JUMPDEST PUSH2 0x1E68 PUSH1 0x1 DUP4 PUSH2 0x2994 JUMP JUMPDEST DUP2 LT ISZERO PUSH2 0x1F2B JUMPI PUSH1 0x0 DUP2 DUP2 MSTORE PUSH1 0xF PUSH1 0x20 SWAP1 DUP2 MSTORE PUSH1 0x40 SWAP2 DUP3 SWAP1 KECCAK256 DUP3 MLOAD DUP1 DUP5 ADD SWAP1 SWAP4 MSTORE DUP1 SLOAD DUP4 MSTORE PUSH1 0x1 ADD SLOAD SWAP1 DUP3 ADD DUP2 SWAP1 MSTORE ISZERO PUSH2 0x1F18 JUMPI PUSH1 0x0 PUSH1 0xF DUP2 PUSH2 0x1EAC DUP6 PUSH1 0x1 PUSH2 0x29CD JUMP JUMPDEST DUP2 MSTORE PUSH1 0x20 ADD SWAP1 DUP2 MSTORE PUSH1 0x20 ADD PUSH1 0x0 KECCAK256 PUSH1 0x40 MLOAD DUP1 PUSH1 0x40 ADD PUSH1 0x40 MSTORE SWAP1 DUP2 PUSH1 0x0 DUP3 ADD SLOAD DUP2 MSTORE PUSH1 0x20 ADD PUSH1 0x1 DUP3 ADD SLOAD DUP2 MSTORE POP POP SWAP1 POP PUSH1 0x0 DUP1 PUSH2 0x1EF7 DUP13 DUP5 PUSH1 0x0 ADD MLOAD DUP7 PUSH1 0x0 ADD MLOAD DUP8 PUSH1 0x20 ADD MLOAD DUP14 PUSH2 0x2690 JUMP JUMPDEST SWAP1 SWAP3 POP SWAP1 POP PUSH2 0x1F06 DUP3 DUP10 PUSH2 0x29CD JUMP JUMPDEST SWAP8 POP PUSH2 0x1F13 DUP13 DUP10 DUP4 PUSH2 0x2347 JUMP JUMPDEST SWAP8 POP POP POP JUMPDEST POP DUP1 PUSH2 0x1F23 DUP2 PUSH2 0x2A04 JUMP JUMPDEST SWAP2 POP POP PUSH2 0x1E5D JUMP JUMPDEST POP JUMPDEST PUSH1 0x0 DUP2 DUP2 MSTORE PUSH1 0xF PUSH1 0x20 SWAP1 DUP2 MSTORE PUSH1 0x40 SWAP2 DUP3 SWAP1 KECCAK256 DUP3 MLOAD DUP1 DUP5 ADD SWAP1 SWAP4 MSTORE DUP1 SLOAD DUP4 MSTORE PUSH1 0x1 ADD SLOAD SWAP1 DUP3 ADD DUP2 SWAP1 MSTORE ISZERO PUSH2 0x1F97 JUMPI PUSH1 0x0 PUSH2 0x1F78 DUP10 TIMESTAMP DUP5 MLOAD PUSH2 0x1F6D SWAP1 DUP11 PUSH2 0x1DB3 JUMP JUMPDEST DUP6 PUSH1 0x20 ADD MLOAD DUP11 PUSH2 0x2690 JUMP JUMPDEST POP SWAP1 POP PUSH2 0x1F85 DUP2 DUP7 PUSH2 0x29CD JUMP JUMPDEST SWAP5 POP PUSH2 0x1F92 DUP10 DUP7 TIMESTAMP PUSH2 0x2347 JUMP JUMPDEST TIMESTAMP SWAP6 POP POP JUMPDEST POP SWAP2 SWAP7 SWAP3 SWAP6 POP SWAP2 SWAP4 POP POP POP POP JUMP JUMPDEST PUSH2 0x1FAF DUP4 DUP3 PUSH2 0x2706 JUMP JUMPDEST PUSH1 0x40 MLOAD PUSH4 0x70A08231 PUSH1 0xE0 SHL DUP2 MSTORE ADDRESS PUSH1 0x4 DUP3 ADD MSTORE PUSH1 0x0 SWAP1 PUSH1 0x1 PUSH1 0x1 PUSH1 0xA0 SHL SUB DUP6 AND SWAP1 PUSH4 0x70A08231 SWAP1 PUSH1 0x24 ADD PUSH1 0x20 PUSH1 0x40 MLOAD DUP1 DUP4 SUB DUP2 DUP7 GAS STATICCALL ISZERO DUP1 ISZERO PUSH2 0x1FF6 JUMPI RETURNDATASIZE PUSH1 0x0 DUP1 RETURNDATACOPY RETURNDATASIZE PUSH1 0x0 REVERT JUMPDEST POP POP POP POP PUSH1 0x40 MLOAD RETURNDATASIZE PUSH1 0x1F NOT PUSH1 0x1F DUP3 ADD AND DUP3 ADD DUP1 PUSH1 0x40 MSTORE POP DUP2 ADD SWAP1 PUSH2 0x201A SWAP2 SWAP1 PUSH2 0x2A6C JUMP JUMPDEST SWAP1 POP DUP1 DUP3 GT ISZERO PUSH2 0x2028 JUMPI DUP1 SWAP2 POP JUMPDEST PUSH2 0x2033 DUP5 DUP5 DUP5 PUSH2 0x2575 JUMP JUMPDEST POP POP POP POP JUMP JUMPDEST PUSH1 0x1 PUSH1 0x1 PUSH1 0xA0 SHL SUB DUP3 AND PUSH1 0x0 SWAP1 DUP2 MSTORE PUSH1 0xE PUSH1 0x20 MSTORE PUSH1 0x40 SWAP1 KECCAK256 SLOAD TIMESTAMP SWAP1 DUP1 ISZERO DUP1 ISZERO SWAP1 PUSH2 0x2097 JUMPI POP PUSH1 0x1 PUSH1 0x1 PUSH1 0xA0 SHL SUB DUP5 AND PUSH1 0x0 SWAP1 DUP2 MSTORE PUSH1 0xD PUSH1 0x20 MSTORE PUSH1 0x40 DUP2 KECCAK256 DUP4 SWAP2 PUSH2 0x2083 PUSH1 0x1 DUP6 PUSH2 0x2994 JUMP JUMPDEST DUP2 MSTORE PUSH1 0x20 ADD SWAP1 DUP2 MSTORE PUSH1 0x20 ADD PUSH1 0x0 KECCAK256 PUSH1 0x0 ADD SLOAD EQ JUMPDEST ISZERO PUSH2 0x20DA JUMPI PUSH1 0x1 PUSH1 0x1 PUSH1 0xA0 SHL SUB DUP5 AND PUSH1 0x0 SWAP1 DUP2 MSTORE PUSH1 0xD PUSH1 0x20 MSTORE PUSH1 0x40 DUP2 KECCAK256 DUP5 SWAP2 PUSH2 0x20C1 PUSH1 0x1 DUP6 PUSH2 0x2994 JUMP JUMPDEST DUP2 MSTORE PUSH1 0x20 DUP2 ADD SWAP2 SWAP1 SWAP2 MSTORE PUSH1 0x40 ADD PUSH1 0x0 KECCAK256 PUSH1 0x1 ADD SSTORE PUSH2 0x2033 JUMP JUMPDEST PUSH1 0x40 DUP1 MLOAD DUP1 DUP3 ADD DUP3 MSTORE DUP4 DUP2 MSTORE PUSH1 0x20 DUP1 DUP3 ADD DUP7 DUP2 MSTORE PUSH1 0x1 PUSH1 0x1 PUSH1 0xA0 SHL SUB DUP9 AND PUSH1 0x0 SWAP1 DUP2 MSTORE PUSH1 0xD DUP4 MSTORE DUP5 DUP2 KECCAK256 DUP7 DUP3 MSTORE SWAP1 SWAP3 MSTORE SWAP3 SWAP1 KECCAK256 SWAP1 MLOAD DUP2 SSTORE SWAP1 MLOAD PUSH1 0x1 SWAP2 DUP3 ADD SSTORE PUSH2 0x2124 SWAP1 DUP3 SWAP1 PUSH2 0x29CD JUMP JUMPDEST PUSH1 0x1 PUSH1 0x1 PUSH1 0xA0 SHL SUB DUP6 AND PUSH1 0x0 SWAP1 DUP2 MSTORE PUSH1 0xE PUSH1 0x20 MSTORE PUSH1 0x40 SWAP1 KECCAK256 SSTORE POP POP POP POP JUMP JUMPDEST PUSH1 0x10 SLOAD TIMESTAMP DUP2 ISZERO DUP1 ISZERO SWAP1 PUSH2 0x2175 JUMPI POP DUP1 PUSH1 0xF PUSH1 0x0 PUSH2 0x2161 PUSH1 0x1 DUP7 PUSH2 0x2994 JUMP JUMPDEST DUP2 MSTORE PUSH1 0x20 ADD SWAP1 DUP2 MSTORE PUSH1 0x20 ADD PUSH1 0x0 KECCAK256 PUSH1 0x0 ADD SLOAD EQ JUMPDEST ISZERO PUSH2 0x21A6 JUMPI PUSH1 0x1 SLOAD PUSH1 0xF PUSH1 0x0 PUSH1 0x1 DUP6 PUSH2 0x218E SWAP2 SWAP1 PUSH2 0x2994 JUMP JUMPDEST DUP2 MSTORE PUSH1 0x20 DUP2 ADD SWAP2 SWAP1 SWAP2 MSTORE PUSH1 0x40 ADD PUSH1 0x0 KECCAK256 PUSH1 0x1 ADD SSTORE POP POP JUMP JUMPDEST PUSH1 0x40 DUP1 MLOAD DUP1 DUP3 ADD DUP3 MSTORE DUP3 DUP2 MSTORE PUSH1 0x1 DUP1 SLOAD PUSH1 0x20 DUP1 DUP5 ADD SWAP2 DUP3 MSTORE PUSH1 0x0 DUP8 DUP2 MSTORE PUSH1 0xF SWAP1 SWAP2 MSTORE SWAP4 SWAP1 SWAP4 KECCAK256 SWAP2 MLOAD DUP3 SSTORE SWAP2 MLOAD SWAP1 DUP3 ADD SSTORE PUSH2 0x21E1 SWAP1 DUP4 SWAP1 PUSH2 0x29CD JUMP JUMPDEST PUSH1 0x10 SSTORE POP POP JUMP JUMPDEST PUSH1 0x1 PUSH1 0x1 PUSH1 0xA0 SHL SUB DUP3 AND PUSH1 0x0 SWAP1 DUP2 MSTORE PUSH1 0x4 PUSH1 0x20 SWAP1 DUP2 MSTORE PUSH1 0x40 DUP1 DUP4 KECCAK256 SLOAD PUSH1 0x5 SWAP1 SWAP3 MSTORE DUP3 KECCAK256 SLOAD PUSH1 0x10 SLOAD DUP4 SWAP3 SWAP2 SWAP1 PUSH2 0x2220 JUMPI SWAP3 POP SWAP1 POP PUSH2 0x1B0D JUMP JUMPDEST PUSH1 0x1 PUSH1 0x1 PUSH1 0xA0 SHL SUB DUP7 AND PUSH1 0x0 SWAP1 DUP2 MSTORE PUSH1 0x3 PUSH1 0x20 MSTORE PUSH1 0x40 SWAP1 KECCAK256 SLOAD PUSH2 0x2249 JUMPI SWAP3 POP TIMESTAMP SWAP2 POP PUSH2 0x1B0D SWAP1 POP JUMP JUMPDEST PUSH1 0x0 PUSH2 0x2254 DUP4 PUSH2 0xEBA JUMP JUMPDEST SWAP1 POP PUSH1 0x0 PUSH2 0x2270 PUSH1 0x1 PUSH1 0x10 SLOAD PUSH2 0x226A SWAP2 SWAP1 PUSH2 0x2994 JUMP JUMPDEST DUP9 PUSH2 0x2436 JUMP JUMPDEST SWAP1 POP DUP2 JUMPDEST DUP2 DUP2 LT ISZERO PUSH2 0x2338 JUMPI PUSH1 0x0 DUP2 DUP2 MSTORE PUSH1 0xF PUSH1 0x20 SWAP1 DUP2 MSTORE PUSH1 0x40 SWAP2 DUP3 SWAP1 KECCAK256 DUP3 MLOAD DUP1 DUP5 ADD SWAP1 SWAP4 MSTORE DUP1 SLOAD DUP4 MSTORE PUSH1 0x1 ADD SLOAD SWAP1 DUP3 ADD DUP2 SWAP1 MSTORE ISZERO PUSH2 0x2325 JUMPI PUSH1 0x0 PUSH1 0xF DUP2 PUSH2 0x22B9 DUP6 PUSH1 0x1 PUSH2 0x29CD JUMP JUMPDEST DUP2 MSTORE PUSH1 0x20 ADD SWAP1 DUP2 MSTORE PUSH1 0x20 ADD PUSH1 0x0 KECCAK256 PUSH1 0x40 MLOAD DUP1 PUSH1 0x40 ADD PUSH1 0x40 MSTORE SWAP1 DUP2 PUSH1 0x0 DUP3 ADD SLOAD DUP2 MSTORE PUSH1 0x20 ADD PUSH1 0x1 DUP3 ADD SLOAD DUP2 MSTORE POP POP SWAP1 POP PUSH1 0x0 DUP1 PUSH2 0x2304 DUP14 DUP5 PUSH1 0x0 ADD MLOAD DUP7 PUSH1 0x0 ADD MLOAD DUP8 PUSH1 0x20 ADD MLOAD DUP14 PUSH2 0x2690 JUMP JUMPDEST SWAP1 SWAP3 POP SWAP1 POP PUSH2 0x2313 DUP3 DUP10 PUSH2 0x29CD JUMP JUMPDEST SWAP8 POP PUSH2 0x2320 DUP14 DUP10 DUP4 PUSH2 0x2347 JUMP JUMPDEST SWAP8 POP POP POP JUMPDEST POP DUP1 PUSH2 0x2330 DUP2 PUSH2 0x2A04 JUMP JUMPDEST SWAP2 POP POP PUSH2 0x2274 JUMP JUMPDEST POP SWAP2 SWAP8 SWAP3 SWAP7 POP SWAP2 SWAP5 POP POP POP POP POP JUMP JUMPDEST PUSH1 0x1 PUSH1 0x1 PUSH1 0xA0 SHL SUB DUP4 AND PUSH1 0x0 SWAP1 DUP2 MSTORE PUSH1 0x12 PUSH1 0x20 MSTORE PUSH1 0x40 SWAP1 KECCAK256 SLOAD DUP1 ISZERO DUP1 ISZERO SWAP1 PUSH2 0x23A3 JUMPI POP PUSH1 0x1 PUSH1 0x1 PUSH1 0xA0 SHL SUB DUP5 AND PUSH1 0x0 SWAP1 DUP2 MSTORE PUSH1 0x11 PUSH1 0x20 MSTORE PUSH1 0x40 DUP2 KECCAK256 DUP4 SWAP2 PUSH2 0x238F PUSH1 0x1 DUP6 PUSH2 0x2994 JUMP JUMPDEST DUP2 MSTORE PUSH1 0x20 ADD SWAP1 DUP2 MSTORE PUSH1 0x20 ADD PUSH1 0x0 KECCAK256 PUSH1 0x0 ADD SLOAD EQ JUMPDEST ISZERO PUSH2 0x23CD JUMPI PUSH1 0x1 PUSH1 0x1 PUSH1 0xA0 SHL SUB DUP5 AND PUSH1 0x0 SWAP1 DUP2 MSTORE PUSH1 0x11 PUSH1 0x20 MSTORE PUSH1 0x40 DUP2 KECCAK256 DUP5 SWAP2 PUSH2 0x20C1 PUSH1 0x1 DUP6 PUSH2 0x2994 JUMP JUMPDEST PUSH1 0x40 DUP1 MLOAD DUP1 DUP3 ADD DUP3 MSTORE DUP4 DUP2 MSTORE PUSH1 0x20 DUP1 DUP3 ADD DUP7 DUP2 MSTORE PUSH1 0x1 PUSH1 0x1 PUSH1 0xA0 SHL SUB DUP9 AND PUSH1 0x0 SWAP1 DUP2 MSTORE PUSH1 0x11 DUP4 MSTORE DUP5 DUP2 KECCAK256 DUP7 DUP3 MSTORE SWAP1 SWAP3 MSTORE SWAP3 SWAP1 KECCAK256 SWAP1 MLOAD DUP2 SSTORE SWAP1 MLOAD PUSH1 0x1 SWAP2 DUP3 ADD SSTORE PUSH2 0x2417 SWAP1 DUP3 SWAP1 PUSH2 0x29CD JUMP JUMPDEST PUSH1 0x1 PUSH1 0x1 PUSH1 0xA0 SHL SUB DUP6 AND PUSH1 0x0 SWAP1 DUP2 MSTORE PUSH1 0x12 PUSH1 0x20 MSTORE PUSH1 0x40 SWAP1 KECCAK256 SSTORE POP POP POP POP JUMP JUMPDEST PUSH1 0x0 DUP2 DUP4 LT PUSH2 0x1DC3 JUMPI DUP2 PUSH2 0xF00 JUMP JUMPDEST PUSH1 0x40 DUP1 MLOAD PUSH1 0x1 PUSH1 0x1 PUSH1 0xA0 SHL SUB DUP6 DUP2 AND PUSH1 0x24 DUP4 ADD MSTORE DUP5 DUP2 AND PUSH1 0x44 DUP4 ADD MSTORE PUSH1 0x64 DUP1 DUP4 ADD DUP6 SWAP1 MSTORE DUP4 MLOAD DUP1 DUP5 SUB SWAP1 SWAP2 ADD DUP2 MSTORE PUSH1 0x84 SWAP1 SWAP3 ADD DUP4 MSTORE PUSH1 0x20 DUP3 ADD DUP1 MLOAD PUSH1 0x1 PUSH1 0x1 PUSH1 0xE0 SHL SUB AND PUSH4 0x23B872DD PUSH1 0xE0 SHL OR SWAP1 MSTORE SWAP2 MLOAD PUSH1 0x0 SWAP3 DUP4 SWAP3 SWAP1 DUP9 AND SWAP2 PUSH2 0x24A9 SWAP2 SWAP1 PUSH2 0x2AA2 JUMP JUMPDEST PUSH1 0x0 PUSH1 0x40 MLOAD DUP1 DUP4 SUB DUP2 PUSH1 0x0 DUP7 GAS CALL SWAP2 POP POP RETURNDATASIZE DUP1 PUSH1 0x0 DUP2 EQ PUSH2 0x24E6 JUMPI PUSH1 0x40 MLOAD SWAP2 POP PUSH1 0x1F NOT PUSH1 0x3F RETURNDATASIZE ADD AND DUP3 ADD PUSH1 0x40 MSTORE RETURNDATASIZE DUP3 MSTORE RETURNDATASIZE PUSH1 0x0 PUSH1 0x20 DUP5 ADD RETURNDATACOPY PUSH2 0x24EB JUMP JUMPDEST PUSH1 0x60 SWAP2 POP JUMPDEST POP SWAP2 POP SWAP2 POP DUP2 DUP1 ISZERO PUSH2 0x2515 JUMPI POP DUP1 MLOAD ISZERO DUP1 PUSH2 0x2515 JUMPI POP DUP1 DUP1 PUSH1 0x20 ADD SWAP1 MLOAD DUP2 ADD SWAP1 PUSH2 0x2515 SWAP2 SWAP1 PUSH2 0x2ADD JUMP JUMPDEST PUSH2 0x256D JUMPI PUSH1 0x40 MLOAD PUSH3 0x461BCD PUSH1 0xE5 SHL DUP2 MSTORE PUSH1 0x20 PUSH1 0x4 DUP3 ADD MSTORE PUSH1 0x24 DUP1 DUP3 ADD MSTORE PUSH32 0x5472616E7366657248656C7065723A205452414E534645525F46524F4D5F4641 PUSH1 0x44 DUP3 ADD MSTORE PUSH4 0x12531151 PUSH1 0xE2 SHL PUSH1 0x64 DUP3 ADD MSTORE PUSH1 0x84 ADD PUSH2 0xA96 JUMP JUMPDEST POP POP POP POP POP POP JUMP JUMPDEST PUSH1 0x40 DUP1 MLOAD PUSH1 0x1 PUSH1 0x1 PUSH1 0xA0 SHL SUB DUP5 DUP2 AND PUSH1 0x24 DUP4 ADD MSTORE PUSH1 0x44 DUP1 DUP4 ADD DUP6 SWAP1 MSTORE DUP4 MLOAD DUP1 DUP5 SUB SWAP1 SWAP2 ADD DUP2 MSTORE PUSH1 0x64 SWAP1 SWAP3 ADD DUP4 MSTORE PUSH1 0x20 DUP3 ADD DUP1 MLOAD PUSH1 0x1 PUSH1 0x1 PUSH1 0xE0 SHL SUB AND PUSH4 0xA9059CBB PUSH1 0xE0 SHL OR SWAP1 MSTORE SWAP2 MLOAD PUSH1 0x0 SWAP3 DUP4 SWAP3 SWAP1 DUP8 AND SWAP2 PUSH2 0x25D1 SWAP2 SWAP1 PUSH2 0x2AA2 JUMP JUMPDEST PUSH1 0x0 PUSH1 0x40 MLOAD DUP1 DUP4 SUB DUP2 PUSH1 0x0 DUP7 GAS CALL SWAP2 POP POP RETURNDATASIZE DUP1 PUSH1 0x0 DUP2 EQ PUSH2 0x260E JUMPI PUSH1 0x40 MLOAD SWAP2 POP PUSH1 0x1F NOT PUSH1 0x3F RETURNDATASIZE ADD AND DUP3 ADD PUSH1 0x40 MSTORE RETURNDATASIZE DUP3 MSTORE RETURNDATASIZE PUSH1 0x0 PUSH1 0x20 DUP5 ADD RETURNDATACOPY PUSH2 0x2613 JUMP JUMPDEST PUSH1 0x60 SWAP2 POP JUMPDEST POP SWAP2 POP SWAP2 POP DUP2 DUP1 ISZERO PUSH2 0x263D JUMPI POP DUP1 MLOAD ISZERO DUP1 PUSH2 0x263D JUMPI POP DUP1 DUP1 PUSH1 0x20 ADD SWAP1 MLOAD DUP2 ADD SWAP1 PUSH2 0x263D SWAP2 SWAP1 PUSH2 0x2ADD JUMP JUMPDEST PUSH2 0x2689 JUMPI PUSH1 0x40 MLOAD PUSH3 0x461BCD PUSH1 0xE5 SHL DUP2 MSTORE PUSH1 0x20 PUSH1 0x4 DUP3 ADD MSTORE PUSH1 0x1F PUSH1 0x24 DUP3 ADD MSTORE PUSH32 0x5472616E7366657248656C7065723A205452414E534645525F4641494C454400 PUSH1 0x44 DUP3 ADD MSTORE PUSH1 0x64 ADD PUSH2 0xA96 JUMP JUMPDEST POP POP POP POP POP JUMP JUMPDEST PUSH1 0x0 DUP1 PUSH1 0x0 PUSH2 0x269F DUP8 DUP6 PUSH2 0x1DB3 JUMP JUMPDEST PUSH1 0x1 PUSH1 0x1 PUSH1 0xA0 SHL SUB DUP10 AND PUSH1 0x0 SWAP1 DUP2 MSTORE PUSH1 0x3 PUSH1 0x20 MSTORE PUSH1 0x40 SWAP1 KECCAK256 SLOAD SWAP1 SWAP2 POP DUP6 SWAP1 PUSH8 0xDE0B6B3A7640000 SWAP1 PUSH2 0x26D1 DUP10 DUP9 PUSH2 0x1DB3 JUMP JUMPDEST PUSH2 0x26DB SWAP1 DUP6 PUSH2 0x2994 JUMP JUMPDEST PUSH2 0x26E5 SWAP2 SWAP1 PUSH2 0x29E5 JUMP JUMPDEST PUSH2 0x26EF SWAP2 SWAP1 PUSH2 0x29E5 JUMP JUMPDEST PUSH2 0x26F9 SWAP2 SWAP1 PUSH2 0x29AB JUMP JUMPDEST SWAP9 SWAP1 SWAP8 POP SWAP6 POP POP POP POP POP POP JUMP JUMPDEST PUSH1 0x40 MLOAD PUSH4 0x70A08231 PUSH1 0xE0 SHL DUP2 MSTORE ADDRESS PUSH1 0x4 DUP3 ADD MSTORE PUSH1 0x0 SWAP1 PUSH1 0x1 PUSH1 0x1 PUSH1 0xA0 SHL SUB DUP5 AND SWAP1 PUSH4 0x70A08231 SWAP1 PUSH1 0x24 ADD PUSH1 0x20 PUSH1 0x40 MLOAD DUP1 DUP4 SUB DUP2 DUP7 GAS STATICCALL ISZERO DUP1 ISZERO PUSH2 0x274D JUMPI RETURNDATASIZE PUSH1 0x0 DUP1 RETURNDATACOPY RETURNDATASIZE PUSH1 0x0 REVERT JUMPDEST POP POP POP POP PUSH1 0x40 MLOAD RETURNDATASIZE PUSH1 0x1F NOT PUSH1 0x1F DUP3 ADD AND DUP3 ADD DUP1 PUSH1 0x40 MSTORE POP DUP2 ADD SWAP1 PUSH2 0x2771 SWAP2 SWAP1 PUSH2 0x2A6C JUMP JUMPDEST SWAP1 POP DUP2 DUP2 LT ISZERO PUSH2 0x27A7 JUMPI PUSH2 0x27A7 DUP4 PUSH32 0x0 ADDRESS DUP6 PUSH2 0x2445 JUMP JUMPDEST POP POP POP JUMP JUMPDEST PUSH1 0x1 PUSH1 0x1 PUSH1 0xA0 SHL SUB DUP2 AND DUP2 EQ PUSH2 0x1224 JUMPI PUSH1 0x0 DUP1 REVERT JUMPDEST DUP1 CALLDATALOAD PUSH2 0x27CC DUP2 PUSH2 0x27AC JUMP JUMPDEST SWAP2 SWAP1 POP JUMP JUMPDEST PUSH1 0x0 DUP1 PUSH1 0x40 DUP4 DUP6 SUB SLT ISZERO PUSH2 0x27E4 JUMPI PUSH1 0x0 DUP1 REVERT JUMPDEST DUP3 CALLDATALOAD PUSH2 0x27EF DUP2 PUSH2 0x27AC JUMP JUMPDEST SWAP5 PUSH1 0x20 SWAP4 SWAP1 SWAP4 ADD CALLDATALOAD SWAP4 POP POP POP JUMP JUMPDEST PUSH1 0x0 DUP1 PUSH1 0x40 DUP4 DUP6 SUB SLT ISZERO PUSH2 0x2810 JUMPI PUSH1 0x0 DUP1 REVERT JUMPDEST DUP3 CALLDATALOAD PUSH2 0x281B DUP2 PUSH2 0x27AC JUMP JUMPDEST SWAP2 POP PUSH1 0x20 DUP4 ADD CALLDATALOAD PUSH2 0x282B DUP2 PUSH2 0x27AC JUMP JUMPDEST DUP1 SWAP2 POP POP SWAP3 POP SWAP3 SWAP1 POP JUMP JUMPDEST PUSH1 0x0 PUSH1 0x20 DUP3 DUP5 SUB SLT ISZERO PUSH2 0x2848 JUMPI PUSH1 0x0 DUP1 REVERT JUMPDEST DUP2 CALLDATALOAD PUSH2 0xF00 DUP2 PUSH2 0x27AC JUMP JUMPDEST PUSH1 0x0 PUSH1 0x20 DUP3 DUP5 SUB SLT ISZERO PUSH2 0x2865 JUMPI PUSH1 0x0 DUP1 REVERT JUMPDEST POP CALLDATALOAD SWAP2 SWAP1 POP JUMP JUMPDEST PUSH4 0x4E487B71 PUSH1 0xE0 SHL PUSH1 0x0 MSTORE PUSH1 0x41 PUSH1 0x4 MSTORE PUSH1 0x24 PUSH1 0x0 REVERT JUMPDEST PUSH1 0x0 DUP1 PUSH1 0x40 DUP4 DUP6 SUB SLT ISZERO PUSH2 0x2895 JUMPI PUSH1 0x0 DUP1 REVERT JUMPDEST DUP3 CALLDATALOAD PUSH2 0x28A0 DUP2 PUSH2 0x27AC JUMP JUMPDEST SWAP2 POP PUSH1 0x20 DUP4 DUP2 ADD CALLDATALOAD PUSH8 0xFFFFFFFFFFFFFFFF DUP1 DUP3 GT ISZERO PUSH2 0x28BE JUMPI PUSH1 0x0 DUP1 REVERT JUMPDEST DUP2 DUP7 ADD SWAP2 POP DUP7 PUSH1 0x1F DUP4 ADD SLT PUSH2 0x28D2 JUMPI PUSH1 0x0 DUP1 REVERT JUMPDEST DUP2 CALLDATALOAD DUP2 DUP2 GT ISZERO PUSH2 0x28E4 JUMPI PUSH2 0x28E4 PUSH2 0x286C JUMP JUMPDEST DUP1 PUSH1 0x5 SHL PUSH1 0x40 MLOAD PUSH1 0x1F NOT PUSH1 0x3F DUP4 ADD AND DUP2 ADD DUP2 DUP2 LT DUP6 DUP3 GT OR ISZERO PUSH2 0x2909 JUMPI PUSH2 0x2909 PUSH2 0x286C JUMP JUMPDEST PUSH1 0x40 MSTORE SWAP2 DUP3 MSTORE DUP5 DUP3 ADD SWAP3 POP DUP4 DUP2 ADD DUP6 ADD SWAP2 DUP10 DUP4 GT ISZERO PUSH2 0x2927 JUMPI PUSH1 0x0 DUP1 REVERT JUMPDEST SWAP4 DUP6 ADD SWAP4 JUMPDEST DUP3 DUP6 LT ISZERO PUSH2 0x294C JUMPI PUSH2 0x293D DUP6 PUSH2 0x27C1 JUMP JUMPDEST DUP5 MSTORE SWAP4 DUP6 ADD SWAP4 SWAP3 DUP6 ADD SWAP3 PUSH2 0x292C JUMP JUMPDEST DUP1 SWAP7 POP POP POP POP POP POP POP SWAP3 POP SWAP3 SWAP1 POP JUMP JUMPDEST PUSH1 0x0 DUP1 PUSH1 0x40 DUP4 DUP6 SUB SLT ISZERO PUSH2 0x296F JUMPI PUSH1 0x0 DUP1 REVERT JUMPDEST POP POP DUP1 CALLDATALOAD SWAP3 PUSH1 0x20 SWAP1 SWAP2 ADD CALLDATALOAD SWAP2 POP JUMP JUMPDEST PUSH4 0x4E487B71 PUSH1 0xE0 SHL PUSH1 0x0 MSTORE PUSH1 0x11 PUSH1 0x4 MSTORE PUSH1 0x24 PUSH1 0x0 REVERT JUMPDEST PUSH1 0x0 DUP3 DUP3 LT ISZERO PUSH2 0x29A6 JUMPI PUSH2 0x29A6 PUSH2 0x297E JUMP JUMPDEST POP SUB SWAP1 JUMP JUMPDEST PUSH1 0x0 DUP3 PUSH2 0x29C8 JUMPI PUSH4 0x4E487B71 PUSH1 0xE0 SHL PUSH1 0x0 MSTORE PUSH1 0x12 PUSH1 0x4 MSTORE PUSH1 0x24 PUSH1 0x0 REVERT JUMPDEST POP DIV SWAP1 JUMP JUMPDEST PUSH1 0x0 DUP3 NOT DUP3 GT ISZERO PUSH2 0x29E0 JUMPI PUSH2 0x29E0 PUSH2 0x297E JUMP JUMPDEST POP ADD SWAP1 JUMP JUMPDEST PUSH1 0x0 DUP2 PUSH1 0x0 NOT DIV DUP4 GT DUP3 ISZERO ISZERO AND ISZERO PUSH2 0x29FF JUMPI PUSH2 0x29FF PUSH2 0x297E JUMP JUMPDEST POP MUL SWAP1 JUMP JUMPDEST PUSH1 0x0 PUSH1 0x0 NOT DUP3 EQ ISZERO PUSH2 0x2A18 JUMPI PUSH2 0x2A18 PUSH2 0x297E JUMP JUMPDEST POP PUSH1 0x1 ADD SWAP1 JUMP JUMPDEST PUSH1 0x20 DUP1 DUP3 MSTORE PUSH1 0x1F SWAP1 DUP3 ADD MSTORE PUSH32 0x5265656E7472616E637947756172643A207265656E7472616E742063616C6C00 PUSH1 0x40 DUP3 ADD MSTORE PUSH1 0x60 ADD SWAP1 JUMP JUMPDEST PUSH4 0x4E487B71 PUSH1 0xE0 SHL PUSH1 0x0 MSTORE PUSH1 0x32 PUSH1 0x4 MSTORE PUSH1 0x24 PUSH1 0x0 REVERT JUMPDEST PUSH1 0x0 PUSH1 0x20 DUP3 DUP5 SUB SLT ISZERO PUSH2 0x2A7E JUMPI PUSH1 0x0 DUP1 REVERT JUMPDEST POP MLOAD SWAP2 SWAP1 POP JUMP JUMPDEST PUSH1 0x0 PUSH1 0x20 DUP3 DUP5 SUB SLT ISZERO PUSH2 0x2A97 JUMPI PUSH1 0x0 DUP1 REVERT JUMPDEST DUP2 MLOAD PUSH2 0xF00 DUP2 PUSH2 0x27AC JUMP JUMPDEST PUSH1 0x0 DUP3 MLOAD PUSH1 0x0 JUMPDEST DUP2 DUP2 LT ISZERO PUSH2 0x2AC3 JUMPI PUSH1 0x20 DUP2 DUP7 ADD DUP2 ADD MLOAD DUP6 DUP4 ADD MSTORE ADD PUSH2 0x2AA9 JUMP JUMPDEST DUP2 DUP2 GT ISZERO PUSH2 0x2AD2 JUMPI PUSH1 0x0 DUP3 DUP6 ADD MSTORE JUMPDEST POP SWAP2 SWAP1 SWAP2 ADD SWAP3 SWAP2 POP POP JUMP JUMPDEST PUSH1 0x0 PUSH1 0x20 DUP3 DUP5 SUB SLT ISZERO PUSH2 0x2AEF JUMPI PUSH1 0x0 DUP1 REVERT JUMPDEST DUP2 MLOAD DUP1 ISZERO ISZERO DUP2 EQ PUSH2 0xF00 JUMPI PUSH1 0x0 DUP1 REVERT INVALID LOG2 PUSH5 0x6970667358 0x22 SLT KECCAK256 0xB8 LOG2 CALLDATALOAD PUSH10 0xC7C60CEA67A58E4DD235 LT 0xA9 DUP4 EXTCODEHASH SWAP9 0x2D STATICCALL 0xA6 0x22 SLOAD 0xC5 SWAP15 PUSH32 0x6F8FD0B8E964736F6C634300080A003300000000000000000000000000000000 "
				},
				"gasEstimates": {
					"creation": {
						"codeDepositCost": "2212200",
						"executionCost": "infinite",
						"totalCost": "infinite"
					},
					"external": {
						"balanceOf(address)": "2646",
						"batchRewardPerToken(address,uint256)": "infinite",
						"boost()": "infinite",
						"checkpoints(address,uint256)": "4803",
						"deposit(uint256,uint256)": "infinite",
						"depositAll(uint256)": "infinite",
						"derivedBalance(address)": "infinite",
						"derivedBalances(address)": "2602",
						"derivedSupply()": "2340",
						"earned(address,address)": "infinite",
						"getPriorBalanceIndex(address,uint256)": "infinite",
						"getPriorRewardPerToken(address,uint256)": "infinite",
						"getPriorSupplyIndex(uint256)": "infinite",
						"getReward(address,address[])": "infinite",
						"isReward(address)": "2637",
						"lastEarn(address,address)": "infinite",
						"lastTimeRewardApplicable(address)": "415",
						"lastUpdateTime(address)": "2603",
						"notifyRewardAmount(address,uint256)": "infinite",
						"numCheckpoints(address)": "2624",
						"rewardPerToken(address)": "infinite",
						"rewardPerTokenCheckpoints(address,uint256)": "4781",
						"rewardPerTokenNumCheckpoints(address)": "2580",
						"rewardPerTokenStored(address)": "2603",
						"rewardRate(address)": "2581",
						"rewards(uint256)": "4658",
						"rewardsListLength()": "2381",
						"stake()": "infinite",
						"supplyCheckpoints(uint256)": "4632",
						"supplyNumCheckpoints()": "2406",
						"tokenIds(address)": "2601",
						"totalSupply()": "2408",
						"userRewardPerTokenStored(address,address)": "infinite",
						"veToken()": "infinite",
						"withdraw(uint256)": "infinite",
						"withdrawAll()": "infinite",
						"withdrawToken(uint256,uint256)": "infinite"
					},
					"internal": {
						"_batchRewardPerToken(address,uint256)": "infinite",
						"_calcRewardPerToken(address,uint256,uint256,uint256,uint256)": "infinite",
						"_safeTokenTransfer(address,address,uint256)": "infinite",
						"_safeTransferFromToken(address,uint256)": "infinite",
						"_updateRewardPerToken(address)": "infinite",
						"_writeCheckpoint(address,uint256)": "infinite",
						"_writeRewardPerTokenCheckpoint(address,uint256,uint256)": "infinite",
						"_writeSupplyCheckpoint()": "infinite"
					}
				},
				"methodIdentifiers": {
					"balanceOf(address)": "70a08231",
					"batchRewardPerToken(address,uint256)": "5a45d052",
					"boost()": "a66f42c0",
					"checkpoints(address,uint256)": "0cdfebfa",
					"deposit(uint256,uint256)": "e2bbb158",
					"depositAll(uint256)": "c6f678bd",
					"derivedBalance(address)": "d35e2544",
					"derivedBalances(address)": "63fb415b",
					"derivedSupply()": "d7da4bb0",
					"earned(address,address)": "211dc32d",
					"getPriorBalanceIndex(address,uint256)": "115c6f39",
					"getPriorRewardPerToken(address,uint256)": "fd314098",
					"getPriorSupplyIndex(uint256)": "76f4be36",
					"getReward(address,address[])": "31279d3d",
					"isReward(address)": "4d5ce038",
					"lastEarn(address,address)": "a495e5b5",
					"lastTimeRewardApplicable(address)": "638634ee",
					"lastUpdateTime(address)": "2ce9aead",
					"notifyRewardAmount(address,uint256)": "b66503cf",
					"numCheckpoints(address)": "6fcfff45",
					"rewardPerToken(address)": "f1229777",
					"rewardPerTokenCheckpoints(address,uint256)": "01316ddf",
					"rewardPerTokenNumCheckpoints(address)": "aa479652",
					"rewardPerTokenStored(address)": "9ce43f90",
					"rewardRate(address)": "221ca18c",
					"rewards(uint256)": "f301af42",
					"rewardsListLength()": "e6886396",
					"stake()": "3a4b66f1",
					"supplyCheckpoints(uint256)": "f7412baf",
					"supplyNumCheckpoints()": "e8111a12",
					"tokenIds(address)": "fc97a303",
					"totalSupply()": "18160ddd",
					"userRewardPerTokenStored(address,address)": "3ca068b6",
					"veToken()": "3b92eb23",
					"withdraw(uint256)": "2e1a7d4d",
					"withdrawAll()": "853828b6",
					"withdrawToken(uint256,uint256)": "fdb483c7"
				}
			},
			"storageLayout": {
				"storage": [
					{
						"astId": 97,
						"contract": "contracts/Gauge.sol:Gauge",
						"label": "_status",
						"offset": 0,
						"slot": "0",
						"type": "t_uint256"
					},
					{
						"astId": 528,
						"contract": "contracts/Gauge.sol:Gauge",
						"label": "derivedSupply",
						"offset": 0,
						"slot": "1",
						"type": "t_uint256"
					},
					{
						"astId": 532,
						"contract": "contracts/Gauge.sol:Gauge",
						"label": "derivedBalances",
						"offset": 0,
						"slot": "2",
						"type": "t_mapping(t_address,t_uint256)"
					},
					{
						"astId": 541,
						"contract": "contracts/Gauge.sol:Gauge",
						"label": "rewardRate",
						"offset": 0,
						"slot": "3",
						"type": "t_mapping(t_address,t_uint256)"
					},
					{
						"astId": 545,
						"contract": "contracts/Gauge.sol:Gauge",
						"label": "lastUpdateTime",
						"offset": 0,
						"slot": "4",
						"type": "t_mapping(t_address,t_uint256)"
					},
					{
						"astId": 549,
						"contract": "contracts/Gauge.sol:Gauge",
						"label": "rewardPerTokenStored",
						"offset": 0,
						"slot": "5",
						"type": "t_mapping(t_address,t_uint256)"
					},
					{
						"astId": 555,
						"contract": "contracts/Gauge.sol:Gauge",
						"label": "lastEarn",
						"offset": 0,
						"slot": "6",
						"type": "t_mapping(t_address,t_mapping(t_address,t_uint256))"
					},
					{
						"astId": 561,
						"contract": "contracts/Gauge.sol:Gauge",
						"label": "userRewardPerTokenStored",
						"offset": 0,
						"slot": "7",
						"type": "t_mapping(t_address,t_mapping(t_address,t_uint256))"
					},
					{
						"astId": 565,
						"contract": "contracts/Gauge.sol:Gauge",
						"label": "tokenIds",
						"offset": 0,
						"slot": "8",
						"type": "t_mapping(t_address,t_uint256)"
					},
					{
						"astId": 567,
						"contract": "contracts/Gauge.sol:Gauge",
						"label": "totalSupply",
						"offset": 0,
						"slot": "9",
						"type": "t_uint256"
					},
					{
						"astId": 571,
						"contract": "contracts/Gauge.sol:Gauge",
						"label": "balanceOf",
						"offset": 0,
						"slot": "10",
						"type": "t_mapping(t_address,t_uint256)"
					},
					{
						"astId": 574,
						"contract": "contracts/Gauge.sol:Gauge",
						"label": "rewards",
						"offset": 0,
						"slot": "11",
						"type": "t_array(t_address)dyn_storage"
					},
					{
						"astId": 578,
						"contract": "contracts/Gauge.sol:Gauge",
						"label": "isReward",
						"offset": 0,
						"slot": "12",
						"type": "t_mapping(t_address,t_bool)"
					},
					{
						"astId": 600,
						"contract": "contracts/Gauge.sol:Gauge",
						"label": "checkpoints",
						"offset": 0,
						"slot": "13",
						"type": "t_mapping(t_address,t_mapping(t_uint256,t_struct(Checkpoint)583_storage))"
					},
					{
						"astId": 604,
						"contract": "contracts/Gauge.sol:Gauge",
						"label": "numCheckpoints",
						"offset": 0,
						"slot": "14",
						"type": "t_mapping(t_address,t_uint256)"
					},
					{
						"astId": 609,
						"contract": "contracts/Gauge.sol:Gauge",
						"label": "supplyCheckpoints",
						"offset": 0,
						"slot": "15",
						"type": "t_mapping(t_uint256,t_struct(SupplyCheckpoint)593_storage)"
					},
					{
						"astId": 611,
						"contract": "contracts/Gauge.sol:Gauge",
						"label": "supplyNumCheckpoints",
						"offset": 0,
						"slot": "16",
						"type": "t_uint256"
					},
					{
						"astId": 618,
						"contract": "contracts/Gauge.sol:Gauge",
						"label": "rewardPerTokenCheckpoints",
						"offset": 0,
						"slot": "17",
						"type": "t_mapping(t_address,t_mapping(t_uint256,t_struct(RewardPerTokenCheckpoint)588_storage))"
					},
					{
						"astId": 622,
						"contract": "contracts/Gauge.sol:Gauge",
						"label": "rewardPerTokenNumCheckpoints",
						"offset": 0,
						"slot": "18",
						"type": "t_mapping(t_address,t_uint256)"
					}
				],
				"types": {
					"t_address": {
						"encoding": "inplace",
						"label": "address",
						"numberOfBytes": "20"
					},
					"t_array(t_address)dyn_storage": {
						"base": "t_address",
						"encoding": "dynamic_array",
						"label": "address[]",
						"numberOfBytes": "32"
					},
					"t_bool": {
						"encoding": "inplace",
						"label": "bool",
						"numberOfBytes": "1"
					},
					"t_mapping(t_address,t_bool)": {
						"encoding": "mapping",
						"key": "t_address",
						"label": "mapping(address => bool)",
						"numberOfBytes": "32",
						"value": "t_bool"
					},
					"t_mapping(t_address,t_mapping(t_address,t_uint256))": {
						"encoding": "mapping",
						"key": "t_address",
						"label": "mapping(address => mapping(address => uint256))",
						"numberOfBytes": "32",
						"value": "t_mapping(t_address,t_uint256)"
					},
					"t_mapping(t_address,t_mapping(t_uint256,t_struct(Checkpoint)583_storage))": {
						"encoding": "mapping",
						"key": "t_address",
						"label": "mapping(address => mapping(uint256 => struct Gauge.Checkpoint))",
						"numberOfBytes": "32",
						"value": "t_mapping(t_uint256,t_struct(Checkpoint)583_storage)"
					},
					"t_mapping(t_address,t_mapping(t_uint256,t_struct(RewardPerTokenCheckpoint)588_storage))": {
						"encoding": "mapping",
						"key": "t_address",
						"label": "mapping(address => mapping(uint256 => struct Gauge.RewardPerTokenCheckpoint))",
						"numberOfBytes": "32",
						"value": "t_mapping(t_uint256,t_struct(RewardPerTokenCheckpoint)588_storage)"
					},
					"t_mapping(t_address,t_uint256)": {
						"encoding": "mapping",
						"key": "t_address",
						"label": "mapping(address => uint256)",
						"numberOfBytes": "32",
						"value": "t_uint256"
					},
					"t_mapping(t_uint256,t_struct(Checkpoint)583_storage)": {
						"encoding": "mapping",
						"key": "t_uint256",
						"label": "mapping(uint256 => struct Gauge.Checkpoint)",
						"numberOfBytes": "32",
						"value": "t_struct(Checkpoint)583_storage"
					},
					"t_mapping(t_uint256,t_struct(RewardPerTokenCheckpoint)588_storage)": {
						"encoding": "mapping",
						"key": "t_uint256",
						"label": "mapping(uint256 => struct Gauge.RewardPerTokenCheckpoint)",
						"numberOfBytes": "32",
						"value": "t_struct(RewardPerTokenCheckpoint)588_storage"
					},
					"t_mapping(t_uint256,t_struct(SupplyCheckpoint)593_storage)": {
						"encoding": "mapping",
						"key": "t_uint256",
						"label": "mapping(uint256 => struct Gauge.SupplyCheckpoint)",
						"numberOfBytes": "32",
						"value": "t_struct(SupplyCheckpoint)593_storage"
					},
					"t_struct(Checkpoint)583_storage": {
						"encoding": "inplace",
						"label": "struct Gauge.Checkpoint",
						"members": [
							{
								"astId": 580,
								"contract": "contracts/Gauge.sol:Gauge",
								"label": "timestamp",
								"offset": 0,
								"slot": "0",
								"type": "t_uint256"
							},
							{
								"astId": 582,
								"contract": "contracts/Gauge.sol:Gauge",
								"label": "balanceOf",
								"offset": 0,
								"slot": "1",
								"type": "t_uint256"
							}
						],
						"numberOfBytes": "64"
					},
					"t_struct(RewardPerTokenCheckpoint)588_storage": {
						"encoding": "inplace",
						"label": "struct Gauge.RewardPerTokenCheckpoint",
						"members": [
							{
								"astId": 585,
								"contract": "contracts/Gauge.sol:Gauge",
								"label": "timestamp",
								"offset": 0,
								"slot": "0",
								"type": "t_uint256"
							},
							{
								"astId": 587,
								"contract": "contracts/Gauge.sol:Gauge",
								"label": "rewardPerToken",
								"offset": 0,
								"slot": "1",
								"type": "t_uint256"
							}
						],
						"numberOfBytes": "64"
					},
					"t_struct(SupplyCheckpoint)593_storage": {
						"encoding": "inplace",
						"label": "struct Gauge.SupplyCheckpoint",
						"members": [
							{
								"astId": 590,
								"contract": "contracts/Gauge.sol:Gauge",
								"label": "timestamp",
								"offset": 0,
								"slot": "0",
								"type": "t_uint256"
							},
							{
								"astId": 592,
								"contract": "contracts/Gauge.sol:Gauge",
								"label": "supply",
								"offset": 0,
								"slot": "1",
								"type": "t_uint256"
							}
						],
						"numberOfBytes": "64"
					},
					"t_uint256": {
						"encoding": "inplace",
						"label": "uint256",
						"numberOfBytes": "32"
					}
				}
			},
			"userdoc": {
				"kind": "user",
				"methods": {},
				"version": 1
			}
		}
	}
}